{
  "contracts/Vether.sol": {
    "Vether": {
      "abi": [
        {
          "inputs": [],
          "stateMutability": "nonpayable",
          "type": "constructor"
        },
        {
          "anonymous": false,
          "inputs": [
            {
              "indexed": true,
              "internalType": "address",
              "name": "owner",
              "type": "address"
            },
            {
              "indexed": true,
              "internalType": "address",
              "name": "spender",
              "type": "address"
            },
            {
              "indexed": false,
              "internalType": "uint256",
              "name": "value",
              "type": "uint256"
            }
          ],
          "name": "Approval",
          "type": "event"
        },
        {
          "anonymous": false,
          "inputs": [
            {
              "indexed": true,
              "internalType": "address",
              "name": "from",
              "type": "address"
            },
            {
              "indexed": true,
              "internalType": "address",
              "name": "to",
              "type": "address"
            },
            {
              "indexed": false,
              "internalType": "uint256",
              "name": "value",
              "type": "uint256"
            }
          ],
          "name": "Transfer",
          "type": "event"
        },
        {
          "inputs": [
            {
              "internalType": "address",
              "name": "excluded",
              "type": "address"
            }
          ],
          "name": "addExcluded",
          "outputs": [],
          "stateMutability": "nonpayable",
          "type": "function"
        },
        {
          "inputs": [
            {
              "internalType": "address",
              "name": "owner",
              "type": "address"
            },
            {
              "internalType": "address",
              "name": "spender",
              "type": "address"
            }
          ],
          "name": "allowance",
          "outputs": [
            {
              "internalType": "uint256",
              "name": "",
              "type": "uint256"
            }
          ],
          "stateMutability": "view",
          "type": "function"
        },
        {
          "inputs": [
            {
              "internalType": "address",
              "name": "spender",
              "type": "address"
            },
            {
              "internalType": "uint256",
              "name": "amount",
              "type": "uint256"
            }
          ],
          "name": "approve",
          "outputs": [
            {
              "internalType": "bool",
              "name": "",
              "type": "bool"
            }
          ],
          "stateMutability": "nonpayable",
          "type": "function"
        },
        {
          "inputs": [
            {
              "internalType": "address",
              "name": "account",
              "type": "address"
            }
          ],
          "name": "balanceOf",
          "outputs": [
            {
              "internalType": "uint256",
              "name": "",
              "type": "uint256"
            }
          ],
          "stateMutability": "view",
          "type": "function"
        },
        {
          "inputs": [],
          "name": "decimals",
          "outputs": [
            {
              "internalType": "uint256",
              "name": "",
              "type": "uint256"
            }
          ],
          "stateMutability": "view",
          "type": "function"
        },
        {
          "inputs": [
            {
              "internalType": "address",
              "name": "spender",
              "type": "address"
            },
            {
              "internalType": "uint256",
              "name": "subtractedValue",
              "type": "uint256"
            }
          ],
          "name": "decreaseAllowance",
          "outputs": [
            {
              "internalType": "bool",
              "name": "",
              "type": "bool"
            }
          ],
          "stateMutability": "nonpayable",
          "type": "function"
        },
        {
          "inputs": [
            {
              "internalType": "address",
              "name": "spender",
              "type": "address"
            },
            {
              "internalType": "uint256",
              "name": "addedValue",
              "type": "uint256"
            }
          ],
          "name": "increaseAllowance",
          "outputs": [
            {
              "internalType": "bool",
              "name": "",
              "type": "bool"
            }
          ],
          "stateMutability": "nonpayable",
          "type": "function"
        },
        {
          "inputs": [
            {
              "internalType": "address",
              "name": "",
              "type": "address"
            }
          ],
          "name": "mapAddress_Excluded",
          "outputs": [
            {
              "internalType": "bool",
              "name": "",
              "type": "bool"
            }
          ],
          "stateMutability": "view",
          "type": "function"
        },
        {
          "inputs": [],
          "name": "name",
          "outputs": [
            {
              "internalType": "string",
              "name": "",
              "type": "string"
            }
          ],
          "stateMutability": "view",
          "type": "function"
        },
        {
          "inputs": [],
          "name": "symbol",
          "outputs": [
            {
              "internalType": "string",
              "name": "",
              "type": "string"
            }
          ],
          "stateMutability": "view",
          "type": "function"
        },
        {
          "inputs": [],
          "name": "totalFees",
          "outputs": [
            {
              "internalType": "uint256",
              "name": "",
              "type": "uint256"
            }
          ],
          "stateMutability": "view",
          "type": "function"
        },
        {
          "inputs": [],
          "name": "totalSupply",
          "outputs": [
            {
              "internalType": "uint256",
              "name": "",
              "type": "uint256"
            }
          ],
          "stateMutability": "view",
          "type": "function"
        },
        {
          "inputs": [
            {
              "internalType": "address",
              "name": "recipient",
              "type": "address"
            },
            {
              "internalType": "uint256",
              "name": "amount",
              "type": "uint256"
            }
          ],
          "name": "transfer",
          "outputs": [
            {
              "internalType": "bool",
              "name": "",
              "type": "bool"
            }
          ],
          "stateMutability": "nonpayable",
          "type": "function"
        },
        {
          "inputs": [
            {
              "internalType": "address",
              "name": "sender",
              "type": "address"
            },
            {
              "internalType": "address",
              "name": "recipient",
              "type": "address"
            },
            {
              "internalType": "uint256",
              "name": "amount",
              "type": "uint256"
            }
          ],
          "name": "transferFrom",
          "outputs": [
            {
              "internalType": "bool",
              "name": "",
              "type": "bool"
            }
          ],
          "stateMutability": "nonpayable",
          "type": "function"
        }
      ],
      "evm": {
        "bytecode": {
          "linkReferences": {},
          "object": "6080604052601260028190556200001890600a620001da565b6200002790620f4240620002cf565b6003553480156200003757600080fd5b50604080518082019091526006808252652b32ba3432b960d11b60209092019182526200006791600091620000e7565b50604080518082019091526004808252630ac8aa8960e31b60209092019182526200009591600191620000e7565b5060035433600081815260066020908152604080832085905551938452919290917fddf252ad1be2c89b69c2b068fc378daa952ba7f163c4a11628f55a4df523b3ef910160405180910390a362000344565b828054620000f590620002f1565b90600052602060002090601f01602090048101928262000119576000855562000164565b82601f106200013457805160ff191683800117855562000164565b8280016001018555821562000164579182015b828111156200016457825182559160200191906001019062000147565b506200017292915062000176565b5090565b5b8082111562000172576000815560010162000177565b80825b6001808611620001a15750620001d1565b818704821115620001b657620001b66200032e565b80861615620001c457918102915b9490941c93800262000190565b94509492505050565b6000620001eb6000198484620001f2565b9392505050565b6000826200020357506001620001eb565b816200021257506000620001eb565b81600181146200022b576002811462000236576200026a565b6001915050620001eb565b60ff8411156200024a576200024a6200032e565b6001841b9150848211156200026357620002636200032e565b50620001eb565b5060208310610133831016604e8410600b8410161715620002a2575081810a838111156200029c576200029c6200032e565b620001eb565b620002b184848460016200018d565b808604821115620002c657620002c66200032e565b02949350505050565b6000816000190483118215151615620002ec57620002ec6200032e565b500290565b600181811c908216806200030657607f821691505b602082108114156200032857634e487b7160e01b600052602260045260246000fd5b50919050565b634e487b7160e01b600052601160045260246000fd5b6109be80620003546000396000f3fe608060405234801561001057600080fd5b50600436106100ea5760003560e01c80634f8eddb21161008c578063a457c2d711610066578063a457c2d7146101bd578063a9059cbb146101d0578063a9321573146101e3578063dd62ed3e14610217576100ea565b80634f8eddb21461017f57806370a08231146101a257806395d89b41146101b5576100ea565b806318160ddd116100c857806318160ddd1461014757806323b872dd14610150578063313ce56714610163578063395093511461016c576100ea565b806306fdde03146100ef578063095ea7b31461010d57806313114a9d14610130575b600080fd5b6100f7610250565b6040516101049190610895565b60405180910390f35b61012061011b36600461086c565b6102de565b6040519015158152602001610104565b61013960045481565b604051908152602001610104565b61013960035481565b61012061015e366004610831565b6102f4565b61013960025481565b61012061017a36600461086c565b610347565b61012061018d3660046107e5565b60056020526000908152604090205460ff1681565b6101396101b03660046107e5565b61037e565b6100f761039d565b6101206101cb36600461086c565b6103aa565b6101206101de36600461086c565b6103e1565b6102156101f13660046107e5565b6001600160a01b03166000908152600560205260409020805460ff19166001179055565b005b6101396102253660046107ff565b6001600160a01b03918216600090815260076020908152604080832093909416825291909152205490565b6000805461025d90610937565b80601f016020809104026020016040519081016040528092919081815260200182805461028990610937565b80156102d65780601f106102ab576101008083540402835291602001916102d6565b820191906000526020600020905b8154815290600101906020018083116102b957829003601f168201915b505050505081565b60006102eb3384846103ee565b50600192915050565b600061030184848461051a565b6001600160a01b03841660009081526007602090815260408083203380855292529091205461033c918691610337908690610920565b6103ee565b5060015b9392505050565b3360008181526007602090815260408083206001600160a01b038716845290915281205490916102eb9185906103379086906108e8565b6001600160a01b0381166000908152600660205260409020545b919050565b6001805461025d90610937565b3360008181526007602090815260408083206001600160a01b038716845290915281205490916102eb918590610337908690610920565b60006102eb33848461051a565b6001600160a01b0383166104575760405162461bcd60e51b815260206004820152602560248201527f6945524332303a20617070726f76652066726f6d20746865207a65726f206164604482015264647265737360d81b60648201526084015b60405180910390fd5b6001600160a01b0382166104b95760405162461bcd60e51b815260206004820152602360248201527f6945524332303a20617070726f766520746f20746865207a65726f206164647260448201526265737360e81b606482015260840161044e565b6001600160a01b0383811660008181526007602090815260408083209487168084529482529182902085905590518481527f8c5be1e5ebec7d5bd14f71427d1e84f3dd0314c0f7b2291e5b200ac8c7c3b925910160405180910390a3505050565b6001600160a01b0383166000908152600660205260409020548111156105825760405162461bcd60e51b815260206004820152601f60248201527f4d757374206e6f742073656e64206d6f7265207468616e2062616c616e636500604482015260640161044e565b6001600160a01b0382166000908152600660205260409020546105a582826108e8565b10156105e65760405162461bcd60e51b815260206004820152601060248201526f42616c616e6365206f766572666c6f7760801b604482015260640161044e565b6001600160a01b0383166000908152600660205260408120805483929061060e908490610920565b909155506000905061062184848461076f565b905061062d8183610920565b6001600160a01b038416600090815260066020526040812080549091906106559084906108e8565b909155505030600090815260066020526040812080548392906106799084906108e8565b92505081905550806004600082825461069291906108e8565b90915550506001600160a01b038084169085167fddf252ad1be2c89b69c2b068fc378daa952ba7f163c4a11628f55a4df523b3ef6106d08486610920565b60405190815260200160405180910390a36001600160a01b03841660009081526005602052604090205460ff1615801561072357506001600160a01b03831660009081526005602052604090205460ff16155b156107695760405181815230906001600160a01b038616907fddf252ad1be2c89b69c2b068fc378daa952ba7f163c4a11628f55a4df523b3ef9060200160405180910390a35b50505050565b6001600160a01b03831660009081526005602052604081205460ff16806107ae57506001600160a01b03831660009081526005602052604090205460ff165b156107bb57506000610340565b6107c76103e883610900565b9050610340565b80356001600160a01b038116811461039857600080fd5b6000602082840312156107f6578081fd5b610340826107ce565b60008060408385031215610811578081fd5b61081a836107ce565b9150610828602084016107ce565b90509250929050565b600080600060608486031215610845578081fd5b61084e846107ce565b925061085c602085016107ce565b9150604084013590509250925092565b6000806040838503121561087e578182fd5b610887836107ce565b946020939093013593505050565b6000602080835283518082850152825b818110156108c1578581018301518582016040015282016108a5565b818111156108d25783604083870101525b50601f01601f1916929092016040019392505050565b600082198211156108fb576108fb610972565b500190565b60008261091b57634e487b7160e01b81526012600452602481fd5b500490565b60008282101561093257610932610972565b500390565b600181811c9082168061094b57607f821691505b6020821081141561096c57634e487b7160e01b600052602260045260246000fd5b50919050565b634e487b7160e01b600052601160045260246000fdfea2646970667358221220f4b6c9335f0934520c8a562efa09810676264f58868c9493e3fa94bb8195577564736f6c63430008030033",
          "opcodes": "PUSH1 0x80 PUSH1 0x40 MSTORE PUSH1 0x12 PUSH1 0x2 DUP2 SWAP1 SSTORE PUSH3 0x18 SWAP1 PUSH1 0xA PUSH3 0x1DA JUMP JUMPDEST PUSH3 0x27 SWAP1 PUSH3 0xF4240 PUSH3 0x2CF JUMP JUMPDEST PUSH1 0x3 SSTORE CALLVALUE DUP1 ISZERO PUSH3 0x37 JUMPI PUSH1 0x0 DUP1 REVERT JUMPDEST POP PUSH1 0x40 DUP1 MLOAD DUP1 DUP3 ADD SWAP1 SWAP2 MSTORE PUSH1 0x6 DUP1 DUP3 MSTORE PUSH6 0x2B32BA3432B9 PUSH1 0xD1 SHL PUSH1 0x20 SWAP1 SWAP3 ADD SWAP2 DUP3 MSTORE PUSH3 0x67 SWAP2 PUSH1 0x0 SWAP2 PUSH3 0xE7 JUMP JUMPDEST POP PUSH1 0x40 DUP1 MLOAD DUP1 DUP3 ADD SWAP1 SWAP2 MSTORE PUSH1 0x4 DUP1 DUP3 MSTORE PUSH4 0xAC8AA89 PUSH1 0xE3 SHL PUSH1 0x20 SWAP1 SWAP3 ADD SWAP2 DUP3 MSTORE PUSH3 0x95 SWAP2 PUSH1 0x1 SWAP2 PUSH3 0xE7 JUMP JUMPDEST POP PUSH1 0x3 SLOAD CALLER PUSH1 0x0 DUP2 DUP2 MSTORE PUSH1 0x6 PUSH1 0x20 SWAP1 DUP2 MSTORE PUSH1 0x40 DUP1 DUP4 KECCAK256 DUP6 SWAP1 SSTORE MLOAD SWAP4 DUP5 MSTORE SWAP2 SWAP3 SWAP1 SWAP2 PUSH32 0xDDF252AD1BE2C89B69C2B068FC378DAA952BA7F163C4A11628F55A4DF523B3EF SWAP2 ADD PUSH1 0x40 MLOAD DUP1 SWAP2 SUB SWAP1 LOG3 PUSH3 0x344 JUMP JUMPDEST DUP3 DUP1 SLOAD PUSH3 0xF5 SWAP1 PUSH3 0x2F1 JUMP JUMPDEST SWAP1 PUSH1 0x0 MSTORE PUSH1 0x20 PUSH1 0x0 KECCAK256 SWAP1 PUSH1 0x1F ADD PUSH1 0x20 SWAP1 DIV DUP2 ADD SWAP3 DUP3 PUSH3 0x119 JUMPI PUSH1 0x0 DUP6 SSTORE PUSH3 0x164 JUMP JUMPDEST DUP3 PUSH1 0x1F LT PUSH3 0x134 JUMPI DUP1 MLOAD PUSH1 0xFF NOT AND DUP4 DUP1 ADD OR DUP6 SSTORE PUSH3 0x164 JUMP JUMPDEST DUP3 DUP1 ADD PUSH1 0x1 ADD DUP6 SSTORE DUP3 ISZERO PUSH3 0x164 JUMPI SWAP2 DUP3 ADD JUMPDEST DUP3 DUP2 GT ISZERO PUSH3 0x164 JUMPI DUP3 MLOAD DUP3 SSTORE SWAP2 PUSH1 0x20 ADD SWAP2 SWAP1 PUSH1 0x1 ADD SWAP1 PUSH3 0x147 JUMP JUMPDEST POP PUSH3 0x172 SWAP3 SWAP2 POP PUSH3 0x176 JUMP JUMPDEST POP SWAP1 JUMP JUMPDEST JUMPDEST DUP1 DUP3 GT ISZERO PUSH3 0x172 JUMPI PUSH1 0x0 DUP2 SSTORE PUSH1 0x1 ADD PUSH3 0x177 JUMP JUMPDEST DUP1 DUP3 JUMPDEST PUSH1 0x1 DUP1 DUP7 GT PUSH3 0x1A1 JUMPI POP PUSH3 0x1D1 JUMP JUMPDEST DUP2 DUP8 DIV DUP3 GT ISZERO PUSH3 0x1B6 JUMPI PUSH3 0x1B6 PUSH3 0x32E JUMP JUMPDEST DUP1 DUP7 AND ISZERO PUSH3 0x1C4 JUMPI SWAP2 DUP2 MUL SWAP2 JUMPDEST SWAP5 SWAP1 SWAP5 SHR SWAP4 DUP1 MUL PUSH3 0x190 JUMP JUMPDEST SWAP5 POP SWAP5 SWAP3 POP POP POP JUMP JUMPDEST PUSH1 0x0 PUSH3 0x1EB PUSH1 0x0 NOT DUP5 DUP5 PUSH3 0x1F2 JUMP JUMPDEST SWAP4 SWAP3 POP POP POP JUMP JUMPDEST PUSH1 0x0 DUP3 PUSH3 0x203 JUMPI POP PUSH1 0x1 PUSH3 0x1EB JUMP JUMPDEST DUP2 PUSH3 0x212 JUMPI POP PUSH1 0x0 PUSH3 0x1EB JUMP JUMPDEST DUP2 PUSH1 0x1 DUP2 EQ PUSH3 0x22B JUMPI PUSH1 0x2 DUP2 EQ PUSH3 0x236 JUMPI PUSH3 0x26A JUMP JUMPDEST PUSH1 0x1 SWAP2 POP POP PUSH3 0x1EB JUMP JUMPDEST PUSH1 0xFF DUP5 GT ISZERO PUSH3 0x24A JUMPI PUSH3 0x24A PUSH3 0x32E JUMP JUMPDEST PUSH1 0x1 DUP5 SHL SWAP2 POP DUP5 DUP3 GT ISZERO PUSH3 0x263 JUMPI PUSH3 0x263 PUSH3 0x32E JUMP JUMPDEST POP PUSH3 0x1EB JUMP JUMPDEST POP PUSH1 0x20 DUP4 LT PUSH2 0x133 DUP4 LT AND PUSH1 0x4E DUP5 LT PUSH1 0xB DUP5 LT AND OR ISZERO PUSH3 0x2A2 JUMPI POP DUP2 DUP2 EXP DUP4 DUP2 GT ISZERO PUSH3 0x29C JUMPI PUSH3 0x29C PUSH3 0x32E JUMP JUMPDEST PUSH3 0x1EB JUMP JUMPDEST PUSH3 0x2B1 DUP5 DUP5 DUP5 PUSH1 0x1 PUSH3 0x18D JUMP JUMPDEST DUP1 DUP7 DIV DUP3 GT ISZERO PUSH3 0x2C6 JUMPI PUSH3 0x2C6 PUSH3 0x32E JUMP JUMPDEST MUL SWAP5 SWAP4 POP POP POP POP JUMP JUMPDEST PUSH1 0x0 DUP2 PUSH1 0x0 NOT DIV DUP4 GT DUP3 ISZERO ISZERO AND ISZERO PUSH3 0x2EC JUMPI PUSH3 0x2EC PUSH3 0x32E JUMP JUMPDEST POP MUL SWAP1 JUMP JUMPDEST PUSH1 0x1 DUP2 DUP2 SHR SWAP1 DUP3 AND DUP1 PUSH3 0x306 JUMPI PUSH1 0x7F DUP3 AND SWAP2 POP JUMPDEST PUSH1 0x20 DUP3 LT DUP2 EQ ISZERO PUSH3 0x328 JUMPI PUSH4 0x4E487B71 PUSH1 0xE0 SHL PUSH1 0x0 MSTORE PUSH1 0x22 PUSH1 0x4 MSTORE PUSH1 0x24 PUSH1 0x0 REVERT JUMPDEST POP SWAP2 SWAP1 POP JUMP JUMPDEST PUSH4 0x4E487B71 PUSH1 0xE0 SHL PUSH1 0x0 MSTORE PUSH1 0x11 PUSH1 0x4 MSTORE PUSH1 0x24 PUSH1 0x0 REVERT JUMPDEST PUSH2 0x9BE DUP1 PUSH3 0x354 PUSH1 0x0 CODECOPY PUSH1 0x0 RETURN INVALID PUSH1 0x80 PUSH1 0x40 MSTORE CALLVALUE DUP1 ISZERO PUSH2 0x10 JUMPI PUSH1 0x0 DUP1 REVERT JUMPDEST POP PUSH1 0x4 CALLDATASIZE LT PUSH2 0xEA JUMPI PUSH1 0x0 CALLDATALOAD PUSH1 0xE0 SHR DUP1 PUSH4 0x4F8EDDB2 GT PUSH2 0x8C JUMPI DUP1 PUSH4 0xA457C2D7 GT PUSH2 0x66 JUMPI DUP1 PUSH4 0xA457C2D7 EQ PUSH2 0x1BD JUMPI DUP1 PUSH4 0xA9059CBB EQ PUSH2 0x1D0 JUMPI DUP1 PUSH4 0xA9321573 EQ PUSH2 0x1E3 JUMPI DUP1 PUSH4 0xDD62ED3E EQ PUSH2 0x217 JUMPI PUSH2 0xEA JUMP JUMPDEST DUP1 PUSH4 0x4F8EDDB2 EQ PUSH2 0x17F JUMPI DUP1 PUSH4 0x70A08231 EQ PUSH2 0x1A2 JUMPI DUP1 PUSH4 0x95D89B41 EQ PUSH2 0x1B5 JUMPI PUSH2 0xEA JUMP JUMPDEST DUP1 PUSH4 0x18160DDD GT PUSH2 0xC8 JUMPI DUP1 PUSH4 0x18160DDD EQ PUSH2 0x147 JUMPI DUP1 PUSH4 0x23B872DD EQ PUSH2 0x150 JUMPI DUP1 PUSH4 0x313CE567 EQ PUSH2 0x163 JUMPI DUP1 PUSH4 0x39509351 EQ PUSH2 0x16C JUMPI PUSH2 0xEA JUMP JUMPDEST DUP1 PUSH4 0x6FDDE03 EQ PUSH2 0xEF JUMPI DUP1 PUSH4 0x95EA7B3 EQ PUSH2 0x10D JUMPI DUP1 PUSH4 0x13114A9D EQ PUSH2 0x130 JUMPI JUMPDEST PUSH1 0x0 DUP1 REVERT JUMPDEST PUSH2 0xF7 PUSH2 0x250 JUMP JUMPDEST PUSH1 0x40 MLOAD PUSH2 0x104 SWAP2 SWAP1 PUSH2 0x895 JUMP JUMPDEST PUSH1 0x40 MLOAD DUP1 SWAP2 SUB SWAP1 RETURN JUMPDEST PUSH2 0x120 PUSH2 0x11B CALLDATASIZE PUSH1 0x4 PUSH2 0x86C JUMP JUMPDEST PUSH2 0x2DE JUMP JUMPDEST PUSH1 0x40 MLOAD SWAP1 ISZERO ISZERO DUP2 MSTORE PUSH1 0x20 ADD PUSH2 0x104 JUMP JUMPDEST PUSH2 0x139 PUSH1 0x4 SLOAD DUP2 JUMP JUMPDEST PUSH1 0x40 MLOAD SWAP1 DUP2 MSTORE PUSH1 0x20 ADD PUSH2 0x104 JUMP JUMPDEST PUSH2 0x139 PUSH1 0x3 SLOAD DUP2 JUMP JUMPDEST PUSH2 0x120 PUSH2 0x15E CALLDATASIZE PUSH1 0x4 PUSH2 0x831 JUMP JUMPDEST PUSH2 0x2F4 JUMP JUMPDEST PUSH2 0x139 PUSH1 0x2 SLOAD DUP2 JUMP JUMPDEST PUSH2 0x120 PUSH2 0x17A CALLDATASIZE PUSH1 0x4 PUSH2 0x86C JUMP JUMPDEST PUSH2 0x347 JUMP JUMPDEST PUSH2 0x120 PUSH2 0x18D CALLDATASIZE PUSH1 0x4 PUSH2 0x7E5 JUMP JUMPDEST PUSH1 0x5 PUSH1 0x20 MSTORE PUSH1 0x0 SWAP1 DUP2 MSTORE PUSH1 0x40 SWAP1 KECCAK256 SLOAD PUSH1 0xFF AND DUP2 JUMP JUMPDEST PUSH2 0x139 PUSH2 0x1B0 CALLDATASIZE PUSH1 0x4 PUSH2 0x7E5 JUMP JUMPDEST PUSH2 0x37E JUMP JUMPDEST PUSH2 0xF7 PUSH2 0x39D JUMP JUMPDEST PUSH2 0x120 PUSH2 0x1CB CALLDATASIZE PUSH1 0x4 PUSH2 0x86C JUMP JUMPDEST PUSH2 0x3AA JUMP JUMPDEST PUSH2 0x120 PUSH2 0x1DE CALLDATASIZE PUSH1 0x4 PUSH2 0x86C JUMP JUMPDEST PUSH2 0x3E1 JUMP JUMPDEST PUSH2 0x215 PUSH2 0x1F1 CALLDATASIZE PUSH1 0x4 PUSH2 0x7E5 JUMP JUMPDEST PUSH1 0x1 PUSH1 0x1 PUSH1 0xA0 SHL SUB AND PUSH1 0x0 SWAP1 DUP2 MSTORE PUSH1 0x5 PUSH1 0x20 MSTORE PUSH1 0x40 SWAP1 KECCAK256 DUP1 SLOAD PUSH1 0xFF NOT AND PUSH1 0x1 OR SWAP1 SSTORE JUMP JUMPDEST STOP JUMPDEST PUSH2 0x139 PUSH2 0x225 CALLDATASIZE PUSH1 0x4 PUSH2 0x7FF JUMP JUMPDEST PUSH1 0x1 PUSH1 0x1 PUSH1 0xA0 SHL SUB SWAP2 DUP3 AND PUSH1 0x0 SWAP1 DUP2 MSTORE PUSH1 0x7 PUSH1 0x20 SWAP1 DUP2 MSTORE PUSH1 0x40 DUP1 DUP4 KECCAK256 SWAP4 SWAP1 SWAP5 AND DUP3 MSTORE SWAP2 SWAP1 SWAP2 MSTORE KECCAK256 SLOAD SWAP1 JUMP JUMPDEST PUSH1 0x0 DUP1 SLOAD PUSH2 0x25D SWAP1 PUSH2 0x937 JUMP JUMPDEST DUP1 PUSH1 0x1F ADD PUSH1 0x20 DUP1 SWAP2 DIV MUL PUSH1 0x20 ADD PUSH1 0x40 MLOAD SWAP1 DUP2 ADD PUSH1 0x40 MSTORE DUP1 SWAP3 SWAP2 SWAP1 DUP2 DUP2 MSTORE PUSH1 0x20 ADD DUP3 DUP1 SLOAD PUSH2 0x289 SWAP1 PUSH2 0x937 JUMP JUMPDEST DUP1 ISZERO PUSH2 0x2D6 JUMPI DUP1 PUSH1 0x1F LT PUSH2 0x2AB JUMPI PUSH2 0x100 DUP1 DUP4 SLOAD DIV MUL DUP4 MSTORE SWAP2 PUSH1 0x20 ADD SWAP2 PUSH2 0x2D6 JUMP JUMPDEST DUP3 ADD SWAP2 SWAP1 PUSH1 0x0 MSTORE PUSH1 0x20 PUSH1 0x0 KECCAK256 SWAP1 JUMPDEST DUP2 SLOAD DUP2 MSTORE SWAP1 PUSH1 0x1 ADD SWAP1 PUSH1 0x20 ADD DUP1 DUP4 GT PUSH2 0x2B9 JUMPI DUP3 SWAP1 SUB PUSH1 0x1F AND DUP3 ADD SWAP2 JUMPDEST POP POP POP POP POP DUP2 JUMP JUMPDEST PUSH1 0x0 PUSH2 0x2EB CALLER DUP5 DUP5 PUSH2 0x3EE JUMP JUMPDEST POP PUSH1 0x1 SWAP3 SWAP2 POP POP JUMP JUMPDEST PUSH1 0x0 PUSH2 0x301 DUP5 DUP5 DUP5 PUSH2 0x51A JUMP JUMPDEST PUSH1 0x1 PUSH1 0x1 PUSH1 0xA0 SHL SUB DUP5 AND PUSH1 0x0 SWAP1 DUP2 MSTORE PUSH1 0x7 PUSH1 0x20 SWAP1 DUP2 MSTORE PUSH1 0x40 DUP1 DUP4 KECCAK256 CALLER DUP1 DUP6 MSTORE SWAP3 MSTORE SWAP1 SWAP2 KECCAK256 SLOAD PUSH2 0x33C SWAP2 DUP7 SWAP2 PUSH2 0x337 SWAP1 DUP7 SWAP1 PUSH2 0x920 JUMP JUMPDEST PUSH2 0x3EE JUMP JUMPDEST POP PUSH1 0x1 JUMPDEST SWAP4 SWAP3 POP POP POP JUMP JUMPDEST CALLER PUSH1 0x0 DUP2 DUP2 MSTORE PUSH1 0x7 PUSH1 0x20 SWAP1 DUP2 MSTORE PUSH1 0x40 DUP1 DUP4 KECCAK256 PUSH1 0x1 PUSH1 0x1 PUSH1 0xA0 SHL SUB DUP8 AND DUP5 MSTORE SWAP1 SWAP2 MSTORE DUP2 KECCAK256 SLOAD SWAP1 SWAP2 PUSH2 0x2EB SWAP2 DUP6 SWAP1 PUSH2 0x337 SWAP1 DUP7 SWAP1 PUSH2 0x8E8 JUMP JUMPDEST PUSH1 0x1 PUSH1 0x1 PUSH1 0xA0 SHL SUB DUP2 AND PUSH1 0x0 SWAP1 DUP2 MSTORE PUSH1 0x6 PUSH1 0x20 MSTORE PUSH1 0x40 SWAP1 KECCAK256 SLOAD JUMPDEST SWAP2 SWAP1 POP JUMP JUMPDEST PUSH1 0x1 DUP1 SLOAD PUSH2 0x25D SWAP1 PUSH2 0x937 JUMP JUMPDEST CALLER PUSH1 0x0 DUP2 DUP2 MSTORE PUSH1 0x7 PUSH1 0x20 SWAP1 DUP2 MSTORE PUSH1 0x40 DUP1 DUP4 KECCAK256 PUSH1 0x1 PUSH1 0x1 PUSH1 0xA0 SHL SUB DUP8 AND DUP5 MSTORE SWAP1 SWAP2 MSTORE DUP2 KECCAK256 SLOAD SWAP1 SWAP2 PUSH2 0x2EB SWAP2 DUP6 SWAP1 PUSH2 0x337 SWAP1 DUP7 SWAP1 PUSH2 0x920 JUMP JUMPDEST PUSH1 0x0 PUSH2 0x2EB CALLER DUP5 DUP5 PUSH2 0x51A JUMP JUMPDEST PUSH1 0x1 PUSH1 0x1 PUSH1 0xA0 SHL SUB DUP4 AND PUSH2 0x457 JUMPI PUSH1 0x40 MLOAD PUSH3 0x461BCD PUSH1 0xE5 SHL DUP2 MSTORE PUSH1 0x20 PUSH1 0x4 DUP3 ADD MSTORE PUSH1 0x25 PUSH1 0x24 DUP3 ADD MSTORE PUSH32 0x6945524332303A20617070726F76652066726F6D20746865207A65726F206164 PUSH1 0x44 DUP3 ADD MSTORE PUSH5 0x6472657373 PUSH1 0xD8 SHL PUSH1 0x64 DUP3 ADD MSTORE PUSH1 0x84 ADD JUMPDEST PUSH1 0x40 MLOAD DUP1 SWAP2 SUB SWAP1 REVERT JUMPDEST PUSH1 0x1 PUSH1 0x1 PUSH1 0xA0 SHL SUB DUP3 AND PUSH2 0x4B9 JUMPI PUSH1 0x40 MLOAD PUSH3 0x461BCD PUSH1 0xE5 SHL DUP2 MSTORE PUSH1 0x20 PUSH1 0x4 DUP3 ADD MSTORE PUSH1 0x23 PUSH1 0x24 DUP3 ADD MSTORE PUSH32 0x6945524332303A20617070726F766520746F20746865207A65726F2061646472 PUSH1 0x44 DUP3 ADD MSTORE PUSH3 0x657373 PUSH1 0xE8 SHL PUSH1 0x64 DUP3 ADD MSTORE PUSH1 0x84 ADD PUSH2 0x44E JUMP JUMPDEST PUSH1 0x1 PUSH1 0x1 PUSH1 0xA0 SHL SUB DUP4 DUP2 AND PUSH1 0x0 DUP2 DUP2 MSTORE PUSH1 0x7 PUSH1 0x20 SWAP1 DUP2 MSTORE PUSH1 0x40 DUP1 DUP4 KECCAK256 SWAP5 DUP8 AND DUP1 DUP5 MSTORE SWAP5 DUP3 MSTORE SWAP2 DUP3 SWAP1 KECCAK256 DUP6 SWAP1 SSTORE SWAP1 MLOAD DUP5 DUP2 MSTORE PUSH32 0x8C5BE1E5EBEC7D5BD14F71427D1E84F3DD0314C0F7B2291E5B200AC8C7C3B925 SWAP2 ADD PUSH1 0x40 MLOAD DUP1 SWAP2 SUB SWAP1 LOG3 POP POP POP JUMP JUMPDEST PUSH1 0x1 PUSH1 0x1 PUSH1 0xA0 SHL SUB DUP4 AND PUSH1 0x0 SWAP1 DUP2 MSTORE PUSH1 0x6 PUSH1 0x20 MSTORE PUSH1 0x40 SWAP1 KECCAK256 SLOAD DUP2 GT ISZERO PUSH2 0x582 JUMPI PUSH1 0x40 MLOAD PUSH3 0x461BCD PUSH1 0xE5 SHL DUP2 MSTORE PUSH1 0x20 PUSH1 0x4 DUP3 ADD MSTORE PUSH1 0x1F PUSH1 0x24 DUP3 ADD MSTORE PUSH32 0x4D757374206E6F742073656E64206D6F7265207468616E2062616C616E636500 PUSH1 0x44 DUP3 ADD MSTORE PUSH1 0x64 ADD PUSH2 0x44E JUMP JUMPDEST PUSH1 0x1 PUSH1 0x1 PUSH1 0xA0 SHL SUB DUP3 AND PUSH1 0x0 SWAP1 DUP2 MSTORE PUSH1 0x6 PUSH1 0x20 MSTORE PUSH1 0x40 SWAP1 KECCAK256 SLOAD PUSH2 0x5A5 DUP3 DUP3 PUSH2 0x8E8 JUMP JUMPDEST LT ISZERO PUSH2 0x5E6 JUMPI PUSH1 0x40 MLOAD PUSH3 0x461BCD PUSH1 0xE5 SHL DUP2 MSTORE PUSH1 0x20 PUSH1 0x4 DUP3 ADD MSTORE PUSH1 0x10 PUSH1 0x24 DUP3 ADD MSTORE PUSH16 0x42616C616E6365206F766572666C6F77 PUSH1 0x80 SHL PUSH1 0x44 DUP3 ADD MSTORE PUSH1 0x64 ADD PUSH2 0x44E JUMP JUMPDEST PUSH1 0x1 PUSH1 0x1 PUSH1 0xA0 SHL SUB DUP4 AND PUSH1 0x0 SWAP1 DUP2 MSTORE PUSH1 0x6 PUSH1 0x20 MSTORE PUSH1 0x40 DUP2 KECCAK256 DUP1 SLOAD DUP4 SWAP3 SWAP1 PUSH2 0x60E SWAP1 DUP5 SWAP1 PUSH2 0x920 JUMP JUMPDEST SWAP1 SWAP2 SSTORE POP PUSH1 0x0 SWAP1 POP PUSH2 0x621 DUP5 DUP5 DUP5 PUSH2 0x76F JUMP JUMPDEST SWAP1 POP PUSH2 0x62D DUP2 DUP4 PUSH2 0x920 JUMP JUMPDEST PUSH1 0x1 PUSH1 0x1 PUSH1 0xA0 SHL SUB DUP5 AND PUSH1 0x0 SWAP1 DUP2 MSTORE PUSH1 0x6 PUSH1 0x20 MSTORE PUSH1 0x40 DUP2 KECCAK256 DUP1 SLOAD SWAP1 SWAP2 SWAP1 PUSH2 0x655 SWAP1 DUP5 SWAP1 PUSH2 0x8E8 JUMP JUMPDEST SWAP1 SWAP2 SSTORE POP POP ADDRESS PUSH1 0x0 SWAP1 DUP2 MSTORE PUSH1 0x6 PUSH1 0x20 MSTORE PUSH1 0x40 DUP2 KECCAK256 DUP1 SLOAD DUP4 SWAP3 SWAP1 PUSH2 0x679 SWAP1 DUP5 SWAP1 PUSH2 0x8E8 JUMP JUMPDEST SWAP3 POP POP DUP2 SWAP1 SSTORE POP DUP1 PUSH1 0x4 PUSH1 0x0 DUP3 DUP3 SLOAD PUSH2 0x692 SWAP2 SWAP1 PUSH2 0x8E8 JUMP JUMPDEST SWAP1 SWAP2 SSTORE POP POP PUSH1 0x1 PUSH1 0x1 PUSH1 0xA0 SHL SUB DUP1 DUP5 AND SWAP1 DUP6 AND PUSH32 0xDDF252AD1BE2C89B69C2B068FC378DAA952BA7F163C4A11628F55A4DF523B3EF PUSH2 0x6D0 DUP5 DUP7 PUSH2 0x920 JUMP JUMPDEST PUSH1 0x40 MLOAD SWAP1 DUP2 MSTORE PUSH1 0x20 ADD PUSH1 0x40 MLOAD DUP1 SWAP2 SUB SWAP1 LOG3 PUSH1 0x1 PUSH1 0x1 PUSH1 0xA0 SHL SUB DUP5 AND PUSH1 0x0 SWAP1 DUP2 MSTORE PUSH1 0x5 PUSH1 0x20 MSTORE PUSH1 0x40 SWAP1 KECCAK256 SLOAD PUSH1 0xFF AND ISZERO DUP1 ISZERO PUSH2 0x723 JUMPI POP PUSH1 0x1 PUSH1 0x1 PUSH1 0xA0 SHL SUB DUP4 AND PUSH1 0x0 SWAP1 DUP2 MSTORE PUSH1 0x5 PUSH1 0x20 MSTORE PUSH1 0x40 SWAP1 KECCAK256 SLOAD PUSH1 0xFF AND ISZERO JUMPDEST ISZERO PUSH2 0x769 JUMPI PUSH1 0x40 MLOAD DUP2 DUP2 MSTORE ADDRESS SWAP1 PUSH1 0x1 PUSH1 0x1 PUSH1 0xA0 SHL SUB DUP7 AND SWAP1 PUSH32 0xDDF252AD1BE2C89B69C2B068FC378DAA952BA7F163C4A11628F55A4DF523B3EF SWAP1 PUSH1 0x20 ADD PUSH1 0x40 MLOAD DUP1 SWAP2 SUB SWAP1 LOG3 JUMPDEST POP POP POP POP JUMP JUMPDEST PUSH1 0x1 PUSH1 0x1 PUSH1 0xA0 SHL SUB DUP4 AND PUSH1 0x0 SWAP1 DUP2 MSTORE PUSH1 0x5 PUSH1 0x20 MSTORE PUSH1 0x40 DUP2 KECCAK256 SLOAD PUSH1 0xFF AND DUP1 PUSH2 0x7AE JUMPI POP PUSH1 0x1 PUSH1 0x1 PUSH1 0xA0 SHL SUB DUP4 AND PUSH1 0x0 SWAP1 DUP2 MSTORE PUSH1 0x5 PUSH1 0x20 MSTORE PUSH1 0x40 SWAP1 KECCAK256 SLOAD PUSH1 0xFF AND JUMPDEST ISZERO PUSH2 0x7BB JUMPI POP PUSH1 0x0 PUSH2 0x340 JUMP JUMPDEST PUSH2 0x7C7 PUSH2 0x3E8 DUP4 PUSH2 0x900 JUMP JUMPDEST SWAP1 POP PUSH2 0x340 JUMP JUMPDEST DUP1 CALLDATALOAD PUSH1 0x1 PUSH1 0x1 PUSH1 0xA0 SHL SUB DUP2 AND DUP2 EQ PUSH2 0x398 JUMPI PUSH1 0x0 DUP1 REVERT JUMPDEST PUSH1 0x0 PUSH1 0x20 DUP3 DUP5 SUB SLT ISZERO PUSH2 0x7F6 JUMPI DUP1 DUP2 REVERT JUMPDEST PUSH2 0x340 DUP3 PUSH2 0x7CE JUMP JUMPDEST PUSH1 0x0 DUP1 PUSH1 0x40 DUP4 DUP6 SUB SLT ISZERO PUSH2 0x811 JUMPI DUP1 DUP2 REVERT JUMPDEST PUSH2 0x81A DUP4 PUSH2 0x7CE JUMP JUMPDEST SWAP2 POP PUSH2 0x828 PUSH1 0x20 DUP5 ADD PUSH2 0x7CE JUMP JUMPDEST SWAP1 POP SWAP3 POP SWAP3 SWAP1 POP JUMP JUMPDEST PUSH1 0x0 DUP1 PUSH1 0x0 PUSH1 0x60 DUP5 DUP7 SUB SLT ISZERO PUSH2 0x845 JUMPI DUP1 DUP2 REVERT JUMPDEST PUSH2 0x84E DUP5 PUSH2 0x7CE JUMP JUMPDEST SWAP3 POP PUSH2 0x85C PUSH1 0x20 DUP6 ADD PUSH2 0x7CE JUMP JUMPDEST SWAP2 POP PUSH1 0x40 DUP5 ADD CALLDATALOAD SWAP1 POP SWAP3 POP SWAP3 POP SWAP3 JUMP JUMPDEST PUSH1 0x0 DUP1 PUSH1 0x40 DUP4 DUP6 SUB SLT ISZERO PUSH2 0x87E JUMPI DUP2 DUP3 REVERT JUMPDEST PUSH2 0x887 DUP4 PUSH2 0x7CE JUMP JUMPDEST SWAP5 PUSH1 0x20 SWAP4 SWAP1 SWAP4 ADD CALLDATALOAD SWAP4 POP POP POP JUMP JUMPDEST PUSH1 0x0 PUSH1 0x20 DUP1 DUP4 MSTORE DUP4 MLOAD DUP1 DUP3 DUP6 ADD MSTORE DUP3 JUMPDEST DUP2 DUP2 LT ISZERO PUSH2 0x8C1 JUMPI DUP6 DUP2 ADD DUP4 ADD MLOAD DUP6 DUP3 ADD PUSH1 0x40 ADD MSTORE DUP3 ADD PUSH2 0x8A5 JUMP JUMPDEST DUP2 DUP2 GT ISZERO PUSH2 0x8D2 JUMPI DUP4 PUSH1 0x40 DUP4 DUP8 ADD ADD MSTORE JUMPDEST POP PUSH1 0x1F ADD PUSH1 0x1F NOT AND SWAP3 SWAP1 SWAP3 ADD PUSH1 0x40 ADD SWAP4 SWAP3 POP POP POP JUMP JUMPDEST PUSH1 0x0 DUP3 NOT DUP3 GT ISZERO PUSH2 0x8FB JUMPI PUSH2 0x8FB PUSH2 0x972 JUMP JUMPDEST POP ADD SWAP1 JUMP JUMPDEST PUSH1 0x0 DUP3 PUSH2 0x91B JUMPI PUSH4 0x4E487B71 PUSH1 0xE0 SHL DUP2 MSTORE PUSH1 0x12 PUSH1 0x4 MSTORE PUSH1 0x24 DUP2 REVERT JUMPDEST POP DIV SWAP1 JUMP JUMPDEST PUSH1 0x0 DUP3 DUP3 LT ISZERO PUSH2 0x932 JUMPI PUSH2 0x932 PUSH2 0x972 JUMP JUMPDEST POP SUB SWAP1 JUMP JUMPDEST PUSH1 0x1 DUP2 DUP2 SHR SWAP1 DUP3 AND DUP1 PUSH2 0x94B JUMPI PUSH1 0x7F DUP3 AND SWAP2 POP JUMPDEST PUSH1 0x20 DUP3 LT DUP2 EQ ISZERO PUSH2 0x96C JUMPI PUSH4 0x4E487B71 PUSH1 0xE0 SHL PUSH1 0x0 MSTORE PUSH1 0x22 PUSH1 0x4 MSTORE PUSH1 0x24 PUSH1 0x0 REVERT JUMPDEST POP SWAP2 SWAP1 POP JUMP JUMPDEST PUSH4 0x4E487B71 PUSH1 0xE0 SHL PUSH1 0x0 MSTORE PUSH1 0x11 PUSH1 0x4 MSTORE PUSH1 0x24 PUSH1 0x0 REVERT INVALID LOG2 PUSH5 0x6970667358 0x22 SLT KECCAK256 DELEGATECALL 0xB6 0xC9 CALLER 0x5F MULMOD CALLVALUE MSTORE 0xC DUP11 JUMP 0x2E STATICCALL MULMOD DUP2 MOD PUSH23 0x264F58868C9493E3FA94BB8195577564736F6C63430008 SUB STOP CALLER "
        },
        "methodIdentifiers": {
          "addExcluded(address)": "a9321573",
          "allowance(address,address)": "dd62ed3e",
          "approve(address,uint256)": "095ea7b3",
          "balanceOf(address)": "70a08231",
          "decimals()": "313ce567",
          "decreaseAllowance(address,uint256)": "a457c2d7",
          "increaseAllowance(address,uint256)": "39509351",
          "mapAddress_Excluded(address)": "4f8eddb2",
          "name()": "06fdde03",
          "symbol()": "95d89b41",
          "totalFees()": "13114a9d",
          "totalSupply()": "18160ddd",
          "transfer(address,uint256)": "a9059cbb",
          "transferFrom(address,address,uint256)": "23b872dd"
        }
      }
    }
  }
}