{
  "_format": "hh-sol-artifact-1",
  "contractName": "Vether",
  "sourceName": "contracts/Vether.sol",
  "abi": [
    {
      "inputs": [],
      "stateMutability": "nonpayable",
      "type": "constructor"
    },
    {
      "anonymous": false,
      "inputs": [
        {
          "indexed": true,
          "internalType": "address",
          "name": "owner",
          "type": "address"
        },
        {
          "indexed": true,
          "internalType": "address",
          "name": "spender",
          "type": "address"
        },
        {
          "indexed": false,
          "internalType": "uint256",
          "name": "value",
          "type": "uint256"
        }
      ],
      "name": "Approval",
      "type": "event"
    },
    {
      "anonymous": false,
      "inputs": [
        {
          "indexed": true,
          "internalType": "address",
          "name": "from",
          "type": "address"
        },
        {
          "indexed": true,
          "internalType": "address",
          "name": "to",
          "type": "address"
        },
        {
          "indexed": false,
          "internalType": "uint256",
          "name": "value",
          "type": "uint256"
        }
      ],
      "name": "Transfer",
      "type": "event"
    },
    {
      "inputs": [
        {
          "internalType": "address",
          "name": "excluded",
          "type": "address"
        }
      ],
      "name": "addExcluded",
      "outputs": [],
      "stateMutability": "nonpayable",
      "type": "function"
    },
    {
      "inputs": [
        {
          "internalType": "address",
          "name": "owner",
          "type": "address"
        },
        {
          "internalType": "address",
          "name": "spender",
          "type": "address"
        }
      ],
      "name": "allowance",
      "outputs": [
        {
          "internalType": "uint256",
          "name": "",
          "type": "uint256"
        }
      ],
      "stateMutability": "view",
      "type": "function"
    },
    {
      "inputs": [
        {
          "internalType": "address",
          "name": "spender",
          "type": "address"
        },
        {
          "internalType": "uint256",
          "name": "amount",
          "type": "uint256"
        }
      ],
      "name": "approve",
      "outputs": [
        {
          "internalType": "bool",
          "name": "",
          "type": "bool"
        }
      ],
      "stateMutability": "nonpayable",
      "type": "function"
    },
    {
      "inputs": [
        {
          "internalType": "address",
          "name": "account",
          "type": "address"
        }
      ],
      "name": "balanceOf",
      "outputs": [
        {
          "internalType": "uint256",
          "name": "",
          "type": "uint256"
        }
      ],
      "stateMutability": "view",
      "type": "function"
    },
    {
      "inputs": [],
      "name": "decimals",
      "outputs": [
        {
          "internalType": "uint256",
          "name": "",
          "type": "uint256"
        }
      ],
      "stateMutability": "view",
      "type": "function"
    },
    {
      "inputs": [
        {
          "internalType": "address",
          "name": "spender",
          "type": "address"
        },
        {
          "internalType": "uint256",
          "name": "subtractedValue",
          "type": "uint256"
        }
      ],
      "name": "decreaseAllowance",
      "outputs": [
        {
          "internalType": "bool",
          "name": "",
          "type": "bool"
        }
      ],
      "stateMutability": "nonpayable",
      "type": "function"
    },
    {
      "inputs": [
        {
          "internalType": "address",
          "name": "spender",
          "type": "address"
        },
        {
          "internalType": "uint256",
          "name": "addedValue",
          "type": "uint256"
        }
      ],
      "name": "increaseAllowance",
      "outputs": [
        {
          "internalType": "bool",
          "name": "",
          "type": "bool"
        }
      ],
      "stateMutability": "nonpayable",
      "type": "function"
    },
    {
      "inputs": [
        {
          "internalType": "address",
          "name": "",
          "type": "address"
        }
      ],
      "name": "mapAddress_Excluded",
      "outputs": [
        {
          "internalType": "bool",
          "name": "",
          "type": "bool"
        }
      ],
      "stateMutability": "view",
      "type": "function"
    },
    {
      "inputs": [],
      "name": "name",
      "outputs": [
        {
          "internalType": "string",
          "name": "",
          "type": "string"
        }
      ],
      "stateMutability": "view",
      "type": "function"
    },
    {
      "inputs": [],
      "name": "symbol",
      "outputs": [
        {
          "internalType": "string",
          "name": "",
          "type": "string"
        }
      ],
      "stateMutability": "view",
      "type": "function"
    },
    {
      "inputs": [],
      "name": "totalFees",
      "outputs": [
        {
          "internalType": "uint256",
          "name": "",
          "type": "uint256"
        }
      ],
      "stateMutability": "view",
      "type": "function"
    },
    {
      "inputs": [],
      "name": "totalSupply",
      "outputs": [
        {
          "internalType": "uint256",
          "name": "",
          "type": "uint256"
        }
      ],
      "stateMutability": "view",
      "type": "function"
    },
    {
      "inputs": [
        {
          "internalType": "address",
          "name": "recipient",
          "type": "address"
        },
        {
          "internalType": "uint256",
          "name": "amount",
          "type": "uint256"
        }
      ],
      "name": "transfer",
      "outputs": [
        {
          "internalType": "bool",
          "name": "",
          "type": "bool"
        }
      ],
      "stateMutability": "nonpayable",
      "type": "function"
    },
    {
      "inputs": [
        {
          "internalType": "address",
          "name": "sender",
          "type": "address"
        },
        {
          "internalType": "address",
          "name": "recipient",
          "type": "address"
        },
        {
          "internalType": "uint256",
          "name": "amount",
          "type": "uint256"
        }
      ],
      "name": "transferFrom",
      "outputs": [
        {
          "internalType": "bool",
          "name": "",
          "type": "bool"
        }
      ],
      "stateMutability": "nonpayable",
      "type": "function"
    }
  ],
  "bytecode": "0x6080604052601260028190556200001890600a620001da565b6200002790620f4240620002cf565b6003553480156200003757600080fd5b50604080518082019091526006808252652b32ba3432b960d11b60209092019182526200006791600091620000e7565b50604080518082019091526004808252630ac8aa8960e31b60209092019182526200009591600191620000e7565b5060035433600081815260066020908152604080832085905551938452919290917fddf252ad1be2c89b69c2b068fc378daa952ba7f163c4a11628f55a4df523b3ef910160405180910390a362000344565b828054620000f590620002f1565b90600052602060002090601f01602090048101928262000119576000855562000164565b82601f106200013457805160ff191683800117855562000164565b8280016001018555821562000164579182015b828111156200016457825182559160200191906001019062000147565b506200017292915062000176565b5090565b5b8082111562000172576000815560010162000177565b80825b6001808611620001a15750620001d1565b818704821115620001b657620001b66200032e565b80861615620001c457918102915b9490941c93800262000190565b94509492505050565b6000620001eb6000198484620001f2565b9392505050565b6000826200020357506001620001eb565b816200021257506000620001eb565b81600181146200022b576002811462000236576200026a565b6001915050620001eb565b60ff8411156200024a576200024a6200032e565b6001841b9150848211156200026357620002636200032e565b50620001eb565b5060208310610133831016604e8410600b8410161715620002a2575081810a838111156200029c576200029c6200032e565b620001eb565b620002b184848460016200018d565b808604821115620002c657620002c66200032e565b02949350505050565b6000816000190483118215151615620002ec57620002ec6200032e565b500290565b600181811c908216806200030657607f821691505b602082108114156200032857634e487b7160e01b600052602260045260246000fd5b50919050565b634e487b7160e01b600052601160045260246000fd5b6109be80620003546000396000f3fe608060405234801561001057600080fd5b50600436106100ea5760003560e01c80634f8eddb21161008c578063a457c2d711610066578063a457c2d7146101bd578063a9059cbb146101d0578063a9321573146101e3578063dd62ed3e14610217576100ea565b80634f8eddb21461017f57806370a08231146101a257806395d89b41146101b5576100ea565b806318160ddd116100c857806318160ddd1461014757806323b872dd14610150578063313ce56714610163578063395093511461016c576100ea565b806306fdde03146100ef578063095ea7b31461010d57806313114a9d14610130575b600080fd5b6100f7610250565b6040516101049190610895565b60405180910390f35b61012061011b36600461086c565b6102de565b6040519015158152602001610104565b61013960045481565b604051908152602001610104565b61013960035481565b61012061015e366004610831565b6102f4565b61013960025481565b61012061017a36600461086c565b610347565b61012061018d3660046107e5565b60056020526000908152604090205460ff1681565b6101396101b03660046107e5565b61037e565b6100f761039d565b6101206101cb36600461086c565b6103aa565b6101206101de36600461086c565b6103e1565b6102156101f13660046107e5565b6001600160a01b03166000908152600560205260409020805460ff19166001179055565b005b6101396102253660046107ff565b6001600160a01b03918216600090815260076020908152604080832093909416825291909152205490565b6000805461025d90610937565b80601f016020809104026020016040519081016040528092919081815260200182805461028990610937565b80156102d65780601f106102ab576101008083540402835291602001916102d6565b820191906000526020600020905b8154815290600101906020018083116102b957829003601f168201915b505050505081565b60006102eb3384846103ee565b50600192915050565b600061030184848461051a565b6001600160a01b03841660009081526007602090815260408083203380855292529091205461033c918691610337908690610920565b6103ee565b5060015b9392505050565b3360008181526007602090815260408083206001600160a01b038716845290915281205490916102eb9185906103379086906108e8565b6001600160a01b0381166000908152600660205260409020545b919050565b6001805461025d90610937565b3360008181526007602090815260408083206001600160a01b038716845290915281205490916102eb918590610337908690610920565b60006102eb33848461051a565b6001600160a01b0383166104575760405162461bcd60e51b815260206004820152602560248201527f6945524332303a20617070726f76652066726f6d20746865207a65726f206164604482015264647265737360d81b60648201526084015b60405180910390fd5b6001600160a01b0382166104b95760405162461bcd60e51b815260206004820152602360248201527f6945524332303a20617070726f766520746f20746865207a65726f206164647260448201526265737360e81b606482015260840161044e565b6001600160a01b0383811660008181526007602090815260408083209487168084529482529182902085905590518481527f8c5be1e5ebec7d5bd14f71427d1e84f3dd0314c0f7b2291e5b200ac8c7c3b925910160405180910390a3505050565b6001600160a01b0383166000908152600660205260409020548111156105825760405162461bcd60e51b815260206004820152601f60248201527f4d757374206e6f742073656e64206d6f7265207468616e2062616c616e636500604482015260640161044e565b6001600160a01b0382166000908152600660205260409020546105a582826108e8565b10156105e65760405162461bcd60e51b815260206004820152601060248201526f42616c616e6365206f766572666c6f7760801b604482015260640161044e565b6001600160a01b0383166000908152600660205260408120805483929061060e908490610920565b909155506000905061062184848461076f565b905061062d8183610920565b6001600160a01b038416600090815260066020526040812080549091906106559084906108e8565b909155505030600090815260066020526040812080548392906106799084906108e8565b92505081905550806004600082825461069291906108e8565b90915550506001600160a01b038084169085167fddf252ad1be2c89b69c2b068fc378daa952ba7f163c4a11628f55a4df523b3ef6106d08486610920565b60405190815260200160405180910390a36001600160a01b03841660009081526005602052604090205460ff1615801561072357506001600160a01b03831660009081526005602052604090205460ff16155b156107695760405181815230906001600160a01b038616907fddf252ad1be2c89b69c2b068fc378daa952ba7f163c4a11628f55a4df523b3ef9060200160405180910390a35b50505050565b6001600160a01b03831660009081526005602052604081205460ff16806107ae57506001600160a01b03831660009081526005602052604090205460ff165b156107bb57506000610340565b6107c76103e883610900565b9050610340565b80356001600160a01b038116811461039857600080fd5b6000602082840312156107f6578081fd5b610340826107ce565b60008060408385031215610811578081fd5b61081a836107ce565b9150610828602084016107ce565b90509250929050565b600080600060608486031215610845578081fd5b61084e846107ce565b925061085c602085016107ce565b9150604084013590509250925092565b6000806040838503121561087e578182fd5b610887836107ce565b946020939093013593505050565b6000602080835283518082850152825b818110156108c1578581018301518582016040015282016108a5565b818111156108d25783604083870101525b50601f01601f1916929092016040019392505050565b600082198211156108fb576108fb610972565b500190565b60008261091b57634e487b7160e01b81526012600452602481fd5b500490565b60008282101561093257610932610972565b500390565b600181811c9082168061094b57607f821691505b6020821081141561096c57634e487b7160e01b600052602260045260246000fd5b50919050565b634e487b7160e01b600052601160045260246000fdfea26469706673582212202bde4b66ad17e4103c9f6a6c8755bab1d64159b51e785339e44df30b0a8c05db64736f6c63430008030033",
  "linkReferences": {},
  "deployedLinkReferences": {}
}