{
  "_format": "hh-sol-artifact-1",
  "contractName": "Attack",
  "sourceName": "contracts/Attack.sol",
  "abi": [
    {
      "inputs": [],
      "stateMutability": "nonpayable",
      "type": "constructor"
    },
    {
      "inputs": [],
      "name": "USDV",
      "outputs": [
        {
          "internalType": "address",
          "name": "",
          "type": "address"
        }
      ],
      "stateMutability": "view",
      "type": "function"
    },
    {
      "inputs": [],
      "name": "VADER",
      "outputs": [
        {
          "internalType": "address",
          "name": "",
          "type": "address"
        }
      ],
      "stateMutability": "view",
      "type": "function"
    },
    {
      "inputs": [
        {
          "internalType": "uint256",
          "name": "amount",
          "type": "uint256"
        }
      ],
      "name": "attackUSDV",
      "outputs": [],
      "stateMutability": "nonpayable",
      "type": "function"
    },
    {
      "inputs": [
        {
          "internalType": "address",
          "name": "_vader",
          "type": "address"
        },
        {
          "internalType": "address",
          "name": "_USDV",
          "type": "address"
        }
      ],
      "name": "init",
      "outputs": [],
      "stateMutability": "nonpayable",
      "type": "function"
    }
  ],
  "bytecode": "0x608060405234801561001057600080fd5b50610485806100206000396000f3fe608060405234801561001057600080fd5b506004361061004c5760003560e01c80630168131514610051578063c62a1f6414610085578063e2c3b0461461009a578063f09a4016146100ad575b600080fd5b6000546100699061010090046001600160a01b031681565b6040516001600160a01b03909116815260200160405180910390f35b61009861009336600461041f565b6100c0565b005b600154610069906001600160a01b031681565b6100986100bb3660046103c6565b61035e565b60005460015460405163095ea7b360e01b81526001600160a01b03918216600482015260248101849052610100909204169063095ea7b390604401602060405180830381600087803b15801561011557600080fd5b505af1158015610129573d6000803e3d6000fd5b505050506040513d601f19601f8201168201806040525081019061014d91906103f8565b5060015460405163095ea7b360e01b81526001600160a01b0390911660048201819052602482018390529063095ea7b390604401602060405180830381600087803b15801561019b57600080fd5b505af11580156101af573d6000803e3d6000fd5b505050506040513d601f19601f820116820180604052508101906101d391906103f8565b506000546040516302ccb1b360e41b8152306004820152602481018390526101009091046001600160a01b031690632ccb1b3090604401602060405180830381600087803b15801561022457600080fd5b505af1158015610238573d6000803e3d6000fd5b505050506040513d601f19601f8201168201806040525081019061025c91906103f8565b5060015460405163a3908e1b60e01b8152600481018390526001600160a01b039091169063a3908e1b90602401602060405180830381600087803b1580156102a357600080fd5b505af11580156102b7573d6000803e3d6000fd5b505050506040513d601f19601f820116820180604052508101906102db9190610437565b5060015460405163db006a7560e01b8152600481018390526001600160a01b039091169063db006a7590602401602060405180830381600087803b15801561032257600080fd5b505af1158015610336573d6000803e3d6000fd5b505050506040513d601f19601f8201168201806040525081019061035a9190610437565b5050565b60005460ff161561036e57600080fd5b6000805460016001600160a81b03199091166101006001600160a01b039586160217811790915580546001600160a01b03191691909216179055565b80356001600160a01b03811681146103c157600080fd5b919050565b600080604083850312156103d8578182fd5b6103e1836103aa565b91506103ef602084016103aa565b90509250929050565b600060208284031215610409578081fd5b81518015158114610418578182fd5b9392505050565b600060208284031215610430578081fd5b5035919050565b600060208284031215610448578081fd5b505191905056fea26469706673582212203f22d77802354976c9947e88b98f2c6a4b94a0fe8d3dc51bf578741f358d788a64736f6c63430008030033",
  "linkReferences": {},
  "deployedLinkReferences": {}
}