{
  "_format": "hh-sol-artifact-1",
  "contractName": "DAO",
  "sourceName": "contracts/DAO.sol",
  "abi": [
    {
      "inputs": [],
      "stateMutability": "nonpayable",
      "type": "constructor"
    },
    {
      "anonymous": false,
      "inputs": [
        {
          "indexed": true,
          "internalType": "address",
          "name": "member",
          "type": "address"
        },
        {
          "indexed": true,
          "internalType": "uint256",
          "name": "oldProposalID",
          "type": "uint256"
        },
        {
          "indexed": false,
          "internalType": "uint256",
          "name": "oldVotes",
          "type": "uint256"
        },
        {
          "indexed": false,
          "internalType": "uint256",
          "name": "newVotes",
          "type": "uint256"
        },
        {
          "indexed": false,
          "internalType": "uint256",
          "name": "totalWeight",
          "type": "uint256"
        }
      ],
      "name": "CancelProposal",
      "type": "event"
    },
    {
      "anonymous": false,
      "inputs": [
        {
          "indexed": true,
          "internalType": "address",
          "name": "member",
          "type": "address"
        },
        {
          "indexed": true,
          "internalType": "uint256",
          "name": "proposalID",
          "type": "uint256"
        },
        {
          "indexed": false,
          "internalType": "uint256",
          "name": "votesCast",
          "type": "uint256"
        },
        {
          "indexed": false,
          "internalType": "uint256",
          "name": "totalWeight",
          "type": "uint256"
        },
        {
          "indexed": false,
          "internalType": "string",
          "name": "proposalType",
          "type": "string"
        }
      ],
      "name": "FinalisedProposal",
      "type": "event"
    },
    {
      "anonymous": false,
      "inputs": [
        {
          "indexed": true,
          "internalType": "address",
          "name": "member",
          "type": "address"
        },
        {
          "indexed": true,
          "internalType": "uint256",
          "name": "proposalID",
          "type": "uint256"
        },
        {
          "indexed": false,
          "internalType": "string",
          "name": "proposalType",
          "type": "string"
        }
      ],
      "name": "NewProposal",
      "type": "event"
    },
    {
      "anonymous": false,
      "inputs": [
        {
          "indexed": true,
          "internalType": "address",
          "name": "member",
          "type": "address"
        },
        {
          "indexed": true,
          "internalType": "uint256",
          "name": "proposalID",
          "type": "uint256"
        },
        {
          "indexed": false,
          "internalType": "uint256",
          "name": "voteWeight",
          "type": "uint256"
        },
        {
          "indexed": false,
          "internalType": "uint256",
          "name": "totalVotes",
          "type": "uint256"
        },
        {
          "indexed": false,
          "internalType": "string",
          "name": "proposalType",
          "type": "string"
        }
      ],
      "name": "NewVote",
      "type": "event"
    },
    {
      "anonymous": false,
      "inputs": [
        {
          "indexed": true,
          "internalType": "address",
          "name": "member",
          "type": "address"
        },
        {
          "indexed": true,
          "internalType": "uint256",
          "name": "proposalID",
          "type": "uint256"
        },
        {
          "indexed": false,
          "internalType": "uint256",
          "name": "timeFinalised",
          "type": "uint256"
        },
        {
          "indexed": false,
          "internalType": "string",
          "name": "proposalType",
          "type": "string"
        }
      ],
      "name": "ProposalFinalising",
      "type": "event"
    },
    {
      "inputs": [],
      "name": "USDV",
      "outputs": [
        {
          "internalType": "address",
          "name": "",
          "type": "address"
        }
      ],
      "stateMutability": "view",
      "type": "function"
    },
    {
      "inputs": [],
      "name": "VADER",
      "outputs": [
        {
          "internalType": "address",
          "name": "",
          "type": "address"
        }
      ],
      "stateMutability": "view",
      "type": "function"
    },
    {
      "inputs": [
        {
          "internalType": "uint256",
          "name": "oldProposalID",
          "type": "uint256"
        },
        {
          "internalType": "uint256",
          "name": "newProposalID",
          "type": "uint256"
        }
      ],
      "name": "cancelProposal",
      "outputs": [],
      "stateMutability": "nonpayable",
      "type": "function"
    },
    {
      "inputs": [],
      "name": "coolOffPeriod",
      "outputs": [
        {
          "internalType": "uint256",
          "name": "",
          "type": "uint256"
        }
      ],
      "stateMutability": "view",
      "type": "function"
    },
    {
      "inputs": [
        {
          "internalType": "uint256",
          "name": "proposalID",
          "type": "uint256"
        }
      ],
      "name": "finaliseProposal",
      "outputs": [],
      "stateMutability": "nonpayable",
      "type": "function"
    },
    {
      "inputs": [
        {
          "internalType": "uint256",
          "name": "_proposalID",
          "type": "uint256"
        }
      ],
      "name": "hasMajority",
      "outputs": [
        {
          "internalType": "bool",
          "name": "",
          "type": "bool"
        }
      ],
      "stateMutability": "view",
      "type": "function"
    },
    {
      "inputs": [
        {
          "internalType": "uint256",
          "name": "_proposalID",
          "type": "uint256"
        }
      ],
      "name": "hasMinority",
      "outputs": [
        {
          "internalType": "bool",
          "name": "",
          "type": "bool"
        }
      ],
      "stateMutability": "view",
      "type": "function"
    },
    {
      "inputs": [
        {
          "internalType": "uint256",
          "name": "_proposalID",
          "type": "uint256"
        }
      ],
      "name": "hasQuorum",
      "outputs": [
        {
          "internalType": "bool",
          "name": "",
          "type": "bool"
        }
      ],
      "stateMutability": "view",
      "type": "function"
    },
    {
      "inputs": [
        {
          "internalType": "address",
          "name": "_vader",
          "type": "address"
        },
        {
          "internalType": "address",
          "name": "_usdv",
          "type": "address"
        }
      ],
      "name": "init",
      "outputs": [],
      "stateMutability": "nonpayable",
      "type": "function"
    },
    {
      "inputs": [
        {
          "internalType": "bytes",
          "name": "part1",
          "type": "bytes"
        },
        {
          "internalType": "bytes",
          "name": "part2",
          "type": "bytes"
        }
      ],
      "name": "isEqual",
      "outputs": [
        {
          "internalType": "bool",
          "name": "",
          "type": "bool"
        }
      ],
      "stateMutability": "pure",
      "type": "function"
    },
    {
      "inputs": [
        {
          "internalType": "uint256",
          "name": "",
          "type": "uint256"
        },
        {
          "internalType": "address",
          "name": "",
          "type": "address"
        }
      ],
      "name": "mapPIDMember_votes",
      "outputs": [
        {
          "internalType": "uint256",
          "name": "",
          "type": "uint256"
        }
      ],
      "stateMutability": "view",
      "type": "function"
    },
    {
      "inputs": [
        {
          "internalType": "uint256",
          "name": "",
          "type": "uint256"
        }
      ],
      "name": "mapPID_address",
      "outputs": [
        {
          "internalType": "address",
          "name": "",
          "type": "address"
        }
      ],
      "stateMutability": "view",
      "type": "function"
    },
    {
      "inputs": [
        {
          "internalType": "uint256",
          "name": "",
          "type": "uint256"
        }
      ],
      "name": "mapPID_finalised",
      "outputs": [
        {
          "internalType": "bool",
          "name": "",
          "type": "bool"
        }
      ],
      "stateMutability": "view",
      "type": "function"
    },
    {
      "inputs": [
        {
          "internalType": "uint256",
          "name": "",
          "type": "uint256"
        }
      ],
      "name": "mapPID_finalising",
      "outputs": [
        {
          "internalType": "bool",
          "name": "",
          "type": "bool"
        }
      ],
      "stateMutability": "view",
      "type": "function"
    },
    {
      "inputs": [
        {
          "internalType": "uint256",
          "name": "",
          "type": "uint256"
        }
      ],
      "name": "mapPID_grant",
      "outputs": [
        {
          "internalType": "address",
          "name": "recipient",
          "type": "address"
        },
        {
          "internalType": "uint256",
          "name": "amount",
          "type": "uint256"
        }
      ],
      "stateMutability": "view",
      "type": "function"
    },
    {
      "inputs": [
        {
          "internalType": "uint256",
          "name": "",
          "type": "uint256"
        }
      ],
      "name": "mapPID_timeStart",
      "outputs": [
        {
          "internalType": "uint256",
          "name": "",
          "type": "uint256"
        }
      ],
      "stateMutability": "view",
      "type": "function"
    },
    {
      "inputs": [
        {
          "internalType": "uint256",
          "name": "",
          "type": "uint256"
        }
      ],
      "name": "mapPID_type",
      "outputs": [
        {
          "internalType": "string",
          "name": "",
          "type": "string"
        }
      ],
      "stateMutability": "view",
      "type": "function"
    },
    {
      "inputs": [
        {
          "internalType": "uint256",
          "name": "",
          "type": "uint256"
        }
      ],
      "name": "mapPID_votes",
      "outputs": [
        {
          "internalType": "uint256",
          "name": "",
          "type": "uint256"
        }
      ],
      "stateMutability": "view",
      "type": "function"
    },
    {
      "inputs": [
        {
          "internalType": "address",
          "name": "proposedAddress",
          "type": "address"
        },
        {
          "internalType": "string",
          "name": "typeStr",
          "type": "string"
        }
      ],
      "name": "newAddressProposal",
      "outputs": [],
      "stateMutability": "nonpayable",
      "type": "function"
    },
    {
      "inputs": [
        {
          "internalType": "address",
          "name": "recipient",
          "type": "address"
        },
        {
          "internalType": "uint256",
          "name": "amount",
          "type": "uint256"
        }
      ],
      "name": "newGrantProposal",
      "outputs": [],
      "stateMutability": "nonpayable",
      "type": "function"
    },
    {
      "inputs": [],
      "name": "proposalCount",
      "outputs": [
        {
          "internalType": "uint256",
          "name": "",
          "type": "uint256"
        }
      ],
      "stateMutability": "view",
      "type": "function"
    },
    {
      "inputs": [
        {
          "internalType": "uint256",
          "name": "proposalID",
          "type": "uint256"
        }
      ],
      "name": "voteProposal",
      "outputs": [
        {
          "internalType": "uint256",
          "name": "voteWeight",
          "type": "uint256"
        }
      ],
      "stateMutability": "nonpayable",
      "type": "function"
    }
  ],
  "bytecode": "0x608060405234801561001057600080fd5b50611a22806100206000396000f3fe608060405234801561001057600080fd5b50600436106101425760003560e01c8063ae887c8b116100b8578063d0ad17091161007c578063d0ad170914610344578063da35c66414610357578063dab249b314610360578063e2c3b04614610380578063e38c7dcc14610393578063f09a4016146103b357610142565b8063ae887c8b1461026b578063bbf8cf8214610294578063c05fc178146102a7578063c42b3f7d146102c7578063cb7bdbc0146102f257610142565b80634b4000341161010a5780634b400034146101e55780635c120b37146102085780635ded8b061461021b578063807896d51461022e578063a6c83fed1461024f578063abb6154f1461026257610142565b80630168131514610147578063293cee7d146101775780632bee11941461018c57806334359808146101bf5780634b193e23146101d2575b600080fd5b60025461015a906001600160a01b031681565b6040516001600160a01b0390911681526020015b60405180910390f35b61018a610185366004611710565b6103c6565b005b6101af61019a366004611807565b600b6020526000908152604090205460ff1681565b604051901515815260200161016e565b6101af6101cd3660046117b0565b61046d565b61018a6101e0366004611807565b610527565b6101af6101f3366004611807565b600a6020526000908152604090205460ff1681565b6101af610216366004611807565b61073e565b61018a610229366004611841565b6107fa565b61024161023c366004611807565b610ae0565b60405190815260200161016e565b61018a61025d36600461176f565b610caf565b61024160045481565b61015a610279366004611807565b6006602052600090815260409020546001600160a01b031681565b6101af6102a2366004611807565b610d98565b6102ba6102b5366004611807565b610def565b60405161016e91906118aa565b6102416102d536600461181f565b600c60209081526000928352604080842090915290825290205481565b610325610300366004611807565b600560205260009081526040902080546001909101546001600160a01b039091169082565b604080516001600160a01b03909316835260208301919091520161016e565b6101af610352366004611807565b610e89565b61024160015481565b61024161036e366004611807565b60086020526000908152604090205481565b60035461015a906001600160a01b031681565b6102416103a1366004611807565b60096020526000908152604090205481565b61018a6103c13660046116de565b610ee2565b60018060008282546103d89190611906565b909155505060018054600090815260066020908152604080832080546001600160a01b0319166001600160a01b0388161790559254825260078152919020825161042492840190611592565b50600154336001600160a01b03167f8d500fcad86fc64a281b94ef64d6d66acbfc6862aa4ff2ee5fbbfb40736e803e8360405161046191906118aa565b60405180910390a35050565b600060028260405161047f919061188e565b602060405180830381855afa15801561049c573d6000803e3d6000fd5b5050506040513d601f19601f820116820180604052508101906104bf9190611798565b6002846040516104cf919061188e565b602060405180830381855afa1580156104ec573d6000803e3d6000fd5b5050506040513d601f19601f8201168201806040525081019061050f9190611798565b141561051d57506001610521565b5060005b92915050565b600454600082815260096020526040902054610543904261193e565b1161058e5760405162461bcd60e51b815260206004820152601660248201527526bab9ba1031329030b33a32b91031b7b7b61037b33360511b60448201526064015b60405180910390fd5b6000818152600a602052604090205460ff1615156001146105e65760405162461bcd60e51b81526020600482015260126024820152714d7573742062652066696e616c6973696e6760701b6044820152606401610585565b6105ef81610d98565b6105fc576105fc81610f37565b6000818152600760205260408120805461061590611985565b80601f016020809104026020016040519081016040528092919081815260200182805461064190611985565b801561068e5780601f106106635761010080835404028352916020019161068e565b820191906000526020600020905b81548152906001019060200180831161067157829003601f168201915b505050505090506106bc816040518060400160405280600581526020016411d490539560da1b81525061046d565b156106cf576106ca8261103a565b61073a565b6106f681604051806040016040528060058152602001645554494c5360d81b81525061046d565b15610704576106ca826111a7565b61072c8160405180604001604052806006815260200165149155d0549160d21b81525061046d565b1561073a5761073a8261126b565b5050565b60008181526008602090815260408083205460035482516396c82e5760e01b81529251919385936002936001600160a01b03909316926396c82e5792600480840193919291829003018186803b15801561079757600080fd5b505afa1580156107ab573d6000803e3d6000fd5b505050506040513d601f19601f820116820180604052508101906107cf9190611798565b6107d9919061191e565b9050808211156107ee576001925050506107f5565b6000925050505b919050565b6000828152600a602052604090205460ff1661084d5760405162461bcd60e51b81526020600482015260126024820152714d7573742062652066696e616c6973696e6760701b6044820152606401610585565b61085681610e89565b6108975760405162461bcd60e51b81526020600482015260126024820152714d7573742068617665206d696e6f7269747960701b6044820152606401610585565b600082815260076020526040902080546109d191906108b590611985565b80601f01602080910402602001604051908101604052809291908181526020018280546108e190611985565b801561092e5780601f106109035761010080835404028352916020019161092e565b820191906000526020600020905b81548152906001019060200180831161091157829003601f168201915b5050506000858152600760205260409020805490925061094e9150611985565b80601f016020809104026020016040519081016040528092919081815260200182805461097a90611985565b80156109c75780601f1061099c576101008083540402835291602001916109c7565b820191906000526020600020905b8154815290600101906020018083116109aa57829003601f168201915b505050505061046d565b610a0c5760405162461bcd60e51b815260206004820152600c60248201526b4d7573742062652073616d6560a01b6044820152606401610585565b60008281526008602090815260408083208390558383528083205460035482516396c82e5760e01b81529251879533957f0e67c2e72a9ea22e5d163549aebce99ddc3d1fbbc58e7ed196b0e88f458847d9959194936001600160a01b0316926396c82e57926004808201939291829003018186803b158015610a8d57600080fd5b505afa158015610aa1573d6000803e3d6000fd5b505050506040513d601f19601f82011682018060405250810190610ac59190611798565b60408051938452602084019290925290820152606001610461565b60008181526007602052604081208054829190610afc90611985565b80601f0160208091040260200160405190810160405280929190818152602001828054610b2890611985565b8015610b755780601f10610b4a57610100808354040283529160200191610b75565b820191906000526020600020905b815481529060010190602001808311610b5857829003601f168201915b50505050509050610b85836112f8565b9150610b9083610d98565b8015610bab57506000838152600a602052604090205460ff16155b15610c5a57610bd5816040518060400160405280600381526020016244414f60e81b81525061046d565b80610c025750610c0281604051806040016040528060058152602001645554494c5360d81b81525061046d565b80610c305750610c308160405180604001604052806006815260200165149155d0549160d21b81525061046d565b15610c5157610c3e8361073e565b15610c4c57610c4c83610f37565b610c5a565b610c5a83610f37565b60008381526008602052604090819020549051849133917f4d46d88c7e981a5bf4572a83b5d88bcfefbd5ee6ca8df0588e27c4221a43640791610ca19187919087906118de565b60405180910390a350919050565b60408051808201909152600581526411d490539560da1b6020820152600180548190600090610cdf908390611906565b909155505060015460009081526007602090815260409091208251610d0692840190611592565b506040805180820182526001600160a01b0385811682526020808301868152600180546000908152600590935291859020845181546001600160a01b0319169416939093178355519181019190915554915190919033907f8d500fcad86fc64a281b94ef64d6d66acbfc6862aa4ff2ee5fbbfb40736e803e90610d8a9086906118aa565b60405180910390a350505050565b6000818152600860209081526040808320546003805483516396c82e5760e01b815293519294869492936001600160a01b03909216926396c82e579260048083019392829003018186803b15801561079757600080fd5b60076020526000908152604090208054610e0890611985565b80601f0160208091040260200160405190810160405280929190818152602001828054610e3490611985565b8015610e815780601f10610e5657610100808354040283529160200191610e81565b820191906000526020600020905b815481529060010190602001808311610e6457829003601f168201915b505050505081565b60008181526008602090815260408083205460035482516396c82e5760e01b81529251919385936006936001600160a01b03909316926396c82e5792600480840193919291829003018186803b15801561079757600080fd5b60005460ff1615610ef257600080fd5b6000805460ff19166001908117909155600280546001600160a01b039485166001600160a01b0319918216179091556003805493909416921691909117909155600455565b60008181526007602052604081208054610f5090611985565b80601f0160208091040260200160405190810160405280929190818152602001828054610f7c90611985565b8015610fc95780601f10610f9e57610100808354040283529160200191610fc9565b820191906000526020600020905b815481529060010190602001808311610fac57829003601f168201915b5050506000858152600a60209081526040808320805460ff1916600117905560099091529020429081905560045493945085933393507f0f36aea5066f9f90a999260fe4ce8d7713f7f07f5ae61bf36d73cc51170a3a9e925061102b91611906565b846040516104619291906118bd565b6000818152600560209081526040918290208251808401845281546001600160a01b0390811682526001909201549281019290925260035492516370a0823160e01b815292166004830181905290916370a082319060240160206040518083038186803b1580156110aa57600080fd5b505afa1580156110be573d6000803e3d6000fd5b505050506040513d601f19601f820116820180604052508101906110e29190611798565b8160200151111561112d5760405162461bcd60e51b81526020600482015260156024820152744e6f74206d6f7265207468616e2062616c616e636560581b6044820152606401610585565b611136826113f5565b600354815160208301516040516331b8490760e11b81526001600160a01b0392831660048201526024810191909152911690636370920e90604401600060405180830381600087803b15801561118b57600080fd5b505af115801561119f573d6000803e3d6000fd5b505050505050565b6000818152600660205260409020546001600160a01b0316806112025760405162461bcd60e51b8152602060048201526013602482015272139bc81859191c995cdcc81c1c9bdc1bdcd959606a1b6044820152606401610585565b600254604051630648d0cd60e21b81526001600160a01b038381166004830152909116906319234334906024015b600060405180830381600087803b15801561124a57600080fd5b505af115801561125e573d6000803e3d6000fd5b5050505061073a826113f5565b6000818152600660205260409020546001600160a01b0316806112c65760405162461bcd60e51b8152602060048201526013602482015272139bc81859191c995cdcc81c1c9bdc1bdcd959606a1b6044820152606401610585565b600254604051635e00e67960e01b81526001600160a01b03838116600483015290911690635e00e67990602401611230565b6000818152600c60209081526040808320338452825280832054848452600890925282208054839061132b90849061193e565b9091555050600354604051635364df4960e01b81523360048201526001600160a01b0390911690635364df499060240160206040518083038186803b15801561137357600080fd5b505afa158015611387573d6000803e3d6000fd5b505050506040513d601f19601f820116820180604052508101906113ab9190611798565b9050806008600084815260200190815260200160002060008282546113d09190611906565b90915550506000918252600c6020908152604080842033855290915290912081905590565b6000818152600760205260408120805461140e90611985565b80601f016020809104026020016040519081016040528092919081815260200182805461143a90611985565b80156114875780601f1061145c57610100808354040283529160200191611487565b820191906000526020600020905b81548152906001019060200180831161146a57829003601f168201915b5050506000858152600860209081526040918290205460035483516396c82e5760e01b8152935196975088963396507f28fca9bc3d4a734a707bd9396d50341c1f45e1d455c4aa4a58ceee0e09f64544955091936001600160a01b03909116926396c82e5792600480840193829003018186803b15801561150757600080fd5b505afa15801561151b573d6000803e3d6000fd5b505050506040513d601f19601f8201168201806040525081019061153f9190611798565b8560405161154f939291906118de565b60405180910390a3506000908152600860209081526040808320839055600b8252808320805460ff19908116600117909155600a90925290912080549091169055565b82805461159e90611985565b90600052602060002090601f0160209004810192826115c05760008555611606565b82601f106115d957805160ff1916838001178555611606565b82800160010185558215611606579182015b828111156116065782518255916020019190600101906115eb565b50611612929150611616565b5090565b5b808211156116125760008155600101611617565b600067ffffffffffffffff80841115611646576116466119d6565b604051601f8501601f19908116603f0116810190828211818310171561166e5761166e6119d6565b8160405280935085815286868601111561168757600080fd5b858560208301376000602087830101525050509392505050565b80356001600160a01b03811681146107f557600080fd5b600082601f8301126116c8578081fd5b6116d78383356020850161162b565b9392505050565b600080604083850312156116f0578182fd5b6116f9836116a1565b9150611707602084016116a1565b90509250929050565b60008060408385031215611722578182fd5b61172b836116a1565b9150602083013567ffffffffffffffff811115611746578182fd5b8301601f81018513611756578182fd5b6117658582356020840161162b565b9150509250929050565b60008060408385031215611781578182fd5b61178a836116a1565b946020939093013593505050565b6000602082840312156117a9578081fd5b5051919050565b600080604083850312156117c2578182fd5b823567ffffffffffffffff808211156117d9578384fd5b6117e5868387016116b8565b935060208501359150808211156117fa578283fd5b50611765858286016116b8565b600060208284031215611818578081fd5b5035919050565b60008060408385031215611831578182fd5b82359150611707602084016116a1565b60008060408385031215611853578182fd5b50508035926020909101359150565b6000815180845261187a816020860160208601611955565b601f01601f19169290920160200192915050565b600082516118a0818460208701611955565b9190910192915050565b6000602082526116d76020830184611862565b6000838252604060208301526118d66040830184611862565b949350505050565b6000848252836020830152606060408301526118fd6060830184611862565b95945050505050565b60008219821115611919576119196119c0565b500190565b60008261193957634e487b7160e01b81526012600452602481fd5b500490565b600082821015611950576119506119c0565b500390565b60005b83811015611970578181015183820152602001611958565b8381111561197f576000848401525b50505050565b600181811c9082168061199957607f821691505b602082108114156119ba57634e487b7160e01b600052602260045260246000fd5b50919050565b634e487b7160e01b600052601160045260246000fd5b634e487b7160e01b600052604160045260246000fdfea26469706673582212203aada8637286e4c37118205b760ce20af89f8d942cf57264c98bab46db1e4cb464736f6c63430008030033",
  "linkReferences": {},
  "deployedLinkReferences": {}
}