{
  "_format": "hh-sol-artifact-1",
  "contractName": "DAO",
  "sourceName": "contracts/DAO.sol",
  "abi": [
    {
      "inputs": [],
      "stateMutability": "nonpayable",
      "type": "constructor"
    },
    {
      "anonymous": false,
      "inputs": [
        {
          "indexed": true,
          "internalType": "address",
          "name": "member",
          "type": "address"
        },
        {
          "indexed": true,
          "internalType": "uint256",
          "name": "oldProposalID",
          "type": "uint256"
        },
        {
          "indexed": false,
          "internalType": "uint256",
          "name": "oldVotes",
          "type": "uint256"
        },
        {
          "indexed": false,
          "internalType": "uint256",
          "name": "newVotes",
          "type": "uint256"
        },
        {
          "indexed": false,
          "internalType": "uint256",
          "name": "totalWeight",
          "type": "uint256"
        }
      ],
      "name": "CancelProposal",
      "type": "event"
    },
    {
      "anonymous": false,
      "inputs": [
        {
          "indexed": true,
          "internalType": "address",
          "name": "member",
          "type": "address"
        },
        {
          "indexed": true,
          "internalType": "uint256",
          "name": "proposalID",
          "type": "uint256"
        },
        {
          "indexed": false,
          "internalType": "uint256",
          "name": "votesCast",
          "type": "uint256"
        },
        {
          "indexed": false,
          "internalType": "uint256",
          "name": "totalWeight",
          "type": "uint256"
        },
        {
          "indexed": false,
          "internalType": "string",
          "name": "proposalType",
          "type": "string"
        }
      ],
      "name": "FinalisedProposal",
      "type": "event"
    },
    {
      "anonymous": false,
      "inputs": [
        {
          "indexed": true,
          "internalType": "address",
          "name": "member",
          "type": "address"
        },
        {
          "indexed": true,
          "internalType": "uint256",
          "name": "proposalID",
          "type": "uint256"
        },
        {
          "indexed": false,
          "internalType": "string",
          "name": "proposalType",
          "type": "string"
        }
      ],
      "name": "NewProposal",
      "type": "event"
    },
    {
      "anonymous": false,
      "inputs": [
        {
          "indexed": true,
          "internalType": "address",
          "name": "member",
          "type": "address"
        },
        {
          "indexed": true,
          "internalType": "uint256",
          "name": "proposalID",
          "type": "uint256"
        },
        {
          "indexed": false,
          "internalType": "uint256",
          "name": "voteWeight",
          "type": "uint256"
        },
        {
          "indexed": false,
          "internalType": "uint256",
          "name": "totalVotes",
          "type": "uint256"
        },
        {
          "indexed": false,
          "internalType": "string",
          "name": "proposalType",
          "type": "string"
        }
      ],
      "name": "NewVote",
      "type": "event"
    },
    {
      "anonymous": false,
      "inputs": [
        {
          "indexed": true,
          "internalType": "address",
          "name": "member",
          "type": "address"
        },
        {
          "indexed": true,
          "internalType": "uint256",
          "name": "proposalID",
          "type": "uint256"
        },
        {
          "indexed": false,
          "internalType": "uint256",
          "name": "timeFinalised",
          "type": "uint256"
        },
        {
          "indexed": false,
          "internalType": "string",
          "name": "proposalType",
          "type": "string"
        }
      ],
      "name": "ProposalFinalising",
      "type": "event"
    },
    {
      "inputs": [],
      "name": "FACTORY",
      "outputs": [
        {
          "internalType": "address",
          "name": "",
          "type": "address"
        }
      ],
      "stateMutability": "view",
      "type": "function"
    },
    {
      "inputs": [],
      "name": "POOLS",
      "outputs": [
        {
          "internalType": "address",
          "name": "",
          "type": "address"
        }
      ],
      "stateMutability": "view",
      "type": "function"
    },
    {
      "inputs": [],
      "name": "RESERVE",
      "outputs": [
        {
          "internalType": "address",
          "name": "",
          "type": "address"
        }
      ],
      "stateMutability": "view",
      "type": "function"
    },
    {
      "inputs": [],
      "name": "ROUTER",
      "outputs": [
        {
          "internalType": "address",
          "name": "",
          "type": "address"
        }
      ],
      "stateMutability": "view",
      "type": "function"
    },
    {
      "inputs": [],
      "name": "USDV",
      "outputs": [
        {
          "internalType": "address",
          "name": "",
          "type": "address"
        }
      ],
      "stateMutability": "view",
      "type": "function"
    },
    {
      "inputs": [],
      "name": "UTILS",
      "outputs": [
        {
          "internalType": "address",
          "name": "",
          "type": "address"
        }
      ],
      "stateMutability": "view",
      "type": "function"
    },
    {
      "inputs": [],
      "name": "VADER",
      "outputs": [
        {
          "internalType": "address",
          "name": "",
          "type": "address"
        }
      ],
      "stateMutability": "view",
      "type": "function"
    },
    {
      "inputs": [],
      "name": "VAULT",
      "outputs": [
        {
          "internalType": "address",
          "name": "",
          "type": "address"
        }
      ],
      "stateMutability": "view",
      "type": "function"
    },
    {
      "inputs": [],
      "name": "VETHER",
      "outputs": [
        {
          "internalType": "address",
          "name": "",
          "type": "address"
        }
      ],
      "stateMutability": "view",
      "type": "function"
    },
    {
      "inputs": [
        {
          "internalType": "uint256",
          "name": "oldProposalID",
          "type": "uint256"
        },
        {
          "internalType": "uint256",
          "name": "newProposalID",
          "type": "uint256"
        }
      ],
      "name": "cancelProposal",
      "outputs": [],
      "stateMutability": "nonpayable",
      "type": "function"
    },
    {
      "inputs": [],
      "name": "coolOffPeriod",
      "outputs": [
        {
          "internalType": "uint256",
          "name": "",
          "type": "uint256"
        }
      ],
      "stateMutability": "view",
      "type": "function"
    },
    {
      "inputs": [
        {
          "internalType": "uint256",
          "name": "proposalID",
          "type": "uint256"
        }
      ],
      "name": "finaliseProposal",
      "outputs": [],
      "stateMutability": "nonpayable",
      "type": "function"
    },
    {
      "inputs": [
        {
          "internalType": "uint256",
          "name": "_proposalID",
          "type": "uint256"
        }
      ],
      "name": "hasMajority",
      "outputs": [
        {
          "internalType": "bool",
          "name": "",
          "type": "bool"
        }
      ],
      "stateMutability": "view",
      "type": "function"
    },
    {
      "inputs": [
        {
          "internalType": "uint256",
          "name": "_proposalID",
          "type": "uint256"
        }
      ],
      "name": "hasMinority",
      "outputs": [
        {
          "internalType": "bool",
          "name": "",
          "type": "bool"
        }
      ],
      "stateMutability": "view",
      "type": "function"
    },
    {
      "inputs": [
        {
          "internalType": "uint256",
          "name": "_proposalID",
          "type": "uint256"
        }
      ],
      "name": "hasQuorum",
      "outputs": [
        {
          "internalType": "bool",
          "name": "",
          "type": "bool"
        }
      ],
      "stateMutability": "view",
      "type": "function"
    },
    {
      "inputs": [
        {
          "internalType": "address",
          "name": "_vether",
          "type": "address"
        },
        {
          "internalType": "address",
          "name": "_vader",
          "type": "address"
        },
        {
          "internalType": "address",
          "name": "_usdv",
          "type": "address"
        },
        {
          "internalType": "address",
          "name": "_reserve",
          "type": "address"
        },
        {
          "internalType": "address",
          "name": "_vault",
          "type": "address"
        },
        {
          "internalType": "address",
          "name": "_router",
          "type": "address"
        },
        {
          "internalType": "address",
          "name": "_pools",
          "type": "address"
        },
        {
          "internalType": "address",
          "name": "_factory",
          "type": "address"
        },
        {
          "internalType": "address",
          "name": "_utils",
          "type": "address"
        }
      ],
      "name": "init",
      "outputs": [],
      "stateMutability": "nonpayable",
      "type": "function"
    },
    {
      "inputs": [
        {
          "internalType": "bytes",
          "name": "part1",
          "type": "bytes"
        },
        {
          "internalType": "bytes",
          "name": "part2",
          "type": "bytes"
        }
      ],
      "name": "isEqual",
      "outputs": [
        {
          "internalType": "bool",
          "name": "",
          "type": "bool"
        }
      ],
      "stateMutability": "pure",
      "type": "function"
    },
    {
      "inputs": [
        {
          "internalType": "uint256",
          "name": "",
          "type": "uint256"
        },
        {
          "internalType": "address",
          "name": "",
          "type": "address"
        }
      ],
      "name": "mapPIDMember_votes",
      "outputs": [
        {
          "internalType": "uint256",
          "name": "",
          "type": "uint256"
        }
      ],
      "stateMutability": "view",
      "type": "function"
    },
    {
      "inputs": [
        {
          "internalType": "uint256",
          "name": "",
          "type": "uint256"
        }
      ],
      "name": "mapPID_address",
      "outputs": [
        {
          "internalType": "address",
          "name": "",
          "type": "address"
        }
      ],
      "stateMutability": "view",
      "type": "function"
    },
    {
      "inputs": [
        {
          "internalType": "uint256",
          "name": "",
          "type": "uint256"
        }
      ],
      "name": "mapPID_finalised",
      "outputs": [
        {
          "internalType": "bool",
          "name": "",
          "type": "bool"
        }
      ],
      "stateMutability": "view",
      "type": "function"
    },
    {
      "inputs": [
        {
          "internalType": "uint256",
          "name": "",
          "type": "uint256"
        }
      ],
      "name": "mapPID_finalising",
      "outputs": [
        {
          "internalType": "bool",
          "name": "",
          "type": "bool"
        }
      ],
      "stateMutability": "view",
      "type": "function"
    },
    {
      "inputs": [
        {
          "internalType": "uint256",
          "name": "",
          "type": "uint256"
        }
      ],
      "name": "mapPID_grant",
      "outputs": [
        {
          "internalType": "address",
          "name": "recipient",
          "type": "address"
        },
        {
          "internalType": "uint256",
          "name": "amount",
          "type": "uint256"
        }
      ],
      "stateMutability": "view",
      "type": "function"
    },
    {
      "inputs": [
        {
          "internalType": "uint256",
          "name": "",
          "type": "uint256"
        }
      ],
      "name": "mapPID_timeStart",
      "outputs": [
        {
          "internalType": "uint256",
          "name": "",
          "type": "uint256"
        }
      ],
      "stateMutability": "view",
      "type": "function"
    },
    {
      "inputs": [
        {
          "internalType": "uint256",
          "name": "",
          "type": "uint256"
        }
      ],
      "name": "mapPID_type",
      "outputs": [
        {
          "internalType": "string",
          "name": "",
          "type": "string"
        }
      ],
      "stateMutability": "view",
      "type": "function"
    },
    {
      "inputs": [
        {
          "internalType": "uint256",
          "name": "",
          "type": "uint256"
        }
      ],
      "name": "mapPID_votes",
      "outputs": [
        {
          "internalType": "uint256",
          "name": "",
          "type": "uint256"
        }
      ],
      "stateMutability": "view",
      "type": "function"
    },
    {
      "inputs": [
        {
          "internalType": "address",
          "name": "proposedAddress",
          "type": "address"
        },
        {
          "internalType": "string",
          "name": "typeStr",
          "type": "string"
        }
      ],
      "name": "newAddressProposal",
      "outputs": [],
      "stateMutability": "nonpayable",
      "type": "function"
    },
    {
      "inputs": [
        {
          "internalType": "address",
          "name": "recipient",
          "type": "address"
        },
        {
          "internalType": "uint256",
          "name": "amount",
          "type": "uint256"
        }
      ],
      "name": "newGrantProposal",
      "outputs": [],
      "stateMutability": "nonpayable",
      "type": "function"
    },
    {
      "inputs": [],
      "name": "proposalCount",
      "outputs": [
        {
          "internalType": "uint256",
          "name": "",
          "type": "uint256"
        }
      ],
      "stateMutability": "view",
      "type": "function"
    },
    {
      "inputs": [
        {
          "internalType": "uint256",
          "name": "proposalID",
          "type": "uint256"
        }
      ],
      "name": "voteProposal",
      "outputs": [
        {
          "internalType": "uint256",
          "name": "voteWeight",
          "type": "uint256"
        }
      ],
      "stateMutability": "nonpayable",
      "type": "function"
    }
  ],
  "bytecode": "0x608060405234801561001057600080fd5b50611b8b806100206000396000f3fe608060405234801561001057600080fd5b50600436106101cf5760003560e01c8063862ef25911610104578063c42b3f7d116100a2578063dab249b311610071578063dab249b314610472578063e2c3b04614610492578063e38c7dcc146104a5578063ebccb5b2146104c5576101cf565b8063c42b3f7d146103d9578063cb7bdbc014610404578063d0ad170914610456578063da35c66414610469576101cf565b8063abb6154f116100de578063abb6154f14610374578063ae887c8b1461037d578063bbf8cf82146103a6578063c05fc178146103b9576101cf565b8063862ef2591461033b5780639d2cc4361461034e578063a6c83fed14610361576101cf565b80634b193e23116101715780635c120b371161014b5780635c120b37146102e15780635ded8b06146102f45780637b0e5c4514610307578063807896d51461031a576101cf565b80634b193e23146102985780634b400034146102ab5780634c4d46b0146102ce576101cf565b80632dd31000116101ad5780632dd310001461024c57806332fe7b261461025f5780633435980814610272578063411557d114610285576101cf565b806301681315146101d4578063293cee7d146102045780632bee119414610219575b600080fd5b6003546101e7906001600160a01b031681565b6040516001600160a01b0390911681526020015b60405180910390f35b610217610212366004611870565b6104d8565b005b61023c610227366004611967565b60116020526000908152604090205460ff1681565b60405190151581526020016101fb565b6009546101e7906001600160a01b031681565b6007546101e7906001600160a01b031681565b61023c610280366004611910565b61057c565b6006546101e7906001600160a01b031681565b6102176102a6366004611967565b610636565b61023c6102b9366004611967565b60106020526000908152604090205460ff1681565b6002546101e7906001600160a01b031681565b61023c6102ef366004611967565b61084d565b6102176103023660046119aa565b610909565b600a546101e7906001600160a01b031681565b61032d610328366004611967565b610bef565b6040519081526020016101fb565b6102176103493660046117c9565b610dbe565b6005546101e7906001600160a01b031681565b61021761036f3660046118cf565b610e64565b61032d60015481565b6101e761038b366004611967565b600c602052600090815260409020546001600160a01b031681565b61023c6103b4366004611967565b610f4d565b6103cc6103c7366004611967565b610fa6565b6040516101fb9190611a13565b61032d6103e736600461197f565b601260209081526000928352604080842090915290825290205481565b610437610412366004611967565b600b60205260009081526040902080546001909101546001600160a01b039091169082565b604080516001600160a01b0390931683526020830191909152016101fb565b61023c610464366004611967565b611040565b61032d60005481565b61032d610480366004611967565b600e6020526000908152604090205481565b6004546101e7906001600160a01b031681565b61032d6104b3366004611967565b600f6020526000908152604090205481565b6008546101e7906001600160a01b031681565b60016000808282546104ea9190611a6f565b9091555050600080548152600c6020908152604080832080546001600160a01b0319166001600160a01b03871617905582548352600d825290912082516105339284019061167d565b50600054336001600160a01b03167f8d500fcad86fc64a281b94ef64d6d66acbfc6862aa4ff2ee5fbbfb40736e803e836040516105709190611a13565b60405180910390a35050565b600060028260405161058e91906119f7565b602060405180830381855afa1580156105ab573d6000803e3d6000fd5b5050506040513d601f19601f820116820180604052508101906105ce91906118f8565b6002846040516105de91906119f7565b602060405180830381855afa1580156105fb573d6000803e3d6000fd5b5050506040513d601f19601f8201168201806040525081019061061e91906118f8565b141561062c57506001610630565b5060005b92915050565b6001546000828152600f60205260409020546106529042611aa7565b1161069d5760405162461bcd60e51b815260206004820152601660248201527526bab9ba1031329030b33a32b91031b7b7b61037b33360511b60448201526064015b60405180910390fd5b60008181526010602052604090205460ff1615156001146106f55760405162461bcd60e51b81526020600482015260126024820152714d7573742062652066696e616c6973696e6760701b6044820152606401610694565b6106fe81610f4d565b61070b5761070b81611097565b6000818152600d60205260408120805461072490611aee565b80601f016020809104026020016040519081016040528092919081815260200182805461075090611aee565b801561079d5780601f106107725761010080835404028352916020019161079d565b820191906000526020600020905b81548152906001019060200180831161078057829003601f168201915b505050505090506107cb816040518060400160405280600581526020016411d490539560da1b81525061057c565b156107de576107d98261119d565b610849565b61080581604051806040016040528060058152602001645554494c5360d81b81525061057c565b15610813576107d982611246565b61083b8160405180604001604052806006815260200165149155d0549160d21b81525061057c565b1561084957610849826112b3565b5050565b6000818152600e602090815260408083205460065482516396c82e5760e01b81529251919385936002936001600160a01b03909316926396c82e5792600480840193919291829003018186803b1580156108a657600080fd5b505afa1580156108ba573d6000803e3d6000fd5b505050506040513d601f19601f820116820180604052508101906108de91906118f8565b6108e89190611a87565b9050808211156108fd57600192505050610904565b6000925050505b919050565b60008281526010602052604090205460ff1661095c5760405162461bcd60e51b81526020600482015260126024820152714d7573742062652066696e616c6973696e6760701b6044820152606401610694565b61096581611040565b6109a65760405162461bcd60e51b81526020600482015260126024820152714d7573742068617665206d696e6f7269747960701b6044820152606401610694565b6000828152600d602052604090208054610ae091906109c490611aee565b80601f01602080910402602001604051908101604052809291908181526020018280546109f090611aee565b8015610a3d5780601f10610a1257610100808354040283529160200191610a3d565b820191906000526020600020905b815481529060010190602001808311610a2057829003601f168201915b5050506000858152600d602052604090208054909250610a5d9150611aee565b80601f0160208091040260200160405190810160405280929190818152602001828054610a8990611aee565b8015610ad65780601f10610aab57610100808354040283529160200191610ad6565b820191906000526020600020905b815481529060010190602001808311610ab957829003601f168201915b505050505061057c565b610b1b5760405162461bcd60e51b815260206004820152600c60248201526b4d7573742062652073616d6560a01b6044820152606401610694565b6000828152600e602090815260408083208390558383528083205460065482516396c82e5760e01b81529251879533957f0e67c2e72a9ea22e5d163549aebce99ddc3d1fbbc58e7ed196b0e88f458847d9959194936001600160a01b0316926396c82e57926004808201939291829003018186803b158015610b9c57600080fd5b505afa158015610bb0573d6000803e3d6000fd5b505050506040513d601f19601f82011682018060405250810190610bd491906118f8565b60408051938452602084019290925290820152606001610570565b6000818152600d602052604081208054829190610c0b90611aee565b80601f0160208091040260200160405190810160405280929190818152602001828054610c3790611aee565b8015610c845780601f10610c5957610100808354040283529160200191610c84565b820191906000526020600020905b815481529060010190602001808311610c6757829003601f168201915b50505050509050610c9483611317565b9150610c9f83610f4d565b8015610cba575060008381526010602052604090205460ff16155b15610d6957610ce4816040518060400160405280600381526020016244414f60e81b81525061057c565b80610d115750610d1181604051806040016040528060058152602001645554494c5360d81b81525061057c565b80610d3f5750610d3f8160405180604001604052806006815260200165149155d0549160d21b81525061057c565b15610d6057610d4d8361084d565b15610d5b57610d5b83611097565b610d69565b610d6983611097565b6000838152600e602052604090819020549051849133917f4d46d88c7e981a5bf4572a83b5d88bcfefbd5ee6ca8df0588e27c4221a43640791610db0918791908790611a47565b60405180910390a350919050565b6003546001600160a01b0316610e5957600280546001600160a01b03199081166001600160a01b038c8116919091179092556003805482168b84161790556004805482168a8416179055600580548216898416179055600680548216888416179055600780548216878416179055600880548216868416179055600980548216858416179055600a8054909116918316919091179055600180555b505050505050505050565b60006040518060400160405280600581526020016411d490539560da1b81525090506001600080828254610e989190611a6f565b9091555050600080548152600d602090815260409091208251610ebd9284019061167d565b506040805180820182526001600160a01b0385811682526020808301868152600080548152600b909252848220845181546001600160a01b03191694169390931783555160019092019190915554915190919033907f8d500fcad86fc64a281b94ef64d6d66acbfc6862aa4ff2ee5fbbfb40736e803e90610f3f908690611a13565b60405180910390a350505050565b6000818152600e602090815260408083205460065482516396c82e5760e01b81529251919385936003936001600160a01b03909316926396c82e5792600480840193919291829003018186803b1580156108a657600080fd5b600d6020526000908152604090208054610fbf90611aee565b80601f0160208091040260200160405190810160405280929190818152602001828054610feb90611aee565b80156110385780601f1061100d57610100808354040283529160200191611038565b820191906000526020600020905b81548152906001019060200180831161101b57829003601f168201915b505050505081565b6000818152600e60209081526040808320546006805483516396c82e5760e01b815293519294869492936001600160a01b03909216926396c82e579260048083019392829003018186803b1580156108a657600080fd5b6000818152600d6020526040812080546110b090611aee565b80601f01602080910402602001604051908101604052809291908181526020018280546110dc90611aee565b80156111295780601f106110fe57610100808354040283529160200191611129565b820191906000526020600020905b81548152906001019060200180831161110c57829003601f168201915b5050506000858152601060209081526040808320805460ff19166001908117909155600f9092529091204290819055905493945085933393507f0f36aea5066f9f90a999260fe4ce8d7713f7f07f5ae61bf36d73cc51170a3a9e925061118e91611a6f565b84604051610570929190611a26565b6000818152600b6020908152604091829020825180840190935280546001600160a01b0316835260010154908201526111d582611414565b600554815160208301516040516331b8490760e11b81526001600160a01b0392831660048201526024810191909152911690636370920e90604401600060405180830381600087803b15801561122a57600080fd5b505af115801561123e573d6000803e3d6000fd5b505050505050565b6000818152600c60205260409020546001600160a01b0316806112a15760405162461bcd60e51b8152602060048201526013602482015272139bc81859191c995cdcc81c1c9bdc1bdcd959606a1b6044820152606401610694565b6112aa816115b1565b61084982611414565b6000818152600c60205260409020546001600160a01b03168061130e5760405162461bcd60e51b8152602060048201526013602482015272139bc81859191c995cdcc81c1c9bdc1bdcd959606a1b6044820152606401610694565b6112aa81611617565b6000818152601260209081526040808320338452825280832054848452600e90925282208054839061134a908490611aa7565b9091555050600654604051635364df4960e01b81523360048201526001600160a01b0390911690635364df499060240160206040518083038186803b15801561139257600080fd5b505afa1580156113a6573d6000803e3d6000fd5b505050506040513d601f19601f820116820180604052508101906113ca91906118f8565b905080600e600084815260200190815260200160002060008282546113ef9190611a6f565b9091555050600091825260126020908152604080842033855290915290912081905590565b6000818152600d60205260408120805461142d90611aee565b80601f016020809104026020016040519081016040528092919081815260200182805461145990611aee565b80156114a65780601f1061147b576101008083540402835291602001916114a6565b820191906000526020600020905b81548152906001019060200180831161148957829003601f168201915b5050506000858152600e60209081526040918290205460065483516396c82e5760e01b8152935196975088963396507f28fca9bc3d4a734a707bd9396d50341c1f45e1d455c4aa4a58ceee0e09f64544955091936001600160a01b03909116926396c82e5792600480840193829003018186803b15801561152657600080fd5b505afa15801561153a573d6000803e3d6000fd5b505050506040513d601f19601f8201168201806040525081019061155e91906118f8565b8560405161156e93929190611a47565b60405180910390a3506000908152600e6020908152604080832083905560118252808320805460ff19908116600117909155601090925290912080549091169055565b6001600160a01b0381166115f55760405162461bcd60e51b815260206004820152600b60248201526a30b2323932b9b99032b93960a91b6044820152606401610694565b600a80546001600160a01b0319166001600160a01b0392909216919091179055565b6001600160a01b03811661165b5760405162461bcd60e51b815260206004820152600b60248201526a30b2323932b9b99032b93960a91b6044820152606401610694565b600580546001600160a01b0319166001600160a01b0392909216919091179055565b82805461168990611aee565b90600052602060002090601f0160209004810192826116ab57600085556116f1565b82601f106116c457805160ff19168380011785556116f1565b828001600101855582156116f1579182015b828111156116f15782518255916020019190600101906116d6565b506116fd929150611701565b5090565b5b808211156116fd5760008155600101611702565b600067ffffffffffffffff8084111561173157611731611b3f565b604051601f8501601f19908116603f0116810190828211818310171561175957611759611b3f565b8160405280935085815286868601111561177257600080fd5b858560208301376000602087830101525050509392505050565b80356001600160a01b038116811461090457600080fd5b600082601f8301126117b3578081fd5b6117c283833560208501611716565b9392505050565b60008060008060008060008060006101208a8c0312156117e7578485fd5b6117f08a61178c565b98506117fe60208b0161178c565b975061180c60408b0161178c565b965061181a60608b0161178c565b955061182860808b0161178c565b945061183660a08b0161178c565b935061184460c08b0161178c565b925061185260e08b0161178c565b91506118616101008b0161178c565b90509295985092959850929598565b60008060408385031215611882578182fd5b61188b8361178c565b9150602083013567ffffffffffffffff8111156118a6578182fd5b8301601f810185136118b6578182fd5b6118c585823560208401611716565b9150509250929050565b600080604083850312156118e1578182fd5b6118ea8361178c565b946020939093013593505050565b600060208284031215611909578081fd5b5051919050565b60008060408385031215611922578182fd5b823567ffffffffffffffff80821115611939578384fd5b611945868387016117a3565b9350602085013591508082111561195a578283fd5b506118c5858286016117a3565b600060208284031215611978578081fd5b5035919050565b60008060408385031215611991578182fd5b823591506119a16020840161178c565b90509250929050565b600080604083850312156119bc578182fd5b50508035926020909101359150565b600081518084526119e3816020860160208601611abe565b601f01601f19169290920160200192915050565b60008251611a09818460208701611abe565b9190910192915050565b6000602082526117c260208301846119cb565b600083825260406020830152611a3f60408301846119cb565b949350505050565b600084825283602083015260606040830152611a6660608301846119cb565b95945050505050565b60008219821115611a8257611a82611b29565b500190565b600082611aa257634e487b7160e01b81526012600452602481fd5b500490565b600082821015611ab957611ab9611b29565b500390565b60005b83811015611ad9578181015183820152602001611ac1565b83811115611ae8576000848401525b50505050565b600181811c90821680611b0257607f821691505b60208210811415611b2357634e487b7160e01b600052602260045260246000fd5b50919050565b634e487b7160e01b600052601160045260246000fd5b634e487b7160e01b600052604160045260246000fdfea264697066735822122008621e4e90585cb2ec983652dc9662cae089816597ab93228ae8fc64be21edba64736f6c63430008030033",
  "linkReferences": {},
  "deployedLinkReferences": {}
}