{
  "_format": "hh-sol-artifact-1",
  "contractName": "DAO",
  "sourceName": "contracts/DAO.sol",
  "abi": [
    {
      "inputs": [],
      "stateMutability": "nonpayable",
      "type": "constructor"
    },
    {
      "anonymous": false,
      "inputs": [
        {
          "indexed": true,
          "internalType": "address",
          "name": "member",
          "type": "address"
        },
        {
          "indexed": true,
          "internalType": "uint256",
          "name": "oldProposalID",
          "type": "uint256"
        },
        {
          "indexed": false,
          "internalType": "uint256",
          "name": "oldVotes",
          "type": "uint256"
        },
        {
          "indexed": false,
          "internalType": "uint256",
          "name": "newVotes",
          "type": "uint256"
        },
        {
          "indexed": false,
          "internalType": "uint256",
          "name": "totalWeight",
          "type": "uint256"
        }
      ],
      "name": "CancelProposal",
      "type": "event"
    },
    {
      "anonymous": false,
      "inputs": [
        {
          "indexed": true,
          "internalType": "address",
          "name": "member",
          "type": "address"
        },
        {
          "indexed": true,
          "internalType": "uint256",
          "name": "proposalID",
          "type": "uint256"
        },
        {
          "indexed": false,
          "internalType": "uint256",
          "name": "votesCast",
          "type": "uint256"
        },
        {
          "indexed": false,
          "internalType": "uint256",
          "name": "totalWeight",
          "type": "uint256"
        },
        {
          "indexed": false,
          "internalType": "string",
          "name": "proposalType",
          "type": "string"
        }
      ],
      "name": "FinalisedProposal",
      "type": "event"
    },
    {
      "anonymous": false,
      "inputs": [
        {
          "indexed": true,
          "internalType": "address",
          "name": "member",
          "type": "address"
        },
        {
          "indexed": true,
          "internalType": "uint256",
          "name": "proposalID",
          "type": "uint256"
        },
        {
          "indexed": false,
          "internalType": "string",
          "name": "proposalType",
          "type": "string"
        }
      ],
      "name": "NewProposal",
      "type": "event"
    },
    {
      "anonymous": false,
      "inputs": [
        {
          "indexed": true,
          "internalType": "address",
          "name": "member",
          "type": "address"
        },
        {
          "indexed": true,
          "internalType": "uint256",
          "name": "proposalID",
          "type": "uint256"
        },
        {
          "indexed": false,
          "internalType": "uint256",
          "name": "voteWeight",
          "type": "uint256"
        },
        {
          "indexed": false,
          "internalType": "uint256",
          "name": "totalVotes",
          "type": "uint256"
        },
        {
          "indexed": false,
          "internalType": "string",
          "name": "proposalType",
          "type": "string"
        }
      ],
      "name": "NewVote",
      "type": "event"
    },
    {
      "anonymous": false,
      "inputs": [
        {
          "indexed": true,
          "internalType": "address",
          "name": "member",
          "type": "address"
        },
        {
          "indexed": true,
          "internalType": "uint256",
          "name": "proposalID",
          "type": "uint256"
        },
        {
          "indexed": false,
          "internalType": "uint256",
          "name": "timeFinalised",
          "type": "uint256"
        },
        {
          "indexed": false,
          "internalType": "string",
          "name": "proposalType",
          "type": "string"
        }
      ],
      "name": "ProposalFinalising",
      "type": "event"
    },
    {
      "inputs": [],
      "name": "COUNCIL",
      "outputs": [
        {
          "internalType": "address",
          "name": "",
          "type": "address"
        }
      ],
      "stateMutability": "view",
      "type": "function"
    },
    {
      "inputs": [],
      "name": "FACTORY",
      "outputs": [
        {
          "internalType": "address",
          "name": "",
          "type": "address"
        }
      ],
      "stateMutability": "view",
      "type": "function"
    },
    {
      "inputs": [],
      "name": "POOLS",
      "outputs": [
        {
          "internalType": "address",
          "name": "",
          "type": "address"
        }
      ],
      "stateMutability": "view",
      "type": "function"
    },
    {
      "inputs": [],
      "name": "RESERVE",
      "outputs": [
        {
          "internalType": "address",
          "name": "",
          "type": "address"
        }
      ],
      "stateMutability": "view",
      "type": "function"
    },
    {
      "inputs": [],
      "name": "ROUTER",
      "outputs": [
        {
          "internalType": "address",
          "name": "",
          "type": "address"
        }
      ],
      "stateMutability": "view",
      "type": "function"
    },
    {
      "inputs": [],
      "name": "USDV",
      "outputs": [
        {
          "internalType": "address",
          "name": "",
          "type": "address"
        }
      ],
      "stateMutability": "view",
      "type": "function"
    },
    {
      "inputs": [],
      "name": "UTILS",
      "outputs": [
        {
          "internalType": "address",
          "name": "",
          "type": "address"
        }
      ],
      "stateMutability": "view",
      "type": "function"
    },
    {
      "inputs": [],
      "name": "VADER",
      "outputs": [
        {
          "internalType": "address",
          "name": "",
          "type": "address"
        }
      ],
      "stateMutability": "view",
      "type": "function"
    },
    {
      "inputs": [],
      "name": "VAULT",
      "outputs": [
        {
          "internalType": "address",
          "name": "",
          "type": "address"
        }
      ],
      "stateMutability": "view",
      "type": "function"
    },
    {
      "inputs": [],
      "name": "VETHER",
      "outputs": [
        {
          "internalType": "address",
          "name": "",
          "type": "address"
        }
      ],
      "stateMutability": "view",
      "type": "function"
    },
    {
      "inputs": [
        {
          "internalType": "uint256",
          "name": "oldProposalID",
          "type": "uint256"
        },
        {
          "internalType": "uint256",
          "name": "newProposalID",
          "type": "uint256"
        }
      ],
      "name": "cancelProposal",
      "outputs": [],
      "stateMutability": "nonpayable",
      "type": "function"
    },
    {
      "inputs": [
        {
          "internalType": "address",
          "name": "newCouncil",
          "type": "address"
        }
      ],
      "name": "changeCouncil",
      "outputs": [],
      "stateMutability": "nonpayable",
      "type": "function"
    },
    {
      "inputs": [],
      "name": "coolOffPeriod",
      "outputs": [
        {
          "internalType": "uint256",
          "name": "",
          "type": "uint256"
        }
      ],
      "stateMutability": "view",
      "type": "function"
    },
    {
      "inputs": [
        {
          "internalType": "uint256",
          "name": "proposalID",
          "type": "uint256"
        }
      ],
      "name": "finaliseProposal",
      "outputs": [],
      "stateMutability": "nonpayable",
      "type": "function"
    },
    {
      "inputs": [
        {
          "internalType": "uint256",
          "name": "_proposalID",
          "type": "uint256"
        }
      ],
      "name": "hasMajority",
      "outputs": [
        {
          "internalType": "bool",
          "name": "",
          "type": "bool"
        }
      ],
      "stateMutability": "view",
      "type": "function"
    },
    {
      "inputs": [
        {
          "internalType": "uint256",
          "name": "_proposalID",
          "type": "uint256"
        }
      ],
      "name": "hasMinority",
      "outputs": [
        {
          "internalType": "bool",
          "name": "",
          "type": "bool"
        }
      ],
      "stateMutability": "view",
      "type": "function"
    },
    {
      "inputs": [
        {
          "internalType": "uint256",
          "name": "_proposalID",
          "type": "uint256"
        }
      ],
      "name": "hasQuorum",
      "outputs": [
        {
          "internalType": "bool",
          "name": "",
          "type": "bool"
        }
      ],
      "stateMutability": "view",
      "type": "function"
    },
    {
      "inputs": [
        {
          "internalType": "address",
          "name": "_vether",
          "type": "address"
        },
        {
          "internalType": "address",
          "name": "_vader",
          "type": "address"
        },
        {
          "internalType": "address",
          "name": "_usdv",
          "type": "address"
        },
        {
          "internalType": "address",
          "name": "_reserve",
          "type": "address"
        },
        {
          "internalType": "address",
          "name": "_vault",
          "type": "address"
        },
        {
          "internalType": "address",
          "name": "_router",
          "type": "address"
        },
        {
          "internalType": "address",
          "name": "_pools",
          "type": "address"
        },
        {
          "internalType": "address",
          "name": "_factory",
          "type": "address"
        },
        {
          "internalType": "address",
          "name": "_utils",
          "type": "address"
        }
      ],
      "name": "init",
      "outputs": [],
      "stateMutability": "nonpayable",
      "type": "function"
    },
    {
      "inputs": [
        {
          "internalType": "bytes",
          "name": "part1",
          "type": "bytes"
        },
        {
          "internalType": "bytes",
          "name": "part2",
          "type": "bytes"
        }
      ],
      "name": "isEqual",
      "outputs": [
        {
          "internalType": "bool",
          "name": "",
          "type": "bool"
        }
      ],
      "stateMutability": "pure",
      "type": "function"
    },
    {
      "inputs": [
        {
          "internalType": "uint256",
          "name": "",
          "type": "uint256"
        },
        {
          "internalType": "address",
          "name": "",
          "type": "address"
        }
      ],
      "name": "mapPIDMember_votes",
      "outputs": [
        {
          "internalType": "uint256",
          "name": "",
          "type": "uint256"
        }
      ],
      "stateMutability": "view",
      "type": "function"
    },
    {
      "inputs": [
        {
          "internalType": "uint256",
          "name": "",
          "type": "uint256"
        }
      ],
      "name": "mapPID_address",
      "outputs": [
        {
          "internalType": "address",
          "name": "",
          "type": "address"
        }
      ],
      "stateMutability": "view",
      "type": "function"
    },
    {
      "inputs": [
        {
          "internalType": "uint256",
          "name": "",
          "type": "uint256"
        }
      ],
      "name": "mapPID_finalised",
      "outputs": [
        {
          "internalType": "bool",
          "name": "",
          "type": "bool"
        }
      ],
      "stateMutability": "view",
      "type": "function"
    },
    {
      "inputs": [
        {
          "internalType": "uint256",
          "name": "",
          "type": "uint256"
        }
      ],
      "name": "mapPID_finalising",
      "outputs": [
        {
          "internalType": "bool",
          "name": "",
          "type": "bool"
        }
      ],
      "stateMutability": "view",
      "type": "function"
    },
    {
      "inputs": [
        {
          "internalType": "uint256",
          "name": "",
          "type": "uint256"
        }
      ],
      "name": "mapPID_grant",
      "outputs": [
        {
          "internalType": "address",
          "name": "recipient",
          "type": "address"
        },
        {
          "internalType": "uint256",
          "name": "amount",
          "type": "uint256"
        }
      ],
      "stateMutability": "view",
      "type": "function"
    },
    {
      "inputs": [
        {
          "internalType": "uint256",
          "name": "",
          "type": "uint256"
        }
      ],
      "name": "mapPID_timeStart",
      "outputs": [
        {
          "internalType": "uint256",
          "name": "",
          "type": "uint256"
        }
      ],
      "stateMutability": "view",
      "type": "function"
    },
    {
      "inputs": [
        {
          "internalType": "uint256",
          "name": "",
          "type": "uint256"
        }
      ],
      "name": "mapPID_type",
      "outputs": [
        {
          "internalType": "string",
          "name": "",
          "type": "string"
        }
      ],
      "stateMutability": "view",
      "type": "function"
    },
    {
      "inputs": [
        {
          "internalType": "uint256",
          "name": "",
          "type": "uint256"
        }
      ],
      "name": "mapPID_votes",
      "outputs": [
        {
          "internalType": "uint256",
          "name": "",
          "type": "uint256"
        }
      ],
      "stateMutability": "view",
      "type": "function"
    },
    {
      "inputs": [
        {
          "internalType": "address",
          "name": "proposedAddress",
          "type": "address"
        },
        {
          "internalType": "string",
          "name": "typeStr",
          "type": "string"
        }
      ],
      "name": "newAddressProposal",
      "outputs": [],
      "stateMutability": "nonpayable",
      "type": "function"
    },
    {
      "inputs": [
        {
          "internalType": "address",
          "name": "recipient",
          "type": "address"
        },
        {
          "internalType": "uint256",
          "name": "amount",
          "type": "uint256"
        }
      ],
      "name": "newGrantProposal",
      "outputs": [],
      "stateMutability": "nonpayable",
      "type": "function"
    },
    {
      "inputs": [],
      "name": "proposalCount",
      "outputs": [
        {
          "internalType": "uint256",
          "name": "",
          "type": "uint256"
        }
      ],
      "stateMutability": "view",
      "type": "function"
    },
    {
      "inputs": [],
      "name": "purgeCouncil",
      "outputs": [],
      "stateMutability": "nonpayable",
      "type": "function"
    },
    {
      "inputs": [
        {
          "internalType": "uint256",
          "name": "proposalID",
          "type": "uint256"
        }
      ],
      "name": "voteProposal",
      "outputs": [
        {
          "internalType": "uint256",
          "name": "voteWeight",
          "type": "uint256"
        }
      ],
      "stateMutability": "nonpayable",
      "type": "function"
    }
  ],
  "bytecode": "0x608060405234801561001057600080fd5b50600180546001600160a01b03191633179055611e0d806100326000396000f3fe608060405234801561001057600080fd5b50600436106101f05760003560e01c8063807896d51161010f578063c42b3f7d116100a2578063dab249b311610071578063dab249b3146104c0578063e2c3b046146104e0578063e38c7dcc146104f3578063ebccb5b214610513576101f0565b8063c42b3f7d14610427578063cb7bdbc014610452578063d0ad1709146104a4578063da35c664146104b7576101f0565b8063abb6154f116100de578063abb6154f146103c3578063ae887c8b146103cb578063bbf8cf82146103f4578063c05fc17814610407576101f0565b8063807896d514610369578063862ef2591461038a5780639d2cc4361461039d578063a6c83fed146103b0576101f0565b806334359808116101875780634c4d46b0116101565780634c4d46b01461031d5780635c120b37146103305780635ded8b06146103435780637b0e5c4514610356576101f0565b806334359808146102c1578063411557d1146102d45780634b193e23146102e75780634b400034146102fa576101f0565b8063293cee7d116101c3578063293cee7d146102555780632bee1194146102685780632dd310001461029b57806332fe7b26146102ae576101f0565b806301681315146101f557806301a3d6871461022557806302c3b436146102385780630beadade1461024d575b600080fd5b600354610208906001600160a01b031681565b6040516001600160a01b0390911681526020015b60405180910390f35b600154610208906001600160a01b031681565b61024b6102463660046119bd565b610526565b005b61024b6105a1565b61024b610263366004611a7e565b6105dd565b61028b610276366004611b75565b60116020526000908152604090205460ff1681565b604051901515815260200161021c565b600954610208906001600160a01b031681565b600754610208906001600160a01b031681565b61028b6102cf366004611b1e565b6106a7565b600654610208906001600160a01b031681565b61024b6102f5366004611b75565b610751565b61028b610308366004611b75565b60106020526000908152604090205460ff1681565b600254610208906001600160a01b031681565b61028b61033e366004611b75565b6109bd565b61024b610351366004611bb8565b610a64565b600a54610208906001600160a01b031681565b61037c610377366004611b75565b610da4565b60405190815260200161021c565b61024b6103983660046119d7565b611015565b600554610208906001600160a01b031681565b61024b6103be366004611add565b6110e1565b61037c600181565b6102086103d9366004611b75565b600c602052600090815260409020546001600160a01b031681565b61028b610402366004611b75565b6111ca565b61041a610415366004611b75565b611223565b60405161021c9190611c21565b61037c610435366004611b8d565b601260209081526000928352604080842090915290825290205481565b610485610460366004611b75565b600b60205260009081526040902080546001909101546001600160a01b039091169082565b604080516001600160a01b03909316835260208301919091520161021c565b61028b6104b2366004611b75565b6112bd565b61037c60005481565b61037c6104ce366004611b75565b600e6020526000908152604090205481565b600454610208906001600160a01b031681565b61037c610501366004611b75565b600f6020526000908152604090205481565b600854610208906001600160a01b031681565b6001546001600160a01b031633146105595760405162461bcd60e51b815260040161055090611c34565b60405180910390fd5b6001600160a01b03811661057f5760405162461bcd60e51b815260040161055090611c83565b600180546001600160a01b0319166001600160a01b0392909216919091179055565b6001546001600160a01b031633146105cb5760405162461bcd60e51b815260040161055090611c34565b600180546001600160a01b0319169055565b6001600160a01b0382166106035760405162461bcd60e51b815260040161055090611c56565b60016000808282546106159190611cf1565b9091555050600080548152600c6020908152604080832080546001600160a01b0319166001600160a01b03871617905582548352600d8252909120825161065e92840190611871565b50600054336001600160a01b03167f8d500fcad86fc64a281b94ef64d6d66acbfc6862aa4ff2ee5fbbfb40736e803e8360405161069b9190611c21565b60405180910390a35050565b60006002826040516106b99190611c05565b602060405180830381855afa1580156106d6573d6000803e3d6000fd5b5050506040513d601f19601f820116820180604052508101906106f99190611b06565b6002846040516107099190611c05565b602060405180830381855afa158015610726573d6000803e3d6000fd5b5050506040513d601f19601f820116820180604052508101906107499190611b06565b149392505050565b6000818152600f602052604090205460019061076d9042611d29565b116107b35760405162461bcd60e51b815260206004820152601660248201527526bab9ba1031329030b33a32b91031b7b7b61037b33360511b6044820152606401610550565b60008181526010602052604090205460ff166108065760405162461bcd60e51b81526020600482015260126024820152714d7573742062652066696e616c6973696e6760701b6044820152606401610550565b60008181526011602052604090205460ff16156108655760405162461bcd60e51b815260206004820152601860248201527f4d757374206e6f7420626520616c726561647920646f6e6500000000000000006044820152606401610550565b61086e816111ca565b61087b5761087b81611314565b6000818152600d60205260408120805461089490611d70565b80601f01602080910402602001604051908101604052809291908181526020018280546108c090611d70565b801561090d5780601f106108e25761010080835404028352916020019161090d565b820191906000526020600020905b8154815290600101906020018083116108f057829003601f168201915b5050505050905061093b816040518060400160405280600581526020016411d490539560da1b8152506106a7565b1561094e5761094982611419565b6109b9565b61097581604051806040016040528060058152602001645554494c5360d81b8152506106a7565b1561098357610949826114c2565b6109ab8160405180604001604052806006815260200165149155d0549160d21b8152506106a7565b156109b9576109b982611509565b5050565b6000818152600e602090815260408083205460065482516396c82e5760e01b81529251919385936002936001600160a01b03909316926396c82e5792600480840193919291829003018186803b158015610a1657600080fd5b505afa158015610a2a573d6000803e3d6000fd5b505050506040513d601f19601f82011682018060405250810190610a4e9190611b06565b610a589190611d09565b9091119150505b919050565b60008281526010602052604090205460ff16610ab75760405162461bcd60e51b81526020600482015260126024820152714d7573742062652066696e616c6973696e6760701b6044820152606401610550565b610ac0816112bd565b610b015760405162461bcd60e51b81526020600482015260126024820152714d7573742068617665206d696e6f7269747960701b6044820152606401610550565b6000828152600d602052604090208054610c3b9190610b1f90611d70565b80601f0160208091040260200160405190810160405280929190818152602001828054610b4b90611d70565b8015610b985780601f10610b6d57610100808354040283529160200191610b98565b820191906000526020600020905b815481529060010190602001808311610b7b57829003601f168201915b5050506000858152600d602052604090208054909250610bb89150611d70565b80601f0160208091040260200160405190810160405280929190818152602001828054610be490611d70565b8015610c315780601f10610c0657610100808354040283529160200191610c31565b820191906000526020600020905b815481529060010190602001808311610c1457829003601f168201915b50505050506106a7565b610c765760405162461bcd60e51b815260206004820152600c60248201526b4d7573742062652073616d6560a01b6044820152606401610550565b80821415610cba5760405162461bcd60e51b8152602060048201526011602482015270135d5cdd08189948191a5999995c995b9d607a1b6044820152606401610550565b6000828152600e6020818152604080842084815560108352818520805460ff191690559282529154848452928290205460065483516396c82e5760e01b81529351879533957f0e67c2e72a9ea22e5d163549aebce99ddc3d1fbbc58e7ed196b0e88f458847d9959194936001600160a01b0316926396c82e5792600480840193919291829003018186803b158015610d5157600080fd5b505afa158015610d65573d6000803e3d6000fd5b505050506040513d601f19601f82011682018060405250810190610d899190611b06565b6040805193845260208401929092529082015260600161069b565b6000818152600d602052604081208054829190610dc090611d70565b80601f0160208091040260200160405190810160405280929190818152602001828054610dec90611d70565b8015610e395780601f10610e0e57610100808354040283529160200191610e39565b820191906000526020600020905b815481529060010190602001808311610e1c57829003601f168201915b50506001549394505050506001600160a01b0316331415610ee157600660009054906101000a90046001600160a01b03166001600160a01b03166396c82e576040518163ffffffff1660e01b815260040160206040518083038186803b158015610ea257600080fd5b505afa158015610eb6573d6000803e3d6000fd5b505050506040513d601f19601f82011682018060405250810190610eda9190611b06565b9150610eed565b610eea83611547565b91505b610ef6836111ca565b8015610f11575060008381526010602052604090205460ff16155b15610fc057610f3b816040518060400160405280600381526020016244414f60e81b8152506106a7565b80610f685750610f6881604051806040016040528060058152602001645554494c5360d81b8152506106a7565b80610f965750610f968160405180604001604052806006815260200165149155d0549160d21b8152506106a7565b15610fb757610fa4836109bd565b15610fb257610fb283611314565b610fc0565b610fc083611314565b6000838152600e602052604090819020549051849133917f4d46d88c7e981a5bf4572a83b5d88bcfefbd5ee6ca8df0588e27c4221a43640791611007918791908790611cc9565b60405180910390a350919050565b6001546001600160a01b0316331461103f5760405162461bcd60e51b815260040161055090611c34565b6003546001600160a01b03166110d657600280546001600160a01b03199081166001600160a01b038c8116919091179092556003805482168b84161790556004805482168a8416179055600580548216898416179055600680548216888416179055600780548216878416179055600880548216868416179055600980548216858416179055600a80549091169183169190911790555b505050505050505050565b60006040518060400160405280600581526020016411d490539560da1b815250905060016000808282546111159190611cf1565b9091555050600080548152600d60209081526040909120825161113a92840190611871565b506040805180820182526001600160a01b0385811682526020808301868152600080548152600b909252848220845181546001600160a01b03191694169390931783555160019092019190915554915190919033907f8d500fcad86fc64a281b94ef64d6d66acbfc6862aa4ff2ee5fbbfb40736e803e906111bc908690611c21565b60405180910390a350505050565b6000818152600e602090815260408083205460065482516396c82e5760e01b81529251919385936003936001600160a01b03909316926396c82e5792600480840193919291829003018186803b158015610a1657600080fd5b600d602052600090815260409020805461123c90611d70565b80601f016020809104026020016040519081016040528092919081815260200182805461126890611d70565b80156112b55780601f1061128a576101008083540402835291602001916112b5565b820191906000526020600020905b81548152906001019060200180831161129857829003601f168201915b505050505081565b6000818152600e60209081526040808320546006805483516396c82e5760e01b815293519294869492936001600160a01b03909216926396c82e579260048083019392829003018186803b158015610a1657600080fd5b6000818152600d60205260408120805461132d90611d70565b80601f016020809104026020016040519081016040528092919081815260200182805461135990611d70565b80156113a65780601f1061137b576101008083540402835291602001916113a6565b820191906000526020600020905b81548152906001019060200180831161138957829003601f168201915b5050506000858152601060209081526040808320805460ff19166001908117909155600f909252909120429081905593945085933393507f0f36aea5066f9f90a999260fe4ce8d7713f7f07f5ae61bf36d73cc51170a3a9e925061140a9190611cf1565b8460405161069b929190611ca8565b6000818152600b6020908152604091829020825180840190935280546001600160a01b03168352600101549082015261145182611644565b600554815160208301516040516331b8490760e11b81526001600160a01b0392831660048201526024810191909152911690636370920e90604401600060405180830381600087803b1580156114a657600080fd5b505af11580156114ba573d6000803e3d6000fd5b505050505050565b6000818152600c60205260409020546001600160a01b0316806114f75760405162461bcd60e51b815260040161055090611c56565b611500816117e1565b6109b982611644565b6000818152600c60205260409020546001600160a01b03168061153e5760405162461bcd60e51b815260040161055090611c56565b61150081611829565b6000818152601260209081526040808320338452825280832054848452600e90925282208054839061157a908490611d29565b9091555050600654604051635364df4960e01b81523360048201526001600160a01b0390911690635364df499060240160206040518083038186803b1580156115c257600080fd5b505afa1580156115d6573d6000803e3d6000fd5b505050506040513d601f19601f820116820180604052508101906115fa9190611b06565b905080600e6000848152602001908152602001600020600082825461161f9190611cf1565b9091555050600091825260126020908152604080842033855290915290912081905590565b6000818152600d60205260408120805461165d90611d70565b80601f016020809104026020016040519081016040528092919081815260200182805461168990611d70565b80156116d65780601f106116ab576101008083540402835291602001916116d6565b820191906000526020600020905b8154815290600101906020018083116116b957829003601f168201915b5050506000858152600e60209081526040918290205460065483516396c82e5760e01b8152935196975088963396507f28fca9bc3d4a734a707bd9396d50341c1f45e1d455c4aa4a58ceee0e09f64544955091936001600160a01b03909116926396c82e5792600480840193829003018186803b15801561175657600080fd5b505afa15801561176a573d6000803e3d6000fd5b505050506040513d601f19601f8201168201806040525081019061178e9190611b06565b8560405161179e93929190611cc9565b60405180910390a3506000908152600e6020908152604080832083905560108252808320805460ff19908116909155601190925290912080549091166001179055565b6001600160a01b0381166118075760405162461bcd60e51b815260040161055090611c83565b600a80546001600160a01b0319166001600160a01b0392909216919091179055565b6001600160a01b03811661184f5760405162461bcd60e51b815260040161055090611c83565b600580546001600160a01b0319166001600160a01b0392909216919091179055565b82805461187d90611d70565b90600052602060002090601f01602090048101928261189f57600085556118e5565b82601f106118b857805160ff19168380011785556118e5565b828001600101855582156118e5579182015b828111156118e55782518255916020019190600101906118ca565b506118f19291506118f5565b5090565b5b808211156118f157600081556001016118f6565b600067ffffffffffffffff8084111561192557611925611dc1565b604051601f8501601f19908116603f0116810190828211818310171561194d5761194d611dc1565b8160405280935085815286868601111561196657600080fd5b858560208301376000602087830101525050509392505050565b80356001600160a01b0381168114610a5f57600080fd5b600082601f8301126119a7578081fd5b6119b68383356020850161190a565b9392505050565b6000602082840312156119ce578081fd5b6119b682611980565b60008060008060008060008060006101208a8c0312156119f5578485fd5b6119fe8a611980565b9850611a0c60208b01611980565b9750611a1a60408b01611980565b9650611a2860608b01611980565b9550611a3660808b01611980565b9450611a4460a08b01611980565b9350611a5260c08b01611980565b9250611a6060e08b01611980565b9150611a6f6101008b01611980565b90509295985092959850929598565b60008060408385031215611a90578182fd5b611a9983611980565b9150602083013567ffffffffffffffff811115611ab4578182fd5b8301601f81018513611ac4578182fd5b611ad38582356020840161190a565b9150509250929050565b60008060408385031215611aef578182fd5b611af883611980565b946020939093013593505050565b600060208284031215611b17578081fd5b5051919050565b60008060408385031215611b30578182fd5b823567ffffffffffffffff80821115611b47578384fd5b611b5386838701611997565b93506020850135915080821115611b68578283fd5b50611ad385828601611997565b600060208284031215611b86578081fd5b5035919050565b60008060408385031215611b9f578182fd5b82359150611baf60208401611980565b90509250929050565b60008060408385031215611bca578182fd5b50508035926020909101359150565b60008151808452611bf1816020860160208601611d40565b601f01601f19169290920160200192915050565b60008251611c17818460208701611d40565b9190910192915050565b6000602082526119b66020830184611bd9565b6020808252600890820152670850dbdd5b98da5b60c21b604082015260600190565b602080825260139082015272139bc81859191c995cdcc81c1c9bdc1bdcd959606a1b604082015260600190565b6020808252600b908201526a30b2323932b9b99032b93960a91b604082015260600190565b600083825260406020830152611cc16040830184611bd9565b949350505050565b600084825283602083015260606040830152611ce86060830184611bd9565b95945050505050565b60008219821115611d0457611d04611dab565b500190565b600082611d2457634e487b7160e01b81526012600452602481fd5b500490565b600082821015611d3b57611d3b611dab565b500390565b60005b83811015611d5b578181015183820152602001611d43565b83811115611d6a576000848401525b50505050565b600181811c90821680611d8457607f821691505b60208210811415611da557634e487b7160e01b600052602260045260246000fd5b50919050565b634e487b7160e01b600052601160045260246000fd5b634e487b7160e01b600052604160045260246000fdfea26469706673582212206fa019ccea52bad6bf1b7fc8639eae89fe3ff333ba120d339f58dac0cbc7fac164736f6c63430008030033",
  "linkReferences": {},
  "deployedLinkReferences": {}
}