{
  "_format": "hh-sol-artifact-1",
  "contractName": "DAO",
  "sourceName": "contracts/DAO.sol",
  "abi": [
    {
      "inputs": [],
      "stateMutability": "nonpayable",
      "type": "constructor"
    },
    {
      "anonymous": false,
      "inputs": [
        {
          "indexed": true,
          "internalType": "address",
          "name": "member",
          "type": "address"
        },
        {
          "indexed": true,
          "internalType": "uint256",
          "name": "oldProposalID",
          "type": "uint256"
        },
        {
          "indexed": false,
          "internalType": "uint256",
          "name": "oldVotes",
          "type": "uint256"
        },
        {
          "indexed": false,
          "internalType": "uint256",
          "name": "newVotes",
          "type": "uint256"
        },
        {
          "indexed": false,
          "internalType": "uint256",
          "name": "totalWeight",
          "type": "uint256"
        }
      ],
      "name": "CancelProposal",
      "type": "event"
    },
    {
      "anonymous": false,
      "inputs": [
        {
          "indexed": true,
          "internalType": "address",
          "name": "member",
          "type": "address"
        },
        {
          "indexed": true,
          "internalType": "uint256",
          "name": "proposalID",
          "type": "uint256"
        },
        {
          "indexed": false,
          "internalType": "uint256",
          "name": "votesCast",
          "type": "uint256"
        },
        {
          "indexed": false,
          "internalType": "uint256",
          "name": "totalWeight",
          "type": "uint256"
        },
        {
          "indexed": false,
          "internalType": "string",
          "name": "proposalType",
          "type": "string"
        }
      ],
      "name": "FinalisedProposal",
      "type": "event"
    },
    {
      "anonymous": false,
      "inputs": [
        {
          "indexed": true,
          "internalType": "address",
          "name": "member",
          "type": "address"
        },
        {
          "indexed": true,
          "internalType": "uint256",
          "name": "proposalID",
          "type": "uint256"
        },
        {
          "indexed": false,
          "internalType": "string",
          "name": "proposalType",
          "type": "string"
        }
      ],
      "name": "NewProposal",
      "type": "event"
    },
    {
      "anonymous": false,
      "inputs": [
        {
          "indexed": true,
          "internalType": "address",
          "name": "member",
          "type": "address"
        },
        {
          "indexed": true,
          "internalType": "uint256",
          "name": "proposalID",
          "type": "uint256"
        },
        {
          "indexed": false,
          "internalType": "uint256",
          "name": "voteWeight",
          "type": "uint256"
        },
        {
          "indexed": false,
          "internalType": "uint256",
          "name": "totalVotes",
          "type": "uint256"
        },
        {
          "indexed": false,
          "internalType": "string",
          "name": "proposalType",
          "type": "string"
        }
      ],
      "name": "NewVote",
      "type": "event"
    },
    {
      "anonymous": false,
      "inputs": [
        {
          "indexed": true,
          "internalType": "address",
          "name": "member",
          "type": "address"
        },
        {
          "indexed": true,
          "internalType": "uint256",
          "name": "proposalID",
          "type": "uint256"
        },
        {
          "indexed": false,
          "internalType": "uint256",
          "name": "timeFinalised",
          "type": "uint256"
        },
        {
          "indexed": false,
          "internalType": "string",
          "name": "proposalType",
          "type": "string"
        }
      ],
      "name": "ProposalFinalising",
      "type": "event"
    },
    {
      "inputs": [],
      "name": "FACTORY",
      "outputs": [
        {
          "internalType": "address",
          "name": "",
          "type": "address"
        }
      ],
      "stateMutability": "view",
      "type": "function"
    },
    {
      "inputs": [],
      "name": "POOLS",
      "outputs": [
        {
          "internalType": "address",
          "name": "",
          "type": "address"
        }
      ],
      "stateMutability": "view",
      "type": "function"
    },
    {
      "inputs": [],
      "name": "RESERVE",
      "outputs": [
        {
          "internalType": "address",
          "name": "",
          "type": "address"
        }
      ],
      "stateMutability": "view",
      "type": "function"
    },
    {
      "inputs": [],
      "name": "ROUTER",
      "outputs": [
        {
          "internalType": "address",
          "name": "",
          "type": "address"
        }
      ],
      "stateMutability": "view",
      "type": "function"
    },
    {
      "inputs": [],
      "name": "USDV",
      "outputs": [
        {
          "internalType": "address",
          "name": "",
          "type": "address"
        }
      ],
      "stateMutability": "view",
      "type": "function"
    },
    {
      "inputs": [],
      "name": "UTILS",
      "outputs": [
        {
          "internalType": "address",
          "name": "",
          "type": "address"
        }
      ],
      "stateMutability": "view",
      "type": "function"
    },
    {
      "inputs": [],
      "name": "VADER",
      "outputs": [
        {
          "internalType": "address",
          "name": "",
          "type": "address"
        }
      ],
      "stateMutability": "view",
      "type": "function"
    },
    {
      "inputs": [],
      "name": "VAULT",
      "outputs": [
        {
          "internalType": "address",
          "name": "",
          "type": "address"
        }
      ],
      "stateMutability": "view",
      "type": "function"
    },
    {
      "inputs": [],
      "name": "VETHER",
      "outputs": [
        {
          "internalType": "address",
          "name": "",
          "type": "address"
        }
      ],
      "stateMutability": "view",
      "type": "function"
    },
    {
      "inputs": [
        {
          "internalType": "uint256",
          "name": "oldProposalID",
          "type": "uint256"
        },
        {
          "internalType": "uint256",
          "name": "newProposalID",
          "type": "uint256"
        }
      ],
      "name": "cancelProposal",
      "outputs": [],
      "stateMutability": "nonpayable",
      "type": "function"
    },
    {
      "inputs": [],
      "name": "coolOffPeriod",
      "outputs": [
        {
          "internalType": "uint256",
          "name": "",
          "type": "uint256"
        }
      ],
      "stateMutability": "view",
      "type": "function"
    },
    {
      "inputs": [
        {
          "internalType": "uint256",
          "name": "proposalID",
          "type": "uint256"
        }
      ],
      "name": "finaliseProposal",
      "outputs": [],
      "stateMutability": "nonpayable",
      "type": "function"
    },
    {
      "inputs": [
        {
          "internalType": "uint256",
          "name": "_proposalID",
          "type": "uint256"
        }
      ],
      "name": "hasMajority",
      "outputs": [
        {
          "internalType": "bool",
          "name": "",
          "type": "bool"
        }
      ],
      "stateMutability": "view",
      "type": "function"
    },
    {
      "inputs": [
        {
          "internalType": "uint256",
          "name": "_proposalID",
          "type": "uint256"
        }
      ],
      "name": "hasMinority",
      "outputs": [
        {
          "internalType": "bool",
          "name": "",
          "type": "bool"
        }
      ],
      "stateMutability": "view",
      "type": "function"
    },
    {
      "inputs": [
        {
          "internalType": "uint256",
          "name": "_proposalID",
          "type": "uint256"
        }
      ],
      "name": "hasQuorum",
      "outputs": [
        {
          "internalType": "bool",
          "name": "",
          "type": "bool"
        }
      ],
      "stateMutability": "view",
      "type": "function"
    },
    {
      "inputs": [
        {
          "internalType": "address",
          "name": "_vether",
          "type": "address"
        },
        {
          "internalType": "address",
          "name": "_vader",
          "type": "address"
        },
        {
          "internalType": "address",
          "name": "_usdv",
          "type": "address"
        },
        {
          "internalType": "address",
          "name": "_reserve",
          "type": "address"
        },
        {
          "internalType": "address",
          "name": "_vault",
          "type": "address"
        },
        {
          "internalType": "address",
          "name": "_router",
          "type": "address"
        },
        {
          "internalType": "address",
          "name": "_pools",
          "type": "address"
        },
        {
          "internalType": "address",
          "name": "_factory",
          "type": "address"
        },
        {
          "internalType": "address",
          "name": "_utils",
          "type": "address"
        }
      ],
      "name": "init",
      "outputs": [],
      "stateMutability": "nonpayable",
      "type": "function"
    },
    {
      "inputs": [
        {
          "internalType": "bytes",
          "name": "part1",
          "type": "bytes"
        },
        {
          "internalType": "bytes",
          "name": "part2",
          "type": "bytes"
        }
      ],
      "name": "isEqual",
      "outputs": [
        {
          "internalType": "bool",
          "name": "",
          "type": "bool"
        }
      ],
      "stateMutability": "pure",
      "type": "function"
    },
    {
      "inputs": [
        {
          "internalType": "uint256",
          "name": "",
          "type": "uint256"
        },
        {
          "internalType": "address",
          "name": "",
          "type": "address"
        }
      ],
      "name": "mapPIDMember_votes",
      "outputs": [
        {
          "internalType": "uint256",
          "name": "",
          "type": "uint256"
        }
      ],
      "stateMutability": "view",
      "type": "function"
    },
    {
      "inputs": [
        {
          "internalType": "uint256",
          "name": "",
          "type": "uint256"
        }
      ],
      "name": "mapPID_address",
      "outputs": [
        {
          "internalType": "address",
          "name": "",
          "type": "address"
        }
      ],
      "stateMutability": "view",
      "type": "function"
    },
    {
      "inputs": [
        {
          "internalType": "uint256",
          "name": "",
          "type": "uint256"
        }
      ],
      "name": "mapPID_finalised",
      "outputs": [
        {
          "internalType": "bool",
          "name": "",
          "type": "bool"
        }
      ],
      "stateMutability": "view",
      "type": "function"
    },
    {
      "inputs": [
        {
          "internalType": "uint256",
          "name": "",
          "type": "uint256"
        }
      ],
      "name": "mapPID_finalising",
      "outputs": [
        {
          "internalType": "bool",
          "name": "",
          "type": "bool"
        }
      ],
      "stateMutability": "view",
      "type": "function"
    },
    {
      "inputs": [
        {
          "internalType": "uint256",
          "name": "",
          "type": "uint256"
        }
      ],
      "name": "mapPID_grant",
      "outputs": [
        {
          "internalType": "address",
          "name": "recipient",
          "type": "address"
        },
        {
          "internalType": "uint256",
          "name": "amount",
          "type": "uint256"
        }
      ],
      "stateMutability": "view",
      "type": "function"
    },
    {
      "inputs": [
        {
          "internalType": "uint256",
          "name": "",
          "type": "uint256"
        }
      ],
      "name": "mapPID_timeStart",
      "outputs": [
        {
          "internalType": "uint256",
          "name": "",
          "type": "uint256"
        }
      ],
      "stateMutability": "view",
      "type": "function"
    },
    {
      "inputs": [
        {
          "internalType": "uint256",
          "name": "",
          "type": "uint256"
        }
      ],
      "name": "mapPID_type",
      "outputs": [
        {
          "internalType": "string",
          "name": "",
          "type": "string"
        }
      ],
      "stateMutability": "view",
      "type": "function"
    },
    {
      "inputs": [
        {
          "internalType": "uint256",
          "name": "",
          "type": "uint256"
        }
      ],
      "name": "mapPID_votes",
      "outputs": [
        {
          "internalType": "uint256",
          "name": "",
          "type": "uint256"
        }
      ],
      "stateMutability": "view",
      "type": "function"
    },
    {
      "inputs": [
        {
          "internalType": "address",
          "name": "proposedAddress",
          "type": "address"
        },
        {
          "internalType": "string",
          "name": "typeStr",
          "type": "string"
        }
      ],
      "name": "newAddressProposal",
      "outputs": [],
      "stateMutability": "nonpayable",
      "type": "function"
    },
    {
      "inputs": [
        {
          "internalType": "address",
          "name": "recipient",
          "type": "address"
        },
        {
          "internalType": "uint256",
          "name": "amount",
          "type": "uint256"
        }
      ],
      "name": "newGrantProposal",
      "outputs": [],
      "stateMutability": "nonpayable",
      "type": "function"
    },
    {
      "inputs": [],
      "name": "proposalCount",
      "outputs": [
        {
          "internalType": "uint256",
          "name": "",
          "type": "uint256"
        }
      ],
      "stateMutability": "view",
      "type": "function"
    },
    {
      "inputs": [
        {
          "internalType": "uint256",
          "name": "proposalID",
          "type": "uint256"
        }
      ],
      "name": "voteProposal",
      "outputs": [
        {
          "internalType": "uint256",
          "name": "voteWeight",
          "type": "uint256"
        }
      ],
      "stateMutability": "nonpayable",
      "type": "function"
    }
  ],
  "bytecode": "0x608060405234801561001057600080fd5b50611c20806100206000396000f3fe608060405234801561001057600080fd5b50600436106101cf5760003560e01c8063862ef25911610104578063c42b3f7d116100a2578063dab249b311610071578063dab249b314610471578063e2c3b04614610491578063e38c7dcc146104a4578063ebccb5b2146104c4576101cf565b8063c42b3f7d146103d8578063cb7bdbc014610403578063d0ad170914610455578063da35c66414610468576101cf565b8063abb6154f116100de578063abb6154f14610374578063ae887c8b1461037c578063bbf8cf82146103a5578063c05fc178146103b8576101cf565b8063862ef2591461033b5780639d2cc4361461034e578063a6c83fed14610361576101cf565b80634b193e23116101715780635c120b371161014b5780635c120b37146102e15780635ded8b06146102f45780637b0e5c4514610307578063807896d51461031a576101cf565b80634b193e23146102985780634b400034146102ab5780634c4d46b0146102ce576101cf565b80632dd31000116101ad5780632dd310001461024c57806332fe7b261461025f5780633435980814610272578063411557d114610285576101cf565b806301681315146101d4578063293cee7d146102045780632bee119414610219575b600080fd5b6002546101e7906001600160a01b031681565b6040516001600160a01b0390911681526020015b60405180910390f35b6102176102123660046118d8565b6104d7565b005b61023c6102273660046119cf565b60106020526000908152604090205460ff1681565b60405190151581526020016101fb565b6008546101e7906001600160a01b031681565b6006546101e7906001600160a01b031681565b61023c610280366004611978565b6105aa565b6005546101e7906001600160a01b031681565b6102176102a63660046119cf565b610654565b61023c6102b93660046119cf565b600f6020526000908152604090205460ff1681565b6001546101e7906001600160a01b031681565b61023c6102ef3660046119cf565b6108c0565b610217610302366004611a12565b610967565b6009546101e7906001600160a01b031681565b61032d6103283660046119cf565b610ca7565b6040519081526020016101fb565b610217610349366004611831565b610e76565b6004546101e7906001600160a01b031681565b61021761036f366004611937565b610f18565b61032d600181565b6101e761038a3660046119cf565b600b602052600090815260409020546001600160a01b031681565b61023c6103b33660046119cf565b611001565b6103cb6103c63660046119cf565b61105a565b6040516101fb9190611a7b565b61032d6103e63660046119e7565b601160209081526000928352604080842090915290825290205481565b6104366104113660046119cf565b600a60205260009081526040902080546001909101546001600160a01b039091169082565b604080516001600160a01b0390931683526020830191909152016101fb565b61023c6104633660046119cf565b6110f4565b61032d60005481565b61032d61047f3660046119cf565b600d6020526000908152604090205481565b6003546101e7906001600160a01b031681565b61032d6104b23660046119cf565b600e6020526000908152604090205481565b6007546101e7906001600160a01b031681565b6001600160a01b0382166105065760405162461bcd60e51b81526004016104fd90611a8e565b60405180910390fd5b60016000808282546105189190611b04565b9091555050600080548152600b6020908152604080832080546001600160a01b0319166001600160a01b03871617905582548352600c82529091208251610561928401906116e5565b50600054336001600160a01b03167f8d500fcad86fc64a281b94ef64d6d66acbfc6862aa4ff2ee5fbbfb40736e803e8360405161059e9190611a7b565b60405180910390a35050565b60006002826040516105bc9190611a5f565b602060405180830381855afa1580156105d9573d6000803e3d6000fd5b5050506040513d601f19601f820116820180604052508101906105fc9190611960565b60028460405161060c9190611a5f565b602060405180830381855afa158015610629573d6000803e3d6000fd5b5050506040513d601f19601f8201168201806040525081019061064c9190611960565b149392505050565b6000818152600e60205260409020546001906106709042611b3c565b116106b65760405162461bcd60e51b815260206004820152601660248201527526bab9ba1031329030b33a32b91031b7b7b61037b33360511b60448201526064016104fd565b6000818152600f602052604090205460ff166107095760405162461bcd60e51b81526020600482015260126024820152714d7573742062652066696e616c6973696e6760701b60448201526064016104fd565b60008181526010602052604090205460ff16156107685760405162461bcd60e51b815260206004820152601860248201527f4d757374206e6f7420626520616c726561647920646f6e65000000000000000060448201526064016104fd565b61077181611001565b61077e5761077e8161114d565b6000818152600c60205260408120805461079790611b83565b80601f01602080910402602001604051908101604052809291908181526020018280546107c390611b83565b80156108105780601f106107e557610100808354040283529160200191610810565b820191906000526020600020905b8154815290600101906020018083116107f357829003601f168201915b5050505050905061083e816040518060400160405280600581526020016411d490539560da1b8152506105aa565b156108515761084c82611252565b6108bc565b61087881604051806040016040528060058152602001645554494c5360d81b8152506105aa565b156108865761084c826112fa565b6108ae8160405180604001604052806006815260200165149155d0549160d21b8152506105aa565b156108bc576108bc82611341565b5050565b6000818152600d602090815260408083205460055482516396c82e5760e01b81529251919385936002936001600160a01b03909316926396c82e5792600480840193919291829003018186803b15801561091957600080fd5b505afa15801561092d573d6000803e3d6000fd5b505050506040513d601f19601f820116820180604052508101906109519190611960565b61095b9190611b1c565b9091119150505b919050565b6000828152600f602052604090205460ff166109ba5760405162461bcd60e51b81526020600482015260126024820152714d7573742062652066696e616c6973696e6760701b60448201526064016104fd565b6109c3816110f4565b610a045760405162461bcd60e51b81526020600482015260126024820152714d7573742068617665206d696e6f7269747960701b60448201526064016104fd565b6000828152600c602052604090208054610b3e9190610a2290611b83565b80601f0160208091040260200160405190810160405280929190818152602001828054610a4e90611b83565b8015610a9b5780601f10610a7057610100808354040283529160200191610a9b565b820191906000526020600020905b815481529060010190602001808311610a7e57829003601f168201915b5050506000858152600c602052604090208054909250610abb9150611b83565b80601f0160208091040260200160405190810160405280929190818152602001828054610ae790611b83565b8015610b345780601f10610b0957610100808354040283529160200191610b34565b820191906000526020600020905b815481529060010190602001808311610b1757829003601f168201915b50505050506105aa565b610b795760405162461bcd60e51b815260206004820152600c60248201526b4d7573742062652073616d6560a01b60448201526064016104fd565b80821415610bbd5760405162461bcd60e51b8152602060048201526011602482015270135d5cdd08189948191a5999995c995b9d607a1b60448201526064016104fd565b6000828152600d60208181526040808420848155600f8352818520805460ff191690559282529154848452928290205460055483516396c82e5760e01b81529351879533957f0e67c2e72a9ea22e5d163549aebce99ddc3d1fbbc58e7ed196b0e88f458847d9959194936001600160a01b0316926396c82e5792600480840193919291829003018186803b158015610c5457600080fd5b505afa158015610c68573d6000803e3d6000fd5b505050506040513d601f19601f82011682018060405250810190610c8c9190611960565b6040805193845260208401929092529082015260600161059e565b6000818152600c602052604081208054829190610cc390611b83565b80601f0160208091040260200160405190810160405280929190818152602001828054610cef90611b83565b8015610d3c5780601f10610d1157610100808354040283529160200191610d3c565b820191906000526020600020905b815481529060010190602001808311610d1f57829003601f168201915b50505050509050610d4c8361137f565b9150610d5783611001565b8015610d7257506000838152600f602052604090205460ff16155b15610e2157610d9c816040518060400160405280600381526020016244414f60e81b8152506105aa565b80610dc95750610dc981604051806040016040528060058152602001645554494c5360d81b8152506105aa565b80610df75750610df78160405180604001604052806006815260200165149155d0549160d21b8152506105aa565b15610e1857610e05836108c0565b15610e1357610e138361114d565b610e21565b610e218361114d565b6000838152600d602052604090819020549051849133917f4d46d88c7e981a5bf4572a83b5d88bcfefbd5ee6ca8df0588e27c4221a43640791610e68918791908790611adc565b60405180910390a350919050565b6002546001600160a01b0316610f0d57600180546001600160a01b03199081166001600160a01b038c8116919091179092556002805482168b84161790556003805482168a8416179055600480548216898416179055600580548216888416179055600680548216878416179055600780548216868416179055600880548216858416179055600980549091169183169190911790555b505050505050505050565b60006040518060400160405280600581526020016411d490539560da1b81525090506001600080828254610f4c9190611b04565b9091555050600080548152600c602090815260409091208251610f71928401906116e5565b506040805180820182526001600160a01b0385811682526020808301868152600080548152600a909252848220845181546001600160a01b03191694169390931783555160019092019190915554915190919033907f8d500fcad86fc64a281b94ef64d6d66acbfc6862aa4ff2ee5fbbfb40736e803e90610ff3908690611a7b565b60405180910390a350505050565b6000818152600d602090815260408083205460055482516396c82e5760e01b81529251919385936003936001600160a01b03909316926396c82e5792600480840193919291829003018186803b15801561091957600080fd5b600c602052600090815260409020805461107390611b83565b80601f016020809104026020016040519081016040528092919081815260200182805461109f90611b83565b80156110ec5780601f106110c1576101008083540402835291602001916110ec565b820191906000526020600020905b8154815290600101906020018083116110cf57829003601f168201915b505050505081565b6000818152600d602090815260408083205460055482516396c82e5760e01b81529251919385936006936001600160a01b03909316926396c82e5792600480840193919291829003018186803b15801561091957600080fd5b6000818152600c60205260408120805461116690611b83565b80601f016020809104026020016040519081016040528092919081815260200182805461119290611b83565b80156111df5780601f106111b4576101008083540402835291602001916111df565b820191906000526020600020905b8154815290600101906020018083116111c257829003601f168201915b5050506000858152600f60209081526040808320805460ff19166001908117909155600e909252909120429081905593945085933393507f0f36aea5066f9f90a999260fe4ce8d7713f7f07f5ae61bf36d73cc51170a3a9e92506112439190611b04565b8460405161059e929190611abb565b6000818152600a6020908152604091829020825180840190935280546001600160a01b03168352600101549082015261128a8261147c565b60048054825160208401516040516331b8490760e11b81526001600160a01b039283169481019490945260248401521690636370920e90604401600060405180830381600087803b1580156112de57600080fd5b505af11580156112f2573d6000803e3d6000fd5b505050505050565b6000818152600b60205260409020546001600160a01b03168061132f5760405162461bcd60e51b81526004016104fd90611a8e565b61133881611619565b6108bc8261147c565b6000818152600b60205260409020546001600160a01b0316806113765760405162461bcd60e51b81526004016104fd90611a8e565b6113388161167f565b6000818152601160209081526040808320338452825280832054848452600d9092528220805483906113b2908490611b3c565b9091555050600554604051635364df4960e01b81523360048201526001600160a01b0390911690635364df499060240160206040518083038186803b1580156113fa57600080fd5b505afa15801561140e573d6000803e3d6000fd5b505050506040513d601f19601f820116820180604052508101906114329190611960565b905080600d600084815260200190815260200160002060008282546114579190611b04565b9091555050600091825260116020908152604080842033855290915290912081905590565b6000818152600c60205260408120805461149590611b83565b80601f01602080910402602001604051908101604052809291908181526020018280546114c190611b83565b801561150e5780601f106114e35761010080835404028352916020019161150e565b820191906000526020600020905b8154815290600101906020018083116114f157829003601f168201915b5050506000858152600d60209081526040918290205460055483516396c82e5760e01b8152935196975088963396507f28fca9bc3d4a734a707bd9396d50341c1f45e1d455c4aa4a58ceee0e09f64544955091936001600160a01b03909116926396c82e5792600480840193829003018186803b15801561158e57600080fd5b505afa1580156115a2573d6000803e3d6000fd5b505050506040513d601f19601f820116820180604052508101906115c69190611960565b856040516115d693929190611adc565b60405180910390a3506000908152600d6020908152604080832083905560108252808320805460ff19908116600117909155600f90925290912080549091169055565b6001600160a01b03811661165d5760405162461bcd60e51b815260206004820152600b60248201526a30b2323932b9b99032b93960a91b60448201526064016104fd565b600980546001600160a01b0319166001600160a01b0392909216919091179055565b6001600160a01b0381166116c35760405162461bcd60e51b815260206004820152600b60248201526a30b2323932b9b99032b93960a91b60448201526064016104fd565b600480546001600160a01b0319166001600160a01b0392909216919091179055565b8280546116f190611b83565b90600052602060002090601f0160209004810192826117135760008555611759565b82601f1061172c57805160ff1916838001178555611759565b82800160010185558215611759579182015b8281111561175957825182559160200191906001019061173e565b50611765929150611769565b5090565b5b80821115611765576000815560010161176a565b600067ffffffffffffffff8084111561179957611799611bd4565b604051601f8501601f19908116603f011681019082821181831017156117c1576117c1611bd4565b816040528093508581528686860111156117da57600080fd5b858560208301376000602087830101525050509392505050565b80356001600160a01b038116811461096257600080fd5b600082601f83011261181b578081fd5b61182a8383356020850161177e565b9392505050565b60008060008060008060008060006101208a8c03121561184f578485fd5b6118588a6117f4565b985061186660208b016117f4565b975061187460408b016117f4565b965061188260608b016117f4565b955061189060808b016117f4565b945061189e60a08b016117f4565b93506118ac60c08b016117f4565b92506118ba60e08b016117f4565b91506118c96101008b016117f4565b90509295985092959850929598565b600080604083850312156118ea578182fd5b6118f3836117f4565b9150602083013567ffffffffffffffff81111561190e578182fd5b8301601f8101851361191e578182fd5b61192d8582356020840161177e565b9150509250929050565b60008060408385031215611949578182fd5b611952836117f4565b946020939093013593505050565b600060208284031215611971578081fd5b5051919050565b6000806040838503121561198a578182fd5b823567ffffffffffffffff808211156119a1578384fd5b6119ad8683870161180b565b935060208501359150808211156119c2578283fd5b5061192d8582860161180b565b6000602082840312156119e0578081fd5b5035919050565b600080604083850312156119f9578182fd5b82359150611a09602084016117f4565b90509250929050565b60008060408385031215611a24578182fd5b50508035926020909101359150565b60008151808452611a4b816020860160208601611b53565b601f01601f19169290920160200192915050565b60008251611a71818460208701611b53565b9190910192915050565b60006020825261182a6020830184611a33565b602080825260139082015272139bc81859191c995cdcc81c1c9bdc1bdcd959606a1b604082015260600190565b600083825260406020830152611ad46040830184611a33565b949350505050565b600084825283602083015260606040830152611afb6060830184611a33565b95945050505050565b60008219821115611b1757611b17611bbe565b500190565b600082611b3757634e487b7160e01b81526012600452602481fd5b500490565b600082821015611b4e57611b4e611bbe565b500390565b60005b83811015611b6e578181015183820152602001611b56565b83811115611b7d576000848401525b50505050565b600181811c90821680611b9757607f821691505b60208210811415611bb857634e487b7160e01b600052602260045260246000fd5b50919050565b634e487b7160e01b600052601160045260246000fd5b634e487b7160e01b600052604160045260246000fdfea2646970667358221220aeffc93ec0634c0bc34a183250ca8a72c6a298b87d653bf69c41332247edba3b64736f6c63430008030033",
  "linkReferences": {},
  "deployedLinkReferences": {}
}