{
  "_format": "hh-sol-artifact-1",
  "contractName": "DAO",
  "sourceName": "contracts/DAO.sol",
  "abi": [
    {
      "inputs": [],
      "stateMutability": "nonpayable",
      "type": "constructor"
    },
    {
      "anonymous": false,
      "inputs": [
        {
          "indexed": true,
          "internalType": "address",
          "name": "member",
          "type": "address"
        },
        {
          "indexed": true,
          "internalType": "uint256",
          "name": "oldProposalID",
          "type": "uint256"
        },
        {
          "indexed": false,
          "internalType": "uint256",
          "name": "oldVotes",
          "type": "uint256"
        },
        {
          "indexed": false,
          "internalType": "uint256",
          "name": "newVotes",
          "type": "uint256"
        },
        {
          "indexed": false,
          "internalType": "uint256",
          "name": "totalWeight",
          "type": "uint256"
        }
      ],
      "name": "CancelProposal",
      "type": "event"
    },
    {
      "anonymous": false,
      "inputs": [
        {
          "indexed": true,
          "internalType": "address",
          "name": "member",
          "type": "address"
        },
        {
          "indexed": true,
          "internalType": "uint256",
          "name": "proposalID",
          "type": "uint256"
        },
        {
          "indexed": false,
          "internalType": "uint256",
          "name": "votesCast",
          "type": "uint256"
        },
        {
          "indexed": false,
          "internalType": "uint256",
          "name": "totalWeight",
          "type": "uint256"
        },
        {
          "indexed": false,
          "internalType": "string",
          "name": "proposalType",
          "type": "string"
        }
      ],
      "name": "FinalisedProposal",
      "type": "event"
    },
    {
      "anonymous": false,
      "inputs": [
        {
          "indexed": true,
          "internalType": "address",
          "name": "member",
          "type": "address"
        },
        {
          "indexed": true,
          "internalType": "uint256",
          "name": "proposalID",
          "type": "uint256"
        },
        {
          "indexed": false,
          "internalType": "string",
          "name": "proposalType",
          "type": "string"
        }
      ],
      "name": "NewProposal",
      "type": "event"
    },
    {
      "anonymous": false,
      "inputs": [
        {
          "indexed": true,
          "internalType": "address",
          "name": "member",
          "type": "address"
        },
        {
          "indexed": true,
          "internalType": "uint256",
          "name": "proposalID",
          "type": "uint256"
        },
        {
          "indexed": false,
          "internalType": "uint256",
          "name": "voteWeight",
          "type": "uint256"
        },
        {
          "indexed": false,
          "internalType": "uint256",
          "name": "totalVotes",
          "type": "uint256"
        },
        {
          "indexed": false,
          "internalType": "string",
          "name": "proposalType",
          "type": "string"
        }
      ],
      "name": "NewVote",
      "type": "event"
    },
    {
      "anonymous": false,
      "inputs": [
        {
          "indexed": true,
          "internalType": "address",
          "name": "member",
          "type": "address"
        },
        {
          "indexed": true,
          "internalType": "uint256",
          "name": "proposalID",
          "type": "uint256"
        },
        {
          "indexed": false,
          "internalType": "uint256",
          "name": "timeFinalised",
          "type": "uint256"
        },
        {
          "indexed": false,
          "internalType": "string",
          "name": "proposalType",
          "type": "string"
        }
      ],
      "name": "ProposalFinalising",
      "type": "event"
    },
    {
      "inputs": [],
      "name": "USDV",
      "outputs": [
        {
          "internalType": "address",
          "name": "",
          "type": "address"
        }
      ],
      "stateMutability": "view",
      "type": "function"
    },
    {
      "inputs": [],
      "name": "VADER",
      "outputs": [
        {
          "internalType": "address",
          "name": "",
          "type": "address"
        }
      ],
      "stateMutability": "view",
      "type": "function"
    },
    {
      "inputs": [
        {
          "internalType": "uint256",
          "name": "oldProposalID",
          "type": "uint256"
        },
        {
          "internalType": "uint256",
          "name": "newProposalID",
          "type": "uint256"
        }
      ],
      "name": "cancelProposal",
      "outputs": [],
      "stateMutability": "nonpayable",
      "type": "function"
    },
    {
      "inputs": [],
      "name": "coolOffPeriod",
      "outputs": [
        {
          "internalType": "uint256",
          "name": "",
          "type": "uint256"
        }
      ],
      "stateMutability": "view",
      "type": "function"
    },
    {
      "inputs": [
        {
          "internalType": "uint256",
          "name": "proposalID",
          "type": "uint256"
        }
      ],
      "name": "finaliseProposal",
      "outputs": [],
      "stateMutability": "nonpayable",
      "type": "function"
    },
    {
      "inputs": [
        {
          "internalType": "uint256",
          "name": "_proposalID",
          "type": "uint256"
        }
      ],
      "name": "hasMajority",
      "outputs": [
        {
          "internalType": "bool",
          "name": "",
          "type": "bool"
        }
      ],
      "stateMutability": "view",
      "type": "function"
    },
    {
      "inputs": [
        {
          "internalType": "uint256",
          "name": "_proposalID",
          "type": "uint256"
        }
      ],
      "name": "hasMinority",
      "outputs": [
        {
          "internalType": "bool",
          "name": "",
          "type": "bool"
        }
      ],
      "stateMutability": "view",
      "type": "function"
    },
    {
      "inputs": [
        {
          "internalType": "uint256",
          "name": "_proposalID",
          "type": "uint256"
        }
      ],
      "name": "hasQuorum",
      "outputs": [
        {
          "internalType": "bool",
          "name": "",
          "type": "bool"
        }
      ],
      "stateMutability": "view",
      "type": "function"
    },
    {
      "inputs": [
        {
          "internalType": "address",
          "name": "_vader",
          "type": "address"
        },
        {
          "internalType": "address",
          "name": "_usdv",
          "type": "address"
        }
      ],
      "name": "init",
      "outputs": [],
      "stateMutability": "nonpayable",
      "type": "function"
    },
    {
      "inputs": [
        {
          "internalType": "bytes",
          "name": "part1",
          "type": "bytes"
        },
        {
          "internalType": "bytes",
          "name": "part2",
          "type": "bytes"
        }
      ],
      "name": "isEqual",
      "outputs": [
        {
          "internalType": "bool",
          "name": "",
          "type": "bool"
        }
      ],
      "stateMutability": "pure",
      "type": "function"
    },
    {
      "inputs": [
        {
          "internalType": "uint256",
          "name": "",
          "type": "uint256"
        },
        {
          "internalType": "address",
          "name": "",
          "type": "address"
        }
      ],
      "name": "mapPIDMember_votes",
      "outputs": [
        {
          "internalType": "uint256",
          "name": "",
          "type": "uint256"
        }
      ],
      "stateMutability": "view",
      "type": "function"
    },
    {
      "inputs": [
        {
          "internalType": "uint256",
          "name": "",
          "type": "uint256"
        }
      ],
      "name": "mapPID_address",
      "outputs": [
        {
          "internalType": "address",
          "name": "",
          "type": "address"
        }
      ],
      "stateMutability": "view",
      "type": "function"
    },
    {
      "inputs": [
        {
          "internalType": "uint256",
          "name": "",
          "type": "uint256"
        }
      ],
      "name": "mapPID_finalised",
      "outputs": [
        {
          "internalType": "bool",
          "name": "",
          "type": "bool"
        }
      ],
      "stateMutability": "view",
      "type": "function"
    },
    {
      "inputs": [
        {
          "internalType": "uint256",
          "name": "",
          "type": "uint256"
        }
      ],
      "name": "mapPID_finalising",
      "outputs": [
        {
          "internalType": "bool",
          "name": "",
          "type": "bool"
        }
      ],
      "stateMutability": "view",
      "type": "function"
    },
    {
      "inputs": [
        {
          "internalType": "uint256",
          "name": "",
          "type": "uint256"
        }
      ],
      "name": "mapPID_grant",
      "outputs": [
        {
          "internalType": "address",
          "name": "recipient",
          "type": "address"
        },
        {
          "internalType": "uint256",
          "name": "amount",
          "type": "uint256"
        }
      ],
      "stateMutability": "view",
      "type": "function"
    },
    {
      "inputs": [
        {
          "internalType": "uint256",
          "name": "",
          "type": "uint256"
        }
      ],
      "name": "mapPID_timeStart",
      "outputs": [
        {
          "internalType": "uint256",
          "name": "",
          "type": "uint256"
        }
      ],
      "stateMutability": "view",
      "type": "function"
    },
    {
      "inputs": [
        {
          "internalType": "uint256",
          "name": "",
          "type": "uint256"
        }
      ],
      "name": "mapPID_type",
      "outputs": [
        {
          "internalType": "string",
          "name": "",
          "type": "string"
        }
      ],
      "stateMutability": "view",
      "type": "function"
    },
    {
      "inputs": [
        {
          "internalType": "uint256",
          "name": "",
          "type": "uint256"
        }
      ],
      "name": "mapPID_votes",
      "outputs": [
        {
          "internalType": "uint256",
          "name": "",
          "type": "uint256"
        }
      ],
      "stateMutability": "view",
      "type": "function"
    },
    {
      "inputs": [
        {
          "internalType": "address",
          "name": "proposedAddress",
          "type": "address"
        },
        {
          "internalType": "string",
          "name": "typeStr",
          "type": "string"
        }
      ],
      "name": "newAddressProposal",
      "outputs": [
        {
          "internalType": "uint256",
          "name": "",
          "type": "uint256"
        }
      ],
      "stateMutability": "nonpayable",
      "type": "function"
    },
    {
      "inputs": [
        {
          "internalType": "address",
          "name": "recipient",
          "type": "address"
        },
        {
          "internalType": "uint256",
          "name": "amount",
          "type": "uint256"
        }
      ],
      "name": "newGrantProposal",
      "outputs": [
        {
          "internalType": "uint256",
          "name": "",
          "type": "uint256"
        }
      ],
      "stateMutability": "nonpayable",
      "type": "function"
    },
    {
      "inputs": [],
      "name": "proposalCount",
      "outputs": [
        {
          "internalType": "uint256",
          "name": "",
          "type": "uint256"
        }
      ],
      "stateMutability": "view",
      "type": "function"
    },
    {
      "inputs": [
        {
          "internalType": "uint256",
          "name": "proposalID",
          "type": "uint256"
        }
      ],
      "name": "voteProposal",
      "outputs": [
        {
          "internalType": "uint256",
          "name": "voteWeight",
          "type": "uint256"
        }
      ],
      "stateMutability": "nonpayable",
      "type": "function"
    }
  ],
  "bytecode": "0x608060405234801561001057600080fd5b50611a3c806100206000396000f3fe608060405234801561001057600080fd5b50600436106101425760003560e01c8063ae887c8b116100b8578063d0ad17091161007c578063d0ad170914610344578063da35c66414610357578063dab249b314610360578063e2c3b04614610380578063e38c7dcc14610393578063f09a4016146103b357610142565b8063ae887c8b1461026b578063bbf8cf8214610294578063c05fc178146102a7578063c42b3f7d146102c7578063cb7bdbc0146102f257610142565b80634b4000341161010a5780634b400034146101f35780635c120b37146102165780635ded8b0614610229578063807896d51461023c578063a6c83fed1461024f578063abb6154f1461026257610142565b80630168131514610147578063293cee7d146101775780632bee11941461019857806334359808146101cb5780634b193e23146101de575b600080fd5b60025461015a906001600160a01b031681565b6040516001600160a01b0390911681526020015b60405180910390f35b61018a61018536600461172a565b6103c6565b60405190815260200161016e565b6101bb6101a6366004611821565b600b6020526000908152604090205460ff1681565b604051901515815260200161016e565b6101bb6101d93660046117ca565b610476565b6101f16101ec366004611821565b61052e565b005b6101bb610201366004611821565b600a6020526000908152604090205460ff1681565b6101bb610224366004611821565b610745565b6101f161023736600461185b565b610801565b61018a61024a366004611821565b610aef565b61018a61025d366004611789565b610cbe565b61018a60045481565b61015a610279366004611821565b6006602052600090815260409020546001600160a01b031681565b6101bb6102a2366004611821565b610db2565b6102ba6102b5366004611821565b610e09565b60405161016e91906118c4565b61018a6102d5366004611839565b600c60209081526000928352604080842090915290825290205481565b610325610300366004611821565b600560205260009081526040902080546001909101546001600160a01b039091169082565b604080516001600160a01b03909316835260208301919091520161016e565b6101bb610352366004611821565b610ea3565b61018a60015481565b61018a61036e366004611821565b60086020526000908152604090205481565b60035461015a906001600160a01b031681565b61018a6103a1366004611821565b60096020526000908152604090205481565b6101f16103c13660046116f8565b610efc565b600060018060008282546103da9190611920565b909155505060018054600090815260066020908152604080832080546001600160a01b0319166001600160a01b03891617905592548252600781529190208351610426928501906115ac565b50600154336001600160a01b03167f8d500fcad86fc64a281b94ef64d6d66acbfc6862aa4ff2ee5fbbfb40736e803e8460405161046391906118c4565b60405180910390a3506001545b92915050565b600060028260405161048891906118a8565b602060405180830381855afa1580156104a5573d6000803e3d6000fd5b5050506040513d601f19601f820116820180604052508101906104c891906117b2565b6002846040516104d891906118a8565b602060405180830381855afa1580156104f5573d6000803e3d6000fd5b5050506040513d601f19601f8201168201806040525081019061051891906117b2565b141561052657506001610470565b506000610470565b60045460008281526009602052604090205461054a9042611958565b116105955760405162461bcd60e51b815260206004820152601660248201527526bab9ba1031329030b33a32b91031b7b7b61037b33360511b60448201526064015b60405180910390fd5b6000818152600a602052604090205460ff1615156001146105ed5760405162461bcd60e51b81526020600482015260126024820152714d7573742062652066696e616c6973696e6760701b604482015260640161058c565b6105f681610db2565b6106035761060381610f51565b6000818152600760205260408120805461061c9061199f565b80601f01602080910402602001604051908101604052809291908181526020018280546106489061199f565b80156106955780601f1061066a57610100808354040283529160200191610695565b820191906000526020600020905b81548152906001019060200180831161067857829003601f168201915b505050505090506106c3816040518060400160405280600581526020016411d490539560da1b815250610476565b156106d6576106d182611054565b610741565b6106fd81604051806040016040528060058152602001645554494c5360d81b815250610476565b1561070b576106d1826111c1565b6107338160405180604001604052806006815260200165149155d0549160d21b815250610476565b156107415761074182611285565b5050565b60008181526008602090815260408083205460035482516396c82e5760e01b81529251919385936002936001600160a01b03909316926396c82e5792600480840193919291829003018186803b15801561079e57600080fd5b505afa1580156107b2573d6000803e3d6000fd5b505050506040513d601f19601f820116820180604052508101906107d691906117b2565b6107e09190611938565b9050808211156107f5576001925050506107fc565b6000925050505b919050565b6000828152600a602052604090205460ff166108545760405162461bcd60e51b81526020600482015260126024820152714d7573742062652066696e616c6973696e6760701b604482015260640161058c565b61085d81610ea3565b61089e5760405162461bcd60e51b81526020600482015260126024820152714d7573742068617665206d696e6f7269747960701b604482015260640161058c565b600082815260076020526040902080546109d891906108bc9061199f565b80601f01602080910402602001604051908101604052809291908181526020018280546108e89061199f565b80156109355780601f1061090a57610100808354040283529160200191610935565b820191906000526020600020905b81548152906001019060200180831161091857829003601f168201915b50505060008581526007602052604090208054909250610955915061199f565b80601f01602080910402602001604051908101604052809291908181526020018280546109819061199f565b80156109ce5780601f106109a3576101008083540402835291602001916109ce565b820191906000526020600020905b8154815290600101906020018083116109b157829003601f168201915b5050505050610476565b610a135760405162461bcd60e51b815260206004820152600c60248201526b4d7573742062652073616d6560a01b604482015260640161058c565b60008281526008602090815260408083208390558383528083205460035482516396c82e5760e01b81529251879533957f0e67c2e72a9ea22e5d163549aebce99ddc3d1fbbc58e7ed196b0e88f458847d9959194936001600160a01b0316926396c82e57926004808201939291829003018186803b158015610a9457600080fd5b505afa158015610aa8573d6000803e3d6000fd5b505050506040513d601f19601f82011682018060405250810190610acc91906117b2565b604080519384526020840192909252908201526060015b60405180910390a35050565b60008181526007602052604081208054829190610b0b9061199f565b80601f0160208091040260200160405190810160405280929190818152602001828054610b379061199f565b8015610b845780601f10610b5957610100808354040283529160200191610b84565b820191906000526020600020905b815481529060010190602001808311610b6757829003601f168201915b50505050509050610b9483611312565b9150610b9f83610db2565b8015610bba57506000838152600a602052604090205460ff16155b15610c6957610be4816040518060400160405280600381526020016244414f60e81b815250610476565b80610c115750610c1181604051806040016040528060058152602001645554494c5360d81b815250610476565b80610c3f5750610c3f8160405180604001604052806006815260200165149155d0549160d21b815250610476565b15610c6057610c4d83610745565b15610c5b57610c5b83610f51565b610c69565b610c6983610f51565b60008381526008602052604090819020549051849133917f4d46d88c7e981a5bf4572a83b5d88bcfefbd5ee6ca8df0588e27c4221a43640791610cb09187919087906118f8565b60405180910390a350919050565b6000806040518060400160405280600581526020016411d490539560da1b81525090506001806000828254610cf39190611920565b909155505060015460009081526007602090815260409091208251610d1a928401906115ac565b506040805180820182526001600160a01b0386811682526020808301878152600180546000908152600590935291859020845181546001600160a01b0319169416939093178355519181019190915554915190919033907f8d500fcad86fc64a281b94ef64d6d66acbfc6862aa4ff2ee5fbbfb40736e803e90610d9e9086906118c4565b60405180910390a350506001549392505050565b6000818152600860209081526040808320546003805483516396c82e5760e01b815293519294869492936001600160a01b03909216926396c82e579260048083019392829003018186803b15801561079e57600080fd5b60076020526000908152604090208054610e229061199f565b80601f0160208091040260200160405190810160405280929190818152602001828054610e4e9061199f565b8015610e9b5780601f10610e7057610100808354040283529160200191610e9b565b820191906000526020600020905b815481529060010190602001808311610e7e57829003601f168201915b505050505081565b60008181526008602090815260408083205460035482516396c82e5760e01b81529251919385936006936001600160a01b03909316926396c82e5792600480840193919291829003018186803b15801561079e57600080fd5b60005460ff1615610f0c57600080fd5b6000805460ff19166001908117909155600280546001600160a01b039485166001600160a01b0319918216179091556003805493909416921691909117909155600455565b60008181526007602052604081208054610f6a9061199f565b80601f0160208091040260200160405190810160405280929190818152602001828054610f969061199f565b8015610fe35780601f10610fb857610100808354040283529160200191610fe3565b820191906000526020600020905b815481529060010190602001808311610fc657829003601f168201915b5050506000858152600a60209081526040808320805460ff1916600117905560099091529020429081905560045493945085933393507f0f36aea5066f9f90a999260fe4ce8d7713f7f07f5ae61bf36d73cc51170a3a9e925061104591611920565b84604051610ae39291906118d7565b6000818152600560209081526040918290208251808401845281546001600160a01b0390811682526001909201549281019290925260035492516370a0823160e01b815292166004830181905290916370a082319060240160206040518083038186803b1580156110c457600080fd5b505afa1580156110d8573d6000803e3d6000fd5b505050506040513d601f19601f820116820180604052508101906110fc91906117b2565b816020015111156111475760405162461bcd60e51b81526020600482015260156024820152744e6f74206d6f7265207468616e2062616c616e636560581b604482015260640161058c565b6111508261140f565b600354815160208301516040516331b8490760e11b81526001600160a01b0392831660048201526024810191909152911690636370920e90604401600060405180830381600087803b1580156111a557600080fd5b505af11580156111b9573d6000803e3d6000fd5b505050505050565b6000818152600660205260409020546001600160a01b03168061121c5760405162461bcd60e51b8152602060048201526013602482015272139bc81859191c995cdcc81c1c9bdc1bdcd959606a1b604482015260640161058c565b600254604051630648d0cd60e21b81526001600160a01b038381166004830152909116906319234334906024015b600060405180830381600087803b15801561126457600080fd5b505af1158015611278573d6000803e3d6000fd5b505050506107418261140f565b6000818152600660205260409020546001600160a01b0316806112e05760405162461bcd60e51b8152602060048201526013602482015272139bc81859191c995cdcc81c1c9bdc1bdcd959606a1b604482015260640161058c565b600254604051635e00e67960e01b81526001600160a01b03838116600483015290911690635e00e6799060240161124a565b6000818152600c602090815260408083203384528252808320548484526008909252822080548390611345908490611958565b9091555050600354604051635364df4960e01b81523360048201526001600160a01b0390911690635364df499060240160206040518083038186803b15801561138d57600080fd5b505afa1580156113a1573d6000803e3d6000fd5b505050506040513d601f19601f820116820180604052508101906113c591906117b2565b9050806008600084815260200190815260200160002060008282546113ea9190611920565b90915550506000918252600c6020908152604080842033855290915290912081905590565b600081815260076020526040812080546114289061199f565b80601f01602080910402602001604051908101604052809291908181526020018280546114549061199f565b80156114a15780601f10611476576101008083540402835291602001916114a1565b820191906000526020600020905b81548152906001019060200180831161148457829003601f168201915b5050506000858152600860209081526040918290205460035483516396c82e5760e01b8152935196975088963396507f28fca9bc3d4a734a707bd9396d50341c1f45e1d455c4aa4a58ceee0e09f64544955091936001600160a01b03909116926396c82e5792600480840193829003018186803b15801561152157600080fd5b505afa158015611535573d6000803e3d6000fd5b505050506040513d601f19601f8201168201806040525081019061155991906117b2565b85604051611569939291906118f8565b60405180910390a3506000908152600860209081526040808320839055600b8252808320805460ff19908116600117909155600a90925290912080549091169055565b8280546115b89061199f565b90600052602060002090601f0160209004810192826115da5760008555611620565b82601f106115f357805160ff1916838001178555611620565b82800160010185558215611620579182015b82811115611620578251825591602001919060010190611605565b5061162c929150611630565b5090565b5b8082111561162c5760008155600101611631565b600067ffffffffffffffff80841115611660576116606119f0565b604051601f8501601f19908116603f01168101908282118183101715611688576116886119f0565b816040528093508581528686860111156116a157600080fd5b858560208301376000602087830101525050509392505050565b80356001600160a01b03811681146107fc57600080fd5b600082601f8301126116e2578081fd5b6116f183833560208501611645565b9392505050565b6000806040838503121561170a578182fd5b611713836116bb565b9150611721602084016116bb565b90509250929050565b6000806040838503121561173c578182fd5b611745836116bb565b9150602083013567ffffffffffffffff811115611760578182fd5b8301601f81018513611770578182fd5b61177f85823560208401611645565b9150509250929050565b6000806040838503121561179b578182fd5b6117a4836116bb565b946020939093013593505050565b6000602082840312156117c3578081fd5b5051919050565b600080604083850312156117dc578182fd5b823567ffffffffffffffff808211156117f3578384fd5b6117ff868387016116d2565b93506020850135915080821115611814578283fd5b5061177f858286016116d2565b600060208284031215611832578081fd5b5035919050565b6000806040838503121561184b578182fd5b82359150611721602084016116bb565b6000806040838503121561186d578182fd5b50508035926020909101359150565b6000815180845261189481602086016020860161196f565b601f01601f19169290920160200192915050565b600082516118ba81846020870161196f565b9190910192915050565b6000602082526116f1602083018461187c565b6000838252604060208301526118f0604083018461187c565b949350505050565b600084825283602083015260606040830152611917606083018461187c565b95945050505050565b60008219821115611933576119336119da565b500190565b60008261195357634e487b7160e01b81526012600452602481fd5b500490565b60008282101561196a5761196a6119da565b500390565b60005b8381101561198a578181015183820152602001611972565b83811115611999576000848401525b50505050565b600181811c908216806119b357607f821691505b602082108114156119d457634e487b7160e01b600052602260045260246000fd5b50919050565b634e487b7160e01b600052601160045260246000fd5b634e487b7160e01b600052604160045260246000fdfea264697066735822122085dbb43b87a2d3ee65994f918bfb0ba42a07412ecaec2701ef71ffca81370c8e64736f6c63430008030033",
  "linkReferences": {},
  "deployedLinkReferences": {}
}