{
  "_format": "hh-sol-artifact-1",
  "contractName": "DAO",
  "sourceName": "contracts/DAO.sol",
  "abi": [
    {
      "inputs": [],
      "stateMutability": "nonpayable",
      "type": "constructor"
    },
    {
      "anonymous": false,
      "inputs": [
        {
          "indexed": true,
          "internalType": "address",
          "name": "member",
          "type": "address"
        },
        {
          "indexed": true,
          "internalType": "uint256",
          "name": "oldProposalID",
          "type": "uint256"
        },
        {
          "indexed": false,
          "internalType": "uint256",
          "name": "oldVotes",
          "type": "uint256"
        },
        {
          "indexed": false,
          "internalType": "uint256",
          "name": "newVotes",
          "type": "uint256"
        },
        {
          "indexed": false,
          "internalType": "uint256",
          "name": "totalWeight",
          "type": "uint256"
        }
      ],
      "name": "CancelProposal",
      "type": "event"
    },
    {
      "anonymous": false,
      "inputs": [
        {
          "indexed": true,
          "internalType": "address",
          "name": "member",
          "type": "address"
        },
        {
          "indexed": true,
          "internalType": "uint256",
          "name": "proposalID",
          "type": "uint256"
        },
        {
          "indexed": false,
          "internalType": "uint256",
          "name": "votesCast",
          "type": "uint256"
        },
        {
          "indexed": false,
          "internalType": "uint256",
          "name": "totalWeight",
          "type": "uint256"
        },
        {
          "indexed": false,
          "internalType": "string",
          "name": "proposalType",
          "type": "string"
        }
      ],
      "name": "FinalisedProposal",
      "type": "event"
    },
    {
      "anonymous": false,
      "inputs": [
        {
          "indexed": true,
          "internalType": "address",
          "name": "member",
          "type": "address"
        },
        {
          "indexed": true,
          "internalType": "uint256",
          "name": "proposalID",
          "type": "uint256"
        },
        {
          "indexed": false,
          "internalType": "string",
          "name": "proposalType",
          "type": "string"
        }
      ],
      "name": "NewProposal",
      "type": "event"
    },
    {
      "anonymous": false,
      "inputs": [
        {
          "indexed": true,
          "internalType": "address",
          "name": "member",
          "type": "address"
        },
        {
          "indexed": true,
          "internalType": "uint256",
          "name": "proposalID",
          "type": "uint256"
        },
        {
          "indexed": false,
          "internalType": "uint256",
          "name": "voteWeight",
          "type": "uint256"
        },
        {
          "indexed": false,
          "internalType": "uint256",
          "name": "totalVotes",
          "type": "uint256"
        },
        {
          "indexed": false,
          "internalType": "string",
          "name": "proposalType",
          "type": "string"
        }
      ],
      "name": "NewVote",
      "type": "event"
    },
    {
      "anonymous": false,
      "inputs": [
        {
          "indexed": true,
          "internalType": "address",
          "name": "member",
          "type": "address"
        },
        {
          "indexed": true,
          "internalType": "uint256",
          "name": "proposalID",
          "type": "uint256"
        },
        {
          "indexed": false,
          "internalType": "uint256",
          "name": "timeFinalised",
          "type": "uint256"
        },
        {
          "indexed": false,
          "internalType": "string",
          "name": "proposalType",
          "type": "string"
        }
      ],
      "name": "ProposalFinalising",
      "type": "event"
    },
    {
      "inputs": [],
      "name": "USDV",
      "outputs": [
        {
          "internalType": "address",
          "name": "",
          "type": "address"
        }
      ],
      "stateMutability": "view",
      "type": "function"
    },
    {
      "inputs": [],
      "name": "VADER",
      "outputs": [
        {
          "internalType": "address",
          "name": "",
          "type": "address"
        }
      ],
      "stateMutability": "view",
      "type": "function"
    },
    {
      "inputs": [],
      "name": "VAULT",
      "outputs": [
        {
          "internalType": "address",
          "name": "",
          "type": "address"
        }
      ],
      "stateMutability": "view",
      "type": "function"
    },
    {
      "inputs": [
        {
          "internalType": "uint256",
          "name": "oldProposalID",
          "type": "uint256"
        },
        {
          "internalType": "uint256",
          "name": "newProposalID",
          "type": "uint256"
        }
      ],
      "name": "cancelProposal",
      "outputs": [],
      "stateMutability": "nonpayable",
      "type": "function"
    },
    {
      "inputs": [],
      "name": "coolOffPeriod",
      "outputs": [
        {
          "internalType": "uint256",
          "name": "",
          "type": "uint256"
        }
      ],
      "stateMutability": "view",
      "type": "function"
    },
    {
      "inputs": [
        {
          "internalType": "uint256",
          "name": "proposalID",
          "type": "uint256"
        }
      ],
      "name": "finaliseProposal",
      "outputs": [],
      "stateMutability": "nonpayable",
      "type": "function"
    },
    {
      "inputs": [
        {
          "internalType": "uint256",
          "name": "_proposalID",
          "type": "uint256"
        }
      ],
      "name": "hasMajority",
      "outputs": [
        {
          "internalType": "bool",
          "name": "",
          "type": "bool"
        }
      ],
      "stateMutability": "view",
      "type": "function"
    },
    {
      "inputs": [
        {
          "internalType": "uint256",
          "name": "_proposalID",
          "type": "uint256"
        }
      ],
      "name": "hasMinority",
      "outputs": [
        {
          "internalType": "bool",
          "name": "",
          "type": "bool"
        }
      ],
      "stateMutability": "view",
      "type": "function"
    },
    {
      "inputs": [
        {
          "internalType": "uint256",
          "name": "_proposalID",
          "type": "uint256"
        }
      ],
      "name": "hasQuorum",
      "outputs": [
        {
          "internalType": "bool",
          "name": "",
          "type": "bool"
        }
      ],
      "stateMutability": "view",
      "type": "function"
    },
    {
      "inputs": [
        {
          "internalType": "address",
          "name": "_vader",
          "type": "address"
        },
        {
          "internalType": "address",
          "name": "_usdv",
          "type": "address"
        },
        {
          "internalType": "address",
          "name": "_vault",
          "type": "address"
        }
      ],
      "name": "init",
      "outputs": [],
      "stateMutability": "nonpayable",
      "type": "function"
    },
    {
      "inputs": [
        {
          "internalType": "bytes",
          "name": "part1",
          "type": "bytes"
        },
        {
          "internalType": "bytes",
          "name": "part2",
          "type": "bytes"
        }
      ],
      "name": "isEqual",
      "outputs": [
        {
          "internalType": "bool",
          "name": "",
          "type": "bool"
        }
      ],
      "stateMutability": "pure",
      "type": "function"
    },
    {
      "inputs": [
        {
          "internalType": "uint256",
          "name": "",
          "type": "uint256"
        },
        {
          "internalType": "address",
          "name": "",
          "type": "address"
        }
      ],
      "name": "mapPIDMember_votes",
      "outputs": [
        {
          "internalType": "uint256",
          "name": "",
          "type": "uint256"
        }
      ],
      "stateMutability": "view",
      "type": "function"
    },
    {
      "inputs": [
        {
          "internalType": "uint256",
          "name": "",
          "type": "uint256"
        }
      ],
      "name": "mapPID_address",
      "outputs": [
        {
          "internalType": "address",
          "name": "",
          "type": "address"
        }
      ],
      "stateMutability": "view",
      "type": "function"
    },
    {
      "inputs": [
        {
          "internalType": "uint256",
          "name": "",
          "type": "uint256"
        }
      ],
      "name": "mapPID_finalised",
      "outputs": [
        {
          "internalType": "bool",
          "name": "",
          "type": "bool"
        }
      ],
      "stateMutability": "view",
      "type": "function"
    },
    {
      "inputs": [
        {
          "internalType": "uint256",
          "name": "",
          "type": "uint256"
        }
      ],
      "name": "mapPID_finalising",
      "outputs": [
        {
          "internalType": "bool",
          "name": "",
          "type": "bool"
        }
      ],
      "stateMutability": "view",
      "type": "function"
    },
    {
      "inputs": [
        {
          "internalType": "uint256",
          "name": "",
          "type": "uint256"
        }
      ],
      "name": "mapPID_grant",
      "outputs": [
        {
          "internalType": "address",
          "name": "recipient",
          "type": "address"
        },
        {
          "internalType": "uint256",
          "name": "amount",
          "type": "uint256"
        }
      ],
      "stateMutability": "view",
      "type": "function"
    },
    {
      "inputs": [
        {
          "internalType": "uint256",
          "name": "",
          "type": "uint256"
        }
      ],
      "name": "mapPID_timeStart",
      "outputs": [
        {
          "internalType": "uint256",
          "name": "",
          "type": "uint256"
        }
      ],
      "stateMutability": "view",
      "type": "function"
    },
    {
      "inputs": [
        {
          "internalType": "uint256",
          "name": "",
          "type": "uint256"
        }
      ],
      "name": "mapPID_type",
      "outputs": [
        {
          "internalType": "string",
          "name": "",
          "type": "string"
        }
      ],
      "stateMutability": "view",
      "type": "function"
    },
    {
      "inputs": [
        {
          "internalType": "uint256",
          "name": "",
          "type": "uint256"
        }
      ],
      "name": "mapPID_votes",
      "outputs": [
        {
          "internalType": "uint256",
          "name": "",
          "type": "uint256"
        }
      ],
      "stateMutability": "view",
      "type": "function"
    },
    {
      "inputs": [
        {
          "internalType": "address",
          "name": "proposedAddress",
          "type": "address"
        },
        {
          "internalType": "string",
          "name": "typeStr",
          "type": "string"
        }
      ],
      "name": "newAddressProposal",
      "outputs": [],
      "stateMutability": "nonpayable",
      "type": "function"
    },
    {
      "inputs": [
        {
          "internalType": "address",
          "name": "recipient",
          "type": "address"
        },
        {
          "internalType": "uint256",
          "name": "amount",
          "type": "uint256"
        }
      ],
      "name": "newGrantProposal",
      "outputs": [],
      "stateMutability": "nonpayable",
      "type": "function"
    },
    {
      "inputs": [],
      "name": "proposalCount",
      "outputs": [
        {
          "internalType": "uint256",
          "name": "",
          "type": "uint256"
        }
      ],
      "stateMutability": "view",
      "type": "function"
    },
    {
      "inputs": [
        {
          "internalType": "uint256",
          "name": "proposalID",
          "type": "uint256"
        }
      ],
      "name": "voteProposal",
      "outputs": [
        {
          "internalType": "uint256",
          "name": "voteWeight",
          "type": "uint256"
        }
      ],
      "stateMutability": "nonpayable",
      "type": "function"
    }
  ],
  "bytecode": "0x608060405234801561001057600080fd5b50611a8f806100206000396000f3fe608060405234801561001057600080fd5b506004361061014d5760003560e01c8063a6c83fed116100c3578063cb7bdbc01161007c578063cb7bdbc014610323578063d0ad170914610375578063da35c66414610388578063dab249b314610391578063e2c3b046146103b1578063e38c7dcc146103c45761014d565b8063a6c83fed14610280578063abb6154f14610293578063ae887c8b1461029c578063bbf8cf82146102c5578063c05fc178146102d8578063c42b3f7d146102f85761014d565b8063411557d111610115578063411557d1146101f05780634b193e23146102035780634b400034146102165780635c120b37146102395780635ded8b061461024c578063807896d51461025f5761014d565b80630168131514610152578063184b955914610182578063293cee7d146101975780632bee1194146101aa57806334359808146101dd575b600080fd5b600254610165906001600160a01b031681565b6040516001600160a01b0390911681526020015b60405180910390f35b610195610190366004611732565b6103e4565b005b6101956101a5366004611774565b610447565b6101cd6101b836600461186b565b600c6020526000908152604090205460ff1681565b6040519015158152602001610179565b6101cd6101eb366004611814565b6104ee565b600454610165906001600160a01b031681565b61019561021136600461186b565b6105a8565b6101cd61022436600461186b565b600b6020526000908152604090205460ff1681565b6101cd61024736600461186b565b6107bf565b61019561025a3660046118ae565b61087b565b61027261026d36600461186b565b610b63565b604051908152602001610179565b61019561028e3660046117d3565b610d32565b61027260055481565b6101656102aa36600461186b565b6007602052600090815260409020546001600160a01b031681565b6101cd6102d336600461186b565b610e1b565b6102eb6102e636600461186b565b610e74565b6040516101799190611917565b610272610306366004611883565b600d60209081526000928352604080842090915290825290205481565b61035661033136600461186b565b600660205260009081526040902080546001909101546001600160a01b039091169082565b604080516001600160a01b039093168352602083019190915201610179565b6101cd61038336600461186b565b610f0e565b61027260015481565b61027261039f36600461186b565b60096020526000908152604090205481565b600354610165906001600160a01b031681565b6102726103d236600461186b565b600a6020526000908152604090205481565b60005460ff16156103f457600080fd5b60008054600160ff199091168117909155600280546001600160a01b03199081166001600160a01b0396871617909155600380548216948616949094179093556004805490931691909316179055600555565b60018060008282546104599190611973565b909155505060018054600090815260076020908152604080832080546001600160a01b0319166001600160a01b038816179055925482526008815291902082516104a5928401906115e6565b50600154336001600160a01b03167f8d500fcad86fc64a281b94ef64d6d66acbfc6862aa4ff2ee5fbbfb40736e803e836040516104e29190611917565b60405180910390a35050565b600060028260405161050091906118fb565b602060405180830381855afa15801561051d573d6000803e3d6000fd5b5050506040513d601f19601f8201168201806040525081019061054091906117fc565b60028460405161055091906118fb565b602060405180830381855afa15801561056d573d6000803e3d6000fd5b5050506040513d601f19601f8201168201806040525081019061059091906117fc565b141561059e575060016105a2565b5060005b92915050565b6005546000828152600a60205260409020546105c490426119ab565b1161060f5760405162461bcd60e51b815260206004820152601660248201527526bab9ba1031329030b33a32b91031b7b7b61037b33360511b60448201526064015b60405180910390fd5b6000818152600b602052604090205460ff1615156001146106675760405162461bcd60e51b81526020600482015260126024820152714d7573742062652066696e616c6973696e6760701b6044820152606401610606565b61067081610e1b565b61067d5761067d81610f67565b60008181526008602052604081208054610696906119f2565b80601f01602080910402602001604051908101604052809291908181526020018280546106c2906119f2565b801561070f5780601f106106e45761010080835404028352916020019161070f565b820191906000526020600020905b8154815290600101906020018083116106f257829003601f168201915b5050505050905061073d816040518060400160405280600581526020016411d490539560da1b8152506104ee565b156107505761074b8261106a565b6107bb565b61077781604051806040016040528060058152602001645554494c5360d81b8152506104ee565b156107855761074b826111e5565b6107ad8160405180604001604052806006815260200165149155d0549160d21b8152506104ee565b156107bb576107bb826112a9565b5050565b6000818152600960209081526040808320546004805483516396c82e5760e01b81529351929486946002946001600160a01b03909316936396c82e57938282019392909190829003018186803b15801561081857600080fd5b505afa15801561082c573d6000803e3d6000fd5b505050506040513d601f19601f8201168201806040525081019061085091906117fc565b61085a919061198b565b90508082111561086f57600192505050610876565b6000925050505b919050565b6000828152600b602052604090205460ff166108ce5760405162461bcd60e51b81526020600482015260126024820152714d7573742062652066696e616c6973696e6760701b6044820152606401610606565b6108d781610f0e565b6109185760405162461bcd60e51b81526020600482015260126024820152714d7573742068617665206d696e6f7269747960701b6044820152606401610606565b60008281526008602052604090208054610a529190610936906119f2565b80601f0160208091040260200160405190810160405280929190818152602001828054610962906119f2565b80156109af5780601f10610984576101008083540402835291602001916109af565b820191906000526020600020905b81548152906001019060200180831161099257829003601f168201915b505050600085815260086020526040902080549092506109cf91506119f2565b80601f01602080910402602001604051908101604052809291908181526020018280546109fb906119f2565b8015610a485780601f10610a1d57610100808354040283529160200191610a48565b820191906000526020600020905b815481529060010190602001808311610a2b57829003601f168201915b50505050506104ee565b610a8d5760405162461bcd60e51b815260206004820152600c60248201526b4d7573742062652073616d6560a01b6044820152606401610606565b6000828152600960209081526040808320839055838352808320546004805483516396c82e5760e01b81529351889633967f0e67c2e72a9ea22e5d163549aebce99ddc3d1fbbc58e7ed196b0e88f458847d9969195946001600160a01b03909416936396c82e579383820193909190829003018186803b158015610b1057600080fd5b505afa158015610b24573d6000803e3d6000fd5b505050506040513d601f19601f82011682018060405250810190610b4891906117fc565b604080519384526020840192909252908201526060016104e2565b60008181526008602052604081208054829190610b7f906119f2565b80601f0160208091040260200160405190810160405280929190818152602001828054610bab906119f2565b8015610bf85780601f10610bcd57610100808354040283529160200191610bf8565b820191906000526020600020905b815481529060010190602001808311610bdb57829003601f168201915b50505050509050610c0883611336565b9150610c1383610e1b565b8015610c2e57506000838152600b602052604090205460ff16155b15610cdd57610c58816040518060400160405280600381526020016244414f60e81b8152506104ee565b80610c855750610c8581604051806040016040528060058152602001645554494c5360d81b8152506104ee565b80610cb35750610cb38160405180604001604052806006815260200165149155d0549160d21b8152506104ee565b15610cd457610cc1836107bf565b15610ccf57610ccf83610f67565b610cdd565b610cdd83610f67565b60008381526009602052604090819020549051849133917f4d46d88c7e981a5bf4572a83b5d88bcfefbd5ee6ca8df0588e27c4221a43640791610d2491879190879061194b565b60405180910390a350919050565b60408051808201909152600581526411d490539560da1b6020820152600180548190600090610d62908390611973565b909155505060015460009081526008602090815260409091208251610d89928401906115e6565b506040805180820182526001600160a01b0385811682526020808301868152600180546000908152600690935291859020845181546001600160a01b0319169416939093178355519181019190915554915190919033907f8d500fcad86fc64a281b94ef64d6d66acbfc6862aa4ff2ee5fbbfb40736e803e90610e0d908690611917565b60405180910390a350505050565b6000818152600960209081526040808320546004805483516396c82e5760e01b81529351929486946003946001600160a01b03909316936396c82e57938282019392909190829003018186803b15801561081857600080fd5b60086020526000908152604090208054610e8d906119f2565b80601f0160208091040260200160405190810160405280929190818152602001828054610eb9906119f2565b8015610f065780601f10610edb57610100808354040283529160200191610f06565b820191906000526020600020905b815481529060010190602001808311610ee957829003601f168201915b505050505081565b6000818152600960209081526040808320546004805483516396c82e5760e01b81529351929486946006946001600160a01b03909316936396c82e57938282019392909190829003018186803b15801561081857600080fd5b60008181526008602052604081208054610f80906119f2565b80601f0160208091040260200160405190810160405280929190818152602001828054610fac906119f2565b8015610ff95780601f10610fce57610100808354040283529160200191610ff9565b820191906000526020600020905b815481529060010190602001808311610fdc57829003601f168201915b5050506000858152600b60209081526040808320805460ff19166001179055600a9091529020429081905560055493945085933393507f0f36aea5066f9f90a999260fe4ce8d7713f7f07f5ae61bf36d73cc51170a3a9e925061105b91611973565b846040516104e292919061192a565b6000818152600660209081526040918290208251808401845281546001600160a01b039081168252600190920154928101929092526003546004805494516370a0823160e01b8152948316908501529192600a92909116906370a082319060240160206040518083038186803b1580156110e357600080fd5b505afa1580156110f7573d6000803e3d6000fd5b505050506040513d601f19601f8201168201806040525081019061111b91906117fc565b611125919061198b565b8160200151111561116c5760405162461bcd60e51b81526020600482015260116024820152704e6f74206d6f7265207468616e2031302560781b6044820152606401610606565b61117582611434565b60048054825160208401516040516331b8490760e11b81526001600160a01b039283169481019490945260248401521690636370920e90604401600060405180830381600087803b1580156111c957600080fd5b505af11580156111dd573d6000803e3d6000fd5b505050505050565b6000818152600760205260409020546001600160a01b0316806112405760405162461bcd60e51b8152602060048201526013602482015272139bc81859191c995cdcc81c1c9bdc1bdcd959606a1b6044820152606401610606565b600254604051630648d0cd60e21b81526001600160a01b038381166004830152909116906319234334906024015b600060405180830381600087803b15801561128857600080fd5b505af115801561129c573d6000803e3d6000fd5b505050506107bb82611434565b6000818152600760205260409020546001600160a01b0316806113045760405162461bcd60e51b8152602060048201526013602482015272139bc81859191c995cdcc81c1c9bdc1bdcd959606a1b6044820152606401610606565b600254604051635e00e67960e01b81526001600160a01b03838116600483015290911690635e00e6799060240161126e565b6000818152600d6020908152604080832033845282528083205484845260099092528220805483906113699084906119ab565b909155505060048054604051635364df4960e01b815233928101929092526001600160a01b031690635364df499060240160206040518083038186803b1580156113b257600080fd5b505afa1580156113c6573d6000803e3d6000fd5b505050506040513d601f19601f820116820180604052508101906113ea91906117fc565b90508060096000848152602001908152602001600020600082825461140f9190611973565b90915550506000918252600d6020908152604080842033855290915290912081905590565b6000818152600860205260408120805461144d906119f2565b80601f0160208091040260200160405190810160405280929190818152602001828054611479906119f2565b80156114c65780601f1061149b576101008083540402835291602001916114c6565b820191906000526020600020905b8154815290600101906020018083116114a957829003601f168201915b5050505050905081336001600160a01b03167f28fca9bc3d4a734a707bd9396d50341c1f45e1d455c4aa4a58ceee0e09f645446009600086815260200190815260200160002054600460009054906101000a90046001600160a01b03166001600160a01b03166396c82e576040518163ffffffff1660e01b815260040160206040518083038186803b15801561155b57600080fd5b505afa15801561156f573d6000803e3d6000fd5b505050506040513d601f19601f8201168201806040525081019061159391906117fc565b856040516115a39392919061194b565b60405180910390a3506000908152600960209081526040808320839055600c8252808320805460ff19908116600117909155600b90925290912080549091169055565b8280546115f2906119f2565b90600052602060002090601f016020900481019282611614576000855561165a565b82601f1061162d57805160ff191683800117855561165a565b8280016001018555821561165a579182015b8281111561165a57825182559160200191906001019061163f565b5061166692915061166a565b5090565b5b80821115611666576000815560010161166b565b600067ffffffffffffffff8084111561169a5761169a611a43565b604051601f8501601f19908116603f011681019082821181831017156116c2576116c2611a43565b816040528093508581528686860111156116db57600080fd5b858560208301376000602087830101525050509392505050565b80356001600160a01b038116811461087657600080fd5b600082601f83011261171c578081fd5b61172b8383356020850161167f565b9392505050565b600080600060608486031215611746578283fd5b61174f846116f5565b925061175d602085016116f5565b915061176b604085016116f5565b90509250925092565b60008060408385031215611786578182fd5b61178f836116f5565b9150602083013567ffffffffffffffff8111156117aa578182fd5b8301601f810185136117ba578182fd5b6117c98582356020840161167f565b9150509250929050565b600080604083850312156117e5578182fd5b6117ee836116f5565b946020939093013593505050565b60006020828403121561180d578081fd5b5051919050565b60008060408385031215611826578182fd5b823567ffffffffffffffff8082111561183d578384fd5b6118498683870161170c565b9350602085013591508082111561185e578283fd5b506117c98582860161170c565b60006020828403121561187c578081fd5b5035919050565b60008060408385031215611895578182fd5b823591506118a5602084016116f5565b90509250929050565b600080604083850312156118c0578182fd5b50508035926020909101359150565b600081518084526118e78160208601602086016119c2565b601f01601f19169290920160200192915050565b6000825161190d8184602087016119c2565b9190910192915050565b60006020825261172b60208301846118cf565b60008382526040602083015261194360408301846118cf565b949350505050565b60008482528360208301526060604083015261196a60608301846118cf565b95945050505050565b6000821982111561198657611986611a2d565b500190565b6000826119a657634e487b7160e01b81526012600452602481fd5b500490565b6000828210156119bd576119bd611a2d565b500390565b60005b838110156119dd5781810151838201526020016119c5565b838111156119ec576000848401525b50505050565b600181811c90821680611a0657607f821691505b60208210811415611a2757634e487b7160e01b600052602260045260246000fd5b50919050565b634e487b7160e01b600052601160045260246000fd5b634e487b7160e01b600052604160045260246000fdfea26469706673582212208cef0602bab8874c047dbc857b7f567a4d8775692ca063fda0952abcdb98d53864736f6c63430008030033",
  "linkReferences": {},
  "deployedLinkReferences": {}
}