{
  "_format": "hh-sol-artifact-1",
  "contractName": "DAO",
  "sourceName": "contracts/DAO.sol",
  "abi": [
    {
      "inputs": [],
      "stateMutability": "nonpayable",
      "type": "constructor"
    },
    {
      "anonymous": false,
      "inputs": [
        {
          "indexed": true,
          "internalType": "address",
          "name": "member",
          "type": "address"
        },
        {
          "indexed": true,
          "internalType": "uint256",
          "name": "oldProposalID",
          "type": "uint256"
        },
        {
          "indexed": false,
          "internalType": "uint256",
          "name": "oldVotes",
          "type": "uint256"
        },
        {
          "indexed": false,
          "internalType": "uint256",
          "name": "newVotes",
          "type": "uint256"
        },
        {
          "indexed": false,
          "internalType": "uint256",
          "name": "totalWeight",
          "type": "uint256"
        }
      ],
      "name": "CancelProposal",
      "type": "event"
    },
    {
      "anonymous": false,
      "inputs": [
        {
          "indexed": true,
          "internalType": "address",
          "name": "member",
          "type": "address"
        },
        {
          "indexed": true,
          "internalType": "uint256",
          "name": "proposalID",
          "type": "uint256"
        },
        {
          "indexed": false,
          "internalType": "uint256",
          "name": "votesCast",
          "type": "uint256"
        },
        {
          "indexed": false,
          "internalType": "uint256",
          "name": "totalWeight",
          "type": "uint256"
        },
        {
          "indexed": false,
          "internalType": "string",
          "name": "proposalType",
          "type": "string"
        }
      ],
      "name": "FinalisedProposal",
      "type": "event"
    },
    {
      "anonymous": false,
      "inputs": [
        {
          "indexed": true,
          "internalType": "address",
          "name": "member",
          "type": "address"
        },
        {
          "indexed": true,
          "internalType": "uint256",
          "name": "proposalID",
          "type": "uint256"
        },
        {
          "indexed": false,
          "internalType": "string",
          "name": "proposalType",
          "type": "string"
        }
      ],
      "name": "NewProposal",
      "type": "event"
    },
    {
      "anonymous": false,
      "inputs": [
        {
          "indexed": true,
          "internalType": "address",
          "name": "member",
          "type": "address"
        },
        {
          "indexed": true,
          "internalType": "uint256",
          "name": "proposalID",
          "type": "uint256"
        },
        {
          "indexed": false,
          "internalType": "uint256",
          "name": "voteWeight",
          "type": "uint256"
        },
        {
          "indexed": false,
          "internalType": "uint256",
          "name": "totalVotes",
          "type": "uint256"
        },
        {
          "indexed": false,
          "internalType": "string",
          "name": "proposalType",
          "type": "string"
        }
      ],
      "name": "NewVote",
      "type": "event"
    },
    {
      "anonymous": false,
      "inputs": [
        {
          "indexed": true,
          "internalType": "address",
          "name": "member",
          "type": "address"
        },
        {
          "indexed": true,
          "internalType": "uint256",
          "name": "proposalID",
          "type": "uint256"
        },
        {
          "indexed": false,
          "internalType": "uint256",
          "name": "timeFinalised",
          "type": "uint256"
        },
        {
          "indexed": false,
          "internalType": "string",
          "name": "proposalType",
          "type": "string"
        }
      ],
      "name": "ProposalFinalising",
      "type": "event"
    },
    {
      "inputs": [],
      "name": "RESERVE",
      "outputs": [
        {
          "internalType": "address",
          "name": "",
          "type": "address"
        }
      ],
      "stateMutability": "view",
      "type": "function"
    },
    {
      "inputs": [],
      "name": "USDV",
      "outputs": [
        {
          "internalType": "address",
          "name": "",
          "type": "address"
        }
      ],
      "stateMutability": "view",
      "type": "function"
    },
    {
      "inputs": [],
      "name": "VADER",
      "outputs": [
        {
          "internalType": "address",
          "name": "",
          "type": "address"
        }
      ],
      "stateMutability": "view",
      "type": "function"
    },
    {
      "inputs": [],
      "name": "VAULT",
      "outputs": [
        {
          "internalType": "address",
          "name": "",
          "type": "address"
        }
      ],
      "stateMutability": "view",
      "type": "function"
    },
    {
      "inputs": [
        {
          "internalType": "uint256",
          "name": "oldProposalID",
          "type": "uint256"
        },
        {
          "internalType": "uint256",
          "name": "newProposalID",
          "type": "uint256"
        }
      ],
      "name": "cancelProposal",
      "outputs": [],
      "stateMutability": "nonpayable",
      "type": "function"
    },
    {
      "inputs": [],
      "name": "coolOffPeriod",
      "outputs": [
        {
          "internalType": "uint256",
          "name": "",
          "type": "uint256"
        }
      ],
      "stateMutability": "view",
      "type": "function"
    },
    {
      "inputs": [
        {
          "internalType": "uint256",
          "name": "proposalID",
          "type": "uint256"
        }
      ],
      "name": "finaliseProposal",
      "outputs": [],
      "stateMutability": "nonpayable",
      "type": "function"
    },
    {
      "inputs": [
        {
          "internalType": "uint256",
          "name": "_proposalID",
          "type": "uint256"
        }
      ],
      "name": "hasMajority",
      "outputs": [
        {
          "internalType": "bool",
          "name": "",
          "type": "bool"
        }
      ],
      "stateMutability": "view",
      "type": "function"
    },
    {
      "inputs": [
        {
          "internalType": "uint256",
          "name": "_proposalID",
          "type": "uint256"
        }
      ],
      "name": "hasMinority",
      "outputs": [
        {
          "internalType": "bool",
          "name": "",
          "type": "bool"
        }
      ],
      "stateMutability": "view",
      "type": "function"
    },
    {
      "inputs": [
        {
          "internalType": "uint256",
          "name": "_proposalID",
          "type": "uint256"
        }
      ],
      "name": "hasQuorum",
      "outputs": [
        {
          "internalType": "bool",
          "name": "",
          "type": "bool"
        }
      ],
      "stateMutability": "view",
      "type": "function"
    },
    {
      "inputs": [
        {
          "internalType": "address",
          "name": "_vader",
          "type": "address"
        },
        {
          "internalType": "address",
          "name": "_usdv",
          "type": "address"
        },
        {
          "internalType": "address",
          "name": "_reserve",
          "type": "address"
        },
        {
          "internalType": "address",
          "name": "_vault",
          "type": "address"
        }
      ],
      "name": "init",
      "outputs": [],
      "stateMutability": "nonpayable",
      "type": "function"
    },
    {
      "inputs": [
        {
          "internalType": "bytes",
          "name": "part1",
          "type": "bytes"
        },
        {
          "internalType": "bytes",
          "name": "part2",
          "type": "bytes"
        }
      ],
      "name": "isEqual",
      "outputs": [
        {
          "internalType": "bool",
          "name": "",
          "type": "bool"
        }
      ],
      "stateMutability": "pure",
      "type": "function"
    },
    {
      "inputs": [
        {
          "internalType": "uint256",
          "name": "",
          "type": "uint256"
        },
        {
          "internalType": "address",
          "name": "",
          "type": "address"
        }
      ],
      "name": "mapPIDMember_votes",
      "outputs": [
        {
          "internalType": "uint256",
          "name": "",
          "type": "uint256"
        }
      ],
      "stateMutability": "view",
      "type": "function"
    },
    {
      "inputs": [
        {
          "internalType": "uint256",
          "name": "",
          "type": "uint256"
        }
      ],
      "name": "mapPID_address",
      "outputs": [
        {
          "internalType": "address",
          "name": "",
          "type": "address"
        }
      ],
      "stateMutability": "view",
      "type": "function"
    },
    {
      "inputs": [
        {
          "internalType": "uint256",
          "name": "",
          "type": "uint256"
        }
      ],
      "name": "mapPID_finalised",
      "outputs": [
        {
          "internalType": "bool",
          "name": "",
          "type": "bool"
        }
      ],
      "stateMutability": "view",
      "type": "function"
    },
    {
      "inputs": [
        {
          "internalType": "uint256",
          "name": "",
          "type": "uint256"
        }
      ],
      "name": "mapPID_finalising",
      "outputs": [
        {
          "internalType": "bool",
          "name": "",
          "type": "bool"
        }
      ],
      "stateMutability": "view",
      "type": "function"
    },
    {
      "inputs": [
        {
          "internalType": "uint256",
          "name": "",
          "type": "uint256"
        }
      ],
      "name": "mapPID_grant",
      "outputs": [
        {
          "internalType": "address",
          "name": "recipient",
          "type": "address"
        },
        {
          "internalType": "uint256",
          "name": "amount",
          "type": "uint256"
        }
      ],
      "stateMutability": "view",
      "type": "function"
    },
    {
      "inputs": [
        {
          "internalType": "uint256",
          "name": "",
          "type": "uint256"
        }
      ],
      "name": "mapPID_timeStart",
      "outputs": [
        {
          "internalType": "uint256",
          "name": "",
          "type": "uint256"
        }
      ],
      "stateMutability": "view",
      "type": "function"
    },
    {
      "inputs": [
        {
          "internalType": "uint256",
          "name": "",
          "type": "uint256"
        }
      ],
      "name": "mapPID_type",
      "outputs": [
        {
          "internalType": "string",
          "name": "",
          "type": "string"
        }
      ],
      "stateMutability": "view",
      "type": "function"
    },
    {
      "inputs": [
        {
          "internalType": "uint256",
          "name": "",
          "type": "uint256"
        }
      ],
      "name": "mapPID_votes",
      "outputs": [
        {
          "internalType": "uint256",
          "name": "",
          "type": "uint256"
        }
      ],
      "stateMutability": "view",
      "type": "function"
    },
    {
      "inputs": [
        {
          "internalType": "address",
          "name": "proposedAddress",
          "type": "address"
        },
        {
          "internalType": "string",
          "name": "typeStr",
          "type": "string"
        }
      ],
      "name": "newAddressProposal",
      "outputs": [],
      "stateMutability": "nonpayable",
      "type": "function"
    },
    {
      "inputs": [
        {
          "internalType": "address",
          "name": "recipient",
          "type": "address"
        },
        {
          "internalType": "uint256",
          "name": "amount",
          "type": "uint256"
        }
      ],
      "name": "newGrantProposal",
      "outputs": [],
      "stateMutability": "nonpayable",
      "type": "function"
    },
    {
      "inputs": [],
      "name": "proposalCount",
      "outputs": [
        {
          "internalType": "uint256",
          "name": "",
          "type": "uint256"
        }
      ],
      "stateMutability": "view",
      "type": "function"
    },
    {
      "inputs": [
        {
          "internalType": "uint256",
          "name": "proposalID",
          "type": "uint256"
        }
      ],
      "name": "voteProposal",
      "outputs": [
        {
          "internalType": "uint256",
          "name": "voteWeight",
          "type": "uint256"
        }
      ],
      "stateMutability": "nonpayable",
      "type": "function"
    }
  ],
  "bytecode": "0x608060405234801561001057600080fd5b506119e4806100206000396000f3fe608060405234801561001057600080fd5b50600436106101585760003560e01c8063a6c83fed116100c3578063cb7bdbc01161007c578063cb7bdbc014610341578063d0ad170914610393578063da35c664146103a6578063dab249b3146103af578063e2c3b046146103cf578063e38c7dcc146103e257610158565b8063a6c83fed1461029e578063abb6154f146102b1578063ae887c8b146102ba578063bbf8cf82146102e3578063c05fc178146102f6578063c42b3f7d1461031657610158565b80634b193e23116101155780634b193e231461020e5780634b400034146102215780635c120b37146102445780635ded8b0614610257578063807896d51461026a5780639d2cc4361461028b57610158565b8063016813151461015d57806306552ff31461018d578063293cee7d146101a25780632bee1194146101b557806334359808146101e8578063411557d1146101fb575b600080fd5b600254610170906001600160a01b031681565b6040516001600160a01b0390911681526020015b60405180910390f35b6101a061019b366004611676565b610402565b005b6101a06101b03660046116c9565b610476565b6101d86101c33660046117c0565b600d6020526000908152604090205460ff1681565b6040519015158152602001610184565b6101d86101f6366004611769565b61051d565b600554610170906001600160a01b031681565b6101a061021c3660046117c0565b6105d7565b6101d861022f3660046117c0565b600c6020526000908152604090205460ff1681565b6101d86102523660046117c0565b6107ee565b6101a0610265366004611803565b6108aa565b61027d6102783660046117c0565b610b90565b604051908152602001610184565b600454610170906001600160a01b031681565b6101a06102ac366004611728565b610d5f565b61027d60065481565b6101706102c83660046117c0565b6008602052600090815260409020546001600160a01b031681565b6101d86102f13660046117c0565b610e48565b6103096103043660046117c0565b610ea1565b604051610184919061186c565b61027d6103243660046117d8565b600e60209081526000928352604080842090915290825290205481565b61037461034f3660046117c0565b600760205260009081526040902080546001909101546001600160a01b039091169082565b604080516001600160a01b039093168352602083019190915201610184565b6101d86103a13660046117c0565b610f3b565b61027d60015481565b61027d6103bd3660046117c0565b600a6020526000908152604090205481565b600354610170906001600160a01b031681565b61027d6103f03660046117c0565b600b6020526000908152604090205481565b60005460ff161561041257600080fd5b60008054600160ff199091168117909155600280546001600160a01b03199081166001600160a01b03978816179091556003805482169587169590951790945560048054851693861693909317909255600580549093169316929092179055600655565b600180600082825461048891906118c8565b909155505060018054600090815260086020908152604080832080546001600160a01b0319166001600160a01b038816179055925482526009815291902082516104d49284019061152a565b50600154336001600160a01b03167f8d500fcad86fc64a281b94ef64d6d66acbfc6862aa4ff2ee5fbbfb40736e803e83604051610511919061186c565b60405180910390a35050565b600060028260405161052f9190611850565b602060405180830381855afa15801561054c573d6000803e3d6000fd5b5050506040513d601f19601f8201168201806040525081019061056f9190611751565b60028460405161057f9190611850565b602060405180830381855afa15801561059c573d6000803e3d6000fd5b5050506040513d601f19601f820116820180604052508101906105bf9190611751565b14156105cd575060016105d1565b5060005b92915050565b6006546000828152600b60205260409020546105f39042611900565b1161063e5760405162461bcd60e51b815260206004820152601660248201527526bab9ba1031329030b33a32b91031b7b7b61037b33360511b60448201526064015b60405180910390fd5b6000818152600c602052604090205460ff1615156001146106965760405162461bcd60e51b81526020600482015260126024820152714d7573742062652066696e616c6973696e6760701b6044820152606401610635565b61069f81610e48565b6106ac576106ac81610f94565b600081815260096020526040812080546106c590611947565b80601f01602080910402602001604051908101604052809291908181526020018280546106f190611947565b801561073e5780601f106107135761010080835404028352916020019161073e565b820191906000526020600020905b81548152906001019060200180831161072157829003601f168201915b5050505050905061076c816040518060400160405280600581526020016411d490539560da1b81525061051d565b1561077f5761077a82611097565b6107ea565b6107a681604051806040016040528060058152602001645554494c5360d81b81525061051d565b156107b45761077a8261113f565b6107dc8160405180604001604052806006815260200165149155d0549160d21b81525061051d565b156107ea576107ea82611203565b5050565b6000818152600a602090815260408083205460055482516396c82e5760e01b81529251919385936002936001600160a01b03909316926396c82e5792600480840193919291829003018186803b15801561084757600080fd5b505afa15801561085b573d6000803e3d6000fd5b505050506040513d601f19601f8201168201806040525081019061087f9190611751565b61088991906118e0565b90508082111561089e576001925050506108a5565b6000925050505b919050565b6000828152600c602052604090205460ff166108fd5760405162461bcd60e51b81526020600482015260126024820152714d7573742062652066696e616c6973696e6760701b6044820152606401610635565b61090681610f3b565b6109475760405162461bcd60e51b81526020600482015260126024820152714d7573742068617665206d696e6f7269747960701b6044820152606401610635565b60008281526009602052604090208054610a81919061096590611947565b80601f016020809104026020016040519081016040528092919081815260200182805461099190611947565b80156109de5780601f106109b3576101008083540402835291602001916109de565b820191906000526020600020905b8154815290600101906020018083116109c157829003601f168201915b505050600085815260096020526040902080549092506109fe9150611947565b80601f0160208091040260200160405190810160405280929190818152602001828054610a2a90611947565b8015610a775780601f10610a4c57610100808354040283529160200191610a77565b820191906000526020600020905b815481529060010190602001808311610a5a57829003601f168201915b505050505061051d565b610abc5760405162461bcd60e51b815260206004820152600c60248201526b4d7573742062652073616d6560a01b6044820152606401610635565b6000828152600a602090815260408083208390558383528083205460055482516396c82e5760e01b81529251879533957f0e67c2e72a9ea22e5d163549aebce99ddc3d1fbbc58e7ed196b0e88f458847d9959194936001600160a01b0316926396c82e57926004808201939291829003018186803b158015610b3d57600080fd5b505afa158015610b51573d6000803e3d6000fd5b505050506040513d601f19601f82011682018060405250810190610b759190611751565b60408051938452602084019290925290820152606001610511565b60008181526009602052604081208054829190610bac90611947565b80601f0160208091040260200160405190810160405280929190818152602001828054610bd890611947565b8015610c255780601f10610bfa57610100808354040283529160200191610c25565b820191906000526020600020905b815481529060010190602001808311610c0857829003601f168201915b50505050509050610c3583611290565b9150610c4083610e48565b8015610c5b57506000838152600c602052604090205460ff16155b15610d0a57610c85816040518060400160405280600381526020016244414f60e81b81525061051d565b80610cb25750610cb281604051806040016040528060058152602001645554494c5360d81b81525061051d565b80610ce05750610ce08160405180604001604052806006815260200165149155d0549160d21b81525061051d565b15610d0157610cee836107ee565b15610cfc57610cfc83610f94565b610d0a565b610d0a83610f94565b6000838152600a602052604090819020549051849133917f4d46d88c7e981a5bf4572a83b5d88bcfefbd5ee6ca8df0588e27c4221a43640791610d519187919087906118a0565b60405180910390a350919050565b60408051808201909152600581526411d490539560da1b6020820152600180548190600090610d8f9083906118c8565b909155505060015460009081526009602090815260409091208251610db69284019061152a565b506040805180820182526001600160a01b0385811682526020808301868152600180546000908152600790935291859020845181546001600160a01b0319169416939093178355519181019190915554915190919033907f8d500fcad86fc64a281b94ef64d6d66acbfc6862aa4ff2ee5fbbfb40736e803e90610e3a90869061186c565b60405180910390a350505050565b6000818152600a602090815260408083205460055482516396c82e5760e01b81529251919385936003936001600160a01b03909316926396c82e5792600480840193919291829003018186803b15801561084757600080fd5b60096020526000908152604090208054610eba90611947565b80601f0160208091040260200160405190810160405280929190818152602001828054610ee690611947565b8015610f335780601f10610f0857610100808354040283529160200191610f33565b820191906000526020600020905b815481529060010190602001808311610f1657829003601f168201915b505050505081565b6000818152600a602090815260408083205460055482516396c82e5760e01b81529251919385936006936001600160a01b03909316926396c82e5792600480840193919291829003018186803b15801561084757600080fd5b60008181526009602052604081208054610fad90611947565b80601f0160208091040260200160405190810160405280929190818152602001828054610fd990611947565b80156110265780601f10610ffb57610100808354040283529160200191611026565b820191906000526020600020905b81548152906001019060200180831161100957829003601f168201915b5050506000858152600c60209081526040808320805460ff19166001179055600b9091529020429081905560065493945085933393507f0f36aea5066f9f90a999260fe4ce8d7713f7f07f5ae61bf36d73cc51170a3a9e9250611088916118c8565b8460405161051192919061187f565b600081815260076020908152604091829020825180840190935280546001600160a01b0316835260010154908201526110cf8261138d565b60048054825160208401516040516331b8490760e11b81526001600160a01b039283169481019490945260248401521690636370920e90604401600060405180830381600087803b15801561112357600080fd5b505af1158015611137573d6000803e3d6000fd5b505050505050565b6000818152600860205260409020546001600160a01b03168061119a5760405162461bcd60e51b8152602060048201526013602482015272139bc81859191c995cdcc81c1c9bdc1bdcd959606a1b6044820152606401610635565b600254604051630648d0cd60e21b81526001600160a01b038381166004830152909116906319234334906024015b600060405180830381600087803b1580156111e257600080fd5b505af11580156111f6573d6000803e3d6000fd5b505050506107ea8261138d565b6000818152600860205260409020546001600160a01b03168061125e5760405162461bcd60e51b8152602060048201526013602482015272139bc81859191c995cdcc81c1c9bdc1bdcd959606a1b6044820152606401610635565b600254604051634e76640560e11b81526001600160a01b03838116600483015290911690639cecc80a906024016111c8565b6000818152600e60209081526040808320338452825280832054848452600a9092528220805483906112c3908490611900565b9091555050600554604051635364df4960e01b81523360048201526001600160a01b0390911690635364df499060240160206040518083038186803b15801561130b57600080fd5b505afa15801561131f573d6000803e3d6000fd5b505050506040513d601f19601f820116820180604052508101906113439190611751565b905080600a6000848152602001908152602001600020600082825461136891906118c8565b90915550506000918252600e6020908152604080842033855290915290912081905590565b600081815260096020526040812080546113a690611947565b80601f01602080910402602001604051908101604052809291908181526020018280546113d290611947565b801561141f5780601f106113f45761010080835404028352916020019161141f565b820191906000526020600020905b81548152906001019060200180831161140257829003601f168201915b5050506000858152600a60209081526040918290205460055483516396c82e5760e01b8152935196975088963396507f28fca9bc3d4a734a707bd9396d50341c1f45e1d455c4aa4a58ceee0e09f64544955091936001600160a01b03909116926396c82e5792600480840193829003018186803b15801561149f57600080fd5b505afa1580156114b3573d6000803e3d6000fd5b505050506040513d601f19601f820116820180604052508101906114d79190611751565b856040516114e7939291906118a0565b60405180910390a3506000908152600a60209081526040808320839055600d8252808320805460ff19908116600117909155600c90925290912080549091169055565b82805461153690611947565b90600052602060002090601f016020900481019282611558576000855561159e565b82601f1061157157805160ff191683800117855561159e565b8280016001018555821561159e579182015b8281111561159e578251825591602001919060010190611583565b506115aa9291506115ae565b5090565b5b808211156115aa57600081556001016115af565b600067ffffffffffffffff808411156115de576115de611998565b604051601f8501601f19908116603f0116810190828211818310171561160657611606611998565b8160405280935085815286868601111561161f57600080fd5b858560208301376000602087830101525050509392505050565b80356001600160a01b03811681146108a557600080fd5b600082601f830112611660578081fd5b61166f838335602085016115c3565b9392505050565b6000806000806080858703121561168b578384fd5b61169485611639565b93506116a260208601611639565b92506116b060408601611639565b91506116be60608601611639565b905092959194509250565b600080604083850312156116db578182fd5b6116e483611639565b9150602083013567ffffffffffffffff8111156116ff578182fd5b8301601f8101851361170f578182fd5b61171e858235602084016115c3565b9150509250929050565b6000806040838503121561173a578182fd5b61174383611639565b946020939093013593505050565b600060208284031215611762578081fd5b5051919050565b6000806040838503121561177b578182fd5b823567ffffffffffffffff80821115611792578384fd5b61179e86838701611650565b935060208501359150808211156117b3578283fd5b5061171e85828601611650565b6000602082840312156117d1578081fd5b5035919050565b600080604083850312156117ea578182fd5b823591506117fa60208401611639565b90509250929050565b60008060408385031215611815578182fd5b50508035926020909101359150565b6000815180845261183c816020860160208601611917565b601f01601f19169290920160200192915050565b60008251611862818460208701611917565b9190910192915050565b60006020825261166f6020830184611824565b6000838252604060208301526118986040830184611824565b949350505050565b6000848252836020830152606060408301526118bf6060830184611824565b95945050505050565b600082198211156118db576118db611982565b500190565b6000826118fb57634e487b7160e01b81526012600452602481fd5b500490565b60008282101561191257611912611982565b500390565b60005b8381101561193257818101518382015260200161191a565b83811115611941576000848401525b50505050565b600181811c9082168061195b57607f821691505b6020821081141561197c57634e487b7160e01b600052602260045260246000fd5b50919050565b634e487b7160e01b600052601160045260246000fd5b634e487b7160e01b600052604160045260246000fdfea2646970667358221220b3c5fa6767fa66dc28b4e6879b1d8898ceee15f35f3878ed64772efa8bb5281064736f6c63430008030033",
  "linkReferences": {},
  "deployedLinkReferences": {}
}