{
  "_format": "hh-sol-artifact-1",
  "contractName": "USDV",
  "sourceName": "contracts/USDV.sol",
  "abi": [
    {
      "inputs": [],
      "stateMutability": "nonpayable",
      "type": "constructor"
    },
    {
      "anonymous": false,
      "inputs": [
        {
          "indexed": true,
          "internalType": "address",
          "name": "owner",
          "type": "address"
        },
        {
          "indexed": true,
          "internalType": "address",
          "name": "spender",
          "type": "address"
        },
        {
          "indexed": false,
          "internalType": "uint256",
          "name": "value",
          "type": "uint256"
        }
      ],
      "name": "Approval",
      "type": "event"
    },
    {
      "anonymous": false,
      "inputs": [
        {
          "indexed": true,
          "internalType": "address",
          "name": "from",
          "type": "address"
        },
        {
          "indexed": true,
          "internalType": "address",
          "name": "to",
          "type": "address"
        },
        {
          "indexed": false,
          "internalType": "uint256",
          "name": "value",
          "type": "uint256"
        }
      ],
      "name": "Transfer",
      "type": "event"
    },
    {
      "inputs": [],
      "name": "ROUTER",
      "outputs": [
        {
          "internalType": "address",
          "name": "",
          "type": "address"
        }
      ],
      "stateMutability": "view",
      "type": "function"
    },
    {
      "inputs": [],
      "name": "VADER",
      "outputs": [
        {
          "internalType": "address",
          "name": "",
          "type": "address"
        }
      ],
      "stateMutability": "view",
      "type": "function"
    },
    {
      "inputs": [],
      "name": "VAULT",
      "outputs": [
        {
          "internalType": "address",
          "name": "",
          "type": "address"
        }
      ],
      "stateMutability": "view",
      "type": "function"
    },
    {
      "inputs": [
        {
          "internalType": "address",
          "name": "owner",
          "type": "address"
        },
        {
          "internalType": "address",
          "name": "spender",
          "type": "address"
        }
      ],
      "name": "allowance",
      "outputs": [
        {
          "internalType": "uint256",
          "name": "",
          "type": "uint256"
        }
      ],
      "stateMutability": "view",
      "type": "function"
    },
    {
      "inputs": [
        {
          "internalType": "address",
          "name": "spender",
          "type": "address"
        },
        {
          "internalType": "uint256",
          "name": "amount",
          "type": "uint256"
        }
      ],
      "name": "approve",
      "outputs": [
        {
          "internalType": "bool",
          "name": "",
          "type": "bool"
        }
      ],
      "stateMutability": "nonpayable",
      "type": "function"
    },
    {
      "inputs": [
        {
          "internalType": "address",
          "name": "account",
          "type": "address"
        }
      ],
      "name": "balanceOf",
      "outputs": [
        {
          "internalType": "uint256",
          "name": "",
          "type": "uint256"
        }
      ],
      "stateMutability": "view",
      "type": "function"
    },
    {
      "inputs": [],
      "name": "blockDelay",
      "outputs": [
        {
          "internalType": "uint256",
          "name": "",
          "type": "uint256"
        }
      ],
      "stateMutability": "view",
      "type": "function"
    },
    {
      "inputs": [
        {
          "internalType": "uint256",
          "name": "amount",
          "type": "uint256"
        }
      ],
      "name": "burn",
      "outputs": [],
      "stateMutability": "nonpayable",
      "type": "function"
    },
    {
      "inputs": [
        {
          "internalType": "address",
          "name": "account",
          "type": "address"
        },
        {
          "internalType": "uint256",
          "name": "amount",
          "type": "uint256"
        }
      ],
      "name": "burnFrom",
      "outputs": [],
      "stateMutability": "nonpayable",
      "type": "function"
    },
    {
      "inputs": [
        {
          "internalType": "uint256",
          "name": "amount",
          "type": "uint256"
        }
      ],
      "name": "convert",
      "outputs": [
        {
          "internalType": "uint256",
          "name": "",
          "type": "uint256"
        }
      ],
      "stateMutability": "nonpayable",
      "type": "function"
    },
    {
      "inputs": [
        {
          "internalType": "address",
          "name": "member",
          "type": "address"
        },
        {
          "internalType": "uint256",
          "name": "amount",
          "type": "uint256"
        }
      ],
      "name": "convertForMember",
      "outputs": [
        {
          "internalType": "uint256",
          "name": "",
          "type": "uint256"
        }
      ],
      "stateMutability": "nonpayable",
      "type": "function"
    },
    {
      "inputs": [],
      "name": "decimals",
      "outputs": [
        {
          "internalType": "uint256",
          "name": "",
          "type": "uint256"
        }
      ],
      "stateMutability": "view",
      "type": "function"
    },
    {
      "inputs": [
        {
          "internalType": "address",
          "name": "_vader",
          "type": "address"
        },
        {
          "internalType": "address",
          "name": "_vault",
          "type": "address"
        },
        {
          "internalType": "address",
          "name": "_router",
          "type": "address"
        }
      ],
      "name": "init",
      "outputs": [],
      "stateMutability": "nonpayable",
      "type": "function"
    },
    {
      "inputs": [],
      "name": "isMature",
      "outputs": [
        {
          "internalType": "bool",
          "name": "isMatured",
          "type": "bool"
        }
      ],
      "stateMutability": "view",
      "type": "function"
    },
    {
      "inputs": [
        {
          "internalType": "address",
          "name": "",
          "type": "address"
        }
      ],
      "name": "lastBlock",
      "outputs": [
        {
          "internalType": "uint256",
          "name": "",
          "type": "uint256"
        }
      ],
      "stateMutability": "view",
      "type": "function"
    },
    {
      "inputs": [],
      "name": "name",
      "outputs": [
        {
          "internalType": "string",
          "name": "",
          "type": "string"
        }
      ],
      "stateMutability": "view",
      "type": "function"
    },
    {
      "inputs": [
        {
          "internalType": "uint256",
          "name": "amount",
          "type": "uint256"
        }
      ],
      "name": "redeem",
      "outputs": [
        {
          "internalType": "uint256",
          "name": "",
          "type": "uint256"
        }
      ],
      "stateMutability": "nonpayable",
      "type": "function"
    },
    {
      "inputs": [
        {
          "internalType": "address",
          "name": "member",
          "type": "address"
        },
        {
          "internalType": "uint256",
          "name": "amount",
          "type": "uint256"
        }
      ],
      "name": "redeemForMember",
      "outputs": [
        {
          "internalType": "uint256",
          "name": "redeemAmount",
          "type": "uint256"
        }
      ],
      "stateMutability": "nonpayable",
      "type": "function"
    },
    {
      "inputs": [
        {
          "internalType": "uint256",
          "name": "newDelay",
          "type": "uint256"
        }
      ],
      "name": "setParams",
      "outputs": [],
      "stateMutability": "nonpayable",
      "type": "function"
    },
    {
      "inputs": [],
      "name": "symbol",
      "outputs": [
        {
          "internalType": "string",
          "name": "",
          "type": "string"
        }
      ],
      "stateMutability": "view",
      "type": "function"
    },
    {
      "inputs": [],
      "name": "totalSupply",
      "outputs": [
        {
          "internalType": "uint256",
          "name": "",
          "type": "uint256"
        }
      ],
      "stateMutability": "view",
      "type": "function"
    },
    {
      "inputs": [
        {
          "internalType": "address",
          "name": "recipient",
          "type": "address"
        },
        {
          "internalType": "uint256",
          "name": "amount",
          "type": "uint256"
        }
      ],
      "name": "transfer",
      "outputs": [
        {
          "internalType": "bool",
          "name": "",
          "type": "bool"
        }
      ],
      "stateMutability": "nonpayable",
      "type": "function"
    },
    {
      "inputs": [
        {
          "internalType": "address",
          "name": "sender",
          "type": "address"
        },
        {
          "internalType": "address",
          "name": "recipient",
          "type": "address"
        },
        {
          "internalType": "uint256",
          "name": "amount",
          "type": "uint256"
        }
      ],
      "name": "transferFrom",
      "outputs": [
        {
          "internalType": "bool",
          "name": "",
          "type": "bool"
        }
      ],
      "stateMutability": "nonpayable",
      "type": "function"
    },
    {
      "inputs": [
        {
          "internalType": "address",
          "name": "recipient",
          "type": "address"
        },
        {
          "internalType": "uint256",
          "name": "amount",
          "type": "uint256"
        }
      ],
      "name": "transferTo",
      "outputs": [
        {
          "internalType": "bool",
          "name": "",
          "type": "bool"
        }
      ],
      "stateMutability": "nonpayable",
      "type": "function"
    }
  ],
  "bytecode": "0x60806040523480156200001157600080fd5b506040805180820190915260138082527f564144455220535441424c4520444f4c4c4152000000000000000000000000006020909201918252620000589160009162000097565b50604080518082019091526004808252632aa9a22b60e11b6020909201918252620000869160019162000097565b50601260025560006003556200017a565b828054620000a5906200013d565b90600052602060002090601f016020900481019282620000c9576000855562000114565b82601f10620000e457805160ff191683800117855562000114565b8280016001018555821562000114579182015b8281111562000114578251825591602001919060010190620000f7565b506200012292915062000126565b5090565b5b8082111562000122576000815560010162000127565b600181811c908216806200015257607f821691505b602082108114156200017457634e487b7160e01b600052602260045260246000fd5b50919050565b611043806200018a6000396000f3fe608060405234801561001057600080fd5b50600436106101585760003560e01c806370a08231116100c3578063ae4e7fdf1161007c578063ae4e7fdf146102f6578063d2450e8f146102fe578063d98f608814610311578063db006a751461031a578063dd62ed3e1461032d578063fbe521a01461036657610158565b806370a082311461026c57806379cc679014610295578063952ca92c146102a857806395d89b41146102c8578063a3908e1b146102d0578063a9059cbb146102e357610158565b80632ccb1b30116101155780632ccb1b3014610204578063313ce5671461021757806332fe7b2614610220578063411557d11461023357806342966c681461024657806359ded2101461025957610158565b8063016813151461015d57806306fdde031461018d578063095ea7b3146101a257806318160ddd146101c5578063184b9559146101dc57806323b872dd146101f1575b600080fd5b600854610170906001600160a01b031681565b6040516001600160a01b0390911681526020015b60405180910390f35b610195610379565b6040516101849190610f25565b6101b56101b0366004610eaa565b610407565b6040519015158152602001610184565b6101ce60035481565b604051908152602001610184565b6101ef6101ea366004610e20565b61041e565b005b6101b56101ff366004610e6a565b61047a565b6101b5610212366004610eaa565b6104cc565b6101ce60025481565b600a54610170906001600160a01b031681565b600954610170906001600160a01b031681565b6101ef610254366004610ef5565b6104d9565b6101ef610267366004610ef5565b6104e6565b6101ce61027a366004610db0565b6001600160a01b031660009081526004602052604090205490565b6101ef6102a3366004610eaa565b6105c0565b6101ce6102b6366004610db0565b600b6020526000908152604090205481565b61019561060b565b6101ce6102de366004610ef5565b610618565b6101b56102f1366004610eaa565b610624565b6101b5610631565b6101ce61030c366004610eaa565b61065e565b6101ce60075481565b6101ce610328366004610ef5565b610711565b6101ce61033b366004610de8565b6001600160a01b03918216600090815260056020908152604080832093909416825291909152205490565b6101ce610374366004610eaa565b61071d565b6000805461038690610fa7565b80601f01602080910402602001604051908101604052809291908181526020018280546103b290610fa7565b80156103ff5780601f106103d4576101008083540402835291602001916103ff565b820191906000526020600020905b8154815290600101906020018083116103e257829003601f168201915b505050505081565b6000610414338484610747565b5060015b92915050565b60065460ff161561042e57600080fd5b6006805460ff19166001179055600880546001600160a01b039485166001600160a01b0319918216179091556009805493851693821693909317909255600a8054919093169116179055565b6000610487848484610828565b6001600160a01b0384166000908152600560209081526040808320338085529252909120546104c29186916104bd908690610f90565b610747565b5060019392505050565b6000610414328484610828565b6104e3338261090e565b50565b600860009054906101000a90046001600160a01b03166001600160a01b03166398fabd3a6040518163ffffffff1660e01b815260040160206040518083038186803b15801561053457600080fd5b505afa158015610548573d6000803e3d6000fd5b505050506040513d601f19601f8201168201806040525081019061056c9190610dcc565b6001600160a01b0316336001600160a01b0316146105bb5760405162461bcd60e51b81526020600482015260076024820152664e6f742044414f60c81b60448201526064015b60405180910390fd5b600755565b6001600160a01b03821660009081526005602090815260408083203384529091528120546105ef908390610f90565b90506105fc833383610747565b610606838361090e565b505050565b6001805461038690610fa7565b6000610418338361071d565b6000610414338484610828565b600754326000908152600b6020526040812054909143916106529190610f78565b1161065b575060015b90565b6008546000906106799033906001600160a01b031684610828565b60085460405163c30a0ce760e01b81526001600160a01b0385811660048301529091169063c30a0ce790602401602060405180830381600087803b1580156106c057600080fd5b505af11580156106d4573d6000803e3d6000fd5b505050506040513d601f19601f820116820180604052508101906106f89190610f0d565b326000908152600b602052604090204390559392505050565b6000610418338361065e565b600854600090610736906001600160a01b0316836109e5565b6107408383610b26565b9392505050565b6001600160a01b0383166107865760405162461bcd60e51b815260206004820152600660248201526539b2b73232b960d11b60448201526064016105b2565b6001600160a01b0382166107c65760405162461bcd60e51b815260206004820152600760248201526639b832b73232b960c91b60448201526064016105b2565b6001600160a01b0383811660008181526005602090815260408083209487168084529482529182902085905590518481527f8c5be1e5ebec7d5bd14f71427d1e84f3dd0314c0f7b2291e5b200ac8c7c3b92591015b60405180910390a3505050565b8015610606576001600160a01b03831661086d5760405162461bcd60e51b815260206004820152600660248201526539b2b73232b960d11b60448201526064016105b2565b6001600160a01b03831660009081526004602052604081208054839290610895908490610f90565b90915550506001600160a01b038216600090815260046020526040812080548392906108c2908490610f78565b92505081905550816001600160a01b0316836001600160a01b03167fddf252ad1be2c89b69c2b068fc378daa952ba7f163c4a11628f55a4df523b3ef8360405161081b91815260200190565b80156109e1576001600160a01b0382166109585760405162461bcd60e51b815260206004820152600b60248201526a30b2323932b9b99032b93960a91b60448201526064016105b2565b6001600160a01b03821660009081526004602052604081208054839290610980908490610f90565b9250508190555080600360008282546109999190610f90565b90915550506040518181526000906001600160a01b038416907fddf252ad1be2c89b69c2b068fc378daa952ba7f163c4a11628f55a4df523b3ef906020015b60405180910390a35b5050565b6001600160a01b038216301415610a0657610a01333083610828565b6109e1565b32331415610a97576040516302ccb1b360e41b8152306004820152602481018290526001600160a01b03831690632ccb1b3090604401602060405180830381600087803b158015610a5657600080fd5b505af1158015610a6a573d6000803e3d6000fd5b505050506040513d601f19601f82011682018060405250810190610a8e9190610ed5565b610a0157600080fd5b6040516323b872dd60e01b8152336004820152306024820152604481018290526001600160a01b038316906323b872dd90606401602060405180830381600087803b158015610ae557600080fd5b505af1158015610af9573d6000803e3d6000fd5b505050506040513d601f19601f82011682018060405250810190610b1d9190610ed5565b6109e157600080fd5b6000610b30610631565b610b675760405162461bcd60e51b815260206004820152600860248201526709cde40ccd8c2e6d60c31b60448201526064016105b2565b600860009054906101000a90046001600160a01b03166001600160a01b0316637dc2268c6040518163ffffffff1660e01b815260040160206040518083038186803b158015610bb557600080fd5b505afa158015610bc9573d6000803e3d6000fd5b505050506040513d601f19601f82011682018060405250810190610bed9190610ed5565b1561041857326000908152600b6020526040908190204390556008549051630852cd8d60e31b8152600481018490526001600160a01b03909116906342966c6890602401600060405180830381600087803b158015610c4b57600080fd5b505af1158015610c5f573d6000803e3d6000fd5b5050600a54604051632d26e9f960e11b8152600481018690526001600160a01b039091169250635a4dd3f2915060240160206040518083038186803b158015610ca757600080fd5b505afa158015610cbb573d6000803e3d6000fd5b505050506040513d601f19601f82011682018060405250810190610cdf9190610f0d565b9050610418838280156109e1576001600160a01b038216610d2e5760405162461bcd60e51b81526020600482015260096024820152681c9958da5c1a595b9d60ba1b60448201526064016105b2565b8060036000828254610d409190610f78565b90915550506001600160a01b03821660009081526004602052604081208054839290610d6d908490610f78565b90915550506040518181526001600160a01b038316906000907fddf252ad1be2c89b69c2b068fc378daa952ba7f163c4a11628f55a4df523b3ef906020016109d8565b600060208284031215610dc1578081fd5b813561074081610ff8565b600060208284031215610ddd578081fd5b815161074081610ff8565b60008060408385031215610dfa578081fd5b8235610e0581610ff8565b91506020830135610e1581610ff8565b809150509250929050565b600080600060608486031215610e34578081fd5b8335610e3f81610ff8565b92506020840135610e4f81610ff8565b91506040840135610e5f81610ff8565b809150509250925092565b600080600060608486031215610e7e578283fd5b8335610e8981610ff8565b92506020840135610e9981610ff8565b929592945050506040919091013590565b60008060408385031215610ebc578182fd5b8235610ec781610ff8565b946020939093013593505050565b600060208284031215610ee6578081fd5b81518015158114610740578182fd5b600060208284031215610f06578081fd5b5035919050565b600060208284031215610f1e578081fd5b5051919050565b6000602080835283518082850152825b81811015610f5157858101830151858201604001528201610f35565b81811115610f625783604083870101525b50601f01601f1916929092016040019392505050565b60008219821115610f8b57610f8b610fe2565b500190565b600082821015610fa257610fa2610fe2565b500390565b600181811c90821680610fbb57607f821691505b60208210811415610fdc57634e487b7160e01b600052602260045260246000fd5b50919050565b634e487b7160e01b600052601160045260246000fd5b6001600160a01b03811681146104e357600080fdfea2646970667358221220f339bc58d0b746f81555ed7407fe93abac608d432df8368617e1e5ee56f07a6064736f6c63430008030033",
  "linkReferences": {},
  "deployedLinkReferences": {}
}