{
  "_format": "hh-sol-artifact-1",
  "contractName": "USDV",
  "sourceName": "contracts/USDV.sol",
  "abi": [
    {
      "inputs": [],
      "stateMutability": "nonpayable",
      "type": "constructor"
    },
    {
      "anonymous": false,
      "inputs": [
        {
          "indexed": true,
          "internalType": "address",
          "name": "owner",
          "type": "address"
        },
        {
          "indexed": true,
          "internalType": "address",
          "name": "spender",
          "type": "address"
        },
        {
          "indexed": false,
          "internalType": "uint256",
          "name": "value",
          "type": "uint256"
        }
      ],
      "name": "Approval",
      "type": "event"
    },
    {
      "anonymous": false,
      "inputs": [
        {
          "indexed": true,
          "internalType": "address",
          "name": "token",
          "type": "address"
        },
        {
          "indexed": true,
          "internalType": "address",
          "name": "member",
          "type": "address"
        },
        {
          "indexed": false,
          "internalType": "uint256",
          "name": "newDeposit",
          "type": "uint256"
        },
        {
          "indexed": false,
          "internalType": "uint256",
          "name": "totalDeposit",
          "type": "uint256"
        },
        {
          "indexed": false,
          "internalType": "uint256",
          "name": "weight",
          "type": "uint256"
        },
        {
          "indexed": false,
          "internalType": "uint256",
          "name": "totalWeight",
          "type": "uint256"
        }
      ],
      "name": "MemberDeposits",
      "type": "event"
    },
    {
      "anonymous": false,
      "inputs": [
        {
          "indexed": true,
          "internalType": "address",
          "name": "token",
          "type": "address"
        },
        {
          "indexed": true,
          "internalType": "address",
          "name": "member",
          "type": "address"
        },
        {
          "indexed": false,
          "internalType": "uint256",
          "name": "amount",
          "type": "uint256"
        },
        {
          "indexed": false,
          "internalType": "uint256",
          "name": "weight",
          "type": "uint256"
        },
        {
          "indexed": false,
          "internalType": "uint256",
          "name": "totalWeight",
          "type": "uint256"
        }
      ],
      "name": "MemberHarvests",
      "type": "event"
    },
    {
      "anonymous": false,
      "inputs": [
        {
          "indexed": true,
          "internalType": "address",
          "name": "token",
          "type": "address"
        },
        {
          "indexed": true,
          "internalType": "address",
          "name": "member",
          "type": "address"
        },
        {
          "indexed": false,
          "internalType": "uint256",
          "name": "amount",
          "type": "uint256"
        },
        {
          "indexed": false,
          "internalType": "uint256",
          "name": "weight",
          "type": "uint256"
        },
        {
          "indexed": false,
          "internalType": "uint256",
          "name": "totalWeight",
          "type": "uint256"
        }
      ],
      "name": "MemberWithdraws",
      "type": "event"
    },
    {
      "anonymous": false,
      "inputs": [
        {
          "indexed": true,
          "internalType": "address",
          "name": "from",
          "type": "address"
        },
        {
          "indexed": true,
          "internalType": "address",
          "name": "to",
          "type": "address"
        },
        {
          "indexed": false,
          "internalType": "uint256",
          "name": "value",
          "type": "uint256"
        }
      ],
      "name": "Transfer",
      "type": "event"
    },
    {
      "inputs": [],
      "name": "DAO",
      "outputs": [
        {
          "internalType": "address",
          "name": "",
          "type": "address"
        }
      ],
      "stateMutability": "view",
      "type": "function"
    },
    {
      "inputs": [],
      "name": "ROUTER",
      "outputs": [
        {
          "internalType": "address",
          "name": "",
          "type": "address"
        }
      ],
      "stateMutability": "view",
      "type": "function"
    },
    {
      "inputs": [],
      "name": "UTILS",
      "outputs": [
        {
          "internalType": "address",
          "name": "",
          "type": "address"
        }
      ],
      "stateMutability": "view",
      "type": "function"
    },
    {
      "inputs": [],
      "name": "VADER",
      "outputs": [
        {
          "internalType": "address",
          "name": "",
          "type": "address"
        }
      ],
      "stateMutability": "view",
      "type": "function"
    },
    {
      "inputs": [],
      "name": "VAULT",
      "outputs": [
        {
          "internalType": "address",
          "name": "",
          "type": "address"
        }
      ],
      "stateMutability": "view",
      "type": "function"
    },
    {
      "inputs": [
        {
          "internalType": "address",
          "name": "owner",
          "type": "address"
        },
        {
          "internalType": "address",
          "name": "spender",
          "type": "address"
        }
      ],
      "name": "allowance",
      "outputs": [
        {
          "internalType": "uint256",
          "name": "",
          "type": "uint256"
        }
      ],
      "stateMutability": "view",
      "type": "function"
    },
    {
      "inputs": [
        {
          "internalType": "address",
          "name": "spender",
          "type": "address"
        },
        {
          "internalType": "uint256",
          "name": "amount",
          "type": "uint256"
        }
      ],
      "name": "approve",
      "outputs": [
        {
          "internalType": "bool",
          "name": "",
          "type": "bool"
        }
      ],
      "stateMutability": "nonpayable",
      "type": "function"
    },
    {
      "inputs": [
        {
          "internalType": "address",
          "name": "account",
          "type": "address"
        }
      ],
      "name": "balanceOf",
      "outputs": [
        {
          "internalType": "uint256",
          "name": "",
          "type": "uint256"
        }
      ],
      "stateMutability": "view",
      "type": "function"
    },
    {
      "inputs": [],
      "name": "blockDelay",
      "outputs": [
        {
          "internalType": "uint256",
          "name": "",
          "type": "uint256"
        }
      ],
      "stateMutability": "view",
      "type": "function"
    },
    {
      "inputs": [
        {
          "internalType": "uint256",
          "name": "amount",
          "type": "uint256"
        }
      ],
      "name": "burn",
      "outputs": [],
      "stateMutability": "nonpayable",
      "type": "function"
    },
    {
      "inputs": [
        {
          "internalType": "address",
          "name": "account",
          "type": "address"
        },
        {
          "internalType": "uint256",
          "name": "amount",
          "type": "uint256"
        }
      ],
      "name": "burnFrom",
      "outputs": [],
      "stateMutability": "nonpayable",
      "type": "function"
    },
    {
      "inputs": [
        {
          "internalType": "address",
          "name": "token",
          "type": "address"
        },
        {
          "internalType": "address",
          "name": "member",
          "type": "address"
        }
      ],
      "name": "calcCurrentPayment",
      "outputs": [
        {
          "internalType": "uint256",
          "name": "",
          "type": "uint256"
        }
      ],
      "stateMutability": "view",
      "type": "function"
    },
    {
      "inputs": [
        {
          "internalType": "address",
          "name": "member",
          "type": "address"
        }
      ],
      "name": "calcPayment",
      "outputs": [
        {
          "internalType": "uint256",
          "name": "",
          "type": "uint256"
        }
      ],
      "stateMutability": "view",
      "type": "function"
    },
    {
      "inputs": [
        {
          "internalType": "uint256",
          "name": "amount",
          "type": "uint256"
        }
      ],
      "name": "convert",
      "outputs": [
        {
          "internalType": "uint256",
          "name": "",
          "type": "uint256"
        }
      ],
      "stateMutability": "nonpayable",
      "type": "function"
    },
    {
      "inputs": [
        {
          "internalType": "address",
          "name": "member",
          "type": "address"
        },
        {
          "internalType": "uint256",
          "name": "amount",
          "type": "uint256"
        }
      ],
      "name": "convertForMember",
      "outputs": [
        {
          "internalType": "uint256",
          "name": "",
          "type": "uint256"
        }
      ],
      "stateMutability": "nonpayable",
      "type": "function"
    },
    {
      "inputs": [],
      "name": "currentEra",
      "outputs": [
        {
          "internalType": "uint256",
          "name": "",
          "type": "uint256"
        }
      ],
      "stateMutability": "view",
      "type": "function"
    },
    {
      "inputs": [],
      "name": "decimals",
      "outputs": [
        {
          "internalType": "uint256",
          "name": "",
          "type": "uint256"
        }
      ],
      "stateMutability": "view",
      "type": "function"
    },
    {
      "inputs": [
        {
          "internalType": "address",
          "name": "token",
          "type": "address"
        },
        {
          "internalType": "uint256",
          "name": "amount",
          "type": "uint256"
        }
      ],
      "name": "deposit",
      "outputs": [],
      "stateMutability": "nonpayable",
      "type": "function"
    },
    {
      "inputs": [
        {
          "internalType": "address",
          "name": "token",
          "type": "address"
        },
        {
          "internalType": "address",
          "name": "member",
          "type": "address"
        },
        {
          "internalType": "uint256",
          "name": "amount",
          "type": "uint256"
        }
      ],
      "name": "depositForMember",
      "outputs": [],
      "stateMutability": "nonpayable",
      "type": "function"
    },
    {
      "inputs": [],
      "name": "emitting",
      "outputs": [
        {
          "internalType": "bool",
          "name": "",
          "type": "bool"
        }
      ],
      "stateMutability": "view",
      "type": "function"
    },
    {
      "inputs": [],
      "name": "erasToEarn",
      "outputs": [
        {
          "internalType": "uint256",
          "name": "",
          "type": "uint256"
        }
      ],
      "stateMutability": "view",
      "type": "function"
    },
    {
      "inputs": [
        {
          "internalType": "address",
          "name": "token",
          "type": "address"
        },
        {
          "internalType": "address",
          "name": "member",
          "type": "address"
        }
      ],
      "name": "getMemberDeposit",
      "outputs": [
        {
          "internalType": "uint256",
          "name": "",
          "type": "uint256"
        }
      ],
      "stateMutability": "view",
      "type": "function"
    },
    {
      "inputs": [
        {
          "internalType": "address",
          "name": "token",
          "type": "address"
        },
        {
          "internalType": "address",
          "name": "member",
          "type": "address"
        }
      ],
      "name": "getMemberLastTime",
      "outputs": [
        {
          "internalType": "uint256",
          "name": "",
          "type": "uint256"
        }
      ],
      "stateMutability": "view",
      "type": "function"
    },
    {
      "inputs": [
        {
          "internalType": "address",
          "name": "token",
          "type": "address"
        },
        {
          "internalType": "address",
          "name": "member",
          "type": "address"
        }
      ],
      "name": "getMemberReward",
      "outputs": [
        {
          "internalType": "uint256",
          "name": "",
          "type": "uint256"
        }
      ],
      "stateMutability": "view",
      "type": "function"
    },
    {
      "inputs": [
        {
          "internalType": "address",
          "name": "member",
          "type": "address"
        }
      ],
      "name": "getMemberWeight",
      "outputs": [
        {
          "internalType": "uint256",
          "name": "",
          "type": "uint256"
        }
      ],
      "stateMutability": "view",
      "type": "function"
    },
    {
      "inputs": [
        {
          "internalType": "address",
          "name": "token",
          "type": "address"
        }
      ],
      "name": "getTokenDeposits",
      "outputs": [
        {
          "internalType": "uint256",
          "name": "",
          "type": "uint256"
        }
      ],
      "stateMutability": "view",
      "type": "function"
    },
    {
      "inputs": [
        {
          "internalType": "address",
          "name": "recipient",
          "type": "address"
        },
        {
          "internalType": "uint256",
          "name": "amount",
          "type": "uint256"
        }
      ],
      "name": "grant",
      "outputs": [],
      "stateMutability": "nonpayable",
      "type": "function"
    },
    {
      "inputs": [
        {
          "internalType": "address",
          "name": "token",
          "type": "address"
        }
      ],
      "name": "harvest",
      "outputs": [],
      "stateMutability": "nonpayable",
      "type": "function"
    },
    {
      "inputs": [
        {
          "internalType": "address",
          "name": "_vader",
          "type": "address"
        },
        {
          "internalType": "address",
          "name": "_router",
          "type": "address"
        },
        {
          "internalType": "address",
          "name": "_vault",
          "type": "address"
        }
      ],
      "name": "init",
      "outputs": [],
      "stateMutability": "nonpayable",
      "type": "function"
    },
    {
      "inputs": [],
      "name": "isMature",
      "outputs": [
        {
          "internalType": "bool",
          "name": "matured",
          "type": "bool"
        }
      ],
      "stateMutability": "view",
      "type": "function"
    },
    {
      "inputs": [
        {
          "internalType": "address",
          "name": "",
          "type": "address"
        }
      ],
      "name": "lastBlock",
      "outputs": [
        {
          "internalType": "uint256",
          "name": "",
          "type": "uint256"
        }
      ],
      "stateMutability": "view",
      "type": "function"
    },
    {
      "inputs": [],
      "name": "lastGranted",
      "outputs": [
        {
          "internalType": "uint256",
          "name": "",
          "type": "uint256"
        }
      ],
      "stateMutability": "view",
      "type": "function"
    },
    {
      "inputs": [],
      "name": "minGrantTime",
      "outputs": [
        {
          "internalType": "uint256",
          "name": "",
          "type": "uint256"
        }
      ],
      "stateMutability": "view",
      "type": "function"
    },
    {
      "inputs": [],
      "name": "minimumDepositTime",
      "outputs": [
        {
          "internalType": "uint256",
          "name": "",
          "type": "uint256"
        }
      ],
      "stateMutability": "view",
      "type": "function"
    },
    {
      "inputs": [],
      "name": "name",
      "outputs": [
        {
          "internalType": "string",
          "name": "",
          "type": "string"
        }
      ],
      "stateMutability": "view",
      "type": "function"
    },
    {
      "inputs": [],
      "name": "nextEraTime",
      "outputs": [
        {
          "internalType": "uint256",
          "name": "",
          "type": "uint256"
        }
      ],
      "stateMutability": "view",
      "type": "function"
    },
    {
      "inputs": [
        {
          "internalType": "uint256",
          "name": "amount",
          "type": "uint256"
        }
      ],
      "name": "redeem",
      "outputs": [
        {
          "internalType": "uint256",
          "name": "convertAmount",
          "type": "uint256"
        }
      ],
      "stateMutability": "nonpayable",
      "type": "function"
    },
    {
      "inputs": [
        {
          "internalType": "address",
          "name": "member",
          "type": "address"
        },
        {
          "internalType": "uint256",
          "name": "amount",
          "type": "uint256"
        }
      ],
      "name": "redeemForMember",
      "outputs": [
        {
          "internalType": "uint256",
          "name": "redeemAmount",
          "type": "uint256"
        }
      ],
      "stateMutability": "nonpayable",
      "type": "function"
    },
    {
      "inputs": [],
      "name": "reserveUSDV",
      "outputs": [
        {
          "internalType": "uint256",
          "name": "",
          "type": "uint256"
        }
      ],
      "stateMutability": "view",
      "type": "function"
    },
    {
      "inputs": [
        {
          "internalType": "uint256",
          "name": "_one",
          "type": "uint256"
        },
        {
          "internalType": "uint256",
          "name": "_two",
          "type": "uint256"
        },
        {
          "internalType": "uint256",
          "name": "_three",
          "type": "uint256"
        },
        {
          "internalType": "uint256",
          "name": "_four",
          "type": "uint256"
        }
      ],
      "name": "setParams",
      "outputs": [],
      "stateMutability": "nonpayable",
      "type": "function"
    },
    {
      "inputs": [],
      "name": "symbol",
      "outputs": [
        {
          "internalType": "string",
          "name": "",
          "type": "string"
        }
      ],
      "stateMutability": "view",
      "type": "function"
    },
    {
      "inputs": [],
      "name": "totalRewards",
      "outputs": [
        {
          "internalType": "uint256",
          "name": "",
          "type": "uint256"
        }
      ],
      "stateMutability": "view",
      "type": "function"
    },
    {
      "inputs": [],
      "name": "totalSupply",
      "outputs": [
        {
          "internalType": "uint256",
          "name": "",
          "type": "uint256"
        }
      ],
      "stateMutability": "view",
      "type": "function"
    },
    {
      "inputs": [],
      "name": "totalWeight",
      "outputs": [
        {
          "internalType": "uint256",
          "name": "",
          "type": "uint256"
        }
      ],
      "stateMutability": "view",
      "type": "function"
    },
    {
      "inputs": [
        {
          "internalType": "address",
          "name": "recipient",
          "type": "address"
        },
        {
          "internalType": "uint256",
          "name": "amount",
          "type": "uint256"
        }
      ],
      "name": "transfer",
      "outputs": [
        {
          "internalType": "bool",
          "name": "",
          "type": "bool"
        }
      ],
      "stateMutability": "nonpayable",
      "type": "function"
    },
    {
      "inputs": [
        {
          "internalType": "address",
          "name": "sender",
          "type": "address"
        },
        {
          "internalType": "address",
          "name": "recipient",
          "type": "address"
        },
        {
          "internalType": "uint256",
          "name": "amount",
          "type": "uint256"
        }
      ],
      "name": "transferFrom",
      "outputs": [
        {
          "internalType": "bool",
          "name": "",
          "type": "bool"
        }
      ],
      "stateMutability": "nonpayable",
      "type": "function"
    },
    {
      "inputs": [
        {
          "internalType": "address",
          "name": "recipient",
          "type": "address"
        },
        {
          "internalType": "uint256",
          "name": "amount",
          "type": "uint256"
        }
      ],
      "name": "transferTo",
      "outputs": [
        {
          "internalType": "bool",
          "name": "",
          "type": "bool"
        }
      ],
      "stateMutability": "nonpayable",
      "type": "function"
    },
    {
      "inputs": [
        {
          "internalType": "address",
          "name": "token",
          "type": "address"
        },
        {
          "internalType": "uint256",
          "name": "basisPoints",
          "type": "uint256"
        }
      ],
      "name": "withdraw",
      "outputs": [
        {
          "internalType": "uint256",
          "name": "redeemedAmount",
          "type": "uint256"
        }
      ],
      "stateMutability": "nonpayable",
      "type": "function"
    }
  ],
  "bytecode": "0x60806040523480156200001157600080fd5b506040805180820190915260138082527f564144455220535441424c4520444f4c4c4152000000000000000000000000006020909201918252620000589160009162000097565b50604080518082019091526004808252632aa9a22b60e11b6020909201918252620000869160019162000097565b50601260025560006003556200017a565b828054620000a5906200013d565b90600052602060002090601f016020900481019282620000c9576000855562000114565b82601f10620000e457805160ff191683800117855562000114565b8280016001018555821562000114579182015b8281111562000114578251825591602001919060010190620000f7565b506200012292915062000126565b5090565b5b8082111562000122576000815560010162000127565b600181811c908216806200015257607f821691505b602082108114156200017457634e487b7160e01b600052602260045260246000fd5b50919050565b61278a806200018a6000396000f3fe608060405234801561001057600080fd5b50600436106102a05760003560e01c80637b0e5c4511610167578063a9fbeb9a116100ce578063db006a7511610087578063db006a7514610604578063dd62ed3e14610617578063de6ad44e14610650578063f22454aa14610658578063f3fef3a314610661578063fbe521a014610674576102a0565b8063a9fbeb9a1461056a578063accb22e1146105a4578063ae4e7fdf146105cd578063bf58d0ef146105d5578063d2450e8f146105e8578063d98f6088146105fb576102a0565b8063973628f611610120578063973628f61461051757806398bc0e101461052057806398fabd3a14610533578063a3908e1b1461053b578063a4b82cb61461054e578063a9059cbb14610557576102a0565b80637b0e5c45146104915780637ece45e8146104995780638dfa9bcc146104ac578063952ca92c146104e657806395d89b411461050657806396c82e571461050e576102a0565b80632c07eebf1161020b57806342966c68116101c457806342966c68146103f357806347e7ef24146104065780635364df49146104195780636370920e1461044257806370a082311461045557806379cc67901461047e576102a0565b80632c07eebf146103955780632ccb1b301461039e578063313ce567146103b157806332fe7b26146103ba5780633855569b146103cd578063411557d1146103e0576102a0565b8063095ea7b31161025d578063095ea7b3146103355780630e15561a146103485780630e5c011e1461035157806318160ddd14610366578063184b95591461036f57806323b872dd14610382576102a0565b806301681315146102a557806302d0e1ae146102d5578063036e21e5146102f657806306fdde03146102ff5780630781f4d214610314578063090bbb011461032c575b600080fd5b600d546102b8906001600160a01b031681565b6040516001600160a01b0390911681526020015b60405180910390f35b6102e86102e33660046124bf565b610687565b6040519081526020016102cc565b6102e860105481565b6103076106b4565b6040516102cc919061262d565b61031c610742565b60405190151581526020016102cc565b6102e860085481565b61031c610343366004612581565b6107c5565b6102e860125481565b61036461035f366004612487565b6107db565b005b6102e860035481565b61036461037d3660046124f7565b610a20565b61031c610390366004612541565b610bbb565b6102e860095481565b61031c6103ac366004612581565b610c0d565b6102e860025481565b600e546102b8906001600160a01b031681565b6102e86103db3660046124bf565b610c1a565b600f546102b8906001600160a01b031681565b6103646104013660046125cc565b610d1c565b610364610414366004612581565b610d29565b6102e8610427366004612487565b6001600160a01b031660009081526014602052604090205490565b610364610450366004612581565b610d38565b6102e8610463366004612487565b6001600160a01b031660009081526004602052604090205490565b61036461048c366004612581565b610e3e565b6102b8610e89565b6103646104a73660046125fc565b610f06565b6102e86104ba3660046124bf565b6001600160a01b0380821660009081526015602090815260408083209386168352929052205492915050565b6102e86104f4366004612487565b60186020526000908152604090205481565b610307610f6c565b6102e860115481565b6102e860075481565b6102e861052e366004612487565b610f79565b6102b8611047565b6102e86105493660046125cc565b61108c565b6102e8600b5481565b61031c610565366004612581565b611098565b6102e86105783660046124bf565b6001600160a01b0380821660009081526016602090815260408083209386168352929052205492915050565b6102e86105b2366004612487565b6001600160a01b031660009081526013602052604090205490565b61031c6110a5565b6103646105e3366004612541565b6110d3565b6102e86105f6366004612581565b611182565b6102e8600c5481565b6102e86106123660046125cc565b611235565b6102e86106253660046124bf565b6001600160a01b03918216600090815260056020908152604080832093909416825291909152205490565b6102e8611241565b6102e8600a5481565b6102e861066f366004612581565b611276565b6102e8610682366004612581565b611298565b6001600160a01b038082166000908152601760209081526040808320938616835292905220545b92915050565b600080546106c1906126ee565b80601f01602080910402602001604051908101604052809291908181526020018280546106ed906126ee565b801561073a5780601f1061070f5761010080835404028352916020019161073a565b820191906000526020600020905b81548152906001019060200180831161071d57829003601f168201915b505050505081565b600d54604080516303c0fa6960e11b815290516000926001600160a01b031691630781f4d2916004808301926020929190829003018186803b15801561078757600080fd5b505afa15801561079b573d6000803e3d6000fd5b505050506040513d601f19601f820116820180604052508101906107bf91906125ac565b90505b90565b60006107d23384846112c2565b50600192915050565b3360006107e88383610c1a565b6001600160a01b038084166000818152601760209081526040808320948916808452948252808320429055928252601681528282209382529290925281208054929350839290919061083b908490612680565b9250508190555080601260008282546108549190612680565b90915550600090506001600160a01b03841630141561087457508061097e565b61087c610e89565b6001600160a01b031663db39dc79856001600160a01b03166382bfefc86040518163ffffffff1660e01b8152600401602060405180830381600087803b1580156108c557600080fd5b505af11580156108d9573d6000803e3d6000fd5b505050506040513d601f19601f820116820180604052508101906108fd91906124a3565b6040516001600160e01b031960e084901b1681526001600160a01b0390911660048201526024810185905260440160206040518083038186803b15801561094357600080fd5b505afa158015610957573d6000803e3d6000fd5b505050506040513d601f19601f8201168201806040525081019061097b91906125e4565b90505b6001600160a01b038316600090815260146020526040812080548392906109a6908490612680565b9250508190555080601160008282546109bf9190612680565b90915550506011546040805184815260208101849052908101919091526001600160a01b0380851691908616907f154ce75570debb840e085287bc6b1fd9f48fa7b08a5f2dd564b6a7592147d444906060015b60405180910390a350505050565b60065460ff1615610a3057600080fd5b6006805460ff19166001179055600d80546001600160a01b038581166001600160a01b03199283168117909355600e80548683169084168117909155600f8054928616929093169190911790915560405163095ea7b360e01b81526004810191909152600019602482015263095ea7b390604401602060405180830381600087803b158015610abe57600080fd5b505af1158015610ad2573d6000803e3d6000fd5b505050506040513d601f19601f82011682018060405250810190610af691906125ac565b50600e54610b119030906001600160a01b03166000196112c2565b6001600755600d54604080516335c951db60e11b815290516001600160a01b0390921691636b92a3b691600480820192602092909190829003018186803b158015610b5b57600080fd5b505afa158015610b6f573d6000803e3d6000fd5b505050506040513d601f19601f82011682018060405250810190610b9391906125e4565b610b9d9042612680565b600855505060646009555060016010556000600c5562278d00600a55565b6000610bc88484846113a2565b6001600160a01b038416600090815260056020908152604080832033808552925290912054610c03918691610bfe9086906126d7565b6112c2565b5060019392505050565b60006107d23284846113a2565b6001600160a01b0380821660009081526017602090815260408083209386168352929052908120548190610c4e90426126d7565b90506000610c5b84610f79565b90506000600d60009054906101000a90046001600160a01b03166001600160a01b0316636b92a3b66040518163ffffffff1660e01b815260040160206040518083038186803b158015610cad57600080fd5b505afa158015610cc1573d6000803e3d6000fd5b505050506040513d601f19601f82011682018060405250810190610ce591906125e4565b610cef84846126b8565b610cf99190612698565b90506000610d05611241565b9050808210610d12578091505b5095945050505050565b610d263382611492565b50565b610d348233836110d3565b5050565b610d40611047565b6001600160a01b0316336001600160a01b031614610d8f5760405162461bcd60e51b81526020600482015260076024820152664e6f742044414f60c81b60448201526064015b60405180910390fd5b600a610d99611241565b610da39190612698565b811115610de65760405162461bcd60e51b81526020600482015260116024820152706e6f74206d6f7265207468616e2031302560781b6044820152606401610d86565b600a54600b54610df690426126d7565b1015610e335760405162461bcd60e51b815260206004820152600c60248201526b1b9bdd081d1bdbc819985cdd60a21b6044820152606401610d86565b610d343083836113a2565b6001600160a01b0382166000908152600560209081526040808320338452909152812054610e6d9083906126d7565b9050610e7a8333836112c2565b610e848383611492565b505050565b600d5460408051637b0e5c4560e01b815290516000926001600160a01b031691637b0e5c45916004808301926020929190829003018186803b158015610ece57600080fd5b505afa158015610ee2573d6000803e3d6000fd5b505050506040513d601f19601f820116820180604052508101906107bf91906124a3565b610f0e611047565b6001600160a01b0316336001600160a01b031614610f585760405162461bcd60e51b81526020600482015260076024820152664e6f742044414f60c81b6044820152606401610d86565b600993909355601091909155600c55600a55565b600180546106c1906126ee565b6001600160a01b0381166000908152601460205260408120546009548290610f9f611241565b610fa99190612698565b9050610fb3610e89565b6011546040516306e8c9b160e21b8152600481018590526024810191909152604481018390526001600160a01b039190911690631ba326c49060640160206040518083038186803b15801561100757600080fd5b505afa15801561101b573d6000803e3d6000fd5b505050506040513d601f19601f8201168201806040525081019061103f91906125e4565b949350505050565b600d5460408051634c7d5e9d60e11b815290516000926001600160a01b0316916398fabd3a916004808301926020929190829003018186803b158015610ece57600080fd5b60006106ae3383611298565b60006107d23384846113a2565b600c5432600090815260186020526040812054909143916110c69190612680565b116107c2575060016107c2565b6001600160a01b0383163014806111645750600f54604051632f011bf560e11b81526001600160a01b03858116600483015290911690635e0237ea90602401602060405180830381600087803b15801561112c57600080fd5b505af1158015611140573d6000803e3d6000fd5b505050506040513d601f19601f8201168201806040525081019061116491906125ac565b61116d57600080fd5b6111778382611562565b610e848383836116a3565b600d5460009061119d9033906001600160a01b0316846113a2565b600d5460405163c30a0ce760e01b81526001600160a01b0385811660048301529091169063c30a0ce790602401602060405180830381600087803b1580156111e457600080fd5b505af11580156111f8573d6000803e3d6000fd5b505050506040513d601f19601f8201168201806040525081019061121c91906125e4565b3260009081526018602052604090204390559392505050565b60006106ae3383611182565b60125430600090815260136020908152604080832054600490925282205491929161126c91906126d7565b6107bf91906126d7565b6000336112848482856118f7565b9150611291848284611f86565b5092915050565b600d546000906112b1906001600160a01b031683611562565b6112bb8383612032565b9392505050565b6001600160a01b0383166113015760405162461bcd60e51b815260206004820152600660248201526539b2b73232b960d11b6044820152606401610d86565b6001600160a01b0382166113415760405162461bcd60e51b815260206004820152600760248201526639b832b73232b960c91b6044820152606401610d86565b6001600160a01b0383811660008181526005602090815260408083209487168084529482529182902085905590518481527f8c5be1e5ebec7d5bd14f71427d1e84f3dd0314c0f7b2291e5b200ac8c7c3b925910160405180910390a3505050565b6001600160a01b0383166113e15760405162461bcd60e51b815260206004820152600660248201526539b2b73232b960d11b6044820152606401610d86565b6001600160a01b038316600090815260046020526040812080548392906114099084906126d7565b90915550506001600160a01b03821660009081526004602052604081208054839290611436908490612680565b92505081905550816001600160a01b0316836001600160a01b03167fddf252ad1be2c89b69c2b068fc378daa952ba7f163c4a11628f55a4df523b3ef8360405161148291815260200190565b60405180910390a3610e8461216c565b6001600160a01b0382166114d65760405162461bcd60e51b815260206004820152600b60248201526a30b2323932b9b99032b93960a91b6044820152606401610d86565b6001600160a01b038216600090815260046020526040812080548392906114fe9084906126d7565b92505081905550806003600082825461151791906126d7565b90915550506040518181526000906001600160a01b038416907fddf252ad1be2c89b69c2b068fc378daa952ba7f163c4a11628f55a4df523b3ef906020015b60405180910390a35050565b6001600160a01b0382163014156115835761157e3330836113a2565b610d34565b32331415611614576040516302ccb1b360e41b8152306004820152602481018290526001600160a01b03831690632ccb1b3090604401602060405180830381600087803b1580156115d357600080fd5b505af11580156115e7573d6000803e3d6000fd5b505050506040513d601f19601f8201168201806040525081019061160b91906125ac565b61157e57600080fd5b6040516323b872dd60e01b8152336004820152306024820152604481018290526001600160a01b038316906323b872dd90606401602060405180830381600087803b15801561166257600080fd5b505af1158015611676573d6000803e3d6000fd5b505050506040513d601f19601f8201168201806040525081019061169a91906125ac565b610d3457600080fd5b6001600160a01b0380831660008181526017602090815260408083209488168084529482528083204290559282526015815282822093825292909252812080548392906116f1908490612680565b90915550600090506001600160a01b03841630141561171157508061181b565b611719610e89565b6001600160a01b031663db39dc79856001600160a01b03166382bfefc86040518163ffffffff1660e01b8152600401602060405180830381600087803b15801561176257600080fd5b505af1158015611776573d6000803e3d6000fd5b505050506040513d601f19601f8201168201806040525081019061179a91906124a3565b6040516001600160e01b031960e084901b1681526001600160a01b0390911660048201526024810185905260440160206040518083038186803b1580156117e057600080fd5b505afa1580156117f4573d6000803e3d6000fd5b505050506040513d601f19601f8201168201806040525081019061181891906125e4565b90505b6001600160a01b03841660009081526013602052604081208054849290611843908490612680565b90915550506001600160a01b03831660009081526014602052604081208054839290611870908490612680565b9250508190555080601160008282546118899190612680565b90915550506001600160a01b03848116600081815260136020908152604091829020546011548351888152928301919091529181018590526060810191909152918516917f1dd1c43aa39b8d6cee7dd1d16ed47e15a4a20f35b7ec9bc091c6c760fc9e148f90608001610a12565b6010546001600160a01b03808416600090815260176020908152604080832093881683529290529081205490919061192f90426126d7565b101561196b5760405162461bcd60e51b815260206004820152600b60248201526a4465706f73697454696d6560a81b6044820152606401610d86565b6001600160a01b038084166000908152601660209081526040808320938816835292905290812054612710906119a29085906126b8565b6119ac9190612698565b6001600160a01b038086166000908152601660209081526040808320938a168352929052908120805492935083929091906119e89084906126d7565b925050819055508060126000828254611a0191906126d7565b90915550506001600160a01b0385163014611bbe57600f5460405163a9059cbb60e01b81526001600160a01b039182166004820152602481018390529086169063a9059cbb90604401602060405180830381600087803b158015611a6457600080fd5b505af1158015611a78573d6000803e3d6000fd5b505050506040513d601f19601f82011682018060405250810190611a9c91906125ac565b50600f60009054906101000a90046001600160a01b03166001600160a01b031663d016347e30876001600160a01b03166382bfefc86040518163ffffffff1660e01b8152600401602060405180830381600087803b158015611afd57600080fd5b505af1158015611b11573d6000803e3d6000fd5b505050506040513d601f19601f82011682018060405250810190611b3591906124a3565b6040516001600160e01b031960e085901b1681526001600160a01b03928316600482015291166024820152306044820152606401602060405180830381600087803b158015611b8357600080fd5b505af1158015611b97573d6000803e3d6000fd5b505050506040513d601f19601f82011682018060405250810190611bbb91906125e4565b90505b6001600160a01b03808516600090815260156020908152604080832093891683529290529081205461271090611bf59086906126b8565b611bff9190612698565b6001600160a01b038087166000908152601560209081526040808320938b16835292905290812080549293508392909190611c3b9084906126d7565b90915550506001600160a01b03861660009081526013602052604081208054839290611c689084906126d7565b90915550600090506001600160a01b038716301415611c9257611c8b8383612680565b9050611da4565b611c9a610e89565b6001600160a01b031663db39dc79886001600160a01b03166382bfefc86040518163ffffffff1660e01b8152600401602060405180830381600087803b158015611ce357600080fd5b505af1158015611cf7573d6000803e3d6000fd5b505050506040513d601f19601f82011682018060405250810190611d1b91906124a3565b611d258686612680565b6040516001600160e01b031960e085901b1681526001600160a01b039092166004830152602482015260440160206040518083038186803b158015611d6957600080fd5b505afa158015611d7d573d6000803e3d6000fd5b505050506040513d601f19601f82011682018060405250810190611da191906125e4565b90505b611dac610e89565b6001600160a01b03878116600090815260146020526040908190205490516306e8c9b160e21b815260048101859052602481018290526044810191909152911690631ba326c49060640160206040518083038186803b158015611e0e57600080fd5b505afa158015611e22573d6000803e3d6000fd5b505050506040513d601f19601f82011682018060405250810190611e4691906125e4565b6001600160a01b03871660009081526014602052604081208054909190611e6e9084906126d7565b90915550611e7c9050610e89565b6011546040516306e8c9b160e21b8152600481018490526024810182905260448101919091526001600160a01b039190911690631ba326c49060640160206040518083038186803b158015611ed057600080fd5b505afa158015611ee4573d6000803e3d6000fd5b505050506040513d601f19601f82011682018060405250810190611f0891906125e4565b60116000828254611f1991906126d7565b9091555050601154604080518681526020810184905280820192909252516001600160a01b0388811692908a16917f28b0a5e71db5b0ceb9e9edc3f89a0763709f773d717a2dcfd7851977f805ea7a9181900360600190a3611f7b8383612680565b979650505050505050565b6001600160a01b038316301415611fa757611fa23083836113a2565b610e84565b60405163a9059cbb60e01b81526001600160a01b0383811660048301526024820183905284169063a9059cbb90604401602060405180830381600087803b158015611ff157600080fd5b505af1158015612005573d6000803e3d6000fd5b505050506040513d601f19601f8201168201806040525081019061202991906125ac565b610e8457600080fd5b600061203c6110a5565b6120735760405162461bcd60e51b815260206004820152600860248201526709cde40ccd8c2e6d60c31b6044820152606401610d86565b3260009081526018602052604090819020439055600d549051630852cd8d60e31b8152600481018490526001600160a01b03909116906342966c6890602401600060405180830381600087803b1580156120cc57600080fd5b505af11580156120e0573d6000803e3d6000fd5b5050600e54604051632d26e9f960e11b8152600481018690526001600160a01b039091169250635a4dd3f2915060240160206040518083038186803b15801561212857600080fd5b505afa15801561213c573d6000803e3d6000fd5b505050506040513d601f19601f8201168201806040525081019061216091906125e4565b90506106ae83826123aa565b60085442101580156121815750612181610742565b156123a8576001600760008282546121999190612680565b9091555050600d54604080516335c951db60e11b815290516001600160a01b0390921691636b92a3b691600480820192602092909190829003018186803b1580156121e357600080fd5b505afa1580156121f7573d6000803e3d6000fd5b505050506040513d601f19601f8201168201806040525081019061221b91906125e4565b6122259042612680565b600855600d546040516370a0823160e01b81523060048201526000916001600160a01b0316906370a082319060240160206040518083038186803b15801561226c57600080fd5b505afa158015612280573d6000803e3d6000fd5b505050506040513d601f19601f820116820180604052508101906122a491906125e4565b905060006122b18261246e565b90506122bd3082612032565b50600e54600d546040516370a0823160e01b81523060048201526001600160a01b039283169263a55bee2a9216906370a082319060240160206040518083038186803b15801561230c57600080fd5b505afa158015612320573d6000803e3d6000fd5b505050506040513d601f19601f8201168201806040525081019061234491906125e4565b61234f600285612698565b6040516001600160e01b031960e085901b16815260048101929092526024820152604401600060405180830381600087803b15801561238d57600080fd5b505af11580156123a1573d6000803e3d6000fd5b5050505050505b565b6001600160a01b0382166123ec5760405162461bcd60e51b81526020600482015260096024820152681c9958da5c1a595b9d60ba1b6044820152606401610d86565b80600360008282546123fe9190612680565b90915550506001600160a01b0382166000908152600460205260408120805483929061242b908490612680565b90915550506040518181526001600160a01b038316906000907fddf252ad1be2c89b69c2b068fc378daa952ba7f163c4a11628f55a4df523b3ef90602001611556565b6000600361247d8360026126b8565b6106ae9190612698565b600060208284031215612498578081fd5b81356112bb8161273f565b6000602082840312156124b4578081fd5b81516112bb8161273f565b600080604083850312156124d1578081fd5b82356124dc8161273f565b915060208301356124ec8161273f565b809150509250929050565b60008060006060848603121561250b578081fd5b83356125168161273f565b925060208401356125268161273f565b915060408401356125368161273f565b809150509250925092565b600080600060608486031215612555578283fd5b83356125608161273f565b925060208401356125708161273f565b929592945050506040919091013590565b60008060408385031215612593578182fd5b823561259e8161273f565b946020939093013593505050565b6000602082840312156125bd578081fd5b815180151581146112bb578182fd5b6000602082840312156125dd578081fd5b5035919050565b6000602082840312156125f5578081fd5b5051919050565b60008060008060808587031215612611578081fd5b5050823594602084013594506040840135936060013592509050565b6000602080835283518082850152825b818110156126595785810183015185820160400152820161263d565b8181111561266a5783604083870101525b50601f01601f1916929092016040019392505050565b6000821982111561269357612693612729565b500190565b6000826126b357634e487b7160e01b81526012600452602481fd5b500490565b60008160001904831182151516156126d2576126d2612729565b500290565b6000828210156126e9576126e9612729565b500390565b600181811c9082168061270257607f821691505b6020821081141561272357634e487b7160e01b600052602260045260246000fd5b50919050565b634e487b7160e01b600052601160045260246000fd5b6001600160a01b0381168114610d2657600080fdfea2646970667358221220c6fecf73e8d59ce9a500cb2ffb1d44d8eedb8a925e1cc940b4a89c2766bfd40564736f6c63430008030033",
  "linkReferences": {},
  "deployedLinkReferences": {}
}