{
  "_format": "hh-sol-artifact-1",
  "contractName": "USDV",
  "sourceName": "contracts/USDV.sol",
  "abi": [
    {
      "inputs": [],
      "stateMutability": "nonpayable",
      "type": "constructor"
    },
    {
      "anonymous": false,
      "inputs": [
        {
          "indexed": true,
          "internalType": "address",
          "name": "owner",
          "type": "address"
        },
        {
          "indexed": true,
          "internalType": "address",
          "name": "spender",
          "type": "address"
        },
        {
          "indexed": false,
          "internalType": "uint256",
          "name": "value",
          "type": "uint256"
        }
      ],
      "name": "Approval",
      "type": "event"
    },
    {
      "anonymous": false,
      "inputs": [
        {
          "indexed": true,
          "internalType": "address",
          "name": "from",
          "type": "address"
        },
        {
          "indexed": true,
          "internalType": "address",
          "name": "to",
          "type": "address"
        },
        {
          "indexed": false,
          "internalType": "uint256",
          "name": "value",
          "type": "uint256"
        }
      ],
      "name": "Transfer",
      "type": "event"
    },
    {
      "inputs": [],
      "name": "VADER",
      "outputs": [
        {
          "internalType": "address",
          "name": "",
          "type": "address"
        }
      ],
      "stateMutability": "view",
      "type": "function"
    },
    {
      "inputs": [
        {
          "internalType": "address",
          "name": "owner",
          "type": "address"
        },
        {
          "internalType": "address",
          "name": "spender",
          "type": "address"
        }
      ],
      "name": "allowance",
      "outputs": [
        {
          "internalType": "uint256",
          "name": "",
          "type": "uint256"
        }
      ],
      "stateMutability": "view",
      "type": "function"
    },
    {
      "inputs": [
        {
          "internalType": "address",
          "name": "spender",
          "type": "address"
        },
        {
          "internalType": "uint256",
          "name": "amount",
          "type": "uint256"
        }
      ],
      "name": "approve",
      "outputs": [
        {
          "internalType": "bool",
          "name": "",
          "type": "bool"
        }
      ],
      "stateMutability": "nonpayable",
      "type": "function"
    },
    {
      "inputs": [
        {
          "internalType": "address",
          "name": "account",
          "type": "address"
        }
      ],
      "name": "balanceOf",
      "outputs": [
        {
          "internalType": "uint256",
          "name": "",
          "type": "uint256"
        }
      ],
      "stateMutability": "view",
      "type": "function"
    },
    {
      "inputs": [],
      "name": "blockDelay",
      "outputs": [
        {
          "internalType": "uint256",
          "name": "",
          "type": "uint256"
        }
      ],
      "stateMutability": "view",
      "type": "function"
    },
    {
      "inputs": [
        {
          "internalType": "uint256",
          "name": "amount",
          "type": "uint256"
        }
      ],
      "name": "burn",
      "outputs": [],
      "stateMutability": "nonpayable",
      "type": "function"
    },
    {
      "inputs": [
        {
          "internalType": "address",
          "name": "account",
          "type": "address"
        },
        {
          "internalType": "uint256",
          "name": "amount",
          "type": "uint256"
        }
      ],
      "name": "burnFrom",
      "outputs": [],
      "stateMutability": "nonpayable",
      "type": "function"
    },
    {
      "inputs": [
        {
          "internalType": "uint256",
          "name": "amount",
          "type": "uint256"
        }
      ],
      "name": "convert",
      "outputs": [
        {
          "internalType": "uint256",
          "name": "",
          "type": "uint256"
        }
      ],
      "stateMutability": "nonpayable",
      "type": "function"
    },
    {
      "inputs": [
        {
          "internalType": "address",
          "name": "member",
          "type": "address"
        },
        {
          "internalType": "uint256",
          "name": "amount",
          "type": "uint256"
        }
      ],
      "name": "convertForMember",
      "outputs": [
        {
          "internalType": "uint256",
          "name": "",
          "type": "uint256"
        }
      ],
      "stateMutability": "nonpayable",
      "type": "function"
    },
    {
      "inputs": [],
      "name": "decimals",
      "outputs": [
        {
          "internalType": "uint256",
          "name": "",
          "type": "uint256"
        }
      ],
      "stateMutability": "view",
      "type": "function"
    },
    {
      "inputs": [
        {
          "internalType": "address",
          "name": "_vader",
          "type": "address"
        }
      ],
      "name": "init",
      "outputs": [],
      "stateMutability": "nonpayable",
      "type": "function"
    },
    {
      "inputs": [],
      "name": "isMature",
      "outputs": [
        {
          "internalType": "bool",
          "name": "isMatured",
          "type": "bool"
        }
      ],
      "stateMutability": "view",
      "type": "function"
    },
    {
      "inputs": [
        {
          "internalType": "address",
          "name": "",
          "type": "address"
        }
      ],
      "name": "lastBlock",
      "outputs": [
        {
          "internalType": "uint256",
          "name": "",
          "type": "uint256"
        }
      ],
      "stateMutability": "view",
      "type": "function"
    },
    {
      "inputs": [],
      "name": "name",
      "outputs": [
        {
          "internalType": "string",
          "name": "",
          "type": "string"
        }
      ],
      "stateMutability": "view",
      "type": "function"
    },
    {
      "inputs": [
        {
          "internalType": "uint256",
          "name": "amount",
          "type": "uint256"
        }
      ],
      "name": "redeem",
      "outputs": [
        {
          "internalType": "uint256",
          "name": "",
          "type": "uint256"
        }
      ],
      "stateMutability": "nonpayable",
      "type": "function"
    },
    {
      "inputs": [
        {
          "internalType": "address",
          "name": "member",
          "type": "address"
        },
        {
          "internalType": "uint256",
          "name": "amount",
          "type": "uint256"
        }
      ],
      "name": "redeemForMember",
      "outputs": [
        {
          "internalType": "uint256",
          "name": "redeemAmount",
          "type": "uint256"
        }
      ],
      "stateMutability": "nonpayable",
      "type": "function"
    },
    {
      "inputs": [
        {
          "internalType": "uint256",
          "name": "newDelay",
          "type": "uint256"
        }
      ],
      "name": "setParams",
      "outputs": [],
      "stateMutability": "nonpayable",
      "type": "function"
    },
    {
      "inputs": [],
      "name": "symbol",
      "outputs": [
        {
          "internalType": "string",
          "name": "",
          "type": "string"
        }
      ],
      "stateMutability": "view",
      "type": "function"
    },
    {
      "inputs": [],
      "name": "totalSupply",
      "outputs": [
        {
          "internalType": "uint256",
          "name": "",
          "type": "uint256"
        }
      ],
      "stateMutability": "view",
      "type": "function"
    },
    {
      "inputs": [
        {
          "internalType": "address",
          "name": "recipient",
          "type": "address"
        },
        {
          "internalType": "uint256",
          "name": "amount",
          "type": "uint256"
        }
      ],
      "name": "transfer",
      "outputs": [
        {
          "internalType": "bool",
          "name": "",
          "type": "bool"
        }
      ],
      "stateMutability": "nonpayable",
      "type": "function"
    },
    {
      "inputs": [
        {
          "internalType": "address",
          "name": "sender",
          "type": "address"
        },
        {
          "internalType": "address",
          "name": "recipient",
          "type": "address"
        },
        {
          "internalType": "uint256",
          "name": "amount",
          "type": "uint256"
        }
      ],
      "name": "transferFrom",
      "outputs": [
        {
          "internalType": "bool",
          "name": "",
          "type": "bool"
        }
      ],
      "stateMutability": "nonpayable",
      "type": "function"
    },
    {
      "inputs": [
        {
          "internalType": "address",
          "name": "recipient",
          "type": "address"
        },
        {
          "internalType": "uint256",
          "name": "amount",
          "type": "uint256"
        }
      ],
      "name": "transferTo",
      "outputs": [
        {
          "internalType": "bool",
          "name": "",
          "type": "bool"
        }
      ],
      "stateMutability": "nonpayable",
      "type": "function"
    }
  ],
  "bytecode": "0x608060405234801561001057600080fd5b5061106c806100206000396000f3fe608060405234801561001057600080fd5b50600436106101425760003560e01c806379cc6790116100b8578063ae4e7fdf1161007c578063ae4e7fdf146102fe578063d2450e8f14610306578063d98f608814610319578063db006a7514610322578063dd62ed3e14610335578063fbe521a01461036e57610142565b806379cc679014610282578063952ca92c1461029557806395d89b41146102b5578063a3908e1b146102d8578063a9059cbb146102eb57610142565b806323b872dd1161010a57806323b872dd146102055780632ccb1b3014610218578063313ce5671461022b57806342966c681461023357806359ded2101461024657806370a082311461025957610142565b8063016813151461014757806306fdde0314610177578063095ea7b3146101b657806318160ddd146101d957806319ab453c146101f0575b600080fd5b60045461015a906001600160a01b031681565b6040516001600160a01b0390911681526020015b60405180910390f35b6101a9604051806040016040528060138152602001722b20a222a91029aa20a12622902227a62620a960691b81525081565b60405161016e9190610f89565b6101c96101c4366004610f0e565b610381565b604051901515815260200161016e565b6101e260005481565b60405190815260200161016e565b6102036101fe366004610e5e565b610398565b005b6101c9610213366004610ece565b6103c7565b6101c9610226366004610f0e565b610446565b6101e2601281565b610203610241366004610f59565b610453565b610203610254366004610f59565b61045d565b6101e2610267366004610e5e565b6001600160a01b031660009081526001602052604090205490565b610203610290366004610f0e565b6104dc565b6101e26102a3366004610e5e565b60056020526000908152604090205481565b6101a9604051806040016040528060048152602001632aa9a22b60e11b81525081565b6101e26102e6366004610f59565b610527565b6101c96102f9366004610f0e565b610533565b6101c9610540565b6101e2610314366004610f0e565b61056d565b6101e260035481565b6101e2610330366004610f59565b610622565b6101e2610343366004610e96565b6001600160a01b03918216600090815260026020908152604080832093909416825291909152205490565b6101e261037c366004610f0e565b61062e565b600061038e338484610658565b5060015b92915050565b6004546001600160a01b03166103c457600480546001600160a01b0319166001600160a01b0383161790555b50565b60006103d4848484610739565b6001600160a01b0384166000908152600260209081526040808320338452909152902054600019111561043c576001600160a01b03841660009081526002602090815260408083203380855292529091205461043c918691610437908690610ff4565b610658565b5060019392505050565b600061038e328484610739565b6103c4338261081f565b6104656108f5565b6001600160a01b0316336001600160a01b0316148061049c5750610487610982565b6001600160a01b0316336001600160a01b0316145b6104d75760405162461bcd60e51b81526020600482015260076024820152664e6f742044414f60c81b60448201526064015b60405180910390fd5b600355565b6001600160a01b038216600090815260026020908152604080832033845290915281205461050b908390610ff4565b9050610518833383610658565b610522838361081f565b505050565b6000610392338361062e565b600061038e338484610739565b60035432600090815260056020526040812054909143916105619190610fdc565b1161056a575060015b90565b6004546000906105889033906001600160a01b031684610739565b6004805460405163c30a0ce760e01b81526001600160a01b038681169382019390935291169063c30a0ce790602401602060405180830381600087803b1580156105d157600080fd5b505af11580156105e5573d6000803e3d6000fd5b505050506040513d601f19601f820116820180604052508101906106099190610f71565b3260009081526005602052604090204390559392505050565b6000610392338361056d565b600454600090610647906001600160a01b0316836109d2565b6106518383610b13565b9392505050565b6001600160a01b0383166106975760405162461bcd60e51b815260206004820152600660248201526539b2b73232b960d11b60448201526064016104ce565b6001600160a01b0382166106d75760405162461bcd60e51b815260206004820152600760248201526639b832b73232b960c91b60448201526064016104ce565b6001600160a01b0383811660008181526002602090815260408083209487168084529482529182902085905590518481527f8c5be1e5ebec7d5bd14f71427d1e84f3dd0314c0f7b2291e5b200ac8c7c3b92591015b60405180910390a3505050565b8015610522576001600160a01b03831661077e5760405162461bcd60e51b815260206004820152600660248201526539b2b73232b960d11b60448201526064016104ce565b6001600160a01b038316600090815260016020526040812080548392906107a6908490610ff4565b90915550506001600160a01b038216600090815260016020526040812080548392906107d3908490610fdc565b92505081905550816001600160a01b0316836001600160a01b03167fddf252ad1be2c89b69c2b068fc378daa952ba7f163c4a11628f55a4df523b3ef8360405161072c91815260200190565b80156108f1576001600160a01b0382166108695760405162461bcd60e51b815260206004820152600b60248201526a30b2323932b9b99032b93960a91b60448201526064016104ce565b6001600160a01b03821660009081526001602052604081208054839290610891908490610ff4565b92505081905550806000808282546108a99190610ff4565b90915550506040518181526000906001600160a01b038416907fddf252ad1be2c89b69c2b068fc378daa952ba7f163c4a11628f55a4df523b3ef906020015b60405180910390a35b5050565b6000600460009054906101000a90046001600160a01b03166001600160a01b03166398fabd3a6040518163ffffffff1660e01b815260040160206040518083038186803b15801561094557600080fd5b505afa158015610959573d6000803e3d6000fd5b505050506040513d601f19601f8201168201806040525081019061097d9190610e7a565b905090565b6000600460009054906101000a90046001600160a01b03166001600160a01b031663c1b8411a6040518163ffffffff1660e01b815260040160206040518083038186803b15801561094557600080fd5b6001600160a01b0382163014156109f3576109ee333083610739565b6108f1565b32331415610a84576040516302ccb1b360e41b8152306004820152602481018290526001600160a01b03831690632ccb1b3090604401602060405180830381600087803b158015610a4357600080fd5b505af1158015610a57573d6000803e3d6000fd5b505050506040513d601f19601f82011682018060405250810190610a7b9190610f39565b6109ee57600080fd5b6040516323b872dd60e01b8152336004820152306024820152604481018290526001600160a01b038316906323b872dd90606401602060405180830381600087803b158015610ad257600080fd5b505af1158015610ae6573d6000803e3d6000fd5b505050506040513d601f19601f82011682018060405250810190610b0a9190610f39565b6108f157600080fd5b6000610b1d610540565b610b545760405162461bcd60e51b815260206004820152600860248201526709cde40ccd8c2e6d60c31b60448201526064016104ce565b6004805460408051631f7089a360e21b815290516001600160a01b0390921692637dc2268c928282019260209290829003018186803b158015610b9657600080fd5b505afa158015610baa573d6000803e3d6000fd5b505050506040513d601f19601f82011682018060405250810190610bce9190610f39565b15610392573260009081526005602052604090819020439055600480549151630852cd8d60e31b81529081018490526001600160a01b03909116906342966c6890602401600060405180830381600087803b158015610c2c57600080fd5b505af1158015610c40573d6000803e3d6000fd5b50505050610c4c610cd5565b6001600160a01b0316635a4dd3f2836040518263ffffffff1660e01b8152600401610c7991815260200190565b60206040518083038186803b158015610c9157600080fd5b505afa158015610ca5573d6000803e3d6000fd5b505050506040513d601f19601f82011682018060405250810190610cc99190610f71565b90506103928382610d95565b6000600460009054906101000a90046001600160a01b03166001600160a01b03166398fabd3a6040518163ffffffff1660e01b815260040160206040518083038186803b158015610d2557600080fd5b505afa158015610d39573d6000803e3d6000fd5b505050506040513d601f19601f82011682018060405250810190610d5d9190610e7a565b6001600160a01b03166332fe7b266040518163ffffffff1660e01b815260040160206040518083038186803b15801561094557600080fd5b80156108f1576001600160a01b038216610ddd5760405162461bcd60e51b81526020600482015260096024820152681c9958da5c1a595b9d60ba1b60448201526064016104ce565b80600080828254610dee9190610fdc565b90915550506001600160a01b03821660009081526001602052604081208054839290610e1b908490610fdc565b90915550506040518181526001600160a01b038316906000907fddf252ad1be2c89b69c2b068fc378daa952ba7f163c4a11628f55a4df523b3ef906020016108e8565b600060208284031215610e6f578081fd5b813561065181611021565b600060208284031215610e8b578081fd5b815161065181611021565b60008060408385031215610ea8578081fd5b8235610eb381611021565b91506020830135610ec381611021565b809150509250929050565b600080600060608486031215610ee2578081fd5b8335610eed81611021565b92506020840135610efd81611021565b929592945050506040919091013590565b60008060408385031215610f20578182fd5b8235610f2b81611021565b946020939093013593505050565b600060208284031215610f4a578081fd5b81518015158114610651578182fd5b600060208284031215610f6a578081fd5b5035919050565b600060208284031215610f82578081fd5b5051919050565b6000602080835283518082850152825b81811015610fb557858101830151858201604001528201610f99565b81811115610fc65783604083870101525b50601f01601f1916929092016040019392505050565b60008219821115610fef57610fef61100b565b500190565b6000828210156110065761100661100b565b500390565b634e487b7160e01b600052601160045260246000fd5b6001600160a01b03811681146103c457600080fdfea2646970667358221220c9d393c42d642cf9fd8be03dc2d8fc08998b7efd0acc1071fa5cd92a6750950e64736f6c63430008030033",
  "linkReferences": {},
  "deployedLinkReferences": {}
}