{
  "_format": "hh-sol-artifact-1",
  "contractName": "USDV",
  "sourceName": "contracts/USDV.sol",
  "abi": [
    {
      "inputs": [],
      "stateMutability": "nonpayable",
      "type": "constructor"
    },
    {
      "anonymous": false,
      "inputs": [
        {
          "indexed": true,
          "internalType": "address",
          "name": "owner",
          "type": "address"
        },
        {
          "indexed": true,
          "internalType": "address",
          "name": "spender",
          "type": "address"
        },
        {
          "indexed": false,
          "internalType": "uint256",
          "name": "value",
          "type": "uint256"
        }
      ],
      "name": "Approval",
      "type": "event"
    },
    {
      "anonymous": false,
      "inputs": [
        {
          "indexed": true,
          "internalType": "address",
          "name": "token",
          "type": "address"
        },
        {
          "indexed": true,
          "internalType": "address",
          "name": "member",
          "type": "address"
        },
        {
          "indexed": false,
          "internalType": "uint256",
          "name": "newDeposit",
          "type": "uint256"
        },
        {
          "indexed": false,
          "internalType": "uint256",
          "name": "totalDeposit",
          "type": "uint256"
        },
        {
          "indexed": false,
          "internalType": "uint256",
          "name": "weight",
          "type": "uint256"
        },
        {
          "indexed": false,
          "internalType": "uint256",
          "name": "totalWeight",
          "type": "uint256"
        }
      ],
      "name": "MemberDeposits",
      "type": "event"
    },
    {
      "anonymous": false,
      "inputs": [
        {
          "indexed": true,
          "internalType": "address",
          "name": "token",
          "type": "address"
        },
        {
          "indexed": true,
          "internalType": "address",
          "name": "member",
          "type": "address"
        },
        {
          "indexed": false,
          "internalType": "uint256",
          "name": "amount",
          "type": "uint256"
        },
        {
          "indexed": false,
          "internalType": "uint256",
          "name": "weight",
          "type": "uint256"
        },
        {
          "indexed": false,
          "internalType": "uint256",
          "name": "totalWeight",
          "type": "uint256"
        }
      ],
      "name": "MemberHarvests",
      "type": "event"
    },
    {
      "anonymous": false,
      "inputs": [
        {
          "indexed": true,
          "internalType": "address",
          "name": "token",
          "type": "address"
        },
        {
          "indexed": true,
          "internalType": "address",
          "name": "member",
          "type": "address"
        },
        {
          "indexed": false,
          "internalType": "uint256",
          "name": "amount",
          "type": "uint256"
        },
        {
          "indexed": false,
          "internalType": "uint256",
          "name": "weight",
          "type": "uint256"
        },
        {
          "indexed": false,
          "internalType": "uint256",
          "name": "totalWeight",
          "type": "uint256"
        }
      ],
      "name": "MemberWithdraws",
      "type": "event"
    },
    {
      "anonymous": false,
      "inputs": [
        {
          "indexed": true,
          "internalType": "address",
          "name": "from",
          "type": "address"
        },
        {
          "indexed": true,
          "internalType": "address",
          "name": "to",
          "type": "address"
        },
        {
          "indexed": false,
          "internalType": "uint256",
          "name": "value",
          "type": "uint256"
        }
      ],
      "name": "Transfer",
      "type": "event"
    },
    {
      "inputs": [],
      "name": "DAO",
      "outputs": [
        {
          "internalType": "address",
          "name": "",
          "type": "address"
        }
      ],
      "stateMutability": "view",
      "type": "function"
    },
    {
      "inputs": [],
      "name": "ROUTER",
      "outputs": [
        {
          "internalType": "address",
          "name": "",
          "type": "address"
        }
      ],
      "stateMutability": "view",
      "type": "function"
    },
    {
      "inputs": [],
      "name": "UTILS",
      "outputs": [
        {
          "internalType": "address",
          "name": "",
          "type": "address"
        }
      ],
      "stateMutability": "view",
      "type": "function"
    },
    {
      "inputs": [],
      "name": "VADER",
      "outputs": [
        {
          "internalType": "address",
          "name": "",
          "type": "address"
        }
      ],
      "stateMutability": "view",
      "type": "function"
    },
    {
      "inputs": [],
      "name": "VAULT",
      "outputs": [
        {
          "internalType": "address",
          "name": "",
          "type": "address"
        }
      ],
      "stateMutability": "view",
      "type": "function"
    },
    {
      "inputs": [
        {
          "internalType": "address",
          "name": "owner",
          "type": "address"
        },
        {
          "internalType": "address",
          "name": "spender",
          "type": "address"
        }
      ],
      "name": "allowance",
      "outputs": [
        {
          "internalType": "uint256",
          "name": "",
          "type": "uint256"
        }
      ],
      "stateMutability": "view",
      "type": "function"
    },
    {
      "inputs": [
        {
          "internalType": "address",
          "name": "spender",
          "type": "address"
        },
        {
          "internalType": "uint256",
          "name": "amount",
          "type": "uint256"
        }
      ],
      "name": "approve",
      "outputs": [
        {
          "internalType": "bool",
          "name": "",
          "type": "bool"
        }
      ],
      "stateMutability": "nonpayable",
      "type": "function"
    },
    {
      "inputs": [
        {
          "internalType": "address",
          "name": "account",
          "type": "address"
        }
      ],
      "name": "balanceOf",
      "outputs": [
        {
          "internalType": "uint256",
          "name": "",
          "type": "uint256"
        }
      ],
      "stateMutability": "view",
      "type": "function"
    },
    {
      "inputs": [],
      "name": "blockDelay",
      "outputs": [
        {
          "internalType": "uint256",
          "name": "",
          "type": "uint256"
        }
      ],
      "stateMutability": "view",
      "type": "function"
    },
    {
      "inputs": [
        {
          "internalType": "uint256",
          "name": "amount",
          "type": "uint256"
        }
      ],
      "name": "burn",
      "outputs": [],
      "stateMutability": "nonpayable",
      "type": "function"
    },
    {
      "inputs": [
        {
          "internalType": "address",
          "name": "account",
          "type": "address"
        },
        {
          "internalType": "uint256",
          "name": "amount",
          "type": "uint256"
        }
      ],
      "name": "burnFrom",
      "outputs": [],
      "stateMutability": "nonpayable",
      "type": "function"
    },
    {
      "inputs": [
        {
          "internalType": "address",
          "name": "token",
          "type": "address"
        },
        {
          "internalType": "address",
          "name": "member",
          "type": "address"
        }
      ],
      "name": "calcCurrentReward",
      "outputs": [
        {
          "internalType": "uint256",
          "name": "_reward",
          "type": "uint256"
        }
      ],
      "stateMutability": "view",
      "type": "function"
    },
    {
      "inputs": [
        {
          "internalType": "address",
          "name": "member",
          "type": "address"
        }
      ],
      "name": "calcReward",
      "outputs": [
        {
          "internalType": "uint256",
          "name": "",
          "type": "uint256"
        }
      ],
      "stateMutability": "view",
      "type": "function"
    },
    {
      "inputs": [
        {
          "internalType": "uint256",
          "name": "amount",
          "type": "uint256"
        }
      ],
      "name": "convert",
      "outputs": [
        {
          "internalType": "uint256",
          "name": "",
          "type": "uint256"
        }
      ],
      "stateMutability": "nonpayable",
      "type": "function"
    },
    {
      "inputs": [
        {
          "internalType": "address",
          "name": "member",
          "type": "address"
        },
        {
          "internalType": "uint256",
          "name": "amount",
          "type": "uint256"
        }
      ],
      "name": "convertForMember",
      "outputs": [
        {
          "internalType": "uint256",
          "name": "",
          "type": "uint256"
        }
      ],
      "stateMutability": "nonpayable",
      "type": "function"
    },
    {
      "inputs": [],
      "name": "currentEra",
      "outputs": [
        {
          "internalType": "uint256",
          "name": "",
          "type": "uint256"
        }
      ],
      "stateMutability": "view",
      "type": "function"
    },
    {
      "inputs": [],
      "name": "decimals",
      "outputs": [
        {
          "internalType": "uint256",
          "name": "",
          "type": "uint256"
        }
      ],
      "stateMutability": "view",
      "type": "function"
    },
    {
      "inputs": [
        {
          "internalType": "address",
          "name": "token",
          "type": "address"
        },
        {
          "internalType": "uint256",
          "name": "amount",
          "type": "uint256"
        }
      ],
      "name": "deposit",
      "outputs": [],
      "stateMutability": "nonpayable",
      "type": "function"
    },
    {
      "inputs": [
        {
          "internalType": "address",
          "name": "token",
          "type": "address"
        },
        {
          "internalType": "address",
          "name": "member",
          "type": "address"
        },
        {
          "internalType": "uint256",
          "name": "amount",
          "type": "uint256"
        }
      ],
      "name": "depositForMember",
      "outputs": [],
      "stateMutability": "nonpayable",
      "type": "function"
    },
    {
      "inputs": [],
      "name": "emitting",
      "outputs": [
        {
          "internalType": "bool",
          "name": "",
          "type": "bool"
        }
      ],
      "stateMutability": "view",
      "type": "function"
    },
    {
      "inputs": [],
      "name": "erasToEarn",
      "outputs": [
        {
          "internalType": "uint256",
          "name": "",
          "type": "uint256"
        }
      ],
      "stateMutability": "view",
      "type": "function"
    },
    {
      "inputs": [
        {
          "internalType": "address",
          "name": "token",
          "type": "address"
        },
        {
          "internalType": "address",
          "name": "member",
          "type": "address"
        }
      ],
      "name": "getMemberDeposit",
      "outputs": [
        {
          "internalType": "uint256",
          "name": "",
          "type": "uint256"
        }
      ],
      "stateMutability": "view",
      "type": "function"
    },
    {
      "inputs": [
        {
          "internalType": "address",
          "name": "token",
          "type": "address"
        },
        {
          "internalType": "address",
          "name": "member",
          "type": "address"
        }
      ],
      "name": "getMemberLastTime",
      "outputs": [
        {
          "internalType": "uint256",
          "name": "",
          "type": "uint256"
        }
      ],
      "stateMutability": "view",
      "type": "function"
    },
    {
      "inputs": [
        {
          "internalType": "address",
          "name": "token",
          "type": "address"
        },
        {
          "internalType": "address",
          "name": "member",
          "type": "address"
        }
      ],
      "name": "getMemberReward",
      "outputs": [
        {
          "internalType": "uint256",
          "name": "",
          "type": "uint256"
        }
      ],
      "stateMutability": "view",
      "type": "function"
    },
    {
      "inputs": [
        {
          "internalType": "address",
          "name": "member",
          "type": "address"
        }
      ],
      "name": "getMemberWeight",
      "outputs": [
        {
          "internalType": "uint256",
          "name": "",
          "type": "uint256"
        }
      ],
      "stateMutability": "view",
      "type": "function"
    },
    {
      "inputs": [
        {
          "internalType": "address",
          "name": "token",
          "type": "address"
        }
      ],
      "name": "getTokenDeposits",
      "outputs": [
        {
          "internalType": "uint256",
          "name": "",
          "type": "uint256"
        }
      ],
      "stateMutability": "view",
      "type": "function"
    },
    {
      "inputs": [
        {
          "internalType": "address",
          "name": "recipient",
          "type": "address"
        },
        {
          "internalType": "uint256",
          "name": "amount",
          "type": "uint256"
        }
      ],
      "name": "grant",
      "outputs": [],
      "stateMutability": "nonpayable",
      "type": "function"
    },
    {
      "inputs": [
        {
          "internalType": "address",
          "name": "token",
          "type": "address"
        }
      ],
      "name": "harvest",
      "outputs": [
        {
          "internalType": "uint256",
          "name": "reward",
          "type": "uint256"
        }
      ],
      "stateMutability": "nonpayable",
      "type": "function"
    },
    {
      "inputs": [
        {
          "internalType": "address",
          "name": "_vader",
          "type": "address"
        },
        {
          "internalType": "address",
          "name": "_router",
          "type": "address"
        },
        {
          "internalType": "address",
          "name": "_vault",
          "type": "address"
        }
      ],
      "name": "init",
      "outputs": [],
      "stateMutability": "nonpayable",
      "type": "function"
    },
    {
      "inputs": [],
      "name": "isMature",
      "outputs": [
        {
          "internalType": "bool",
          "name": "matured",
          "type": "bool"
        }
      ],
      "stateMutability": "view",
      "type": "function"
    },
    {
      "inputs": [
        {
          "internalType": "address",
          "name": "",
          "type": "address"
        }
      ],
      "name": "lastBlock",
      "outputs": [
        {
          "internalType": "uint256",
          "name": "",
          "type": "uint256"
        }
      ],
      "stateMutability": "view",
      "type": "function"
    },
    {
      "inputs": [],
      "name": "lastGranted",
      "outputs": [
        {
          "internalType": "uint256",
          "name": "",
          "type": "uint256"
        }
      ],
      "stateMutability": "view",
      "type": "function"
    },
    {
      "inputs": [],
      "name": "minGrantTime",
      "outputs": [
        {
          "internalType": "uint256",
          "name": "",
          "type": "uint256"
        }
      ],
      "stateMutability": "view",
      "type": "function"
    },
    {
      "inputs": [],
      "name": "minimumDepositTime",
      "outputs": [
        {
          "internalType": "uint256",
          "name": "",
          "type": "uint256"
        }
      ],
      "stateMutability": "view",
      "type": "function"
    },
    {
      "inputs": [],
      "name": "name",
      "outputs": [
        {
          "internalType": "string",
          "name": "",
          "type": "string"
        }
      ],
      "stateMutability": "view",
      "type": "function"
    },
    {
      "inputs": [],
      "name": "nextEraTime",
      "outputs": [
        {
          "internalType": "uint256",
          "name": "",
          "type": "uint256"
        }
      ],
      "stateMutability": "view",
      "type": "function"
    },
    {
      "inputs": [
        {
          "internalType": "uint256",
          "name": "amount",
          "type": "uint256"
        }
      ],
      "name": "redeem",
      "outputs": [
        {
          "internalType": "uint256",
          "name": "convertAmount",
          "type": "uint256"
        }
      ],
      "stateMutability": "nonpayable",
      "type": "function"
    },
    {
      "inputs": [
        {
          "internalType": "address",
          "name": "member",
          "type": "address"
        },
        {
          "internalType": "uint256",
          "name": "amount",
          "type": "uint256"
        }
      ],
      "name": "redeemForMember",
      "outputs": [
        {
          "internalType": "uint256",
          "name": "redeemAmount",
          "type": "uint256"
        }
      ],
      "stateMutability": "nonpayable",
      "type": "function"
    },
    {
      "inputs": [],
      "name": "reserveUSDV",
      "outputs": [
        {
          "internalType": "uint256",
          "name": "",
          "type": "uint256"
        }
      ],
      "stateMutability": "view",
      "type": "function"
    },
    {
      "inputs": [
        {
          "internalType": "uint256",
          "name": "_one",
          "type": "uint256"
        },
        {
          "internalType": "uint256",
          "name": "_two",
          "type": "uint256"
        },
        {
          "internalType": "uint256",
          "name": "_three",
          "type": "uint256"
        },
        {
          "internalType": "uint256",
          "name": "_four",
          "type": "uint256"
        }
      ],
      "name": "setParams",
      "outputs": [],
      "stateMutability": "nonpayable",
      "type": "function"
    },
    {
      "inputs": [],
      "name": "symbol",
      "outputs": [
        {
          "internalType": "string",
          "name": "",
          "type": "string"
        }
      ],
      "stateMutability": "view",
      "type": "function"
    },
    {
      "inputs": [],
      "name": "totalRewards",
      "outputs": [
        {
          "internalType": "uint256",
          "name": "",
          "type": "uint256"
        }
      ],
      "stateMutability": "view",
      "type": "function"
    },
    {
      "inputs": [],
      "name": "totalSupply",
      "outputs": [
        {
          "internalType": "uint256",
          "name": "",
          "type": "uint256"
        }
      ],
      "stateMutability": "view",
      "type": "function"
    },
    {
      "inputs": [],
      "name": "totalWeight",
      "outputs": [
        {
          "internalType": "uint256",
          "name": "",
          "type": "uint256"
        }
      ],
      "stateMutability": "view",
      "type": "function"
    },
    {
      "inputs": [
        {
          "internalType": "address",
          "name": "recipient",
          "type": "address"
        },
        {
          "internalType": "uint256",
          "name": "amount",
          "type": "uint256"
        }
      ],
      "name": "transfer",
      "outputs": [
        {
          "internalType": "bool",
          "name": "",
          "type": "bool"
        }
      ],
      "stateMutability": "nonpayable",
      "type": "function"
    },
    {
      "inputs": [
        {
          "internalType": "address",
          "name": "sender",
          "type": "address"
        },
        {
          "internalType": "address",
          "name": "recipient",
          "type": "address"
        },
        {
          "internalType": "uint256",
          "name": "amount",
          "type": "uint256"
        }
      ],
      "name": "transferFrom",
      "outputs": [
        {
          "internalType": "bool",
          "name": "",
          "type": "bool"
        }
      ],
      "stateMutability": "nonpayable",
      "type": "function"
    },
    {
      "inputs": [
        {
          "internalType": "address",
          "name": "recipient",
          "type": "address"
        },
        {
          "internalType": "uint256",
          "name": "amount",
          "type": "uint256"
        }
      ],
      "name": "transferTo",
      "outputs": [
        {
          "internalType": "bool",
          "name": "",
          "type": "bool"
        }
      ],
      "stateMutability": "nonpayable",
      "type": "function"
    },
    {
      "inputs": [
        {
          "internalType": "address",
          "name": "token",
          "type": "address"
        },
        {
          "internalType": "uint256",
          "name": "basisPoints",
          "type": "uint256"
        }
      ],
      "name": "withdraw",
      "outputs": [
        {
          "internalType": "uint256",
          "name": "redeemedAmount",
          "type": "uint256"
        }
      ],
      "stateMutability": "nonpayable",
      "type": "function"
    }
  ],
  "bytecode": "0x60806040523480156200001157600080fd5b506040805180820190915260138082527f564144455220535441424c4520444f4c4c4152000000000000000000000000006020909201918252620000589160009162000097565b50604080518082019091526004808252632aa9a22b60e11b6020909201918252620000869160019162000097565b50601260025560006003556200017a565b828054620000a5906200013d565b90600052602060002090601f016020900481019282620000c9576000855562000114565b82601f10620000e457805160ff191683800117855562000114565b8280016001018555821562000114579182015b8281111562000114578251825591602001919060010190620000f7565b506200012292915062000126565b5090565b5b8082111562000122576000815560010162000127565b600181811c908216806200015257607f821691505b602082108114156200017457634e487b7160e01b600052602260045260246000fd5b50919050565b612844806200018a6000396000f3fe608060405234801561001057600080fd5b50600436106102a05760003560e01c80637b0e5c4511610167578063accb22e1116100ce578063dd62ed3e11610087578063dd62ed3e14610604578063de6ad44e1461063d578063e9f27c3a14610645578063f22454aa14610658578063f3fef3a314610661578063fbe521a014610674576102a0565b8063accb22e114610591578063ae4e7fdf146105ba578063bf58d0ef146105c2578063d2450e8f146105d5578063d98f6088146105e8578063db006a75146105f1576102a0565b8063973628f611610120578063973628f61461051757806398fabd3a14610520578063a3908e1b14610528578063a4b82cb61461053b578063a9059cbb14610544578063a9fbeb9a14610557576102a0565b80637b0e5c45146104915780637ece45e8146104995780638dfa9bcc146104ac578063952ca92c146104e657806395d89b411461050657806396c82e571461050e576102a0565b80632c07eebf1161020b57806342966c68116101c457806342966c68146103f357806347e7ef24146104065780635364df49146104195780636370920e1461044257806370a082311461045557806379cc67901461047e576102a0565b80632c07eebf146103955780632ccb1b301461039e578063313ce567146103b157806332fe7b26146103ba5780633a61738d146103cd578063411557d1146103e0576102a0565b8063095ea7b31161025d578063095ea7b3146103355780630e15561a146103485780630e5c011e1461035157806318160ddd14610364578063184b95591461036d57806323b872dd14610382576102a0565b806301681315146102a557806302d0e1ae146102d5578063036e21e5146102f657806306fdde03146102ff5780630781f4d214610314578063090bbb011461032c575b600080fd5b600d546102b8906001600160a01b031681565b6040516001600160a01b0390911681526020015b60405180910390f35b6102e86102e3366004612579565b610687565b6040519081526020016102cc565b6102e860105481565b6103076106b4565b6040516102cc91906126e7565b61031c610742565b60405190151581526020016102cc565b6102e860085481565b61031c61034336600461263b565b6107c5565b6102e860125481565b6102e861035f366004612541565b6107db565b6102e860035481565b61038061037b3660046125b1565b610a1e565b005b61031c6103903660046125fb565b610bb9565b6102e860095481565b61031c6103ac36600461263b565b610c0b565b6102e860025481565b600e546102b8906001600160a01b031681565b6102e86103db366004612541565b610c18565b600f546102b8906001600160a01b031681565b610380610401366004612686565b610ce6565b61038061041436600461263b565b610cf3565b6102e8610427366004612541565b6001600160a01b031660009081526014602052604090205490565b61038061045036600461263b565b610d02565b6102e8610463366004612541565b6001600160a01b031660009081526004602052604090205490565b61038061048c36600461263b565b610e08565b6102b8610e53565b6103806104a73660046126b6565b610ed0565b6102e86104ba366004612579565b6001600160a01b0380821660009081526015602090815260408083209386168352929052205492915050565b6102e86104f4366004612541565b60186020526000908152604090205481565b610307610f36565b6102e860115481565b6102e860075481565b6102b8610f43565b6102e8610536366004612686565b610f88565b6102e8600b5481565b61031c61055236600461263b565b610f94565b6102e8610565366004612579565b6001600160a01b0380821660009081526016602090815260408083209386168352929052205492915050565b6102e861059f366004612541565b6001600160a01b031660009081526013602052604090205490565b61031c610fa1565b6103806105d03660046125fb565b610fcf565b6102e86105e336600461263b565b611193565b6102e8600c5481565b6102e86105ff366004612686565b611246565b6102e8610612366004612579565b6001600160a01b03918216600090815260056020908152604080832093909416825291909152205490565b6102e8611252565b6102e8610653366004612579565b611287565b6102e8600a5481565b6102e861066f36600461263b565b611386565b6102e861068236600461263b565b6113a8565b6001600160a01b038082166000908152601760209081526040808320938616835292905220545b92915050565b600080546106c1906127a8565b80601f01602080910402602001604051908101604052809291908181526020018280546106ed906127a8565b801561073a5780601f1061070f5761010080835404028352916020019161073a565b820191906000526020600020905b81548152906001019060200180831161071d57829003601f168201915b505050505081565b600d54604080516303c0fa6960e11b815290516000926001600160a01b031691630781f4d2916004808301926020929190829003018186803b15801561078757600080fd5b505afa15801561079b573d6000803e3d6000fd5b505050506040513d601f19601f820116820180604052508101906107bf9190612666565b90505b90565b60006107d23384846113d2565b50600192915050565b6000336107e88382611287565b6001600160a01b038083166000818152601760209081526040808320948916808452948252808320429055928252601681528282209382529290925281208054929450849290919061083b90849061273a565b925050819055508160126000828254610854919061273a565b90915550600090506001600160a01b03841630141561087457508161097e565b61087c610e53565b6001600160a01b031663db39dc79856001600160a01b03166382bfefc86040518163ffffffff1660e01b8152600401602060405180830381600087803b1580156108c557600080fd5b505af11580156108d9573d6000803e3d6000fd5b505050506040513d601f19601f820116820180604052508101906108fd919061255d565b6040516001600160e01b031960e084901b1681526001600160a01b0390911660048201526024810186905260440160206040518083038186803b15801561094357600080fd5b505afa158015610957573d6000803e3d6000fd5b505050506040513d601f19601f8201168201806040525081019061097b919061269e565b90505b6001600160a01b038216600090815260146020526040812080548392906109a690849061273a565b9250508190555080601160008282546109bf919061273a565b9091555050601154604080518581526020810184905280820192909252516001600160a01b0384811692908716917f154ce75570debb840e085287bc6b1fd9f48fa7b08a5f2dd564b6a7592147d4449181900360600190a35050919050565b60065460ff1615610a2e57600080fd5b6006805460ff19166001179055600d80546001600160a01b038581166001600160a01b03199283168117909355600e80548683169084168117909155600f8054928616929093169190911790915560405163095ea7b360e01b81526004810191909152600019602482015263095ea7b390604401602060405180830381600087803b158015610abc57600080fd5b505af1158015610ad0573d6000803e3d6000fd5b505050506040513d601f19601f82011682018060405250810190610af49190612666565b50600e54610b0f9030906001600160a01b03166000196113d2565b6001600755600d54604080516335c951db60e11b815290516001600160a01b0390921691636b92a3b691600480820192602092909190829003018186803b158015610b5957600080fd5b505afa158015610b6d573d6000803e3d6000fd5b505050506040513d601f19601f82011682018060405250810190610b91919061269e565b610b9b904261273a565b600855505060646009555060016010556000600c5562278d00600a55565b6000610bc68484846114b2565b6001600160a01b038416600090815260056020908152604080832033808552925290912054610c01918691610bfc908690612791565b6113d2565b5060019392505050565b60006107d23284846114b2565b6001600160a01b0381166000908152601460205260408120546009548290610c3e611252565b610c489190612752565b9050610c52610e53565b6011546040516306e8c9b160e21b8152600481018590526024810191909152604481018390526001600160a01b039190911690631ba326c49060640160206040518083038186803b158015610ca657600080fd5b505afa158015610cba573d6000803e3d6000fd5b505050506040513d601f19601f82011682018060405250810190610cde919061269e565b949350505050565b610cf033826115a2565b50565b610cfe823383610fcf565b5050565b610d0a610f43565b6001600160a01b0316336001600160a01b031614610d595760405162461bcd60e51b81526020600482015260076024820152664e6f742044414f60c81b60448201526064015b60405180910390fd5b600a610d63611252565b610d6d9190612752565b811115610db05760405162461bcd60e51b81526020600482015260116024820152706e6f74206d6f7265207468616e2031302560781b6044820152606401610d50565b600a54600b54610dc09042612791565b1015610dfd5760405162461bcd60e51b815260206004820152600c60248201526b1b9bdd081d1bdbc819985cdd60a21b6044820152606401610d50565b610cfe3083836114b2565b6001600160a01b0382166000908152600560209081526040808320338452909152812054610e37908390612791565b9050610e448333836113d2565b610e4e83836115a2565b505050565b600d5460408051637b0e5c4560e01b815290516000926001600160a01b031691637b0e5c45916004808301926020929190829003018186803b158015610e9857600080fd5b505afa158015610eac573d6000803e3d6000fd5b505050506040513d601f19601f820116820180604052508101906107bf919061255d565b610ed8610f43565b6001600160a01b0316336001600160a01b031614610f225760405162461bcd60e51b81526020600482015260076024820152664e6f742044414f60c81b6044820152606401610d50565b600993909355601091909155600c55600a55565b600180546106c1906127a8565b600d5460408051634c7d5e9d60e11b815290516000926001600160a01b0316916398fabd3a916004808301926020929190829003018186803b158015610e9857600080fd5b60006106ae33836113a8565b60006107d23384846114b2565b600c543260009081526018602052604081205490914391610fc2919061273a565b116107c2575060016107c2565b6001600160a01b0383163014806111755750600f54604051632f011bf560e11b81526001600160a01b03858116600483015290911690635e0237ea90602401602060405180830381600087803b15801561102857600080fd5b505af115801561103c573d6000803e3d6000fd5b505050506040513d601f19601f820116820180604052508101906110609190612666565b80156111755750600f60009054906101000a90046001600160a01b03166001600160a01b031663c87fa42a846001600160a01b03166382bfefc86040518163ffffffff1660e01b8152600401602060405180830381600087803b1580156110c657600080fd5b505af11580156110da573d6000803e3d6000fd5b505050506040513d601f19601f820116820180604052508101906110fe919061255d565b6040516001600160e01b031960e084901b1681526001600160a01b03909116600482015260240160206040518083038186803b15801561113d57600080fd5b505afa158015611151573d6000803e3d6000fd5b505050506040513d601f19601f820116820180604052508101906111759190612666565b61117e57600080fd5b6111888382611672565b610e4e8383836117b3565b600d546000906111ae9033906001600160a01b0316846114b2565b600d5460405163c30a0ce760e01b81526001600160a01b0385811660048301529091169063c30a0ce790602401602060405180830381600087803b1580156111f557600080fd5b505af1158015611209573d6000803e3d6000fd5b505050506040513d601f19601f8201168201806040525081019061122d919061269e565b3260009081526018602052604090204390559392505050565b60006106ae3383611193565b60125430600090815260136020908152604080832054600490925282205491929161127d9190612791565b6107bf9190612791565b6001600160a01b03808216600090815260176020908152604080832093861683529290529081205481906112bb9042612791565b905060006112c884610c18565b9050600d60009054906101000a90046001600160a01b03166001600160a01b0316636b92a3b66040518163ffffffff1660e01b815260040160206040518083038186803b15801561131857600080fd5b505afa15801561132c573d6000803e3d6000fd5b505050506040513d601f19601f82011682018060405250810190611350919061269e565b61135a8383612772565b6113649190612752565b92506000611370611252565b905080841061137d578093505b50505092915050565b600033611394848285611a0c565b91506113a1848284612040565b5092915050565b600d546000906113c1906001600160a01b031683611672565b6113cb83836120ec565b9392505050565b6001600160a01b0383166114115760405162461bcd60e51b815260206004820152600660248201526539b2b73232b960d11b6044820152606401610d50565b6001600160a01b0382166114515760405162461bcd60e51b815260206004820152600760248201526639b832b73232b960c91b6044820152606401610d50565b6001600160a01b0383811660008181526005602090815260408083209487168084529482529182902085905590518481527f8c5be1e5ebec7d5bd14f71427d1e84f3dd0314c0f7b2291e5b200ac8c7c3b925910160405180910390a3505050565b6001600160a01b0383166114f15760405162461bcd60e51b815260206004820152600660248201526539b2b73232b960d11b6044820152606401610d50565b6001600160a01b03831660009081526004602052604081208054839290611519908490612791565b90915550506001600160a01b0382166000908152600460205260408120805483929061154690849061273a565b92505081905550816001600160a01b0316836001600160a01b03167fddf252ad1be2c89b69c2b068fc378daa952ba7f163c4a11628f55a4df523b3ef8360405161159291815260200190565b60405180910390a3610e4e612226565b6001600160a01b0382166115e65760405162461bcd60e51b815260206004820152600b60248201526a30b2323932b9b99032b93960a91b6044820152606401610d50565b6001600160a01b0382166000908152600460205260408120805483929061160e908490612791565b9250508190555080600360008282546116279190612791565b90915550506040518181526000906001600160a01b038416907fddf252ad1be2c89b69c2b068fc378daa952ba7f163c4a11628f55a4df523b3ef906020015b60405180910390a35050565b6001600160a01b0382163014156116935761168e3330836114b2565b610cfe565b32331415611724576040516302ccb1b360e41b8152306004820152602481018290526001600160a01b03831690632ccb1b3090604401602060405180830381600087803b1580156116e357600080fd5b505af11580156116f7573d6000803e3d6000fd5b505050506040513d601f19601f8201168201806040525081019061171b9190612666565b61168e57600080fd5b6040516323b872dd60e01b8152336004820152306024820152604481018290526001600160a01b038316906323b872dd90606401602060405180830381600087803b15801561177257600080fd5b505af1158015611786573d6000803e3d6000fd5b505050506040513d601f19601f820116820180604052508101906117aa9190612666565b610cfe57600080fd5b6001600160a01b03808316600081815260176020908152604080832094881680845294825280832042905592825260158152828220938252929092528120805483929061180190849061273a565b90915550600090506001600160a01b03841630141561182157508061192b565b611829610e53565b6001600160a01b031663db39dc79856001600160a01b03166382bfefc86040518163ffffffff1660e01b8152600401602060405180830381600087803b15801561187257600080fd5b505af1158015611886573d6000803e3d6000fd5b505050506040513d601f19601f820116820180604052508101906118aa919061255d565b6040516001600160e01b031960e084901b1681526001600160a01b0390911660048201526024810185905260440160206040518083038186803b1580156118f057600080fd5b505afa158015611904573d6000803e3d6000fd5b505050506040513d601f19601f82011682018060405250810190611928919061269e565b90505b6001600160a01b0384166000908152601360205260408120805484929061195390849061273a565b90915550506001600160a01b0383166000908152601460205260408120805483929061198090849061273a565b925050819055508060116000828254611999919061273a565b90915550506001600160a01b038481166000818152601360209081526040918290205460115483518881529283019190915281830186905260608201529051928616927f1dd1c43aa39b8d6cee7dd1d16ed47e15a4a20f35b7ec9bc091c6c760fc9e148f9181900360800190a350505050565b6010546001600160a01b038084166000908152601760209081526040808320938816835292905290812054909190611a449042612791565b1015611a805760405162461bcd60e51b815260206004820152600b60248201526a4465706f73697454696d6560a81b6044820152606401610d50565b6000611a8a610e53565b6001600160a01b0385811660009081526016602090815260408083208a851684529091529081902054905163714270ab60e01b815260048101879052602481019190915291169063714270ab9060440160206040518083038186803b158015611af257600080fd5b505afa158015611b06573d6000803e3d6000fd5b505050506040513d601f19601f82011682018060405250810190611b2a919061269e565b6001600160a01b038086166000908152601660209081526040808320938a16835292905290812080549293508392909190611b66908490612791565b925050819055508060126000828254611b7f9190612791565b90915550506001600160a01b0385163014611dd757611b9c610e53565b6001600160a01b0316635f2c12e8866001600160a01b03166382bfefc86040518163ffffffff1660e01b8152600401602060405180830381600087803b158015611be557600080fd5b505af1158015611bf9573d6000803e3d6000fd5b505050506040513d601f19601f82011682018060405250810190611c1d919061255d565b6040516001600160e01b031960e084901b1681526001600160a01b0390911660048201526024810184905260440160206040518083038186803b158015611c6357600080fd5b505afa158015611c77573d6000803e3d6000fd5b505050506040513d601f19601f82011682018060405250810190611c9b919061269e565b600f54909150611cb69030906001600160a01b0316836114b2565b600f60009054906101000a90046001600160a01b03166001600160a01b031663d016347e30876001600160a01b03166382bfefc86040518163ffffffff1660e01b8152600401602060405180830381600087803b158015611d1657600080fd5b505af1158015611d2a573d6000803e3d6000fd5b505050506040513d601f19601f82011682018060405250810190611d4e919061255d565b6040516001600160e01b031960e085901b1681526001600160a01b03928316600482015291166024820152306044820152606401602060405180830381600087803b158015611d9c57600080fd5b505af1158015611db0573d6000803e3d6000fd5b505050506040513d601f19601f82011682018060405250810190611dd4919061269e565b90505b6000611de1610e53565b6001600160a01b0386811660009081526015602090815260408083208b851684529091529081902054905163714270ab60e01b815260048101889052602481019190915291169063714270ab9060440160206040518083038186803b158015611e4957600080fd5b505afa158015611e5d573d6000803e3d6000fd5b505050506040513d601f19601f82011682018060405250810190611e81919061269e565b6001600160a01b038087166000908152601560209081526040808320938b16835292905290812080549293508392909190611ebd908490612791565b90915550506001600160a01b03861660009081526013602052604081208054839290611eea908490612791565b9091555060009050611efa610e53565b6001600160a01b038781166000908152601460205260409081902054905163714270ab60e01b815260048101899052602481019190915291169063714270ab9060440160206040518083038186803b158015611f5557600080fd5b505afa158015611f69573d6000803e3d6000fd5b505050506040513d601f19601f82011682018060405250810190611f8d919061269e565b6001600160a01b038716600090815260146020526040812080549293508392909190611fba908490612791565b925050819055508060116000828254611fd39190612791565b9091555050601154604080518681526020810184905280820192909252516001600160a01b0388811692908a16917f28b0a5e71db5b0ceb9e9edc3f89a0763709f773d717a2dcfd7851977f805ea7a9181900360600190a3612035838361273a565b979650505050505050565b6001600160a01b0383163014156120615761205c3083836114b2565b610e4e565b60405163a9059cbb60e01b81526001600160a01b0383811660048301526024820183905284169063a9059cbb90604401602060405180830381600087803b1580156120ab57600080fd5b505af11580156120bf573d6000803e3d6000fd5b505050506040513d601f19601f820116820180604052508101906120e39190612666565b610e4e57600080fd5b60006120f6610fa1565b61212d5760405162461bcd60e51b815260206004820152600860248201526709cde40ccd8c2e6d60c31b6044820152606401610d50565b3260009081526018602052604090819020439055600d549051630852cd8d60e31b8152600481018490526001600160a01b03909116906342966c6890602401600060405180830381600087803b15801561218657600080fd5b505af115801561219a573d6000803e3d6000fd5b5050600e54604051632d26e9f960e11b8152600481018690526001600160a01b039091169250635a4dd3f2915060240160206040518083038186803b1580156121e257600080fd5b505afa1580156121f6573d6000803e3d6000fd5b505050506040513d601f19601f8201168201806040525081019061221a919061269e565b90506106ae8382612464565b600854421015801561223b575061223b610742565b1561246257600160076000828254612253919061273a565b9091555050600d54604080516335c951db60e11b815290516001600160a01b0390921691636b92a3b691600480820192602092909190829003018186803b15801561229d57600080fd5b505afa1580156122b1573d6000803e3d6000fd5b505050506040513d601f19601f820116820180604052508101906122d5919061269e565b6122df904261273a565b600855600d546040516370a0823160e01b81523060048201526000916001600160a01b0316906370a082319060240160206040518083038186803b15801561232657600080fd5b505afa15801561233a573d6000803e3d6000fd5b505050506040513d601f19601f8201168201806040525081019061235e919061269e565b9050600061236b82612528565b905061237730826120ec565b50600e54600d546040516370a0823160e01b81523060048201526001600160a01b039283169263a55bee2a9216906370a082319060240160206040518083038186803b1580156123c657600080fd5b505afa1580156123da573d6000803e3d6000fd5b505050506040513d601f19601f820116820180604052508101906123fe919061269e565b612409600285612752565b6040516001600160e01b031960e085901b16815260048101929092526024820152604401600060405180830381600087803b15801561244757600080fd5b505af115801561245b573d6000803e3d6000fd5b5050505050505b565b6001600160a01b0382166124a65760405162461bcd60e51b81526020600482015260096024820152681c9958da5c1a595b9d60ba1b6044820152606401610d50565b80600360008282546124b8919061273a565b90915550506001600160a01b038216600090815260046020526040812080548392906124e590849061273a565b90915550506040518181526001600160a01b038316906000907fddf252ad1be2c89b69c2b068fc378daa952ba7f163c4a11628f55a4df523b3ef90602001611666565b60006003612537836002612772565b6106ae9190612752565b600060208284031215612552578081fd5b81356113cb816127f9565b60006020828403121561256e578081fd5b81516113cb816127f9565b6000806040838503121561258b578081fd5b8235612596816127f9565b915060208301356125a6816127f9565b809150509250929050565b6000806000606084860312156125c5578081fd5b83356125d0816127f9565b925060208401356125e0816127f9565b915060408401356125f0816127f9565b809150509250925092565b60008060006060848603121561260f578283fd5b833561261a816127f9565b9250602084013561262a816127f9565b929592945050506040919091013590565b6000806040838503121561264d578182fd5b8235612658816127f9565b946020939093013593505050565b600060208284031215612677578081fd5b815180151581146113cb578182fd5b600060208284031215612697578081fd5b5035919050565b6000602082840312156126af578081fd5b5051919050565b600080600080608085870312156126cb578081fd5b5050823594602084013594506040840135936060013592509050565b6000602080835283518082850152825b81811015612713578581018301518582016040015282016126f7565b818111156127245783604083870101525b50601f01601f1916929092016040019392505050565b6000821982111561274d5761274d6127e3565b500190565b60008261276d57634e487b7160e01b81526012600452602481fd5b500490565b600081600019048311821515161561278c5761278c6127e3565b500290565b6000828210156127a3576127a36127e3565b500390565b600181811c908216806127bc57607f821691505b602082108114156127dd57634e487b7160e01b600052602260045260246000fd5b50919050565b634e487b7160e01b600052601160045260246000fd5b6001600160a01b0381168114610cf057600080fdfea2646970667358221220b2e23f3dbfa1cae841d6ffa63e5c3a4b8ac7b4210f04fb0376d1dc2a025cbd3d64736f6c63430008030033",
  "linkReferences": {},
  "deployedLinkReferences": {}
}