{
  "_format": "hh-sol-artifact-1",
  "contractName": "USDV",
  "sourceName": "contracts/USDV.sol",
  "abi": [
    {
      "inputs": [],
      "stateMutability": "nonpayable",
      "type": "constructor"
    },
    {
      "anonymous": false,
      "inputs": [
        {
          "indexed": true,
          "internalType": "address",
          "name": "owner",
          "type": "address"
        },
        {
          "indexed": true,
          "internalType": "address",
          "name": "spender",
          "type": "address"
        },
        {
          "indexed": false,
          "internalType": "uint256",
          "name": "value",
          "type": "uint256"
        }
      ],
      "name": "Approval",
      "type": "event"
    },
    {
      "anonymous": false,
      "inputs": [
        {
          "indexed": true,
          "internalType": "address",
          "name": "token",
          "type": "address"
        },
        {
          "indexed": true,
          "internalType": "address",
          "name": "member",
          "type": "address"
        },
        {
          "indexed": false,
          "internalType": "uint256",
          "name": "newDeposit",
          "type": "uint256"
        },
        {
          "indexed": false,
          "internalType": "uint256",
          "name": "totalDeposit",
          "type": "uint256"
        },
        {
          "indexed": false,
          "internalType": "uint256",
          "name": "weight",
          "type": "uint256"
        },
        {
          "indexed": false,
          "internalType": "uint256",
          "name": "totalWeight",
          "type": "uint256"
        }
      ],
      "name": "MemberDeposits",
      "type": "event"
    },
    {
      "anonymous": false,
      "inputs": [
        {
          "indexed": true,
          "internalType": "address",
          "name": "token",
          "type": "address"
        },
        {
          "indexed": true,
          "internalType": "address",
          "name": "member",
          "type": "address"
        },
        {
          "indexed": false,
          "internalType": "uint256",
          "name": "amount",
          "type": "uint256"
        },
        {
          "indexed": false,
          "internalType": "uint256",
          "name": "weight",
          "type": "uint256"
        },
        {
          "indexed": false,
          "internalType": "uint256",
          "name": "totalWeight",
          "type": "uint256"
        }
      ],
      "name": "MemberHarvests",
      "type": "event"
    },
    {
      "anonymous": false,
      "inputs": [
        {
          "indexed": true,
          "internalType": "address",
          "name": "token",
          "type": "address"
        },
        {
          "indexed": true,
          "internalType": "address",
          "name": "member",
          "type": "address"
        },
        {
          "indexed": false,
          "internalType": "uint256",
          "name": "amount",
          "type": "uint256"
        },
        {
          "indexed": false,
          "internalType": "uint256",
          "name": "weight",
          "type": "uint256"
        },
        {
          "indexed": false,
          "internalType": "uint256",
          "name": "totalWeight",
          "type": "uint256"
        }
      ],
      "name": "MemberWithdraws",
      "type": "event"
    },
    {
      "anonymous": false,
      "inputs": [
        {
          "indexed": true,
          "internalType": "address",
          "name": "from",
          "type": "address"
        },
        {
          "indexed": true,
          "internalType": "address",
          "name": "to",
          "type": "address"
        },
        {
          "indexed": false,
          "internalType": "uint256",
          "name": "value",
          "type": "uint256"
        }
      ],
      "name": "Transfer",
      "type": "event"
    },
    {
      "inputs": [],
      "name": "DAO",
      "outputs": [
        {
          "internalType": "address",
          "name": "",
          "type": "address"
        }
      ],
      "stateMutability": "view",
      "type": "function"
    },
    {
      "inputs": [],
      "name": "POOLS",
      "outputs": [
        {
          "internalType": "address",
          "name": "",
          "type": "address"
        }
      ],
      "stateMutability": "view",
      "type": "function"
    },
    {
      "inputs": [],
      "name": "ROUTER",
      "outputs": [
        {
          "internalType": "address",
          "name": "",
          "type": "address"
        }
      ],
      "stateMutability": "view",
      "type": "function"
    },
    {
      "inputs": [],
      "name": "UTILS",
      "outputs": [
        {
          "internalType": "address",
          "name": "",
          "type": "address"
        }
      ],
      "stateMutability": "view",
      "type": "function"
    },
    {
      "inputs": [],
      "name": "VADER",
      "outputs": [
        {
          "internalType": "address",
          "name": "",
          "type": "address"
        }
      ],
      "stateMutability": "view",
      "type": "function"
    },
    {
      "inputs": [
        {
          "internalType": "address",
          "name": "owner",
          "type": "address"
        },
        {
          "internalType": "address",
          "name": "spender",
          "type": "address"
        }
      ],
      "name": "allowance",
      "outputs": [
        {
          "internalType": "uint256",
          "name": "",
          "type": "uint256"
        }
      ],
      "stateMutability": "view",
      "type": "function"
    },
    {
      "inputs": [
        {
          "internalType": "address",
          "name": "spender",
          "type": "address"
        },
        {
          "internalType": "uint256",
          "name": "amount",
          "type": "uint256"
        }
      ],
      "name": "approve",
      "outputs": [
        {
          "internalType": "bool",
          "name": "",
          "type": "bool"
        }
      ],
      "stateMutability": "nonpayable",
      "type": "function"
    },
    {
      "inputs": [
        {
          "internalType": "address",
          "name": "account",
          "type": "address"
        }
      ],
      "name": "balanceOf",
      "outputs": [
        {
          "internalType": "uint256",
          "name": "",
          "type": "uint256"
        }
      ],
      "stateMutability": "view",
      "type": "function"
    },
    {
      "inputs": [],
      "name": "blockDelay",
      "outputs": [
        {
          "internalType": "uint256",
          "name": "",
          "type": "uint256"
        }
      ],
      "stateMutability": "view",
      "type": "function"
    },
    {
      "inputs": [
        {
          "internalType": "uint256",
          "name": "amount",
          "type": "uint256"
        }
      ],
      "name": "burn",
      "outputs": [],
      "stateMutability": "nonpayable",
      "type": "function"
    },
    {
      "inputs": [
        {
          "internalType": "address",
          "name": "account",
          "type": "address"
        },
        {
          "internalType": "uint256",
          "name": "amount",
          "type": "uint256"
        }
      ],
      "name": "burnFrom",
      "outputs": [],
      "stateMutability": "nonpayable",
      "type": "function"
    },
    {
      "inputs": [
        {
          "internalType": "address",
          "name": "token",
          "type": "address"
        },
        {
          "internalType": "address",
          "name": "member",
          "type": "address"
        }
      ],
      "name": "calcCurrentReward",
      "outputs": [
        {
          "internalType": "uint256",
          "name": "reward",
          "type": "uint256"
        }
      ],
      "stateMutability": "view",
      "type": "function"
    },
    {
      "inputs": [
        {
          "internalType": "address",
          "name": "member",
          "type": "address"
        }
      ],
      "name": "calcReward",
      "outputs": [
        {
          "internalType": "uint256",
          "name": "",
          "type": "uint256"
        }
      ],
      "stateMutability": "view",
      "type": "function"
    },
    {
      "inputs": [
        {
          "internalType": "uint256",
          "name": "amount",
          "type": "uint256"
        }
      ],
      "name": "convert",
      "outputs": [
        {
          "internalType": "uint256",
          "name": "",
          "type": "uint256"
        }
      ],
      "stateMutability": "nonpayable",
      "type": "function"
    },
    {
      "inputs": [
        {
          "internalType": "address",
          "name": "member",
          "type": "address"
        },
        {
          "internalType": "uint256",
          "name": "amount",
          "type": "uint256"
        }
      ],
      "name": "convertForMember",
      "outputs": [
        {
          "internalType": "uint256",
          "name": "",
          "type": "uint256"
        }
      ],
      "stateMutability": "nonpayable",
      "type": "function"
    },
    {
      "inputs": [],
      "name": "decimals",
      "outputs": [
        {
          "internalType": "uint256",
          "name": "",
          "type": "uint256"
        }
      ],
      "stateMutability": "view",
      "type": "function"
    },
    {
      "inputs": [
        {
          "internalType": "address",
          "name": "token",
          "type": "address"
        },
        {
          "internalType": "uint256",
          "name": "amount",
          "type": "uint256"
        }
      ],
      "name": "deposit",
      "outputs": [],
      "stateMutability": "nonpayable",
      "type": "function"
    },
    {
      "inputs": [
        {
          "internalType": "address",
          "name": "token",
          "type": "address"
        },
        {
          "internalType": "address",
          "name": "member",
          "type": "address"
        },
        {
          "internalType": "uint256",
          "name": "amount",
          "type": "uint256"
        }
      ],
      "name": "depositForMember",
      "outputs": [],
      "stateMutability": "nonpayable",
      "type": "function"
    },
    {
      "inputs": [],
      "name": "emitting",
      "outputs": [
        {
          "internalType": "bool",
          "name": "",
          "type": "bool"
        }
      ],
      "stateMutability": "view",
      "type": "function"
    },
    {
      "inputs": [],
      "name": "erasToEarn",
      "outputs": [
        {
          "internalType": "uint256",
          "name": "",
          "type": "uint256"
        }
      ],
      "stateMutability": "view",
      "type": "function"
    },
    {
      "inputs": [
        {
          "internalType": "address",
          "name": "token",
          "type": "address"
        },
        {
          "internalType": "address",
          "name": "member",
          "type": "address"
        }
      ],
      "name": "getMemberDeposit",
      "outputs": [
        {
          "internalType": "uint256",
          "name": "",
          "type": "uint256"
        }
      ],
      "stateMutability": "view",
      "type": "function"
    },
    {
      "inputs": [
        {
          "internalType": "address",
          "name": "token",
          "type": "address"
        },
        {
          "internalType": "address",
          "name": "member",
          "type": "address"
        }
      ],
      "name": "getMemberLastTime",
      "outputs": [
        {
          "internalType": "uint256",
          "name": "",
          "type": "uint256"
        }
      ],
      "stateMutability": "view",
      "type": "function"
    },
    {
      "inputs": [
        {
          "internalType": "address",
          "name": "token",
          "type": "address"
        },
        {
          "internalType": "address",
          "name": "member",
          "type": "address"
        }
      ],
      "name": "getMemberReward",
      "outputs": [
        {
          "internalType": "uint256",
          "name": "",
          "type": "uint256"
        }
      ],
      "stateMutability": "view",
      "type": "function"
    },
    {
      "inputs": [
        {
          "internalType": "address",
          "name": "member",
          "type": "address"
        }
      ],
      "name": "getMemberWeight",
      "outputs": [
        {
          "internalType": "uint256",
          "name": "",
          "type": "uint256"
        }
      ],
      "stateMutability": "view",
      "type": "function"
    },
    {
      "inputs": [
        {
          "internalType": "address",
          "name": "token",
          "type": "address"
        }
      ],
      "name": "getTokenDeposits",
      "outputs": [
        {
          "internalType": "uint256",
          "name": "",
          "type": "uint256"
        }
      ],
      "stateMutability": "view",
      "type": "function"
    },
    {
      "inputs": [
        {
          "internalType": "address",
          "name": "recipient",
          "type": "address"
        },
        {
          "internalType": "uint256",
          "name": "amount",
          "type": "uint256"
        }
      ],
      "name": "grant",
      "outputs": [],
      "stateMutability": "nonpayable",
      "type": "function"
    },
    {
      "inputs": [
        {
          "internalType": "address",
          "name": "token",
          "type": "address"
        }
      ],
      "name": "harvest",
      "outputs": [
        {
          "internalType": "uint256",
          "name": "reward",
          "type": "uint256"
        }
      ],
      "stateMutability": "nonpayable",
      "type": "function"
    },
    {
      "inputs": [
        {
          "internalType": "address",
          "name": "_vader",
          "type": "address"
        },
        {
          "internalType": "address",
          "name": "_router",
          "type": "address"
        },
        {
          "internalType": "address",
          "name": "_pool",
          "type": "address"
        }
      ],
      "name": "init",
      "outputs": [],
      "stateMutability": "nonpayable",
      "type": "function"
    },
    {
      "inputs": [],
      "name": "isMature",
      "outputs": [
        {
          "internalType": "bool",
          "name": "isMatured",
          "type": "bool"
        }
      ],
      "stateMutability": "view",
      "type": "function"
    },
    {
      "inputs": [
        {
          "internalType": "address",
          "name": "",
          "type": "address"
        }
      ],
      "name": "lastBlock",
      "outputs": [
        {
          "internalType": "uint256",
          "name": "",
          "type": "uint256"
        }
      ],
      "stateMutability": "view",
      "type": "function"
    },
    {
      "inputs": [],
      "name": "lastGranted",
      "outputs": [
        {
          "internalType": "uint256",
          "name": "",
          "type": "uint256"
        }
      ],
      "stateMutability": "view",
      "type": "function"
    },
    {
      "inputs": [],
      "name": "minGrantTime",
      "outputs": [
        {
          "internalType": "uint256",
          "name": "",
          "type": "uint256"
        }
      ],
      "stateMutability": "view",
      "type": "function"
    },
    {
      "inputs": [],
      "name": "minimumDepositTime",
      "outputs": [
        {
          "internalType": "uint256",
          "name": "",
          "type": "uint256"
        }
      ],
      "stateMutability": "view",
      "type": "function"
    },
    {
      "inputs": [],
      "name": "minting",
      "outputs": [
        {
          "internalType": "bool",
          "name": "",
          "type": "bool"
        }
      ],
      "stateMutability": "view",
      "type": "function"
    },
    {
      "inputs": [],
      "name": "name",
      "outputs": [
        {
          "internalType": "string",
          "name": "",
          "type": "string"
        }
      ],
      "stateMutability": "view",
      "type": "function"
    },
    {
      "inputs": [],
      "name": "nextEraTime",
      "outputs": [
        {
          "internalType": "uint256",
          "name": "",
          "type": "uint256"
        }
      ],
      "stateMutability": "view",
      "type": "function"
    },
    {
      "inputs": [
        {
          "internalType": "uint256",
          "name": "amount",
          "type": "uint256"
        }
      ],
      "name": "redeem",
      "outputs": [
        {
          "internalType": "uint256",
          "name": "",
          "type": "uint256"
        }
      ],
      "stateMutability": "nonpayable",
      "type": "function"
    },
    {
      "inputs": [
        {
          "internalType": "address",
          "name": "member",
          "type": "address"
        },
        {
          "internalType": "uint256",
          "name": "amount",
          "type": "uint256"
        }
      ],
      "name": "redeemForMember",
      "outputs": [
        {
          "internalType": "uint256",
          "name": "redeemAmount",
          "type": "uint256"
        }
      ],
      "stateMutability": "nonpayable",
      "type": "function"
    },
    {
      "inputs": [],
      "name": "reserveUSDV",
      "outputs": [
        {
          "internalType": "uint256",
          "name": "",
          "type": "uint256"
        }
      ],
      "stateMutability": "view",
      "type": "function"
    },
    {
      "inputs": [
        {
          "internalType": "uint256",
          "name": "newEra",
          "type": "uint256"
        },
        {
          "internalType": "uint256",
          "name": "newDepositTime",
          "type": "uint256"
        },
        {
          "internalType": "uint256",
          "name": "newDelay",
          "type": "uint256"
        },
        {
          "internalType": "uint256",
          "name": "newGrantTime",
          "type": "uint256"
        }
      ],
      "name": "setParams",
      "outputs": [],
      "stateMutability": "nonpayable",
      "type": "function"
    },
    {
      "inputs": [],
      "name": "symbol",
      "outputs": [
        {
          "internalType": "string",
          "name": "",
          "type": "string"
        }
      ],
      "stateMutability": "view",
      "type": "function"
    },
    {
      "inputs": [],
      "name": "totalRewards",
      "outputs": [
        {
          "internalType": "uint256",
          "name": "",
          "type": "uint256"
        }
      ],
      "stateMutability": "view",
      "type": "function"
    },
    {
      "inputs": [],
      "name": "totalSupply",
      "outputs": [
        {
          "internalType": "uint256",
          "name": "",
          "type": "uint256"
        }
      ],
      "stateMutability": "view",
      "type": "function"
    },
    {
      "inputs": [],
      "name": "totalWeight",
      "outputs": [
        {
          "internalType": "uint256",
          "name": "",
          "type": "uint256"
        }
      ],
      "stateMutability": "view",
      "type": "function"
    },
    {
      "inputs": [
        {
          "internalType": "address",
          "name": "recipient",
          "type": "address"
        },
        {
          "internalType": "uint256",
          "name": "amount",
          "type": "uint256"
        }
      ],
      "name": "transfer",
      "outputs": [
        {
          "internalType": "bool",
          "name": "",
          "type": "bool"
        }
      ],
      "stateMutability": "nonpayable",
      "type": "function"
    },
    {
      "inputs": [
        {
          "internalType": "address",
          "name": "sender",
          "type": "address"
        },
        {
          "internalType": "address",
          "name": "recipient",
          "type": "address"
        },
        {
          "internalType": "uint256",
          "name": "amount",
          "type": "uint256"
        }
      ],
      "name": "transferFrom",
      "outputs": [
        {
          "internalType": "bool",
          "name": "",
          "type": "bool"
        }
      ],
      "stateMutability": "nonpayable",
      "type": "function"
    },
    {
      "inputs": [
        {
          "internalType": "address",
          "name": "recipient",
          "type": "address"
        },
        {
          "internalType": "uint256",
          "name": "amount",
          "type": "uint256"
        }
      ],
      "name": "transferTo",
      "outputs": [
        {
          "internalType": "bool",
          "name": "",
          "type": "bool"
        }
      ],
      "stateMutability": "nonpayable",
      "type": "function"
    },
    {
      "inputs": [
        {
          "internalType": "address",
          "name": "token",
          "type": "address"
        },
        {
          "internalType": "uint256",
          "name": "basisPoints",
          "type": "uint256"
        }
      ],
      "name": "withdraw",
      "outputs": [
        {
          "internalType": "uint256",
          "name": "redeemedAmount",
          "type": "uint256"
        }
      ],
      "stateMutability": "nonpayable",
      "type": "function"
    }
  ],
  "bytecode": "0x60806040523480156200001157600080fd5b506040805180820190915260138082527f564144455220535441424c4520444f4c4c4152000000000000000000000000006020909201918252620000589160009162000097565b50604080518082019091526004808252632aa9a22b60e11b6020909201918252620000869160019162000097565b50601260025560006003556200017a565b828054620000a5906200013d565b90600052602060002090601f016020900481019282620000c9576000855562000114565b82601f10620000e457805160ff191683800117855562000114565b8280016001018555821562000114579182015b8281111562000114578251825591602001919060010190620000f7565b506200012292915062000126565b5090565b5b8082111562000122576000815560010162000127565b600181811c908216806200015257607f821691505b602082108114156200017457634e487b7160e01b600052602260045260246000fd5b50919050565b6127d4806200018a6000396000f3fe608060405234801561001057600080fd5b50600436106102a05760003560e01c80637dc2268c11610167578063ae4e7fdf116100ce578063de6ad44e11610087578063de6ad44e14610629578063e9f27c3a14610631578063ebccb5b214610644578063f22454aa14610657578063f3fef3a314610660578063fbe521a014610673576102a0565b8063ae4e7fdf146105a6578063bf58d0ef146105ae578063d2450e8f146105c1578063d98f6088146105d4578063db006a75146105dd578063dd62ed3e146105f0576102a0565b806398fabd3a1161012057806398fabd3a1461050c578063a3908e1b14610514578063a4b82cb614610527578063a9059cbb14610530578063a9fbeb9a14610543578063accb22e11461057d576102a0565b80637dc2268c146104865780637ece45e81461048e5780638dfa9bcc146104a1578063952ca92c146104db57806395d89b41146104fb57806396c82e5714610503576102a0565b80632c07eebf1161020b57806347e7ef24116101c457806347e7ef24146103f35780635364df49146104065780636370920e1461042f57806370a082311461044257806379cc67901461046b5780637b0e5c451461047e576102a0565b80632c07eebf146103955780632ccb1b301461039e578063313ce567146103b157806332fe7b26146103ba5780633a61738d146103cd57806342966c68146103e0576102a0565b8063095ea7b31161025d578063095ea7b3146103355780630e15561a146103485780630e5c011e1461035157806318160ddd14610364578063184b95591461036d57806323b872dd14610382576102a0565b806301681315146102a557806302d0e1ae146102d5578063036e21e5146102f657806306fdde03146102ff5780630781f4d214610314578063090bbb011461032c575b600080fd5b600c546102b8906001600160a01b031681565b6040516001600160a01b0390911681526020015b60405180910390f35b6102e86102e3366004612509565b610686565b6040519081526020016102cc565b6102e8600f5481565b6103076106b3565b6040516102cc9190612677565b61031c610741565b60405190151581526020016102cc565b6102e860075481565b61031c6103433660046125cb565b6107c4565b6102e860115481565b6102e861035f3660046124d1565b6107da565b6102e860035481565b61038061037b366004612541565b610a1d565b005b61031c61039036600461258b565b610bbc565b6102e860085481565b61031c6103ac3660046125cb565b610c0e565b6102e860025481565b600d546102b8906001600160a01b031681565b6102e86103db3660046124d1565b610c1b565b6103806103ee366004612616565b610ce9565b6103806104013660046125cb565b610cf6565b6102e86104143660046124d1565b6001600160a01b031660009081526013602052604090205490565b61038061043d3660046125cb565b610d05565b6102e86104503660046124d1565b6001600160a01b031660009081526004602052604090205490565b6103806104793660046125cb565b610e0f565b6102b8610e5a565b61031c610ed7565b61038061049c366004612646565b610f1c565b6102e86104af366004612509565b6001600160a01b0380821660009081526014602090815260408083209386168352929052205492915050565b6102e86104e93660046124d1565b60176020526000908152604090205481565b610307610f82565b6102e860105481565b6102b8610f8f565b6102e8610522366004612616565b610fd4565b6102e8600a5481565b61031c61053e3660046125cb565b610fe0565b6102e8610551366004612509565b6001600160a01b0380821660009081526015602090815260408083209386168352929052205492915050565b6102e861058b3660046124d1565b6001600160a01b031660009081526012602052604090205490565b61031c610fed565b6103806105bc36600461258b565b61101b565b6102e86105cf3660046125cb565b6111df565b6102e8600b5481565b6102e86105eb366004612616565b611292565b6102e86105fe366004612509565b6001600160a01b03918216600090815260056020908152604080832093909416825291909152205490565b6102e861129e565b6102e861063f366004612509565b6112d3565b600e546102b8906001600160a01b031681565b6102e860095481565b6102e861066e3660046125cb565b6113d2565b6102e86106813660046125cb565b6113f4565b6001600160a01b038082166000908152601660209081526040808320938616835292905220545b92915050565b600080546106c090612738565b80601f01602080910402602001604051908101604052809291908181526020018280546106ec90612738565b80156107395780601f1061070e57610100808354040283529160200191610739565b820191906000526020600020905b81548152906001019060200180831161071c57829003601f168201915b505050505081565b600c54604080516303c0fa6960e11b815290516000926001600160a01b031691630781f4d2916004808301926020929190829003018186803b15801561078657600080fd5b505afa15801561079a573d6000803e3d6000fd5b505050506040513d601f19601f820116820180604052508101906107be91906125f6565b90505b90565b60006107d133848461141e565b50600192915050565b6000336107e783826112d3565b6001600160a01b038083166000818152601660209081526040808320948916808452948252808320429055928252601581528282209382529290925281208054929450849290919061083a9084906126ca565b92505081905550816011600082825461085391906126ca565b90915550600090506001600160a01b03841630141561087357508161097d565b61087b610e5a565b6001600160a01b031663db39dc79856001600160a01b03166382bfefc86040518163ffffffff1660e01b8152600401602060405180830381600087803b1580156108c457600080fd5b505af11580156108d8573d6000803e3d6000fd5b505050506040513d601f19601f820116820180604052508101906108fc91906124ed565b6040516001600160e01b031960e084901b1681526001600160a01b0390911660048201526024810186905260440160206040518083038186803b15801561094257600080fd5b505afa158015610956573d6000803e3d6000fd5b505050506040513d601f19601f8201168201806040525081019061097a919061262e565b90505b6001600160a01b038216600090815260136020526040812080548392906109a59084906126ca565b9250508190555080601060008282546109be91906126ca565b9091555050601054604080518581526020810184905280820192909252516001600160a01b0384811692908716917f154ce75570debb840e085287bc6b1fd9f48fa7b08a5f2dd564b6a7592147d4449181900360600190a35050919050565b60065460ff1615610a2d57600080fd5b6006805460ff19166001179055600c80546001600160a01b038581166001600160a01b03199283168117909355600d80548683169084168117909155600e8054928616929093169190911790915560405163095ea7b360e01b81526004810191909152600019602482015263095ea7b390604401602060405180830381600087803b158015610abb57600080fd5b505af1158015610acf573d6000803e3d6000fd5b505050506040513d601f19601f82011682018060405250810190610af391906125f6565b50600d54610b0e9030906001600160a01b031660001961141e565b600c60009054906101000a90046001600160a01b03166001600160a01b0316636b92a3b66040518163ffffffff1660e01b815260040160206040518083038186803b158015610b5c57600080fd5b505afa158015610b70573d6000803e3d6000fd5b505050506040513d601f19601f82011682018060405250810190610b94919061262e565b610b9e90426126ca565b60075550506064600855506001600f556000600b5562278d00600955565b6000610bc98484846114fe565b6001600160a01b038416600090815260056020908152604080832033808552925290912054610c04918691610bff908690612721565b61141e565b5060019392505050565b60006107d13284846114fe565b6001600160a01b0381166000908152601360205260408120546008548290610c4161129e565b610c4b91906126e2565b9050610c55610e5a565b6010546040516306e8c9b160e21b8152600481018590526024810191909152604481018390526001600160a01b039190911690631ba326c49060640160206040518083038186803b158015610ca957600080fd5b505afa158015610cbd573d6000803e3d6000fd5b505050506040513d601f19601f82011682018060405250810190610ce1919061262e565b949350505050565b610cf333826115f4565b50565b610d0182338361101b565b5050565b610d0d610f8f565b6001600160a01b0316336001600160a01b031614610d5c5760405162461bcd60e51b81526020600482015260076024820152664e6f742044414f60c81b60448201526064015b60405180910390fd5b600a610d6661129e565b610d7091906126e2565b811115610db35760405162461bcd60e51b81526020600482015260116024820152706e6f74206d6f7265207468616e2031302560781b6044820152606401610d53565b600954600a54610dc39042612721565b1015610e005760405162461bcd60e51b815260206004820152600c60248201526b1b9bdd081d1bdbc819985cdd60a21b6044820152606401610d53565b42600a55610d013083836114fe565b6001600160a01b0382166000908152600560209081526040808320338452909152812054610e3e908390612721565b9050610e4b83338361141e565b610e5583836115f4565b505050565b600c5460408051637b0e5c4560e01b815290516000926001600160a01b031691637b0e5c45916004808301926020929190829003018186803b158015610e9f57600080fd5b505afa158015610eb3573d6000803e3d6000fd5b505050506040513d601f19601f820116820180604052508101906107be91906124ed565b600c5460408051631f7089a360e21b815290516000926001600160a01b031691637dc2268c916004808301926020929190829003018186803b15801561078657600080fd5b610f24610f8f565b6001600160a01b0316336001600160a01b031614610f6e5760405162461bcd60e51b81526020600482015260076024820152664e6f742044414f60c81b6044820152606401610d53565b600893909355600f91909155600b55600955565b600180546106c090612738565b600c5460408051634c7d5e9d60e11b815290516000926001600160a01b0316916398fabd3a916004808301926020929190829003018186803b158015610e9f57600080fd5b60006106ad33836113f4565b60006107d13384846114fe565b600b54326000908152601760205260408120549091439161100e91906126ca565b116107c1575060016107c1565b6001600160a01b0383163014806111c15750600e54604051632f011bf560e11b81526001600160a01b03858116600483015290911690635e0237ea90602401602060405180830381600087803b15801561107457600080fd5b505af1158015611088573d6000803e3d6000fd5b505050506040513d601f19601f820116820180604052508101906110ac91906125f6565b80156111c15750600e60009054906101000a90046001600160a01b03166001600160a01b031663c87fa42a846001600160a01b03166382bfefc86040518163ffffffff1660e01b8152600401602060405180830381600087803b15801561111257600080fd5b505af1158015611126573d6000803e3d6000fd5b505050506040513d601f19601f8201168201806040525081019061114a91906124ed565b6040516001600160e01b031960e084901b1681526001600160a01b03909116600482015260240160206040518083038186803b15801561118957600080fd5b505afa15801561119d573d6000803e3d6000fd5b505050506040513d601f19601f820116820180604052508101906111c191906125f6565b6111ca57600080fd5b6111d483826116ca565b610e5583838361180b565b600c546000906111fa9033906001600160a01b0316846114fe565b600c5460405163c30a0ce760e01b81526001600160a01b0385811660048301529091169063c30a0ce790602401602060405180830381600087803b15801561124157600080fd5b505af1158015611255573d6000803e3d6000fd5b505050506040513d601f19601f82011682018060405250810190611279919061262e565b3260009081526017602052604090204390559392505050565b60006106ad33836111df565b6011543060009081526012602090815260408083205460049092528220549192916112c99190612721565b6107be9190612721565b6001600160a01b03808216600090815260166020908152604080832093861683529290529081205481906113079042612721565b9050600061131484610c1b565b9050600c60009054906101000a90046001600160a01b03166001600160a01b0316636b92a3b66040518163ffffffff1660e01b815260040160206040518083038186803b15801561136457600080fd5b505afa158015611378573d6000803e3d6000fd5b505050506040513d601f19601f8201168201806040525081019061139c919061262e565b6113a68383612702565b6113b091906126e2565b925060006113bc61129e565b90508084106113c9578093505b50505092915050565b6000336113e0848285611a64565b91506113ed848284611f8e565b5092915050565b600c5460009061140d906001600160a01b0316836116ca565b611417838361203a565b9392505050565b6001600160a01b03831661145d5760405162461bcd60e51b815260206004820152600660248201526539b2b73232b960d11b6044820152606401610d53565b6001600160a01b03821661149d5760405162461bcd60e51b815260206004820152600760248201526639b832b73232b960c91b6044820152606401610d53565b6001600160a01b0383811660008181526005602090815260408083209487168084529482529182902085905590518481527f8c5be1e5ebec7d5bd14f71427d1e84f3dd0314c0f7b2291e5b200ac8c7c3b925910160405180910390a3505050565b8015610e55576001600160a01b0383166115435760405162461bcd60e51b815260206004820152600660248201526539b2b73232b960d11b6044820152606401610d53565b6001600160a01b0383166000908152600460205260408120805483929061156b908490612721565b90915550506001600160a01b038216600090815260046020526040812080548392906115989084906126ca565b92505081905550816001600160a01b0316836001600160a01b03167fddf252ad1be2c89b69c2b068fc378daa952ba7f163c4a11628f55a4df523b3ef836040516115e491815260200190565b60405180910390a3610e55612181565b8015610d01576001600160a01b03821661163e5760405162461bcd60e51b815260206004820152600b60248201526a30b2323932b9b99032b93960a91b6044820152606401610d53565b6001600160a01b03821660009081526004602052604081208054839290611666908490612721565b92505081905550806003600082825461167f9190612721565b90915550506040518181526000906001600160a01b038416907fddf252ad1be2c89b69c2b068fc378daa952ba7f163c4a11628f55a4df523b3ef906020015b60405180910390a35050565b6001600160a01b0382163014156116eb576116e63330836114fe565b610d01565b3233141561177c576040516302ccb1b360e41b8152306004820152602481018290526001600160a01b03831690632ccb1b3090604401602060405180830381600087803b15801561173b57600080fd5b505af115801561174f573d6000803e3d6000fd5b505050506040513d601f19601f8201168201806040525081019061177391906125f6565b6116e657600080fd5b6040516323b872dd60e01b8152336004820152306024820152604481018290526001600160a01b038316906323b872dd90606401602060405180830381600087803b1580156117ca57600080fd5b505af11580156117de573d6000803e3d6000fd5b505050506040513d601f19601f8201168201806040525081019061180291906125f6565b610d0157600080fd5b6001600160a01b0380831660008181526016602090815260408083209488168084529482528083204290559282526014815282822093825292909252812080548392906118599084906126ca565b90915550506001600160a01b038316600090815260126020526040812080548392906118869084906126ca565b90915550600090506001600160a01b0384163014156118a65750806119b0565b6118ae610e5a565b6001600160a01b031663db39dc79856001600160a01b03166382bfefc86040518163ffffffff1660e01b8152600401602060405180830381600087803b1580156118f757600080fd5b505af115801561190b573d6000803e3d6000fd5b505050506040513d601f19601f8201168201806040525081019061192f91906124ed565b6040516001600160e01b031960e084901b1681526001600160a01b0390911660048201526024810185905260440160206040518083038186803b15801561197557600080fd5b505afa158015611989573d6000803e3d6000fd5b505050506040513d601f19601f820116820180604052508101906119ad919061262e565b90505b6001600160a01b038316600090815260136020526040812080548392906119d89084906126ca565b9250508190555080601060008282546119f191906126ca565b90915550506001600160a01b038481166000818152601260209081526040918290205460105483518881529283019190915281830186905260608201529051928616927f1dd1c43aa39b8d6cee7dd1d16ed47e15a4a20f35b7ec9bc091c6c760fc9e148f9181900360800190a350505050565b600f546001600160a01b038084166000908152601660209081526040808320938816835292905290812054909190611a9c9042612721565b1015611ad85760405162461bcd60e51b815260206004820152600b60248201526a4465706f73697454696d6560a81b6044820152606401610d53565b6000611ae2610e5a565b6001600160a01b0385811660009081526015602090815260408083208a851684529091529081902054905163714270ab60e01b815260048101879052602481019190915291169063714270ab9060440160206040518083038186803b158015611b4a57600080fd5b505afa158015611b5e573d6000803e3d6000fd5b505050506040513d601f19601f82011682018060405250810190611b82919061262e565b6001600160a01b038086166000908152601560209081526040808320938a16835292905290812080549293508392909190611bbe908490612721565b925050819055508060116000828254611bd79190612721565b90915550506001600160a01b0385163014611d2557600e54611c049030906001600160a01b0316836114fe565b600e60009054906101000a90046001600160a01b03166001600160a01b031663d016347e30876001600160a01b03166382bfefc86040518163ffffffff1660e01b8152600401602060405180830381600087803b158015611c6457600080fd5b505af1158015611c78573d6000803e3d6000fd5b505050506040513d601f19601f82011682018060405250810190611c9c91906124ed565b6040516001600160e01b031960e085901b1681526001600160a01b03928316600482015291166024820152306044820152606401602060405180830381600087803b158015611cea57600080fd5b505af1158015611cfe573d6000803e3d6000fd5b505050506040513d601f19601f82011682018060405250810190611d22919061262e565b90505b6000611d2f610e5a565b6001600160a01b0386811660009081526014602090815260408083208b851684529091529081902054905163714270ab60e01b815260048101889052602481019190915291169063714270ab9060440160206040518083038186803b158015611d9757600080fd5b505afa158015611dab573d6000803e3d6000fd5b505050506040513d601f19601f82011682018060405250810190611dcf919061262e565b6001600160a01b038087166000908152601460209081526040808320938b16835292905290812080549293508392909190611e0b908490612721565b90915550506001600160a01b03861660009081526012602052604081208054839290611e38908490612721565b9091555060009050611e48610e5a565b6001600160a01b038781166000908152601360205260409081902054905163714270ab60e01b815260048101899052602481019190915291169063714270ab9060440160206040518083038186803b158015611ea357600080fd5b505afa158015611eb7573d6000803e3d6000fd5b505050506040513d601f19601f82011682018060405250810190611edb919061262e565b6001600160a01b038716600090815260136020526040812080549293508392909190611f08908490612721565b925050819055508060106000828254611f219190612721565b9091555050601054604080518681526020810184905280820192909252516001600160a01b0388811692908a16917f28b0a5e71db5b0ceb9e9edc3f89a0763709f773d717a2dcfd7851977f805ea7a9181900360600190a3611f8383836126ca565b979650505050505050565b6001600160a01b038316301415611faf57611faa3083836114fe565b610e55565b60405163a9059cbb60e01b81526001600160a01b0383811660048301526024820183905284169063a9059cbb90604401602060405180830381600087803b158015611ff957600080fd5b505af115801561200d573d6000803e3d6000fd5b505050506040513d601f19601f8201168201806040525081019061203191906125f6565b610e5557600080fd5b6000612044610fed565b61207b5760405162461bcd60e51b815260206004820152600860248201526709cde40ccd8c2e6d60c31b6044820152606401610d53565b612083610ed7565b156106ad573260009081526017602052604090819020439055600c549051630852cd8d60e31b8152600481018490526001600160a01b03909116906342966c6890602401600060405180830381600087803b1580156120e157600080fd5b505af11580156120f5573d6000803e3d6000fd5b5050600d54604051632d26e9f960e11b8152600481018690526001600160a01b039091169250635a4dd3f2915060240160206040518083038186803b15801561213d57600080fd5b505afa158015612151573d6000803e3d6000fd5b505050506040513d601f19601f82011682018060405250810190612175919061262e565b90506106ad83826123ee565b60075442101580156121965750612196610741565b156123ec57600c60009054906101000a90046001600160a01b03166001600160a01b0316636b92a3b66040518163ffffffff1660e01b815260040160206040518083038186803b1580156121e957600080fd5b505afa1580156121fd573d6000803e3d6000fd5b505050506040513d601f19601f82011682018060405250810190612221919061262e565b61222b90426126ca565b600755600c546040516370a0823160e01b81523060048201526000916001600160a01b0316906370a082319060240160206040518083038186803b15801561227257600080fd5b505afa158015612286573d6000803e3d6000fd5b505050506040513d601f19601f820116820180604052508101906122aa919061262e565b905060006122b7826124b8565b90506122c3308261203a565b50600d546122e69030906001600160a01b03166122e16002856126e2565b6114fe565b600c54600d546040516370a0823160e01b81523060048201526001600160a01b039283169263a9059cbb92169083906370a082319060240160206040518083038186803b15801561233657600080fd5b505afa15801561234a573d6000803e3d6000fd5b505050506040513d601f19601f8201168201806040525081019061236e919061262e565b6040516001600160e01b031960e085901b1681526001600160a01b0390921660048301526024820152604401602060405180830381600087803b1580156123b457600080fd5b505af11580156123c8573d6000803e3d6000fd5b505050506040513d601f19601f82011682018060405250810190610e5591906125f6565b565b8015610d01576001600160a01b0382166124365760405162461bcd60e51b81526020600482015260096024820152681c9958da5c1a595b9d60ba1b6044820152606401610d53565b806003600082825461244891906126ca565b90915550506001600160a01b038216600090815260046020526040812080548392906124759084906126ca565b90915550506040518181526001600160a01b038316906000907fddf252ad1be2c89b69c2b068fc378daa952ba7f163c4a11628f55a4df523b3ef906020016116be565b600060036124c7836002612702565b6106ad91906126e2565b6000602082840312156124e2578081fd5b813561141781612789565b6000602082840312156124fe578081fd5b815161141781612789565b6000806040838503121561251b578081fd5b823561252681612789565b9150602083013561253681612789565b809150509250929050565b600080600060608486031215612555578081fd5b833561256081612789565b9250602084013561257081612789565b9150604084013561258081612789565b809150509250925092565b60008060006060848603121561259f578283fd5b83356125aa81612789565b925060208401356125ba81612789565b929592945050506040919091013590565b600080604083850312156125dd578182fd5b82356125e881612789565b946020939093013593505050565b600060208284031215612607578081fd5b81518015158114611417578182fd5b600060208284031215612627578081fd5b5035919050565b60006020828403121561263f578081fd5b5051919050565b6000806000806080858703121561265b578081fd5b5050823594602084013594506040840135936060013592509050565b6000602080835283518082850152825b818110156126a357858101830151858201604001528201612687565b818111156126b45783604083870101525b50601f01601f1916929092016040019392505050565b600082198211156126dd576126dd612773565b500190565b6000826126fd57634e487b7160e01b81526012600452602481fd5b500490565b600081600019048311821515161561271c5761271c612773565b500290565b60008282101561273357612733612773565b500390565b600181811c9082168061274c57607f821691505b6020821081141561276d57634e487b7160e01b600052602260045260246000fd5b50919050565b634e487b7160e01b600052601160045260246000fd5b6001600160a01b0381168114610cf357600080fdfea2646970667358221220ed014427b14edb7b672c23f354e20e43f4039b6e2aaad8aca002f16edaddc5c564736f6c63430008030033",
  "linkReferences": {},
  "deployedLinkReferences": {}
}