{
  "_format": "hh-sol-artifact-1",
  "contractName": "USDV",
  "sourceName": "contracts/USDV.sol",
  "abi": [
    {
      "inputs": [],
      "stateMutability": "nonpayable",
      "type": "constructor"
    },
    {
      "anonymous": false,
      "inputs": [
        {
          "indexed": true,
          "internalType": "address",
          "name": "owner",
          "type": "address"
        },
        {
          "indexed": true,
          "internalType": "address",
          "name": "spender",
          "type": "address"
        },
        {
          "indexed": false,
          "internalType": "uint256",
          "name": "value",
          "type": "uint256"
        }
      ],
      "name": "Approval",
      "type": "event"
    },
    {
      "anonymous": false,
      "inputs": [
        {
          "indexed": true,
          "internalType": "address",
          "name": "from",
          "type": "address"
        },
        {
          "indexed": true,
          "internalType": "address",
          "name": "to",
          "type": "address"
        },
        {
          "indexed": false,
          "internalType": "uint256",
          "name": "value",
          "type": "uint256"
        }
      ],
      "name": "Transfer",
      "type": "event"
    },
    {
      "inputs": [],
      "name": "DAO",
      "outputs": [
        {
          "internalType": "address",
          "name": "",
          "type": "address"
        }
      ],
      "stateMutability": "view",
      "type": "function"
    },
    {
      "inputs": [],
      "name": "ROUTER",
      "outputs": [
        {
          "internalType": "address",
          "name": "",
          "type": "address"
        }
      ],
      "stateMutability": "view",
      "type": "function"
    },
    {
      "inputs": [],
      "name": "VADER",
      "outputs": [
        {
          "internalType": "address",
          "name": "",
          "type": "address"
        }
      ],
      "stateMutability": "view",
      "type": "function"
    },
    {
      "inputs": [],
      "name": "VAULT",
      "outputs": [
        {
          "internalType": "address",
          "name": "",
          "type": "address"
        }
      ],
      "stateMutability": "view",
      "type": "function"
    },
    {
      "inputs": [
        {
          "internalType": "address",
          "name": "owner",
          "type": "address"
        },
        {
          "internalType": "address",
          "name": "spender",
          "type": "address"
        }
      ],
      "name": "allowance",
      "outputs": [
        {
          "internalType": "uint256",
          "name": "",
          "type": "uint256"
        }
      ],
      "stateMutability": "view",
      "type": "function"
    },
    {
      "inputs": [
        {
          "internalType": "address",
          "name": "spender",
          "type": "address"
        },
        {
          "internalType": "uint256",
          "name": "amount",
          "type": "uint256"
        }
      ],
      "name": "approve",
      "outputs": [
        {
          "internalType": "bool",
          "name": "",
          "type": "bool"
        }
      ],
      "stateMutability": "nonpayable",
      "type": "function"
    },
    {
      "inputs": [
        {
          "internalType": "address",
          "name": "account",
          "type": "address"
        }
      ],
      "name": "balanceOf",
      "outputs": [
        {
          "internalType": "uint256",
          "name": "",
          "type": "uint256"
        }
      ],
      "stateMutability": "view",
      "type": "function"
    },
    {
      "inputs": [],
      "name": "blockDelay",
      "outputs": [
        {
          "internalType": "uint256",
          "name": "",
          "type": "uint256"
        }
      ],
      "stateMutability": "view",
      "type": "function"
    },
    {
      "inputs": [
        {
          "internalType": "uint256",
          "name": "amount",
          "type": "uint256"
        }
      ],
      "name": "burn",
      "outputs": [],
      "stateMutability": "nonpayable",
      "type": "function"
    },
    {
      "inputs": [
        {
          "internalType": "address",
          "name": "account",
          "type": "address"
        },
        {
          "internalType": "uint256",
          "name": "amount",
          "type": "uint256"
        }
      ],
      "name": "burnFrom",
      "outputs": [],
      "stateMutability": "nonpayable",
      "type": "function"
    },
    {
      "inputs": [
        {
          "internalType": "uint256",
          "name": "amount",
          "type": "uint256"
        }
      ],
      "name": "convert",
      "outputs": [
        {
          "internalType": "uint256",
          "name": "",
          "type": "uint256"
        }
      ],
      "stateMutability": "nonpayable",
      "type": "function"
    },
    {
      "inputs": [
        {
          "internalType": "address",
          "name": "member",
          "type": "address"
        },
        {
          "internalType": "uint256",
          "name": "amount",
          "type": "uint256"
        }
      ],
      "name": "convertForMember",
      "outputs": [
        {
          "internalType": "uint256",
          "name": "",
          "type": "uint256"
        }
      ],
      "stateMutability": "nonpayable",
      "type": "function"
    },
    {
      "inputs": [],
      "name": "decimals",
      "outputs": [
        {
          "internalType": "uint256",
          "name": "",
          "type": "uint256"
        }
      ],
      "stateMutability": "view",
      "type": "function"
    },
    {
      "inputs": [],
      "name": "emitting",
      "outputs": [
        {
          "internalType": "bool",
          "name": "",
          "type": "bool"
        }
      ],
      "stateMutability": "view",
      "type": "function"
    },
    {
      "inputs": [
        {
          "internalType": "address",
          "name": "_vader",
          "type": "address"
        },
        {
          "internalType": "address",
          "name": "_vault",
          "type": "address"
        },
        {
          "internalType": "address",
          "name": "_router",
          "type": "address"
        }
      ],
      "name": "init",
      "outputs": [],
      "stateMutability": "nonpayable",
      "type": "function"
    },
    {
      "inputs": [],
      "name": "isMature",
      "outputs": [
        {
          "internalType": "bool",
          "name": "isMatured",
          "type": "bool"
        }
      ],
      "stateMutability": "view",
      "type": "function"
    },
    {
      "inputs": [
        {
          "internalType": "address",
          "name": "",
          "type": "address"
        }
      ],
      "name": "lastBlock",
      "outputs": [
        {
          "internalType": "uint256",
          "name": "",
          "type": "uint256"
        }
      ],
      "stateMutability": "view",
      "type": "function"
    },
    {
      "inputs": [],
      "name": "minting",
      "outputs": [
        {
          "internalType": "bool",
          "name": "",
          "type": "bool"
        }
      ],
      "stateMutability": "view",
      "type": "function"
    },
    {
      "inputs": [],
      "name": "name",
      "outputs": [
        {
          "internalType": "string",
          "name": "",
          "type": "string"
        }
      ],
      "stateMutability": "view",
      "type": "function"
    },
    {
      "inputs": [],
      "name": "nextEraTime",
      "outputs": [
        {
          "internalType": "uint256",
          "name": "",
          "type": "uint256"
        }
      ],
      "stateMutability": "view",
      "type": "function"
    },
    {
      "inputs": [
        {
          "internalType": "uint256",
          "name": "amount",
          "type": "uint256"
        }
      ],
      "name": "redeem",
      "outputs": [
        {
          "internalType": "uint256",
          "name": "",
          "type": "uint256"
        }
      ],
      "stateMutability": "nonpayable",
      "type": "function"
    },
    {
      "inputs": [
        {
          "internalType": "address",
          "name": "member",
          "type": "address"
        },
        {
          "internalType": "uint256",
          "name": "amount",
          "type": "uint256"
        }
      ],
      "name": "redeemForMember",
      "outputs": [
        {
          "internalType": "uint256",
          "name": "redeemAmount",
          "type": "uint256"
        }
      ],
      "stateMutability": "nonpayable",
      "type": "function"
    },
    {
      "inputs": [
        {
          "internalType": "uint256",
          "name": "newDelay",
          "type": "uint256"
        }
      ],
      "name": "setParams",
      "outputs": [],
      "stateMutability": "nonpayable",
      "type": "function"
    },
    {
      "inputs": [],
      "name": "symbol",
      "outputs": [
        {
          "internalType": "string",
          "name": "",
          "type": "string"
        }
      ],
      "stateMutability": "view",
      "type": "function"
    },
    {
      "inputs": [],
      "name": "totalSupply",
      "outputs": [
        {
          "internalType": "uint256",
          "name": "",
          "type": "uint256"
        }
      ],
      "stateMutability": "view",
      "type": "function"
    },
    {
      "inputs": [
        {
          "internalType": "address",
          "name": "recipient",
          "type": "address"
        },
        {
          "internalType": "uint256",
          "name": "amount",
          "type": "uint256"
        }
      ],
      "name": "transfer",
      "outputs": [
        {
          "internalType": "bool",
          "name": "",
          "type": "bool"
        }
      ],
      "stateMutability": "nonpayable",
      "type": "function"
    },
    {
      "inputs": [
        {
          "internalType": "address",
          "name": "sender",
          "type": "address"
        },
        {
          "internalType": "address",
          "name": "recipient",
          "type": "address"
        },
        {
          "internalType": "uint256",
          "name": "amount",
          "type": "uint256"
        }
      ],
      "name": "transferFrom",
      "outputs": [
        {
          "internalType": "bool",
          "name": "",
          "type": "bool"
        }
      ],
      "stateMutability": "nonpayable",
      "type": "function"
    },
    {
      "inputs": [
        {
          "internalType": "address",
          "name": "recipient",
          "type": "address"
        },
        {
          "internalType": "uint256",
          "name": "amount",
          "type": "uint256"
        }
      ],
      "name": "transferTo",
      "outputs": [
        {
          "internalType": "bool",
          "name": "",
          "type": "bool"
        }
      ],
      "stateMutability": "nonpayable",
      "type": "function"
    }
  ],
  "bytecode": "0x60806040523480156200001157600080fd5b506040805180820190915260138082527f564144455220535441424c4520444f4c4c4152000000000000000000000000006020909201918252620000589160009162000127565b50604080518082019091526004808252632aa9a22b60e11b6020909201918252620000869160019162000127565b5060126002556000600355600954604080516335c951db60e11b815290516001600160a01b0390921691636b92a3b691600480820192602092909190829003018186803b158015620000d757600080fd5b505afa158015620000ec573d6000803e3d6000fd5b505050506040513d601f19601f82011682018060405250810190620001129190620001cd565b6200011e9042620001e6565b60075562000248565b82805462000135906200020b565b90600052602060002090601f016020900481019282620001595760008555620001a4565b82601f106200017457805160ff1916838001178555620001a4565b82800160010185558215620001a4579182015b82811115620001a457825182559160200191906001019062000187565b50620001b2929150620001b6565b5090565b5b80821115620001b25760008155600101620001b7565b600060208284031215620001df578081fd5b5051919050565b600082198211156200020657634e487b7160e01b81526011600452602481fd5b500190565b600181811c908216806200022057607f821691505b602082108114156200024257634e487b7160e01b600052602260045260246000fd5b50919050565b61152880620002586000396000f3fe608060405234801561001057600080fd5b50600436106101c45760003560e01c806370a08231116100f9578063a9059cbb11610097578063d98f608811610071578063d98f60881461039e578063db006a75146103a7578063dd62ed3e146103ba578063fbe521a0146103f3576101c4565b8063a9059cbb14610370578063ae4e7fdf14610383578063d2450e8f1461038b576101c4565b8063952ca92c116100d3578063952ca92c1461032d57806395d89b411461034d57806398fabd3a14610355578063a3908e1b1461035d576101c4565b806370a08231146102e957806379cc6790146103125780637dc2268c14610325576101c4565b806323b872dd1161016657806332fe7b261161014057806332fe7b261461029d578063411557d1146102b057806342966c68146102c357806359ded210146102d6576101c4565b806323b872dd1461026e5780632ccb1b3014610281578063313ce56714610294576101c4565b8063090bbb01116101a2578063090bbb0114610226578063095ea7b31461023d57806318160ddd14610250578063184b955914610259576101c4565b806301681315146101c957806306fdde03146101f95780630781f4d21461020e575b600080fd5b6009546101dc906001600160a01b031681565b6040516001600160a01b0390911681526020015b60405180910390f35b610201610406565b6040516101f091906113ea565b610216610494565b60405190151581526020016101f0565b61022f60075481565b6040519081526020016101f0565b61021661024b36600461136f565b610517565b61022f60035481565b61026c6102673660046112e5565b61052e565b005b61021661027c36600461132f565b61058a565b61021661028f36600461136f565b6105dc565b61022f60025481565b600b546101dc906001600160a01b031681565b600a546101dc906001600160a01b031681565b61026c6102d13660046113ba565b6105e9565b61026c6102e43660046113ba565b6105f6565b61022f6102f7366004611275565b6001600160a01b031660009081526004602052604090205490565b61026c61032036600461136f565b610652565b61021661069d565b61022f61033b366004611275565b600c6020526000908152604090205481565b6102016106e2565b6101dc6106ef565b61022f61036b3660046113ba565b61076c565b61021661037e36600461136f565b610778565b610216610785565b61022f61039936600461136f565b6107b3565b61022f60085481565b61022f6103b53660046113ba565b610866565b61022f6103c83660046112ad565b6001600160a01b03918216600090815260056020908152604080832093909416825291909152205490565b61022f61040136600461136f565b610872565b600080546104139061148c565b80601f016020809104026020016040519081016040528092919081815260200182805461043f9061148c565b801561048c5780601f106104615761010080835404028352916020019161048c565b820191906000526020600020905b81548152906001019060200180831161046f57829003601f168201915b505050505081565b600954604080516303c0fa6960e11b815290516000926001600160a01b031691630781f4d2916004808301926020929190829003018186803b1580156104d957600080fd5b505afa1580156104ed573d6000803e3d6000fd5b505050506040513d601f19601f82011682018060405250810190610511919061139a565b90505b90565b600061052433848461089c565b5060015b92915050565b60065460ff161561053e57600080fd5b6006805460ff19166001179055600980546001600160a01b039485166001600160a01b031991821617909155600a805493851693821693909317909255600b8054919093169116179055565b600061059784848461097c565b6001600160a01b0384166000908152600560209081526040808320338085529252909120546105d29186916105cd908690611475565b61089c565b5060019392505050565b600061052432848461097c565b6105f33382610a72565b50565b6105fe6106ef565b6001600160a01b0316336001600160a01b03161461064d5760405162461bcd60e51b81526020600482015260076024820152664e6f742044414f60c81b60448201526064015b60405180910390fd5b600855565b6001600160a01b0382166000908152600560209081526040808320338452909152812054610681908390611475565b905061068e83338361089c565b6106988383610a72565b505050565b60095460408051631f7089a360e21b815290516000926001600160a01b031691637dc2268c916004808301926020929190829003018186803b1580156104d957600080fd5b600180546104139061148c565b60095460408051634c7d5e9d60e11b815290516000926001600160a01b0316916398fabd3a916004808301926020929190829003018186803b15801561073457600080fd5b505afa158015610748573d6000803e3d6000fd5b505050506040513d601f19601f820116820180604052508101906105119190611291565b60006105283383610872565b600061052433848461097c565b600854326000908152600c6020526040812054909143916107a6919061143d565b1161051457506001610514565b6009546000906107ce9033906001600160a01b03168461097c565b60095460405163c30a0ce760e01b81526001600160a01b0385811660048301529091169063c30a0ce790602401602060405180830381600087803b15801561081557600080fd5b505af1158015610829573d6000803e3d6000fd5b505050506040513d601f19601f8201168201806040525081019061084d91906113d2565b326000908152600c602052604090204390559392505050565b600061052833836107b3565b60095460009061088b906001600160a01b031683610b49565b6108958383610c8a565b9392505050565b6001600160a01b0383166108db5760405162461bcd60e51b815260206004820152600660248201526539b2b73232b960d11b6044820152606401610644565b6001600160a01b03821661091b5760405162461bcd60e51b815260206004820152600760248201526639b832b73232b960c91b6044820152606401610644565b6001600160a01b0383811660008181526005602090815260408083209487168084529482529182902085905590518481527f8c5be1e5ebec7d5bd14f71427d1e84f3dd0314c0f7b2291e5b200ac8c7c3b925910160405180910390a3505050565b8015610698576001600160a01b0383166109c15760405162461bcd60e51b815260206004820152600660248201526539b2b73232b960d11b6044820152606401610644565b6001600160a01b038316600090815260046020526040812080548392906109e9908490611475565b90915550506001600160a01b03821660009081526004602052604081208054839290610a1690849061143d565b92505081905550816001600160a01b0316836001600160a01b03167fddf252ad1be2c89b69c2b068fc378daa952ba7f163c4a11628f55a4df523b3ef83604051610a6291815260200190565b60405180910390a3610698610dd1565b8015610b45576001600160a01b038216610abc5760405162461bcd60e51b815260206004820152600b60248201526a30b2323932b9b99032b93960a91b6044820152606401610644565b6001600160a01b03821660009081526004602052604081208054839290610ae4908490611475565b925050819055508060036000828254610afd9190611475565b90915550506040518181526000906001600160a01b038416907fddf252ad1be2c89b69c2b068fc378daa952ba7f163c4a11628f55a4df523b3ef906020015b60405180910390a35b5050565b6001600160a01b038216301415610b6a57610b6533308361097c565b610b45565b32331415610bfb576040516302ccb1b360e41b8152306004820152602481018290526001600160a01b03831690632ccb1b3090604401602060405180830381600087803b158015610bba57600080fd5b505af1158015610bce573d6000803e3d6000fd5b505050506040513d601f19601f82011682018060405250810190610bf2919061139a565b610b6557600080fd5b6040516323b872dd60e01b8152336004820152306024820152604481018290526001600160a01b038316906323b872dd90606401602060405180830381600087803b158015610c4957600080fd5b505af1158015610c5d573d6000803e3d6000fd5b505050506040513d601f19601f82011682018060405250810190610c81919061139a565b610b4557600080fd5b6000610c94610785565b610ccb5760405162461bcd60e51b815260206004820152600860248201526709cde40ccd8c2e6d60c31b6044820152606401610644565b610cd361069d565b1561052857326000908152600c6020526040908190204390556009549051630852cd8d60e31b8152600481018490526001600160a01b03909116906342966c6890602401600060405180830381600087803b158015610d3157600080fd5b505af1158015610d45573d6000803e3d6000fd5b5050600b54604051632d26e9f960e11b8152600481018690526001600160a01b039091169250635a4dd3f2915060240160206040518083038186803b158015610d8d57600080fd5b505afa158015610da1573d6000803e3d6000fd5b505050506040513d601f19601f82011682018060405250810190610dc591906113d2565b905061052883826111ab565b6007544210158015610de65750610de6610494565b156111a957600960009054906101000a90046001600160a01b03166001600160a01b0316636b92a3b66040518163ffffffff1660e01b815260040160206040518083038186803b158015610e3957600080fd5b505afa158015610e4d573d6000803e3d6000fd5b505050506040513d601f19601f82011682018060405250810190610e7191906113d2565b610e7b904261143d565b6007556009546040516370a0823160e01b81523060048201526000916001600160a01b0316906370a082319060240160206040518083038186803b158015610ec257600080fd5b505afa158015610ed6573d6000803e3d6000fd5b505050506040513d601f19601f82011682018060405250810190610efa91906113d2565b905060048111156105f3576000610f12600283611455565b9050610f1e3082610c8a565b503060009081526004602052604090205460021015610f8f57600b5430600081815260046020526040902054610f69926001600160a01b031690610f6490600290611455565b61097c565b600a5430600081815260046020526040902054610f8f926001600160a01b031690610f64565b600954600b546040516370a0823160e01b81523060048201526001600160a01b039283169263a9059cbb92169060029084906370a082319060240160206040518083038186803b158015610fe257600080fd5b505afa158015610ff6573d6000803e3d6000fd5b505050506040513d601f19601f8201168201806040525081019061101a91906113d2565b6110249190611455565b6040516001600160e01b031960e085901b1681526001600160a01b0390921660048301526024820152604401602060405180830381600087803b15801561106a57600080fd5b505af115801561107e573d6000803e3d6000fd5b505050506040513d601f19601f820116820180604052508101906110a2919061139a565b50600954600a546040516370a0823160e01b81523060048201526001600160a01b039283169263a9059cbb92169083906370a082319060240160206040518083038186803b1580156110f357600080fd5b505afa158015611107573d6000803e3d6000fd5b505050506040513d601f19601f8201168201806040525081019061112b91906113d2565b6040516001600160e01b031960e085901b1681526001600160a01b0390921660048301526024820152604401602060405180830381600087803b15801561117157600080fd5b505af1158015611185573d6000803e3d6000fd5b505050506040513d601f19601f82011682018060405250810190610698919061139a565b565b8015610b45576001600160a01b0382166111f35760405162461bcd60e51b81526020600482015260096024820152681c9958da5c1a595b9d60ba1b6044820152606401610644565b8060036000828254611205919061143d565b90915550506001600160a01b0382166000908152600460205260408120805483929061123290849061143d565b90915550506040518181526001600160a01b038316906000907fddf252ad1be2c89b69c2b068fc378daa952ba7f163c4a11628f55a4df523b3ef90602001610b3c565b600060208284031215611286578081fd5b8135610895816114dd565b6000602082840312156112a2578081fd5b8151610895816114dd565b600080604083850312156112bf578081fd5b82356112ca816114dd565b915060208301356112da816114dd565b809150509250929050565b6000806000606084860312156112f9578081fd5b8335611304816114dd565b92506020840135611314816114dd565b91506040840135611324816114dd565b809150509250925092565b600080600060608486031215611343578283fd5b833561134e816114dd565b9250602084013561135e816114dd565b929592945050506040919091013590565b60008060408385031215611381578182fd5b823561138c816114dd565b946020939093013593505050565b6000602082840312156113ab578081fd5b81518015158114610895578182fd5b6000602082840312156113cb578081fd5b5035919050565b6000602082840312156113e3578081fd5b5051919050565b6000602080835283518082850152825b81811015611416578581018301518582016040015282016113fa565b818111156114275783604083870101525b50601f01601f1916929092016040019392505050565b60008219821115611450576114506114c7565b500190565b60008261147057634e487b7160e01b81526012600452602481fd5b500490565b600082821015611487576114876114c7565b500390565b600181811c908216806114a057607f821691505b602082108114156114c157634e487b7160e01b600052602260045260246000fd5b50919050565b634e487b7160e01b600052601160045260246000fd5b6001600160a01b03811681146105f357600080fdfea2646970667358221220a228a5ce9afd6cafa0fe997ab1697dceae55d72a53c25d5b4ab365636897f51b64736f6c63430008030033",
  "linkReferences": {},
  "deployedLinkReferences": {}
}