{
  "_format": "hh-sol-artifact-1",
  "contractName": "USDV",
  "sourceName": "contracts/USDV.sol",
  "abi": [
    {
      "inputs": [],
      "stateMutability": "nonpayable",
      "type": "constructor"
    },
    {
      "anonymous": false,
      "inputs": [
        {
          "indexed": true,
          "internalType": "address",
          "name": "owner",
          "type": "address"
        },
        {
          "indexed": true,
          "internalType": "address",
          "name": "spender",
          "type": "address"
        },
        {
          "indexed": false,
          "internalType": "uint256",
          "name": "value",
          "type": "uint256"
        }
      ],
      "name": "Approval",
      "type": "event"
    },
    {
      "anonymous": false,
      "inputs": [
        {
          "indexed": true,
          "internalType": "address",
          "name": "token",
          "type": "address"
        },
        {
          "indexed": true,
          "internalType": "address",
          "name": "member",
          "type": "address"
        },
        {
          "indexed": false,
          "internalType": "uint256",
          "name": "newDeposit",
          "type": "uint256"
        },
        {
          "indexed": false,
          "internalType": "uint256",
          "name": "totalDeposit",
          "type": "uint256"
        },
        {
          "indexed": false,
          "internalType": "uint256",
          "name": "weight",
          "type": "uint256"
        },
        {
          "indexed": false,
          "internalType": "uint256",
          "name": "totalWeight",
          "type": "uint256"
        }
      ],
      "name": "MemberDeposits",
      "type": "event"
    },
    {
      "anonymous": false,
      "inputs": [
        {
          "indexed": true,
          "internalType": "address",
          "name": "token",
          "type": "address"
        },
        {
          "indexed": true,
          "internalType": "address",
          "name": "member",
          "type": "address"
        },
        {
          "indexed": false,
          "internalType": "uint256",
          "name": "amount",
          "type": "uint256"
        },
        {
          "indexed": false,
          "internalType": "uint256",
          "name": "weight",
          "type": "uint256"
        },
        {
          "indexed": false,
          "internalType": "uint256",
          "name": "totalWeight",
          "type": "uint256"
        }
      ],
      "name": "MemberHarvests",
      "type": "event"
    },
    {
      "anonymous": false,
      "inputs": [
        {
          "indexed": true,
          "internalType": "address",
          "name": "token",
          "type": "address"
        },
        {
          "indexed": true,
          "internalType": "address",
          "name": "member",
          "type": "address"
        },
        {
          "indexed": false,
          "internalType": "uint256",
          "name": "amount",
          "type": "uint256"
        },
        {
          "indexed": false,
          "internalType": "uint256",
          "name": "weight",
          "type": "uint256"
        },
        {
          "indexed": false,
          "internalType": "uint256",
          "name": "totalWeight",
          "type": "uint256"
        }
      ],
      "name": "MemberWithdraws",
      "type": "event"
    },
    {
      "anonymous": false,
      "inputs": [
        {
          "indexed": true,
          "internalType": "address",
          "name": "from",
          "type": "address"
        },
        {
          "indexed": true,
          "internalType": "address",
          "name": "to",
          "type": "address"
        },
        {
          "indexed": false,
          "internalType": "uint256",
          "name": "value",
          "type": "uint256"
        }
      ],
      "name": "Transfer",
      "type": "event"
    },
    {
      "inputs": [],
      "name": "DAO",
      "outputs": [
        {
          "internalType": "address",
          "name": "",
          "type": "address"
        }
      ],
      "stateMutability": "view",
      "type": "function"
    },
    {
      "inputs": [],
      "name": "ROUTER",
      "outputs": [
        {
          "internalType": "address",
          "name": "",
          "type": "address"
        }
      ],
      "stateMutability": "view",
      "type": "function"
    },
    {
      "inputs": [],
      "name": "UTILS",
      "outputs": [
        {
          "internalType": "address",
          "name": "",
          "type": "address"
        }
      ],
      "stateMutability": "view",
      "type": "function"
    },
    {
      "inputs": [],
      "name": "VADER",
      "outputs": [
        {
          "internalType": "address",
          "name": "",
          "type": "address"
        }
      ],
      "stateMutability": "view",
      "type": "function"
    },
    {
      "inputs": [],
      "name": "VAULT",
      "outputs": [
        {
          "internalType": "address",
          "name": "",
          "type": "address"
        }
      ],
      "stateMutability": "view",
      "type": "function"
    },
    {
      "inputs": [
        {
          "internalType": "address",
          "name": "owner",
          "type": "address"
        },
        {
          "internalType": "address",
          "name": "spender",
          "type": "address"
        }
      ],
      "name": "allowance",
      "outputs": [
        {
          "internalType": "uint256",
          "name": "",
          "type": "uint256"
        }
      ],
      "stateMutability": "view",
      "type": "function"
    },
    {
      "inputs": [
        {
          "internalType": "address",
          "name": "spender",
          "type": "address"
        },
        {
          "internalType": "uint256",
          "name": "amount",
          "type": "uint256"
        }
      ],
      "name": "approve",
      "outputs": [
        {
          "internalType": "bool",
          "name": "",
          "type": "bool"
        }
      ],
      "stateMutability": "nonpayable",
      "type": "function"
    },
    {
      "inputs": [
        {
          "internalType": "address",
          "name": "account",
          "type": "address"
        }
      ],
      "name": "balanceOf",
      "outputs": [
        {
          "internalType": "uint256",
          "name": "",
          "type": "uint256"
        }
      ],
      "stateMutability": "view",
      "type": "function"
    },
    {
      "inputs": [],
      "name": "blockDelay",
      "outputs": [
        {
          "internalType": "uint256",
          "name": "",
          "type": "uint256"
        }
      ],
      "stateMutability": "view",
      "type": "function"
    },
    {
      "inputs": [
        {
          "internalType": "uint256",
          "name": "amount",
          "type": "uint256"
        }
      ],
      "name": "burn",
      "outputs": [],
      "stateMutability": "nonpayable",
      "type": "function"
    },
    {
      "inputs": [
        {
          "internalType": "address",
          "name": "account",
          "type": "address"
        },
        {
          "internalType": "uint256",
          "name": "amount",
          "type": "uint256"
        }
      ],
      "name": "burnFrom",
      "outputs": [],
      "stateMutability": "nonpayable",
      "type": "function"
    },
    {
      "inputs": [
        {
          "internalType": "address",
          "name": "token",
          "type": "address"
        },
        {
          "internalType": "address",
          "name": "member",
          "type": "address"
        }
      ],
      "name": "calcCurrentPayment",
      "outputs": [
        {
          "internalType": "uint256",
          "name": "",
          "type": "uint256"
        }
      ],
      "stateMutability": "view",
      "type": "function"
    },
    {
      "inputs": [
        {
          "internalType": "address",
          "name": "token",
          "type": "address"
        },
        {
          "internalType": "address",
          "name": "member",
          "type": "address"
        }
      ],
      "name": "calcPayment",
      "outputs": [
        {
          "internalType": "uint256",
          "name": "",
          "type": "uint256"
        }
      ],
      "stateMutability": "view",
      "type": "function"
    },
    {
      "inputs": [
        {
          "internalType": "uint256",
          "name": "amount",
          "type": "uint256"
        }
      ],
      "name": "convert",
      "outputs": [
        {
          "internalType": "uint256",
          "name": "",
          "type": "uint256"
        }
      ],
      "stateMutability": "nonpayable",
      "type": "function"
    },
    {
      "inputs": [
        {
          "internalType": "address",
          "name": "member",
          "type": "address"
        },
        {
          "internalType": "uint256",
          "name": "amount",
          "type": "uint256"
        }
      ],
      "name": "convertForMember",
      "outputs": [
        {
          "internalType": "uint256",
          "name": "",
          "type": "uint256"
        }
      ],
      "stateMutability": "nonpayable",
      "type": "function"
    },
    {
      "inputs": [],
      "name": "currentEra",
      "outputs": [
        {
          "internalType": "uint256",
          "name": "",
          "type": "uint256"
        }
      ],
      "stateMutability": "view",
      "type": "function"
    },
    {
      "inputs": [],
      "name": "decimals",
      "outputs": [
        {
          "internalType": "uint256",
          "name": "",
          "type": "uint256"
        }
      ],
      "stateMutability": "view",
      "type": "function"
    },
    {
      "inputs": [
        {
          "internalType": "address",
          "name": "token",
          "type": "address"
        },
        {
          "internalType": "uint256",
          "name": "amount",
          "type": "uint256"
        }
      ],
      "name": "deposit",
      "outputs": [],
      "stateMutability": "nonpayable",
      "type": "function"
    },
    {
      "inputs": [
        {
          "internalType": "address",
          "name": "token",
          "type": "address"
        },
        {
          "internalType": "address",
          "name": "member",
          "type": "address"
        },
        {
          "internalType": "uint256",
          "name": "amount",
          "type": "uint256"
        }
      ],
      "name": "depositForMember",
      "outputs": [],
      "stateMutability": "nonpayable",
      "type": "function"
    },
    {
      "inputs": [],
      "name": "emitting",
      "outputs": [
        {
          "internalType": "bool",
          "name": "",
          "type": "bool"
        }
      ],
      "stateMutability": "view",
      "type": "function"
    },
    {
      "inputs": [],
      "name": "erasToEarn",
      "outputs": [
        {
          "internalType": "uint256",
          "name": "",
          "type": "uint256"
        }
      ],
      "stateMutability": "view",
      "type": "function"
    },
    {
      "inputs": [
        {
          "internalType": "address",
          "name": "token",
          "type": "address"
        },
        {
          "internalType": "address",
          "name": "member",
          "type": "address"
        }
      ],
      "name": "getMemberDeposit",
      "outputs": [
        {
          "internalType": "uint256",
          "name": "",
          "type": "uint256"
        }
      ],
      "stateMutability": "view",
      "type": "function"
    },
    {
      "inputs": [
        {
          "internalType": "address",
          "name": "token",
          "type": "address"
        },
        {
          "internalType": "address",
          "name": "member",
          "type": "address"
        }
      ],
      "name": "getMemberLastTime",
      "outputs": [
        {
          "internalType": "uint256",
          "name": "",
          "type": "uint256"
        }
      ],
      "stateMutability": "view",
      "type": "function"
    },
    {
      "inputs": [
        {
          "internalType": "address",
          "name": "recipient",
          "type": "address"
        },
        {
          "internalType": "uint256",
          "name": "amount",
          "type": "uint256"
        }
      ],
      "name": "grant",
      "outputs": [],
      "stateMutability": "nonpayable",
      "type": "function"
    },
    {
      "inputs": [
        {
          "internalType": "address",
          "name": "token",
          "type": "address"
        }
      ],
      "name": "harvest",
      "outputs": [],
      "stateMutability": "nonpayable",
      "type": "function"
    },
    {
      "inputs": [
        {
          "internalType": "address",
          "name": "_vader",
          "type": "address"
        },
        {
          "internalType": "address",
          "name": "_router",
          "type": "address"
        },
        {
          "internalType": "address",
          "name": "_vault",
          "type": "address"
        }
      ],
      "name": "init",
      "outputs": [],
      "stateMutability": "nonpayable",
      "type": "function"
    },
    {
      "inputs": [],
      "name": "isMature",
      "outputs": [
        {
          "internalType": "bool",
          "name": "matured",
          "type": "bool"
        }
      ],
      "stateMutability": "view",
      "type": "function"
    },
    {
      "inputs": [
        {
          "internalType": "address",
          "name": "member",
          "type": "address"
        }
      ],
      "name": "isMember",
      "outputs": [
        {
          "internalType": "bool",
          "name": "",
          "type": "bool"
        }
      ],
      "stateMutability": "view",
      "type": "function"
    },
    {
      "inputs": [
        {
          "internalType": "address",
          "name": "",
          "type": "address"
        }
      ],
      "name": "lastBlock",
      "outputs": [
        {
          "internalType": "uint256",
          "name": "",
          "type": "uint256"
        }
      ],
      "stateMutability": "view",
      "type": "function"
    },
    {
      "inputs": [],
      "name": "lastGranted",
      "outputs": [
        {
          "internalType": "uint256",
          "name": "",
          "type": "uint256"
        }
      ],
      "stateMutability": "view",
      "type": "function"
    },
    {
      "inputs": [],
      "name": "minGrantTime",
      "outputs": [
        {
          "internalType": "uint256",
          "name": "",
          "type": "uint256"
        }
      ],
      "stateMutability": "view",
      "type": "function"
    },
    {
      "inputs": [],
      "name": "minimumDepositTime",
      "outputs": [
        {
          "internalType": "uint256",
          "name": "",
          "type": "uint256"
        }
      ],
      "stateMutability": "view",
      "type": "function"
    },
    {
      "inputs": [],
      "name": "name",
      "outputs": [
        {
          "internalType": "string",
          "name": "",
          "type": "string"
        }
      ],
      "stateMutability": "view",
      "type": "function"
    },
    {
      "inputs": [],
      "name": "nextEraTime",
      "outputs": [
        {
          "internalType": "uint256",
          "name": "",
          "type": "uint256"
        }
      ],
      "stateMutability": "view",
      "type": "function"
    },
    {
      "inputs": [
        {
          "internalType": "uint256",
          "name": "amount",
          "type": "uint256"
        }
      ],
      "name": "redeem",
      "outputs": [
        {
          "internalType": "uint256",
          "name": "convertAmount",
          "type": "uint256"
        }
      ],
      "stateMutability": "nonpayable",
      "type": "function"
    },
    {
      "inputs": [
        {
          "internalType": "address",
          "name": "member",
          "type": "address"
        },
        {
          "internalType": "uint256",
          "name": "amount",
          "type": "uint256"
        }
      ],
      "name": "redeemForMember",
      "outputs": [
        {
          "internalType": "uint256",
          "name": "redeemAmount",
          "type": "uint256"
        }
      ],
      "stateMutability": "nonpayable",
      "type": "function"
    },
    {
      "inputs": [],
      "name": "reserveUSDV",
      "outputs": [
        {
          "internalType": "uint256",
          "name": "",
          "type": "uint256"
        }
      ],
      "stateMutability": "view",
      "type": "function"
    },
    {
      "inputs": [
        {
          "internalType": "uint256",
          "name": "_one",
          "type": "uint256"
        },
        {
          "internalType": "uint256",
          "name": "_two",
          "type": "uint256"
        },
        {
          "internalType": "uint256",
          "name": "_three",
          "type": "uint256"
        },
        {
          "internalType": "uint256",
          "name": "_four",
          "type": "uint256"
        }
      ],
      "name": "setParams",
      "outputs": [],
      "stateMutability": "nonpayable",
      "type": "function"
    },
    {
      "inputs": [],
      "name": "symbol",
      "outputs": [
        {
          "internalType": "string",
          "name": "",
          "type": "string"
        }
      ],
      "stateMutability": "view",
      "type": "function"
    },
    {
      "inputs": [],
      "name": "totalRewards",
      "outputs": [
        {
          "internalType": "uint256",
          "name": "",
          "type": "uint256"
        }
      ],
      "stateMutability": "view",
      "type": "function"
    },
    {
      "inputs": [],
      "name": "totalSupply",
      "outputs": [
        {
          "internalType": "uint256",
          "name": "",
          "type": "uint256"
        }
      ],
      "stateMutability": "view",
      "type": "function"
    },
    {
      "inputs": [],
      "name": "totalWeight",
      "outputs": [
        {
          "internalType": "uint256",
          "name": "",
          "type": "uint256"
        }
      ],
      "stateMutability": "view",
      "type": "function"
    },
    {
      "inputs": [
        {
          "internalType": "address",
          "name": "recipient",
          "type": "address"
        },
        {
          "internalType": "uint256",
          "name": "amount",
          "type": "uint256"
        }
      ],
      "name": "transfer",
      "outputs": [
        {
          "internalType": "bool",
          "name": "",
          "type": "bool"
        }
      ],
      "stateMutability": "nonpayable",
      "type": "function"
    },
    {
      "inputs": [
        {
          "internalType": "address",
          "name": "sender",
          "type": "address"
        },
        {
          "internalType": "address",
          "name": "recipient",
          "type": "address"
        },
        {
          "internalType": "uint256",
          "name": "amount",
          "type": "uint256"
        }
      ],
      "name": "transferFrom",
      "outputs": [
        {
          "internalType": "bool",
          "name": "",
          "type": "bool"
        }
      ],
      "stateMutability": "nonpayable",
      "type": "function"
    },
    {
      "inputs": [
        {
          "internalType": "address",
          "name": "recipient",
          "type": "address"
        },
        {
          "internalType": "uint256",
          "name": "amount",
          "type": "uint256"
        }
      ],
      "name": "transferTo",
      "outputs": [
        {
          "internalType": "bool",
          "name": "",
          "type": "bool"
        }
      ],
      "stateMutability": "nonpayable",
      "type": "function"
    },
    {
      "inputs": [
        {
          "internalType": "address",
          "name": "token",
          "type": "address"
        },
        {
          "internalType": "uint256",
          "name": "basisPoints",
          "type": "uint256"
        }
      ],
      "name": "withdraw",
      "outputs": [
        {
          "internalType": "uint256",
          "name": "redeemedAmount",
          "type": "uint256"
        }
      ],
      "stateMutability": "nonpayable",
      "type": "function"
    }
  ],
  "bytecode": "0x60806040523480156200001157600080fd5b506040805180820190915260138082527f564144455220535441424c4520444f4c4c4152000000000000000000000000006020909201918252620000589160009162000097565b50604080518082019091526004808252632aa9a22b60e11b6020909201918252620000869160019162000097565b50601260025560006003556200017a565b828054620000a5906200013d565b90600052602060002090601f016020900481019282620000c9576000855562000114565b82601f10620000e457805160ff191683800117855562000114565b8280016001018555821562000114579182015b8281111562000114578251825591602001919060010190620000f7565b506200012292915062000126565b5090565b5b8082111562000122576000815560010162000127565b600181811c908216806200015257607f821691505b602082108114156200017457634e487b7160e01b600052602260045260246000fd5b50919050565b6126a7806200018a6000396000f3fe608060405234801561001057600080fd5b506004361061028a5760003560e01c806379cc67901161015c578063a4b82cb6116100ce578063db006a7511610087578063db006a751461058e578063dd62ed3e146105a1578063de6ad44e146105da578063f22454aa146105e2578063f3fef3a3146105eb578063fbe521a0146105fe5761028a565b8063a4b82cb61461053b578063a9059cbb14610544578063ae4e7fdf14610557578063bf58d0ef1461055f578063d2450e8f14610572578063d98f6088146105855761028a565b806395d89b411161012057806395d89b41146104da57806396c82e57146104e2578063973628f6146104eb57806398fabd3a146104f4578063a230c524146104fc578063a3908e1b146105285761028a565b806379cc6790146104525780637b0e5c45146104655780637ece45e81461046d5780638dfa9bcc14610480578063952ca92c146104ba5761028a565b806323b872dd11610200578063411557d1116101b9578063411557d1146103ca57806342966c68146103dd57806347e7ef24146103f05780636068a9ac146104035780636370920e1461041657806370a08231146104295761028a565b806323b872dd1461036c5780632c07eebf1461037f5780632ccb1b3014610388578063313ce5671461039b57806332fe7b26146103a45780633855569b146103b75761028a565b8063090bbb0111610252578063090bbb0114610316578063095ea7b31461031f5780630e15561a146103325780630e5c011e1461033b57806318160ddd14610350578063184b9559146103595761028a565b8063016813151461028f57806302d0e1ae146102bf578063036e21e5146102e057806306fdde03146102e95780630781f4d2146102fe575b600080fd5b600d546102a2906001600160a01b031681565b6040516001600160a01b0390911681526020015b60405180910390f35b6102d26102cd3660046123dc565b610611565b6040519081526020016102b6565b6102d260105481565b6102f161063e565b6040516102b6919061254a565b6103066106cc565b60405190151581526020016102b6565b6102d260085481565b61030661032d36600461249e565b61074f565b6102d260125481565b61034e6103493660046123a4565b610765565b005b6102d260035481565b61034e610367366004612414565b6109b9565b61030661037a36600461245e565b610b54565b6102d260095481565b61030661039636600461249e565b610ba6565b6102d260025481565b600e546102a2906001600160a01b031681565b6102d26103c53660046123dc565b610bb3565b600f546102a2906001600160a01b031681565b61034e6103eb3660046124e9565b610cb6565b61034e6103fe36600461249e565b610cc3565b6102d26104113660046123dc565b610cd2565b61034e61042436600461249e565b610db0565b6102d26104373660046123a4565b6001600160a01b031660009081526004602052604090205490565b61034e61046036600461249e565b610eb6565b6102a2610f01565b61034e61047b366004612519565b610f7e565b6102d261048e3660046123dc565b6001600160a01b0380821660009081526015602090815260408083209386168352929052205492915050565b6102d26104c83660046123a4565b60196020526000908152604090205481565b6102f1610fe4565b6102d260115481565b6102d260075481565b6102a2610ff1565b61030661050a3660046123a4565b6001600160a01b031660009081526013602052604090205460ff1690565b6102d26105363660046124e9565b611036565b6102d2600b5481565b61030661055236600461249e565b611042565b61030661104f565b61034e61056d36600461245e565b61107d565b6102d261058036600461249e565b61112c565b6102d2600c5481565b6102d261059c3660046124e9565b6111df565b6102d26105af3660046123dc565b6001600160a01b03918216600090815260056020908152604080832093909416825291909152205490565b6102d26111eb565b6102d2600a5481565b6102d26105f936600461249e565b611210565b6102d261060c36600461249e565b611232565b6001600160a01b038082166000908152601860209081526040808320938616835292905220545b92915050565b6000805461064b9061260b565b80601f01602080910402602001604051908101604052809291908181526020018280546106779061260b565b80156106c45780601f10610699576101008083540402835291602001916106c4565b820191906000526020600020905b8154815290600101906020018083116106a757829003601f168201915b505050505081565b600d54604080516303c0fa6960e11b815290516000926001600160a01b031691630781f4d2916004808301926020929190829003018186803b15801561071157600080fd5b505afa158015610725573d6000803e3d6000fd5b505050506040513d601f19601f8201168201806040525081019061074991906124c9565b90505b90565b600061075c33848461125c565b50600192915050565b3360006107728383610bb3565b6001600160a01b03808416600081815260186020908152604080832094891680845294825280832042905592825260168152828220938252929092528120805492935083929091906107c590849061259d565b9250508190555080601260008282546107de919061259d565b90915550600090506001600160a01b0384163014156107fe575080610908565b610806610f01565b6001600160a01b031663db39dc79856001600160a01b03166382bfefc86040518163ffffffff1660e01b8152600401602060405180830381600087803b15801561084f57600080fd5b505af1158015610863573d6000803e3d6000fd5b505050506040513d601f19601f8201168201806040525081019061088791906123c0565b6040516001600160e01b031960e084901b1681526001600160a01b0390911660048201526024810185905260440160206040518083038186803b1580156108cd57600080fd5b505afa1580156108e1573d6000803e3d6000fd5b505050506040513d601f19601f820116820180604052508101906109059190612501565b90505b6001600160a01b0380841660009081526017602090815260408083209388168352929052908120805483929061093f90849061259d565b925050819055508060116000828254610958919061259d565b90915550506011546040805184815260208101849052908101919091526001600160a01b0380851691908616907f154ce75570debb840e085287bc6b1fd9f48fa7b08a5f2dd564b6a7592147d444906060015b60405180910390a350505050565b60065460ff16156109c957600080fd5b6006805460ff19166001179055600d80546001600160a01b038581166001600160a01b03199283168117909355600e80548683169084168117909155600f8054928616929093169190911790915560405163095ea7b360e01b81526004810191909152600019602482015263095ea7b390604401602060405180830381600087803b158015610a5757600080fd5b505af1158015610a6b573d6000803e3d6000fd5b505050506040513d601f19601f82011682018060405250810190610a8f91906124c9565b50600e54610aaa9030906001600160a01b031660001961125c565b6001600755600d54604080516335c951db60e11b815290516001600160a01b0390921691636b92a3b691600480820192602092909190829003018186803b158015610af457600080fd5b505afa158015610b08573d6000803e3d6000fd5b505050506040513d601f19601f82011682018060405250810190610b2c9190612501565b610b36904261259d565b600855505060646009555060016010556000600c5562278d00600a55565b6000610b6184848461133c565b6001600160a01b038416600090815260056020908152604080832033808552925290912054610b9c918691610b979086906125f4565b61125c565b5060019392505050565b600061075c32848461133c565b6001600160a01b0380821660009081526018602090815260408083209386168352929052908120548190610be790426125f4565b90506000610bf58585610cd2565b90506000600d60009054906101000a90046001600160a01b03166001600160a01b0316636b92a3b66040518163ffffffff1660e01b815260040160206040518083038186803b158015610c4757600080fd5b505afa158015610c5b573d6000803e3d6000fd5b505050506040513d601f19601f82011682018060405250810190610c7f9190612501565b610c8984846125d5565b610c9391906125b5565b90506000610c9f6111eb565b9050808210610cac578091505b5095945050505050565b610cc0338261142c565b50565b610cce82338361107d565b5050565b6001600160a01b0380821660009081526017602090815260408083209386168352929052908120546009548290610d076111eb565b610d1191906125b5565b9050610d1b610f01565b6011546040516306e8c9b160e21b8152600481018590526024810191909152604481018390526001600160a01b039190911690631ba326c49060640160206040518083038186803b158015610d6f57600080fd5b505afa158015610d83573d6000803e3d6000fd5b505050506040513d601f19601f82011682018060405250810190610da79190612501565b95945050505050565b610db8610ff1565b6001600160a01b0316336001600160a01b031614610e075760405162461bcd60e51b81526020600482015260076024820152664e6f742044414f60c81b60448201526064015b60405180910390fd5b600a610e116111eb565b610e1b91906125b5565b811115610e5e5760405162461bcd60e51b81526020600482015260116024820152706e6f74206d6f7265207468616e2031302560781b6044820152606401610dfe565b600a54600b54610e6e90426125f4565b1015610eab5760405162461bcd60e51b815260206004820152600c60248201526b1b9bdd081d1bdbc819985cdd60a21b6044820152606401610dfe565b610cce30838361133c565b6001600160a01b0382166000908152600560209081526040808320338452909152812054610ee59083906125f4565b9050610ef283338361125c565b610efc838361142c565b505050565b600d5460408051637b0e5c4560e01b815290516000926001600160a01b031691637b0e5c45916004808301926020929190829003018186803b158015610f4657600080fd5b505afa158015610f5a573d6000803e3d6000fd5b505050506040513d601f19601f8201168201806040525081019061074991906123c0565b610f86610ff1565b6001600160a01b0316336001600160a01b031614610fd05760405162461bcd60e51b81526020600482015260076024820152664e6f742044414f60c81b6044820152606401610dfe565b600993909355601091909155600c55600a55565b6001805461064b9061260b565b600d5460408051634c7d5e9d60e11b815290516000926001600160a01b0316916398fabd3a916004808301926020929190829003018186803b158015610f4657600080fd5b60006106383383611232565b600061075c33848461133c565b600c543260009081526019602052604081205490914391611070919061259d565b1161074c5750600161074c565b6001600160a01b03831630148061110e5750600f54604051632f011bf560e11b81526001600160a01b03858116600483015290911690635e0237ea90602401602060405180830381600087803b1580156110d657600080fd5b505af11580156110ea573d6000803e3d6000fd5b505050506040513d601f19601f8201168201806040525081019061110e91906124c9565b61111757600080fd5b61112183826114fc565b610efc83838361163d565b600d546000906111479033906001600160a01b03168461133c565b600d5460405163c30a0ce760e01b81526001600160a01b0385811660048301529091169063c30a0ce790602401602060405180830381600087803b15801561118e57600080fd5b505af11580156111a2573d6000803e3d6000fd5b505050506040513d601f19601f820116820180604052508101906111c69190612501565b3260009081526019602052604090204390559392505050565b6000610638338361112c565b30600090815260146020908152604080832054600490925282205461074991906125f4565b60003361121e8482856118e4565b915061122b848284611ea3565b5092915050565b600d5460009061124b906001600160a01b0316836114fc565b6112558383611f4f565b9392505050565b6001600160a01b03831661129b5760405162461bcd60e51b815260206004820152600660248201526539b2b73232b960d11b6044820152606401610dfe565b6001600160a01b0382166112db5760405162461bcd60e51b815260206004820152600760248201526639b832b73232b960c91b6044820152606401610dfe565b6001600160a01b0383811660008181526005602090815260408083209487168084529482529182902085905590518481527f8c5be1e5ebec7d5bd14f71427d1e84f3dd0314c0f7b2291e5b200ac8c7c3b925910160405180910390a3505050565b6001600160a01b03831661137b5760405162461bcd60e51b815260206004820152600660248201526539b2b73232b960d11b6044820152606401610dfe565b6001600160a01b038316600090815260046020526040812080548392906113a39084906125f4565b90915550506001600160a01b038216600090815260046020526040812080548392906113d090849061259d565b92505081905550816001600160a01b0316836001600160a01b03167fddf252ad1be2c89b69c2b068fc378daa952ba7f163c4a11628f55a4df523b3ef8360405161141c91815260200190565b60405180910390a3610efc612089565b6001600160a01b0382166114705760405162461bcd60e51b815260206004820152600b60248201526a30b2323932b9b99032b93960a91b6044820152606401610dfe565b6001600160a01b038216600090815260046020526040812080548392906114989084906125f4565b9250508190555080600360008282546114b191906125f4565b90915550506040518181526000906001600160a01b038416907fddf252ad1be2c89b69c2b068fc378daa952ba7f163c4a11628f55a4df523b3ef906020015b60405180910390a35050565b6001600160a01b03821630141561151d5761151833308361133c565b610cce565b323314156115ae576040516302ccb1b360e41b8152306004820152602481018290526001600160a01b03831690632ccb1b3090604401602060405180830381600087803b15801561156d57600080fd5b505af1158015611581573d6000803e3d6000fd5b505050506040513d601f19601f820116820180604052508101906115a591906124c9565b61151857600080fd5b6040516323b872dd60e01b8152336004820152306024820152604481018290526001600160a01b038316906323b872dd90606401602060405180830381600087803b1580156115fc57600080fd5b505af1158015611610573d6000803e3d6000fd5b505050506040513d601f19601f8201168201806040525081019061163491906124c9565b610cce57600080fd5b6001600160a01b03821660009081526013602052604090205460ff16611681576001600160a01b0382166000908152601360205260409020805460ff191660011790555b6001600160a01b0380831660008181526018602090815260408083209488168084529482528083204290559282526015815282822093825292909252812080548392906116cf90849061259d565b90915550600090506001600160a01b0384163014156116ef5750806117f9565b6116f7610f01565b6001600160a01b031663db39dc79856001600160a01b03166382bfefc86040518163ffffffff1660e01b8152600401602060405180830381600087803b15801561174057600080fd5b505af1158015611754573d6000803e3d6000fd5b505050506040513d601f19601f8201168201806040525081019061177891906123c0565b6040516001600160e01b031960e084901b1681526001600160a01b0390911660048201526024810185905260440160206040518083038186803b1580156117be57600080fd5b505afa1580156117d2573d6000803e3d6000fd5b505050506040513d601f19601f820116820180604052508101906117f69190612501565b90505b6001600160a01b0380841660009081526017602090815260408083209388168352929052908120805483929061183090849061259d565b90915550506001600160a01b0384166000908152601460205260408120805484929061185d90849061259d565b925050819055508060116000828254611876919061259d565b90915550506001600160a01b03848116600081815260146020908152604091829020546011548351888152928301919091529181018590526060810191909152918516917f1dd1c43aa39b8d6cee7dd1d16ed47e15a4a20f35b7ec9bc091c6c760fc9e148f906080016109ab565b6010546001600160a01b03808416600090815260186020908152604080832093881683529290529081205490919061191c90426125f4565b10156119585760405162461bcd60e51b815260206004820152600b60248201526a4465706f73697454696d6560a81b6044820152606401610dfe565b6001600160a01b0380841660009081526016602090815260408083209388168352929052908120546127109061198f9085906125d5565b61199991906125b5565b6001600160a01b038086166000908152601660209081526040808320938a168352929052908120805492935083929091906119d59084906125f4565b9250508190555080601260008282546119ee91906125f4565b90915550506001600160a01b0385163014611bab57600f5460405163a9059cbb60e01b81526001600160a01b039182166004820152602481018390529086169063a9059cbb90604401602060405180830381600087803b158015611a5157600080fd5b505af1158015611a65573d6000803e3d6000fd5b505050506040513d601f19601f82011682018060405250810190611a8991906124c9565b50600f60009054906101000a90046001600160a01b03166001600160a01b031663d016347e30876001600160a01b03166382bfefc86040518163ffffffff1660e01b8152600401602060405180830381600087803b158015611aea57600080fd5b505af1158015611afe573d6000803e3d6000fd5b505050506040513d601f19601f82011682018060405250810190611b2291906123c0565b6040516001600160e01b031960e085901b1681526001600160a01b03928316600482015291166024820152306044820152606401602060405180830381600087803b158015611b7057600080fd5b505af1158015611b84573d6000803e3d6000fd5b505050506040513d601f19601f82011682018060405250810190611ba89190612501565b90505b6001600160a01b03808516600090815260156020908152604080832093891683529290529081205461271090611be29086906125d5565b611bec91906125b5565b6001600160a01b038087166000908152601560209081526040808320938b16835292905290812080549293508392909190611c289084906125f4565b90915550506001600160a01b03861660009081526014602052604081208054839290611c559084906125f4565b90915550600090506001600160a01b038716301415611c7f57611c78838361259d565b9050611d91565b611c87610f01565b6001600160a01b031663db39dc79886001600160a01b03166382bfefc86040518163ffffffff1660e01b8152600401602060405180830381600087803b158015611cd057600080fd5b505af1158015611ce4573d6000803e3d6000fd5b505050506040513d601f19601f82011682018060405250810190611d0891906123c0565b611d12868661259d565b6040516001600160e01b031960e085901b1681526001600160a01b039092166004830152602482015260440160206040518083038186803b158015611d5657600080fd5b505afa158015611d6a573d6000803e3d6000fd5b505050506040513d601f19601f82011682018060405250810190611d8e9190612501565b90505b611d99610f01565b6011546040516306e8c9b160e21b8152600481018490526024810182905260448101919091526001600160a01b039190911690631ba326c49060640160206040518083038186803b158015611ded57600080fd5b505afa158015611e01573d6000803e3d6000fd5b505050506040513d601f19601f82011682018060405250810190611e259190612501565b60116000828254611e3691906125f4565b9091555050601154604080518681526020810184905280820192909252516001600160a01b0388811692908a16917f28b0a5e71db5b0ceb9e9edc3f89a0763709f773d717a2dcfd7851977f805ea7a9181900360600190a3611e98838361259d565b979650505050505050565b6001600160a01b038316301415611ec457611ebf30838361133c565b610efc565b60405163a9059cbb60e01b81526001600160a01b0383811660048301526024820183905284169063a9059cbb90604401602060405180830381600087803b158015611f0e57600080fd5b505af1158015611f22573d6000803e3d6000fd5b505050506040513d601f19601f82011682018060405250810190611f4691906124c9565b610efc57600080fd5b6000611f5961104f565b611f905760405162461bcd60e51b815260206004820152600860248201526709cde40ccd8c2e6d60c31b6044820152606401610dfe565b3260009081526019602052604090819020439055600d549051630852cd8d60e31b8152600481018490526001600160a01b03909116906342966c6890602401600060405180830381600087803b158015611fe957600080fd5b505af1158015611ffd573d6000803e3d6000fd5b5050600e54604051632d26e9f960e11b8152600481018690526001600160a01b039091169250635a4dd3f2915060240160206040518083038186803b15801561204557600080fd5b505afa158015612059573d6000803e3d6000fd5b505050506040513d601f19601f8201168201806040525081019061207d9190612501565b905061063883826122c7565b600854421015801561209e575061209e6106cc565b156122c5576001600760008282546120b6919061259d565b9091555050600d54604080516335c951db60e11b815290516001600160a01b0390921691636b92a3b691600480820192602092909190829003018186803b15801561210057600080fd5b505afa158015612114573d6000803e3d6000fd5b505050506040513d601f19601f820116820180604052508101906121389190612501565b612142904261259d565b600855600d546040516370a0823160e01b81523060048201526000916001600160a01b0316906370a082319060240160206040518083038186803b15801561218957600080fd5b505afa15801561219d573d6000803e3d6000fd5b505050506040513d601f19601f820116820180604052508101906121c19190612501565b905060006121ce8261238b565b90506121da3082611f4f565b50600e54600d546040516370a0823160e01b81523060048201526001600160a01b039283169263a55bee2a9216906370a082319060240160206040518083038186803b15801561222957600080fd5b505afa15801561223d573d6000803e3d6000fd5b505050506040513d601f19601f820116820180604052508101906122619190612501565b61226c6002856125b5565b6040516001600160e01b031960e085901b16815260048101929092526024820152604401600060405180830381600087803b1580156122aa57600080fd5b505af11580156122be573d6000803e3d6000fd5b5050505050505b565b6001600160a01b0382166123095760405162461bcd60e51b81526020600482015260096024820152681c9958da5c1a595b9d60ba1b6044820152606401610dfe565b806003600082825461231b919061259d565b90915550506001600160a01b0382166000908152600460205260408120805483929061234890849061259d565b90915550506040518181526001600160a01b038316906000907fddf252ad1be2c89b69c2b068fc378daa952ba7f163c4a11628f55a4df523b3ef906020016114f0565b6000600361239a8360026125d5565b61063891906125b5565b6000602082840312156123b5578081fd5b81356112558161265c565b6000602082840312156123d1578081fd5b81516112558161265c565b600080604083850312156123ee578081fd5b82356123f98161265c565b915060208301356124098161265c565b809150509250929050565b600080600060608486031215612428578081fd5b83356124338161265c565b925060208401356124438161265c565b915060408401356124538161265c565b809150509250925092565b600080600060608486031215612472578283fd5b833561247d8161265c565b9250602084013561248d8161265c565b929592945050506040919091013590565b600080604083850312156124b0578182fd5b82356124bb8161265c565b946020939093013593505050565b6000602082840312156124da578081fd5b81518015158114611255578182fd5b6000602082840312156124fa578081fd5b5035919050565b600060208284031215612512578081fd5b5051919050565b6000806000806080858703121561252e578081fd5b5050823594602084013594506040840135936060013592509050565b6000602080835283518082850152825b818110156125765785810183015185820160400152820161255a565b818111156125875783604083870101525b50601f01601f1916929092016040019392505050565b600082198211156125b0576125b0612646565b500190565b6000826125d057634e487b7160e01b81526012600452602481fd5b500490565b60008160001904831182151516156125ef576125ef612646565b500290565b60008282101561260657612606612646565b500390565b600181811c9082168061261f57607f821691505b6020821081141561264057634e487b7160e01b600052602260045260246000fd5b50919050565b634e487b7160e01b600052601160045260246000fd5b6001600160a01b0381168114610cc057600080fdfea2646970667358221220d20d6e8dd42dcd82540b64e8288b9faff2df5baf0611352fdc3ba5b8736db35264736f6c63430008030033",
  "linkReferences": {},
  "deployedLinkReferences": {}
}