{
  "_format": "hh-sol-artifact-1",
  "contractName": "USDV",
  "sourceName": "contracts/USDV.sol",
  "abi": [
    {
      "inputs": [],
      "stateMutability": "nonpayable",
      "type": "constructor"
    },
    {
      "anonymous": false,
      "inputs": [
        {
          "indexed": true,
          "internalType": "address",
          "name": "owner",
          "type": "address"
        },
        {
          "indexed": true,
          "internalType": "address",
          "name": "spender",
          "type": "address"
        },
        {
          "indexed": false,
          "internalType": "uint256",
          "name": "value",
          "type": "uint256"
        }
      ],
      "name": "Approval",
      "type": "event"
    },
    {
      "anonymous": false,
      "inputs": [
        {
          "indexed": true,
          "internalType": "address",
          "name": "from",
          "type": "address"
        },
        {
          "indexed": true,
          "internalType": "address",
          "name": "to",
          "type": "address"
        },
        {
          "indexed": false,
          "internalType": "uint256",
          "name": "value",
          "type": "uint256"
        }
      ],
      "name": "Transfer",
      "type": "event"
    },
    {
      "inputs": [],
      "name": "DAO",
      "outputs": [
        {
          "internalType": "address",
          "name": "",
          "type": "address"
        }
      ],
      "stateMutability": "view",
      "type": "function"
    },
    {
      "inputs": [],
      "name": "ROUTER",
      "outputs": [
        {
          "internalType": "address",
          "name": "",
          "type": "address"
        }
      ],
      "stateMutability": "view",
      "type": "function"
    },
    {
      "inputs": [],
      "name": "VADER",
      "outputs": [
        {
          "internalType": "address",
          "name": "",
          "type": "address"
        }
      ],
      "stateMutability": "view",
      "type": "function"
    },
    {
      "inputs": [],
      "name": "VAULT",
      "outputs": [
        {
          "internalType": "address",
          "name": "",
          "type": "address"
        }
      ],
      "stateMutability": "view",
      "type": "function"
    },
    {
      "inputs": [
        {
          "internalType": "address",
          "name": "owner",
          "type": "address"
        },
        {
          "internalType": "address",
          "name": "spender",
          "type": "address"
        }
      ],
      "name": "allowance",
      "outputs": [
        {
          "internalType": "uint256",
          "name": "",
          "type": "uint256"
        }
      ],
      "stateMutability": "view",
      "type": "function"
    },
    {
      "inputs": [
        {
          "internalType": "address",
          "name": "spender",
          "type": "address"
        },
        {
          "internalType": "uint256",
          "name": "amount",
          "type": "uint256"
        }
      ],
      "name": "approve",
      "outputs": [
        {
          "internalType": "bool",
          "name": "",
          "type": "bool"
        }
      ],
      "stateMutability": "nonpayable",
      "type": "function"
    },
    {
      "inputs": [
        {
          "internalType": "address",
          "name": "account",
          "type": "address"
        }
      ],
      "name": "balanceOf",
      "outputs": [
        {
          "internalType": "uint256",
          "name": "",
          "type": "uint256"
        }
      ],
      "stateMutability": "view",
      "type": "function"
    },
    {
      "inputs": [],
      "name": "blockDelay",
      "outputs": [
        {
          "internalType": "uint256",
          "name": "",
          "type": "uint256"
        }
      ],
      "stateMutability": "view",
      "type": "function"
    },
    {
      "inputs": [
        {
          "internalType": "uint256",
          "name": "amount",
          "type": "uint256"
        }
      ],
      "name": "burn",
      "outputs": [],
      "stateMutability": "nonpayable",
      "type": "function"
    },
    {
      "inputs": [
        {
          "internalType": "address",
          "name": "account",
          "type": "address"
        },
        {
          "internalType": "uint256",
          "name": "amount",
          "type": "uint256"
        }
      ],
      "name": "burnFrom",
      "outputs": [],
      "stateMutability": "nonpayable",
      "type": "function"
    },
    {
      "inputs": [
        {
          "internalType": "uint256",
          "name": "amount",
          "type": "uint256"
        }
      ],
      "name": "convert",
      "outputs": [
        {
          "internalType": "uint256",
          "name": "",
          "type": "uint256"
        }
      ],
      "stateMutability": "nonpayable",
      "type": "function"
    },
    {
      "inputs": [
        {
          "internalType": "address",
          "name": "member",
          "type": "address"
        },
        {
          "internalType": "uint256",
          "name": "amount",
          "type": "uint256"
        }
      ],
      "name": "convertForMember",
      "outputs": [
        {
          "internalType": "uint256",
          "name": "",
          "type": "uint256"
        }
      ],
      "stateMutability": "nonpayable",
      "type": "function"
    },
    {
      "inputs": [],
      "name": "decimals",
      "outputs": [
        {
          "internalType": "uint256",
          "name": "",
          "type": "uint256"
        }
      ],
      "stateMutability": "view",
      "type": "function"
    },
    {
      "inputs": [],
      "name": "emitting",
      "outputs": [
        {
          "internalType": "bool",
          "name": "",
          "type": "bool"
        }
      ],
      "stateMutability": "view",
      "type": "function"
    },
    {
      "inputs": [
        {
          "internalType": "address",
          "name": "_vader",
          "type": "address"
        },
        {
          "internalType": "address",
          "name": "_vault",
          "type": "address"
        },
        {
          "internalType": "address",
          "name": "_router",
          "type": "address"
        }
      ],
      "name": "init",
      "outputs": [],
      "stateMutability": "nonpayable",
      "type": "function"
    },
    {
      "inputs": [],
      "name": "isMature",
      "outputs": [
        {
          "internalType": "bool",
          "name": "isMatured",
          "type": "bool"
        }
      ],
      "stateMutability": "view",
      "type": "function"
    },
    {
      "inputs": [
        {
          "internalType": "address",
          "name": "",
          "type": "address"
        }
      ],
      "name": "lastBlock",
      "outputs": [
        {
          "internalType": "uint256",
          "name": "",
          "type": "uint256"
        }
      ],
      "stateMutability": "view",
      "type": "function"
    },
    {
      "inputs": [],
      "name": "minting",
      "outputs": [
        {
          "internalType": "bool",
          "name": "",
          "type": "bool"
        }
      ],
      "stateMutability": "view",
      "type": "function"
    },
    {
      "inputs": [],
      "name": "name",
      "outputs": [
        {
          "internalType": "string",
          "name": "",
          "type": "string"
        }
      ],
      "stateMutability": "view",
      "type": "function"
    },
    {
      "inputs": [],
      "name": "nextEraTime",
      "outputs": [
        {
          "internalType": "uint256",
          "name": "",
          "type": "uint256"
        }
      ],
      "stateMutability": "view",
      "type": "function"
    },
    {
      "inputs": [
        {
          "internalType": "uint256",
          "name": "amount",
          "type": "uint256"
        }
      ],
      "name": "redeem",
      "outputs": [
        {
          "internalType": "uint256",
          "name": "",
          "type": "uint256"
        }
      ],
      "stateMutability": "nonpayable",
      "type": "function"
    },
    {
      "inputs": [
        {
          "internalType": "address",
          "name": "member",
          "type": "address"
        },
        {
          "internalType": "uint256",
          "name": "amount",
          "type": "uint256"
        }
      ],
      "name": "redeemForMember",
      "outputs": [
        {
          "internalType": "uint256",
          "name": "redeemAmount",
          "type": "uint256"
        }
      ],
      "stateMutability": "nonpayable",
      "type": "function"
    },
    {
      "inputs": [
        {
          "internalType": "uint256",
          "name": "newDelay",
          "type": "uint256"
        }
      ],
      "name": "setParams",
      "outputs": [],
      "stateMutability": "nonpayable",
      "type": "function"
    },
    {
      "inputs": [],
      "name": "symbol",
      "outputs": [
        {
          "internalType": "string",
          "name": "",
          "type": "string"
        }
      ],
      "stateMutability": "view",
      "type": "function"
    },
    {
      "inputs": [],
      "name": "totalSupply",
      "outputs": [
        {
          "internalType": "uint256",
          "name": "",
          "type": "uint256"
        }
      ],
      "stateMutability": "view",
      "type": "function"
    },
    {
      "inputs": [
        {
          "internalType": "address",
          "name": "recipient",
          "type": "address"
        },
        {
          "internalType": "uint256",
          "name": "amount",
          "type": "uint256"
        }
      ],
      "name": "transfer",
      "outputs": [
        {
          "internalType": "bool",
          "name": "",
          "type": "bool"
        }
      ],
      "stateMutability": "nonpayable",
      "type": "function"
    },
    {
      "inputs": [
        {
          "internalType": "address",
          "name": "sender",
          "type": "address"
        },
        {
          "internalType": "address",
          "name": "recipient",
          "type": "address"
        },
        {
          "internalType": "uint256",
          "name": "amount",
          "type": "uint256"
        }
      ],
      "name": "transferFrom",
      "outputs": [
        {
          "internalType": "bool",
          "name": "",
          "type": "bool"
        }
      ],
      "stateMutability": "nonpayable",
      "type": "function"
    },
    {
      "inputs": [
        {
          "internalType": "address",
          "name": "recipient",
          "type": "address"
        },
        {
          "internalType": "uint256",
          "name": "amount",
          "type": "uint256"
        }
      ],
      "name": "transferTo",
      "outputs": [
        {
          "internalType": "bool",
          "name": "",
          "type": "bool"
        }
      ],
      "stateMutability": "nonpayable",
      "type": "function"
    }
  ],
  "bytecode": "0x60806040523480156200001157600080fd5b506040805180820190915260138082527f564144455220535441424c4520444f4c4c4152000000000000000000000000006020909201918252620000589160009162000097565b50604080518082019091526004808252632aa9a22b60e11b6020909201918252620000869160019162000097565b50601260025560006003556200017a565b828054620000a5906200013d565b90600052602060002090601f016020900481019282620000c9576000855562000114565b82601f10620000e457805160ff191683800117855562000114565b8280016001018555821562000114579182015b8281111562000114578251825591602001919060010190620000f7565b506200012292915062000126565b5090565b5b8082111562000122576000815560010162000127565b600181811c908216806200015257607f821691505b602082108114156200017457634e487b7160e01b600052602260045260246000fd5b50919050565b6115a4806200018a6000396000f3fe608060405234801561001057600080fd5b50600436106101c45760003560e01c806370a08231116100f9578063a9059cbb11610097578063d98f608811610071578063d98f60881461039e578063db006a75146103a7578063dd62ed3e146103ba578063fbe521a0146103f3576101c4565b8063a9059cbb14610370578063ae4e7fdf14610383578063d2450e8f1461038b576101c4565b8063952ca92c116100d3578063952ca92c1461032d57806395d89b411461034d57806398fabd3a14610355578063a3908e1b1461035d576101c4565b806370a08231146102e957806379cc6790146103125780637dc2268c14610325576101c4565b806323b872dd1161016657806332fe7b261161014057806332fe7b261461029d578063411557d1146102b057806342966c68146102c357806359ded210146102d6576101c4565b806323b872dd1461026e5780632ccb1b3014610281578063313ce56714610294576101c4565b8063090bbb01116101a2578063090bbb0114610226578063095ea7b31461023d57806318160ddd14610250578063184b955914610259576101c4565b806301681315146101c957806306fdde03146101f95780630781f4d21461020e575b600080fd5b6009546101dc906001600160a01b031681565b6040516001600160a01b0390911681526020015b60405180910390f35b610201610406565b6040516101f09190611466565b610216610494565b60405190151581526020016101f0565b61022f60075481565b6040519081526020016101f0565b61021661024b3660046113eb565b610517565b61022f60035481565b61026c610267366004611361565b61052e565b005b61021661027c3660046113ab565b610606565b61021661028f3660046113eb565b610658565b61022f60025481565b600b546101dc906001600160a01b031681565b600a546101dc906001600160a01b031681565b61026c6102d1366004611436565b610665565b61026c6102e4366004611436565b610672565b61022f6102f73660046112f1565b6001600160a01b031660009081526004602052604090205490565b61026c6103203660046113eb565b6106ce565b610216610719565b61022f61033b3660046112f1565b600c6020526000908152604090205481565b61020161075e565b6101dc61076b565b61022f61036b366004611436565b6107e8565b61021661037e3660046113eb565b6107f4565b610216610801565b61022f6103993660046113eb565b61082f565b61022f60085481565b61022f6103b5366004611436565b6108e2565b61022f6103c8366004611329565b6001600160a01b03918216600090815260056020908152604080832093909416825291909152205490565b61022f6104013660046113eb565b6108ee565b6000805461041390611508565b80601f016020809104026020016040519081016040528092919081815260200182805461043f90611508565b801561048c5780601f106104615761010080835404028352916020019161048c565b820191906000526020600020905b81548152906001019060200180831161046f57829003601f168201915b505050505081565b600954604080516303c0fa6960e11b815290516000926001600160a01b031691630781f4d2916004808301926020929190829003018186803b1580156104d957600080fd5b505afa1580156104ed573d6000803e3d6000fd5b505050506040513d601f19601f820116820180604052508101906105119190611416565b90505b90565b6000610524338484610918565b5060015b92915050565b60065460ff161561053e57600080fd5b6006805460ff19166001179055600980546001600160a01b038086166001600160a01b03199283168117909355600a8054868316908416179055600b805491851691909216179055604080516335c951db60e11b81529051636b92a3b691600480820192602092909190829003018186803b1580156105bc57600080fd5b505afa1580156105d0573d6000803e3d6000fd5b505050506040513d601f19601f820116820180604052508101906105f4919061144e565b6105fe90426114b9565b600755505050565b60006106138484846109f8565b6001600160a01b03841660009081526005602090815260408083203380855292529091205461064e9186916106499086906114f1565b610918565b5060019392505050565b60006105243284846109f8565b61066f3382610aee565b50565b61067a61076b565b6001600160a01b0316336001600160a01b0316146106c95760405162461bcd60e51b81526020600482015260076024820152664e6f742044414f60c81b60448201526064015b60405180910390fd5b600855565b6001600160a01b03821660009081526005602090815260408083203384529091528120546106fd9083906114f1565b905061070a833383610918565b6107148383610aee565b505050565b60095460408051631f7089a360e21b815290516000926001600160a01b031691637dc2268c916004808301926020929190829003018186803b1580156104d957600080fd5b6001805461041390611508565b60095460408051634c7d5e9d60e11b815290516000926001600160a01b0316916398fabd3a916004808301926020929190829003018186803b1580156107b057600080fd5b505afa1580156107c4573d6000803e3d6000fd5b505050506040513d601f19601f82011682018060405250810190610511919061130d565b600061052833836108ee565b60006105243384846109f8565b600854326000908152600c60205260408120549091439161082291906114b9565b1161051457506001610514565b60095460009061084a9033906001600160a01b0316846109f8565b60095460405163c30a0ce760e01b81526001600160a01b0385811660048301529091169063c30a0ce790602401602060405180830381600087803b15801561089157600080fd5b505af11580156108a5573d6000803e3d6000fd5b505050506040513d601f19601f820116820180604052508101906108c9919061144e565b326000908152600c602052604090204390559392505050565b6000610528338361082f565b600954600090610907906001600160a01b031683610bc5565b6109118383610d06565b9392505050565b6001600160a01b0383166109575760405162461bcd60e51b815260206004820152600660248201526539b2b73232b960d11b60448201526064016106c0565b6001600160a01b0382166109975760405162461bcd60e51b815260206004820152600760248201526639b832b73232b960c91b60448201526064016106c0565b6001600160a01b0383811660008181526005602090815260408083209487168084529482529182902085905590518481527f8c5be1e5ebec7d5bd14f71427d1e84f3dd0314c0f7b2291e5b200ac8c7c3b925910160405180910390a3505050565b8015610714576001600160a01b038316610a3d5760405162461bcd60e51b815260206004820152600660248201526539b2b73232b960d11b60448201526064016106c0565b6001600160a01b03831660009081526004602052604081208054839290610a659084906114f1565b90915550506001600160a01b03821660009081526004602052604081208054839290610a929084906114b9565b92505081905550816001600160a01b0316836001600160a01b03167fddf252ad1be2c89b69c2b068fc378daa952ba7f163c4a11628f55a4df523b3ef83604051610ade91815260200190565b60405180910390a3610714610e4d565b8015610bc1576001600160a01b038216610b385760405162461bcd60e51b815260206004820152600b60248201526a30b2323932b9b99032b93960a91b60448201526064016106c0565b6001600160a01b03821660009081526004602052604081208054839290610b609084906114f1565b925050819055508060036000828254610b7991906114f1565b90915550506040518181526000906001600160a01b038416907fddf252ad1be2c89b69c2b068fc378daa952ba7f163c4a11628f55a4df523b3ef906020015b60405180910390a35b5050565b6001600160a01b038216301415610be657610be13330836109f8565b610bc1565b32331415610c77576040516302ccb1b360e41b8152306004820152602481018290526001600160a01b03831690632ccb1b3090604401602060405180830381600087803b158015610c3657600080fd5b505af1158015610c4a573d6000803e3d6000fd5b505050506040513d601f19601f82011682018060405250810190610c6e9190611416565b610be157600080fd5b6040516323b872dd60e01b8152336004820152306024820152604481018290526001600160a01b038316906323b872dd90606401602060405180830381600087803b158015610cc557600080fd5b505af1158015610cd9573d6000803e3d6000fd5b505050506040513d601f19601f82011682018060405250810190610cfd9190611416565b610bc157600080fd5b6000610d10610801565b610d475760405162461bcd60e51b815260206004820152600860248201526709cde40ccd8c2e6d60c31b60448201526064016106c0565b610d4f610719565b1561052857326000908152600c6020526040908190204390556009549051630852cd8d60e31b8152600481018490526001600160a01b03909116906342966c6890602401600060405180830381600087803b158015610dad57600080fd5b505af1158015610dc1573d6000803e3d6000fd5b5050600b54604051632d26e9f960e11b8152600481018690526001600160a01b039091169250635a4dd3f2915060240160206040518083038186803b158015610e0957600080fd5b505afa158015610e1d573d6000803e3d6000fd5b505050506040513d601f19601f82011682018060405250810190610e41919061144e565b90506105288382611227565b6007544210158015610e625750610e62610494565b1561122557600960009054906101000a90046001600160a01b03166001600160a01b0316636b92a3b66040518163ffffffff1660e01b815260040160206040518083038186803b158015610eb557600080fd5b505afa158015610ec9573d6000803e3d6000fd5b505050506040513d601f19601f82011682018060405250810190610eed919061144e565b610ef790426114b9565b6007556009546040516370a0823160e01b81523060048201526000916001600160a01b0316906370a082319060240160206040518083038186803b158015610f3e57600080fd5b505afa158015610f52573d6000803e3d6000fd5b505050506040513d601f19601f82011682018060405250810190610f76919061144e565b9050600481111561066f576000610f8e6002836114d1565b9050610f9a3082610d06565b50306000908152600460205260409020546002101561100b57600b5430600081815260046020526040902054610fe5926001600160a01b031690610fe0906002906114d1565b6109f8565b600a543060008181526004602052604090205461100b926001600160a01b031690610fe0565b600954600b546040516370a0823160e01b81523060048201526001600160a01b039283169263a9059cbb92169060029084906370a082319060240160206040518083038186803b15801561105e57600080fd5b505afa158015611072573d6000803e3d6000fd5b505050506040513d601f19601f82011682018060405250810190611096919061144e565b6110a091906114d1565b6040516001600160e01b031960e085901b1681526001600160a01b0390921660048301526024820152604401602060405180830381600087803b1580156110e657600080fd5b505af11580156110fa573d6000803e3d6000fd5b505050506040513d601f19601f8201168201806040525081019061111e9190611416565b50600954600a546040516370a0823160e01b81523060048201526001600160a01b039283169263a9059cbb92169083906370a082319060240160206040518083038186803b15801561116f57600080fd5b505afa158015611183573d6000803e3d6000fd5b505050506040513d601f19601f820116820180604052508101906111a7919061144e565b6040516001600160e01b031960e085901b1681526001600160a01b0390921660048301526024820152604401602060405180830381600087803b1580156111ed57600080fd5b505af1158015611201573d6000803e3d6000fd5b505050506040513d601f19601f820116820180604052508101906107149190611416565b565b8015610bc1576001600160a01b03821661126f5760405162461bcd60e51b81526020600482015260096024820152681c9958da5c1a595b9d60ba1b60448201526064016106c0565b806003600082825461128191906114b9565b90915550506001600160a01b038216600090815260046020526040812080548392906112ae9084906114b9565b90915550506040518181526001600160a01b038316906000907fddf252ad1be2c89b69c2b068fc378daa952ba7f163c4a11628f55a4df523b3ef90602001610bb8565b600060208284031215611302578081fd5b813561091181611559565b60006020828403121561131e578081fd5b815161091181611559565b6000806040838503121561133b578081fd5b823561134681611559565b9150602083013561135681611559565b809150509250929050565b600080600060608486031215611375578081fd5b833561138081611559565b9250602084013561139081611559565b915060408401356113a081611559565b809150509250925092565b6000806000606084860312156113bf578283fd5b83356113ca81611559565b925060208401356113da81611559565b929592945050506040919091013590565b600080604083850312156113fd578182fd5b823561140881611559565b946020939093013593505050565b600060208284031215611427578081fd5b81518015158114610911578182fd5b600060208284031215611447578081fd5b5035919050565b60006020828403121561145f578081fd5b5051919050565b6000602080835283518082850152825b8181101561149257858101830151858201604001528201611476565b818111156114a35783604083870101525b50601f01601f1916929092016040019392505050565b600082198211156114cc576114cc611543565b500190565b6000826114ec57634e487b7160e01b81526012600452602481fd5b500490565b60008282101561150357611503611543565b500390565b600181811c9082168061151c57607f821691505b6020821081141561153d57634e487b7160e01b600052602260045260246000fd5b50919050565b634e487b7160e01b600052601160045260246000fd5b6001600160a01b038116811461066f57600080fdfea26469706673582212203d4fdac0b9f57efe3bf613cb356c5b89f9b8819a28cce7473da35f763a92095764736f6c63430008030033",
  "linkReferences": {},
  "deployedLinkReferences": {}
}