{
  "_format": "hh-sol-artifact-1",
  "contractName": "USDV",
  "sourceName": "contracts/USDV.sol",
  "abi": [
    {
      "inputs": [],
      "stateMutability": "nonpayable",
      "type": "constructor"
    },
    {
      "anonymous": false,
      "inputs": [
        {
          "indexed": true,
          "internalType": "address",
          "name": "owner",
          "type": "address"
        },
        {
          "indexed": true,
          "internalType": "address",
          "name": "spender",
          "type": "address"
        },
        {
          "indexed": false,
          "internalType": "uint256",
          "name": "value",
          "type": "uint256"
        }
      ],
      "name": "Approval",
      "type": "event"
    },
    {
      "anonymous": false,
      "inputs": [
        {
          "indexed": true,
          "internalType": "address",
          "name": "from",
          "type": "address"
        },
        {
          "indexed": true,
          "internalType": "address",
          "name": "to",
          "type": "address"
        },
        {
          "indexed": false,
          "internalType": "uint256",
          "name": "value",
          "type": "uint256"
        }
      ],
      "name": "Transfer",
      "type": "event"
    },
    {
      "inputs": [],
      "name": "VADER",
      "outputs": [
        {
          "internalType": "address",
          "name": "",
          "type": "address"
        }
      ],
      "stateMutability": "view",
      "type": "function"
    },
    {
      "inputs": [
        {
          "internalType": "address",
          "name": "owner",
          "type": "address"
        },
        {
          "internalType": "address",
          "name": "spender",
          "type": "address"
        }
      ],
      "name": "allowance",
      "outputs": [
        {
          "internalType": "uint256",
          "name": "",
          "type": "uint256"
        }
      ],
      "stateMutability": "view",
      "type": "function"
    },
    {
      "inputs": [
        {
          "internalType": "address",
          "name": "spender",
          "type": "address"
        },
        {
          "internalType": "uint256",
          "name": "amount",
          "type": "uint256"
        }
      ],
      "name": "approve",
      "outputs": [
        {
          "internalType": "bool",
          "name": "",
          "type": "bool"
        }
      ],
      "stateMutability": "nonpayable",
      "type": "function"
    },
    {
      "inputs": [
        {
          "internalType": "address",
          "name": "account",
          "type": "address"
        }
      ],
      "name": "balanceOf",
      "outputs": [
        {
          "internalType": "uint256",
          "name": "",
          "type": "uint256"
        }
      ],
      "stateMutability": "view",
      "type": "function"
    },
    {
      "inputs": [],
      "name": "blockDelay",
      "outputs": [
        {
          "internalType": "uint256",
          "name": "",
          "type": "uint256"
        }
      ],
      "stateMutability": "view",
      "type": "function"
    },
    {
      "inputs": [
        {
          "internalType": "uint256",
          "name": "amount",
          "type": "uint256"
        }
      ],
      "name": "burn",
      "outputs": [],
      "stateMutability": "nonpayable",
      "type": "function"
    },
    {
      "inputs": [
        {
          "internalType": "address",
          "name": "account",
          "type": "address"
        },
        {
          "internalType": "uint256",
          "name": "amount",
          "type": "uint256"
        }
      ],
      "name": "burnFrom",
      "outputs": [],
      "stateMutability": "nonpayable",
      "type": "function"
    },
    {
      "inputs": [
        {
          "internalType": "uint256",
          "name": "amount",
          "type": "uint256"
        }
      ],
      "name": "convert",
      "outputs": [
        {
          "internalType": "uint256",
          "name": "",
          "type": "uint256"
        }
      ],
      "stateMutability": "nonpayable",
      "type": "function"
    },
    {
      "inputs": [
        {
          "internalType": "address",
          "name": "member",
          "type": "address"
        },
        {
          "internalType": "uint256",
          "name": "amount",
          "type": "uint256"
        }
      ],
      "name": "convertForMember",
      "outputs": [
        {
          "internalType": "uint256",
          "name": "",
          "type": "uint256"
        }
      ],
      "stateMutability": "nonpayable",
      "type": "function"
    },
    {
      "inputs": [],
      "name": "decimals",
      "outputs": [
        {
          "internalType": "uint256",
          "name": "",
          "type": "uint256"
        }
      ],
      "stateMutability": "view",
      "type": "function"
    },
    {
      "inputs": [
        {
          "internalType": "address",
          "name": "_vader",
          "type": "address"
        }
      ],
      "name": "init",
      "outputs": [],
      "stateMutability": "nonpayable",
      "type": "function"
    },
    {
      "inputs": [],
      "name": "isMature",
      "outputs": [
        {
          "internalType": "bool",
          "name": "isMatured",
          "type": "bool"
        }
      ],
      "stateMutability": "view",
      "type": "function"
    },
    {
      "inputs": [
        {
          "internalType": "address",
          "name": "",
          "type": "address"
        }
      ],
      "name": "lastBlock",
      "outputs": [
        {
          "internalType": "uint256",
          "name": "",
          "type": "uint256"
        }
      ],
      "stateMutability": "view",
      "type": "function"
    },
    {
      "inputs": [],
      "name": "name",
      "outputs": [
        {
          "internalType": "string",
          "name": "",
          "type": "string"
        }
      ],
      "stateMutability": "view",
      "type": "function"
    },
    {
      "inputs": [
        {
          "internalType": "uint256",
          "name": "amount",
          "type": "uint256"
        }
      ],
      "name": "redeem",
      "outputs": [
        {
          "internalType": "uint256",
          "name": "",
          "type": "uint256"
        }
      ],
      "stateMutability": "nonpayable",
      "type": "function"
    },
    {
      "inputs": [
        {
          "internalType": "address",
          "name": "member",
          "type": "address"
        },
        {
          "internalType": "uint256",
          "name": "amount",
          "type": "uint256"
        }
      ],
      "name": "redeemForMember",
      "outputs": [
        {
          "internalType": "uint256",
          "name": "redeemAmount",
          "type": "uint256"
        }
      ],
      "stateMutability": "nonpayable",
      "type": "function"
    },
    {
      "inputs": [
        {
          "internalType": "uint256",
          "name": "newDelay",
          "type": "uint256"
        }
      ],
      "name": "setParams",
      "outputs": [],
      "stateMutability": "nonpayable",
      "type": "function"
    },
    {
      "inputs": [],
      "name": "symbol",
      "outputs": [
        {
          "internalType": "string",
          "name": "",
          "type": "string"
        }
      ],
      "stateMutability": "view",
      "type": "function"
    },
    {
      "inputs": [],
      "name": "totalSupply",
      "outputs": [
        {
          "internalType": "uint256",
          "name": "",
          "type": "uint256"
        }
      ],
      "stateMutability": "view",
      "type": "function"
    },
    {
      "inputs": [
        {
          "internalType": "address",
          "name": "recipient",
          "type": "address"
        },
        {
          "internalType": "uint256",
          "name": "amount",
          "type": "uint256"
        }
      ],
      "name": "transfer",
      "outputs": [
        {
          "internalType": "bool",
          "name": "",
          "type": "bool"
        }
      ],
      "stateMutability": "nonpayable",
      "type": "function"
    },
    {
      "inputs": [
        {
          "internalType": "address",
          "name": "sender",
          "type": "address"
        },
        {
          "internalType": "address",
          "name": "recipient",
          "type": "address"
        },
        {
          "internalType": "uint256",
          "name": "amount",
          "type": "uint256"
        }
      ],
      "name": "transferFrom",
      "outputs": [
        {
          "internalType": "bool",
          "name": "",
          "type": "bool"
        }
      ],
      "stateMutability": "nonpayable",
      "type": "function"
    },
    {
      "inputs": [
        {
          "internalType": "address",
          "name": "recipient",
          "type": "address"
        },
        {
          "internalType": "uint256",
          "name": "amount",
          "type": "uint256"
        }
      ],
      "name": "transferTo",
      "outputs": [
        {
          "internalType": "bool",
          "name": "",
          "type": "bool"
        }
      ],
      "stateMutability": "nonpayable",
      "type": "function"
    }
  ],
  "bytecode": "0x60806040523480156200001157600080fd5b506040805180820190915260138082527f564144455220535441424c4520444f4c4c4152000000000000000000000000006020909201918252620000589160009162000097565b50604080518082019091526004808252632aa9a22b60e11b6020909201918252620000869160019162000097565b50601260025560006003556200017a565b828054620000a5906200013d565b90600052602060002090601f016020900481019282620000c9576000855562000114565b82601f10620000e457805160ff191683800117855562000114565b8280016001018555821562000114579182015b8281111562000114578251825591602001919060010190620000f7565b506200012292915062000126565b5090565b5b8082111562000122576000815560010162000127565b600181811c908216806200015257607f821691505b602082108114156200017457634e487b7160e01b600052602260045260246000fd5b50919050565b6110e9806200018a6000396000f3fe608060405234801561001057600080fd5b50600436106101425760003560e01c806379cc6790116100b8578063ae4e7fdf1161007c578063ae4e7fdf146102ba578063d2450e8f146102c2578063d98f6088146102d5578063db006a75146102de578063dd62ed3e146102f1578063fbe521a01461032a57610142565b806379cc679014610259578063952ca92c1461026c57806395d89b411461028c578063a3908e1b14610294578063a9059cbb146102a757610142565b806323b872dd1161010a57806323b872dd146101db5780632ccb1b30146101ee578063313ce5671461020157806342966c681461020a57806359ded2101461021d57806370a082311461023057610142565b8063016813151461014757806306fdde0314610177578063095ea7b31461018c57806318160ddd146101af57806319ab453c146101c6575b600080fd5b60075461015a906001600160a01b031681565b6040516001600160a01b0390911681526020015b60405180910390f35b61017f61033d565b60405161016e9190610fcb565b61019f61019a366004610f50565b6103cb565b604051901515815260200161016e565b6101b860035481565b60405190815260200161016e565b6101d96101d4366004610ea0565b6103e2565b005b61019f6101e9366004610f10565b610411565b61019f6101fc366004610f50565b610490565b6101b860025481565b6101d9610218366004610f9b565b61049d565b6101d961022b366004610f9b565b6104a7565b6101b861023e366004610ea0565b6001600160a01b031660009081526004602052604090205490565b6101d9610267366004610f50565b610526565b6101b861027a366004610ea0565b60086020526000908152604090205481565b61017f610571565b6101b86102a2366004610f9b565b61057e565b61019f6102b5366004610f50565b61058a565b61019f610597565b6101b86102d0366004610f50565b6105c4565b6101b860065481565b6101b86102ec366004610f9b565b610677565b6101b86102ff366004610ed8565b6001600160a01b03918216600090815260056020908152604080832093909416825291909152205490565b6101b8610338366004610f50565b610683565b6000805461034a9061104d565b80601f01602080910402602001604051908101604052809291908181526020018280546103769061104d565b80156103c35780601f10610398576101008083540402835291602001916103c3565b820191906000526020600020905b8154815290600101906020018083116103a657829003601f168201915b505050505081565b60006103d83384846106ad565b5060015b92915050565b6007546001600160a01b031661040e57600780546001600160a01b0319166001600160a01b0383161790555b50565b600061041e84848461078e565b6001600160a01b03841660009081526005602090815260408083203384529091529020546000191115610486576001600160a01b038416600090815260056020908152604080832033808552925290912054610486918691610481908690611036565b6106ad565b5060019392505050565b60006103d832848461078e565b61040e3382610874565b6104af61094b565b6001600160a01b0316336001600160a01b031614806104e657506104d16109cd565b6001600160a01b0316336001600160a01b0316145b6105215760405162461bcd60e51b81526020600482015260076024820152664e6f742044414f60c81b60448201526064015b60405180910390fd5b600655565b6001600160a01b0382166000908152600560209081526040808320338452909152812054610555908390611036565b90506105628333836106ad565b61056c8383610874565b505050565b6001805461034a9061104d565b60006103dc3383610683565b60006103d833848461078e565b60065432600090815260086020526040812054909143916105b8919061101e565b116105c1575060015b90565b6007546000906105df9033906001600160a01b03168461078e565b60075460405163c30a0ce760e01b81526001600160a01b0385811660048301529091169063c30a0ce790602401602060405180830381600087803b15801561062657600080fd5b505af115801561063a573d6000803e3d6000fd5b505050506040513d601f19601f8201168201806040525081019061065e9190610fb3565b3260009081526008602052604090204390559392505050565b60006103dc33836105c4565b60075460009061069c906001600160a01b031683610a12565b6106a68383610b53565b9392505050565b6001600160a01b0383166106ec5760405162461bcd60e51b815260206004820152600660248201526539b2b73232b960d11b6044820152606401610518565b6001600160a01b03821661072c5760405162461bcd60e51b815260206004820152600760248201526639b832b73232b960c91b6044820152606401610518565b6001600160a01b0383811660008181526005602090815260408083209487168084529482529182902085905590518481527f8c5be1e5ebec7d5bd14f71427d1e84f3dd0314c0f7b2291e5b200ac8c7c3b92591015b60405180910390a3505050565b801561056c576001600160a01b0383166107d35760405162461bcd60e51b815260206004820152600660248201526539b2b73232b960d11b6044820152606401610518565b6001600160a01b038316600090815260046020526040812080548392906107fb908490611036565b90915550506001600160a01b0382166000908152600460205260408120805483929061082890849061101e565b92505081905550816001600160a01b0316836001600160a01b03167fddf252ad1be2c89b69c2b068fc378daa952ba7f163c4a11628f55a4df523b3ef8360405161078191815260200190565b8015610947576001600160a01b0382166108be5760405162461bcd60e51b815260206004820152600b60248201526a30b2323932b9b99032b93960a91b6044820152606401610518565b6001600160a01b038216600090815260046020526040812080548392906108e6908490611036565b9250508190555080600360008282546108ff9190611036565b90915550506040518181526000906001600160a01b038416907fddf252ad1be2c89b69c2b068fc378daa952ba7f163c4a11628f55a4df523b3ef906020015b60405180910390a35b5050565b60075460408051634c7d5e9d60e11b815290516000926001600160a01b0316916398fabd3a916004808301926020929190829003018186803b15801561099057600080fd5b505afa1580156109a4573d6000803e3d6000fd5b505050506040513d601f19601f820116820180604052508101906109c89190610ebc565b905090565b600754604080516360dc208d60e11b815290516000926001600160a01b03169163c1b8411a916004808301926020929190829003018186803b15801561099057600080fd5b6001600160a01b038216301415610a3357610a2e33308361078e565b610947565b32331415610ac4576040516302ccb1b360e41b8152306004820152602481018290526001600160a01b03831690632ccb1b3090604401602060405180830381600087803b158015610a8357600080fd5b505af1158015610a97573d6000803e3d6000fd5b505050506040513d601f19601f82011682018060405250810190610abb9190610f7b565b610a2e57600080fd5b6040516323b872dd60e01b8152336004820152306024820152604481018290526001600160a01b038316906323b872dd90606401602060405180830381600087803b158015610b1257600080fd5b505af1158015610b26573d6000803e3d6000fd5b505050506040513d601f19601f82011682018060405250810190610b4a9190610f7b565b61094757600080fd5b6000610b5d610597565b610b945760405162461bcd60e51b815260206004820152600860248201526709cde40ccd8c2e6d60c31b6044820152606401610518565b600760009054906101000a90046001600160a01b03166001600160a01b0316637dc2268c6040518163ffffffff1660e01b815260040160206040518083038186803b158015610be257600080fd5b505afa158015610bf6573d6000803e3d6000fd5b505050506040513d601f19601f82011682018060405250810190610c1a9190610f7b565b156103dc5732600090815260086020526040908190204390556007549051630852cd8d60e31b8152600481018490526001600160a01b03909116906342966c6890602401600060405180830381600087803b158015610c7857600080fd5b505af1158015610c8c573d6000803e3d6000fd5b50505050610c98610d21565b6001600160a01b0316635a4dd3f2836040518263ffffffff1660e01b8152600401610cc591815260200190565b60206040518083038186803b158015610cdd57600080fd5b505afa158015610cf1573d6000803e3d6000fd5b505050506040513d601f19601f82011682018060405250810190610d159190610fb3565b90506103dc8382610dd6565b60075460408051634c7d5e9d60e11b815290516000926001600160a01b0316916398fabd3a916004808301926020929190829003018186803b158015610d6657600080fd5b505afa158015610d7a573d6000803e3d6000fd5b505050506040513d601f19601f82011682018060405250810190610d9e9190610ebc565b6001600160a01b03166332fe7b266040518163ffffffff1660e01b815260040160206040518083038186803b15801561099057600080fd5b8015610947576001600160a01b038216610e1e5760405162461bcd60e51b81526020600482015260096024820152681c9958da5c1a595b9d60ba1b6044820152606401610518565b8060036000828254610e30919061101e565b90915550506001600160a01b03821660009081526004602052604081208054839290610e5d90849061101e565b90915550506040518181526001600160a01b038316906000907fddf252ad1be2c89b69c2b068fc378daa952ba7f163c4a11628f55a4df523b3ef9060200161093e565b600060208284031215610eb1578081fd5b81356106a68161109e565b600060208284031215610ecd578081fd5b81516106a68161109e565b60008060408385031215610eea578081fd5b8235610ef58161109e565b91506020830135610f058161109e565b809150509250929050565b600080600060608486031215610f24578081fd5b8335610f2f8161109e565b92506020840135610f3f8161109e565b929592945050506040919091013590565b60008060408385031215610f62578182fd5b8235610f6d8161109e565b946020939093013593505050565b600060208284031215610f8c578081fd5b815180151581146106a6578182fd5b600060208284031215610fac578081fd5b5035919050565b600060208284031215610fc4578081fd5b5051919050565b6000602080835283518082850152825b81811015610ff757858101830151858201604001528201610fdb565b818111156110085783604083870101525b50601f01601f1916929092016040019392505050565b6000821982111561103157611031611088565b500190565b60008282101561104857611048611088565b500390565b600181811c9082168061106157607f821691505b6020821081141561108257634e487b7160e01b600052602260045260246000fd5b50919050565b634e487b7160e01b600052601160045260246000fd5b6001600160a01b038116811461040e57600080fdfea2646970667358221220751cc050be1a0934821ac7b00975bd2d5c95559b001b1597513f4f8f46ba064a64736f6c63430008030033",
  "linkReferences": {},
  "deployedLinkReferences": {}
}