{
  "_format": "hh-sol-artifact-1",
  "contractName": "USDV",
  "sourceName": "contracts/USDV.sol",
  "abi": [
    {
      "inputs": [],
      "stateMutability": "nonpayable",
      "type": "constructor"
    },
    {
      "anonymous": false,
      "inputs": [
        {
          "indexed": true,
          "internalType": "address",
          "name": "owner",
          "type": "address"
        },
        {
          "indexed": true,
          "internalType": "address",
          "name": "spender",
          "type": "address"
        },
        {
          "indexed": false,
          "internalType": "uint256",
          "name": "value",
          "type": "uint256"
        }
      ],
      "name": "Approval",
      "type": "event"
    },
    {
      "anonymous": false,
      "inputs": [
        {
          "indexed": true,
          "internalType": "address",
          "name": "token",
          "type": "address"
        },
        {
          "indexed": true,
          "internalType": "address",
          "name": "member",
          "type": "address"
        },
        {
          "indexed": false,
          "internalType": "uint256",
          "name": "newDeposit",
          "type": "uint256"
        },
        {
          "indexed": false,
          "internalType": "uint256",
          "name": "totalDeposit",
          "type": "uint256"
        },
        {
          "indexed": false,
          "internalType": "uint256",
          "name": "weight",
          "type": "uint256"
        },
        {
          "indexed": false,
          "internalType": "uint256",
          "name": "totalWeight",
          "type": "uint256"
        }
      ],
      "name": "MemberDeposits",
      "type": "event"
    },
    {
      "anonymous": false,
      "inputs": [
        {
          "indexed": true,
          "internalType": "address",
          "name": "token",
          "type": "address"
        },
        {
          "indexed": true,
          "internalType": "address",
          "name": "member",
          "type": "address"
        },
        {
          "indexed": false,
          "internalType": "uint256",
          "name": "amount",
          "type": "uint256"
        },
        {
          "indexed": false,
          "internalType": "uint256",
          "name": "weight",
          "type": "uint256"
        },
        {
          "indexed": false,
          "internalType": "uint256",
          "name": "totalWeight",
          "type": "uint256"
        }
      ],
      "name": "MemberHarvests",
      "type": "event"
    },
    {
      "anonymous": false,
      "inputs": [
        {
          "indexed": true,
          "internalType": "address",
          "name": "token",
          "type": "address"
        },
        {
          "indexed": true,
          "internalType": "address",
          "name": "member",
          "type": "address"
        },
        {
          "indexed": false,
          "internalType": "uint256",
          "name": "amount",
          "type": "uint256"
        },
        {
          "indexed": false,
          "internalType": "uint256",
          "name": "weight",
          "type": "uint256"
        },
        {
          "indexed": false,
          "internalType": "uint256",
          "name": "totalWeight",
          "type": "uint256"
        }
      ],
      "name": "MemberWithdraws",
      "type": "event"
    },
    {
      "anonymous": false,
      "inputs": [
        {
          "indexed": true,
          "internalType": "address",
          "name": "from",
          "type": "address"
        },
        {
          "indexed": true,
          "internalType": "address",
          "name": "to",
          "type": "address"
        },
        {
          "indexed": false,
          "internalType": "uint256",
          "name": "value",
          "type": "uint256"
        }
      ],
      "name": "Transfer",
      "type": "event"
    },
    {
      "inputs": [],
      "name": "DAO",
      "outputs": [
        {
          "internalType": "address",
          "name": "",
          "type": "address"
        }
      ],
      "stateMutability": "view",
      "type": "function"
    },
    {
      "inputs": [],
      "name": "POOLS",
      "outputs": [
        {
          "internalType": "address",
          "name": "",
          "type": "address"
        }
      ],
      "stateMutability": "view",
      "type": "function"
    },
    {
      "inputs": [],
      "name": "ROUTER",
      "outputs": [
        {
          "internalType": "address",
          "name": "",
          "type": "address"
        }
      ],
      "stateMutability": "view",
      "type": "function"
    },
    {
      "inputs": [],
      "name": "UTILS",
      "outputs": [
        {
          "internalType": "address",
          "name": "",
          "type": "address"
        }
      ],
      "stateMutability": "view",
      "type": "function"
    },
    {
      "inputs": [],
      "name": "VADER",
      "outputs": [
        {
          "internalType": "address",
          "name": "",
          "type": "address"
        }
      ],
      "stateMutability": "view",
      "type": "function"
    },
    {
      "inputs": [
        {
          "internalType": "address",
          "name": "owner",
          "type": "address"
        },
        {
          "internalType": "address",
          "name": "spender",
          "type": "address"
        }
      ],
      "name": "allowance",
      "outputs": [
        {
          "internalType": "uint256",
          "name": "",
          "type": "uint256"
        }
      ],
      "stateMutability": "view",
      "type": "function"
    },
    {
      "inputs": [
        {
          "internalType": "address",
          "name": "spender",
          "type": "address"
        },
        {
          "internalType": "uint256",
          "name": "amount",
          "type": "uint256"
        }
      ],
      "name": "approve",
      "outputs": [
        {
          "internalType": "bool",
          "name": "",
          "type": "bool"
        }
      ],
      "stateMutability": "nonpayable",
      "type": "function"
    },
    {
      "inputs": [
        {
          "internalType": "address",
          "name": "account",
          "type": "address"
        }
      ],
      "name": "balanceOf",
      "outputs": [
        {
          "internalType": "uint256",
          "name": "",
          "type": "uint256"
        }
      ],
      "stateMutability": "view",
      "type": "function"
    },
    {
      "inputs": [],
      "name": "blockDelay",
      "outputs": [
        {
          "internalType": "uint256",
          "name": "",
          "type": "uint256"
        }
      ],
      "stateMutability": "view",
      "type": "function"
    },
    {
      "inputs": [
        {
          "internalType": "uint256",
          "name": "amount",
          "type": "uint256"
        }
      ],
      "name": "burn",
      "outputs": [],
      "stateMutability": "nonpayable",
      "type": "function"
    },
    {
      "inputs": [
        {
          "internalType": "address",
          "name": "account",
          "type": "address"
        },
        {
          "internalType": "uint256",
          "name": "amount",
          "type": "uint256"
        }
      ],
      "name": "burnFrom",
      "outputs": [],
      "stateMutability": "nonpayable",
      "type": "function"
    },
    {
      "inputs": [
        {
          "internalType": "address",
          "name": "token",
          "type": "address"
        },
        {
          "internalType": "address",
          "name": "member",
          "type": "address"
        }
      ],
      "name": "calcCurrentReward",
      "outputs": [
        {
          "internalType": "uint256",
          "name": "reward",
          "type": "uint256"
        }
      ],
      "stateMutability": "view",
      "type": "function"
    },
    {
      "inputs": [
        {
          "internalType": "address",
          "name": "member",
          "type": "address"
        }
      ],
      "name": "calcReward",
      "outputs": [
        {
          "internalType": "uint256",
          "name": "",
          "type": "uint256"
        }
      ],
      "stateMutability": "view",
      "type": "function"
    },
    {
      "inputs": [
        {
          "internalType": "uint256",
          "name": "amount",
          "type": "uint256"
        }
      ],
      "name": "convert",
      "outputs": [
        {
          "internalType": "uint256",
          "name": "",
          "type": "uint256"
        }
      ],
      "stateMutability": "nonpayable",
      "type": "function"
    },
    {
      "inputs": [
        {
          "internalType": "address",
          "name": "member",
          "type": "address"
        },
        {
          "internalType": "uint256",
          "name": "amount",
          "type": "uint256"
        }
      ],
      "name": "convertForMember",
      "outputs": [
        {
          "internalType": "uint256",
          "name": "",
          "type": "uint256"
        }
      ],
      "stateMutability": "nonpayable",
      "type": "function"
    },
    {
      "inputs": [],
      "name": "currentEra",
      "outputs": [
        {
          "internalType": "uint256",
          "name": "",
          "type": "uint256"
        }
      ],
      "stateMutability": "view",
      "type": "function"
    },
    {
      "inputs": [],
      "name": "decimals",
      "outputs": [
        {
          "internalType": "uint256",
          "name": "",
          "type": "uint256"
        }
      ],
      "stateMutability": "view",
      "type": "function"
    },
    {
      "inputs": [
        {
          "internalType": "address",
          "name": "token",
          "type": "address"
        },
        {
          "internalType": "uint256",
          "name": "amount",
          "type": "uint256"
        }
      ],
      "name": "deposit",
      "outputs": [],
      "stateMutability": "nonpayable",
      "type": "function"
    },
    {
      "inputs": [
        {
          "internalType": "address",
          "name": "token",
          "type": "address"
        },
        {
          "internalType": "address",
          "name": "member",
          "type": "address"
        },
        {
          "internalType": "uint256",
          "name": "amount",
          "type": "uint256"
        }
      ],
      "name": "depositForMember",
      "outputs": [],
      "stateMutability": "nonpayable",
      "type": "function"
    },
    {
      "inputs": [],
      "name": "emitting",
      "outputs": [
        {
          "internalType": "bool",
          "name": "",
          "type": "bool"
        }
      ],
      "stateMutability": "view",
      "type": "function"
    },
    {
      "inputs": [],
      "name": "erasToEarn",
      "outputs": [
        {
          "internalType": "uint256",
          "name": "",
          "type": "uint256"
        }
      ],
      "stateMutability": "view",
      "type": "function"
    },
    {
      "inputs": [
        {
          "internalType": "address",
          "name": "token",
          "type": "address"
        },
        {
          "internalType": "address",
          "name": "member",
          "type": "address"
        }
      ],
      "name": "getMemberDeposit",
      "outputs": [
        {
          "internalType": "uint256",
          "name": "",
          "type": "uint256"
        }
      ],
      "stateMutability": "view",
      "type": "function"
    },
    {
      "inputs": [
        {
          "internalType": "address",
          "name": "token",
          "type": "address"
        },
        {
          "internalType": "address",
          "name": "member",
          "type": "address"
        }
      ],
      "name": "getMemberLastTime",
      "outputs": [
        {
          "internalType": "uint256",
          "name": "",
          "type": "uint256"
        }
      ],
      "stateMutability": "view",
      "type": "function"
    },
    {
      "inputs": [
        {
          "internalType": "address",
          "name": "token",
          "type": "address"
        },
        {
          "internalType": "address",
          "name": "member",
          "type": "address"
        }
      ],
      "name": "getMemberReward",
      "outputs": [
        {
          "internalType": "uint256",
          "name": "",
          "type": "uint256"
        }
      ],
      "stateMutability": "view",
      "type": "function"
    },
    {
      "inputs": [
        {
          "internalType": "address",
          "name": "member",
          "type": "address"
        }
      ],
      "name": "getMemberWeight",
      "outputs": [
        {
          "internalType": "uint256",
          "name": "",
          "type": "uint256"
        }
      ],
      "stateMutability": "view",
      "type": "function"
    },
    {
      "inputs": [
        {
          "internalType": "address",
          "name": "token",
          "type": "address"
        }
      ],
      "name": "getTokenDeposits",
      "outputs": [
        {
          "internalType": "uint256",
          "name": "",
          "type": "uint256"
        }
      ],
      "stateMutability": "view",
      "type": "function"
    },
    {
      "inputs": [
        {
          "internalType": "address",
          "name": "recipient",
          "type": "address"
        },
        {
          "internalType": "uint256",
          "name": "amount",
          "type": "uint256"
        }
      ],
      "name": "grant",
      "outputs": [],
      "stateMutability": "nonpayable",
      "type": "function"
    },
    {
      "inputs": [
        {
          "internalType": "address",
          "name": "token",
          "type": "address"
        }
      ],
      "name": "harvest",
      "outputs": [
        {
          "internalType": "uint256",
          "name": "reward",
          "type": "uint256"
        }
      ],
      "stateMutability": "nonpayable",
      "type": "function"
    },
    {
      "inputs": [
        {
          "internalType": "address",
          "name": "_vader",
          "type": "address"
        },
        {
          "internalType": "address",
          "name": "_router",
          "type": "address"
        },
        {
          "internalType": "address",
          "name": "_pool",
          "type": "address"
        }
      ],
      "name": "init",
      "outputs": [],
      "stateMutability": "nonpayable",
      "type": "function"
    },
    {
      "inputs": [],
      "name": "isMature",
      "outputs": [
        {
          "internalType": "bool",
          "name": "isMatured",
          "type": "bool"
        }
      ],
      "stateMutability": "view",
      "type": "function"
    },
    {
      "inputs": [
        {
          "internalType": "address",
          "name": "",
          "type": "address"
        }
      ],
      "name": "lastBlock",
      "outputs": [
        {
          "internalType": "uint256",
          "name": "",
          "type": "uint256"
        }
      ],
      "stateMutability": "view",
      "type": "function"
    },
    {
      "inputs": [],
      "name": "lastGranted",
      "outputs": [
        {
          "internalType": "uint256",
          "name": "",
          "type": "uint256"
        }
      ],
      "stateMutability": "view",
      "type": "function"
    },
    {
      "inputs": [],
      "name": "minGrantTime",
      "outputs": [
        {
          "internalType": "uint256",
          "name": "",
          "type": "uint256"
        }
      ],
      "stateMutability": "view",
      "type": "function"
    },
    {
      "inputs": [],
      "name": "minimumDepositTime",
      "outputs": [
        {
          "internalType": "uint256",
          "name": "",
          "type": "uint256"
        }
      ],
      "stateMutability": "view",
      "type": "function"
    },
    {
      "inputs": [],
      "name": "name",
      "outputs": [
        {
          "internalType": "string",
          "name": "",
          "type": "string"
        }
      ],
      "stateMutability": "view",
      "type": "function"
    },
    {
      "inputs": [],
      "name": "nextEraTime",
      "outputs": [
        {
          "internalType": "uint256",
          "name": "",
          "type": "uint256"
        }
      ],
      "stateMutability": "view",
      "type": "function"
    },
    {
      "inputs": [
        {
          "internalType": "uint256",
          "name": "amount",
          "type": "uint256"
        }
      ],
      "name": "redeem",
      "outputs": [
        {
          "internalType": "uint256",
          "name": "",
          "type": "uint256"
        }
      ],
      "stateMutability": "nonpayable",
      "type": "function"
    },
    {
      "inputs": [
        {
          "internalType": "address",
          "name": "member",
          "type": "address"
        },
        {
          "internalType": "uint256",
          "name": "amount",
          "type": "uint256"
        }
      ],
      "name": "redeemForMember",
      "outputs": [
        {
          "internalType": "uint256",
          "name": "redeemAmount",
          "type": "uint256"
        }
      ],
      "stateMutability": "nonpayable",
      "type": "function"
    },
    {
      "inputs": [],
      "name": "reserveUSDV",
      "outputs": [
        {
          "internalType": "uint256",
          "name": "",
          "type": "uint256"
        }
      ],
      "stateMutability": "view",
      "type": "function"
    },
    {
      "inputs": [
        {
          "internalType": "uint256",
          "name": "one",
          "type": "uint256"
        },
        {
          "internalType": "uint256",
          "name": "two",
          "type": "uint256"
        },
        {
          "internalType": "uint256",
          "name": "three",
          "type": "uint256"
        },
        {
          "internalType": "uint256",
          "name": "four",
          "type": "uint256"
        }
      ],
      "name": "setParams",
      "outputs": [],
      "stateMutability": "nonpayable",
      "type": "function"
    },
    {
      "inputs": [],
      "name": "symbol",
      "outputs": [
        {
          "internalType": "string",
          "name": "",
          "type": "string"
        }
      ],
      "stateMutability": "view",
      "type": "function"
    },
    {
      "inputs": [],
      "name": "totalRewards",
      "outputs": [
        {
          "internalType": "uint256",
          "name": "",
          "type": "uint256"
        }
      ],
      "stateMutability": "view",
      "type": "function"
    },
    {
      "inputs": [],
      "name": "totalSupply",
      "outputs": [
        {
          "internalType": "uint256",
          "name": "",
          "type": "uint256"
        }
      ],
      "stateMutability": "view",
      "type": "function"
    },
    {
      "inputs": [],
      "name": "totalWeight",
      "outputs": [
        {
          "internalType": "uint256",
          "name": "",
          "type": "uint256"
        }
      ],
      "stateMutability": "view",
      "type": "function"
    },
    {
      "inputs": [
        {
          "internalType": "address",
          "name": "recipient",
          "type": "address"
        },
        {
          "internalType": "uint256",
          "name": "amount",
          "type": "uint256"
        }
      ],
      "name": "transfer",
      "outputs": [
        {
          "internalType": "bool",
          "name": "",
          "type": "bool"
        }
      ],
      "stateMutability": "nonpayable",
      "type": "function"
    },
    {
      "inputs": [
        {
          "internalType": "address",
          "name": "sender",
          "type": "address"
        },
        {
          "internalType": "address",
          "name": "recipient",
          "type": "address"
        },
        {
          "internalType": "uint256",
          "name": "amount",
          "type": "uint256"
        }
      ],
      "name": "transferFrom",
      "outputs": [
        {
          "internalType": "bool",
          "name": "",
          "type": "bool"
        }
      ],
      "stateMutability": "nonpayable",
      "type": "function"
    },
    {
      "inputs": [
        {
          "internalType": "address",
          "name": "recipient",
          "type": "address"
        },
        {
          "internalType": "uint256",
          "name": "amount",
          "type": "uint256"
        }
      ],
      "name": "transferTo",
      "outputs": [
        {
          "internalType": "bool",
          "name": "",
          "type": "bool"
        }
      ],
      "stateMutability": "nonpayable",
      "type": "function"
    },
    {
      "inputs": [
        {
          "internalType": "address",
          "name": "token",
          "type": "address"
        },
        {
          "internalType": "uint256",
          "name": "basisPoints",
          "type": "uint256"
        }
      ],
      "name": "withdraw",
      "outputs": [
        {
          "internalType": "uint256",
          "name": "redeemedAmount",
          "type": "uint256"
        }
      ],
      "stateMutability": "nonpayable",
      "type": "function"
    }
  ],
  "bytecode": "0x60806040523480156200001157600080fd5b506040805180820190915260138082527f564144455220535441424c4520444f4c4c4152000000000000000000000000006020909201918252620000589160009162000097565b50604080518082019091526004808252632aa9a22b60e11b6020909201918252620000869160019162000097565b50601260025560006003556200017a565b828054620000a5906200013d565b90600052602060002090601f016020900481019282620000c9576000855562000114565b82601f10620000e457805160ff191683800117855562000114565b8280016001018555821562000114579182015b8281111562000114578251825591602001919060010190620000f7565b506200012292915062000126565b5090565b5b8082111562000122576000815560010162000127565b600181811c908216806200015257607f821691505b602082108114156200017457634e487b7160e01b600052602260045260246000fd5b50919050565b612848806200018a6000396000f3fe608060405234801561001057600080fd5b50600436106102a05760003560e01c80637ece45e811610167578063ae4e7fdf116100ce578063de6ad44e11610087578063de6ad44e1461062a578063e9f27c3a14610632578063ebccb5b214610645578063f22454aa14610658578063f3fef3a314610661578063fbe521a014610674576102a0565b8063ae4e7fdf146105a7578063bf58d0ef146105af578063d2450e8f146105c2578063d98f6088146105d5578063db006a75146105de578063dd62ed3e146105f1576102a0565b806398fabd3a1161012057806398fabd3a1461050d578063a3908e1b14610515578063a4b82cb614610528578063a9059cbb14610531578063a9fbeb9a14610544578063accb22e11461057e576102a0565b80637ece45e8146104865780638dfa9bcc14610499578063952ca92c146104d357806395d89b41146104f357806396c82e57146104fb578063973628f614610504576102a0565b80632c07eebf1161020b57806347e7ef24116101c457806347e7ef24146103f35780635364df49146104065780636370920e1461042f57806370a082311461044257806379cc67901461046b5780637b0e5c451461047e576102a0565b80632c07eebf146103955780632ccb1b301461039e578063313ce567146103b157806332fe7b26146103ba5780633a61738d146103cd57806342966c68146103e0576102a0565b8063095ea7b31161025d578063095ea7b3146103355780630e15561a146103485780630e5c011e1461035157806318160ddd14610364578063184b95591461036d57806323b872dd14610382576102a0565b806301681315146102a557806302d0e1ae146102d5578063036e21e5146102f657806306fdde03146102ff5780630781f4d214610314578063090bbb011461032c575b600080fd5b600d546102b8906001600160a01b031681565b6040516001600160a01b0390911681526020015b60405180910390f35b6102e86102e336600461257d565b610687565b6040519081526020016102cc565b6102e860105481565b6103076106b4565b6040516102cc91906126eb565b61031c610742565b60405190151581526020016102cc565b6102e860085481565b61031c61034336600461263f565b6107c5565b6102e860125481565b6102e861035f366004612545565b6107db565b6102e860035481565b61038061037b3660046125b5565b610a1e565b005b61031c6103903660046125ff565b610bb9565b6102e860095481565b61031c6103ac36600461263f565b610c0b565b6102e860025481565b600e546102b8906001600160a01b031681565b6102e86103db366004612545565b610c18565b6103806103ee36600461268a565b610ce6565b61038061040136600461263f565b610cf3565b6102e8610414366004612545565b6001600160a01b031660009081526014602052604090205490565b61038061043d36600461263f565b610d02565b6102e8610450366004612545565b6001600160a01b031660009081526004602052604090205490565b61038061047936600461263f565b610e0c565b6102b8610e57565b6103806104943660046126ba565b610ed4565b6102e86104a736600461257d565b6001600160a01b0380821660009081526015602090815260408083209386168352929052205492915050565b6102e86104e1366004612545565b60186020526000908152604090205481565b610307610f3a565b6102e860115481565b6102e860075481565b6102b8610f47565b6102e861052336600461268a565b610f8c565b6102e8600b5481565b61031c61053f36600461263f565b610f98565b6102e861055236600461257d565b6001600160a01b0380821660009081526016602090815260408083209386168352929052205492915050565b6102e861058c366004612545565b6001600160a01b031660009081526013602052604090205490565b61031c610fa5565b6103806105bd3660046125ff565b610fd3565b6102e86105d036600461263f565b611197565b6102e8600c5481565b6102e86105ec36600461268a565b61124a565b6102e86105ff36600461257d565b6001600160a01b03918216600090815260056020908152604080832093909416825291909152205490565b6102e8611256565b6102e861064036600461257d565b61128b565b600f546102b8906001600160a01b031681565b6102e8600a5481565b6102e861066f36600461263f565b61138a565b6102e861068236600461263f565b6113ac565b6001600160a01b038082166000908152601760209081526040808320938616835292905220545b92915050565b600080546106c1906127ac565b80601f01602080910402602001604051908101604052809291908181526020018280546106ed906127ac565b801561073a5780601f1061070f5761010080835404028352916020019161073a565b820191906000526020600020905b81548152906001019060200180831161071d57829003601f168201915b505050505081565b600d54604080516303c0fa6960e11b815290516000926001600160a01b031691630781f4d2916004808301926020929190829003018186803b15801561078757600080fd5b505afa15801561079b573d6000803e3d6000fd5b505050506040513d601f19601f820116820180604052508101906107bf919061266a565b90505b90565b60006107d23384846113d6565b50600192915050565b6000336107e8838261128b565b6001600160a01b038083166000818152601760209081526040808320948916808452948252808320429055928252601681528282209382529290925281208054929450849290919061083b90849061273e565b925050819055508160126000828254610854919061273e565b90915550600090506001600160a01b03841630141561087457508161097e565b61087c610e57565b6001600160a01b031663db39dc79856001600160a01b03166382bfefc86040518163ffffffff1660e01b8152600401602060405180830381600087803b1580156108c557600080fd5b505af11580156108d9573d6000803e3d6000fd5b505050506040513d601f19601f820116820180604052508101906108fd9190612561565b6040516001600160e01b031960e084901b1681526001600160a01b0390911660048201526024810186905260440160206040518083038186803b15801561094357600080fd5b505afa158015610957573d6000803e3d6000fd5b505050506040513d601f19601f8201168201806040525081019061097b91906126a2565b90505b6001600160a01b038216600090815260146020526040812080548392906109a690849061273e565b9250508190555080601160008282546109bf919061273e565b9091555050601154604080518581526020810184905280820192909252516001600160a01b0384811692908716917f154ce75570debb840e085287bc6b1fd9f48fa7b08a5f2dd564b6a7592147d4449181900360600190a35050919050565b60065460ff1615610a2e57600080fd5b6006805460ff19166001179055600d80546001600160a01b038581166001600160a01b03199283168117909355600e80548683169084168117909155600f8054928616929093169190911790915560405163095ea7b360e01b81526004810191909152600019602482015263095ea7b390604401602060405180830381600087803b158015610abc57600080fd5b505af1158015610ad0573d6000803e3d6000fd5b505050506040513d601f19601f82011682018060405250810190610af4919061266a565b50600e54610b0f9030906001600160a01b03166000196113d6565b6001600755600d54604080516335c951db60e11b815290516001600160a01b0390921691636b92a3b691600480820192602092909190829003018186803b158015610b5957600080fd5b505afa158015610b6d573d6000803e3d6000fd5b505050506040513d601f19601f82011682018060405250810190610b9191906126a2565b610b9b904261273e565b600855505060646009555060016010556000600c5562278d00600a55565b6000610bc68484846114b6565b6001600160a01b038416600090815260056020908152604080832033808552925290912054610c01918691610bfc908690612795565b6113d6565b5060019392505050565b60006107d23284846114b6565b6001600160a01b0381166000908152601460205260408120546009548290610c3e611256565b610c489190612756565b9050610c52610e57565b6011546040516306e8c9b160e21b8152600481018590526024810191909152604481018390526001600160a01b039190911690631ba326c49060640160206040518083038186803b158015610ca657600080fd5b505afa158015610cba573d6000803e3d6000fd5b505050506040513d601f19601f82011682018060405250810190610cde91906126a2565b949350505050565b610cf033826115a6565b50565b610cfe823383610fd3565b5050565b610d0a610f47565b6001600160a01b0316336001600160a01b031614610d595760405162461bcd60e51b81526020600482015260076024820152664e6f742044414f60c81b60448201526064015b60405180910390fd5b600a610d63611256565b610d6d9190612756565b811115610db05760405162461bcd60e51b81526020600482015260116024820152706e6f74206d6f7265207468616e2031302560781b6044820152606401610d50565b600a54600b54610dc09042612795565b1015610dfd5760405162461bcd60e51b815260206004820152600c60248201526b1b9bdd081d1bdbc819985cdd60a21b6044820152606401610d50565b42600b55610cfe3083836114b6565b6001600160a01b0382166000908152600560209081526040808320338452909152812054610e3b908390612795565b9050610e488333836113d6565b610e5283836115a6565b505050565b600d5460408051637b0e5c4560e01b815290516000926001600160a01b031691637b0e5c45916004808301926020929190829003018186803b158015610e9c57600080fd5b505afa158015610eb0573d6000803e3d6000fd5b505050506040513d601f19601f820116820180604052508101906107bf9190612561565b610edc610f47565b6001600160a01b0316336001600160a01b031614610f265760405162461bcd60e51b81526020600482015260076024820152664e6f742044414f60c81b6044820152606401610d50565b600993909355601091909155600c55600a55565b600180546106c1906127ac565b600d5460408051634c7d5e9d60e11b815290516000926001600160a01b0316916398fabd3a916004808301926020929190829003018186803b158015610e9c57600080fd5b60006106ae33836113ac565b60006107d23384846114b6565b600c543260009081526018602052604081205490914391610fc6919061273e565b116107c2575060016107c2565b6001600160a01b0383163014806111795750600f54604051632f011bf560e11b81526001600160a01b03858116600483015290911690635e0237ea90602401602060405180830381600087803b15801561102c57600080fd5b505af1158015611040573d6000803e3d6000fd5b505050506040513d601f19601f82011682018060405250810190611064919061266a565b80156111795750600f60009054906101000a90046001600160a01b03166001600160a01b031663c87fa42a846001600160a01b03166382bfefc86040518163ffffffff1660e01b8152600401602060405180830381600087803b1580156110ca57600080fd5b505af11580156110de573d6000803e3d6000fd5b505050506040513d601f19601f820116820180604052508101906111029190612561565b6040516001600160e01b031960e084901b1681526001600160a01b03909116600482015260240160206040518083038186803b15801561114157600080fd5b505afa158015611155573d6000803e3d6000fd5b505050506040513d601f19601f82011682018060405250810190611179919061266a565b61118257600080fd5b61118c8382611676565b610e528383836117b7565b600d546000906111b29033906001600160a01b0316846114b6565b600d5460405163c30a0ce760e01b81526001600160a01b0385811660048301529091169063c30a0ce790602401602060405180830381600087803b1580156111f957600080fd5b505af115801561120d573d6000803e3d6000fd5b505050506040513d601f19601f8201168201806040525081019061123191906126a2565b3260009081526018602052604090204390559392505050565b60006106ae3383611197565b6012543060009081526013602090815260408083205460049092528220549192916112819190612795565b6107bf9190612795565b6001600160a01b03808216600090815260176020908152604080832093861683529290529081205481906112bf9042612795565b905060006112cc84610c18565b9050600d60009054906101000a90046001600160a01b03166001600160a01b0316636b92a3b66040518163ffffffff1660e01b815260040160206040518083038186803b15801561131c57600080fd5b505afa158015611330573d6000803e3d6000fd5b505050506040513d601f19601f8201168201806040525081019061135491906126a2565b61135e8383612776565b6113689190612756565b92506000611374611256565b9050808410611381578093505b50505092915050565b600033611398848285611a10565b91506113a5848284612044565b5092915050565b600d546000906113c5906001600160a01b031683611676565b6113cf83836120f0565b9392505050565b6001600160a01b0383166114155760405162461bcd60e51b815260206004820152600660248201526539b2b73232b960d11b6044820152606401610d50565b6001600160a01b0382166114555760405162461bcd60e51b815260206004820152600760248201526639b832b73232b960c91b6044820152606401610d50565b6001600160a01b0383811660008181526005602090815260408083209487168084529482529182902085905590518481527f8c5be1e5ebec7d5bd14f71427d1e84f3dd0314c0f7b2291e5b200ac8c7c3b925910160405180910390a3505050565b6001600160a01b0383166114f55760405162461bcd60e51b815260206004820152600660248201526539b2b73232b960d11b6044820152606401610d50565b6001600160a01b0383166000908152600460205260408120805483929061151d908490612795565b90915550506001600160a01b0382166000908152600460205260408120805483929061154a90849061273e565b92505081905550816001600160a01b0316836001600160a01b03167fddf252ad1be2c89b69c2b068fc378daa952ba7f163c4a11628f55a4df523b3ef8360405161159691815260200190565b60405180910390a3610e5261222a565b6001600160a01b0382166115ea5760405162461bcd60e51b815260206004820152600b60248201526a30b2323932b9b99032b93960a91b6044820152606401610d50565b6001600160a01b03821660009081526004602052604081208054839290611612908490612795565b92505081905550806003600082825461162b9190612795565b90915550506040518181526000906001600160a01b038416907fddf252ad1be2c89b69c2b068fc378daa952ba7f163c4a11628f55a4df523b3ef906020015b60405180910390a35050565b6001600160a01b038216301415611697576116923330836114b6565b610cfe565b32331415611728576040516302ccb1b360e41b8152306004820152602481018290526001600160a01b03831690632ccb1b3090604401602060405180830381600087803b1580156116e757600080fd5b505af11580156116fb573d6000803e3d6000fd5b505050506040513d601f19601f8201168201806040525081019061171f919061266a565b61169257600080fd5b6040516323b872dd60e01b8152336004820152306024820152604481018290526001600160a01b038316906323b872dd90606401602060405180830381600087803b15801561177657600080fd5b505af115801561178a573d6000803e3d6000fd5b505050506040513d601f19601f820116820180604052508101906117ae919061266a565b610cfe57600080fd5b6001600160a01b03808316600081815260176020908152604080832094881680845294825280832042905592825260158152828220938252929092528120805483929061180590849061273e565b90915550600090506001600160a01b03841630141561182557508061192f565b61182d610e57565b6001600160a01b031663db39dc79856001600160a01b03166382bfefc86040518163ffffffff1660e01b8152600401602060405180830381600087803b15801561187657600080fd5b505af115801561188a573d6000803e3d6000fd5b505050506040513d601f19601f820116820180604052508101906118ae9190612561565b6040516001600160e01b031960e084901b1681526001600160a01b0390911660048201526024810185905260440160206040518083038186803b1580156118f457600080fd5b505afa158015611908573d6000803e3d6000fd5b505050506040513d601f19601f8201168201806040525081019061192c91906126a2565b90505b6001600160a01b0384166000908152601360205260408120805484929061195790849061273e565b90915550506001600160a01b0383166000908152601460205260408120805483929061198490849061273e565b92505081905550806011600082825461199d919061273e565b90915550506001600160a01b038481166000818152601360209081526040918290205460115483518881529283019190915281830186905260608201529051928616927f1dd1c43aa39b8d6cee7dd1d16ed47e15a4a20f35b7ec9bc091c6c760fc9e148f9181900360800190a350505050565b6010546001600160a01b038084166000908152601760209081526040808320938816835292905290812054909190611a489042612795565b1015611a845760405162461bcd60e51b815260206004820152600b60248201526a4465706f73697454696d6560a81b6044820152606401610d50565b6000611a8e610e57565b6001600160a01b0385811660009081526016602090815260408083208a851684529091529081902054905163714270ab60e01b815260048101879052602481019190915291169063714270ab9060440160206040518083038186803b158015611af657600080fd5b505afa158015611b0a573d6000803e3d6000fd5b505050506040513d601f19601f82011682018060405250810190611b2e91906126a2565b6001600160a01b038086166000908152601660209081526040808320938a16835292905290812080549293508392909190611b6a908490612795565b925050819055508060126000828254611b839190612795565b90915550506001600160a01b0385163014611ddb57611ba0610e57565b6001600160a01b0316635f2c12e8866001600160a01b03166382bfefc86040518163ffffffff1660e01b8152600401602060405180830381600087803b158015611be957600080fd5b505af1158015611bfd573d6000803e3d6000fd5b505050506040513d601f19601f82011682018060405250810190611c219190612561565b6040516001600160e01b031960e084901b1681526001600160a01b0390911660048201526024810184905260440160206040518083038186803b158015611c6757600080fd5b505afa158015611c7b573d6000803e3d6000fd5b505050506040513d601f19601f82011682018060405250810190611c9f91906126a2565b600f54909150611cba9030906001600160a01b0316836114b6565b600f60009054906101000a90046001600160a01b03166001600160a01b031663d016347e30876001600160a01b03166382bfefc86040518163ffffffff1660e01b8152600401602060405180830381600087803b158015611d1a57600080fd5b505af1158015611d2e573d6000803e3d6000fd5b505050506040513d601f19601f82011682018060405250810190611d529190612561565b6040516001600160e01b031960e085901b1681526001600160a01b03928316600482015291166024820152306044820152606401602060405180830381600087803b158015611da057600080fd5b505af1158015611db4573d6000803e3d6000fd5b505050506040513d601f19601f82011682018060405250810190611dd891906126a2565b90505b6000611de5610e57565b6001600160a01b0386811660009081526015602090815260408083208b851684529091529081902054905163714270ab60e01b815260048101889052602481019190915291169063714270ab9060440160206040518083038186803b158015611e4d57600080fd5b505afa158015611e61573d6000803e3d6000fd5b505050506040513d601f19601f82011682018060405250810190611e8591906126a2565b6001600160a01b038087166000908152601560209081526040808320938b16835292905290812080549293508392909190611ec1908490612795565b90915550506001600160a01b03861660009081526013602052604081208054839290611eee908490612795565b9091555060009050611efe610e57565b6001600160a01b038781166000908152601460205260409081902054905163714270ab60e01b815260048101899052602481019190915291169063714270ab9060440160206040518083038186803b158015611f5957600080fd5b505afa158015611f6d573d6000803e3d6000fd5b505050506040513d601f19601f82011682018060405250810190611f9191906126a2565b6001600160a01b038716600090815260146020526040812080549293508392909190611fbe908490612795565b925050819055508060116000828254611fd79190612795565b9091555050601154604080518681526020810184905280820192909252516001600160a01b0388811692908a16917f28b0a5e71db5b0ceb9e9edc3f89a0763709f773d717a2dcfd7851977f805ea7a9181900360600190a3612039838361273e565b979650505050505050565b6001600160a01b038316301415612065576120603083836114b6565b610e52565b60405163a9059cbb60e01b81526001600160a01b0383811660048301526024820183905284169063a9059cbb90604401602060405180830381600087803b1580156120af57600080fd5b505af11580156120c3573d6000803e3d6000fd5b505050506040513d601f19601f820116820180604052508101906120e7919061266a565b610e5257600080fd5b60006120fa610fa5565b6121315760405162461bcd60e51b815260206004820152600860248201526709cde40ccd8c2e6d60c31b6044820152606401610d50565b3260009081526018602052604090819020439055600d549051630852cd8d60e31b8152600481018490526001600160a01b03909116906342966c6890602401600060405180830381600087803b15801561218a57600080fd5b505af115801561219e573d6000803e3d6000fd5b5050600e54604051632d26e9f960e11b8152600481018690526001600160a01b039091169250635a4dd3f2915060240160206040518083038186803b1580156121e657600080fd5b505afa1580156121fa573d6000803e3d6000fd5b505050506040513d601f19601f8201168201806040525081019061221e91906126a2565b90506106ae8382612468565b600854421015801561223f575061223f610742565b1561246657600160076000828254612257919061273e565b9091555050600d54604080516335c951db60e11b815290516001600160a01b0390921691636b92a3b691600480820192602092909190829003018186803b1580156122a157600080fd5b505afa1580156122b5573d6000803e3d6000fd5b505050506040513d601f19601f820116820180604052508101906122d991906126a2565b6122e3904261273e565b600855600d546040516370a0823160e01b81523060048201526000916001600160a01b0316906370a082319060240160206040518083038186803b15801561232a57600080fd5b505afa15801561233e573d6000803e3d6000fd5b505050506040513d601f19601f8201168201806040525081019061236291906126a2565b9050600061236f8261252c565b905061237b30826120f0565b50600e54600d546040516370a0823160e01b81523060048201526001600160a01b039283169263a55bee2a9216906370a082319060240160206040518083038186803b1580156123ca57600080fd5b505afa1580156123de573d6000803e3d6000fd5b505050506040513d601f19601f8201168201806040525081019061240291906126a2565b61240d600285612756565b6040516001600160e01b031960e085901b16815260048101929092526024820152604401600060405180830381600087803b15801561244b57600080fd5b505af115801561245f573d6000803e3d6000fd5b5050505050505b565b6001600160a01b0382166124aa5760405162461bcd60e51b81526020600482015260096024820152681c9958da5c1a595b9d60ba1b6044820152606401610d50565b80600360008282546124bc919061273e565b90915550506001600160a01b038216600090815260046020526040812080548392906124e990849061273e565b90915550506040518181526001600160a01b038316906000907fddf252ad1be2c89b69c2b068fc378daa952ba7f163c4a11628f55a4df523b3ef9060200161166a565b6000600361253b836002612776565b6106ae9190612756565b600060208284031215612556578081fd5b81356113cf816127fd565b600060208284031215612572578081fd5b81516113cf816127fd565b6000806040838503121561258f578081fd5b823561259a816127fd565b915060208301356125aa816127fd565b809150509250929050565b6000806000606084860312156125c9578081fd5b83356125d4816127fd565b925060208401356125e4816127fd565b915060408401356125f4816127fd565b809150509250925092565b600080600060608486031215612613578283fd5b833561261e816127fd565b9250602084013561262e816127fd565b929592945050506040919091013590565b60008060408385031215612651578182fd5b823561265c816127fd565b946020939093013593505050565b60006020828403121561267b578081fd5b815180151581146113cf578182fd5b60006020828403121561269b578081fd5b5035919050565b6000602082840312156126b3578081fd5b5051919050565b600080600080608085870312156126cf578081fd5b5050823594602084013594506040840135936060013592509050565b6000602080835283518082850152825b81811015612717578581018301518582016040015282016126fb565b818111156127285783604083870101525b50601f01601f1916929092016040019392505050565b60008219821115612751576127516127e7565b500190565b60008261277157634e487b7160e01b81526012600452602481fd5b500490565b6000816000190483118215151615612790576127906127e7565b500290565b6000828210156127a7576127a76127e7565b500390565b600181811c908216806127c057607f821691505b602082108114156127e157634e487b7160e01b600052602260045260246000fd5b50919050565b634e487b7160e01b600052601160045260246000fd5b6001600160a01b0381168114610cf057600080fdfea2646970667358221220b27be41158d9237983062b217ff0c5540ba19c59beab0438bf88a4eb311bba7064736f6c63430008030033",
  "linkReferences": {},
  "deployedLinkReferences": {}
}