{
  "_format": "hh-sol-artifact-1",
  "contractName": "USDV",
  "sourceName": "contracts/USDV.sol",
  "abi": [
    {
      "inputs": [],
      "stateMutability": "nonpayable",
      "type": "constructor"
    },
    {
      "anonymous": false,
      "inputs": [
        {
          "indexed": true,
          "internalType": "address",
          "name": "owner",
          "type": "address"
        },
        {
          "indexed": true,
          "internalType": "address",
          "name": "spender",
          "type": "address"
        },
        {
          "indexed": false,
          "internalType": "uint256",
          "name": "value",
          "type": "uint256"
        }
      ],
      "name": "Approval",
      "type": "event"
    },
    {
      "anonymous": false,
      "inputs": [
        {
          "indexed": true,
          "internalType": "address",
          "name": "token",
          "type": "address"
        },
        {
          "indexed": true,
          "internalType": "address",
          "name": "member",
          "type": "address"
        },
        {
          "indexed": false,
          "internalType": "uint256",
          "name": "newDeposit",
          "type": "uint256"
        },
        {
          "indexed": false,
          "internalType": "uint256",
          "name": "totalDeposit",
          "type": "uint256"
        },
        {
          "indexed": false,
          "internalType": "uint256",
          "name": "weight",
          "type": "uint256"
        },
        {
          "indexed": false,
          "internalType": "uint256",
          "name": "totalWeight",
          "type": "uint256"
        }
      ],
      "name": "MemberDeposits",
      "type": "event"
    },
    {
      "anonymous": false,
      "inputs": [
        {
          "indexed": true,
          "internalType": "address",
          "name": "token",
          "type": "address"
        },
        {
          "indexed": true,
          "internalType": "address",
          "name": "member",
          "type": "address"
        },
        {
          "indexed": false,
          "internalType": "uint256",
          "name": "amount",
          "type": "uint256"
        },
        {
          "indexed": false,
          "internalType": "uint256",
          "name": "weight",
          "type": "uint256"
        },
        {
          "indexed": false,
          "internalType": "uint256",
          "name": "totalWeight",
          "type": "uint256"
        }
      ],
      "name": "MemberHarvests",
      "type": "event"
    },
    {
      "anonymous": false,
      "inputs": [
        {
          "indexed": true,
          "internalType": "address",
          "name": "token",
          "type": "address"
        },
        {
          "indexed": true,
          "internalType": "address",
          "name": "member",
          "type": "address"
        },
        {
          "indexed": false,
          "internalType": "uint256",
          "name": "amount",
          "type": "uint256"
        },
        {
          "indexed": false,
          "internalType": "uint256",
          "name": "weight",
          "type": "uint256"
        },
        {
          "indexed": false,
          "internalType": "uint256",
          "name": "totalWeight",
          "type": "uint256"
        }
      ],
      "name": "MemberWithdraws",
      "type": "event"
    },
    {
      "anonymous": false,
      "inputs": [
        {
          "indexed": true,
          "internalType": "address",
          "name": "from",
          "type": "address"
        },
        {
          "indexed": true,
          "internalType": "address",
          "name": "to",
          "type": "address"
        },
        {
          "indexed": false,
          "internalType": "uint256",
          "name": "value",
          "type": "uint256"
        }
      ],
      "name": "Transfer",
      "type": "event"
    },
    {
      "inputs": [],
      "name": "DAO",
      "outputs": [
        {
          "internalType": "address",
          "name": "",
          "type": "address"
        }
      ],
      "stateMutability": "view",
      "type": "function"
    },
    {
      "inputs": [],
      "name": "POOLS",
      "outputs": [
        {
          "internalType": "address",
          "name": "",
          "type": "address"
        }
      ],
      "stateMutability": "view",
      "type": "function"
    },
    {
      "inputs": [],
      "name": "ROUTER",
      "outputs": [
        {
          "internalType": "address",
          "name": "",
          "type": "address"
        }
      ],
      "stateMutability": "view",
      "type": "function"
    },
    {
      "inputs": [],
      "name": "UTILS",
      "outputs": [
        {
          "internalType": "address",
          "name": "",
          "type": "address"
        }
      ],
      "stateMutability": "view",
      "type": "function"
    },
    {
      "inputs": [],
      "name": "VADER",
      "outputs": [
        {
          "internalType": "address",
          "name": "",
          "type": "address"
        }
      ],
      "stateMutability": "view",
      "type": "function"
    },
    {
      "inputs": [
        {
          "internalType": "address",
          "name": "owner",
          "type": "address"
        },
        {
          "internalType": "address",
          "name": "spender",
          "type": "address"
        }
      ],
      "name": "allowance",
      "outputs": [
        {
          "internalType": "uint256",
          "name": "",
          "type": "uint256"
        }
      ],
      "stateMutability": "view",
      "type": "function"
    },
    {
      "inputs": [
        {
          "internalType": "address",
          "name": "spender",
          "type": "address"
        },
        {
          "internalType": "uint256",
          "name": "amount",
          "type": "uint256"
        }
      ],
      "name": "approve",
      "outputs": [
        {
          "internalType": "bool",
          "name": "",
          "type": "bool"
        }
      ],
      "stateMutability": "nonpayable",
      "type": "function"
    },
    {
      "inputs": [
        {
          "internalType": "address",
          "name": "account",
          "type": "address"
        }
      ],
      "name": "balanceOf",
      "outputs": [
        {
          "internalType": "uint256",
          "name": "",
          "type": "uint256"
        }
      ],
      "stateMutability": "view",
      "type": "function"
    },
    {
      "inputs": [],
      "name": "blockDelay",
      "outputs": [
        {
          "internalType": "uint256",
          "name": "",
          "type": "uint256"
        }
      ],
      "stateMutability": "view",
      "type": "function"
    },
    {
      "inputs": [
        {
          "internalType": "uint256",
          "name": "amount",
          "type": "uint256"
        }
      ],
      "name": "burn",
      "outputs": [],
      "stateMutability": "nonpayable",
      "type": "function"
    },
    {
      "inputs": [
        {
          "internalType": "address",
          "name": "account",
          "type": "address"
        },
        {
          "internalType": "uint256",
          "name": "amount",
          "type": "uint256"
        }
      ],
      "name": "burnFrom",
      "outputs": [],
      "stateMutability": "nonpayable",
      "type": "function"
    },
    {
      "inputs": [
        {
          "internalType": "address",
          "name": "token",
          "type": "address"
        },
        {
          "internalType": "address",
          "name": "member",
          "type": "address"
        }
      ],
      "name": "calcCurrentReward",
      "outputs": [
        {
          "internalType": "uint256",
          "name": "reward",
          "type": "uint256"
        }
      ],
      "stateMutability": "view",
      "type": "function"
    },
    {
      "inputs": [
        {
          "internalType": "address",
          "name": "member",
          "type": "address"
        }
      ],
      "name": "calcReward",
      "outputs": [
        {
          "internalType": "uint256",
          "name": "",
          "type": "uint256"
        }
      ],
      "stateMutability": "view",
      "type": "function"
    },
    {
      "inputs": [
        {
          "internalType": "uint256",
          "name": "amount",
          "type": "uint256"
        }
      ],
      "name": "convert",
      "outputs": [
        {
          "internalType": "uint256",
          "name": "",
          "type": "uint256"
        }
      ],
      "stateMutability": "nonpayable",
      "type": "function"
    },
    {
      "inputs": [
        {
          "internalType": "address",
          "name": "member",
          "type": "address"
        },
        {
          "internalType": "uint256",
          "name": "amount",
          "type": "uint256"
        }
      ],
      "name": "convertForMember",
      "outputs": [
        {
          "internalType": "uint256",
          "name": "",
          "type": "uint256"
        }
      ],
      "stateMutability": "nonpayable",
      "type": "function"
    },
    {
      "inputs": [],
      "name": "currentEra",
      "outputs": [
        {
          "internalType": "uint256",
          "name": "",
          "type": "uint256"
        }
      ],
      "stateMutability": "view",
      "type": "function"
    },
    {
      "inputs": [],
      "name": "decimals",
      "outputs": [
        {
          "internalType": "uint256",
          "name": "",
          "type": "uint256"
        }
      ],
      "stateMutability": "view",
      "type": "function"
    },
    {
      "inputs": [
        {
          "internalType": "address",
          "name": "token",
          "type": "address"
        },
        {
          "internalType": "uint256",
          "name": "amount",
          "type": "uint256"
        }
      ],
      "name": "deposit",
      "outputs": [],
      "stateMutability": "nonpayable",
      "type": "function"
    },
    {
      "inputs": [
        {
          "internalType": "address",
          "name": "token",
          "type": "address"
        },
        {
          "internalType": "address",
          "name": "member",
          "type": "address"
        },
        {
          "internalType": "uint256",
          "name": "amount",
          "type": "uint256"
        }
      ],
      "name": "depositForMember",
      "outputs": [],
      "stateMutability": "nonpayable",
      "type": "function"
    },
    {
      "inputs": [],
      "name": "emitting",
      "outputs": [
        {
          "internalType": "bool",
          "name": "",
          "type": "bool"
        }
      ],
      "stateMutability": "view",
      "type": "function"
    },
    {
      "inputs": [],
      "name": "erasToEarn",
      "outputs": [
        {
          "internalType": "uint256",
          "name": "",
          "type": "uint256"
        }
      ],
      "stateMutability": "view",
      "type": "function"
    },
    {
      "inputs": [
        {
          "internalType": "address",
          "name": "token",
          "type": "address"
        },
        {
          "internalType": "address",
          "name": "member",
          "type": "address"
        }
      ],
      "name": "getMemberDeposit",
      "outputs": [
        {
          "internalType": "uint256",
          "name": "",
          "type": "uint256"
        }
      ],
      "stateMutability": "view",
      "type": "function"
    },
    {
      "inputs": [
        {
          "internalType": "address",
          "name": "token",
          "type": "address"
        },
        {
          "internalType": "address",
          "name": "member",
          "type": "address"
        }
      ],
      "name": "getMemberLastTime",
      "outputs": [
        {
          "internalType": "uint256",
          "name": "",
          "type": "uint256"
        }
      ],
      "stateMutability": "view",
      "type": "function"
    },
    {
      "inputs": [
        {
          "internalType": "address",
          "name": "token",
          "type": "address"
        },
        {
          "internalType": "address",
          "name": "member",
          "type": "address"
        }
      ],
      "name": "getMemberReward",
      "outputs": [
        {
          "internalType": "uint256",
          "name": "",
          "type": "uint256"
        }
      ],
      "stateMutability": "view",
      "type": "function"
    },
    {
      "inputs": [
        {
          "internalType": "address",
          "name": "member",
          "type": "address"
        }
      ],
      "name": "getMemberWeight",
      "outputs": [
        {
          "internalType": "uint256",
          "name": "",
          "type": "uint256"
        }
      ],
      "stateMutability": "view",
      "type": "function"
    },
    {
      "inputs": [
        {
          "internalType": "address",
          "name": "token",
          "type": "address"
        }
      ],
      "name": "getTokenDeposits",
      "outputs": [
        {
          "internalType": "uint256",
          "name": "",
          "type": "uint256"
        }
      ],
      "stateMutability": "view",
      "type": "function"
    },
    {
      "inputs": [
        {
          "internalType": "address",
          "name": "recipient",
          "type": "address"
        },
        {
          "internalType": "uint256",
          "name": "amount",
          "type": "uint256"
        }
      ],
      "name": "grant",
      "outputs": [],
      "stateMutability": "nonpayable",
      "type": "function"
    },
    {
      "inputs": [
        {
          "internalType": "address",
          "name": "token",
          "type": "address"
        }
      ],
      "name": "harvest",
      "outputs": [
        {
          "internalType": "uint256",
          "name": "reward",
          "type": "uint256"
        }
      ],
      "stateMutability": "nonpayable",
      "type": "function"
    },
    {
      "inputs": [
        {
          "internalType": "address",
          "name": "_vader",
          "type": "address"
        },
        {
          "internalType": "address",
          "name": "_router",
          "type": "address"
        },
        {
          "internalType": "address",
          "name": "_pool",
          "type": "address"
        }
      ],
      "name": "init",
      "outputs": [],
      "stateMutability": "nonpayable",
      "type": "function"
    },
    {
      "inputs": [],
      "name": "isMature",
      "outputs": [
        {
          "internalType": "bool",
          "name": "isMatured",
          "type": "bool"
        }
      ],
      "stateMutability": "view",
      "type": "function"
    },
    {
      "inputs": [
        {
          "internalType": "address",
          "name": "",
          "type": "address"
        }
      ],
      "name": "lastBlock",
      "outputs": [
        {
          "internalType": "uint256",
          "name": "",
          "type": "uint256"
        }
      ],
      "stateMutability": "view",
      "type": "function"
    },
    {
      "inputs": [],
      "name": "lastGranted",
      "outputs": [
        {
          "internalType": "uint256",
          "name": "",
          "type": "uint256"
        }
      ],
      "stateMutability": "view",
      "type": "function"
    },
    {
      "inputs": [],
      "name": "minGrantTime",
      "outputs": [
        {
          "internalType": "uint256",
          "name": "",
          "type": "uint256"
        }
      ],
      "stateMutability": "view",
      "type": "function"
    },
    {
      "inputs": [],
      "name": "minimumDepositTime",
      "outputs": [
        {
          "internalType": "uint256",
          "name": "",
          "type": "uint256"
        }
      ],
      "stateMutability": "view",
      "type": "function"
    },
    {
      "inputs": [],
      "name": "minting",
      "outputs": [
        {
          "internalType": "bool",
          "name": "",
          "type": "bool"
        }
      ],
      "stateMutability": "view",
      "type": "function"
    },
    {
      "inputs": [],
      "name": "name",
      "outputs": [
        {
          "internalType": "string",
          "name": "",
          "type": "string"
        }
      ],
      "stateMutability": "view",
      "type": "function"
    },
    {
      "inputs": [],
      "name": "nextEraTime",
      "outputs": [
        {
          "internalType": "uint256",
          "name": "",
          "type": "uint256"
        }
      ],
      "stateMutability": "view",
      "type": "function"
    },
    {
      "inputs": [
        {
          "internalType": "uint256",
          "name": "amount",
          "type": "uint256"
        }
      ],
      "name": "redeem",
      "outputs": [
        {
          "internalType": "uint256",
          "name": "",
          "type": "uint256"
        }
      ],
      "stateMutability": "nonpayable",
      "type": "function"
    },
    {
      "inputs": [
        {
          "internalType": "address",
          "name": "member",
          "type": "address"
        },
        {
          "internalType": "uint256",
          "name": "amount",
          "type": "uint256"
        }
      ],
      "name": "redeemForMember",
      "outputs": [
        {
          "internalType": "uint256",
          "name": "redeemAmount",
          "type": "uint256"
        }
      ],
      "stateMutability": "nonpayable",
      "type": "function"
    },
    {
      "inputs": [],
      "name": "reserveUSDV",
      "outputs": [
        {
          "internalType": "uint256",
          "name": "",
          "type": "uint256"
        }
      ],
      "stateMutability": "view",
      "type": "function"
    },
    {
      "inputs": [
        {
          "internalType": "uint256",
          "name": "newEra",
          "type": "uint256"
        },
        {
          "internalType": "uint256",
          "name": "newDepositTime",
          "type": "uint256"
        },
        {
          "internalType": "uint256",
          "name": "newDelay",
          "type": "uint256"
        },
        {
          "internalType": "uint256",
          "name": "newGrantTime",
          "type": "uint256"
        }
      ],
      "name": "setParams",
      "outputs": [],
      "stateMutability": "nonpayable",
      "type": "function"
    },
    {
      "inputs": [],
      "name": "symbol",
      "outputs": [
        {
          "internalType": "string",
          "name": "",
          "type": "string"
        }
      ],
      "stateMutability": "view",
      "type": "function"
    },
    {
      "inputs": [],
      "name": "totalRewards",
      "outputs": [
        {
          "internalType": "uint256",
          "name": "",
          "type": "uint256"
        }
      ],
      "stateMutability": "view",
      "type": "function"
    },
    {
      "inputs": [],
      "name": "totalSupply",
      "outputs": [
        {
          "internalType": "uint256",
          "name": "",
          "type": "uint256"
        }
      ],
      "stateMutability": "view",
      "type": "function"
    },
    {
      "inputs": [],
      "name": "totalWeight",
      "outputs": [
        {
          "internalType": "uint256",
          "name": "",
          "type": "uint256"
        }
      ],
      "stateMutability": "view",
      "type": "function"
    },
    {
      "inputs": [
        {
          "internalType": "address",
          "name": "recipient",
          "type": "address"
        },
        {
          "internalType": "uint256",
          "name": "amount",
          "type": "uint256"
        }
      ],
      "name": "transfer",
      "outputs": [
        {
          "internalType": "bool",
          "name": "",
          "type": "bool"
        }
      ],
      "stateMutability": "nonpayable",
      "type": "function"
    },
    {
      "inputs": [
        {
          "internalType": "address",
          "name": "sender",
          "type": "address"
        },
        {
          "internalType": "address",
          "name": "recipient",
          "type": "address"
        },
        {
          "internalType": "uint256",
          "name": "amount",
          "type": "uint256"
        }
      ],
      "name": "transferFrom",
      "outputs": [
        {
          "internalType": "bool",
          "name": "",
          "type": "bool"
        }
      ],
      "stateMutability": "nonpayable",
      "type": "function"
    },
    {
      "inputs": [
        {
          "internalType": "address",
          "name": "recipient",
          "type": "address"
        },
        {
          "internalType": "uint256",
          "name": "amount",
          "type": "uint256"
        }
      ],
      "name": "transferTo",
      "outputs": [
        {
          "internalType": "bool",
          "name": "",
          "type": "bool"
        }
      ],
      "stateMutability": "nonpayable",
      "type": "function"
    },
    {
      "inputs": [
        {
          "internalType": "address",
          "name": "token",
          "type": "address"
        },
        {
          "internalType": "uint256",
          "name": "basisPoints",
          "type": "uint256"
        }
      ],
      "name": "withdraw",
      "outputs": [
        {
          "internalType": "uint256",
          "name": "redeemedAmount",
          "type": "uint256"
        }
      ],
      "stateMutability": "nonpayable",
      "type": "function"
    }
  ],
  "bytecode": "0x60806040523480156200001157600080fd5b506040805180820190915260138082527f564144455220535441424c4520444f4c4c4152000000000000000000000000006020909201918252620000589160009162000097565b50604080518082019091526004808252632aa9a22b60e11b6020909201918252620000869160019162000097565b50601260025560006003556200017a565b828054620000a5906200013d565b90600052602060002090601f016020900481019282620000c9576000855562000114565b82601f10620000e457805160ff191683800117855562000114565b8280016001018555821562000114579182015b8281111562000114578251825591602001919060010190620000f7565b506200012292915062000126565b5090565b5b8082111562000122576000815560010162000127565b600181811c908216806200015257607f821691505b602082108114156200017457634e487b7160e01b600052602260045260246000fd5b50919050565b612803806200018a6000396000f3fe608060405234801561001057600080fd5b50600436106102bb5760003560e01c80637dc2268c11610182578063accb22e1116100e9578063dd62ed3e116100a2578063ebccb5b21161007c578063ebccb5b214610668578063f22454aa1461067b578063f3fef3a314610684578063fbe521a014610697576102bb565b8063dd62ed3e14610614578063de6ad44e1461064d578063e9f27c3a14610655576102bb565b8063accb22e1146105a1578063ae4e7fdf146105ca578063bf58d0ef146105d2578063d2450e8f146105e5578063d98f6088146105f8578063db006a7514610601576102bb565b8063973628f61161013b578063973628f61461052757806398fabd3a14610530578063a3908e1b14610538578063a4b82cb61461054b578063a9059cbb14610554578063a9fbeb9a14610567576102bb565b80637dc2268c146104a15780637ece45e8146104a95780638dfa9bcc146104bc578063952ca92c146104f657806395d89b411461051657806396c82e571461051e576102bb565b80632c07eebf1161022657806347e7ef24116101df57806347e7ef241461040e5780635364df49146104215780636370920e1461044a57806370a082311461045d57806379cc6790146104865780637b0e5c4514610499576102bb565b80632c07eebf146103b05780632ccb1b30146103b9578063313ce567146103cc57806332fe7b26146103d55780633a61738d146103e857806342966c68146103fb576102bb565b8063095ea7b311610278578063095ea7b3146103505780630e15561a146103635780630e5c011e1461036c57806318160ddd1461037f578063184b95591461038857806323b872dd1461039d576102bb565b806301681315146102c057806302d0e1ae146102f0578063036e21e51461031157806306fdde031461031a5780630781f4d21461032f578063090bbb0114610347575b600080fd5b600d546102d3906001600160a01b031681565b6040516001600160a01b0390911681526020015b60405180910390f35b6103036102fe366004612538565b6106aa565b6040519081526020016102e7565b61030360105481565b6103226106d7565b6040516102e791906126a6565b610337610765565b60405190151581526020016102e7565b61030360085481565b61033761035e3660046125fa565b6107e8565b61030360125481565b61030361037a366004612500565b6107fe565b61030360035481565b61039b610396366004612570565b610a41565b005b6103376103ab3660046125ba565b610bdc565b61030360095481565b6103376103c73660046125fa565b610c2e565b61030360025481565b600e546102d3906001600160a01b031681565b6103036103f6366004612500565b610c3b565b61039b610409366004612645565b610d09565b61039b61041c3660046125fa565b610d16565b61030361042f366004612500565b6001600160a01b031660009081526014602052604090205490565b61039b6104583660046125fa565b610d25565b61030361046b366004612500565b6001600160a01b031660009081526004602052604090205490565b61039b6104943660046125fa565b610e2f565b6102d3610e7a565b610337610ef7565b61039b6104b7366004612675565b610f3c565b6103036104ca366004612538565b6001600160a01b0380821660009081526015602090815260408083209386168352929052205492915050565b610303610504366004612500565b60186020526000908152604090205481565b610322610fa2565b61030360115481565b61030360075481565b6102d3610faf565b610303610546366004612645565b610ff4565b610303600b5481565b6103376105623660046125fa565b611000565b610303610575366004612538565b6001600160a01b0380821660009081526016602090815260408083209386168352929052205492915050565b6103036105af366004612500565b6001600160a01b031660009081526013602052604090205490565b61033761100d565b61039b6105e03660046125ba565b61103b565b6103036105f33660046125fa565b6111ff565b610303600c5481565b61030361060f366004612645565b6112b2565b610303610622366004612538565b6001600160a01b03918216600090815260056020908152604080832093909416825291909152205490565b6103036112be565b610303610663366004612538565b6112f3565b600f546102d3906001600160a01b031681565b610303600a5481565b6103036106923660046125fa565b6113f2565b6103036106a53660046125fa565b611414565b6001600160a01b038082166000908152601760209081526040808320938616835292905220545b92915050565b600080546106e490612767565b80601f016020809104026020016040519081016040528092919081815260200182805461071090612767565b801561075d5780601f106107325761010080835404028352916020019161075d565b820191906000526020600020905b81548152906001019060200180831161074057829003601f168201915b505050505081565b600d54604080516303c0fa6960e11b815290516000926001600160a01b031691630781f4d2916004808301926020929190829003018186803b1580156107aa57600080fd5b505afa1580156107be573d6000803e3d6000fd5b505050506040513d601f19601f820116820180604052508101906107e29190612625565b90505b90565b60006107f533848461143e565b50600192915050565b60003361080b83826112f3565b6001600160a01b038083166000818152601760209081526040808320948916808452948252808320429055928252601681528282209382529290925281208054929450849290919061085e9084906126f9565b92505081905550816012600082825461087791906126f9565b90915550600090506001600160a01b0384163014156108975750816109a1565b61089f610e7a565b6001600160a01b031663db39dc79856001600160a01b03166382bfefc86040518163ffffffff1660e01b8152600401602060405180830381600087803b1580156108e857600080fd5b505af11580156108fc573d6000803e3d6000fd5b505050506040513d601f19601f82011682018060405250810190610920919061251c565b6040516001600160e01b031960e084901b1681526001600160a01b0390911660048201526024810186905260440160206040518083038186803b15801561096657600080fd5b505afa15801561097a573d6000803e3d6000fd5b505050506040513d601f19601f8201168201806040525081019061099e919061265d565b90505b6001600160a01b038216600090815260146020526040812080548392906109c99084906126f9565b9250508190555080601160008282546109e291906126f9565b9091555050601154604080518581526020810184905280820192909252516001600160a01b0384811692908716917f154ce75570debb840e085287bc6b1fd9f48fa7b08a5f2dd564b6a7592147d4449181900360600190a35050919050565b60065460ff1615610a5157600080fd5b6006805460ff19166001179055600d80546001600160a01b038581166001600160a01b03199283168117909355600e80548683169084168117909155600f8054928616929093169190911790915560405163095ea7b360e01b81526004810191909152600019602482015263095ea7b390604401602060405180830381600087803b158015610adf57600080fd5b505af1158015610af3573d6000803e3d6000fd5b505050506040513d601f19601f82011682018060405250810190610b179190612625565b50600e54610b329030906001600160a01b031660001961143e565b6001600755600d54604080516335c951db60e11b815290516001600160a01b0390921691636b92a3b691600480820192602092909190829003018186803b158015610b7c57600080fd5b505afa158015610b90573d6000803e3d6000fd5b505050506040513d601f19601f82011682018060405250810190610bb4919061265d565b610bbe90426126f9565b600855505060646009555060016010556000600c5562278d00600a55565b6000610be984848461151e565b6001600160a01b038416600090815260056020908152604080832033808552925290912054610c24918691610c1f908690612750565b61143e565b5060019392505050565b60006107f532848461151e565b6001600160a01b0381166000908152601460205260408120546009548290610c616112be565b610c6b9190612711565b9050610c75610e7a565b6011546040516306e8c9b160e21b8152600481018590526024810191909152604481018390526001600160a01b039190911690631ba326c49060640160206040518083038186803b158015610cc957600080fd5b505afa158015610cdd573d6000803e3d6000fd5b505050506040513d601f19601f82011682018060405250810190610d01919061265d565b949350505050565b610d133382611614565b50565b610d2182338361103b565b5050565b610d2d610faf565b6001600160a01b0316336001600160a01b031614610d7c5760405162461bcd60e51b81526020600482015260076024820152664e6f742044414f60c81b60448201526064015b60405180910390fd5b600a610d866112be565b610d909190612711565b811115610dd35760405162461bcd60e51b81526020600482015260116024820152706e6f74206d6f7265207468616e2031302560781b6044820152606401610d73565b600a54600b54610de39042612750565b1015610e205760405162461bcd60e51b815260206004820152600c60248201526b1b9bdd081d1bdbc819985cdd60a21b6044820152606401610d73565b42600b55610d2130838361151e565b6001600160a01b0382166000908152600560209081526040808320338452909152812054610e5e908390612750565b9050610e6b83338361143e565b610e758383611614565b505050565b600d5460408051637b0e5c4560e01b815290516000926001600160a01b031691637b0e5c45916004808301926020929190829003018186803b158015610ebf57600080fd5b505afa158015610ed3573d6000803e3d6000fd5b505050506040513d601f19601f820116820180604052508101906107e2919061251c565b600d5460408051631f7089a360e21b815290516000926001600160a01b031691637dc2268c916004808301926020929190829003018186803b1580156107aa57600080fd5b610f44610faf565b6001600160a01b0316336001600160a01b031614610f8e5760405162461bcd60e51b81526020600482015260076024820152664e6f742044414f60c81b6044820152606401610d73565b600993909355601091909155600c55600a55565b600180546106e490612767565b600d5460408051634c7d5e9d60e11b815290516000926001600160a01b0316916398fabd3a916004808301926020929190829003018186803b158015610ebf57600080fd5b60006106d13383611414565b60006107f533848461151e565b600c54326000908152601860205260408120549091439161102e91906126f9565b116107e5575060016107e5565b6001600160a01b0383163014806111e15750600f54604051632f011bf560e11b81526001600160a01b03858116600483015290911690635e0237ea90602401602060405180830381600087803b15801561109457600080fd5b505af11580156110a8573d6000803e3d6000fd5b505050506040513d601f19601f820116820180604052508101906110cc9190612625565b80156111e15750600f60009054906101000a90046001600160a01b03166001600160a01b031663c87fa42a846001600160a01b03166382bfefc86040518163ffffffff1660e01b8152600401602060405180830381600087803b15801561113257600080fd5b505af1158015611146573d6000803e3d6000fd5b505050506040513d601f19601f8201168201806040525081019061116a919061251c565b6040516001600160e01b031960e084901b1681526001600160a01b03909116600482015260240160206040518083038186803b1580156111a957600080fd5b505afa1580156111bd573d6000803e3d6000fd5b505050506040513d601f19601f820116820180604052508101906111e19190612625565b6111ea57600080fd5b6111f483826116ea565b610e7583838361182b565b600d5460009061121a9033906001600160a01b03168461151e565b600d5460405163c30a0ce760e01b81526001600160a01b0385811660048301529091169063c30a0ce790602401602060405180830381600087803b15801561126157600080fd5b505af1158015611275573d6000803e3d6000fd5b505050506040513d601f19601f82011682018060405250810190611299919061265d565b3260009081526018602052604090204390559392505050565b60006106d133836111ff565b6012543060009081526013602090815260408083205460049092528220549192916112e99190612750565b6107e29190612750565b6001600160a01b03808216600090815260176020908152604080832093861683529290529081205481906113279042612750565b9050600061133484610c3b565b9050600d60009054906101000a90046001600160a01b03166001600160a01b0316636b92a3b66040518163ffffffff1660e01b815260040160206040518083038186803b15801561138457600080fd5b505afa158015611398573d6000803e3d6000fd5b505050506040513d601f19601f820116820180604052508101906113bc919061265d565b6113c68383612731565b6113d09190612711565b925060006113dc6112be565b90508084106113e9578093505b50505092915050565b600033611400848285611a84565b915061140d848284611fae565b5092915050565b600d5460009061142d906001600160a01b0316836116ea565b611437838361205a565b9392505050565b6001600160a01b03831661147d5760405162461bcd60e51b815260206004820152600660248201526539b2b73232b960d11b6044820152606401610d73565b6001600160a01b0382166114bd5760405162461bcd60e51b815260206004820152600760248201526639b832b73232b960c91b6044820152606401610d73565b6001600160a01b0383811660008181526005602090815260408083209487168084529482529182902085905590518481527f8c5be1e5ebec7d5bd14f71427d1e84f3dd0314c0f7b2291e5b200ac8c7c3b925910160405180910390a3505050565b8015610e75576001600160a01b0383166115635760405162461bcd60e51b815260206004820152600660248201526539b2b73232b960d11b6044820152606401610d73565b6001600160a01b0383166000908152600460205260408120805483929061158b908490612750565b90915550506001600160a01b038216600090815260046020526040812080548392906115b89084906126f9565b92505081905550816001600160a01b0316836001600160a01b03167fddf252ad1be2c89b69c2b068fc378daa952ba7f163c4a11628f55a4df523b3ef8360405161160491815260200190565b60405180910390a3610e756121a1565b8015610d21576001600160a01b03821661165e5760405162461bcd60e51b815260206004820152600b60248201526a30b2323932b9b99032b93960a91b6044820152606401610d73565b6001600160a01b03821660009081526004602052604081208054839290611686908490612750565b92505081905550806003600082825461169f9190612750565b90915550506040518181526000906001600160a01b038416907fddf252ad1be2c89b69c2b068fc378daa952ba7f163c4a11628f55a4df523b3ef906020015b60405180910390a35050565b6001600160a01b03821630141561170b5761170633308361151e565b610d21565b3233141561179c576040516302ccb1b360e41b8152306004820152602481018290526001600160a01b03831690632ccb1b3090604401602060405180830381600087803b15801561175b57600080fd5b505af115801561176f573d6000803e3d6000fd5b505050506040513d601f19601f820116820180604052508101906117939190612625565b61170657600080fd5b6040516323b872dd60e01b8152336004820152306024820152604481018290526001600160a01b038316906323b872dd90606401602060405180830381600087803b1580156117ea57600080fd5b505af11580156117fe573d6000803e3d6000fd5b505050506040513d601f19601f820116820180604052508101906118229190612625565b610d2157600080fd5b6001600160a01b0380831660008181526017602090815260408083209488168084529482528083204290559282526015815282822093825292909252812080548392906118799084906126f9565b90915550506001600160a01b038316600090815260136020526040812080548392906118a69084906126f9565b90915550600090506001600160a01b0384163014156118c65750806119d0565b6118ce610e7a565b6001600160a01b031663db39dc79856001600160a01b03166382bfefc86040518163ffffffff1660e01b8152600401602060405180830381600087803b15801561191757600080fd5b505af115801561192b573d6000803e3d6000fd5b505050506040513d601f19601f8201168201806040525081019061194f919061251c565b6040516001600160e01b031960e084901b1681526001600160a01b0390911660048201526024810185905260440160206040518083038186803b15801561199557600080fd5b505afa1580156119a9573d6000803e3d6000fd5b505050506040513d601f19601f820116820180604052508101906119cd919061265d565b90505b6001600160a01b038316600090815260146020526040812080548392906119f89084906126f9565b925050819055508060116000828254611a1191906126f9565b90915550506001600160a01b038481166000818152601360209081526040918290205460115483518881529283019190915281830186905260608201529051928616927f1dd1c43aa39b8d6cee7dd1d16ed47e15a4a20f35b7ec9bc091c6c760fc9e148f9181900360800190a350505050565b6010546001600160a01b038084166000908152601760209081526040808320938816835292905290812054909190611abc9042612750565b1015611af85760405162461bcd60e51b815260206004820152600b60248201526a4465706f73697454696d6560a81b6044820152606401610d73565b6000611b02610e7a565b6001600160a01b0385811660009081526016602090815260408083208a851684529091529081902054905163714270ab60e01b815260048101879052602481019190915291169063714270ab9060440160206040518083038186803b158015611b6a57600080fd5b505afa158015611b7e573d6000803e3d6000fd5b505050506040513d601f19601f82011682018060405250810190611ba2919061265d565b6001600160a01b038086166000908152601660209081526040808320938a16835292905290812080549293508392909190611bde908490612750565b925050819055508060126000828254611bf79190612750565b90915550506001600160a01b0385163014611d4557600f54611c249030906001600160a01b03168361151e565b600f60009054906101000a90046001600160a01b03166001600160a01b031663d016347e30876001600160a01b03166382bfefc86040518163ffffffff1660e01b8152600401602060405180830381600087803b158015611c8457600080fd5b505af1158015611c98573d6000803e3d6000fd5b505050506040513d601f19601f82011682018060405250810190611cbc919061251c565b6040516001600160e01b031960e085901b1681526001600160a01b03928316600482015291166024820152306044820152606401602060405180830381600087803b158015611d0a57600080fd5b505af1158015611d1e573d6000803e3d6000fd5b505050506040513d601f19601f82011682018060405250810190611d42919061265d565b90505b6000611d4f610e7a565b6001600160a01b0386811660009081526015602090815260408083208b851684529091529081902054905163714270ab60e01b815260048101889052602481019190915291169063714270ab9060440160206040518083038186803b158015611db757600080fd5b505afa158015611dcb573d6000803e3d6000fd5b505050506040513d601f19601f82011682018060405250810190611def919061265d565b6001600160a01b038087166000908152601560209081526040808320938b16835292905290812080549293508392909190611e2b908490612750565b90915550506001600160a01b03861660009081526013602052604081208054839290611e58908490612750565b9091555060009050611e68610e7a565b6001600160a01b038781166000908152601460205260409081902054905163714270ab60e01b815260048101899052602481019190915291169063714270ab9060440160206040518083038186803b158015611ec357600080fd5b505afa158015611ed7573d6000803e3d6000fd5b505050506040513d601f19601f82011682018060405250810190611efb919061265d565b6001600160a01b038716600090815260146020526040812080549293508392909190611f28908490612750565b925050819055508060116000828254611f419190612750565b9091555050601154604080518681526020810184905280820192909252516001600160a01b0388811692908a16917f28b0a5e71db5b0ceb9e9edc3f89a0763709f773d717a2dcfd7851977f805ea7a9181900360600190a3611fa383836126f9565b979650505050505050565b6001600160a01b038316301415611fcf57611fca30838361151e565b610e75565b60405163a9059cbb60e01b81526001600160a01b0383811660048301526024820183905284169063a9059cbb90604401602060405180830381600087803b15801561201957600080fd5b505af115801561202d573d6000803e3d6000fd5b505050506040513d601f19601f820116820180604052508101906120519190612625565b610e7557600080fd5b600061206461100d565b61209b5760405162461bcd60e51b815260206004820152600860248201526709cde40ccd8c2e6d60c31b6044820152606401610d73565b6120a3610ef7565b156106d1573260009081526018602052604090819020439055600d549051630852cd8d60e31b8152600481018490526001600160a01b03909116906342966c6890602401600060405180830381600087803b15801561210157600080fd5b505af1158015612115573d6000803e3d6000fd5b5050600e54604051632d26e9f960e11b8152600481018690526001600160a01b039091169250635a4dd3f2915060240160206040518083038186803b15801561215d57600080fd5b505afa158015612171573d6000803e3d6000fd5b505050506040513d601f19601f82011682018060405250810190612195919061265d565b90506106d1838261241d565b60085442101580156121b657506121b6610765565b1561241b576001600760008282546121ce91906126f9565b9091555050600d54604080516335c951db60e11b815290516001600160a01b0390921691636b92a3b691600480820192602092909190829003018186803b15801561221857600080fd5b505afa15801561222c573d6000803e3d6000fd5b505050506040513d601f19601f82011682018060405250810190612250919061265d565b61225a90426126f9565b600855600d546040516370a0823160e01b81523060048201526000916001600160a01b0316906370a082319060240160206040518083038186803b1580156122a157600080fd5b505afa1580156122b5573d6000803e3d6000fd5b505050506040513d601f19601f820116820180604052508101906122d9919061265d565b905060006122e6826124e7565b90506122f2308261205a565b50600e546123159030906001600160a01b0316612310600285612711565b61151e565b600d54600e546040516370a0823160e01b81523060048201526001600160a01b039283169263a9059cbb92169083906370a082319060240160206040518083038186803b15801561236557600080fd5b505afa158015612379573d6000803e3d6000fd5b505050506040513d601f19601f8201168201806040525081019061239d919061265d565b6040516001600160e01b031960e085901b1681526001600160a01b0390921660048301526024820152604401602060405180830381600087803b1580156123e357600080fd5b505af11580156123f7573d6000803e3d6000fd5b505050506040513d601f19601f82011682018060405250810190610e759190612625565b565b8015610d21576001600160a01b0382166124655760405162461bcd60e51b81526020600482015260096024820152681c9958da5c1a595b9d60ba1b6044820152606401610d73565b806003600082825461247791906126f9565b90915550506001600160a01b038216600090815260046020526040812080548392906124a49084906126f9565b90915550506040518181526001600160a01b038316906000907fddf252ad1be2c89b69c2b068fc378daa952ba7f163c4a11628f55a4df523b3ef906020016116de565b600060036124f6836002612731565b6106d19190612711565b600060208284031215612511578081fd5b8135611437816127b8565b60006020828403121561252d578081fd5b8151611437816127b8565b6000806040838503121561254a578081fd5b8235612555816127b8565b91506020830135612565816127b8565b809150509250929050565b600080600060608486031215612584578081fd5b833561258f816127b8565b9250602084013561259f816127b8565b915060408401356125af816127b8565b809150509250925092565b6000806000606084860312156125ce578283fd5b83356125d9816127b8565b925060208401356125e9816127b8565b929592945050506040919091013590565b6000806040838503121561260c578182fd5b8235612617816127b8565b946020939093013593505050565b600060208284031215612636578081fd5b81518015158114611437578182fd5b600060208284031215612656578081fd5b5035919050565b60006020828403121561266e578081fd5b5051919050565b6000806000806080858703121561268a578081fd5b5050823594602084013594506040840135936060013592509050565b6000602080835283518082850152825b818110156126d2578581018301518582016040015282016126b6565b818111156126e35783604083870101525b50601f01601f1916929092016040019392505050565b6000821982111561270c5761270c6127a2565b500190565b60008261272c57634e487b7160e01b81526012600452602481fd5b500490565b600081600019048311821515161561274b5761274b6127a2565b500290565b600082821015612762576127626127a2565b500390565b600181811c9082168061277b57607f821691505b6020821081141561279c57634e487b7160e01b600052602260045260246000fd5b50919050565b634e487b7160e01b600052601160045260246000fd5b6001600160a01b0381168114610d1357600080fdfea26469706673582212206fe0ba2a5cbad4bc4fd68ffb2a5d67a4b54c77c95e9c6ecca688c9e44465fc5164736f6c63430008030033",
  "linkReferences": {},
  "deployedLinkReferences": {}
}