{
  "_format": "hh-sol-artifact-1",
  "contractName": "Factory",
  "sourceName": "contracts/Factory.sol",
  "abi": [
    {
      "inputs": [],
      "stateMutability": "nonpayable",
      "type": "constructor"
    },
    {
      "anonymous": false,
      "inputs": [
        {
          "indexed": true,
          "internalType": "address",
          "name": "token",
          "type": "address"
        },
        {
          "indexed": true,
          "internalType": "address",
          "name": "pool",
          "type": "address"
        }
      ],
      "name": "CreateSynth",
      "type": "event"
    },
    {
      "inputs": [],
      "name": "POOLS",
      "outputs": [
        {
          "internalType": "address",
          "name": "",
          "type": "address"
        }
      ],
      "stateMutability": "view",
      "type": "function"
    },
    {
      "inputs": [],
      "name": "USDV",
      "outputs": [
        {
          "internalType": "address",
          "name": "",
          "type": "address"
        }
      ],
      "stateMutability": "view",
      "type": "function"
    },
    {
      "inputs": [],
      "name": "VADER",
      "outputs": [
        {
          "internalType": "address",
          "name": "",
          "type": "address"
        }
      ],
      "stateMutability": "view",
      "type": "function"
    },
    {
      "inputs": [
        {
          "internalType": "uint256",
          "name": "",
          "type": "uint256"
        }
      ],
      "name": "arraySynths",
      "outputs": [
        {
          "internalType": "address",
          "name": "",
          "type": "address"
        }
      ],
      "stateMutability": "view",
      "type": "function"
    },
    {
      "inputs": [
        {
          "internalType": "address",
          "name": "token",
          "type": "address"
        }
      ],
      "name": "deploySynth",
      "outputs": [
        {
          "internalType": "address",
          "name": "synth",
          "type": "address"
        }
      ],
      "stateMutability": "nonpayable",
      "type": "function"
    },
    {
      "inputs": [
        {
          "internalType": "address",
          "name": "",
          "type": "address"
        }
      ],
      "name": "getSynth",
      "outputs": [
        {
          "internalType": "address",
          "name": "",
          "type": "address"
        }
      ],
      "stateMutability": "view",
      "type": "function"
    },
    {
      "inputs": [
        {
          "internalType": "address",
          "name": "_pool",
          "type": "address"
        }
      ],
      "name": "init",
      "outputs": [],
      "stateMutability": "nonpayable",
      "type": "function"
    },
    {
      "inputs": [
        {
          "internalType": "address",
          "name": "",
          "type": "address"
        }
      ],
      "name": "isSynth",
      "outputs": [
        {
          "internalType": "bool",
          "name": "",
          "type": "bool"
        }
      ],
      "stateMutability": "view",
      "type": "function"
    },
    {
      "inputs": [
        {
          "internalType": "address",
          "name": "synth",
          "type": "address"
        },
        {
          "internalType": "address",
          "name": "member",
          "type": "address"
        },
        {
          "internalType": "uint256",
          "name": "amount",
          "type": "uint256"
        }
      ],
      "name": "mintSynth",
      "outputs": [
        {
          "internalType": "bool",
          "name": "",
          "type": "bool"
        }
      ],
      "stateMutability": "nonpayable",
      "type": "function"
    }
  ],
  "bytecode": "0x608060405234801561001057600080fd5b5061139c806100206000396000f3fe60806040523480156200001157600080fd5b5060043610620000a05760003560e01c80638e80bddf116200006f5780638e80bddf1462000142578063dcec81161462000159578063e2c3b0461462000185578063eb7659551462000199578063ebccb5b214620001b057620000a0565b80630168131514620000a557806319ab453c14620000db5780635bf0abbc14620000f45780635e0237ea146200011c575b600080fd5b600054620000be9061010090046001600160a01b031681565b6040516001600160a01b0390911681526020015b60405180910390f35b620000f2620000ec366004620004c3565b620001c4565b005b6200010b62000105366004620004e7565b62000205565b6040519015158152602001620000d2565b6200010b6200012d366004620004c3565b60056020526000908152604090205460ff1681565b620000be62000153366004620004c3565b620002bf565b620000be6200016a366004620004c3565b6004602052600090815260409020546001600160a01b031681565b600154620000be906001600160a01b031681565b620000be620001aa36600462000527565b6200046d565b600254620000be906001600160a01b031681565b60005460ff1615620001d557600080fd5b6000805460ff19166001179055600280546001600160a01b039092166001600160a01b0319909216919091179055565b6002546000906001600160a01b03163314620002515760405162461bcd60e51b815260206004820152600660248201526521504f4f4c5360d01b60448201526064015b60405180910390fd5b6040516340c10f1960e01b81526001600160a01b038481166004830152602482018490528516906340c10f1990604401600060405180830381600087803b1580156200029c57600080fd5b505af1158015620002b1573d6000803e3d6000fd5b506001979650505050505050565b6002546000906001600160a01b03163314620003075760405162461bcd60e51b815260206004820152600660248201526521504f4f4c5360d01b604482015260640162000248565b6001600160a01b0382811660009081526004602052604090205416156200035d5760405162461bcd60e51b815260206004820152600960248201526821b932b0ba32a2b93960b91b604482015260640162000248565b6000826040516200036e9062000498565b6001600160a01b039091168152602001604051809103906000f0801580156200039b573d6000803e3d6000fd5b5090508091506200042783836001600160a01b0391821660009081526004602090815260408083208054959094166001600160a01b031995861681179094556003805460018181019092557fc2575a0e9e593c00f959f8c92f12db2869c3395a3b0502d05e2516446f71f85b01805490961685179095559282526005905220805460ff19169091179055565b816001600160a01b0316836001600160a01b03167f43f98d8b2371b57c895f837bf56fcc83a2e97624200ff6282779f0d40411a83860405160405180910390a350919050565b600381815481106200047e57600080fd5b6000918252602090912001546001600160a01b0316905081565b610e26806200054183390190565b80356001600160a01b0381168114620004be57600080fd5b919050565b600060208284031215620004d5578081fd5b620004e082620004a6565b9392505050565b600080600060608486031215620004fc578182fd5b6200050784620004a6565b92506200051760208501620004a6565b9150604084013590509250925092565b60006020828403121562000539578081fd5b503591905056fe608060405260126004553480156200001657600080fd5b5060405162000e2638038062000e268339810160408190526200003991620002b1565b600180546001600160a01b0383166001600160a01b03199182168117909255600080549091163317815560408051808201825260098152680405a40eca6f2dce8d60bb1b602080830191909152825180840184526002815261173b60f11b9181019190915282516306fdde0360e01b815292519194909390926306fdde039260048083019392829003018186803b158015620000d457600080fd5b505afa158015620000e9573d6000803e3d6000fd5b505050506040513d6000823e601f3d908101601f19168201604052620001139190810190620002e1565b826040516020016200012792919062000395565b604051602081830303815290604052600290805190602001906200014d9291906200020b565b50826001600160a01b03166395d89b416040518163ffffffff1660e01b815260040160006040518083038186803b1580156200018857600080fd5b505afa1580156200019d573d6000803e3d6000fd5b505050506040513d6000823e601f3d908101601f19168201604052620001c79190810190620002e1565b81604051602001620001db92919062000395565b60405160208183030381529060405260039080519060200190620002019291906200020b565b505050506200044e565b8280546200021990620003fb565b90600052602060002090601f0160209004810192826200023d576000855562000288565b82601f106200025857805160ff191683800117855562000288565b8280016001018555821562000288579182015b82811115620002885782518255916020019190600101906200026b565b50620002969291506200029a565b5090565b5b808211156200029657600081556001016200029b565b600060208284031215620002c3578081fd5b81516001600160a01b0381168114620002da578182fd5b9392505050565b600060208284031215620002f3578081fd5b81516001600160401b03808211156200030a578283fd5b818401915084601f8301126200031e578283fd5b81518181111562000333576200033362000438565b604051601f8201601f19908116603f011681019083821181831017156200035e576200035e62000438565b8160405282815287602084870101111562000377578586fd5b6200038a836020830160208801620003c8565b979650505050505050565b60008351620003a9818460208801620003c8565b835190830190620003bf818360208801620003c8565b01949350505050565b60005b83811015620003e5578181015183820152602001620003cb565b83811115620003f5576000848401525b50505050565b600181811c908216806200041057607f821691505b602082108114156200043257634e487b7160e01b600052602260045260246000fd5b50919050565b634e487b7160e01b600052604160045260246000fd5b6109c8806200045e6000396000f3fe608060405234801561001057600080fd5b50600436106100f55760003560e01c806340c10f191161009757806382bfefc81161006657806382bfefc8146101fa57806395d89b411461020d578063a9059cbb14610215578063dd62ed3e14610228576100f5565b806340c10f19146101ac57806342966c68146101c157806370a08231146101d457806379cc6790146101e7576100f5565b806323b872dd116100d357806323b872dd146101525780632ccb1b30146101655780632dd3100014610178578063313ce567146101a3576100f5565b806306fdde03146100fa578063095ea7b31461011857806318160ddd1461013b575b600080fd5b610102610261565b60405161010f91906108bf565b60405180910390f35b61012b61012636600461087e565b6102ef565b604051901515815260200161010f565b61014460055481565b60405190815260200161010f565b61012b610160366004610843565b610305565b61012b61017336600461087e565b610357565b60005461018b906001600160a01b031681565b6040516001600160a01b03909116815260200161010f565b61014460045481565b6101bf6101ba36600461087e565b610364565b005b6101bf6101cf3660046108a7565b61047a565b6101446101e23660046107f0565b610487565b6101bf6101f536600461087e565b6104a6565b60015461018b906001600160a01b031681565b6101026104f1565b61012b61022336600461087e565b6104fe565b610144610236366004610811565b6001600160a01b03918216600090815260076020908152604080832093909416825291909152205490565b6002805461026e90610941565b80601f016020809104026020016040519081016040528092919081815260200182805461029a90610941565b80156102e75780601f106102bc576101008083540402835291602001916102e7565b820191906000526020600020905b8154815290600101906020018083116102ca57829003601f168201915b505050505081565b60006102fc33848461050b565b50600192915050565b60006103128484846105ec565b6001600160a01b03841660009081526007602090815260408083203380855292529091205461034d91869161034890869061092a565b61050b565b5060019392505050565b60006102fc3284846105ec565b6000546001600160a01b031633146103ae5760405162461bcd60e51b815260206004820152600860248201526721464143544f525960c01b60448201526064015b60405180910390fd5b6001600160a01b0382166103f05760405162461bcd60e51b81526020600482015260096024820152681c9958da5c1a595b9d60ba1b60448201526064016103a5565b80600560008282546104029190610912565b90915550506001600160a01b0382166000908152600660205260408120805483929061042f908490610912565b90915550506040518181526001600160a01b038316906000907fddf252ad1be2c89b69c2b068fc378daa952ba7f163c4a11628f55a4df523b3ef906020015b60405180910390a35050565b6104843382610711565b50565b6001600160a01b0381166000908152600660205260409020545b919050565b6001600160a01b03821660009081526007602090815260408083203384529091528120546104d590839061092a565b90506104e283338361050b565b6104ec8383610711565b505050565b6003805461026e90610941565b60006102fc3384846105ec565b6001600160a01b03831661054a5760405162461bcd60e51b815260206004820152600660248201526539b2b73232b960d11b60448201526064016103a5565b6001600160a01b03821661058a5760405162461bcd60e51b815260206004820152600760248201526639b832b73232b960c91b60448201526064016103a5565b6001600160a01b0383811660008181526007602090815260408083209487168084529482529182902085905590518481527f8c5be1e5ebec7d5bd14f71427d1e84f3dd0314c0f7b2291e5b200ac8c7c3b92591015b60405180910390a3505050565b6001600160a01b03831661062b5760405162461bcd60e51b815260206004820152600660248201526539b2b73232b960d11b60448201526064016103a5565b6001600160a01b0382163014156106705760405162461bcd60e51b81526020600482015260096024820152681c9958da5c1a595b9d60ba1b60448201526064016103a5565b6001600160a01b0383166000908152600660205260408120805483929061069890849061092a565b90915550506001600160a01b038216600090815260066020526040812080548392906106c5908490610912565b92505081905550816001600160a01b0316836001600160a01b03167fddf252ad1be2c89b69c2b068fc378daa952ba7f163c4a11628f55a4df523b3ef836040516105df91815260200190565b6001600160a01b0382166107555760405162461bcd60e51b815260206004820152600b60248201526a30b2323932b9b99032b93960a91b60448201526064016103a5565b6001600160a01b0382166000908152600660205260408120805483929061077d90849061092a565b925050819055508060056000828254610796919061092a565b90915550506040518181526000906001600160a01b038416907fddf252ad1be2c89b69c2b068fc378daa952ba7f163c4a11628f55a4df523b3ef9060200161046e565b80356001600160a01b03811681146104a157600080fd5b600060208284031215610801578081fd5b61080a826107d9565b9392505050565b60008060408385031215610823578081fd5b61082c836107d9565b915061083a602084016107d9565b90509250929050565b600080600060608486031215610857578081fd5b610860846107d9565b925061086e602085016107d9565b9150604084013590509250925092565b60008060408385031215610890578182fd5b610899836107d9565b946020939093013593505050565b6000602082840312156108b8578081fd5b5035919050565b6000602080835283518082850152825b818110156108eb578581018301518582016040015282016108cf565b818111156108fc5783604083870101525b50601f01601f1916929092016040019392505050565b600082198211156109255761092561097c565b500190565b60008282101561093c5761093c61097c565b500390565b600181811c9082168061095557607f821691505b6020821081141561097657634e487b7160e01b600052602260045260246000fd5b50919050565b634e487b7160e01b600052601160045260246000fdfea2646970667358221220dbf31727f1044ed4186fc2328782e5c55eda9fbe3ed0b471885028362c55528664736f6c63430008030033a26469706673582212202f96d61f154b8d0ae39f90d1badf60259304e337ac64aab5d860fd515360e16264736f6c63430008030033",
  "linkReferences": {},
  "deployedLinkReferences": {}
}