{
  "_format": "hh-sol-artifact-1",
  "contractName": "Factory",
  "sourceName": "contracts/Factory.sol",
  "abi": [
    {
      "inputs": [],
      "stateMutability": "nonpayable",
      "type": "constructor"
    },
    {
      "anonymous": false,
      "inputs": [
        {
          "indexed": true,
          "internalType": "address",
          "name": "token",
          "type": "address"
        },
        {
          "indexed": true,
          "internalType": "address",
          "name": "pool",
          "type": "address"
        }
      ],
      "name": "CreateSynth",
      "type": "event"
    },
    {
      "inputs": [],
      "name": "POOLS",
      "outputs": [
        {
          "internalType": "address",
          "name": "",
          "type": "address"
        }
      ],
      "stateMutability": "view",
      "type": "function"
    },
    {
      "inputs": [
        {
          "internalType": "uint256",
          "name": "",
          "type": "uint256"
        }
      ],
      "name": "arraySynths",
      "outputs": [
        {
          "internalType": "address",
          "name": "",
          "type": "address"
        }
      ],
      "stateMutability": "view",
      "type": "function"
    },
    {
      "inputs": [
        {
          "internalType": "address",
          "name": "token",
          "type": "address"
        }
      ],
      "name": "deploySynth",
      "outputs": [
        {
          "internalType": "address",
          "name": "synth",
          "type": "address"
        }
      ],
      "stateMutability": "nonpayable",
      "type": "function"
    },
    {
      "inputs": [
        {
          "internalType": "address",
          "name": "token",
          "type": "address"
        }
      ],
      "name": "getSynth",
      "outputs": [
        {
          "internalType": "address",
          "name": "synth",
          "type": "address"
        }
      ],
      "stateMutability": "view",
      "type": "function"
    },
    {
      "inputs": [
        {
          "internalType": "address",
          "name": "_pools",
          "type": "address"
        }
      ],
      "name": "init",
      "outputs": [],
      "stateMutability": "nonpayable",
      "type": "function"
    },
    {
      "inputs": [
        {
          "internalType": "address",
          "name": "token",
          "type": "address"
        }
      ],
      "name": "isSynth",
      "outputs": [
        {
          "internalType": "bool",
          "name": "_exists",
          "type": "bool"
        }
      ],
      "stateMutability": "view",
      "type": "function"
    },
    {
      "inputs": [
        {
          "internalType": "address",
          "name": "synth",
          "type": "address"
        },
        {
          "internalType": "address",
          "name": "member",
          "type": "address"
        },
        {
          "internalType": "uint256",
          "name": "amount",
          "type": "uint256"
        }
      ],
      "name": "mintSynth",
      "outputs": [
        {
          "internalType": "bool",
          "name": "",
          "type": "bool"
        }
      ],
      "stateMutability": "nonpayable",
      "type": "function"
    }
  ],
  "bytecode": "0x608060405234801561001057600080fd5b506113ee806100206000396000f3fe60806040523480156200001157600080fd5b5060043610620000885760003560e01c80638e80bddf11620000635780638e80bddf14620000e9578063dcec81161462000119578063eb7659551462000148578063ebccb5b2146200015f5762000088565b806319ab453c146200008d5780635bf0abbc14620000a65780635e0237ea14620000d2575b600080fd5b620000a46200009e3660046200048a565b62000173565b005b620000bd620000b7366004620004ae565b620001a3565b60405190151581526020015b60405180910390f35b620000bd620000e33660046200048a565b6200025b565b62000100620000fa3660046200048a565b62000290565b6040516001600160a01b039091168152602001620000c9565b620001006200012a3660046200048a565b6001600160a01b039081166000908152600260205260409020541690565b6200010062000159366004620004ee565b62000439565b60005462000100906001600160a01b031681565b6000546001600160a01b0316620001a057600080546001600160a01b0319166001600160a01b0383161790555b50565b600080546001600160a01b03163314620001ed5760405162461bcd60e51b815260206004820152600660248201526521504f4f4c5360d01b60448201526064015b60405180910390fd5b6040516340c10f1960e01b81526001600160a01b038481166004830152602482018490528516906340c10f1990604401600060405180830381600087803b1580156200023857600080fd5b505af11580156200024d573d6000803e3d6000fd5b506001979650505050505050565b6001600160a01b03811660009081526003602052604081205460ff168015620002895760019150506200028b565b505b919050565b600080546001600160a01b03163314620002d65760405162461bcd60e51b815260206004820152600660248201526521504f4f4c5360d01b6044820152606401620001e4565b6001600160a01b0382811660009081526002602052604090205416156200032c5760405162461bcd60e51b815260206004820152600960248201526821b932b0ba32a2b93960b91b6044820152606401620001e4565b6000826040516200033d9062000464565b6001600160a01b039091168152602001604051809103906000f0801580156200036a573d6000803e3d6000fd5b509050809150620003f383836001600160a01b0391821660009081526002602090815260408083208054959094166001600160a01b031995861681179094556001805480820182557fb10e2d527612073b26eecdfd717e6a320cf44b4afac2b0732d9fcbe2b7fa0cf601805490961685179095559282526003905220805460ff19169091179055565b816001600160a01b0316836001600160a01b03167f43f98d8b2371b57c895f837bf56fcc83a2e97624200ff6282779f0d40411a83860405160405180910390a350919050565b600181815481106200044a57600080fd5b6000918252602090912001546001600160a01b0316905081565b610eb1806200050883390190565b80356001600160a01b03811681146200028b57600080fd5b6000602082840312156200049c578081fd5b620004a78262000472565b9392505050565b600080600060608486031215620004c3578182fd5b620004ce8462000472565b9250620004de6020850162000472565b9150604084013590509250925092565b60006020828403121562000500578081fd5b503591905056fe60c06040523480156200001157600080fd5b5060405162000eb138038062000eb18339810160408190526200003491620002a7565b606081811b6001600160601b03191660a05233901b60805260408051808201825260098152680405a40eca6f2dce8d60bb1b602082810191909152825180840184526002815261173b60f11b9181019190915282516306fdde0360e01b81529251919290916001600160a01b038516916306fdde03916004808301926000929190829003018186803b158015620000ca57600080fd5b505afa158015620000df573d6000803e3d6000fd5b505050506040513d6000823e601f3d908101601f19168201604052620001099190810190620002d7565b826040516020016200011d9291906200038b565b604051602081830303815290604052600090805190602001906200014392919062000201565b50826001600160a01b03166395d89b416040518163ffffffff1660e01b815260040160006040518083038186803b1580156200017e57600080fd5b505afa15801562000193573d6000803e3d6000fd5b505050506040513d6000823e601f3d908101601f19168201604052620001bd9190810190620002d7565b81604051602001620001d19291906200038b565b60405160208183030381529060405260019080519060200190620001f792919062000201565b5050505062000444565b8280546200020f90620003f1565b90600052602060002090601f0160209004810192826200023357600085556200027e565b82601f106200024e57805160ff19168380011785556200027e565b828001600101855582156200027e579182015b828111156200027e57825182559160200191906001019062000261565b506200028c92915062000290565b5090565b5b808211156200028c576000815560010162000291565b600060208284031215620002b9578081fd5b81516001600160a01b0381168114620002d0578182fd5b9392505050565b600060208284031215620002e9578081fd5b81516001600160401b038082111562000300578283fd5b818401915084601f83011262000314578283fd5b8151818111156200032957620003296200042e565b604051601f8201601f19908116603f011681019083821181831017156200035457620003546200042e565b816040528281528760208487010111156200036d578586fd5b62000380836020830160208801620003be565b979650505050505050565b600083516200039f818460208801620003be565b835190830190620003b5818360208801620003be565b01949350505050565b60005b83811015620003db578181015183820152602001620003c1565b83811115620003eb576000848401525b50505050565b600181811c908216806200040657607f821691505b602082108114156200042857634e487b7160e01b600052602260045260246000fd5b50919050565b634e487b7160e01b600052604160045260246000fd5b60805160601c60a05160601c610a3a62000477600039600061021201526000818161017d01526103c30152610a3a6000f3fe608060405234801561001057600080fd5b50600436106100f55760003560e01c806340c10f191161009757806382bfefc81161006657806382bfefc81461020d57806395d89b4114610234578063a9059cbb1461023c578063dd62ed3e1461024f576100f5565b806340c10f19146101bf57806342966c68146101d457806370a08231146101e757806379cc6790146101fa576100f5565b806323b872dd116100d357806323b872dd146101525780632ccb1b30146101655780632dd3100014610178578063313ce567146101b7576100f5565b806306fdde03146100fa578063095ea7b31461011857806318160ddd1461013b575b600080fd5b610102610288565b60405161010f9190610931565b60405180910390f35b61012b6101263660046108f0565b610316565b604051901515815260200161010f565b61014460025481565b60405190815260200161010f565b61012b6101603660046108b5565b61032c565b61012b6101733660046108f0565b6103ab565b61019f7f000000000000000000000000000000000000000000000000000000000000000081565b6040516001600160a01b03909116815260200161010f565b610144601281565b6101d26101cd3660046108f0565b6103b8565b005b6101d26101e2366004610919565b6104ec565b6101446101f5366004610862565b6104f9565b6101d26102083660046108f0565b610518565b61019f7f000000000000000000000000000000000000000000000000000000000000000081565b610102610563565b61012b61024a3660046108f0565b610570565b61014461025d366004610883565b6001600160a01b03918216600090815260046020908152604080832093909416825291909152205490565b60008054610295906109b3565b80601f01602080910402602001604051908101604052809291908181526020018280546102c1906109b3565b801561030e5780601f106102e35761010080835404028352916020019161030e565b820191906000526020600020905b8154815290600101906020018083116102f157829003601f168201915b505050505081565b600061032333848461057d565b50600192915050565b600061033984848461065e565b6001600160a01b038416600090815260046020908152604080832033845290915290205460001911156103a1576001600160a01b0384166000908152600460209081526040808320338085529252909120546103a191869161039c90869061099c565b61057d565b5060019392505050565b600061032332848461065e565b336001600160a01b037f000000000000000000000000000000000000000000000000000000000000000016146104205760405162461bcd60e51b815260206004820152600860248201526721464143544f525960c01b60448201526064015b60405180910390fd5b6001600160a01b0382166104625760405162461bcd60e51b81526020600482015260096024820152681c9958da5c1a595b9d60ba1b6044820152606401610417565b80600260008282546104749190610984565b90915550506001600160a01b038216600090815260036020526040812080548392906104a1908490610984565b90915550506040518181526001600160a01b038316906000907fddf252ad1be2c89b69c2b068fc378daa952ba7f163c4a11628f55a4df523b3ef906020015b60405180910390a35050565b6104f63382610783565b50565b6001600160a01b0381166000908152600360205260409020545b919050565b6001600160a01b038216600090815260046020908152604080832033845290915281205461054790839061099c565b905061055483338361057d565b61055e8383610783565b505050565b60018054610295906109b3565b600061032333848461065e565b6001600160a01b0383166105bc5760405162461bcd60e51b815260206004820152600660248201526539b2b73232b960d11b6044820152606401610417565b6001600160a01b0382166105fc5760405162461bcd60e51b815260206004820152600760248201526639b832b73232b960c91b6044820152606401610417565b6001600160a01b0383811660008181526004602090815260408083209487168084529482529182902085905590518481527f8c5be1e5ebec7d5bd14f71427d1e84f3dd0314c0f7b2291e5b200ac8c7c3b92591015b60405180910390a3505050565b6001600160a01b03831661069d5760405162461bcd60e51b815260206004820152600660248201526539b2b73232b960d11b6044820152606401610417565b6001600160a01b0382163014156106e25760405162461bcd60e51b81526020600482015260096024820152681c9958da5c1a595b9d60ba1b6044820152606401610417565b6001600160a01b0383166000908152600360205260408120805483929061070a90849061099c565b90915550506001600160a01b03821660009081526003602052604081208054839290610737908490610984565b92505081905550816001600160a01b0316836001600160a01b03167fddf252ad1be2c89b69c2b068fc378daa952ba7f163c4a11628f55a4df523b3ef8360405161065191815260200190565b6001600160a01b0382166107c75760405162461bcd60e51b815260206004820152600b60248201526a30b2323932b9b99032b93960a91b6044820152606401610417565b6001600160a01b038216600090815260036020526040812080548392906107ef90849061099c565b925050819055508060026000828254610808919061099c565b90915550506040518181526000906001600160a01b038416907fddf252ad1be2c89b69c2b068fc378daa952ba7f163c4a11628f55a4df523b3ef906020016104e0565b80356001600160a01b038116811461051357600080fd5b600060208284031215610873578081fd5b61087c8261084b565b9392505050565b60008060408385031215610895578081fd5b61089e8361084b565b91506108ac6020840161084b565b90509250929050565b6000806000606084860312156108c9578081fd5b6108d28461084b565b92506108e06020850161084b565b9150604084013590509250925092565b60008060408385031215610902578182fd5b61090b8361084b565b946020939093013593505050565b60006020828403121561092a578081fd5b5035919050565b6000602080835283518082850152825b8181101561095d57858101830151858201604001528201610941565b8181111561096e5783604083870101525b50601f01601f1916929092016040019392505050565b60008219821115610997576109976109ee565b500190565b6000828210156109ae576109ae6109ee565b500390565b600181811c908216806109c757607f821691505b602082108114156109e857634e487b7160e01b600052602260045260246000fd5b50919050565b634e487b7160e01b600052601160045260246000fdfea2646970667358221220dc7eef6d52f1aed9e0bf2cb685ed661056d2c2e9f8964f1e3747f570166f865164736f6c63430008030033a264697066735822122081f9ab72b60bdd915ff1205505a2df02515ac001b7f321f0988d39219f6b331e64736f6c63430008030033",
  "linkReferences": {},
  "deployedLinkReferences": {}
}