{
  "_format": "hh-sol-artifact-1",
  "contractName": "Factory",
  "sourceName": "contracts/Factory.sol",
  "abi": [
    {
      "inputs": [],
      "stateMutability": "nonpayable",
      "type": "constructor"
    },
    {
      "anonymous": false,
      "inputs": [
        {
          "indexed": true,
          "internalType": "address",
          "name": "token",
          "type": "address"
        },
        {
          "indexed": true,
          "internalType": "address",
          "name": "pool",
          "type": "address"
        }
      ],
      "name": "CreateSynth",
      "type": "event"
    },
    {
      "inputs": [],
      "name": "POOLS",
      "outputs": [
        {
          "internalType": "address",
          "name": "",
          "type": "address"
        }
      ],
      "stateMutability": "view",
      "type": "function"
    },
    {
      "inputs": [],
      "name": "USDV",
      "outputs": [
        {
          "internalType": "address",
          "name": "",
          "type": "address"
        }
      ],
      "stateMutability": "view",
      "type": "function"
    },
    {
      "inputs": [],
      "name": "VADER",
      "outputs": [
        {
          "internalType": "address",
          "name": "",
          "type": "address"
        }
      ],
      "stateMutability": "view",
      "type": "function"
    },
    {
      "inputs": [
        {
          "internalType": "uint256",
          "name": "",
          "type": "uint256"
        }
      ],
      "name": "arraySynths",
      "outputs": [
        {
          "internalType": "address",
          "name": "",
          "type": "address"
        }
      ],
      "stateMutability": "view",
      "type": "function"
    },
    {
      "inputs": [
        {
          "internalType": "address",
          "name": "token",
          "type": "address"
        }
      ],
      "name": "deploySynth",
      "outputs": [
        {
          "internalType": "address",
          "name": "synth",
          "type": "address"
        }
      ],
      "stateMutability": "nonpayable",
      "type": "function"
    },
    {
      "inputs": [
        {
          "internalType": "address",
          "name": "",
          "type": "address"
        }
      ],
      "name": "getSynth",
      "outputs": [
        {
          "internalType": "address",
          "name": "",
          "type": "address"
        }
      ],
      "stateMutability": "view",
      "type": "function"
    },
    {
      "inputs": [
        {
          "internalType": "address",
          "name": "_pool",
          "type": "address"
        }
      ],
      "name": "init",
      "outputs": [],
      "stateMutability": "nonpayable",
      "type": "function"
    },
    {
      "inputs": [
        {
          "internalType": "address",
          "name": "",
          "type": "address"
        }
      ],
      "name": "isSynth",
      "outputs": [
        {
          "internalType": "bool",
          "name": "",
          "type": "bool"
        }
      ],
      "stateMutability": "view",
      "type": "function"
    },
    {
      "inputs": [
        {
          "internalType": "address",
          "name": "synth",
          "type": "address"
        },
        {
          "internalType": "address",
          "name": "member",
          "type": "address"
        },
        {
          "internalType": "uint256",
          "name": "amount",
          "type": "uint256"
        }
      ],
      "name": "mintSynth",
      "outputs": [
        {
          "internalType": "bool",
          "name": "",
          "type": "bool"
        }
      ],
      "stateMutability": "nonpayable",
      "type": "function"
    }
  ],
  "bytecode": "0x608060405234801561001057600080fd5b50611428806100206000396000f3fe60806040523480156200001157600080fd5b5060043610620000a05760003560e01c80638e80bddf116200006f5780638e80bddf1462000142578063dcec81161462000159578063e2c3b0461462000185578063eb7659551462000199578063ebccb5b214620001b057620000a0565b80630168131514620000a557806319ab453c14620000db5780635bf0abbc14620000f45780635e0237ea146200011c575b600080fd5b600054620000be9061010090046001600160a01b031681565b6040516001600160a01b0390911681526020015b60405180910390f35b620000f2620000ec366004620004c3565b620001c4565b005b6200010b62000105366004620004e7565b62000205565b6040519015158152602001620000d2565b6200010b6200012d366004620004c3565b60056020526000908152604090205460ff1681565b620000be62000153366004620004c3565b620002bf565b620000be6200016a366004620004c3565b6004602052600090815260409020546001600160a01b031681565b600154620000be906001600160a01b031681565b620000be620001aa36600462000527565b6200046d565b600254620000be906001600160a01b031681565b60005460ff1615620001d557600080fd5b6000805460ff19166001179055600280546001600160a01b039092166001600160a01b0319909216919091179055565b6002546000906001600160a01b03163314620002515760405162461bcd60e51b815260206004820152600660248201526521504f4f4c5360d01b60448201526064015b60405180910390fd5b6040516340c10f1960e01b81526001600160a01b038481166004830152602482018490528516906340c10f1990604401600060405180830381600087803b1580156200029c57600080fd5b505af1158015620002b1573d6000803e3d6000fd5b506001979650505050505050565b6002546000906001600160a01b03163314620003075760405162461bcd60e51b815260206004820152600660248201526521504f4f4c5360d01b604482015260640162000248565b6001600160a01b0382811660009081526004602052604090205416156200035d5760405162461bcd60e51b815260206004820152600960248201526821b932b0ba32a2b93960b91b604482015260640162000248565b6000826040516200036e9062000498565b6001600160a01b039091168152602001604051809103906000f0801580156200039b573d6000803e3d6000fd5b5090508091506200042783836001600160a01b0391821660009081526004602090815260408083208054959094166001600160a01b031995861681179094556003805460018181019092557fc2575a0e9e593c00f959f8c92f12db2869c3395a3b0502d05e2516446f71f85b01805490961685179095559282526005905220805460ff19169091179055565b816001600160a01b0316836001600160a01b03167f43f98d8b2371b57c895f837bf56fcc83a2e97624200ff6282779f0d40411a83860405160405180910390a350919050565b600381815481106200047e57600080fd5b6000918252602090912001546001600160a01b0316905081565b610eb2806200054183390190565b80356001600160a01b0381168114620004be57600080fd5b919050565b600060208284031215620004d5578081fd5b620004e082620004a6565b9392505050565b600080600060608486031215620004fc578182fd5b6200050784620004a6565b92506200051760208501620004a6565b9150604084013590509250925092565b60006020828403121562000539578081fd5b503591905056fe60e0604052601260c0523480156200001657600080fd5b5060405162000eb238038062000eb28339810160408190526200003991620002ac565b606081811b6001600160601b03191660a05233901b60805260408051808201825260098152680405a40eca6f2dce8d60bb1b602082810191909152825180840184526002815261173b60f11b9181019190915282516306fdde0360e01b81529251919290916001600160a01b038516916306fdde03916004808301926000929190829003018186803b158015620000cf57600080fd5b505afa158015620000e4573d6000803e3d6000fd5b505050506040513d6000823e601f3d908101601f191682016040526200010e9190810190620002dc565b826040516020016200012292919062000390565b604051602081830303815290604052600090805190602001906200014892919062000206565b50826001600160a01b03166395d89b416040518163ffffffff1660e01b815260040160006040518083038186803b1580156200018357600080fd5b505afa15801562000198573d6000803e3d6000fd5b505050506040513d6000823e601f3d908101601f19168201604052620001c29190810190620002dc565b81604051602001620001d692919062000390565b60405160208183030381529060405260019080519060200190620001fc92919062000206565b5050505062000449565b8280546200021490620003f6565b90600052602060002090601f01602090048101928262000238576000855562000283565b82601f106200025357805160ff191683800117855562000283565b8280016001018555821562000283579182015b828111156200028357825182559160200191906001019062000266565b506200029192915062000295565b5090565b5b8082111562000291576000815560010162000296565b600060208284031215620002be578081fd5b81516001600160a01b0381168114620002d5578182fd5b9392505050565b600060208284031215620002ee578081fd5b81516001600160401b038082111562000305578283fd5b818401915084601f83011262000319578283fd5b8151818111156200032e576200032e62000433565b604051601f8201601f19908116603f0116810190838211818310171562000359576200035962000433565b8160405282815287602084870101111562000372578586fd5b62000385836020830160208801620003c3565b979650505050505050565b60008351620003a4818460208801620003c3565b835190830190620003ba818360208801620003c3565b01949350505050565b60005b83811015620003e0578181015183820152602001620003c6565b83811115620003f0576000848401525b50505050565b600181811c908216806200040b57607f821691505b602082108114156200042d57634e487b7160e01b600052602260045260246000fd5b50919050565b634e487b7160e01b600052604160045260246000fd5b60805160601c60a05160601c60c051610a2c6200048660003960006101bc0152600061023101526000818161017d01526103b50152610a2c6000f3fe608060405234801561001057600080fd5b50600436106100f55760003560e01c806340c10f191161009757806382bfefc81161006657806382bfefc81461022c57806395d89b4114610253578063a9059cbb1461025b578063dd62ed3e1461026e576100f5565b806340c10f19146101de57806342966c68146101f357806370a082311461020657806379cc679014610219576100f5565b806323b872dd116100d357806323b872dd146101525780632ccb1b30146101655780632dd3100014610178578063313ce567146101b7576100f5565b806306fdde03146100fa578063095ea7b31461011857806318160ddd1461013b575b600080fd5b6101026102a7565b60405161010f9190610923565b60405180910390f35b61012b6101263660046108e2565b610335565b604051901515815260200161010f565b61014460025481565b60405190815260200161010f565b61012b6101603660046108a7565b61034b565b61012b6101733660046108e2565b61039d565b61019f7f000000000000000000000000000000000000000000000000000000000000000081565b6040516001600160a01b03909116815260200161010f565b6101447f000000000000000000000000000000000000000000000000000000000000000081565b6101f16101ec3660046108e2565b6103aa565b005b6101f161020136600461090b565b6104de565b610144610214366004610854565b6104eb565b6101f16102273660046108e2565b61050a565b61019f7f000000000000000000000000000000000000000000000000000000000000000081565b610102610555565b61012b6102693660046108e2565b610562565b61014461027c366004610875565b6001600160a01b03918216600090815260046020908152604080832093909416825291909152205490565b600080546102b4906109a5565b80601f01602080910402602001604051908101604052809291908181526020018280546102e0906109a5565b801561032d5780601f106103025761010080835404028352916020019161032d565b820191906000526020600020905b81548152906001019060200180831161031057829003601f168201915b505050505081565b600061034233848461056f565b50600192915050565b6000610358848484610650565b6001600160a01b03841660009081526004602090815260408083203380855292529091205461039391869161038e90869061098e565b61056f565b5060019392505050565b6000610342328484610650565b336001600160a01b037f000000000000000000000000000000000000000000000000000000000000000016146104125760405162461bcd60e51b815260206004820152600860248201526721464143544f525960c01b60448201526064015b60405180910390fd5b6001600160a01b0382166104545760405162461bcd60e51b81526020600482015260096024820152681c9958da5c1a595b9d60ba1b6044820152606401610409565b80600260008282546104669190610976565b90915550506001600160a01b03821660009081526003602052604081208054839290610493908490610976565b90915550506040518181526001600160a01b038316906000907fddf252ad1be2c89b69c2b068fc378daa952ba7f163c4a11628f55a4df523b3ef906020015b60405180910390a35050565b6104e83382610775565b50565b6001600160a01b0381166000908152600360205260409020545b919050565b6001600160a01b038216600090815260046020908152604080832033845290915281205461053990839061098e565b905061054683338361056f565b6105508383610775565b505050565b600180546102b4906109a5565b6000610342338484610650565b6001600160a01b0383166105ae5760405162461bcd60e51b815260206004820152600660248201526539b2b73232b960d11b6044820152606401610409565b6001600160a01b0382166105ee5760405162461bcd60e51b815260206004820152600760248201526639b832b73232b960c91b6044820152606401610409565b6001600160a01b0383811660008181526004602090815260408083209487168084529482529182902085905590518481527f8c5be1e5ebec7d5bd14f71427d1e84f3dd0314c0f7b2291e5b200ac8c7c3b92591015b60405180910390a3505050565b6001600160a01b03831661068f5760405162461bcd60e51b815260206004820152600660248201526539b2b73232b960d11b6044820152606401610409565b6001600160a01b0382163014156106d45760405162461bcd60e51b81526020600482015260096024820152681c9958da5c1a595b9d60ba1b6044820152606401610409565b6001600160a01b038316600090815260036020526040812080548392906106fc90849061098e565b90915550506001600160a01b03821660009081526003602052604081208054839290610729908490610976565b92505081905550816001600160a01b0316836001600160a01b03167fddf252ad1be2c89b69c2b068fc378daa952ba7f163c4a11628f55a4df523b3ef8360405161064391815260200190565b6001600160a01b0382166107b95760405162461bcd60e51b815260206004820152600b60248201526a30b2323932b9b99032b93960a91b6044820152606401610409565b6001600160a01b038216600090815260036020526040812080548392906107e190849061098e565b9250508190555080600260008282546107fa919061098e565b90915550506040518181526000906001600160a01b038416907fddf252ad1be2c89b69c2b068fc378daa952ba7f163c4a11628f55a4df523b3ef906020016104d2565b80356001600160a01b038116811461050557600080fd5b600060208284031215610865578081fd5b61086e8261083d565b9392505050565b60008060408385031215610887578081fd5b6108908361083d565b915061089e6020840161083d565b90509250929050565b6000806000606084860312156108bb578081fd5b6108c48461083d565b92506108d26020850161083d565b9150604084013590509250925092565b600080604083850312156108f4578182fd5b6108fd8361083d565b946020939093013593505050565b60006020828403121561091c578081fd5b5035919050565b6000602080835283518082850152825b8181101561094f57858101830151858201604001528201610933565b818111156109605783604083870101525b50601f01601f1916929092016040019392505050565b60008219821115610989576109896109e0565b500190565b6000828210156109a0576109a06109e0565b500390565b600181811c908216806109b957607f821691505b602082108114156109da57634e487b7160e01b600052602260045260246000fd5b50919050565b634e487b7160e01b600052601160045260246000fdfea264697066735822122022ac11cadcc5ab06ce18eca3a14989a4622f8dd6fe8f3c5d6040a9268c6cccd164736f6c63430008030033a264697066735822122080fbcd8a6da4c99d7083030467ceed28974ecbb4aa3357e45193f377e85d2ab264736f6c63430008030033",
  "linkReferences": {},
  "deployedLinkReferences": {}
}