{
  "_format": "hh-sol-artifact-1",
  "contractName": "Vault",
  "sourceName": "contracts/Vault.sol",
  "abi": [
    {
      "inputs": [],
      "stateMutability": "nonpayable",
      "type": "constructor"
    },
    {
      "anonymous": false,
      "inputs": [
        {
          "indexed": true,
          "internalType": "address",
          "name": "member",
          "type": "address"
        },
        {
          "indexed": true,
          "internalType": "address",
          "name": "base",
          "type": "address"
        },
        {
          "indexed": false,
          "internalType": "uint256",
          "name": "baseAmount",
          "type": "uint256"
        },
        {
          "indexed": true,
          "internalType": "address",
          "name": "token",
          "type": "address"
        },
        {
          "indexed": false,
          "internalType": "uint256",
          "name": "tokenAmount",
          "type": "uint256"
        },
        {
          "indexed": false,
          "internalType": "uint256",
          "name": "liquidityUnits",
          "type": "uint256"
        }
      ],
      "name": "AddLiquidity",
      "type": "event"
    },
    {
      "anonymous": false,
      "inputs": [
        {
          "indexed": true,
          "internalType": "address",
          "name": "member",
          "type": "address"
        },
        {
          "indexed": true,
          "internalType": "address",
          "name": "base",
          "type": "address"
        },
        {
          "indexed": false,
          "internalType": "uint256",
          "name": "baseAmount",
          "type": "uint256"
        },
        {
          "indexed": true,
          "internalType": "address",
          "name": "token",
          "type": "address"
        },
        {
          "indexed": false,
          "internalType": "uint256",
          "name": "tokenAmount",
          "type": "uint256"
        },
        {
          "indexed": false,
          "internalType": "uint256",
          "name": "liquidityUnits",
          "type": "uint256"
        },
        {
          "indexed": false,
          "internalType": "uint256",
          "name": "totalUnits",
          "type": "uint256"
        }
      ],
      "name": "RemoveLiquidity",
      "type": "event"
    },
    {
      "anonymous": false,
      "inputs": [
        {
          "indexed": true,
          "internalType": "address",
          "name": "member",
          "type": "address"
        },
        {
          "indexed": true,
          "internalType": "address",
          "name": "inputToken",
          "type": "address"
        },
        {
          "indexed": false,
          "internalType": "uint256",
          "name": "inputAmount",
          "type": "uint256"
        },
        {
          "indexed": true,
          "internalType": "address",
          "name": "outputToken",
          "type": "address"
        },
        {
          "indexed": false,
          "internalType": "uint256",
          "name": "outputAmount",
          "type": "uint256"
        },
        {
          "indexed": false,
          "internalType": "uint256",
          "name": "swapFee",
          "type": "uint256"
        }
      ],
      "name": "Swap",
      "type": "event"
    },
    {
      "anonymous": false,
      "inputs": [
        {
          "indexed": true,
          "internalType": "address",
          "name": "token",
          "type": "address"
        },
        {
          "indexed": true,
          "internalType": "address",
          "name": "pool",
          "type": "address"
        },
        {
          "indexed": false,
          "internalType": "uint256",
          "name": "addedAmount",
          "type": "uint256"
        }
      ],
      "name": "Sync",
      "type": "event"
    },
    {
      "inputs": [],
      "name": "FACTORY",
      "outputs": [
        {
          "internalType": "address",
          "name": "",
          "type": "address"
        }
      ],
      "stateMutability": "view",
      "type": "function"
    },
    {
      "inputs": [],
      "name": "ROUTER",
      "outputs": [
        {
          "internalType": "address",
          "name": "",
          "type": "address"
        }
      ],
      "stateMutability": "view",
      "type": "function"
    },
    {
      "inputs": [],
      "name": "USDV",
      "outputs": [
        {
          "internalType": "address",
          "name": "",
          "type": "address"
        }
      ],
      "stateMutability": "view",
      "type": "function"
    },
    {
      "inputs": [],
      "name": "UTILS",
      "outputs": [
        {
          "internalType": "address",
          "name": "",
          "type": "address"
        }
      ],
      "stateMutability": "view",
      "type": "function"
    },
    {
      "inputs": [],
      "name": "VADER",
      "outputs": [
        {
          "internalType": "address",
          "name": "",
          "type": "address"
        }
      ],
      "stateMutability": "view",
      "type": "function"
    },
    {
      "inputs": [
        {
          "internalType": "address",
          "name": "base",
          "type": "address"
        },
        {
          "internalType": "address",
          "name": "token",
          "type": "address"
        },
        {
          "internalType": "address",
          "name": "member",
          "type": "address"
        }
      ],
      "name": "addLiquidity",
      "outputs": [
        {
          "internalType": "uint256",
          "name": "liquidityUnits",
          "type": "uint256"
        }
      ],
      "stateMutability": "nonpayable",
      "type": "function"
    },
    {
      "inputs": [
        {
          "internalType": "address",
          "name": "base",
          "type": "address"
        },
        {
          "internalType": "address",
          "name": "token",
          "type": "address"
        },
        {
          "internalType": "address",
          "name": "member",
          "type": "address"
        }
      ],
      "name": "burnSynth",
      "outputs": [
        {
          "internalType": "uint256",
          "name": "outputBase",
          "type": "uint256"
        }
      ],
      "stateMutability": "nonpayable",
      "type": "function"
    },
    {
      "inputs": [
        {
          "internalType": "address",
          "name": "token",
          "type": "address"
        }
      ],
      "name": "deploySynth",
      "outputs": [],
      "stateMutability": "nonpayable",
      "type": "function"
    },
    {
      "inputs": [
        {
          "internalType": "address",
          "name": "token",
          "type": "address"
        }
      ],
      "name": "getBaseAmount",
      "outputs": [
        {
          "internalType": "uint256",
          "name": "",
          "type": "uint256"
        }
      ],
      "stateMutability": "view",
      "type": "function"
    },
    {
      "inputs": [
        {
          "internalType": "address",
          "name": "token",
          "type": "address"
        },
        {
          "internalType": "address",
          "name": "member",
          "type": "address"
        }
      ],
      "name": "getMemberUnits",
      "outputs": [
        {
          "internalType": "uint256",
          "name": "",
          "type": "uint256"
        }
      ],
      "stateMutability": "view",
      "type": "function"
    },
    {
      "inputs": [
        {
          "internalType": "address",
          "name": "token",
          "type": "address"
        }
      ],
      "name": "getPoolAmounts",
      "outputs": [
        {
          "internalType": "uint256",
          "name": "",
          "type": "uint256"
        },
        {
          "internalType": "uint256",
          "name": "",
          "type": "uint256"
        }
      ],
      "stateMutability": "view",
      "type": "function"
    },
    {
      "inputs": [
        {
          "internalType": "address",
          "name": "token",
          "type": "address"
        }
      ],
      "name": "getSynth",
      "outputs": [
        {
          "internalType": "address",
          "name": "",
          "type": "address"
        }
      ],
      "stateMutability": "nonpayable",
      "type": "function"
    },
    {
      "inputs": [
        {
          "internalType": "address",
          "name": "token",
          "type": "address"
        }
      ],
      "name": "getTokenAmount",
      "outputs": [
        {
          "internalType": "uint256",
          "name": "",
          "type": "uint256"
        }
      ],
      "stateMutability": "view",
      "type": "function"
    },
    {
      "inputs": [
        {
          "internalType": "address",
          "name": "token",
          "type": "address"
        }
      ],
      "name": "getUnits",
      "outputs": [
        {
          "internalType": "uint256",
          "name": "",
          "type": "uint256"
        }
      ],
      "stateMutability": "view",
      "type": "function"
    },
    {
      "inputs": [
        {
          "internalType": "address",
          "name": "_vader",
          "type": "address"
        },
        {
          "internalType": "address",
          "name": "_usdv",
          "type": "address"
        },
        {
          "internalType": "address",
          "name": "_router",
          "type": "address"
        },
        {
          "internalType": "address",
          "name": "_factory",
          "type": "address"
        }
      ],
      "name": "init",
      "outputs": [],
      "stateMutability": "nonpayable",
      "type": "function"
    },
    {
      "inputs": [
        {
          "internalType": "address",
          "name": "token",
          "type": "address"
        }
      ],
      "name": "isAnchor",
      "outputs": [
        {
          "internalType": "bool",
          "name": "",
          "type": "bool"
        }
      ],
      "stateMutability": "view",
      "type": "function"
    },
    {
      "inputs": [
        {
          "internalType": "address",
          "name": "token",
          "type": "address"
        }
      ],
      "name": "isAsset",
      "outputs": [
        {
          "internalType": "bool",
          "name": "",
          "type": "bool"
        }
      ],
      "stateMutability": "view",
      "type": "function"
    },
    {
      "inputs": [
        {
          "internalType": "address",
          "name": "member",
          "type": "address"
        }
      ],
      "name": "isMember",
      "outputs": [
        {
          "internalType": "bool",
          "name": "",
          "type": "bool"
        }
      ],
      "stateMutability": "view",
      "type": "function"
    },
    {
      "inputs": [
        {
          "internalType": "address",
          "name": "token",
          "type": "address"
        }
      ],
      "name": "isSynth",
      "outputs": [
        {
          "internalType": "bool",
          "name": "",
          "type": "bool"
        }
      ],
      "stateMutability": "nonpayable",
      "type": "function"
    },
    {
      "inputs": [
        {
          "internalType": "address",
          "name": "",
          "type": "address"
        },
        {
          "internalType": "address",
          "name": "",
          "type": "address"
        }
      ],
      "name": "mapTokenMember_Units",
      "outputs": [
        {
          "internalType": "uint256",
          "name": "",
          "type": "uint256"
        }
      ],
      "stateMutability": "view",
      "type": "function"
    },
    {
      "inputs": [
        {
          "internalType": "address",
          "name": "",
          "type": "address"
        }
      ],
      "name": "mapToken_Units",
      "outputs": [
        {
          "internalType": "uint256",
          "name": "",
          "type": "uint256"
        }
      ],
      "stateMutability": "view",
      "type": "function"
    },
    {
      "inputs": [
        {
          "internalType": "address",
          "name": "",
          "type": "address"
        }
      ],
      "name": "mapToken_baseAmount",
      "outputs": [
        {
          "internalType": "uint256",
          "name": "",
          "type": "uint256"
        }
      ],
      "stateMutability": "view",
      "type": "function"
    },
    {
      "inputs": [
        {
          "internalType": "address",
          "name": "",
          "type": "address"
        }
      ],
      "name": "mapToken_tokenAmount",
      "outputs": [
        {
          "internalType": "uint256",
          "name": "",
          "type": "uint256"
        }
      ],
      "stateMutability": "view",
      "type": "function"
    },
    {
      "inputs": [
        {
          "internalType": "address",
          "name": "base",
          "type": "address"
        },
        {
          "internalType": "address",
          "name": "token",
          "type": "address"
        },
        {
          "internalType": "address",
          "name": "member",
          "type": "address"
        }
      ],
      "name": "mintSynth",
      "outputs": [
        {
          "internalType": "uint256",
          "name": "outputAmount",
          "type": "uint256"
        }
      ],
      "stateMutability": "nonpayable",
      "type": "function"
    },
    {
      "inputs": [],
      "name": "pooledUSDV",
      "outputs": [
        {
          "internalType": "uint256",
          "name": "",
          "type": "uint256"
        }
      ],
      "stateMutability": "view",
      "type": "function"
    },
    {
      "inputs": [],
      "name": "pooledVADER",
      "outputs": [
        {
          "internalType": "uint256",
          "name": "",
          "type": "uint256"
        }
      ],
      "stateMutability": "view",
      "type": "function"
    },
    {
      "inputs": [
        {
          "internalType": "address",
          "name": "base",
          "type": "address"
        },
        {
          "internalType": "address",
          "name": "token",
          "type": "address"
        },
        {
          "internalType": "uint256",
          "name": "basisPoints",
          "type": "uint256"
        }
      ],
      "name": "removeLiquidity",
      "outputs": [
        {
          "internalType": "uint256",
          "name": "outputBase",
          "type": "uint256"
        },
        {
          "internalType": "uint256",
          "name": "outputToken",
          "type": "uint256"
        }
      ],
      "stateMutability": "nonpayable",
      "type": "function"
    },
    {
      "inputs": [
        {
          "internalType": "address",
          "name": "base",
          "type": "address"
        },
        {
          "internalType": "address",
          "name": "token",
          "type": "address"
        },
        {
          "internalType": "uint256",
          "name": "basisPoints",
          "type": "uint256"
        }
      ],
      "name": "removeLiquidityDirectly",
      "outputs": [
        {
          "internalType": "uint256",
          "name": "outputBase",
          "type": "uint256"
        },
        {
          "internalType": "uint256",
          "name": "outputToken",
          "type": "uint256"
        }
      ],
      "stateMutability": "nonpayable",
      "type": "function"
    },
    {
      "inputs": [
        {
          "internalType": "address",
          "name": "base",
          "type": "address"
        },
        {
          "internalType": "address",
          "name": "token",
          "type": "address"
        },
        {
          "internalType": "address",
          "name": "member",
          "type": "address"
        },
        {
          "internalType": "bool",
          "name": "toBase",
          "type": "bool"
        }
      ],
      "name": "swap",
      "outputs": [
        {
          "internalType": "uint256",
          "name": "outputAmount",
          "type": "uint256"
        }
      ],
      "stateMutability": "nonpayable",
      "type": "function"
    },
    {
      "inputs": [
        {
          "internalType": "address",
          "name": "token",
          "type": "address"
        },
        {
          "internalType": "address",
          "name": "pool",
          "type": "address"
        }
      ],
      "name": "sync",
      "outputs": [],
      "stateMutability": "nonpayable",
      "type": "function"
    }
  ],
  "bytecode": "0x608060405234801561001057600080fd5b506122a7806100206000396000f3fe608060405234801561001057600080fd5b50600436106101da5760003560e01c8063a230c52411610104578063d8cced2a116100a2578063e3adb2f611610071578063e3adb2f6146104d9578063e6ae1a97146104ec578063efc34aab14610515578063fde3b26514610528576101da565b8063d8cced2a1461047e578063dcec8116146104aa578063dd5a2bd8146104bd578063e2c3b046146104c6576101da565b8063c87fa42a116100de578063c87fa42a1461040c578063c8aacdda14610438578063d016347e14610458578063d752fab21461046b576101da565b8063a230c524146103ae578063a9652dca146103da578063b34c8afb146103e3576101da565b806340ace4341161017c5780637b0e5c451161014b5780637b0e5c45146103325780638e80bddf1461033a5780638ebc9f921461034d578063903443b914610378576101da565b806340ace434146102a75780635e0237ea146102cf57806368866418146102f257806375d55e4714610312576101da565b806324ef3750116101b857806324ef37501461025b5780632dd310001461026e5780633041949b1461028157806332fe7b2614610294576101da565b806301681315146101df57806306552ff31461020f5780630fefbc0914610224575b600080fd5b6003546101f2906001600160a01b031681565b6040516001600160a01b0390911681526020015b60405180910390f35b61022261021d3660046120e7565b61053b565b005b61024d61023236600461202d565b6001600160a01b03166000908152600a602052604090205490565b604051908152602001610206565b61024d610269366004612065565b6105a8565b6006546101f2906001600160a01b031681565b61022261028f366004612065565b6105d5565b6005546101f2906001600160a01b031681565b6102ba6102b5366004612192565b6106c5565b60408051928352602083019190915201610206565b6102e26102dd36600461202d565b6106e0565b6040519015158152602001610206565b61024d61030036600461202d565b600d6020526000908152604090205481565b61024d61032036600461202d565b600c6020526000908152604090205481565b6101f2610760565b61022261034836600461202d565b6107e2565b61024d61035b366004612065565b600b60209081526000928352604080842090915290825290205481565b6102ba61038636600461202d565b6001600160a01b03166000908152600c6020908152604080832054600d909252909120549091565b6102e26103bc36600461202d565b6001600160a01b031660009081526007602052604090205460ff1690565b61024d60025481565b61024d6103f136600461202d565b6001600160a01b03166000908152600c602052604090205490565b6102e261041a36600461202d565b6001600160a01b031660009081526008602052604090205460ff1690565b61024d61044636600461202d565b600a6020526000908152604090205481565b61024d61046636600461209d565b610899565b6102ba610479366004612192565b610c6d565b6102e261048c36600461202d565b6001600160a01b031660009081526009602052604090205460ff1690565b6101f26104b836600461202d565b610c7c565b61024d60015481565b6004546101f2906001600160a01b031681565b61024d6104e736600461209d565b610cfc565b61024d6104fa36600461202d565b6001600160a01b03166000908152600d602052604090205490565b61024d610523366004612142565b6110e4565b61024d61053636600461209d565b611556565b60005460ff161561054b57600080fd5b6000805460ff19166001179055600380546001600160a01b039586166001600160a01b0319918216179091556004805494861694821694909417909355600580549285169284169290921790915560068054919093169116179055565b6001600160a01b038083166000908152600b60209081526040808320938516835292905220545b92915050565b60006105e18383611856565b6003549091506001600160a01b038481169116148061060d57506004546001600160a01b038481169116145b15610645576001600160a01b0382166000908152600c60205260408120805483929061063a908490612206565b909155506106739050565b6001600160a01b0382166000908152600d60205260408120805483929061066d908490612206565b90915550505b816001600160a01b0316836001600160a01b03167f54b91069ea413a6fbb322ced87280c75ca620bffe62d35cf33b0336f23e9238b836040516106b891815260200190565b60405180910390a3505050565b6000806106d485858533611ad3565b91509150935093915050565b600654604051632f011bf560e11b81526001600160a01b0383811660048301526000921690635e0237ea90602401602060405180830381600087803b15801561072857600080fd5b505af115801561073c573d6000803e3d6000fd5b505050506040513d601f19601f820116820180604052508101906105cf91906121d2565b60035460408051637b0e5c4560e01b815290516000926001600160a01b031691637b0e5c45916004808301926020929190829003018186803b1580156107a557600080fd5b505afa1580156107b9573d6000803e3d6000fd5b505050506040513d601f19601f820116820180604052508101906107dd9190612049565b905090565b6003546001600160a01b03828116911614158061080d57506004546001600160a01b03828116911614155b61081657600080fd5b600654604051638e80bddf60e01b81526001600160a01b03838116600483015290911690638e80bddf90602401602060405180830381600087803b15801561085d57600080fd5b505af1158015610871573d6000803e3d6000fd5b505050506040513d601f19601f820116820180604052508101906108959190612049565b5050565b6006546000906001600160a01b0316635e0237ea6108b685610c7c565b6040516001600160e01b031960e084901b1681526001600160a01b039091166004820152602401602060405180830381600087803b1580156108f757600080fd5b505af115801561090b573d6000803e3d6000fd5b505050506040513d601f19601f8201168201806040525081019061092f91906121d2565b6109685760405162461bcd60e51b8152602060048201526006602482015265042e6f2dce8d60d31b604482015260640160405180910390fd5b60006109748585611856565b90506000610980610760565b6001600160a01b038681166000908152600c6020908152604080832054600a9092529182902054915163ec1753f160e01b8152600481018790526024810191909152604481019190915291169063ec1753f19060640160206040518083038186803b1580156109ee57600080fd5b505afa158015610a02573d6000803e3d6000fd5b505050506040513d601f19601f82011682018060405250810190610a2691906121ee565b9050610a30610760565b6001600160a01b038681166000908152600c6020908152604080832054600d9092529182902054915163701baaf360e01b8152600481018790526024810191909152604481019190915291169063701baaf39060640160206040518083038186803b158015610a9e57600080fd5b505afa158015610ab2573d6000803e3d6000fd5b505050506040513d601f19601f82011682018060405250810190610ad691906121ee565b6001600160a01b0386166000908152600b60209081526040808320308452909152812080549295508392909190610b0e908490612206565b90915550506001600160a01b0385166000908152600a602052604081208054839290610b3b908490612206565b90915550506001600160a01b0385166000908152600c602052604081208054849290610b68908490612206565b909155505060408051838152600060208201529081018290526001600160a01b0380871691888216918716907fcfc390ea13b09661b205e48ee692d38f6798b0e0992a868008f841929b0e03d29060600160405180910390a46006546001600160a01b0316635bf0abbc610bdb87610c7c565b6040516001600160e01b031960e084901b1681526001600160a01b039182166004820152908716602482015260448101869052606401602060405180830381600087803b158015610c2b57600080fd5b505af1158015610c3f573d6000803e3d6000fd5b505050506040513d601f19601f82011682018060405250810190610c6391906121d2565b5050509392505050565b6000806106d485858532611ad3565b600654604051636e76408b60e11b81526001600160a01b038381166004830152600092169063dcec811690602401602060405180830381600087803b158015610cc457600080fd5b505af1158015610cd8573d6000803e3d6000fd5b505050506040513d601f19601f820116820180604052508101906105cf9190612049565b600080610d0884610c7c565b6040516370a0823160e01b81523060048201526001600160a01b0391909116906370a082319060240160206040518083038186803b158015610d4957600080fd5b505afa158015610d5d573d6000803e3d6000fd5b505050506040513d601f19601f82011682018060405250810190610d8191906121ee565b90506000610d8d610760565b6001600160a01b0316631ba326c483610da588610c7c565b6001600160a01b03166318160ddd6040518163ffffffff1660e01b815260040160206040518083038186803b158015610ddd57600080fd5b505afa158015610df1573d6000803e3d6000fd5b505050506040513d601f19601f82011682018060405250810190610e1591906121ee565b6001600160a01b0389166000908152600b602090815260408083203084529091529081902054905160e085901b6001600160e01b031916815260048101939093526024830191909152604482015260640160206040518083038186803b158015610e7e57600080fd5b505afa158015610e92573d6000803e3d6000fd5b505050506040513d601f19601f82011682018060405250810190610eb691906121ee565b9050610ec185610c7c565b6001600160a01b03166342966c68836040518263ffffffff1660e01b8152600401610eee91815260200190565b600060405180830381600087803b158015610f0857600080fd5b505af1158015610f1c573d6000803e3d6000fd5b505050506001600160a01b0385166000908152600b6020908152604080832030845290915281208054839290610f5390849061221e565b90915550506001600160a01b0385166000908152600a602052604081208054839290610f8090849061221e565b90915550610f8e9050610760565b6001600160a01b038681166000908152600d6020908152604080832054600c9092529182902054915163701baaf360e01b8152600481018790526024810191909152604481019190915291169063701baaf39060640160206040518083038186803b158015610ffc57600080fd5b505afa158015611010573d6000803e3d6000fd5b505050506040513d601f19601f8201168201806040525081019061103491906121ee565b6001600160a01b038681166000818152600a60209081526040808320548151878152928301939093528101869052606081019190915292955091888216918716907f58b1ebcf7a8520d435f8b5e4e52c11f3ecb57c52621aee99365d810c2e53bdf39060800160405180910390a46001600160a01b0385166000908152600c6020526040812080548592906110ca90849061221e565b909155506110db9050868486611e67565b50509392505050565b6000811561131f5760006110f88586611856565b9050611102610760565b6001600160a01b038681166000908152600d6020908152604080832054600c9092529182902054915163701baaf360e01b8152600481018690526024810191909152604481019190915291169063701baaf39060640160206040518083038186803b15801561117057600080fd5b505afa158015611184573d6000803e3d6000fd5b505050506040513d601f19601f820116820180604052508101906111a891906121ee565b915060006111b4610760565b6001600160a01b038781166000908152600d6020908152604080832054600c9092529182902054915163225a9c2360e21b8152600481018790526024810191909152604481019190915291169063896a708c9060640160206040518083038186803b15801561122257600080fd5b505afa158015611236573d6000803e3d6000fd5b505050506040513d601f19601f8201168201806040525081019061125a91906121ee565b6001600160a01b0387166000908152600d6020526040812080549293508492909190611287908490612206565b90915550506001600160a01b0386166000908152600c6020526040812080548592906112b490849061221e565b909155505060408051838152602081018590529081018290526001600160a01b0380891691888216918816907f51e00ff851e6d19ee3412286211af0aa9676df8d942e677195fc7445b4c08e309060600160405180910390a4611318878487611e67565b505061154e565b600061132b8686611856565b9050611335610760565b6001600160a01b038681166000908152600c6020908152604080832054600d9092529182902054915163701baaf360e01b8152600481018690526024810191909152604481019190915291169063701baaf39060640160206040518083038186803b1580156113a357600080fd5b505afa1580156113b7573d6000803e3d6000fd5b505050506040513d601f19601f820116820180604052508101906113db91906121ee565b915060006113e7610760565b6001600160a01b038781166000908152600c6020908152604080832054600d9092529182902054915163225a9c2360e21b8152600481018790526024810191909152604481019190915291169063896a708c9060640160206040518083038186803b15801561145557600080fd5b505afa158015611469573d6000803e3d6000fd5b505050506040513d601f19601f8201168201806040525081019061148d91906121ee565b6001600160a01b0387166000908152600c60205260408120805492935084929091906114ba908490612206565b90915550506001600160a01b0386166000908152600d6020526040812080548592906114e790849061221e565b909155505060408051838152602081018590529081018290526001600160a01b0380881691898216918816907f51e00ff851e6d19ee3412286211af0aa9676df8d942e677195fc7445b4c08e309060600160405180910390a461154b868487611e67565b50505b949350505050565b6004546000906001600160a01b038481169116141561157457600080fd5b6003546000906001600160a01b03868116911614156115ee576001600160a01b03841660009081526009602052604090205460ff166115d1576001600160a01b0384166000908152600960205260409020805460ff191660011790555b6003546115e7906001600160a01b031685611856565b9050611661565b6004546001600160a01b0386811691161415611661576001600160a01b03841660009081526008602052604090205460ff16611648576001600160a01b0384166000908152600860205260409020805460ff191660011790555b60045461165e906001600160a01b031685611856565b90505b600061166d8586611856565b9050611677610760565b6001600160a01b038681166000908152600c6020908152604080832054600d835281842054600a9093529281902054905163c5c11ee960e01b8152600481018890526024810193909352604483018690526064830191909152608482015291169063c5c11ee99060a40160206040518083038186803b1580156116f957600080fd5b505afa15801561170d573d6000803e3d6000fd5b505050506040513d601f19601f8201168201806040525081019061173191906121ee565b6001600160a01b038087166000908152600b6020908152604080832093891683529290529081208054929550859290919061176d908490612206565b90915550506001600160a01b0385166000908152600a60205260408120805485929061179a908490612206565b90915550506001600160a01b0385166000908152600c6020526040812080548492906117c7908490612206565b90915550506001600160a01b0385166000908152600d6020526040812080548392906117f4908490612206565b909155505060408051838152602081018390529081018490526001600160a01b0380871691888216918716907fcfc390ea13b09661b205e48ee692d38f6798b0e0992a868008f841929b0e03d29060600160405180910390a450509392505050565b6003546000906001600160a01b03848116911614801561188357506003546001600160a01b038381169116145b15611925576001546040516370a0823160e01b81523060048201526001600160a01b038516906370a08231906024015b60206040518083038186803b1580156118cb57600080fd5b505afa1580156118df573d6000803e3d6000fd5b505050506040513d601f19601f8201168201806040525081019061190391906121ee565b61190d919061221e565b90508060015461191d9190612206565b6001556105cf565b6003546001600160a01b03848116911614801561195057506003546001600160a01b03838116911614155b15611984576001546040516370a0823160e01b81523060048201526001600160a01b038516906370a08231906024016118b3565b6004546001600160a01b0384811691161415611a36576002546040516370a0823160e01b81523060048201526001600160a01b038516906370a082319060240160206040518083038186803b1580156119dc57600080fd5b505afa1580156119f0573d6000803e3d6000fd5b505050506040513d601f19601f82011682018060405250810190611a1491906121ee565b611a1e919061221e565b905080600254611a2e9190612206565b6002556105cf565b6001600160a01b038281166000908152600d6020526040908190205490516370a0823160e01b815230600482015290918516906370a082319060240160206040518083038186803b158015611a8a57600080fd5b505afa158015611a9e573d6000803e3d6000fd5b505050506040513d601f19601f82011682018060405250810190611ac291906121ee565b611acc919061221e565b9392505050565b60045460009081906001600160a01b0387811691161480611b0157506003546001600160a01b038781169116145b611b0a57600080fd5b6000611b14610760565b6001600160a01b038781166000908152600b6020908152604080832089851684529091529081902054905163714270ab60e01b815260048101899052602481019190915291169063714270ab9060440160206040518083038186803b158015611b7c57600080fd5b505afa158015611b90573d6000803e3d6000fd5b505050506040513d601f19601f82011682018060405250810190611bb491906121ee565b9050611bbe610760565b6001600160a01b038781166000908152600a6020908152604080832054600c909252918290205491516306e8c9b160e21b81526004810186905260248101919091526044810191909152911690631ba326c49060640160206040518083038186803b158015611c2c57600080fd5b505afa158015611c40573d6000803e3d6000fd5b505050506040513d601f19601f82011682018060405250810190611c6491906121ee565b9250611c6e610760565b6001600160a01b038781166000908152600a6020908152604080832054600d909252918290205491516306e8c9b160e21b81526004810186905260248101919091526044810191909152911690631ba326c49060640160206040518083038186803b158015611cdc57600080fd5b505afa158015611cf0573d6000803e3d6000fd5b505050506040513d601f19601f82011682018060405250810190611d1491906121ee565b6001600160a01b0387166000908152600a6020526040812080549294508392909190611d4190849061221e565b90915550506001600160a01b038087166000908152600b6020908152604080832093881683529290529081208054839290611d7d90849061221e565b90915550506001600160a01b0386166000908152600c602052604081208054859290611daa90849061221e565b90915550506001600160a01b0386166000908152600d602052604081208054849290611dd790849061221e565b90915550506001600160a01b038681166000818152600a60209081526040918290205482518881529182018790528183018690526060820152905191928a811692908816917f58b1ebcf7a8520d435f8b5e4e52c11f3ecb57c52621aee99365d810c2e53bdf3919081900360800190a4611e52878486611e67565b611e5d868386611e67565b5094509492505050565b6003546001600160a01b0384811691161415611f285781600154611e8b919061221e565b6001556001600160a01b0381163014611f235760405163a9059cbb60e01b81526001600160a01b0382811660048301526024820184905284169063a9059cbb906044015b602060405180830381600087803b158015611ee957600080fd5b505af1158015611efd573d6000803e3d6000fd5b505050506040513d601f19601f82011682018060405250810190611f2191906121d2565b505b612028565b6004546001600160a01b0384811691161415611f945781600254611f4c919061221e565b6002556001600160a01b0381163014611f235760405163a9059cbb60e01b81526001600160a01b0382811660048301526024820184905284169063a9059cbb90604401611ecf565b6001600160a01b03811630146120285760405163a9059cbb60e01b81526001600160a01b0382811660048301526024820184905284169063a9059cbb90604401602060405180830381600087803b158015611fee57600080fd5b505af1158015612002573d6000803e3d6000fd5b505050506040513d601f19601f8201168201806040525081019061202691906121d2565b505b505050565b60006020828403121561203e578081fd5b8135611acc8161224b565b60006020828403121561205a578081fd5b8151611acc8161224b565b60008060408385031215612077578081fd5b82356120828161224b565b915060208301356120928161224b565b809150509250929050565b6000806000606084860312156120b1578081fd5b83356120bc8161224b565b925060208401356120cc8161224b565b915060408401356120dc8161224b565b809150509250925092565b600080600080608085870312156120fc578081fd5b84356121078161224b565b935060208501356121178161224b565b925060408501356121278161224b565b915060608501356121378161224b565b939692955090935050565b60008060008060808587031215612157578384fd5b84356121628161224b565b935060208501356121728161224b565b925060408501356121828161224b565b9150606085013561213781612263565b6000806000606084860312156121a6578283fd5b83356121b18161224b565b925060208401356121c18161224b565b929592945050506040919091013590565b6000602082840312156121e3578081fd5b8151611acc81612263565b6000602082840312156121ff578081fd5b5051919050565b6000821982111561221957612219612235565b500190565b60008282101561223057612230612235565b500390565b634e487b7160e01b600052601160045260246000fd5b6001600160a01b038116811461226057600080fd5b50565b801515811461226057600080fdfea2646970667358221220b0f7efd4b95383e4a0bd5856522056a64a1c5537e26afca9f69cd221e4affdef64736f6c63430008030033",
  "linkReferences": {},
  "deployedLinkReferences": {}
}