{
  "_format": "hh-sol-artifact-1",
  "contractName": "Vault",
  "sourceName": "contracts/Vault.sol",
  "abi": [
    {
      "inputs": [],
      "stateMutability": "nonpayable",
      "type": "constructor"
    },
    {
      "anonymous": false,
      "inputs": [
        {
          "indexed": true,
          "internalType": "address",
          "name": "member",
          "type": "address"
        },
        {
          "indexed": true,
          "internalType": "address",
          "name": "base",
          "type": "address"
        },
        {
          "indexed": false,
          "internalType": "uint256",
          "name": "baseAmount",
          "type": "uint256"
        },
        {
          "indexed": true,
          "internalType": "address",
          "name": "token",
          "type": "address"
        },
        {
          "indexed": false,
          "internalType": "uint256",
          "name": "tokenAmount",
          "type": "uint256"
        },
        {
          "indexed": false,
          "internalType": "uint256",
          "name": "liquidityUnits",
          "type": "uint256"
        }
      ],
      "name": "AddLiquidity",
      "type": "event"
    },
    {
      "anonymous": false,
      "inputs": [
        {
          "indexed": true,
          "internalType": "address",
          "name": "member",
          "type": "address"
        },
        {
          "indexed": true,
          "internalType": "address",
          "name": "base",
          "type": "address"
        },
        {
          "indexed": false,
          "internalType": "uint256",
          "name": "baseAmount",
          "type": "uint256"
        },
        {
          "indexed": true,
          "internalType": "address",
          "name": "token",
          "type": "address"
        },
        {
          "indexed": false,
          "internalType": "uint256",
          "name": "tokenAmount",
          "type": "uint256"
        },
        {
          "indexed": false,
          "internalType": "uint256",
          "name": "liquidityUnits",
          "type": "uint256"
        },
        {
          "indexed": false,
          "internalType": "uint256",
          "name": "totalUnits",
          "type": "uint256"
        }
      ],
      "name": "RemoveLiquidity",
      "type": "event"
    },
    {
      "anonymous": false,
      "inputs": [
        {
          "indexed": true,
          "internalType": "address",
          "name": "member",
          "type": "address"
        },
        {
          "indexed": true,
          "internalType": "address",
          "name": "inputToken",
          "type": "address"
        },
        {
          "indexed": false,
          "internalType": "uint256",
          "name": "inputAmount",
          "type": "uint256"
        },
        {
          "indexed": true,
          "internalType": "address",
          "name": "outputToken",
          "type": "address"
        },
        {
          "indexed": false,
          "internalType": "uint256",
          "name": "outputAmount",
          "type": "uint256"
        },
        {
          "indexed": false,
          "internalType": "uint256",
          "name": "swapFee",
          "type": "uint256"
        }
      ],
      "name": "Swap",
      "type": "event"
    },
    {
      "anonymous": false,
      "inputs": [
        {
          "indexed": true,
          "internalType": "address",
          "name": "token",
          "type": "address"
        },
        {
          "indexed": true,
          "internalType": "address",
          "name": "pool",
          "type": "address"
        },
        {
          "indexed": false,
          "internalType": "uint256",
          "name": "addedAmount",
          "type": "uint256"
        }
      ],
      "name": "Sync",
      "type": "event"
    },
    {
      "inputs": [],
      "name": "FACTORY",
      "outputs": [
        {
          "internalType": "address",
          "name": "",
          "type": "address"
        }
      ],
      "stateMutability": "view",
      "type": "function"
    },
    {
      "inputs": [],
      "name": "ROUTER",
      "outputs": [
        {
          "internalType": "address",
          "name": "",
          "type": "address"
        }
      ],
      "stateMutability": "view",
      "type": "function"
    },
    {
      "inputs": [],
      "name": "USDV",
      "outputs": [
        {
          "internalType": "address",
          "name": "",
          "type": "address"
        }
      ],
      "stateMutability": "view",
      "type": "function"
    },
    {
      "inputs": [],
      "name": "UTILS",
      "outputs": [
        {
          "internalType": "address",
          "name": "",
          "type": "address"
        }
      ],
      "stateMutability": "view",
      "type": "function"
    },
    {
      "inputs": [],
      "name": "VADER",
      "outputs": [
        {
          "internalType": "address",
          "name": "",
          "type": "address"
        }
      ],
      "stateMutability": "view",
      "type": "function"
    },
    {
      "inputs": [
        {
          "internalType": "address",
          "name": "base",
          "type": "address"
        },
        {
          "internalType": "address",
          "name": "token",
          "type": "address"
        },
        {
          "internalType": "address",
          "name": "member",
          "type": "address"
        }
      ],
      "name": "addLiquidity",
      "outputs": [
        {
          "internalType": "uint256",
          "name": "liquidityUnits",
          "type": "uint256"
        }
      ],
      "stateMutability": "nonpayable",
      "type": "function"
    },
    {
      "inputs": [
        {
          "internalType": "address",
          "name": "base",
          "type": "address"
        },
        {
          "internalType": "address",
          "name": "token",
          "type": "address"
        },
        {
          "internalType": "address",
          "name": "member",
          "type": "address"
        }
      ],
      "name": "burnSynth",
      "outputs": [
        {
          "internalType": "uint256",
          "name": "outputBase",
          "type": "uint256"
        }
      ],
      "stateMutability": "nonpayable",
      "type": "function"
    },
    {
      "inputs": [
        {
          "internalType": "address",
          "name": "token",
          "type": "address"
        }
      ],
      "name": "deploySynth",
      "outputs": [],
      "stateMutability": "nonpayable",
      "type": "function"
    },
    {
      "inputs": [
        {
          "internalType": "address",
          "name": "token",
          "type": "address"
        }
      ],
      "name": "getBaseAmount",
      "outputs": [
        {
          "internalType": "uint256",
          "name": "",
          "type": "uint256"
        }
      ],
      "stateMutability": "view",
      "type": "function"
    },
    {
      "inputs": [
        {
          "internalType": "address",
          "name": "token",
          "type": "address"
        },
        {
          "internalType": "address",
          "name": "member",
          "type": "address"
        }
      ],
      "name": "getMemberUnits",
      "outputs": [
        {
          "internalType": "uint256",
          "name": "",
          "type": "uint256"
        }
      ],
      "stateMutability": "view",
      "type": "function"
    },
    {
      "inputs": [
        {
          "internalType": "address",
          "name": "token",
          "type": "address"
        }
      ],
      "name": "getPoolAmounts",
      "outputs": [
        {
          "internalType": "uint256",
          "name": "",
          "type": "uint256"
        },
        {
          "internalType": "uint256",
          "name": "",
          "type": "uint256"
        }
      ],
      "stateMutability": "view",
      "type": "function"
    },
    {
      "inputs": [
        {
          "internalType": "address",
          "name": "token",
          "type": "address"
        }
      ],
      "name": "getSynth",
      "outputs": [
        {
          "internalType": "address",
          "name": "",
          "type": "address"
        }
      ],
      "stateMutability": "nonpayable",
      "type": "function"
    },
    {
      "inputs": [
        {
          "internalType": "address",
          "name": "token",
          "type": "address"
        }
      ],
      "name": "getTokenAmount",
      "outputs": [
        {
          "internalType": "uint256",
          "name": "",
          "type": "uint256"
        }
      ],
      "stateMutability": "view",
      "type": "function"
    },
    {
      "inputs": [
        {
          "internalType": "address",
          "name": "token",
          "type": "address"
        }
      ],
      "name": "getUnits",
      "outputs": [
        {
          "internalType": "uint256",
          "name": "",
          "type": "uint256"
        }
      ],
      "stateMutability": "view",
      "type": "function"
    },
    {
      "inputs": [
        {
          "internalType": "address",
          "name": "_vader",
          "type": "address"
        },
        {
          "internalType": "address",
          "name": "_usdv",
          "type": "address"
        },
        {
          "internalType": "address",
          "name": "_router",
          "type": "address"
        },
        {
          "internalType": "address",
          "name": "_factory",
          "type": "address"
        }
      ],
      "name": "init",
      "outputs": [],
      "stateMutability": "nonpayable",
      "type": "function"
    },
    {
      "inputs": [
        {
          "internalType": "address",
          "name": "token",
          "type": "address"
        }
      ],
      "name": "isAnchor",
      "outputs": [
        {
          "internalType": "bool",
          "name": "",
          "type": "bool"
        }
      ],
      "stateMutability": "view",
      "type": "function"
    },
    {
      "inputs": [
        {
          "internalType": "address",
          "name": "token",
          "type": "address"
        }
      ],
      "name": "isAsset",
      "outputs": [
        {
          "internalType": "bool",
          "name": "",
          "type": "bool"
        }
      ],
      "stateMutability": "view",
      "type": "function"
    },
    {
      "inputs": [
        {
          "internalType": "address",
          "name": "member",
          "type": "address"
        }
      ],
      "name": "isMember",
      "outputs": [
        {
          "internalType": "bool",
          "name": "",
          "type": "bool"
        }
      ],
      "stateMutability": "view",
      "type": "function"
    },
    {
      "inputs": [
        {
          "internalType": "address",
          "name": "token",
          "type": "address"
        }
      ],
      "name": "isSynth",
      "outputs": [
        {
          "internalType": "bool",
          "name": "",
          "type": "bool"
        }
      ],
      "stateMutability": "nonpayable",
      "type": "function"
    },
    {
      "inputs": [
        {
          "internalType": "address",
          "name": "",
          "type": "address"
        },
        {
          "internalType": "address",
          "name": "",
          "type": "address"
        }
      ],
      "name": "mapTokenMember_Units",
      "outputs": [
        {
          "internalType": "uint256",
          "name": "",
          "type": "uint256"
        }
      ],
      "stateMutability": "view",
      "type": "function"
    },
    {
      "inputs": [
        {
          "internalType": "address",
          "name": "",
          "type": "address"
        }
      ],
      "name": "mapToken_Units",
      "outputs": [
        {
          "internalType": "uint256",
          "name": "",
          "type": "uint256"
        }
      ],
      "stateMutability": "view",
      "type": "function"
    },
    {
      "inputs": [
        {
          "internalType": "address",
          "name": "",
          "type": "address"
        }
      ],
      "name": "mapToken_baseAmount",
      "outputs": [
        {
          "internalType": "uint256",
          "name": "",
          "type": "uint256"
        }
      ],
      "stateMutability": "view",
      "type": "function"
    },
    {
      "inputs": [
        {
          "internalType": "address",
          "name": "",
          "type": "address"
        }
      ],
      "name": "mapToken_tokenAmount",
      "outputs": [
        {
          "internalType": "uint256",
          "name": "",
          "type": "uint256"
        }
      ],
      "stateMutability": "view",
      "type": "function"
    },
    {
      "inputs": [
        {
          "internalType": "address",
          "name": "base",
          "type": "address"
        },
        {
          "internalType": "address",
          "name": "token",
          "type": "address"
        },
        {
          "internalType": "address",
          "name": "member",
          "type": "address"
        }
      ],
      "name": "mintSynth",
      "outputs": [
        {
          "internalType": "uint256",
          "name": "outputAmount",
          "type": "uint256"
        }
      ],
      "stateMutability": "nonpayable",
      "type": "function"
    },
    {
      "inputs": [],
      "name": "pooledUSDV",
      "outputs": [
        {
          "internalType": "uint256",
          "name": "",
          "type": "uint256"
        }
      ],
      "stateMutability": "view",
      "type": "function"
    },
    {
      "inputs": [],
      "name": "pooledVADER",
      "outputs": [
        {
          "internalType": "uint256",
          "name": "",
          "type": "uint256"
        }
      ],
      "stateMutability": "view",
      "type": "function"
    },
    {
      "inputs": [
        {
          "internalType": "address",
          "name": "base",
          "type": "address"
        },
        {
          "internalType": "address",
          "name": "token",
          "type": "address"
        },
        {
          "internalType": "uint256",
          "name": "basisPoints",
          "type": "uint256"
        }
      ],
      "name": "removeLiquidity",
      "outputs": [
        {
          "internalType": "uint256",
          "name": "outputBase",
          "type": "uint256"
        },
        {
          "internalType": "uint256",
          "name": "outputToken",
          "type": "uint256"
        }
      ],
      "stateMutability": "nonpayable",
      "type": "function"
    },
    {
      "inputs": [
        {
          "internalType": "address",
          "name": "base",
          "type": "address"
        },
        {
          "internalType": "address",
          "name": "token",
          "type": "address"
        },
        {
          "internalType": "uint256",
          "name": "basisPoints",
          "type": "uint256"
        }
      ],
      "name": "removeLiquidityDirectly",
      "outputs": [
        {
          "internalType": "uint256",
          "name": "outputBase",
          "type": "uint256"
        },
        {
          "internalType": "uint256",
          "name": "outputToken",
          "type": "uint256"
        }
      ],
      "stateMutability": "nonpayable",
      "type": "function"
    },
    {
      "inputs": [
        {
          "internalType": "address",
          "name": "base",
          "type": "address"
        },
        {
          "internalType": "address",
          "name": "token",
          "type": "address"
        },
        {
          "internalType": "address",
          "name": "member",
          "type": "address"
        },
        {
          "internalType": "bool",
          "name": "toBase",
          "type": "bool"
        }
      ],
      "name": "swap",
      "outputs": [
        {
          "internalType": "uint256",
          "name": "outputAmount",
          "type": "uint256"
        }
      ],
      "stateMutability": "nonpayable",
      "type": "function"
    },
    {
      "inputs": [
        {
          "internalType": "address",
          "name": "token",
          "type": "address"
        },
        {
          "internalType": "address",
          "name": "pool",
          "type": "address"
        }
      ],
      "name": "sync",
      "outputs": [],
      "stateMutability": "nonpayable",
      "type": "function"
    }
  ],
  "bytecode": "0x608060405234801561001057600080fd5b50612277806100206000396000f3fe608060405234801561001057600080fd5b50600436106101da5760003560e01c8063a230c52411610104578063d8cced2a116100a2578063e3adb2f611610071578063e3adb2f6146104d9578063e6ae1a97146104ec578063efc34aab14610515578063fde3b26514610528576101da565b8063d8cced2a1461047e578063dcec8116146104aa578063dd5a2bd8146104bd578063e2c3b046146104c6576101da565b8063c87fa42a116100de578063c87fa42a1461040c578063c8aacdda14610438578063d016347e14610458578063d752fab21461046b576101da565b8063a230c524146103ae578063a9652dca146103da578063b34c8afb146103e3576101da565b806340ace4341161017c5780637b0e5c451161014b5780637b0e5c45146103325780638e80bddf1461033a5780638ebc9f921461034d578063903443b914610378576101da565b806340ace434146102a75780635e0237ea146102cf57806368866418146102f257806375d55e4714610312576101da565b806324ef3750116101b857806324ef37501461025b5780632dd310001461026e5780633041949b1461028157806332fe7b2614610294576101da565b806301681315146101df57806306552ff31461020f5780630fefbc0914610224575b600080fd5b6003546101f2906001600160a01b031681565b6040516001600160a01b0390911681526020015b60405180910390f35b61022261021d3660046120b7565b61053b565b005b61024d610232366004611ffd565b6001600160a01b03166000908152600a602052604090205490565b604051908152602001610206565b61024d610269366004612035565b6105a8565b6006546101f2906001600160a01b031681565b61022261028f366004612035565b6105d5565b6005546101f2906001600160a01b031681565b6102ba6102b5366004612162565b6106c5565b60408051928352602083019190915201610206565b6102e26102dd366004611ffd565b6106e0565b6040519015158152602001610206565b61024d610300366004611ffd565b600d6020526000908152604090205481565b61024d610320366004611ffd565b600c6020526000908152604090205481565b6101f2610760565b610222610348366004611ffd565b6107e2565b61024d61035b366004612035565b600b60209081526000928352604080842090915290825290205481565b6102ba610386366004611ffd565b6001600160a01b03166000908152600c6020908152604080832054600d909252909120549091565b6102e26103bc366004611ffd565b6001600160a01b031660009081526007602052604090205460ff1690565b61024d60025481565b61024d6103f1366004611ffd565b6001600160a01b03166000908152600c602052604090205490565b6102e261041a366004611ffd565b6001600160a01b031660009081526008602052604090205460ff1690565b61024d610446366004611ffd565b600a6020526000908152604090205481565b61024d61046636600461206d565b610899565b6102ba610479366004612162565b610c3d565b6102e261048c366004611ffd565b6001600160a01b031660009081526009602052604090205460ff1690565b6101f26104b8366004611ffd565b610c4c565b61024d60015481565b6004546101f2906001600160a01b031681565b61024d6104e736600461206d565b610ccc565b61024d6104fa366004611ffd565b6001600160a01b03166000908152600d602052604090205490565b61024d610523366004612112565b6110b4565b61024d61053636600461206d565b611526565b60005460ff161561054b57600080fd5b6000805460ff19166001179055600380546001600160a01b039586166001600160a01b0319918216179091556004805494861694821694909417909355600580549285169284169290921790915560068054919093169116179055565b6001600160a01b038083166000908152600b60209081526040808320938516835292905220545b92915050565b60006105e18383611826565b6003549091506001600160a01b038481169116148061060d57506004546001600160a01b038481169116145b15610645576001600160a01b0382166000908152600c60205260408120805483929061063a9084906121d6565b909155506106739050565b6001600160a01b0382166000908152600d60205260408120805483929061066d9084906121d6565b90915550505b816001600160a01b0316836001600160a01b03167f54b91069ea413a6fbb322ced87280c75ca620bffe62d35cf33b0336f23e9238b836040516106b891815260200190565b60405180910390a3505050565b6000806106d485858533611aa3565b91509150935093915050565b600654604051632f011bf560e11b81526001600160a01b0383811660048301526000921690635e0237ea90602401602060405180830381600087803b15801561072857600080fd5b505af115801561073c573d6000803e3d6000fd5b505050506040513d601f19601f820116820180604052508101906105cf91906121a2565b60035460408051637b0e5c4560e01b815290516000926001600160a01b031691637b0e5c45916004808301926020929190829003018186803b1580156107a557600080fd5b505afa1580156107b9573d6000803e3d6000fd5b505050506040513d601f19601f820116820180604052508101906107dd9190612019565b905090565b6003546001600160a01b03828116911614158061080d57506004546001600160a01b03828116911614155b61081657600080fd5b600654604051638e80bddf60e01b81526001600160a01b03838116600483015290911690638e80bddf90602401602060405180830381600087803b15801561085d57600080fd5b505af1158015610871573d6000803e3d6000fd5b505050506040513d601f19601f820116820180604052508101906108959190612019565b5050565b6006546000906001600160a01b0316635e0237ea6108b685610c4c565b6040516001600160e01b031960e084901b1681526001600160a01b039091166004820152602401602060405180830381600087803b1580156108f757600080fd5b505af115801561090b573d6000803e3d6000fd5b505050506040513d601f19601f8201168201806040525081019061092f91906121a2565b61093857600080fd5b60006109448585611826565b90506000610950610760565b6001600160a01b038681166000908152600c6020908152604080832054600a9092529182902054915163ec1753f160e01b8152600481018790526024810191909152604481019190915291169063ec1753f19060640160206040518083038186803b1580156109be57600080fd5b505afa1580156109d2573d6000803e3d6000fd5b505050506040513d601f19601f820116820180604052508101906109f691906121be565b9050610a00610760565b6001600160a01b038681166000908152600c6020908152604080832054600d9092529182902054915163701baaf360e01b8152600481018790526024810191909152604481019190915291169063701baaf39060640160206040518083038186803b158015610a6e57600080fd5b505afa158015610a82573d6000803e3d6000fd5b505050506040513d601f19601f82011682018060405250810190610aa691906121be565b6001600160a01b0386166000908152600b60209081526040808320308452909152812080549295508392909190610ade9084906121d6565b90915550506001600160a01b0385166000908152600a602052604081208054839290610b0b9084906121d6565b90915550506001600160a01b0385166000908152600c602052604081208054849290610b389084906121d6565b909155505060408051838152600060208201529081018290526001600160a01b0380871691888216918716907fcfc390ea13b09661b205e48ee692d38f6798b0e0992a868008f841929b0e03d29060600160405180910390a46006546001600160a01b0316635bf0abbc610bab87610c4c565b6040516001600160e01b031960e084901b1681526001600160a01b039182166004820152908716602482015260448101869052606401602060405180830381600087803b158015610bfb57600080fd5b505af1158015610c0f573d6000803e3d6000fd5b505050506040513d601f19601f82011682018060405250810190610c3391906121a2565b5050509392505050565b6000806106d485858532611aa3565b600654604051636e76408b60e11b81526001600160a01b038381166004830152600092169063dcec811690602401602060405180830381600087803b158015610c9457600080fd5b505af1158015610ca8573d6000803e3d6000fd5b505050506040513d601f19601f820116820180604052508101906105cf9190612019565b600080610cd884610c4c565b6040516370a0823160e01b81523060048201526001600160a01b0391909116906370a082319060240160206040518083038186803b158015610d1957600080fd5b505afa158015610d2d573d6000803e3d6000fd5b505050506040513d601f19601f82011682018060405250810190610d5191906121be565b90506000610d5d610760565b6001600160a01b0316631ba326c483610d7588610c4c565b6001600160a01b03166318160ddd6040518163ffffffff1660e01b815260040160206040518083038186803b158015610dad57600080fd5b505afa158015610dc1573d6000803e3d6000fd5b505050506040513d601f19601f82011682018060405250810190610de591906121be565b6001600160a01b0389166000908152600b602090815260408083203084529091529081902054905160e085901b6001600160e01b031916815260048101939093526024830191909152604482015260640160206040518083038186803b158015610e4e57600080fd5b505afa158015610e62573d6000803e3d6000fd5b505050506040513d601f19601f82011682018060405250810190610e8691906121be565b9050610e9185610c4c565b6001600160a01b03166342966c68836040518263ffffffff1660e01b8152600401610ebe91815260200190565b600060405180830381600087803b158015610ed857600080fd5b505af1158015610eec573d6000803e3d6000fd5b505050506001600160a01b0385166000908152600b6020908152604080832030845290915281208054839290610f239084906121ee565b90915550506001600160a01b0385166000908152600a602052604081208054839290610f509084906121ee565b90915550610f5e9050610760565b6001600160a01b038681166000908152600d6020908152604080832054600c9092529182902054915163701baaf360e01b8152600481018790526024810191909152604481019190915291169063701baaf39060640160206040518083038186803b158015610fcc57600080fd5b505afa158015610fe0573d6000803e3d6000fd5b505050506040513d601f19601f8201168201806040525081019061100491906121be565b6001600160a01b038681166000818152600a60209081526040808320548151878152928301939093528101869052606081019190915292955091888216918716907f58b1ebcf7a8520d435f8b5e4e52c11f3ecb57c52621aee99365d810c2e53bdf39060800160405180910390a46001600160a01b0385166000908152600c60205260408120805485929061109a9084906121ee565b909155506110ab9050868486611e37565b50509392505050565b600081156112ef5760006110c88586611826565b90506110d2610760565b6001600160a01b038681166000908152600d6020908152604080832054600c9092529182902054915163701baaf360e01b8152600481018690526024810191909152604481019190915291169063701baaf39060640160206040518083038186803b15801561114057600080fd5b505afa158015611154573d6000803e3d6000fd5b505050506040513d601f19601f8201168201806040525081019061117891906121be565b91506000611184610760565b6001600160a01b038781166000908152600d6020908152604080832054600c9092529182902054915163225a9c2360e21b8152600481018790526024810191909152604481019190915291169063896a708c9060640160206040518083038186803b1580156111f257600080fd5b505afa158015611206573d6000803e3d6000fd5b505050506040513d601f19601f8201168201806040525081019061122a91906121be565b6001600160a01b0387166000908152600d60205260408120805492935084929091906112579084906121d6565b90915550506001600160a01b0386166000908152600c6020526040812080548592906112849084906121ee565b909155505060408051838152602081018590529081018290526001600160a01b0380891691888216918816907f51e00ff851e6d19ee3412286211af0aa9676df8d942e677195fc7445b4c08e309060600160405180910390a46112e8878487611e37565b505061151e565b60006112fb8686611826565b9050611305610760565b6001600160a01b038681166000908152600c6020908152604080832054600d9092529182902054915163701baaf360e01b8152600481018690526024810191909152604481019190915291169063701baaf39060640160206040518083038186803b15801561137357600080fd5b505afa158015611387573d6000803e3d6000fd5b505050506040513d601f19601f820116820180604052508101906113ab91906121be565b915060006113b7610760565b6001600160a01b038781166000908152600c6020908152604080832054600d9092529182902054915163225a9c2360e21b8152600481018790526024810191909152604481019190915291169063896a708c9060640160206040518083038186803b15801561142557600080fd5b505afa158015611439573d6000803e3d6000fd5b505050506040513d601f19601f8201168201806040525081019061145d91906121be565b6001600160a01b0387166000908152600c602052604081208054929350849290919061148a9084906121d6565b90915550506001600160a01b0386166000908152600d6020526040812080548592906114b79084906121ee565b909155505060408051838152602081018590529081018290526001600160a01b0380881691898216918816907f51e00ff851e6d19ee3412286211af0aa9676df8d942e677195fc7445b4c08e309060600160405180910390a461151b868487611e37565b50505b949350505050565b6004546000906001600160a01b038481169116141561154457600080fd5b6003546000906001600160a01b03868116911614156115be576001600160a01b03841660009081526009602052604090205460ff166115a1576001600160a01b0384166000908152600960205260409020805460ff191660011790555b6003546115b7906001600160a01b031685611826565b9050611631565b6004546001600160a01b0386811691161415611631576001600160a01b03841660009081526008602052604090205460ff16611618576001600160a01b0384166000908152600860205260409020805460ff191660011790555b60045461162e906001600160a01b031685611826565b90505b600061163d8586611826565b9050611647610760565b6001600160a01b038681166000908152600c6020908152604080832054600d835281842054600a9093529281902054905163c5c11ee960e01b8152600481018890526024810193909352604483018690526064830191909152608482015291169063c5c11ee99060a40160206040518083038186803b1580156116c957600080fd5b505afa1580156116dd573d6000803e3d6000fd5b505050506040513d601f19601f8201168201806040525081019061170191906121be565b6001600160a01b038087166000908152600b6020908152604080832093891683529290529081208054929550859290919061173d9084906121d6565b90915550506001600160a01b0385166000908152600a60205260408120805485929061176a9084906121d6565b90915550506001600160a01b0385166000908152600c6020526040812080548492906117979084906121d6565b90915550506001600160a01b0385166000908152600d6020526040812080548392906117c49084906121d6565b909155505060408051838152602081018390529081018490526001600160a01b0380871691888216918716907fcfc390ea13b09661b205e48ee692d38f6798b0e0992a868008f841929b0e03d29060600160405180910390a450509392505050565b6003546000906001600160a01b03848116911614801561185357506003546001600160a01b038381169116145b156118f5576001546040516370a0823160e01b81523060048201526001600160a01b038516906370a08231906024015b60206040518083038186803b15801561189b57600080fd5b505afa1580156118af573d6000803e3d6000fd5b505050506040513d601f19601f820116820180604052508101906118d391906121be565b6118dd91906121ee565b9050806001546118ed91906121d6565b6001556105cf565b6003546001600160a01b03848116911614801561192057506003546001600160a01b03838116911614155b15611954576001546040516370a0823160e01b81523060048201526001600160a01b038516906370a0823190602401611883565b6004546001600160a01b0384811691161415611a06576002546040516370a0823160e01b81523060048201526001600160a01b038516906370a082319060240160206040518083038186803b1580156119ac57600080fd5b505afa1580156119c0573d6000803e3d6000fd5b505050506040513d601f19601f820116820180604052508101906119e491906121be565b6119ee91906121ee565b9050806002546119fe91906121d6565b6002556105cf565b6001600160a01b038281166000908152600d6020526040908190205490516370a0823160e01b815230600482015290918516906370a082319060240160206040518083038186803b158015611a5a57600080fd5b505afa158015611a6e573d6000803e3d6000fd5b505050506040513d601f19601f82011682018060405250810190611a9291906121be565b611a9c91906121ee565b9392505050565b60045460009081906001600160a01b0387811691161480611ad157506003546001600160a01b038781169116145b611ada57600080fd5b6000611ae4610760565b6001600160a01b038781166000908152600b6020908152604080832089851684529091529081902054905163714270ab60e01b815260048101899052602481019190915291169063714270ab9060440160206040518083038186803b158015611b4c57600080fd5b505afa158015611b60573d6000803e3d6000fd5b505050506040513d601f19601f82011682018060405250810190611b8491906121be565b9050611b8e610760565b6001600160a01b038781166000908152600a6020908152604080832054600c909252918290205491516306e8c9b160e21b81526004810186905260248101919091526044810191909152911690631ba326c49060640160206040518083038186803b158015611bfc57600080fd5b505afa158015611c10573d6000803e3d6000fd5b505050506040513d601f19601f82011682018060405250810190611c3491906121be565b9250611c3e610760565b6001600160a01b038781166000908152600a6020908152604080832054600d909252918290205491516306e8c9b160e21b81526004810186905260248101919091526044810191909152911690631ba326c49060640160206040518083038186803b158015611cac57600080fd5b505afa158015611cc0573d6000803e3d6000fd5b505050506040513d601f19601f82011682018060405250810190611ce491906121be565b6001600160a01b0387166000908152600a6020526040812080549294508392909190611d119084906121ee565b90915550506001600160a01b038087166000908152600b6020908152604080832093881683529290529081208054839290611d4d9084906121ee565b90915550506001600160a01b0386166000908152600c602052604081208054859290611d7a9084906121ee565b90915550506001600160a01b0386166000908152600d602052604081208054849290611da79084906121ee565b90915550506001600160a01b038681166000818152600a60209081526040918290205482518881529182018790528183018690526060820152905191928a811692908816917f58b1ebcf7a8520d435f8b5e4e52c11f3ecb57c52621aee99365d810c2e53bdf3919081900360800190a4611e22878486611e37565b611e2d868386611e37565b5094509492505050565b6003546001600160a01b0384811691161415611ef85781600154611e5b91906121ee565b6001556001600160a01b0381163014611ef35760405163a9059cbb60e01b81526001600160a01b0382811660048301526024820184905284169063a9059cbb906044015b602060405180830381600087803b158015611eb957600080fd5b505af1158015611ecd573d6000803e3d6000fd5b505050506040513d601f19601f82011682018060405250810190611ef191906121a2565b505b611ff8565b6004546001600160a01b0384811691161415611f645781600254611f1c91906121ee565b6002556001600160a01b0381163014611ef35760405163a9059cbb60e01b81526001600160a01b0382811660048301526024820184905284169063a9059cbb90604401611e9f565b6001600160a01b0381163014611ff85760405163a9059cbb60e01b81526001600160a01b0382811660048301526024820184905284169063a9059cbb90604401602060405180830381600087803b158015611fbe57600080fd5b505af1158015611fd2573d6000803e3d6000fd5b505050506040513d601f19601f82011682018060405250810190611ff691906121a2565b505b505050565b60006020828403121561200e578081fd5b8135611a9c8161221b565b60006020828403121561202a578081fd5b8151611a9c8161221b565b60008060408385031215612047578081fd5b82356120528161221b565b915060208301356120628161221b565b809150509250929050565b600080600060608486031215612081578081fd5b833561208c8161221b565b9250602084013561209c8161221b565b915060408401356120ac8161221b565b809150509250925092565b600080600080608085870312156120cc578081fd5b84356120d78161221b565b935060208501356120e78161221b565b925060408501356120f78161221b565b915060608501356121078161221b565b939692955090935050565b60008060008060808587031215612127578384fd5b84356121328161221b565b935060208501356121428161221b565b925060408501356121528161221b565b9150606085013561210781612233565b600080600060608486031215612176578283fd5b83356121818161221b565b925060208401356121918161221b565b929592945050506040919091013590565b6000602082840312156121b3578081fd5b8151611a9c81612233565b6000602082840312156121cf578081fd5b5051919050565b600082198211156121e9576121e9612205565b500190565b60008282101561220057612200612205565b500390565b634e487b7160e01b600052601160045260246000fd5b6001600160a01b038116811461223057600080fd5b50565b801515811461223057600080fdfea2646970667358221220e7a1b2863349e43e8526ecc922b43270fe5c870fd78cd51ccbd7683966d4e30164736f6c63430008030033",
  "linkReferences": {},
  "deployedLinkReferences": {}
}