{
  "_format": "hh-sol-artifact-1",
  "contractName": "Router",
  "sourceName": "contracts/Router.sol",
  "abi": [
    {
      "inputs": [],
      "stateMutability": "nonpayable",
      "type": "constructor"
    },
    {
      "anonymous": false,
      "inputs": [
        {
          "indexed": true,
          "internalType": "address",
          "name": "member",
          "type": "address"
        },
        {
          "indexed": true,
          "internalType": "address",
          "name": "collateralAsset",
          "type": "address"
        },
        {
          "indexed": false,
          "internalType": "uint256",
          "name": "collateralLocked",
          "type": "uint256"
        },
        {
          "indexed": true,
          "internalType": "address",
          "name": "debtAsset",
          "type": "address"
        },
        {
          "indexed": false,
          "internalType": "uint256",
          "name": "debtIssued",
          "type": "uint256"
        }
      ],
      "name": "AddCollateral",
      "type": "event"
    },
    {
      "anonymous": false,
      "inputs": [
        {
          "indexed": true,
          "internalType": "address",
          "name": "curator",
          "type": "address"
        },
        {
          "indexed": true,
          "internalType": "address",
          "name": "token",
          "type": "address"
        }
      ],
      "name": "Curated",
      "type": "event"
    },
    {
      "anonymous": false,
      "inputs": [
        {
          "indexed": true,
          "internalType": "address",
          "name": "base",
          "type": "address"
        },
        {
          "indexed": true,
          "internalType": "address",
          "name": "token",
          "type": "address"
        },
        {
          "indexed": false,
          "internalType": "uint256",
          "name": "amount",
          "type": "uint256"
        }
      ],
      "name": "PoolReward",
      "type": "event"
    },
    {
      "anonymous": false,
      "inputs": [
        {
          "indexed": true,
          "internalType": "address",
          "name": "member",
          "type": "address"
        },
        {
          "indexed": false,
          "internalType": "uint256",
          "name": "amount",
          "type": "uint256"
        }
      ],
      "name": "Protection",
      "type": "event"
    },
    {
      "anonymous": false,
      "inputs": [
        {
          "indexed": true,
          "internalType": "address",
          "name": "member",
          "type": "address"
        },
        {
          "indexed": true,
          "internalType": "address",
          "name": "collateralAsset",
          "type": "address"
        },
        {
          "indexed": false,
          "internalType": "uint256",
          "name": "collateralUnlocked",
          "type": "uint256"
        },
        {
          "indexed": true,
          "internalType": "address",
          "name": "debtAsset",
          "type": "address"
        },
        {
          "indexed": false,
          "internalType": "uint256",
          "name": "debtReturned",
          "type": "uint256"
        }
      ],
      "name": "RemoveCollateral",
      "type": "event"
    },
    {
      "inputs": [],
      "name": "VADER",
      "outputs": [
        {
          "internalType": "address",
          "name": "",
          "type": "address"
        }
      ],
      "stateMutability": "view",
      "type": "function"
    },
    {
      "inputs": [
        {
          "internalType": "address",
          "name": "base",
          "type": "address"
        },
        {
          "internalType": "uint256",
          "name": "inputBase",
          "type": "uint256"
        },
        {
          "internalType": "address",
          "name": "token",
          "type": "address"
        },
        {
          "internalType": "uint256",
          "name": "inputToken",
          "type": "uint256"
        }
      ],
      "name": "addLiquidity",
      "outputs": [
        {
          "internalType": "uint256",
          "name": "",
          "type": "uint256"
        }
      ],
      "stateMutability": "nonpayable",
      "type": "function"
    },
    {
      "inputs": [],
      "name": "anchorLimit",
      "outputs": [
        {
          "internalType": "uint256",
          "name": "",
          "type": "uint256"
        }
      ],
      "stateMutability": "view",
      "type": "function"
    },
    {
      "inputs": [
        {
          "internalType": "uint256",
          "name": "",
          "type": "uint256"
        }
      ],
      "name": "arrayAnchors",
      "outputs": [
        {
          "internalType": "address",
          "name": "",
          "type": "address"
        }
      ],
      "stateMutability": "view",
      "type": "function"
    },
    {
      "inputs": [
        {
          "internalType": "uint256",
          "name": "",
          "type": "uint256"
        }
      ],
      "name": "arrayPrices",
      "outputs": [
        {
          "internalType": "uint256",
          "name": "",
          "type": "uint256"
        }
      ],
      "stateMutability": "view",
      "type": "function"
    },
    {
      "inputs": [
        {
          "internalType": "uint256",
          "name": "amount",
          "type": "uint256"
        },
        {
          "internalType": "address",
          "name": "collateralAsset",
          "type": "address"
        },
        {
          "internalType": "address",
          "name": "debtAsset",
          "type": "address"
        }
      ],
      "name": "borrow",
      "outputs": [
        {
          "internalType": "uint256",
          "name": "",
          "type": "uint256"
        }
      ],
      "stateMutability": "nonpayable",
      "type": "function"
    },
    {
      "inputs": [
        {
          "internalType": "address",
          "name": "member",
          "type": "address"
        },
        {
          "internalType": "uint256",
          "name": "amount",
          "type": "uint256"
        },
        {
          "internalType": "address",
          "name": "collateralAsset",
          "type": "address"
        },
        {
          "internalType": "address",
          "name": "debtAsset",
          "type": "address"
        }
      ],
      "name": "borrowForMember",
      "outputs": [
        {
          "internalType": "uint256",
          "name": "",
          "type": "uint256"
        }
      ],
      "stateMutability": "nonpayable",
      "type": "function"
    },
    {
      "inputs": [],
      "name": "checkLiquidate",
      "outputs": [],
      "stateMutability": "nonpayable",
      "type": "function"
    },
    {
      "inputs": [
        {
          "internalType": "address",
          "name": "token",
          "type": "address"
        }
      ],
      "name": "curatePool",
      "outputs": [],
      "stateMutability": "nonpayable",
      "type": "function"
    },
    {
      "inputs": [],
      "name": "curatedPoolCount",
      "outputs": [
        {
          "internalType": "uint256",
          "name": "",
          "type": "uint256"
        }
      ],
      "stateMutability": "view",
      "type": "function"
    },
    {
      "inputs": [],
      "name": "curatedPoolLimit",
      "outputs": [
        {
          "internalType": "uint256",
          "name": "",
          "type": "uint256"
        }
      ],
      "stateMutability": "view",
      "type": "function"
    },
    {
      "inputs": [],
      "name": "emitting",
      "outputs": [
        {
          "internalType": "bool",
          "name": "",
          "type": "bool"
        }
      ],
      "stateMutability": "view",
      "type": "function"
    },
    {
      "inputs": [],
      "name": "getAnchorPrice",
      "outputs": [
        {
          "internalType": "uint256",
          "name": "anchorPrice",
          "type": "uint256"
        }
      ],
      "stateMutability": "view",
      "type": "function"
    },
    {
      "inputs": [
        {
          "internalType": "address",
          "name": "member",
          "type": "address"
        },
        {
          "internalType": "address",
          "name": "base",
          "type": "address"
        },
        {
          "internalType": "address",
          "name": "token",
          "type": "address"
        },
        {
          "internalType": "uint256",
          "name": "basisPoints",
          "type": "uint256"
        }
      ],
      "name": "getILProtection",
      "outputs": [
        {
          "internalType": "uint256",
          "name": "protection",
          "type": "uint256"
        }
      ],
      "stateMutability": "view",
      "type": "function"
    },
    {
      "inputs": [
        {
          "internalType": "address",
          "name": "member",
          "type": "address"
        },
        {
          "internalType": "address",
          "name": "token",
          "type": "address"
        }
      ],
      "name": "getMemberBaseDeposit",
      "outputs": [
        {
          "internalType": "uint256",
          "name": "",
          "type": "uint256"
        }
      ],
      "stateMutability": "view",
      "type": "function"
    },
    {
      "inputs": [
        {
          "internalType": "address",
          "name": "member",
          "type": "address"
        },
        {
          "internalType": "address",
          "name": "collateralAsset",
          "type": "address"
        },
        {
          "internalType": "address",
          "name": "debtAsset",
          "type": "address"
        }
      ],
      "name": "getMemberCollateral",
      "outputs": [
        {
          "internalType": "uint256",
          "name": "",
          "type": "uint256"
        }
      ],
      "stateMutability": "view",
      "type": "function"
    },
    {
      "inputs": [
        {
          "internalType": "address",
          "name": "member",
          "type": "address"
        },
        {
          "internalType": "address",
          "name": "collateralAsset",
          "type": "address"
        },
        {
          "internalType": "address",
          "name": "debtAsset",
          "type": "address"
        }
      ],
      "name": "getMemberDebt",
      "outputs": [
        {
          "internalType": "uint256",
          "name": "",
          "type": "uint256"
        }
      ],
      "stateMutability": "view",
      "type": "function"
    },
    {
      "inputs": [
        {
          "internalType": "address",
          "name": "member",
          "type": "address"
        },
        {
          "internalType": "address",
          "name": "token",
          "type": "address"
        }
      ],
      "name": "getMemberLastDeposit",
      "outputs": [
        {
          "internalType": "uint256",
          "name": "",
          "type": "uint256"
        }
      ],
      "stateMutability": "view",
      "type": "function"
    },
    {
      "inputs": [
        {
          "internalType": "address",
          "name": "member",
          "type": "address"
        },
        {
          "internalType": "address",
          "name": "token",
          "type": "address"
        }
      ],
      "name": "getMemberTokenDeposit",
      "outputs": [
        {
          "internalType": "uint256",
          "name": "",
          "type": "uint256"
        }
      ],
      "stateMutability": "view",
      "type": "function"
    },
    {
      "inputs": [
        {
          "internalType": "address",
          "name": "collateralAsset",
          "type": "address"
        },
        {
          "internalType": "address",
          "name": "debtAsset",
          "type": "address"
        }
      ],
      "name": "getNextEraTime",
      "outputs": [
        {
          "internalType": "uint256",
          "name": "",
          "type": "uint256"
        }
      ],
      "stateMutability": "view",
      "type": "function"
    },
    {
      "inputs": [
        {
          "internalType": "address",
          "name": "collateralAsset",
          "type": "address"
        },
        {
          "internalType": "address",
          "name": "debtAsset",
          "type": "address"
        }
      ],
      "name": "getSystemCollateral",
      "outputs": [
        {
          "internalType": "uint256",
          "name": "",
          "type": "uint256"
        }
      ],
      "stateMutability": "view",
      "type": "function"
    },
    {
      "inputs": [
        {
          "internalType": "address",
          "name": "collateralAsset",
          "type": "address"
        },
        {
          "internalType": "address",
          "name": "debtAsset",
          "type": "address"
        }
      ],
      "name": "getSystemDebt",
      "outputs": [
        {
          "internalType": "uint256",
          "name": "",
          "type": "uint256"
        }
      ],
      "stateMutability": "view",
      "type": "function"
    },
    {
      "inputs": [
        {
          "internalType": "address",
          "name": "collateralAsset",
          "type": "address"
        },
        {
          "internalType": "address",
          "name": "debtAsset",
          "type": "address"
        }
      ],
      "name": "getSystemInterestPaid",
      "outputs": [
        {
          "internalType": "uint256",
          "name": "",
          "type": "uint256"
        }
      ],
      "stateMutability": "view",
      "type": "function"
    },
    {
      "inputs": [
        {
          "internalType": "uint256",
          "name": "vaderAmount",
          "type": "uint256"
        }
      ],
      "name": "getUSDVAmount",
      "outputs": [
        {
          "internalType": "uint256",
          "name": "USDVAmount",
          "type": "uint256"
        }
      ],
      "stateMutability": "view",
      "type": "function"
    },
    {
      "inputs": [
        {
          "internalType": "uint256",
          "name": "USDVAmount",
          "type": "uint256"
        }
      ],
      "name": "getVADERAmount",
      "outputs": [
        {
          "internalType": "uint256",
          "name": "vaderAmount",
          "type": "uint256"
        }
      ],
      "stateMutability": "view",
      "type": "function"
    },
    {
      "inputs": [
        {
          "internalType": "address",
          "name": "_vader",
          "type": "address"
        }
      ],
      "name": "init",
      "outputs": [],
      "stateMutability": "nonpayable",
      "type": "function"
    },
    {
      "inputs": [],
      "name": "insidePriceLimit",
      "outputs": [
        {
          "internalType": "uint256",
          "name": "",
          "type": "uint256"
        }
      ],
      "stateMutability": "view",
      "type": "function"
    },
    {
      "inputs": [
        {
          "internalType": "address",
          "name": "token",
          "type": "address"
        }
      ],
      "name": "isBase",
      "outputs": [
        {
          "internalType": "bool",
          "name": "base",
          "type": "bool"
        }
      ],
      "stateMutability": "view",
      "type": "function"
    },
    {
      "inputs": [
        {
          "internalType": "address",
          "name": "token",
          "type": "address"
        }
      ],
      "name": "isCurated",
      "outputs": [
        {
          "internalType": "bool",
          "name": "",
          "type": "bool"
        }
      ],
      "stateMutability": "view",
      "type": "function"
    },
    {
      "inputs": [
        {
          "internalType": "address",
          "name": "token",
          "type": "address"
        }
      ],
      "name": "isPool",
      "outputs": [
        {
          "internalType": "bool",
          "name": "",
          "type": "bool"
        }
      ],
      "stateMutability": "view",
      "type": "function"
    },
    {
      "inputs": [
        {
          "internalType": "address",
          "name": "token",
          "type": "address"
        }
      ],
      "name": "listAnchor",
      "outputs": [],
      "stateMutability": "nonpayable",
      "type": "function"
    },
    {
      "inputs": [
        {
          "internalType": "address",
          "name": "",
          "type": "address"
        }
      ],
      "name": "mapAnchorAddress_arrayAnchorsIndex1",
      "outputs": [
        {
          "internalType": "uint256",
          "name": "",
          "type": "uint256"
        }
      ],
      "stateMutability": "view",
      "type": "function"
    },
    {
      "inputs": [
        {
          "internalType": "address",
          "name": "",
          "type": "address"
        },
        {
          "internalType": "address",
          "name": "",
          "type": "address"
        }
      ],
      "name": "mapMemberToken_depositBase",
      "outputs": [
        {
          "internalType": "uint256",
          "name": "",
          "type": "uint256"
        }
      ],
      "stateMutability": "view",
      "type": "function"
    },
    {
      "inputs": [
        {
          "internalType": "address",
          "name": "",
          "type": "address"
        },
        {
          "internalType": "address",
          "name": "",
          "type": "address"
        }
      ],
      "name": "mapMemberToken_depositToken",
      "outputs": [
        {
          "internalType": "uint256",
          "name": "",
          "type": "uint256"
        }
      ],
      "stateMutability": "view",
      "type": "function"
    },
    {
      "inputs": [
        {
          "internalType": "address",
          "name": "",
          "type": "address"
        },
        {
          "internalType": "address",
          "name": "",
          "type": "address"
        }
      ],
      "name": "mapMemberToken_lastDeposited",
      "outputs": [
        {
          "internalType": "uint256",
          "name": "",
          "type": "uint256"
        }
      ],
      "stateMutability": "view",
      "type": "function"
    },
    {
      "inputs": [],
      "name": "outsidePriceLimit",
      "outputs": [
        {
          "internalType": "uint256",
          "name": "",
          "type": "uint256"
        }
      ],
      "stateMutability": "view",
      "type": "function"
    },
    {
      "inputs": [
        {
          "internalType": "address",
          "name": "base",
          "type": "address"
        },
        {
          "internalType": "address",
          "name": "token",
          "type": "address"
        },
        {
          "internalType": "uint256",
          "name": "basisPoints",
          "type": "uint256"
        }
      ],
      "name": "removeLiquidity",
      "outputs": [
        {
          "internalType": "uint256",
          "name": "units",
          "type": "uint256"
        },
        {
          "internalType": "uint256",
          "name": "amountBase",
          "type": "uint256"
        },
        {
          "internalType": "uint256",
          "name": "amountToken",
          "type": "uint256"
        }
      ],
      "stateMutability": "nonpayable",
      "type": "function"
    },
    {
      "inputs": [
        {
          "internalType": "uint256",
          "name": "amount",
          "type": "uint256"
        },
        {
          "internalType": "address",
          "name": "collateralAsset",
          "type": "address"
        },
        {
          "internalType": "address",
          "name": "debtAsset",
          "type": "address"
        }
      ],
      "name": "repay",
      "outputs": [
        {
          "internalType": "uint256",
          "name": "",
          "type": "uint256"
        }
      ],
      "stateMutability": "nonpayable",
      "type": "function"
    },
    {
      "inputs": [],
      "name": "repayDelay",
      "outputs": [
        {
          "internalType": "uint256",
          "name": "",
          "type": "uint256"
        }
      ],
      "stateMutability": "view",
      "type": "function"
    },
    {
      "inputs": [
        {
          "internalType": "address",
          "name": "member",
          "type": "address"
        },
        {
          "internalType": "uint256",
          "name": "basisPoints",
          "type": "uint256"
        },
        {
          "internalType": "address",
          "name": "collateralAsset",
          "type": "address"
        },
        {
          "internalType": "address",
          "name": "debtAsset",
          "type": "address"
        }
      ],
      "name": "repayForMember",
      "outputs": [
        {
          "internalType": "uint256",
          "name": "",
          "type": "uint256"
        }
      ],
      "stateMutability": "nonpayable",
      "type": "function"
    },
    {
      "inputs": [
        {
          "internalType": "address",
          "name": "oldToken",
          "type": "address"
        },
        {
          "internalType": "address",
          "name": "newToken",
          "type": "address"
        }
      ],
      "name": "replaceAnchor",
      "outputs": [],
      "stateMutability": "nonpayable",
      "type": "function"
    },
    {
      "inputs": [
        {
          "internalType": "address",
          "name": "oldToken",
          "type": "address"
        },
        {
          "internalType": "address",
          "name": "newToken",
          "type": "address"
        }
      ],
      "name": "replacePool",
      "outputs": [],
      "stateMutability": "nonpayable",
      "type": "function"
    },
    {
      "inputs": [],
      "name": "reserveUSDV",
      "outputs": [
        {
          "internalType": "uint256",
          "name": "",
          "type": "uint256"
        }
      ],
      "stateMutability": "view",
      "type": "function"
    },
    {
      "inputs": [],
      "name": "reserveVADER",
      "outputs": [
        {
          "internalType": "uint256",
          "name": "",
          "type": "uint256"
        }
      ],
      "stateMutability": "view",
      "type": "function"
    },
    {
      "inputs": [],
      "name": "rewardReductionFactor",
      "outputs": [
        {
          "internalType": "uint256",
          "name": "",
          "type": "uint256"
        }
      ],
      "stateMutability": "view",
      "type": "function"
    },
    {
      "inputs": [
        {
          "internalType": "uint256",
          "name": "newLimit",
          "type": "uint256"
        },
        {
          "internalType": "uint256",
          "name": "newInside",
          "type": "uint256"
        },
        {
          "internalType": "uint256",
          "name": "newOutside",
          "type": "uint256"
        }
      ],
      "name": "setAnchorParams",
      "outputs": [],
      "stateMutability": "nonpayable",
      "type": "function"
    },
    {
      "inputs": [
        {
          "internalType": "uint256",
          "name": "newFactor",
          "type": "uint256"
        },
        {
          "internalType": "uint256",
          "name": "newTime",
          "type": "uint256"
        },
        {
          "internalType": "uint256",
          "name": "newLimit",
          "type": "uint256"
        }
      ],
      "name": "setParams",
      "outputs": [],
      "stateMutability": "nonpayable",
      "type": "function"
    },
    {
      "inputs": [
        {
          "internalType": "uint256",
          "name": "inputAmount",
          "type": "uint256"
        },
        {
          "internalType": "address",
          "name": "inputToken",
          "type": "address"
        },
        {
          "internalType": "address",
          "name": "outputToken",
          "type": "address"
        }
      ],
      "name": "swap",
      "outputs": [
        {
          "internalType": "uint256",
          "name": "outputAmount",
          "type": "uint256"
        }
      ],
      "stateMutability": "nonpayable",
      "type": "function"
    },
    {
      "inputs": [
        {
          "internalType": "uint256",
          "name": "inputAmount",
          "type": "uint256"
        },
        {
          "internalType": "address",
          "name": "inputToken",
          "type": "address"
        },
        {
          "internalType": "address",
          "name": "outputToken",
          "type": "address"
        },
        {
          "internalType": "uint256",
          "name": "slipLimit",
          "type": "uint256"
        }
      ],
      "name": "swapWithLimit",
      "outputs": [
        {
          "internalType": "uint256",
          "name": "outputAmount",
          "type": "uint256"
        }
      ],
      "stateMutability": "nonpayable",
      "type": "function"
    },
    {
      "inputs": [
        {
          "internalType": "uint256",
          "name": "inputAmount",
          "type": "uint256"
        },
        {
          "internalType": "address",
          "name": "inputToken",
          "type": "address"
        },
        {
          "internalType": "bool",
          "name": "inSynth",
          "type": "bool"
        },
        {
          "internalType": "address",
          "name": "outputToken",
          "type": "address"
        },
        {
          "internalType": "bool",
          "name": "outSynth",
          "type": "bool"
        }
      ],
      "name": "swapWithSynths",
      "outputs": [
        {
          "internalType": "uint256",
          "name": "outputAmount",
          "type": "uint256"
        }
      ],
      "stateMutability": "nonpayable",
      "type": "function"
    },
    {
      "inputs": [
        {
          "internalType": "uint256",
          "name": "inputAmount",
          "type": "uint256"
        },
        {
          "internalType": "address",
          "name": "inputToken",
          "type": "address"
        },
        {
          "internalType": "bool",
          "name": "inSynth",
          "type": "bool"
        },
        {
          "internalType": "address",
          "name": "outputToken",
          "type": "address"
        },
        {
          "internalType": "bool",
          "name": "outSynth",
          "type": "bool"
        },
        {
          "internalType": "uint256",
          "name": "slipLimit",
          "type": "uint256"
        }
      ],
      "name": "swapWithSynthsWithLimit",
      "outputs": [
        {
          "internalType": "uint256",
          "name": "outputAmount",
          "type": "uint256"
        }
      ],
      "stateMutability": "nonpayable",
      "type": "function"
    },
    {
      "inputs": [],
      "name": "timeForFullProtection",
      "outputs": [
        {
          "internalType": "uint256",
          "name": "",
          "type": "uint256"
        }
      ],
      "stateMutability": "view",
      "type": "function"
    },
    {
      "inputs": [
        {
          "internalType": "address",
          "name": "token",
          "type": "address"
        }
      ],
      "name": "updateAnchorPrice",
      "outputs": [],
      "stateMutability": "nonpayable",
      "type": "function"
    }
  ],
  "bytecode": "0x608060405234801561001057600080fd5b50615146806100206000396000f3fe608060405234801561001057600080fd5b50600436106103275760003560e01c80636e899aa3116101b8578063d752fab211610104578063e8b8cfa0116100a2578063fcf476861161007c578063fcf47686146107e1578063fdc59b82146107f4578063fde3bbe91461081f578063ff8b83a61461086857610327565b8063e8b8cfa014610790578063e9b6e448146107a3578063f550394e146107b657610327565b8063e0f52db3116100de578063e0f52db3146106f8578063e2e1e48f14610731578063e6048ff814610744578063e672f6ad1461075757610327565b8063d752fab2146106b9578063d8489152146106e7578063de6ad44e146106f057610327565b8063ae746f0211610171578063cf8bc7151161014b578063cf8bc71514610651578063cfa701c51461065a578063d2b4337314610693578063d5164184146106a657610327565b8063ae746f02146105f2578063c883b2e5146105fb578063cbc17db31461060e57610327565b80636e899aa314610533578063774d70e41461054657806382eb7233146105725780638bc51e36146105ab57806399a485f5146105b4578063a9d1c09e146105c757610327565b806337785d211161027757806358b27216116102305780635b16ebb71161020a5780635b16ebb7146104cc57806362cea340146104df5780636a87def5146104e75780636cc06ded1461052057610327565b806358b27216146104a15780635a0ce676146104a65780635a4dd3f2146104b957610327565b806337785d211461043657806337f3d2d41461044957806339e68f531461045c5780634139f1111461046f5780634eb6887a1461048f578063531984381461049857610327565b80631ab73ef5116102e45780632b7f0923116102be5780632b7f0923146103f45780632e2d0856146104075780633494c8e81461041a578063376d3d5d1461042357610327565b80631ab73ef5146103c55780631df6acfd146103d8578063273961e6146103eb57610327565b8063016813151461032c578063038e5eaa1461035c5780630781f4d21461037257806317af50e51461038a57806319ab453c1461039d5780631a609827146103b2575b600080fd5b60055461033f906001600160a01b031681565b6040516001600160a01b0390911681526020015b60405180910390f35b6103646108a1565b604051908152602001610353565b61037a610997565b6040519015158152602001610353565b610364610398366004614dcd565b610a19565b6103b06103ab366004614b1e565b610a3a565b005b6103646103c0366004614e23565b610a84565b6103646103d3366004614c68565b610aa1565b6103b06103e6366004614b56565b611063565b61036460015481565b610364610402366004614dfd565b6114d4565b6103b0610415366004614f43565b6114f2565b61036460065481565b610364610431366004614cba565b611575565b610364610444366004614eb1565b61168d565b610364610457366004614b56565b612114565b6103b061046a366004614b1e565b612141565b61036461047d366004614b1e565b600b6020526000908152604090205481565b610364610e1081565b61036460025481565b6103b0565b6103b06104b4366004614f43565b61230d565b6103646104c7366004614dcd565b612390565b61037a6104da366004614b1e565b6123ba565b6103646124c8565b6103646104f5366004614b56565b6001600160a01b039182166000908152600e6020908152604080832093909416825291909152205490565b61036461052e366004614dcd565b612542565b61037a610541366004614b1e565b612562565b61037a610554366004614b1e565b6001600160a01b031660009081526004602052604090205460ff1690565b610364610580366004614b56565b6001600160a01b03918216600090815260116020908152604080832093909416825291909152205490565b61036460035481565b6103646105c2366004614e4a565b61259f565b6103646105d5366004614b56565b600e60209081526000928352604080842090915290825290205481565b61036460075481565b610364610609366004614dfd565b6125bb565b61036461061c366004614b8e565b6001600160a01b039283166000908152600f602090815260408083209486168352938152838220929094168152925290205490565b61036460005481565b610364610668366004614b56565b6001600160a01b039182166000908152600d6020908152604080832093909416825291909152205490565b6103b06106a1366004614b1e565b6125c9565b6103646106b4366004614dfd565b612782565b6106cc6106c7366004614c28565b612790565b60408051938452602084019290925290820152606001610353565b61036460085481565b6103646129fe565b610364610706366004614b56565b6001600160a01b03918216600090815260126020908152604080832093909416825291909152205490565b6103b061073f366004614b1e565b612a40565b610364610752366004614bd8565b612b2c565b610364610765366004614b56565b6001600160a01b03918216600090815260106020908152604080832093909416825291909152205490565b6103b061079e366004614b56565b612c16565b6103646107b1366004614c68565b612e11565b6103646107c4366004614b56565b600c60209081526000928352604080842090915290825290205481565b61033f6107ef366004614dcd565b613346565b610364610802366004614b56565b600d60209081526000928352604080842090915290825290205481565b61036461082d366004614b8e565b6001600160a01b038084166000908152600f602090815260408083208685168452825280832093851683526001909301905220549392505050565b610364610876366004614b56565b6001600160a01b039182166000908152600c6020908152604080832093909416825291909152205490565b600a546000908190600110156108c35760026006546108c0919061506b565b90505b600a54156109875760006108d5613370565b6001600160a01b031663e379976e600a6040518263ffffffff1660e01b8152600401610901919061500c565b60006040518083038186803b15801561091957600080fd5b505afa15801561092d573d6000803e3d6000fd5b505050506040513d6000823e601f3d908101601f191682016040526109559190810190614cf1565b905080828151811061097757634e487b7160e01b600052603260045260246000fd5b6020026020010151925050610993565b670de0b6b3a764000091505b5090565b600554604080516303c0fa6960e11b815290516000926001600160a01b031691630781f4d2916004808301926020929190829003018186803b1580156109dc57600080fd5b505afa1580156109f0573d6000803e3d6000fd5b505050506040513d601f19601f82011682018060405250810190610a149190614db1565b905090565b600a8181548110610a2957600080fd5b600091825260209091200154905081565b6005546001600160a01b0316610a8157600580546001600160a01b0319166001600160a01b0383161781556001600081905580805560025560065560c86007556101f46008555b50565b6000610a96858560008660008761168d565b90505b949350505050565b6000610aab613370565b60405163cf975e7b60e01b81526001600160a01b0385811660048301528481166024830152919091169063cf975e7b90604401600060405180830381600087803b158015610af857600080fd5b505af1158015610b0c573d6000803e3d6000fd5b505050506000610b1d86858761345d565b9050600080610b2a613370565b604051635c22141f60e01b81526001600160a01b038a8116600483015260248201869052888116604483015287811660648301529190911690635c22141f906084016040805180830381600087803b158015610b8557600080fd5b505af1158015610b99573d6000803e3d6000fd5b505050506040513d601f19601f82011682018060405250810190610bbd9190614f20565b6001600160a01b038089166000908152601060209081526040808320938b16835292905290812080549395509193508592610bf9908490615053565b90915550506001600160a01b03808716600090815260116020908152604080832093891683529290529081208054849290610c35908490615053565b90915550610c4890508884888589613593565b6005546001600160a01b0387811691161480610ce25750610c6761362a565b604051636c66769560e11b81526001600160a01b038781166004830152919091169063d8cced2a9060240160206040518083038186803b158015610caa57600080fd5b505afa158015610cbe573d6000803e3d6000fd5b505050506040513d601f19601f82011682018060405250810190610ce29190614db1565b15610e1757610cef6136df565b6005546001600160a01b039182169163a76a50d49116610d0d61362a565b846040518463ffffffff1660e01b8152600401610d2c93929190614fe8565b602060405180830381600087803b158015610d4657600080fd5b505af1158015610d5a573d6000803e3d6000fd5b505050506040513d601f19601f82011682018060405250810190610d7e9190614de5565b50610d8761362a565b60055460405163efc34aab60e01b81526001600160a01b039283169263efc34aab92610dbf9291169089908d90600090600401614fbe565b602060405180830381600087803b158015610dd957600080fd5b505af1158015610ded573d6000803e3d6000fd5b505050506040513d601f19601f82011682018060405250810190610e119190614de5565b50610fee565b610e1f613794565b6001600160a01b0316866001600160a01b03161480610ebc5750610e4161362a565b60405163643fd21560e11b81526001600160a01b038781166004830152919091169063c87fa42a9060240160206040518083038186803b158015610e8457600080fd5b505afa158015610e98573d6000803e3d6000fd5b505050506040513d601f19601f82011682018060405250810190610ebc9190614db1565b15610fee57610ec96136df565b6001600160a01b031663a76a50d4610edf613794565b610ee761362a565b846040518463ffffffff1660e01b8152600401610f0693929190614fe8565b602060405180830381600087803b158015610f2057600080fd5b505af1158015610f34573d6000803e3d6000fd5b505050506040513d601f19601f82011682018060405250810190610f589190614de5565b50610f6161362a565b6001600160a01b031663efc34aab610f77613794565b878b60006040518563ffffffff1660e01b8152600401610f9a9493929190614fbe565b602060405180830381600087803b158015610fb457600080fd5b505af1158015610fc8573d6000803e3d6000fd5b505050506040513d601f19601f82011682018060405250810190610fec9190614de5565b505b846001600160a01b0316866001600160a01b0316896001600160a01b03167fae998ad28d77f73e6eb1de185a4d9c3656e19b47125aa0e732ceabecefdd30618a86604051611046929190918252602082015260400190565b60405180910390a46110588686613849565b509695505050505050565b816001600160a01b0316816001600160a01b031614156110be5760405162461bcd60e51b81526020600482015260116024820152704e657720746f6b656e206e6f74206e657760781b60448201526064015b60405180910390fd5b6001600160a01b0382166000908152600b6020526040902054806111185760405162461bcd60e51b815260206004820152601160248201527027379039bab1b41037b632103a37b5b2b760791b60448201526064016110b5565b61112061362a565b604051636c66769560e11b81526001600160a01b038481166004830152919091169063d8cced2a9060240160206040518083038186803b15801561116357600080fd5b505afa158015611177573d6000803e3d6000fd5b505050506040513d601f19601f8201168201806040525081019061119b9190614db1565b6111d45760405162461bcd60e51b815260206004820152600a6024820152692737ba1030b731b437b960b11b60448201526064016110b5565b6111dc61362a565b60405163b34c8afb60e01b81526001600160a01b038581166004830152919091169063b34c8afb9060240160206040518083038186803b15801561121f57600080fd5b505afa158015611233573d6000803e3d6000fd5b505050506040513d601f19601f820116820180604052508101906112579190614de5565b61125f61362a565b60405163b34c8afb60e01b81526001600160a01b038581166004830152919091169063b34c8afb9060240160206040518083038186803b1580156112a257600080fd5b505afa1580156112b6573d6000803e3d6000fd5b505050506040513d601f19601f820116820180604052508101906112da9190614de5565b116113145760405162461bcd60e51b815260206004820152600a6024820152692737ba103232b2b832b960b11b60448201526064016110b5565b61131c613370565b6001600160a01b031663eb7d5ddf8460085460006113386108a1565b6040516001600160e01b031960e087901b1681526001600160a01b039094166004850152602484019290925215156044830152606482015260840160006040518083038186803b15801561138b57600080fd5b505afa15801561139f573d6000803e3d6000fd5b505050506113ab613370565b6001600160a01b031663eb7d5ddf8360075460016113c76108a1565b6040516001600160e01b031960e087901b1681526001600160a01b039094166004850152602484019290925215156044830152606482015260840160006040518083038186803b15801561141a57600080fd5b505afa15801561142e573d6000803e3d6000fd5b5050506001600160a01b03808516600090815260046020526040808220805460ff19908116909155928616825290208054909116600190811790915583915060099061147a90846150aa565b8154811061149857634e487b7160e01b600052603260045260246000fd5b9060005260206000200160006101000a8154816001600160a01b0302191690836001600160a01b031602179055506114cf82612a40565b505050565b60006114e88484600085600061271061168d565b90505b9392505050565b6114fa613d50565b6001600160a01b0316336001600160a01b03161480611531575061151c613d95565b6001600160a01b0316336001600160a01b0316145b6115675760405162461bcd60e51b81526020600482015260076024820152664e6f742044414f60c81b60448201526064016110b5565b600692909255600755600855565b600061157f6136df565b6001600160a01b031663e1ac7cfe6040518163ffffffff1660e01b8152600401600060405180830381600087803b1580156115b957600080fd5b505af11580156115cd573d6000803e3d6000fd5b5050505060006115dd8686613dda565b905060006115eb8585613dda565b90506115f93386848461418e565b61160161362a565b6001600160a01b031663fde3b2658887336040518463ffffffff1660e01b815260040161163093929190614f9b565b602060405180830381600087803b15801561164a57600080fd5b505af115801561165e573d6000803e3d6000fd5b505050506040513d601f19601f820116820180604052508101906116829190614de5565b979650505050505050565b600033856116a55761169f8789613dda565b50611735565b6117336116b061362a565b604051636e76408b60e11b81526001600160a01b038a81166004830152919091169063dcec811690602401602060405180830381600087803b1580156116f557600080fd5b505af1158015611709573d6000803e3d6000fd5b505050506040513d601f19601f8201168201806040525081019061172d9190614b3a565b89613dda565b505b600061173f61362a565b604051636c66769560e11b81526001600160a01b038a81166004830152919091169063d8cced2a9060240160206040518083038186803b15801561178257600080fd5b505afa158015611796573d6000803e3d6000fd5b505050506040513d601f19601f820116820180604052508101906117ba9190614db1565b8061184357506117c861362a565b604051636c66769560e11b81526001600160a01b038881166004830152919091169063d8cced2a9060240160206040518083038186803b15801561180b57600080fd5b505afa15801561181f573d6000803e3d6000fd5b505050506040513d601f19601f820116820180604052508101906118439190614db1565b1561185a57506005546001600160a01b0316611865565b611862613794565b90505b61186e86612562565b15611ab6578361187c613370565b6001600160a01b0316632db6e4888b61189361362a565b60405163e6ae1a9760e01b81526001600160a01b038e81166004830152919091169063e6ae1a979060240160206040518083038186803b1580156118d657600080fd5b505afa1580156118ea573d6000803e3d6000fd5b505050506040513d601f19601f8201168201806040525081019061190e9190614de5565b6040516001600160e01b031960e085901b1681526004810192909252602482015260440160206040518083038186803b15801561194a57600080fd5b505afa15801561195e573d6000803e3d6000fd5b505050506040513d601f19601f820116820180604052508101906119829190614de5565b111561198d57600080fd5b86611a255761199a61362a565b6001600160a01b031663efc34aab828a8560016040518563ffffffff1660e01b81526004016119cc9493929190614fbe565b602060405180830381600087803b1580156119e657600080fd5b505af11580156119fa573d6000803e3d6000fd5b505050506040513d601f19601f82011682018060405250810190611a1e9190614de5565b9250611ab1565b611a2d61362a565b6001600160a01b031663e3adb2f6828a856040518463ffffffff1660e01b8152600401611a5c93929190614f9b565b602060405180830381600087803b158015611a7657600080fd5b505af1158015611a8a573d6000803e3d6000fd5b505050506040513d601f19601f82011682018060405250810190611aae9190614de5565b92505b6120e2565b611abf88612562565b15611c545783611acd613370565b6001600160a01b0316632db6e4888b611ae461362a565b60405163b34c8afb60e01b81526001600160a01b038c81166004830152919091169063b34c8afb9060240160206040518083038186803b158015611b2757600080fd5b505afa158015611b3b573d6000803e3d6000fd5b505050506040513d601f19601f82011682018060405250810190611b5f9190614de5565b6040516001600160e01b031960e085901b1681526004810192909252602482015260440160206040518083038186803b158015611b9b57600080fd5b505afa158015611baf573d6000803e3d6000fd5b505050506040513d601f19601f82011682018060405250810190611bd39190614de5565b1115611bde57600080fd5b84611c1d57611beb61362a565b6001600160a01b031663efc34aab82888560006040518563ffffffff1660e01b81526004016119cc9493929190614fbe565b611c2561362a565b6001600160a01b031663d016347e8288856040518463ffffffff1660e01b8152600401611a5c93929190614f9b565b83611c5d613370565b6001600160a01b0316632db6e4888b611c7461362a565b60405163e6ae1a9760e01b81526001600160a01b038e81166004830152919091169063e6ae1a979060240160206040518083038186803b158015611cb757600080fd5b505afa158015611ccb573d6000803e3d6000fd5b505050506040513d601f19601f82011682018060405250810190611cef9190614de5565b6040516001600160e01b031960e085901b1681526004810192909252602482015260440160206040518083038186803b158015611d2b57600080fd5b505afa158015611d3f573d6000803e3d6000fd5b505050506040513d601f19601f82011682018060405250810190611d639190614de5565b1115611d6e57600080fd5b600087611e0f57611d7d61362a565b6001600160a01b031663efc34aab838b611d9561362a565b60016040518563ffffffff1660e01b8152600401611db69493929190614fbe565b602060405180830381600087803b158015611dd057600080fd5b505af1158015611de4573d6000803e3d6000fd5b505050506040513d601f19601f82011682018060405250810190611e089190614de5565b9050611ea2565b611e1761362a565b6001600160a01b031663e3adb2f6838b611e2f61362a565b6040518463ffffffff1660e01b8152600401611e4d93929190614f9b565b602060405180830381600087803b158015611e6757600080fd5b505af1158015611e7b573d6000803e3d6000fd5b505050506040513d601f19601f82011682018060405250810190611e9f9190614de5565b90505b84611eab613370565b6001600160a01b0316632db6e48883611ec261362a565b60405163b34c8afb60e01b81526001600160a01b038d81166004830152919091169063b34c8afb9060240160206040518083038186803b158015611f0557600080fd5b505afa158015611f19573d6000803e3d6000fd5b505050506040513d601f19601f82011682018060405250810190611f3d9190614de5565b6040516001600160e01b031960e085901b1681526004810192909252602482015260440160206040518083038186803b158015611f7957600080fd5b505afa158015611f8d573d6000803e3d6000fd5b505050506040513d601f19601f82011682018060405250810190611fb19190614de5565b1115611fbc57600080fd5b8561205457611fc961362a565b6001600160a01b031663efc34aab83898660006040518563ffffffff1660e01b8152600401611ffb9493929190614fbe565b602060405180830381600087803b15801561201557600080fd5b505af1158015612029573d6000803e3d6000fd5b505050506040513d601f19601f8201168201806040525081019061204d9190614de5565b93506120e0565b61205c61362a565b6001600160a01b031663d016347e8389866040518463ffffffff1660e01b815260040161208b93929190614f9b565b602060405180830381600087803b1580156120a557600080fd5b505af11580156120b9573d6000803e3d6000fd5b505050506040513d601f19601f820116820180604052508101906120dd9190614de5565b93505b505b6120ec8189614234565b6120f68187614234565b6120ff88614421565b61210886614421565b50509695505050505050565b6001600160a01b038083166000908152601360209081526040808320938516835292905220545b92915050565b6006546009541061215157600080fd5b61215961362a565b604051636c66769560e11b81526001600160a01b038381166004830152919091169063d8cced2a9060240160206040518083038186803b15801561219c57600080fd5b505afa1580156121b0573d6000803e3d6000fd5b505050506040513d601f19601f820116820180604052508101906121d49190614db1565b6121dd57600080fd5b600980546001810182557f6e1540171b6c0c960b71a7020d9f60077f6af931a8bbf590da0223dacf75c7af0180546001600160a01b0319166001600160a01b03841690811790915590546000918252600b602052604090912055600a612241613370565b60405163db39dc7960e01b81526001600160a01b038481166004830152670de0b6b3a76400006024830152919091169063db39dc799060440160206040518083038186803b15801561229257600080fd5b505afa1580156122a6573d6000803e3d6000fd5b505050506040513d601f19601f820116820180604052508101906122ca9190614de5565b81546001818101845560009384526020808520909201929092556001600160a01b0384168352600490526040909120805460ff19169091179055610a8181612a40565b612315613d50565b6001600160a01b0316336001600160a01b0316148061234c5750612337613d95565b6001600160a01b0316336001600160a01b0316145b6123825760405162461bcd60e51b81526020600482015260076024820152664e6f742044414f60c81b60448201526064016110b5565b600092909255600155600255565b60008061239b6108a1565b9050806123b0670de0b6b3a76400008561508b565b6114eb919061506b565b60006123c461362a565b604051636c66769560e11b81526001600160a01b038481166004830152919091169063d8cced2a9060240160206040518083038186803b15801561240757600080fd5b505afa15801561241b573d6000803e3d6000fd5b505050506040513d601f19601f8201168201806040525081019061243f9190614db1565b8061213b575061244d61362a565b60405163643fd21560e11b81526001600160a01b038481166004830152919091169063c87fa42a9060240160206040518083038186803b15801561249057600080fd5b505afa1580156124a4573d6000803e3d6000fd5b505050506040513d601f19601f8201168201806040525081019061213b9190614db1565b60006124d26136df565b6001600160a01b03166362cea3406040518163ffffffff1660e01b815260040160206040518083038186803b15801561250a57600080fd5b505afa15801561251e573d6000803e3d6000fd5b505050506040513d601f19601f82011682018060405250810190610a149190614de5565b60008061254d6108a1565b9050670de0b6b3a76400006123b0848361508b565b6005546000906001600160a01b038381169116148061213b5750612584613794565b6001600160a01b0316826001600160a01b0316149050919050565b60006125b1868686868661271061168d565b9695505050505050565b60006114e833858585612e11565b6125d161362a565b60405163643fd21560e11b81526001600160a01b038381166004830152919091169063c87fa42a9060240160206040518083038186803b15801561261457600080fd5b505afa158015612628573d6000803e3d6000fd5b505050506040513d601f19601f8201168201806040525081019061264c9190614db1565b806126d5575061265a61362a565b604051636c66769560e11b81526001600160a01b038381166004830152919091169063d8cced2a9060240160206040518083038186803b15801561269d57600080fd5b505afa1580156126b1573d6000803e3d6000fd5b505050506040513d601f19601f820116820180604052508101906126d59190614db1565b6126de57600080fd5b6001600160a01b03811660009081526004602052604090205460ff16612749576002546003541015612749576001600160a01b0381166000908152600460205260408120805460ff191660019081179091556003805491929091612743908490615053565b90915550505b6040516001600160a01b0382169033907fb2f6cc014bc6265032f32972254d5e024ec51ed94c0aaf2280128336be54a04190600090a350565b60006114e833858585610aa1565b6000806000806127a233888888612b2c565b905080156128fe576127b26136df565b6001600160a01b0316636a529026886127c961362a565b846040518463ffffffff1660e01b81526004016127e893929190614fe8565b602060405180830381600087803b15801561280257600080fd5b505af1158015612816573d6000803e3d6000fd5b505050506040513d601f19601f8201168201806040525081019061283a9190614de5565b5061284361362a565b6001600160a01b031663fde3b2658888336040518463ffffffff1660e01b815260040161287293929190614f9b565b602060405180830381600087803b15801561288c57600080fd5b505af11580156128a0573d6000803e3d6000fd5b505050506040513d601f19601f820116820180604052508101906128c49190614de5565b50336000908152600c602090815260408083206001600160a01b038a168452909152812080548392906128f8908490615053565b90915550505b61290661362a565b6001600160a01b031663d752fab28888886040518463ffffffff1660e01b815260040161293593929190614fe8565b606060405180830381600087803b15801561294f57600080fd5b505af1158015612963573d6000803e3d6000fd5b505050506040513d601f19601f820116820180604052508101906129879190614f6e565b9195509350915061299a338787846144b2565b6129a26136df565b6001600160a01b031663e1ac7cfe6040518163ffffffff1660e01b8152600401600060405180830381600087803b1580156129dc57600080fd5b505af11580156129f0573d6000803e3d6000fd5b505050505093509350939050565b6000612a086136df565b6001600160a01b031663de6ad44e6040518163ffffffff1660e01b815260040160206040518083038186803b15801561250a57600080fd5b6001600160a01b0381166000908152600b60205260409020548015612b2857612a67613370565b60405163db39dc7960e01b81526001600160a01b038481166004830152670de0b6b3a76400006024830152919091169063db39dc799060440160206040518083038186803b158015612ab857600080fd5b505afa158015612acc573d6000803e3d6000fd5b505050506040513d601f19601f82011682018060405250810190612af09190614de5565b600a612afd6001846150aa565b81548110612b1b57634e487b7160e01b600052603260045260246000fd5b6000918252602090912001555b5050565b6000612b36613370565b600154604051635b0b602d60e01b81526001600160a01b0388811660048301528681166024830152604482018690526064820192909252911690635b0b602d9060840160206040518083038186803b158015612b9157600080fd5b505afa158015612ba5573d6000803e3d6000fd5b505050506040513d601f19601f82011682018060405250810190612bc99190614de5565b6005549091506001600160a01b0385811691161415612c0057612bea6124c8565b8110612bfb57612bf86124c8565b90505b610a99565b612c086129fe565b8110610a9957610a966129fe565b612c1e61362a565b60405163643fd21560e11b81526001600160a01b038381166004830152919091169063c87fa42a9060240160206040518083038186803b158015612c6157600080fd5b505afa158015612c75573d6000803e3d6000fd5b505050506040513d601f19601f82011682018060405250810190612c999190614db1565b612ca257600080fd5b612caa61362a565b60405163b34c8afb60e01b81526001600160a01b038481166004830152919091169063b34c8afb9060240160206040518083038186803b158015612ced57600080fd5b505afa158015612d01573d6000803e3d6000fd5b505050506040513d601f19601f82011682018060405250810190612d259190614de5565b612d2d61362a565b60405163b34c8afb60e01b81526001600160a01b038481166004830152919091169063b34c8afb9060240160206040518083038186803b158015612d7057600080fd5b505afa158015612d84573d6000803e3d6000fd5b505050506040513d601f19601f82011682018060405250810190612da89190614de5565b1115612b28576001600160a01b03808316600090815260046020526040808220805460ff1990811690915592841680835281832080549094166001179093555133917fb2f6cc014bc6265032f32972254d5e024ec51ed94c0aaf2280128336be54a04191a35050565b600080612e1c613370565b6001600160a01b038781166000908152600f6020908152604080832089851684528252808320888516845290915290205491169063714270ab9087906040516001600160e01b031960e085901b1681526004810192909252602482015260440160206040518083038186803b158015612e9457600080fd5b505afa158015612ea8573d6000803e3d6000fd5b505050506040513d601f19601f82011682018060405250810190612ecc9190614de5565b90506000612eda8483613dda565b6005549091506001600160a01b0386811691161480612f775750612efc61362a565b604051636c66769560e11b81526001600160a01b038681166004830152919091169063d8cced2a9060240160206040518083038186803b158015612f3f57600080fd5b505afa158015612f53573d6000803e3d6000fd5b505050506040513d601f19601f82011682018060405250810190612f779190614db1565b1561301c57612f8461362a565b6005546001600160a01b039182169163efc34aab911686612fa36136df565b60016040518563ffffffff1660e01b8152600401612fc49493929190614fbe565b602060405180830381600087803b158015612fde57600080fd5b505af1158015612ff2573d6000803e3d6000fd5b505050506040513d601f19601f820116820180604052508101906130169190614de5565b50613162565b613024613794565b6001600160a01b0316856001600160a01b031614806130c1575061304661362a565b60405163643fd21560e11b81526001600160a01b038681166004830152919091169063c87fa42a9060240160206040518083038186803b15801561308957600080fd5b505afa15801561309d573d6000803e3d6000fd5b505050506040513d601f19601f820116820180604052508101906130c19190614db1565b15613162576130ce61362a565b6001600160a01b031663efc34aab6130e4613794565b866130ed6136df565b60016040518563ffffffff1660e01b815260040161310e9493929190614fbe565b602060405180830381600087803b15801561312857600080fd5b505af115801561313c573d6000803e3d6000fd5b505050506040513d601f19601f820116820180604052508101906131609190614de5565b505b60008061316d613370565b604051633552687b60e21b81526001600160a01b038b811660048301526024820186905289811660448301528881166064830152919091169063d549a1ec90608401604080518083038186803b1580156131c657600080fd5b505afa1580156131da573d6000803e3d6000fd5b505050506040513d601f19601f820116820180604052508101906131fe9190614f20565b6001600160a01b03808a166000908152601060209081526040808320938c1683529290529081208054939550919350849261323a9084906150aa565b90915550506001600160a01b038088166000908152601160209081526040808320938a16835292905290812080548592906132769084906150aa565b90915550506001600160a01b038088166000908152601260209081526040808320938a16835292905290812080548392906132b29084906150aa565b909155506132c59050898389868a6146ca565b856001600160a01b0316876001600160a01b03168a6001600160a01b03167f80cf2752eb276900a648b467a8fe8180e3192a2370982e997e928b3dc8b99ba1858760405161331d929190918252602082015260400190565b60405180910390a4613330898884614755565b61333a8787613849565b50979650505050505050565b6009818154811061335657600080fd5b6000918252602090912001546001600160a01b0316905081565b60055460408051634c7d5e9d60e11b815290516000926001600160a01b0316916398fabd3a916004808301926020929190829003018186803b1580156133b557600080fd5b505afa1580156133c9573d6000803e3d6000fd5b505050506040513d601f19601f820116820180604052508101906133ed9190614b3a565b6001600160a01b0316637b0e5c456040518163ffffffff1660e01b815260040160206040518083038186803b15801561342557600080fd5b505afa158015613439573d6000803e3d6000fd5b505050506040513d601f19601f82011682018060405250810190610a149190614b3a565b600061346883612562565b806134f3575061347661362a565b604051632f011bf560e11b81526001600160a01b0385811660048301529190911690635e0237ea90602401602060405180830381600087803b1580156134bb57600080fd5b505af11580156134cf573d6000803e3d6000fd5b505050506040513d601f19601f820116820180604052508101906134f39190614db1565b15613509576135028383614885565b90506114eb565b613512836123ba565b156114eb5761351f61362a565b60405163783ba87960e01b8152600481018490526001600160a01b0385811660248301528681166044830152919091169063783ba87990606401600060405180830381600087803b15801561357357600080fd5b505af1158015613587573d6000803e3d6000fd5b50939695505050505050565b6001600160a01b038086166000908152600f6020908152604080832087851684528252808320938516835292905290812080548492906135d4908490615053565b90915550506001600160a01b038086166000908152600f6020908152604080832087851684528252808320938516835260019093019052908120805486929061361e908490615053565b90915550505050505050565b60055460408051634c7d5e9d60e11b815290516000926001600160a01b0316916398fabd3a916004808301926020929190829003018186803b15801561366f57600080fd5b505afa158015613683573d6000803e3d6000fd5b505050506040513d601f19601f820116820180604052508101906136a79190614b3a565b6001600160a01b031663ebccb5b26040518163ffffffff1660e01b815260040160206040518083038186803b15801561342557600080fd5b60055460408051634c7d5e9d60e11b815290516000926001600160a01b0316916398fabd3a916004808301926020929190829003018186803b15801561372457600080fd5b505afa158015613738573d6000803e3d6000fd5b505050506040513d601f19601f8201168201806040525081019061375c9190614b3a565b6001600160a01b0316639d2cc4366040518163ffffffff1660e01b815260040160206040518083038186803b15801561342557600080fd5b60055460408051634c7d5e9d60e11b815290516000926001600160a01b0316916398fabd3a916004808301926020929190829003018186803b1580156137d957600080fd5b505afa1580156137ed573d6000803e3d6000fd5b505050506040513d601f19601f820116820180604052508101906138119190614b3a565b6001600160a01b031663e2c3b0466040518163ffffffff1660e01b815260040160206040518083038186803b15801561342557600080fd5b6138538282612114565b42101580156138655750613865610997565b15612b28576001600160a01b03808316600090815260136020908152604080832093851683529290529081205461389c90426150aa565b9050600560009054906101000a90046001600160a01b03166001600160a01b0316636b92a3b66040518163ffffffff1660e01b815260040160206040518083038186803b1580156138ec57600080fd5b505afa158015613900573d6000803e3d6000fd5b505050506040513d601f19601f820116820180604052508101906139249190614de5565b61392e9042615053565b6001600160a01b038085166000908152601360209081526040808320938716835292905290812091909155613961613370565b6001600160a01b031663945821af8585856040518463ffffffff1660e01b815260040161399093929190614fe8565b602060405180830381600087803b1580156139aa57600080fd5b505af11580156139be573d6000803e3d6000fd5b505050506040513d601f19601f820116820180604052508101906139e29190614de5565b6001600160a01b038086166000908152601260209081526040808320938816835292905290812080549293508392909190613a1e908490615053565b90915550613a2f9050818585614a52565b613a3884612562565b15613b4757836001600160a01b031663a9059cbb613a5461362a565b6040516001600160e01b031960e084901b1681526001600160a01b03909116600482015260248101849052604401602060405180830381600087803b158015613a9c57600080fd5b505af1158015613ab0573d6000803e3d6000fd5b505050506040513d601f19601f82011682018060405250810190613ad49190614db1565b50613add61362a565b604051633041949b60e01b81526001600160a01b03868116600483015285811660248301529190911690633041949b90604401600060405180830381600087803b158015613b2a57600080fd5b505af1158015613b3e573d6000803e3d6000fd5b50505050613d4a565b613b4f61362a565b604051632f011bf560e11b81526001600160a01b0386811660048301529190911690635e0237ea90602401602060405180830381600087803b158015613b9457600080fd5b505af1158015613ba8573d6000803e3d6000fd5b505050506040513d601f19601f82011682018060405250810190613bcc9190614db1565b15613d4a57836001600160a01b031663a9059cbb613be861362a565b6040516001600160e01b031960e084901b1681526001600160a01b03909116600482015260248101849052604401602060405180830381600087803b158015613c3057600080fd5b505af1158015613c44573d6000803e3d6000fd5b505050506040513d601f19601f82011682018060405250810190613c689190614db1565b50613c7161362a565b6001600160a01b031663469f5c1e856001600160a01b03166382bfefc86040518163ffffffff1660e01b815260040160206040518083038186803b158015613cb857600080fd5b505afa158015613ccc573d6000803e3d6000fd5b505050506040513d601f19601f82011682018060405250810190613cf09190614b3a565b6040516001600160e01b031960e084901b1681526001600160a01b039091166004820152602401600060405180830381600087803b158015613d3157600080fd5b505af1158015613d45573d6000803e3d6000fd5b505050505b50505050565b60055460408051634c7d5e9d60e11b815290516000926001600160a01b0316916398fabd3a916004808301926020929190829003018186803b15801561342557600080fd5b600554604080516360dc208d60e11b815290516000926001600160a01b03169163c1b8411a916004808301926020929190829003018186803b15801561342557600080fd5b6005546000906001600160a01b0384811691161480613e115750613dfc613794565b6001600160a01b0316836001600160a01b0316145b80613e9c5750613e1f61362a565b604051632f011bf560e11b81526001600160a01b0385811660048301529190911690635e0237ea90602401602060405180830381600087803b158015613e6457600080fd5b505af1158015613e78573d6000803e3d6000fd5b505050506040513d601f19601f82011682018060405250810190613e9c9190614db1565b15613fd857508032331415613f4857826001600160a01b0316632ccb1b30613ec261362a565b6040516001600160e01b031960e084901b1681526001600160a01b03909116600482015260248101859052604401602060405180830381600087803b158015613f0a57600080fd5b505af1158015613f1e573d6000803e3d6000fd5b505050506040513d601f19601f82011682018060405250810190613f429190614db1565b50613fd3565b826001600160a01b03166323b872dd33613f6061362a565b856040518463ffffffff1660e01b8152600401613f7f93929190614fe8565b602060405180830381600087803b158015613f9957600080fd5b505af1158015613fad573d6000803e3d6000fd5b505050506040513d601f19601f82011682018060405250810190613fd19190614db1565b505b61213b565b6000836001600160a01b03166370a08231613ff161362a565b6040516001600160e01b031960e084901b1681526001600160a01b03909116600482015260240160206040518083038186803b15801561403057600080fd5b505afa158015614044573d6000803e3d6000fd5b505050506040513d601f19601f820116820180604052508101906140689190614de5565b9050836001600160a01b03166323b872dd3361408261362a565b866040518463ffffffff1660e01b81526004016140a193929190614fe8565b602060405180830381600087803b1580156140bb57600080fd5b505af11580156140cf573d6000803e3d6000fd5b505050506040513d601f19601f820116820180604052508101906140f39190614db1565b5080846001600160a01b03166370a0823161410c61362a565b6040516001600160e01b031960e084901b1681526001600160a01b0390911660048201526024015b60206040518083038186803b15801561414c57600080fd5b505afa158015614160573d6000803e3d6000fd5b505050506040513d601f19601f820116820180604052508101906141849190614de5565b610a9991906150aa565b6001600160a01b038085166000908152600c60209081526040808320938716835292905290812080548492906141c5908490615053565b90915550506001600160a01b038085166000908152600d6020908152604080832093871683529290529081208054839290614201908490615053565b9091555050506001600160a01b039283166000908152600e60209081526040808320949095168252929092525020429055565b61423d81612562565b612b2857600061424b613370565b600054604051635a4a8f2560e11b81526001600160a01b038581166004830152602482019290925291169063b4951e4a9060440160206040518083038186803b15801561429757600080fd5b505afa1580156142ab573d6000803e3d6000fd5b505050506040513d601f19601f820116820180604052508101906142cf9190614de5565b90506142d96136df565b6001600160a01b0316636a529026846142f061362a565b846040518463ffffffff1660e01b815260040161430f93929190614fe8565b602060405180830381600087803b15801561432957600080fd5b505af115801561433d573d6000803e3d6000fd5b505050506040513d601f19601f820116820180604052508101906143619190614de5565b5061436a61362a565b604051633041949b60e01b81526001600160a01b03858116600483015284811660248301529190911690633041949b90604401600060405180830381600087803b1580156143b757600080fd5b505af11580156143cb573d6000803e3d6000fd5b50505050816001600160a01b0316836001600160a01b03167f416b0b234ccd4d6d72c4b1a3a09b472a71981d9bbf0f26ab44774e0e3425fad68360405161441491815260200190565b60405180910390a3505050565b61442961362a565b604051636c66769560e11b81526001600160a01b038381166004830152919091169063d8cced2a9060240160206040518083038186803b15801561446c57600080fd5b505afa158015614480573d6000803e3d6000fd5b505050506040513d601f19601f820116820180604052508101906144a49190614db1565b15610a8157610a8181612a40565b6001600160a01b038085166000908152600c60209081526040808320938716835292905290812080548392906144e9908490615053565b90915550600090506144f9613370565b6001600160a01b038681166000908152600c6020908152604080832089851684529091529081902054905163714270ab60e01b815260048101879052602481019190915291169063714270ab9060440160206040518083038186803b15801561456157600080fd5b505afa158015614575573d6000803e3d6000fd5b505050506040513d601f19601f820116820180604052508101906145999190614de5565b905060006145a5613370565b6001600160a01b038781166000908152600d602090815260408083208a851684529091529081902054905163714270ab60e01b815260048101889052602481019190915291169063714270ab9060440160206040518083038186803b15801561460d57600080fd5b505afa158015614621573d6000803e3d6000fd5b505050506040513d601f19601f820116820180604052508101906146459190614de5565b6001600160a01b038088166000908152600c60209081526040808320938a168352929052908120805492935084929091906146819084906150aa565b90915550506001600160a01b038087166000908152600d60209081526040808320938916835292905290812080548392906146bd9084906150aa565b9091555050505050505050565b6001600160a01b038086166000908152600f60209081526040808320878516845282528083209385168352929052908120805484929061470b9084906150aa565b90915550506001600160a01b038086166000908152600f6020908152604080832087851684528252808320938516835260019093019052908120805486929061361e9084906150aa565b61475e82612562565b806147e9575061476c61362a565b604051632f011bf560e11b81526001600160a01b0384811660048301529190911690635e0237ea90602401602060405180830381600087803b1580156147b157600080fd5b505af11580156147c5573d6000803e3d6000fd5b505050506040513d601f19601f820116820180604052508101906147e99190614db1565b156147fe576147f9828483614a93565b6114cf565b614807826123ba565b156114cf5761481461362a565b60405163798e23d560e01b8152600481018390526001600160a01b0384811660248301528581166044830152919091169063798e23d590606401600060405180830381600087803b15801561486857600080fd5b505af115801561487c573d6000803e3d6000fd5b50505050505050565b6040516370a0823160e01b815230600482015260009081906001600160a01b038516906370a082319060240160206040518083038186803b1580156148c957600080fd5b505afa1580156148dd573d6000803e3d6000fd5b505050506040513d601f19601f820116820180604052508101906149019190614de5565b905032331415614999576040516302ccb1b360e41b8152306004820152602481018490526001600160a01b03851690632ccb1b3090604401602060405180830381600087803b15801561495357600080fd5b505af1158015614967573d6000803e3d6000fd5b505050506040513d601f19601f8201168201806040525081019061498b9190614db1565b61499457600080fd5b614a24565b6040516323b872dd60e01b81526001600160a01b038516906323b872dd906149c990339030908890600401614fe8565b602060405180830381600087803b1580156149e357600080fd5b505af11580156149f7573d6000803e3d6000fd5b505050506040513d601f19601f82011682018060405250810190614a1b9190614db1565b614a2457600080fd5b6040516370a0823160e01b815230600482015281906001600160a01b038616906370a0823190602401614134565b6001600160a01b03808316600090815260106020908152604080832093851683529290529081208054859290614a899084906150aa565b9091555050505050565b60405163a9059cbb60e01b81526001600160a01b0383811660048301526024820183905284169063a9059cbb90604401602060405180830381600087803b158015614add57600080fd5b505af1158015614af1573d6000803e3d6000fd5b505050506040513d601f19601f82011682018060405250810190614b159190614db1565b6114cf57600080fd5b600060208284031215614b2f578081fd5b81356114eb816150ed565b600060208284031215614b4b578081fd5b81516114eb816150ed565b60008060408385031215614b68578081fd5b8235614b73816150ed565b91506020830135614b83816150ed565b809150509250929050565b600080600060608486031215614ba2578081fd5b8335614bad816150ed565b92506020840135614bbd816150ed565b91506040840135614bcd816150ed565b809150509250925092565b60008060008060808587031215614bed578081fd5b8435614bf8816150ed565b93506020850135614c08816150ed565b92506040850135614c18816150ed565b9396929550929360600135925050565b600080600060608486031215614c3c578283fd5b8335614c47816150ed565b92506020840135614c57816150ed565b929592945050506040919091013590565b60008060008060808587031215614c7d578384fd5b8435614c88816150ed565b9350602085013592506040850135614c9f816150ed565b91506060850135614caf816150ed565b939692955090935050565b60008060008060808587031215614ccf578384fd5b8435614cda816150ed565b9350602085013592506040850135614c18816150ed565b60006020808385031215614d03578182fd5b825167ffffffffffffffff80821115614d1a578384fd5b818501915085601f830112614d2d578384fd5b815181811115614d3f57614d3f6150d7565b8060051b604051601f19603f83011681018181108582111715614d6457614d646150d7565b604052828152858101935084860182860187018a1015614d82578788fd5b8795505b83861015614da4578051855260019590950194938601938601614d86565b5098975050505050505050565b600060208284031215614dc2578081fd5b81516114eb81615102565b600060208284031215614dde578081fd5b5035919050565b600060208284031215614df6578081fd5b5051919050565b600080600060608486031215614e11578283fd5b833592506020840135614bbd816150ed565b60008060008060808587031215614e38578182fd5b843593506020850135614c08816150ed565b600080600080600060a08688031215614e61578283fd5b853594506020860135614e73816150ed565b93506040860135614e8381615102565b92506060860135614e93816150ed565b91506080860135614ea381615102565b809150509295509295909350565b60008060008060008060c08789031215614ec9578384fd5b863595506020870135614edb816150ed565b94506040870135614eeb81615102565b93506060870135614efb816150ed565b92506080870135614f0b81615102565b8092505060a087013590509295509295509295565b60008060408385031215614f32578182fd5b505080516020909101519092909150565b600080600060608486031215614f57578081fd5b505081359360208301359350604090920135919050565b600080600060608486031215614f82578081fd5b8351925060208401519150604084015190509250925092565b6001600160a01b0393841681529183166020830152909116604082015260600190565b6001600160a01b039485168152928416602084015292166040820152901515606082015260800190565b6001600160a01b039384168152919092166020820152604081019190915260600190565b6020808252825482820181905260008481528281209092916040850190845b818110156150475783548352600193840193928501920161502b565b50909695505050505050565b60008219821115615066576150666150c1565b500190565b60008261508657634e487b7160e01b81526012600452602481fd5b500490565b60008160001904831182151516156150a5576150a56150c1565b500290565b6000828210156150bc576150bc6150c1565b500390565b634e487b7160e01b600052601160045260246000fd5b634e487b7160e01b600052604160045260246000fd5b6001600160a01b0381168114610a8157600080fd5b8015158114610a8157600080fdfea26469706673582212209739a71096dedbb97c1ce4bbc163b788ad4600ea1bb655646e7d212fd30b267064736f6c63430008030033",
  "linkReferences": {},
  "deployedLinkReferences": {}
}