{
  "_format": "hh-sol-artifact-1",
  "contractName": "Router",
  "sourceName": "contracts/Router.sol",
  "abi": [
    {
      "inputs": [],
      "stateMutability": "nonpayable",
      "type": "constructor"
    },
    {
      "anonymous": false,
      "inputs": [
        {
          "indexed": true,
          "internalType": "address",
          "name": "member",
          "type": "address"
        },
        {
          "indexed": true,
          "internalType": "address",
          "name": "collateralAsset",
          "type": "address"
        },
        {
          "indexed": false,
          "internalType": "uint256",
          "name": "collateralLocked",
          "type": "uint256"
        },
        {
          "indexed": true,
          "internalType": "address",
          "name": "debtAsset",
          "type": "address"
        },
        {
          "indexed": false,
          "internalType": "uint256",
          "name": "debtIssued",
          "type": "uint256"
        }
      ],
      "name": "AddCollateral",
      "type": "event"
    },
    {
      "anonymous": false,
      "inputs": [
        {
          "indexed": true,
          "internalType": "address",
          "name": "curator",
          "type": "address"
        },
        {
          "indexed": true,
          "internalType": "address",
          "name": "token",
          "type": "address"
        }
      ],
      "name": "Curated",
      "type": "event"
    },
    {
      "anonymous": false,
      "inputs": [
        {
          "indexed": true,
          "internalType": "address",
          "name": "base",
          "type": "address"
        },
        {
          "indexed": true,
          "internalType": "address",
          "name": "token",
          "type": "address"
        },
        {
          "indexed": false,
          "internalType": "uint256",
          "name": "amount",
          "type": "uint256"
        }
      ],
      "name": "PoolReward",
      "type": "event"
    },
    {
      "anonymous": false,
      "inputs": [
        {
          "indexed": true,
          "internalType": "address",
          "name": "member",
          "type": "address"
        },
        {
          "indexed": false,
          "internalType": "uint256",
          "name": "amount",
          "type": "uint256"
        }
      ],
      "name": "Protection",
      "type": "event"
    },
    {
      "anonymous": false,
      "inputs": [
        {
          "indexed": true,
          "internalType": "address",
          "name": "member",
          "type": "address"
        },
        {
          "indexed": true,
          "internalType": "address",
          "name": "collateralAsset",
          "type": "address"
        },
        {
          "indexed": false,
          "internalType": "uint256",
          "name": "collateralUnlocked",
          "type": "uint256"
        },
        {
          "indexed": true,
          "internalType": "address",
          "name": "debtAsset",
          "type": "address"
        },
        {
          "indexed": false,
          "internalType": "uint256",
          "name": "debtReturned",
          "type": "uint256"
        }
      ],
      "name": "RemoveCollateral",
      "type": "event"
    },
    {
      "inputs": [],
      "name": "VADER",
      "outputs": [
        {
          "internalType": "address",
          "name": "",
          "type": "address"
        }
      ],
      "stateMutability": "view",
      "type": "function"
    },
    {
      "inputs": [
        {
          "internalType": "address",
          "name": "base",
          "type": "address"
        },
        {
          "internalType": "uint256",
          "name": "inputBase",
          "type": "uint256"
        },
        {
          "internalType": "address",
          "name": "token",
          "type": "address"
        },
        {
          "internalType": "uint256",
          "name": "inputToken",
          "type": "uint256"
        }
      ],
      "name": "addLiquidity",
      "outputs": [
        {
          "internalType": "uint256",
          "name": "",
          "type": "uint256"
        }
      ],
      "stateMutability": "nonpayable",
      "type": "function"
    },
    {
      "inputs": [],
      "name": "anchorLimit",
      "outputs": [
        {
          "internalType": "uint256",
          "name": "",
          "type": "uint256"
        }
      ],
      "stateMutability": "view",
      "type": "function"
    },
    {
      "inputs": [
        {
          "internalType": "uint256",
          "name": "",
          "type": "uint256"
        }
      ],
      "name": "arrayAnchors",
      "outputs": [
        {
          "internalType": "address",
          "name": "",
          "type": "address"
        }
      ],
      "stateMutability": "view",
      "type": "function"
    },
    {
      "inputs": [
        {
          "internalType": "uint256",
          "name": "",
          "type": "uint256"
        }
      ],
      "name": "arrayPrices",
      "outputs": [
        {
          "internalType": "uint256",
          "name": "",
          "type": "uint256"
        }
      ],
      "stateMutability": "view",
      "type": "function"
    },
    {
      "inputs": [
        {
          "internalType": "uint256",
          "name": "amount",
          "type": "uint256"
        },
        {
          "internalType": "address",
          "name": "collateralAsset",
          "type": "address"
        },
        {
          "internalType": "address",
          "name": "debtAsset",
          "type": "address"
        }
      ],
      "name": "borrow",
      "outputs": [
        {
          "internalType": "uint256",
          "name": "",
          "type": "uint256"
        }
      ],
      "stateMutability": "nonpayable",
      "type": "function"
    },
    {
      "inputs": [
        {
          "internalType": "address",
          "name": "member",
          "type": "address"
        },
        {
          "internalType": "uint256",
          "name": "amount",
          "type": "uint256"
        },
        {
          "internalType": "address",
          "name": "collateralAsset",
          "type": "address"
        },
        {
          "internalType": "address",
          "name": "debtAsset",
          "type": "address"
        }
      ],
      "name": "borrowForMember",
      "outputs": [
        {
          "internalType": "uint256",
          "name": "",
          "type": "uint256"
        }
      ],
      "stateMutability": "nonpayable",
      "type": "function"
    },
    {
      "inputs": [],
      "name": "checkLiquidate",
      "outputs": [],
      "stateMutability": "nonpayable",
      "type": "function"
    },
    {
      "inputs": [
        {
          "internalType": "address",
          "name": "token",
          "type": "address"
        }
      ],
      "name": "curatePool",
      "outputs": [],
      "stateMutability": "nonpayable",
      "type": "function"
    },
    {
      "inputs": [],
      "name": "curatedPoolCount",
      "outputs": [
        {
          "internalType": "uint256",
          "name": "",
          "type": "uint256"
        }
      ],
      "stateMutability": "view",
      "type": "function"
    },
    {
      "inputs": [],
      "name": "curatedPoolLimit",
      "outputs": [
        {
          "internalType": "uint256",
          "name": "",
          "type": "uint256"
        }
      ],
      "stateMutability": "view",
      "type": "function"
    },
    {
      "inputs": [],
      "name": "emitting",
      "outputs": [
        {
          "internalType": "bool",
          "name": "",
          "type": "bool"
        }
      ],
      "stateMutability": "view",
      "type": "function"
    },
    {
      "inputs": [],
      "name": "getAnchorPrice",
      "outputs": [
        {
          "internalType": "uint256",
          "name": "anchorPrice",
          "type": "uint256"
        }
      ],
      "stateMutability": "view",
      "type": "function"
    },
    {
      "inputs": [
        {
          "internalType": "address",
          "name": "member",
          "type": "address"
        },
        {
          "internalType": "address",
          "name": "base",
          "type": "address"
        },
        {
          "internalType": "address",
          "name": "token",
          "type": "address"
        },
        {
          "internalType": "uint256",
          "name": "basisPoints",
          "type": "uint256"
        }
      ],
      "name": "getILProtection",
      "outputs": [
        {
          "internalType": "uint256",
          "name": "protection",
          "type": "uint256"
        }
      ],
      "stateMutability": "view",
      "type": "function"
    },
    {
      "inputs": [
        {
          "internalType": "address",
          "name": "member",
          "type": "address"
        },
        {
          "internalType": "address",
          "name": "token",
          "type": "address"
        }
      ],
      "name": "getMemberBaseDeposit",
      "outputs": [
        {
          "internalType": "uint256",
          "name": "",
          "type": "uint256"
        }
      ],
      "stateMutability": "view",
      "type": "function"
    },
    {
      "inputs": [
        {
          "internalType": "address",
          "name": "member",
          "type": "address"
        },
        {
          "internalType": "address",
          "name": "collateralAsset",
          "type": "address"
        },
        {
          "internalType": "address",
          "name": "debtAsset",
          "type": "address"
        }
      ],
      "name": "getMemberCollateral",
      "outputs": [
        {
          "internalType": "uint256",
          "name": "",
          "type": "uint256"
        }
      ],
      "stateMutability": "view",
      "type": "function"
    },
    {
      "inputs": [
        {
          "internalType": "address",
          "name": "member",
          "type": "address"
        },
        {
          "internalType": "address",
          "name": "collateralAsset",
          "type": "address"
        },
        {
          "internalType": "address",
          "name": "debtAsset",
          "type": "address"
        }
      ],
      "name": "getMemberDebt",
      "outputs": [
        {
          "internalType": "uint256",
          "name": "",
          "type": "uint256"
        }
      ],
      "stateMutability": "view",
      "type": "function"
    },
    {
      "inputs": [
        {
          "internalType": "address",
          "name": "member",
          "type": "address"
        },
        {
          "internalType": "address",
          "name": "token",
          "type": "address"
        }
      ],
      "name": "getMemberLastDeposit",
      "outputs": [
        {
          "internalType": "uint256",
          "name": "",
          "type": "uint256"
        }
      ],
      "stateMutability": "view",
      "type": "function"
    },
    {
      "inputs": [
        {
          "internalType": "address",
          "name": "member",
          "type": "address"
        },
        {
          "internalType": "address",
          "name": "token",
          "type": "address"
        }
      ],
      "name": "getMemberTokenDeposit",
      "outputs": [
        {
          "internalType": "uint256",
          "name": "",
          "type": "uint256"
        }
      ],
      "stateMutability": "view",
      "type": "function"
    },
    {
      "inputs": [
        {
          "internalType": "address",
          "name": "collateralAsset",
          "type": "address"
        },
        {
          "internalType": "address",
          "name": "debtAsset",
          "type": "address"
        }
      ],
      "name": "getNextEraTime",
      "outputs": [
        {
          "internalType": "uint256",
          "name": "",
          "type": "uint256"
        }
      ],
      "stateMutability": "view",
      "type": "function"
    },
    {
      "inputs": [
        {
          "internalType": "address",
          "name": "collateralAsset",
          "type": "address"
        },
        {
          "internalType": "address",
          "name": "debtAsset",
          "type": "address"
        }
      ],
      "name": "getSystemCollateral",
      "outputs": [
        {
          "internalType": "uint256",
          "name": "",
          "type": "uint256"
        }
      ],
      "stateMutability": "view",
      "type": "function"
    },
    {
      "inputs": [
        {
          "internalType": "address",
          "name": "collateralAsset",
          "type": "address"
        },
        {
          "internalType": "address",
          "name": "debtAsset",
          "type": "address"
        }
      ],
      "name": "getSystemDebt",
      "outputs": [
        {
          "internalType": "uint256",
          "name": "",
          "type": "uint256"
        }
      ],
      "stateMutability": "view",
      "type": "function"
    },
    {
      "inputs": [
        {
          "internalType": "address",
          "name": "collateralAsset",
          "type": "address"
        },
        {
          "internalType": "address",
          "name": "debtAsset",
          "type": "address"
        }
      ],
      "name": "getSystemInterestPaid",
      "outputs": [
        {
          "internalType": "uint256",
          "name": "",
          "type": "uint256"
        }
      ],
      "stateMutability": "view",
      "type": "function"
    },
    {
      "inputs": [
        {
          "internalType": "uint256",
          "name": "vaderAmount",
          "type": "uint256"
        }
      ],
      "name": "getUSDVAmount",
      "outputs": [
        {
          "internalType": "uint256",
          "name": "USDVAmount",
          "type": "uint256"
        }
      ],
      "stateMutability": "view",
      "type": "function"
    },
    {
      "inputs": [
        {
          "internalType": "uint256",
          "name": "USDVAmount",
          "type": "uint256"
        }
      ],
      "name": "getVADERAmount",
      "outputs": [
        {
          "internalType": "uint256",
          "name": "vaderAmount",
          "type": "uint256"
        }
      ],
      "stateMutability": "view",
      "type": "function"
    },
    {
      "inputs": [
        {
          "internalType": "address",
          "name": "_vader",
          "type": "address"
        }
      ],
      "name": "init",
      "outputs": [],
      "stateMutability": "nonpayable",
      "type": "function"
    },
    {
      "inputs": [],
      "name": "insidePriceLimit",
      "outputs": [
        {
          "internalType": "uint256",
          "name": "",
          "type": "uint256"
        }
      ],
      "stateMutability": "view",
      "type": "function"
    },
    {
      "inputs": [
        {
          "internalType": "address",
          "name": "token",
          "type": "address"
        }
      ],
      "name": "isBase",
      "outputs": [
        {
          "internalType": "bool",
          "name": "base",
          "type": "bool"
        }
      ],
      "stateMutability": "view",
      "type": "function"
    },
    {
      "inputs": [
        {
          "internalType": "address",
          "name": "token",
          "type": "address"
        }
      ],
      "name": "isCurated",
      "outputs": [
        {
          "internalType": "bool",
          "name": "curated",
          "type": "bool"
        }
      ],
      "stateMutability": "view",
      "type": "function"
    },
    {
      "inputs": [
        {
          "internalType": "address",
          "name": "token",
          "type": "address"
        }
      ],
      "name": "isPool",
      "outputs": [
        {
          "internalType": "bool",
          "name": "pool",
          "type": "bool"
        }
      ],
      "stateMutability": "view",
      "type": "function"
    },
    {
      "inputs": [
        {
          "internalType": "address",
          "name": "token",
          "type": "address"
        }
      ],
      "name": "listAnchor",
      "outputs": [],
      "stateMutability": "nonpayable",
      "type": "function"
    },
    {
      "inputs": [
        {
          "internalType": "address",
          "name": "",
          "type": "address"
        },
        {
          "internalType": "address",
          "name": "",
          "type": "address"
        }
      ],
      "name": "mapMemberToken_depositBase",
      "outputs": [
        {
          "internalType": "uint256",
          "name": "",
          "type": "uint256"
        }
      ],
      "stateMutability": "view",
      "type": "function"
    },
    {
      "inputs": [
        {
          "internalType": "address",
          "name": "",
          "type": "address"
        },
        {
          "internalType": "address",
          "name": "",
          "type": "address"
        }
      ],
      "name": "mapMemberToken_depositToken",
      "outputs": [
        {
          "internalType": "uint256",
          "name": "",
          "type": "uint256"
        }
      ],
      "stateMutability": "view",
      "type": "function"
    },
    {
      "inputs": [
        {
          "internalType": "address",
          "name": "",
          "type": "address"
        },
        {
          "internalType": "address",
          "name": "",
          "type": "address"
        }
      ],
      "name": "mapMemberToken_lastDeposited",
      "outputs": [
        {
          "internalType": "uint256",
          "name": "",
          "type": "uint256"
        }
      ],
      "stateMutability": "view",
      "type": "function"
    },
    {
      "inputs": [],
      "name": "outsidePriceLimit",
      "outputs": [
        {
          "internalType": "uint256",
          "name": "",
          "type": "uint256"
        }
      ],
      "stateMutability": "view",
      "type": "function"
    },
    {
      "inputs": [
        {
          "internalType": "address",
          "name": "base",
          "type": "address"
        },
        {
          "internalType": "address",
          "name": "token",
          "type": "address"
        },
        {
          "internalType": "uint256",
          "name": "basisPoints",
          "type": "uint256"
        }
      ],
      "name": "removeLiquidity",
      "outputs": [
        {
          "internalType": "uint256",
          "name": "units",
          "type": "uint256"
        },
        {
          "internalType": "uint256",
          "name": "amountBase",
          "type": "uint256"
        },
        {
          "internalType": "uint256",
          "name": "amountToken",
          "type": "uint256"
        }
      ],
      "stateMutability": "nonpayable",
      "type": "function"
    },
    {
      "inputs": [
        {
          "internalType": "uint256",
          "name": "amount",
          "type": "uint256"
        },
        {
          "internalType": "address",
          "name": "collateralAsset",
          "type": "address"
        },
        {
          "internalType": "address",
          "name": "debtAsset",
          "type": "address"
        }
      ],
      "name": "repay",
      "outputs": [
        {
          "internalType": "uint256",
          "name": "",
          "type": "uint256"
        }
      ],
      "stateMutability": "nonpayable",
      "type": "function"
    },
    {
      "inputs": [],
      "name": "repayDelay",
      "outputs": [
        {
          "internalType": "uint256",
          "name": "",
          "type": "uint256"
        }
      ],
      "stateMutability": "view",
      "type": "function"
    },
    {
      "inputs": [
        {
          "internalType": "address",
          "name": "member",
          "type": "address"
        },
        {
          "internalType": "uint256",
          "name": "basisPoints",
          "type": "uint256"
        },
        {
          "internalType": "address",
          "name": "collateralAsset",
          "type": "address"
        },
        {
          "internalType": "address",
          "name": "debtAsset",
          "type": "address"
        }
      ],
      "name": "repayForMember",
      "outputs": [
        {
          "internalType": "uint256",
          "name": "",
          "type": "uint256"
        }
      ],
      "stateMutability": "nonpayable",
      "type": "function"
    },
    {
      "inputs": [
        {
          "internalType": "address",
          "name": "oldToken",
          "type": "address"
        },
        {
          "internalType": "address",
          "name": "newToken",
          "type": "address"
        }
      ],
      "name": "replaceAnchor",
      "outputs": [],
      "stateMutability": "nonpayable",
      "type": "function"
    },
    {
      "inputs": [
        {
          "internalType": "address",
          "name": "oldToken",
          "type": "address"
        },
        {
          "internalType": "address",
          "name": "newToken",
          "type": "address"
        }
      ],
      "name": "replacePool",
      "outputs": [],
      "stateMutability": "nonpayable",
      "type": "function"
    },
    {
      "inputs": [],
      "name": "reserveUSDV",
      "outputs": [
        {
          "internalType": "uint256",
          "name": "",
          "type": "uint256"
        }
      ],
      "stateMutability": "view",
      "type": "function"
    },
    {
      "inputs": [],
      "name": "reserveVADER",
      "outputs": [
        {
          "internalType": "uint256",
          "name": "",
          "type": "uint256"
        }
      ],
      "stateMutability": "view",
      "type": "function"
    },
    {
      "inputs": [],
      "name": "rewardReductionFactor",
      "outputs": [
        {
          "internalType": "uint256",
          "name": "",
          "type": "uint256"
        }
      ],
      "stateMutability": "view",
      "type": "function"
    },
    {
      "inputs": [
        {
          "internalType": "uint256",
          "name": "newLimit",
          "type": "uint256"
        },
        {
          "internalType": "uint256",
          "name": "newInside",
          "type": "uint256"
        },
        {
          "internalType": "uint256",
          "name": "newOutside",
          "type": "uint256"
        }
      ],
      "name": "setAnchorParams",
      "outputs": [],
      "stateMutability": "nonpayable",
      "type": "function"
    },
    {
      "inputs": [
        {
          "internalType": "uint256",
          "name": "newFactor",
          "type": "uint256"
        },
        {
          "internalType": "uint256",
          "name": "newTime",
          "type": "uint256"
        },
        {
          "internalType": "uint256",
          "name": "newLimit",
          "type": "uint256"
        }
      ],
      "name": "setParams",
      "outputs": [],
      "stateMutability": "nonpayable",
      "type": "function"
    },
    {
      "inputs": [
        {
          "internalType": "uint256",
          "name": "inputAmount",
          "type": "uint256"
        },
        {
          "internalType": "address",
          "name": "inputToken",
          "type": "address"
        },
        {
          "internalType": "address",
          "name": "outputToken",
          "type": "address"
        }
      ],
      "name": "swap",
      "outputs": [
        {
          "internalType": "uint256",
          "name": "outputAmount",
          "type": "uint256"
        }
      ],
      "stateMutability": "nonpayable",
      "type": "function"
    },
    {
      "inputs": [
        {
          "internalType": "uint256",
          "name": "inputAmount",
          "type": "uint256"
        },
        {
          "internalType": "address",
          "name": "inputToken",
          "type": "address"
        },
        {
          "internalType": "address",
          "name": "outputToken",
          "type": "address"
        },
        {
          "internalType": "uint256",
          "name": "slipLimit",
          "type": "uint256"
        }
      ],
      "name": "swapWithLimit",
      "outputs": [
        {
          "internalType": "uint256",
          "name": "outputAmount",
          "type": "uint256"
        }
      ],
      "stateMutability": "nonpayable",
      "type": "function"
    },
    {
      "inputs": [
        {
          "internalType": "uint256",
          "name": "inputAmount",
          "type": "uint256"
        },
        {
          "internalType": "address",
          "name": "inputToken",
          "type": "address"
        },
        {
          "internalType": "bool",
          "name": "inSynth",
          "type": "bool"
        },
        {
          "internalType": "address",
          "name": "outputToken",
          "type": "address"
        },
        {
          "internalType": "bool",
          "name": "outSynth",
          "type": "bool"
        }
      ],
      "name": "swapWithSynths",
      "outputs": [
        {
          "internalType": "uint256",
          "name": "outputAmount",
          "type": "uint256"
        }
      ],
      "stateMutability": "nonpayable",
      "type": "function"
    },
    {
      "inputs": [
        {
          "internalType": "uint256",
          "name": "inputAmount",
          "type": "uint256"
        },
        {
          "internalType": "address",
          "name": "inputToken",
          "type": "address"
        },
        {
          "internalType": "bool",
          "name": "inSynth",
          "type": "bool"
        },
        {
          "internalType": "address",
          "name": "outputToken",
          "type": "address"
        },
        {
          "internalType": "bool",
          "name": "outSynth",
          "type": "bool"
        },
        {
          "internalType": "uint256",
          "name": "slipLimit",
          "type": "uint256"
        }
      ],
      "name": "swapWithSynthsWithLimit",
      "outputs": [
        {
          "internalType": "uint256",
          "name": "outputAmount",
          "type": "uint256"
        }
      ],
      "stateMutability": "nonpayable",
      "type": "function"
    },
    {
      "inputs": [],
      "name": "timeForFullProtection",
      "outputs": [
        {
          "internalType": "uint256",
          "name": "",
          "type": "uint256"
        }
      ],
      "stateMutability": "view",
      "type": "function"
    },
    {
      "inputs": [
        {
          "internalType": "address",
          "name": "token",
          "type": "address"
        }
      ],
      "name": "updateAnchorPrice",
      "outputs": [],
      "stateMutability": "nonpayable",
      "type": "function"
    }
  ],
  "bytecode": "0x6080604052670de0b6b3a7640000600055610e10600c5534801561002257600080fd5b506150d3806100326000396000f3fe608060405234801561001057600080fd5b506004361061030c5760003560e01c8063774d70e41161019d578063d8489152116100e9578063e8b8cfa0116100a2578063fcf476861161007c578063fcf476861461075d578063fdc59b8214610770578063fde3bbe91461079b578063ff8b83a6146107e75761030c565b8063e8b8cfa01461070c578063e9b6e4481461071f578063f550394e146107325761030c565b8063d848915214610663578063de6ad44e1461066c578063e0f52db314610674578063e2e1e48f146106ad578063e6048ff8146106c0578063e672f6ad146106d35761030c565b8063c883b2e511610156578063cfa701c511610130578063cfa701c5146105d6578063d2b433731461060f578063d516418414610622578063d752fab2146106355761030c565b8063c883b2e5146105a7578063cbc17db3146105ba578063cf8bc715146105cd5761030c565b8063774d70e41461050b57806382eb72331461051e5780638bc51e361461055757806399a485f514610560578063a9d1c09e14610573578063ae746f021461059e5761030c565b806337785d211161025c5780635a0ce6761161021557806362cea340116101ef57806362cea340146104a45780636a87def5146104ac5780636cc06ded146104e55780636e899aa3146104f85761030c565b80635a0ce6761461046b5780635a4dd3f21461047e5780635b16ebb7146104915761030c565b806337785d211461041b57806337f3d2d41461042e57806339e68f53146104415780634eb6887a14610454578063531984381461045d57806358b27216146104665761030c565b80631ab73ef5116102c95780632b7f0923116102a35780632b7f0923146103d95780632e2d0856146103ec5780633494c8e8146103ff578063376d3d5d146104085761030c565b80631ab73ef5146103aa5780631df6acfd146103bd578063273961e6146103d05761030c565b80630168131514610311578063038e5eaa146103415780630781f4d21461035757806317af50e51461036f57806319ab453c146103825780631a60982714610397575b600080fd5b600654610324906001600160a01b031681565b6040516001600160a01b0390911681526020015b60405180910390f35b610349610820565b604051908152602001610338565b61035f6108f0565b6040519015158152602001610338565b61034961037d366004614d3f565b610972565b610395610390366004614a90565b610993565b005b6103496103a5366004614d95565b6109df565b6103496103b8366004614bda565b6109fc565b6103956103cb366004614ac8565b610fbe565b61034960025481565b6103496103e7366004614d6f565b6113d6565b6103956103fa366004614eb5565b6113f4565b61034960075481565b610349610416366004614c2c565b611477565b610349610429366004614e23565b61158f565b61034961043c366004614ac8565b611fd8565b61039561044f366004614a90565b612005565b610349600c5481565b61034960035481565b610395565b610395610479366004614eb5565b6121bd565b61034961048c366004614d3f565b612240565b61035f61049f366004614a90565b61226f565b61034961238a565b6103496104ba366004614ac8565b6001600160a01b039182166000908152600f6020908152604080832093909416825291909152205490565b6103496104f3366004614d3f565b612404565b61035f610506366004614a90565b61241f565b61035f610519366004614a90565b612463565b61034961052c366004614ac8565b6001600160a01b03918216600090815260126020908152604080832093909416825291909152205490565b61034960045481565b61034961056e366004614dbc565b61248c565b610349610581366004614ac8565b600f60209081526000928352604080842090915290825290205481565b61034960085481565b6103496105b5366004614d6f565b6124a8565b6103496105c8366004614b00565b6124b6565b61034960015481565b6103496105e4366004614ac8565b6001600160a01b039182166000908152600e6020908152604080832093909416825291909152205490565b61039561061d366004614a90565b6124f2565b610349610630366004614d6f565b612698565b610648610643366004614b9a565b6126a6565b60408051938452602084019290925290820152606001610338565b61034960095481565b610349612914565b610349610682366004614ac8565b6001600160a01b03918216600090815260136020908152604080832093909416825291909152205490565b6103956106bb366004614a90565b612956565b6103496106ce366004614b4a565b612aa9565b6103496106e1366004614ac8565b6001600160a01b03918216600090815260116020908152604080832093909416825291909152205490565b61039561071a366004614ac8565b612b93565b61034961072d366004614bda565b612d8e565b610349610740366004614ac8565b600d60209081526000928352604080842090915290825290205481565b61032461076b366004614d3f565b6132a1565b61034961077e366004614ac8565b600e60209081526000928352604080842090915290825290205481565b6103496107a9366004614b00565b6001600160a01b0380841660009081526010602090815260408083208685168452600101825280832093851683526002909301905220549392505050565b6103496107f5366004614ac8565b6001600160a01b039182166000908152600d6020908152604080832093909416825291909152205490565b600b54600090156108e85760006108356132cb565b6001600160a01b031663e379976e600b6040518263ffffffff1660e01b81526004016108619190614f7e565b60006040518083038186803b15801561087957600080fd5b505afa15801561088d573d6000803e3d6000fd5b505050506040513d6000823e601f3d908101601f191682016040526108b59190810190614c63565b9050806002815181106108d857634e487b7160e01b600052603260045260246000fd5b60200260200101519150506108ed565b506000545b90565b600654604080516303c0fa6960e11b815290516000926001600160a01b031691630781f4d2916004808301926020929190829003018186803b15801561093557600080fd5b505afa158015610949573d6000803e3d6000fd5b505050506040513d601f19601f8201168201806040525081019061096d9190614d23565b905090565b600b818154811061098257600080fd5b600091825260209091200154905081565b6006546001600160a01b03166109dc57600680546001600160a01b0319166001600160a01b03831617905560018080556002819055600355600560075560c86008556101f46009555b50565b60006109f1858560008660008761158f565b90505b949350505050565b6000610a066132cb565b60405163cf975e7b60e01b81526001600160a01b0385811660048301528481166024830152919091169063cf975e7b90604401600060405180830381600087803b158015610a5357600080fd5b505af1158015610a67573d6000803e3d6000fd5b505050506000610a788685876133b8565b9050600080610a856132cb565b604051635c22141f60e01b81526001600160a01b038a8116600483015260248201869052888116604483015287811660648301529190911690635c22141f906084016040805180830381600087803b158015610ae057600080fd5b505af1158015610af4573d6000803e3d6000fd5b505050506040513d601f19601f82011682018060405250810190610b189190614e92565b6001600160a01b038089166000908152601160209081526040808320938b16835292905290812080549395509193508592610b54908490614fc5565b90915550506001600160a01b03808716600090815260126020908152604080832093891683529290529081208054849290610b90908490614fc5565b90915550610ba3905088848885896134ee565b6006546001600160a01b0387811691161480610c3d5750610bc2613590565b604051636c66769560e11b81526001600160a01b038781166004830152919091169063d8cced2a9060240160206040518083038186803b158015610c0557600080fd5b505afa158015610c19573d6000803e3d6000fd5b505050506040513d601f19601f82011682018060405250810190610c3d9190614d23565b15610d7257610c4a613645565b6006546001600160a01b039182169163a76a50d49116610c68613590565b846040518463ffffffff1660e01b8152600401610c8793929190614f5a565b602060405180830381600087803b158015610ca157600080fd5b505af1158015610cb5573d6000803e3d6000fd5b505050506040513d601f19601f82011682018060405250810190610cd99190614d57565b50610ce2613590565b60065460405163efc34aab60e01b81526001600160a01b039283169263efc34aab92610d1a9291169089908d90600090600401614f30565b602060405180830381600087803b158015610d3457600080fd5b505af1158015610d48573d6000803e3d6000fd5b505050506040513d601f19601f82011682018060405250810190610d6c9190614d57565b50610f49565b610d7a6136fa565b6001600160a01b0316866001600160a01b03161480610e175750610d9c613590565b60405163643fd21560e11b81526001600160a01b038781166004830152919091169063c87fa42a9060240160206040518083038186803b158015610ddf57600080fd5b505afa158015610df3573d6000803e3d6000fd5b505050506040513d601f19601f82011682018060405250810190610e179190614d23565b15610f4957610e24613645565b6001600160a01b031663a76a50d4610e3a6136fa565b610e42613590565b846040518463ffffffff1660e01b8152600401610e6193929190614f5a565b602060405180830381600087803b158015610e7b57600080fd5b505af1158015610e8f573d6000803e3d6000fd5b505050506040513d601f19601f82011682018060405250810190610eb39190614d57565b50610ebc613590565b6001600160a01b031663efc34aab610ed26136fa565b878b60006040518563ffffffff1660e01b8152600401610ef59493929190614f30565b602060405180830381600087803b158015610f0f57600080fd5b505af1158015610f23573d6000803e3d6000fd5b505050506040513d601f19601f82011682018060405250810190610f479190614d57565b505b846001600160a01b0316866001600160a01b0316896001600160a01b03167fae998ad28d77f73e6eb1de185a4d9c3656e19b47125aa0e732ceabecefdd30618a86604051610fa1929190918252602082015260400190565b60405180910390a4610fb386866137af565b509695505050505050565b610fc6613590565b604051636c66769560e11b81526001600160a01b038381166004830152919091169063d8cced2a9060240160206040518083038186803b15801561100957600080fd5b505afa15801561101d573d6000803e3d6000fd5b505050506040513d601f19601f820116820180604052508101906110419190614d23565b61107f5760405162461bcd60e51b815260206004820152600a6024820152692737ba1030b731b437b960b11b60448201526064015b60405180910390fd5b611087613590565b60405163b34c8afb60e01b81526001600160a01b038481166004830152919091169063b34c8afb9060240160206040518083038186803b1580156110ca57600080fd5b505afa1580156110de573d6000803e3d6000fd5b505050506040513d601f19601f820116820180604052508101906111029190614d57565b61110a613590565b60405163b34c8afb60e01b81526001600160a01b038481166004830152919091169063b34c8afb9060240160206040518083038186803b15801561114d57600080fd5b505afa158015611161573d6000803e3d6000fd5b505050506040513d601f19601f820116820180604052508101906111859190614d57565b116111bf5760405162461bcd60e51b815260206004820152600a6024820152692737ba103232b2b832b960b11b6044820152606401611076565b6111c76132cb565b6001600160a01b031663eb7d5ddf8360095460006111e3610820565b6040516001600160e01b031960e087901b1681526001600160a01b039094166004850152602484019290925215156044830152606482015260840160006040518083038186803b15801561123657600080fd5b505afa15801561124a573d6000803e3d6000fd5b505050506112566132cb565b6001600160a01b031663eb7d5ddf826008546001611272610820565b6040516001600160e01b031960e087901b1681526001600160a01b039094166004850152602484019290925215156044830152606482015260840160006040518083038186803b1580156112c557600080fd5b505afa1580156112d9573d6000803e3d6000fd5b505050506001600160a01b03828116600090815260056020526040808220805460ff199081169091559284168252812080549092166001179091555b600a548110156113c857826001600160a01b0316600a828154811061134a57634e487b7160e01b600052603260045260246000fd5b6000918252602090912001546001600160a01b031614156113b65781600a828154811061138757634e487b7160e01b600052603260045260246000fd5b9060005260206000200160006101000a8154816001600160a01b0302191690836001600160a01b031602179055505b806113c081615033565b915050611315565b506113d281612956565b5050565b60006113ea8484600085600061271061158f565b90505b9392505050565b6113fc613cb6565b6001600160a01b0316336001600160a01b03161480611433575061141e613cfb565b6001600160a01b0316336001600160a01b0316145b6114695760405162461bcd60e51b81526020600482015260076024820152664e6f742044414f60c81b6044820152606401611076565b600792909255600855600955565b6000611481613645565b6001600160a01b031663e1ac7cfe6040518163ffffffff1660e01b8152600401600060405180830381600087803b1580156114bb57600080fd5b505af11580156114cf573d6000803e3d6000fd5b5050505060006114df8686613d40565b905060006114ed8585613d40565b90506114fb338684846140f4565b611503613590565b6001600160a01b031663fde3b2658887336040518463ffffffff1660e01b815260040161153293929190614f0d565b602060405180830381600087803b15801561154c57600080fd5b505af1158015611560573d6000803e3d6000fd5b505050506040513d601f19601f820116820180604052508101906115849190614d57565b979650505050505050565b600033856115a7576115a18789613d40565b50611637565b6116356115b2613590565b604051636e76408b60e11b81526001600160a01b038a81166004830152919091169063dcec811690602401602060405180830381600087803b1580156115f757600080fd5b505af115801561160b573d6000803e3d6000fd5b505050506040513d601f19601f8201168201806040525081019061162f9190614aac565b89613d40565b505b6000611641613590565b604051636c66769560e11b81526001600160a01b038a81166004830152919091169063d8cced2a9060240160206040518083038186803b15801561168457600080fd5b505afa158015611698573d6000803e3d6000fd5b505050506040513d601f19601f820116820180604052508101906116bc9190614d23565b8061174557506116ca613590565b604051636c66769560e11b81526001600160a01b038881166004830152919091169063d8cced2a9060240160206040518083038186803b15801561170d57600080fd5b505afa158015611721573d6000803e3d6000fd5b505050506040513d601f19601f820116820180604052508101906117459190614d23565b1561175c57506006546001600160a01b0316611767565b6117646136fa565b90505b6117708661241f565b156119b8578361177e6132cb565b6001600160a01b0316632db6e4888b611795613590565b60405163e6ae1a9760e01b81526001600160a01b038e81166004830152919091169063e6ae1a979060240160206040518083038186803b1580156117d857600080fd5b505afa1580156117ec573d6000803e3d6000fd5b505050506040513d601f19601f820116820180604052508101906118109190614d57565b6040516001600160e01b031960e085901b1681526004810192909252602482015260440160206040518083038186803b15801561184c57600080fd5b505afa158015611860573d6000803e3d6000fd5b505050506040513d601f19601f820116820180604052508101906118849190614d57565b111561188f57600080fd5b866119275761189c613590565b6001600160a01b031663efc34aab828a8560016040518563ffffffff1660e01b81526004016118ce9493929190614f30565b602060405180830381600087803b1580156118e857600080fd5b505af11580156118fc573d6000803e3d6000fd5b505050506040513d601f19601f820116820180604052508101906119209190614d57565b92506119b3565b61192f613590565b6001600160a01b031663e3adb2f6828a856040518463ffffffff1660e01b815260040161195e93929190614f0d565b602060405180830381600087803b15801561197857600080fd5b505af115801561198c573d6000803e3d6000fd5b505050506040513d601f19601f820116820180604052508101906119b09190614d57565b92505b611fa6565b6119c18861241f565b15611b5657836119cf6132cb565b6001600160a01b0316632db6e4888b6119e6613590565b60405163b34c8afb60e01b81526001600160a01b038c81166004830152919091169063b34c8afb9060240160206040518083038186803b158015611a2957600080fd5b505afa158015611a3d573d6000803e3d6000fd5b505050506040513d601f19601f82011682018060405250810190611a619190614d57565b6040516001600160e01b031960e085901b1681526004810192909252602482015260440160206040518083038186803b158015611a9d57600080fd5b505afa158015611ab1573d6000803e3d6000fd5b505050506040513d601f19601f82011682018060405250810190611ad59190614d57565b1115611ae057600080fd5b84611b1f57611aed613590565b6001600160a01b031663efc34aab82888560006040518563ffffffff1660e01b81526004016118ce9493929190614f30565b611b27613590565b6001600160a01b031663d016347e8288856040518463ffffffff1660e01b815260040161195e93929190614f0d565b611b5f8861241f565b158015611b725750611b708661241f565b155b15611fa65783611b806132cb565b6001600160a01b0316632db6e4888b611b97613590565b60405163e6ae1a9760e01b81526001600160a01b038e81166004830152919091169063e6ae1a979060240160206040518083038186803b158015611bda57600080fd5b505afa158015611bee573d6000803e3d6000fd5b505050506040513d601f19601f82011682018060405250810190611c129190614d57565b6040516001600160e01b031960e085901b1681526004810192909252602482015260440160206040518083038186803b158015611c4e57600080fd5b505afa158015611c62573d6000803e3d6000fd5b505050506040513d601f19601f82011682018060405250810190611c869190614d57565b1115611c9157600080fd5b86611d2f57611c9e613590565b6001600160a01b031663efc34aab828a611cb6613590565b60016040518563ffffffff1660e01b8152600401611cd79493929190614f30565b602060405180830381600087803b158015611cf157600080fd5b505af1158015611d05573d6000803e3d6000fd5b505050506040513d601f19601f82011682018060405250810190611d299190614d57565b50611dc1565b611d37613590565b6001600160a01b031663e3adb2f6828a611d4f613590565b6040518463ffffffff1660e01b8152600401611d6d93929190614f0d565b602060405180830381600087803b158015611d8757600080fd5b505af1158015611d9b573d6000803e3d6000fd5b505050506040513d601f19601f82011682018060405250810190611dbf9190614d57565b505b83611dca6132cb565b6001600160a01b0316632db6e4888b611de1613590565b60405163b34c8afb60e01b81526001600160a01b038c81166004830152919091169063b34c8afb9060240160206040518083038186803b158015611e2457600080fd5b505afa158015611e38573d6000803e3d6000fd5b505050506040513d601f19601f82011682018060405250810190611e5c9190614d57565b6040516001600160e01b031960e085901b1681526004810192909252602482015260440160206040518083038186803b158015611e9857600080fd5b505afa158015611eac573d6000803e3d6000fd5b505050506040513d601f19601f82011682018060405250810190611ed09190614d57565b1115611edb57600080fd5b84611f1a57611ee8613590565b6001600160a01b031663efc34aab82888560006040518563ffffffff1660e01b815260040161195e9493929190614f30565b611f22613590565b6001600160a01b031663d016347e8288856040518463ffffffff1660e01b8152600401611f5193929190614f0d565b602060405180830381600087803b158015611f6b57600080fd5b505af1158015611f7f573d6000803e3d6000fd5b505050506040513d601f19601f82011682018060405250810190611fa39190614d57565b92505b611fb0818961419a565b611fba818761419a565b611fc388614387565b611fcc86614387565b50509695505050505050565b6001600160a01b038083166000908152601460209081526040808320938516835292905220545b92915050565b600754600a541061201557600080fd5b61201d613590565b604051636c66769560e11b81526001600160a01b038381166004830152919091169063d8cced2a9060240160206040518083038186803b15801561206057600080fd5b505afa158015612074573d6000803e3d6000fd5b505050506040513d601f19601f820116820180604052508101906120989190614d23565b6120a157600080fd5b600a80546001810182556000919091527fc65a7bb8d6351c1cf70c95a316cc6a92839c986682d98bc35f958f4883f9d2a80180546001600160a01b0319166001600160a01b038316179055600b6120f66132cb565b60005460405163db39dc7960e01b81526001600160a01b038581166004830152602482019290925291169063db39dc799060440160206040518083038186803b15801561214257600080fd5b505afa158015612156573d6000803e3d6000fd5b505050506040513d601f19601f8201168201806040525081019061217a9190614d57565b81546001818101845560009384526020808520909201929092556001600160a01b0384168352600590526040909120805460ff191690911790556109dc81612956565b6121c5613cb6565b6001600160a01b0316336001600160a01b031614806121fc57506121e7613cfb565b6001600160a01b0316336001600160a01b0316145b6122325760405162461bcd60e51b81526020600482015260076024820152664e6f742044414f60c81b6044820152606401611076565b600192909255600255600355565b60008061224b610820565b9050806000548461225c9190614ffd565b6122669190614fdd565b9150505b919050565b6000612279613590565b604051636c66769560e11b81526001600160a01b038481166004830152919091169063d8cced2a9060240160206040518083038186803b1580156122bc57600080fd5b505afa1580156122d0573d6000803e3d6000fd5b505050506040513d601f19601f820116820180604052508101906122f49190614d23565b8061237d5750612302613590565b60405163643fd21560e11b81526001600160a01b038481166004830152919091169063c87fa42a9060240160206040518083038186803b15801561234557600080fd5b505afa158015612359573d6000803e3d6000fd5b505050506040513d601f19601f8201168201806040525081019061237d9190614d23565b1561226a57506001919050565b6000612394613645565b6001600160a01b03166362cea3406040518163ffffffff1660e01b815260040160206040518083038186803b1580156123cc57600080fd5b505afa1580156123e0573d6000803e3d6000fd5b505050506040513d601f19601f8201168201806040525081019061096d9190614d57565b60008061240f610820565b60005490915061225c8483614ffd565b6006546000906001600160a01b038381169116148061245657506124416136fa565b6001600160a01b0316826001600160a01b0316145b1561226a5750600161226a565b6001600160a01b03811660009081526005602052604081205460ff161561226a57506001919050565b600061249e868686868661271061158f565b9695505050505050565b60006113ea33858585612d8e565b6001600160a01b039283166000908152601060209081526040808320948616835260019485018252808320939095168252919092019052205490565b6124fa613590565b60405163643fd21560e11b81526001600160a01b038381166004830152919091169063c87fa42a9060240160206040518083038186803b15801561253d57600080fd5b505afa158015612551573d6000803e3d6000fd5b505050506040513d601f19601f820116820180604052508101906125759190614d23565b806125fe5750612583613590565b604051636c66769560e11b81526001600160a01b038381166004830152919091169063d8cced2a9060240160206040518083038186803b1580156125c657600080fd5b505afa1580156125da573d6000803e3d6000fd5b505050506040513d601f19601f820116820180604052508101906125fe9190614d23565b61260757600080fd5b61261081612463565b61265f57600354600454101561265f576001600160a01b0381166000908152600560205260408120805460ff191660019081179091556004805491929091612659908490614fc5565b90915550505b6040516001600160a01b0382169033907fb2f6cc014bc6265032f32972254d5e024ec51ed94c0aaf2280128336be54a04190600090a350565b60006113ea338585856109fc565b6000806000806126b833888888612aa9565b90508015612814576126c8613645565b6001600160a01b0316636a529026886126df613590565b846040518463ffffffff1660e01b81526004016126fe93929190614f5a565b602060405180830381600087803b15801561271857600080fd5b505af115801561272c573d6000803e3d6000fd5b505050506040513d601f19601f820116820180604052508101906127509190614d57565b50612759613590565b6001600160a01b031663fde3b2658888336040518463ffffffff1660e01b815260040161278893929190614f0d565b602060405180830381600087803b1580156127a257600080fd5b505af11580156127b6573d6000803e3d6000fd5b505050506040513d601f19601f820116820180604052508101906127da9190614d57565b50336000908152600d602090815260408083206001600160a01b038a1684529091528120805483929061280e908490614fc5565b90915550505b61281c613590565b6001600160a01b031663d752fab28888886040518463ffffffff1660e01b815260040161284b93929190614f5a565b606060405180830381600087803b15801561286557600080fd5b505af1158015612879573d6000803e3d6000fd5b505050506040513d601f19601f8201168201806040525081019061289d9190614ee0565b919550935091506128b033878784614418565b6128b8613645565b6001600160a01b031663e1ac7cfe6040518163ffffffff1660e01b8152600401600060405180830381600087803b1580156128f257600080fd5b505af1158015612906573d6000803e3d6000fd5b505050505093509350939050565b600061291e613645565b6001600160a01b031663de6ad44e6040518163ffffffff1660e01b815260040160206040518083038186803b1580156123cc57600080fd5b60005b600a548110156113d257816001600160a01b0316600a828154811061298e57634e487b7160e01b600052603260045260246000fd5b6000918252602090912001546001600160a01b03161415612a97576129b16132cb565b6001600160a01b031663db39dc79600a83815481106129e057634e487b7160e01b600052603260045260246000fd5b6000918252602082200154905460405160e084901b6001600160e01b03191681526001600160a01b039092166004830152602482015260440160206040518083038186803b158015612a3157600080fd5b505afa158015612a45573d6000803e3d6000fd5b505050506040513d601f19601f82011682018060405250810190612a699190614d57565b600b8281548110612a8a57634e487b7160e01b600052603260045260246000fd5b6000918252602090912001555b80612aa181615033565b915050612959565b6000612ab36132cb565b600254604051635b0b602d60e01b81526001600160a01b0388811660048301528681166024830152604482018690526064820192909252911690635b0b602d9060840160206040518083038186803b158015612b0e57600080fd5b505afa158015612b22573d6000803e3d6000fd5b505050506040513d601f19601f82011682018060405250810190612b469190614d57565b6006549091506001600160a01b0385811691161415612b7d57612b6761238a565b8110612b7857612b7561238a565b90505b6109f4565b612b85612914565b81106109f4576109f1612914565b612b9b613590565b60405163643fd21560e11b81526001600160a01b038381166004830152919091169063c87fa42a9060240160206040518083038186803b158015612bde57600080fd5b505afa158015612bf2573d6000803e3d6000fd5b505050506040513d601f19601f82011682018060405250810190612c169190614d23565b612c1f57600080fd5b612c27613590565b60405163b34c8afb60e01b81526001600160a01b038481166004830152919091169063b34c8afb9060240160206040518083038186803b158015612c6a57600080fd5b505afa158015612c7e573d6000803e3d6000fd5b505050506040513d601f19601f82011682018060405250810190612ca29190614d57565b612caa613590565b60405163b34c8afb60e01b81526001600160a01b038481166004830152919091169063b34c8afb9060240160206040518083038186803b158015612ced57600080fd5b505afa158015612d01573d6000803e3d6000fd5b505050506040513d601f19601f82011682018060405250810190612d259190614d57565b11156113d2576001600160a01b03808316600090815260056020526040808220805460ff1990811690915592841680835281832080549094166001179093555133917fb2f6cc014bc6265032f32972254d5e024ec51ed94c0aaf2280128336be54a04191a35050565b600080612d996132cb565b6001600160a01b031663714270ab86612db38988886124b6565b6040516001600160e01b031960e085901b1681526004810192909252602482015260440160206040518083038186803b158015612def57600080fd5b505afa158015612e03573d6000803e3d6000fd5b505050506040513d601f19601f82011682018060405250810190612e279190614d57565b90506000612e358483613d40565b6006549091506001600160a01b0386811691161480612ed25750612e57613590565b604051636c66769560e11b81526001600160a01b038681166004830152919091169063d8cced2a9060240160206040518083038186803b158015612e9a57600080fd5b505afa158015612eae573d6000803e3d6000fd5b505050506040513d601f19601f82011682018060405250810190612ed29190614d23565b15612f7757612edf613590565b6006546001600160a01b039182169163efc34aab911686612efe613645565b60016040518563ffffffff1660e01b8152600401612f1f9493929190614f30565b602060405180830381600087803b158015612f3957600080fd5b505af1158015612f4d573d6000803e3d6000fd5b505050506040513d601f19601f82011682018060405250810190612f719190614d57565b506130bd565b612f7f6136fa565b6001600160a01b0316856001600160a01b0316148061301c5750612fa1613590565b60405163643fd21560e11b81526001600160a01b038681166004830152919091169063c87fa42a9060240160206040518083038186803b158015612fe457600080fd5b505afa158015612ff8573d6000803e3d6000fd5b505050506040513d601f19601f8201168201806040525081019061301c9190614d23565b156130bd57613029613590565b6001600160a01b031663efc34aab61303f6136fa565b86613048613645565b60016040518563ffffffff1660e01b81526004016130699493929190614f30565b602060405180830381600087803b15801561308357600080fd5b505af1158015613097573d6000803e3d6000fd5b505050506040513d601f19601f820116820180604052508101906130bb9190614d57565b505b6000806130c86132cb565b604051633552687b60e21b81526001600160a01b038b811660048301526024820186905289811660448301528881166064830152919091169063d549a1ec90608401604080518083038186803b15801561312157600080fd5b505afa158015613135573d6000803e3d6000fd5b505050506040513d601f19601f820116820180604052508101906131599190614e92565b6001600160a01b03808a166000908152601160209081526040808320938c1683529290529081208054939550919350849261319590849061501c565b90915550506001600160a01b038088166000908152601260209081526040808320938a16835292905290812080548592906131d190849061501c565b90915550506001600160a01b038088166000908152601360209081526040808320938a168352929052908120805483929061320d90849061501c565b909155506132209050898389868a614630565b856001600160a01b0316876001600160a01b03168a6001600160a01b03167f80cf2752eb276900a648b467a8fe8180e3192a2370982e997e928b3dc8b99ba18587604051613278929190918252602082015260400190565b60405180910390a461328b8988846146c6565b61329587876137af565b50979650505050505050565b600a81815481106132b157600080fd5b6000918252602090912001546001600160a01b0316905081565b60065460408051634c7d5e9d60e11b815290516000926001600160a01b0316916398fabd3a916004808301926020929190829003018186803b15801561331057600080fd5b505afa158015613324573d6000803e3d6000fd5b505050506040513d601f19601f820116820180604052508101906133489190614aac565b6001600160a01b0316637b0e5c456040518163ffffffff1660e01b815260040160206040518083038186803b15801561338057600080fd5b505afa158015613394573d6000803e3d6000fd5b505050506040513d601f19601f8201168201806040525081019061096d9190614aac565b60006133c38361241f565b8061344e57506133d1613590565b604051632f011bf560e11b81526001600160a01b0385811660048301529190911690635e0237ea90602401602060405180830381600087803b15801561341657600080fd5b505af115801561342a573d6000803e3d6000fd5b505050506040513d601f19601f8201168201806040525081019061344e9190614d23565b156134645761345d83836147f7565b90506113ed565b61346d8361226f565b156113ed5761347a613590565b60405163783ba87960e01b8152600481018490526001600160a01b0385811660248301528681166044830152919091169063783ba87990606401600060405180830381600087803b1580156134ce57600080fd5b505af11580156134e2573d6000803e3d6000fd5b50939695505050505050565b6001600160a01b03808616600090815260106020908152604080832087851684526001908101835281842094861684529390930190529081208054849290613537908490614fc5565b90915550506001600160a01b038086166000908152601060209081526040808320878516845260010182528083209385168352600290930190529081208054869290613584908490614fc5565b90915550505050505050565b60065460408051634c7d5e9d60e11b815290516000926001600160a01b0316916398fabd3a916004808301926020929190829003018186803b1580156135d557600080fd5b505afa1580156135e9573d6000803e3d6000fd5b505050506040513d601f19601f8201168201806040525081019061360d9190614aac565b6001600160a01b031663ebccb5b26040518163ffffffff1660e01b815260040160206040518083038186803b15801561338057600080fd5b60065460408051634c7d5e9d60e11b815290516000926001600160a01b0316916398fabd3a916004808301926020929190829003018186803b15801561368a57600080fd5b505afa15801561369e573d6000803e3d6000fd5b505050506040513d601f19601f820116820180604052508101906136c29190614aac565b6001600160a01b0316639d2cc4366040518163ffffffff1660e01b815260040160206040518083038186803b15801561338057600080fd5b60065460408051634c7d5e9d60e11b815290516000926001600160a01b0316916398fabd3a916004808301926020929190829003018186803b15801561373f57600080fd5b505afa158015613753573d6000803e3d6000fd5b505050506040513d601f19601f820116820180604052508101906137779190614aac565b6001600160a01b031663e2c3b0466040518163ffffffff1660e01b815260040160206040518083038186803b15801561338057600080fd5b6137b98282611fd8565b42101580156137cb57506137cb6108f0565b156113d2576001600160a01b038083166000908152601460209081526040808320938516835292905290812054613802904261501c565b9050600660009054906101000a90046001600160a01b03166001600160a01b0316636b92a3b66040518163ffffffff1660e01b815260040160206040518083038186803b15801561385257600080fd5b505afa158015613866573d6000803e3d6000fd5b505050506040513d601f19601f8201168201806040525081019061388a9190614d57565b6138949042614fc5565b6001600160a01b0380851660009081526014602090815260408083209387168352929052908120919091556138c76132cb565b6001600160a01b031663945821af8585856040518463ffffffff1660e01b81526004016138f693929190614f5a565b602060405180830381600087803b15801561391057600080fd5b505af1158015613924573d6000803e3d6000fd5b505050506040513d601f19601f820116820180604052508101906139489190614d57565b6001600160a01b038086166000908152601360209081526040808320938816835292905290812080549293508392909190613984908490614fc5565b9091555061399590508185856149c4565b61399e8461241f565b15613aad57836001600160a01b031663a9059cbb6139ba613590565b6040516001600160e01b031960e084901b1681526001600160a01b03909116600482015260248101849052604401602060405180830381600087803b158015613a0257600080fd5b505af1158015613a16573d6000803e3d6000fd5b505050506040513d601f19601f82011682018060405250810190613a3a9190614d23565b50613a43613590565b604051633041949b60e01b81526001600160a01b03868116600483015285811660248301529190911690633041949b90604401600060405180830381600087803b158015613a9057600080fd5b505af1158015613aa4573d6000803e3d6000fd5b50505050613cb0565b613ab5613590565b604051632f011bf560e11b81526001600160a01b0386811660048301529190911690635e0237ea90602401602060405180830381600087803b158015613afa57600080fd5b505af1158015613b0e573d6000803e3d6000fd5b505050506040513d601f19601f82011682018060405250810190613b329190614d23565b15613cb057836001600160a01b031663a9059cbb613b4e613590565b6040516001600160e01b031960e084901b1681526001600160a01b03909116600482015260248101849052604401602060405180830381600087803b158015613b9657600080fd5b505af1158015613baa573d6000803e3d6000fd5b505050506040513d601f19601f82011682018060405250810190613bce9190614d23565b50613bd7613590565b6001600160a01b031663469f5c1e856001600160a01b03166382bfefc86040518163ffffffff1660e01b815260040160206040518083038186803b158015613c1e57600080fd5b505afa158015613c32573d6000803e3d6000fd5b505050506040513d601f19601f82011682018060405250810190613c569190614aac565b6040516001600160e01b031960e084901b1681526001600160a01b039091166004820152602401600060405180830381600087803b158015613c9757600080fd5b505af1158015613cab573d6000803e3d6000fd5b505050505b50505050565b60065460408051634c7d5e9d60e11b815290516000926001600160a01b0316916398fabd3a916004808301926020929190829003018186803b15801561338057600080fd5b600654604080516360dc208d60e11b815290516000926001600160a01b03169163c1b8411a916004808301926020929190829003018186803b15801561338057600080fd5b6006546000906001600160a01b0384811691161480613d775750613d626136fa565b6001600160a01b0316836001600160a01b0316145b80613e025750613d85613590565b604051632f011bf560e11b81526001600160a01b0385811660048301529190911690635e0237ea90602401602060405180830381600087803b158015613dca57600080fd5b505af1158015613dde573d6000803e3d6000fd5b505050506040513d601f19601f82011682018060405250810190613e029190614d23565b15613f3e57508032331415613eae57826001600160a01b0316632ccb1b30613e28613590565b6040516001600160e01b031960e084901b1681526001600160a01b03909116600482015260248101859052604401602060405180830381600087803b158015613e7057600080fd5b505af1158015613e84573d6000803e3d6000fd5b505050506040513d601f19601f82011682018060405250810190613ea89190614d23565b50613f39565b826001600160a01b03166323b872dd33613ec6613590565b856040518463ffffffff1660e01b8152600401613ee593929190614f5a565b602060405180830381600087803b158015613eff57600080fd5b505af1158015613f13573d6000803e3d6000fd5b505050506040513d601f19601f82011682018060405250810190613f379190614d23565b505b611fff565b6000836001600160a01b03166370a08231613f57613590565b6040516001600160e01b031960e084901b1681526001600160a01b03909116600482015260240160206040518083038186803b158015613f9657600080fd5b505afa158015613faa573d6000803e3d6000fd5b505050506040513d601f19601f82011682018060405250810190613fce9190614d57565b9050836001600160a01b03166323b872dd33613fe8613590565b866040518463ffffffff1660e01b815260040161400793929190614f5a565b602060405180830381600087803b15801561402157600080fd5b505af1158015614035573d6000803e3d6000fd5b505050506040513d601f19601f820116820180604052508101906140599190614d23565b5080846001600160a01b03166370a08231614072613590565b6040516001600160e01b031960e084901b1681526001600160a01b0390911660048201526024015b60206040518083038186803b1580156140b257600080fd5b505afa1580156140c6573d6000803e3d6000fd5b505050506040513d601f19601f820116820180604052508101906140ea9190614d57565b6109f4919061501c565b6001600160a01b038085166000908152600d602090815260408083209387168352929052908120805484929061412b908490614fc5565b90915550506001600160a01b038085166000908152600e6020908152604080832093871683529290529081208054839290614167908490614fc5565b9091555050506001600160a01b039283166000908152600f60209081526040808320949095168252929092525020429055565b6141a38161241f565b6113d25760006141b16132cb565b600154604051635a4a8f2560e11b81526001600160a01b038581166004830152602482019290925291169063b4951e4a9060440160206040518083038186803b1580156141fd57600080fd5b505afa158015614211573d6000803e3d6000fd5b505050506040513d601f19601f820116820180604052508101906142359190614d57565b905061423f613645565b6001600160a01b0316636a52902684614256613590565b846040518463ffffffff1660e01b815260040161427593929190614f5a565b602060405180830381600087803b15801561428f57600080fd5b505af11580156142a3573d6000803e3d6000fd5b505050506040513d601f19601f820116820180604052508101906142c79190614d57565b506142d0613590565b604051633041949b60e01b81526001600160a01b03858116600483015284811660248301529190911690633041949b90604401600060405180830381600087803b15801561431d57600080fd5b505af1158015614331573d6000803e3d6000fd5b50505050816001600160a01b0316836001600160a01b03167f416b0b234ccd4d6d72c4b1a3a09b472a71981d9bbf0f26ab44774e0e3425fad68360405161437a91815260200190565b60405180910390a3505050565b61438f613590565b604051636c66769560e11b81526001600160a01b038381166004830152919091169063d8cced2a9060240160206040518083038186803b1580156143d257600080fd5b505afa1580156143e6573d6000803e3d6000fd5b505050506040513d601f19601f8201168201806040525081019061440a9190614d23565b156109dc576109dc81612956565b6001600160a01b038085166000908152600d602090815260408083209387168352929052908120805483929061444f908490614fc5565b909155506000905061445f6132cb565b6001600160a01b038681166000908152600d6020908152604080832089851684529091529081902054905163714270ab60e01b815260048101879052602481019190915291169063714270ab9060440160206040518083038186803b1580156144c757600080fd5b505afa1580156144db573d6000803e3d6000fd5b505050506040513d601f19601f820116820180604052508101906144ff9190614d57565b9050600061450b6132cb565b6001600160a01b038781166000908152600e602090815260408083208a851684529091529081902054905163714270ab60e01b815260048101889052602481019190915291169063714270ab9060440160206040518083038186803b15801561457357600080fd5b505afa158015614587573d6000803e3d6000fd5b505050506040513d601f19601f820116820180604052508101906145ab9190614d57565b6001600160a01b038088166000908152600d60209081526040808320938a168352929052908120805492935084929091906145e790849061501c565b90915550506001600160a01b038087166000908152600e602090815260408083209389168352929052908120805483929061462390849061501c565b9091555050505050505050565b6001600160a01b0380861660009081526010602090815260408083208785168452600190810183528184209486168452939093019052908120805484929061467990849061501c565b90915550506001600160a01b03808616600090815260106020908152604080832087851684526001018252808320938516835260029093019052908120805486929061358490849061501c565b6146cf8261241f565b8061475a57506146dd613590565b604051632f011bf560e11b81526001600160a01b0384811660048301529190911690635e0237ea90602401602060405180830381600087803b15801561472257600080fd5b505af1158015614736573d6000803e3d6000fd5b505050506040513d601f19601f8201168201806040525081019061475a9190614d23565b1561476f5761476a828483614a05565b6147f2565b6147788261226f565b156147f257614785613590565b60405163798e23d560e01b8152600481018390526001600160a01b0384811660248301528581166044830152919091169063798e23d590606401600060405180830381600087803b1580156147d957600080fd5b505af11580156147ed573d6000803e3d6000fd5b505050505b505050565b6040516370a0823160e01b815230600482015260009081906001600160a01b038516906370a082319060240160206040518083038186803b15801561483b57600080fd5b505afa15801561484f573d6000803e3d6000fd5b505050506040513d601f19601f820116820180604052508101906148739190614d57565b90503233141561490b576040516302ccb1b360e41b8152306004820152602481018490526001600160a01b03851690632ccb1b3090604401602060405180830381600087803b1580156148c557600080fd5b505af11580156148d9573d6000803e3d6000fd5b505050506040513d601f19601f820116820180604052508101906148fd9190614d23565b61490657600080fd5b614996565b6040516323b872dd60e01b81526001600160a01b038516906323b872dd9061493b90339030908890600401614f5a565b602060405180830381600087803b15801561495557600080fd5b505af1158015614969573d6000803e3d6000fd5b505050506040513d601f19601f8201168201806040525081019061498d9190614d23565b61499657600080fd5b6040516370a0823160e01b815230600482015281906001600160a01b038616906370a082319060240161409a565b6001600160a01b038083166000908152601160209081526040808320938516835292905290812080548592906149fb90849061501c565b9091555050505050565b60405163a9059cbb60e01b81526001600160a01b0383811660048301526024820183905284169063a9059cbb90604401602060405180830381600087803b158015614a4f57600080fd5b505af1158015614a63573d6000803e3d6000fd5b505050506040513d601f19601f82011682018060405250810190614a879190614d23565b6147f257600080fd5b600060208284031215614aa1578081fd5b81356113ed8161507a565b600060208284031215614abd578081fd5b81516113ed8161507a565b60008060408385031215614ada578081fd5b8235614ae58161507a565b91506020830135614af58161507a565b809150509250929050565b600080600060608486031215614b14578081fd5b8335614b1f8161507a565b92506020840135614b2f8161507a565b91506040840135614b3f8161507a565b809150509250925092565b60008060008060808587031215614b5f578081fd5b8435614b6a8161507a565b93506020850135614b7a8161507a565b92506040850135614b8a8161507a565b9396929550929360600135925050565b600080600060608486031215614bae578283fd5b8335614bb98161507a565b92506020840135614bc98161507a565b929592945050506040919091013590565b60008060008060808587031215614bef578384fd5b8435614bfa8161507a565b9350602085013592506040850135614c118161507a565b91506060850135614c218161507a565b939692955090935050565b60008060008060808587031215614c41578384fd5b8435614c4c8161507a565b9350602085013592506040850135614b8a8161507a565b60006020808385031215614c75578182fd5b825167ffffffffffffffff80821115614c8c578384fd5b818501915085601f830112614c9f578384fd5b815181811115614cb157614cb1615064565b8060051b604051601f19603f83011681018181108582111715614cd657614cd6615064565b604052828152858101935084860182860187018a1015614cf4578788fd5b8795505b83861015614d16578051855260019590950194938601938601614cf8565b5098975050505050505050565b600060208284031215614d34578081fd5b81516113ed8161508f565b600060208284031215614d50578081fd5b5035919050565b600060208284031215614d68578081fd5b5051919050565b600080600060608486031215614d83578283fd5b833592506020840135614b2f8161507a565b60008060008060808587031215614daa578182fd5b843593506020850135614b7a8161507a565b600080600080600060a08688031215614dd3578283fd5b853594506020860135614de58161507a565b93506040860135614df58161508f565b92506060860135614e058161507a565b91506080860135614e158161508f565b809150509295509295909350565b60008060008060008060c08789031215614e3b578384fd5b863595506020870135614e4d8161507a565b94506040870135614e5d8161508f565b93506060870135614e6d8161507a565b92506080870135614e7d8161508f565b8092505060a087013590509295509295509295565b60008060408385031215614ea4578182fd5b505080516020909101519092909150565b600080600060608486031215614ec9578081fd5b505081359360208301359350604090920135919050565b600080600060608486031215614ef4578081fd5b8351925060208401519150604084015190509250925092565b6001600160a01b0393841681529183166020830152909116604082015260600190565b6001600160a01b039485168152928416602084015292166040820152901515606082015260800190565b6001600160a01b039384168152919092166020820152604081019190915260600190565b6020808252825482820181905260008481528281209092916040850190845b81811015614fb957835483526001938401939285019201614f9d565b50909695505050505050565b60008219821115614fd857614fd861504e565b500190565b600082614ff857634e487b7160e01b81526012600452602481fd5b500490565b60008160001904831182151516156150175761501761504e565b500290565b60008282101561502e5761502e61504e565b500390565b60006000198214156150475761504761504e565b5060010190565b634e487b7160e01b600052601160045260246000fd5b634e487b7160e01b600052604160045260246000fd5b6001600160a01b03811681146109dc57600080fd5b80151581146109dc57600080fdfea264697066735822122098dde7c7f0171ee49fc1b7a7aaaf8061300fd94e869aa24b5572695a936c3b7d64736f6c63430008030033",
  "linkReferences": {},
  "deployedLinkReferences": {}
}