{
  "_format": "hh-sol-artifact-1",
  "contractName": "Router",
  "sourceName": "contracts/Router.sol",
  "abi": [
    {
      "inputs": [],
      "stateMutability": "nonpayable",
      "type": "constructor"
    },
    {
      "anonymous": false,
      "inputs": [
        {
          "indexed": true,
          "internalType": "address",
          "name": "member",
          "type": "address"
        },
        {
          "indexed": true,
          "internalType": "address",
          "name": "collateralAsset",
          "type": "address"
        },
        {
          "indexed": false,
          "internalType": "uint256",
          "name": "collateralLocked",
          "type": "uint256"
        },
        {
          "indexed": true,
          "internalType": "address",
          "name": "debtAsset",
          "type": "address"
        },
        {
          "indexed": false,
          "internalType": "uint256",
          "name": "debtIssued",
          "type": "uint256"
        }
      ],
      "name": "AddCollateral",
      "type": "event"
    },
    {
      "anonymous": false,
      "inputs": [
        {
          "indexed": true,
          "internalType": "address",
          "name": "curator",
          "type": "address"
        },
        {
          "indexed": true,
          "internalType": "address",
          "name": "token",
          "type": "address"
        }
      ],
      "name": "Curated",
      "type": "event"
    },
    {
      "anonymous": false,
      "inputs": [
        {
          "indexed": true,
          "internalType": "address",
          "name": "base",
          "type": "address"
        },
        {
          "indexed": true,
          "internalType": "address",
          "name": "token",
          "type": "address"
        },
        {
          "indexed": false,
          "internalType": "uint256",
          "name": "amount",
          "type": "uint256"
        }
      ],
      "name": "PoolReward",
      "type": "event"
    },
    {
      "anonymous": false,
      "inputs": [
        {
          "indexed": true,
          "internalType": "address",
          "name": "member",
          "type": "address"
        },
        {
          "indexed": false,
          "internalType": "uint256",
          "name": "amount",
          "type": "uint256"
        }
      ],
      "name": "Protection",
      "type": "event"
    },
    {
      "anonymous": false,
      "inputs": [
        {
          "indexed": true,
          "internalType": "address",
          "name": "member",
          "type": "address"
        },
        {
          "indexed": true,
          "internalType": "address",
          "name": "collateralAsset",
          "type": "address"
        },
        {
          "indexed": false,
          "internalType": "uint256",
          "name": "collateralUnlocked",
          "type": "uint256"
        },
        {
          "indexed": true,
          "internalType": "address",
          "name": "debtAsset",
          "type": "address"
        },
        {
          "indexed": false,
          "internalType": "uint256",
          "name": "debtReturned",
          "type": "uint256"
        }
      ],
      "name": "RemoveCollateral",
      "type": "event"
    },
    {
      "inputs": [],
      "name": "DAO",
      "outputs": [
        {
          "internalType": "address",
          "name": "",
          "type": "address"
        }
      ],
      "stateMutability": "view",
      "type": "function"
    },
    {
      "inputs": [],
      "name": "POOLS",
      "outputs": [
        {
          "internalType": "address",
          "name": "",
          "type": "address"
        }
      ],
      "stateMutability": "view",
      "type": "function"
    },
    {
      "inputs": [],
      "name": "USDV",
      "outputs": [
        {
          "internalType": "address",
          "name": "",
          "type": "address"
        }
      ],
      "stateMutability": "view",
      "type": "function"
    },
    {
      "inputs": [],
      "name": "UTILS",
      "outputs": [
        {
          "internalType": "address",
          "name": "",
          "type": "address"
        }
      ],
      "stateMutability": "view",
      "type": "function"
    },
    {
      "inputs": [],
      "name": "VADER",
      "outputs": [
        {
          "internalType": "address",
          "name": "",
          "type": "address"
        }
      ],
      "stateMutability": "view",
      "type": "function"
    },
    {
      "inputs": [
        {
          "internalType": "address",
          "name": "base",
          "type": "address"
        },
        {
          "internalType": "uint256",
          "name": "inputBase",
          "type": "uint256"
        },
        {
          "internalType": "address",
          "name": "token",
          "type": "address"
        },
        {
          "internalType": "uint256",
          "name": "inputToken",
          "type": "uint256"
        }
      ],
      "name": "addLiquidity",
      "outputs": [
        {
          "internalType": "uint256",
          "name": "",
          "type": "uint256"
        }
      ],
      "stateMutability": "nonpayable",
      "type": "function"
    },
    {
      "inputs": [],
      "name": "anchorLimit",
      "outputs": [
        {
          "internalType": "uint256",
          "name": "",
          "type": "uint256"
        }
      ],
      "stateMutability": "view",
      "type": "function"
    },
    {
      "inputs": [
        {
          "internalType": "uint256",
          "name": "",
          "type": "uint256"
        }
      ],
      "name": "arrayAnchors",
      "outputs": [
        {
          "internalType": "address",
          "name": "",
          "type": "address"
        }
      ],
      "stateMutability": "view",
      "type": "function"
    },
    {
      "inputs": [
        {
          "internalType": "uint256",
          "name": "",
          "type": "uint256"
        }
      ],
      "name": "arrayPrices",
      "outputs": [
        {
          "internalType": "uint256",
          "name": "",
          "type": "uint256"
        }
      ],
      "stateMutability": "view",
      "type": "function"
    },
    {
      "inputs": [
        {
          "internalType": "address",
          "name": "collateralAsset",
          "type": "address"
        },
        {
          "internalType": "address",
          "name": "debtAsset",
          "type": "address"
        }
      ],
      "name": "assetChecks",
      "outputs": [],
      "stateMutability": "nonpayable",
      "type": "function"
    },
    {
      "inputs": [
        {
          "internalType": "uint256",
          "name": "amount",
          "type": "uint256"
        },
        {
          "internalType": "address",
          "name": "collateralAsset",
          "type": "address"
        },
        {
          "internalType": "address",
          "name": "debtAsset",
          "type": "address"
        }
      ],
      "name": "borrow",
      "outputs": [
        {
          "internalType": "uint256",
          "name": "",
          "type": "uint256"
        }
      ],
      "stateMutability": "nonpayable",
      "type": "function"
    },
    {
      "inputs": [
        {
          "internalType": "uint256",
          "name": "amount",
          "type": "uint256"
        },
        {
          "internalType": "address",
          "name": "collateralAsset",
          "type": "address"
        },
        {
          "internalType": "address",
          "name": "debtAsset",
          "type": "address"
        },
        {
          "internalType": "address",
          "name": "member",
          "type": "address"
        }
      ],
      "name": "borrowForMember",
      "outputs": [
        {
          "internalType": "uint256",
          "name": "",
          "type": "uint256"
        }
      ],
      "stateMutability": "nonpayable",
      "type": "function"
    },
    {
      "inputs": [],
      "name": "checkLiquidate",
      "outputs": [],
      "stateMutability": "nonpayable",
      "type": "function"
    },
    {
      "inputs": [
        {
          "internalType": "address",
          "name": "token",
          "type": "address"
        }
      ],
      "name": "curatePool",
      "outputs": [],
      "stateMutability": "nonpayable",
      "type": "function"
    },
    {
      "inputs": [],
      "name": "curatedPoolCount",
      "outputs": [
        {
          "internalType": "uint256",
          "name": "",
          "type": "uint256"
        }
      ],
      "stateMutability": "view",
      "type": "function"
    },
    {
      "inputs": [],
      "name": "curatedPoolLimit",
      "outputs": [
        {
          "internalType": "uint256",
          "name": "",
          "type": "uint256"
        }
      ],
      "stateMutability": "view",
      "type": "function"
    },
    {
      "inputs": [],
      "name": "emitting",
      "outputs": [
        {
          "internalType": "bool",
          "name": "",
          "type": "bool"
        }
      ],
      "stateMutability": "view",
      "type": "function"
    },
    {
      "inputs": [],
      "name": "getAnchorPrice",
      "outputs": [
        {
          "internalType": "uint256",
          "name": "anchorPrice",
          "type": "uint256"
        }
      ],
      "stateMutability": "view",
      "type": "function"
    },
    {
      "inputs": [
        {
          "internalType": "uint256",
          "name": "collateral",
          "type": "uint256"
        },
        {
          "internalType": "address",
          "name": "collateralAsset",
          "type": "address"
        },
        {
          "internalType": "address",
          "name": "debtAsset",
          "type": "address"
        },
        {
          "internalType": "address",
          "name": "member",
          "type": "address"
        }
      ],
      "name": "getCollateralValueInBase",
      "outputs": [
        {
          "internalType": "uint256",
          "name": "debt",
          "type": "uint256"
        },
        {
          "internalType": "uint256",
          "name": "baseValue",
          "type": "uint256"
        }
      ],
      "stateMutability": "nonpayable",
      "type": "function"
    },
    {
      "inputs": [
        {
          "internalType": "address",
          "name": "member",
          "type": "address"
        },
        {
          "internalType": "address",
          "name": "token",
          "type": "address"
        }
      ],
      "name": "getCoverage",
      "outputs": [
        {
          "internalType": "uint256",
          "name": "",
          "type": "uint256"
        }
      ],
      "stateMutability": "view",
      "type": "function"
    },
    {
      "inputs": [
        {
          "internalType": "uint256",
          "name": "debt",
          "type": "uint256"
        },
        {
          "internalType": "address",
          "name": "collateralAsset",
          "type": "address"
        },
        {
          "internalType": "address",
          "name": "debtAsset",
          "type": "address"
        },
        {
          "internalType": "address",
          "name": "member",
          "type": "address"
        }
      ],
      "name": "getDebtValueInCollateral",
      "outputs": [
        {
          "internalType": "uint256",
          "name": "",
          "type": "uint256"
        }
      ],
      "stateMutability": "view",
      "type": "function"
    },
    {
      "inputs": [
        {
          "internalType": "address",
          "name": "member",
          "type": "address"
        },
        {
          "internalType": "address",
          "name": "base",
          "type": "address"
        },
        {
          "internalType": "address",
          "name": "token",
          "type": "address"
        },
        {
          "internalType": "uint256",
          "name": "basisPoints",
          "type": "uint256"
        }
      ],
      "name": "getILProtection",
      "outputs": [
        {
          "internalType": "uint256",
          "name": "protection",
          "type": "uint256"
        }
      ],
      "stateMutability": "view",
      "type": "function"
    },
    {
      "inputs": [],
      "name": "getInterestPayment",
      "outputs": [],
      "stateMutability": "nonpayable",
      "type": "function"
    },
    {
      "inputs": [
        {
          "internalType": "address",
          "name": "member",
          "type": "address"
        },
        {
          "internalType": "address",
          "name": "collateralAsset",
          "type": "address"
        },
        {
          "internalType": "address",
          "name": "debtAsset",
          "type": "address"
        }
      ],
      "name": "getMemberCollateral",
      "outputs": [
        {
          "internalType": "uint256",
          "name": "",
          "type": "uint256"
        }
      ],
      "stateMutability": "view",
      "type": "function"
    },
    {
      "inputs": [
        {
          "internalType": "address",
          "name": "member",
          "type": "address"
        },
        {
          "internalType": "address",
          "name": "collateralAsset",
          "type": "address"
        },
        {
          "internalType": "address",
          "name": "debtAsset",
          "type": "address"
        }
      ],
      "name": "getMemberDebt",
      "outputs": [
        {
          "internalType": "uint256",
          "name": "",
          "type": "uint256"
        }
      ],
      "stateMutability": "view",
      "type": "function"
    },
    {
      "inputs": [
        {
          "internalType": "address",
          "name": "member",
          "type": "address"
        },
        {
          "internalType": "address",
          "name": "token",
          "type": "address"
        },
        {
          "internalType": "uint256",
          "name": "basisPoints",
          "type": "uint256"
        },
        {
          "internalType": "uint256",
          "name": "coverage",
          "type": "uint256"
        }
      ],
      "name": "getProtection",
      "outputs": [
        {
          "internalType": "uint256",
          "name": "protection",
          "type": "uint256"
        }
      ],
      "stateMutability": "view",
      "type": "function"
    },
    {
      "inputs": [
        {
          "internalType": "uint256",
          "name": "amount",
          "type": "uint256"
        }
      ],
      "name": "getReducedShare",
      "outputs": [
        {
          "internalType": "uint256",
          "name": "",
          "type": "uint256"
        }
      ],
      "stateMutability": "view",
      "type": "function"
    },
    {
      "inputs": [
        {
          "internalType": "address",
          "name": "token",
          "type": "address"
        }
      ],
      "name": "getRewardShare",
      "outputs": [
        {
          "internalType": "uint256",
          "name": "rewardShare",
          "type": "uint256"
        }
      ],
      "stateMutability": "view",
      "type": "function"
    },
    {
      "inputs": [
        {
          "internalType": "uint256",
          "name": "vaderAmount",
          "type": "uint256"
        }
      ],
      "name": "getUSDVAmount",
      "outputs": [
        {
          "internalType": "uint256",
          "name": "USDVAmount",
          "type": "uint256"
        }
      ],
      "stateMutability": "view",
      "type": "function"
    },
    {
      "inputs": [
        {
          "internalType": "uint256",
          "name": "USDVAmount",
          "type": "uint256"
        }
      ],
      "name": "getVADERAmount",
      "outputs": [
        {
          "internalType": "uint256",
          "name": "vaderAmount",
          "type": "uint256"
        }
      ],
      "stateMutability": "view",
      "type": "function"
    },
    {
      "inputs": [
        {
          "internalType": "address",
          "name": "_vader",
          "type": "address"
        },
        {
          "internalType": "address",
          "name": "_usdv",
          "type": "address"
        },
        {
          "internalType": "address",
          "name": "_pool",
          "type": "address"
        }
      ],
      "name": "init",
      "outputs": [],
      "stateMutability": "nonpayable",
      "type": "function"
    },
    {
      "inputs": [],
      "name": "insidePriceLimit",
      "outputs": [
        {
          "internalType": "uint256",
          "name": "",
          "type": "uint256"
        }
      ],
      "stateMutability": "view",
      "type": "function"
    },
    {
      "inputs": [
        {
          "internalType": "address",
          "name": "token",
          "type": "address"
        }
      ],
      "name": "isBase",
      "outputs": [
        {
          "internalType": "bool",
          "name": "base",
          "type": "bool"
        }
      ],
      "stateMutability": "view",
      "type": "function"
    },
    {
      "inputs": [
        {
          "internalType": "address",
          "name": "token",
          "type": "address"
        }
      ],
      "name": "isCurated",
      "outputs": [
        {
          "internalType": "bool",
          "name": "curated",
          "type": "bool"
        }
      ],
      "stateMutability": "view",
      "type": "function"
    },
    {
      "inputs": [
        {
          "internalType": "address",
          "name": "token",
          "type": "address"
        }
      ],
      "name": "isPool",
      "outputs": [
        {
          "internalType": "bool",
          "name": "pool",
          "type": "bool"
        }
      ],
      "stateMutability": "view",
      "type": "function"
    },
    {
      "inputs": [
        {
          "internalType": "address",
          "name": "token",
          "type": "address"
        }
      ],
      "name": "listAnchor",
      "outputs": [],
      "stateMutability": "nonpayable",
      "type": "function"
    },
    {
      "inputs": [
        {
          "internalType": "address",
          "name": "",
          "type": "address"
        },
        {
          "internalType": "address",
          "name": "",
          "type": "address"
        }
      ],
      "name": "mapCollateralDebt_Collateral",
      "outputs": [
        {
          "internalType": "uint256",
          "name": "",
          "type": "uint256"
        }
      ],
      "stateMutability": "view",
      "type": "function"
    },
    {
      "inputs": [
        {
          "internalType": "address",
          "name": "",
          "type": "address"
        },
        {
          "internalType": "address",
          "name": "",
          "type": "address"
        }
      ],
      "name": "mapCollateralDebt_Debt",
      "outputs": [
        {
          "internalType": "uint256",
          "name": "",
          "type": "uint256"
        }
      ],
      "stateMutability": "view",
      "type": "function"
    },
    {
      "inputs": [
        {
          "internalType": "address",
          "name": "",
          "type": "address"
        },
        {
          "internalType": "address",
          "name": "",
          "type": "address"
        }
      ],
      "name": "mapMemberToken_depositBase",
      "outputs": [
        {
          "internalType": "uint256",
          "name": "",
          "type": "uint256"
        }
      ],
      "stateMutability": "view",
      "type": "function"
    },
    {
      "inputs": [
        {
          "internalType": "address",
          "name": "",
          "type": "address"
        },
        {
          "internalType": "address",
          "name": "",
          "type": "address"
        }
      ],
      "name": "mapMemberToken_depositToken",
      "outputs": [
        {
          "internalType": "uint256",
          "name": "",
          "type": "uint256"
        }
      ],
      "stateMutability": "view",
      "type": "function"
    },
    {
      "inputs": [
        {
          "internalType": "address",
          "name": "",
          "type": "address"
        },
        {
          "internalType": "address",
          "name": "",
          "type": "address"
        }
      ],
      "name": "mapMemberToken_lastDeposited",
      "outputs": [
        {
          "internalType": "uint256",
          "name": "",
          "type": "uint256"
        }
      ],
      "stateMutability": "view",
      "type": "function"
    },
    {
      "inputs": [],
      "name": "outsidePriceLimit",
      "outputs": [
        {
          "internalType": "uint256",
          "name": "",
          "type": "uint256"
        }
      ],
      "stateMutability": "view",
      "type": "function"
    },
    {
      "inputs": [
        {
          "internalType": "address",
          "name": "base",
          "type": "address"
        },
        {
          "internalType": "address",
          "name": "token",
          "type": "address"
        },
        {
          "internalType": "uint256",
          "name": "basisPoints",
          "type": "uint256"
        }
      ],
      "name": "removeLiquidity",
      "outputs": [
        {
          "internalType": "uint256",
          "name": "amountBase",
          "type": "uint256"
        },
        {
          "internalType": "uint256",
          "name": "amountToken",
          "type": "uint256"
        }
      ],
      "stateMutability": "nonpayable",
      "type": "function"
    },
    {
      "inputs": [
        {
          "internalType": "uint256",
          "name": "amount",
          "type": "uint256"
        },
        {
          "internalType": "address",
          "name": "collateralAsset",
          "type": "address"
        },
        {
          "internalType": "address",
          "name": "debtAsset",
          "type": "address"
        }
      ],
      "name": "repay",
      "outputs": [
        {
          "internalType": "uint256",
          "name": "",
          "type": "uint256"
        }
      ],
      "stateMutability": "nonpayable",
      "type": "function"
    },
    {
      "inputs": [],
      "name": "repayDelay",
      "outputs": [
        {
          "internalType": "uint256",
          "name": "",
          "type": "uint256"
        }
      ],
      "stateMutability": "view",
      "type": "function"
    },
    {
      "inputs": [
        {
          "internalType": "uint256",
          "name": "amount",
          "type": "uint256"
        },
        {
          "internalType": "address",
          "name": "collateralAsset",
          "type": "address"
        },
        {
          "internalType": "address",
          "name": "debtAsset",
          "type": "address"
        },
        {
          "internalType": "address",
          "name": "member",
          "type": "address"
        }
      ],
      "name": "repayForMember",
      "outputs": [
        {
          "internalType": "uint256",
          "name": "collateralUnlocked",
          "type": "uint256"
        }
      ],
      "stateMutability": "nonpayable",
      "type": "function"
    },
    {
      "inputs": [
        {
          "internalType": "address",
          "name": "oldToken",
          "type": "address"
        },
        {
          "internalType": "address",
          "name": "newToken",
          "type": "address"
        }
      ],
      "name": "replaceAnchor",
      "outputs": [],
      "stateMutability": "nonpayable",
      "type": "function"
    },
    {
      "inputs": [
        {
          "internalType": "address",
          "name": "oldToken",
          "type": "address"
        },
        {
          "internalType": "address",
          "name": "newToken",
          "type": "address"
        }
      ],
      "name": "replacePool",
      "outputs": [],
      "stateMutability": "nonpayable",
      "type": "function"
    },
    {
      "inputs": [],
      "name": "reserveUSDV",
      "outputs": [
        {
          "internalType": "uint256",
          "name": "",
          "type": "uint256"
        }
      ],
      "stateMutability": "view",
      "type": "function"
    },
    {
      "inputs": [],
      "name": "reserveVADER",
      "outputs": [
        {
          "internalType": "uint256",
          "name": "",
          "type": "uint256"
        }
      ],
      "stateMutability": "view",
      "type": "function"
    },
    {
      "inputs": [],
      "name": "rewardReductionFactor",
      "outputs": [
        {
          "internalType": "uint256",
          "name": "",
          "type": "uint256"
        }
      ],
      "stateMutability": "view",
      "type": "function"
    },
    {
      "inputs": [
        {
          "internalType": "uint256",
          "name": "newLimit",
          "type": "uint256"
        },
        {
          "internalType": "uint256",
          "name": "newInside",
          "type": "uint256"
        },
        {
          "internalType": "uint256",
          "name": "newOutside",
          "type": "uint256"
        }
      ],
      "name": "setAnchorParams",
      "outputs": [],
      "stateMutability": "nonpayable",
      "type": "function"
    },
    {
      "inputs": [
        {
          "internalType": "uint256",
          "name": "newFactor",
          "type": "uint256"
        },
        {
          "internalType": "uint256",
          "name": "newTime",
          "type": "uint256"
        },
        {
          "internalType": "uint256",
          "name": "newLimit",
          "type": "uint256"
        }
      ],
      "name": "setParams",
      "outputs": [],
      "stateMutability": "nonpayable",
      "type": "function"
    },
    {
      "inputs": [
        {
          "internalType": "uint256",
          "name": "inputAmount",
          "type": "uint256"
        },
        {
          "internalType": "address",
          "name": "inputToken",
          "type": "address"
        },
        {
          "internalType": "address",
          "name": "outputToken",
          "type": "address"
        }
      ],
      "name": "swap",
      "outputs": [
        {
          "internalType": "uint256",
          "name": "outputAmount",
          "type": "uint256"
        }
      ],
      "stateMutability": "nonpayable",
      "type": "function"
    },
    {
      "inputs": [
        {
          "internalType": "uint256",
          "name": "inputAmount",
          "type": "uint256"
        },
        {
          "internalType": "address",
          "name": "inputToken",
          "type": "address"
        },
        {
          "internalType": "address",
          "name": "outputToken",
          "type": "address"
        },
        {
          "internalType": "uint256",
          "name": "slipLimit",
          "type": "uint256"
        }
      ],
      "name": "swapWithLimit",
      "outputs": [
        {
          "internalType": "uint256",
          "name": "outputAmount",
          "type": "uint256"
        }
      ],
      "stateMutability": "nonpayable",
      "type": "function"
    },
    {
      "inputs": [
        {
          "internalType": "uint256",
          "name": "inputAmount",
          "type": "uint256"
        },
        {
          "internalType": "address",
          "name": "inputToken",
          "type": "address"
        },
        {
          "internalType": "bool",
          "name": "inSynth",
          "type": "bool"
        },
        {
          "internalType": "address",
          "name": "outputToken",
          "type": "address"
        },
        {
          "internalType": "bool",
          "name": "outSynth",
          "type": "bool"
        }
      ],
      "name": "swapWithSynths",
      "outputs": [
        {
          "internalType": "uint256",
          "name": "outputAmount",
          "type": "uint256"
        }
      ],
      "stateMutability": "nonpayable",
      "type": "function"
    },
    {
      "inputs": [
        {
          "internalType": "uint256",
          "name": "inputAmount",
          "type": "uint256"
        },
        {
          "internalType": "address",
          "name": "inputToken",
          "type": "address"
        },
        {
          "internalType": "bool",
          "name": "inSynth",
          "type": "bool"
        },
        {
          "internalType": "address",
          "name": "outputToken",
          "type": "address"
        },
        {
          "internalType": "bool",
          "name": "outSynth",
          "type": "bool"
        },
        {
          "internalType": "uint256",
          "name": "slipLimit",
          "type": "uint256"
        }
      ],
      "name": "swapWithSynthsWithLimit",
      "outputs": [
        {
          "internalType": "uint256",
          "name": "outputAmount",
          "type": "uint256"
        }
      ],
      "stateMutability": "nonpayable",
      "type": "function"
    },
    {
      "inputs": [],
      "name": "timeForFullProtection",
      "outputs": [
        {
          "internalType": "uint256",
          "name": "",
          "type": "uint256"
        }
      ],
      "stateMutability": "view",
      "type": "function"
    },
    {
      "inputs": [
        {
          "internalType": "address",
          "name": "token",
          "type": "address"
        }
      ],
      "name": "updateAnchorPrice",
      "outputs": [],
      "stateMutability": "nonpayable",
      "type": "function"
    }
  ],
  "bytecode": "0x6080604052670de0b6b3a7640000600155612710600255610e1060105534801561002857600080fd5b506157b780620000396000396000f3fe608060405234801561001057600080fd5b50600436106103995760003560e01c80637b0e5c45116101e9578063d752fab21161010f578063e7cd3189116100ad578063f550394e1161007c578063f550394e146107d1578063fcf47686146107fc578063fdc59b821461080f578063fde3bbe91461083a57610399565b8063e7cd31891461076d578063e8b8cfa014610780578063ebccb5b214610793578063eef796d1146107a657610399565b8063de6ad44e116100e9578063de6ad44e1461072c578063e2c3b04614610734578063e2e1e48f14610747578063e6048ff81461075a57610399565b8063d752fab214610710578063d848915214610723578063ddab23851461051e57610399565b8063b773634811610187578063cf8bc71511610156578063cf8bc715146106ce578063cf975e7b146106d7578063d2b43373146106ea578063d5164184146106fd57610399565b8063b77363481461064b578063c6978f261461065e578063c883b2e514610671578063cbc17db31461068457610399565b806398fabd3a116101c357806398fabd3a146105fc57806399a485f514610604578063a9d1c09e14610617578063ae746f021461064257610399565b80637b0e5c45146105c35780638bc51e36146105cb5780639404afa6146105d457610399565b806339e68f53116102ce5780635a4dd3f21161026c5780636cc06ded1161023b5780636cc06ded146105775780636e899aa31461058a578063774d70e41461059d57806378a0e941146105b057610399565b80635a4dd3f2146105365780635b0b602d146105495780635b16ebb71461055c57806362cea3401461056f57610399565b80634eb6887a116102a85780634eb6887a1461050c578063531984381461051557806358b272161461051e5780635a0ce6761461052357610399565b806339e68f53146104bb5780634cb38782146104ce5780634e2a44d6146104f957610399565b80631df6acfd1161033b5780632e2d0856116103155780632e2d0856146104795780633494c8e81461048c578063376d3d5d1461049557806337785d21146104a857610399565b80631df6acfd1461044a578063273961e61461045d5780632b7f09231461046657610399565b806312a86ffb1161037757806312a86ffb146103fc57806317af50e51461040f578063184b9559146104225780631a6098271461043757610399565b8063016813151461039e578063038e5eaa146103ce5780630781f4d2146103e4575b600080fd5b6008546103b1906001600160a01b031681565b6040516001600160a01b0390911681526020015b60405180910390f35b6103d6610886565b6040519081526020016103c5565b6103ec610927565b60405190151581526020016103c5565b6103d661040a366004615298565b6109a9565b6103d661041d366004615442565b610e2b565b6104356104303660046152d0565b610e4c565b005b6103d66104453660046154ea565b610efa565b610435610458366004615298565b610f17565b6103d660045481565b6103d6610474366004615472565b611216565b61043561048736600461560a565b611234565b6103d6600b5481565b6103d66104a33660046153ef565b611294565b6103d66104b6366004615578565b61134e565b6104356104c9366004615260565b611d38565b6103d66104dc366004615298565b601660209081526000928352604080842090915290825290205481565b6103d6610507366004615498565b611ee8565b6103d660105481565b6103d660055481565b610435565b61043561053136600461560a565b611f9a565b6103d6610544366004615442565b611ffa565b6103d66105573660046153aa565b612029565b6103ec61056a366004615260565b61219d565b6103d66122ab565b6103d6610585366004615442565b612328565b6103ec610598366004615260565b612343565b6103ec6105ab366004615260565b61237c565b6103d66105be366004615498565b6123a5565b6103b161282b565b6103d660065481565b6105e76105e2366004615498565b6128a8565b604080519283526020830191909152016103c5565b6103b1612c92565b6103d6610612366004615511565b612cd7565b6103d6610625366004615298565b601360209081526000928352604080842090915290825290205481565b6103d6600c5481565b6103d6610659366004615260565b612cf3565b6103d661066c366004615442565b613104565b6103d661067f366004615472565b61319a565b6103d66106923660046152d0565b6001600160a01b039283166000908152601460209081526040808320948616835260019485018252808320939095168252919092019052205490565b6103d660035481565b6104356106e5366004615298565b6131a8565b6104356106f8366004615260565b6136da565b6103d661070b366004615472565b613874565b6105e761071e36600461536a565b613882565b6103d6600d5481565b6103d66139b7565b6009546103b1906001600160a01b031681565b610435610755366004615260565b6139e8565b6103d661076836600461531a565b613b3c565b6103d661077b366004615498565b613b9b565b61043561078e366004615298565b613f0a565b600a546103b1906001600160a01b031681565b6103d66107b4366004615298565b601560209081526000928352604080842090915290825290205481565b6103d66107df366004615298565b601160209081526000928352604080842090915290825290205481565b6103b161080a366004615442565b6140f3565b6103d661081d366004615298565b601260209081526000928352604080842090915290825290205481565b6103d66108483660046152d0565b6001600160a01b0380841660009081526014602090815260408083208685168452600101825280832093851683526002909301905220549392505050565b600f546000901561091f5760006108ec600f8054806020026020016040519081016040528092919081815260200182805480156108e257602002820191906000526020600020905b8154815260200190600101908083116108ce575b505050505061411d565b90508060028151811061090f57634e487b7160e01b600052603260045260246000fd5b6020026020010151915050610924565b506001545b90565b600854604080516303c0fa6960e11b815290516000926001600160a01b031691630781f4d2916004808301926020929190829003018186803b15801561096c57600080fd5b505afa158015610980573d6000803e3d6000fd5b505050506040513d601f19601f820116820180604052508101906109a49190615426565b905090565b6001600160a01b038281166000818152601160209081526040808320868616808552908352818420548585526012845282852082865290935281842054600a54925163024ef37560e41b8152600481019290925260248201959095529294919392859291909116906324ef37509060440160206040518083038186803b158015610a3257600080fd5b505afa158015610a46573d6000803e3d6000fd5b505050506040513d601f19601f82011682018060405250810190610a6a919061545a565b90506000610a7661282b565b600a54604051630fefbc0960e01b81526001600160a01b03898116600483015292831692631ba326c4928692911690630fefbc099060240160206040518083038186803b158015610ac657600080fd5b505afa158015610ada573d6000803e3d6000fd5b505050506040513d601f19601f82011682018060405250810190610afe919061545a565b600a5460405163b34c8afb60e01b81526001600160a01b038c811660048301529091169063b34c8afb9060240160206040518083038186803b158015610b4357600080fd5b505afa158015610b57573d6000803e3d6000fd5b505050506040513d601f19601f82011682018060405250810190610b7b919061545a565b6040516001600160e01b031960e086901b16815260048101939093526024830191909152604482015260640160206040518083038186803b158015610bbf57600080fd5b505afa158015610bd3573d6000803e3d6000fd5b505050506040513d601f19601f82011682018060405250810190610bf7919061545a565b90506000610c0361282b565b600a54604051630fefbc0960e01b81526001600160a01b038a8116600483015292831692631ba326c4928792911690630fefbc099060240160206040518083038186803b158015610c5357600080fd5b505afa158015610c67573d6000803e3d6000fd5b505050506040513d601f19601f82011682018060405250810190610c8b919061545a565b600a5460405163e6ae1a9760e01b81526001600160a01b038d811660048301529091169063e6ae1a979060240160206040518083038186803b158015610cd057600080fd5b505afa158015610ce4573d6000803e3d6000fd5b505050506040513d601f19601f82011682018060405250810190610d08919061545a565b6040516001600160e01b031960e086901b16815260048101939093526024830191909152604482015260640160206040518083038186803b158015610d4c57600080fd5b505afa158015610d60573d6000803e3d6000fd5b505050506040513d601f19601f82011682018060405250810190610d84919061545a565b9050610d8e61282b565b60405163595a88a760e01b8152600481018790526024810186905260448101849052606481018390526001600160a01b03919091169063595a88a79060840160206040518083038186803b158015610de557600080fd5b505afa158015610df9573d6000803e3d6000fd5b505050506040513d601f19601f82011682018060405250810190610e1d919061545a565b955050505050505b92915050565b600f8181548110610e3b57600080fd5b600091825260209091200154905081565b60005460ff1615610e8d5760405162461bcd60e51b81526020600482015260066024820152651a5b9a5d195960d21b60448201526064015b60405180910390fd5b60008054600160ff199091168117909155600880546001600160a01b03199081166001600160a01b039687161790915560098054821694861694909417909355600a805490931691909316179055600381905560048190556005908155600b5560c8600c556101f4600d55565b6000610f0c858560008660008761134e565b90505b949350505050565b600a54604051636c66769560e11b81526001600160a01b0383811660048301529091169063d8cced2a9060240160206040518083038186803b158015610f5c57600080fd5b505afa158015610f70573d6000803e3d6000fd5b505050506040513d601f19601f82011682018060405250810190610f949190615426565b610fcd5760405162461bcd60e51b815260206004820152600a6024820152692737ba1030b731b437b960b11b6044820152606401610e84565b600a5460405163b34c8afb60e01b81526001600160a01b0384811660048301529091169063b34c8afb9060240160206040518083038186803b15801561101257600080fd5b505afa158015611026573d6000803e3d6000fd5b505050506040513d601f19601f8201168201806040525081019061104a919061545a565b600a5460405163b34c8afb60e01b81526001600160a01b0384811660048301529091169063b34c8afb9060240160206040518083038186803b15801561108f57600080fd5b505afa1580156110a3573d6000803e3d6000fd5b505050506040513d601f19601f820116820180604052508101906110c7919061545a565b116111015760405162461bcd60e51b815260206004820152600a6024820152692737ba103232b2b832b960b11b6044820152606401610e84565b61110f82600d546000614277565b61111d81600c546001614277565b6001600160a01b03808316600090815260076020526040808220805460ff199081169091559284168252812080549092166001179091555b600e5481101561120857826001600160a01b0316600e828154811061118a57634e487b7160e01b600052603260045260246000fd5b6000918252602090912001546001600160a01b031614156111f65781600e82815481106111c757634e487b7160e01b600052603260045260246000fd5b9060005260206000200160006101000a8154816001600160a01b0302191690836001600160a01b031602179055505b806112008161572d565b915050611155565b50611212816139e8565b5050565b600061122a8484600085600061271061134e565b90505b9392505050565b61123c612c92565b6001600160a01b0316336001600160a01b0316146112865760405162461bcd60e51b81526020600482015260076024820152664e6f742044414f60c81b6044820152606401610e84565b600b92909255600c55600d55565b6000806112a1868661447a565b905060006112af858561447a565b90506112bd338684846147e6565b600a5460405163fde3b26560e01b81526001600160a01b039091169063fde3b265906112f1908a9089903390600401615635565b602060405180830381600087803b15801561130b57600080fd5b505af115801561131f573d6000803e3d6000fd5b505050506040513d601f19601f82011682018060405250810190611343919061545a565b979650505050505050565b6000338561136657611360878961447a565b506113ef565b600a54604051636e76408b60e11b81526001600160a01b0389811660048301526113ed92169063dcec811690602401602060405180830381600087803b1580156113af57600080fd5b505af11580156113c3573d6000803e3d6000fd5b505050506040513d601f19601f820116820180604052508101906113e7919061527c565b8961447a565b505b600a54604051636c66769560e11b81526001600160a01b038981166004830152600092169063d8cced2a9060240160206040518083038186803b15801561143557600080fd5b505afa158015611449573d6000803e3d6000fd5b505050506040513d601f19601f8201168201806040525081019061146d9190615426565b806114f05750600a54604051636c66769560e11b81526001600160a01b0388811660048301529091169063d8cced2a9060240160206040518083038186803b1580156114b857600080fd5b505afa1580156114cc573d6000803e3d6000fd5b505050506040513d601f19601f820116820180604052508101906114f09190615426565b1561150757506008546001600160a01b0316611515565b506009546001600160a01b03165b61151e86612343565b15611756578361152c61282b565b600a5460405163e6ae1a9760e01b81526001600160a01b038c8116600483015292831692632db6e488928e9291169063e6ae1a979060240160206040518083038186803b15801561157c57600080fd5b505afa158015611590573d6000803e3d6000fd5b505050506040513d601f19601f820116820180604052508101906115b4919061545a565b6040516001600160e01b031960e085901b1681526004810192909252602482015260440160206040518083038186803b1580156115f057600080fd5b505afa158015611604573d6000803e3d6000fd5b505050506040513d601f19601f82011682018060405250810190611628919061545a565b111561163357600080fd5b866116c857600a5460405163efc34aab60e01b81526001600160a01b039091169063efc34aab9061166f9084908c908790600190600401615658565b602060405180830381600087803b15801561168957600080fd5b505af115801561169d573d6000803e3d6000fd5b505050506040513d601f19601f820116820180604052508101906116c1919061545a565b9250611751565b600a546040516371d6d97b60e11b81526001600160a01b039091169063e3adb2f6906116fc9084908c908790600401615635565b602060405180830381600087803b15801561171657600080fd5b505af115801561172a573d6000803e3d6000fd5b505050506040513d601f19601f8201168201806040525081019061174e919061545a565b92505b611d06565b61175f88612343565b156118e4578361176d61282b565b600a5460405163b34c8afb60e01b81526001600160a01b038a8116600483015292831692632db6e488928e9291169063b34c8afb9060240160206040518083038186803b1580156117bd57600080fd5b505afa1580156117d1573d6000803e3d6000fd5b505050506040513d601f19601f820116820180604052508101906117f5919061545a565b6040516001600160e01b031960e085901b1681526004810192909252602482015260440160206040518083038186803b15801561183157600080fd5b505afa158015611845573d6000803e3d6000fd5b505050506040513d601f19601f82011682018060405250810190611869919061545a565b111561187457600080fd5b846118b057600a5460405163efc34aab60e01b81526001600160a01b039091169063efc34aab9061166f9084908a908790600090600401615658565b600a5460405163680b1a3f60e11b81526001600160a01b039091169063d016347e906116fc9084908a908790600401615635565b6118ed88612343565b15801561190057506118fe86612343565b155b15611d06578361190e61282b565b600a5460405163e6ae1a9760e01b81526001600160a01b038c8116600483015292831692632db6e488928e9291169063e6ae1a979060240160206040518083038186803b15801561195e57600080fd5b505afa158015611972573d6000803e3d6000fd5b505050506040513d601f19601f82011682018060405250810190611996919061545a565b6040516001600160e01b031960e085901b1681526004810192909252602482015260440160206040518083038186803b1580156119d257600080fd5b505afa1580156119e6573d6000803e3d6000fd5b505050506040513d601f19601f82011682018060405250810190611a0a919061545a565b1115611a1557600080fd5b86611aa957600a5460405163efc34aab60e01b81526001600160a01b039091169063efc34aab90611a519084908c908590600190600401615658565b602060405180830381600087803b158015611a6b57600080fd5b505af1158015611a7f573d6000803e3d6000fd5b505050506040513d601f19601f82011682018060405250810190611aa3919061545a565b50611b31565b600a546040516371d6d97b60e11b81526001600160a01b039091169063e3adb2f690611add9084908c908590600401615635565b602060405180830381600087803b158015611af757600080fd5b505af1158015611b0b573d6000803e3d6000fd5b505050506040513d601f19601f82011682018060405250810190611b2f919061545a565b505b83611b3a61282b565b600a5460405163b34c8afb60e01b81526001600160a01b038a8116600483015292831692632db6e488928e9291169063b34c8afb9060240160206040518083038186803b158015611b8a57600080fd5b505afa158015611b9e573d6000803e3d6000fd5b505050506040513d601f19601f82011682018060405250810190611bc2919061545a565b6040516001600160e01b031960e085901b1681526004810192909252602482015260440160206040518083038186803b158015611bfe57600080fd5b505afa158015611c12573d6000803e3d6000fd5b505050506040513d601f19601f82011682018060405250810190611c36919061545a565b1115611c4157600080fd5b84611c7d57600a5460405163efc34aab60e01b81526001600160a01b039091169063efc34aab906116fc9084908a908790600090600401615658565b600a5460405163680b1a3f60e11b81526001600160a01b039091169063d016347e90611cb19084908a908790600401615635565b602060405180830381600087803b158015611ccb57600080fd5b505af1158015611cdf573d6000803e3d6000fd5b505050506040513d601f19601f82011682018060405250810190611d03919061545a565b92505b611d10818961488c565b611d1a818761488c565b611d23886149e5565b611d2c866149e5565b50509695505050505050565b600b54600e5410611d4857600080fd5b600a54604051636c66769560e11b81526001600160a01b0383811660048301529091169063d8cced2a9060240160206040518083038186803b158015611d8d57600080fd5b505afa158015611da1573d6000803e3d6000fd5b505050506040513d601f19601f82011682018060405250810190611dc59190615426565b611dce57600080fd5b600e80546001810182556000919091527fbb7b4a454dc3493923482f07822329ed19e8244eff582cc204f8554c3620c3fd0180546001600160a01b0319166001600160a01b038316179055600f611e2361282b565b6001600160a01b031663db39dc79836001546040518363ffffffff1660e01b8152600401611e529291906156a6565b60206040518083038186803b158015611e6a57600080fd5b505afa158015611e7e573d6000803e3d6000fd5b505050506040513d601f19601f82011682018060405250810190611ea2919061545a565b81546001818101845560009384526020808520909201929092556001600160a01b0384168352600790526040909120805460ff19169091179055611ee5816139e8565b50565b6001600160a01b038181166000908152601460209081526040808320878516845260019081018352818420948716845284018252808320546002909401909152812054909190611f3661282b565b6040516306e8c9b160e21b81526004810189905260248101849052604481018390526001600160a01b039190911690631ba326c49060640160206040518083038186803b158015611f8657600080fd5b505afa15801561131f573d6000803e3d6000fd5b611fa2612c92565b6001600160a01b0316336001600160a01b031614611fec5760405162461bcd60e51b81526020600482015260076024820152664e6f742044414f60c81b6044820152606401610e84565b600392909255600455600555565b600080612005610886565b9050806001548461201691906156f7565b61202091906156d7565b9150505b919050565b60006120348461237c565b15612114576001600160a01b03808616600090815260136020908152604080832093881683529290529081205461206b9042615716565b9050600454811161210e5761207e61282b565b600480546040516306e8c9b160e21b81529182018490526024820152604481018590526001600160a01b039190911690631ba326c49060640160206040518083038186803b1580156120cf57600080fd5b505afa1580156120e3573d6000803e3d6000fd5b505050506040513d601f19601f82011682018060405250810190612107919061545a565b9150612112565b8291505b505b61211c61282b565b60405163714270ab60e01b815260048101859052602481018390526001600160a01b03919091169063714270ab9060440160206040518083038186803b15801561216557600080fd5b505afa158015612179573d6000803e3d6000fd5b505050506040513d601f19601f82011682018060405250810190610f0c919061545a565b600a54604051636c66769560e11b81526001600160a01b038381166004830152600092169063d8cced2a9060240160206040518083038186803b1580156121e357600080fd5b505afa1580156121f7573d6000803e3d6000fd5b505050506040513d601f19601f8201168201806040525081019061221b9190615426565b8061229e5750600a5460405163643fd21560e11b81526001600160a01b0384811660048301529091169063c87fa42a9060240160206040518083038186803b15801561226657600080fd5b505afa15801561227a573d6000803e3d6000fd5b505050506040513d601f19601f8201168201806040525081019061229e9190615426565b1561202457506001919050565b6008546040516370a0823160e01b81523060048201526000916001600160a01b0316906370a08231906024015b60206040518083038186803b1580156122f057600080fd5b505afa158015612304573d6000803e3d6000fd5b505050506040513d601f19601f820116820180604052508101906109a4919061545a565b600080612333610886565b60015490915061201684836156f7565b6008546000906001600160a01b038381169116148061236f57506009546001600160a01b038381169116145b1561202457506001612024565b6001600160a01b03811660009081526007602052604081205460ff161561202457506001919050565b60006123b184846131a8565b60006123be838688614a70565b90506000806123cf838888886128a8565b6001600160a01b03808a166000908152601560209081526040808320938c1683529290529081208054939550919350859261240b9084906156bf565b90915550506001600160a01b038088166000908152601660209081526040808320938a16835292905290812080548492906124479084906156bf565b9091555061245a90508388848989614b9a565b6008546001600160a01b03888116911614806124ee5750600a54604051636c66769560e11b81526001600160a01b0388811660048301529091169063d8cced2a9060240160206040518083038186803b1580156124b657600080fd5b505afa1580156124ca573d6000803e3d6000fd5b505050506040513d601f19601f820116820180604052508101906124ee9190615426565b1561260f57600854600a5460405163a9059cbb60e01b81526001600160a01b039283169263a9059cbb926125299291169085906004016156a6565b602060405180830381600087803b15801561254357600080fd5b505af1158015612557573d6000803e3d6000fd5b505050506040513d601f19601f8201168201806040525081019061257b9190615426565b50600a5460085460405163efc34aab60e01b81526001600160a01b039283169263efc34aab926125b7929116908a908a90600090600401615658565b602060405180830381600087803b1580156125d157600080fd5b505af11580156125e5573d6000803e3d6000fd5b505050506040513d601f19601f82011682018060405250810190612609919061545a565b506127c0565b6009546001600160a01b03888116911614806126a35750600a5460405163643fd21560e11b81526001600160a01b0388811660048301529091169063c87fa42a9060240160206040518083038186803b15801561266b57600080fd5b505afa15801561267f573d6000803e3d6000fd5b505050506040513d601f19601f820116820180604052508101906126a39190615426565b156127c057600954600a5460405163a9059cbb60e01b81526001600160a01b039283169263a9059cbb926126de9291169085906004016156a6565b602060405180830381600087803b1580156126f857600080fd5b505af115801561270c573d6000803e3d6000fd5b505050506040513d601f19601f820116820180604052508101906127309190615426565b50600a5460095460405163efc34aab60e01b81526001600160a01b039283169263efc34aab9261276c929116908a908a90600090600401615658565b602060405180830381600087803b15801561278657600080fd5b505af115801561279a573d6000803e3d6000fd5b505050506040513d601f19601f820116820180604052508101906127be919061545a565b505b856001600160a01b0316876001600160a01b0316866001600160a01b03167fae998ad28d77f73e6eb1de185a4d9c3656e19b47125aa0e732ceabecefdd30618b86604051612818929190918252602082015260400190565b60405180910390a4509695505050505050565b60085460408051637b0e5c4560e01b815290516000926001600160a01b031691637b0e5c45916004808301926020929190829003018186803b15801561287057600080fd5b505afa158015612884573d6000803e3d6000fd5b505050506040513d601f19601f820116820180604052508101906109a4919061527c565b600080806127106128bb88611a0a6156f7565b6128c591906156d7565b90506128d086612343565b156128dd57809150612c01565b6128e68661219d565b15612a83576128f361282b565b600a5460405163024ef37560e41b81526001600160a01b038981166004830152878116602483015292831692634a1276519285929116906324ef37509060440160206040518083038186803b15801561294b57600080fd5b505afa15801561295f573d6000803e3d6000fd5b505050506040513d601f19601f82011682018060405250810190612983919061545a565b600a5460405163b34c8afb60e01b81526001600160a01b038c811660048301529091169063b34c8afb9060240160206040518083038186803b1580156129c857600080fd5b505afa1580156129dc573d6000803e3d6000fd5b505050506040513d601f19601f82011682018060405250810190612a00919061545a565b6040516001600160e01b031960e086901b16815260048101939093526024830191909152604482015260640160206040518083038186803b158015612a4457600080fd5b505afa158015612a58573d6000803e3d6000fd5b505050506040513d601f19601f82011682018060405250810190612a7c919061545a565b9150612c01565b600a54604051632f011bf560e11b81526001600160a01b03888116600483015290911690635e0237ea90602401602060405180830381600087803b158015612aca57600080fd5b505af1158015612ade573d6000803e3d6000fd5b505050506040513d601f19601f82011682018060405250810190612b029190615426565b15612c0157612b0f61282b565b6001600160a01b031663b80e44b8876001600160a01b03166382bfefc86040518163ffffffff1660e01b8152600401602060405180830381600087803b158015612b5857600080fd5b505af1158015612b6c573d6000803e3d6000fd5b505050506040513d601f19601f82011682018060405250810190612b90919061527c565b836040518363ffffffff1660e01b8152600401612bae9291906156a6565b60206040518083038186803b158015612bc657600080fd5b505afa158015612bda573d6000803e3d6000fd5b505050506040513d601f19601f82011682018060405250810190612bfe919061545a565b91505b612c0961282b565b6001600160a01b0316635f2c12e886846040518363ffffffff1660e01b8152600401612c369291906156a6565b60206040518083038186803b158015612c4e57600080fd5b505afa158015612c62573d6000803e3d6000fd5b505050506040513d601f19601f82011682018060405250810190612c86919061545a565b92505094509492505050565b60085460408051634c7d5e9d60e11b815290516000926001600160a01b0316916398fabd3a916004808301926020929190829003018186803b15801561287057600080fd5b6000612ce9868686868661271061134e565b9695505050505050565b6000612cfd610927565b8015612d0d5750612d0d8261237c565b1561202457600a5460405163b34c8afb60e01b81526001600160a01b038481166004830152600092169063b34c8afb9060240160206040518083038186803b158015612d5857600080fd5b505afa158015612d6c573d6000803e3d6000fd5b505050506040513d601f19601f82011682018060405250810190612d90919061545a565b600a5460405163643fd21560e11b81526001600160a01b03868116600483015292935091169063c87fa42a9060240160206040518083038186803b158015612dd757600080fd5b505afa158015612deb573d6000803e3d6000fd5b505050506040513d601f19601f82011682018060405250810190612e0f9190615426565b15612f4a576000612e1e61282b565b6001600160a01b0316631ba326c483600a60009054906101000a90046001600160a01b03166001600160a01b031663a9652dca6040518163ffffffff1660e01b815260040160206040518083038186803b158015612e7b57600080fd5b505afa158015612e8f573d6000803e3d6000fd5b505050506040513d601f19601f82011682018060405250810190612eb3919061545a565b612ebb6139b7565b6040516001600160e01b031960e086901b16815260048101939093526024830191909152604482015260640160206040518083038186803b158015612eff57600080fd5b505afa158015612f13573d6000803e3d6000fd5b505050506040513d601f19601f82011682018060405250810190612f37919061545a565b9050612f4281613104565b9250506130fe565b600a54604051636c66769560e11b81526001600160a01b0385811660048301529091169063d8cced2a9060240160206040518083038186803b158015612f8f57600080fd5b505afa158015612fa3573d6000803e3d6000fd5b505050506040513d601f19601f82011682018060405250810190612fc79190615426565b156130fe576000612fd661282b565b6001600160a01b0316631ba326c483600a60009054906101000a90046001600160a01b03166001600160a01b031663dd5a2bd86040518163ffffffff1660e01b815260040160206040518083038186803b15801561303357600080fd5b505afa158015613047573d6000803e3d6000fd5b505050506040513d601f19601f8201168201806040525081019061306b919061545a565b6130736122ab565b6040516001600160e01b031960e086901b16815260048101939093526024830191909152604482015260640160206040518083038186803b1580156130b757600080fd5b505afa1580156130cb573d6000803e3d6000fd5b505050506040513d601f19601f820116820180604052508101906130ef919061545a565b90506130fa81613104565b9250505b50919050565b600061310e61282b565b6003546040516306e8c9b160e21b8152600160048201526024810191909152604481018490526001600160a01b039190911690631ba326c49060640160206040518083038186803b15801561316257600080fd5b505afa158015613176573d6000803e3d6000fd5b505050506040513d601f19601f82011682018060405250810190610e25919061545a565b600061122a84848433613b9b565b6008546001600160a01b038381169116141561327957600a54604051636c66769560e11b81526001600160a01b0383811660048301529091169063d8cced2a906024015b60206040518083038186803b15801561320457600080fd5b505afa158015613218573d6000803e3d6000fd5b505050506040513d601f19601f8201168201806040525081019061323c9190615426565b6132745760405162461bcd60e51b815260206004820152600960248201526842616420436f6d626f60b81b6044820152606401610e84565b611212565b6009546001600160a01b03838116911614156132c157600a5460405163643fd21560e11b81526001600160a01b0383811660048301529091169063c87fa42a906024016131ec565b600a54604051632f011bf560e11b81526001600160a01b03848116600483015290911690635e0237ea90602401602060405180830381600087803b15801561330857600080fd5b505af115801561331c573d6000803e3d6000fd5b505050506040513d601f19601f820116820180604052508101906133409190615426565b80156134555750600a60009054906101000a90046001600160a01b03166001600160a01b031663d8cced2a836001600160a01b03166382bfefc86040518163ffffffff1660e01b8152600401602060405180830381600087803b1580156133a657600080fd5b505af11580156133ba573d6000803e3d6000fd5b505050506040513d601f19601f820116820180604052508101906133de919061527c565b6040516001600160e01b031960e084901b1681526001600160a01b03909116600482015260240160206040518083038186803b15801561341d57600080fd5b505afa158015613431573d6000803e3d6000fd5b505050506040513d601f19601f820116820180604052508101906134559190615426565b1561348c57600a54604051636c66769560e11b81526001600160a01b0383811660048301529091169063d8cced2a906024016131ec565b600a54604051632f011bf560e11b81526001600160a01b03848116600483015290911690635e0237ea90602401602060405180830381600087803b1580156134d357600080fd5b505af11580156134e7573d6000803e3d6000fd5b505050506040513d601f19601f8201168201806040525081019061350b9190615426565b80156136205750600a60009054906101000a90046001600160a01b03166001600160a01b031663c87fa42a836001600160a01b03166382bfefc86040518163ffffffff1660e01b8152600401602060405180830381600087803b15801561357157600080fd5b505af1158015613585573d6000803e3d6000fd5b505050506040513d601f19601f820116820180604052508101906135a9919061527c565b6040516001600160e01b031960e084901b1681526001600160a01b03909116600482015260240160206040518083038186803b1580156135e857600080fd5b505afa1580156135fc573d6000803e3d6000fd5b505050506040513d601f19601f820116820180604052508101906136209190615426565b1561121257600a5460405163643fd21560e11b81526001600160a01b0383811660048301529091169063c87fa42a9060240160206040518083038186803b15801561366a57600080fd5b505afa15801561367e573d6000803e3d6000fd5b505050506040513d601f19601f820116820180604052508101906136a29190615426565b6112125760405162461bcd60e51b815260206004820152600960248201526842616420436f6d626f60b81b6044820152606401610e84565b600a5460405163643fd21560e11b81526001600160a01b0383811660048301529091169063c87fa42a9060240160206040518083038186803b15801561371f57600080fd5b505afa158015613733573d6000803e3d6000fd5b505050506040513d601f19601f820116820180604052508101906137579190615426565b806137da5750600a54604051636c66769560e11b81526001600160a01b0383811660048301529091169063d8cced2a9060240160206040518083038186803b1580156137a257600080fd5b505afa1580156137b6573d6000803e3d6000fd5b505050506040513d601f19601f820116820180604052508101906137da9190615426565b6137e357600080fd5b6137ec8161237c565b61383b57600554600654101561383b576001600160a01b0381166000908152600760205260408120805460ff1916600190811790915560068054919290916138359084906156bf565b90915550505b6040516001600160a01b0382169033907fb2f6cc014bc6265032f32972254d5e024ec51ed94c0aaf2280128336be54a04190600090a350565b600061122a848484336123a5565b600a54604051636ba97d5960e11b815260009182916001600160a01b039091169063d752fab2906138bb90889088908890600401615682565b6040805180830381600087803b1580156138d457600080fd5b505af11580156138e8573d6000803e3d6000fd5b505050506040513d601f19601f8201168201806040525081019061390c91906155e7565b9092509050600061391f33878787613b3c565b905061392d33868684614c3c565b60405163a9059cbb60e01b81526001600160a01b0387169063a9059cbb9061395b90339085906004016156a6565b602060405180830381600087803b15801561397557600080fd5b505af1158015613989573d6000803e3d6000fd5b505050506040513d601f19601f820116820180604052508101906139ad9190615426565b5050935093915050565b6009546040516370a0823160e01b81523060048201526000916001600160a01b0316906370a08231906024016122d8565b60005b600e5481101561121257816001600160a01b0316600e8281548110613a2057634e487b7160e01b600052603260045260246000fd5b6000918252602090912001546001600160a01b03161415613b2a57613a4361282b565b6001600160a01b031663db39dc79600e8381548110613a7257634e487b7160e01b600052603260045260246000fd5b6000918252602090912001546001546040516001600160e01b031960e085901b168152613aac926001600160a01b031691906004016156a6565b60206040518083038186803b158015613ac457600080fd5b505afa158015613ad8573d6000803e3d6000fd5b505050506040513d601f19601f82011682018060405250810190613afc919061545a565b600f8281548110613b1d57634e487b7160e01b600052603260045260246000fd5b6000918252602090912001555b80613b348161572d565b9150506139eb565b6000613b4e85848461055789886109a9565b6008549091506001600160a01b0385811691161415613b8557613b6f6122ab565b8110613b8057613b7d6122ab565b90505b610f0f565b613b8d6139b7565b8110610f0f57610f0c6139b7565b600080613ba8848761447a565b6008549091506001600160a01b0386811691161480613c3f5750600a54604051636c66769560e11b81526001600160a01b0386811660048301529091169063d8cced2a9060240160206040518083038186803b158015613c0757600080fd5b505afa158015613c1b573d6000803e3d6000fd5b505050506040513d601f19601f82011682018060405250810190613c3f9190615426565b15613cd757600a5460085460405163efc34aab60e01b81526001600160a01b039283169263efc34aab92613c7f9291169088903090600190600401615658565b602060405180830381600087803b158015613c9957600080fd5b505af1158015613cad573d6000803e3d6000fd5b505050506040513d601f19601f82011682018060405250810190613cd1919061545a565b50613dff565b6009546001600160a01b0386811691161480613d6b5750600a5460405163643fd21560e11b81526001600160a01b0386811660048301529091169063c87fa42a9060240160206040518083038186803b158015613d3357600080fd5b505afa158015613d47573d6000803e3d6000fd5b505050506040513d601f19601f82011682018060405250810190613d6b9190615426565b15613dff57600a5460095460405163efc34aab60e01b81526001600160a01b039283169263efc34aab92613dab9291169088903090600190600401615658565b602060405180830381600087803b158015613dc557600080fd5b505af1158015613dd9573d6000803e3d6000fd5b505050506040513d601f19601f82011682018060405250810190613dfd919061545a565b505b613e0b81868686611ee8565b6001600160a01b038087166000908152601560209081526040808320938916835292905290812080549294508492909190613e47908490615716565b90915550506001600160a01b03808616600090815260166020908152604080832093881683529290529081208054839290613e83908490615716565b90915550613e9690508286838787614e54565b836001600160a01b0316856001600160a01b0316846001600160a01b03167f80cf2752eb276900a648b467a8fe8180e3192a2370982e997e928b3dc8b99ba18585604051613eee929190918252602082015260400190565b60405180910390a4613f01838684614eea565b50949350505050565b600a5460405163643fd21560e11b81526001600160a01b0383811660048301529091169063c87fa42a9060240160206040518083038186803b158015613f4f57600080fd5b505afa158015613f63573d6000803e3d6000fd5b505050506040513d601f19601f82011682018060405250810190613f879190615426565b613f9057600080fd5b600a5460405163b34c8afb60e01b81526001600160a01b0384811660048301529091169063b34c8afb9060240160206040518083038186803b158015613fd557600080fd5b505afa158015613fe9573d6000803e3d6000fd5b505050506040513d601f19601f8201168201806040525081019061400d919061545a565b600a5460405163b34c8afb60e01b81526001600160a01b0384811660048301529091169063b34c8afb9060240160206040518083038186803b15801561405257600080fd5b505afa158015614066573d6000803e3d6000fd5b505050506040513d601f19601f8201168201806040525081019061408a919061545a565b1115611212576001600160a01b03808316600090815260076020526040808220805460ff1990811690915592841680835281832080549094166001179093555133917fb2f6cc014bc6265032f32972254d5e024ec51ed94c0aaf2280128336be54a04191a35050565b600e818154811061410357600080fd5b6000918252602090912001546001600160a01b0316905081565b805160609060005b8181101561426f57600061413a8260016156bf565b90505b8281101561425c5784818151811061416557634e487b7160e01b600052603260045260246000fd5b602002602001015185838151811061418d57634e487b7160e01b600052603260045260246000fd5b6020026020010151111561424a5760008583815181106141bd57634e487b7160e01b600052603260045260246000fd5b602002602001015190508582815181106141e757634e487b7160e01b600052603260045260246000fd5b602002602001015186848151811061420f57634e487b7160e01b600052603260045260246000fd5b6020026020010181815250508086838151811061423c57634e487b7160e01b600052603260045260246000fd5b602002602001018181525050505b806142548161572d565b91505061413d565b50806142678161572d565b915050614125565b509192915050565b6000614281610886565b9050600061428d61282b565b6001600160a01b031663db39dc79866001546040518363ffffffff1660e01b81526004016142bc9291906156a6565b60206040518083038186803b1580156142d457600080fd5b505afa1580156142e8573d6000803e3d6000fd5b505050506040513d601f19601f8201168201806040525081019061430c919061545a565b9050600061431861282b565b6001600160a01b031663714270ab866002546143349190615716565b856040518363ffffffff1660e01b815260040161435b929190918252602082015260400190565b60206040518083038186803b15801561437357600080fd5b505afa158015614387573d6000803e3d6000fd5b505050506040513d601f19601f820116820180604052508101906143ab919061545a565b6002549091506000906143be87826156bf565b6143c890866156f7565b6143d291906156d7565b90508415614428578183101580156143ea5750808311155b6144235760405162461bcd60e51b815260206004820152600a6024820152694e6f7420696e7369646560b01b6044820152606401610e84565b614471565b81831115806144375750808310155b6144715760405162461bcd60e51b815260206004820152600b60248201526a4e6f74206f75747369646560a81b6044820152606401610e84565b50505050505050565b6008546000906001600160a01b03848116911614806144a657506009546001600160a01b038481169116145b8061452b5750600a54604051632f011bf560e11b81526001600160a01b03858116600483015290911690635e0237ea90602401602060405180830381600087803b1580156144f357600080fd5b505af1158015614507573d6000803e3d6000fd5b505050506040513d601f19601f8201168201806040525081019061452b9190615426565b15614653575080323314156145c657600a546040516302ccb1b360e41b81526001600160a01b0385811692632ccb1b309261456e929091169086906004016156a6565b602060405180830381600087803b15801561458857600080fd5b505af115801561459c573d6000803e3d6000fd5b505050506040513d601f19601f820116820180604052508101906145c09190615426565b5061464e565b600a546040516323b872dd60e01b81526001600160a01b03808616926323b872dd926145fa92339216908790600401615682565b602060405180830381600087803b15801561461457600080fd5b505af1158015614628573d6000803e3d6000fd5b505050506040513d601f19601f8201168201806040525081019061464c9190615426565b505b610e25565b600a546040516370a0823160e01b81526001600160a01b0391821660048201526000918516906370a082319060240160206040518083038186803b15801561469a57600080fd5b505afa1580156146ae573d6000803e3d6000fd5b505050506040513d601f19601f820116820180604052508101906146d2919061545a565b600a546040516323b872dd60e01b81529192506001600160a01b03808716926323b872dd9261470a9233929116908890600401615682565b602060405180830381600087803b15801561472457600080fd5b505af1158015614738573d6000803e3d6000fd5b505050506040513d601f19601f8201168201806040525081019061475c9190615426565b50600a546040516370a0823160e01b81526001600160a01b03918216600482015282918616906370a08231906024015b60206040518083038186803b1580156147a457600080fd5b505afa1580156147b8573d6000803e3d6000fd5b505050506040513d601f19601f820116820180604052508101906147dc919061545a565b610f0f9190615716565b6001600160a01b0380851660009081526011602090815260408083209387168352929052908120805484929061481d9084906156bf565b90915550506001600160a01b038085166000908152601260209081526040808320938716835292905290812080548392906148599084906156bf565b9091555050506001600160a01b039283166000908152601360209081526040808320949095168252929092525020429055565b61489581612343565b6112125760006148a482612cf3565b600a5460405163a9059cbb60e01b81529192506001600160a01b038086169263a9059cbb926148d992169085906004016156a6565b602060405180830381600087803b1580156148f357600080fd5b505af1158015614907573d6000803e3d6000fd5b505050506040513d601f19601f8201168201806040525081019061492b9190615426565b50600a54604051633041949b60e01b81526001600160a01b038581166004830152848116602483015290911690633041949b90604401600060405180830381600087803b15801561497b57600080fd5b505af115801561498f573d6000803e3d6000fd5b50505050816001600160a01b0316836001600160a01b03167f416b0b234ccd4d6d72c4b1a3a09b472a71981d9bbf0f26ab44774e0e3425fad6836040516149d891815260200190565b60405180910390a3505050565b600a54604051636c66769560e11b81526001600160a01b0383811660048301529091169063d8cced2a9060240160206040518083038186803b158015614a2a57600080fd5b505afa158015614a3e573d6000803e3d6000fd5b505050506040513d601f19601f82011682018060405250810190614a629190615426565b15611ee557611ee5816139e8565b6000614a7b83612343565b80614b005750600a54604051632f011bf560e11b81526001600160a01b03858116600483015290911690635e0237ea90602401602060405180830381600087803b158015614ac857600080fd5b505af1158015614adc573d6000803e3d6000fd5b505050506040513d601f19601f82011682018060405250810190614b009190615426565b15614b1657614b0f838361500a565b905061122d565b614b1f8361219d565b1561122d57600a5460405163783ba87960e01b8152600481018490526001600160a01b03858116602483015286811660448301529091169063783ba87990606401600060405180830381600087803b158015614b7a57600080fd5b505af1158015614b8e573d6000803e3d6000fd5b50939695505050505050565b6001600160a01b03808216600090815260146020908152604080832088851684526001908101835281842094871684529390930190529081208054859290614be39084906156bf565b90915550506001600160a01b038082166000908152601460209081526040808320888516845260010182528083209386168352600290930190529081208054879290614c309084906156bf565b90915550505050505050565b6001600160a01b03808516600090815260116020908152604080832093871683529290529081208054839290614c739084906156bf565b9091555060009050614c8361282b565b6001600160a01b03868116600090815260116020908152604080832089851684529091529081902054905163714270ab60e01b815260048101879052602481019190915291169063714270ab9060440160206040518083038186803b158015614ceb57600080fd5b505afa158015614cff573d6000803e3d6000fd5b505050506040513d601f19601f82011682018060405250810190614d23919061545a565b90506000614d2f61282b565b6001600160a01b0387811660009081526012602090815260408083208a851684529091529081902054905163714270ab60e01b815260048101889052602481019190915291169063714270ab9060440160206040518083038186803b158015614d9757600080fd5b505afa158015614dab573d6000803e3d6000fd5b505050506040513d601f19601f82011682018060405250810190614dcf919061545a565b6001600160a01b038088166000908152601160209081526040808320938a16835292905290812080549293508492909190614e0b908490615716565b90915550506001600160a01b03808716600090815260126020908152604080832093891683529290529081208054839290614e47908490615716565b9091555050505050505050565b6001600160a01b03808216600090815260146020908152604080832088851684526001908101835281842094871684529390930190529081208054859290614e9d908490615716565b90915550506001600160a01b038082166000908152601460209081526040808320888516845260010182528083209386168352600290930190529081208054879290614c30908490615716565b614ef382612343565b80614f785750600a54604051632f011bf560e11b81526001600160a01b03848116600483015290911690635e0237ea90602401602060405180830381600087803b158015614f4057600080fd5b505af1158015614f54573d6000803e3d6000fd5b505050506040513d601f19601f82011682018060405250810190614f789190615426565b15614f8d57614f888284836151d7565b615005565b614f968261219d565b1561500557600a5460405163798e23d560e01b8152600481018390526001600160a01b03848116602483015285811660448301529091169063798e23d590606401600060405180830381600087803b158015614ff157600080fd5b505af1158015614471573d6000803e3d6000fd5b505050565b6040516370a0823160e01b815230600482015260009081906001600160a01b038516906370a082319060240160206040518083038186803b15801561504e57600080fd5b505afa158015615062573d6000803e3d6000fd5b505050506040513d601f19601f82011682018060405250810190615086919061545a565b90503233141561511e576040516302ccb1b360e41b81526001600160a01b03851690632ccb1b30906150be90309087906004016156a6565b602060405180830381600087803b1580156150d857600080fd5b505af11580156150ec573d6000803e3d6000fd5b505050506040513d601f19601f820116820180604052508101906151109190615426565b61511957600080fd5b6151a9565b6040516323b872dd60e01b81526001600160a01b038516906323b872dd9061514e90339030908890600401615682565b602060405180830381600087803b15801561516857600080fd5b505af115801561517c573d6000803e3d6000fd5b505050506040513d601f19601f820116820180604052508101906151a09190615426565b6151a957600080fd5b6040516370a0823160e01b815230600482015281906001600160a01b038616906370a082319060240161478c565b60405163a9059cbb60e01b81526001600160a01b0384169063a9059cbb9061520590859085906004016156a6565b602060405180830381600087803b15801561521f57600080fd5b505af1158015615233573d6000803e3d6000fd5b505050506040513d601f19601f820116820180604052508101906152579190615426565b61500557600080fd5b600060208284031215615271578081fd5b813561122d8161575e565b60006020828403121561528d578081fd5b815161122d8161575e565b600080604083850312156152aa578081fd5b82356152b58161575e565b915060208301356152c58161575e565b809150509250929050565b6000806000606084860312156152e4578081fd5b83356152ef8161575e565b925060208401356152ff8161575e565b9150604084013561530f8161575e565b809150509250925092565b6000806000806080858703121561532f578081fd5b843561533a8161575e565b9350602085013561534a8161575e565b9250604085013561535a8161575e565b9396929550929360600135925050565b60008060006060848603121561537e578283fd5b83356153898161575e565b925060208401356153998161575e565b929592945050506040919091013590565b600080600080608085870312156153bf578384fd5b84356153ca8161575e565b935060208501356153da8161575e565b93969395505050506040820135916060013590565b60008060008060808587031215615404578384fd5b843561540f8161575e565b935060208501359250604085013561535a8161575e565b600060208284031215615437578081fd5b815161122d81615773565b600060208284031215615453578081fd5b5035919050565b60006020828403121561546b578081fd5b5051919050565b600080600060608486031215615486578283fd5b8335925060208401356152ff8161575e565b600080600080608085870312156154ad578384fd5b8435935060208501356154bf8161575e565b925060408501356154cf8161575e565b915060608501356154df8161575e565b939692955090935050565b600080600080608085870312156154ff578182fd5b84359350602085013561534a8161575e565b600080600080600060a08688031215615528578283fd5b85359450602086013561553a8161575e565b9350604086013561554a81615773565b9250606086013561555a8161575e565b9150608086013561556a81615773565b809150509295509295909350565b60008060008060008060c08789031215615590578384fd5b8635955060208701356155a28161575e565b945060408701356155b281615773565b935060608701356155c28161575e565b925060808701356155d281615773565b8092505060a087013590509295509295509295565b600080604083850312156155f9578182fd5b505080516020909101519092909150565b60008060006060848603121561561e578081fd5b505081359360208301359350604090920135919050565b6001600160a01b0393841681529183166020830152909116604082015260600190565b6001600160a01b039485168152928416602084015292166040820152901515606082015260800190565b6001600160a01b039384168152919092166020820152604081019190915260600190565b6001600160a01b03929092168252602082015260400190565b600082198211156156d2576156d2615748565b500190565b6000826156f257634e487b7160e01b81526012600452602481fd5b500490565b600081600019048311821515161561571157615711615748565b500290565b60008282101561572857615728615748565b500390565b600060001982141561574157615741615748565b5060010190565b634e487b7160e01b600052601160045260246000fd5b6001600160a01b0381168114611ee557600080fd5b8015158114611ee557600080fdfea26469706673582212204714cdbdae7cf8d8f3c4196e2aeb6a7e61e1e07d4c6c5a1e24afeeb4e04f1b2b64736f6c63430008030033",
  "linkReferences": {},
  "deployedLinkReferences": {}
}