{
  "_format": "hh-sol-artifact-1",
  "contractName": "Router",
  "sourceName": "contracts/Router.sol",
  "abi": [
    {
      "inputs": [],
      "stateMutability": "nonpayable",
      "type": "constructor"
    },
    {
      "anonymous": false,
      "inputs": [
        {
          "indexed": true,
          "internalType": "address",
          "name": "member",
          "type": "address"
        },
        {
          "indexed": true,
          "internalType": "address",
          "name": "collateralAsset",
          "type": "address"
        },
        {
          "indexed": false,
          "internalType": "uint256",
          "name": "collateralLocked",
          "type": "uint256"
        },
        {
          "indexed": true,
          "internalType": "address",
          "name": "debtAsset",
          "type": "address"
        },
        {
          "indexed": false,
          "internalType": "uint256",
          "name": "debtIssued",
          "type": "uint256"
        }
      ],
      "name": "AddCollateral",
      "type": "event"
    },
    {
      "anonymous": false,
      "inputs": [
        {
          "indexed": true,
          "internalType": "address",
          "name": "curator",
          "type": "address"
        },
        {
          "indexed": true,
          "internalType": "address",
          "name": "token",
          "type": "address"
        }
      ],
      "name": "Curated",
      "type": "event"
    },
    {
      "anonymous": false,
      "inputs": [
        {
          "indexed": true,
          "internalType": "address",
          "name": "base",
          "type": "address"
        },
        {
          "indexed": true,
          "internalType": "address",
          "name": "token",
          "type": "address"
        },
        {
          "indexed": false,
          "internalType": "uint256",
          "name": "amount",
          "type": "uint256"
        }
      ],
      "name": "PoolReward",
      "type": "event"
    },
    {
      "anonymous": false,
      "inputs": [
        {
          "indexed": true,
          "internalType": "address",
          "name": "member",
          "type": "address"
        },
        {
          "indexed": false,
          "internalType": "uint256",
          "name": "amount",
          "type": "uint256"
        }
      ],
      "name": "Protection",
      "type": "event"
    },
    {
      "anonymous": false,
      "inputs": [
        {
          "indexed": true,
          "internalType": "address",
          "name": "member",
          "type": "address"
        },
        {
          "indexed": true,
          "internalType": "address",
          "name": "collateralAsset",
          "type": "address"
        },
        {
          "indexed": false,
          "internalType": "uint256",
          "name": "collateralUnlocked",
          "type": "uint256"
        },
        {
          "indexed": true,
          "internalType": "address",
          "name": "debtAsset",
          "type": "address"
        },
        {
          "indexed": false,
          "internalType": "uint256",
          "name": "debtReturned",
          "type": "uint256"
        }
      ],
      "name": "RemoveCollateral",
      "type": "event"
    },
    {
      "inputs": [],
      "name": "VADER",
      "outputs": [
        {
          "internalType": "address",
          "name": "",
          "type": "address"
        }
      ],
      "stateMutability": "view",
      "type": "function"
    },
    {
      "inputs": [
        {
          "internalType": "address",
          "name": "base",
          "type": "address"
        },
        {
          "internalType": "uint256",
          "name": "inputBase",
          "type": "uint256"
        },
        {
          "internalType": "address",
          "name": "token",
          "type": "address"
        },
        {
          "internalType": "uint256",
          "name": "inputToken",
          "type": "uint256"
        }
      ],
      "name": "addLiquidity",
      "outputs": [
        {
          "internalType": "uint256",
          "name": "",
          "type": "uint256"
        }
      ],
      "stateMutability": "nonpayable",
      "type": "function"
    },
    {
      "inputs": [],
      "name": "anchorLimit",
      "outputs": [
        {
          "internalType": "uint256",
          "name": "",
          "type": "uint256"
        }
      ],
      "stateMutability": "view",
      "type": "function"
    },
    {
      "inputs": [
        {
          "internalType": "uint256",
          "name": "",
          "type": "uint256"
        }
      ],
      "name": "arrayAnchors",
      "outputs": [
        {
          "internalType": "address",
          "name": "",
          "type": "address"
        }
      ],
      "stateMutability": "view",
      "type": "function"
    },
    {
      "inputs": [
        {
          "internalType": "uint256",
          "name": "",
          "type": "uint256"
        }
      ],
      "name": "arrayPrices",
      "outputs": [
        {
          "internalType": "uint256",
          "name": "",
          "type": "uint256"
        }
      ],
      "stateMutability": "view",
      "type": "function"
    },
    {
      "inputs": [
        {
          "internalType": "uint256",
          "name": "amount",
          "type": "uint256"
        },
        {
          "internalType": "address",
          "name": "collateralAsset",
          "type": "address"
        },
        {
          "internalType": "address",
          "name": "debtAsset",
          "type": "address"
        }
      ],
      "name": "borrow",
      "outputs": [
        {
          "internalType": "uint256",
          "name": "",
          "type": "uint256"
        }
      ],
      "stateMutability": "nonpayable",
      "type": "function"
    },
    {
      "inputs": [
        {
          "internalType": "address",
          "name": "member",
          "type": "address"
        },
        {
          "internalType": "uint256",
          "name": "amount",
          "type": "uint256"
        },
        {
          "internalType": "address",
          "name": "collateralAsset",
          "type": "address"
        },
        {
          "internalType": "address",
          "name": "debtAsset",
          "type": "address"
        }
      ],
      "name": "borrowForMember",
      "outputs": [
        {
          "internalType": "uint256",
          "name": "",
          "type": "uint256"
        }
      ],
      "stateMutability": "nonpayable",
      "type": "function"
    },
    {
      "inputs": [],
      "name": "checkLiquidate",
      "outputs": [],
      "stateMutability": "nonpayable",
      "type": "function"
    },
    {
      "inputs": [
        {
          "internalType": "address",
          "name": "token",
          "type": "address"
        }
      ],
      "name": "curatePool",
      "outputs": [],
      "stateMutability": "nonpayable",
      "type": "function"
    },
    {
      "inputs": [],
      "name": "curatedPoolCount",
      "outputs": [
        {
          "internalType": "uint256",
          "name": "",
          "type": "uint256"
        }
      ],
      "stateMutability": "view",
      "type": "function"
    },
    {
      "inputs": [],
      "name": "curatedPoolLimit",
      "outputs": [
        {
          "internalType": "uint256",
          "name": "",
          "type": "uint256"
        }
      ],
      "stateMutability": "view",
      "type": "function"
    },
    {
      "inputs": [],
      "name": "emitting",
      "outputs": [
        {
          "internalType": "bool",
          "name": "",
          "type": "bool"
        }
      ],
      "stateMutability": "view",
      "type": "function"
    },
    {
      "inputs": [],
      "name": "getAnchorPrice",
      "outputs": [
        {
          "internalType": "uint256",
          "name": "anchorPrice",
          "type": "uint256"
        }
      ],
      "stateMutability": "view",
      "type": "function"
    },
    {
      "inputs": [
        {
          "internalType": "address",
          "name": "member",
          "type": "address"
        },
        {
          "internalType": "address",
          "name": "base",
          "type": "address"
        },
        {
          "internalType": "address",
          "name": "token",
          "type": "address"
        },
        {
          "internalType": "uint256",
          "name": "basisPoints",
          "type": "uint256"
        }
      ],
      "name": "getILProtection",
      "outputs": [
        {
          "internalType": "uint256",
          "name": "protection",
          "type": "uint256"
        }
      ],
      "stateMutability": "view",
      "type": "function"
    },
    {
      "inputs": [
        {
          "internalType": "address",
          "name": "member",
          "type": "address"
        },
        {
          "internalType": "address",
          "name": "token",
          "type": "address"
        }
      ],
      "name": "getMemberBaseDeposit",
      "outputs": [
        {
          "internalType": "uint256",
          "name": "",
          "type": "uint256"
        }
      ],
      "stateMutability": "view",
      "type": "function"
    },
    {
      "inputs": [
        {
          "internalType": "address",
          "name": "member",
          "type": "address"
        },
        {
          "internalType": "address",
          "name": "collateralAsset",
          "type": "address"
        },
        {
          "internalType": "address",
          "name": "debtAsset",
          "type": "address"
        }
      ],
      "name": "getMemberCollateral",
      "outputs": [
        {
          "internalType": "uint256",
          "name": "",
          "type": "uint256"
        }
      ],
      "stateMutability": "view",
      "type": "function"
    },
    {
      "inputs": [
        {
          "internalType": "address",
          "name": "member",
          "type": "address"
        },
        {
          "internalType": "address",
          "name": "collateralAsset",
          "type": "address"
        },
        {
          "internalType": "address",
          "name": "debtAsset",
          "type": "address"
        }
      ],
      "name": "getMemberDebt",
      "outputs": [
        {
          "internalType": "uint256",
          "name": "",
          "type": "uint256"
        }
      ],
      "stateMutability": "view",
      "type": "function"
    },
    {
      "inputs": [
        {
          "internalType": "address",
          "name": "member",
          "type": "address"
        },
        {
          "internalType": "address",
          "name": "token",
          "type": "address"
        }
      ],
      "name": "getMemberLastDeposit",
      "outputs": [
        {
          "internalType": "uint256",
          "name": "",
          "type": "uint256"
        }
      ],
      "stateMutability": "view",
      "type": "function"
    },
    {
      "inputs": [
        {
          "internalType": "address",
          "name": "member",
          "type": "address"
        },
        {
          "internalType": "address",
          "name": "token",
          "type": "address"
        }
      ],
      "name": "getMemberTokenDeposit",
      "outputs": [
        {
          "internalType": "uint256",
          "name": "",
          "type": "uint256"
        }
      ],
      "stateMutability": "view",
      "type": "function"
    },
    {
      "inputs": [
        {
          "internalType": "address",
          "name": "collateralAsset",
          "type": "address"
        },
        {
          "internalType": "address",
          "name": "debtAsset",
          "type": "address"
        }
      ],
      "name": "getNextEraTime",
      "outputs": [
        {
          "internalType": "uint256",
          "name": "",
          "type": "uint256"
        }
      ],
      "stateMutability": "view",
      "type": "function"
    },
    {
      "inputs": [
        {
          "internalType": "address",
          "name": "collateralAsset",
          "type": "address"
        },
        {
          "internalType": "address",
          "name": "debtAsset",
          "type": "address"
        }
      ],
      "name": "getSystemCollateral",
      "outputs": [
        {
          "internalType": "uint256",
          "name": "",
          "type": "uint256"
        }
      ],
      "stateMutability": "view",
      "type": "function"
    },
    {
      "inputs": [
        {
          "internalType": "address",
          "name": "collateralAsset",
          "type": "address"
        },
        {
          "internalType": "address",
          "name": "debtAsset",
          "type": "address"
        }
      ],
      "name": "getSystemDebt",
      "outputs": [
        {
          "internalType": "uint256",
          "name": "",
          "type": "uint256"
        }
      ],
      "stateMutability": "view",
      "type": "function"
    },
    {
      "inputs": [
        {
          "internalType": "address",
          "name": "collateralAsset",
          "type": "address"
        },
        {
          "internalType": "address",
          "name": "debtAsset",
          "type": "address"
        }
      ],
      "name": "getSystemInterestPaid",
      "outputs": [
        {
          "internalType": "uint256",
          "name": "",
          "type": "uint256"
        }
      ],
      "stateMutability": "view",
      "type": "function"
    },
    {
      "inputs": [
        {
          "internalType": "uint256",
          "name": "vaderAmount",
          "type": "uint256"
        }
      ],
      "name": "getUSDVAmount",
      "outputs": [
        {
          "internalType": "uint256",
          "name": "USDVAmount",
          "type": "uint256"
        }
      ],
      "stateMutability": "view",
      "type": "function"
    },
    {
      "inputs": [
        {
          "internalType": "uint256",
          "name": "USDVAmount",
          "type": "uint256"
        }
      ],
      "name": "getVADERAmount",
      "outputs": [
        {
          "internalType": "uint256",
          "name": "vaderAmount",
          "type": "uint256"
        }
      ],
      "stateMutability": "view",
      "type": "function"
    },
    {
      "inputs": [
        {
          "internalType": "address",
          "name": "_vader",
          "type": "address"
        }
      ],
      "name": "init",
      "outputs": [],
      "stateMutability": "nonpayable",
      "type": "function"
    },
    {
      "inputs": [],
      "name": "insidePriceLimit",
      "outputs": [
        {
          "internalType": "uint256",
          "name": "",
          "type": "uint256"
        }
      ],
      "stateMutability": "view",
      "type": "function"
    },
    {
      "inputs": [
        {
          "internalType": "address",
          "name": "token",
          "type": "address"
        }
      ],
      "name": "isBase",
      "outputs": [
        {
          "internalType": "bool",
          "name": "base",
          "type": "bool"
        }
      ],
      "stateMutability": "view",
      "type": "function"
    },
    {
      "inputs": [
        {
          "internalType": "address",
          "name": "token",
          "type": "address"
        }
      ],
      "name": "isCurated",
      "outputs": [
        {
          "internalType": "bool",
          "name": "curated",
          "type": "bool"
        }
      ],
      "stateMutability": "view",
      "type": "function"
    },
    {
      "inputs": [
        {
          "internalType": "address",
          "name": "token",
          "type": "address"
        }
      ],
      "name": "isPool",
      "outputs": [
        {
          "internalType": "bool",
          "name": "pool",
          "type": "bool"
        }
      ],
      "stateMutability": "view",
      "type": "function"
    },
    {
      "inputs": [
        {
          "internalType": "address",
          "name": "token",
          "type": "address"
        }
      ],
      "name": "listAnchor",
      "outputs": [],
      "stateMutability": "nonpayable",
      "type": "function"
    },
    {
      "inputs": [
        {
          "internalType": "address",
          "name": "",
          "type": "address"
        },
        {
          "internalType": "address",
          "name": "",
          "type": "address"
        }
      ],
      "name": "mapMemberToken_depositBase",
      "outputs": [
        {
          "internalType": "uint256",
          "name": "",
          "type": "uint256"
        }
      ],
      "stateMutability": "view",
      "type": "function"
    },
    {
      "inputs": [
        {
          "internalType": "address",
          "name": "",
          "type": "address"
        },
        {
          "internalType": "address",
          "name": "",
          "type": "address"
        }
      ],
      "name": "mapMemberToken_depositToken",
      "outputs": [
        {
          "internalType": "uint256",
          "name": "",
          "type": "uint256"
        }
      ],
      "stateMutability": "view",
      "type": "function"
    },
    {
      "inputs": [
        {
          "internalType": "address",
          "name": "",
          "type": "address"
        },
        {
          "internalType": "address",
          "name": "",
          "type": "address"
        }
      ],
      "name": "mapMemberToken_lastDeposited",
      "outputs": [
        {
          "internalType": "uint256",
          "name": "",
          "type": "uint256"
        }
      ],
      "stateMutability": "view",
      "type": "function"
    },
    {
      "inputs": [],
      "name": "outsidePriceLimit",
      "outputs": [
        {
          "internalType": "uint256",
          "name": "",
          "type": "uint256"
        }
      ],
      "stateMutability": "view",
      "type": "function"
    },
    {
      "inputs": [
        {
          "internalType": "address",
          "name": "base",
          "type": "address"
        },
        {
          "internalType": "address",
          "name": "token",
          "type": "address"
        },
        {
          "internalType": "uint256",
          "name": "basisPoints",
          "type": "uint256"
        }
      ],
      "name": "removeLiquidity",
      "outputs": [
        {
          "internalType": "uint256",
          "name": "units",
          "type": "uint256"
        },
        {
          "internalType": "uint256",
          "name": "amountBase",
          "type": "uint256"
        },
        {
          "internalType": "uint256",
          "name": "amountToken",
          "type": "uint256"
        }
      ],
      "stateMutability": "nonpayable",
      "type": "function"
    },
    {
      "inputs": [
        {
          "internalType": "uint256",
          "name": "amount",
          "type": "uint256"
        },
        {
          "internalType": "address",
          "name": "collateralAsset",
          "type": "address"
        },
        {
          "internalType": "address",
          "name": "debtAsset",
          "type": "address"
        }
      ],
      "name": "repay",
      "outputs": [
        {
          "internalType": "uint256",
          "name": "",
          "type": "uint256"
        }
      ],
      "stateMutability": "nonpayable",
      "type": "function"
    },
    {
      "inputs": [],
      "name": "repayDelay",
      "outputs": [
        {
          "internalType": "uint256",
          "name": "",
          "type": "uint256"
        }
      ],
      "stateMutability": "view",
      "type": "function"
    },
    {
      "inputs": [
        {
          "internalType": "address",
          "name": "member",
          "type": "address"
        },
        {
          "internalType": "uint256",
          "name": "basisPoints",
          "type": "uint256"
        },
        {
          "internalType": "address",
          "name": "collateralAsset",
          "type": "address"
        },
        {
          "internalType": "address",
          "name": "debtAsset",
          "type": "address"
        }
      ],
      "name": "repayForMember",
      "outputs": [
        {
          "internalType": "uint256",
          "name": "",
          "type": "uint256"
        }
      ],
      "stateMutability": "nonpayable",
      "type": "function"
    },
    {
      "inputs": [
        {
          "internalType": "address",
          "name": "oldToken",
          "type": "address"
        },
        {
          "internalType": "address",
          "name": "newToken",
          "type": "address"
        }
      ],
      "name": "replaceAnchor",
      "outputs": [],
      "stateMutability": "nonpayable",
      "type": "function"
    },
    {
      "inputs": [
        {
          "internalType": "address",
          "name": "oldToken",
          "type": "address"
        },
        {
          "internalType": "address",
          "name": "newToken",
          "type": "address"
        }
      ],
      "name": "replacePool",
      "outputs": [],
      "stateMutability": "nonpayable",
      "type": "function"
    },
    {
      "inputs": [],
      "name": "reserveUSDV",
      "outputs": [
        {
          "internalType": "uint256",
          "name": "",
          "type": "uint256"
        }
      ],
      "stateMutability": "view",
      "type": "function"
    },
    {
      "inputs": [],
      "name": "reserveVADER",
      "outputs": [
        {
          "internalType": "uint256",
          "name": "",
          "type": "uint256"
        }
      ],
      "stateMutability": "view",
      "type": "function"
    },
    {
      "inputs": [],
      "name": "rewardReductionFactor",
      "outputs": [
        {
          "internalType": "uint256",
          "name": "",
          "type": "uint256"
        }
      ],
      "stateMutability": "view",
      "type": "function"
    },
    {
      "inputs": [
        {
          "internalType": "uint256",
          "name": "newLimit",
          "type": "uint256"
        },
        {
          "internalType": "uint256",
          "name": "newInside",
          "type": "uint256"
        },
        {
          "internalType": "uint256",
          "name": "newOutside",
          "type": "uint256"
        }
      ],
      "name": "setAnchorParams",
      "outputs": [],
      "stateMutability": "nonpayable",
      "type": "function"
    },
    {
      "inputs": [
        {
          "internalType": "uint256",
          "name": "newFactor",
          "type": "uint256"
        },
        {
          "internalType": "uint256",
          "name": "newTime",
          "type": "uint256"
        },
        {
          "internalType": "uint256",
          "name": "newLimit",
          "type": "uint256"
        }
      ],
      "name": "setParams",
      "outputs": [],
      "stateMutability": "nonpayable",
      "type": "function"
    },
    {
      "inputs": [
        {
          "internalType": "uint256",
          "name": "inputAmount",
          "type": "uint256"
        },
        {
          "internalType": "address",
          "name": "inputToken",
          "type": "address"
        },
        {
          "internalType": "address",
          "name": "outputToken",
          "type": "address"
        }
      ],
      "name": "swap",
      "outputs": [
        {
          "internalType": "uint256",
          "name": "outputAmount",
          "type": "uint256"
        }
      ],
      "stateMutability": "nonpayable",
      "type": "function"
    },
    {
      "inputs": [
        {
          "internalType": "uint256",
          "name": "inputAmount",
          "type": "uint256"
        },
        {
          "internalType": "address",
          "name": "inputToken",
          "type": "address"
        },
        {
          "internalType": "address",
          "name": "outputToken",
          "type": "address"
        },
        {
          "internalType": "uint256",
          "name": "slipLimit",
          "type": "uint256"
        }
      ],
      "name": "swapWithLimit",
      "outputs": [
        {
          "internalType": "uint256",
          "name": "outputAmount",
          "type": "uint256"
        }
      ],
      "stateMutability": "nonpayable",
      "type": "function"
    },
    {
      "inputs": [
        {
          "internalType": "uint256",
          "name": "inputAmount",
          "type": "uint256"
        },
        {
          "internalType": "address",
          "name": "inputToken",
          "type": "address"
        },
        {
          "internalType": "bool",
          "name": "inSynth",
          "type": "bool"
        },
        {
          "internalType": "address",
          "name": "outputToken",
          "type": "address"
        },
        {
          "internalType": "bool",
          "name": "outSynth",
          "type": "bool"
        }
      ],
      "name": "swapWithSynths",
      "outputs": [
        {
          "internalType": "uint256",
          "name": "outputAmount",
          "type": "uint256"
        }
      ],
      "stateMutability": "nonpayable",
      "type": "function"
    },
    {
      "inputs": [
        {
          "internalType": "uint256",
          "name": "inputAmount",
          "type": "uint256"
        },
        {
          "internalType": "address",
          "name": "inputToken",
          "type": "address"
        },
        {
          "internalType": "bool",
          "name": "inSynth",
          "type": "bool"
        },
        {
          "internalType": "address",
          "name": "outputToken",
          "type": "address"
        },
        {
          "internalType": "bool",
          "name": "outSynth",
          "type": "bool"
        },
        {
          "internalType": "uint256",
          "name": "slipLimit",
          "type": "uint256"
        }
      ],
      "name": "swapWithSynthsWithLimit",
      "outputs": [
        {
          "internalType": "uint256",
          "name": "outputAmount",
          "type": "uint256"
        }
      ],
      "stateMutability": "nonpayable",
      "type": "function"
    },
    {
      "inputs": [],
      "name": "timeForFullProtection",
      "outputs": [
        {
          "internalType": "uint256",
          "name": "",
          "type": "uint256"
        }
      ],
      "stateMutability": "view",
      "type": "function"
    },
    {
      "inputs": [
        {
          "internalType": "address",
          "name": "token",
          "type": "address"
        }
      ],
      "name": "updateAnchorPrice",
      "outputs": [],
      "stateMutability": "nonpayable",
      "type": "function"
    }
  ],
  "bytecode": "0x608060405234801561001057600080fd5b5061510d806100206000396000f3fe608060405234801561001057600080fd5b506004361061030c5760003560e01c8063774d70e41161019d578063d8489152116100e9578063e8b8cfa0116100a2578063fcf476861161007c578063fcf476861461075d578063fdc59b8214610770578063fde3bbe91461079b578063ff8b83a6146107e75761030c565b8063e8b8cfa01461070c578063e9b6e4481461071f578063f550394e146107325761030c565b8063d848915214610663578063de6ad44e1461066c578063e0f52db314610674578063e2e1e48f146106ad578063e6048ff8146106c0578063e672f6ad146106d35761030c565b8063c883b2e511610156578063cfa701c511610130578063cfa701c5146105d6578063d2b433731461060f578063d516418414610622578063d752fab2146106355761030c565b8063c883b2e5146105a7578063cbc17db3146105ba578063cf8bc715146105cd5761030c565b8063774d70e41461050b57806382eb72331461051e5780638bc51e361461055757806399a485f514610560578063a9d1c09e14610573578063ae746f021461059e5761030c565b806337785d211161025c5780635a0ce6761161021557806362cea340116101ef57806362cea340146104a45780636a87def5146104ac5780636cc06ded146104e55780636e899aa3146104f85761030c565b80635a0ce6761461046b5780635a4dd3f21461047e5780635b16ebb7146104915761030c565b806337785d211461041b57806337f3d2d41461042e57806339e68f53146104415780634eb6887a14610454578063531984381461045d57806358b27216146104665761030c565b80631ab73ef5116102c95780632b7f0923116102a35780632b7f0923146103d95780632e2d0856146103ec5780633494c8e8146103ff578063376d3d5d146104085761030c565b80631ab73ef5146103aa5780631df6acfd146103bd578063273961e6146103d05761030c565b80630168131514610311578063038e5eaa146103415780630781f4d21461035757806317af50e51461036f57806319ab453c146103825780631a60982714610397575b600080fd5b600554610324906001600160a01b031681565b6040516001600160a01b0390911681526020015b60405180910390f35b610349610820565b604051908152602001610338565b61035f610916565b6040519015158152602001610338565b61034961037d366004614d79565b610998565b610395610390366004614aca565b6109b9565b005b6103496103a5366004614dcf565b610a03565b6103496103b8366004614c14565b610a20565b6103956103cb366004614b02565b610fe2565b61034960015481565b6103496103e7366004614da9565b6113fa565b6103956103fa366004614eef565b611418565b61034960065481565b610349610416366004614c66565b61149b565b610349610429366004614e5d565b6115b3565b61034961043c366004614b02565b611ffc565b61039561044f366004614aca565b612029565b610349610e1081565b61034960025481565b610395565b610395610479366004614eef565b6121e6565b61034961048c366004614d79565b612269565b61035f61049f366004614aca565b61229c565b6103496123b7565b6103496104ba366004614b02565b6001600160a01b039182166000908152600d6020908152604080832093909416825291909152205490565b6103496104f3366004614d79565b612431565b61035f610506366004614aca565b612451565b61035f610519366004614aca565b612495565b61034961052c366004614b02565b6001600160a01b03918216600090815260106020908152604080832093909416825291909152205490565b61034960035481565b61034961056e366004614df6565b6124be565b610349610581366004614b02565b600d60209081526000928352604080842090915290825290205481565b61034960075481565b6103496105b5366004614da9565b6124da565b6103496105c8366004614b3a565b6124e8565b61034960005481565b6103496105e4366004614b02565b6001600160a01b039182166000908152600c6020908152604080832093909416825291909152205490565b61039561061d366004614aca565b612524565b610349610630366004614da9565b6126ca565b610648610643366004614bd4565b6126d8565b60408051938452602084019290925290820152606001610338565b61034960085481565b610349612946565b610349610682366004614b02565b6001600160a01b03918216600090815260116020908152604080832093909416825291909152205490565b6103956106bb366004614aca565b612988565b6103496106ce366004614b84565b612ae3565b6103496106e1366004614b02565b6001600160a01b039182166000908152600f6020908152604080832093909416825291909152205490565b61039561071a366004614b02565b612bcd565b61034961072d366004614c14565b612dc8565b610349610740366004614b02565b600b60209081526000928352604080842090915290825290205481565b61032461076b366004614d79565b6132db565b61034961077e366004614b02565b600c60209081526000928352604080842090915290825290205481565b6103496107a9366004614b3a565b6001600160a01b038084166000908152600e602090815260408083208685168452600101825280832093851683526002909301905220549392505050565b6103496107f5366004614b02565b6001600160a01b039182166000908152600b6020908152604080832093909416825291909152205490565b600a5460009081906001101561084257600260065461083f9190615017565b90505b600a5415610906576000610854613305565b6001600160a01b031663e379976e600a6040518263ffffffff1660e01b81526004016108809190614fb8565b60006040518083038186803b15801561089857600080fd5b505afa1580156108ac573d6000803e3d6000fd5b505050506040513d6000823e601f3d908101601f191682016040526108d49190810190614c9d565b90508082815181106108f657634e487b7160e01b600052603260045260246000fd5b6020026020010151925050610912565b670de0b6b3a764000091505b5090565b600554604080516303c0fa6960e11b815290516000926001600160a01b031691630781f4d2916004808301926020929190829003018186803b15801561095b57600080fd5b505afa15801561096f573d6000803e3d6000fd5b505050506040513d601f19601f820116820180604052508101906109939190614d5d565b905090565b600a81815481106109a857600080fd5b600091825260209091200154905081565b6005546001600160a01b0316610a0057600580546001600160a01b0319166001600160a01b0383161781556001600081905580805560025560065560c86007556101f46008555b50565b6000610a1585856000866000876115b3565b90505b949350505050565b6000610a2a613305565b60405163cf975e7b60e01b81526001600160a01b0385811660048301528481166024830152919091169063cf975e7b90604401600060405180830381600087803b158015610a7757600080fd5b505af1158015610a8b573d6000803e3d6000fd5b505050506000610a9c8685876133f2565b9050600080610aa9613305565b604051635c22141f60e01b81526001600160a01b038a8116600483015260248201869052888116604483015287811660648301529190911690635c22141f906084016040805180830381600087803b158015610b0457600080fd5b505af1158015610b18573d6000803e3d6000fd5b505050506040513d601f19601f82011682018060405250810190610b3c9190614ecc565b6001600160a01b038089166000908152600f60209081526040808320938b16835292905290812080549395509193508592610b78908490614fff565b90915550506001600160a01b03808716600090815260106020908152604080832093891683529290529081208054849290610bb4908490614fff565b90915550610bc790508884888589613528565b6005546001600160a01b0387811691161480610c615750610be66135ca565b604051636c66769560e11b81526001600160a01b038781166004830152919091169063d8cced2a9060240160206040518083038186803b158015610c2957600080fd5b505afa158015610c3d573d6000803e3d6000fd5b505050506040513d601f19601f82011682018060405250810190610c619190614d5d565b15610d9657610c6e61367f565b6005546001600160a01b039182169163a76a50d49116610c8c6135ca565b846040518463ffffffff1660e01b8152600401610cab93929190614f94565b602060405180830381600087803b158015610cc557600080fd5b505af1158015610cd9573d6000803e3d6000fd5b505050506040513d601f19601f82011682018060405250810190610cfd9190614d91565b50610d066135ca565b60055460405163efc34aab60e01b81526001600160a01b039283169263efc34aab92610d3e9291169089908d90600090600401614f6a565b602060405180830381600087803b158015610d5857600080fd5b505af1158015610d6c573d6000803e3d6000fd5b505050506040513d601f19601f82011682018060405250810190610d909190614d91565b50610f6d565b610d9e613734565b6001600160a01b0316866001600160a01b03161480610e3b5750610dc06135ca565b60405163643fd21560e11b81526001600160a01b038781166004830152919091169063c87fa42a9060240160206040518083038186803b158015610e0357600080fd5b505afa158015610e17573d6000803e3d6000fd5b505050506040513d601f19601f82011682018060405250810190610e3b9190614d5d565b15610f6d57610e4861367f565b6001600160a01b031663a76a50d4610e5e613734565b610e666135ca565b846040518463ffffffff1660e01b8152600401610e8593929190614f94565b602060405180830381600087803b158015610e9f57600080fd5b505af1158015610eb3573d6000803e3d6000fd5b505050506040513d601f19601f82011682018060405250810190610ed79190614d91565b50610ee06135ca565b6001600160a01b031663efc34aab610ef6613734565b878b60006040518563ffffffff1660e01b8152600401610f199493929190614f6a565b602060405180830381600087803b158015610f3357600080fd5b505af1158015610f47573d6000803e3d6000fd5b505050506040513d601f19601f82011682018060405250810190610f6b9190614d91565b505b846001600160a01b0316866001600160a01b0316896001600160a01b03167fae998ad28d77f73e6eb1de185a4d9c3656e19b47125aa0e732ceabecefdd30618a86604051610fc5929190918252602082015260400190565b60405180910390a4610fd786866137e9565b509695505050505050565b610fea6135ca565b604051636c66769560e11b81526001600160a01b038381166004830152919091169063d8cced2a9060240160206040518083038186803b15801561102d57600080fd5b505afa158015611041573d6000803e3d6000fd5b505050506040513d601f19601f820116820180604052508101906110659190614d5d565b6110a35760405162461bcd60e51b815260206004820152600a6024820152692737ba1030b731b437b960b11b60448201526064015b60405180910390fd5b6110ab6135ca565b60405163b34c8afb60e01b81526001600160a01b038481166004830152919091169063b34c8afb9060240160206040518083038186803b1580156110ee57600080fd5b505afa158015611102573d6000803e3d6000fd5b505050506040513d601f19601f820116820180604052508101906111269190614d91565b61112e6135ca565b60405163b34c8afb60e01b81526001600160a01b038481166004830152919091169063b34c8afb9060240160206040518083038186803b15801561117157600080fd5b505afa158015611185573d6000803e3d6000fd5b505050506040513d601f19601f820116820180604052508101906111a99190614d91565b116111e35760405162461bcd60e51b815260206004820152600a6024820152692737ba103232b2b832b960b11b604482015260640161109a565b6111eb613305565b6001600160a01b031663eb7d5ddf836008546000611207610820565b6040516001600160e01b031960e087901b1681526001600160a01b039094166004850152602484019290925215156044830152606482015260840160006040518083038186803b15801561125a57600080fd5b505afa15801561126e573d6000803e3d6000fd5b5050505061127a613305565b6001600160a01b031663eb7d5ddf826007546001611296610820565b6040516001600160e01b031960e087901b1681526001600160a01b039094166004850152602484019290925215156044830152606482015260840160006040518083038186803b1580156112e957600080fd5b505afa1580156112fd573d6000803e3d6000fd5b505050506001600160a01b03828116600090815260046020526040808220805460ff199081169091559284168252812080549092166001179091555b6009548110156113ec57826001600160a01b03166009828154811061136e57634e487b7160e01b600052603260045260246000fd5b6000918252602090912001546001600160a01b031614156113da5781600982815481106113ab57634e487b7160e01b600052603260045260246000fd5b9060005260206000200160006101000a8154816001600160a01b0302191690836001600160a01b031602179055505b806113e48161506d565b915050611339565b506113f681612988565b5050565b600061140e848460008560006127106115b3565b90505b9392505050565b611420613cf0565b6001600160a01b0316336001600160a01b031614806114575750611442613d35565b6001600160a01b0316336001600160a01b0316145b61148d5760405162461bcd60e51b81526020600482015260076024820152664e6f742044414f60c81b604482015260640161109a565b600692909255600755600855565b60006114a561367f565b6001600160a01b031663e1ac7cfe6040518163ffffffff1660e01b8152600401600060405180830381600087803b1580156114df57600080fd5b505af11580156114f3573d6000803e3d6000fd5b5050505060006115038686613d7a565b905060006115118585613d7a565b905061151f3386848461412e565b6115276135ca565b6001600160a01b031663fde3b2658887336040518463ffffffff1660e01b815260040161155693929190614f47565b602060405180830381600087803b15801561157057600080fd5b505af1158015611584573d6000803e3d6000fd5b505050506040513d601f19601f820116820180604052508101906115a89190614d91565b979650505050505050565b600033856115cb576115c58789613d7a565b5061165b565b6116596115d66135ca565b604051636e76408b60e11b81526001600160a01b038a81166004830152919091169063dcec811690602401602060405180830381600087803b15801561161b57600080fd5b505af115801561162f573d6000803e3d6000fd5b505050506040513d601f19601f820116820180604052508101906116539190614ae6565b89613d7a565b505b60006116656135ca565b604051636c66769560e11b81526001600160a01b038a81166004830152919091169063d8cced2a9060240160206040518083038186803b1580156116a857600080fd5b505afa1580156116bc573d6000803e3d6000fd5b505050506040513d601f19601f820116820180604052508101906116e09190614d5d565b8061176957506116ee6135ca565b604051636c66769560e11b81526001600160a01b038881166004830152919091169063d8cced2a9060240160206040518083038186803b15801561173157600080fd5b505afa158015611745573d6000803e3d6000fd5b505050506040513d601f19601f820116820180604052508101906117699190614d5d565b1561178057506005546001600160a01b031661178b565b611788613734565b90505b61179486612451565b156119dc57836117a2613305565b6001600160a01b0316632db6e4888b6117b96135ca565b60405163e6ae1a9760e01b81526001600160a01b038e81166004830152919091169063e6ae1a979060240160206040518083038186803b1580156117fc57600080fd5b505afa158015611810573d6000803e3d6000fd5b505050506040513d601f19601f820116820180604052508101906118349190614d91565b6040516001600160e01b031960e085901b1681526004810192909252602482015260440160206040518083038186803b15801561187057600080fd5b505afa158015611884573d6000803e3d6000fd5b505050506040513d601f19601f820116820180604052508101906118a89190614d91565b11156118b357600080fd5b8661194b576118c06135ca565b6001600160a01b031663efc34aab828a8560016040518563ffffffff1660e01b81526004016118f29493929190614f6a565b602060405180830381600087803b15801561190c57600080fd5b505af1158015611920573d6000803e3d6000fd5b505050506040513d601f19601f820116820180604052508101906119449190614d91565b92506119d7565b6119536135ca565b6001600160a01b031663e3adb2f6828a856040518463ffffffff1660e01b815260040161198293929190614f47565b602060405180830381600087803b15801561199c57600080fd5b505af11580156119b0573d6000803e3d6000fd5b505050506040513d601f19601f820116820180604052508101906119d49190614d91565b92505b611fca565b6119e588612451565b15611b7a57836119f3613305565b6001600160a01b0316632db6e4888b611a0a6135ca565b60405163b34c8afb60e01b81526001600160a01b038c81166004830152919091169063b34c8afb9060240160206040518083038186803b158015611a4d57600080fd5b505afa158015611a61573d6000803e3d6000fd5b505050506040513d601f19601f82011682018060405250810190611a859190614d91565b6040516001600160e01b031960e085901b1681526004810192909252602482015260440160206040518083038186803b158015611ac157600080fd5b505afa158015611ad5573d6000803e3d6000fd5b505050506040513d601f19601f82011682018060405250810190611af99190614d91565b1115611b0457600080fd5b84611b4357611b116135ca565b6001600160a01b031663efc34aab82888560006040518563ffffffff1660e01b81526004016118f29493929190614f6a565b611b4b6135ca565b6001600160a01b031663d016347e8288856040518463ffffffff1660e01b815260040161198293929190614f47565b611b8388612451565b158015611b965750611b9486612451565b155b15611fca5783611ba4613305565b6001600160a01b0316632db6e4888b611bbb6135ca565b60405163e6ae1a9760e01b81526001600160a01b038e81166004830152919091169063e6ae1a979060240160206040518083038186803b158015611bfe57600080fd5b505afa158015611c12573d6000803e3d6000fd5b505050506040513d601f19601f82011682018060405250810190611c369190614d91565b6040516001600160e01b031960e085901b1681526004810192909252602482015260440160206040518083038186803b158015611c7257600080fd5b505afa158015611c86573d6000803e3d6000fd5b505050506040513d601f19601f82011682018060405250810190611caa9190614d91565b1115611cb557600080fd5b86611d5357611cc26135ca565b6001600160a01b031663efc34aab828a611cda6135ca565b60016040518563ffffffff1660e01b8152600401611cfb9493929190614f6a565b602060405180830381600087803b158015611d1557600080fd5b505af1158015611d29573d6000803e3d6000fd5b505050506040513d601f19601f82011682018060405250810190611d4d9190614d91565b50611de5565b611d5b6135ca565b6001600160a01b031663e3adb2f6828a611d736135ca565b6040518463ffffffff1660e01b8152600401611d9193929190614f47565b602060405180830381600087803b158015611dab57600080fd5b505af1158015611dbf573d6000803e3d6000fd5b505050506040513d601f19601f82011682018060405250810190611de39190614d91565b505b83611dee613305565b6001600160a01b0316632db6e4888b611e056135ca565b60405163b34c8afb60e01b81526001600160a01b038c81166004830152919091169063b34c8afb9060240160206040518083038186803b158015611e4857600080fd5b505afa158015611e5c573d6000803e3d6000fd5b505050506040513d601f19601f82011682018060405250810190611e809190614d91565b6040516001600160e01b031960e085901b1681526004810192909252602482015260440160206040518083038186803b158015611ebc57600080fd5b505afa158015611ed0573d6000803e3d6000fd5b505050506040513d601f19601f82011682018060405250810190611ef49190614d91565b1115611eff57600080fd5b84611f3e57611f0c6135ca565b6001600160a01b031663efc34aab82888560006040518563ffffffff1660e01b81526004016119829493929190614f6a565b611f466135ca565b6001600160a01b031663d016347e8288856040518463ffffffff1660e01b8152600401611f7593929190614f47565b602060405180830381600087803b158015611f8f57600080fd5b505af1158015611fa3573d6000803e3d6000fd5b505050506040513d601f19601f82011682018060405250810190611fc79190614d91565b92505b611fd481896141d4565b611fde81876141d4565b611fe7886143c1565b611ff0866143c1565b50509695505050505050565b6001600160a01b038083166000908152601260209081526040808320938516835292905220545b92915050565b6006546009541061203957600080fd5b6120416135ca565b604051636c66769560e11b81526001600160a01b038381166004830152919091169063d8cced2a9060240160206040518083038186803b15801561208457600080fd5b505afa158015612098573d6000803e3d6000fd5b505050506040513d601f19601f820116820180604052508101906120bc9190614d5d565b6120c557600080fd5b600980546001810182556000919091527f6e1540171b6c0c960b71a7020d9f60077f6af931a8bbf590da0223dacf75c7af0180546001600160a01b0319166001600160a01b038316179055600a61211a613305565b60405163db39dc7960e01b81526001600160a01b038481166004830152670de0b6b3a76400006024830152919091169063db39dc799060440160206040518083038186803b15801561216b57600080fd5b505afa15801561217f573d6000803e3d6000fd5b505050506040513d601f19601f820116820180604052508101906121a39190614d91565b81546001818101845560009384526020808520909201929092556001600160a01b0384168352600490526040909120805460ff19169091179055610a0081612988565b6121ee613cf0565b6001600160a01b0316336001600160a01b031614806122255750612210613d35565b6001600160a01b0316336001600160a01b0316145b61225b5760405162461bcd60e51b81526020600482015260076024820152664e6f742044414f60c81b604482015260640161109a565b600092909255600155600255565b600080612274610820565b905080612289670de0b6b3a764000085615037565b6122939190615017565b9150505b919050565b60006122a66135ca565b604051636c66769560e11b81526001600160a01b038481166004830152919091169063d8cced2a9060240160206040518083038186803b1580156122e957600080fd5b505afa1580156122fd573d6000803e3d6000fd5b505050506040513d601f19601f820116820180604052508101906123219190614d5d565b806123aa575061232f6135ca565b60405163643fd21560e11b81526001600160a01b038481166004830152919091169063c87fa42a9060240160206040518083038186803b15801561237257600080fd5b505afa158015612386573d6000803e3d6000fd5b505050506040513d601f19601f820116820180604052508101906123aa9190614d5d565b1561229757506001919050565b60006123c161367f565b6001600160a01b03166362cea3406040518163ffffffff1660e01b815260040160206040518083038186803b1580156123f957600080fd5b505afa15801561240d573d6000803e3d6000fd5b505050506040513d601f19601f820116820180604052508101906109939190614d91565b60008061243c610820565b9050670de0b6b3a76400006122898483615037565b6005546000906001600160a01b03838116911614806124885750612473613734565b6001600160a01b0316826001600160a01b0316145b1561229757506001612297565b6001600160a01b03811660009081526004602052604081205460ff161561229757506001919050565b60006124d086868686866127106115b3565b9695505050505050565b600061140e33858585612dc8565b6001600160a01b039283166000908152600e60209081526040808320948616835260019485018252808320939095168252919092019052205490565b61252c6135ca565b60405163643fd21560e11b81526001600160a01b038381166004830152919091169063c87fa42a9060240160206040518083038186803b15801561256f57600080fd5b505afa158015612583573d6000803e3d6000fd5b505050506040513d601f19601f820116820180604052508101906125a79190614d5d565b8061263057506125b56135ca565b604051636c66769560e11b81526001600160a01b038381166004830152919091169063d8cced2a9060240160206040518083038186803b1580156125f857600080fd5b505afa15801561260c573d6000803e3d6000fd5b505050506040513d601f19601f820116820180604052508101906126309190614d5d565b61263957600080fd5b61264281612495565b612691576002546003541015612691576001600160a01b0381166000908152600460205260408120805460ff19166001908117909155600380549192909161268b908490614fff565b90915550505b6040516001600160a01b0382169033907fb2f6cc014bc6265032f32972254d5e024ec51ed94c0aaf2280128336be54a04190600090a350565b600061140e33858585610a20565b6000806000806126ea33888888612ae3565b90508015612846576126fa61367f565b6001600160a01b0316636a529026886127116135ca565b846040518463ffffffff1660e01b815260040161273093929190614f94565b602060405180830381600087803b15801561274a57600080fd5b505af115801561275e573d6000803e3d6000fd5b505050506040513d601f19601f820116820180604052508101906127829190614d91565b5061278b6135ca565b6001600160a01b031663fde3b2658888336040518463ffffffff1660e01b81526004016127ba93929190614f47565b602060405180830381600087803b1580156127d457600080fd5b505af11580156127e8573d6000803e3d6000fd5b505050506040513d601f19601f8201168201806040525081019061280c9190614d91565b50336000908152600b602090815260408083206001600160a01b038a16845290915281208054839290612840908490614fff565b90915550505b61284e6135ca565b6001600160a01b031663d752fab28888886040518463ffffffff1660e01b815260040161287d93929190614f94565b606060405180830381600087803b15801561289757600080fd5b505af11580156128ab573d6000803e3d6000fd5b505050506040513d601f19601f820116820180604052508101906128cf9190614f1a565b919550935091506128e233878784614452565b6128ea61367f565b6001600160a01b031663e1ac7cfe6040518163ffffffff1660e01b8152600401600060405180830381600087803b15801561292457600080fd5b505af1158015612938573d6000803e3d6000fd5b505050505093509350939050565b600061295061367f565b6001600160a01b031663de6ad44e6040518163ffffffff1660e01b815260040160206040518083038186803b1580156123f957600080fd5b60005b6009548110156113f657816001600160a01b0316600982815481106129c057634e487b7160e01b600052603260045260246000fd5b6000918252602090912001546001600160a01b03161415612ad1576129e3613305565b6001600160a01b031663db39dc7960098381548110612a1257634e487b7160e01b600052603260045260246000fd5b60009182526020909120015460405160e083901b6001600160e01b03191681526001600160a01b039091166004820152670de0b6b3a7640000602482015260440160206040518083038186803b158015612a6b57600080fd5b505afa158015612a7f573d6000803e3d6000fd5b505050506040513d601f19601f82011682018060405250810190612aa39190614d91565b600a8281548110612ac457634e487b7160e01b600052603260045260246000fd5b6000918252602090912001555b80612adb8161506d565b91505061298b565b6000612aed613305565b600154604051635b0b602d60e01b81526001600160a01b0388811660048301528681166024830152604482018690526064820192909252911690635b0b602d9060840160206040518083038186803b158015612b4857600080fd5b505afa158015612b5c573d6000803e3d6000fd5b505050506040513d601f19601f82011682018060405250810190612b809190614d91565b6005549091506001600160a01b0385811691161415612bb757612ba16123b7565b8110612bb257612baf6123b7565b90505b610a18565b612bbf612946565b8110610a1857610a15612946565b612bd56135ca565b60405163643fd21560e11b81526001600160a01b038381166004830152919091169063c87fa42a9060240160206040518083038186803b158015612c1857600080fd5b505afa158015612c2c573d6000803e3d6000fd5b505050506040513d601f19601f82011682018060405250810190612c509190614d5d565b612c5957600080fd5b612c616135ca565b60405163b34c8afb60e01b81526001600160a01b038481166004830152919091169063b34c8afb9060240160206040518083038186803b158015612ca457600080fd5b505afa158015612cb8573d6000803e3d6000fd5b505050506040513d601f19601f82011682018060405250810190612cdc9190614d91565b612ce46135ca565b60405163b34c8afb60e01b81526001600160a01b038481166004830152919091169063b34c8afb9060240160206040518083038186803b158015612d2757600080fd5b505afa158015612d3b573d6000803e3d6000fd5b505050506040513d601f19601f82011682018060405250810190612d5f9190614d91565b11156113f6576001600160a01b03808316600090815260046020526040808220805460ff1990811690915592841680835281832080549094166001179093555133917fb2f6cc014bc6265032f32972254d5e024ec51ed94c0aaf2280128336be54a04191a35050565b600080612dd3613305565b6001600160a01b031663714270ab86612ded8988886124e8565b6040516001600160e01b031960e085901b1681526004810192909252602482015260440160206040518083038186803b158015612e2957600080fd5b505afa158015612e3d573d6000803e3d6000fd5b505050506040513d601f19601f82011682018060405250810190612e619190614d91565b90506000612e6f8483613d7a565b6005549091506001600160a01b0386811691161480612f0c5750612e916135ca565b604051636c66769560e11b81526001600160a01b038681166004830152919091169063d8cced2a9060240160206040518083038186803b158015612ed457600080fd5b505afa158015612ee8573d6000803e3d6000fd5b505050506040513d601f19601f82011682018060405250810190612f0c9190614d5d565b15612fb157612f196135ca565b6005546001600160a01b039182169163efc34aab911686612f3861367f565b60016040518563ffffffff1660e01b8152600401612f599493929190614f6a565b602060405180830381600087803b158015612f7357600080fd5b505af1158015612f87573d6000803e3d6000fd5b505050506040513d601f19601f82011682018060405250810190612fab9190614d91565b506130f7565b612fb9613734565b6001600160a01b0316856001600160a01b031614806130565750612fdb6135ca565b60405163643fd21560e11b81526001600160a01b038681166004830152919091169063c87fa42a9060240160206040518083038186803b15801561301e57600080fd5b505afa158015613032573d6000803e3d6000fd5b505050506040513d601f19601f820116820180604052508101906130569190614d5d565b156130f7576130636135ca565b6001600160a01b031663efc34aab613079613734565b8661308261367f565b60016040518563ffffffff1660e01b81526004016130a39493929190614f6a565b602060405180830381600087803b1580156130bd57600080fd5b505af11580156130d1573d6000803e3d6000fd5b505050506040513d601f19601f820116820180604052508101906130f59190614d91565b505b600080613102613305565b604051633552687b60e21b81526001600160a01b038b811660048301526024820186905289811660448301528881166064830152919091169063d549a1ec90608401604080518083038186803b15801561315b57600080fd5b505afa15801561316f573d6000803e3d6000fd5b505050506040513d601f19601f820116820180604052508101906131939190614ecc565b6001600160a01b03808a166000908152600f60209081526040808320938c168352929052908120805493955091935084926131cf908490615056565b90915550506001600160a01b038088166000908152601060209081526040808320938a168352929052908120805485929061320b908490615056565b90915550506001600160a01b038088166000908152601160209081526040808320938a1683529290529081208054839290613247908490615056565b9091555061325a9050898389868a61466a565b856001600160a01b0316876001600160a01b03168a6001600160a01b03167f80cf2752eb276900a648b467a8fe8180e3192a2370982e997e928b3dc8b99ba185876040516132b2929190918252602082015260400190565b60405180910390a46132c5898884614700565b6132cf87876137e9565b50979650505050505050565b600981815481106132eb57600080fd5b6000918252602090912001546001600160a01b0316905081565b60055460408051634c7d5e9d60e11b815290516000926001600160a01b0316916398fabd3a916004808301926020929190829003018186803b15801561334a57600080fd5b505afa15801561335e573d6000803e3d6000fd5b505050506040513d601f19601f820116820180604052508101906133829190614ae6565b6001600160a01b0316637b0e5c456040518163ffffffff1660e01b815260040160206040518083038186803b1580156133ba57600080fd5b505afa1580156133ce573d6000803e3d6000fd5b505050506040513d601f19601f820116820180604052508101906109939190614ae6565b60006133fd83612451565b80613488575061340b6135ca565b604051632f011bf560e11b81526001600160a01b0385811660048301529190911690635e0237ea90602401602060405180830381600087803b15801561345057600080fd5b505af1158015613464573d6000803e3d6000fd5b505050506040513d601f19601f820116820180604052508101906134889190614d5d565b1561349e576134978383614831565b9050611411565b6134a78361229c565b15611411576134b46135ca565b60405163783ba87960e01b8152600481018490526001600160a01b0385811660248301528681166044830152919091169063783ba87990606401600060405180830381600087803b15801561350857600080fd5b505af115801561351c573d6000803e3d6000fd5b50939695505050505050565b6001600160a01b038086166000908152600e6020908152604080832087851684526001908101835281842094861684529390930190529081208054849290613571908490614fff565b90915550506001600160a01b038086166000908152600e602090815260408083208785168452600101825280832093851683526002909301905290812080548692906135be908490614fff565b90915550505050505050565b60055460408051634c7d5e9d60e11b815290516000926001600160a01b0316916398fabd3a916004808301926020929190829003018186803b15801561360f57600080fd5b505afa158015613623573d6000803e3d6000fd5b505050506040513d601f19601f820116820180604052508101906136479190614ae6565b6001600160a01b031663ebccb5b26040518163ffffffff1660e01b815260040160206040518083038186803b1580156133ba57600080fd5b60055460408051634c7d5e9d60e11b815290516000926001600160a01b0316916398fabd3a916004808301926020929190829003018186803b1580156136c457600080fd5b505afa1580156136d8573d6000803e3d6000fd5b505050506040513d601f19601f820116820180604052508101906136fc9190614ae6565b6001600160a01b0316639d2cc4366040518163ffffffff1660e01b815260040160206040518083038186803b1580156133ba57600080fd5b60055460408051634c7d5e9d60e11b815290516000926001600160a01b0316916398fabd3a916004808301926020929190829003018186803b15801561377957600080fd5b505afa15801561378d573d6000803e3d6000fd5b505050506040513d601f19601f820116820180604052508101906137b19190614ae6565b6001600160a01b031663e2c3b0466040518163ffffffff1660e01b815260040160206040518083038186803b1580156133ba57600080fd5b6137f38282611ffc565b42101580156138055750613805610916565b156113f6576001600160a01b03808316600090815260126020908152604080832093851683529290529081205461383c9042615056565b9050600560009054906101000a90046001600160a01b03166001600160a01b0316636b92a3b66040518163ffffffff1660e01b815260040160206040518083038186803b15801561388c57600080fd5b505afa1580156138a0573d6000803e3d6000fd5b505050506040513d601f19601f820116820180604052508101906138c49190614d91565b6138ce9042614fff565b6001600160a01b038085166000908152601260209081526040808320938716835292905290812091909155613901613305565b6001600160a01b031663945821af8585856040518463ffffffff1660e01b815260040161393093929190614f94565b602060405180830381600087803b15801561394a57600080fd5b505af115801561395e573d6000803e3d6000fd5b505050506040513d601f19601f820116820180604052508101906139829190614d91565b6001600160a01b0380861660009081526011602090815260408083209388168352929052908120805492935083929091906139be908490614fff565b909155506139cf90508185856149fe565b6139d884612451565b15613ae757836001600160a01b031663a9059cbb6139f46135ca565b6040516001600160e01b031960e084901b1681526001600160a01b03909116600482015260248101849052604401602060405180830381600087803b158015613a3c57600080fd5b505af1158015613a50573d6000803e3d6000fd5b505050506040513d601f19601f82011682018060405250810190613a749190614d5d565b50613a7d6135ca565b604051633041949b60e01b81526001600160a01b03868116600483015285811660248301529190911690633041949b90604401600060405180830381600087803b158015613aca57600080fd5b505af1158015613ade573d6000803e3d6000fd5b50505050613cea565b613aef6135ca565b604051632f011bf560e11b81526001600160a01b0386811660048301529190911690635e0237ea90602401602060405180830381600087803b158015613b3457600080fd5b505af1158015613b48573d6000803e3d6000fd5b505050506040513d601f19601f82011682018060405250810190613b6c9190614d5d565b15613cea57836001600160a01b031663a9059cbb613b886135ca565b6040516001600160e01b031960e084901b1681526001600160a01b03909116600482015260248101849052604401602060405180830381600087803b158015613bd057600080fd5b505af1158015613be4573d6000803e3d6000fd5b505050506040513d601f19601f82011682018060405250810190613c089190614d5d565b50613c116135ca565b6001600160a01b031663469f5c1e856001600160a01b03166382bfefc86040518163ffffffff1660e01b815260040160206040518083038186803b158015613c5857600080fd5b505afa158015613c6c573d6000803e3d6000fd5b505050506040513d601f19601f82011682018060405250810190613c909190614ae6565b6040516001600160e01b031960e084901b1681526001600160a01b039091166004820152602401600060405180830381600087803b158015613cd157600080fd5b505af1158015613ce5573d6000803e3d6000fd5b505050505b50505050565b60055460408051634c7d5e9d60e11b815290516000926001600160a01b0316916398fabd3a916004808301926020929190829003018186803b1580156133ba57600080fd5b600554604080516360dc208d60e11b815290516000926001600160a01b03169163c1b8411a916004808301926020929190829003018186803b1580156133ba57600080fd5b6005546000906001600160a01b0384811691161480613db15750613d9c613734565b6001600160a01b0316836001600160a01b0316145b80613e3c5750613dbf6135ca565b604051632f011bf560e11b81526001600160a01b0385811660048301529190911690635e0237ea90602401602060405180830381600087803b158015613e0457600080fd5b505af1158015613e18573d6000803e3d6000fd5b505050506040513d601f19601f82011682018060405250810190613e3c9190614d5d565b15613f7857508032331415613ee857826001600160a01b0316632ccb1b30613e626135ca565b6040516001600160e01b031960e084901b1681526001600160a01b03909116600482015260248101859052604401602060405180830381600087803b158015613eaa57600080fd5b505af1158015613ebe573d6000803e3d6000fd5b505050506040513d601f19601f82011682018060405250810190613ee29190614d5d565b50613f73565b826001600160a01b03166323b872dd33613f006135ca565b856040518463ffffffff1660e01b8152600401613f1f93929190614f94565b602060405180830381600087803b158015613f3957600080fd5b505af1158015613f4d573d6000803e3d6000fd5b505050506040513d601f19601f82011682018060405250810190613f719190614d5d565b505b612023565b6000836001600160a01b03166370a08231613f916135ca565b6040516001600160e01b031960e084901b1681526001600160a01b03909116600482015260240160206040518083038186803b158015613fd057600080fd5b505afa158015613fe4573d6000803e3d6000fd5b505050506040513d601f19601f820116820180604052508101906140089190614d91565b9050836001600160a01b03166323b872dd336140226135ca565b866040518463ffffffff1660e01b815260040161404193929190614f94565b602060405180830381600087803b15801561405b57600080fd5b505af115801561406f573d6000803e3d6000fd5b505050506040513d601f19601f820116820180604052508101906140939190614d5d565b5080846001600160a01b03166370a082316140ac6135ca565b6040516001600160e01b031960e084901b1681526001600160a01b0390911660048201526024015b60206040518083038186803b1580156140ec57600080fd5b505afa158015614100573d6000803e3d6000fd5b505050506040513d601f19601f820116820180604052508101906141249190614d91565b610a189190615056565b6001600160a01b038085166000908152600b6020908152604080832093871683529290529081208054849290614165908490614fff565b90915550506001600160a01b038085166000908152600c60209081526040808320938716835292905290812080548392906141a1908490614fff565b9091555050506001600160a01b039283166000908152600d60209081526040808320949095168252929092525020429055565b6141dd81612451565b6113f65760006141eb613305565b600054604051635a4a8f2560e11b81526001600160a01b038581166004830152602482019290925291169063b4951e4a9060440160206040518083038186803b15801561423757600080fd5b505afa15801561424b573d6000803e3d6000fd5b505050506040513d601f19601f8201168201806040525081019061426f9190614d91565b905061427961367f565b6001600160a01b0316636a529026846142906135ca565b846040518463ffffffff1660e01b81526004016142af93929190614f94565b602060405180830381600087803b1580156142c957600080fd5b505af11580156142dd573d6000803e3d6000fd5b505050506040513d601f19601f820116820180604052508101906143019190614d91565b5061430a6135ca565b604051633041949b60e01b81526001600160a01b03858116600483015284811660248301529190911690633041949b90604401600060405180830381600087803b15801561435757600080fd5b505af115801561436b573d6000803e3d6000fd5b50505050816001600160a01b0316836001600160a01b03167f416b0b234ccd4d6d72c4b1a3a09b472a71981d9bbf0f26ab44774e0e3425fad6836040516143b491815260200190565b60405180910390a3505050565b6143c96135ca565b604051636c66769560e11b81526001600160a01b038381166004830152919091169063d8cced2a9060240160206040518083038186803b15801561440c57600080fd5b505afa158015614420573d6000803e3d6000fd5b505050506040513d601f19601f820116820180604052508101906144449190614d5d565b15610a0057610a0081612988565b6001600160a01b038085166000908152600b6020908152604080832093871683529290529081208054839290614489908490614fff565b9091555060009050614499613305565b6001600160a01b038681166000908152600b6020908152604080832089851684529091529081902054905163714270ab60e01b815260048101879052602481019190915291169063714270ab9060440160206040518083038186803b15801561450157600080fd5b505afa158015614515573d6000803e3d6000fd5b505050506040513d601f19601f820116820180604052508101906145399190614d91565b90506000614545613305565b6001600160a01b038781166000908152600c602090815260408083208a851684529091529081902054905163714270ab60e01b815260048101889052602481019190915291169063714270ab9060440160206040518083038186803b1580156145ad57600080fd5b505afa1580156145c1573d6000803e3d6000fd5b505050506040513d601f19601f820116820180604052508101906145e59190614d91565b6001600160a01b038088166000908152600b60209081526040808320938a16835292905290812080549293508492909190614621908490615056565b90915550506001600160a01b038087166000908152600c602090815260408083209389168352929052908120805483929061465d908490615056565b9091555050505050505050565b6001600160a01b038086166000908152600e60209081526040808320878516845260019081018352818420948616845293909301905290812080548492906146b3908490615056565b90915550506001600160a01b038086166000908152600e602090815260408083208785168452600101825280832093851683526002909301905290812080548692906135be908490615056565b61470982612451565b8061479457506147176135ca565b604051632f011bf560e11b81526001600160a01b0384811660048301529190911690635e0237ea90602401602060405180830381600087803b15801561475c57600080fd5b505af1158015614770573d6000803e3d6000fd5b505050506040513d601f19601f820116820180604052508101906147949190614d5d565b156147a9576147a4828483614a3f565b61482c565b6147b28261229c565b1561482c576147bf6135ca565b60405163798e23d560e01b8152600481018390526001600160a01b0384811660248301528581166044830152919091169063798e23d590606401600060405180830381600087803b15801561481357600080fd5b505af1158015614827573d6000803e3d6000fd5b505050505b505050565b6040516370a0823160e01b815230600482015260009081906001600160a01b038516906370a082319060240160206040518083038186803b15801561487557600080fd5b505afa158015614889573d6000803e3d6000fd5b505050506040513d601f19601f820116820180604052508101906148ad9190614d91565b905032331415614945576040516302ccb1b360e41b8152306004820152602481018490526001600160a01b03851690632ccb1b3090604401602060405180830381600087803b1580156148ff57600080fd5b505af1158015614913573d6000803e3d6000fd5b505050506040513d601f19601f820116820180604052508101906149379190614d5d565b61494057600080fd5b6149d0565b6040516323b872dd60e01b81526001600160a01b038516906323b872dd9061497590339030908890600401614f94565b602060405180830381600087803b15801561498f57600080fd5b505af11580156149a3573d6000803e3d6000fd5b505050506040513d601f19601f820116820180604052508101906149c79190614d5d565b6149d057600080fd5b6040516370a0823160e01b815230600482015281906001600160a01b038616906370a08231906024016140d4565b6001600160a01b038083166000908152600f6020908152604080832093851683529290529081208054859290614a35908490615056565b9091555050505050565b60405163a9059cbb60e01b81526001600160a01b0383811660048301526024820183905284169063a9059cbb90604401602060405180830381600087803b158015614a8957600080fd5b505af1158015614a9d573d6000803e3d6000fd5b505050506040513d601f19601f82011682018060405250810190614ac19190614d5d565b61482c57600080fd5b600060208284031215614adb578081fd5b8135611411816150b4565b600060208284031215614af7578081fd5b8151611411816150b4565b60008060408385031215614b14578081fd5b8235614b1f816150b4565b91506020830135614b2f816150b4565b809150509250929050565b600080600060608486031215614b4e578081fd5b8335614b59816150b4565b92506020840135614b69816150b4565b91506040840135614b79816150b4565b809150509250925092565b60008060008060808587031215614b99578081fd5b8435614ba4816150b4565b93506020850135614bb4816150b4565b92506040850135614bc4816150b4565b9396929550929360600135925050565b600080600060608486031215614be8578283fd5b8335614bf3816150b4565b92506020840135614c03816150b4565b929592945050506040919091013590565b60008060008060808587031215614c29578384fd5b8435614c34816150b4565b9350602085013592506040850135614c4b816150b4565b91506060850135614c5b816150b4565b939692955090935050565b60008060008060808587031215614c7b578384fd5b8435614c86816150b4565b9350602085013592506040850135614bc4816150b4565b60006020808385031215614caf578182fd5b825167ffffffffffffffff80821115614cc6578384fd5b818501915085601f830112614cd9578384fd5b815181811115614ceb57614ceb61509e565b8060051b604051601f19603f83011681018181108582111715614d1057614d1061509e565b604052828152858101935084860182860187018a1015614d2e578788fd5b8795505b83861015614d50578051855260019590950194938601938601614d32565b5098975050505050505050565b600060208284031215614d6e578081fd5b8151611411816150c9565b600060208284031215614d8a578081fd5b5035919050565b600060208284031215614da2578081fd5b5051919050565b600080600060608486031215614dbd578283fd5b833592506020840135614b69816150b4565b60008060008060808587031215614de4578182fd5b843593506020850135614bb4816150b4565b600080600080600060a08688031215614e0d578283fd5b853594506020860135614e1f816150b4565b93506040860135614e2f816150c9565b92506060860135614e3f816150b4565b91506080860135614e4f816150c9565b809150509295509295909350565b60008060008060008060c08789031215614e75578384fd5b863595506020870135614e87816150b4565b94506040870135614e97816150c9565b93506060870135614ea7816150b4565b92506080870135614eb7816150c9565b8092505060a087013590509295509295509295565b60008060408385031215614ede578182fd5b505080516020909101519092909150565b600080600060608486031215614f03578081fd5b505081359360208301359350604090920135919050565b600080600060608486031215614f2e578081fd5b8351925060208401519150604084015190509250925092565b6001600160a01b0393841681529183166020830152909116604082015260600190565b6001600160a01b039485168152928416602084015292166040820152901515606082015260800190565b6001600160a01b039384168152919092166020820152604081019190915260600190565b6020808252825482820181905260008481528281209092916040850190845b81811015614ff357835483526001938401939285019201614fd7565b50909695505050505050565b6000821982111561501257615012615088565b500190565b60008261503257634e487b7160e01b81526012600452602481fd5b500490565b600081600019048311821515161561505157615051615088565b500290565b60008282101561506857615068615088565b500390565b600060001982141561508157615081615088565b5060010190565b634e487b7160e01b600052601160045260246000fd5b634e487b7160e01b600052604160045260246000fd5b6001600160a01b0381168114610a0057600080fd5b8015158114610a0057600080fdfea26469706673582212201a2d4b3b2c3b66ee1333bf567c4bae6004ab91d6e9bcb0fec18c0aee59b53aa664736f6c63430008030033",
  "linkReferences": {},
  "deployedLinkReferences": {}
}