{
  "_format": "hh-sol-artifact-1",
  "contractName": "Router",
  "sourceName": "contracts/Router.sol",
  "abi": [
    {
      "inputs": [],
      "stateMutability": "nonpayable",
      "type": "constructor"
    },
    {
      "anonymous": false,
      "inputs": [
        {
          "indexed": true,
          "internalType": "address",
          "name": "curator",
          "type": "address"
        },
        {
          "indexed": true,
          "internalType": "address",
          "name": "token",
          "type": "address"
        }
      ],
      "name": "Curated",
      "type": "event"
    },
    {
      "anonymous": false,
      "inputs": [
        {
          "indexed": true,
          "internalType": "address",
          "name": "base",
          "type": "address"
        },
        {
          "indexed": true,
          "internalType": "address",
          "name": "token",
          "type": "address"
        },
        {
          "indexed": false,
          "internalType": "uint256",
          "name": "amount",
          "type": "uint256"
        }
      ],
      "name": "PoolReward",
      "type": "event"
    },
    {
      "anonymous": false,
      "inputs": [
        {
          "indexed": true,
          "internalType": "address",
          "name": "member",
          "type": "address"
        },
        {
          "indexed": false,
          "internalType": "uint256",
          "name": "amount",
          "type": "uint256"
        }
      ],
      "name": "Protection",
      "type": "event"
    },
    {
      "inputs": [],
      "name": "DAO",
      "outputs": [
        {
          "internalType": "address",
          "name": "",
          "type": "address"
        }
      ],
      "stateMutability": "view",
      "type": "function"
    },
    {
      "inputs": [],
      "name": "POOLS",
      "outputs": [
        {
          "internalType": "address",
          "name": "",
          "type": "address"
        }
      ],
      "stateMutability": "view",
      "type": "function"
    },
    {
      "inputs": [],
      "name": "USDV",
      "outputs": [
        {
          "internalType": "address",
          "name": "",
          "type": "address"
        }
      ],
      "stateMutability": "view",
      "type": "function"
    },
    {
      "inputs": [],
      "name": "UTILS",
      "outputs": [
        {
          "internalType": "address",
          "name": "",
          "type": "address"
        }
      ],
      "stateMutability": "view",
      "type": "function"
    },
    {
      "inputs": [],
      "name": "VADER",
      "outputs": [
        {
          "internalType": "address",
          "name": "",
          "type": "address"
        }
      ],
      "stateMutability": "view",
      "type": "function"
    },
    {
      "inputs": [
        {
          "internalType": "address",
          "name": "base",
          "type": "address"
        },
        {
          "internalType": "uint256",
          "name": "inputBase",
          "type": "uint256"
        },
        {
          "internalType": "address",
          "name": "token",
          "type": "address"
        },
        {
          "internalType": "uint256",
          "name": "inputToken",
          "type": "uint256"
        }
      ],
      "name": "addLiquidity",
      "outputs": [
        {
          "internalType": "uint256",
          "name": "",
          "type": "uint256"
        }
      ],
      "stateMutability": "nonpayable",
      "type": "function"
    },
    {
      "inputs": [
        {
          "internalType": "uint256",
          "name": "",
          "type": "uint256"
        }
      ],
      "name": "arrayAnchors",
      "outputs": [
        {
          "internalType": "address",
          "name": "",
          "type": "address"
        }
      ],
      "stateMutability": "view",
      "type": "function"
    },
    {
      "inputs": [
        {
          "internalType": "uint256",
          "name": "",
          "type": "uint256"
        }
      ],
      "name": "arrayPrices",
      "outputs": [
        {
          "internalType": "uint256",
          "name": "",
          "type": "uint256"
        }
      ],
      "stateMutability": "view",
      "type": "function"
    },
    {
      "inputs": [],
      "name": "borrow",
      "outputs": [],
      "stateMutability": "nonpayable",
      "type": "function"
    },
    {
      "inputs": [
        {
          "internalType": "address",
          "name": "token",
          "type": "address"
        }
      ],
      "name": "curatePool",
      "outputs": [],
      "stateMutability": "nonpayable",
      "type": "function"
    },
    {
      "inputs": [],
      "name": "curatedPoolCount",
      "outputs": [
        {
          "internalType": "uint256",
          "name": "",
          "type": "uint256"
        }
      ],
      "stateMutability": "view",
      "type": "function"
    },
    {
      "inputs": [],
      "name": "curatedPoolLimit",
      "outputs": [
        {
          "internalType": "uint256",
          "name": "",
          "type": "uint256"
        }
      ],
      "stateMutability": "view",
      "type": "function"
    },
    {
      "inputs": [],
      "name": "emitting",
      "outputs": [
        {
          "internalType": "bool",
          "name": "",
          "type": "bool"
        }
      ],
      "stateMutability": "view",
      "type": "function"
    },
    {
      "inputs": [],
      "name": "getAnchorPrice",
      "outputs": [
        {
          "internalType": "uint256",
          "name": "anchorPrice",
          "type": "uint256"
        }
      ],
      "stateMutability": "view",
      "type": "function"
    },
    {
      "inputs": [
        {
          "internalType": "address",
          "name": "member",
          "type": "address"
        },
        {
          "internalType": "address",
          "name": "token",
          "type": "address"
        }
      ],
      "name": "getCoverage",
      "outputs": [
        {
          "internalType": "uint256",
          "name": "",
          "type": "uint256"
        }
      ],
      "stateMutability": "view",
      "type": "function"
    },
    {
      "inputs": [
        {
          "internalType": "address",
          "name": "member",
          "type": "address"
        },
        {
          "internalType": "address",
          "name": "base",
          "type": "address"
        },
        {
          "internalType": "address",
          "name": "token",
          "type": "address"
        },
        {
          "internalType": "uint256",
          "name": "basisPoints",
          "type": "uint256"
        }
      ],
      "name": "getILProtection",
      "outputs": [
        {
          "internalType": "uint256",
          "name": "protection",
          "type": "uint256"
        }
      ],
      "stateMutability": "view",
      "type": "function"
    },
    {
      "inputs": [],
      "name": "getInterestPayment",
      "outputs": [],
      "stateMutability": "nonpayable",
      "type": "function"
    },
    {
      "inputs": [
        {
          "internalType": "address",
          "name": "member",
          "type": "address"
        },
        {
          "internalType": "address",
          "name": "token",
          "type": "address"
        },
        {
          "internalType": "uint256",
          "name": "basisPoints",
          "type": "uint256"
        },
        {
          "internalType": "uint256",
          "name": "coverage",
          "type": "uint256"
        }
      ],
      "name": "getProtection",
      "outputs": [
        {
          "internalType": "uint256",
          "name": "protection",
          "type": "uint256"
        }
      ],
      "stateMutability": "view",
      "type": "function"
    },
    {
      "inputs": [
        {
          "internalType": "uint256",
          "name": "amount",
          "type": "uint256"
        }
      ],
      "name": "getReducedShare",
      "outputs": [
        {
          "internalType": "uint256",
          "name": "",
          "type": "uint256"
        }
      ],
      "stateMutability": "view",
      "type": "function"
    },
    {
      "inputs": [
        {
          "internalType": "address",
          "name": "token",
          "type": "address"
        }
      ],
      "name": "getRewardShare",
      "outputs": [
        {
          "internalType": "uint256",
          "name": "rewardShare",
          "type": "uint256"
        }
      ],
      "stateMutability": "view",
      "type": "function"
    },
    {
      "inputs": [
        {
          "internalType": "uint256",
          "name": "vaderAmount",
          "type": "uint256"
        }
      ],
      "name": "getUSDVAmount",
      "outputs": [
        {
          "internalType": "uint256",
          "name": "USDVAmount",
          "type": "uint256"
        }
      ],
      "stateMutability": "view",
      "type": "function"
    },
    {
      "inputs": [
        {
          "internalType": "uint256",
          "name": "USDVAmount",
          "type": "uint256"
        }
      ],
      "name": "getVADERAmount",
      "outputs": [
        {
          "internalType": "uint256",
          "name": "vaderAmount",
          "type": "uint256"
        }
      ],
      "stateMutability": "view",
      "type": "function"
    },
    {
      "inputs": [
        {
          "internalType": "address",
          "name": "_vader",
          "type": "address"
        },
        {
          "internalType": "address",
          "name": "_usdv",
          "type": "address"
        },
        {
          "internalType": "address",
          "name": "_pool",
          "type": "address"
        }
      ],
      "name": "init",
      "outputs": [],
      "stateMutability": "nonpayable",
      "type": "function"
    },
    {
      "inputs": [
        {
          "internalType": "address",
          "name": "token",
          "type": "address"
        }
      ],
      "name": "isBase",
      "outputs": [
        {
          "internalType": "bool",
          "name": "base",
          "type": "bool"
        }
      ],
      "stateMutability": "view",
      "type": "function"
    },
    {
      "inputs": [
        {
          "internalType": "address",
          "name": "token",
          "type": "address"
        }
      ],
      "name": "isCurated",
      "outputs": [
        {
          "internalType": "bool",
          "name": "curated",
          "type": "bool"
        }
      ],
      "stateMutability": "view",
      "type": "function"
    },
    {
      "inputs": [
        {
          "internalType": "address",
          "name": "token",
          "type": "address"
        }
      ],
      "name": "listAnchor",
      "outputs": [],
      "stateMutability": "nonpayable",
      "type": "function"
    },
    {
      "inputs": [
        {
          "internalType": "address",
          "name": "",
          "type": "address"
        },
        {
          "internalType": "address",
          "name": "",
          "type": "address"
        }
      ],
      "name": "mapMemberToken_depositBase",
      "outputs": [
        {
          "internalType": "uint256",
          "name": "",
          "type": "uint256"
        }
      ],
      "stateMutability": "view",
      "type": "function"
    },
    {
      "inputs": [
        {
          "internalType": "address",
          "name": "",
          "type": "address"
        },
        {
          "internalType": "address",
          "name": "",
          "type": "address"
        }
      ],
      "name": "mapMemberToken_depositToken",
      "outputs": [
        {
          "internalType": "uint256",
          "name": "",
          "type": "uint256"
        }
      ],
      "stateMutability": "view",
      "type": "function"
    },
    {
      "inputs": [
        {
          "internalType": "address",
          "name": "",
          "type": "address"
        },
        {
          "internalType": "address",
          "name": "",
          "type": "address"
        }
      ],
      "name": "mapMemberToken_lastDeposited",
      "outputs": [
        {
          "internalType": "uint256",
          "name": "",
          "type": "uint256"
        }
      ],
      "stateMutability": "view",
      "type": "function"
    },
    {
      "inputs": [],
      "name": "payBack",
      "outputs": [],
      "stateMutability": "nonpayable",
      "type": "function"
    },
    {
      "inputs": [
        {
          "internalType": "uint256",
          "name": "shareVADER",
          "type": "uint256"
        },
        {
          "internalType": "uint256",
          "name": "shareUSDV",
          "type": "uint256"
        }
      ],
      "name": "pullIncentives",
      "outputs": [],
      "stateMutability": "nonpayable",
      "type": "function"
    },
    {
      "inputs": [],
      "name": "purgeMember",
      "outputs": [],
      "stateMutability": "nonpayable",
      "type": "function"
    },
    {
      "inputs": [
        {
          "internalType": "address",
          "name": "base",
          "type": "address"
        },
        {
          "internalType": "address",
          "name": "token",
          "type": "address"
        },
        {
          "internalType": "uint256",
          "name": "basisPoints",
          "type": "uint256"
        }
      ],
      "name": "removeLiquidity",
      "outputs": [
        {
          "internalType": "uint256",
          "name": "amountBase",
          "type": "uint256"
        },
        {
          "internalType": "uint256",
          "name": "amountToken",
          "type": "uint256"
        }
      ],
      "stateMutability": "nonpayable",
      "type": "function"
    },
    {
      "inputs": [
        {
          "internalType": "address",
          "name": "oldToken",
          "type": "address"
        },
        {
          "internalType": "address",
          "name": "newToken",
          "type": "address"
        }
      ],
      "name": "replaceAnchor",
      "outputs": [],
      "stateMutability": "nonpayable",
      "type": "function"
    },
    {
      "inputs": [
        {
          "internalType": "address",
          "name": "oldToken",
          "type": "address"
        },
        {
          "internalType": "address",
          "name": "newToken",
          "type": "address"
        }
      ],
      "name": "replacePool",
      "outputs": [],
      "stateMutability": "nonpayable",
      "type": "function"
    },
    {
      "inputs": [],
      "name": "reserveUSDV",
      "outputs": [
        {
          "internalType": "uint256",
          "name": "",
          "type": "uint256"
        }
      ],
      "stateMutability": "view",
      "type": "function"
    },
    {
      "inputs": [],
      "name": "reserveVADER",
      "outputs": [
        {
          "internalType": "uint256",
          "name": "",
          "type": "uint256"
        }
      ],
      "stateMutability": "view",
      "type": "function"
    },
    {
      "inputs": [],
      "name": "rewardReductionFactor",
      "outputs": [
        {
          "internalType": "uint256",
          "name": "",
          "type": "uint256"
        }
      ],
      "stateMutability": "view",
      "type": "function"
    },
    {
      "inputs": [
        {
          "internalType": "uint256",
          "name": "newFactor",
          "type": "uint256"
        },
        {
          "internalType": "uint256",
          "name": "newTime",
          "type": "uint256"
        },
        {
          "internalType": "uint256",
          "name": "newLimit",
          "type": "uint256"
        }
      ],
      "name": "setParams",
      "outputs": [],
      "stateMutability": "nonpayable",
      "type": "function"
    },
    {
      "inputs": [
        {
          "internalType": "uint256",
          "name": "inputAmount",
          "type": "uint256"
        },
        {
          "internalType": "address",
          "name": "inputToken",
          "type": "address"
        },
        {
          "internalType": "address",
          "name": "outputToken",
          "type": "address"
        }
      ],
      "name": "swap",
      "outputs": [
        {
          "internalType": "uint256",
          "name": "outputAmount",
          "type": "uint256"
        }
      ],
      "stateMutability": "nonpayable",
      "type": "function"
    },
    {
      "inputs": [
        {
          "internalType": "uint256",
          "name": "inputAmount",
          "type": "uint256"
        },
        {
          "internalType": "address",
          "name": "inputToken",
          "type": "address"
        },
        {
          "internalType": "address",
          "name": "outputToken",
          "type": "address"
        },
        {
          "internalType": "uint256",
          "name": "slipLimit",
          "type": "uint256"
        }
      ],
      "name": "swapWithLimit",
      "outputs": [
        {
          "internalType": "uint256",
          "name": "outputAmount",
          "type": "uint256"
        }
      ],
      "stateMutability": "nonpayable",
      "type": "function"
    },
    {
      "inputs": [
        {
          "internalType": "uint256",
          "name": "inputAmount",
          "type": "uint256"
        },
        {
          "internalType": "address",
          "name": "inputToken",
          "type": "address"
        },
        {
          "internalType": "bool",
          "name": "inSynth",
          "type": "bool"
        },
        {
          "internalType": "address",
          "name": "outputToken",
          "type": "address"
        },
        {
          "internalType": "bool",
          "name": "outSynth",
          "type": "bool"
        }
      ],
      "name": "swapWithSynths",
      "outputs": [
        {
          "internalType": "uint256",
          "name": "outputAmount",
          "type": "uint256"
        }
      ],
      "stateMutability": "nonpayable",
      "type": "function"
    },
    {
      "inputs": [
        {
          "internalType": "uint256",
          "name": "inputAmount",
          "type": "uint256"
        },
        {
          "internalType": "address",
          "name": "inputToken",
          "type": "address"
        },
        {
          "internalType": "bool",
          "name": "inSynth",
          "type": "bool"
        },
        {
          "internalType": "address",
          "name": "outputToken",
          "type": "address"
        },
        {
          "internalType": "bool",
          "name": "outSynth",
          "type": "bool"
        },
        {
          "internalType": "uint256",
          "name": "slipLimit",
          "type": "uint256"
        }
      ],
      "name": "swapWithSynthsWithLimit",
      "outputs": [
        {
          "internalType": "uint256",
          "name": "outputAmount",
          "type": "uint256"
        }
      ],
      "stateMutability": "nonpayable",
      "type": "function"
    },
    {
      "inputs": [],
      "name": "timeForFullProtection",
      "outputs": [
        {
          "internalType": "uint256",
          "name": "",
          "type": "uint256"
        }
      ],
      "stateMutability": "view",
      "type": "function"
    },
    {
      "inputs": [
        {
          "internalType": "address",
          "name": "token",
          "type": "address"
        }
      ],
      "name": "updateAnchorPrice",
      "outputs": [],
      "stateMutability": "nonpayable",
      "type": "function"
    }
  ],
  "bytecode": "0x6080604052670de0b6b3a764000060015561271060025534801561002257600080fd5b50613d49806100326000396000f3fe608060405234801561001057600080fd5b506004361061027f5760003560e01c8063774d70e41161015c578063d752fab2116100ce578063e68d356911610087578063e68d3569146102b4578063e8b8cfa014610530578063ebccb5b214610543578063f550394e14610556578063fcf4768614610581578063fdc59b82146105945761027f565b8063d752fab2146104c7578063ddab2385146102b4578063de6ad44e146104ef578063e2c3b046146104f7578063e2e1e48f1461050a578063e6048ff81461051d5761027f565b8063a55bee2a11610120578063a55bee2a14610447578063a9d1c09e1461045a578063b773634814610485578063c6978f2614610498578063cf8bc715146104ab578063d2b43373146104b45761027f565b8063774d70e4146104085780637b0e5c451461041b5780638bc51e361461042357806398fabd3a1461042c57806399a485f5146104345761027f565b8063376d3d5d116101f55780635a4dd3f2116101b95780635a4dd3f2146103b45780635b0b602d146103c757806362cea340146103da57806362f25b5a146102b45780636cc06ded146103e25780636e899aa3146103f55761027f565b8063376d3d5d1461035f57806337785d211461037257806339e68f531461038557806353198438146103985780635a0ce676146103a15761027f565b806317af50e51161024757806317af50e5146102f7578063184b95591461030a5780631a6098271461031d5780631df6acfd14610330578063273961e6146103435780632b7f09231461034c5761027f565b80630168131514610284578063019f64cc146102b4578063038e5eaa146102b65780630781f4d2146102cc57806312a86ffb146102e4575b600080fd5b600854610297906001600160a01b031681565b6040516001600160a01b0390911681526020015b60405180910390f35b005b6102be6105bf565b6040519081526020016102ab565b6102d4610660565b60405190151581526020016102ab565b6102be6102f2366004613874565b6106e2565b6102be610305366004613a1e565b610b64565b6102b46103183660046138ac565b610b85565b6102be61032b366004613a74565b610c23565b6102b461033e366004613874565b610c40565b6102be60045481565b6102be61035a366004613a4e565b610f09565b6102be61036d3660046139cb565b610f1d565b6102be610380366004613b02565b610fd7565b6102b4610393366004613835565b611adc565b6102be60055481565b6102b46103af366004613bb5565b611c6c565b6102be6103c2366004613a1e565b611ccc565b6102be6103d5366004613986565b611cfb565b6102be611e6f565b6102be6103f0366004613a1e565b611eec565b6102d4610403366004613835565b611f07565b6102d4610416366004613835565b611f40565b610297611ff3565b6102be60065481565b610297612070565b6102be610442366004613a9b565b6120b5565b6102b4610455366004613b71565b6120d1565b6102be610468366004613874565b600f60209081526000928352604080842090915290825290205481565b6102be610493366004613835565b6121e3565b6102be6104a6366004613a1e565b6125f4565b6102be60035481565b6102b46104c2366004613835565b61268a565b6104da6104d5366004613946565b6127a1565b604080519283526020830191909152016102ab565b6102be6128da565b600954610297906001600160a01b031681565b6102b4610518366004613835565b61290b565b6102be61052b3660046138f6565b612a60565b6102b461053e366004613874565b612abf565b600a54610297906001600160a01b031681565b6102be610564366004613874565b600d60209081526000928352604080842090915290825290205481565b61029761058f366004613a1e565b612ca8565b6102be6105a2366004613874565b600e60209081526000928352604080842090915290825290205481565b600c5460009015610658576000610625600c80548060200260200160405190810160405280929190818152602001828054801561061b57602002820191906000526020600020905b815481526020019060010190808311610607575b5050505050612cd2565b90508060028151811061064857634e487b7160e01b600052603260045260246000fd5b602002602001015191505061065d565b506001545b90565b600854604080516303c0fa6960e11b815290516000926001600160a01b031691630781f4d2916004808301926020929190829003018186803b1580156106a557600080fd5b505afa1580156106b9573d6000803e3d6000fd5b505050506040513d601f19601f820116820180604052508101906106dd9190613a02565b905090565b6001600160a01b038281166000818152600d6020908152604080832086861680855290835281842054858552600e845282852082865290935281842054600a54925163024ef37560e41b8152600481019290925260248201959095529294919392859291909116906324ef37509060440160206040518083038186803b15801561076b57600080fd5b505afa15801561077f573d6000803e3d6000fd5b505050506040513d601f19601f820116820180604052508101906107a39190613a36565b905060006107af611ff3565b600a54604051630fefbc0960e01b81526001600160a01b03898116600483015292831692631ba326c4928692911690630fefbc099060240160206040518083038186803b1580156107ff57600080fd5b505afa158015610813573d6000803e3d6000fd5b505050506040513d601f19601f820116820180604052508101906108379190613a36565b600a5460405163b34c8afb60e01b81526001600160a01b038c811660048301529091169063b34c8afb9060240160206040518083038186803b15801561087c57600080fd5b505afa158015610890573d6000803e3d6000fd5b505050506040513d601f19601f820116820180604052508101906108b49190613a36565b6040516001600160e01b031960e086901b16815260048101939093526024830191909152604482015260640160206040518083038186803b1580156108f857600080fd5b505afa15801561090c573d6000803e3d6000fd5b505050506040513d601f19601f820116820180604052508101906109309190613a36565b9050600061093c611ff3565b600a54604051630fefbc0960e01b81526001600160a01b038a8116600483015292831692631ba326c4928792911690630fefbc099060240160206040518083038186803b15801561098c57600080fd5b505afa1580156109a0573d6000803e3d6000fd5b505050506040513d601f19601f820116820180604052508101906109c49190613a36565b600a5460405163e6ae1a9760e01b81526001600160a01b038d811660048301529091169063e6ae1a979060240160206040518083038186803b158015610a0957600080fd5b505afa158015610a1d573d6000803e3d6000fd5b505050506040513d601f19601f82011682018060405250810190610a419190613a36565b6040516001600160e01b031960e086901b16815260048101939093526024830191909152604482015260640160206040518083038186803b158015610a8557600080fd5b505afa158015610a99573d6000803e3d6000fd5b505050506040513d601f19601f82011682018060405250810190610abd9190613a36565b9050610ac7611ff3565b60405163595a88a760e01b8152600481018790526024810186905260448101849052606481018390526001600160a01b03919091169063595a88a79060840160206040518083038186803b158015610b1e57600080fd5b505afa158015610b32573d6000803e3d6000fd5b505050506040513d601f19601f82011682018060405250810190610b569190613a36565b955050505050505b92915050565b600c8181548110610b7457600080fd5b600091825260209091200154905081565b60005460ff1615610bc65760405162461bcd60e51b81526020600482015260066024820152651a5b9a5d195960d21b60448201526064015b60405180910390fd5b60008054600160ff199091168117909155600880546001600160a01b03199081166001600160a01b039687161790915560098054821694861694909417909355600a80549093169190931617905560038190556004819055600555565b6000610c358585600086600087610fd7565b90505b949350505050565b600a54604051636c66769560e11b81526001600160a01b0383811660048301529091169063d8cced2a9060240160206040518083038186803b158015610c8557600080fd5b505afa158015610c99573d6000803e3d6000fd5b505050506040513d601f19601f82011682018060405250810190610cbd9190613a02565b610cf65760405162461bcd60e51b815260206004820152600a6024820152692737ba1030b731b437b960b11b6044820152606401610bbd565b600a5460405163b34c8afb60e01b81526001600160a01b0384811660048301529091169063b34c8afb9060240160206040518083038186803b158015610d3b57600080fd5b505afa158015610d4f573d6000803e3d6000fd5b505050506040513d601f19601f82011682018060405250810190610d739190613a36565b600a5460405163b34c8afb60e01b81526001600160a01b0384811660048301529091169063b34c8afb9060240160206040518083038186803b158015610db857600080fd5b505afa158015610dcc573d6000803e3d6000fd5b505050506040513d601f19601f82011682018060405250810190610df09190613a36565b11610e2a5760405162461bcd60e51b815260206004820152600a6024820152692737ba103232b2b832b960b11b6044820152606401610bbd565b610e38826101f46000612e2c565b610e458160c86001612e2c565b60005b600b54811015610efb57826001600160a01b0316600b8281548110610e7d57634e487b7160e01b600052603260045260246000fd5b6000918252602090912001546001600160a01b03161415610ee95781600b8281548110610eba57634e487b7160e01b600052603260045260246000fd5b9060005260206000200160006101000a8154816001600160a01b0302191690836001600160a01b031602179055505b80610ef381613cbf565b915050610e48565b50610f058161290b565b5050565b6000610c3884846000856000612710610fd7565b600080610f2a8686613034565b90506000610f388585613034565b9050610f463386848461339f565b600a5460405163fde3b26560e01b81526001600160a01b039091169063fde3b26590610f7a908a9089903390600401613be0565b602060405180830381600087803b158015610f9457600080fd5b505af1158015610fa8573d6000803e3d6000fd5b505050506040513d601f19601f82011682018060405250810190610fcc9190613a36565b979650505050505050565b60003385610fef57610fe98789613034565b50611078565b600a54604051636e76408b60e11b81526001600160a01b03898116600483015261107692169063dcec811690602401602060405180830381600087803b15801561103857600080fd5b505af115801561104c573d6000803e3d6000fd5b505050506040513d601f19601f820116820180604052508101906110709190613858565b89613034565b505b600a54604051636c66769560e11b81526001600160a01b038981166004830152600092169063d8cced2a9060240160206040518083038186803b1580156110be57600080fd5b505afa1580156110d2573d6000803e3d6000fd5b505050506040513d601f19601f820116820180604052508101906110f69190613a02565b806111795750600a54604051636c66769560e11b81526001600160a01b0388811660048301529091169063d8cced2a9060240160206040518083038186803b15801561114157600080fd5b505afa158015611155573d6000803e3d6000fd5b505050506040513d601f19601f820116820180604052508101906111799190613a02565b1561119057506008546001600160a01b031661119e565b506009546001600160a01b03165b6111a786611f07565b156113e957836111b5611ff3565b600a5460405163e6ae1a9760e01b81526001600160a01b038c8116600483015292831692632db6e488928e9291169063e6ae1a979060240160206040518083038186803b15801561120557600080fd5b505afa158015611219573d6000803e3d6000fd5b505050506040513d601f19601f8201168201806040525081019061123d9190613a36565b6040516001600160e01b031960e085901b1681526004810192909252602482015260440160206040518083038186803b15801561127957600080fd5b505afa15801561128d573d6000803e3d6000fd5b505050506040513d601f19601f820116820180604052508101906112b19190613a36565b11156112bc57600080fd5b8661135157600a5460405163efc34aab60e01b81526001600160a01b039091169063efc34aab906112f89084908c908790600190600401613c03565b602060405180830381600087803b15801561131257600080fd5b505af1158015611326573d6000803e3d6000fd5b505050506040513d601f19601f8201168201806040525081019061134a9190613a36565b92506113da565b600a546040516371d6d97b60e11b81526001600160a01b039091169063e3adb2f6906113859084908c908790600401613be0565b602060405180830381600087803b15801561139f57600080fd5b505af11580156113b3573d6000803e3d6000fd5b505050506040513d601f19601f820116820180604052508101906113d79190613a36565b92505b6113e48189613445565b611abe565b6113f288611f07565b1561162f5783611400611ff3565b600a5460405163b34c8afb60e01b81526001600160a01b038a8116600483015292831692632db6e488928e9291169063b34c8afb9060240160206040518083038186803b15801561145057600080fd5b505afa158015611464573d6000803e3d6000fd5b505050506040513d601f19601f820116820180604052508101906114889190613a36565b6040516001600160e01b031960e085901b1681526004810192909252602482015260440160206040518083038186803b1580156114c457600080fd5b505afa1580156114d8573d6000803e3d6000fd5b505050506040513d601f19601f820116820180604052508101906114fc9190613a36565b111561150757600080fd5b8461159c57600a5460405163efc34aab60e01b81526001600160a01b039091169063efc34aab906115439084908a908790600090600401613c03565b602060405180830381600087803b15801561155d57600080fd5b505af1158015611571573d6000803e3d6000fd5b505050506040513d601f19601f820116820180604052508101906115959190613a36565b9250611625565b600a5460405163680b1a3f60e11b81526001600160a01b039091169063d016347e906115d09084908a908790600401613be0565b602060405180830381600087803b1580156115ea57600080fd5b505af11580156115fe573d6000803e3d6000fd5b505050506040513d601f19601f820116820180604052508101906116229190613a36565b92505b6113e48187613445565b61163888611f07565b15801561164b575061164986611f07565b155b15611abe5783611659611ff3565b600a5460405163e6ae1a9760e01b81526001600160a01b038c8116600483015292831692632db6e488928e9291169063e6ae1a979060240160206040518083038186803b1580156116a957600080fd5b505afa1580156116bd573d6000803e3d6000fd5b505050506040513d601f19601f820116820180604052508101906116e19190613a36565b6040516001600160e01b031960e085901b1681526004810192909252602482015260440160206040518083038186803b15801561171d57600080fd5b505afa158015611731573d6000803e3d6000fd5b505050506040513d601f19601f820116820180604052508101906117559190613a36565b111561176057600080fd5b866117f457600a5460405163efc34aab60e01b81526001600160a01b039091169063efc34aab9061179c9084908c908590600190600401613c03565b602060405180830381600087803b1580156117b657600080fd5b505af11580156117ca573d6000803e3d6000fd5b505050506040513d601f19601f820116820180604052508101906117ee9190613a36565b5061187c565b600a546040516371d6d97b60e11b81526001600160a01b039091169063e3adb2f6906118289084908c908590600401613be0565b602060405180830381600087803b15801561184257600080fd5b505af1158015611856573d6000803e3d6000fd5b505050506040513d601f19601f8201168201806040525081019061187a9190613a36565b505b83611885611ff3565b600a5460405163b34c8afb60e01b81526001600160a01b038a8116600483015292831692632db6e488928e9291169063b34c8afb9060240160206040518083038186803b1580156118d557600080fd5b505afa1580156118e9573d6000803e3d6000fd5b505050506040513d601f19601f8201168201806040525081019061190d9190613a36565b6040516001600160e01b031960e085901b1681526004810192909252602482015260440160206040518083038186803b15801561194957600080fd5b505afa15801561195d573d6000803e3d6000fd5b505050506040513d601f19601f820116820180604052508101906119819190613a36565b111561198c57600080fd5b84611a2157600a5460405163efc34aab60e01b81526001600160a01b039091169063efc34aab906119c89084908a908790600090600401613c03565b602060405180830381600087803b1580156119e257600080fd5b505af11580156119f6573d6000803e3d6000fd5b505050506040513d601f19601f82011682018060405250810190611a1a9190613a36565b9250611aaa565b600a5460405163680b1a3f60e11b81526001600160a01b039091169063d016347e90611a559084908a908790600401613be0565b602060405180830381600087803b158015611a6f57600080fd5b505af1158015611a83573d6000803e3d6000fd5b505050506040513d601f19601f82011682018060405250810190611aa79190613a36565b92505b611ab48189613445565b611abe8187613445565b611ac788613592565b611ad086613592565b50509695505050505050565b600b54600511611aeb57600080fd5b600a54604051636c66769560e11b81526001600160a01b0383811660048301529091169063d8cced2a9060240160206040518083038186803b158015611b3057600080fd5b505afa158015611b44573d6000803e3d6000fd5b505050506040513d601f19601f82011682018060405250810190611b689190613a02565b611b7157600080fd5b600b80546001810182556000919091527f0175b7a638427703f0dbe7bb9bbf987a2551717b34e79f33b5b1008d1fa01db90180546001600160a01b0319166001600160a01b038316179055600c611bc6611ff3565b60015460405163db39dc7960e01b81526001600160a01b038581166004830152602482019290925291169063db39dc799060440160206040518083038186803b158015611c1257600080fd5b505afa158015611c26573d6000803e3d6000fd5b505050506040513d601f19601f82011682018060405250810190611c4a9190613a36565b81546001810183556000928352602090922090910155611c698161290b565b50565b611c74612070565b6001600160a01b0316336001600160a01b031614611cbe5760405162461bcd60e51b81526020600482015260076024820152664e6f742044414f60c81b6044820152606401610bbd565b600392909255600455600555565b600080611cd76105bf565b90508060015484611ce89190613c89565b611cf29190613c69565b9150505b919050565b6000611d0684611f40565b15611de6576001600160a01b038086166000908152600f60209081526040808320938816835292905290812054611d3d9042613ca8565b90506004548111611de057611d50611ff3565b600480546040516306e8c9b160e21b81529182018490526024820152604481018590526001600160a01b039190911690631ba326c49060640160206040518083038186803b158015611da157600080fd5b505afa158015611db5573d6000803e3d6000fd5b505050506040513d601f19601f82011682018060405250810190611dd99190613a36565b9150611de4565b8291505b505b611dee611ff3565b60405163714270ab60e01b815260048101859052602481018390526001600160a01b03919091169063714270ab9060440160206040518083038186803b158015611e3757600080fd5b505afa158015611e4b573d6000803e3d6000fd5b505050506040513d601f19601f82011682018060405250810190610c359190613a36565b6008546040516370a0823160e01b81523060048201526000916001600160a01b0316906370a08231906024015b60206040518083038186803b158015611eb457600080fd5b505afa158015611ec8573d6000803e3d6000fd5b505050506040513d601f19601f820116820180604052508101906106dd9190613a36565b600080611ef76105bf565b600154909150611ce88483613c89565b6008546000906001600160a01b0383811691161480611f3357506009546001600160a01b038381169116145b15611cf657506001611cf6565b6001600160a01b03811660009081526007602052604081205460ff1615611f6957506001611cf6565b600a54604051636c66769560e11b81526001600160a01b0384811660048301529091169063d8cced2a9060240160206040518083038186803b158015611fae57600080fd5b505afa158015611fc2573d6000803e3d6000fd5b505050506040513d601f19601f82011682018060405250810190611fe69190613a02565b15611cf657506001919050565b60085460408051637b0e5c4560e01b815290516000926001600160a01b031691637b0e5c45916004808301926020929190829003018186803b15801561203857600080fd5b505afa15801561204c573d6000803e3d6000fd5b505050506040513d601f19601f820116820180604052508101906106dd9190613858565b60085460408051634c7d5e9d60e11b815290516000926001600160a01b0316916398fabd3a916004808301926020929190829003018186803b15801561203857600080fd5b60006120c78686868686612710610fd7565b9695505050505050565b6008546040516323b872dd60e01b81526001600160a01b03909116906323b872dd9061210590339030908790600401613c2d565b602060405180830381600087803b15801561211f57600080fd5b505af1158015612133573d6000803e3d6000fd5b505050506040513d601f19601f820116820180604052508101906121579190613a02565b506009546040516323b872dd60e01b81526001600160a01b03909116906323b872dd9061218c90339030908690600401613c2d565b602060405180830381600087803b1580156121a657600080fd5b505af11580156121ba573d6000803e3d6000fd5b505050506040513d601f19601f820116820180604052508101906121de9190613a02565b505050565b60006121ed610660565b80156121fd57506121fd82611f40565b15611cf657600a5460405163b34c8afb60e01b81526001600160a01b038481166004830152600092169063b34c8afb9060240160206040518083038186803b15801561224857600080fd5b505afa15801561225c573d6000803e3d6000fd5b505050506040513d601f19601f820116820180604052508101906122809190613a36565b600a5460405163643fd21560e11b81526001600160a01b03868116600483015292935091169063c87fa42a9060240160206040518083038186803b1580156122c757600080fd5b505afa1580156122db573d6000803e3d6000fd5b505050506040513d601f19601f820116820180604052508101906122ff9190613a02565b1561243a57600061230e611ff3565b6001600160a01b0316631ba326c483600a60009054906101000a90046001600160a01b03166001600160a01b031663a9652dca6040518163ffffffff1660e01b815260040160206040518083038186803b15801561236b57600080fd5b505afa15801561237f573d6000803e3d6000fd5b505050506040513d601f19601f820116820180604052508101906123a39190613a36565b6123ab6128da565b6040516001600160e01b031960e086901b16815260048101939093526024830191909152604482015260640160206040518083038186803b1580156123ef57600080fd5b505afa158015612403573d6000803e3d6000fd5b505050506040513d601f19601f820116820180604052508101906124279190613a36565b9050612432816125f4565b9250506125ee565b600a54604051636c66769560e11b81526001600160a01b0385811660048301529091169063d8cced2a9060240160206040518083038186803b15801561247f57600080fd5b505afa158015612493573d6000803e3d6000fd5b505050506040513d601f19601f820116820180604052508101906124b79190613a02565b156125ee5760006124c6611ff3565b6001600160a01b0316631ba326c483600a60009054906101000a90046001600160a01b03166001600160a01b031663dd5a2bd86040518163ffffffff1660e01b815260040160206040518083038186803b15801561252357600080fd5b505afa158015612537573d6000803e3d6000fd5b505050506040513d601f19601f8201168201806040525081019061255b9190613a36565b612563611e6f565b6040516001600160e01b031960e086901b16815260048101939093526024830191909152604482015260640160206040518083038186803b1580156125a757600080fd5b505afa1580156125bb573d6000803e3d6000fd5b505050506040513d601f19601f820116820180604052508101906125df9190613a36565b90506125ea816125f4565b9250505b50919050565b60006125fe611ff3565b6003546040516306e8c9b160e21b8152600160048201526024810191909152604481018490526001600160a01b039190911690631ba326c49060640160206040518083038186803b15801561265257600080fd5b505afa158015612666573d6000803e3d6000fd5b505050506040513d601f19601f82011682018060405250810190610b5e9190613a36565b600a5460405163643fd21560e11b81526001600160a01b0383811660048301529091169063c87fa42a9060240160206040518083038186803b1580156126cf57600080fd5b505afa1580156126e3573d6000803e3d6000fd5b505050506040513d601f19601f820116820180604052508101906127079190613a02565b61271057600080fd5b61271981611f40565b612768576005546006541015612768576001600160a01b0381166000908152600760205260408120805460ff191660019081179091556006805491929091612762908490613c51565b90915550505b6040516001600160a01b0382169033907fb2f6cc014bc6265032f32972254d5e024ec51ed94c0aaf2280128336be54a04190600090a350565b600a54604051636ba97d5960e11b815260009182916001600160a01b039091169063d752fab2906127da90889088908890600401613c2d565b6040805180830381600087803b1580156127f357600080fd5b505af1158015612807573d6000803e3d6000fd5b505050506040513d601f19601f8201168201806040525081019061282b9190613b92565b909250905033600061283f82888888612a60565b905061284d8287878461361d565b60405163a9059cbb60e01b81526001600160a01b0383811660048301526024820183905288169063a9059cbb90604401602060405180830381600087803b15801561289757600080fd5b505af11580156128ab573d6000803e3d6000fd5b505050506040513d601f19601f820116820180604052508101906128cf9190613a02565b505050935093915050565b6009546040516370a0823160e01b81523060048201526000916001600160a01b0316906370a0823190602401611e9c565b60005b600b54811015610f0557816001600160a01b0316600b828154811061294357634e487b7160e01b600052603260045260246000fd5b6000918252602090912001546001600160a01b03161415612a4e57612966611ff3565b6001600160a01b031663db39dc79600b838154811061299557634e487b7160e01b600052603260045260246000fd5b60009182526020909120015460015460405160e084901b6001600160e01b03191681526001600160a01b039092166004830152602482015260440160206040518083038186803b1580156129e857600080fd5b505afa1580156129fc573d6000803e3d6000fd5b505050506040513d601f19601f82011682018060405250810190612a209190613a36565b600c8281548110612a4157634e487b7160e01b600052603260045260246000fd5b6000918252602090912001555b80612a5881613cbf565b91505061290e565b6000612a728584846103d589886106e2565b6008549091506001600160a01b0385811691161415612aa957612a93611e6f565b8110612aa457612aa1611e6f565b90505b610c38565b612ab16128da565b8110610c3857610c356128da565b600a5460405163643fd21560e11b81526001600160a01b0383811660048301529091169063c87fa42a9060240160206040518083038186803b158015612b0457600080fd5b505afa158015612b18573d6000803e3d6000fd5b505050506040513d601f19601f82011682018060405250810190612b3c9190613a02565b612b4557600080fd5b600a5460405163b34c8afb60e01b81526001600160a01b0384811660048301529091169063b34c8afb9060240160206040518083038186803b158015612b8a57600080fd5b505afa158015612b9e573d6000803e3d6000fd5b505050506040513d601f19601f82011682018060405250810190612bc29190613a36565b600a5460405163b34c8afb60e01b81526001600160a01b0384811660048301529091169063b34c8afb9060240160206040518083038186803b158015612c0757600080fd5b505afa158015612c1b573d6000803e3d6000fd5b505050506040513d601f19601f82011682018060405250810190612c3f9190613a36565b1115610f05576001600160a01b03808316600090815260076020526040808220805460ff1990811690915592841680835281832080549094166001179093555133917fb2f6cc014bc6265032f32972254d5e024ec51ed94c0aaf2280128336be54a04191a35050565b600b8181548110612cb857600080fd5b6000918252602090912001546001600160a01b0316905081565b805160609060005b81811015612e24576000612cef826001613c51565b90505b82811015612e1157848181518110612d1a57634e487b7160e01b600052603260045260246000fd5b6020026020010151858381518110612d4257634e487b7160e01b600052603260045260246000fd5b60200260200101511115612dff576000858381518110612d7257634e487b7160e01b600052603260045260246000fd5b60200260200101519050858281518110612d9c57634e487b7160e01b600052603260045260246000fd5b6020026020010151868481518110612dc457634e487b7160e01b600052603260045260246000fd5b60200260200101818152505080868381518110612df157634e487b7160e01b600052603260045260246000fd5b602002602001018181525050505b80612e0981613cbf565b915050612cf2565b5080612e1c81613cbf565b915050612cda565b509192915050565b6000612e366105bf565b90506000612e42611ff3565b60015460405163db39dc7960e01b81526001600160a01b038881166004830152602482019290925291169063db39dc799060440160206040518083038186803b158015612e8e57600080fd5b505afa158015612ea2573d6000803e3d6000fd5b505050506040513d601f19601f82011682018060405250810190612ec69190613a36565b90506000612ed2611ff3565b6001600160a01b031663714270ab86600254612eee9190613ca8565b856040518363ffffffff1660e01b8152600401612f15929190918252602082015260400190565b60206040518083038186803b158015612f2d57600080fd5b505afa158015612f41573d6000803e3d6000fd5b505050506040513d601f19601f82011682018060405250810190612f659190613a36565b600254909150600090612f788782613c51565b612f829086613c89565b612f8c9190613c69565b90508415612fe257818310158015612fa45750808311155b612fdd5760405162461bcd60e51b815260206004820152600a6024820152694e6f7420696e7369646560b01b6044820152606401610bbd565b61302b565b8183111580612ff15750808310155b61302b5760405162461bcd60e51b815260206004820152600b60248201526a4e6f74206f75747369646560a81b6044820152606401610bbd565b50505050505050565b6008546000906001600160a01b038481169116148061306057506009546001600160a01b038481169116145b806130e55750600a54604051632f011bf560e11b81526001600160a01b03858116600483015290911690635e0237ea90602401602060405180830381600087803b1580156130ad57600080fd5b505af11580156130c1573d6000803e3d6000fd5b505050506040513d601f19601f820116820180604052508101906130e59190613a02565b1561320d5750803233141561318057600a546040516302ccb1b360e41b81526001600160a01b0391821660048201526024810184905290841690632ccb1b3090604401602060405180830381600087803b15801561314257600080fd5b505af1158015613156573d6000803e3d6000fd5b505050506040513d601f19601f8201168201806040525081019061317a9190613a02565b50613208565b600a546040516323b872dd60e01b81526001600160a01b03808616926323b872dd926131b492339216908790600401613c2d565b602060405180830381600087803b1580156131ce57600080fd5b505af11580156131e2573d6000803e3d6000fd5b505050506040513d601f19601f820116820180604052508101906132069190613a02565b505b610b5e565b600a546040516370a0823160e01b81526001600160a01b0391821660048201526000918516906370a082319060240160206040518083038186803b15801561325457600080fd5b505afa158015613268573d6000803e3d6000fd5b505050506040513d601f19601f8201168201806040525081019061328c9190613a36565b600a546040516323b872dd60e01b81529192506001600160a01b03808716926323b872dd926132c49233929116908890600401613c2d565b602060405180830381600087803b1580156132de57600080fd5b505af11580156132f2573d6000803e3d6000fd5b505050506040513d601f19601f820116820180604052508101906133169190613a02565b50600a546040516370a0823160e01b81526001600160a01b03918216600482015282918616906370a082319060240160206040518083038186803b15801561335d57600080fd5b505afa158015613371573d6000803e3d6000fd5b505050506040513d601f19601f820116820180604052508101906133959190613a36565b610c389190613ca8565b6001600160a01b038085166000908152600d60209081526040808320938716835292905290812080548492906133d6908490613c51565b90915550506001600160a01b038085166000908152600e6020908152604080832093871683529290529081208054839290613412908490613c51565b9091555050506001600160a01b039283166000908152600f60209081526040808320949095168252929092525020429055565b6000613450826121e3565b600a5460405163a9059cbb60e01b81526001600160a01b0391821660048201526024810183905291925084169063a9059cbb90604401602060405180830381600087803b1580156134a057600080fd5b505af11580156134b4573d6000803e3d6000fd5b505050506040513d601f19601f820116820180604052508101906134d89190613a02565b50600a54604051633041949b60e01b81526001600160a01b038581166004830152848116602483015290911690633041949b90604401600060405180830381600087803b15801561352857600080fd5b505af115801561353c573d6000803e3d6000fd5b50505050816001600160a01b0316836001600160a01b03167f416b0b234ccd4d6d72c4b1a3a09b472a71981d9bbf0f26ab44774e0e3425fad68360405161358591815260200190565b60405180910390a3505050565b600a54604051636c66769560e11b81526001600160a01b0383811660048301529091169063d8cced2a9060240160206040518083038186803b1580156135d757600080fd5b505afa1580156135eb573d6000803e3d6000fd5b505050506040513d601f19601f8201168201806040525081019061360f9190613a02565b15611c6957611c698161290b565b6001600160a01b038085166000908152600d6020908152604080832093871683529290529081208054839290613654908490613c51565b9091555060009050613664611ff3565b6001600160a01b038681166000908152600d6020908152604080832089851684529091529081902054905163714270ab60e01b815260048101879052602481019190915291169063714270ab9060440160206040518083038186803b1580156136cc57600080fd5b505afa1580156136e0573d6000803e3d6000fd5b505050506040513d601f19601f820116820180604052508101906137049190613a36565b90506000613710611ff3565b6001600160a01b038781166000908152600e602090815260408083208a851684529091529081902054905163714270ab60e01b815260048101889052602481019190915291169063714270ab9060440160206040518083038186803b15801561377857600080fd5b505afa15801561378c573d6000803e3d6000fd5b505050506040513d601f19601f820116820180604052508101906137b09190613a36565b6001600160a01b038088166000908152600d60209081526040808320938a168352929052908120805492935084929091906137ec908490613ca8565b90915550506001600160a01b038087166000908152600e6020908152604080832093891683529290529081208054839290613828908490613ca8565b9091555050505050505050565b600060208284031215613846578081fd5b813561385181613cf0565b9392505050565b600060208284031215613869578081fd5b815161385181613cf0565b60008060408385031215613886578081fd5b823561389181613cf0565b915060208301356138a181613cf0565b809150509250929050565b6000806000606084860312156138c0578081fd5b83356138cb81613cf0565b925060208401356138db81613cf0565b915060408401356138eb81613cf0565b809150509250925092565b6000806000806080858703121561390b578081fd5b843561391681613cf0565b9350602085013561392681613cf0565b9250604085013561393681613cf0565b9396929550929360600135925050565b60008060006060848603121561395a578283fd5b833561396581613cf0565b9250602084013561397581613cf0565b929592945050506040919091013590565b6000806000806080858703121561399b578384fd5b84356139a681613cf0565b935060208501356139b681613cf0565b93969395505050506040820135916060013590565b600080600080608085870312156139e0578384fd5b84356139eb81613cf0565b935060208501359250604085013561393681613cf0565b600060208284031215613a13578081fd5b815161385181613d05565b600060208284031215613a2f578081fd5b5035919050565b600060208284031215613a47578081fd5b5051919050565b600080600060608486031215613a62578283fd5b8335925060208401356138db81613cf0565b60008060008060808587031215613a89578384fd5b84359350602085013561392681613cf0565b600080600080600060a08688031215613ab2578283fd5b853594506020860135613ac481613cf0565b93506040860135613ad481613d05565b92506060860135613ae481613cf0565b91506080860135613af481613d05565b809150509295509295909350565b60008060008060008060c08789031215613b1a578384fd5b863595506020870135613b2c81613cf0565b94506040870135613b3c81613d05565b93506060870135613b4c81613cf0565b92506080870135613b5c81613d05565b8092505060a087013590509295509295509295565b60008060408385031215613b83578182fd5b50508035926020909101359150565b60008060408385031215613ba4578182fd5b505080516020909101519092909150565b600080600060608486031215613bc9578081fd5b505081359360208301359350604090920135919050565b6001600160a01b0393841681529183166020830152909116604082015260600190565b6001600160a01b039485168152928416602084015292166040820152901515606082015260800190565b6001600160a01b039384168152919092166020820152604081019190915260600190565b60008219821115613c6457613c64613cda565b500190565b600082613c8457634e487b7160e01b81526012600452602481fd5b500490565b6000816000190483118215151615613ca357613ca3613cda565b500290565b600082821015613cba57613cba613cda565b500390565b6000600019821415613cd357613cd3613cda565b5060010190565b634e487b7160e01b600052601160045260246000fd5b6001600160a01b0381168114611c6957600080fd5b8015158114611c6957600080fdfea2646970667358221220e6cb584ff7cb870114cdf7356239aa4cd386020cf412e41263abf8bc9a5c531f64736f6c63430008030033",
  "linkReferences": {},
  "deployedLinkReferences": {}
}