{
  "_format": "hh-sol-artifact-1",
  "contractName": "Router",
  "sourceName": "contracts/Router.sol",
  "abi": [
    {
      "inputs": [],
      "stateMutability": "nonpayable",
      "type": "constructor"
    },
    {
      "anonymous": false,
      "inputs": [
        {
          "indexed": true,
          "internalType": "address",
          "name": "member",
          "type": "address"
        },
        {
          "indexed": true,
          "internalType": "address",
          "name": "collateralAsset",
          "type": "address"
        },
        {
          "indexed": false,
          "internalType": "uint256",
          "name": "collateralLocked",
          "type": "uint256"
        },
        {
          "indexed": true,
          "internalType": "address",
          "name": "debtAsset",
          "type": "address"
        },
        {
          "indexed": false,
          "internalType": "uint256",
          "name": "debtIssued",
          "type": "uint256"
        }
      ],
      "name": "AddCollateral",
      "type": "event"
    },
    {
      "anonymous": false,
      "inputs": [
        {
          "indexed": true,
          "internalType": "address",
          "name": "curator",
          "type": "address"
        },
        {
          "indexed": true,
          "internalType": "address",
          "name": "token",
          "type": "address"
        }
      ],
      "name": "Curated",
      "type": "event"
    },
    {
      "anonymous": false,
      "inputs": [
        {
          "indexed": true,
          "internalType": "address",
          "name": "base",
          "type": "address"
        },
        {
          "indexed": true,
          "internalType": "address",
          "name": "token",
          "type": "address"
        },
        {
          "indexed": false,
          "internalType": "uint256",
          "name": "amount",
          "type": "uint256"
        }
      ],
      "name": "PoolReward",
      "type": "event"
    },
    {
      "anonymous": false,
      "inputs": [
        {
          "indexed": true,
          "internalType": "address",
          "name": "member",
          "type": "address"
        },
        {
          "indexed": false,
          "internalType": "uint256",
          "name": "amount",
          "type": "uint256"
        }
      ],
      "name": "Protection",
      "type": "event"
    },
    {
      "anonymous": false,
      "inputs": [
        {
          "indexed": true,
          "internalType": "address",
          "name": "member",
          "type": "address"
        },
        {
          "indexed": true,
          "internalType": "address",
          "name": "collateralAsset",
          "type": "address"
        },
        {
          "indexed": false,
          "internalType": "uint256",
          "name": "collateralUnlocked",
          "type": "uint256"
        },
        {
          "indexed": true,
          "internalType": "address",
          "name": "debtAsset",
          "type": "address"
        },
        {
          "indexed": false,
          "internalType": "uint256",
          "name": "debtReturned",
          "type": "uint256"
        }
      ],
      "name": "RemoveCollateral",
      "type": "event"
    },
    {
      "inputs": [],
      "name": "VADER",
      "outputs": [
        {
          "internalType": "address",
          "name": "",
          "type": "address"
        }
      ],
      "stateMutability": "view",
      "type": "function"
    },
    {
      "inputs": [
        {
          "internalType": "address",
          "name": "base",
          "type": "address"
        },
        {
          "internalType": "uint256",
          "name": "inputBase",
          "type": "uint256"
        },
        {
          "internalType": "address",
          "name": "token",
          "type": "address"
        },
        {
          "internalType": "uint256",
          "name": "inputToken",
          "type": "uint256"
        }
      ],
      "name": "addLiquidity",
      "outputs": [
        {
          "internalType": "uint256",
          "name": "",
          "type": "uint256"
        }
      ],
      "stateMutability": "nonpayable",
      "type": "function"
    },
    {
      "inputs": [],
      "name": "anchorLimit",
      "outputs": [
        {
          "internalType": "uint256",
          "name": "",
          "type": "uint256"
        }
      ],
      "stateMutability": "view",
      "type": "function"
    },
    {
      "inputs": [
        {
          "internalType": "uint256",
          "name": "",
          "type": "uint256"
        }
      ],
      "name": "arrayAnchors",
      "outputs": [
        {
          "internalType": "address",
          "name": "",
          "type": "address"
        }
      ],
      "stateMutability": "view",
      "type": "function"
    },
    {
      "inputs": [
        {
          "internalType": "uint256",
          "name": "",
          "type": "uint256"
        }
      ],
      "name": "arrayPrices",
      "outputs": [
        {
          "internalType": "uint256",
          "name": "",
          "type": "uint256"
        }
      ],
      "stateMutability": "view",
      "type": "function"
    },
    {
      "inputs": [
        {
          "internalType": "uint256",
          "name": "amount",
          "type": "uint256"
        },
        {
          "internalType": "address",
          "name": "collateralAsset",
          "type": "address"
        },
        {
          "internalType": "address",
          "name": "debtAsset",
          "type": "address"
        }
      ],
      "name": "borrow",
      "outputs": [
        {
          "internalType": "uint256",
          "name": "",
          "type": "uint256"
        }
      ],
      "stateMutability": "nonpayable",
      "type": "function"
    },
    {
      "inputs": [
        {
          "internalType": "address",
          "name": "member",
          "type": "address"
        },
        {
          "internalType": "uint256",
          "name": "amount",
          "type": "uint256"
        },
        {
          "internalType": "address",
          "name": "collateralAsset",
          "type": "address"
        },
        {
          "internalType": "address",
          "name": "debtAsset",
          "type": "address"
        }
      ],
      "name": "borrowForMember",
      "outputs": [
        {
          "internalType": "uint256",
          "name": "",
          "type": "uint256"
        }
      ],
      "stateMutability": "nonpayable",
      "type": "function"
    },
    {
      "inputs": [],
      "name": "checkLiquidate",
      "outputs": [],
      "stateMutability": "nonpayable",
      "type": "function"
    },
    {
      "inputs": [
        {
          "internalType": "address",
          "name": "token",
          "type": "address"
        }
      ],
      "name": "curatePool",
      "outputs": [],
      "stateMutability": "nonpayable",
      "type": "function"
    },
    {
      "inputs": [],
      "name": "curatedPoolCount",
      "outputs": [
        {
          "internalType": "uint256",
          "name": "",
          "type": "uint256"
        }
      ],
      "stateMutability": "view",
      "type": "function"
    },
    {
      "inputs": [],
      "name": "curatedPoolLimit",
      "outputs": [
        {
          "internalType": "uint256",
          "name": "",
          "type": "uint256"
        }
      ],
      "stateMutability": "view",
      "type": "function"
    },
    {
      "inputs": [],
      "name": "emitting",
      "outputs": [
        {
          "internalType": "bool",
          "name": "",
          "type": "bool"
        }
      ],
      "stateMutability": "view",
      "type": "function"
    },
    {
      "inputs": [],
      "name": "getAnchorPrice",
      "outputs": [
        {
          "internalType": "uint256",
          "name": "anchorPrice",
          "type": "uint256"
        }
      ],
      "stateMutability": "view",
      "type": "function"
    },
    {
      "inputs": [
        {
          "internalType": "address",
          "name": "member",
          "type": "address"
        },
        {
          "internalType": "address",
          "name": "base",
          "type": "address"
        },
        {
          "internalType": "address",
          "name": "token",
          "type": "address"
        },
        {
          "internalType": "uint256",
          "name": "basisPoints",
          "type": "uint256"
        }
      ],
      "name": "getILProtection",
      "outputs": [
        {
          "internalType": "uint256",
          "name": "protection",
          "type": "uint256"
        }
      ],
      "stateMutability": "view",
      "type": "function"
    },
    {
      "inputs": [
        {
          "internalType": "address",
          "name": "member",
          "type": "address"
        },
        {
          "internalType": "address",
          "name": "token",
          "type": "address"
        }
      ],
      "name": "getMemberBaseDeposit",
      "outputs": [
        {
          "internalType": "uint256",
          "name": "",
          "type": "uint256"
        }
      ],
      "stateMutability": "view",
      "type": "function"
    },
    {
      "inputs": [
        {
          "internalType": "address",
          "name": "member",
          "type": "address"
        },
        {
          "internalType": "address",
          "name": "collateralAsset",
          "type": "address"
        },
        {
          "internalType": "address",
          "name": "debtAsset",
          "type": "address"
        }
      ],
      "name": "getMemberCollateral",
      "outputs": [
        {
          "internalType": "uint256",
          "name": "",
          "type": "uint256"
        }
      ],
      "stateMutability": "view",
      "type": "function"
    },
    {
      "inputs": [
        {
          "internalType": "address",
          "name": "member",
          "type": "address"
        },
        {
          "internalType": "address",
          "name": "collateralAsset",
          "type": "address"
        },
        {
          "internalType": "address",
          "name": "debtAsset",
          "type": "address"
        }
      ],
      "name": "getMemberDebt",
      "outputs": [
        {
          "internalType": "uint256",
          "name": "",
          "type": "uint256"
        }
      ],
      "stateMutability": "view",
      "type": "function"
    },
    {
      "inputs": [
        {
          "internalType": "address",
          "name": "member",
          "type": "address"
        },
        {
          "internalType": "address",
          "name": "token",
          "type": "address"
        }
      ],
      "name": "getMemberLastDeposit",
      "outputs": [
        {
          "internalType": "uint256",
          "name": "",
          "type": "uint256"
        }
      ],
      "stateMutability": "view",
      "type": "function"
    },
    {
      "inputs": [
        {
          "internalType": "address",
          "name": "member",
          "type": "address"
        },
        {
          "internalType": "address",
          "name": "token",
          "type": "address"
        }
      ],
      "name": "getMemberTokenDeposit",
      "outputs": [
        {
          "internalType": "uint256",
          "name": "",
          "type": "uint256"
        }
      ],
      "stateMutability": "view",
      "type": "function"
    },
    {
      "inputs": [
        {
          "internalType": "address",
          "name": "collateralAsset",
          "type": "address"
        },
        {
          "internalType": "address",
          "name": "debtAsset",
          "type": "address"
        }
      ],
      "name": "getNextEraTime",
      "outputs": [
        {
          "internalType": "uint256",
          "name": "",
          "type": "uint256"
        }
      ],
      "stateMutability": "view",
      "type": "function"
    },
    {
      "inputs": [
        {
          "internalType": "address",
          "name": "collateralAsset",
          "type": "address"
        },
        {
          "internalType": "address",
          "name": "debtAsset",
          "type": "address"
        }
      ],
      "name": "getSystemCollateral",
      "outputs": [
        {
          "internalType": "uint256",
          "name": "",
          "type": "uint256"
        }
      ],
      "stateMutability": "view",
      "type": "function"
    },
    {
      "inputs": [
        {
          "internalType": "address",
          "name": "collateralAsset",
          "type": "address"
        },
        {
          "internalType": "address",
          "name": "debtAsset",
          "type": "address"
        }
      ],
      "name": "getSystemDebt",
      "outputs": [
        {
          "internalType": "uint256",
          "name": "",
          "type": "uint256"
        }
      ],
      "stateMutability": "view",
      "type": "function"
    },
    {
      "inputs": [
        {
          "internalType": "address",
          "name": "collateralAsset",
          "type": "address"
        },
        {
          "internalType": "address",
          "name": "debtAsset",
          "type": "address"
        }
      ],
      "name": "getSystemInterestPaid",
      "outputs": [
        {
          "internalType": "uint256",
          "name": "",
          "type": "uint256"
        }
      ],
      "stateMutability": "view",
      "type": "function"
    },
    {
      "inputs": [
        {
          "internalType": "uint256",
          "name": "vaderAmount",
          "type": "uint256"
        }
      ],
      "name": "getUSDVAmount",
      "outputs": [
        {
          "internalType": "uint256",
          "name": "USDVAmount",
          "type": "uint256"
        }
      ],
      "stateMutability": "view",
      "type": "function"
    },
    {
      "inputs": [
        {
          "internalType": "uint256",
          "name": "USDVAmount",
          "type": "uint256"
        }
      ],
      "name": "getVADERAmount",
      "outputs": [
        {
          "internalType": "uint256",
          "name": "vaderAmount",
          "type": "uint256"
        }
      ],
      "stateMutability": "view",
      "type": "function"
    },
    {
      "inputs": [
        {
          "internalType": "address",
          "name": "_vader",
          "type": "address"
        }
      ],
      "name": "init",
      "outputs": [],
      "stateMutability": "nonpayable",
      "type": "function"
    },
    {
      "inputs": [],
      "name": "insidePriceLimit",
      "outputs": [
        {
          "internalType": "uint256",
          "name": "",
          "type": "uint256"
        }
      ],
      "stateMutability": "view",
      "type": "function"
    },
    {
      "inputs": [
        {
          "internalType": "address",
          "name": "token",
          "type": "address"
        }
      ],
      "name": "isBase",
      "outputs": [
        {
          "internalType": "bool",
          "name": "base",
          "type": "bool"
        }
      ],
      "stateMutability": "view",
      "type": "function"
    },
    {
      "inputs": [
        {
          "internalType": "address",
          "name": "token",
          "type": "address"
        }
      ],
      "name": "isCurated",
      "outputs": [
        {
          "internalType": "bool",
          "name": "",
          "type": "bool"
        }
      ],
      "stateMutability": "view",
      "type": "function"
    },
    {
      "inputs": [
        {
          "internalType": "address",
          "name": "token",
          "type": "address"
        }
      ],
      "name": "isPool",
      "outputs": [
        {
          "internalType": "bool",
          "name": "",
          "type": "bool"
        }
      ],
      "stateMutability": "view",
      "type": "function"
    },
    {
      "inputs": [
        {
          "internalType": "address",
          "name": "token",
          "type": "address"
        }
      ],
      "name": "listAnchor",
      "outputs": [],
      "stateMutability": "nonpayable",
      "type": "function"
    },
    {
      "inputs": [
        {
          "internalType": "address",
          "name": "",
          "type": "address"
        }
      ],
      "name": "mapAnchorAddress_arrayAnchorsIndex1",
      "outputs": [
        {
          "internalType": "uint256",
          "name": "",
          "type": "uint256"
        }
      ],
      "stateMutability": "view",
      "type": "function"
    },
    {
      "inputs": [
        {
          "internalType": "address",
          "name": "",
          "type": "address"
        },
        {
          "internalType": "address",
          "name": "",
          "type": "address"
        }
      ],
      "name": "mapMemberToken_depositBase",
      "outputs": [
        {
          "internalType": "uint256",
          "name": "",
          "type": "uint256"
        }
      ],
      "stateMutability": "view",
      "type": "function"
    },
    {
      "inputs": [
        {
          "internalType": "address",
          "name": "",
          "type": "address"
        },
        {
          "internalType": "address",
          "name": "",
          "type": "address"
        }
      ],
      "name": "mapMemberToken_depositToken",
      "outputs": [
        {
          "internalType": "uint256",
          "name": "",
          "type": "uint256"
        }
      ],
      "stateMutability": "view",
      "type": "function"
    },
    {
      "inputs": [
        {
          "internalType": "address",
          "name": "",
          "type": "address"
        },
        {
          "internalType": "address",
          "name": "",
          "type": "address"
        }
      ],
      "name": "mapMemberToken_lastDeposited",
      "outputs": [
        {
          "internalType": "uint256",
          "name": "",
          "type": "uint256"
        }
      ],
      "stateMutability": "view",
      "type": "function"
    },
    {
      "inputs": [],
      "name": "outsidePriceLimit",
      "outputs": [
        {
          "internalType": "uint256",
          "name": "",
          "type": "uint256"
        }
      ],
      "stateMutability": "view",
      "type": "function"
    },
    {
      "inputs": [
        {
          "internalType": "address",
          "name": "base",
          "type": "address"
        },
        {
          "internalType": "address",
          "name": "token",
          "type": "address"
        },
        {
          "internalType": "uint256",
          "name": "basisPoints",
          "type": "uint256"
        }
      ],
      "name": "removeLiquidity",
      "outputs": [
        {
          "internalType": "uint256",
          "name": "units",
          "type": "uint256"
        },
        {
          "internalType": "uint256",
          "name": "amountBase",
          "type": "uint256"
        },
        {
          "internalType": "uint256",
          "name": "amountToken",
          "type": "uint256"
        }
      ],
      "stateMutability": "nonpayable",
      "type": "function"
    },
    {
      "inputs": [
        {
          "internalType": "uint256",
          "name": "amount",
          "type": "uint256"
        },
        {
          "internalType": "address",
          "name": "collateralAsset",
          "type": "address"
        },
        {
          "internalType": "address",
          "name": "debtAsset",
          "type": "address"
        }
      ],
      "name": "repay",
      "outputs": [
        {
          "internalType": "uint256",
          "name": "",
          "type": "uint256"
        }
      ],
      "stateMutability": "nonpayable",
      "type": "function"
    },
    {
      "inputs": [
        {
          "internalType": "address",
          "name": "member",
          "type": "address"
        },
        {
          "internalType": "uint256",
          "name": "basisPoints",
          "type": "uint256"
        },
        {
          "internalType": "address",
          "name": "collateralAsset",
          "type": "address"
        },
        {
          "internalType": "address",
          "name": "debtAsset",
          "type": "address"
        }
      ],
      "name": "repayForMember",
      "outputs": [
        {
          "internalType": "uint256",
          "name": "",
          "type": "uint256"
        }
      ],
      "stateMutability": "nonpayable",
      "type": "function"
    },
    {
      "inputs": [
        {
          "internalType": "address",
          "name": "oldToken",
          "type": "address"
        },
        {
          "internalType": "address",
          "name": "newToken",
          "type": "address"
        }
      ],
      "name": "replaceAnchor",
      "outputs": [],
      "stateMutability": "nonpayable",
      "type": "function"
    },
    {
      "inputs": [
        {
          "internalType": "address",
          "name": "oldToken",
          "type": "address"
        },
        {
          "internalType": "address",
          "name": "newToken",
          "type": "address"
        }
      ],
      "name": "replacePool",
      "outputs": [],
      "stateMutability": "nonpayable",
      "type": "function"
    },
    {
      "inputs": [],
      "name": "reserveUSDV",
      "outputs": [
        {
          "internalType": "uint256",
          "name": "",
          "type": "uint256"
        }
      ],
      "stateMutability": "view",
      "type": "function"
    },
    {
      "inputs": [],
      "name": "reserveVADER",
      "outputs": [
        {
          "internalType": "uint256",
          "name": "",
          "type": "uint256"
        }
      ],
      "stateMutability": "view",
      "type": "function"
    },
    {
      "inputs": [],
      "name": "rewardReductionFactor",
      "outputs": [
        {
          "internalType": "uint256",
          "name": "",
          "type": "uint256"
        }
      ],
      "stateMutability": "view",
      "type": "function"
    },
    {
      "inputs": [
        {
          "internalType": "uint256",
          "name": "newLimit",
          "type": "uint256"
        },
        {
          "internalType": "uint256",
          "name": "newInside",
          "type": "uint256"
        },
        {
          "internalType": "uint256",
          "name": "newOutside",
          "type": "uint256"
        }
      ],
      "name": "setAnchorParams",
      "outputs": [],
      "stateMutability": "nonpayable",
      "type": "function"
    },
    {
      "inputs": [
        {
          "internalType": "uint256",
          "name": "newFactor",
          "type": "uint256"
        },
        {
          "internalType": "uint256",
          "name": "newTime",
          "type": "uint256"
        },
        {
          "internalType": "uint256",
          "name": "newLimit",
          "type": "uint256"
        }
      ],
      "name": "setParams",
      "outputs": [],
      "stateMutability": "nonpayable",
      "type": "function"
    },
    {
      "inputs": [
        {
          "internalType": "uint256",
          "name": "inputAmount",
          "type": "uint256"
        },
        {
          "internalType": "address",
          "name": "inputToken",
          "type": "address"
        },
        {
          "internalType": "address",
          "name": "outputToken",
          "type": "address"
        }
      ],
      "name": "swap",
      "outputs": [
        {
          "internalType": "uint256",
          "name": "outputAmount",
          "type": "uint256"
        }
      ],
      "stateMutability": "nonpayable",
      "type": "function"
    },
    {
      "inputs": [
        {
          "internalType": "uint256",
          "name": "inputAmount",
          "type": "uint256"
        },
        {
          "internalType": "address",
          "name": "inputToken",
          "type": "address"
        },
        {
          "internalType": "address",
          "name": "outputToken",
          "type": "address"
        },
        {
          "internalType": "uint256",
          "name": "slipLimit",
          "type": "uint256"
        }
      ],
      "name": "swapWithLimit",
      "outputs": [
        {
          "internalType": "uint256",
          "name": "outputAmount",
          "type": "uint256"
        }
      ],
      "stateMutability": "nonpayable",
      "type": "function"
    },
    {
      "inputs": [
        {
          "internalType": "uint256",
          "name": "inputAmount",
          "type": "uint256"
        },
        {
          "internalType": "address",
          "name": "inputToken",
          "type": "address"
        },
        {
          "internalType": "bool",
          "name": "inSynth",
          "type": "bool"
        },
        {
          "internalType": "address",
          "name": "outputToken",
          "type": "address"
        },
        {
          "internalType": "bool",
          "name": "outSynth",
          "type": "bool"
        }
      ],
      "name": "swapWithSynths",
      "outputs": [
        {
          "internalType": "uint256",
          "name": "outputAmount",
          "type": "uint256"
        }
      ],
      "stateMutability": "nonpayable",
      "type": "function"
    },
    {
      "inputs": [
        {
          "internalType": "uint256",
          "name": "inputAmount",
          "type": "uint256"
        },
        {
          "internalType": "address",
          "name": "inputToken",
          "type": "address"
        },
        {
          "internalType": "bool",
          "name": "inSynth",
          "type": "bool"
        },
        {
          "internalType": "address",
          "name": "outputToken",
          "type": "address"
        },
        {
          "internalType": "bool",
          "name": "outSynth",
          "type": "bool"
        },
        {
          "internalType": "uint256",
          "name": "slipLimit",
          "type": "uint256"
        }
      ],
      "name": "swapWithSynthsWithLimit",
      "outputs": [
        {
          "internalType": "uint256",
          "name": "outputAmount",
          "type": "uint256"
        }
      ],
      "stateMutability": "nonpayable",
      "type": "function"
    },
    {
      "inputs": [],
      "name": "timeForFullProtection",
      "outputs": [
        {
          "internalType": "uint256",
          "name": "",
          "type": "uint256"
        }
      ],
      "stateMutability": "view",
      "type": "function"
    },
    {
      "inputs": [
        {
          "internalType": "address",
          "name": "token",
          "type": "address"
        }
      ],
      "name": "updateAnchorPrice",
      "outputs": [],
      "stateMutability": "nonpayable",
      "type": "function"
    }
  ],
  "bytecode": "0x608060405234801561001057600080fd5b5061534e806100206000396000f3fe608060405234801561001057600080fd5b506004361061030c5760003560e01c8063774d70e41161019d578063d8489152116100e9578063e8b8cfa0116100a2578063fcf476861161007c578063fcf47686146107bd578063fdc59b82146107d0578063fde3bbe9146107fb578063ff8b83a6146108445761030c565b8063e8b8cfa01461076c578063e9b6e4481461077f578063f550394e146107925761030c565b8063d8489152146106c3578063de6ad44e146106cc578063e0f52db3146106d4578063e2e1e48f1461070d578063e6048ff814610720578063e672f6ad146107335761030c565b8063c883b2e511610156578063cfa701c511610130578063cfa701c514610636578063d2b433731461066f578063d516418414610682578063d752fab2146106955761030c565b8063c883b2e5146105d7578063cbc17db3146105ea578063cf8bc7151461062d5761030c565b8063774d70e41461052257806382eb72331461054e5780638bc51e361461058757806399a485f514610590578063a9d1c09e146105a3578063ae746f02146105ce5761030c565b806337785d211161025c5780635a0ce6761161021557806362cea340116101ef57806362cea340146104bb5780636a87def5146104c35780636cc06ded146104fc5780636e899aa31461050f5761030c565b80635a0ce676146104825780635a4dd3f2146104955780635b16ebb7146104a85761030c565b806337785d211461041b57806337f3d2d41461042e57806339e68f53146104415780634139f11114610454578063531984381461047457806358b272161461047d5761030c565b80631ab73ef5116102c95780632b7f0923116102a35780632b7f0923146103d95780632e2d0856146103ec5780633494c8e8146103ff578063376d3d5d146104085761030c565b80631ab73ef5146103aa5780631df6acfd146103bd578063273961e6146103d05761030c565b80630168131514610311578063038e5eaa146103415780630781f4d21461035757806317af50e51461036f57806319ab453c146103825780631a60982714610397575b600080fd5b600554610324906001600160a01b031681565b6040516001600160a01b0390911681526020015b60405180910390f35b61034961087d565b604051908152602001610338565b61035f6109f8565b6040519015158152602001610338565b61034961037d366004614f5a565b610a7a565b610395610390366004614cab565b610a9b565b005b6103496103a5366004614fb0565b610ae5565b6103496103b8366004614df5565b610b02565b6103956103cb366004614ce3565b6110c4565b61034960015481565b6103496103e7366004614f8a565b611535565b6103956103fa3660046150d0565b611553565b61034960065481565b610349610416366004614e47565b6115b2565b61034961042936600461503e565b6116ca565b61034961043c366004614ce3565b612151565b61039561044f366004614cab565b61217e565b610349610462366004614cab565b600b6020526000908152604090205481565b61034960025481565b610395565b6103956104903660046150d0565b61234a565b6103496104a3366004614f5a565b6123a9565b61035f6104b6366004614cab565b6123d3565b6103496124e1565b6103496104d1366004614ce3565b6001600160a01b039182166000908152600e6020908152604080832093909416825291909152205490565b61034961050a366004614f5a565b61255b565b61035f61051d366004614cab565b61257b565b61035f610530366004614cab565b6001600160a01b031660009081526004602052604090205460ff1690565b61034961055c366004614ce3565b6001600160a01b03918216600090815260116020908152604080832093909416825291909152205490565b61034960035481565b61034961059e366004614fd7565b6125b8565b6103496105b1366004614ce3565b600e60209081526000928352604080842090915290825290205481565b61034960075481565b6103496105e5366004614f8a565b6125d4565b6103496105f8366004614d1b565b6001600160a01b039283166000908152600f602090815260408083209486168352938152838220929094168152925290205490565b61034960005481565b610349610644366004614ce3565b6001600160a01b039182166000908152600d6020908152604080832093909416825291909152205490565b61039561067d366004614cab565b6125e2565b610349610690366004614f8a565b61279b565b6106a86106a3366004614db5565b6127a9565b60408051938452602084019290925290820152606001610338565b61034960085481565b610349612a17565b6103496106e2366004614ce3565b6001600160a01b03918216600090815260126020908152604080832093909416825291909152205490565b61039561071b366004614cab565b612a59565b61034961072e366004614d65565b612b45565b610349610741366004614ce3565b6001600160a01b03918216600090815260106020908152604080832093909416825291909152205490565b61039561077a366004614ce3565b612c2f565b61034961078d366004614df5565b612e2a565b6103496107a0366004614ce3565b600c60209081526000928352604080842090915290825290205481565b6103246107cb366004614f5a565b61335f565b6103496107de366004614ce3565b600d60209081526000928352604080842090915290825290205481565b610349610809366004614d1b565b6001600160a01b038084166000908152600f602090815260408083208685168452825280832093851683526001909301905220549392505050565b610349610852366004614ce3565b6001600160a01b039182166000908152600c6020908152604080832093909416825291909152205490565b600a54600090819061089190600290615247565b9050600061089d613389565b6001600160a01b031663e379976e600a6040518263ffffffff1660e01b81526004016108c991906151b5565b60006040518083038186803b1580156108e157600080fd5b505afa1580156108f5573d6000803e3d6000fd5b505050506040513d6000823e601f3d908101601f1916820160405261091d9190810190614e7e565b600a5490915061093757670de0b6b3a764000092506109f3565b600a54600190811614156109745780828151811061096557634e487b7160e01b600052603260045260246000fd5b602002602001015192506109f3565b600281610982600185615286565b815181106109a057634e487b7160e01b600052603260045260246000fd5b60200260200101516109b29190615247565b60028284815181106109d457634e487b7160e01b600052603260045260246000fd5b60200260200101516109e69190615247565b6109f0919061522f565b92505b505090565b600554604080516303c0fa6960e11b815290516000926001600160a01b031691630781f4d2916004808301926020929190829003018186803b158015610a3d57600080fd5b505afa158015610a51573d6000803e3d6000fd5b505050506040513d601f19601f82011682018060405250810190610a759190614f3e565b905090565b600a8181548110610a8a57600080fd5b600091825260209091200154905081565b6005546001600160a01b0316610ae257600580546001600160a01b0319166001600160a01b0383161781556001600081905580805560025560065560c86007556101f46008555b50565b6000610af785856000866000876116ca565b90505b949350505050565b6000610b0c613389565b60405163cf975e7b60e01b81526001600160a01b0385811660048301528481166024830152919091169063cf975e7b90604401600060405180830381600087803b158015610b5957600080fd5b505af1158015610b6d573d6000803e3d6000fd5b505050506000610b7e868587613476565b9050600080610b8b613389565b604051635c22141f60e01b81526001600160a01b038a8116600483015260248201869052888116604483015287811660648301529190911690635c22141f906084016040805180830381600087803b158015610be657600080fd5b505af1158015610bfa573d6000803e3d6000fd5b505050506040513d601f19601f82011682018060405250810190610c1e91906150ad565b6001600160a01b038089166000908152601060209081526040808320938b16835292905290812080549395509193508592610c5a90849061522f565b90915550506001600160a01b03808716600090815260116020908152604080832093891683529290529081208054849290610c9690849061522f565b90915550610ca9905088848885896135ac565b6005546001600160a01b0387811691161480610d435750610cc8613643565b604051636c66769560e11b81526001600160a01b038781166004830152919091169063d8cced2a9060240160206040518083038186803b158015610d0b57600080fd5b505afa158015610d1f573d6000803e3d6000fd5b505050506040513d601f19601f82011682018060405250810190610d439190614f3e565b15610e7857610d506136f8565b6005546001600160a01b039182169163a76a50d49116610d6e613643565b846040518463ffffffff1660e01b8152600401610d8d93929190615191565b602060405180830381600087803b158015610da757600080fd5b505af1158015610dbb573d6000803e3d6000fd5b505050506040513d601f19601f82011682018060405250810190610ddf9190614f72565b50610de8613643565b60055460405163efc34aab60e01b81526001600160a01b039283169263efc34aab92610e209291169089908d90600090600401615167565b602060405180830381600087803b158015610e3a57600080fd5b505af1158015610e4e573d6000803e3d6000fd5b505050506040513d601f19601f82011682018060405250810190610e729190614f72565b5061104f565b610e806137ad565b6001600160a01b0316866001600160a01b03161480610f1d5750610ea2613643565b60405163643fd21560e11b81526001600160a01b038781166004830152919091169063c87fa42a9060240160206040518083038186803b158015610ee557600080fd5b505afa158015610ef9573d6000803e3d6000fd5b505050506040513d601f19601f82011682018060405250810190610f1d9190614f3e565b1561104f57610f2a6136f8565b6001600160a01b031663a76a50d4610f406137ad565b610f48613643565b846040518463ffffffff1660e01b8152600401610f6793929190615191565b602060405180830381600087803b158015610f8157600080fd5b505af1158015610f95573d6000803e3d6000fd5b505050506040513d601f19601f82011682018060405250810190610fb99190614f72565b50610fc2613643565b6001600160a01b031663efc34aab610fd86137ad565b878b60006040518563ffffffff1660e01b8152600401610ffb9493929190615167565b602060405180830381600087803b15801561101557600080fd5b505af1158015611029573d6000803e3d6000fd5b505050506040513d601f19601f8201168201806040525081019061104d9190614f72565b505b846001600160a01b0316866001600160a01b0316896001600160a01b03167fae998ad28d77f73e6eb1de185a4d9c3656e19b47125aa0e732ceabecefdd30618a866040516110a7929190918252602082015260400190565b60405180910390a46110b98686613862565b509695505050505050565b816001600160a01b0316816001600160a01b0316141561111f5760405162461bcd60e51b81526020600482015260116024820152704e657720746f6b656e206e6f74206e657760781b60448201526064015b60405180910390fd5b6001600160a01b0382166000908152600b6020526040902054806111795760405162461bcd60e51b815260206004820152601160248201527027379039bab1b41037b632103a37b5b2b760791b6044820152606401611116565b611181613643565b604051636c66769560e11b81526001600160a01b038481166004830152919091169063d8cced2a9060240160206040518083038186803b1580156111c457600080fd5b505afa1580156111d8573d6000803e3d6000fd5b505050506040513d601f19601f820116820180604052508101906111fc9190614f3e565b6112355760405162461bcd60e51b815260206004820152600a6024820152692737ba1030b731b437b960b11b6044820152606401611116565b61123d613643565b60405163b34c8afb60e01b81526001600160a01b038581166004830152919091169063b34c8afb9060240160206040518083038186803b15801561128057600080fd5b505afa158015611294573d6000803e3d6000fd5b505050506040513d601f19601f820116820180604052508101906112b89190614f72565b6112c0613643565b60405163b34c8afb60e01b81526001600160a01b038581166004830152919091169063b34c8afb9060240160206040518083038186803b15801561130357600080fd5b505afa158015611317573d6000803e3d6000fd5b505050506040513d601f19601f8201168201806040525081019061133b9190614f72565b116113755760405162461bcd60e51b815260206004820152600a6024820152692737ba103232b2b832b960b11b6044820152606401611116565b61137d613389565b6001600160a01b031663eb7d5ddf84600854600061139961087d565b6040516001600160e01b031960e087901b1681526001600160a01b039094166004850152602484019290925215156044830152606482015260840160006040518083038186803b1580156113ec57600080fd5b505afa158015611400573d6000803e3d6000fd5b5050505061140c613389565b6001600160a01b031663eb7d5ddf83600754600161142861087d565b6040516001600160e01b031960e087901b1681526001600160a01b039094166004850152602484019290925215156044830152606482015260840160006040518083038186803b15801561147b57600080fd5b505afa15801561148f573d6000803e3d6000fd5b5050506001600160a01b03808516600090815260046020526040808220805460ff1990811690915592861682529020805490911660019081179091558391506009906114db9084615286565b815481106114f957634e487b7160e01b600052603260045260246000fd5b9060005260206000200160006101000a8154816001600160a01b0302191690836001600160a01b0316021790555061153082612a59565b505050565b6000611549848460008560006127106116ca565b90505b9392505050565b61155b613d69565b6001600160a01b0316336001600160a01b0316146115a45760405162461bcd60e51b8152600401611116906020808252600490820152632144414f60e01b604082015260600190565b600692909255600755600855565b60006115bc6136f8565b6001600160a01b031663e1ac7cfe6040518163ffffffff1660e01b8152600401600060405180830381600087803b1580156115f657600080fd5b505af115801561160a573d6000803e3d6000fd5b50505050600061161a8686613dae565b905060006116288585613dae565b9050611636338684846140f6565b61163e613643565b6001600160a01b031663fde3b2658887336040518463ffffffff1660e01b815260040161166d93929190615144565b602060405180830381600087803b15801561168757600080fd5b505af115801561169b573d6000803e3d6000fd5b505050506040513d601f19601f820116820180604052508101906116bf9190614f72565b979650505050505050565b600033856116e2576116dc8789613dae565b50611772565b6117706116ed613643565b604051636e76408b60e11b81526001600160a01b038a81166004830152919091169063dcec811690602401602060405180830381600087803b15801561173257600080fd5b505af1158015611746573d6000803e3d6000fd5b505050506040513d601f19601f8201168201806040525081019061176a9190614cc7565b89613dae565b505b600061177c613643565b604051636c66769560e11b81526001600160a01b038a81166004830152919091169063d8cced2a9060240160206040518083038186803b1580156117bf57600080fd5b505afa1580156117d3573d6000803e3d6000fd5b505050506040513d601f19601f820116820180604052508101906117f79190614f3e565b806118805750611805613643565b604051636c66769560e11b81526001600160a01b038881166004830152919091169063d8cced2a9060240160206040518083038186803b15801561184857600080fd5b505afa15801561185c573d6000803e3d6000fd5b505050506040513d601f19601f820116820180604052508101906118809190614f3e565b1561189757506005546001600160a01b03166118a2565b61189f6137ad565b90505b6118ab8661257b565b15611af357836118b9613389565b6001600160a01b0316632db6e4888b6118d0613643565b60405163e6ae1a9760e01b81526001600160a01b038e81166004830152919091169063e6ae1a979060240160206040518083038186803b15801561191357600080fd5b505afa158015611927573d6000803e3d6000fd5b505050506040513d601f19601f8201168201806040525081019061194b9190614f72565b6040516001600160e01b031960e085901b1681526004810192909252602482015260440160206040518083038186803b15801561198757600080fd5b505afa15801561199b573d6000803e3d6000fd5b505050506040513d601f19601f820116820180604052508101906119bf9190614f72565b11156119ca57600080fd5b86611a62576119d7613643565b6001600160a01b031663efc34aab828a8560016040518563ffffffff1660e01b8152600401611a099493929190615167565b602060405180830381600087803b158015611a2357600080fd5b505af1158015611a37573d6000803e3d6000fd5b505050506040513d601f19601f82011682018060405250810190611a5b9190614f72565b9250611aee565b611a6a613643565b6001600160a01b031663e3adb2f6828a856040518463ffffffff1660e01b8152600401611a9993929190615144565b602060405180830381600087803b158015611ab357600080fd5b505af1158015611ac7573d6000803e3d6000fd5b505050506040513d601f19601f82011682018060405250810190611aeb9190614f72565b92505b61211f565b611afc8861257b565b15611c915783611b0a613389565b6001600160a01b0316632db6e4888b611b21613643565b60405163b34c8afb60e01b81526001600160a01b038c81166004830152919091169063b34c8afb9060240160206040518083038186803b158015611b6457600080fd5b505afa158015611b78573d6000803e3d6000fd5b505050506040513d601f19601f82011682018060405250810190611b9c9190614f72565b6040516001600160e01b031960e085901b1681526004810192909252602482015260440160206040518083038186803b158015611bd857600080fd5b505afa158015611bec573d6000803e3d6000fd5b505050506040513d601f19601f82011682018060405250810190611c109190614f72565b1115611c1b57600080fd5b84611c5a57611c28613643565b6001600160a01b031663efc34aab82888560006040518563ffffffff1660e01b8152600401611a099493929190615167565b611c62613643565b6001600160a01b031663d016347e8288856040518463ffffffff1660e01b8152600401611a9993929190615144565b83611c9a613389565b6001600160a01b0316632db6e4888b611cb1613643565b60405163e6ae1a9760e01b81526001600160a01b038e81166004830152919091169063e6ae1a979060240160206040518083038186803b158015611cf457600080fd5b505afa158015611d08573d6000803e3d6000fd5b505050506040513d601f19601f82011682018060405250810190611d2c9190614f72565b6040516001600160e01b031960e085901b1681526004810192909252602482015260440160206040518083038186803b158015611d6857600080fd5b505afa158015611d7c573d6000803e3d6000fd5b505050506040513d601f19601f82011682018060405250810190611da09190614f72565b1115611dab57600080fd5b600087611e4c57611dba613643565b6001600160a01b031663efc34aab838b611dd2613643565b60016040518563ffffffff1660e01b8152600401611df39493929190615167565b602060405180830381600087803b158015611e0d57600080fd5b505af1158015611e21573d6000803e3d6000fd5b505050506040513d601f19601f82011682018060405250810190611e459190614f72565b9050611edf565b611e54613643565b6001600160a01b031663e3adb2f6838b611e6c613643565b6040518463ffffffff1660e01b8152600401611e8a93929190615144565b602060405180830381600087803b158015611ea457600080fd5b505af1158015611eb8573d6000803e3d6000fd5b505050506040513d601f19601f82011682018060405250810190611edc9190614f72565b90505b84611ee8613389565b6001600160a01b0316632db6e48883611eff613643565b60405163b34c8afb60e01b81526001600160a01b038d81166004830152919091169063b34c8afb9060240160206040518083038186803b158015611f4257600080fd5b505afa158015611f56573d6000803e3d6000fd5b505050506040513d601f19601f82011682018060405250810190611f7a9190614f72565b6040516001600160e01b031960e085901b1681526004810192909252602482015260440160206040518083038186803b158015611fb657600080fd5b505afa158015611fca573d6000803e3d6000fd5b505050506040513d601f19601f82011682018060405250810190611fee9190614f72565b1115611ff957600080fd5b8561209157612006613643565b6001600160a01b031663efc34aab83898660006040518563ffffffff1660e01b81526004016120389493929190615167565b602060405180830381600087803b15801561205257600080fd5b505af1158015612066573d6000803e3d6000fd5b505050506040513d601f19601f8201168201806040525081019061208a9190614f72565b935061211d565b612099613643565b6001600160a01b031663d016347e8389866040518463ffffffff1660e01b81526004016120c893929190615144565b602060405180830381600087803b1580156120e257600080fd5b505af11580156120f6573d6000803e3d6000fd5b505050506040513d601f19601f8201168201806040525081019061211a9190614f72565b93505b505b612129818961419c565b612133818761419c565b61213c88614389565b61214586614389565b50509695505050505050565b6001600160a01b038083166000908152601360209081526040808320938516835292905220545b92915050565b6006546009541061218e57600080fd5b612196613643565b604051636c66769560e11b81526001600160a01b038381166004830152919091169063d8cced2a9060240160206040518083038186803b1580156121d957600080fd5b505afa1580156121ed573d6000803e3d6000fd5b505050506040513d601f19601f820116820180604052508101906122119190614f3e565b61221a57600080fd5b600980546001810182557f6e1540171b6c0c960b71a7020d9f60077f6af931a8bbf590da0223dacf75c7af0180546001600160a01b0319166001600160a01b03841690811790915590546000918252600b602052604090912055600a61227e613389565b60405163db39dc7960e01b81526001600160a01b038481166004830152670de0b6b3a76400006024830152919091169063db39dc799060440160206040518083038186803b1580156122cf57600080fd5b505afa1580156122e3573d6000803e3d6000fd5b505050506040513d601f19601f820116820180604052508101906123079190614f72565b81546001818101845560009384526020808520909201929092556001600160a01b0384168352600490526040909120805460ff19169091179055610ae281612a59565b612352613d69565b6001600160a01b0316336001600160a01b03161461239b5760405162461bcd60e51b8152600401611116906020808252600490820152632144414f60e01b604082015260600190565b600092909255600155600255565b6000806123b461087d565b9050806123c9670de0b6b3a764000085615267565b61154c9190615247565b60006123dd613643565b604051636c66769560e11b81526001600160a01b038481166004830152919091169063d8cced2a9060240160206040518083038186803b15801561242057600080fd5b505afa158015612434573d6000803e3d6000fd5b505050506040513d601f19601f820116820180604052508101906124589190614f3e565b806121785750612466613643565b60405163643fd21560e11b81526001600160a01b038481166004830152919091169063c87fa42a9060240160206040518083038186803b1580156124a957600080fd5b505afa1580156124bd573d6000803e3d6000fd5b505050506040513d601f19601f820116820180604052508101906121789190614f3e565b60006124eb6136f8565b6001600160a01b03166362cea3406040518163ffffffff1660e01b815260040160206040518083038186803b15801561252357600080fd5b505afa158015612537573d6000803e3d6000fd5b505050506040513d601f19601f82011682018060405250810190610a759190614f72565b60008061256661087d565b9050670de0b6b3a76400006123c98483615267565b6005546000906001600160a01b0383811691161480612178575061259d6137ad565b6001600160a01b0316826001600160a01b0316149050919050565b60006125ca86868686866127106116ca565b9695505050505050565b600061154933858585612e2a565b6125ea613643565b60405163643fd21560e11b81526001600160a01b038381166004830152919091169063c87fa42a9060240160206040518083038186803b15801561262d57600080fd5b505afa158015612641573d6000803e3d6000fd5b505050506040513d601f19601f820116820180604052508101906126659190614f3e565b806126ee5750612673613643565b604051636c66769560e11b81526001600160a01b038381166004830152919091169063d8cced2a9060240160206040518083038186803b1580156126b657600080fd5b505afa1580156126ca573d6000803e3d6000fd5b505050506040513d601f19601f820116820180604052508101906126ee9190614f3e565b6126f757600080fd5b6001600160a01b03811660009081526004602052604090205460ff16612762576002546003541015612762576001600160a01b0381166000908152600460205260408120805460ff19166001908117909155600380549192909161275c90849061522f565b90915550505b6040516001600160a01b0382169033907fb2f6cc014bc6265032f32972254d5e024ec51ed94c0aaf2280128336be54a04190600090a350565b600061154933858585610b02565b6000806000806127bb33888888612b45565b90508015612917576127cb6136f8565b6001600160a01b0316636a529026886127e2613643565b846040518463ffffffff1660e01b815260040161280193929190615191565b602060405180830381600087803b15801561281b57600080fd5b505af115801561282f573d6000803e3d6000fd5b505050506040513d601f19601f820116820180604052508101906128539190614f72565b5061285c613643565b6001600160a01b031663fde3b2658888336040518463ffffffff1660e01b815260040161288b93929190615144565b602060405180830381600087803b1580156128a557600080fd5b505af11580156128b9573d6000803e3d6000fd5b505050506040513d601f19601f820116820180604052508101906128dd9190614f72565b50336000908152600c602090815260408083206001600160a01b038a1684529091528120805483929061291190849061522f565b90915550505b61291f613643565b6001600160a01b031663d752fab28888886040518463ffffffff1660e01b815260040161294e93929190615191565b606060405180830381600087803b15801561296857600080fd5b505af115801561297c573d6000803e3d6000fd5b505050506040513d601f19601f820116820180604052508101906129a091906150fb565b919550935091506129b33387878461441a565b6129bb6136f8565b6001600160a01b031663e1ac7cfe6040518163ffffffff1660e01b8152600401600060405180830381600087803b1580156129f557600080fd5b505af1158015612a09573d6000803e3d6000fd5b505050505093509350939050565b6000612a216136f8565b6001600160a01b031663de6ad44e6040518163ffffffff1660e01b815260040160206040518083038186803b15801561252357600080fd5b6001600160a01b0381166000908152600b60205260409020548015612b4157612a80613389565b60405163db39dc7960e01b81526001600160a01b038481166004830152670de0b6b3a76400006024830152919091169063db39dc799060440160206040518083038186803b158015612ad157600080fd5b505afa158015612ae5573d6000803e3d6000fd5b505050506040513d601f19601f82011682018060405250810190612b099190614f72565b600a612b16600184615286565b81548110612b3457634e487b7160e01b600052603260045260246000fd5b6000918252602090912001555b5050565b6000612b4f613389565b600154604051635b0b602d60e01b81526001600160a01b0388811660048301528681166024830152604482018690526064820192909252911690635b0b602d9060840160206040518083038186803b158015612baa57600080fd5b505afa158015612bbe573d6000803e3d6000fd5b505050506040513d601f19601f82011682018060405250810190612be29190614f72565b6005549091506001600160a01b0385811691161415612c1957612c036124e1565b8110612c1457612c116124e1565b90505b610afa565b612c21612a17565b8110610afa57610af7612a17565b612c37613643565b60405163643fd21560e11b81526001600160a01b038381166004830152919091169063c87fa42a9060240160206040518083038186803b158015612c7a57600080fd5b505afa158015612c8e573d6000803e3d6000fd5b505050506040513d601f19601f82011682018060405250810190612cb29190614f3e565b612cbb57600080fd5b612cc3613643565b60405163b34c8afb60e01b81526001600160a01b038481166004830152919091169063b34c8afb9060240160206040518083038186803b158015612d0657600080fd5b505afa158015612d1a573d6000803e3d6000fd5b505050506040513d601f19601f82011682018060405250810190612d3e9190614f72565b612d46613643565b60405163b34c8afb60e01b81526001600160a01b038481166004830152919091169063b34c8afb9060240160206040518083038186803b158015612d8957600080fd5b505afa158015612d9d573d6000803e3d6000fd5b505050506040513d601f19601f82011682018060405250810190612dc19190614f72565b1115612b41576001600160a01b03808316600090815260046020526040808220805460ff1990811690915592841680835281832080549094166001179093555133917fb2f6cc014bc6265032f32972254d5e024ec51ed94c0aaf2280128336be54a04191a35050565b600080612e35613389565b6001600160a01b038781166000908152600f6020908152604080832089851684528252808320888516845290915290205491169063714270ab9087906040516001600160e01b031960e085901b1681526004810192909252602482015260440160206040518083038186803b158015612ead57600080fd5b505afa158015612ec1573d6000803e3d6000fd5b505050506040513d601f19601f82011682018060405250810190612ee59190614f72565b90506000612ef38483613dae565b6005549091506001600160a01b0386811691161480612f905750612f15613643565b604051636c66769560e11b81526001600160a01b038681166004830152919091169063d8cced2a9060240160206040518083038186803b158015612f5857600080fd5b505afa158015612f6c573d6000803e3d6000fd5b505050506040513d601f19601f82011682018060405250810190612f909190614f3e565b1561303557612f9d613643565b6005546001600160a01b039182169163efc34aab911686612fbc6136f8565b60016040518563ffffffff1660e01b8152600401612fdd9493929190615167565b602060405180830381600087803b158015612ff757600080fd5b505af115801561300b573d6000803e3d6000fd5b505050506040513d601f19601f8201168201806040525081019061302f9190614f72565b5061317b565b61303d6137ad565b6001600160a01b0316856001600160a01b031614806130da575061305f613643565b60405163643fd21560e11b81526001600160a01b038681166004830152919091169063c87fa42a9060240160206040518083038186803b1580156130a257600080fd5b505afa1580156130b6573d6000803e3d6000fd5b505050506040513d601f19601f820116820180604052508101906130da9190614f3e565b1561317b576130e7613643565b6001600160a01b031663efc34aab6130fd6137ad565b866131066136f8565b60016040518563ffffffff1660e01b81526004016131279493929190615167565b602060405180830381600087803b15801561314157600080fd5b505af1158015613155573d6000803e3d6000fd5b505050506040513d601f19601f820116820180604052508101906131799190614f72565b505b600080613186613389565b604051633552687b60e21b81526001600160a01b038b811660048301526024820186905289811660448301528881166064830152919091169063d549a1ec90608401604080518083038186803b1580156131df57600080fd5b505afa1580156131f3573d6000803e3d6000fd5b505050506040513d601f19601f8201168201806040525081019061321791906150ad565b6001600160a01b03808a166000908152601060209081526040808320938c16835292905290812080549395509193508492613253908490615286565b90915550506001600160a01b038088166000908152601160209081526040808320938a168352929052908120805485929061328f908490615286565b90915550506001600160a01b038088166000908152601260209081526040808320938a16835292905290812080548392906132cb908490615286565b909155506132de9050898389868a614632565b856001600160a01b0316876001600160a01b03168a6001600160a01b03167f80cf2752eb276900a648b467a8fe8180e3192a2370982e997e928b3dc8b99ba18587604051613336929190918252602082015260400190565b60405180910390a46133498988846146bd565b6133538787613862565b50979650505050505050565b6009818154811061336f57600080fd5b6000918252602090912001546001600160a01b0316905081565b60055460408051634c7d5e9d60e11b815290516000926001600160a01b0316916398fabd3a916004808301926020929190829003018186803b1580156133ce57600080fd5b505afa1580156133e2573d6000803e3d6000fd5b505050506040513d601f19601f820116820180604052508101906134069190614cc7565b6001600160a01b0316637b0e5c456040518163ffffffff1660e01b815260040160206040518083038186803b15801561343e57600080fd5b505afa158015613452573d6000803e3d6000fd5b505050506040513d601f19601f82011682018060405250810190610a759190614cc7565b60006134818361257b565b8061350c575061348f613643565b604051632f011bf560e11b81526001600160a01b0385811660048301529190911690635e0237ea90602401602060405180830381600087803b1580156134d457600080fd5b505af11580156134e8573d6000803e3d6000fd5b505050506040513d601f19601f8201168201806040525081019061350c9190614f3e565b156135225761351b83836147ed565b905061154c565b61352b836123d3565b1561154c57613538613643565b60405163783ba87960e01b8152600481018490526001600160a01b0385811660248301528681166044830152919091169063783ba87990606401600060405180830381600087803b15801561358c57600080fd5b505af11580156135a0573d6000803e3d6000fd5b50939695505050505050565b6001600160a01b038086166000908152600f6020908152604080832087851684528252808320938516835292905290812080548492906135ed90849061522f565b90915550506001600160a01b038086166000908152600f6020908152604080832087851684528252808320938516835260019093019052908120805486929061363790849061522f565b90915550505050505050565b60055460408051634c7d5e9d60e11b815290516000926001600160a01b0316916398fabd3a916004808301926020929190829003018186803b15801561368857600080fd5b505afa15801561369c573d6000803e3d6000fd5b505050506040513d601f19601f820116820180604052508101906136c09190614cc7565b6001600160a01b031663ebccb5b26040518163ffffffff1660e01b815260040160206040518083038186803b15801561343e57600080fd5b60055460408051634c7d5e9d60e11b815290516000926001600160a01b0316916398fabd3a916004808301926020929190829003018186803b15801561373d57600080fd5b505afa158015613751573d6000803e3d6000fd5b505050506040513d601f19601f820116820180604052508101906137759190614cc7565b6001600160a01b0316639d2cc4366040518163ffffffff1660e01b815260040160206040518083038186803b15801561343e57600080fd5b60055460408051634c7d5e9d60e11b815290516000926001600160a01b0316916398fabd3a916004808301926020929190829003018186803b1580156137f257600080fd5b505afa158015613806573d6000803e3d6000fd5b505050506040513d601f19601f8201168201806040525081019061382a9190614cc7565b6001600160a01b031663e2c3b0466040518163ffffffff1660e01b815260040160206040518083038186803b15801561343e57600080fd5b61386c8282612151565b421015801561387e575061387e6109f8565b15612b41576001600160a01b0380831660009081526013602090815260408083209385168352929052908120546138b59042615286565b9050600560009054906101000a90046001600160a01b03166001600160a01b0316636b92a3b66040518163ffffffff1660e01b815260040160206040518083038186803b15801561390557600080fd5b505afa158015613919573d6000803e3d6000fd5b505050506040513d601f19601f8201168201806040525081019061393d9190614f72565b613947904261522f565b6001600160a01b03808516600090815260136020908152604080832093871683529290529081209190915561397a613389565b6001600160a01b031663945821af8585856040518463ffffffff1660e01b81526004016139a993929190615191565b602060405180830381600087803b1580156139c357600080fd5b505af11580156139d7573d6000803e3d6000fd5b505050506040513d601f19601f820116820180604052508101906139fb9190614f72565b6001600160a01b038086166000908152601260209081526040808320938816835292905290812080549293508392909190613a3790849061522f565b90915550613a4890508185856149ba565b613a518461257b565b15613b6057836001600160a01b031663a9059cbb613a6d613643565b6040516001600160e01b031960e084901b1681526001600160a01b03909116600482015260248101849052604401602060405180830381600087803b158015613ab557600080fd5b505af1158015613ac9573d6000803e3d6000fd5b505050506040513d601f19601f82011682018060405250810190613aed9190614f3e565b50613af6613643565b604051633041949b60e01b81526001600160a01b03868116600483015285811660248301529190911690633041949b90604401600060405180830381600087803b158015613b4357600080fd5b505af1158015613b57573d6000803e3d6000fd5b50505050613d63565b613b68613643565b604051632f011bf560e11b81526001600160a01b0386811660048301529190911690635e0237ea90602401602060405180830381600087803b158015613bad57600080fd5b505af1158015613bc1573d6000803e3d6000fd5b505050506040513d601f19601f82011682018060405250810190613be59190614f3e565b15613d6357836001600160a01b031663a9059cbb613c01613643565b6040516001600160e01b031960e084901b1681526001600160a01b03909116600482015260248101849052604401602060405180830381600087803b158015613c4957600080fd5b505af1158015613c5d573d6000803e3d6000fd5b505050506040513d601f19601f82011682018060405250810190613c819190614f3e565b50613c8a613643565b6001600160a01b031663469f5c1e856001600160a01b03166382bfefc86040518163ffffffff1660e01b815260040160206040518083038186803b158015613cd157600080fd5b505afa158015613ce5573d6000803e3d6000fd5b505050506040513d601f19601f82011682018060405250810190613d099190614cc7565b6040516001600160e01b031960e084901b1681526001600160a01b039091166004820152602401600060405180830381600087803b158015613d4a57600080fd5b505af1158015613d5e573d6000803e3d6000fd5b505050505b50505050565b60055460408051634c7d5e9d60e11b815290516000926001600160a01b0316916398fabd3a916004808301926020929190829003018186803b15801561343e57600080fd5b6005546000906001600160a01b0384811691161480613de55750613dd06137ad565b6001600160a01b0316836001600160a01b0316145b80613e705750613df3613643565b604051632f011bf560e11b81526001600160a01b0385811660048301529190911690635e0237ea90602401602060405180830381600087803b158015613e3857600080fd5b505af1158015613e4c573d6000803e3d6000fd5b505050506040513d601f19601f82011682018060405250810190613e709190614f3e565b15613fac57508032331415613f1c57826001600160a01b0316632ccb1b30613e96613643565b6040516001600160e01b031960e084901b1681526001600160a01b03909116600482015260248101859052604401602060405180830381600087803b158015613ede57600080fd5b505af1158015613ef2573d6000803e3d6000fd5b505050506040513d601f19601f82011682018060405250810190613f169190614f3e565b50613fa7565b826001600160a01b03166323b872dd33613f34613643565b856040518463ffffffff1660e01b8152600401613f5393929190615191565b602060405180830381600087803b158015613f6d57600080fd5b505af1158015613f81573d6000803e3d6000fd5b505050506040513d601f19601f82011682018060405250810190613fa59190614f3e565b505b612178565b6000836001600160a01b03166370a08231613fc5613643565b6040516001600160e01b031960e084901b1681526001600160a01b03909116600482015260240160206040518083038186803b15801561400457600080fd5b505afa158015614018573d6000803e3d6000fd5b505050506040513d601f19601f8201168201806040525081019061403c9190614f72565b905061405c3361404a613643565b6001600160a01b0387169190866149fb565b80846001600160a01b03166370a08231614074613643565b6040516001600160e01b031960e084901b1681526001600160a01b0390911660048201526024015b60206040518083038186803b1580156140b457600080fd5b505afa1580156140c8573d6000803e3d6000fd5b505050506040513d601f19601f820116820180604052508101906140ec9190614f72565b610afa9190615286565b6001600160a01b038085166000908152600c602090815260408083209387168352929052908120805484929061412d90849061522f565b90915550506001600160a01b038085166000908152600d602090815260408083209387168352929052908120805483929061416990849061522f565b9091555050506001600160a01b039283166000908152600e60209081526040808320949095168252929092525020429055565b6141a58161257b565b612b415760006141b3613389565b600054604051635a4a8f2560e11b81526001600160a01b038581166004830152602482019290925291169063b4951e4a9060440160206040518083038186803b1580156141ff57600080fd5b505afa158015614213573d6000803e3d6000fd5b505050506040513d601f19601f820116820180604052508101906142379190614f72565b90506142416136f8565b6001600160a01b0316636a52902684614258613643565b846040518463ffffffff1660e01b815260040161427793929190615191565b602060405180830381600087803b15801561429157600080fd5b505af11580156142a5573d6000803e3d6000fd5b505050506040513d601f19601f820116820180604052508101906142c99190614f72565b506142d2613643565b604051633041949b60e01b81526001600160a01b03858116600483015284811660248301529190911690633041949b90604401600060405180830381600087803b15801561431f57600080fd5b505af1158015614333573d6000803e3d6000fd5b50505050816001600160a01b0316836001600160a01b03167f416b0b234ccd4d6d72c4b1a3a09b472a71981d9bbf0f26ab44774e0e3425fad68360405161437c91815260200190565b60405180910390a3505050565b614391613643565b604051636c66769560e11b81526001600160a01b038381166004830152919091169063d8cced2a9060240160206040518083038186803b1580156143d457600080fd5b505afa1580156143e8573d6000803e3d6000fd5b505050506040513d601f19601f8201168201806040525081019061440c9190614f3e565b15610ae257610ae281612a59565b6001600160a01b038085166000908152600c602090815260408083209387168352929052908120805483929061445190849061522f565b9091555060009050614461613389565b6001600160a01b038681166000908152600c6020908152604080832089851684529091529081902054905163714270ab60e01b815260048101879052602481019190915291169063714270ab9060440160206040518083038186803b1580156144c957600080fd5b505afa1580156144dd573d6000803e3d6000fd5b505050506040513d601f19601f820116820180604052508101906145019190614f72565b9050600061450d613389565b6001600160a01b038781166000908152600d602090815260408083208a851684529091529081902054905163714270ab60e01b815260048101889052602481019190915291169063714270ab9060440160206040518083038186803b15801561457557600080fd5b505afa158015614589573d6000803e3d6000fd5b505050506040513d601f19601f820116820180604052508101906145ad9190614f72565b6001600160a01b038088166000908152600c60209081526040808320938a168352929052908120805492935084929091906145e9908490615286565b90915550506001600160a01b038087166000908152600d6020908152604080832093891683529290529081208054839290614625908490615286565b9091555050505050505050565b6001600160a01b038086166000908152600f602090815260408083208785168452825280832093851683529290529081208054849290614673908490615286565b90915550506001600160a01b038086166000908152600f60209081526040808320878516845282528083209385168352600190930190529081208054869290613637908490615286565b6146c68261257b565b8061475157506146d4613643565b604051632f011bf560e11b81526001600160a01b0384811660048301529190911690635e0237ea90602401602060405180830381600087803b15801561471957600080fd5b505af115801561472d573d6000803e3d6000fd5b505050506040513d601f19601f820116820180604052508101906147519190614f3e565b1561476657614761828483614a53565b611530565b61476f826123d3565b156115305761477c613643565b60405163798e23d560e01b8152600481018390526001600160a01b0384811660248301528581166044830152919091169063798e23d590606401600060405180830381600087803b1580156147d057600080fd5b505af11580156147e4573d6000803e3d6000fd5b50505050505050565b6040516370a0823160e01b815230600482015260009081906001600160a01b038516906370a082319060240160206040518083038186803b15801561483157600080fd5b505afa158015614845573d6000803e3d6000fd5b505050506040513d601f19601f820116820180604052508101906148699190614f72565b905032331415614901576040516302ccb1b360e41b8152306004820152602481018490526001600160a01b03851690632ccb1b3090604401602060405180830381600087803b1580156148bb57600080fd5b505af11580156148cf573d6000803e3d6000fd5b505050506040513d601f19601f820116820180604052508101906148f39190614f3e565b6148fc57600080fd5b61498c565b6040516323b872dd60e01b81526001600160a01b038516906323b872dd9061493190339030908890600401615191565b602060405180830381600087803b15801561494b57600080fd5b505af115801561495f573d6000803e3d6000fd5b505050506040513d601f19601f820116820180604052508101906149839190614f3e565b61498c57600080fd5b6040516370a0823160e01b815230600482015281906001600160a01b038616906370a082319060240161409c565b6001600160a01b038083166000908152601060209081526040808320938516835292905290812080548592906149f1908490615286565b9091555050505050565b613d63846323b872dd60e01b858585604051602401614a1c93929190615191565b60408051601f198184030181529190526020810180516001600160e01b03166001600160e01b031990931692909217909152614ade565b60405163a9059cbb60e01b81526001600160a01b0383811660048301526024820183905284169063a9059cbb90604401602060405180830381600087803b158015614a9d57600080fd5b505af1158015614ab1573d6000803e3d6000fd5b505050506040513d601f19601f82011682018060405250810190614ad59190614f3e565b61153057600080fd5b6000614b33826040518060400160405280602081526020017f5361666545524332303a206c6f772d6c6576656c2063616c6c206661696c6564815250856001600160a01b0316614bb09092919063ffffffff16565b8051909150156115305780806020019051810190614b519190614f3e565b6115305760405162461bcd60e51b815260206004820152602a60248201527f5361666545524332303a204552433230206f7065726174696f6e20646964206e6044820152691bdd081cdd58d8d9595960b21b6064820152608401611116565b6060611549848460008585843b614c095760405162461bcd60e51b815260206004820152601d60248201527f416464726573733a2063616c6c20746f206e6f6e2d636f6e74726163740000006044820152606401611116565b600080866001600160a01b03168587604051614c259190615128565b60006040518083038185875af1925050503d8060008114614c62576040519150601f19603f3d011682016040523d82523d6000602084013e614c67565b606091505b50915091506116bf82828660608315614c8157508161154c565b825115614c915782518084602001fd5b8160405162461bcd60e51b815260040161111691906151fc565b600060208284031215614cbc578081fd5b813561154c816152f5565b600060208284031215614cd8578081fd5b815161154c816152f5565b60008060408385031215614cf5578081fd5b8235614d00816152f5565b91506020830135614d10816152f5565b809150509250929050565b600080600060608486031215614d2f578081fd5b8335614d3a816152f5565b92506020840135614d4a816152f5565b91506040840135614d5a816152f5565b809150509250925092565b60008060008060808587031215614d7a578081fd5b8435614d85816152f5565b93506020850135614d95816152f5565b92506040850135614da5816152f5565b9396929550929360600135925050565b600080600060608486031215614dc9578283fd5b8335614dd4816152f5565b92506020840135614de4816152f5565b929592945050506040919091013590565b60008060008060808587031215614e0a578384fd5b8435614e15816152f5565b9350602085013592506040850135614e2c816152f5565b91506060850135614e3c816152f5565b939692955090935050565b60008060008060808587031215614e5c578384fd5b8435614e67816152f5565b9350602085013592506040850135614da5816152f5565b60006020808385031215614e90578182fd5b825167ffffffffffffffff80821115614ea7578384fd5b818501915085601f830112614eba578384fd5b815181811115614ecc57614ecc6152df565b8060051b604051601f19603f83011681018181108582111715614ef157614ef16152df565b604052828152858101935084860182860187018a1015614f0f578788fd5b8795505b83861015614f31578051855260019590950194938601938601614f13565b5098975050505050505050565b600060208284031215614f4f578081fd5b815161154c8161530a565b600060208284031215614f6b578081fd5b5035919050565b600060208284031215614f83578081fd5b5051919050565b600080600060608486031215614f9e578283fd5b833592506020840135614d4a816152f5565b60008060008060808587031215614fc5578182fd5b843593506020850135614d95816152f5565b600080600080600060a08688031215614fee578283fd5b853594506020860135615000816152f5565b935060408601356150108161530a565b92506060860135615020816152f5565b915060808601356150308161530a565b809150509295509295909350565b60008060008060008060c08789031215615056578384fd5b863595506020870135615068816152f5565b945060408701356150788161530a565b93506060870135615088816152f5565b925060808701356150988161530a565b8092505060a087013590509295509295509295565b600080604083850312156150bf578182fd5b505080516020909101519092909150565b6000806000606084860312156150e4578081fd5b505081359360208301359350604090920135919050565b60008060006060848603121561510f578081fd5b8351925060208401519150604084015190509250925092565b6000825161513a81846020870161529d565b9190910192915050565b6001600160a01b0393841681529183166020830152909116604082015260600190565b6001600160a01b039485168152928416602084015292166040820152901515606082015260800190565b6001600160a01b039384168152919092166020820152604081019190915260600190565b6020808252825482820181905260008481528281209092916040850190845b818110156151f0578354835260019384019392850192016151d4565b50909695505050505050565b600060208252825180602084015261521b81604085016020870161529d565b601f01601f19169190910160400192915050565b60008219821115615242576152426152c9565b500190565b60008261526257634e487b7160e01b81526012600452602481fd5b500490565b6000816000190483118215151615615281576152816152c9565b500290565b600082821015615298576152986152c9565b500390565b60005b838110156152b85781810151838201526020016152a0565b83811115613d635750506000910152565b634e487b7160e01b600052601160045260246000fd5b634e487b7160e01b600052604160045260246000fd5b6001600160a01b0381168114610ae257600080fd5b8015158114610ae257600080fdfea26469706673582212204c5bbde94ac4675e6213ca103b513e39b3a31a0356f50de4b7712801906e476e64736f6c63430008030033",
  "linkReferences": {},
  "deployedLinkReferences": {}
}