{
  "_format": "hh-sol-artifact-1",
  "contractName": "Router",
  "sourceName": "contracts/Router.sol",
  "abi": [
    {
      "inputs": [],
      "stateMutability": "nonpayable",
      "type": "constructor"
    },
    {
      "anonymous": false,
      "inputs": [
        {
          "indexed": true,
          "internalType": "address",
          "name": "member",
          "type": "address"
        },
        {
          "indexed": true,
          "internalType": "address",
          "name": "collateralAsset",
          "type": "address"
        },
        {
          "indexed": false,
          "internalType": "uint256",
          "name": "collateralLocked",
          "type": "uint256"
        },
        {
          "indexed": true,
          "internalType": "address",
          "name": "debtAsset",
          "type": "address"
        },
        {
          "indexed": false,
          "internalType": "uint256",
          "name": "debtIssued",
          "type": "uint256"
        }
      ],
      "name": "AddCollateral",
      "type": "event"
    },
    {
      "anonymous": false,
      "inputs": [
        {
          "indexed": true,
          "internalType": "address",
          "name": "curator",
          "type": "address"
        },
        {
          "indexed": true,
          "internalType": "address",
          "name": "token",
          "type": "address"
        }
      ],
      "name": "Curated",
      "type": "event"
    },
    {
      "anonymous": false,
      "inputs": [
        {
          "indexed": true,
          "internalType": "address",
          "name": "base",
          "type": "address"
        },
        {
          "indexed": true,
          "internalType": "address",
          "name": "token",
          "type": "address"
        },
        {
          "indexed": false,
          "internalType": "uint256",
          "name": "amount",
          "type": "uint256"
        }
      ],
      "name": "PoolReward",
      "type": "event"
    },
    {
      "anonymous": false,
      "inputs": [
        {
          "indexed": true,
          "internalType": "address",
          "name": "member",
          "type": "address"
        },
        {
          "indexed": false,
          "internalType": "uint256",
          "name": "amount",
          "type": "uint256"
        }
      ],
      "name": "Protection",
      "type": "event"
    },
    {
      "anonymous": false,
      "inputs": [
        {
          "indexed": true,
          "internalType": "address",
          "name": "member",
          "type": "address"
        },
        {
          "indexed": true,
          "internalType": "address",
          "name": "collateralAsset",
          "type": "address"
        },
        {
          "indexed": false,
          "internalType": "uint256",
          "name": "collateralUnlocked",
          "type": "uint256"
        },
        {
          "indexed": true,
          "internalType": "address",
          "name": "debtAsset",
          "type": "address"
        },
        {
          "indexed": false,
          "internalType": "uint256",
          "name": "debtReturned",
          "type": "uint256"
        }
      ],
      "name": "RemoveCollateral",
      "type": "event"
    },
    {
      "inputs": [],
      "name": "DAO",
      "outputs": [
        {
          "internalType": "address",
          "name": "",
          "type": "address"
        }
      ],
      "stateMutability": "view",
      "type": "function"
    },
    {
      "inputs": [],
      "name": "POOLS",
      "outputs": [
        {
          "internalType": "address",
          "name": "",
          "type": "address"
        }
      ],
      "stateMutability": "view",
      "type": "function"
    },
    {
      "inputs": [],
      "name": "USDV",
      "outputs": [
        {
          "internalType": "address",
          "name": "",
          "type": "address"
        }
      ],
      "stateMutability": "view",
      "type": "function"
    },
    {
      "inputs": [],
      "name": "UTILS",
      "outputs": [
        {
          "internalType": "address",
          "name": "",
          "type": "address"
        }
      ],
      "stateMutability": "view",
      "type": "function"
    },
    {
      "inputs": [],
      "name": "VADER",
      "outputs": [
        {
          "internalType": "address",
          "name": "",
          "type": "address"
        }
      ],
      "stateMutability": "view",
      "type": "function"
    },
    {
      "inputs": [
        {
          "internalType": "address",
          "name": "base",
          "type": "address"
        },
        {
          "internalType": "uint256",
          "name": "inputBase",
          "type": "uint256"
        },
        {
          "internalType": "address",
          "name": "token",
          "type": "address"
        },
        {
          "internalType": "uint256",
          "name": "inputToken",
          "type": "uint256"
        }
      ],
      "name": "addLiquidity",
      "outputs": [
        {
          "internalType": "uint256",
          "name": "",
          "type": "uint256"
        }
      ],
      "stateMutability": "nonpayable",
      "type": "function"
    },
    {
      "inputs": [],
      "name": "anchorLimit",
      "outputs": [
        {
          "internalType": "uint256",
          "name": "",
          "type": "uint256"
        }
      ],
      "stateMutability": "view",
      "type": "function"
    },
    {
      "inputs": [
        {
          "internalType": "uint256",
          "name": "",
          "type": "uint256"
        }
      ],
      "name": "arrayAnchors",
      "outputs": [
        {
          "internalType": "address",
          "name": "",
          "type": "address"
        }
      ],
      "stateMutability": "view",
      "type": "function"
    },
    {
      "inputs": [
        {
          "internalType": "uint256",
          "name": "",
          "type": "uint256"
        }
      ],
      "name": "arrayPrices",
      "outputs": [
        {
          "internalType": "uint256",
          "name": "",
          "type": "uint256"
        }
      ],
      "stateMutability": "view",
      "type": "function"
    },
    {
      "inputs": [
        {
          "internalType": "uint256",
          "name": "amount",
          "type": "uint256"
        },
        {
          "internalType": "address",
          "name": "collateralAsset",
          "type": "address"
        },
        {
          "internalType": "address",
          "name": "debtAsset",
          "type": "address"
        }
      ],
      "name": "borrow",
      "outputs": [
        {
          "internalType": "uint256",
          "name": "",
          "type": "uint256"
        }
      ],
      "stateMutability": "nonpayable",
      "type": "function"
    },
    {
      "inputs": [
        {
          "internalType": "address",
          "name": "member",
          "type": "address"
        },
        {
          "internalType": "uint256",
          "name": "amount",
          "type": "uint256"
        },
        {
          "internalType": "address",
          "name": "collateralAsset",
          "type": "address"
        },
        {
          "internalType": "address",
          "name": "debtAsset",
          "type": "address"
        }
      ],
      "name": "borrowForMember",
      "outputs": [
        {
          "internalType": "uint256",
          "name": "",
          "type": "uint256"
        }
      ],
      "stateMutability": "nonpayable",
      "type": "function"
    },
    {
      "inputs": [],
      "name": "checkLiquidate",
      "outputs": [],
      "stateMutability": "nonpayable",
      "type": "function"
    },
    {
      "inputs": [
        {
          "internalType": "address",
          "name": "token",
          "type": "address"
        }
      ],
      "name": "curatePool",
      "outputs": [],
      "stateMutability": "nonpayable",
      "type": "function"
    },
    {
      "inputs": [],
      "name": "curatedPoolCount",
      "outputs": [
        {
          "internalType": "uint256",
          "name": "",
          "type": "uint256"
        }
      ],
      "stateMutability": "view",
      "type": "function"
    },
    {
      "inputs": [],
      "name": "curatedPoolLimit",
      "outputs": [
        {
          "internalType": "uint256",
          "name": "",
          "type": "uint256"
        }
      ],
      "stateMutability": "view",
      "type": "function"
    },
    {
      "inputs": [],
      "name": "emitting",
      "outputs": [
        {
          "internalType": "bool",
          "name": "",
          "type": "bool"
        }
      ],
      "stateMutability": "view",
      "type": "function"
    },
    {
      "inputs": [],
      "name": "getAnchorPrice",
      "outputs": [
        {
          "internalType": "uint256",
          "name": "anchorPrice",
          "type": "uint256"
        }
      ],
      "stateMutability": "view",
      "type": "function"
    },
    {
      "inputs": [
        {
          "internalType": "address",
          "name": "member",
          "type": "address"
        },
        {
          "internalType": "address",
          "name": "base",
          "type": "address"
        },
        {
          "internalType": "address",
          "name": "token",
          "type": "address"
        },
        {
          "internalType": "uint256",
          "name": "basisPoints",
          "type": "uint256"
        }
      ],
      "name": "getILProtection",
      "outputs": [
        {
          "internalType": "uint256",
          "name": "protection",
          "type": "uint256"
        }
      ],
      "stateMutability": "view",
      "type": "function"
    },
    {
      "inputs": [
        {
          "internalType": "address",
          "name": "member",
          "type": "address"
        },
        {
          "internalType": "address",
          "name": "token",
          "type": "address"
        }
      ],
      "name": "getMemberBaseDeposit",
      "outputs": [
        {
          "internalType": "uint256",
          "name": "",
          "type": "uint256"
        }
      ],
      "stateMutability": "view",
      "type": "function"
    },
    {
      "inputs": [
        {
          "internalType": "address",
          "name": "member",
          "type": "address"
        },
        {
          "internalType": "address",
          "name": "collateralAsset",
          "type": "address"
        },
        {
          "internalType": "address",
          "name": "debtAsset",
          "type": "address"
        }
      ],
      "name": "getMemberCollateral",
      "outputs": [
        {
          "internalType": "uint256",
          "name": "",
          "type": "uint256"
        }
      ],
      "stateMutability": "view",
      "type": "function"
    },
    {
      "inputs": [
        {
          "internalType": "address",
          "name": "member",
          "type": "address"
        },
        {
          "internalType": "address",
          "name": "collateralAsset",
          "type": "address"
        },
        {
          "internalType": "address",
          "name": "debtAsset",
          "type": "address"
        }
      ],
      "name": "getMemberDebt",
      "outputs": [
        {
          "internalType": "uint256",
          "name": "",
          "type": "uint256"
        }
      ],
      "stateMutability": "view",
      "type": "function"
    },
    {
      "inputs": [
        {
          "internalType": "address",
          "name": "member",
          "type": "address"
        },
        {
          "internalType": "address",
          "name": "token",
          "type": "address"
        }
      ],
      "name": "getMemberLastDeposit",
      "outputs": [
        {
          "internalType": "uint256",
          "name": "",
          "type": "uint256"
        }
      ],
      "stateMutability": "view",
      "type": "function"
    },
    {
      "inputs": [
        {
          "internalType": "address",
          "name": "member",
          "type": "address"
        },
        {
          "internalType": "address",
          "name": "token",
          "type": "address"
        }
      ],
      "name": "getMemberTokenDeposit",
      "outputs": [
        {
          "internalType": "uint256",
          "name": "",
          "type": "uint256"
        }
      ],
      "stateMutability": "view",
      "type": "function"
    },
    {
      "inputs": [
        {
          "internalType": "address",
          "name": "collateralAsset",
          "type": "address"
        },
        {
          "internalType": "address",
          "name": "debtAsset",
          "type": "address"
        }
      ],
      "name": "getNextEraTime",
      "outputs": [
        {
          "internalType": "uint256",
          "name": "",
          "type": "uint256"
        }
      ],
      "stateMutability": "view",
      "type": "function"
    },
    {
      "inputs": [
        {
          "internalType": "address",
          "name": "collateralAsset",
          "type": "address"
        },
        {
          "internalType": "address",
          "name": "debtAsset",
          "type": "address"
        }
      ],
      "name": "getSystemCollateral",
      "outputs": [
        {
          "internalType": "uint256",
          "name": "",
          "type": "uint256"
        }
      ],
      "stateMutability": "view",
      "type": "function"
    },
    {
      "inputs": [
        {
          "internalType": "address",
          "name": "collateralAsset",
          "type": "address"
        },
        {
          "internalType": "address",
          "name": "debtAsset",
          "type": "address"
        }
      ],
      "name": "getSystemDebt",
      "outputs": [
        {
          "internalType": "uint256",
          "name": "",
          "type": "uint256"
        }
      ],
      "stateMutability": "view",
      "type": "function"
    },
    {
      "inputs": [
        {
          "internalType": "address",
          "name": "collateralAsset",
          "type": "address"
        },
        {
          "internalType": "address",
          "name": "debtAsset",
          "type": "address"
        }
      ],
      "name": "getSystemInterestPaid",
      "outputs": [
        {
          "internalType": "uint256",
          "name": "",
          "type": "uint256"
        }
      ],
      "stateMutability": "view",
      "type": "function"
    },
    {
      "inputs": [
        {
          "internalType": "uint256",
          "name": "vaderAmount",
          "type": "uint256"
        }
      ],
      "name": "getUSDVAmount",
      "outputs": [
        {
          "internalType": "uint256",
          "name": "USDVAmount",
          "type": "uint256"
        }
      ],
      "stateMutability": "view",
      "type": "function"
    },
    {
      "inputs": [
        {
          "internalType": "uint256",
          "name": "USDVAmount",
          "type": "uint256"
        }
      ],
      "name": "getVADERAmount",
      "outputs": [
        {
          "internalType": "uint256",
          "name": "vaderAmount",
          "type": "uint256"
        }
      ],
      "stateMutability": "view",
      "type": "function"
    },
    {
      "inputs": [
        {
          "internalType": "address",
          "name": "_vader",
          "type": "address"
        },
        {
          "internalType": "address",
          "name": "_usdv",
          "type": "address"
        },
        {
          "internalType": "address",
          "name": "_pool",
          "type": "address"
        }
      ],
      "name": "init",
      "outputs": [],
      "stateMutability": "nonpayable",
      "type": "function"
    },
    {
      "inputs": [],
      "name": "insidePriceLimit",
      "outputs": [
        {
          "internalType": "uint256",
          "name": "",
          "type": "uint256"
        }
      ],
      "stateMutability": "view",
      "type": "function"
    },
    {
      "inputs": [
        {
          "internalType": "address",
          "name": "token",
          "type": "address"
        }
      ],
      "name": "isBase",
      "outputs": [
        {
          "internalType": "bool",
          "name": "base",
          "type": "bool"
        }
      ],
      "stateMutability": "view",
      "type": "function"
    },
    {
      "inputs": [
        {
          "internalType": "address",
          "name": "token",
          "type": "address"
        }
      ],
      "name": "isCurated",
      "outputs": [
        {
          "internalType": "bool",
          "name": "curated",
          "type": "bool"
        }
      ],
      "stateMutability": "view",
      "type": "function"
    },
    {
      "inputs": [
        {
          "internalType": "address",
          "name": "token",
          "type": "address"
        }
      ],
      "name": "isPool",
      "outputs": [
        {
          "internalType": "bool",
          "name": "pool",
          "type": "bool"
        }
      ],
      "stateMutability": "view",
      "type": "function"
    },
    {
      "inputs": [
        {
          "internalType": "address",
          "name": "token",
          "type": "address"
        }
      ],
      "name": "listAnchor",
      "outputs": [],
      "stateMutability": "nonpayable",
      "type": "function"
    },
    {
      "inputs": [
        {
          "internalType": "address",
          "name": "",
          "type": "address"
        },
        {
          "internalType": "address",
          "name": "",
          "type": "address"
        }
      ],
      "name": "mapMemberToken_depositBase",
      "outputs": [
        {
          "internalType": "uint256",
          "name": "",
          "type": "uint256"
        }
      ],
      "stateMutability": "view",
      "type": "function"
    },
    {
      "inputs": [
        {
          "internalType": "address",
          "name": "",
          "type": "address"
        },
        {
          "internalType": "address",
          "name": "",
          "type": "address"
        }
      ],
      "name": "mapMemberToken_depositToken",
      "outputs": [
        {
          "internalType": "uint256",
          "name": "",
          "type": "uint256"
        }
      ],
      "stateMutability": "view",
      "type": "function"
    },
    {
      "inputs": [
        {
          "internalType": "address",
          "name": "",
          "type": "address"
        },
        {
          "internalType": "address",
          "name": "",
          "type": "address"
        }
      ],
      "name": "mapMemberToken_lastDeposited",
      "outputs": [
        {
          "internalType": "uint256",
          "name": "",
          "type": "uint256"
        }
      ],
      "stateMutability": "view",
      "type": "function"
    },
    {
      "inputs": [],
      "name": "outsidePriceLimit",
      "outputs": [
        {
          "internalType": "uint256",
          "name": "",
          "type": "uint256"
        }
      ],
      "stateMutability": "view",
      "type": "function"
    },
    {
      "inputs": [
        {
          "internalType": "address",
          "name": "base",
          "type": "address"
        },
        {
          "internalType": "address",
          "name": "token",
          "type": "address"
        },
        {
          "internalType": "uint256",
          "name": "basisPoints",
          "type": "uint256"
        }
      ],
      "name": "removeLiquidity",
      "outputs": [
        {
          "internalType": "uint256",
          "name": "amountBase",
          "type": "uint256"
        },
        {
          "internalType": "uint256",
          "name": "amountToken",
          "type": "uint256"
        }
      ],
      "stateMutability": "nonpayable",
      "type": "function"
    },
    {
      "inputs": [
        {
          "internalType": "uint256",
          "name": "amount",
          "type": "uint256"
        },
        {
          "internalType": "address",
          "name": "collateralAsset",
          "type": "address"
        },
        {
          "internalType": "address",
          "name": "debtAsset",
          "type": "address"
        }
      ],
      "name": "repay",
      "outputs": [
        {
          "internalType": "uint256",
          "name": "",
          "type": "uint256"
        }
      ],
      "stateMutability": "nonpayable",
      "type": "function"
    },
    {
      "inputs": [],
      "name": "repayDelay",
      "outputs": [
        {
          "internalType": "uint256",
          "name": "",
          "type": "uint256"
        }
      ],
      "stateMutability": "view",
      "type": "function"
    },
    {
      "inputs": [
        {
          "internalType": "address",
          "name": "member",
          "type": "address"
        },
        {
          "internalType": "uint256",
          "name": "basisPoints",
          "type": "uint256"
        },
        {
          "internalType": "address",
          "name": "collateralAsset",
          "type": "address"
        },
        {
          "internalType": "address",
          "name": "debtAsset",
          "type": "address"
        }
      ],
      "name": "repayForMember",
      "outputs": [
        {
          "internalType": "uint256",
          "name": "",
          "type": "uint256"
        }
      ],
      "stateMutability": "nonpayable",
      "type": "function"
    },
    {
      "inputs": [
        {
          "internalType": "address",
          "name": "oldToken",
          "type": "address"
        },
        {
          "internalType": "address",
          "name": "newToken",
          "type": "address"
        }
      ],
      "name": "replaceAnchor",
      "outputs": [],
      "stateMutability": "nonpayable",
      "type": "function"
    },
    {
      "inputs": [
        {
          "internalType": "address",
          "name": "oldToken",
          "type": "address"
        },
        {
          "internalType": "address",
          "name": "newToken",
          "type": "address"
        }
      ],
      "name": "replacePool",
      "outputs": [],
      "stateMutability": "nonpayable",
      "type": "function"
    },
    {
      "inputs": [],
      "name": "reserveUSDV",
      "outputs": [
        {
          "internalType": "uint256",
          "name": "",
          "type": "uint256"
        }
      ],
      "stateMutability": "view",
      "type": "function"
    },
    {
      "inputs": [],
      "name": "reserveVADER",
      "outputs": [
        {
          "internalType": "uint256",
          "name": "",
          "type": "uint256"
        }
      ],
      "stateMutability": "view",
      "type": "function"
    },
    {
      "inputs": [],
      "name": "rewardReductionFactor",
      "outputs": [
        {
          "internalType": "uint256",
          "name": "",
          "type": "uint256"
        }
      ],
      "stateMutability": "view",
      "type": "function"
    },
    {
      "inputs": [
        {
          "internalType": "uint256",
          "name": "newLimit",
          "type": "uint256"
        },
        {
          "internalType": "uint256",
          "name": "newInside",
          "type": "uint256"
        },
        {
          "internalType": "uint256",
          "name": "newOutside",
          "type": "uint256"
        }
      ],
      "name": "setAnchorParams",
      "outputs": [],
      "stateMutability": "nonpayable",
      "type": "function"
    },
    {
      "inputs": [
        {
          "internalType": "uint256",
          "name": "newFactor",
          "type": "uint256"
        },
        {
          "internalType": "uint256",
          "name": "newTime",
          "type": "uint256"
        },
        {
          "internalType": "uint256",
          "name": "newLimit",
          "type": "uint256"
        }
      ],
      "name": "setParams",
      "outputs": [],
      "stateMutability": "nonpayable",
      "type": "function"
    },
    {
      "inputs": [
        {
          "internalType": "uint256",
          "name": "inputAmount",
          "type": "uint256"
        },
        {
          "internalType": "address",
          "name": "inputToken",
          "type": "address"
        },
        {
          "internalType": "address",
          "name": "outputToken",
          "type": "address"
        }
      ],
      "name": "swap",
      "outputs": [
        {
          "internalType": "uint256",
          "name": "outputAmount",
          "type": "uint256"
        }
      ],
      "stateMutability": "nonpayable",
      "type": "function"
    },
    {
      "inputs": [
        {
          "internalType": "uint256",
          "name": "inputAmount",
          "type": "uint256"
        },
        {
          "internalType": "address",
          "name": "inputToken",
          "type": "address"
        },
        {
          "internalType": "address",
          "name": "outputToken",
          "type": "address"
        },
        {
          "internalType": "uint256",
          "name": "slipLimit",
          "type": "uint256"
        }
      ],
      "name": "swapWithLimit",
      "outputs": [
        {
          "internalType": "uint256",
          "name": "outputAmount",
          "type": "uint256"
        }
      ],
      "stateMutability": "nonpayable",
      "type": "function"
    },
    {
      "inputs": [
        {
          "internalType": "uint256",
          "name": "inputAmount",
          "type": "uint256"
        },
        {
          "internalType": "address",
          "name": "inputToken",
          "type": "address"
        },
        {
          "internalType": "bool",
          "name": "inSynth",
          "type": "bool"
        },
        {
          "internalType": "address",
          "name": "outputToken",
          "type": "address"
        },
        {
          "internalType": "bool",
          "name": "outSynth",
          "type": "bool"
        }
      ],
      "name": "swapWithSynths",
      "outputs": [
        {
          "internalType": "uint256",
          "name": "outputAmount",
          "type": "uint256"
        }
      ],
      "stateMutability": "nonpayable",
      "type": "function"
    },
    {
      "inputs": [
        {
          "internalType": "uint256",
          "name": "inputAmount",
          "type": "uint256"
        },
        {
          "internalType": "address",
          "name": "inputToken",
          "type": "address"
        },
        {
          "internalType": "bool",
          "name": "inSynth",
          "type": "bool"
        },
        {
          "internalType": "address",
          "name": "outputToken",
          "type": "address"
        },
        {
          "internalType": "bool",
          "name": "outSynth",
          "type": "bool"
        },
        {
          "internalType": "uint256",
          "name": "slipLimit",
          "type": "uint256"
        }
      ],
      "name": "swapWithSynthsWithLimit",
      "outputs": [
        {
          "internalType": "uint256",
          "name": "outputAmount",
          "type": "uint256"
        }
      ],
      "stateMutability": "nonpayable",
      "type": "function"
    },
    {
      "inputs": [],
      "name": "timeForFullProtection",
      "outputs": [
        {
          "internalType": "uint256",
          "name": "",
          "type": "uint256"
        }
      ],
      "stateMutability": "view",
      "type": "function"
    },
    {
      "inputs": [
        {
          "internalType": "address",
          "name": "token",
          "type": "address"
        }
      ],
      "name": "updateAnchorPrice",
      "outputs": [],
      "stateMutability": "nonpayable",
      "type": "function"
    }
  ],
  "bytecode": "0x6080604052670de0b6b3a7640000600155610e10600f5534801561002257600080fd5b50614b3c806100326000396000f3fe608060405234801561001057600080fd5b50600436106103785760003560e01c806382eb7233116101d3578063de6ad44e11610104578063e9b6e448116100a2578063fcf476861161007c578063fcf47686146107f9578063fdc59b821461080c578063fde3bbe914610837578063ff8b83a61461088357610378565b8063e9b6e448146107a8578063ebccb5b2146107bb578063f550394e146107ce57610378565b8063e2e1e48f116100de578063e2e1e48f14610736578063e6048ff814610749578063e672f6ad1461075c578063e8b8cfa01461079557610378565b8063de6ad44e146106e2578063e0f52db3146106ea578063e2c3b0461461072357610378565b8063cbc17db311610171578063d2b433731161014b578063d2b433731461068b578063d51641841461069e578063d752fab2146106b1578063d8489152146106d957610378565b8063cbc17db314610636578063cf8bc71514610649578063cfa701c51461065257610378565b806399a485f5116101ad57806399a485f5146105dc578063a9d1c09e146105ef578063ae746f021461061a578063c883b2e51461062357610378565b806382eb7233146105925780638bc51e36146105cb57806398fabd3a146105d457610378565b806337f3d2d4116102ad5780635b16ebb71161024b5780636cc06ded116102255780636cc06ded146105515780636e899aa314610564578063774d70e4146105775780637b0e5c451461058a57610378565b80635b16ebb7146104fd57806362cea340146105105780636a87def51461051857610378565b8063531984381161028757806353198438146104c957806358b27216146104d25780635a0ce676146104d75780635a4dd3f2146104ea57610378565b806337f3d2d41461049a57806339e68f53146104ad5780634eb6887a146104c057610378565b80631df6acfd1161031a5780632e2d0856116102f45780632e2d0856146104585780633494c8e81461046b578063376d3d5d1461047457806337785d211461048757610378565b80631df6acfd14610429578063273961e61461043c5780632b7f09231461044557610378565b806317af50e51161035657806317af50e5146103db578063184b9559146103ee5780631a609827146104035780631ab73ef51461041657610378565b8063016813151461037d578063038e5eaa146103ad5780630781f4d2146103c3575b600080fd5b600754610390906001600160a01b031681565b6040516001600160a01b0390911681526020015b60405180910390f35b6103b56108bc565b6040519081526020016103a4565b6103cb61098c565b60405190151581526020016103a4565b6103b56103e93660046147bc565b610a0e565b6104016103fc36600461457d565b610a2f565b005b6103b5610411366004614812565b610add565b6103b5610424366004614657565b610afa565b610401610437366004614545565b61107c565b6103b560035481565b6103b56104533660046147ec565b61147d565b610401610466366004614932565b61149b565b6103b5600a5481565b6103b56104823660046146a9565b6114fb565b6103b56104953660046148a0565b6115b5565b6103b56104a8366004614545565b611f9f565b6104016104bb36600461450d565b611fcc565b6103b5600f5481565b6103b560045481565b610401565b6104016104e5366004614932565b61217c565b6103b56104f83660046147bc565b6121dc565b6103cb61050b36600461450d565b61220b565b6103b5612319565b6103b5610526366004614545565b6001600160a01b03918216600090815260126020908152604080832093909416825291909152205490565b6103b561055f3660046147bc565b612396565b6103cb61057236600461450d565b6123b1565b6103cb61058536600461450d565b6123ea565b610390612413565b6103b56105a0366004614545565b6001600160a01b03918216600090815260156020908152604080832093909416825291909152205490565b6103b560055481565b610390612490565b6103b56105ea366004614839565b6124d5565b6103b56105fd366004614545565b601260209081526000928352604080842090915290825290205481565b6103b5600b5481565b6103b56106313660046147ec565b6124f1565b6103b561064436600461457d565b6124ff565b6103b560025481565b6103b5610660366004614545565b6001600160a01b03918216600090815260116020908152604080832093909416825291909152205490565b61040161069936600461450d565b61253b565b6103b56106ac3660046147ec565b6126d5565b6106c46106bf366004614617565b6126e3565b604080519283526020830191909152016103a4565b6103b5600c5481565b6103b5612818565b6103b56106f8366004614545565b6001600160a01b03918216600090815260166020908152604080832093909416825291909152205490565b600854610390906001600160a01b031681565b61040161074436600461450d565b612849565b6103b56107573660046145c7565b61299d565b6103b561076a366004614545565b6001600160a01b03918216600090815260146020908152604080832093909416825291909152205490565b6104016107a3366004614545565b612a87565b6103b56107b6366004614657565b612c70565b600954610390906001600160a01b031681565b6103b56107dc366004614545565b601060209081526000928352604080842090915290825290205481565b6103906108073660046147bc565b613152565b6103b561081a366004614545565b601160209081526000928352604080842090915290825290205481565b6103b561084536600461457d565b6001600160a01b0380841660009081526013602090815260408083208685168452600101825280832093851683526002909301905220549392505050565b6103b5610891366004614545565b6001600160a01b03918216600090815260106020908152604080832093909416825291909152205490565b600e54600090156109845760006108d1612413565b6001600160a01b031663e379976e600e6040518263ffffffff1660e01b81526004016108fd91906149e7565b60006040518083038186803b15801561091557600080fd5b505afa158015610929573d6000803e3d6000fd5b505050506040513d6000823e601f3d908101601f1916820160405261095191908101906146e0565b90508060028151811061097457634e487b7160e01b600052603260045260246000fd5b6020026020010151915050610989565b506001545b90565b600754604080516303c0fa6960e11b815290516000926001600160a01b031691630781f4d2916004808301926020929190829003018186803b1580156109d157600080fd5b505afa1580156109e5573d6000803e3d6000fd5b505050506040513d601f19601f82011682018060405250810190610a0991906147a0565b905090565b600e8181548110610a1e57600080fd5b600091825260209091200154905081565b60005460ff1615610a705760405162461bcd60e51b81526020600482015260066024820152651a5b9a5d195960d21b60448201526064015b60405180910390fd5b60008054600160ff199091168117909155600780546001600160a01b03199081166001600160a01b0396871617909155600880548216948616949094179093556009805490931691909316179055600281905560038190556004556005600a5560c8600b556101f4600c55565b6000610aef85856000866000876115b5565b90505b949350505050565b6000610b04612413565b60405163cf975e7b60e01b81526001600160a01b0385811660048301528481166024830152919091169063cf975e7b90604401600060405180830381600087803b158015610b5157600080fd5b505af1158015610b65573d6000803e3d6000fd5b505050506000610b7686858761317c565b9050600080610b83612413565b604051635c22141f60e01b81526001600160a01b038a8116600483015260248201869052888116604483015287811660648301529190911690635c22141f906084016040805180830381600087803b158015610bde57600080fd5b505af1158015610bf2573d6000803e3d6000fd5b505050506040513d601f19601f82011682018060405250810190610c16919061490f565b6001600160a01b038089166000908152601460209081526040808320938b16835292905290812080549395509193508592610c52908490614a2e565b90915550506001600160a01b03808716600090815260156020908152604080832093891683529290529081208054849290610c8e908490614a2e565b90915550610ca1905088848885896132a6565b6007546001600160a01b0387811691161480610d355750600954604051636c66769560e11b81526001600160a01b0387811660048301529091169063d8cced2a9060240160206040518083038186803b158015610cfd57600080fd5b505afa158015610d11573d6000803e3d6000fd5b505050506040513d601f19601f82011682018060405250810190610d3591906147a0565b15610e565760075460095460405163a9059cbb60e01b81526001600160a01b039283169263a9059cbb92610d709291169085906004016149ce565b602060405180830381600087803b158015610d8a57600080fd5b505af1158015610d9e573d6000803e3d6000fd5b505050506040513d601f19601f82011682018060405250810190610dc291906147a0565b5060095460075460405163efc34aab60e01b81526001600160a01b039283169263efc34aab92610dfe9291169089908d90600090600401614980565b602060405180830381600087803b158015610e1857600080fd5b505af1158015610e2c573d6000803e3d6000fd5b505050506040513d601f19601f82011682018060405250810190610e5091906147d4565b50611007565b6008546001600160a01b0387811691161480610eea575060095460405163643fd21560e11b81526001600160a01b0387811660048301529091169063c87fa42a9060240160206040518083038186803b158015610eb257600080fd5b505afa158015610ec6573d6000803e3d6000fd5b505050506040513d601f19601f82011682018060405250810190610eea91906147a0565b156110075760085460095460405163a9059cbb60e01b81526001600160a01b039283169263a9059cbb92610f259291169085906004016149ce565b602060405180830381600087803b158015610f3f57600080fd5b505af1158015610f53573d6000803e3d6000fd5b505050506040513d601f19601f82011682018060405250810190610f7791906147a0565b5060095460085460405163efc34aab60e01b81526001600160a01b039283169263efc34aab92610fb39291169089908d90600090600401614980565b602060405180830381600087803b158015610fcd57600080fd5b505af1158015610fe1573d6000803e3d6000fd5b505050506040513d601f19601f8201168201806040525081019061100591906147d4565b505b846001600160a01b0316866001600160a01b0316896001600160a01b03167fae998ad28d77f73e6eb1de185a4d9c3656e19b47125aa0e732ceabecefdd30618a8660405161105f929190918252602082015260400190565b60405180910390a46110718686613348565b509695505050505050565b600954604051636c66769560e11b81526001600160a01b0383811660048301529091169063d8cced2a9060240160206040518083038186803b1580156110c157600080fd5b505afa1580156110d5573d6000803e3d6000fd5b505050506040513d601f19601f820116820180604052508101906110f991906147a0565b6111325760405162461bcd60e51b815260206004820152600a6024820152692737ba1030b731b437b960b11b6044820152606401610a67565b60095460405163b34c8afb60e01b81526001600160a01b0384811660048301529091169063b34c8afb9060240160206040518083038186803b15801561117757600080fd5b505afa15801561118b573d6000803e3d6000fd5b505050506040513d601f19601f820116820180604052508101906111af91906147d4565b60095460405163b34c8afb60e01b81526001600160a01b0384811660048301529091169063b34c8afb9060240160206040518083038186803b1580156111f457600080fd5b505afa158015611208573d6000803e3d6000fd5b505050506040513d601f19601f8201168201806040525081019061122c91906147d4565b116112665760405162461bcd60e51b815260206004820152600a6024820152692737ba103232b2b832b960b11b6044820152606401610a67565b61126e612413565b6001600160a01b031663eb7d5ddf83600c54600061128a6108bc565b6040516001600160e01b031960e087901b1681526001600160a01b039094166004850152602484019290925215156044830152606482015260840160006040518083038186803b1580156112dd57600080fd5b505afa1580156112f1573d6000803e3d6000fd5b505050506112fd612413565b6001600160a01b031663eb7d5ddf82600b5460016113196108bc565b6040516001600160e01b031960e087901b1681526001600160a01b039094166004850152602484019290925215156044830152606482015260840160006040518083038186803b15801561136c57600080fd5b505afa158015611380573d6000803e3d6000fd5b505050506001600160a01b03828116600090815260066020526040808220805460ff199081169091559284168252812080549092166001179091555b600d5481101561146f57826001600160a01b0316600d82815481106113f157634e487b7160e01b600052603260045260246000fd5b6000918252602090912001546001600160a01b0316141561145d5781600d828154811061142e57634e487b7160e01b600052603260045260246000fd5b9060005260206000200160006101000a8154816001600160a01b0302191690836001600160a01b031602179055505b8061146781614a9c565b9150506113bc565b5061147981612849565b5050565b6000611491848460008560006127106115b5565b90505b9392505050565b6114a3612490565b6001600160a01b0316336001600160a01b0316146114ed5760405162461bcd60e51b81526020600482015260076024820152664e6f742044414f60c81b6044820152606401610a67565b600a92909255600b55600c55565b600080611508868661382f565b90506000611516858561382f565b905061152433868484613b9b565b60095460405163fde3b26560e01b81526001600160a01b039091169063fde3b26590611558908a908990339060040161495d565b602060405180830381600087803b15801561157257600080fd5b505af1158015611586573d6000803e3d6000fd5b505050506040513d601f19601f820116820180604052508101906115aa91906147d4565b979650505050505050565b600033856115cd576115c7878961382f565b50611656565b600954604051636e76408b60e11b81526001600160a01b03898116600483015261165492169063dcec811690602401602060405180830381600087803b15801561161657600080fd5b505af115801561162a573d6000803e3d6000fd5b505050506040513d601f19601f8201168201806040525081019061164e9190614529565b8961382f565b505b600954604051636c66769560e11b81526001600160a01b038981166004830152600092169063d8cced2a9060240160206040518083038186803b15801561169c57600080fd5b505afa1580156116b0573d6000803e3d6000fd5b505050506040513d601f19601f820116820180604052508101906116d491906147a0565b806117575750600954604051636c66769560e11b81526001600160a01b0388811660048301529091169063d8cced2a9060240160206040518083038186803b15801561171f57600080fd5b505afa158015611733573d6000803e3d6000fd5b505050506040513d601f19601f8201168201806040525081019061175791906147a0565b1561176e57506007546001600160a01b031661177c565b506008546001600160a01b03165b611785866123b1565b156119bd5783611793612413565b60095460405163e6ae1a9760e01b81526001600160a01b038c8116600483015292831692632db6e488928e9291169063e6ae1a979060240160206040518083038186803b1580156117e357600080fd5b505afa1580156117f7573d6000803e3d6000fd5b505050506040513d601f19601f8201168201806040525081019061181b91906147d4565b6040516001600160e01b031960e085901b1681526004810192909252602482015260440160206040518083038186803b15801561185757600080fd5b505afa15801561186b573d6000803e3d6000fd5b505050506040513d601f19601f8201168201806040525081019061188f91906147d4565b111561189a57600080fd5b8661192f5760095460405163efc34aab60e01b81526001600160a01b039091169063efc34aab906118d69084908c908790600190600401614980565b602060405180830381600087803b1580156118f057600080fd5b505af1158015611904573d6000803e3d6000fd5b505050506040513d601f19601f8201168201806040525081019061192891906147d4565b92506119b8565b6009546040516371d6d97b60e11b81526001600160a01b039091169063e3adb2f6906119639084908c90879060040161495d565b602060405180830381600087803b15801561197d57600080fd5b505af1158015611991573d6000803e3d6000fd5b505050506040513d601f19601f820116820180604052508101906119b591906147d4565b92505b611f6d565b6119c6886123b1565b15611b4b57836119d4612413565b60095460405163b34c8afb60e01b81526001600160a01b038a8116600483015292831692632db6e488928e9291169063b34c8afb9060240160206040518083038186803b158015611a2457600080fd5b505afa158015611a38573d6000803e3d6000fd5b505050506040513d601f19601f82011682018060405250810190611a5c91906147d4565b6040516001600160e01b031960e085901b1681526004810192909252602482015260440160206040518083038186803b158015611a9857600080fd5b505afa158015611aac573d6000803e3d6000fd5b505050506040513d601f19601f82011682018060405250810190611ad091906147d4565b1115611adb57600080fd5b84611b175760095460405163efc34aab60e01b81526001600160a01b039091169063efc34aab906118d69084908a908790600090600401614980565b60095460405163680b1a3f60e11b81526001600160a01b039091169063d016347e906119639084908a90879060040161495d565b611b54886123b1565b158015611b675750611b65866123b1565b155b15611f6d5783611b75612413565b60095460405163e6ae1a9760e01b81526001600160a01b038c8116600483015292831692632db6e488928e9291169063e6ae1a979060240160206040518083038186803b158015611bc557600080fd5b505afa158015611bd9573d6000803e3d6000fd5b505050506040513d601f19601f82011682018060405250810190611bfd91906147d4565b6040516001600160e01b031960e085901b1681526004810192909252602482015260440160206040518083038186803b158015611c3957600080fd5b505afa158015611c4d573d6000803e3d6000fd5b505050506040513d601f19601f82011682018060405250810190611c7191906147d4565b1115611c7c57600080fd5b86611d105760095460405163efc34aab60e01b81526001600160a01b039091169063efc34aab90611cb89084908c908590600190600401614980565b602060405180830381600087803b158015611cd257600080fd5b505af1158015611ce6573d6000803e3d6000fd5b505050506040513d601f19601f82011682018060405250810190611d0a91906147d4565b50611d98565b6009546040516371d6d97b60e11b81526001600160a01b039091169063e3adb2f690611d449084908c90859060040161495d565b602060405180830381600087803b158015611d5e57600080fd5b505af1158015611d72573d6000803e3d6000fd5b505050506040513d601f19601f82011682018060405250810190611d9691906147d4565b505b83611da1612413565b60095460405163b34c8afb60e01b81526001600160a01b038a8116600483015292831692632db6e488928e9291169063b34c8afb9060240160206040518083038186803b158015611df157600080fd5b505afa158015611e05573d6000803e3d6000fd5b505050506040513d601f19601f82011682018060405250810190611e2991906147d4565b6040516001600160e01b031960e085901b1681526004810192909252602482015260440160206040518083038186803b158015611e6557600080fd5b505afa158015611e79573d6000803e3d6000fd5b505050506040513d601f19601f82011682018060405250810190611e9d91906147d4565b1115611ea857600080fd5b84611ee45760095460405163efc34aab60e01b81526001600160a01b039091169063efc34aab906119639084908a908790600090600401614980565b60095460405163680b1a3f60e11b81526001600160a01b039091169063d016347e90611f189084908a90879060040161495d565b602060405180830381600087803b158015611f3257600080fd5b505af1158015611f46573d6000803e3d6000fd5b505050506040513d601f19601f82011682018060405250810190611f6a91906147d4565b92505b611f778189613c41565b611f818187613c41565b611f8a88613e18565b611f9386613e18565b50509695505050505050565b6001600160a01b038083166000908152601760209081526040808320938516835292905220545b92915050565b600a54600d5410611fdc57600080fd5b600954604051636c66769560e11b81526001600160a01b0383811660048301529091169063d8cced2a9060240160206040518083038186803b15801561202157600080fd5b505afa158015612035573d6000803e3d6000fd5b505050506040513d601f19601f8201168201806040525081019061205991906147a0565b61206257600080fd5b600d80546001810182556000919091527fd7b6990105719101dabeb77144f2a3385c8033acd3af97e9423a695e81ad1eb50180546001600160a01b0319166001600160a01b038316179055600e6120b7612413565b6001600160a01b031663db39dc79836001546040518363ffffffff1660e01b81526004016120e69291906149ce565b60206040518083038186803b1580156120fe57600080fd5b505afa158015612112573d6000803e3d6000fd5b505050506040513d601f19601f8201168201806040525081019061213691906147d4565b81546001818101845560009384526020808520909201929092556001600160a01b0384168352600690526040909120805460ff1916909117905561217981612849565b50565b612184612490565b6001600160a01b0316336001600160a01b0316146121ce5760405162461bcd60e51b81526020600482015260076024820152664e6f742044414f60c81b6044820152606401610a67565b600292909255600355600455565b6000806121e76108bc565b905080600154846121f89190614a66565b6122029190614a46565b9150505b919050565b600954604051636c66769560e11b81526001600160a01b038381166004830152600092169063d8cced2a9060240160206040518083038186803b15801561225157600080fd5b505afa158015612265573d6000803e3d6000fd5b505050506040513d601f19601f8201168201806040525081019061228991906147a0565b8061230c575060095460405163643fd21560e11b81526001600160a01b0384811660048301529091169063c87fa42a9060240160206040518083038186803b1580156122d457600080fd5b505afa1580156122e8573d6000803e3d6000fd5b505050506040513d601f19601f8201168201806040525081019061230c91906147a0565b1561220657506001919050565b6007546040516370a0823160e01b81523060048201526000916001600160a01b0316906370a08231906024015b60206040518083038186803b15801561235e57600080fd5b505afa158015612372573d6000803e3d6000fd5b505050506040513d601f19601f82011682018060405250810190610a0991906147d4565b6000806123a16108bc565b6001549091506121f88483614a66565b6007546000906001600160a01b03838116911614806123dd57506008546001600160a01b038381169116145b1561220657506001612206565b6001600160a01b03811660009081526006602052604081205460ff161561220657506001919050565b60075460408051637b0e5c4560e01b815290516000926001600160a01b031691637b0e5c45916004808301926020929190829003018186803b15801561245857600080fd5b505afa15801561246c573d6000803e3d6000fd5b505050506040513d601f19601f82011682018060405250810190610a099190614529565b60075460408051634c7d5e9d60e11b815290516000926001600160a01b0316916398fabd3a916004808301926020929190829003018186803b15801561245857600080fd5b60006124e786868686866127106115b5565b9695505050505050565b600061149133858585612c70565b6001600160a01b039283166000908152601360209081526040808320948616835260019485018252808320939095168252919092019052205490565b60095460405163643fd21560e11b81526001600160a01b0383811660048301529091169063c87fa42a9060240160206040518083038186803b15801561258057600080fd5b505afa158015612594573d6000803e3d6000fd5b505050506040513d601f19601f820116820180604052508101906125b891906147a0565b8061263b5750600954604051636c66769560e11b81526001600160a01b0383811660048301529091169063d8cced2a9060240160206040518083038186803b15801561260357600080fd5b505afa158015612617573d6000803e3d6000fd5b505050506040513d601f19601f8201168201806040525081019061263b91906147a0565b61264457600080fd5b61264d816123ea565b61269c57600454600554101561269c576001600160a01b0381166000908152600660205260408120805460ff191660019081179091556005805491929091612696908490614a2e565b90915550505b6040516001600160a01b0382169033907fb2f6cc014bc6265032f32972254d5e024ec51ed94c0aaf2280128336be54a04190600090a350565b600061149133858585610afa565b600954604051636ba97d5960e11b815260009182916001600160a01b039091169063d752fab29061271c908890889088906004016149aa565b6040805180830381600087803b15801561273557600080fd5b505af1158015612749573d6000803e3d6000fd5b505050506040513d601f19601f8201168201806040525081019061276d919061490f565b909250905060006127803387878761299d565b905061278e33868684613ea3565b60405163a9059cbb60e01b81526001600160a01b0387169063a9059cbb906127bc90339085906004016149ce565b602060405180830381600087803b1580156127d657600080fd5b505af11580156127ea573d6000803e3d6000fd5b505050506040513d601f19601f8201168201806040525081019061280e91906147a0565b5050935093915050565b6008546040516370a0823160e01b81523060048201526000916001600160a01b0316906370a0823190602401612346565b60005b600d5481101561147957816001600160a01b0316600d828154811061288157634e487b7160e01b600052603260045260246000fd5b6000918252602090912001546001600160a01b0316141561298b576128a4612413565b6001600160a01b031663db39dc79600d83815481106128d357634e487b7160e01b600052603260045260246000fd5b6000918252602090912001546001546040516001600160e01b031960e085901b16815261290d926001600160a01b031691906004016149ce565b60206040518083038186803b15801561292557600080fd5b505afa158015612939573d6000803e3d6000fd5b505050506040513d601f19601f8201168201806040525081019061295d91906147d4565b600e828154811061297e57634e487b7160e01b600052603260045260246000fd5b6000918252602090912001555b8061299581614a9c565b91505061284c565b60006129a7612413565b600354604051635b0b602d60e01b81526001600160a01b0388811660048301528681166024830152604482018690526064820192909252911690635b0b602d9060840160206040518083038186803b158015612a0257600080fd5b505afa158015612a16573d6000803e3d6000fd5b505050506040513d601f19601f82011682018060405250810190612a3a91906147d4565b6007549091506001600160a01b0385811691161415612a7157612a5b612319565b8110612a6c57612a69612319565b90505b610af2565b612a79612818565b8110610af257610aef612818565b60095460405163643fd21560e11b81526001600160a01b0383811660048301529091169063c87fa42a9060240160206040518083038186803b158015612acc57600080fd5b505afa158015612ae0573d6000803e3d6000fd5b505050506040513d601f19601f82011682018060405250810190612b0491906147a0565b612b0d57600080fd5b60095460405163b34c8afb60e01b81526001600160a01b0384811660048301529091169063b34c8afb9060240160206040518083038186803b158015612b5257600080fd5b505afa158015612b66573d6000803e3d6000fd5b505050506040513d601f19601f82011682018060405250810190612b8a91906147d4565b60095460405163b34c8afb60e01b81526001600160a01b0384811660048301529091169063b34c8afb9060240160206040518083038186803b158015612bcf57600080fd5b505afa158015612be3573d6000803e3d6000fd5b505050506040513d601f19601f82011682018060405250810190612c0791906147d4565b1115611479576001600160a01b03808316600090815260066020526040808220805460ff1990811690915592841680835281832080549094166001179093555133917fb2f6cc014bc6265032f32972254d5e024ec51ed94c0aaf2280128336be54a04191a35050565b600080612c7b612413565b6001600160a01b031663714270ab86612c958988886124ff565b6040516001600160e01b031960e085901b1681526004810192909252602482015260440160206040518083038186803b158015612cd157600080fd5b505afa158015612ce5573d6000803e3d6000fd5b505050506040513d601f19601f82011682018060405250810190612d0991906147d4565b90506000612d17848361382f565b6007549091506001600160a01b0386811691161480612dae5750600954604051636c66769560e11b81526001600160a01b0386811660048301529091169063d8cced2a9060240160206040518083038186803b158015612d7657600080fd5b505afa158015612d8a573d6000803e3d6000fd5b505050506040513d601f19601f82011682018060405250810190612dae91906147a0565b15612e465760095460075460405163efc34aab60e01b81526001600160a01b039283169263efc34aab92612dee9291169088903090600190600401614980565b602060405180830381600087803b158015612e0857600080fd5b505af1158015612e1c573d6000803e3d6000fd5b505050506040513d601f19601f82011682018060405250810190612e4091906147d4565b50612f6e565b6008546001600160a01b0386811691161480612eda575060095460405163643fd21560e11b81526001600160a01b0386811660048301529091169063c87fa42a9060240160206040518083038186803b158015612ea257600080fd5b505afa158015612eb6573d6000803e3d6000fd5b505050506040513d601f19601f82011682018060405250810190612eda91906147a0565b15612f6e5760095460085460405163efc34aab60e01b81526001600160a01b039283169263efc34aab92612f1a9291169088903090600190600401614980565b602060405180830381600087803b158015612f3457600080fd5b505af1158015612f48573d6000803e3d6000fd5b505050506040513d601f19601f82011682018060405250810190612f6c91906147d4565b505b600080612f79612413565b604051633552687b60e21b81526001600160a01b038b811660048301526024820186905289811660448301528881166064830152919091169063d549a1ec90608401604080518083038186803b158015612fd257600080fd5b505afa158015612fe6573d6000803e3d6000fd5b505050506040513d601f19601f8201168201806040525081019061300a919061490f565b6001600160a01b03808a166000908152601460209081526040808320938c16835292905290812080549395509193508492613046908490614a85565b90915550506001600160a01b038088166000908152601560209081526040808320938a1683529290529081208054859290613082908490614a85565b90915550506001600160a01b038088166000908152601660209081526040808320938a16835292905290812080548392906130be908490614a85565b909155506130d19050898389868a6140bb565b856001600160a01b0316876001600160a01b03168a6001600160a01b03167f80cf2752eb276900a648b467a8fe8180e3192a2370982e997e928b3dc8b99ba18587604051613129929190918252602082015260400190565b60405180910390a461313c898884614151565b6131468787613348565b50979650505050505050565b600d818154811061316257600080fd5b6000918252602090912001546001600160a01b0316905081565b6000613187836123b1565b8061320c5750600954604051632f011bf560e11b81526001600160a01b03858116600483015290911690635e0237ea90602401602060405180830381600087803b1580156131d457600080fd5b505af11580156131e8573d6000803e3d6000fd5b505050506040513d601f19601f8201168201806040525081019061320c91906147a0565b156132225761321b8383614276565b9050611494565b61322b8361220b565b156114945760095460405163783ba87960e01b8152600481018490526001600160a01b03858116602483015286811660448301529091169063783ba87990606401600060405180830381600087803b15801561328657600080fd5b505af115801561329a573d6000803e3d6000fd5b50939695505050505050565b6001600160a01b038086166000908152601360209081526040808320878516845260019081018352818420948616845293909301905290812080548492906132ef908490614a2e565b90915550506001600160a01b03808616600090815260136020908152604080832087851684526001018252808320938516835260029093019052908120805486929061333c908490614a2e565b90915550505050505050565b6133528282611f9f565b4210158015613364575061336461098c565b15611479576001600160a01b03808316600090815260176020908152604080832093851683529290529081205461339b9042614a85565b9050600760009054906101000a90046001600160a01b03166001600160a01b0316636b92a3b66040518163ffffffff1660e01b815260040160206040518083038186803b1580156133eb57600080fd5b505afa1580156133ff573d6000803e3d6000fd5b505050506040513d601f19601f8201168201806040525081019061342391906147d4565b61342d9042614a2e565b6001600160a01b038085166000908152601760209081526040808320938716835292905290812091909155613460612413565b6001600160a01b031663945821af8585856040518463ffffffff1660e01b815260040161348f939291906149aa565b602060405180830381600087803b1580156134a957600080fd5b505af11580156134bd573d6000803e3d6000fd5b505050506040513d601f19601f820116820180604052508101906134e191906147d4565b6001600160a01b03808616600090815260166020908152604080832093881683529290529081208054929350839290919061351d908490614a2e565b9091555061352e9050818585614443565b613537846123b1565b1561362f5760095460405163a9059cbb60e01b81526001600160a01b038681169263a9059cbb92613570929091169085906004016149ce565b602060405180830381600087803b15801561358a57600080fd5b505af115801561359e573d6000803e3d6000fd5b505050506040513d601f19601f820116820180604052508101906135c291906147a0565b50600954604051633041949b60e01b81526001600160a01b038681166004830152858116602483015290911690633041949b90604401600060405180830381600087803b15801561361257600080fd5b505af1158015613626573d6000803e3d6000fd5b50505050613829565b600954604051632f011bf560e11b81526001600160a01b03868116600483015290911690635e0237ea90602401602060405180830381600087803b15801561367657600080fd5b505af115801561368a573d6000803e3d6000fd5b505050506040513d601f19601f820116820180604052508101906136ae91906147a0565b156138295760095460405163a9059cbb60e01b81526001600160a01b038681169263a9059cbb926136e7929091169085906004016149ce565b602060405180830381600087803b15801561370157600080fd5b505af1158015613715573d6000803e3d6000fd5b505050506040513d601f19601f8201168201806040525081019061373991906147a0565b50600960009054906101000a90046001600160a01b03166001600160a01b031663469f5c1e856001600160a01b03166382bfefc86040518163ffffffff1660e01b815260040160206040518083038186803b15801561379757600080fd5b505afa1580156137ab573d6000803e3d6000fd5b505050506040513d601f19601f820116820180604052508101906137cf9190614529565b6040516001600160e01b031960e084901b1681526001600160a01b039091166004820152602401600060405180830381600087803b15801561381057600080fd5b505af1158015613824573d6000803e3d6000fd5b505050505b50505050565b6007546000906001600160a01b038481169116148061385b57506008546001600160a01b038481169116145b806138e05750600954604051632f011bf560e11b81526001600160a01b03858116600483015290911690635e0237ea90602401602060405180830381600087803b1580156138a857600080fd5b505af11580156138bc573d6000803e3d6000fd5b505050506040513d601f19601f820116820180604052508101906138e091906147a0565b15613a085750803233141561397b576009546040516302ccb1b360e41b81526001600160a01b0385811692632ccb1b3092613923929091169086906004016149ce565b602060405180830381600087803b15801561393d57600080fd5b505af1158015613951573d6000803e3d6000fd5b505050506040513d601f19601f8201168201806040525081019061397591906147a0565b50613a03565b6009546040516323b872dd60e01b81526001600160a01b03808616926323b872dd926139af923392169087906004016149aa565b602060405180830381600087803b1580156139c957600080fd5b505af11580156139dd573d6000803e3d6000fd5b505050506040513d601f19601f82011682018060405250810190613a0191906147a0565b505b611fc6565b6009546040516370a0823160e01b81526001600160a01b0391821660048201526000918516906370a082319060240160206040518083038186803b158015613a4f57600080fd5b505afa158015613a63573d6000803e3d6000fd5b505050506040513d601f19601f82011682018060405250810190613a8791906147d4565b6009546040516323b872dd60e01b81529192506001600160a01b03808716926323b872dd92613abf92339291169088906004016149aa565b602060405180830381600087803b158015613ad957600080fd5b505af1158015613aed573d6000803e3d6000fd5b505050506040513d601f19601f82011682018060405250810190613b1191906147a0565b506009546040516370a0823160e01b81526001600160a01b03918216600482015282918616906370a08231906024015b60206040518083038186803b158015613b5957600080fd5b505afa158015613b6d573d6000803e3d6000fd5b505050506040513d601f19601f82011682018060405250810190613b9191906147d4565b610af29190614a85565b6001600160a01b03808516600090815260106020908152604080832093871683529290529081208054849290613bd2908490614a2e565b90915550506001600160a01b03808516600090815260116020908152604080832093871683529290529081208054839290613c0e908490614a2e565b9091555050506001600160a01b039283166000908152601260209081526040808320949095168252929092525020429055565b613c4a816123b1565b611479576000613c58612413565b6001600160a01b031663b4951e4a836002546040518363ffffffff1660e01b8152600401613c879291906149ce565b60206040518083038186803b158015613c9f57600080fd5b505afa158015613cb3573d6000803e3d6000fd5b505050506040513d601f19601f82011682018060405250810190613cd791906147d4565b60095460405163a9059cbb60e01b81529192506001600160a01b038086169263a9059cbb92613d0c92169085906004016149ce565b602060405180830381600087803b158015613d2657600080fd5b505af1158015613d3a573d6000803e3d6000fd5b505050506040513d601f19601f82011682018060405250810190613d5e91906147a0565b50600954604051633041949b60e01b81526001600160a01b038581166004830152848116602483015290911690633041949b90604401600060405180830381600087803b158015613dae57600080fd5b505af1158015613dc2573d6000803e3d6000fd5b50505050816001600160a01b0316836001600160a01b03167f416b0b234ccd4d6d72c4b1a3a09b472a71981d9bbf0f26ab44774e0e3425fad683604051613e0b91815260200190565b60405180910390a3505050565b600954604051636c66769560e11b81526001600160a01b0383811660048301529091169063d8cced2a9060240160206040518083038186803b158015613e5d57600080fd5b505afa158015613e71573d6000803e3d6000fd5b505050506040513d601f19601f82011682018060405250810190613e9591906147a0565b156121795761217981612849565b6001600160a01b03808516600090815260106020908152604080832093871683529290529081208054839290613eda908490614a2e565b9091555060009050613eea612413565b6001600160a01b03868116600090815260106020908152604080832089851684529091529081902054905163714270ab60e01b815260048101879052602481019190915291169063714270ab9060440160206040518083038186803b158015613f5257600080fd5b505afa158015613f66573d6000803e3d6000fd5b505050506040513d601f19601f82011682018060405250810190613f8a91906147d4565b90506000613f96612413565b6001600160a01b0387811660009081526011602090815260408083208a851684529091529081902054905163714270ab60e01b815260048101889052602481019190915291169063714270ab9060440160206040518083038186803b158015613ffe57600080fd5b505afa158015614012573d6000803e3d6000fd5b505050506040513d601f19601f8201168201806040525081019061403691906147d4565b6001600160a01b038088166000908152601060209081526040808320938a16835292905290812080549293508492909190614072908490614a85565b90915550506001600160a01b038087166000908152601160209081526040808320938916835292905290812080548392906140ae908490614a85565b9091555050505050505050565b6001600160a01b03808616600090815260136020908152604080832087851684526001908101835281842094861684529390930190529081208054849290614104908490614a85565b90915550506001600160a01b03808616600090815260136020908152604080832087851684526001018252808320938516835260029093019052908120805486929061333c908490614a85565b61415a826123b1565b806141df5750600954604051632f011bf560e11b81526001600160a01b03848116600483015290911690635e0237ea90602401602060405180830381600087803b1580156141a757600080fd5b505af11580156141bb573d6000803e3d6000fd5b505050506040513d601f19601f820116820180604052508101906141df91906147a0565b156141f4576141ef828483614484565b614271565b6141fd8261220b565b156142715760095460405163798e23d560e01b8152600481018390526001600160a01b03848116602483015285811660448301529091169063798e23d590606401600060405180830381600087803b15801561425857600080fd5b505af115801561426c573d6000803e3d6000fd5b505050505b505050565b6040516370a0823160e01b815230600482015260009081906001600160a01b038516906370a082319060240160206040518083038186803b1580156142ba57600080fd5b505afa1580156142ce573d6000803e3d6000fd5b505050506040513d601f19601f820116820180604052508101906142f291906147d4565b90503233141561438a576040516302ccb1b360e41b81526001600160a01b03851690632ccb1b309061432a90309087906004016149ce565b602060405180830381600087803b15801561434457600080fd5b505af1158015614358573d6000803e3d6000fd5b505050506040513d601f19601f8201168201806040525081019061437c91906147a0565b61438557600080fd5b614415565b6040516323b872dd60e01b81526001600160a01b038516906323b872dd906143ba903390309088906004016149aa565b602060405180830381600087803b1580156143d457600080fd5b505af11580156143e8573d6000803e3d6000fd5b505050506040513d601f19601f8201168201806040525081019061440c91906147a0565b61441557600080fd5b6040516370a0823160e01b815230600482015281906001600160a01b038616906370a0823190602401613b41565b6001600160a01b0380831660009081526014602090815260408083209385168352929052908120805485929061447a908490614a85565b9091555050505050565b60405163a9059cbb60e01b81526001600160a01b0384169063a9059cbb906144b290859085906004016149ce565b602060405180830381600087803b1580156144cc57600080fd5b505af11580156144e0573d6000803e3d6000fd5b505050506040513d601f19601f8201168201806040525081019061450491906147a0565b61427157600080fd5b60006020828403121561451e578081fd5b813561149481614ae3565b60006020828403121561453a578081fd5b815161149481614ae3565b60008060408385031215614557578081fd5b823561456281614ae3565b9150602083013561457281614ae3565b809150509250929050565b600080600060608486031215614591578081fd5b833561459c81614ae3565b925060208401356145ac81614ae3565b915060408401356145bc81614ae3565b809150509250925092565b600080600080608085870312156145dc578081fd5b84356145e781614ae3565b935060208501356145f781614ae3565b9250604085013561460781614ae3565b9396929550929360600135925050565b60008060006060848603121561462b578283fd5b833561463681614ae3565b9250602084013561464681614ae3565b929592945050506040919091013590565b6000806000806080858703121561466c578384fd5b843561467781614ae3565b935060208501359250604085013561468e81614ae3565b9150606085013561469e81614ae3565b939692955090935050565b600080600080608085870312156146be578384fd5b84356146c981614ae3565b935060208501359250604085013561460781614ae3565b600060208083850312156146f2578182fd5b825167ffffffffffffffff80821115614709578384fd5b818501915085601f83011261471c578384fd5b81518181111561472e5761472e614acd565b8060051b604051601f19603f8301168101818110858211171561475357614753614acd565b604052828152858101935084860182860187018a1015614771578788fd5b8795505b83861015614793578051855260019590950194938601938601614775565b5098975050505050505050565b6000602082840312156147b1578081fd5b815161149481614af8565b6000602082840312156147cd578081fd5b5035919050565b6000602082840312156147e5578081fd5b5051919050565b600080600060608486031215614800578283fd5b8335925060208401356145ac81614ae3565b60008060008060808587031215614827578182fd5b8435935060208501356145f781614ae3565b600080600080600060a08688031215614850578283fd5b85359450602086013561486281614ae3565b9350604086013561487281614af8565b9250606086013561488281614ae3565b9150608086013561489281614af8565b809150509295509295909350565b60008060008060008060c087890312156148b8578384fd5b8635955060208701356148ca81614ae3565b945060408701356148da81614af8565b935060608701356148ea81614ae3565b925060808701356148fa81614af8565b8092505060a087013590509295509295509295565b60008060408385031215614921578182fd5b505080516020909101519092909150565b600080600060608486031215614946578081fd5b505081359360208301359350604090920135919050565b6001600160a01b0393841681529183166020830152909116604082015260600190565b6001600160a01b039485168152928416602084015292166040820152901515606082015260800190565b6001600160a01b039384168152919092166020820152604081019190915260600190565b6001600160a01b03929092168252602082015260400190565b6020808252825482820181905260008481528281209092916040850190845b81811015614a2257835483526001938401939285019201614a06565b50909695505050505050565b60008219821115614a4157614a41614ab7565b500190565b600082614a6157634e487b7160e01b81526012600452602481fd5b500490565b6000816000190483118215151615614a8057614a80614ab7565b500290565b600082821015614a9757614a97614ab7565b500390565b6000600019821415614ab057614ab0614ab7565b5060010190565b634e487b7160e01b600052601160045260246000fd5b634e487b7160e01b600052604160045260246000fd5b6001600160a01b038116811461217957600080fd5b801515811461217957600080fdfea26469706673582212206cddf0e152f0185877d187832df5ab2421bd1194e2afdb81dd7f9b9dcff16ed864736f6c63430008030033",
  "linkReferences": {},
  "deployedLinkReferences": {}
}