{
  "_format": "hh-sol-artifact-1",
  "contractName": "Router",
  "sourceName": "contracts/Router.sol",
  "abi": [
    {
      "inputs": [],
      "stateMutability": "nonpayable",
      "type": "constructor"
    },
    {
      "anonymous": false,
      "inputs": [
        {
          "indexed": true,
          "internalType": "address",
          "name": "member",
          "type": "address"
        },
        {
          "indexed": true,
          "internalType": "address",
          "name": "collateralAsset",
          "type": "address"
        },
        {
          "indexed": false,
          "internalType": "uint256",
          "name": "collateralLocked",
          "type": "uint256"
        },
        {
          "indexed": true,
          "internalType": "address",
          "name": "debtAsset",
          "type": "address"
        },
        {
          "indexed": false,
          "internalType": "uint256",
          "name": "debtIssued",
          "type": "uint256"
        }
      ],
      "name": "AddCollateral",
      "type": "event"
    },
    {
      "anonymous": false,
      "inputs": [
        {
          "indexed": true,
          "internalType": "address",
          "name": "curator",
          "type": "address"
        },
        {
          "indexed": true,
          "internalType": "address",
          "name": "token",
          "type": "address"
        }
      ],
      "name": "Curated",
      "type": "event"
    },
    {
      "anonymous": false,
      "inputs": [
        {
          "indexed": true,
          "internalType": "address",
          "name": "base",
          "type": "address"
        },
        {
          "indexed": true,
          "internalType": "address",
          "name": "token",
          "type": "address"
        },
        {
          "indexed": false,
          "internalType": "uint256",
          "name": "amount",
          "type": "uint256"
        }
      ],
      "name": "PoolReward",
      "type": "event"
    },
    {
      "anonymous": false,
      "inputs": [
        {
          "indexed": true,
          "internalType": "address",
          "name": "member",
          "type": "address"
        },
        {
          "indexed": false,
          "internalType": "uint256",
          "name": "amount",
          "type": "uint256"
        }
      ],
      "name": "Protection",
      "type": "event"
    },
    {
      "anonymous": false,
      "inputs": [
        {
          "indexed": true,
          "internalType": "address",
          "name": "member",
          "type": "address"
        },
        {
          "indexed": true,
          "internalType": "address",
          "name": "collateralAsset",
          "type": "address"
        },
        {
          "indexed": false,
          "internalType": "uint256",
          "name": "collateralUnlocked",
          "type": "uint256"
        },
        {
          "indexed": true,
          "internalType": "address",
          "name": "debtAsset",
          "type": "address"
        },
        {
          "indexed": false,
          "internalType": "uint256",
          "name": "debtReturned",
          "type": "uint256"
        }
      ],
      "name": "RemoveCollateral",
      "type": "event"
    },
    {
      "inputs": [],
      "name": "DAO",
      "outputs": [
        {
          "internalType": "address",
          "name": "",
          "type": "address"
        }
      ],
      "stateMutability": "view",
      "type": "function"
    },
    {
      "inputs": [],
      "name": "POOLS",
      "outputs": [
        {
          "internalType": "address",
          "name": "",
          "type": "address"
        }
      ],
      "stateMutability": "view",
      "type": "function"
    },
    {
      "inputs": [],
      "name": "USDV",
      "outputs": [
        {
          "internalType": "address",
          "name": "",
          "type": "address"
        }
      ],
      "stateMutability": "view",
      "type": "function"
    },
    {
      "inputs": [],
      "name": "UTILS",
      "outputs": [
        {
          "internalType": "address",
          "name": "",
          "type": "address"
        }
      ],
      "stateMutability": "view",
      "type": "function"
    },
    {
      "inputs": [],
      "name": "VADER",
      "outputs": [
        {
          "internalType": "address",
          "name": "",
          "type": "address"
        }
      ],
      "stateMutability": "view",
      "type": "function"
    },
    {
      "inputs": [
        {
          "internalType": "address",
          "name": "collateralAsset",
          "type": "address"
        },
        {
          "internalType": "address",
          "name": "debtAsset",
          "type": "address"
        }
      ],
      "name": "_payInterest",
      "outputs": [],
      "stateMutability": "nonpayable",
      "type": "function"
    },
    {
      "inputs": [
        {
          "internalType": "address",
          "name": "base",
          "type": "address"
        },
        {
          "internalType": "uint256",
          "name": "inputBase",
          "type": "uint256"
        },
        {
          "internalType": "address",
          "name": "token",
          "type": "address"
        },
        {
          "internalType": "uint256",
          "name": "inputToken",
          "type": "uint256"
        }
      ],
      "name": "addLiquidity",
      "outputs": [
        {
          "internalType": "uint256",
          "name": "",
          "type": "uint256"
        }
      ],
      "stateMutability": "nonpayable",
      "type": "function"
    },
    {
      "inputs": [],
      "name": "anchorLimit",
      "outputs": [
        {
          "internalType": "uint256",
          "name": "",
          "type": "uint256"
        }
      ],
      "stateMutability": "view",
      "type": "function"
    },
    {
      "inputs": [
        {
          "internalType": "uint256",
          "name": "",
          "type": "uint256"
        }
      ],
      "name": "arrayAnchors",
      "outputs": [
        {
          "internalType": "address",
          "name": "",
          "type": "address"
        }
      ],
      "stateMutability": "view",
      "type": "function"
    },
    {
      "inputs": [
        {
          "internalType": "uint256",
          "name": "",
          "type": "uint256"
        }
      ],
      "name": "arrayPrices",
      "outputs": [
        {
          "internalType": "uint256",
          "name": "",
          "type": "uint256"
        }
      ],
      "stateMutability": "view",
      "type": "function"
    },
    {
      "inputs": [
        {
          "internalType": "uint256",
          "name": "amount",
          "type": "uint256"
        },
        {
          "internalType": "address",
          "name": "collateralAsset",
          "type": "address"
        },
        {
          "internalType": "address",
          "name": "debtAsset",
          "type": "address"
        }
      ],
      "name": "borrow",
      "outputs": [
        {
          "internalType": "uint256",
          "name": "",
          "type": "uint256"
        }
      ],
      "stateMutability": "nonpayable",
      "type": "function"
    },
    {
      "inputs": [
        {
          "internalType": "address",
          "name": "member",
          "type": "address"
        },
        {
          "internalType": "uint256",
          "name": "amount",
          "type": "uint256"
        },
        {
          "internalType": "address",
          "name": "collateralAsset",
          "type": "address"
        },
        {
          "internalType": "address",
          "name": "debtAsset",
          "type": "address"
        }
      ],
      "name": "borrowForMember",
      "outputs": [
        {
          "internalType": "uint256",
          "name": "",
          "type": "uint256"
        }
      ],
      "stateMutability": "nonpayable",
      "type": "function"
    },
    {
      "inputs": [],
      "name": "checkLiquidate",
      "outputs": [],
      "stateMutability": "nonpayable",
      "type": "function"
    },
    {
      "inputs": [
        {
          "internalType": "address",
          "name": "token",
          "type": "address"
        }
      ],
      "name": "curatePool",
      "outputs": [],
      "stateMutability": "nonpayable",
      "type": "function"
    },
    {
      "inputs": [],
      "name": "curatedPoolCount",
      "outputs": [
        {
          "internalType": "uint256",
          "name": "",
          "type": "uint256"
        }
      ],
      "stateMutability": "view",
      "type": "function"
    },
    {
      "inputs": [],
      "name": "curatedPoolLimit",
      "outputs": [
        {
          "internalType": "uint256",
          "name": "",
          "type": "uint256"
        }
      ],
      "stateMutability": "view",
      "type": "function"
    },
    {
      "inputs": [],
      "name": "emitting",
      "outputs": [
        {
          "internalType": "bool",
          "name": "",
          "type": "bool"
        }
      ],
      "stateMutability": "view",
      "type": "function"
    },
    {
      "inputs": [],
      "name": "getAnchorPrice",
      "outputs": [
        {
          "internalType": "uint256",
          "name": "anchorPrice",
          "type": "uint256"
        }
      ],
      "stateMutability": "view",
      "type": "function"
    },
    {
      "inputs": [
        {
          "internalType": "address",
          "name": "member",
          "type": "address"
        },
        {
          "internalType": "address",
          "name": "base",
          "type": "address"
        },
        {
          "internalType": "address",
          "name": "token",
          "type": "address"
        },
        {
          "internalType": "uint256",
          "name": "basisPoints",
          "type": "uint256"
        }
      ],
      "name": "getILProtection",
      "outputs": [
        {
          "internalType": "uint256",
          "name": "protection",
          "type": "uint256"
        }
      ],
      "stateMutability": "view",
      "type": "function"
    },
    {
      "inputs": [
        {
          "internalType": "address",
          "name": "member",
          "type": "address"
        },
        {
          "internalType": "address",
          "name": "token",
          "type": "address"
        }
      ],
      "name": "getMemberBaseDeposit",
      "outputs": [
        {
          "internalType": "uint256",
          "name": "",
          "type": "uint256"
        }
      ],
      "stateMutability": "view",
      "type": "function"
    },
    {
      "inputs": [
        {
          "internalType": "address",
          "name": "member",
          "type": "address"
        },
        {
          "internalType": "address",
          "name": "collateralAsset",
          "type": "address"
        },
        {
          "internalType": "address",
          "name": "debtAsset",
          "type": "address"
        }
      ],
      "name": "getMemberCollateral",
      "outputs": [
        {
          "internalType": "uint256",
          "name": "",
          "type": "uint256"
        }
      ],
      "stateMutability": "view",
      "type": "function"
    },
    {
      "inputs": [
        {
          "internalType": "address",
          "name": "member",
          "type": "address"
        },
        {
          "internalType": "address",
          "name": "collateralAsset",
          "type": "address"
        },
        {
          "internalType": "address",
          "name": "debtAsset",
          "type": "address"
        }
      ],
      "name": "getMemberDebt",
      "outputs": [
        {
          "internalType": "uint256",
          "name": "",
          "type": "uint256"
        }
      ],
      "stateMutability": "view",
      "type": "function"
    },
    {
      "inputs": [
        {
          "internalType": "address",
          "name": "member",
          "type": "address"
        },
        {
          "internalType": "address",
          "name": "token",
          "type": "address"
        }
      ],
      "name": "getMemberLastDeposit",
      "outputs": [
        {
          "internalType": "uint256",
          "name": "",
          "type": "uint256"
        }
      ],
      "stateMutability": "view",
      "type": "function"
    },
    {
      "inputs": [
        {
          "internalType": "address",
          "name": "member",
          "type": "address"
        },
        {
          "internalType": "address",
          "name": "token",
          "type": "address"
        }
      ],
      "name": "getMemberTokenDeposit",
      "outputs": [
        {
          "internalType": "uint256",
          "name": "",
          "type": "uint256"
        }
      ],
      "stateMutability": "view",
      "type": "function"
    },
    {
      "inputs": [
        {
          "internalType": "address",
          "name": "collateralAsset",
          "type": "address"
        },
        {
          "internalType": "address",
          "name": "debtAsset",
          "type": "address"
        }
      ],
      "name": "getSystemCollateral",
      "outputs": [
        {
          "internalType": "uint256",
          "name": "",
          "type": "uint256"
        }
      ],
      "stateMutability": "view",
      "type": "function"
    },
    {
      "inputs": [
        {
          "internalType": "address",
          "name": "collateralAsset",
          "type": "address"
        },
        {
          "internalType": "address",
          "name": "debtAsset",
          "type": "address"
        }
      ],
      "name": "getSystemDebt",
      "outputs": [
        {
          "internalType": "uint256",
          "name": "",
          "type": "uint256"
        }
      ],
      "stateMutability": "view",
      "type": "function"
    },
    {
      "inputs": [
        {
          "internalType": "address",
          "name": "collateralAsset",
          "type": "address"
        },
        {
          "internalType": "address",
          "name": "debtAsset",
          "type": "address"
        }
      ],
      "name": "getSystemInterestPaid",
      "outputs": [
        {
          "internalType": "uint256",
          "name": "",
          "type": "uint256"
        }
      ],
      "stateMutability": "view",
      "type": "function"
    },
    {
      "inputs": [
        {
          "internalType": "uint256",
          "name": "vaderAmount",
          "type": "uint256"
        }
      ],
      "name": "getUSDVAmount",
      "outputs": [
        {
          "internalType": "uint256",
          "name": "USDVAmount",
          "type": "uint256"
        }
      ],
      "stateMutability": "view",
      "type": "function"
    },
    {
      "inputs": [
        {
          "internalType": "uint256",
          "name": "USDVAmount",
          "type": "uint256"
        }
      ],
      "name": "getVADERAmount",
      "outputs": [
        {
          "internalType": "uint256",
          "name": "vaderAmount",
          "type": "uint256"
        }
      ],
      "stateMutability": "view",
      "type": "function"
    },
    {
      "inputs": [
        {
          "internalType": "address",
          "name": "_vader",
          "type": "address"
        },
        {
          "internalType": "address",
          "name": "_usdv",
          "type": "address"
        },
        {
          "internalType": "address",
          "name": "_pool",
          "type": "address"
        }
      ],
      "name": "init",
      "outputs": [],
      "stateMutability": "nonpayable",
      "type": "function"
    },
    {
      "inputs": [],
      "name": "insidePriceLimit",
      "outputs": [
        {
          "internalType": "uint256",
          "name": "",
          "type": "uint256"
        }
      ],
      "stateMutability": "view",
      "type": "function"
    },
    {
      "inputs": [
        {
          "internalType": "address",
          "name": "token",
          "type": "address"
        }
      ],
      "name": "isBase",
      "outputs": [
        {
          "internalType": "bool",
          "name": "base",
          "type": "bool"
        }
      ],
      "stateMutability": "view",
      "type": "function"
    },
    {
      "inputs": [
        {
          "internalType": "address",
          "name": "token",
          "type": "address"
        }
      ],
      "name": "isCurated",
      "outputs": [
        {
          "internalType": "bool",
          "name": "curated",
          "type": "bool"
        }
      ],
      "stateMutability": "view",
      "type": "function"
    },
    {
      "inputs": [
        {
          "internalType": "address",
          "name": "token",
          "type": "address"
        }
      ],
      "name": "isPool",
      "outputs": [
        {
          "internalType": "bool",
          "name": "pool",
          "type": "bool"
        }
      ],
      "stateMutability": "view",
      "type": "function"
    },
    {
      "inputs": [
        {
          "internalType": "address",
          "name": "token",
          "type": "address"
        }
      ],
      "name": "listAnchor",
      "outputs": [],
      "stateMutability": "nonpayable",
      "type": "function"
    },
    {
      "inputs": [
        {
          "internalType": "address",
          "name": "",
          "type": "address"
        },
        {
          "internalType": "address",
          "name": "",
          "type": "address"
        }
      ],
      "name": "mapMemberToken_depositBase",
      "outputs": [
        {
          "internalType": "uint256",
          "name": "",
          "type": "uint256"
        }
      ],
      "stateMutability": "view",
      "type": "function"
    },
    {
      "inputs": [
        {
          "internalType": "address",
          "name": "",
          "type": "address"
        },
        {
          "internalType": "address",
          "name": "",
          "type": "address"
        }
      ],
      "name": "mapMemberToken_depositToken",
      "outputs": [
        {
          "internalType": "uint256",
          "name": "",
          "type": "uint256"
        }
      ],
      "stateMutability": "view",
      "type": "function"
    },
    {
      "inputs": [
        {
          "internalType": "address",
          "name": "",
          "type": "address"
        },
        {
          "internalType": "address",
          "name": "",
          "type": "address"
        }
      ],
      "name": "mapMemberToken_lastDeposited",
      "outputs": [
        {
          "internalType": "uint256",
          "name": "",
          "type": "uint256"
        }
      ],
      "stateMutability": "view",
      "type": "function"
    },
    {
      "inputs": [],
      "name": "outsidePriceLimit",
      "outputs": [
        {
          "internalType": "uint256",
          "name": "",
          "type": "uint256"
        }
      ],
      "stateMutability": "view",
      "type": "function"
    },
    {
      "inputs": [
        {
          "internalType": "address",
          "name": "base",
          "type": "address"
        },
        {
          "internalType": "address",
          "name": "token",
          "type": "address"
        },
        {
          "internalType": "uint256",
          "name": "basisPoints",
          "type": "uint256"
        }
      ],
      "name": "removeLiquidity",
      "outputs": [
        {
          "internalType": "uint256",
          "name": "amountBase",
          "type": "uint256"
        },
        {
          "internalType": "uint256",
          "name": "amountToken",
          "type": "uint256"
        }
      ],
      "stateMutability": "nonpayable",
      "type": "function"
    },
    {
      "inputs": [
        {
          "internalType": "uint256",
          "name": "amount",
          "type": "uint256"
        },
        {
          "internalType": "address",
          "name": "collateralAsset",
          "type": "address"
        },
        {
          "internalType": "address",
          "name": "debtAsset",
          "type": "address"
        }
      ],
      "name": "repay",
      "outputs": [
        {
          "internalType": "uint256",
          "name": "",
          "type": "uint256"
        }
      ],
      "stateMutability": "nonpayable",
      "type": "function"
    },
    {
      "inputs": [],
      "name": "repayDelay",
      "outputs": [
        {
          "internalType": "uint256",
          "name": "",
          "type": "uint256"
        }
      ],
      "stateMutability": "view",
      "type": "function"
    },
    {
      "inputs": [
        {
          "internalType": "address",
          "name": "member",
          "type": "address"
        },
        {
          "internalType": "uint256",
          "name": "basisPoints",
          "type": "uint256"
        },
        {
          "internalType": "address",
          "name": "collateralAsset",
          "type": "address"
        },
        {
          "internalType": "address",
          "name": "debtAsset",
          "type": "address"
        }
      ],
      "name": "repayForMember",
      "outputs": [
        {
          "internalType": "uint256",
          "name": "collateralUnlocked",
          "type": "uint256"
        }
      ],
      "stateMutability": "nonpayable",
      "type": "function"
    },
    {
      "inputs": [
        {
          "internalType": "address",
          "name": "oldToken",
          "type": "address"
        },
        {
          "internalType": "address",
          "name": "newToken",
          "type": "address"
        }
      ],
      "name": "replaceAnchor",
      "outputs": [],
      "stateMutability": "nonpayable",
      "type": "function"
    },
    {
      "inputs": [
        {
          "internalType": "address",
          "name": "oldToken",
          "type": "address"
        },
        {
          "internalType": "address",
          "name": "newToken",
          "type": "address"
        }
      ],
      "name": "replacePool",
      "outputs": [],
      "stateMutability": "nonpayable",
      "type": "function"
    },
    {
      "inputs": [],
      "name": "reserveUSDV",
      "outputs": [
        {
          "internalType": "uint256",
          "name": "",
          "type": "uint256"
        }
      ],
      "stateMutability": "view",
      "type": "function"
    },
    {
      "inputs": [],
      "name": "reserveVADER",
      "outputs": [
        {
          "internalType": "uint256",
          "name": "",
          "type": "uint256"
        }
      ],
      "stateMutability": "view",
      "type": "function"
    },
    {
      "inputs": [],
      "name": "rewardReductionFactor",
      "outputs": [
        {
          "internalType": "uint256",
          "name": "",
          "type": "uint256"
        }
      ],
      "stateMutability": "view",
      "type": "function"
    },
    {
      "inputs": [
        {
          "internalType": "uint256",
          "name": "newLimit",
          "type": "uint256"
        },
        {
          "internalType": "uint256",
          "name": "newInside",
          "type": "uint256"
        },
        {
          "internalType": "uint256",
          "name": "newOutside",
          "type": "uint256"
        }
      ],
      "name": "setAnchorParams",
      "outputs": [],
      "stateMutability": "nonpayable",
      "type": "function"
    },
    {
      "inputs": [
        {
          "internalType": "uint256",
          "name": "newFactor",
          "type": "uint256"
        },
        {
          "internalType": "uint256",
          "name": "newTime",
          "type": "uint256"
        },
        {
          "internalType": "uint256",
          "name": "newLimit",
          "type": "uint256"
        }
      ],
      "name": "setParams",
      "outputs": [],
      "stateMutability": "nonpayable",
      "type": "function"
    },
    {
      "inputs": [
        {
          "internalType": "uint256",
          "name": "inputAmount",
          "type": "uint256"
        },
        {
          "internalType": "address",
          "name": "inputToken",
          "type": "address"
        },
        {
          "internalType": "address",
          "name": "outputToken",
          "type": "address"
        }
      ],
      "name": "swap",
      "outputs": [
        {
          "internalType": "uint256",
          "name": "outputAmount",
          "type": "uint256"
        }
      ],
      "stateMutability": "nonpayable",
      "type": "function"
    },
    {
      "inputs": [
        {
          "internalType": "uint256",
          "name": "inputAmount",
          "type": "uint256"
        },
        {
          "internalType": "address",
          "name": "inputToken",
          "type": "address"
        },
        {
          "internalType": "address",
          "name": "outputToken",
          "type": "address"
        },
        {
          "internalType": "uint256",
          "name": "slipLimit",
          "type": "uint256"
        }
      ],
      "name": "swapWithLimit",
      "outputs": [
        {
          "internalType": "uint256",
          "name": "outputAmount",
          "type": "uint256"
        }
      ],
      "stateMutability": "nonpayable",
      "type": "function"
    },
    {
      "inputs": [
        {
          "internalType": "uint256",
          "name": "inputAmount",
          "type": "uint256"
        },
        {
          "internalType": "address",
          "name": "inputToken",
          "type": "address"
        },
        {
          "internalType": "bool",
          "name": "inSynth",
          "type": "bool"
        },
        {
          "internalType": "address",
          "name": "outputToken",
          "type": "address"
        },
        {
          "internalType": "bool",
          "name": "outSynth",
          "type": "bool"
        }
      ],
      "name": "swapWithSynths",
      "outputs": [
        {
          "internalType": "uint256",
          "name": "outputAmount",
          "type": "uint256"
        }
      ],
      "stateMutability": "nonpayable",
      "type": "function"
    },
    {
      "inputs": [
        {
          "internalType": "uint256",
          "name": "inputAmount",
          "type": "uint256"
        },
        {
          "internalType": "address",
          "name": "inputToken",
          "type": "address"
        },
        {
          "internalType": "bool",
          "name": "inSynth",
          "type": "bool"
        },
        {
          "internalType": "address",
          "name": "outputToken",
          "type": "address"
        },
        {
          "internalType": "bool",
          "name": "outSynth",
          "type": "bool"
        },
        {
          "internalType": "uint256",
          "name": "slipLimit",
          "type": "uint256"
        }
      ],
      "name": "swapWithSynthsWithLimit",
      "outputs": [
        {
          "internalType": "uint256",
          "name": "outputAmount",
          "type": "uint256"
        }
      ],
      "stateMutability": "nonpayable",
      "type": "function"
    },
    {
      "inputs": [],
      "name": "timeForFullProtection",
      "outputs": [
        {
          "internalType": "uint256",
          "name": "",
          "type": "uint256"
        }
      ],
      "stateMutability": "view",
      "type": "function"
    },
    {
      "inputs": [
        {
          "internalType": "address",
          "name": "token",
          "type": "address"
        }
      ],
      "name": "updateAnchorPrice",
      "outputs": [],
      "stateMutability": "nonpayable",
      "type": "function"
    }
  ],
  "bytecode": "0x6080604052670de0b6b3a7640000600155610e10600f5534801561002257600080fd5b50614987806100326000396000f3fe608060405234801561001057600080fd5b50600436106103785760003560e01c806382eb7233116101d3578063de6ad44e11610104578063e9b6e448116100a2578063fcf476861161007c578063fcf47686146107d3578063fdc59b82146107e6578063fde3bbe914610811578063ff8b83a61461085d57610378565b8063e9b6e44814610782578063ebccb5b214610795578063f550394e146107a857610378565b8063e2e1e48f116100de578063e2e1e48f14610710578063e6048ff814610723578063e672f6ad14610736578063e8b8cfa01461076f57610378565b8063de6ad44e146106bc578063e0f52db3146106c4578063e2c3b046146106fd57610378565b8063cbc17db311610171578063d2b433731161014b578063d2b4337314610665578063d516418414610678578063d752fab21461068b578063d8489152146106b357610378565b8063cbc17db314610610578063cf8bc71514610623578063cfa701c51461062c57610378565b806399a485f5116101ad57806399a485f5146105b6578063a9d1c09e146105c9578063ae746f02146105f4578063c883b2e5146105fd57610378565b806382eb72331461056c5780638bc51e36146105a557806398fabd3a146105ae57610378565b806337785d21116102ad5780635b16ebb71161024b5780636cc06ded116102255780636cc06ded1461052b5780636e899aa31461053e578063774d70e4146105515780637b0e5c451461056457610378565b80635b16ebb7146104fd57806362cea340146105105780636a87def51461051857610378565b8063531984381161028757806353198438146104c957806358b27216146104d25780635a0ce676146104d75780635a4dd3f2146104ea57610378565b806337785d211461049a57806339e68f53146104ad5780634eb6887a146104c057610378565b80631ab73ef51161031a5780632b7f0923116102f45780632b7f0923146104585780632e2d08561461046b5780633494c8e81461047e578063376d3d5d1461048757610378565b80631ab73ef5146104295780631df6acfd1461043c578063273961e61461044f57610378565b80631402340d116103565780631402340d146103db57806317af50e5146103f0578063184b9559146104035780631a6098271461041657610378565b8063016813151461037d578063038e5eaa146103ad5780630781f4d2146103c3575b600080fd5b600754610390906001600160a01b031681565b6040516001600160a01b0390911681526020015b60405180910390f35b6103b5610896565b6040519081526020016103a4565b6103cb610966565b60405190151581526020016103a4565b6103ee6103e9366004614390565b6109e8565b005b6103b56103fe366004614607565b610dc7565b6103ee6104113660046143c8565b610de8565b6103b561042436600461465d565b610e96565b6103b56104373660046144a2565b610eb3565b6103ee61044a366004614390565b61142b565b6103b560035481565b6103b5610466366004614637565b61182c565b6103ee61047936600461477d565b61184a565b6103b5600a5481565b6103b56104953660046144f4565b6118aa565b6103b56104a83660046146eb565b611964565b6103ee6104bb366004614358565b61234e565b6103b5600f5481565b6103b560045481565b6103ee565b6103ee6104e536600461477d565b6124fe565b6103b56104f8366004614607565b61255e565b6103cb61050b366004614358565b61258d565b6103b561269b565b6103b5610526366004614390565b612718565b6103b5610539366004614607565b612745565b6103cb61054c366004614358565b612760565b6103cb61055f366004614358565b612799565b6103906127c2565b6103b561057a366004614390565b6001600160a01b03918216600090815260156020908152604080832093909416825291909152205490565b6103b560055481565b61039061283f565b6103b56105c4366004614684565b612884565b6103b56105d7366004614390565b601260209081526000928352604080842090915290825290205481565b6103b5600b5481565b6103b561060b366004614637565b6128a0565b6103b561061e3660046143c8565b6128ae565b6103b560025481565b6103b561063a366004614390565b6001600160a01b03918216600090815260116020908152604080832093909416825291909152205490565b6103ee610673366004614358565b6128ea565b6103b5610686366004614637565b612a84565b61069e610699366004614462565b612a92565b604080519283526020830191909152016103a4565b6103b5600c5481565b6103b5612bc7565b6103b56106d2366004614390565b6001600160a01b03918216600090815260166020908152604080832093909416825291909152205490565b600854610390906001600160a01b031681565b6103ee61071e366004614358565b612bf8565b6103b5610731366004614412565b612d4c565b6103b5610744366004614390565b6001600160a01b03918216600090815260146020908152604080832093909416825291909152205490565b6103ee61077d366004614390565b612e36565b6103b56107903660046144a2565b61301f565b600954610390906001600160a01b031681565b6103b56107b6366004614390565b601060209081526000928352604080842090915290825290205481565b6103906107e1366004614607565b6134b7565b6103b56107f4366004614390565b601160209081526000928352604080842090915290825290205481565b6103b561081f3660046143c8565b6001600160a01b0380841660009081526013602090815260408083208685168452600101825280832093851683526002909301905220549392505050565b6103b561086b366004614390565b6001600160a01b03918216600090815260106020908152604080832093909416825291909152205490565b600e546000901561095e5760006108ab6127c2565b6001600160a01b031663e379976e600e6040518263ffffffff1660e01b81526004016108d79190614832565b60006040518083038186803b1580156108ef57600080fd5b505afa158015610903573d6000803e3d6000fd5b505050506040513d6000823e601f3d908101601f1916820160405261092b919081019061452b565b90508060028151811061094e57634e487b7160e01b600052603260045260246000fd5b6020026020010151915050610963565b506001545b90565b600754604080516303c0fa6960e11b815290516000926001600160a01b031691630781f4d2916004808301926020929190829003018186803b1580156109ab57600080fd5b505afa1580156109bf573d6000803e3d6000fd5b505050506040513d601f19601f820116820180604052508101906109e391906145eb565b905090565b60006109f26127c2565b60405163080f78c560e41b81526001600160a01b038581166004830152848116602483015291909116906380f78c5090604401602060405180830381600087803b158015610a3f57600080fd5b505af1158015610a53573d6000803e3d6000fd5b505050506040513d601f19601f82011682018060405250810190610a77919061461f565b6001600160a01b038085166000908152601660209081526040808320938716835292905290812080549293508392909190610ab3908490614879565b90915550610ac490508184846134e1565b610acd83612760565b15610bc55760095460405163a9059cbb60e01b81526001600160a01b038581169263a9059cbb92610b0692909116908590600401614819565b602060405180830381600087803b158015610b2057600080fd5b505af1158015610b34573d6000803e3d6000fd5b505050506040513d601f19601f82011682018060405250810190610b5891906145eb565b50600954604051633041949b60e01b81526001600160a01b038581166004830152848116602483015290911690633041949b90604401600060405180830381600087803b158015610ba857600080fd5b505af1158015610bbc573d6000803e3d6000fd5b50505050610dc2565b600954604051632f011bf560e11b81526001600160a01b03858116600483015290911690635e0237ea90602401602060405180830381600087803b158015610c0c57600080fd5b505af1158015610c20573d6000803e3d6000fd5b505050506040513d601f19601f82011682018060405250810190610c4491906145eb565b15610dc25760095460405163a9059cbb60e01b81526001600160a01b038581169263a9059cbb92610c7d92909116908590600401614819565b602060405180830381600087803b158015610c9757600080fd5b505af1158015610cab573d6000803e3d6000fd5b505050506040513d601f19601f82011682018060405250810190610ccf91906145eb565b50600960009054906101000a90046001600160a01b03166001600160a01b031663469f5c1e846001600160a01b03166382bfefc86040518163ffffffff1660e01b8152600401602060405180830381600087803b158015610d2f57600080fd5b505af1158015610d43573d6000803e3d6000fd5b505050506040513d601f19601f82011682018060405250810190610d679190614374565b6040516001600160e01b031960e084901b1681526001600160a01b0390911660048201526024015b600060405180830381600087803b158015610da957600080fd5b505af1158015610dbd573d6000803e3d6000fd5b505050505b505050565b600e8181548110610dd757600080fd5b600091825260209091200154905081565b60005460ff1615610e295760405162461bcd60e51b81526020600482015260066024820152651a5b9a5d195960d21b60448201526064015b60405180910390fd5b60008054600160ff199091168117909155600780546001600160a01b03199081166001600160a01b0396871617909155600880548216948616949094179093556009805490931691909316179055600281905560038190556004556005600a5560c8600b556101f4600c55565b6000610ea88585600086600087611964565b90505b949350505050565b6000610ebd6127c2565b60405163cf975e7b60e01b81526001600160a01b0385811660048301528481166024830152919091169063cf975e7b90604401600060405180830381600087803b158015610f0a57600080fd5b505af1158015610f1e573d6000803e3d6000fd5b505050506000610f2f868587613522565b9050600080610f3c6127c2565b604051635c22141f60e01b81526001600160a01b038a8116600483015260248201869052888116604483015287811660648301529190911690635c22141f906084016040805180830381600087803b158015610f9757600080fd5b505af1158015610fab573d6000803e3d6000fd5b505050506040513d601f19601f82011682018060405250810190610fcf919061475a565b6001600160a01b038089166000908152601460209081526040808320938b1683529290529081208054939550919350859261100b908490614879565b90915550506001600160a01b03808716600090815260156020908152604080832093891683529290529081208054849290611047908490614879565b9091555061105a9050888488858961364c565b6007546001600160a01b03878116911614806110ee5750600954604051636c66769560e11b81526001600160a01b0387811660048301529091169063d8cced2a9060240160206040518083038186803b1580156110b657600080fd5b505afa1580156110ca573d6000803e3d6000fd5b505050506040513d601f19601f820116820180604052508101906110ee91906145eb565b1561120f5760075460095460405163a9059cbb60e01b81526001600160a01b039283169263a9059cbb92611129929116908590600401614819565b602060405180830381600087803b15801561114357600080fd5b505af1158015611157573d6000803e3d6000fd5b505050506040513d601f19601f8201168201806040525081019061117b91906145eb565b5060095460075460405163efc34aab60e01b81526001600160a01b039283169263efc34aab926111b79291169089908d906000906004016147cb565b602060405180830381600087803b1580156111d157600080fd5b505af11580156111e5573d6000803e3d6000fd5b505050506040513d601f19601f82011682018060405250810190611209919061461f565b506113c0565b6008546001600160a01b03878116911614806112a3575060095460405163643fd21560e11b81526001600160a01b0387811660048301529091169063c87fa42a9060240160206040518083038186803b15801561126b57600080fd5b505afa15801561127f573d6000803e3d6000fd5b505050506040513d601f19601f820116820180604052508101906112a391906145eb565b156113c05760085460095460405163a9059cbb60e01b81526001600160a01b039283169263a9059cbb926112de929116908590600401614819565b602060405180830381600087803b1580156112f857600080fd5b505af115801561130c573d6000803e3d6000fd5b505050506040513d601f19601f8201168201806040525081019061133091906145eb565b5060095460085460405163efc34aab60e01b81526001600160a01b039283169263efc34aab9261136c9291169089908d906000906004016147cb565b602060405180830381600087803b15801561138657600080fd5b505af115801561139a573d6000803e3d6000fd5b505050506040513d601f19601f820116820180604052508101906113be919061461f565b505b846001600160a01b0316866001600160a01b0316896001600160a01b03167fae998ad28d77f73e6eb1de185a4d9c3656e19b47125aa0e732ceabecefdd30618a86604051611418929190918252602082015260400190565b60405180910390a4509695505050505050565b600954604051636c66769560e11b81526001600160a01b0383811660048301529091169063d8cced2a9060240160206040518083038186803b15801561147057600080fd5b505afa158015611484573d6000803e3d6000fd5b505050506040513d601f19601f820116820180604052508101906114a891906145eb565b6114e15760405162461bcd60e51b815260206004820152600a6024820152692737ba1030b731b437b960b11b6044820152606401610e20565b60095460405163b34c8afb60e01b81526001600160a01b0384811660048301529091169063b34c8afb9060240160206040518083038186803b15801561152657600080fd5b505afa15801561153a573d6000803e3d6000fd5b505050506040513d601f19601f8201168201806040525081019061155e919061461f565b60095460405163b34c8afb60e01b81526001600160a01b0384811660048301529091169063b34c8afb9060240160206040518083038186803b1580156115a357600080fd5b505afa1580156115b7573d6000803e3d6000fd5b505050506040513d601f19601f820116820180604052508101906115db919061461f565b116116155760405162461bcd60e51b815260206004820152600a6024820152692737ba103232b2b832b960b11b6044820152606401610e20565b61161d6127c2565b6001600160a01b031663eb7d5ddf83600c546000611639610896565b6040516001600160e01b031960e087901b1681526001600160a01b039094166004850152602484019290925215156044830152606482015260840160006040518083038186803b15801561168c57600080fd5b505afa1580156116a0573d6000803e3d6000fd5b505050506116ac6127c2565b6001600160a01b031663eb7d5ddf82600b5460016116c8610896565b6040516001600160e01b031960e087901b1681526001600160a01b039094166004850152602484019290925215156044830152606482015260840160006040518083038186803b15801561171b57600080fd5b505afa15801561172f573d6000803e3d6000fd5b505050506001600160a01b03828116600090815260066020526040808220805460ff199081169091559284168252812080549092166001179091555b600d5481101561181e57826001600160a01b0316600d82815481106117a057634e487b7160e01b600052603260045260246000fd5b6000918252602090912001546001600160a01b0316141561180c5781600d82815481106117dd57634e487b7160e01b600052603260045260246000fd5b9060005260206000200160006101000a8154816001600160a01b0302191690836001600160a01b031602179055505b80611816816148e7565b91505061176b565b5061182881612bf8565b5050565b600061184084846000856000612710611964565b90505b9392505050565b61185261283f565b6001600160a01b0316336001600160a01b03161461189c5760405162461bcd60e51b81526020600482015260076024820152664e6f742044414f60c81b6044820152606401610e20565b600a92909255600b55600c55565b6000806118b786866136ee565b905060006118c585856136ee565b90506118d333868484613a5a565b60095460405163fde3b26560e01b81526001600160a01b039091169063fde3b26590611907908a90899033906004016147a8565b602060405180830381600087803b15801561192157600080fd5b505af1158015611935573d6000803e3d6000fd5b505050506040513d601f19601f82011682018060405250810190611959919061461f565b979650505050505050565b6000338561197c5761197687896136ee565b50611a05565b600954604051636e76408b60e11b81526001600160a01b038981166004830152611a0392169063dcec811690602401602060405180830381600087803b1580156119c557600080fd5b505af11580156119d9573d6000803e3d6000fd5b505050506040513d601f19601f820116820180604052508101906119fd9190614374565b896136ee565b505b600954604051636c66769560e11b81526001600160a01b038981166004830152600092169063d8cced2a9060240160206040518083038186803b158015611a4b57600080fd5b505afa158015611a5f573d6000803e3d6000fd5b505050506040513d601f19601f82011682018060405250810190611a8391906145eb565b80611b065750600954604051636c66769560e11b81526001600160a01b0388811660048301529091169063d8cced2a9060240160206040518083038186803b158015611ace57600080fd5b505afa158015611ae2573d6000803e3d6000fd5b505050506040513d601f19601f82011682018060405250810190611b0691906145eb565b15611b1d57506007546001600160a01b0316611b2b565b506008546001600160a01b03165b611b3486612760565b15611d6c5783611b426127c2565b60095460405163e6ae1a9760e01b81526001600160a01b038c8116600483015292831692632db6e488928e9291169063e6ae1a979060240160206040518083038186803b158015611b9257600080fd5b505afa158015611ba6573d6000803e3d6000fd5b505050506040513d601f19601f82011682018060405250810190611bca919061461f565b6040516001600160e01b031960e085901b1681526004810192909252602482015260440160206040518083038186803b158015611c0657600080fd5b505afa158015611c1a573d6000803e3d6000fd5b505050506040513d601f19601f82011682018060405250810190611c3e919061461f565b1115611c4957600080fd5b86611cde5760095460405163efc34aab60e01b81526001600160a01b039091169063efc34aab90611c859084908c9087906001906004016147cb565b602060405180830381600087803b158015611c9f57600080fd5b505af1158015611cb3573d6000803e3d6000fd5b505050506040513d601f19601f82011682018060405250810190611cd7919061461f565b9250611d67565b6009546040516371d6d97b60e11b81526001600160a01b039091169063e3adb2f690611d129084908c9087906004016147a8565b602060405180830381600087803b158015611d2c57600080fd5b505af1158015611d40573d6000803e3d6000fd5b505050506040513d601f19601f82011682018060405250810190611d64919061461f565b92505b61231c565b611d7588612760565b15611efa5783611d836127c2565b60095460405163b34c8afb60e01b81526001600160a01b038a8116600483015292831692632db6e488928e9291169063b34c8afb9060240160206040518083038186803b158015611dd357600080fd5b505afa158015611de7573d6000803e3d6000fd5b505050506040513d601f19601f82011682018060405250810190611e0b919061461f565b6040516001600160e01b031960e085901b1681526004810192909252602482015260440160206040518083038186803b158015611e4757600080fd5b505afa158015611e5b573d6000803e3d6000fd5b505050506040513d601f19601f82011682018060405250810190611e7f919061461f565b1115611e8a57600080fd5b84611ec65760095460405163efc34aab60e01b81526001600160a01b039091169063efc34aab90611c859084908a9087906000906004016147cb565b60095460405163680b1a3f60e11b81526001600160a01b039091169063d016347e90611d129084908a9087906004016147a8565b611f0388612760565b158015611f165750611f1486612760565b155b1561231c5783611f246127c2565b60095460405163e6ae1a9760e01b81526001600160a01b038c8116600483015292831692632db6e488928e9291169063e6ae1a979060240160206040518083038186803b158015611f7457600080fd5b505afa158015611f88573d6000803e3d6000fd5b505050506040513d601f19601f82011682018060405250810190611fac919061461f565b6040516001600160e01b031960e085901b1681526004810192909252602482015260440160206040518083038186803b158015611fe857600080fd5b505afa158015611ffc573d6000803e3d6000fd5b505050506040513d601f19601f82011682018060405250810190612020919061461f565b111561202b57600080fd5b866120bf5760095460405163efc34aab60e01b81526001600160a01b039091169063efc34aab906120679084908c9085906001906004016147cb565b602060405180830381600087803b15801561208157600080fd5b505af1158015612095573d6000803e3d6000fd5b505050506040513d601f19601f820116820180604052508101906120b9919061461f565b50612147565b6009546040516371d6d97b60e11b81526001600160a01b039091169063e3adb2f6906120f39084908c9085906004016147a8565b602060405180830381600087803b15801561210d57600080fd5b505af1158015612121573d6000803e3d6000fd5b505050506040513d601f19601f82011682018060405250810190612145919061461f565b505b836121506127c2565b60095460405163b34c8afb60e01b81526001600160a01b038a8116600483015292831692632db6e488928e9291169063b34c8afb9060240160206040518083038186803b1580156121a057600080fd5b505afa1580156121b4573d6000803e3d6000fd5b505050506040513d601f19601f820116820180604052508101906121d8919061461f565b6040516001600160e01b031960e085901b1681526004810192909252602482015260440160206040518083038186803b15801561221457600080fd5b505afa158015612228573d6000803e3d6000fd5b505050506040513d601f19601f8201168201806040525081019061224c919061461f565b111561225757600080fd5b846122935760095460405163efc34aab60e01b81526001600160a01b039091169063efc34aab90611d129084908a9087906000906004016147cb565b60095460405163680b1a3f60e11b81526001600160a01b039091169063d016347e906122c79084908a9087906004016147a8565b602060405180830381600087803b1580156122e157600080fd5b505af11580156122f5573d6000803e3d6000fd5b505050506040513d601f19601f82011682018060405250810190612319919061461f565b92505b6123268189613b00565b6123308187613b00565b61233988613cd7565b61234286613cd7565b50509695505050505050565b600a54600d541061235e57600080fd5b600954604051636c66769560e11b81526001600160a01b0383811660048301529091169063d8cced2a9060240160206040518083038186803b1580156123a357600080fd5b505afa1580156123b7573d6000803e3d6000fd5b505050506040513d601f19601f820116820180604052508101906123db91906145eb565b6123e457600080fd5b600d80546001810182556000919091527fd7b6990105719101dabeb77144f2a3385c8033acd3af97e9423a695e81ad1eb50180546001600160a01b0319166001600160a01b038316179055600e6124396127c2565b6001600160a01b031663db39dc79836001546040518363ffffffff1660e01b8152600401612468929190614819565b60206040518083038186803b15801561248057600080fd5b505afa158015612494573d6000803e3d6000fd5b505050506040513d601f19601f820116820180604052508101906124b8919061461f565b81546001818101845560009384526020808520909201929092556001600160a01b0384168352600690526040909120805460ff191690911790556124fb81612bf8565b50565b61250661283f565b6001600160a01b0316336001600160a01b0316146125505760405162461bcd60e51b81526020600482015260076024820152664e6f742044414f60c81b6044820152606401610e20565b600292909255600355600455565b600080612569610896565b9050806001548461257a91906148b1565b6125849190614891565b9150505b919050565b600954604051636c66769560e11b81526001600160a01b038381166004830152600092169063d8cced2a9060240160206040518083038186803b1580156125d357600080fd5b505afa1580156125e7573d6000803e3d6000fd5b505050506040513d601f19601f8201168201806040525081019061260b91906145eb565b8061268e575060095460405163643fd21560e11b81526001600160a01b0384811660048301529091169063c87fa42a9060240160206040518083038186803b15801561265657600080fd5b505afa15801561266a573d6000803e3d6000fd5b505050506040513d601f19601f8201168201806040525081019061268e91906145eb565b1561258857506001919050565b6007546040516370a0823160e01b81523060048201526000916001600160a01b0316906370a08231906024015b60206040518083038186803b1580156126e057600080fd5b505afa1580156126f4573d6000803e3d6000fd5b505050506040513d601f19601f820116820180604052508101906109e3919061461f565b6001600160a01b038083166000908152601260209081526040808320938516835292905220545b92915050565b600080612750610896565b60015490915061257a84836148b1565b6007546000906001600160a01b038381169116148061278c57506008546001600160a01b038381169116145b1561258857506001612588565b6001600160a01b03811660009081526006602052604081205460ff161561258857506001919050565b60075460408051637b0e5c4560e01b815290516000926001600160a01b031691637b0e5c45916004808301926020929190829003018186803b15801561280757600080fd5b505afa15801561281b573d6000803e3d6000fd5b505050506040513d601f19601f820116820180604052508101906109e39190614374565b60075460408051634c7d5e9d60e11b815290516000926001600160a01b0316916398fabd3a916004808301926020929190829003018186803b15801561280757600080fd5b60006128968686868686612710611964565b9695505050505050565b60006118403385858561301f565b6001600160a01b039283166000908152601360209081526040808320948616835260019485018252808320939095168252919092019052205490565b60095460405163643fd21560e11b81526001600160a01b0383811660048301529091169063c87fa42a9060240160206040518083038186803b15801561292f57600080fd5b505afa158015612943573d6000803e3d6000fd5b505050506040513d601f19601f8201168201806040525081019061296791906145eb565b806129ea5750600954604051636c66769560e11b81526001600160a01b0383811660048301529091169063d8cced2a9060240160206040518083038186803b1580156129b257600080fd5b505afa1580156129c6573d6000803e3d6000fd5b505050506040513d601f19601f820116820180604052508101906129ea91906145eb565b6129f357600080fd5b6129fc81612799565b612a4b576004546005541015612a4b576001600160a01b0381166000908152600660205260408120805460ff191660019081179091556005805491929091612a45908490614879565b90915550505b6040516001600160a01b0382169033907fb2f6cc014bc6265032f32972254d5e024ec51ed94c0aaf2280128336be54a04190600090a350565b600061184033858585610eb3565b600954604051636ba97d5960e11b815260009182916001600160a01b039091169063d752fab290612acb908890889088906004016147f5565b6040805180830381600087803b158015612ae457600080fd5b505af1158015612af8573d6000803e3d6000fd5b505050506040513d601f19601f82011682018060405250810190612b1c919061475a565b90925090506000612b2f33878787612d4c565b9050612b3d33868684613d62565b60405163a9059cbb60e01b81526001600160a01b0387169063a9059cbb90612b6b9033908590600401614819565b602060405180830381600087803b158015612b8557600080fd5b505af1158015612b99573d6000803e3d6000fd5b505050506040513d601f19601f82011682018060405250810190612bbd91906145eb565b5050935093915050565b6008546040516370a0823160e01b81523060048201526000916001600160a01b0316906370a08231906024016126c8565b60005b600d5481101561182857816001600160a01b0316600d8281548110612c3057634e487b7160e01b600052603260045260246000fd5b6000918252602090912001546001600160a01b03161415612d3a57612c536127c2565b6001600160a01b031663db39dc79600d8381548110612c8257634e487b7160e01b600052603260045260246000fd5b6000918252602090912001546001546040516001600160e01b031960e085901b168152612cbc926001600160a01b03169190600401614819565b60206040518083038186803b158015612cd457600080fd5b505afa158015612ce8573d6000803e3d6000fd5b505050506040513d601f19601f82011682018060405250810190612d0c919061461f565b600e8281548110612d2d57634e487b7160e01b600052603260045260246000fd5b6000918252602090912001555b80612d44816148e7565b915050612bfb565b6000612d566127c2565b600354604051635b0b602d60e01b81526001600160a01b0388811660048301528681166024830152604482018690526064820192909252911690635b0b602d9060840160206040518083038186803b158015612db157600080fd5b505afa158015612dc5573d6000803e3d6000fd5b505050506040513d601f19601f82011682018060405250810190612de9919061461f565b6007549091506001600160a01b0385811691161415612e2057612e0a61269b565b8110612e1b57612e1861269b565b90505b610eab565b612e28612bc7565b8110610eab57610ea8612bc7565b60095460405163643fd21560e11b81526001600160a01b0383811660048301529091169063c87fa42a9060240160206040518083038186803b158015612e7b57600080fd5b505afa158015612e8f573d6000803e3d6000fd5b505050506040513d601f19601f82011682018060405250810190612eb391906145eb565b612ebc57600080fd5b60095460405163b34c8afb60e01b81526001600160a01b0384811660048301529091169063b34c8afb9060240160206040518083038186803b158015612f0157600080fd5b505afa158015612f15573d6000803e3d6000fd5b505050506040513d601f19601f82011682018060405250810190612f39919061461f565b60095460405163b34c8afb60e01b81526001600160a01b0384811660048301529091169063b34c8afb9060240160206040518083038186803b158015612f7e57600080fd5b505afa158015612f92573d6000803e3d6000fd5b505050506040513d601f19601f82011682018060405250810190612fb6919061461f565b1115611828576001600160a01b03808316600090815260066020526040808220805460ff1990811690915592841680835281832080549094166001179093555133917fb2f6cc014bc6265032f32972254d5e024ec51ed94c0aaf2280128336be54a04191a35050565b60008061302a6127c2565b6001600160a01b031663714270ab866130448988886128ae565b6040516001600160e01b031960e085901b1681526004810192909252602482015260440160206040518083038186803b15801561308057600080fd5b505afa158015613094573d6000803e3d6000fd5b505050506040513d601f19601f820116820180604052508101906130b8919061461f565b905060006130c684836136ee565b6007549091506001600160a01b038681169116148061315d5750600954604051636c66769560e11b81526001600160a01b0386811660048301529091169063d8cced2a9060240160206040518083038186803b15801561312557600080fd5b505afa158015613139573d6000803e3d6000fd5b505050506040513d601f19601f8201168201806040525081019061315d91906145eb565b156131f55760095460075460405163efc34aab60e01b81526001600160a01b039283169263efc34aab9261319d92911690889030906001906004016147cb565b602060405180830381600087803b1580156131b757600080fd5b505af11580156131cb573d6000803e3d6000fd5b505050506040513d601f19601f820116820180604052508101906131ef919061461f565b5061331d565b6008546001600160a01b0386811691161480613289575060095460405163643fd21560e11b81526001600160a01b0386811660048301529091169063c87fa42a9060240160206040518083038186803b15801561325157600080fd5b505afa158015613265573d6000803e3d6000fd5b505050506040513d601f19601f8201168201806040525081019061328991906145eb565b1561331d5760095460085460405163efc34aab60e01b81526001600160a01b039283169263efc34aab926132c992911690889030906001906004016147cb565b602060405180830381600087803b1580156132e357600080fd5b505af11580156132f7573d6000803e3d6000fd5b505050506040513d601f19601f8201168201806040525081019061331b919061461f565b505b6133256127c2565b604051633552687b60e21b81526001600160a01b0389811660048301526024820184905287811660448301528681166064830152919091169063d549a1ec9060840160206040518083038186803b15801561337f57600080fd5b505afa158015613393573d6000803e3d6000fd5b505050506040513d601f19601f820116820180604052508101906133b7919061461f565b6001600160a01b0380871660009081526014602090815260408083209389168352929052908120805492955085929091906133f39084906148d0565b90915550506001600160a01b0380861660009081526015602090815260408083209388168352929052908120805483929061342f9084906148d0565b9091555061344290508784878488613f7a565b836001600160a01b0316856001600160a01b0316886001600160a01b03167f80cf2752eb276900a648b467a8fe8180e3192a2370982e997e928b3dc8b99ba1868560405161349a929190918252602082015260400190565b60405180910390a46134ad878685614010565b5050949350505050565b600d81815481106134c757600080fd5b6000918252602090912001546001600160a01b0316905081565b6001600160a01b038083166000908152601460209081526040808320938516835292905290812080548592906135189084906148d0565b9091555050505050565b600061352d83612760565b806135b25750600954604051632f011bf560e11b81526001600160a01b03858116600483015290911690635e0237ea90602401602060405180830381600087803b15801561357a57600080fd5b505af115801561358e573d6000803e3d6000fd5b505050506040513d601f19601f820116820180604052508101906135b291906145eb565b156135c8576135c18383614102565b9050611843565b6135d18361258d565b156118435760095460405163783ba87960e01b8152600481018490526001600160a01b03858116602483015286811660448301529091169063783ba87990606401600060405180830381600087803b15801561362c57600080fd5b505af1158015613640573d6000803e3d6000fd5b50939695505050505050565b6001600160a01b03808616600090815260136020908152604080832087851684526001908101835281842094861684529390930190529081208054849290613695908490614879565b90915550506001600160a01b0380861660009081526013602090815260408083208785168452600101825280832093851683526002909301905290812080548692906136e2908490614879565b90915550505050505050565b6007546000906001600160a01b038481169116148061371a57506008546001600160a01b038481169116145b8061379f5750600954604051632f011bf560e11b81526001600160a01b03858116600483015290911690635e0237ea90602401602060405180830381600087803b15801561376757600080fd5b505af115801561377b573d6000803e3d6000fd5b505050506040513d601f19601f8201168201806040525081019061379f91906145eb565b156138c75750803233141561383a576009546040516302ccb1b360e41b81526001600160a01b0385811692632ccb1b30926137e292909116908690600401614819565b602060405180830381600087803b1580156137fc57600080fd5b505af1158015613810573d6000803e3d6000fd5b505050506040513d601f19601f8201168201806040525081019061383491906145eb565b506138c2565b6009546040516323b872dd60e01b81526001600160a01b03808616926323b872dd9261386e923392169087906004016147f5565b602060405180830381600087803b15801561388857600080fd5b505af115801561389c573d6000803e3d6000fd5b505050506040513d601f19601f820116820180604052508101906138c091906145eb565b505b61273f565b6009546040516370a0823160e01b81526001600160a01b0391821660048201526000918516906370a082319060240160206040518083038186803b15801561390e57600080fd5b505afa158015613922573d6000803e3d6000fd5b505050506040513d601f19601f82011682018060405250810190613946919061461f565b6009546040516323b872dd60e01b81529192506001600160a01b03808716926323b872dd9261397e92339291169088906004016147f5565b602060405180830381600087803b15801561399857600080fd5b505af11580156139ac573d6000803e3d6000fd5b505050506040513d601f19601f820116820180604052508101906139d091906145eb565b506009546040516370a0823160e01b81526001600160a01b03918216600482015282918616906370a08231906024015b60206040518083038186803b158015613a1857600080fd5b505afa158015613a2c573d6000803e3d6000fd5b505050506040513d601f19601f82011682018060405250810190613a50919061461f565b610eab91906148d0565b6001600160a01b03808516600090815260106020908152604080832093871683529290529081208054849290613a91908490614879565b90915550506001600160a01b03808516600090815260116020908152604080832093871683529290529081208054839290613acd908490614879565b9091555050506001600160a01b039283166000908152601260209081526040808320949095168252929092525020429055565b613b0981612760565b611828576000613b176127c2565b6001600160a01b031663b4951e4a836002546040518363ffffffff1660e01b8152600401613b46929190614819565b60206040518083038186803b158015613b5e57600080fd5b505afa158015613b72573d6000803e3d6000fd5b505050506040513d601f19601f82011682018060405250810190613b96919061461f565b60095460405163a9059cbb60e01b81529192506001600160a01b038086169263a9059cbb92613bcb9216908590600401614819565b602060405180830381600087803b158015613be557600080fd5b505af1158015613bf9573d6000803e3d6000fd5b505050506040513d601f19601f82011682018060405250810190613c1d91906145eb565b50600954604051633041949b60e01b81526001600160a01b038581166004830152848116602483015290911690633041949b90604401600060405180830381600087803b158015613c6d57600080fd5b505af1158015613c81573d6000803e3d6000fd5b50505050816001600160a01b0316836001600160a01b03167f416b0b234ccd4d6d72c4b1a3a09b472a71981d9bbf0f26ab44774e0e3425fad683604051613cca91815260200190565b60405180910390a3505050565b600954604051636c66769560e11b81526001600160a01b0383811660048301529091169063d8cced2a9060240160206040518083038186803b158015613d1c57600080fd5b505afa158015613d30573d6000803e3d6000fd5b505050506040513d601f19601f82011682018060405250810190613d5491906145eb565b156124fb576124fb81612bf8565b6001600160a01b03808516600090815260106020908152604080832093871683529290529081208054839290613d99908490614879565b9091555060009050613da96127c2565b6001600160a01b03868116600090815260106020908152604080832089851684529091529081902054905163714270ab60e01b815260048101879052602481019190915291169063714270ab9060440160206040518083038186803b158015613e1157600080fd5b505afa158015613e25573d6000803e3d6000fd5b505050506040513d601f19601f82011682018060405250810190613e49919061461f565b90506000613e556127c2565b6001600160a01b0387811660009081526011602090815260408083208a851684529091529081902054905163714270ab60e01b815260048101889052602481019190915291169063714270ab9060440160206040518083038186803b158015613ebd57600080fd5b505afa158015613ed1573d6000803e3d6000fd5b505050506040513d601f19601f82011682018060405250810190613ef5919061461f565b6001600160a01b038088166000908152601060209081526040808320938a16835292905290812080549293508492909190613f319084906148d0565b90915550506001600160a01b03808716600090815260116020908152604080832093891683529290529081208054839290613f6d9084906148d0565b9091555050505050505050565b6001600160a01b03808616600090815260136020908152604080832087851684526001908101835281842094861684529390930190529081208054849290613fc39084906148d0565b90915550506001600160a01b0380861660009081526013602090815260408083208785168452600101825280832093851683526002909301905290812080548692906136e29084906148d0565b61401982612760565b8061409e5750600954604051632f011bf560e11b81526001600160a01b03848116600483015290911690635e0237ea90602401602060405180830381600087803b15801561406657600080fd5b505af115801561407a573d6000803e3d6000fd5b505050506040513d601f19601f8201168201806040525081019061409e91906145eb565b156140b3576140ae8284836142cf565b610dc2565b6140bc8261258d565b15610dc25760095460405163798e23d560e01b8152600481018390526001600160a01b03848116602483015285811660448301529091169063798e23d590606401610d8f565b6040516370a0823160e01b815230600482015260009081906001600160a01b038516906370a082319060240160206040518083038186803b15801561414657600080fd5b505afa15801561415a573d6000803e3d6000fd5b505050506040513d601f19601f8201168201806040525081019061417e919061461f565b905032331415614216576040516302ccb1b360e41b81526001600160a01b03851690632ccb1b30906141b69030908790600401614819565b602060405180830381600087803b1580156141d057600080fd5b505af11580156141e4573d6000803e3d6000fd5b505050506040513d601f19601f8201168201806040525081019061420891906145eb565b61421157600080fd5b6142a1565b6040516323b872dd60e01b81526001600160a01b038516906323b872dd90614246903390309088906004016147f5565b602060405180830381600087803b15801561426057600080fd5b505af1158015614274573d6000803e3d6000fd5b505050506040513d601f19601f8201168201806040525081019061429891906145eb565b6142a157600080fd5b6040516370a0823160e01b815230600482015281906001600160a01b038616906370a0823190602401613a00565b60405163a9059cbb60e01b81526001600160a01b0384169063a9059cbb906142fd9085908590600401614819565b602060405180830381600087803b15801561431757600080fd5b505af115801561432b573d6000803e3d6000fd5b505050506040513d601f19601f8201168201806040525081019061434f91906145eb565b610dc257600080fd5b600060208284031215614369578081fd5b81356118438161492e565b600060208284031215614385578081fd5b81516118438161492e565b600080604083850312156143a2578081fd5b82356143ad8161492e565b915060208301356143bd8161492e565b809150509250929050565b6000806000606084860312156143dc578081fd5b83356143e78161492e565b925060208401356143f78161492e565b915060408401356144078161492e565b809150509250925092565b60008060008060808587031215614427578081fd5b84356144328161492e565b935060208501356144428161492e565b925060408501356144528161492e565b9396929550929360600135925050565b600080600060608486031215614476578283fd5b83356144818161492e565b925060208401356144918161492e565b929592945050506040919091013590565b600080600080608085870312156144b7578384fd5b84356144c28161492e565b93506020850135925060408501356144d98161492e565b915060608501356144e98161492e565b939692955090935050565b60008060008060808587031215614509578384fd5b84356145148161492e565b93506020850135925060408501356144528161492e565b6000602080838503121561453d578182fd5b825167ffffffffffffffff80821115614554578384fd5b818501915085601f830112614567578384fd5b81518181111561457957614579614918565b8060051b604051601f19603f8301168101818110858211171561459e5761459e614918565b604052828152858101935084860182860187018a10156145bc578788fd5b8795505b838610156145de5780518552600195909501949386019386016145c0565b5098975050505050505050565b6000602082840312156145fc578081fd5b815161184381614943565b600060208284031215614618578081fd5b5035919050565b600060208284031215614630578081fd5b5051919050565b60008060006060848603121561464b578283fd5b8335925060208401356143f78161492e565b60008060008060808587031215614672578182fd5b8435935060208501356144428161492e565b600080600080600060a0868803121561469b578283fd5b8535945060208601356146ad8161492e565b935060408601356146bd81614943565b925060608601356146cd8161492e565b915060808601356146dd81614943565b809150509295509295909350565b60008060008060008060c08789031215614703578384fd5b8635955060208701356147158161492e565b9450604087013561472581614943565b935060608701356147358161492e565b9250608087013561474581614943565b8092505060a087013590509295509295509295565b6000806040838503121561476c578182fd5b505080516020909101519092909150565b600080600060608486031215614791578081fd5b505081359360208301359350604090920135919050565b6001600160a01b0393841681529183166020830152909116604082015260600190565b6001600160a01b039485168152928416602084015292166040820152901515606082015260800190565b6001600160a01b039384168152919092166020820152604081019190915260600190565b6001600160a01b03929092168252602082015260400190565b6020808252825482820181905260008481528281209092916040850190845b8181101561486d57835483526001938401939285019201614851565b50909695505050505050565b6000821982111561488c5761488c614902565b500190565b6000826148ac57634e487b7160e01b81526012600452602481fd5b500490565b60008160001904831182151516156148cb576148cb614902565b500290565b6000828210156148e2576148e2614902565b500390565b60006000198214156148fb576148fb614902565b5060010190565b634e487b7160e01b600052601160045260246000fd5b634e487b7160e01b600052604160045260246000fd5b6001600160a01b03811681146124fb57600080fd5b80151581146124fb57600080fdfea2646970667358221220cd20086514685a746d647153255ee8904c0e527ca1e354e5b552ad5a07e89dba64736f6c63430008030033",
  "linkReferences": {},
  "deployedLinkReferences": {}
}