{
  "_format": "hh-sol-artifact-1",
  "contractName": "Router",
  "sourceName": "contracts/Router.sol",
  "abi": [
    {
      "inputs": [],
      "stateMutability": "nonpayable",
      "type": "constructor"
    },
    {
      "anonymous": false,
      "inputs": [
        {
          "indexed": true,
          "internalType": "address",
          "name": "curator",
          "type": "address"
        },
        {
          "indexed": true,
          "internalType": "address",
          "name": "token",
          "type": "address"
        }
      ],
      "name": "Curated",
      "type": "event"
    },
    {
      "anonymous": false,
      "inputs": [
        {
          "indexed": true,
          "internalType": "address",
          "name": "base",
          "type": "address"
        },
        {
          "indexed": true,
          "internalType": "address",
          "name": "token",
          "type": "address"
        },
        {
          "indexed": false,
          "internalType": "uint256",
          "name": "amount",
          "type": "uint256"
        }
      ],
      "name": "PoolReward",
      "type": "event"
    },
    {
      "anonymous": false,
      "inputs": [
        {
          "indexed": true,
          "internalType": "address",
          "name": "member",
          "type": "address"
        },
        {
          "indexed": false,
          "internalType": "uint256",
          "name": "amount",
          "type": "uint256"
        }
      ],
      "name": "Protection",
      "type": "event"
    },
    {
      "inputs": [],
      "name": "DAO",
      "outputs": [
        {
          "internalType": "address",
          "name": "",
          "type": "address"
        }
      ],
      "stateMutability": "view",
      "type": "function"
    },
    {
      "inputs": [],
      "name": "POOLS",
      "outputs": [
        {
          "internalType": "address",
          "name": "",
          "type": "address"
        }
      ],
      "stateMutability": "view",
      "type": "function"
    },
    {
      "inputs": [],
      "name": "USDV",
      "outputs": [
        {
          "internalType": "address",
          "name": "",
          "type": "address"
        }
      ],
      "stateMutability": "view",
      "type": "function"
    },
    {
      "inputs": [],
      "name": "UTILS",
      "outputs": [
        {
          "internalType": "address",
          "name": "",
          "type": "address"
        }
      ],
      "stateMutability": "view",
      "type": "function"
    },
    {
      "inputs": [],
      "name": "VADER",
      "outputs": [
        {
          "internalType": "address",
          "name": "",
          "type": "address"
        }
      ],
      "stateMutability": "view",
      "type": "function"
    },
    {
      "inputs": [
        {
          "internalType": "address",
          "name": "base",
          "type": "address"
        },
        {
          "internalType": "uint256",
          "name": "inputBase",
          "type": "uint256"
        },
        {
          "internalType": "address",
          "name": "token",
          "type": "address"
        },
        {
          "internalType": "uint256",
          "name": "inputToken",
          "type": "uint256"
        }
      ],
      "name": "addLiquidity",
      "outputs": [
        {
          "internalType": "uint256",
          "name": "",
          "type": "uint256"
        }
      ],
      "stateMutability": "nonpayable",
      "type": "function"
    },
    {
      "inputs": [
        {
          "internalType": "uint256",
          "name": "",
          "type": "uint256"
        }
      ],
      "name": "arrayAnchors",
      "outputs": [
        {
          "internalType": "address",
          "name": "",
          "type": "address"
        }
      ],
      "stateMutability": "view",
      "type": "function"
    },
    {
      "inputs": [
        {
          "internalType": "uint256",
          "name": "",
          "type": "uint256"
        }
      ],
      "name": "arrayPrices",
      "outputs": [
        {
          "internalType": "uint256",
          "name": "",
          "type": "uint256"
        }
      ],
      "stateMutability": "view",
      "type": "function"
    },
    {
      "inputs": [],
      "name": "borrow",
      "outputs": [],
      "stateMutability": "nonpayable",
      "type": "function"
    },
    {
      "inputs": [
        {
          "internalType": "address",
          "name": "token",
          "type": "address"
        }
      ],
      "name": "curatePool",
      "outputs": [],
      "stateMutability": "nonpayable",
      "type": "function"
    },
    {
      "inputs": [],
      "name": "curatedPoolCount",
      "outputs": [
        {
          "internalType": "uint256",
          "name": "",
          "type": "uint256"
        }
      ],
      "stateMutability": "view",
      "type": "function"
    },
    {
      "inputs": [],
      "name": "curatedPoolLimit",
      "outputs": [
        {
          "internalType": "uint256",
          "name": "",
          "type": "uint256"
        }
      ],
      "stateMutability": "view",
      "type": "function"
    },
    {
      "inputs": [],
      "name": "emitting",
      "outputs": [
        {
          "internalType": "bool",
          "name": "",
          "type": "bool"
        }
      ],
      "stateMutability": "view",
      "type": "function"
    },
    {
      "inputs": [],
      "name": "getAnchorPrice",
      "outputs": [
        {
          "internalType": "uint256",
          "name": "anchorPrice",
          "type": "uint256"
        }
      ],
      "stateMutability": "view",
      "type": "function"
    },
    {
      "inputs": [
        {
          "internalType": "address",
          "name": "member",
          "type": "address"
        },
        {
          "internalType": "address",
          "name": "token",
          "type": "address"
        }
      ],
      "name": "getCoverage",
      "outputs": [
        {
          "internalType": "uint256",
          "name": "",
          "type": "uint256"
        }
      ],
      "stateMutability": "view",
      "type": "function"
    },
    {
      "inputs": [
        {
          "internalType": "address",
          "name": "member",
          "type": "address"
        },
        {
          "internalType": "address",
          "name": "base",
          "type": "address"
        },
        {
          "internalType": "address",
          "name": "token",
          "type": "address"
        },
        {
          "internalType": "uint256",
          "name": "basisPoints",
          "type": "uint256"
        }
      ],
      "name": "getILProtection",
      "outputs": [
        {
          "internalType": "uint256",
          "name": "protection",
          "type": "uint256"
        }
      ],
      "stateMutability": "view",
      "type": "function"
    },
    {
      "inputs": [],
      "name": "getInterestPayment",
      "outputs": [],
      "stateMutability": "nonpayable",
      "type": "function"
    },
    {
      "inputs": [
        {
          "internalType": "address",
          "name": "member",
          "type": "address"
        },
        {
          "internalType": "address",
          "name": "token",
          "type": "address"
        },
        {
          "internalType": "uint256",
          "name": "basisPoints",
          "type": "uint256"
        },
        {
          "internalType": "uint256",
          "name": "coverage",
          "type": "uint256"
        }
      ],
      "name": "getProtection",
      "outputs": [
        {
          "internalType": "uint256",
          "name": "protection",
          "type": "uint256"
        }
      ],
      "stateMutability": "view",
      "type": "function"
    },
    {
      "inputs": [
        {
          "internalType": "uint256",
          "name": "amount",
          "type": "uint256"
        }
      ],
      "name": "getReducedShare",
      "outputs": [
        {
          "internalType": "uint256",
          "name": "",
          "type": "uint256"
        }
      ],
      "stateMutability": "view",
      "type": "function"
    },
    {
      "inputs": [
        {
          "internalType": "address",
          "name": "token",
          "type": "address"
        }
      ],
      "name": "getRewardShare",
      "outputs": [
        {
          "internalType": "uint256",
          "name": "rewardShare",
          "type": "uint256"
        }
      ],
      "stateMutability": "view",
      "type": "function"
    },
    {
      "inputs": [
        {
          "internalType": "uint256",
          "name": "vaderAmount",
          "type": "uint256"
        }
      ],
      "name": "getUSDVAmount",
      "outputs": [
        {
          "internalType": "uint256",
          "name": "USDVAmount",
          "type": "uint256"
        }
      ],
      "stateMutability": "view",
      "type": "function"
    },
    {
      "inputs": [
        {
          "internalType": "uint256",
          "name": "USDVAmount",
          "type": "uint256"
        }
      ],
      "name": "getVADERAmount",
      "outputs": [
        {
          "internalType": "uint256",
          "name": "vaderAmount",
          "type": "uint256"
        }
      ],
      "stateMutability": "view",
      "type": "function"
    },
    {
      "inputs": [
        {
          "internalType": "address",
          "name": "_vader",
          "type": "address"
        },
        {
          "internalType": "address",
          "name": "_usdv",
          "type": "address"
        },
        {
          "internalType": "address",
          "name": "_pool",
          "type": "address"
        }
      ],
      "name": "init",
      "outputs": [],
      "stateMutability": "nonpayable",
      "type": "function"
    },
    {
      "inputs": [
        {
          "internalType": "address",
          "name": "token",
          "type": "address"
        }
      ],
      "name": "isBase",
      "outputs": [
        {
          "internalType": "bool",
          "name": "_isBase",
          "type": "bool"
        }
      ],
      "stateMutability": "view",
      "type": "function"
    },
    {
      "inputs": [
        {
          "internalType": "address",
          "name": "token",
          "type": "address"
        }
      ],
      "name": "isCurated",
      "outputs": [
        {
          "internalType": "bool",
          "name": "curated",
          "type": "bool"
        }
      ],
      "stateMutability": "view",
      "type": "function"
    },
    {
      "inputs": [
        {
          "internalType": "address",
          "name": "token",
          "type": "address"
        }
      ],
      "name": "listAnchor",
      "outputs": [],
      "stateMutability": "nonpayable",
      "type": "function"
    },
    {
      "inputs": [
        {
          "internalType": "address",
          "name": "",
          "type": "address"
        },
        {
          "internalType": "address",
          "name": "",
          "type": "address"
        }
      ],
      "name": "mapMemberToken_depositBase",
      "outputs": [
        {
          "internalType": "uint256",
          "name": "",
          "type": "uint256"
        }
      ],
      "stateMutability": "view",
      "type": "function"
    },
    {
      "inputs": [
        {
          "internalType": "address",
          "name": "",
          "type": "address"
        },
        {
          "internalType": "address",
          "name": "",
          "type": "address"
        }
      ],
      "name": "mapMemberToken_depositToken",
      "outputs": [
        {
          "internalType": "uint256",
          "name": "",
          "type": "uint256"
        }
      ],
      "stateMutability": "view",
      "type": "function"
    },
    {
      "inputs": [
        {
          "internalType": "address",
          "name": "",
          "type": "address"
        },
        {
          "internalType": "address",
          "name": "",
          "type": "address"
        }
      ],
      "name": "mapMemberToken_lastDeposited",
      "outputs": [
        {
          "internalType": "uint256",
          "name": "",
          "type": "uint256"
        }
      ],
      "stateMutability": "view",
      "type": "function"
    },
    {
      "inputs": [],
      "name": "payBack",
      "outputs": [],
      "stateMutability": "nonpayable",
      "type": "function"
    },
    {
      "inputs": [
        {
          "internalType": "uint256",
          "name": "shareVADER",
          "type": "uint256"
        },
        {
          "internalType": "uint256",
          "name": "shareUSDV",
          "type": "uint256"
        }
      ],
      "name": "pullIncentives",
      "outputs": [],
      "stateMutability": "nonpayable",
      "type": "function"
    },
    {
      "inputs": [],
      "name": "purgeMember",
      "outputs": [],
      "stateMutability": "nonpayable",
      "type": "function"
    },
    {
      "inputs": [
        {
          "internalType": "address",
          "name": "base",
          "type": "address"
        },
        {
          "internalType": "address",
          "name": "token",
          "type": "address"
        },
        {
          "internalType": "uint256",
          "name": "basisPoints",
          "type": "uint256"
        }
      ],
      "name": "removeLiquidity",
      "outputs": [
        {
          "internalType": "uint256",
          "name": "amountBase",
          "type": "uint256"
        },
        {
          "internalType": "uint256",
          "name": "amountToken",
          "type": "uint256"
        }
      ],
      "stateMutability": "nonpayable",
      "type": "function"
    },
    {
      "inputs": [
        {
          "internalType": "address",
          "name": "oldToken",
          "type": "address"
        },
        {
          "internalType": "address",
          "name": "newToken",
          "type": "address"
        }
      ],
      "name": "replaceAnchor",
      "outputs": [],
      "stateMutability": "nonpayable",
      "type": "function"
    },
    {
      "inputs": [
        {
          "internalType": "address",
          "name": "oldToken",
          "type": "address"
        },
        {
          "internalType": "address",
          "name": "newToken",
          "type": "address"
        }
      ],
      "name": "replacePool",
      "outputs": [],
      "stateMutability": "nonpayable",
      "type": "function"
    },
    {
      "inputs": [],
      "name": "reserveUSDV",
      "outputs": [
        {
          "internalType": "uint256",
          "name": "",
          "type": "uint256"
        }
      ],
      "stateMutability": "view",
      "type": "function"
    },
    {
      "inputs": [],
      "name": "reserveVADER",
      "outputs": [
        {
          "internalType": "uint256",
          "name": "",
          "type": "uint256"
        }
      ],
      "stateMutability": "view",
      "type": "function"
    },
    {
      "inputs": [],
      "name": "rewardReductionFactor",
      "outputs": [
        {
          "internalType": "uint256",
          "name": "",
          "type": "uint256"
        }
      ],
      "stateMutability": "view",
      "type": "function"
    },
    {
      "inputs": [
        {
          "internalType": "uint256",
          "name": "_one",
          "type": "uint256"
        },
        {
          "internalType": "uint256",
          "name": "_two",
          "type": "uint256"
        },
        {
          "internalType": "uint256",
          "name": "_three",
          "type": "uint256"
        }
      ],
      "name": "setParams",
      "outputs": [],
      "stateMutability": "nonpayable",
      "type": "function"
    },
    {
      "inputs": [
        {
          "internalType": "uint256",
          "name": "inputAmount",
          "type": "uint256"
        },
        {
          "internalType": "address",
          "name": "inputToken",
          "type": "address"
        },
        {
          "internalType": "address",
          "name": "outputToken",
          "type": "address"
        }
      ],
      "name": "swap",
      "outputs": [
        {
          "internalType": "uint256",
          "name": "outputAmount",
          "type": "uint256"
        }
      ],
      "stateMutability": "nonpayable",
      "type": "function"
    },
    {
      "inputs": [
        {
          "internalType": "uint256",
          "name": "inputAmount",
          "type": "uint256"
        },
        {
          "internalType": "address",
          "name": "inputToken",
          "type": "address"
        },
        {
          "internalType": "address",
          "name": "outputToken",
          "type": "address"
        },
        {
          "internalType": "uint256",
          "name": "slipLimit",
          "type": "uint256"
        }
      ],
      "name": "swapWithLimit",
      "outputs": [
        {
          "internalType": "uint256",
          "name": "outputAmount",
          "type": "uint256"
        }
      ],
      "stateMutability": "nonpayable",
      "type": "function"
    },
    {
      "inputs": [
        {
          "internalType": "uint256",
          "name": "inputAmount",
          "type": "uint256"
        },
        {
          "internalType": "address",
          "name": "inputToken",
          "type": "address"
        },
        {
          "internalType": "bool",
          "name": "inSynth",
          "type": "bool"
        },
        {
          "internalType": "address",
          "name": "outputToken",
          "type": "address"
        },
        {
          "internalType": "bool",
          "name": "outSynth",
          "type": "bool"
        }
      ],
      "name": "swapWithSynths",
      "outputs": [
        {
          "internalType": "uint256",
          "name": "outputAmount",
          "type": "uint256"
        }
      ],
      "stateMutability": "nonpayable",
      "type": "function"
    },
    {
      "inputs": [
        {
          "internalType": "uint256",
          "name": "inputAmount",
          "type": "uint256"
        },
        {
          "internalType": "address",
          "name": "inputToken",
          "type": "address"
        },
        {
          "internalType": "bool",
          "name": "inSynth",
          "type": "bool"
        },
        {
          "internalType": "address",
          "name": "outputToken",
          "type": "address"
        },
        {
          "internalType": "bool",
          "name": "outSynth",
          "type": "bool"
        },
        {
          "internalType": "uint256",
          "name": "slipLimit",
          "type": "uint256"
        }
      ],
      "name": "swapWithSynthsWithLimit",
      "outputs": [
        {
          "internalType": "uint256",
          "name": "outputAmount",
          "type": "uint256"
        }
      ],
      "stateMutability": "nonpayable",
      "type": "function"
    },
    {
      "inputs": [],
      "name": "timeForFullProtection",
      "outputs": [
        {
          "internalType": "uint256",
          "name": "",
          "type": "uint256"
        }
      ],
      "stateMutability": "view",
      "type": "function"
    },
    {
      "inputs": [
        {
          "internalType": "address",
          "name": "token",
          "type": "address"
        }
      ],
      "name": "updateAnchorPrice",
      "outputs": [],
      "stateMutability": "nonpayable",
      "type": "function"
    }
  ],
  "bytecode": "0x6080604052670de0b6b3a764000060015561271060025534801561002257600080fd5b50613d3c806100326000396000f3fe608060405234801561001057600080fd5b506004361061027f5760003560e01c8063774d70e41161015c578063d752fab2116100ce578063e68d356911610087578063e68d3569146102b4578063e8b8cfa014610530578063ebccb5b214610543578063f550394e14610556578063fcf4768614610581578063fdc59b82146105945761027f565b8063d752fab2146104c7578063ddab2385146102b4578063de6ad44e146104ef578063e2c3b046146104f7578063e2e1e48f1461050a578063e6048ff81461051d5761027f565b8063a55bee2a11610120578063a55bee2a14610447578063a9d1c09e1461045a578063b773634814610485578063c6978f2614610498578063cf8bc715146104ab578063d2b43373146104b45761027f565b8063774d70e4146104085780637b0e5c451461041b5780638bc51e361461042357806398fabd3a1461042c57806399a485f5146104345761027f565b8063376d3d5d116101f55780635a4dd3f2116101b95780635a4dd3f2146103b45780635b0b602d146103c757806362cea340146103da57806362f25b5a146102b45780636cc06ded146103e25780636e899aa3146103f55761027f565b8063376d3d5d1461035f57806337785d211461037257806339e68f531461038557806353198438146103985780635a0ce676146103a15761027f565b806317af50e51161024757806317af50e5146102f7578063184b95591461030a5780631a6098271461031d5780631df6acfd14610330578063273961e6146103435780632b7f09231461034c5761027f565b80630168131514610284578063019f64cc146102b4578063038e5eaa146102b65780630781f4d2146102cc57806312a86ffb146102e4575b600080fd5b600854610297906001600160a01b031681565b6040516001600160a01b0390911681526020015b60405180910390f35b005b6102be6105bf565b6040519081526020016102ab565b6102d4610660565b60405190151581526020016102ab565b6102be6102f2366004613867565b6106e2565b6102be610305366004613a11565b610b64565b6102b461031836600461389f565b610b85565b6102be61032b366004613a67565b610c23565b6102b461033e366004613867565b610c40565b6102be60045481565b6102be61035a366004613a41565b610f09565b6102be61036d3660046139be565b610f1d565b6102be610380366004613af5565b610fd7565b6102b4610393366004613828565b611adc565b6102be60055481565b6102b46103af366004613ba8565b611c6c565b6102be6103c2366004613a11565b611ccc565b6102be6103d5366004613979565b611cfb565b6102be611e6f565b6102be6103f0366004613a11565b611eec565b6102d4610403366004613828565b611f07565b6102d4610416366004613828565b611f40565b610297611fe6565b6102be60065481565b610297612063565b6102be610442366004613a8e565b6120a8565b6102b4610455366004613b64565b6120c4565b6102be610468366004613867565b600f60209081526000928352604080842090915290825290205481565b6102be610493366004613828565b6121d6565b6102be6104a6366004613a11565b6125e7565b6102be60035481565b6102b46104c2366004613828565b61267d565b6104da6104d5366004613939565b612794565b604080519283526020830191909152016102ab565b6102be6128cd565b600954610297906001600160a01b031681565b6102b4610518366004613828565b6128fe565b6102be61052b3660046138e9565b612a53565b6102b461053e366004613867565b612ab2565b600a54610297906001600160a01b031681565b6102be610564366004613867565b600d60209081526000928352604080842090915290825290205481565b61029761058f366004613a11565b612c9b565b6102be6105a2366004613867565b600e60209081526000928352604080842090915290825290205481565b600c5460009015610658576000610625600c80548060200260200160405190810160405280929190818152602001828054801561061b57602002820191906000526020600020905b815481526020019060010190808311610607575b5050505050612cc5565b90508060028151811061064857634e487b7160e01b600052603260045260246000fd5b602002602001015191505061065d565b506001545b90565b600854604080516303c0fa6960e11b815290516000926001600160a01b031691630781f4d2916004808301926020929190829003018186803b1580156106a557600080fd5b505afa1580156106b9573d6000803e3d6000fd5b505050506040513d601f19601f820116820180604052508101906106dd91906139f5565b905090565b6001600160a01b038281166000818152600d6020908152604080832086861680855290835281842054858552600e845282852082865290935281842054600a54925163024ef37560e41b8152600481019290925260248201959095529294919392859291909116906324ef37509060440160206040518083038186803b15801561076b57600080fd5b505afa15801561077f573d6000803e3d6000fd5b505050506040513d601f19601f820116820180604052508101906107a39190613a29565b905060006107af611fe6565b600a54604051630fefbc0960e01b81526001600160a01b03898116600483015292831692631ba326c4928692911690630fefbc099060240160206040518083038186803b1580156107ff57600080fd5b505afa158015610813573d6000803e3d6000fd5b505050506040513d601f19601f820116820180604052508101906108379190613a29565b600a5460405163b34c8afb60e01b81526001600160a01b038c811660048301529091169063b34c8afb9060240160206040518083038186803b15801561087c57600080fd5b505afa158015610890573d6000803e3d6000fd5b505050506040513d601f19601f820116820180604052508101906108b49190613a29565b6040516001600160e01b031960e086901b16815260048101939093526024830191909152604482015260640160206040518083038186803b1580156108f857600080fd5b505afa15801561090c573d6000803e3d6000fd5b505050506040513d601f19601f820116820180604052508101906109309190613a29565b9050600061093c611fe6565b600a54604051630fefbc0960e01b81526001600160a01b038a8116600483015292831692631ba326c4928792911690630fefbc099060240160206040518083038186803b15801561098c57600080fd5b505afa1580156109a0573d6000803e3d6000fd5b505050506040513d601f19601f820116820180604052508101906109c49190613a29565b600a5460405163e6ae1a9760e01b81526001600160a01b038d811660048301529091169063e6ae1a979060240160206040518083038186803b158015610a0957600080fd5b505afa158015610a1d573d6000803e3d6000fd5b505050506040513d601f19601f82011682018060405250810190610a419190613a29565b6040516001600160e01b031960e086901b16815260048101939093526024830191909152604482015260640160206040518083038186803b158015610a8557600080fd5b505afa158015610a99573d6000803e3d6000fd5b505050506040513d601f19601f82011682018060405250810190610abd9190613a29565b9050610ac7611fe6565b60405163595a88a760e01b8152600481018790526024810186905260448101849052606481018390526001600160a01b03919091169063595a88a79060840160206040518083038186803b158015610b1e57600080fd5b505afa158015610b32573d6000803e3d6000fd5b505050506040513d601f19601f82011682018060405250810190610b569190613a29565b955050505050505b92915050565b600c8181548110610b7457600080fd5b600091825260209091200154905081565b60005460ff1615610bc65760405162461bcd60e51b81526020600482015260066024820152651a5b9a5d195960d21b60448201526064015b60405180910390fd5b60008054600160ff199091168117909155600880546001600160a01b03199081166001600160a01b039687161790915560098054821694861694909417909355600a80549093169190931617905560038190556004819055600555565b6000610c358585600086600087610fd7565b90505b949350505050565b600a54604051636c66769560e11b81526001600160a01b0383811660048301529091169063d8cced2a9060240160206040518083038186803b158015610c8557600080fd5b505afa158015610c99573d6000803e3d6000fd5b505050506040513d601f19601f82011682018060405250810190610cbd91906139f5565b610cf65760405162461bcd60e51b815260206004820152600a6024820152692737ba1030b731b437b960b11b6044820152606401610bbd565b600a5460405163b34c8afb60e01b81526001600160a01b0384811660048301529091169063b34c8afb9060240160206040518083038186803b158015610d3b57600080fd5b505afa158015610d4f573d6000803e3d6000fd5b505050506040513d601f19601f82011682018060405250810190610d739190613a29565b600a5460405163b34c8afb60e01b81526001600160a01b0384811660048301529091169063b34c8afb9060240160206040518083038186803b158015610db857600080fd5b505afa158015610dcc573d6000803e3d6000fd5b505050506040513d601f19601f82011682018060405250810190610df09190613a29565b11610e2a5760405162461bcd60e51b815260206004820152600a6024820152692737ba103232b2b832b960b11b6044820152606401610bbd565b610e38826101f46000612e1f565b610e458160c86001612e1f565b60005b600b54811015610efb57826001600160a01b0316600b8281548110610e7d57634e487b7160e01b600052603260045260246000fd5b6000918252602090912001546001600160a01b03161415610ee95781600b8281548110610eba57634e487b7160e01b600052603260045260246000fd5b9060005260206000200160006101000a8154816001600160a01b0302191690836001600160a01b031602179055505b80610ef381613cb2565b915050610e48565b50610f05816128fe565b5050565b6000610c3884846000856000612710610fd7565b600080610f2a8686613027565b90506000610f388585613027565b9050610f4633868484613392565b600a5460405163fde3b26560e01b81526001600160a01b039091169063fde3b26590610f7a908a9089903390600401613bd3565b602060405180830381600087803b158015610f9457600080fd5b505af1158015610fa8573d6000803e3d6000fd5b505050506040513d601f19601f82011682018060405250810190610fcc9190613a29565b979650505050505050565b60003385610fef57610fe98789613027565b50611078565b600a54604051636e76408b60e11b81526001600160a01b03898116600483015261107692169063dcec811690602401602060405180830381600087803b15801561103857600080fd5b505af115801561104c573d6000803e3d6000fd5b505050506040513d601f19601f82011682018060405250810190611070919061384b565b89613027565b505b600a54604051636c66769560e11b81526001600160a01b038981166004830152600092169063d8cced2a9060240160206040518083038186803b1580156110be57600080fd5b505afa1580156110d2573d6000803e3d6000fd5b505050506040513d601f19601f820116820180604052508101906110f691906139f5565b806111795750600a54604051636c66769560e11b81526001600160a01b0388811660048301529091169063d8cced2a9060240160206040518083038186803b15801561114157600080fd5b505afa158015611155573d6000803e3d6000fd5b505050506040513d601f19601f8201168201806040525081019061117991906139f5565b1561119057506008546001600160a01b031661119e565b506009546001600160a01b03165b6111a786611f07565b156113e957836111b5611fe6565b600a5460405163e6ae1a9760e01b81526001600160a01b038c8116600483015292831692632db6e488928e9291169063e6ae1a979060240160206040518083038186803b15801561120557600080fd5b505afa158015611219573d6000803e3d6000fd5b505050506040513d601f19601f8201168201806040525081019061123d9190613a29565b6040516001600160e01b031960e085901b1681526004810192909252602482015260440160206040518083038186803b15801561127957600080fd5b505afa15801561128d573d6000803e3d6000fd5b505050506040513d601f19601f820116820180604052508101906112b19190613a29565b11156112bc57600080fd5b8661135157600a5460405163efc34aab60e01b81526001600160a01b039091169063efc34aab906112f89084908c908790600190600401613bf6565b602060405180830381600087803b15801561131257600080fd5b505af1158015611326573d6000803e3d6000fd5b505050506040513d601f19601f8201168201806040525081019061134a9190613a29565b92506113da565b600a546040516371d6d97b60e11b81526001600160a01b039091169063e3adb2f6906113859084908c908790600401613bd3565b602060405180830381600087803b15801561139f57600080fd5b505af11580156113b3573d6000803e3d6000fd5b505050506040513d601f19601f820116820180604052508101906113d79190613a29565b92505b6113e48189613438565b611abe565b6113f288611f07565b1561162f5783611400611fe6565b600a5460405163b34c8afb60e01b81526001600160a01b038a8116600483015292831692632db6e488928e9291169063b34c8afb9060240160206040518083038186803b15801561145057600080fd5b505afa158015611464573d6000803e3d6000fd5b505050506040513d601f19601f820116820180604052508101906114889190613a29565b6040516001600160e01b031960e085901b1681526004810192909252602482015260440160206040518083038186803b1580156114c457600080fd5b505afa1580156114d8573d6000803e3d6000fd5b505050506040513d601f19601f820116820180604052508101906114fc9190613a29565b111561150757600080fd5b8461159c57600a5460405163efc34aab60e01b81526001600160a01b039091169063efc34aab906115439084908a908790600090600401613bf6565b602060405180830381600087803b15801561155d57600080fd5b505af1158015611571573d6000803e3d6000fd5b505050506040513d601f19601f820116820180604052508101906115959190613a29565b9250611625565b600a5460405163680b1a3f60e11b81526001600160a01b039091169063d016347e906115d09084908a908790600401613bd3565b602060405180830381600087803b1580156115ea57600080fd5b505af11580156115fe573d6000803e3d6000fd5b505050506040513d601f19601f820116820180604052508101906116229190613a29565b92505b6113e48187613438565b61163888611f07565b15801561164b575061164986611f07565b155b15611abe5783611659611fe6565b600a5460405163e6ae1a9760e01b81526001600160a01b038c8116600483015292831692632db6e488928e9291169063e6ae1a979060240160206040518083038186803b1580156116a957600080fd5b505afa1580156116bd573d6000803e3d6000fd5b505050506040513d601f19601f820116820180604052508101906116e19190613a29565b6040516001600160e01b031960e085901b1681526004810192909252602482015260440160206040518083038186803b15801561171d57600080fd5b505afa158015611731573d6000803e3d6000fd5b505050506040513d601f19601f820116820180604052508101906117559190613a29565b111561176057600080fd5b866117f457600a5460405163efc34aab60e01b81526001600160a01b039091169063efc34aab9061179c9084908c908590600190600401613bf6565b602060405180830381600087803b1580156117b657600080fd5b505af11580156117ca573d6000803e3d6000fd5b505050506040513d601f19601f820116820180604052508101906117ee9190613a29565b5061187c565b600a546040516371d6d97b60e11b81526001600160a01b039091169063e3adb2f6906118289084908c908590600401613bd3565b602060405180830381600087803b15801561184257600080fd5b505af1158015611856573d6000803e3d6000fd5b505050506040513d601f19601f8201168201806040525081019061187a9190613a29565b505b83611885611fe6565b600a5460405163b34c8afb60e01b81526001600160a01b038a8116600483015292831692632db6e488928e9291169063b34c8afb9060240160206040518083038186803b1580156118d557600080fd5b505afa1580156118e9573d6000803e3d6000fd5b505050506040513d601f19601f8201168201806040525081019061190d9190613a29565b6040516001600160e01b031960e085901b1681526004810192909252602482015260440160206040518083038186803b15801561194957600080fd5b505afa15801561195d573d6000803e3d6000fd5b505050506040513d601f19601f820116820180604052508101906119819190613a29565b111561198c57600080fd5b84611a2157600a5460405163efc34aab60e01b81526001600160a01b039091169063efc34aab906119c89084908a908790600090600401613bf6565b602060405180830381600087803b1580156119e257600080fd5b505af11580156119f6573d6000803e3d6000fd5b505050506040513d601f19601f82011682018060405250810190611a1a9190613a29565b9250611aaa565b600a5460405163680b1a3f60e11b81526001600160a01b039091169063d016347e90611a559084908a908790600401613bd3565b602060405180830381600087803b158015611a6f57600080fd5b505af1158015611a83573d6000803e3d6000fd5b505050506040513d601f19601f82011682018060405250810190611aa79190613a29565b92505b611ab48189613438565b611abe8187613438565b611ac788613585565b611ad086613585565b50509695505050505050565b600b54600511611aeb57600080fd5b600a54604051636c66769560e11b81526001600160a01b0383811660048301529091169063d8cced2a9060240160206040518083038186803b158015611b3057600080fd5b505afa158015611b44573d6000803e3d6000fd5b505050506040513d601f19601f82011682018060405250810190611b6891906139f5565b611b7157600080fd5b600b80546001810182556000919091527f0175b7a638427703f0dbe7bb9bbf987a2551717b34e79f33b5b1008d1fa01db90180546001600160a01b0319166001600160a01b038316179055600c611bc6611fe6565b60015460405163db39dc7960e01b81526001600160a01b038581166004830152602482019290925291169063db39dc799060440160206040518083038186803b158015611c1257600080fd5b505afa158015611c26573d6000803e3d6000fd5b505050506040513d601f19601f82011682018060405250810190611c4a9190613a29565b81546001810183556000928352602090922090910155611c69816128fe565b50565b611c74612063565b6001600160a01b0316336001600160a01b031614611cbe5760405162461bcd60e51b81526020600482015260076024820152664e6f742044414f60c81b6044820152606401610bbd565b600392909255600455600555565b600080611cd76105bf565b90508060015484611ce89190613c7c565b611cf29190613c5c565b9150505b919050565b6000611d0684611f40565b15611de6576001600160a01b038086166000908152600f60209081526040808320938816835292905290812054611d3d9042613c9b565b90506004548111611de057611d50611fe6565b600480546040516306e8c9b160e21b81529182018490526024820152604481018590526001600160a01b039190911690631ba326c49060640160206040518083038186803b158015611da157600080fd5b505afa158015611db5573d6000803e3d6000fd5b505050506040513d601f19601f82011682018060405250810190611dd99190613a29565b9150611de4565b8291505b505b611dee611fe6565b60405163714270ab60e01b815260048101859052602481018390526001600160a01b03919091169063714270ab9060440160206040518083038186803b158015611e3757600080fd5b505afa158015611e4b573d6000803e3d6000fd5b505050506040513d601f19601f82011682018060405250810190610c359190613a29565b6008546040516370a0823160e01b81523060048201526000916001600160a01b0316906370a08231906024015b60206040518083038186803b158015611eb457600080fd5b505afa158015611ec8573d6000803e3d6000fd5b505050506040513d601f19601f820116820180604052508101906106dd9190613a29565b600080611ef76105bf565b600154909150611ce88483613c7c565b6008546000906001600160a01b0383811691161480611f3357506009546001600160a01b038381169116145b15611cf657506001919050565b6001600160a01b03811660009081526007602052604081205460ff1615611f6957506001611cf6565b600a54604051636c66769560e11b81526001600160a01b0384811660048301529091169063d8cced2a9060240160206040518083038186803b158015611fae57600080fd5b505afa158015611fc2573d6000803e3d6000fd5b505050506040513d601f19601f82011682018060405250810190611f3391906139f5565b60085460408051637b0e5c4560e01b815290516000926001600160a01b031691637b0e5c45916004808301926020929190829003018186803b15801561202b57600080fd5b505afa15801561203f573d6000803e3d6000fd5b505050506040513d601f19601f820116820180604052508101906106dd919061384b565b60085460408051634c7d5e9d60e11b815290516000926001600160a01b0316916398fabd3a916004808301926020929190829003018186803b15801561202b57600080fd5b60006120ba8686868686612710610fd7565b9695505050505050565b6008546040516323b872dd60e01b81526001600160a01b03909116906323b872dd906120f890339030908790600401613c20565b602060405180830381600087803b15801561211257600080fd5b505af1158015612126573d6000803e3d6000fd5b505050506040513d601f19601f8201168201806040525081019061214a91906139f5565b506009546040516323b872dd60e01b81526001600160a01b03909116906323b872dd9061217f90339030908690600401613c20565b602060405180830381600087803b15801561219957600080fd5b505af11580156121ad573d6000803e3d6000fd5b505050506040513d601f19601f820116820180604052508101906121d191906139f5565b505050565b60006121e0610660565b80156121f057506121f082611f40565b15611cf657600a5460405163b34c8afb60e01b81526001600160a01b038481166004830152600092169063b34c8afb9060240160206040518083038186803b15801561223b57600080fd5b505afa15801561224f573d6000803e3d6000fd5b505050506040513d601f19601f820116820180604052508101906122739190613a29565b600a5460405163643fd21560e11b81526001600160a01b03868116600483015292935091169063c87fa42a9060240160206040518083038186803b1580156122ba57600080fd5b505afa1580156122ce573d6000803e3d6000fd5b505050506040513d601f19601f820116820180604052508101906122f291906139f5565b1561242d576000612301611fe6565b6001600160a01b0316631ba326c483600a60009054906101000a90046001600160a01b03166001600160a01b031663a9652dca6040518163ffffffff1660e01b815260040160206040518083038186803b15801561235e57600080fd5b505afa158015612372573d6000803e3d6000fd5b505050506040513d601f19601f820116820180604052508101906123969190613a29565b61239e6128cd565b6040516001600160e01b031960e086901b16815260048101939093526024830191909152604482015260640160206040518083038186803b1580156123e257600080fd5b505afa1580156123f6573d6000803e3d6000fd5b505050506040513d601f19601f8201168201806040525081019061241a9190613a29565b9050612425816125e7565b9250506125e1565b600a54604051636c66769560e11b81526001600160a01b0385811660048301529091169063d8cced2a9060240160206040518083038186803b15801561247257600080fd5b505afa158015612486573d6000803e3d6000fd5b505050506040513d601f19601f820116820180604052508101906124aa91906139f5565b156125e15760006124b9611fe6565b6001600160a01b0316631ba326c483600a60009054906101000a90046001600160a01b03166001600160a01b031663dd5a2bd86040518163ffffffff1660e01b815260040160206040518083038186803b15801561251657600080fd5b505afa15801561252a573d6000803e3d6000fd5b505050506040513d601f19601f8201168201806040525081019061254e9190613a29565b612556611e6f565b6040516001600160e01b031960e086901b16815260048101939093526024830191909152604482015260640160206040518083038186803b15801561259a57600080fd5b505afa1580156125ae573d6000803e3d6000fd5b505050506040513d601f19601f820116820180604052508101906125d29190613a29565b90506125dd816125e7565b9250505b50919050565b60006125f1611fe6565b6003546040516306e8c9b160e21b8152600160048201526024810191909152604481018490526001600160a01b039190911690631ba326c49060640160206040518083038186803b15801561264557600080fd5b505afa158015612659573d6000803e3d6000fd5b505050506040513d601f19601f82011682018060405250810190610b5e9190613a29565b600a5460405163643fd21560e11b81526001600160a01b0383811660048301529091169063c87fa42a9060240160206040518083038186803b1580156126c257600080fd5b505afa1580156126d6573d6000803e3d6000fd5b505050506040513d601f19601f820116820180604052508101906126fa91906139f5565b61270357600080fd5b61270c81611f40565b61275b57600554600654101561275b576001600160a01b0381166000908152600760205260408120805460ff191660019081179091556006805491929091612755908490613c44565b90915550505b6040516001600160a01b0382169033907fb2f6cc014bc6265032f32972254d5e024ec51ed94c0aaf2280128336be54a04190600090a350565b600a54604051636ba97d5960e11b815260009182916001600160a01b039091169063d752fab2906127cd90889088908890600401613c20565b6040805180830381600087803b1580156127e657600080fd5b505af11580156127fa573d6000803e3d6000fd5b505050506040513d601f19601f8201168201806040525081019061281e9190613b85565b909250905033600061283282888888612a53565b905061284082878784613610565b60405163a9059cbb60e01b81526001600160a01b0383811660048301526024820183905288169063a9059cbb90604401602060405180830381600087803b15801561288a57600080fd5b505af115801561289e573d6000803e3d6000fd5b505050506040513d601f19601f820116820180604052508101906128c291906139f5565b505050935093915050565b6009546040516370a0823160e01b81523060048201526000916001600160a01b0316906370a0823190602401611e9c565b60005b600b54811015610f0557816001600160a01b0316600b828154811061293657634e487b7160e01b600052603260045260246000fd5b6000918252602090912001546001600160a01b03161415612a4157612959611fe6565b6001600160a01b031663db39dc79600b838154811061298857634e487b7160e01b600052603260045260246000fd5b60009182526020909120015460015460405160e084901b6001600160e01b03191681526001600160a01b039092166004830152602482015260440160206040518083038186803b1580156129db57600080fd5b505afa1580156129ef573d6000803e3d6000fd5b505050506040513d601f19601f82011682018060405250810190612a139190613a29565b600c8281548110612a3457634e487b7160e01b600052603260045260246000fd5b6000918252602090912001555b80612a4b81613cb2565b915050612901565b6000612a658584846103d589886106e2565b6008549091506001600160a01b0385811691161415612a9c57612a86611e6f565b8110612a9757612a94611e6f565b90505b610c38565b612aa46128cd565b8110610c3857610c356128cd565b600a5460405163643fd21560e11b81526001600160a01b0383811660048301529091169063c87fa42a9060240160206040518083038186803b158015612af757600080fd5b505afa158015612b0b573d6000803e3d6000fd5b505050506040513d601f19601f82011682018060405250810190612b2f91906139f5565b612b3857600080fd5b600a5460405163b34c8afb60e01b81526001600160a01b0384811660048301529091169063b34c8afb9060240160206040518083038186803b158015612b7d57600080fd5b505afa158015612b91573d6000803e3d6000fd5b505050506040513d601f19601f82011682018060405250810190612bb59190613a29565b600a5460405163b34c8afb60e01b81526001600160a01b0384811660048301529091169063b34c8afb9060240160206040518083038186803b158015612bfa57600080fd5b505afa158015612c0e573d6000803e3d6000fd5b505050506040513d601f19601f82011682018060405250810190612c329190613a29565b1115610f05576001600160a01b03808316600090815260076020526040808220805460ff1990811690915592841680835281832080549094166001179093555133917fb2f6cc014bc6265032f32972254d5e024ec51ed94c0aaf2280128336be54a04191a35050565b600b8181548110612cab57600080fd5b6000918252602090912001546001600160a01b0316905081565b805160609060005b81811015612e17576000612ce2826001613c44565b90505b82811015612e0457848181518110612d0d57634e487b7160e01b600052603260045260246000fd5b6020026020010151858381518110612d3557634e487b7160e01b600052603260045260246000fd5b60200260200101511115612df2576000858381518110612d6557634e487b7160e01b600052603260045260246000fd5b60200260200101519050858281518110612d8f57634e487b7160e01b600052603260045260246000fd5b6020026020010151868481518110612db757634e487b7160e01b600052603260045260246000fd5b60200260200101818152505080868381518110612de457634e487b7160e01b600052603260045260246000fd5b602002602001018181525050505b80612dfc81613cb2565b915050612ce5565b5080612e0f81613cb2565b915050612ccd565b509192915050565b6000612e296105bf565b90506000612e35611fe6565b60015460405163db39dc7960e01b81526001600160a01b038881166004830152602482019290925291169063db39dc799060440160206040518083038186803b158015612e8157600080fd5b505afa158015612e95573d6000803e3d6000fd5b505050506040513d601f19601f82011682018060405250810190612eb99190613a29565b90506000612ec5611fe6565b6001600160a01b031663714270ab86600254612ee19190613c9b565b856040518363ffffffff1660e01b8152600401612f08929190918252602082015260400190565b60206040518083038186803b158015612f2057600080fd5b505afa158015612f34573d6000803e3d6000fd5b505050506040513d601f19601f82011682018060405250810190612f589190613a29565b600254909150600090612f6b8782613c44565b612f759086613c7c565b612f7f9190613c5c565b90508415612fd557818310158015612f975750808311155b612fd05760405162461bcd60e51b815260206004820152600a6024820152694e6f7420696e7369646560b01b6044820152606401610bbd565b61301e565b8183111580612fe45750808310155b61301e5760405162461bcd60e51b815260206004820152600b60248201526a4e6f74206f75747369646560a81b6044820152606401610bbd565b50505050505050565b6008546000906001600160a01b038481169116148061305357506009546001600160a01b038481169116145b806130d85750600a54604051632f011bf560e11b81526001600160a01b03858116600483015290911690635e0237ea90602401602060405180830381600087803b1580156130a057600080fd5b505af11580156130b4573d6000803e3d6000fd5b505050506040513d601f19601f820116820180604052508101906130d891906139f5565b156132005750803233141561317357600a546040516302ccb1b360e41b81526001600160a01b0391821660048201526024810184905290841690632ccb1b3090604401602060405180830381600087803b15801561313557600080fd5b505af1158015613149573d6000803e3d6000fd5b505050506040513d601f19601f8201168201806040525081019061316d91906139f5565b506131fb565b600a546040516323b872dd60e01b81526001600160a01b03808616926323b872dd926131a792339216908790600401613c20565b602060405180830381600087803b1580156131c157600080fd5b505af11580156131d5573d6000803e3d6000fd5b505050506040513d601f19601f820116820180604052508101906131f991906139f5565b505b610b5e565b600a546040516370a0823160e01b81526001600160a01b0391821660048201526000918516906370a082319060240160206040518083038186803b15801561324757600080fd5b505afa15801561325b573d6000803e3d6000fd5b505050506040513d601f19601f8201168201806040525081019061327f9190613a29565b600a546040516323b872dd60e01b81529192506001600160a01b03808716926323b872dd926132b79233929116908890600401613c20565b602060405180830381600087803b1580156132d157600080fd5b505af11580156132e5573d6000803e3d6000fd5b505050506040513d601f19601f8201168201806040525081019061330991906139f5565b50600a546040516370a0823160e01b81526001600160a01b03918216600482015282918616906370a082319060240160206040518083038186803b15801561335057600080fd5b505afa158015613364573d6000803e3d6000fd5b505050506040513d601f19601f820116820180604052508101906133889190613a29565b610c389190613c9b565b6001600160a01b038085166000908152600d60209081526040808320938716835292905290812080548492906133c9908490613c44565b90915550506001600160a01b038085166000908152600e6020908152604080832093871683529290529081208054839290613405908490613c44565b9091555050506001600160a01b039283166000908152600f60209081526040808320949095168252929092525020429055565b6000613443826121d6565b600a5460405163a9059cbb60e01b81526001600160a01b0391821660048201526024810183905291925084169063a9059cbb90604401602060405180830381600087803b15801561349357600080fd5b505af11580156134a7573d6000803e3d6000fd5b505050506040513d601f19601f820116820180604052508101906134cb91906139f5565b50600a54604051633041949b60e01b81526001600160a01b038581166004830152848116602483015290911690633041949b90604401600060405180830381600087803b15801561351b57600080fd5b505af115801561352f573d6000803e3d6000fd5b50505050816001600160a01b0316836001600160a01b03167f416b0b234ccd4d6d72c4b1a3a09b472a71981d9bbf0f26ab44774e0e3425fad68360405161357891815260200190565b60405180910390a3505050565b600a54604051636c66769560e11b81526001600160a01b0383811660048301529091169063d8cced2a9060240160206040518083038186803b1580156135ca57600080fd5b505afa1580156135de573d6000803e3d6000fd5b505050506040513d601f19601f8201168201806040525081019061360291906139f5565b15611c6957611c69816128fe565b6001600160a01b038085166000908152600d6020908152604080832093871683529290529081208054839290613647908490613c44565b9091555060009050613657611fe6565b6001600160a01b038681166000908152600d6020908152604080832089851684529091529081902054905163714270ab60e01b815260048101879052602481019190915291169063714270ab9060440160206040518083038186803b1580156136bf57600080fd5b505afa1580156136d3573d6000803e3d6000fd5b505050506040513d601f19601f820116820180604052508101906136f79190613a29565b90506000613703611fe6565b6001600160a01b038781166000908152600e602090815260408083208a851684529091529081902054905163714270ab60e01b815260048101889052602481019190915291169063714270ab9060440160206040518083038186803b15801561376b57600080fd5b505afa15801561377f573d6000803e3d6000fd5b505050506040513d601f19601f820116820180604052508101906137a39190613a29565b6001600160a01b038088166000908152600d60209081526040808320938a168352929052908120805492935084929091906137df908490613c9b565b90915550506001600160a01b038087166000908152600e602090815260408083209389168352929052908120805483929061381b908490613c9b565b9091555050505050505050565b600060208284031215613839578081fd5b813561384481613ce3565b9392505050565b60006020828403121561385c578081fd5b815161384481613ce3565b60008060408385031215613879578081fd5b823561388481613ce3565b9150602083013561389481613ce3565b809150509250929050565b6000806000606084860312156138b3578081fd5b83356138be81613ce3565b925060208401356138ce81613ce3565b915060408401356138de81613ce3565b809150509250925092565b600080600080608085870312156138fe578081fd5b843561390981613ce3565b9350602085013561391981613ce3565b9250604085013561392981613ce3565b9396929550929360600135925050565b60008060006060848603121561394d578283fd5b833561395881613ce3565b9250602084013561396881613ce3565b929592945050506040919091013590565b6000806000806080858703121561398e578384fd5b843561399981613ce3565b935060208501356139a981613ce3565b93969395505050506040820135916060013590565b600080600080608085870312156139d3578384fd5b84356139de81613ce3565b935060208501359250604085013561392981613ce3565b600060208284031215613a06578081fd5b815161384481613cf8565b600060208284031215613a22578081fd5b5035919050565b600060208284031215613a3a578081fd5b5051919050565b600080600060608486031215613a55578283fd5b8335925060208401356138ce81613ce3565b60008060008060808587031215613a7c578384fd5b84359350602085013561391981613ce3565b600080600080600060a08688031215613aa5578283fd5b853594506020860135613ab781613ce3565b93506040860135613ac781613cf8565b92506060860135613ad781613ce3565b91506080860135613ae781613cf8565b809150509295509295909350565b60008060008060008060c08789031215613b0d578384fd5b863595506020870135613b1f81613ce3565b94506040870135613b2f81613cf8565b93506060870135613b3f81613ce3565b92506080870135613b4f81613cf8565b8092505060a087013590509295509295509295565b60008060408385031215613b76578182fd5b50508035926020909101359150565b60008060408385031215613b97578182fd5b505080516020909101519092909150565b600080600060608486031215613bbc578081fd5b505081359360208301359350604090920135919050565b6001600160a01b0393841681529183166020830152909116604082015260600190565b6001600160a01b039485168152928416602084015292166040820152901515606082015260800190565b6001600160a01b039384168152919092166020820152604081019190915260600190565b60008219821115613c5757613c57613ccd565b500190565b600082613c7757634e487b7160e01b81526012600452602481fd5b500490565b6000816000190483118215151615613c9657613c96613ccd565b500290565b600082821015613cad57613cad613ccd565b500390565b6000600019821415613cc657613cc6613ccd565b5060010190565b634e487b7160e01b600052601160045260246000fd5b6001600160a01b0381168114611c6957600080fd5b8015158114611c6957600080fdfea2646970667358221220f1a5211bab402c59fb25981c6c9fa097313e8765a291ba461b7cf24d8c27086864736f6c63430008030033",
  "linkReferences": {},
  "deployedLinkReferences": {}
}