{
  "_format": "hh-sol-artifact-1",
  "contractName": "Router",
  "sourceName": "contracts/Router.sol",
  "abi": [
    {
      "inputs": [],
      "stateMutability": "nonpayable",
      "type": "constructor"
    },
    {
      "anonymous": false,
      "inputs": [
        {
          "indexed": true,
          "internalType": "address",
          "name": "member",
          "type": "address"
        },
        {
          "indexed": true,
          "internalType": "address",
          "name": "collateralAsset",
          "type": "address"
        },
        {
          "indexed": false,
          "internalType": "uint256",
          "name": "collateralLocked",
          "type": "uint256"
        },
        {
          "indexed": true,
          "internalType": "address",
          "name": "debtAsset",
          "type": "address"
        },
        {
          "indexed": false,
          "internalType": "uint256",
          "name": "debtIssued",
          "type": "uint256"
        }
      ],
      "name": "AddCollateral",
      "type": "event"
    },
    {
      "anonymous": false,
      "inputs": [
        {
          "indexed": true,
          "internalType": "address",
          "name": "curator",
          "type": "address"
        },
        {
          "indexed": true,
          "internalType": "address",
          "name": "token",
          "type": "address"
        }
      ],
      "name": "Curated",
      "type": "event"
    },
    {
      "anonymous": false,
      "inputs": [
        {
          "indexed": true,
          "internalType": "address",
          "name": "base",
          "type": "address"
        },
        {
          "indexed": true,
          "internalType": "address",
          "name": "token",
          "type": "address"
        },
        {
          "indexed": false,
          "internalType": "uint256",
          "name": "amount",
          "type": "uint256"
        }
      ],
      "name": "PoolReward",
      "type": "event"
    },
    {
      "anonymous": false,
      "inputs": [
        {
          "indexed": true,
          "internalType": "address",
          "name": "member",
          "type": "address"
        },
        {
          "indexed": false,
          "internalType": "uint256",
          "name": "amount",
          "type": "uint256"
        }
      ],
      "name": "Protection",
      "type": "event"
    },
    {
      "anonymous": false,
      "inputs": [
        {
          "indexed": true,
          "internalType": "address",
          "name": "member",
          "type": "address"
        },
        {
          "indexed": true,
          "internalType": "address",
          "name": "collateralAsset",
          "type": "address"
        },
        {
          "indexed": false,
          "internalType": "uint256",
          "name": "collateralUnlocked",
          "type": "uint256"
        },
        {
          "indexed": true,
          "internalType": "address",
          "name": "debtAsset",
          "type": "address"
        },
        {
          "indexed": false,
          "internalType": "uint256",
          "name": "debtReturned",
          "type": "uint256"
        }
      ],
      "name": "RemoveCollateral",
      "type": "event"
    },
    {
      "inputs": [],
      "name": "DAO",
      "outputs": [
        {
          "internalType": "address",
          "name": "",
          "type": "address"
        }
      ],
      "stateMutability": "view",
      "type": "function"
    },
    {
      "inputs": [],
      "name": "POOLS",
      "outputs": [
        {
          "internalType": "address",
          "name": "",
          "type": "address"
        }
      ],
      "stateMutability": "view",
      "type": "function"
    },
    {
      "inputs": [],
      "name": "USDV",
      "outputs": [
        {
          "internalType": "address",
          "name": "",
          "type": "address"
        }
      ],
      "stateMutability": "view",
      "type": "function"
    },
    {
      "inputs": [],
      "name": "UTILS",
      "outputs": [
        {
          "internalType": "address",
          "name": "",
          "type": "address"
        }
      ],
      "stateMutability": "view",
      "type": "function"
    },
    {
      "inputs": [],
      "name": "VADER",
      "outputs": [
        {
          "internalType": "address",
          "name": "",
          "type": "address"
        }
      ],
      "stateMutability": "view",
      "type": "function"
    },
    {
      "inputs": [
        {
          "internalType": "address",
          "name": "base",
          "type": "address"
        },
        {
          "internalType": "uint256",
          "name": "inputBase",
          "type": "uint256"
        },
        {
          "internalType": "address",
          "name": "token",
          "type": "address"
        },
        {
          "internalType": "uint256",
          "name": "inputToken",
          "type": "uint256"
        }
      ],
      "name": "addLiquidity",
      "outputs": [
        {
          "internalType": "uint256",
          "name": "",
          "type": "uint256"
        }
      ],
      "stateMutability": "nonpayable",
      "type": "function"
    },
    {
      "inputs": [],
      "name": "anchorLimit",
      "outputs": [
        {
          "internalType": "uint256",
          "name": "",
          "type": "uint256"
        }
      ],
      "stateMutability": "view",
      "type": "function"
    },
    {
      "inputs": [
        {
          "internalType": "uint256",
          "name": "",
          "type": "uint256"
        }
      ],
      "name": "arrayAnchors",
      "outputs": [
        {
          "internalType": "address",
          "name": "",
          "type": "address"
        }
      ],
      "stateMutability": "view",
      "type": "function"
    },
    {
      "inputs": [
        {
          "internalType": "uint256",
          "name": "",
          "type": "uint256"
        }
      ],
      "name": "arrayPrices",
      "outputs": [
        {
          "internalType": "uint256",
          "name": "",
          "type": "uint256"
        }
      ],
      "stateMutability": "view",
      "type": "function"
    },
    {
      "inputs": [
        {
          "internalType": "address",
          "name": "collateralAsset",
          "type": "address"
        },
        {
          "internalType": "address",
          "name": "debtAsset",
          "type": "address"
        }
      ],
      "name": "assetChecks",
      "outputs": [],
      "stateMutability": "nonpayable",
      "type": "function"
    },
    {
      "inputs": [
        {
          "internalType": "uint256",
          "name": "amount",
          "type": "uint256"
        },
        {
          "internalType": "address",
          "name": "collateralAsset",
          "type": "address"
        },
        {
          "internalType": "address",
          "name": "debtAsset",
          "type": "address"
        }
      ],
      "name": "borrow",
      "outputs": [
        {
          "internalType": "uint256",
          "name": "",
          "type": "uint256"
        }
      ],
      "stateMutability": "nonpayable",
      "type": "function"
    },
    {
      "inputs": [
        {
          "internalType": "address",
          "name": "member",
          "type": "address"
        },
        {
          "internalType": "uint256",
          "name": "amount",
          "type": "uint256"
        },
        {
          "internalType": "address",
          "name": "collateralAsset",
          "type": "address"
        },
        {
          "internalType": "address",
          "name": "debtAsset",
          "type": "address"
        }
      ],
      "name": "borrowForMember",
      "outputs": [
        {
          "internalType": "uint256",
          "name": "",
          "type": "uint256"
        }
      ],
      "stateMutability": "nonpayable",
      "type": "function"
    },
    {
      "inputs": [],
      "name": "checkLiquidate",
      "outputs": [],
      "stateMutability": "nonpayable",
      "type": "function"
    },
    {
      "inputs": [
        {
          "internalType": "address",
          "name": "token",
          "type": "address"
        }
      ],
      "name": "curatePool",
      "outputs": [],
      "stateMutability": "nonpayable",
      "type": "function"
    },
    {
      "inputs": [],
      "name": "curatedPoolCount",
      "outputs": [
        {
          "internalType": "uint256",
          "name": "",
          "type": "uint256"
        }
      ],
      "stateMutability": "view",
      "type": "function"
    },
    {
      "inputs": [],
      "name": "curatedPoolLimit",
      "outputs": [
        {
          "internalType": "uint256",
          "name": "",
          "type": "uint256"
        }
      ],
      "stateMutability": "view",
      "type": "function"
    },
    {
      "inputs": [],
      "name": "emitting",
      "outputs": [
        {
          "internalType": "bool",
          "name": "",
          "type": "bool"
        }
      ],
      "stateMutability": "view",
      "type": "function"
    },
    {
      "inputs": [],
      "name": "getAnchorPrice",
      "outputs": [
        {
          "internalType": "uint256",
          "name": "anchorPrice",
          "type": "uint256"
        }
      ],
      "stateMutability": "view",
      "type": "function"
    },
    {
      "inputs": [
        {
          "internalType": "address",
          "name": "member",
          "type": "address"
        },
        {
          "internalType": "uint256",
          "name": "collateral",
          "type": "uint256"
        },
        {
          "internalType": "address",
          "name": "collateralAsset",
          "type": "address"
        },
        {
          "internalType": "address",
          "name": "debtAsset",
          "type": "address"
        }
      ],
      "name": "getCollateralValueInBase",
      "outputs": [
        {
          "internalType": "uint256",
          "name": "debt",
          "type": "uint256"
        },
        {
          "internalType": "uint256",
          "name": "baseValue",
          "type": "uint256"
        }
      ],
      "stateMutability": "nonpayable",
      "type": "function"
    },
    {
      "inputs": [
        {
          "internalType": "address",
          "name": "member",
          "type": "address"
        },
        {
          "internalType": "address",
          "name": "token",
          "type": "address"
        }
      ],
      "name": "getCoverage",
      "outputs": [
        {
          "internalType": "uint256",
          "name": "",
          "type": "uint256"
        }
      ],
      "stateMutability": "view",
      "type": "function"
    },
    {
      "inputs": [
        {
          "internalType": "address",
          "name": "collateralAsset",
          "type": "address"
        },
        {
          "internalType": "address",
          "name": "debtAsset",
          "type": "address"
        }
      ],
      "name": "getDebtLoading",
      "outputs": [
        {
          "internalType": "uint256",
          "name": "",
          "type": "uint256"
        }
      ],
      "stateMutability": "view",
      "type": "function"
    },
    {
      "inputs": [
        {
          "internalType": "address",
          "name": "member",
          "type": "address"
        },
        {
          "internalType": "uint256",
          "name": "debt",
          "type": "uint256"
        },
        {
          "internalType": "address",
          "name": "collateralAsset",
          "type": "address"
        },
        {
          "internalType": "address",
          "name": "debtAsset",
          "type": "address"
        }
      ],
      "name": "getDebtValueInCollateral",
      "outputs": [
        {
          "internalType": "uint256",
          "name": "",
          "type": "uint256"
        }
      ],
      "stateMutability": "view",
      "type": "function"
    },
    {
      "inputs": [
        {
          "internalType": "address",
          "name": "member",
          "type": "address"
        },
        {
          "internalType": "address",
          "name": "base",
          "type": "address"
        },
        {
          "internalType": "address",
          "name": "token",
          "type": "address"
        },
        {
          "internalType": "uint256",
          "name": "basisPoints",
          "type": "uint256"
        }
      ],
      "name": "getILProtection",
      "outputs": [
        {
          "internalType": "uint256",
          "name": "protection",
          "type": "uint256"
        }
      ],
      "stateMutability": "view",
      "type": "function"
    },
    {
      "inputs": [
        {
          "internalType": "address",
          "name": "collateralAsset",
          "type": "address"
        },
        {
          "internalType": "address",
          "name": "debtAsset",
          "type": "address"
        }
      ],
      "name": "getInterestOwed",
      "outputs": [
        {
          "internalType": "uint256",
          "name": "interestOwed",
          "type": "uint256"
        }
      ],
      "stateMutability": "nonpayable",
      "type": "function"
    },
    {
      "inputs": [
        {
          "internalType": "address",
          "name": "collateralAsset",
          "type": "address"
        },
        {
          "internalType": "address",
          "name": "debtAsset",
          "type": "address"
        }
      ],
      "name": "getInterestPayment",
      "outputs": [
        {
          "internalType": "uint256",
          "name": "",
          "type": "uint256"
        }
      ],
      "stateMutability": "view",
      "type": "function"
    },
    {
      "inputs": [
        {
          "internalType": "address",
          "name": "member",
          "type": "address"
        },
        {
          "internalType": "address",
          "name": "collateralAsset",
          "type": "address"
        },
        {
          "internalType": "address",
          "name": "debtAsset",
          "type": "address"
        }
      ],
      "name": "getMemberCollateral",
      "outputs": [
        {
          "internalType": "uint256",
          "name": "",
          "type": "uint256"
        }
      ],
      "stateMutability": "view",
      "type": "function"
    },
    {
      "inputs": [
        {
          "internalType": "address",
          "name": "member",
          "type": "address"
        },
        {
          "internalType": "address",
          "name": "collateralAsset",
          "type": "address"
        },
        {
          "internalType": "address",
          "name": "debtAsset",
          "type": "address"
        }
      ],
      "name": "getMemberDebt",
      "outputs": [
        {
          "internalType": "uint256",
          "name": "",
          "type": "uint256"
        }
      ],
      "stateMutability": "view",
      "type": "function"
    },
    {
      "inputs": [
        {
          "internalType": "address",
          "name": "member",
          "type": "address"
        },
        {
          "internalType": "address",
          "name": "token",
          "type": "address"
        },
        {
          "internalType": "uint256",
          "name": "basisPoints",
          "type": "uint256"
        },
        {
          "internalType": "uint256",
          "name": "coverage",
          "type": "uint256"
        }
      ],
      "name": "getProtection",
      "outputs": [
        {
          "internalType": "uint256",
          "name": "protection",
          "type": "uint256"
        }
      ],
      "stateMutability": "view",
      "type": "function"
    },
    {
      "inputs": [
        {
          "internalType": "uint256",
          "name": "amount",
          "type": "uint256"
        }
      ],
      "name": "getReducedShare",
      "outputs": [
        {
          "internalType": "uint256",
          "name": "",
          "type": "uint256"
        }
      ],
      "stateMutability": "view",
      "type": "function"
    },
    {
      "inputs": [
        {
          "internalType": "address",
          "name": "token",
          "type": "address"
        }
      ],
      "name": "getRewardShare",
      "outputs": [
        {
          "internalType": "uint256",
          "name": "rewardShare",
          "type": "uint256"
        }
      ],
      "stateMutability": "view",
      "type": "function"
    },
    {
      "inputs": [
        {
          "internalType": "uint256",
          "name": "vaderAmount",
          "type": "uint256"
        }
      ],
      "name": "getUSDVAmount",
      "outputs": [
        {
          "internalType": "uint256",
          "name": "USDVAmount",
          "type": "uint256"
        }
      ],
      "stateMutability": "view",
      "type": "function"
    },
    {
      "inputs": [
        {
          "internalType": "uint256",
          "name": "USDVAmount",
          "type": "uint256"
        }
      ],
      "name": "getVADERAmount",
      "outputs": [
        {
          "internalType": "uint256",
          "name": "vaderAmount",
          "type": "uint256"
        }
      ],
      "stateMutability": "view",
      "type": "function"
    },
    {
      "inputs": [
        {
          "internalType": "address",
          "name": "_vader",
          "type": "address"
        },
        {
          "internalType": "address",
          "name": "_usdv",
          "type": "address"
        },
        {
          "internalType": "address",
          "name": "_pool",
          "type": "address"
        }
      ],
      "name": "init",
      "outputs": [],
      "stateMutability": "nonpayable",
      "type": "function"
    },
    {
      "inputs": [],
      "name": "insidePriceLimit",
      "outputs": [
        {
          "internalType": "uint256",
          "name": "",
          "type": "uint256"
        }
      ],
      "stateMutability": "view",
      "type": "function"
    },
    {
      "inputs": [
        {
          "internalType": "address",
          "name": "token",
          "type": "address"
        }
      ],
      "name": "isBase",
      "outputs": [
        {
          "internalType": "bool",
          "name": "base",
          "type": "bool"
        }
      ],
      "stateMutability": "view",
      "type": "function"
    },
    {
      "inputs": [
        {
          "internalType": "address",
          "name": "token",
          "type": "address"
        }
      ],
      "name": "isCurated",
      "outputs": [
        {
          "internalType": "bool",
          "name": "curated",
          "type": "bool"
        }
      ],
      "stateMutability": "view",
      "type": "function"
    },
    {
      "inputs": [
        {
          "internalType": "address",
          "name": "token",
          "type": "address"
        }
      ],
      "name": "isPool",
      "outputs": [
        {
          "internalType": "bool",
          "name": "pool",
          "type": "bool"
        }
      ],
      "stateMutability": "view",
      "type": "function"
    },
    {
      "inputs": [
        {
          "internalType": "address",
          "name": "token",
          "type": "address"
        }
      ],
      "name": "listAnchor",
      "outputs": [],
      "stateMutability": "nonpayable",
      "type": "function"
    },
    {
      "inputs": [
        {
          "internalType": "address",
          "name": "",
          "type": "address"
        },
        {
          "internalType": "address",
          "name": "",
          "type": "address"
        }
      ],
      "name": "mapCollateralDebt_Collateral",
      "outputs": [
        {
          "internalType": "uint256",
          "name": "",
          "type": "uint256"
        }
      ],
      "stateMutability": "view",
      "type": "function"
    },
    {
      "inputs": [
        {
          "internalType": "address",
          "name": "",
          "type": "address"
        },
        {
          "internalType": "address",
          "name": "",
          "type": "address"
        }
      ],
      "name": "mapCollateralDebt_Debt",
      "outputs": [
        {
          "internalType": "uint256",
          "name": "",
          "type": "uint256"
        }
      ],
      "stateMutability": "view",
      "type": "function"
    },
    {
      "inputs": [
        {
          "internalType": "address",
          "name": "",
          "type": "address"
        },
        {
          "internalType": "address",
          "name": "",
          "type": "address"
        }
      ],
      "name": "mapCollateralDebt_interestPaid",
      "outputs": [
        {
          "internalType": "uint256",
          "name": "",
          "type": "uint256"
        }
      ],
      "stateMutability": "view",
      "type": "function"
    },
    {
      "inputs": [
        {
          "internalType": "address",
          "name": "",
          "type": "address"
        },
        {
          "internalType": "address",
          "name": "",
          "type": "address"
        }
      ],
      "name": "mapMemberToken_depositBase",
      "outputs": [
        {
          "internalType": "uint256",
          "name": "",
          "type": "uint256"
        }
      ],
      "stateMutability": "view",
      "type": "function"
    },
    {
      "inputs": [
        {
          "internalType": "address",
          "name": "",
          "type": "address"
        },
        {
          "internalType": "address",
          "name": "",
          "type": "address"
        }
      ],
      "name": "mapMemberToken_depositToken",
      "outputs": [
        {
          "internalType": "uint256",
          "name": "",
          "type": "uint256"
        }
      ],
      "stateMutability": "view",
      "type": "function"
    },
    {
      "inputs": [
        {
          "internalType": "address",
          "name": "",
          "type": "address"
        },
        {
          "internalType": "address",
          "name": "",
          "type": "address"
        }
      ],
      "name": "mapMemberToken_lastDeposited",
      "outputs": [
        {
          "internalType": "uint256",
          "name": "",
          "type": "uint256"
        }
      ],
      "stateMutability": "view",
      "type": "function"
    },
    {
      "inputs": [],
      "name": "outsidePriceLimit",
      "outputs": [
        {
          "internalType": "uint256",
          "name": "",
          "type": "uint256"
        }
      ],
      "stateMutability": "view",
      "type": "function"
    },
    {
      "inputs": [
        {
          "internalType": "address",
          "name": "base",
          "type": "address"
        },
        {
          "internalType": "address",
          "name": "token",
          "type": "address"
        },
        {
          "internalType": "uint256",
          "name": "basisPoints",
          "type": "uint256"
        }
      ],
      "name": "removeLiquidity",
      "outputs": [
        {
          "internalType": "uint256",
          "name": "amountBase",
          "type": "uint256"
        },
        {
          "internalType": "uint256",
          "name": "amountToken",
          "type": "uint256"
        }
      ],
      "stateMutability": "nonpayable",
      "type": "function"
    },
    {
      "inputs": [
        {
          "internalType": "uint256",
          "name": "amount",
          "type": "uint256"
        },
        {
          "internalType": "address",
          "name": "collateralAsset",
          "type": "address"
        },
        {
          "internalType": "address",
          "name": "debtAsset",
          "type": "address"
        }
      ],
      "name": "repay",
      "outputs": [
        {
          "internalType": "uint256",
          "name": "",
          "type": "uint256"
        }
      ],
      "stateMutability": "nonpayable",
      "type": "function"
    },
    {
      "inputs": [],
      "name": "repayDelay",
      "outputs": [
        {
          "internalType": "uint256",
          "name": "",
          "type": "uint256"
        }
      ],
      "stateMutability": "view",
      "type": "function"
    },
    {
      "inputs": [
        {
          "internalType": "address",
          "name": "member",
          "type": "address"
        },
        {
          "internalType": "uint256",
          "name": "basisPoints",
          "type": "uint256"
        },
        {
          "internalType": "address",
          "name": "collateralAsset",
          "type": "address"
        },
        {
          "internalType": "address",
          "name": "debtAsset",
          "type": "address"
        }
      ],
      "name": "repayForMember",
      "outputs": [
        {
          "internalType": "uint256",
          "name": "collateralUnlocked",
          "type": "uint256"
        }
      ],
      "stateMutability": "nonpayable",
      "type": "function"
    },
    {
      "inputs": [
        {
          "internalType": "address",
          "name": "oldToken",
          "type": "address"
        },
        {
          "internalType": "address",
          "name": "newToken",
          "type": "address"
        }
      ],
      "name": "replaceAnchor",
      "outputs": [],
      "stateMutability": "nonpayable",
      "type": "function"
    },
    {
      "inputs": [
        {
          "internalType": "address",
          "name": "oldToken",
          "type": "address"
        },
        {
          "internalType": "address",
          "name": "newToken",
          "type": "address"
        }
      ],
      "name": "replacePool",
      "outputs": [],
      "stateMutability": "nonpayable",
      "type": "function"
    },
    {
      "inputs": [],
      "name": "reserveUSDV",
      "outputs": [
        {
          "internalType": "uint256",
          "name": "",
          "type": "uint256"
        }
      ],
      "stateMutability": "view",
      "type": "function"
    },
    {
      "inputs": [],
      "name": "reserveVADER",
      "outputs": [
        {
          "internalType": "uint256",
          "name": "",
          "type": "uint256"
        }
      ],
      "stateMutability": "view",
      "type": "function"
    },
    {
      "inputs": [],
      "name": "rewardReductionFactor",
      "outputs": [
        {
          "internalType": "uint256",
          "name": "",
          "type": "uint256"
        }
      ],
      "stateMutability": "view",
      "type": "function"
    },
    {
      "inputs": [
        {
          "internalType": "uint256",
          "name": "newLimit",
          "type": "uint256"
        },
        {
          "internalType": "uint256",
          "name": "newInside",
          "type": "uint256"
        },
        {
          "internalType": "uint256",
          "name": "newOutside",
          "type": "uint256"
        }
      ],
      "name": "setAnchorParams",
      "outputs": [],
      "stateMutability": "nonpayable",
      "type": "function"
    },
    {
      "inputs": [
        {
          "internalType": "uint256",
          "name": "newFactor",
          "type": "uint256"
        },
        {
          "internalType": "uint256",
          "name": "newTime",
          "type": "uint256"
        },
        {
          "internalType": "uint256",
          "name": "newLimit",
          "type": "uint256"
        }
      ],
      "name": "setParams",
      "outputs": [],
      "stateMutability": "nonpayable",
      "type": "function"
    },
    {
      "inputs": [
        {
          "internalType": "uint256",
          "name": "inputAmount",
          "type": "uint256"
        },
        {
          "internalType": "address",
          "name": "inputToken",
          "type": "address"
        },
        {
          "internalType": "address",
          "name": "outputToken",
          "type": "address"
        }
      ],
      "name": "swap",
      "outputs": [
        {
          "internalType": "uint256",
          "name": "outputAmount",
          "type": "uint256"
        }
      ],
      "stateMutability": "nonpayable",
      "type": "function"
    },
    {
      "inputs": [
        {
          "internalType": "uint256",
          "name": "inputAmount",
          "type": "uint256"
        },
        {
          "internalType": "address",
          "name": "inputToken",
          "type": "address"
        },
        {
          "internalType": "address",
          "name": "outputToken",
          "type": "address"
        },
        {
          "internalType": "uint256",
          "name": "slipLimit",
          "type": "uint256"
        }
      ],
      "name": "swapWithLimit",
      "outputs": [
        {
          "internalType": "uint256",
          "name": "outputAmount",
          "type": "uint256"
        }
      ],
      "stateMutability": "nonpayable",
      "type": "function"
    },
    {
      "inputs": [
        {
          "internalType": "uint256",
          "name": "inputAmount",
          "type": "uint256"
        },
        {
          "internalType": "address",
          "name": "inputToken",
          "type": "address"
        },
        {
          "internalType": "bool",
          "name": "inSynth",
          "type": "bool"
        },
        {
          "internalType": "address",
          "name": "outputToken",
          "type": "address"
        },
        {
          "internalType": "bool",
          "name": "outSynth",
          "type": "bool"
        }
      ],
      "name": "swapWithSynths",
      "outputs": [
        {
          "internalType": "uint256",
          "name": "outputAmount",
          "type": "uint256"
        }
      ],
      "stateMutability": "nonpayable",
      "type": "function"
    },
    {
      "inputs": [
        {
          "internalType": "uint256",
          "name": "inputAmount",
          "type": "uint256"
        },
        {
          "internalType": "address",
          "name": "inputToken",
          "type": "address"
        },
        {
          "internalType": "bool",
          "name": "inSynth",
          "type": "bool"
        },
        {
          "internalType": "address",
          "name": "outputToken",
          "type": "address"
        },
        {
          "internalType": "bool",
          "name": "outSynth",
          "type": "bool"
        },
        {
          "internalType": "uint256",
          "name": "slipLimit",
          "type": "uint256"
        }
      ],
      "name": "swapWithSynthsWithLimit",
      "outputs": [
        {
          "internalType": "uint256",
          "name": "outputAmount",
          "type": "uint256"
        }
      ],
      "stateMutability": "nonpayable",
      "type": "function"
    },
    {
      "inputs": [],
      "name": "timeForFullProtection",
      "outputs": [
        {
          "internalType": "uint256",
          "name": "",
          "type": "uint256"
        }
      ],
      "stateMutability": "view",
      "type": "function"
    },
    {
      "inputs": [
        {
          "internalType": "address",
          "name": "token",
          "type": "address"
        }
      ],
      "name": "updateAnchorPrice",
      "outputs": [],
      "stateMutability": "nonpayable",
      "type": "function"
    }
  ],
  "bytecode": "0x6080604052670de0b6b3a7640000600155612710600255610e1060105534801561002857600080fd5b50615ba680620000396000396000f3fe608060405234801561001057600080fd5b50600436106103ba5760003560e01c80638bc51e36116101f4578063d51641841161011a578063e8b8cfa0116100ad578063f550394e1161007c578063f550394e1461081f578063fcf476861461084a578063fdc59b821461085d578063fde3bbe914610888576103ba565b8063e8b8cfa0146107bb578063e9b6e448146107ce578063ebccb5b2146107e1578063eef796d1146107f4576103ba565b8063de6ad44e116100e9578063de6ad44e1461077a578063e2c3b04614610782578063e2e1e48f14610795578063e6048ff8146107a8576103ba565b8063d516418414610738578063d549a1ec1461074b578063d752fab21461075e578063d848915214610771576103ba565b8063b93febdc11610192578063cbc17db311610161578063cbc17db3146106f6578063cf8bc71514610709578063cf975e7b14610712578063d2b4337314610725576103ba565b8063b93febdc14610692578063c2886b8a146106bd578063c6978f26146106d0578063c883b2e5146106e3576103ba565b80639e3f1e8e116101ce5780639e3f1e8e14610638578063a9d1c09e1461064b578063ae746f0214610676578063b77363481461067f576103ba565b80638bc51e361461061457806398fabd3a1461061d57806399a485f514610625576103ba565b806339e68f53116102e45780635b16ebb7116102775780636e899aa3116102465780636e899aa3146105d3578063774d70e4146105e65780637b0e5c45146105f957806380f78c5014610601576103ba565b80635b16ebb71461057d5780635c22141f1461059057806362cea340146105b85780636cc06ded146105c0576103ba565b806358b27216116102b357806358b272161461053f5780635a0ce676146105445780635a4dd3f2146105575780635b0b602d1461056a576103ba565b806339e68f53146104ef5780634cb38782146105025780634eb6887a1461052d5780635319843814610536576103ba565b80631ab73ef51161035c5780632e2d08561161032b5780632e2d0856146104ad5780633494c8e8146104c0578063376d3d5d146104c957806337785d21146104dc576103ba565b80631ab73ef51461046b5780631df6acfd1461047e578063273961e6146104915780632b7f09231461049a576103ba565b806312a86ffb1161039857806312a86ffb1461041d57806317af50e514610430578063184b9559146104435780631a60982714610458576103ba565b806301681315146103bf578063038e5eaa146103ef5780630781f4d214610405575b600080fd5b6008546103d2906001600160a01b031681565b6040516001600160a01b0390911681526020015b60405180910390f35b6103f76108d4565b6040519081526020016103e6565b61040d610975565b60405190151581526020016103e6565b6103f761042b366004615687565b6109f7565b6103f761043e366004615883565b610e79565b6104566104513660046156bf565b610e9a565b005b6103f76104663660046158d9565b610f48565b6103f76104793660046157de565b610f65565b61045661048c366004615687565b6113eb565b6103f760045481565b6103f76104a83660046158b3565b6116ea565b6104566104bb3660046159f9565b611708565b6103f7600b5481565b6103f76104d7366004615830565b611768565b6103f76104ea366004615967565b611822565b6104566104fd36600461564f565b61220c565b6103f7610510366004615687565b601660209081526000928352604080842090915290825290205481565b6103f760105481565b6103f760055481565b610456565b6104566105523660046159f9565b6123bc565b6103f7610565366004615883565b61241c565b6103f7610578366004615799565b61244b565b61040d61058b36600461564f565b6125bf565b6105a361059e3660046157de565b6126cd565b604080519283526020830191909152016103e6565b6103f7612ab7565b6103f76105ce366004615883565b612b34565b61040d6105e136600461564f565b612b4f565b61040d6105f436600461564f565b612b88565b6103d2612bb1565b6103f761060f366004615687565b612c2e565b6103f760065481565b6103d2612df7565b6103f7610633366004615900565b612e3c565b6103f7610646366004615687565b612e58565b6103f7610659366004615687565b601360209081526000928352604080842090915290825290205481565b6103f7600c5481565b6103f761068d36600461564f565b612f19565b6103f76106a0366004615687565b601760209081526000928352604080842090915290825290205481565b6103f76106cb366004615687565b61332a565b6103f76106de366004615883565b61336a565b6103f76106f13660046158b3565b613400565b6103f76107043660046156bf565b61340e565b6103f760035481565b610456610720366004615687565b61344a565b61045661073336600461564f565b61397c565b6103f76107463660046158b3565b613b16565b6103f76107593660046157de565b613b24565b6105a361076c366004615759565b613bd6565b6103f7600d5481565b6103f7613d0b565b6009546103d2906001600160a01b031681565b6104566107a336600461564f565b613d3c565b6103f76107b6366004615709565b613e90565b6104566107c9366004615687565b613eef565b6103f76107dc3660046157de565b6140d8565b600a546103d2906001600160a01b031681565b6103f7610802366004615687565b601560209081526000928352604080842090915290825290205481565b6103f761082d366004615687565b601160209081526000928352604080842090915290825290205481565b6103d2610858366004615883565b6144e2565b6103f761086b366004615687565b601260209081526000928352604080842090915290825290205481565b6103f76108963660046156bf565b6001600160a01b0380841660009081526014602090815260408083208685168452600101825280832093851683526002909301905220549392505050565b600f546000901561096d57600061093a600f80548060200260200160405190810160405280929190818152602001828054801561093057602002820191906000526020600020905b81548152602001906001019080831161091c575b505050505061450c565b90508060028151811061095d57634e487b7160e01b600052603260045260246000fd5b6020026020010151915050610972565b506001545b90565b600854604080516303c0fa6960e11b815290516000926001600160a01b031691630781f4d2916004808301926020929190829003018186803b1580156109ba57600080fd5b505afa1580156109ce573d6000803e3d6000fd5b505050506040513d601f19601f820116820180604052508101906109f29190615867565b905090565b6001600160a01b038281166000818152601160209081526040808320868616808552908352818420548585526012845282852082865290935281842054600a54925163024ef37560e41b8152600481019290925260248201959095529294919392859291909116906324ef37509060440160206040518083038186803b158015610a8057600080fd5b505afa158015610a94573d6000803e3d6000fd5b505050506040513d601f19601f82011682018060405250810190610ab8919061589b565b90506000610ac4612bb1565b600a54604051630fefbc0960e01b81526001600160a01b03898116600483015292831692631ba326c4928692911690630fefbc099060240160206040518083038186803b158015610b1457600080fd5b505afa158015610b28573d6000803e3d6000fd5b505050506040513d601f19601f82011682018060405250810190610b4c919061589b565b600a5460405163b34c8afb60e01b81526001600160a01b038c811660048301529091169063b34c8afb9060240160206040518083038186803b158015610b9157600080fd5b505afa158015610ba5573d6000803e3d6000fd5b505050506040513d601f19601f82011682018060405250810190610bc9919061589b565b6040516001600160e01b031960e086901b16815260048101939093526024830191909152604482015260640160206040518083038186803b158015610c0d57600080fd5b505afa158015610c21573d6000803e3d6000fd5b505050506040513d601f19601f82011682018060405250810190610c45919061589b565b90506000610c51612bb1565b600a54604051630fefbc0960e01b81526001600160a01b038a8116600483015292831692631ba326c4928792911690630fefbc099060240160206040518083038186803b158015610ca157600080fd5b505afa158015610cb5573d6000803e3d6000fd5b505050506040513d601f19601f82011682018060405250810190610cd9919061589b565b600a5460405163e6ae1a9760e01b81526001600160a01b038d811660048301529091169063e6ae1a979060240160206040518083038186803b158015610d1e57600080fd5b505afa158015610d32573d6000803e3d6000fd5b505050506040513d601f19601f82011682018060405250810190610d56919061589b565b6040516001600160e01b031960e086901b16815260048101939093526024830191909152604482015260640160206040518083038186803b158015610d9a57600080fd5b505afa158015610dae573d6000803e3d6000fd5b505050506040513d601f19601f82011682018060405250810190610dd2919061589b565b9050610ddc612bb1565b60405163595a88a760e01b8152600481018790526024810186905260448101849052606481018390526001600160a01b03919091169063595a88a79060840160206040518083038186803b158015610e3357600080fd5b505afa158015610e47573d6000803e3d6000fd5b505050506040513d601f19601f82011682018060405250810190610e6b919061589b565b955050505050505b92915050565b600f8181548110610e8957600080fd5b600091825260209091200154905081565b60005460ff1615610edb5760405162461bcd60e51b81526020600482015260066024820152651a5b9a5d195960d21b60448201526064015b60405180910390fd5b60008054600160ff199091168117909155600880546001600160a01b03199081166001600160a01b039687161790915560098054821694861694909417909355600a805490931691909316179055600381905560048190556005908155600b5560c8600c556101f4600d55565b6000610f5a8585600086600087611822565b90505b949350505050565b6000610f71838361344a565b6000610f7e868587614666565b9050600080610f8f888488886126cd565b6001600160a01b038089166000908152601560209081526040808320938b16835292905290812080549395509193508592610fcb908490615aae565b90915550506001600160a01b03808716600090815260166020908152604080832093891683529290529081208054849290611007908490615aae565b9091555061101a90508884888589614790565b6008546001600160a01b03878116911614806110ae5750600a54604051636c66769560e11b81526001600160a01b0387811660048301529091169063d8cced2a9060240160206040518083038186803b15801561107657600080fd5b505afa15801561108a573d6000803e3d6000fd5b505050506040513d601f19601f820116820180604052508101906110ae9190615867565b156111cf57600854600a5460405163a9059cbb60e01b81526001600160a01b039283169263a9059cbb926110e9929116908590600401615a95565b602060405180830381600087803b15801561110357600080fd5b505af1158015611117573d6000803e3d6000fd5b505050506040513d601f19601f8201168201806040525081019061113b9190615867565b50600a5460085460405163efc34aab60e01b81526001600160a01b039283169263efc34aab926111779291169089908d90600090600401615a47565b602060405180830381600087803b15801561119157600080fd5b505af11580156111a5573d6000803e3d6000fd5b505050506040513d601f19601f820116820180604052508101906111c9919061589b565b50611380565b6009546001600160a01b03878116911614806112635750600a5460405163643fd21560e11b81526001600160a01b0387811660048301529091169063c87fa42a9060240160206040518083038186803b15801561122b57600080fd5b505afa15801561123f573d6000803e3d6000fd5b505050506040513d601f19601f820116820180604052508101906112639190615867565b1561138057600954600a5460405163a9059cbb60e01b81526001600160a01b039283169263a9059cbb9261129e929116908590600401615a95565b602060405180830381600087803b1580156112b857600080fd5b505af11580156112cc573d6000803e3d6000fd5b505050506040513d601f19601f820116820180604052508101906112f09190615867565b50600a5460095460405163efc34aab60e01b81526001600160a01b039283169263efc34aab9261132c9291169089908d90600090600401615a47565b602060405180830381600087803b15801561134657600080fd5b505af115801561135a573d6000803e3d6000fd5b505050506040513d601f19601f8201168201806040525081019061137e919061589b565b505b846001600160a01b0316866001600160a01b0316896001600160a01b03167fae998ad28d77f73e6eb1de185a4d9c3656e19b47125aa0e732ceabecefdd30618a866040516113d8929190918252602082015260400190565b60405180910390a4509695505050505050565b600a54604051636c66769560e11b81526001600160a01b0383811660048301529091169063d8cced2a9060240160206040518083038186803b15801561143057600080fd5b505afa158015611444573d6000803e3d6000fd5b505050506040513d601f19601f820116820180604052508101906114689190615867565b6114a15760405162461bcd60e51b815260206004820152600a6024820152692737ba1030b731b437b960b11b6044820152606401610ed2565b600a5460405163b34c8afb60e01b81526001600160a01b0384811660048301529091169063b34c8afb9060240160206040518083038186803b1580156114e657600080fd5b505afa1580156114fa573d6000803e3d6000fd5b505050506040513d601f19601f8201168201806040525081019061151e919061589b565b600a5460405163b34c8afb60e01b81526001600160a01b0384811660048301529091169063b34c8afb9060240160206040518083038186803b15801561156357600080fd5b505afa158015611577573d6000803e3d6000fd5b505050506040513d601f19601f8201168201806040525081019061159b919061589b565b116115d55760405162461bcd60e51b815260206004820152600a6024820152692737ba103232b2b832b960b11b6044820152606401610ed2565b6115e382600d546000614832565b6115f181600c546001614832565b6001600160a01b03808316600090815260076020526040808220805460ff199081169091559284168252812080549092166001179091555b600e548110156116dc57826001600160a01b0316600e828154811061165e57634e487b7160e01b600052603260045260246000fd5b6000918252602090912001546001600160a01b031614156116ca5781600e828154811061169b57634e487b7160e01b600052603260045260246000fd5b9060005260206000200160006101000a8154816001600160a01b0302191690836001600160a01b031602179055505b806116d481615b1c565b915050611629565b506116e681613d3c565b5050565b60006116fe84846000856000612710611822565b90505b9392505050565b611710612df7565b6001600160a01b0316336001600160a01b03161461175a5760405162461bcd60e51b81526020600482015260076024820152664e6f742044414f60c81b6044820152606401610ed2565b600b92909255600c55600d55565b6000806117758686614a35565b905060006117838585614a35565b905061179133868484614da1565b600a5460405163fde3b26560e01b81526001600160a01b039091169063fde3b265906117c5908a9089903390600401615a24565b602060405180830381600087803b1580156117df57600080fd5b505af11580156117f3573d6000803e3d6000fd5b505050506040513d601f19601f82011682018060405250810190611817919061589b565b979650505050505050565b6000338561183a576118348789614a35565b506118c3565b600a54604051636e76408b60e11b81526001600160a01b0389811660048301526118c192169063dcec811690602401602060405180830381600087803b15801561188357600080fd5b505af1158015611897573d6000803e3d6000fd5b505050506040513d601f19601f820116820180604052508101906118bb919061566b565b89614a35565b505b600a54604051636c66769560e11b81526001600160a01b038981166004830152600092169063d8cced2a9060240160206040518083038186803b15801561190957600080fd5b505afa15801561191d573d6000803e3d6000fd5b505050506040513d601f19601f820116820180604052508101906119419190615867565b806119c45750600a54604051636c66769560e11b81526001600160a01b0388811660048301529091169063d8cced2a9060240160206040518083038186803b15801561198c57600080fd5b505afa1580156119a0573d6000803e3d6000fd5b505050506040513d601f19601f820116820180604052508101906119c49190615867565b156119db57506008546001600160a01b03166119e9565b506009546001600160a01b03165b6119f286612b4f565b15611c2a5783611a00612bb1565b600a5460405163e6ae1a9760e01b81526001600160a01b038c8116600483015292831692632db6e488928e9291169063e6ae1a979060240160206040518083038186803b158015611a5057600080fd5b505afa158015611a64573d6000803e3d6000fd5b505050506040513d601f19601f82011682018060405250810190611a88919061589b565b6040516001600160e01b031960e085901b1681526004810192909252602482015260440160206040518083038186803b158015611ac457600080fd5b505afa158015611ad8573d6000803e3d6000fd5b505050506040513d601f19601f82011682018060405250810190611afc919061589b565b1115611b0757600080fd5b86611b9c57600a5460405163efc34aab60e01b81526001600160a01b039091169063efc34aab90611b439084908c908790600190600401615a47565b602060405180830381600087803b158015611b5d57600080fd5b505af1158015611b71573d6000803e3d6000fd5b505050506040513d601f19601f82011682018060405250810190611b95919061589b565b9250611c25565b600a546040516371d6d97b60e11b81526001600160a01b039091169063e3adb2f690611bd09084908c908790600401615a24565b602060405180830381600087803b158015611bea57600080fd5b505af1158015611bfe573d6000803e3d6000fd5b505050506040513d601f19601f82011682018060405250810190611c22919061589b565b92505b6121da565b611c3388612b4f565b15611db85783611c41612bb1565b600a5460405163b34c8afb60e01b81526001600160a01b038a8116600483015292831692632db6e488928e9291169063b34c8afb9060240160206040518083038186803b158015611c9157600080fd5b505afa158015611ca5573d6000803e3d6000fd5b505050506040513d601f19601f82011682018060405250810190611cc9919061589b565b6040516001600160e01b031960e085901b1681526004810192909252602482015260440160206040518083038186803b158015611d0557600080fd5b505afa158015611d19573d6000803e3d6000fd5b505050506040513d601f19601f82011682018060405250810190611d3d919061589b565b1115611d4857600080fd5b84611d8457600a5460405163efc34aab60e01b81526001600160a01b039091169063efc34aab90611b439084908a908790600090600401615a47565b600a5460405163680b1a3f60e11b81526001600160a01b039091169063d016347e90611bd09084908a908790600401615a24565b611dc188612b4f565b158015611dd45750611dd286612b4f565b155b156121da5783611de2612bb1565b600a5460405163e6ae1a9760e01b81526001600160a01b038c8116600483015292831692632db6e488928e9291169063e6ae1a979060240160206040518083038186803b158015611e3257600080fd5b505afa158015611e46573d6000803e3d6000fd5b505050506040513d601f19601f82011682018060405250810190611e6a919061589b565b6040516001600160e01b031960e085901b1681526004810192909252602482015260440160206040518083038186803b158015611ea657600080fd5b505afa158015611eba573d6000803e3d6000fd5b505050506040513d601f19601f82011682018060405250810190611ede919061589b565b1115611ee957600080fd5b86611f7d57600a5460405163efc34aab60e01b81526001600160a01b039091169063efc34aab90611f259084908c908590600190600401615a47565b602060405180830381600087803b158015611f3f57600080fd5b505af1158015611f53573d6000803e3d6000fd5b505050506040513d601f19601f82011682018060405250810190611f77919061589b565b50612005565b600a546040516371d6d97b60e11b81526001600160a01b039091169063e3adb2f690611fb19084908c908590600401615a24565b602060405180830381600087803b158015611fcb57600080fd5b505af1158015611fdf573d6000803e3d6000fd5b505050506040513d601f19601f82011682018060405250810190612003919061589b565b505b8361200e612bb1565b600a5460405163b34c8afb60e01b81526001600160a01b038a8116600483015292831692632db6e488928e9291169063b34c8afb9060240160206040518083038186803b15801561205e57600080fd5b505afa158015612072573d6000803e3d6000fd5b505050506040513d601f19601f82011682018060405250810190612096919061589b565b6040516001600160e01b031960e085901b1681526004810192909252602482015260440160206040518083038186803b1580156120d257600080fd5b505afa1580156120e6573d6000803e3d6000fd5b505050506040513d601f19601f8201168201806040525081019061210a919061589b565b111561211557600080fd5b8461215157600a5460405163efc34aab60e01b81526001600160a01b039091169063efc34aab90611bd09084908a908790600090600401615a47565b600a5460405163680b1a3f60e11b81526001600160a01b039091169063d016347e906121859084908a908790600401615a24565b602060405180830381600087803b15801561219f57600080fd5b505af11580156121b3573d6000803e3d6000fd5b505050506040513d601f19601f820116820180604052508101906121d7919061589b565b92505b6121e48189614e47565b6121ee8187614e47565b6121f788614fa0565b61220086614fa0565b50509695505050505050565b600b54600e541061221c57600080fd5b600a54604051636c66769560e11b81526001600160a01b0383811660048301529091169063d8cced2a9060240160206040518083038186803b15801561226157600080fd5b505afa158015612275573d6000803e3d6000fd5b505050506040513d601f19601f820116820180604052508101906122999190615867565b6122a257600080fd5b600e80546001810182556000919091527fbb7b4a454dc3493923482f07822329ed19e8244eff582cc204f8554c3620c3fd0180546001600160a01b0319166001600160a01b038316179055600f6122f7612bb1565b6001600160a01b031663db39dc79836001546040518363ffffffff1660e01b8152600401612326929190615a95565b60206040518083038186803b15801561233e57600080fd5b505afa158015612352573d6000803e3d6000fd5b505050506040513d601f19601f82011682018060405250810190612376919061589b565b81546001818101845560009384526020808520909201929092556001600160a01b0384168352600790526040909120805460ff191690911790556123b981613d3c565b50565b6123c4612df7565b6001600160a01b0316336001600160a01b03161461240e5760405162461bcd60e51b81526020600482015260076024820152664e6f742044414f60c81b6044820152606401610ed2565b600392909255600455600555565b6000806124276108d4565b905080600154846124389190615ae6565b6124429190615ac6565b9150505b919050565b600061245684612b88565b15612536576001600160a01b03808616600090815260136020908152604080832093881683529290529081205461248d9042615b05565b90506004548111612530576124a0612bb1565b600480546040516306e8c9b160e21b81529182018490526024820152604481018590526001600160a01b039190911690631ba326c49060640160206040518083038186803b1580156124f157600080fd5b505afa158015612505573d6000803e3d6000fd5b505050506040513d601f19601f82011682018060405250810190612529919061589b565b9150612534565b8291505b505b61253e612bb1565b60405163714270ab60e01b815260048101859052602481018390526001600160a01b03919091169063714270ab9060440160206040518083038186803b15801561258757600080fd5b505afa15801561259b573d6000803e3d6000fd5b505050506040513d601f19601f82011682018060405250810190610f5a919061589b565b600a54604051636c66769560e11b81526001600160a01b038381166004830152600092169063d8cced2a9060240160206040518083038186803b15801561260557600080fd5b505afa158015612619573d6000803e3d6000fd5b505050506040513d601f19601f8201168201806040525081019061263d9190615867565b806126c05750600a5460405163643fd21560e11b81526001600160a01b0384811660048301529091169063c87fa42a9060240160206040518083038186803b15801561268857600080fd5b505afa15801561269c573d6000803e3d6000fd5b505050506040513d601f19601f820116820180604052508101906126c09190615867565b1561244657506001919050565b600080806127106126e087611a0a615ae6565b6126ea9190615ac6565b90506126f585612b4f565b1561270257809150612a26565b61270b856125bf565b156128a857612718612bb1565b600a5460405163024ef37560e41b81526001600160a01b0388811660048301528a8116602483015292831692634a1276519285929116906324ef37509060440160206040518083038186803b15801561277057600080fd5b505afa158015612784573d6000803e3d6000fd5b505050506040513d601f19601f820116820180604052508101906127a8919061589b565b600a5460405163b34c8afb60e01b81526001600160a01b038b811660048301529091169063b34c8afb9060240160206040518083038186803b1580156127ed57600080fd5b505afa158015612801573d6000803e3d6000fd5b505050506040513d601f19601f82011682018060405250810190612825919061589b565b6040516001600160e01b031960e086901b16815260048101939093526024830191909152604482015260640160206040518083038186803b15801561286957600080fd5b505afa15801561287d573d6000803e3d6000fd5b505050506040513d601f19601f820116820180604052508101906128a1919061589b565b9150612a26565b600a54604051632f011bf560e11b81526001600160a01b03878116600483015290911690635e0237ea90602401602060405180830381600087803b1580156128ef57600080fd5b505af1158015612903573d6000803e3d6000fd5b505050506040513d601f19601f820116820180604052508101906129279190615867565b15612a2657612934612bb1565b6001600160a01b031663b80e44b8866001600160a01b03166382bfefc86040518163ffffffff1660e01b8152600401602060405180830381600087803b15801561297d57600080fd5b505af1158015612991573d6000803e3d6000fd5b505050506040513d601f19601f820116820180604052508101906129b5919061566b565b836040518363ffffffff1660e01b81526004016129d3929190615a95565b60206040518083038186803b1580156129eb57600080fd5b505afa1580156129ff573d6000803e3d6000fd5b505050506040513d601f19601f82011682018060405250810190612a23919061589b565b91505b612a2e612bb1565b6001600160a01b0316635f2c12e885846040518363ffffffff1660e01b8152600401612a5b929190615a95565b60206040518083038186803b158015612a7357600080fd5b505afa158015612a87573d6000803e3d6000fd5b505050506040513d601f19601f82011682018060405250810190612aab919061589b565b92505094509492505050565b6008546040516370a0823160e01b81523060048201526000916001600160a01b0316906370a08231906024015b60206040518083038186803b158015612afc57600080fd5b505afa158015612b10573d6000803e3d6000fd5b505050506040513d601f19601f820116820180604052508101906109f2919061589b565b600080612b3f6108d4565b6001549091506124388483615ae6565b6008546000906001600160a01b0383811691161480612b7b57506009546001600160a01b038381169116145b1561244657506001612446565b6001600160a01b03811660009081526007602052604081205460ff161561244657506001919050565b60085460408051637b0e5c4560e01b815290516000926001600160a01b031691637b0e5c45916004808301926020929190829003018186803b158015612bf657600080fd5b505afa158015612c0a573d6000803e3d6000fd5b505050506040513d601f19601f820116820180604052508101906109f2919061566b565b600080612c3b848461332a565b9050612c4684612b4f565b15612cd757612c53612bb1565b6001600160a01b031663db39dc7984836040518363ffffffff1660e01b8152600401612c80929190615a95565b60206040518083038186803b158015612c9857600080fd5b505afa158015612cac573d6000803e3d6000fd5b505050506040513d601f19601f82011682018060405250810190612cd0919061589b565b9150612df0565b600a54604051632f011bf560e11b81526001600160a01b03868116600483015290911690635e0237ea90602401602060405180830381600087803b158015612d1e57600080fd5b505af1158015612d32573d6000803e3d6000fd5b505050506040513d601f19601f82011682018060405250810190612d569190615867565b15612df057612d63612bb1565b6040516306e79f8f60e51b81526001600160a01b038581166004830152602482018490528681166044830152919091169063dcf3f1e09060640160206040518083038186803b158015612db557600080fd5b505afa158015612dc9573d6000803e3d6000fd5b505050506040513d601f19601f82011682018060405250810190612ded919061589b565b91505b5092915050565b60085460408051634c7d5e9d60e11b815290516000926001600160a01b0316916398fabd3a916004808301926020929190829003018186803b158015612bf657600080fd5b6000612e4e8686868686612710611822565b9695505050505050565b6001600160a01b038281166000908152601660209081526040808320858516808552925280832054600a54915163e6ae1a9760e01b815260048101939093529293849291169063e6ae1a979060240160206040518083038186803b158015612ebf57600080fd5b505afa158015612ed3573d6000803e3d6000fd5b505050506040513d601f19601f82011682018060405250810190612ef7919061589b565b905080612f0683612710615ae6565b612f109190615ac6565b95945050505050565b6000612f23610975565b8015612f335750612f3382612b88565b1561244657600a5460405163b34c8afb60e01b81526001600160a01b038481166004830152600092169063b34c8afb9060240160206040518083038186803b158015612f7e57600080fd5b505afa158015612f92573d6000803e3d6000fd5b505050506040513d601f19601f82011682018060405250810190612fb6919061589b565b600a5460405163643fd21560e11b81526001600160a01b03868116600483015292935091169063c87fa42a9060240160206040518083038186803b158015612ffd57600080fd5b505afa158015613011573d6000803e3d6000fd5b505050506040513d601f19601f820116820180604052508101906130359190615867565b15613170576000613044612bb1565b6001600160a01b0316631ba326c483600a60009054906101000a90046001600160a01b03166001600160a01b031663a9652dca6040518163ffffffff1660e01b815260040160206040518083038186803b1580156130a157600080fd5b505afa1580156130b5573d6000803e3d6000fd5b505050506040513d601f19601f820116820180604052508101906130d9919061589b565b6130e1613d0b565b6040516001600160e01b031960e086901b16815260048101939093526024830191909152604482015260640160206040518083038186803b15801561312557600080fd5b505afa158015613139573d6000803e3d6000fd5b505050506040513d601f19601f8201168201806040525081019061315d919061589b565b90506131688161336a565b925050613324565b600a54604051636c66769560e11b81526001600160a01b0385811660048301529091169063d8cced2a9060240160206040518083038186803b1580156131b557600080fd5b505afa1580156131c9573d6000803e3d6000fd5b505050506040513d601f19601f820116820180604052508101906131ed9190615867565b156133245760006131fc612bb1565b6001600160a01b0316631ba326c483600a60009054906101000a90046001600160a01b03166001600160a01b031663dd5a2bd86040518163ffffffff1660e01b815260040160206040518083038186803b15801561325957600080fd5b505afa15801561326d573d6000803e3d6000fd5b505050506040513d601f19601f82011682018060405250810190613291919061589b565b613299612ab7565b6040516001600160e01b031960e086901b16815260048101939093526024830191909152604482015260640160206040518083038186803b1580156132dd57600080fd5b505afa1580156132f1573d6000803e3d6000fd5b505050506040513d601f19601f82011682018060405250810190613315919061589b565b90506133208161336a565b9250505b50919050565b6000806133378484612e58565b6001600160a01b03808616600090815260166020908152604080832093881683529290522054909150612ded9082615ae6565b6000613374612bb1565b6003546040516306e8c9b160e21b8152600160048201526024810191909152604481018490526001600160a01b039190911690631ba326c49060640160206040518083038186803b1580156133c857600080fd5b505afa1580156133dc573d6000803e3d6000fd5b505050506040513d601f19601f82011682018060405250810190610e73919061589b565b60006116fe338585856140d8565b6001600160a01b039283166000908152601460209081526040808320948616835260019485018252808320939095168252919092019052205490565b6008546001600160a01b038381169116141561351b57600a54604051636c66769560e11b81526001600160a01b0383811660048301529091169063d8cced2a906024015b60206040518083038186803b1580156134a657600080fd5b505afa1580156134ba573d6000803e3d6000fd5b505050506040513d601f19601f820116820180604052508101906134de9190615867565b6135165760405162461bcd60e51b815260206004820152600960248201526842616420436f6d626f60b81b6044820152606401610ed2565b6116e6565b6009546001600160a01b038381169116141561356357600a5460405163643fd21560e11b81526001600160a01b0383811660048301529091169063c87fa42a9060240161348e565b600a54604051632f011bf560e11b81526001600160a01b03848116600483015290911690635e0237ea90602401602060405180830381600087803b1580156135aa57600080fd5b505af11580156135be573d6000803e3d6000fd5b505050506040513d601f19601f820116820180604052508101906135e29190615867565b80156136f75750600a60009054906101000a90046001600160a01b03166001600160a01b031663d8cced2a836001600160a01b03166382bfefc86040518163ffffffff1660e01b8152600401602060405180830381600087803b15801561364857600080fd5b505af115801561365c573d6000803e3d6000fd5b505050506040513d601f19601f82011682018060405250810190613680919061566b565b6040516001600160e01b031960e084901b1681526001600160a01b03909116600482015260240160206040518083038186803b1580156136bf57600080fd5b505afa1580156136d3573d6000803e3d6000fd5b505050506040513d601f19601f820116820180604052508101906136f79190615867565b1561372e57600a54604051636c66769560e11b81526001600160a01b0383811660048301529091169063d8cced2a9060240161348e565b600a54604051632f011bf560e11b81526001600160a01b03848116600483015290911690635e0237ea90602401602060405180830381600087803b15801561377557600080fd5b505af1158015613789573d6000803e3d6000fd5b505050506040513d601f19601f820116820180604052508101906137ad9190615867565b80156138c25750600a60009054906101000a90046001600160a01b03166001600160a01b031663c87fa42a836001600160a01b03166382bfefc86040518163ffffffff1660e01b8152600401602060405180830381600087803b15801561381357600080fd5b505af1158015613827573d6000803e3d6000fd5b505050506040513d601f19601f8201168201806040525081019061384b919061566b565b6040516001600160e01b031960e084901b1681526001600160a01b03909116600482015260240160206040518083038186803b15801561388a57600080fd5b505afa15801561389e573d6000803e3d6000fd5b505050506040513d601f19601f820116820180604052508101906138c29190615867565b156116e657600a5460405163643fd21560e11b81526001600160a01b0383811660048301529091169063c87fa42a9060240160206040518083038186803b15801561390c57600080fd5b505afa158015613920573d6000803e3d6000fd5b505050506040513d601f19601f820116820180604052508101906139449190615867565b6116e65760405162461bcd60e51b815260206004820152600960248201526842616420436f6d626f60b81b6044820152606401610ed2565b600a5460405163643fd21560e11b81526001600160a01b0383811660048301529091169063c87fa42a9060240160206040518083038186803b1580156139c157600080fd5b505afa1580156139d5573d6000803e3d6000fd5b505050506040513d601f19601f820116820180604052508101906139f99190615867565b80613a7c5750600a54604051636c66769560e11b81526001600160a01b0383811660048301529091169063d8cced2a9060240160206040518083038186803b158015613a4457600080fd5b505afa158015613a58573d6000803e3d6000fd5b505050506040513d601f19601f82011682018060405250810190613a7c9190615867565b613a8557600080fd5b613a8e81612b88565b613add576005546006541015613add576001600160a01b0381166000908152600760205260408120805460ff191660019081179091556006805491929091613ad7908490615aae565b90915550505b6040516001600160a01b0382169033907fb2f6cc014bc6265032f32972254d5e024ec51ed94c0aaf2280128336be54a04190600090a350565b60006116fe33858585610f65565b6001600160a01b038481166000908152601460209081526040808320868516845260019081018352818420948616845284018252808320546002909401909152812054909190613b72612bb1565b6040516306e8c9b160e21b81526004810188905260248101849052604481018390526001600160a01b039190911690631ba326c49060640160206040518083038186803b158015613bc257600080fd5b505afa1580156117f3573d6000803e3d6000fd5b600a54604051636ba97d5960e11b815260009182916001600160a01b039091169063d752fab290613c0f90889088908890600401615a71565b6040805180830381600087803b158015613c2857600080fd5b505af1158015613c3c573d6000803e3d6000fd5b505050506040513d601f19601f82011682018060405250810190613c6091906159d6565b90925090506000613c7333878787613e90565b9050613c813386868461502b565b60405163a9059cbb60e01b81526001600160a01b0387169063a9059cbb90613caf9033908590600401615a95565b602060405180830381600087803b158015613cc957600080fd5b505af1158015613cdd573d6000803e3d6000fd5b505050506040513d601f19601f82011682018060405250810190613d019190615867565b5050935093915050565b6009546040516370a0823160e01b81523060048201526000916001600160a01b0316906370a0823190602401612ae4565b60005b600e548110156116e657816001600160a01b0316600e8281548110613d7457634e487b7160e01b600052603260045260246000fd5b6000918252602090912001546001600160a01b03161415613e7e57613d97612bb1565b6001600160a01b031663db39dc79600e8381548110613dc657634e487b7160e01b600052603260045260246000fd5b6000918252602090912001546001546040516001600160e01b031960e085901b168152613e00926001600160a01b03169190600401615a95565b60206040518083038186803b158015613e1857600080fd5b505afa158015613e2c573d6000803e3d6000fd5b505050506040513d601f19601f82011682018060405250810190613e50919061589b565b600f8281548110613e7157634e487b7160e01b600052603260045260246000fd5b6000918252602090912001555b80613e8881615b1c565b915050613d3f565b6000613ea285848461057889886109f7565b6008549091506001600160a01b0385811691161415613ed957613ec3612ab7565b8110613ed457613ed1612ab7565b90505b610f5d565b613ee1613d0b565b8110610f5d57610f5a613d0b565b600a5460405163643fd21560e11b81526001600160a01b0383811660048301529091169063c87fa42a9060240160206040518083038186803b158015613f3457600080fd5b505afa158015613f48573d6000803e3d6000fd5b505050506040513d601f19601f82011682018060405250810190613f6c9190615867565b613f7557600080fd5b600a5460405163b34c8afb60e01b81526001600160a01b0384811660048301529091169063b34c8afb9060240160206040518083038186803b158015613fba57600080fd5b505afa158015613fce573d6000803e3d6000fd5b505050506040513d601f19601f82011682018060405250810190613ff2919061589b565b600a5460405163b34c8afb60e01b81526001600160a01b0384811660048301529091169063b34c8afb9060240160206040518083038186803b15801561403757600080fd5b505afa15801561404b573d6000803e3d6000fd5b505050506040513d601f19601f8201168201806040525081019061406f919061589b565b11156116e6576001600160a01b03808316600090815260076020526040808220805460ff1990811690915592841680835281832080549094166001179093555133917fb2f6cc014bc6265032f32972254d5e024ec51ed94c0aaf2280128336be54a04191a35050565b6000806140e3612bb1565b6001600160a01b031663714270ab866140fd89888861340e565b6040516001600160e01b031960e085901b1681526004810192909252602482015260440160206040518083038186803b15801561413957600080fd5b505afa15801561414d573d6000803e3d6000fd5b505050506040513d601f19601f82011682018060405250810190614171919061589b565b9050600061417f8483614a35565b6008549091506001600160a01b03868116911614806142165750600a54604051636c66769560e11b81526001600160a01b0386811660048301529091169063d8cced2a9060240160206040518083038186803b1580156141de57600080fd5b505afa1580156141f2573d6000803e3d6000fd5b505050506040513d601f19601f820116820180604052508101906142169190615867565b156142ae57600a5460085460405163efc34aab60e01b81526001600160a01b039283169263efc34aab926142569291169088903090600190600401615a47565b602060405180830381600087803b15801561427057600080fd5b505af1158015614284573d6000803e3d6000fd5b505050506040513d601f19601f820116820180604052508101906142a8919061589b565b506143d6565b6009546001600160a01b03868116911614806143425750600a5460405163643fd21560e11b81526001600160a01b0386811660048301529091169063c87fa42a9060240160206040518083038186803b15801561430a57600080fd5b505afa15801561431e573d6000803e3d6000fd5b505050506040513d601f19601f820116820180604052508101906143429190615867565b156143d657600a5460095460405163efc34aab60e01b81526001600160a01b039283169263efc34aab926143829291169088903090600190600401615a47565b602060405180830381600087803b15801561439c57600080fd5b505af11580156143b0573d6000803e3d6000fd5b505050506040513d601f19601f820116820180604052508101906143d4919061589b565b505b6143e287828787613b24565b6001600160a01b03808716600090815260156020908152604080832093891683529290529081208054929550859290919061441e908490615b05565b90915550506001600160a01b0380861660009081526016602090815260408083209388168352929052908120805483929061445a908490615b05565b9091555061446d90508784878488615243565b836001600160a01b0316856001600160a01b0316886001600160a01b03167f80cf2752eb276900a648b467a8fe8180e3192a2370982e997e928b3dc8b99ba186856040516144c5929190918252602082015260400190565b60405180910390a46144d88786856152d9565b5050949350505050565b600e81815481106144f257600080fd5b6000918252602090912001546001600160a01b0316905081565b805160609060005b8181101561465e576000614529826001615aae565b90505b8281101561464b5784818151811061455457634e487b7160e01b600052603260045260246000fd5b602002602001015185838151811061457c57634e487b7160e01b600052603260045260246000fd5b602002602001015111156146395760008583815181106145ac57634e487b7160e01b600052603260045260246000fd5b602002602001015190508582815181106145d657634e487b7160e01b600052603260045260246000fd5b60200260200101518684815181106145fe57634e487b7160e01b600052603260045260246000fd5b6020026020010181815250508086838151811061462b57634e487b7160e01b600052603260045260246000fd5b602002602001018181525050505b8061464381615b1c565b91505061452c565b508061465681615b1c565b915050614514565b509192915050565b600061467183612b4f565b806146f65750600a54604051632f011bf560e11b81526001600160a01b03858116600483015290911690635e0237ea90602401602060405180830381600087803b1580156146be57600080fd5b505af11580156146d2573d6000803e3d6000fd5b505050506040513d601f19601f820116820180604052508101906146f69190615867565b1561470c5761470583836153f9565b9050611701565b614715836125bf565b1561170157600a5460405163783ba87960e01b8152600481018490526001600160a01b03858116602483015286811660448301529091169063783ba87990606401600060405180830381600087803b15801561477057600080fd5b505af1158015614784573d6000803e3d6000fd5b50939695505050505050565b6001600160a01b038086166000908152601460209081526040808320878516845260019081018352818420948616845293909301905290812080548492906147d9908490615aae565b90915550506001600160a01b038086166000908152601460209081526040808320878516845260010182528083209385168352600290930190529081208054869290614826908490615aae565b90915550505050505050565b600061483c6108d4565b90506000614848612bb1565b6001600160a01b031663db39dc79866001546040518363ffffffff1660e01b8152600401614877929190615a95565b60206040518083038186803b15801561488f57600080fd5b505afa1580156148a3573d6000803e3d6000fd5b505050506040513d601f19601f820116820180604052508101906148c7919061589b565b905060006148d3612bb1565b6001600160a01b031663714270ab866002546148ef9190615b05565b856040518363ffffffff1660e01b8152600401614916929190918252602082015260400190565b60206040518083038186803b15801561492e57600080fd5b505afa158015614942573d6000803e3d6000fd5b505050506040513d601f19601f82011682018060405250810190614966919061589b565b6002549091506000906149798782615aae565b6149839086615ae6565b61498d9190615ac6565b905084156149e3578183101580156149a55750808311155b6149de5760405162461bcd60e51b815260206004820152600a6024820152694e6f7420696e7369646560b01b6044820152606401610ed2565b614a2c565b81831115806149f25750808310155b614a2c5760405162461bcd60e51b815260206004820152600b60248201526a4e6f74206f75747369646560a81b6044820152606401610ed2565b50505050505050565b6008546000906001600160a01b0384811691161480614a6157506009546001600160a01b038481169116145b80614ae65750600a54604051632f011bf560e11b81526001600160a01b03858116600483015290911690635e0237ea90602401602060405180830381600087803b158015614aae57600080fd5b505af1158015614ac2573d6000803e3d6000fd5b505050506040513d601f19601f82011682018060405250810190614ae69190615867565b15614c0e57508032331415614b8157600a546040516302ccb1b360e41b81526001600160a01b0385811692632ccb1b3092614b2992909116908690600401615a95565b602060405180830381600087803b158015614b4357600080fd5b505af1158015614b57573d6000803e3d6000fd5b505050506040513d601f19601f82011682018060405250810190614b7b9190615867565b50614c09565b600a546040516323b872dd60e01b81526001600160a01b03808616926323b872dd92614bb592339216908790600401615a71565b602060405180830381600087803b158015614bcf57600080fd5b505af1158015614be3573d6000803e3d6000fd5b505050506040513d601f19601f82011682018060405250810190614c079190615867565b505b610e73565b600a546040516370a0823160e01b81526001600160a01b0391821660048201526000918516906370a082319060240160206040518083038186803b158015614c5557600080fd5b505afa158015614c69573d6000803e3d6000fd5b505050506040513d601f19601f82011682018060405250810190614c8d919061589b565b600a546040516323b872dd60e01b81529192506001600160a01b03808716926323b872dd92614cc59233929116908890600401615a71565b602060405180830381600087803b158015614cdf57600080fd5b505af1158015614cf3573d6000803e3d6000fd5b505050506040513d601f19601f82011682018060405250810190614d179190615867565b50600a546040516370a0823160e01b81526001600160a01b03918216600482015282918616906370a08231906024015b60206040518083038186803b158015614d5f57600080fd5b505afa158015614d73573d6000803e3d6000fd5b505050506040513d601f19601f82011682018060405250810190614d97919061589b565b612ded9190615b05565b6001600160a01b03808516600090815260116020908152604080832093871683529290529081208054849290614dd8908490615aae565b90915550506001600160a01b03808516600090815260126020908152604080832093871683529290529081208054839290614e14908490615aae565b9091555050506001600160a01b039283166000908152601360209081526040808320949095168252929092525020429055565b614e5081612b4f565b6116e6576000614e5f82612f19565b600a5460405163a9059cbb60e01b81529192506001600160a01b038086169263a9059cbb92614e949216908590600401615a95565b602060405180830381600087803b158015614eae57600080fd5b505af1158015614ec2573d6000803e3d6000fd5b505050506040513d601f19601f82011682018060405250810190614ee69190615867565b50600a54604051633041949b60e01b81526001600160a01b038581166004830152848116602483015290911690633041949b90604401600060405180830381600087803b158015614f3657600080fd5b505af1158015614f4a573d6000803e3d6000fd5b50505050816001600160a01b0316836001600160a01b03167f416b0b234ccd4d6d72c4b1a3a09b472a71981d9bbf0f26ab44774e0e3425fad683604051614f9391815260200190565b60405180910390a3505050565b600a54604051636c66769560e11b81526001600160a01b0383811660048301529091169063d8cced2a9060240160206040518083038186803b158015614fe557600080fd5b505afa158015614ff9573d6000803e3d6000fd5b505050506040513d601f19601f8201168201806040525081019061501d9190615867565b156123b9576123b981613d3c565b6001600160a01b03808516600090815260116020908152604080832093871683529290529081208054839290615062908490615aae565b9091555060009050615072612bb1565b6001600160a01b03868116600090815260116020908152604080832089851684529091529081902054905163714270ab60e01b815260048101879052602481019190915291169063714270ab9060440160206040518083038186803b1580156150da57600080fd5b505afa1580156150ee573d6000803e3d6000fd5b505050506040513d601f19601f82011682018060405250810190615112919061589b565b9050600061511e612bb1565b6001600160a01b0387811660009081526012602090815260408083208a851684529091529081902054905163714270ab60e01b815260048101889052602481019190915291169063714270ab9060440160206040518083038186803b15801561518657600080fd5b505afa15801561519a573d6000803e3d6000fd5b505050506040513d601f19601f820116820180604052508101906151be919061589b565b6001600160a01b038088166000908152601160209081526040808320938a168352929052908120805492935084929091906151fa908490615b05565b90915550506001600160a01b03808716600090815260126020908152604080832093891683529290529081208054839290615236908490615b05565b9091555050505050505050565b6001600160a01b0380861660009081526014602090815260408083208785168452600190810183528184209486168452939093019052908120805484929061528c908490615b05565b90915550506001600160a01b038086166000908152601460209081526040808320878516845260010182528083209385168352600290930190529081208054869290614826908490615b05565b6152e282612b4f565b806153675750600a54604051632f011bf560e11b81526001600160a01b03848116600483015290911690635e0237ea90602401602060405180830381600087803b15801561532f57600080fd5b505af1158015615343573d6000803e3d6000fd5b505050506040513d601f19601f820116820180604052508101906153679190615867565b1561537c576153778284836155c6565b6153f4565b615385826125bf565b156153f457600a5460405163798e23d560e01b8152600481018390526001600160a01b03848116602483015285811660448301529091169063798e23d590606401600060405180830381600087803b1580156153e057600080fd5b505af1158015614a2c573d6000803e3d6000fd5b505050565b6040516370a0823160e01b815230600482015260009081906001600160a01b038516906370a082319060240160206040518083038186803b15801561543d57600080fd5b505afa158015615451573d6000803e3d6000fd5b505050506040513d601f19601f82011682018060405250810190615475919061589b565b90503233141561550d576040516302ccb1b360e41b81526001600160a01b03851690632ccb1b30906154ad9030908790600401615a95565b602060405180830381600087803b1580156154c757600080fd5b505af11580156154db573d6000803e3d6000fd5b505050506040513d601f19601f820116820180604052508101906154ff9190615867565b61550857600080fd5b615598565b6040516323b872dd60e01b81526001600160a01b038516906323b872dd9061553d90339030908890600401615a71565b602060405180830381600087803b15801561555757600080fd5b505af115801561556b573d6000803e3d6000fd5b505050506040513d601f19601f8201168201806040525081019061558f9190615867565b61559857600080fd5b6040516370a0823160e01b815230600482015281906001600160a01b038616906370a0823190602401614d47565b60405163a9059cbb60e01b81526001600160a01b0384169063a9059cbb906155f49085908590600401615a95565b602060405180830381600087803b15801561560e57600080fd5b505af1158015615622573d6000803e3d6000fd5b505050506040513d601f19601f820116820180604052508101906156469190615867565b6153f457600080fd5b600060208284031215615660578081fd5b813561170181615b4d565b60006020828403121561567c578081fd5b815161170181615b4d565b60008060408385031215615699578081fd5b82356156a481615b4d565b915060208301356156b481615b4d565b809150509250929050565b6000806000606084860312156156d3578081fd5b83356156de81615b4d565b925060208401356156ee81615b4d565b915060408401356156fe81615b4d565b809150509250925092565b6000806000806080858703121561571e578081fd5b843561572981615b4d565b9350602085013561573981615b4d565b9250604085013561574981615b4d565b9396929550929360600135925050565b60008060006060848603121561576d578283fd5b833561577881615b4d565b9250602084013561578881615b4d565b929592945050506040919091013590565b600080600080608085870312156157ae578384fd5b84356157b981615b4d565b935060208501356157c981615b4d565b93969395505050506040820135916060013590565b600080600080608085870312156157f3578384fd5b84356157fe81615b4d565b935060208501359250604085013561581581615b4d565b9150606085013561582581615b4d565b939692955090935050565b60008060008060808587031215615845578384fd5b843561585081615b4d565b935060208501359250604085013561574981615b4d565b600060208284031215615878578081fd5b815161170181615b62565b600060208284031215615894578081fd5b5035919050565b6000602082840312156158ac578081fd5b5051919050565b6000806000606084860312156158c7578283fd5b8335925060208401356156ee81615b4d565b600080600080608085870312156158ee578182fd5b84359350602085013561573981615b4d565b600080600080600060a08688031215615917578283fd5b85359450602086013561592981615b4d565b9350604086013561593981615b62565b9250606086013561594981615b4d565b9150608086013561595981615b62565b809150509295509295909350565b60008060008060008060c0878903121561597f578384fd5b86359550602087013561599181615b4d565b945060408701356159a181615b62565b935060608701356159b181615b4d565b925060808701356159c181615b62565b8092505060a087013590509295509295509295565b600080604083850312156159e8578182fd5b505080516020909101519092909150565b600080600060608486031215615a0d578081fd5b505081359360208301359350604090920135919050565b6001600160a01b0393841681529183166020830152909116604082015260600190565b6001600160a01b039485168152928416602084015292166040820152901515606082015260800190565b6001600160a01b039384168152919092166020820152604081019190915260600190565b6001600160a01b03929092168252602082015260400190565b60008219821115615ac157615ac1615b37565b500190565b600082615ae157634e487b7160e01b81526012600452602481fd5b500490565b6000816000190483118215151615615b0057615b00615b37565b500290565b600082821015615b1757615b17615b37565b500390565b6000600019821415615b3057615b30615b37565b5060010190565b634e487b7160e01b600052601160045260246000fd5b6001600160a01b03811681146123b957600080fd5b80151581146123b957600080fdfea26469706673582212205d688e4066aad0e0abe1e02c9f29c35eeebcd70932a08853fa3950d0718fbf7b64736f6c63430008030033",
  "linkReferences": {},
  "deployedLinkReferences": {}
}