{
  "_format": "hh-sol-artifact-1",
  "contractName": "Router",
  "sourceName": "contracts/Router.sol",
  "abi": [
    {
      "inputs": [],
      "stateMutability": "nonpayable",
      "type": "constructor"
    },
    {
      "anonymous": false,
      "inputs": [
        {
          "indexed": true,
          "internalType": "address",
          "name": "member",
          "type": "address"
        },
        {
          "indexed": true,
          "internalType": "address",
          "name": "collateralAsset",
          "type": "address"
        },
        {
          "indexed": false,
          "internalType": "uint256",
          "name": "collateralLocked",
          "type": "uint256"
        },
        {
          "indexed": true,
          "internalType": "address",
          "name": "debtAsset",
          "type": "address"
        },
        {
          "indexed": false,
          "internalType": "uint256",
          "name": "debtIssued",
          "type": "uint256"
        }
      ],
      "name": "AddCollateral",
      "type": "event"
    },
    {
      "anonymous": false,
      "inputs": [
        {
          "indexed": true,
          "internalType": "address",
          "name": "curator",
          "type": "address"
        },
        {
          "indexed": true,
          "internalType": "address",
          "name": "token",
          "type": "address"
        }
      ],
      "name": "Curated",
      "type": "event"
    },
    {
      "anonymous": false,
      "inputs": [
        {
          "indexed": true,
          "internalType": "address",
          "name": "base",
          "type": "address"
        },
        {
          "indexed": true,
          "internalType": "address",
          "name": "token",
          "type": "address"
        },
        {
          "indexed": false,
          "internalType": "uint256",
          "name": "amount",
          "type": "uint256"
        }
      ],
      "name": "PoolReward",
      "type": "event"
    },
    {
      "anonymous": false,
      "inputs": [
        {
          "indexed": true,
          "internalType": "address",
          "name": "member",
          "type": "address"
        },
        {
          "indexed": false,
          "internalType": "uint256",
          "name": "amount",
          "type": "uint256"
        }
      ],
      "name": "Protection",
      "type": "event"
    },
    {
      "anonymous": false,
      "inputs": [
        {
          "indexed": true,
          "internalType": "address",
          "name": "member",
          "type": "address"
        },
        {
          "indexed": true,
          "internalType": "address",
          "name": "collateralAsset",
          "type": "address"
        },
        {
          "indexed": false,
          "internalType": "uint256",
          "name": "collateralUnlocked",
          "type": "uint256"
        },
        {
          "indexed": true,
          "internalType": "address",
          "name": "debtAsset",
          "type": "address"
        },
        {
          "indexed": false,
          "internalType": "uint256",
          "name": "debtReturned",
          "type": "uint256"
        }
      ],
      "name": "RemoveCollateral",
      "type": "event"
    },
    {
      "inputs": [],
      "name": "DAO",
      "outputs": [
        {
          "internalType": "address",
          "name": "",
          "type": "address"
        }
      ],
      "stateMutability": "view",
      "type": "function"
    },
    {
      "inputs": [],
      "name": "POOLS",
      "outputs": [
        {
          "internalType": "address",
          "name": "",
          "type": "address"
        }
      ],
      "stateMutability": "view",
      "type": "function"
    },
    {
      "inputs": [],
      "name": "USDV",
      "outputs": [
        {
          "internalType": "address",
          "name": "",
          "type": "address"
        }
      ],
      "stateMutability": "view",
      "type": "function"
    },
    {
      "inputs": [],
      "name": "UTILS",
      "outputs": [
        {
          "internalType": "address",
          "name": "",
          "type": "address"
        }
      ],
      "stateMutability": "view",
      "type": "function"
    },
    {
      "inputs": [],
      "name": "VADER",
      "outputs": [
        {
          "internalType": "address",
          "name": "",
          "type": "address"
        }
      ],
      "stateMutability": "view",
      "type": "function"
    },
    {
      "inputs": [
        {
          "internalType": "address",
          "name": "base",
          "type": "address"
        },
        {
          "internalType": "uint256",
          "name": "inputBase",
          "type": "uint256"
        },
        {
          "internalType": "address",
          "name": "token",
          "type": "address"
        },
        {
          "internalType": "uint256",
          "name": "inputToken",
          "type": "uint256"
        }
      ],
      "name": "addLiquidity",
      "outputs": [
        {
          "internalType": "uint256",
          "name": "",
          "type": "uint256"
        }
      ],
      "stateMutability": "nonpayable",
      "type": "function"
    },
    {
      "inputs": [],
      "name": "anchorLimit",
      "outputs": [
        {
          "internalType": "uint256",
          "name": "",
          "type": "uint256"
        }
      ],
      "stateMutability": "view",
      "type": "function"
    },
    {
      "inputs": [
        {
          "internalType": "uint256",
          "name": "",
          "type": "uint256"
        }
      ],
      "name": "arrayAnchors",
      "outputs": [
        {
          "internalType": "address",
          "name": "",
          "type": "address"
        }
      ],
      "stateMutability": "view",
      "type": "function"
    },
    {
      "inputs": [
        {
          "internalType": "uint256",
          "name": "",
          "type": "uint256"
        }
      ],
      "name": "arrayPrices",
      "outputs": [
        {
          "internalType": "uint256",
          "name": "",
          "type": "uint256"
        }
      ],
      "stateMutability": "view",
      "type": "function"
    },
    {
      "inputs": [
        {
          "internalType": "address",
          "name": "collateralAsset",
          "type": "address"
        },
        {
          "internalType": "address",
          "name": "debtAsset",
          "type": "address"
        }
      ],
      "name": "assetChecks",
      "outputs": [],
      "stateMutability": "nonpayable",
      "type": "function"
    },
    {
      "inputs": [
        {
          "internalType": "uint256",
          "name": "amount",
          "type": "uint256"
        },
        {
          "internalType": "address",
          "name": "collateralAsset",
          "type": "address"
        },
        {
          "internalType": "address",
          "name": "debtAsset",
          "type": "address"
        }
      ],
      "name": "borrow",
      "outputs": [
        {
          "internalType": "uint256",
          "name": "",
          "type": "uint256"
        }
      ],
      "stateMutability": "nonpayable",
      "type": "function"
    },
    {
      "inputs": [
        {
          "internalType": "address",
          "name": "member",
          "type": "address"
        },
        {
          "internalType": "uint256",
          "name": "amount",
          "type": "uint256"
        },
        {
          "internalType": "address",
          "name": "collateralAsset",
          "type": "address"
        },
        {
          "internalType": "address",
          "name": "debtAsset",
          "type": "address"
        }
      ],
      "name": "borrowForMember",
      "outputs": [
        {
          "internalType": "uint256",
          "name": "",
          "type": "uint256"
        }
      ],
      "stateMutability": "nonpayable",
      "type": "function"
    },
    {
      "inputs": [],
      "name": "checkLiquidate",
      "outputs": [],
      "stateMutability": "nonpayable",
      "type": "function"
    },
    {
      "inputs": [
        {
          "internalType": "address",
          "name": "token",
          "type": "address"
        }
      ],
      "name": "curatePool",
      "outputs": [],
      "stateMutability": "nonpayable",
      "type": "function"
    },
    {
      "inputs": [],
      "name": "curatedPoolCount",
      "outputs": [
        {
          "internalType": "uint256",
          "name": "",
          "type": "uint256"
        }
      ],
      "stateMutability": "view",
      "type": "function"
    },
    {
      "inputs": [],
      "name": "curatedPoolLimit",
      "outputs": [
        {
          "internalType": "uint256",
          "name": "",
          "type": "uint256"
        }
      ],
      "stateMutability": "view",
      "type": "function"
    },
    {
      "inputs": [],
      "name": "emitting",
      "outputs": [
        {
          "internalType": "bool",
          "name": "",
          "type": "bool"
        }
      ],
      "stateMutability": "view",
      "type": "function"
    },
    {
      "inputs": [],
      "name": "getAnchorPrice",
      "outputs": [
        {
          "internalType": "uint256",
          "name": "anchorPrice",
          "type": "uint256"
        }
      ],
      "stateMutability": "view",
      "type": "function"
    },
    {
      "inputs": [
        {
          "internalType": "address",
          "name": "member",
          "type": "address"
        },
        {
          "internalType": "uint256",
          "name": "collateral",
          "type": "uint256"
        },
        {
          "internalType": "address",
          "name": "collateralAsset",
          "type": "address"
        },
        {
          "internalType": "address",
          "name": "debtAsset",
          "type": "address"
        }
      ],
      "name": "getCollateralValueInBase",
      "outputs": [
        {
          "internalType": "uint256",
          "name": "debt",
          "type": "uint256"
        },
        {
          "internalType": "uint256",
          "name": "baseValue",
          "type": "uint256"
        }
      ],
      "stateMutability": "nonpayable",
      "type": "function"
    },
    {
      "inputs": [
        {
          "internalType": "address",
          "name": "member",
          "type": "address"
        },
        {
          "internalType": "address",
          "name": "token",
          "type": "address"
        }
      ],
      "name": "getCoverage",
      "outputs": [
        {
          "internalType": "uint256",
          "name": "",
          "type": "uint256"
        }
      ],
      "stateMutability": "view",
      "type": "function"
    },
    {
      "inputs": [
        {
          "internalType": "address",
          "name": "member",
          "type": "address"
        },
        {
          "internalType": "uint256",
          "name": "debt",
          "type": "uint256"
        },
        {
          "internalType": "address",
          "name": "collateralAsset",
          "type": "address"
        },
        {
          "internalType": "address",
          "name": "debtAsset",
          "type": "address"
        }
      ],
      "name": "getDebtValueInCollateral",
      "outputs": [
        {
          "internalType": "uint256",
          "name": "",
          "type": "uint256"
        }
      ],
      "stateMutability": "view",
      "type": "function"
    },
    {
      "inputs": [
        {
          "internalType": "address",
          "name": "member",
          "type": "address"
        },
        {
          "internalType": "address",
          "name": "base",
          "type": "address"
        },
        {
          "internalType": "address",
          "name": "token",
          "type": "address"
        },
        {
          "internalType": "uint256",
          "name": "basisPoints",
          "type": "uint256"
        }
      ],
      "name": "getILProtection",
      "outputs": [
        {
          "internalType": "uint256",
          "name": "protection",
          "type": "uint256"
        }
      ],
      "stateMutability": "view",
      "type": "function"
    },
    {
      "inputs": [],
      "name": "getInterestPayment",
      "outputs": [],
      "stateMutability": "nonpayable",
      "type": "function"
    },
    {
      "inputs": [
        {
          "internalType": "address",
          "name": "member",
          "type": "address"
        },
        {
          "internalType": "address",
          "name": "collateralAsset",
          "type": "address"
        },
        {
          "internalType": "address",
          "name": "debtAsset",
          "type": "address"
        }
      ],
      "name": "getMemberCollateral",
      "outputs": [
        {
          "internalType": "uint256",
          "name": "",
          "type": "uint256"
        }
      ],
      "stateMutability": "view",
      "type": "function"
    },
    {
      "inputs": [
        {
          "internalType": "address",
          "name": "member",
          "type": "address"
        },
        {
          "internalType": "address",
          "name": "collateralAsset",
          "type": "address"
        },
        {
          "internalType": "address",
          "name": "debtAsset",
          "type": "address"
        }
      ],
      "name": "getMemberDebt",
      "outputs": [
        {
          "internalType": "uint256",
          "name": "",
          "type": "uint256"
        }
      ],
      "stateMutability": "view",
      "type": "function"
    },
    {
      "inputs": [
        {
          "internalType": "address",
          "name": "member",
          "type": "address"
        },
        {
          "internalType": "address",
          "name": "token",
          "type": "address"
        },
        {
          "internalType": "uint256",
          "name": "basisPoints",
          "type": "uint256"
        },
        {
          "internalType": "uint256",
          "name": "coverage",
          "type": "uint256"
        }
      ],
      "name": "getProtection",
      "outputs": [
        {
          "internalType": "uint256",
          "name": "protection",
          "type": "uint256"
        }
      ],
      "stateMutability": "view",
      "type": "function"
    },
    {
      "inputs": [
        {
          "internalType": "uint256",
          "name": "amount",
          "type": "uint256"
        }
      ],
      "name": "getReducedShare",
      "outputs": [
        {
          "internalType": "uint256",
          "name": "",
          "type": "uint256"
        }
      ],
      "stateMutability": "view",
      "type": "function"
    },
    {
      "inputs": [
        {
          "internalType": "address",
          "name": "token",
          "type": "address"
        }
      ],
      "name": "getRewardShare",
      "outputs": [
        {
          "internalType": "uint256",
          "name": "rewardShare",
          "type": "uint256"
        }
      ],
      "stateMutability": "view",
      "type": "function"
    },
    {
      "inputs": [
        {
          "internalType": "uint256",
          "name": "vaderAmount",
          "type": "uint256"
        }
      ],
      "name": "getUSDVAmount",
      "outputs": [
        {
          "internalType": "uint256",
          "name": "USDVAmount",
          "type": "uint256"
        }
      ],
      "stateMutability": "view",
      "type": "function"
    },
    {
      "inputs": [
        {
          "internalType": "uint256",
          "name": "USDVAmount",
          "type": "uint256"
        }
      ],
      "name": "getVADERAmount",
      "outputs": [
        {
          "internalType": "uint256",
          "name": "vaderAmount",
          "type": "uint256"
        }
      ],
      "stateMutability": "view",
      "type": "function"
    },
    {
      "inputs": [
        {
          "internalType": "address",
          "name": "_vader",
          "type": "address"
        },
        {
          "internalType": "address",
          "name": "_usdv",
          "type": "address"
        },
        {
          "internalType": "address",
          "name": "_pool",
          "type": "address"
        }
      ],
      "name": "init",
      "outputs": [],
      "stateMutability": "nonpayable",
      "type": "function"
    },
    {
      "inputs": [],
      "name": "insidePriceLimit",
      "outputs": [
        {
          "internalType": "uint256",
          "name": "",
          "type": "uint256"
        }
      ],
      "stateMutability": "view",
      "type": "function"
    },
    {
      "inputs": [
        {
          "internalType": "address",
          "name": "token",
          "type": "address"
        }
      ],
      "name": "isBase",
      "outputs": [
        {
          "internalType": "bool",
          "name": "base",
          "type": "bool"
        }
      ],
      "stateMutability": "view",
      "type": "function"
    },
    {
      "inputs": [
        {
          "internalType": "address",
          "name": "token",
          "type": "address"
        }
      ],
      "name": "isCurated",
      "outputs": [
        {
          "internalType": "bool",
          "name": "curated",
          "type": "bool"
        }
      ],
      "stateMutability": "view",
      "type": "function"
    },
    {
      "inputs": [
        {
          "internalType": "address",
          "name": "token",
          "type": "address"
        }
      ],
      "name": "isPool",
      "outputs": [
        {
          "internalType": "bool",
          "name": "pool",
          "type": "bool"
        }
      ],
      "stateMutability": "view",
      "type": "function"
    },
    {
      "inputs": [
        {
          "internalType": "address",
          "name": "token",
          "type": "address"
        }
      ],
      "name": "listAnchor",
      "outputs": [],
      "stateMutability": "nonpayable",
      "type": "function"
    },
    {
      "inputs": [
        {
          "internalType": "address",
          "name": "",
          "type": "address"
        },
        {
          "internalType": "address",
          "name": "",
          "type": "address"
        }
      ],
      "name": "mapCollateralDebt_Collateral",
      "outputs": [
        {
          "internalType": "uint256",
          "name": "",
          "type": "uint256"
        }
      ],
      "stateMutability": "view",
      "type": "function"
    },
    {
      "inputs": [
        {
          "internalType": "address",
          "name": "",
          "type": "address"
        },
        {
          "internalType": "address",
          "name": "",
          "type": "address"
        }
      ],
      "name": "mapCollateralDebt_Debt",
      "outputs": [
        {
          "internalType": "uint256",
          "name": "",
          "type": "uint256"
        }
      ],
      "stateMutability": "view",
      "type": "function"
    },
    {
      "inputs": [
        {
          "internalType": "address",
          "name": "",
          "type": "address"
        },
        {
          "internalType": "address",
          "name": "",
          "type": "address"
        }
      ],
      "name": "mapMemberToken_depositBase",
      "outputs": [
        {
          "internalType": "uint256",
          "name": "",
          "type": "uint256"
        }
      ],
      "stateMutability": "view",
      "type": "function"
    },
    {
      "inputs": [
        {
          "internalType": "address",
          "name": "",
          "type": "address"
        },
        {
          "internalType": "address",
          "name": "",
          "type": "address"
        }
      ],
      "name": "mapMemberToken_depositToken",
      "outputs": [
        {
          "internalType": "uint256",
          "name": "",
          "type": "uint256"
        }
      ],
      "stateMutability": "view",
      "type": "function"
    },
    {
      "inputs": [
        {
          "internalType": "address",
          "name": "",
          "type": "address"
        },
        {
          "internalType": "address",
          "name": "",
          "type": "address"
        }
      ],
      "name": "mapMemberToken_lastDeposited",
      "outputs": [
        {
          "internalType": "uint256",
          "name": "",
          "type": "uint256"
        }
      ],
      "stateMutability": "view",
      "type": "function"
    },
    {
      "inputs": [],
      "name": "outsidePriceLimit",
      "outputs": [
        {
          "internalType": "uint256",
          "name": "",
          "type": "uint256"
        }
      ],
      "stateMutability": "view",
      "type": "function"
    },
    {
      "inputs": [
        {
          "internalType": "address",
          "name": "base",
          "type": "address"
        },
        {
          "internalType": "address",
          "name": "token",
          "type": "address"
        },
        {
          "internalType": "uint256",
          "name": "basisPoints",
          "type": "uint256"
        }
      ],
      "name": "removeLiquidity",
      "outputs": [
        {
          "internalType": "uint256",
          "name": "amountBase",
          "type": "uint256"
        },
        {
          "internalType": "uint256",
          "name": "amountToken",
          "type": "uint256"
        }
      ],
      "stateMutability": "nonpayable",
      "type": "function"
    },
    {
      "inputs": [
        {
          "internalType": "uint256",
          "name": "amount",
          "type": "uint256"
        },
        {
          "internalType": "address",
          "name": "collateralAsset",
          "type": "address"
        },
        {
          "internalType": "address",
          "name": "debtAsset",
          "type": "address"
        }
      ],
      "name": "repay",
      "outputs": [
        {
          "internalType": "uint256",
          "name": "",
          "type": "uint256"
        }
      ],
      "stateMutability": "nonpayable",
      "type": "function"
    },
    {
      "inputs": [],
      "name": "repayDelay",
      "outputs": [
        {
          "internalType": "uint256",
          "name": "",
          "type": "uint256"
        }
      ],
      "stateMutability": "view",
      "type": "function"
    },
    {
      "inputs": [
        {
          "internalType": "address",
          "name": "member",
          "type": "address"
        },
        {
          "internalType": "uint256",
          "name": "basisPoints",
          "type": "uint256"
        },
        {
          "internalType": "address",
          "name": "collateralAsset",
          "type": "address"
        },
        {
          "internalType": "address",
          "name": "debtAsset",
          "type": "address"
        }
      ],
      "name": "repayForMember",
      "outputs": [
        {
          "internalType": "uint256",
          "name": "collateralUnlocked",
          "type": "uint256"
        }
      ],
      "stateMutability": "nonpayable",
      "type": "function"
    },
    {
      "inputs": [
        {
          "internalType": "address",
          "name": "oldToken",
          "type": "address"
        },
        {
          "internalType": "address",
          "name": "newToken",
          "type": "address"
        }
      ],
      "name": "replaceAnchor",
      "outputs": [],
      "stateMutability": "nonpayable",
      "type": "function"
    },
    {
      "inputs": [
        {
          "internalType": "address",
          "name": "oldToken",
          "type": "address"
        },
        {
          "internalType": "address",
          "name": "newToken",
          "type": "address"
        }
      ],
      "name": "replacePool",
      "outputs": [],
      "stateMutability": "nonpayable",
      "type": "function"
    },
    {
      "inputs": [],
      "name": "reserveUSDV",
      "outputs": [
        {
          "internalType": "uint256",
          "name": "",
          "type": "uint256"
        }
      ],
      "stateMutability": "view",
      "type": "function"
    },
    {
      "inputs": [],
      "name": "reserveVADER",
      "outputs": [
        {
          "internalType": "uint256",
          "name": "",
          "type": "uint256"
        }
      ],
      "stateMutability": "view",
      "type": "function"
    },
    {
      "inputs": [],
      "name": "rewardReductionFactor",
      "outputs": [
        {
          "internalType": "uint256",
          "name": "",
          "type": "uint256"
        }
      ],
      "stateMutability": "view",
      "type": "function"
    },
    {
      "inputs": [
        {
          "internalType": "uint256",
          "name": "newLimit",
          "type": "uint256"
        },
        {
          "internalType": "uint256",
          "name": "newInside",
          "type": "uint256"
        },
        {
          "internalType": "uint256",
          "name": "newOutside",
          "type": "uint256"
        }
      ],
      "name": "setAnchorParams",
      "outputs": [],
      "stateMutability": "nonpayable",
      "type": "function"
    },
    {
      "inputs": [
        {
          "internalType": "uint256",
          "name": "newFactor",
          "type": "uint256"
        },
        {
          "internalType": "uint256",
          "name": "newTime",
          "type": "uint256"
        },
        {
          "internalType": "uint256",
          "name": "newLimit",
          "type": "uint256"
        }
      ],
      "name": "setParams",
      "outputs": [],
      "stateMutability": "nonpayable",
      "type": "function"
    },
    {
      "inputs": [
        {
          "internalType": "uint256",
          "name": "inputAmount",
          "type": "uint256"
        },
        {
          "internalType": "address",
          "name": "inputToken",
          "type": "address"
        },
        {
          "internalType": "address",
          "name": "outputToken",
          "type": "address"
        }
      ],
      "name": "swap",
      "outputs": [
        {
          "internalType": "uint256",
          "name": "outputAmount",
          "type": "uint256"
        }
      ],
      "stateMutability": "nonpayable",
      "type": "function"
    },
    {
      "inputs": [
        {
          "internalType": "uint256",
          "name": "inputAmount",
          "type": "uint256"
        },
        {
          "internalType": "address",
          "name": "inputToken",
          "type": "address"
        },
        {
          "internalType": "address",
          "name": "outputToken",
          "type": "address"
        },
        {
          "internalType": "uint256",
          "name": "slipLimit",
          "type": "uint256"
        }
      ],
      "name": "swapWithLimit",
      "outputs": [
        {
          "internalType": "uint256",
          "name": "outputAmount",
          "type": "uint256"
        }
      ],
      "stateMutability": "nonpayable",
      "type": "function"
    },
    {
      "inputs": [
        {
          "internalType": "uint256",
          "name": "inputAmount",
          "type": "uint256"
        },
        {
          "internalType": "address",
          "name": "inputToken",
          "type": "address"
        },
        {
          "internalType": "bool",
          "name": "inSynth",
          "type": "bool"
        },
        {
          "internalType": "address",
          "name": "outputToken",
          "type": "address"
        },
        {
          "internalType": "bool",
          "name": "outSynth",
          "type": "bool"
        }
      ],
      "name": "swapWithSynths",
      "outputs": [
        {
          "internalType": "uint256",
          "name": "outputAmount",
          "type": "uint256"
        }
      ],
      "stateMutability": "nonpayable",
      "type": "function"
    },
    {
      "inputs": [
        {
          "internalType": "uint256",
          "name": "inputAmount",
          "type": "uint256"
        },
        {
          "internalType": "address",
          "name": "inputToken",
          "type": "address"
        },
        {
          "internalType": "bool",
          "name": "inSynth",
          "type": "bool"
        },
        {
          "internalType": "address",
          "name": "outputToken",
          "type": "address"
        },
        {
          "internalType": "bool",
          "name": "outSynth",
          "type": "bool"
        },
        {
          "internalType": "uint256",
          "name": "slipLimit",
          "type": "uint256"
        }
      ],
      "name": "swapWithSynthsWithLimit",
      "outputs": [
        {
          "internalType": "uint256",
          "name": "outputAmount",
          "type": "uint256"
        }
      ],
      "stateMutability": "nonpayable",
      "type": "function"
    },
    {
      "inputs": [],
      "name": "timeForFullProtection",
      "outputs": [
        {
          "internalType": "uint256",
          "name": "",
          "type": "uint256"
        }
      ],
      "stateMutability": "view",
      "type": "function"
    },
    {
      "inputs": [
        {
          "internalType": "address",
          "name": "token",
          "type": "address"
        }
      ],
      "name": "updateAnchorPrice",
      "outputs": [],
      "stateMutability": "nonpayable",
      "type": "function"
    }
  ],
  "bytecode": "0x6080604052670de0b6b3a7640000600155612710600255610e1060105534801561002857600080fd5b5061585780620000396000396000f3fe608060405234801561001057600080fd5b50600436106103995760003560e01c80637b0e5c45116101e9578063d752fab21161010f578063e8b8cfa0116100ad578063f550394e1161007c578063f550394e1461079a578063fcf47686146107c5578063fdc59b82146107d8578063fde3bbe91461080357610399565b8063e8b8cfa014610736578063e9b6e44814610749578063ebccb5b21461075c578063eef796d11461076f57610399565b8063de6ad44e116100e9578063de6ad44e146106f5578063e2c3b046146106fd578063e2e1e48f14610710578063e6048ff81461072357610399565b8063d752fab2146106d9578063d8489152146106ec578063ddab23851461051e57610399565b8063c6978f2611610187578063cf975e7b11610156578063cf975e7b1461068d578063d2b43373146106a0578063d5164184146106b3578063d549a1ec146106c657610399565b8063c6978f261461064b578063c883b2e51461065e578063cbc17db314610671578063cf8bc7151461068457610399565b806399a485f5116101c357806399a485f5146105f1578063a9d1c09e14610604578063ae746f021461062f578063b77363481461063857610399565b80637b0e5c45146105d85780638bc51e36146105e057806398fabd3a146105e957610399565b806337785d21116102ce5780635a4dd3f21161026c57806362cea3401161023b57806362cea340146105975780636cc06ded1461059f5780636e899aa3146105b2578063774d70e4146105c557610399565b80635a4dd3f2146105365780635b0b602d146105495780635b16ebb71461055c5780635c22141f1461056f57610399565b80634eb6887a116102a85780634eb6887a1461050c578063531984381461051557806358b272161461051e5780635a0ce6761461052357610399565b806337785d21146104bb57806339e68f53146104ce5780634cb38782146104e157610399565b80631ab73ef51161033b5780632b7f0923116103155780632b7f0923146104795780632e2d08561461048c5780633494c8e81461049f578063376d3d5d146104a857610399565b80631ab73ef51461044a5780631df6acfd1461045d578063273961e61461047057610399565b806312a86ffb1161037757806312a86ffb146103fc57806317af50e51461040f578063184b9559146104225780631a6098271461043757610399565b8063016813151461039e578063038e5eaa146103ce5780630781f4d2146103e4575b600080fd5b6008546103b1906001600160a01b031681565b6040516001600160a01b0390911681526020015b60405180910390f35b6103d661084f565b6040519081526020016103c5565b6103ec6108f0565b60405190151581526020016103c5565b6103d661040a366004615338565b610972565b6103d661041d366004615534565b610df4565b610435610430366004615370565b610e15565b005b6103d661044536600461558a565b610ec3565b6103d661045836600461548f565b610ee0565b61043561046b366004615338565b611366565b6103d660045481565b6103d6610487366004615564565b611665565b61043561049a3660046156aa565b611683565b6103d6600b5481565b6103d66104b63660046154e1565b6116e3565b6103d66104c9366004615618565b61179d565b6104356104dc366004615300565b612187565b6103d66104ef366004615338565b601660209081526000928352604080842090915290825290205481565b6103d660105481565b6103d660055481565b610435565b6104356105313660046156aa565b612337565b6103d6610544366004615534565b612397565b6103d661055736600461544a565b6123c6565b6103ec61056a366004615300565b61253a565b61058261057d36600461548f565b612648565b604080519283526020830191909152016103c5565b6103d6612a32565b6103d66105ad366004615534565b612aaf565b6103ec6105c0366004615300565b612aca565b6103ec6105d3366004615300565b612b03565b6103b1612b2c565b6103d660065481565b6103b1612ba9565b6103d66105ff3660046155b1565b612bee565b6103d6610612366004615338565b601360209081526000928352604080842090915290825290205481565b6103d6600c5481565b6103d6610646366004615300565b612c0a565b6103d6610659366004615534565b61301b565b6103d661066c366004615564565b6130b1565b6103d661067f366004615370565b6130bf565b6103d660035481565b61043561069b366004615338565b6130fb565b6104356106ae366004615300565b61362d565b6103d66106c1366004615564565b6137c7565b6103d66106d436600461548f565b6137d5565b6105826106e736600461540a565b613887565b6103d6600d5481565b6103d66139bc565b6009546103b1906001600160a01b031681565b61043561071e366004615300565b6139ed565b6103d66107313660046153ba565b613b41565b610435610744366004615338565b613ba0565b6103d661075736600461548f565b613d89565b600a546103b1906001600160a01b031681565b6103d661077d366004615338565b601560209081526000928352604080842090915290825290205481565b6103d66107a8366004615338565b601160209081526000928352604080842090915290825290205481565b6103b16107d3366004615534565b614193565b6103d66107e6366004615338565b601260209081526000928352604080842090915290825290205481565b6103d6610811366004615370565b6001600160a01b0380841660009081526014602090815260408083208685168452600101825280832093851683526002909301905220549392505050565b600f54600090156108e85760006108b5600f8054806020026020016040519081016040528092919081815260200182805480156108ab57602002820191906000526020600020905b815481526020019060010190808311610897575b50505050506141bd565b9050806002815181106108d857634e487b7160e01b600052603260045260246000fd5b60200260200101519150506108ed565b506001545b90565b600854604080516303c0fa6960e11b815290516000926001600160a01b031691630781f4d2916004808301926020929190829003018186803b15801561093557600080fd5b505afa158015610949573d6000803e3d6000fd5b505050506040513d601f19601f8201168201806040525081019061096d9190615518565b905090565b6001600160a01b038281166000818152601160209081526040808320868616808552908352818420548585526012845282852082865290935281842054600a54925163024ef37560e41b8152600481019290925260248201959095529294919392859291909116906324ef37509060440160206040518083038186803b1580156109fb57600080fd5b505afa158015610a0f573d6000803e3d6000fd5b505050506040513d601f19601f82011682018060405250810190610a33919061554c565b90506000610a3f612b2c565b600a54604051630fefbc0960e01b81526001600160a01b03898116600483015292831692631ba326c4928692911690630fefbc099060240160206040518083038186803b158015610a8f57600080fd5b505afa158015610aa3573d6000803e3d6000fd5b505050506040513d601f19601f82011682018060405250810190610ac7919061554c565b600a5460405163b34c8afb60e01b81526001600160a01b038c811660048301529091169063b34c8afb9060240160206040518083038186803b158015610b0c57600080fd5b505afa158015610b20573d6000803e3d6000fd5b505050506040513d601f19601f82011682018060405250810190610b44919061554c565b6040516001600160e01b031960e086901b16815260048101939093526024830191909152604482015260640160206040518083038186803b158015610b8857600080fd5b505afa158015610b9c573d6000803e3d6000fd5b505050506040513d601f19601f82011682018060405250810190610bc0919061554c565b90506000610bcc612b2c565b600a54604051630fefbc0960e01b81526001600160a01b038a8116600483015292831692631ba326c4928792911690630fefbc099060240160206040518083038186803b158015610c1c57600080fd5b505afa158015610c30573d6000803e3d6000fd5b505050506040513d601f19601f82011682018060405250810190610c54919061554c565b600a5460405163e6ae1a9760e01b81526001600160a01b038d811660048301529091169063e6ae1a979060240160206040518083038186803b158015610c9957600080fd5b505afa158015610cad573d6000803e3d6000fd5b505050506040513d601f19601f82011682018060405250810190610cd1919061554c565b6040516001600160e01b031960e086901b16815260048101939093526024830191909152604482015260640160206040518083038186803b158015610d1557600080fd5b505afa158015610d29573d6000803e3d6000fd5b505050506040513d601f19601f82011682018060405250810190610d4d919061554c565b9050610d57612b2c565b60405163595a88a760e01b8152600481018790526024810186905260448101849052606481018390526001600160a01b03919091169063595a88a79060840160206040518083038186803b158015610dae57600080fd5b505afa158015610dc2573d6000803e3d6000fd5b505050506040513d601f19601f82011682018060405250810190610de6919061554c565b955050505050505b92915050565b600f8181548110610e0457600080fd5b600091825260209091200154905081565b60005460ff1615610e565760405162461bcd60e51b81526020600482015260066024820152651a5b9a5d195960d21b60448201526064015b60405180910390fd5b60008054600160ff199091168117909155600880546001600160a01b03199081166001600160a01b039687161790915560098054821694861694909417909355600a805490931691909316179055600381905560048190556005908155600b5560c8600c556101f4600d55565b6000610ed5858560008660008761179d565b90505b949350505050565b6000610eec83836130fb565b6000610ef9868587614317565b9050600080610f0a88848888612648565b6001600160a01b038089166000908152601560209081526040808320938b16835292905290812080549395509193508592610f4690849061575f565b90915550506001600160a01b03808716600090815260166020908152604080832093891683529290529081208054849290610f8290849061575f565b90915550610f9590508884888589614441565b6008546001600160a01b03878116911614806110295750600a54604051636c66769560e11b81526001600160a01b0387811660048301529091169063d8cced2a9060240160206040518083038186803b158015610ff157600080fd5b505afa158015611005573d6000803e3d6000fd5b505050506040513d601f19601f820116820180604052508101906110299190615518565b1561114a57600854600a5460405163a9059cbb60e01b81526001600160a01b039283169263a9059cbb92611064929116908590600401615746565b602060405180830381600087803b15801561107e57600080fd5b505af1158015611092573d6000803e3d6000fd5b505050506040513d601f19601f820116820180604052508101906110b69190615518565b50600a5460085460405163efc34aab60e01b81526001600160a01b039283169263efc34aab926110f29291169089908d906000906004016156f8565b602060405180830381600087803b15801561110c57600080fd5b505af1158015611120573d6000803e3d6000fd5b505050506040513d601f19601f82011682018060405250810190611144919061554c565b506112fb565b6009546001600160a01b03878116911614806111de5750600a5460405163643fd21560e11b81526001600160a01b0387811660048301529091169063c87fa42a9060240160206040518083038186803b1580156111a657600080fd5b505afa1580156111ba573d6000803e3d6000fd5b505050506040513d601f19601f820116820180604052508101906111de9190615518565b156112fb57600954600a5460405163a9059cbb60e01b81526001600160a01b039283169263a9059cbb92611219929116908590600401615746565b602060405180830381600087803b15801561123357600080fd5b505af1158015611247573d6000803e3d6000fd5b505050506040513d601f19601f8201168201806040525081019061126b9190615518565b50600a5460095460405163efc34aab60e01b81526001600160a01b039283169263efc34aab926112a79291169089908d906000906004016156f8565b602060405180830381600087803b1580156112c157600080fd5b505af11580156112d5573d6000803e3d6000fd5b505050506040513d601f19601f820116820180604052508101906112f9919061554c565b505b846001600160a01b0316866001600160a01b0316896001600160a01b03167fae998ad28d77f73e6eb1de185a4d9c3656e19b47125aa0e732ceabecefdd30618a86604051611353929190918252602082015260400190565b60405180910390a4509695505050505050565b600a54604051636c66769560e11b81526001600160a01b0383811660048301529091169063d8cced2a9060240160206040518083038186803b1580156113ab57600080fd5b505afa1580156113bf573d6000803e3d6000fd5b505050506040513d601f19601f820116820180604052508101906113e39190615518565b61141c5760405162461bcd60e51b815260206004820152600a6024820152692737ba1030b731b437b960b11b6044820152606401610e4d565b600a5460405163b34c8afb60e01b81526001600160a01b0384811660048301529091169063b34c8afb9060240160206040518083038186803b15801561146157600080fd5b505afa158015611475573d6000803e3d6000fd5b505050506040513d601f19601f82011682018060405250810190611499919061554c565b600a5460405163b34c8afb60e01b81526001600160a01b0384811660048301529091169063b34c8afb9060240160206040518083038186803b1580156114de57600080fd5b505afa1580156114f2573d6000803e3d6000fd5b505050506040513d601f19601f82011682018060405250810190611516919061554c565b116115505760405162461bcd60e51b815260206004820152600a6024820152692737ba103232b2b832b960b11b6044820152606401610e4d565b61155e82600d5460006144e3565b61156c81600c5460016144e3565b6001600160a01b03808316600090815260076020526040808220805460ff199081169091559284168252812080549092166001179091555b600e5481101561165757826001600160a01b0316600e82815481106115d957634e487b7160e01b600052603260045260246000fd5b6000918252602090912001546001600160a01b031614156116455781600e828154811061161657634e487b7160e01b600052603260045260246000fd5b9060005260206000200160006101000a8154816001600160a01b0302191690836001600160a01b031602179055505b8061164f816157cd565b9150506115a4565b50611661816139ed565b5050565b60006116798484600085600061271061179d565b90505b9392505050565b61168b612ba9565b6001600160a01b0316336001600160a01b0316146116d55760405162461bcd60e51b81526020600482015260076024820152664e6f742044414f60c81b6044820152606401610e4d565b600b92909255600c55600d55565b6000806116f086866146e6565b905060006116fe85856146e6565b905061170c33868484614a52565b600a5460405163fde3b26560e01b81526001600160a01b039091169063fde3b26590611740908a90899033906004016156d5565b602060405180830381600087803b15801561175a57600080fd5b505af115801561176e573d6000803e3d6000fd5b505050506040513d601f19601f82011682018060405250810190611792919061554c565b979650505050505050565b600033856117b5576117af87896146e6565b5061183e565b600a54604051636e76408b60e11b81526001600160a01b03898116600483015261183c92169063dcec811690602401602060405180830381600087803b1580156117fe57600080fd5b505af1158015611812573d6000803e3d6000fd5b505050506040513d601f19601f82011682018060405250810190611836919061531c565b896146e6565b505b600a54604051636c66769560e11b81526001600160a01b038981166004830152600092169063d8cced2a9060240160206040518083038186803b15801561188457600080fd5b505afa158015611898573d6000803e3d6000fd5b505050506040513d601f19601f820116820180604052508101906118bc9190615518565b8061193f5750600a54604051636c66769560e11b81526001600160a01b0388811660048301529091169063d8cced2a9060240160206040518083038186803b15801561190757600080fd5b505afa15801561191b573d6000803e3d6000fd5b505050506040513d601f19601f8201168201806040525081019061193f9190615518565b1561195657506008546001600160a01b0316611964565b506009546001600160a01b03165b61196d86612aca565b15611ba5578361197b612b2c565b600a5460405163e6ae1a9760e01b81526001600160a01b038c8116600483015292831692632db6e488928e9291169063e6ae1a979060240160206040518083038186803b1580156119cb57600080fd5b505afa1580156119df573d6000803e3d6000fd5b505050506040513d601f19601f82011682018060405250810190611a03919061554c565b6040516001600160e01b031960e085901b1681526004810192909252602482015260440160206040518083038186803b158015611a3f57600080fd5b505afa158015611a53573d6000803e3d6000fd5b505050506040513d601f19601f82011682018060405250810190611a77919061554c565b1115611a8257600080fd5b86611b1757600a5460405163efc34aab60e01b81526001600160a01b039091169063efc34aab90611abe9084908c9087906001906004016156f8565b602060405180830381600087803b158015611ad857600080fd5b505af1158015611aec573d6000803e3d6000fd5b505050506040513d601f19601f82011682018060405250810190611b10919061554c565b9250611ba0565b600a546040516371d6d97b60e11b81526001600160a01b039091169063e3adb2f690611b4b9084908c9087906004016156d5565b602060405180830381600087803b158015611b6557600080fd5b505af1158015611b79573d6000803e3d6000fd5b505050506040513d601f19601f82011682018060405250810190611b9d919061554c565b92505b612155565b611bae88612aca565b15611d335783611bbc612b2c565b600a5460405163b34c8afb60e01b81526001600160a01b038a8116600483015292831692632db6e488928e9291169063b34c8afb9060240160206040518083038186803b158015611c0c57600080fd5b505afa158015611c20573d6000803e3d6000fd5b505050506040513d601f19601f82011682018060405250810190611c44919061554c565b6040516001600160e01b031960e085901b1681526004810192909252602482015260440160206040518083038186803b158015611c8057600080fd5b505afa158015611c94573d6000803e3d6000fd5b505050506040513d601f19601f82011682018060405250810190611cb8919061554c565b1115611cc357600080fd5b84611cff57600a5460405163efc34aab60e01b81526001600160a01b039091169063efc34aab90611abe9084908a9087906000906004016156f8565b600a5460405163680b1a3f60e11b81526001600160a01b039091169063d016347e90611b4b9084908a9087906004016156d5565b611d3c88612aca565b158015611d4f5750611d4d86612aca565b155b156121555783611d5d612b2c565b600a5460405163e6ae1a9760e01b81526001600160a01b038c8116600483015292831692632db6e488928e9291169063e6ae1a979060240160206040518083038186803b158015611dad57600080fd5b505afa158015611dc1573d6000803e3d6000fd5b505050506040513d601f19601f82011682018060405250810190611de5919061554c565b6040516001600160e01b031960e085901b1681526004810192909252602482015260440160206040518083038186803b158015611e2157600080fd5b505afa158015611e35573d6000803e3d6000fd5b505050506040513d601f19601f82011682018060405250810190611e59919061554c565b1115611e6457600080fd5b86611ef857600a5460405163efc34aab60e01b81526001600160a01b039091169063efc34aab90611ea09084908c9085906001906004016156f8565b602060405180830381600087803b158015611eba57600080fd5b505af1158015611ece573d6000803e3d6000fd5b505050506040513d601f19601f82011682018060405250810190611ef2919061554c565b50611f80565b600a546040516371d6d97b60e11b81526001600160a01b039091169063e3adb2f690611f2c9084908c9085906004016156d5565b602060405180830381600087803b158015611f4657600080fd5b505af1158015611f5a573d6000803e3d6000fd5b505050506040513d601f19601f82011682018060405250810190611f7e919061554c565b505b83611f89612b2c565b600a5460405163b34c8afb60e01b81526001600160a01b038a8116600483015292831692632db6e488928e9291169063b34c8afb9060240160206040518083038186803b158015611fd957600080fd5b505afa158015611fed573d6000803e3d6000fd5b505050506040513d601f19601f82011682018060405250810190612011919061554c565b6040516001600160e01b031960e085901b1681526004810192909252602482015260440160206040518083038186803b15801561204d57600080fd5b505afa158015612061573d6000803e3d6000fd5b505050506040513d601f19601f82011682018060405250810190612085919061554c565b111561209057600080fd5b846120cc57600a5460405163efc34aab60e01b81526001600160a01b039091169063efc34aab90611b4b9084908a9087906000906004016156f8565b600a5460405163680b1a3f60e11b81526001600160a01b039091169063d016347e906121009084908a9087906004016156d5565b602060405180830381600087803b15801561211a57600080fd5b505af115801561212e573d6000803e3d6000fd5b505050506040513d601f19601f82011682018060405250810190612152919061554c565b92505b61215f8189614af8565b6121698187614af8565b61217288614c51565b61217b86614c51565b50509695505050505050565b600b54600e541061219757600080fd5b600a54604051636c66769560e11b81526001600160a01b0383811660048301529091169063d8cced2a9060240160206040518083038186803b1580156121dc57600080fd5b505afa1580156121f0573d6000803e3d6000fd5b505050506040513d601f19601f820116820180604052508101906122149190615518565b61221d57600080fd5b600e80546001810182556000919091527fbb7b4a454dc3493923482f07822329ed19e8244eff582cc204f8554c3620c3fd0180546001600160a01b0319166001600160a01b038316179055600f612272612b2c565b6001600160a01b031663db39dc79836001546040518363ffffffff1660e01b81526004016122a1929190615746565b60206040518083038186803b1580156122b957600080fd5b505afa1580156122cd573d6000803e3d6000fd5b505050506040513d601f19601f820116820180604052508101906122f1919061554c565b81546001818101845560009384526020808520909201929092556001600160a01b0384168352600790526040909120805460ff19169091179055612334816139ed565b50565b61233f612ba9565b6001600160a01b0316336001600160a01b0316146123895760405162461bcd60e51b81526020600482015260076024820152664e6f742044414f60c81b6044820152606401610e4d565b600392909255600455600555565b6000806123a261084f565b905080600154846123b39190615797565b6123bd9190615777565b9150505b919050565b60006123d184612b03565b156124b1576001600160a01b03808616600090815260136020908152604080832093881683529290529081205461240890426157b6565b905060045481116124ab5761241b612b2c565b600480546040516306e8c9b160e21b81529182018490526024820152604481018590526001600160a01b039190911690631ba326c49060640160206040518083038186803b15801561246c57600080fd5b505afa158015612480573d6000803e3d6000fd5b505050506040513d601f19601f820116820180604052508101906124a4919061554c565b91506124af565b8291505b505b6124b9612b2c565b60405163714270ab60e01b815260048101859052602481018390526001600160a01b03919091169063714270ab9060440160206040518083038186803b15801561250257600080fd5b505afa158015612516573d6000803e3d6000fd5b505050506040513d601f19601f82011682018060405250810190610ed5919061554c565b600a54604051636c66769560e11b81526001600160a01b038381166004830152600092169063d8cced2a9060240160206040518083038186803b15801561258057600080fd5b505afa158015612594573d6000803e3d6000fd5b505050506040513d601f19601f820116820180604052508101906125b89190615518565b8061263b5750600a5460405163643fd21560e11b81526001600160a01b0384811660048301529091169063c87fa42a9060240160206040518083038186803b15801561260357600080fd5b505afa158015612617573d6000803e3d6000fd5b505050506040513d601f19601f8201168201806040525081019061263b9190615518565b156123c157506001919050565b6000808061271061265b87611a0a615797565b6126659190615777565b905061267085612aca565b1561267d578091506129a1565b6126868561253a565b1561282357612693612b2c565b600a5460405163024ef37560e41b81526001600160a01b0388811660048301528a8116602483015292831692634a1276519285929116906324ef37509060440160206040518083038186803b1580156126eb57600080fd5b505afa1580156126ff573d6000803e3d6000fd5b505050506040513d601f19601f82011682018060405250810190612723919061554c565b600a5460405163b34c8afb60e01b81526001600160a01b038b811660048301529091169063b34c8afb9060240160206040518083038186803b15801561276857600080fd5b505afa15801561277c573d6000803e3d6000fd5b505050506040513d601f19601f820116820180604052508101906127a0919061554c565b6040516001600160e01b031960e086901b16815260048101939093526024830191909152604482015260640160206040518083038186803b1580156127e457600080fd5b505afa1580156127f8573d6000803e3d6000fd5b505050506040513d601f19601f8201168201806040525081019061281c919061554c565b91506129a1565b600a54604051632f011bf560e11b81526001600160a01b03878116600483015290911690635e0237ea90602401602060405180830381600087803b15801561286a57600080fd5b505af115801561287e573d6000803e3d6000fd5b505050506040513d601f19601f820116820180604052508101906128a29190615518565b156129a1576128af612b2c565b6001600160a01b031663b80e44b8866001600160a01b03166382bfefc86040518163ffffffff1660e01b8152600401602060405180830381600087803b1580156128f857600080fd5b505af115801561290c573d6000803e3d6000fd5b505050506040513d601f19601f82011682018060405250810190612930919061531c565b836040518363ffffffff1660e01b815260040161294e929190615746565b60206040518083038186803b15801561296657600080fd5b505afa15801561297a573d6000803e3d6000fd5b505050506040513d601f19601f8201168201806040525081019061299e919061554c565b91505b6129a9612b2c565b6001600160a01b0316635f2c12e885846040518363ffffffff1660e01b81526004016129d6929190615746565b60206040518083038186803b1580156129ee57600080fd5b505afa158015612a02573d6000803e3d6000fd5b505050506040513d601f19601f82011682018060405250810190612a26919061554c565b92505094509492505050565b6008546040516370a0823160e01b81523060048201526000916001600160a01b0316906370a08231906024015b60206040518083038186803b158015612a7757600080fd5b505afa158015612a8b573d6000803e3d6000fd5b505050506040513d601f19601f8201168201806040525081019061096d919061554c565b600080612aba61084f565b6001549091506123b38483615797565b6008546000906001600160a01b0383811691161480612af657506009546001600160a01b038381169116145b156123c1575060016123c1565b6001600160a01b03811660009081526007602052604081205460ff16156123c157506001919050565b60085460408051637b0e5c4560e01b815290516000926001600160a01b031691637b0e5c45916004808301926020929190829003018186803b158015612b7157600080fd5b505afa158015612b85573d6000803e3d6000fd5b505050506040513d601f19601f8201168201806040525081019061096d919061531c565b60085460408051634c7d5e9d60e11b815290516000926001600160a01b0316916398fabd3a916004808301926020929190829003018186803b158015612b7157600080fd5b6000612c00868686868661271061179d565b9695505050505050565b6000612c146108f0565b8015612c245750612c2482612b03565b156123c157600a5460405163b34c8afb60e01b81526001600160a01b038481166004830152600092169063b34c8afb9060240160206040518083038186803b158015612c6f57600080fd5b505afa158015612c83573d6000803e3d6000fd5b505050506040513d601f19601f82011682018060405250810190612ca7919061554c565b600a5460405163643fd21560e11b81526001600160a01b03868116600483015292935091169063c87fa42a9060240160206040518083038186803b158015612cee57600080fd5b505afa158015612d02573d6000803e3d6000fd5b505050506040513d601f19601f82011682018060405250810190612d269190615518565b15612e61576000612d35612b2c565b6001600160a01b0316631ba326c483600a60009054906101000a90046001600160a01b03166001600160a01b031663a9652dca6040518163ffffffff1660e01b815260040160206040518083038186803b158015612d9257600080fd5b505afa158015612da6573d6000803e3d6000fd5b505050506040513d601f19601f82011682018060405250810190612dca919061554c565b612dd26139bc565b6040516001600160e01b031960e086901b16815260048101939093526024830191909152604482015260640160206040518083038186803b158015612e1657600080fd5b505afa158015612e2a573d6000803e3d6000fd5b505050506040513d601f19601f82011682018060405250810190612e4e919061554c565b9050612e598161301b565b925050613015565b600a54604051636c66769560e11b81526001600160a01b0385811660048301529091169063d8cced2a9060240160206040518083038186803b158015612ea657600080fd5b505afa158015612eba573d6000803e3d6000fd5b505050506040513d601f19601f82011682018060405250810190612ede9190615518565b15613015576000612eed612b2c565b6001600160a01b0316631ba326c483600a60009054906101000a90046001600160a01b03166001600160a01b031663dd5a2bd86040518163ffffffff1660e01b815260040160206040518083038186803b158015612f4a57600080fd5b505afa158015612f5e573d6000803e3d6000fd5b505050506040513d601f19601f82011682018060405250810190612f82919061554c565b612f8a612a32565b6040516001600160e01b031960e086901b16815260048101939093526024830191909152604482015260640160206040518083038186803b158015612fce57600080fd5b505afa158015612fe2573d6000803e3d6000fd5b505050506040513d601f19601f82011682018060405250810190613006919061554c565b90506130118161301b565b9250505b50919050565b6000613025612b2c565b6003546040516306e8c9b160e21b8152600160048201526024810191909152604481018490526001600160a01b039190911690631ba326c49060640160206040518083038186803b15801561307957600080fd5b505afa15801561308d573d6000803e3d6000fd5b505050506040513d601f19601f82011682018060405250810190610dee919061554c565b600061167933858585613d89565b6001600160a01b039283166000908152601460209081526040808320948616835260019485018252808320939095168252919092019052205490565b6008546001600160a01b03838116911614156131cc57600a54604051636c66769560e11b81526001600160a01b0383811660048301529091169063d8cced2a906024015b60206040518083038186803b15801561315757600080fd5b505afa15801561316b573d6000803e3d6000fd5b505050506040513d601f19601f8201168201806040525081019061318f9190615518565b6131c75760405162461bcd60e51b815260206004820152600960248201526842616420436f6d626f60b81b6044820152606401610e4d565b611661565b6009546001600160a01b038381169116141561321457600a5460405163643fd21560e11b81526001600160a01b0383811660048301529091169063c87fa42a9060240161313f565b600a54604051632f011bf560e11b81526001600160a01b03848116600483015290911690635e0237ea90602401602060405180830381600087803b15801561325b57600080fd5b505af115801561326f573d6000803e3d6000fd5b505050506040513d601f19601f820116820180604052508101906132939190615518565b80156133a85750600a60009054906101000a90046001600160a01b03166001600160a01b031663d8cced2a836001600160a01b03166382bfefc86040518163ffffffff1660e01b8152600401602060405180830381600087803b1580156132f957600080fd5b505af115801561330d573d6000803e3d6000fd5b505050506040513d601f19601f82011682018060405250810190613331919061531c565b6040516001600160e01b031960e084901b1681526001600160a01b03909116600482015260240160206040518083038186803b15801561337057600080fd5b505afa158015613384573d6000803e3d6000fd5b505050506040513d601f19601f820116820180604052508101906133a89190615518565b156133df57600a54604051636c66769560e11b81526001600160a01b0383811660048301529091169063d8cced2a9060240161313f565b600a54604051632f011bf560e11b81526001600160a01b03848116600483015290911690635e0237ea90602401602060405180830381600087803b15801561342657600080fd5b505af115801561343a573d6000803e3d6000fd5b505050506040513d601f19601f8201168201806040525081019061345e9190615518565b80156135735750600a60009054906101000a90046001600160a01b03166001600160a01b031663c87fa42a836001600160a01b03166382bfefc86040518163ffffffff1660e01b8152600401602060405180830381600087803b1580156134c457600080fd5b505af11580156134d8573d6000803e3d6000fd5b505050506040513d601f19601f820116820180604052508101906134fc919061531c565b6040516001600160e01b031960e084901b1681526001600160a01b03909116600482015260240160206040518083038186803b15801561353b57600080fd5b505afa15801561354f573d6000803e3d6000fd5b505050506040513d601f19601f820116820180604052508101906135739190615518565b1561166157600a5460405163643fd21560e11b81526001600160a01b0383811660048301529091169063c87fa42a9060240160206040518083038186803b1580156135bd57600080fd5b505afa1580156135d1573d6000803e3d6000fd5b505050506040513d601f19601f820116820180604052508101906135f59190615518565b6116615760405162461bcd60e51b815260206004820152600960248201526842616420436f6d626f60b81b6044820152606401610e4d565b600a5460405163643fd21560e11b81526001600160a01b0383811660048301529091169063c87fa42a9060240160206040518083038186803b15801561367257600080fd5b505afa158015613686573d6000803e3d6000fd5b505050506040513d601f19601f820116820180604052508101906136aa9190615518565b8061372d5750600a54604051636c66769560e11b81526001600160a01b0383811660048301529091169063d8cced2a9060240160206040518083038186803b1580156136f557600080fd5b505afa158015613709573d6000803e3d6000fd5b505050506040513d601f19601f8201168201806040525081019061372d9190615518565b61373657600080fd5b61373f81612b03565b61378e57600554600654101561378e576001600160a01b0381166000908152600760205260408120805460ff19166001908117909155600680549192909161378890849061575f565b90915550505b6040516001600160a01b0382169033907fb2f6cc014bc6265032f32972254d5e024ec51ed94c0aaf2280128336be54a04190600090a350565b600061167933858585610ee0565b6001600160a01b038481166000908152601460209081526040808320868516845260019081018352818420948616845284018252808320546002909401909152812054909190613823612b2c565b6040516306e8c9b160e21b81526004810188905260248101849052604481018390526001600160a01b039190911690631ba326c49060640160206040518083038186803b15801561387357600080fd5b505afa15801561176e573d6000803e3d6000fd5b600a54604051636ba97d5960e11b815260009182916001600160a01b039091169063d752fab2906138c090889088908890600401615722565b6040805180830381600087803b1580156138d957600080fd5b505af11580156138ed573d6000803e3d6000fd5b505050506040513d601f19601f820116820180604052508101906139119190615687565b9092509050600061392433878787613b41565b905061393233868684614cdc565b60405163a9059cbb60e01b81526001600160a01b0387169063a9059cbb906139609033908590600401615746565b602060405180830381600087803b15801561397a57600080fd5b505af115801561398e573d6000803e3d6000fd5b505050506040513d601f19601f820116820180604052508101906139b29190615518565b5050935093915050565b6009546040516370a0823160e01b81523060048201526000916001600160a01b0316906370a0823190602401612a5f565b60005b600e5481101561166157816001600160a01b0316600e8281548110613a2557634e487b7160e01b600052603260045260246000fd5b6000918252602090912001546001600160a01b03161415613b2f57613a48612b2c565b6001600160a01b031663db39dc79600e8381548110613a7757634e487b7160e01b600052603260045260246000fd5b6000918252602090912001546001546040516001600160e01b031960e085901b168152613ab1926001600160a01b03169190600401615746565b60206040518083038186803b158015613ac957600080fd5b505afa158015613add573d6000803e3d6000fd5b505050506040513d601f19601f82011682018060405250810190613b01919061554c565b600f8281548110613b2257634e487b7160e01b600052603260045260246000fd5b6000918252602090912001555b80613b39816157cd565b9150506139f0565b6000613b538584846105578988610972565b6008549091506001600160a01b0385811691161415613b8a57613b74612a32565b8110613b8557613b82612a32565b90505b610ed8565b613b926139bc565b8110610ed857610ed56139bc565b600a5460405163643fd21560e11b81526001600160a01b0383811660048301529091169063c87fa42a9060240160206040518083038186803b158015613be557600080fd5b505afa158015613bf9573d6000803e3d6000fd5b505050506040513d601f19601f82011682018060405250810190613c1d9190615518565b613c2657600080fd5b600a5460405163b34c8afb60e01b81526001600160a01b0384811660048301529091169063b34c8afb9060240160206040518083038186803b158015613c6b57600080fd5b505afa158015613c7f573d6000803e3d6000fd5b505050506040513d601f19601f82011682018060405250810190613ca3919061554c565b600a5460405163b34c8afb60e01b81526001600160a01b0384811660048301529091169063b34c8afb9060240160206040518083038186803b158015613ce857600080fd5b505afa158015613cfc573d6000803e3d6000fd5b505050506040513d601f19601f82011682018060405250810190613d20919061554c565b1115611661576001600160a01b03808316600090815260076020526040808220805460ff1990811690915592841680835281832080549094166001179093555133917fb2f6cc014bc6265032f32972254d5e024ec51ed94c0aaf2280128336be54a04191a35050565b600080613d94612b2c565b6001600160a01b031663714270ab86613dae8988886130bf565b6040516001600160e01b031960e085901b1681526004810192909252602482015260440160206040518083038186803b158015613dea57600080fd5b505afa158015613dfe573d6000803e3d6000fd5b505050506040513d601f19601f82011682018060405250810190613e22919061554c565b90506000613e3084836146e6565b6008549091506001600160a01b0386811691161480613ec75750600a54604051636c66769560e11b81526001600160a01b0386811660048301529091169063d8cced2a9060240160206040518083038186803b158015613e8f57600080fd5b505afa158015613ea3573d6000803e3d6000fd5b505050506040513d601f19601f82011682018060405250810190613ec79190615518565b15613f5f57600a5460085460405163efc34aab60e01b81526001600160a01b039283169263efc34aab92613f0792911690889030906001906004016156f8565b602060405180830381600087803b158015613f2157600080fd5b505af1158015613f35573d6000803e3d6000fd5b505050506040513d601f19601f82011682018060405250810190613f59919061554c565b50614087565b6009546001600160a01b0386811691161480613ff35750600a5460405163643fd21560e11b81526001600160a01b0386811660048301529091169063c87fa42a9060240160206040518083038186803b158015613fbb57600080fd5b505afa158015613fcf573d6000803e3d6000fd5b505050506040513d601f19601f82011682018060405250810190613ff39190615518565b1561408757600a5460095460405163efc34aab60e01b81526001600160a01b039283169263efc34aab9261403392911690889030906001906004016156f8565b602060405180830381600087803b15801561404d57600080fd5b505af1158015614061573d6000803e3d6000fd5b505050506040513d601f19601f82011682018060405250810190614085919061554c565b505b614093878287876137d5565b6001600160a01b0380871660009081526015602090815260408083209389168352929052908120805492955085929091906140cf9084906157b6565b90915550506001600160a01b0380861660009081526016602090815260408083209388168352929052908120805483929061410b9084906157b6565b9091555061411e90508784878488614ef4565b836001600160a01b0316856001600160a01b0316886001600160a01b03167f80cf2752eb276900a648b467a8fe8180e3192a2370982e997e928b3dc8b99ba18685604051614176929190918252602082015260400190565b60405180910390a4614189878685614f8a565b5050949350505050565b600e81815481106141a357600080fd5b6000918252602090912001546001600160a01b0316905081565b805160609060005b8181101561430f5760006141da82600161575f565b90505b828110156142fc5784818151811061420557634e487b7160e01b600052603260045260246000fd5b602002602001015185838151811061422d57634e487b7160e01b600052603260045260246000fd5b602002602001015111156142ea57600085838151811061425d57634e487b7160e01b600052603260045260246000fd5b6020026020010151905085828151811061428757634e487b7160e01b600052603260045260246000fd5b60200260200101518684815181106142af57634e487b7160e01b600052603260045260246000fd5b602002602001018181525050808683815181106142dc57634e487b7160e01b600052603260045260246000fd5b602002602001018181525050505b806142f4816157cd565b9150506141dd565b5080614307816157cd565b9150506141c5565b509192915050565b600061432283612aca565b806143a75750600a54604051632f011bf560e11b81526001600160a01b03858116600483015290911690635e0237ea90602401602060405180830381600087803b15801561436f57600080fd5b505af1158015614383573d6000803e3d6000fd5b505050506040513d601f19601f820116820180604052508101906143a79190615518565b156143bd576143b683836150aa565b905061167c565b6143c68361253a565b1561167c57600a5460405163783ba87960e01b8152600481018490526001600160a01b03858116602483015286811660448301529091169063783ba87990606401600060405180830381600087803b15801561442157600080fd5b505af1158015614435573d6000803e3d6000fd5b50939695505050505050565b6001600160a01b0380861660009081526014602090815260408083208785168452600190810183528184209486168452939093019052908120805484929061448a90849061575f565b90915550506001600160a01b0380861660009081526014602090815260408083208785168452600101825280832093851683526002909301905290812080548692906144d790849061575f565b90915550505050505050565b60006144ed61084f565b905060006144f9612b2c565b6001600160a01b031663db39dc79866001546040518363ffffffff1660e01b8152600401614528929190615746565b60206040518083038186803b15801561454057600080fd5b505afa158015614554573d6000803e3d6000fd5b505050506040513d601f19601f82011682018060405250810190614578919061554c565b90506000614584612b2c565b6001600160a01b031663714270ab866002546145a091906157b6565b856040518363ffffffff1660e01b81526004016145c7929190918252602082015260400190565b60206040518083038186803b1580156145df57600080fd5b505afa1580156145f3573d6000803e3d6000fd5b505050506040513d601f19601f82011682018060405250810190614617919061554c565b60025490915060009061462a878261575f565b6146349086615797565b61463e9190615777565b90508415614694578183101580156146565750808311155b61468f5760405162461bcd60e51b815260206004820152600a6024820152694e6f7420696e7369646560b01b6044820152606401610e4d565b6146dd565b81831115806146a35750808310155b6146dd5760405162461bcd60e51b815260206004820152600b60248201526a4e6f74206f75747369646560a81b6044820152606401610e4d565b50505050505050565b6008546000906001600160a01b038481169116148061471257506009546001600160a01b038481169116145b806147975750600a54604051632f011bf560e11b81526001600160a01b03858116600483015290911690635e0237ea90602401602060405180830381600087803b15801561475f57600080fd5b505af1158015614773573d6000803e3d6000fd5b505050506040513d601f19601f820116820180604052508101906147979190615518565b156148bf5750803233141561483257600a546040516302ccb1b360e41b81526001600160a01b0385811692632ccb1b30926147da92909116908690600401615746565b602060405180830381600087803b1580156147f457600080fd5b505af1158015614808573d6000803e3d6000fd5b505050506040513d601f19601f8201168201806040525081019061482c9190615518565b506148ba565b600a546040516323b872dd60e01b81526001600160a01b03808616926323b872dd9261486692339216908790600401615722565b602060405180830381600087803b15801561488057600080fd5b505af1158015614894573d6000803e3d6000fd5b505050506040513d601f19601f820116820180604052508101906148b89190615518565b505b610dee565b600a546040516370a0823160e01b81526001600160a01b0391821660048201526000918516906370a082319060240160206040518083038186803b15801561490657600080fd5b505afa15801561491a573d6000803e3d6000fd5b505050506040513d601f19601f8201168201806040525081019061493e919061554c565b600a546040516323b872dd60e01b81529192506001600160a01b03808716926323b872dd926149769233929116908890600401615722565b602060405180830381600087803b15801561499057600080fd5b505af11580156149a4573d6000803e3d6000fd5b505050506040513d601f19601f820116820180604052508101906149c89190615518565b50600a546040516370a0823160e01b81526001600160a01b03918216600482015282918616906370a08231906024015b60206040518083038186803b158015614a1057600080fd5b505afa158015614a24573d6000803e3d6000fd5b505050506040513d601f19601f82011682018060405250810190614a48919061554c565b610ed891906157b6565b6001600160a01b03808516600090815260116020908152604080832093871683529290529081208054849290614a8990849061575f565b90915550506001600160a01b03808516600090815260126020908152604080832093871683529290529081208054839290614ac590849061575f565b9091555050506001600160a01b039283166000908152601360209081526040808320949095168252929092525020429055565b614b0181612aca565b611661576000614b1082612c0a565b600a5460405163a9059cbb60e01b81529192506001600160a01b038086169263a9059cbb92614b459216908590600401615746565b602060405180830381600087803b158015614b5f57600080fd5b505af1158015614b73573d6000803e3d6000fd5b505050506040513d601f19601f82011682018060405250810190614b979190615518565b50600a54604051633041949b60e01b81526001600160a01b038581166004830152848116602483015290911690633041949b90604401600060405180830381600087803b158015614be757600080fd5b505af1158015614bfb573d6000803e3d6000fd5b50505050816001600160a01b0316836001600160a01b03167f416b0b234ccd4d6d72c4b1a3a09b472a71981d9bbf0f26ab44774e0e3425fad683604051614c4491815260200190565b60405180910390a3505050565b600a54604051636c66769560e11b81526001600160a01b0383811660048301529091169063d8cced2a9060240160206040518083038186803b158015614c9657600080fd5b505afa158015614caa573d6000803e3d6000fd5b505050506040513d601f19601f82011682018060405250810190614cce9190615518565b1561233457612334816139ed565b6001600160a01b03808516600090815260116020908152604080832093871683529290529081208054839290614d1390849061575f565b9091555060009050614d23612b2c565b6001600160a01b03868116600090815260116020908152604080832089851684529091529081902054905163714270ab60e01b815260048101879052602481019190915291169063714270ab9060440160206040518083038186803b158015614d8b57600080fd5b505afa158015614d9f573d6000803e3d6000fd5b505050506040513d601f19601f82011682018060405250810190614dc3919061554c565b90506000614dcf612b2c565b6001600160a01b0387811660009081526012602090815260408083208a851684529091529081902054905163714270ab60e01b815260048101889052602481019190915291169063714270ab9060440160206040518083038186803b158015614e3757600080fd5b505afa158015614e4b573d6000803e3d6000fd5b505050506040513d601f19601f82011682018060405250810190614e6f919061554c565b6001600160a01b038088166000908152601160209081526040808320938a16835292905290812080549293508492909190614eab9084906157b6565b90915550506001600160a01b03808716600090815260126020908152604080832093891683529290529081208054839290614ee79084906157b6565b9091555050505050505050565b6001600160a01b03808616600090815260146020908152604080832087851684526001908101835281842094861684529390930190529081208054849290614f3d9084906157b6565b90915550506001600160a01b0380861660009081526014602090815260408083208785168452600101825280832093851683526002909301905290812080548692906144d79084906157b6565b614f9382612aca565b806150185750600a54604051632f011bf560e11b81526001600160a01b03848116600483015290911690635e0237ea90602401602060405180830381600087803b158015614fe057600080fd5b505af1158015614ff4573d6000803e3d6000fd5b505050506040513d601f19601f820116820180604052508101906150189190615518565b1561502d57615028828483615277565b6150a5565b6150368261253a565b156150a557600a5460405163798e23d560e01b8152600481018390526001600160a01b03848116602483015285811660448301529091169063798e23d590606401600060405180830381600087803b15801561509157600080fd5b505af11580156146dd573d6000803e3d6000fd5b505050565b6040516370a0823160e01b815230600482015260009081906001600160a01b038516906370a082319060240160206040518083038186803b1580156150ee57600080fd5b505afa158015615102573d6000803e3d6000fd5b505050506040513d601f19601f82011682018060405250810190615126919061554c565b9050323314156151be576040516302ccb1b360e41b81526001600160a01b03851690632ccb1b309061515e9030908790600401615746565b602060405180830381600087803b15801561517857600080fd5b505af115801561518c573d6000803e3d6000fd5b505050506040513d601f19601f820116820180604052508101906151b09190615518565b6151b957600080fd5b615249565b6040516323b872dd60e01b81526001600160a01b038516906323b872dd906151ee90339030908890600401615722565b602060405180830381600087803b15801561520857600080fd5b505af115801561521c573d6000803e3d6000fd5b505050506040513d601f19601f820116820180604052508101906152409190615518565b61524957600080fd5b6040516370a0823160e01b815230600482015281906001600160a01b038616906370a08231906024016149f8565b60405163a9059cbb60e01b81526001600160a01b0384169063a9059cbb906152a59085908590600401615746565b602060405180830381600087803b1580156152bf57600080fd5b505af11580156152d3573d6000803e3d6000fd5b505050506040513d601f19601f820116820180604052508101906152f79190615518565b6150a557600080fd5b600060208284031215615311578081fd5b813561167c816157fe565b60006020828403121561532d578081fd5b815161167c816157fe565b6000806040838503121561534a578081fd5b8235615355816157fe565b91506020830135615365816157fe565b809150509250929050565b600080600060608486031215615384578081fd5b833561538f816157fe565b9250602084013561539f816157fe565b915060408401356153af816157fe565b809150509250925092565b600080600080608085870312156153cf578081fd5b84356153da816157fe565b935060208501356153ea816157fe565b925060408501356153fa816157fe565b9396929550929360600135925050565b60008060006060848603121561541e578283fd5b8335615429816157fe565b92506020840135615439816157fe565b929592945050506040919091013590565b6000806000806080858703121561545f578384fd5b843561546a816157fe565b9350602085013561547a816157fe565b93969395505050506040820135916060013590565b600080600080608085870312156154a4578384fd5b84356154af816157fe565b93506020850135925060408501356154c6816157fe565b915060608501356154d6816157fe565b939692955090935050565b600080600080608085870312156154f6578384fd5b8435615501816157fe565b93506020850135925060408501356153fa816157fe565b600060208284031215615529578081fd5b815161167c81615813565b600060208284031215615545578081fd5b5035919050565b60006020828403121561555d578081fd5b5051919050565b600080600060608486031215615578578283fd5b83359250602084013561539f816157fe565b6000806000806080858703121561559f578182fd5b8435935060208501356153ea816157fe565b600080600080600060a086880312156155c8578283fd5b8535945060208601356155da816157fe565b935060408601356155ea81615813565b925060608601356155fa816157fe565b9150608086013561560a81615813565b809150509295509295909350565b60008060008060008060c08789031215615630578384fd5b863595506020870135615642816157fe565b9450604087013561565281615813565b93506060870135615662816157fe565b9250608087013561567281615813565b8092505060a087013590509295509295509295565b60008060408385031215615699578182fd5b505080516020909101519092909150565b6000806000606084860312156156be578081fd5b505081359360208301359350604090920135919050565b6001600160a01b0393841681529183166020830152909116604082015260600190565b6001600160a01b039485168152928416602084015292166040820152901515606082015260800190565b6001600160a01b039384168152919092166020820152604081019190915260600190565b6001600160a01b03929092168252602082015260400190565b60008219821115615772576157726157e8565b500190565b60008261579257634e487b7160e01b81526012600452602481fd5b500490565b60008160001904831182151516156157b1576157b16157e8565b500290565b6000828210156157c8576157c86157e8565b500390565b60006000198214156157e1576157e16157e8565b5060010190565b634e487b7160e01b600052601160045260246000fd5b6001600160a01b038116811461233457600080fd5b801515811461233457600080fdfea2646970667358221220e74b42f3a21c45738b9c37d284575e6e5fec260920319ba15c116ca9cca17e0364736f6c63430008030033",
  "linkReferences": {},
  "deployedLinkReferences": {}
}