{
  "_format": "hh-sol-artifact-1",
  "contractName": "Router",
  "sourceName": "contracts/Router.sol",
  "abi": [
    {
      "inputs": [],
      "stateMutability": "nonpayable",
      "type": "constructor"
    },
    {
      "anonymous": false,
      "inputs": [
        {
          "indexed": true,
          "internalType": "address",
          "name": "member",
          "type": "address"
        },
        {
          "indexed": true,
          "internalType": "address",
          "name": "collateralAsset",
          "type": "address"
        },
        {
          "indexed": false,
          "internalType": "uint256",
          "name": "collateralLocked",
          "type": "uint256"
        },
        {
          "indexed": true,
          "internalType": "address",
          "name": "debtAsset",
          "type": "address"
        },
        {
          "indexed": false,
          "internalType": "uint256",
          "name": "debtIssued",
          "type": "uint256"
        }
      ],
      "name": "AddCollateral",
      "type": "event"
    },
    {
      "anonymous": false,
      "inputs": [
        {
          "indexed": true,
          "internalType": "address",
          "name": "curator",
          "type": "address"
        },
        {
          "indexed": true,
          "internalType": "address",
          "name": "token",
          "type": "address"
        }
      ],
      "name": "Curated",
      "type": "event"
    },
    {
      "anonymous": false,
      "inputs": [
        {
          "indexed": true,
          "internalType": "address",
          "name": "base",
          "type": "address"
        },
        {
          "indexed": true,
          "internalType": "address",
          "name": "token",
          "type": "address"
        },
        {
          "indexed": false,
          "internalType": "uint256",
          "name": "amount",
          "type": "uint256"
        }
      ],
      "name": "PoolReward",
      "type": "event"
    },
    {
      "anonymous": false,
      "inputs": [
        {
          "indexed": true,
          "internalType": "address",
          "name": "member",
          "type": "address"
        },
        {
          "indexed": false,
          "internalType": "uint256",
          "name": "amount",
          "type": "uint256"
        }
      ],
      "name": "Protection",
      "type": "event"
    },
    {
      "anonymous": false,
      "inputs": [
        {
          "indexed": true,
          "internalType": "address",
          "name": "member",
          "type": "address"
        },
        {
          "indexed": true,
          "internalType": "address",
          "name": "collateralAsset",
          "type": "address"
        },
        {
          "indexed": false,
          "internalType": "uint256",
          "name": "collateralUnlocked",
          "type": "uint256"
        },
        {
          "indexed": true,
          "internalType": "address",
          "name": "debtAsset",
          "type": "address"
        },
        {
          "indexed": false,
          "internalType": "uint256",
          "name": "debtReturned",
          "type": "uint256"
        }
      ],
      "name": "RemoveCollateral",
      "type": "event"
    },
    {
      "inputs": [],
      "name": "DAO",
      "outputs": [
        {
          "internalType": "address",
          "name": "",
          "type": "address"
        }
      ],
      "stateMutability": "view",
      "type": "function"
    },
    {
      "inputs": [],
      "name": "POOLS",
      "outputs": [
        {
          "internalType": "address",
          "name": "",
          "type": "address"
        }
      ],
      "stateMutability": "view",
      "type": "function"
    },
    {
      "inputs": [],
      "name": "RESERVE",
      "outputs": [
        {
          "internalType": "address",
          "name": "",
          "type": "address"
        }
      ],
      "stateMutability": "view",
      "type": "function"
    },
    {
      "inputs": [],
      "name": "USDV",
      "outputs": [
        {
          "internalType": "address",
          "name": "",
          "type": "address"
        }
      ],
      "stateMutability": "view",
      "type": "function"
    },
    {
      "inputs": [],
      "name": "UTILS",
      "outputs": [
        {
          "internalType": "address",
          "name": "",
          "type": "address"
        }
      ],
      "stateMutability": "view",
      "type": "function"
    },
    {
      "inputs": [],
      "name": "VADER",
      "outputs": [
        {
          "internalType": "address",
          "name": "",
          "type": "address"
        }
      ],
      "stateMutability": "view",
      "type": "function"
    },
    {
      "inputs": [
        {
          "internalType": "address",
          "name": "base",
          "type": "address"
        },
        {
          "internalType": "uint256",
          "name": "inputBase",
          "type": "uint256"
        },
        {
          "internalType": "address",
          "name": "token",
          "type": "address"
        },
        {
          "internalType": "uint256",
          "name": "inputToken",
          "type": "uint256"
        }
      ],
      "name": "addLiquidity",
      "outputs": [
        {
          "internalType": "uint256",
          "name": "",
          "type": "uint256"
        }
      ],
      "stateMutability": "nonpayable",
      "type": "function"
    },
    {
      "inputs": [],
      "name": "anchorLimit",
      "outputs": [
        {
          "internalType": "uint256",
          "name": "",
          "type": "uint256"
        }
      ],
      "stateMutability": "view",
      "type": "function"
    },
    {
      "inputs": [
        {
          "internalType": "uint256",
          "name": "",
          "type": "uint256"
        }
      ],
      "name": "arrayAnchors",
      "outputs": [
        {
          "internalType": "address",
          "name": "",
          "type": "address"
        }
      ],
      "stateMutability": "view",
      "type": "function"
    },
    {
      "inputs": [
        {
          "internalType": "uint256",
          "name": "",
          "type": "uint256"
        }
      ],
      "name": "arrayPrices",
      "outputs": [
        {
          "internalType": "uint256",
          "name": "",
          "type": "uint256"
        }
      ],
      "stateMutability": "view",
      "type": "function"
    },
    {
      "inputs": [
        {
          "internalType": "uint256",
          "name": "amount",
          "type": "uint256"
        },
        {
          "internalType": "address",
          "name": "collateralAsset",
          "type": "address"
        },
        {
          "internalType": "address",
          "name": "debtAsset",
          "type": "address"
        }
      ],
      "name": "borrow",
      "outputs": [
        {
          "internalType": "uint256",
          "name": "",
          "type": "uint256"
        }
      ],
      "stateMutability": "nonpayable",
      "type": "function"
    },
    {
      "inputs": [
        {
          "internalType": "address",
          "name": "member",
          "type": "address"
        },
        {
          "internalType": "uint256",
          "name": "amount",
          "type": "uint256"
        },
        {
          "internalType": "address",
          "name": "collateralAsset",
          "type": "address"
        },
        {
          "internalType": "address",
          "name": "debtAsset",
          "type": "address"
        }
      ],
      "name": "borrowForMember",
      "outputs": [
        {
          "internalType": "uint256",
          "name": "",
          "type": "uint256"
        }
      ],
      "stateMutability": "nonpayable",
      "type": "function"
    },
    {
      "inputs": [],
      "name": "checkLiquidate",
      "outputs": [],
      "stateMutability": "nonpayable",
      "type": "function"
    },
    {
      "inputs": [
        {
          "internalType": "address",
          "name": "token",
          "type": "address"
        }
      ],
      "name": "curatePool",
      "outputs": [],
      "stateMutability": "nonpayable",
      "type": "function"
    },
    {
      "inputs": [],
      "name": "curatedPoolCount",
      "outputs": [
        {
          "internalType": "uint256",
          "name": "",
          "type": "uint256"
        }
      ],
      "stateMutability": "view",
      "type": "function"
    },
    {
      "inputs": [],
      "name": "curatedPoolLimit",
      "outputs": [
        {
          "internalType": "uint256",
          "name": "",
          "type": "uint256"
        }
      ],
      "stateMutability": "view",
      "type": "function"
    },
    {
      "inputs": [],
      "name": "emitting",
      "outputs": [
        {
          "internalType": "bool",
          "name": "",
          "type": "bool"
        }
      ],
      "stateMutability": "view",
      "type": "function"
    },
    {
      "inputs": [],
      "name": "getAnchorPrice",
      "outputs": [
        {
          "internalType": "uint256",
          "name": "anchorPrice",
          "type": "uint256"
        }
      ],
      "stateMutability": "view",
      "type": "function"
    },
    {
      "inputs": [
        {
          "internalType": "address",
          "name": "member",
          "type": "address"
        },
        {
          "internalType": "address",
          "name": "base",
          "type": "address"
        },
        {
          "internalType": "address",
          "name": "token",
          "type": "address"
        },
        {
          "internalType": "uint256",
          "name": "basisPoints",
          "type": "uint256"
        }
      ],
      "name": "getILProtection",
      "outputs": [
        {
          "internalType": "uint256",
          "name": "protection",
          "type": "uint256"
        }
      ],
      "stateMutability": "view",
      "type": "function"
    },
    {
      "inputs": [
        {
          "internalType": "address",
          "name": "member",
          "type": "address"
        },
        {
          "internalType": "address",
          "name": "token",
          "type": "address"
        }
      ],
      "name": "getMemberBaseDeposit",
      "outputs": [
        {
          "internalType": "uint256",
          "name": "",
          "type": "uint256"
        }
      ],
      "stateMutability": "view",
      "type": "function"
    },
    {
      "inputs": [
        {
          "internalType": "address",
          "name": "member",
          "type": "address"
        },
        {
          "internalType": "address",
          "name": "collateralAsset",
          "type": "address"
        },
        {
          "internalType": "address",
          "name": "debtAsset",
          "type": "address"
        }
      ],
      "name": "getMemberCollateral",
      "outputs": [
        {
          "internalType": "uint256",
          "name": "",
          "type": "uint256"
        }
      ],
      "stateMutability": "view",
      "type": "function"
    },
    {
      "inputs": [
        {
          "internalType": "address",
          "name": "member",
          "type": "address"
        },
        {
          "internalType": "address",
          "name": "collateralAsset",
          "type": "address"
        },
        {
          "internalType": "address",
          "name": "debtAsset",
          "type": "address"
        }
      ],
      "name": "getMemberDebt",
      "outputs": [
        {
          "internalType": "uint256",
          "name": "",
          "type": "uint256"
        }
      ],
      "stateMutability": "view",
      "type": "function"
    },
    {
      "inputs": [
        {
          "internalType": "address",
          "name": "member",
          "type": "address"
        },
        {
          "internalType": "address",
          "name": "token",
          "type": "address"
        }
      ],
      "name": "getMemberLastDeposit",
      "outputs": [
        {
          "internalType": "uint256",
          "name": "",
          "type": "uint256"
        }
      ],
      "stateMutability": "view",
      "type": "function"
    },
    {
      "inputs": [
        {
          "internalType": "address",
          "name": "member",
          "type": "address"
        },
        {
          "internalType": "address",
          "name": "token",
          "type": "address"
        }
      ],
      "name": "getMemberTokenDeposit",
      "outputs": [
        {
          "internalType": "uint256",
          "name": "",
          "type": "uint256"
        }
      ],
      "stateMutability": "view",
      "type": "function"
    },
    {
      "inputs": [
        {
          "internalType": "address",
          "name": "collateralAsset",
          "type": "address"
        },
        {
          "internalType": "address",
          "name": "debtAsset",
          "type": "address"
        }
      ],
      "name": "getNextEraTime",
      "outputs": [
        {
          "internalType": "uint256",
          "name": "",
          "type": "uint256"
        }
      ],
      "stateMutability": "view",
      "type": "function"
    },
    {
      "inputs": [
        {
          "internalType": "address",
          "name": "collateralAsset",
          "type": "address"
        },
        {
          "internalType": "address",
          "name": "debtAsset",
          "type": "address"
        }
      ],
      "name": "getSystemCollateral",
      "outputs": [
        {
          "internalType": "uint256",
          "name": "",
          "type": "uint256"
        }
      ],
      "stateMutability": "view",
      "type": "function"
    },
    {
      "inputs": [
        {
          "internalType": "address",
          "name": "collateralAsset",
          "type": "address"
        },
        {
          "internalType": "address",
          "name": "debtAsset",
          "type": "address"
        }
      ],
      "name": "getSystemDebt",
      "outputs": [
        {
          "internalType": "uint256",
          "name": "",
          "type": "uint256"
        }
      ],
      "stateMutability": "view",
      "type": "function"
    },
    {
      "inputs": [
        {
          "internalType": "address",
          "name": "collateralAsset",
          "type": "address"
        },
        {
          "internalType": "address",
          "name": "debtAsset",
          "type": "address"
        }
      ],
      "name": "getSystemInterestPaid",
      "outputs": [
        {
          "internalType": "uint256",
          "name": "",
          "type": "uint256"
        }
      ],
      "stateMutability": "view",
      "type": "function"
    },
    {
      "inputs": [
        {
          "internalType": "uint256",
          "name": "vaderAmount",
          "type": "uint256"
        }
      ],
      "name": "getUSDVAmount",
      "outputs": [
        {
          "internalType": "uint256",
          "name": "USDVAmount",
          "type": "uint256"
        }
      ],
      "stateMutability": "view",
      "type": "function"
    },
    {
      "inputs": [
        {
          "internalType": "uint256",
          "name": "USDVAmount",
          "type": "uint256"
        }
      ],
      "name": "getVADERAmount",
      "outputs": [
        {
          "internalType": "uint256",
          "name": "vaderAmount",
          "type": "uint256"
        }
      ],
      "stateMutability": "view",
      "type": "function"
    },
    {
      "inputs": [
        {
          "internalType": "address",
          "name": "_vader",
          "type": "address"
        },
        {
          "internalType": "address",
          "name": "_usdv",
          "type": "address"
        },
        {
          "internalType": "address",
          "name": "_reserve",
          "type": "address"
        },
        {
          "internalType": "address",
          "name": "_pool",
          "type": "address"
        }
      ],
      "name": "init",
      "outputs": [],
      "stateMutability": "nonpayable",
      "type": "function"
    },
    {
      "inputs": [],
      "name": "insidePriceLimit",
      "outputs": [
        {
          "internalType": "uint256",
          "name": "",
          "type": "uint256"
        }
      ],
      "stateMutability": "view",
      "type": "function"
    },
    {
      "inputs": [
        {
          "internalType": "address",
          "name": "token",
          "type": "address"
        }
      ],
      "name": "isBase",
      "outputs": [
        {
          "internalType": "bool",
          "name": "base",
          "type": "bool"
        }
      ],
      "stateMutability": "view",
      "type": "function"
    },
    {
      "inputs": [
        {
          "internalType": "address",
          "name": "token",
          "type": "address"
        }
      ],
      "name": "isCurated",
      "outputs": [
        {
          "internalType": "bool",
          "name": "curated",
          "type": "bool"
        }
      ],
      "stateMutability": "view",
      "type": "function"
    },
    {
      "inputs": [
        {
          "internalType": "address",
          "name": "token",
          "type": "address"
        }
      ],
      "name": "isPool",
      "outputs": [
        {
          "internalType": "bool",
          "name": "pool",
          "type": "bool"
        }
      ],
      "stateMutability": "view",
      "type": "function"
    },
    {
      "inputs": [
        {
          "internalType": "address",
          "name": "token",
          "type": "address"
        }
      ],
      "name": "listAnchor",
      "outputs": [],
      "stateMutability": "nonpayable",
      "type": "function"
    },
    {
      "inputs": [
        {
          "internalType": "address",
          "name": "",
          "type": "address"
        },
        {
          "internalType": "address",
          "name": "",
          "type": "address"
        }
      ],
      "name": "mapMemberToken_depositBase",
      "outputs": [
        {
          "internalType": "uint256",
          "name": "",
          "type": "uint256"
        }
      ],
      "stateMutability": "view",
      "type": "function"
    },
    {
      "inputs": [
        {
          "internalType": "address",
          "name": "",
          "type": "address"
        },
        {
          "internalType": "address",
          "name": "",
          "type": "address"
        }
      ],
      "name": "mapMemberToken_depositToken",
      "outputs": [
        {
          "internalType": "uint256",
          "name": "",
          "type": "uint256"
        }
      ],
      "stateMutability": "view",
      "type": "function"
    },
    {
      "inputs": [
        {
          "internalType": "address",
          "name": "",
          "type": "address"
        },
        {
          "internalType": "address",
          "name": "",
          "type": "address"
        }
      ],
      "name": "mapMemberToken_lastDeposited",
      "outputs": [
        {
          "internalType": "uint256",
          "name": "",
          "type": "uint256"
        }
      ],
      "stateMutability": "view",
      "type": "function"
    },
    {
      "inputs": [],
      "name": "outsidePriceLimit",
      "outputs": [
        {
          "internalType": "uint256",
          "name": "",
          "type": "uint256"
        }
      ],
      "stateMutability": "view",
      "type": "function"
    },
    {
      "inputs": [
        {
          "internalType": "address",
          "name": "base",
          "type": "address"
        },
        {
          "internalType": "address",
          "name": "token",
          "type": "address"
        },
        {
          "internalType": "uint256",
          "name": "basisPoints",
          "type": "uint256"
        }
      ],
      "name": "removeLiquidity",
      "outputs": [
        {
          "internalType": "uint256",
          "name": "units",
          "type": "uint256"
        },
        {
          "internalType": "uint256",
          "name": "amountBase",
          "type": "uint256"
        },
        {
          "internalType": "uint256",
          "name": "amountToken",
          "type": "uint256"
        }
      ],
      "stateMutability": "nonpayable",
      "type": "function"
    },
    {
      "inputs": [
        {
          "internalType": "uint256",
          "name": "amount",
          "type": "uint256"
        },
        {
          "internalType": "address",
          "name": "collateralAsset",
          "type": "address"
        },
        {
          "internalType": "address",
          "name": "debtAsset",
          "type": "address"
        }
      ],
      "name": "repay",
      "outputs": [
        {
          "internalType": "uint256",
          "name": "",
          "type": "uint256"
        }
      ],
      "stateMutability": "nonpayable",
      "type": "function"
    },
    {
      "inputs": [],
      "name": "repayDelay",
      "outputs": [
        {
          "internalType": "uint256",
          "name": "",
          "type": "uint256"
        }
      ],
      "stateMutability": "view",
      "type": "function"
    },
    {
      "inputs": [
        {
          "internalType": "address",
          "name": "member",
          "type": "address"
        },
        {
          "internalType": "uint256",
          "name": "basisPoints",
          "type": "uint256"
        },
        {
          "internalType": "address",
          "name": "collateralAsset",
          "type": "address"
        },
        {
          "internalType": "address",
          "name": "debtAsset",
          "type": "address"
        }
      ],
      "name": "repayForMember",
      "outputs": [
        {
          "internalType": "uint256",
          "name": "",
          "type": "uint256"
        }
      ],
      "stateMutability": "nonpayable",
      "type": "function"
    },
    {
      "inputs": [
        {
          "internalType": "address",
          "name": "oldToken",
          "type": "address"
        },
        {
          "internalType": "address",
          "name": "newToken",
          "type": "address"
        }
      ],
      "name": "replaceAnchor",
      "outputs": [],
      "stateMutability": "nonpayable",
      "type": "function"
    },
    {
      "inputs": [
        {
          "internalType": "address",
          "name": "oldToken",
          "type": "address"
        },
        {
          "internalType": "address",
          "name": "newToken",
          "type": "address"
        }
      ],
      "name": "replacePool",
      "outputs": [],
      "stateMutability": "nonpayable",
      "type": "function"
    },
    {
      "inputs": [],
      "name": "reserveUSDV",
      "outputs": [
        {
          "internalType": "uint256",
          "name": "",
          "type": "uint256"
        }
      ],
      "stateMutability": "view",
      "type": "function"
    },
    {
      "inputs": [],
      "name": "reserveVADER",
      "outputs": [
        {
          "internalType": "uint256",
          "name": "",
          "type": "uint256"
        }
      ],
      "stateMutability": "view",
      "type": "function"
    },
    {
      "inputs": [],
      "name": "rewardReductionFactor",
      "outputs": [
        {
          "internalType": "uint256",
          "name": "",
          "type": "uint256"
        }
      ],
      "stateMutability": "view",
      "type": "function"
    },
    {
      "inputs": [
        {
          "internalType": "uint256",
          "name": "newLimit",
          "type": "uint256"
        },
        {
          "internalType": "uint256",
          "name": "newInside",
          "type": "uint256"
        },
        {
          "internalType": "uint256",
          "name": "newOutside",
          "type": "uint256"
        }
      ],
      "name": "setAnchorParams",
      "outputs": [],
      "stateMutability": "nonpayable",
      "type": "function"
    },
    {
      "inputs": [
        {
          "internalType": "uint256",
          "name": "newFactor",
          "type": "uint256"
        },
        {
          "internalType": "uint256",
          "name": "newTime",
          "type": "uint256"
        },
        {
          "internalType": "uint256",
          "name": "newLimit",
          "type": "uint256"
        }
      ],
      "name": "setParams",
      "outputs": [],
      "stateMutability": "nonpayable",
      "type": "function"
    },
    {
      "inputs": [
        {
          "internalType": "uint256",
          "name": "inputAmount",
          "type": "uint256"
        },
        {
          "internalType": "address",
          "name": "inputToken",
          "type": "address"
        },
        {
          "internalType": "address",
          "name": "outputToken",
          "type": "address"
        }
      ],
      "name": "swap",
      "outputs": [
        {
          "internalType": "uint256",
          "name": "outputAmount",
          "type": "uint256"
        }
      ],
      "stateMutability": "nonpayable",
      "type": "function"
    },
    {
      "inputs": [
        {
          "internalType": "uint256",
          "name": "inputAmount",
          "type": "uint256"
        },
        {
          "internalType": "address",
          "name": "inputToken",
          "type": "address"
        },
        {
          "internalType": "address",
          "name": "outputToken",
          "type": "address"
        },
        {
          "internalType": "uint256",
          "name": "slipLimit",
          "type": "uint256"
        }
      ],
      "name": "swapWithLimit",
      "outputs": [
        {
          "internalType": "uint256",
          "name": "outputAmount",
          "type": "uint256"
        }
      ],
      "stateMutability": "nonpayable",
      "type": "function"
    },
    {
      "inputs": [
        {
          "internalType": "uint256",
          "name": "inputAmount",
          "type": "uint256"
        },
        {
          "internalType": "address",
          "name": "inputToken",
          "type": "address"
        },
        {
          "internalType": "bool",
          "name": "inSynth",
          "type": "bool"
        },
        {
          "internalType": "address",
          "name": "outputToken",
          "type": "address"
        },
        {
          "internalType": "bool",
          "name": "outSynth",
          "type": "bool"
        }
      ],
      "name": "swapWithSynths",
      "outputs": [
        {
          "internalType": "uint256",
          "name": "outputAmount",
          "type": "uint256"
        }
      ],
      "stateMutability": "nonpayable",
      "type": "function"
    },
    {
      "inputs": [
        {
          "internalType": "uint256",
          "name": "inputAmount",
          "type": "uint256"
        },
        {
          "internalType": "address",
          "name": "inputToken",
          "type": "address"
        },
        {
          "internalType": "bool",
          "name": "inSynth",
          "type": "bool"
        },
        {
          "internalType": "address",
          "name": "outputToken",
          "type": "address"
        },
        {
          "internalType": "bool",
          "name": "outSynth",
          "type": "bool"
        },
        {
          "internalType": "uint256",
          "name": "slipLimit",
          "type": "uint256"
        }
      ],
      "name": "swapWithSynthsWithLimit",
      "outputs": [
        {
          "internalType": "uint256",
          "name": "outputAmount",
          "type": "uint256"
        }
      ],
      "stateMutability": "nonpayable",
      "type": "function"
    },
    {
      "inputs": [],
      "name": "timeForFullProtection",
      "outputs": [
        {
          "internalType": "uint256",
          "name": "",
          "type": "uint256"
        }
      ],
      "stateMutability": "view",
      "type": "function"
    },
    {
      "inputs": [
        {
          "internalType": "address",
          "name": "token",
          "type": "address"
        }
      ],
      "name": "updateAnchorPrice",
      "outputs": [],
      "stateMutability": "nonpayable",
      "type": "function"
    }
  ],
  "bytecode": "0x6080604052670de0b6b3a7640000600155610e1060105534801561002257600080fd5b50614e9a806100326000396000f3fe608060405234801561001057600080fd5b50600436106103835760003560e01c806382eb7233116101de578063d84891521161010f578063e8b8cfa0116100ad578063fcf476861161007c578063fcf476861461081d578063fdc59b8214610830578063fde3bbe91461085b578063ff8b83a6146108a757610383565b8063e8b8cfa0146107b9578063e9b6e448146107cc578063ebccb5b2146107df578063f550394e146107f257610383565b8063e2c3b046116100e9578063e2c3b04614610747578063e2e1e48f1461075a578063e6048ff81461076d578063e672f6ad1461078057610383565b8063d8489152146106fd578063de6ad44e14610706578063e0f52db31461070e57610383565b8063c883b2e51161017c578063cfa701c511610156578063cfa701c514610670578063d2b43373146106a9578063d5164184146106bc578063d752fab2146106cf57610383565b8063c883b2e514610641578063cbc17db314610654578063cf8bc7151461066757610383565b806399a485f5116101b857806399a485f5146105e75780639d2cc436146105fa578063a9d1c09e1461060d578063ae746f021461063857610383565b806382eb72331461059d5780638bc51e36146105d657806398fabd3a146105df57610383565b806337f3d2d4116102b85780635b16ebb7116102565780636cc06ded116102305780636cc06ded1461055c5780636e899aa31461056f578063774d70e4146105825780637b0e5c451461059557610383565b80635b16ebb71461050857806362cea3401461051b5780636a87def51461052357610383565b8063531984381161029257806353198438146104d457806358b27216146104dd5780635a0ce676146104e25780635a4dd3f2146104f557610383565b806337f3d2d4146104a557806339e68f53146104b85780634eb6887a146104cb57610383565b80631df6acfd116103255780632e2d0856116102ff5780632e2d0856146104635780633494c8e814610476578063376d3d5d1461047f57806337785d211461049257610383565b80631df6acfd14610434578063273961e6146104475780632b7f09231461045057610383565b80630781f4d2116103615780630781f4d2146103e357806317af50e5146103fb5780631a6098271461040e5780631ab73ef51461042157610383565b80630168131514610388578063038e5eaa146103b857806306552ff3146103ce575b600080fd5b60075461039b906001600160a01b031681565b6040516001600160a01b0390911681526020015b60405180910390f35b6103c06108e0565b6040519081526020016103af565b6103e16103dc3660046148d1565b6109b0565b005b6103eb610a6f565b60405190151581526020016103af565b6103c0610409366004614b06565b610af1565b6103c061041c366004614b5c565b610b12565b6103c061042f3660046149bc565b610b2f565b6103e161044236600461484f565b6110bf565b6103c060035481565b6103c061045e366004614b36565b6114c0565b6103e1610471366004614c7c565b6114de565b6103c0600b5481565b6103c061048d3660046149f3565b6115bc565b6103c06104a0366004614bea565b6116d2565b6103c06104b336600461484f565b6120bc565b6103e16104c6366004614817565b6120e9565b6103c060105481565b6103c060045481565b6103e1565b6103e16104f0366004614c7c565b61229e565b6103c0610503366004614b06565b61237c565b6103eb610516366004614817565b6123ab565b6103c06124b9565b6103c061053136600461484f565b6001600160a01b03918216600090815260136020908152604080832093909416825291909152205490565b6103c061056a366004614b06565b612536565b6103eb61057d366004614817565b612551565b6103eb610590366004614817565b61258a565b61039b6125b3565b6103c06105ab36600461484f565b6001600160a01b03918216600090815260166020908152604080832093909416825291909152205490565b6103c060055481565b61039b612630565b6103c06105f5366004614b83565b612675565b60095461039b906001600160a01b031681565b6103c061061b36600461484f565b601360209081526000928352604080842090915290825290205481565b6103c0600c5481565b6103c061064f366004614b36565b612691565b6103c0610662366004614887565b61269f565b6103c060025481565b6103c061067e36600461484f565b6001600160a01b03918216600090815260126020908152604080832093909416825291909152205490565b6103e16106b7366004614817565b6126db565b6103c06106ca366004614b36565b612875565b6106e26106dd36600461497c565b612883565b604080519384526020840192909252908201526060016103af565b6103c0600d5481565b6103c0612af4565b6103c061071c36600461484f565b6001600160a01b03918216600090815260176020908152604080832093909416825291909152205490565b60085461039b906001600160a01b031681565b6103e1610768366004614817565b612b39565b6103c061077b36600461492c565b612c8e565b6103c061078e36600461484f565b6001600160a01b03918216600090815260156020908152604080832093909416825291909152205490565b6103e16107c736600461484f565b612d78565b6103c06107da3660046149bc565b612f61565b600a5461039b906001600160a01b031681565b6103c061080036600461484f565b601160209081526000928352604080842090915290825290205481565b61039b61082b366004614b06565b61344f565b6103c061083e36600461484f565b601260209081526000928352604080842090915290825290205481565b6103c0610869366004614887565b6001600160a01b0380841660009081526014602090815260408083208685168452600101825280832093851683526002909301905220549392505050565b6103c06108b536600461484f565b6001600160a01b03918216600090815260116020908152604080832093909416825291909152205490565b600f54600090156109a85760006108f56125b3565b6001600160a01b031663e379976e600f6040518263ffffffff1660e01b81526004016109219190614d45565b60006040518083038186803b15801561093957600080fd5b505afa15801561094d573d6000803e3d6000fd5b505050506040513d6000823e601f3d908101601f191682016040526109759190810190614a2a565b90508060028151811061099857634e487b7160e01b600052603260045260246000fd5b60200260200101519150506109ad565b506001545b90565b60005460ff16156109f15760405162461bcd60e51b81526020600482015260066024820152651a5b9a5d195960d21b60448201526064015b60405180910390fd5b60008054600160ff199091168117909155600780546001600160a01b03199081166001600160a01b03978816179091556008805482169587169590951790945560098054851693861693909317909255600a80549093169316929092179055600281905560038190556004556005600b5560c8600c556101f4600d55565b600754604080516303c0fa6960e11b815290516000926001600160a01b031691630781f4d2916004808301926020929190829003018186803b158015610ab457600080fd5b505afa158015610ac8573d6000803e3d6000fd5b505050506040513d601f19601f82011682018060405250810190610aec9190614aea565b905090565b600f8181548110610b0157600080fd5b600091825260209091200154905081565b6000610b2485856000866000876116d2565b90505b949350505050565b6000610b396125b3565b60405163cf975e7b60e01b81526001600160a01b0385811660048301528481166024830152919091169063cf975e7b90604401600060405180830381600087803b158015610b8657600080fd5b505af1158015610b9a573d6000803e3d6000fd5b505050506000610bab868587613479565b9050600080610bb86125b3565b604051635c22141f60e01b81526001600160a01b038a8116600483015260248201869052888116604483015287811660648301529190911690635c22141f906084016040805180830381600087803b158015610c1357600080fd5b505af1158015610c27573d6000803e3d6000fd5b505050506040513d601f19601f82011682018060405250810190610c4b9190614c59565b6001600160a01b038089166000908152601560209081526040808320938b16835292905290812080549395509193508592610c87908490614d8c565b90915550506001600160a01b03808716600090815260166020908152604080832093891683529290529081208054849290610cc3908490614d8c565b90915550610cd6905088848885896135a3565b6007546001600160a01b0387811691161480610d6a5750600a54604051636c66769560e11b81526001600160a01b0387811660048301529091169063d8cced2a9060240160206040518083038186803b158015610d3257600080fd5b505afa158015610d46573d6000803e3d6000fd5b505050506040513d601f19601f82011682018060405250810190610d6a9190614aea565b15610e9257600954600754600a546040516329da943560e21b81526001600160a01b039384169363a76a50d493610dac93908216929116908690600401614d21565b602060405180830381600087803b158015610dc657600080fd5b505af1158015610dda573d6000803e3d6000fd5b505050506040513d601f19601f82011682018060405250810190610dfe9190614b1e565b50600a5460075460405163efc34aab60e01b81526001600160a01b039283169263efc34aab92610e3a9291169089908d90600090600401614cf7565b602060405180830381600087803b158015610e5457600080fd5b505af1158015610e68573d6000803e3d6000fd5b505050506040513d601f19601f82011682018060405250810190610e8c9190614b1e565b5061104a565b6008546001600160a01b0387811691161480610f265750600a5460405163643fd21560e11b81526001600160a01b0387811660048301529091169063c87fa42a9060240160206040518083038186803b158015610eee57600080fd5b505afa158015610f02573d6000803e3d6000fd5b505050506040513d601f19601f82011682018060405250810190610f269190614aea565b1561104a57600954600854600a546040516329da943560e21b81526001600160a01b039384169363a76a50d493610f6893908216929116908690600401614d21565b602060405180830381600087803b158015610f8257600080fd5b505af1158015610f96573d6000803e3d6000fd5b505050506040513d601f19601f82011682018060405250810190610fba9190614b1e565b50600a5460085460405163efc34aab60e01b81526001600160a01b039283169263efc34aab92610ff69291169089908d90600090600401614cf7565b602060405180830381600087803b15801561101057600080fd5b505af1158015611024573d6000803e3d6000fd5b505050506040513d601f19601f820116820180604052508101906110489190614b1e565b505b846001600160a01b0316866001600160a01b0316896001600160a01b03167fae998ad28d77f73e6eb1de185a4d9c3656e19b47125aa0e732ceabecefdd30618a866040516110a2929190918252602082015260400190565b60405180910390a46110b48686613645565b509695505050505050565b600a54604051636c66769560e11b81526001600160a01b0383811660048301529091169063d8cced2a9060240160206040518083038186803b15801561110457600080fd5b505afa158015611118573d6000803e3d6000fd5b505050506040513d601f19601f8201168201806040525081019061113c9190614aea565b6111755760405162461bcd60e51b815260206004820152600a6024820152692737ba1030b731b437b960b11b60448201526064016109e8565b600a5460405163b34c8afb60e01b81526001600160a01b0384811660048301529091169063b34c8afb9060240160206040518083038186803b1580156111ba57600080fd5b505afa1580156111ce573d6000803e3d6000fd5b505050506040513d601f19601f820116820180604052508101906111f29190614b1e565b600a5460405163b34c8afb60e01b81526001600160a01b0384811660048301529091169063b34c8afb9060240160206040518083038186803b15801561123757600080fd5b505afa15801561124b573d6000803e3d6000fd5b505050506040513d601f19601f8201168201806040525081019061126f9190614b1e565b116112a95760405162461bcd60e51b815260206004820152600a6024820152692737ba103232b2b832b960b11b60448201526064016109e8565b6112b16125b3565b6001600160a01b031663eb7d5ddf83600d5460006112cd6108e0565b6040516001600160e01b031960e087901b1681526001600160a01b039094166004850152602484019290925215156044830152606482015260840160006040518083038186803b15801561132057600080fd5b505afa158015611334573d6000803e3d6000fd5b505050506113406125b3565b6001600160a01b031663eb7d5ddf82600c54600161135c6108e0565b6040516001600160e01b031960e087901b1681526001600160a01b039094166004850152602484019290925215156044830152606482015260840160006040518083038186803b1580156113af57600080fd5b505afa1580156113c3573d6000803e3d6000fd5b505050506001600160a01b03828116600090815260066020526040808220805460ff199081169091559284168252812080549092166001179091555b600e548110156114b257826001600160a01b0316600e828154811061143457634e487b7160e01b600052603260045260246000fd5b6000918252602090912001546001600160a01b031614156114a05781600e828154811061147157634e487b7160e01b600052603260045260246000fd5b9060005260206000200160006101000a8154816001600160a01b0302191690836001600160a01b031602179055505b806114aa81614dfa565b9150506113ff565b506114bc81612b39565b5050565b60006114d4848460008560006127106116d2565b90505b9392505050565b600760009054906101000a90046001600160a01b03166001600160a01b03166398fabd3a6040518163ffffffff1660e01b815260040160206040518083038186803b15801561152c57600080fd5b505afa158015611540573d6000803e3d6000fd5b505050506040513d601f19601f820116820180604052508101906115649190614833565b6001600160a01b0316336001600160a01b0316146115ae5760405162461bcd60e51b81526020600482015260076024820152664e6f742044414f60c81b60448201526064016109e8565b600b92909255600c55600d55565b600954604080516370d63e7f60e11b815290516000926001600160a01b03169163e1ac7cfe916004808301928692919082900301818387803b15801561160157600080fd5b505af1158015611615573d6000803e3d6000fd5b5050505060006116258686613b2c565b905060006116338585613b2c565b905061164133868484613e98565b600a5460405163fde3b26560e01b81526001600160a01b039091169063fde3b26590611675908a9089903390600401614cd4565b602060405180830381600087803b15801561168f57600080fd5b505af11580156116a3573d6000803e3d6000fd5b505050506040513d601f19601f820116820180604052508101906116c79190614b1e565b979650505050505050565b600033856116ea576116e48789613b2c565b50611773565b600a54604051636e76408b60e11b81526001600160a01b03898116600483015261177192169063dcec811690602401602060405180830381600087803b15801561173357600080fd5b505af1158015611747573d6000803e3d6000fd5b505050506040513d601f19601f8201168201806040525081019061176b9190614833565b89613b2c565b505b600a54604051636c66769560e11b81526001600160a01b038981166004830152600092169063d8cced2a9060240160206040518083038186803b1580156117b957600080fd5b505afa1580156117cd573d6000803e3d6000fd5b505050506040513d601f19601f820116820180604052508101906117f19190614aea565b806118745750600a54604051636c66769560e11b81526001600160a01b0388811660048301529091169063d8cced2a9060240160206040518083038186803b15801561183c57600080fd5b505afa158015611850573d6000803e3d6000fd5b505050506040513d601f19601f820116820180604052508101906118749190614aea565b1561188b57506007546001600160a01b0316611899565b506008546001600160a01b03165b6118a286612551565b15611ada57836118b06125b3565b600a5460405163e6ae1a9760e01b81526001600160a01b038c8116600483015292831692632db6e488928e9291169063e6ae1a979060240160206040518083038186803b15801561190057600080fd5b505afa158015611914573d6000803e3d6000fd5b505050506040513d601f19601f820116820180604052508101906119389190614b1e565b6040516001600160e01b031960e085901b1681526004810192909252602482015260440160206040518083038186803b15801561197457600080fd5b505afa158015611988573d6000803e3d6000fd5b505050506040513d601f19601f820116820180604052508101906119ac9190614b1e565b11156119b757600080fd5b86611a4c57600a5460405163efc34aab60e01b81526001600160a01b039091169063efc34aab906119f39084908c908790600190600401614cf7565b602060405180830381600087803b158015611a0d57600080fd5b505af1158015611a21573d6000803e3d6000fd5b505050506040513d601f19601f82011682018060405250810190611a459190614b1e565b9250611ad5565b600a546040516371d6d97b60e11b81526001600160a01b039091169063e3adb2f690611a809084908c908790600401614cd4565b602060405180830381600087803b158015611a9a57600080fd5b505af1158015611aae573d6000803e3d6000fd5b505050506040513d601f19601f82011682018060405250810190611ad29190614b1e565b92505b61208a565b611ae388612551565b15611c685783611af16125b3565b600a5460405163b34c8afb60e01b81526001600160a01b038a8116600483015292831692632db6e488928e9291169063b34c8afb9060240160206040518083038186803b158015611b4157600080fd5b505afa158015611b55573d6000803e3d6000fd5b505050506040513d601f19601f82011682018060405250810190611b799190614b1e565b6040516001600160e01b031960e085901b1681526004810192909252602482015260440160206040518083038186803b158015611bb557600080fd5b505afa158015611bc9573d6000803e3d6000fd5b505050506040513d601f19601f82011682018060405250810190611bed9190614b1e565b1115611bf857600080fd5b84611c3457600a5460405163efc34aab60e01b81526001600160a01b039091169063efc34aab906119f39084908a908790600090600401614cf7565b600a5460405163680b1a3f60e11b81526001600160a01b039091169063d016347e90611a809084908a908790600401614cd4565b611c7188612551565b158015611c845750611c8286612551565b155b1561208a5783611c926125b3565b600a5460405163e6ae1a9760e01b81526001600160a01b038c8116600483015292831692632db6e488928e9291169063e6ae1a979060240160206040518083038186803b158015611ce257600080fd5b505afa158015611cf6573d6000803e3d6000fd5b505050506040513d601f19601f82011682018060405250810190611d1a9190614b1e565b6040516001600160e01b031960e085901b1681526004810192909252602482015260440160206040518083038186803b158015611d5657600080fd5b505afa158015611d6a573d6000803e3d6000fd5b505050506040513d601f19601f82011682018060405250810190611d8e9190614b1e565b1115611d9957600080fd5b86611e2d57600a5460405163efc34aab60e01b81526001600160a01b039091169063efc34aab90611dd59084908c908590600190600401614cf7565b602060405180830381600087803b158015611def57600080fd5b505af1158015611e03573d6000803e3d6000fd5b505050506040513d601f19601f82011682018060405250810190611e279190614b1e565b50611eb5565b600a546040516371d6d97b60e11b81526001600160a01b039091169063e3adb2f690611e619084908c908590600401614cd4565b602060405180830381600087803b158015611e7b57600080fd5b505af1158015611e8f573d6000803e3d6000fd5b505050506040513d601f19601f82011682018060405250810190611eb39190614b1e565b505b83611ebe6125b3565b600a5460405163b34c8afb60e01b81526001600160a01b038a8116600483015292831692632db6e488928e9291169063b34c8afb9060240160206040518083038186803b158015611f0e57600080fd5b505afa158015611f22573d6000803e3d6000fd5b505050506040513d601f19601f82011682018060405250810190611f469190614b1e565b6040516001600160e01b031960e085901b1681526004810192909252602482015260440160206040518083038186803b158015611f8257600080fd5b505afa158015611f96573d6000803e3d6000fd5b505050506040513d601f19601f82011682018060405250810190611fba9190614b1e565b1115611fc557600080fd5b8461200157600a5460405163efc34aab60e01b81526001600160a01b039091169063efc34aab90611a809084908a908790600090600401614cf7565b600a5460405163680b1a3f60e11b81526001600160a01b039091169063d016347e906120359084908a908790600401614cd4565b602060405180830381600087803b15801561204f57600080fd5b505af1158015612063573d6000803e3d6000fd5b505050506040513d601f19601f820116820180604052508101906120879190614b1e565b92505b6120948189613f3e565b61209e8187613f3e565b6120a788614120565b6120b086614120565b50509695505050505050565b6001600160a01b038083166000908152601860209081526040808320938516835292905220545b92915050565b600b54600e54106120f957600080fd5b600a54604051636c66769560e11b81526001600160a01b0383811660048301529091169063d8cced2a9060240160206040518083038186803b15801561213e57600080fd5b505afa158015612152573d6000803e3d6000fd5b505050506040513d601f19601f820116820180604052508101906121769190614aea565b61217f57600080fd5b600e80546001810182556000919091527fbb7b4a454dc3493923482f07822329ed19e8244eff582cc204f8554c3620c3fd0180546001600160a01b0319166001600160a01b038316179055600f6121d46125b3565b60015460405163db39dc7960e01b81526001600160a01b038581166004830152602482019290925291169063db39dc799060440160206040518083038186803b15801561222057600080fd5b505afa158015612234573d6000803e3d6000fd5b505050506040513d601f19601f820116820180604052508101906122589190614b1e565b81546001818101845560009384526020808520909201929092556001600160a01b0384168352600690526040909120805460ff1916909117905561229b81612b39565b50565b600760009054906101000a90046001600160a01b03166001600160a01b03166398fabd3a6040518163ffffffff1660e01b815260040160206040518083038186803b1580156122ec57600080fd5b505afa158015612300573d6000803e3d6000fd5b505050506040513d601f19601f820116820180604052508101906123249190614833565b6001600160a01b0316336001600160a01b03161461236e5760405162461bcd60e51b81526020600482015260076024820152664e6f742044414f60c81b60448201526064016109e8565b600292909255600355600455565b6000806123876108e0565b905080600154846123989190614dc4565b6123a29190614da4565b9150505b919050565b600a54604051636c66769560e11b81526001600160a01b038381166004830152600092169063d8cced2a9060240160206040518083038186803b1580156123f157600080fd5b505afa158015612405573d6000803e3d6000fd5b505050506040513d601f19601f820116820180604052508101906124299190614aea565b806124ac5750600a5460405163643fd21560e11b81526001600160a01b0384811660048301529091169063c87fa42a9060240160206040518083038186803b15801561247457600080fd5b505afa158015612488573d6000803e3d6000fd5b505050506040513d601f19601f820116820180604052508101906124ac9190614aea565b156123a657506001919050565b6009546040805163018b3a8d60e61b815290516000926001600160a01b0316916362cea340916004808301926020929190829003018186803b1580156124fe57600080fd5b505afa158015612512573d6000803e3d6000fd5b505050506040513d601f19601f82011682018060405250810190610aec9190614b1e565b6000806125416108e0565b6001549091506123988483614dc4565b6007546000906001600160a01b038381169116148061257d57506008546001600160a01b038381169116145b156123a6575060016123a6565b6001600160a01b03811660009081526006602052604081205460ff16156123a657506001919050565b60075460408051637b0e5c4560e01b815290516000926001600160a01b031691637b0e5c45916004808301926020929190829003018186803b1580156125f857600080fd5b505afa15801561260c573d6000803e3d6000fd5b505050506040513d601f19601f82011682018060405250810190610aec9190614833565b60075460408051634c7d5e9d60e11b815290516000926001600160a01b0316916398fabd3a916004808301926020929190829003018186803b1580156125f857600080fd5b600061268786868686866127106116d2565b9695505050505050565b60006114d433858585612f61565b6001600160a01b039283166000908152601460209081526040808320948616835260019485018252808320939095168252919092019052205490565b600a5460405163643fd21560e11b81526001600160a01b0383811660048301529091169063c87fa42a9060240160206040518083038186803b15801561272057600080fd5b505afa158015612734573d6000803e3d6000fd5b505050506040513d601f19601f820116820180604052508101906127589190614aea565b806127db5750600a54604051636c66769560e11b81526001600160a01b0383811660048301529091169063d8cced2a9060240160206040518083038186803b1580156127a357600080fd5b505afa1580156127b7573d6000803e3d6000fd5b505050506040513d601f19601f820116820180604052508101906127db9190614aea565b6127e457600080fd5b6127ed8161258a565b61283c57600454600554101561283c576001600160a01b0381166000908152600660205260408120805460ff191660019081179091556005805491929091612836908490614d8c565b90915550505b6040516001600160a01b0382169033907fb2f6cc014bc6265032f32972254d5e024ec51ed94c0aaf2280128336be54a04190600090a350565b60006114d433858585610b2f565b60008060008061289533888888612c8e565b905080156129e957600954600a54604051633529481360e11b81526001600160a01b0392831692636a529026926128d6928c92909116908690600401614d21565b602060405180830381600087803b1580156128f057600080fd5b505af1158015612904573d6000803e3d6000fd5b505050506040513d601f19601f820116820180604052508101906129289190614b1e565b50600a5460405163fde3b26560e01b81526001600160a01b039091169063fde3b2659061295d908a908a903390600401614cd4565b602060405180830381600087803b15801561297757600080fd5b505af115801561298b573d6000803e3d6000fd5b505050506040513d601f19601f820116820180604052508101906129af9190614b1e565b503360009081526011602090815260408083206001600160a01b038a168452909152812080548392906129e3908490614d8c565b90915550505b600a54604051636ba97d5960e11b81526001600160a01b039091169063d752fab290612a1d908a908a908a90600401614d21565b606060405180830381600087803b158015612a3757600080fd5b505af1158015612a4b573d6000803e3d6000fd5b505050506040513d601f19601f82011682018060405250810190612a6f9190614ca7565b91955093509150612a82338787846141ab565b600960009054906101000a90046001600160a01b03166001600160a01b031663e1ac7cfe6040518163ffffffff1660e01b8152600401600060405180830381600087803b158015612ad257600080fd5b505af1158015612ae6573d6000803e3d6000fd5b505050505093509350939050565b60095460408051636f356a2760e11b815290516000926001600160a01b03169163de6ad44e916004808301926020929190829003018186803b1580156124fe57600080fd5b60005b600e548110156114bc57816001600160a01b0316600e8281548110612b7157634e487b7160e01b600052603260045260246000fd5b6000918252602090912001546001600160a01b03161415612c7c57612b946125b3565b6001600160a01b031663db39dc79600e8381548110612bc357634e487b7160e01b600052603260045260246000fd5b60009182526020909120015460015460405160e084901b6001600160e01b03191681526001600160a01b039092166004830152602482015260440160206040518083038186803b158015612c1657600080fd5b505afa158015612c2a573d6000803e3d6000fd5b505050506040513d601f19601f82011682018060405250810190612c4e9190614b1e565b600f8281548110612c6f57634e487b7160e01b600052603260045260246000fd5b6000918252602090912001555b80612c8681614dfa565b915050612b3c565b6000612c986125b3565b600354604051635b0b602d60e01b81526001600160a01b0388811660048301528681166024830152604482018690526064820192909252911690635b0b602d9060840160206040518083038186803b158015612cf357600080fd5b505afa158015612d07573d6000803e3d6000fd5b505050506040513d601f19601f82011682018060405250810190612d2b9190614b1e565b6007549091506001600160a01b0385811691161415612d6257612d4c6124b9565b8110612d5d57612d5a6124b9565b90505b610b27565b612d6a612af4565b8110610b2757610b24612af4565b600a5460405163643fd21560e11b81526001600160a01b0383811660048301529091169063c87fa42a9060240160206040518083038186803b158015612dbd57600080fd5b505afa158015612dd1573d6000803e3d6000fd5b505050506040513d601f19601f82011682018060405250810190612df59190614aea565b612dfe57600080fd5b600a5460405163b34c8afb60e01b81526001600160a01b0384811660048301529091169063b34c8afb9060240160206040518083038186803b158015612e4357600080fd5b505afa158015612e57573d6000803e3d6000fd5b505050506040513d601f19601f82011682018060405250810190612e7b9190614b1e565b600a5460405163b34c8afb60e01b81526001600160a01b0384811660048301529091169063b34c8afb9060240160206040518083038186803b158015612ec057600080fd5b505afa158015612ed4573d6000803e3d6000fd5b505050506040513d601f19601f82011682018060405250810190612ef89190614b1e565b11156114bc576001600160a01b03808316600090815260066020526040808220805460ff1990811690915592841680835281832080549094166001179093555133917fb2f6cc014bc6265032f32972254d5e024ec51ed94c0aaf2280128336be54a04191a35050565b600080612f6c6125b3565b6001600160a01b031663714270ab86612f8689888861269f565b6040516001600160e01b031960e085901b1681526004810192909252602482015260440160206040518083038186803b158015612fc257600080fd5b505afa158015612fd6573d6000803e3d6000fd5b505050506040513d601f19601f82011682018060405250810190612ffa9190614b1e565b905060006130088483613b2c565b6007549091506001600160a01b038681169116148061309f5750600a54604051636c66769560e11b81526001600160a01b0386811660048301529091169063d8cced2a9060240160206040518083038186803b15801561306757600080fd5b505afa15801561307b573d6000803e3d6000fd5b505050506040513d601f19601f8201168201806040525081019061309f9190614aea565b1561313d57600a5460075460095460405163efc34aab60e01b81526001600160a01b039384169363efc34aab936130e593908216928a9290911690600190600401614cf7565b602060405180830381600087803b1580156130ff57600080fd5b505af1158015613113573d6000803e3d6000fd5b505050506040513d601f19601f820116820180604052508101906131379190614b1e565b5061326b565b6008546001600160a01b03868116911614806131d15750600a5460405163643fd21560e11b81526001600160a01b0386811660048301529091169063c87fa42a9060240160206040518083038186803b15801561319957600080fd5b505afa1580156131ad573d6000803e3d6000fd5b505050506040513d601f19601f820116820180604052508101906131d19190614aea565b1561326b57600a5460085460095460405163efc34aab60e01b81526001600160a01b039384169363efc34aab9361321793908216928a9290911690600190600401614cf7565b602060405180830381600087803b15801561323157600080fd5b505af1158015613245573d6000803e3d6000fd5b505050506040513d601f19601f820116820180604052508101906132699190614b1e565b505b6000806132766125b3565b604051633552687b60e21b81526001600160a01b038b811660048301526024820186905289811660448301528881166064830152919091169063d549a1ec90608401604080518083038186803b1580156132cf57600080fd5b505afa1580156132e3573d6000803e3d6000fd5b505050506040513d601f19601f820116820180604052508101906133079190614c59565b6001600160a01b03808a166000908152601560209081526040808320938c16835292905290812080549395509193508492613343908490614de3565b90915550506001600160a01b038088166000908152601660209081526040808320938a168352929052908120805485929061337f908490614de3565b90915550506001600160a01b038088166000908152601760209081526040808320938a16835292905290812080548392906133bb908490614de3565b909155506133ce9050898389868a6143c3565b856001600160a01b0316876001600160a01b03168a6001600160a01b03167f80cf2752eb276900a648b467a8fe8180e3192a2370982e997e928b3dc8b99ba18587604051613426929190918252602082015260400190565b60405180910390a4613439898884614459565b6134438787613645565b50979650505050505050565b600e818154811061345f57600080fd5b6000918252602090912001546001600160a01b0316905081565b600061348483612551565b806135095750600a54604051632f011bf560e11b81526001600160a01b03858116600483015290911690635e0237ea90602401602060405180830381600087803b1580156134d157600080fd5b505af11580156134e5573d6000803e3d6000fd5b505050506040513d601f19601f820116820180604052508101906135099190614aea565b1561351f57613518838361457e565b90506114d7565b613528836123ab565b156114d757600a5460405163783ba87960e01b8152600481018490526001600160a01b03858116602483015286811660448301529091169063783ba87990606401600060405180830381600087803b15801561358357600080fd5b505af1158015613597573d6000803e3d6000fd5b50939695505050505050565b6001600160a01b038086166000908152601460209081526040808320878516845260019081018352818420948616845293909301905290812080548492906135ec908490614d8c565b90915550506001600160a01b038086166000908152601460209081526040808320878516845260010182528083209385168352600290930190529081208054869290613639908490614d8c565b90915550505050505050565b61364f82826120bc565b42101580156136615750613661610a6f565b156114bc576001600160a01b0380831660009081526018602090815260408083209385168352929052908120546136989042614de3565b9050600760009054906101000a90046001600160a01b03166001600160a01b0316636b92a3b66040518163ffffffff1660e01b815260040160206040518083038186803b1580156136e857600080fd5b505afa1580156136fc573d6000803e3d6000fd5b505050506040513d601f19601f820116820180604052508101906137209190614b1e565b61372a9042614d8c565b6001600160a01b03808516600090815260186020908152604080832093871683529290529081209190915561375d6125b3565b6001600160a01b031663945821af8585856040518463ffffffff1660e01b815260040161378c93929190614d21565b602060405180830381600087803b1580156137a657600080fd5b505af11580156137ba573d6000803e3d6000fd5b505050506040513d601f19601f820116820180604052508101906137de9190614b1e565b6001600160a01b03808616600090815260176020908152604080832093881683529290529081208054929350839290919061381a908490614d8c565b9091555061382b905081858561474b565b61383484612551565b1561392c57600a5460405163a9059cbb60e01b81526001600160a01b039182166004820152602481018390529085169063a9059cbb90604401602060405180830381600087803b15801561388757600080fd5b505af115801561389b573d6000803e3d6000fd5b505050506040513d601f19601f820116820180604052508101906138bf9190614aea565b50600a54604051633041949b60e01b81526001600160a01b038681166004830152858116602483015290911690633041949b90604401600060405180830381600087803b15801561390f57600080fd5b505af1158015613923573d6000803e3d6000fd5b50505050613b26565b600a54604051632f011bf560e11b81526001600160a01b03868116600483015290911690635e0237ea90602401602060405180830381600087803b15801561397357600080fd5b505af1158015613987573d6000803e3d6000fd5b505050506040513d601f19601f820116820180604052508101906139ab9190614aea565b15613b2657600a5460405163a9059cbb60e01b81526001600160a01b039182166004820152602481018390529085169063a9059cbb90604401602060405180830381600087803b1580156139fe57600080fd5b505af1158015613a12573d6000803e3d6000fd5b505050506040513d601f19601f82011682018060405250810190613a369190614aea565b50600a60009054906101000a90046001600160a01b03166001600160a01b031663469f5c1e856001600160a01b03166382bfefc86040518163ffffffff1660e01b815260040160206040518083038186803b158015613a9457600080fd5b505afa158015613aa8573d6000803e3d6000fd5b505050506040513d601f19601f82011682018060405250810190613acc9190614833565b6040516001600160e01b031960e084901b1681526001600160a01b039091166004820152602401600060405180830381600087803b158015613b0d57600080fd5b505af1158015613b21573d6000803e3d6000fd5b505050505b50505050565b6007546000906001600160a01b0384811691161480613b5857506008546001600160a01b038481169116145b80613bdd5750600a54604051632f011bf560e11b81526001600160a01b03858116600483015290911690635e0237ea90602401602060405180830381600087803b158015613ba557600080fd5b505af1158015613bb9573d6000803e3d6000fd5b505050506040513d601f19601f82011682018060405250810190613bdd9190614aea565b15613d0557508032331415613c7857600a546040516302ccb1b360e41b81526001600160a01b0391821660048201526024810184905290841690632ccb1b3090604401602060405180830381600087803b158015613c3a57600080fd5b505af1158015613c4e573d6000803e3d6000fd5b505050506040513d601f19601f82011682018060405250810190613c729190614aea565b50613d00565b600a546040516323b872dd60e01b81526001600160a01b03808616926323b872dd92613cac92339216908790600401614d21565b602060405180830381600087803b158015613cc657600080fd5b505af1158015613cda573d6000803e3d6000fd5b505050506040513d601f19601f82011682018060405250810190613cfe9190614aea565b505b6120e3565b600a546040516370a0823160e01b81526001600160a01b0391821660048201526000918516906370a082319060240160206040518083038186803b158015613d4c57600080fd5b505afa158015613d60573d6000803e3d6000fd5b505050506040513d601f19601f82011682018060405250810190613d849190614b1e565b600a546040516323b872dd60e01b81529192506001600160a01b03808716926323b872dd92613dbc9233929116908890600401614d21565b602060405180830381600087803b158015613dd657600080fd5b505af1158015613dea573d6000803e3d6000fd5b505050506040513d601f19601f82011682018060405250810190613e0e9190614aea565b50600a546040516370a0823160e01b81526001600160a01b03918216600482015282918616906370a08231906024015b60206040518083038186803b158015613e5657600080fd5b505afa158015613e6a573d6000803e3d6000fd5b505050506040513d601f19601f82011682018060405250810190613e8e9190614b1e565b610b279190614de3565b6001600160a01b03808516600090815260116020908152604080832093871683529290529081208054849290613ecf908490614d8c565b90915550506001600160a01b03808516600090815260126020908152604080832093871683529290529081208054839290613f0b908490614d8c565b9091555050506001600160a01b039283166000908152601360209081526040808320949095168252929092525020429055565b613f4781612551565b6114bc576000613f556125b3565b600254604051635a4a8f2560e11b81526001600160a01b038581166004830152602482019290925291169063b4951e4a9060440160206040518083038186803b158015613fa157600080fd5b505afa158015613fb5573d6000803e3d6000fd5b505050506040513d601f19601f82011682018060405250810190613fd99190614b1e565b600954600a54604051633529481360e11b81529293506001600160a01b0391821692636a529026926140149288929116908690600401614d21565b602060405180830381600087803b15801561402e57600080fd5b505af1158015614042573d6000803e3d6000fd5b505050506040513d601f19601f820116820180604052508101906140669190614b1e565b50600a54604051633041949b60e01b81526001600160a01b038581166004830152848116602483015290911690633041949b90604401600060405180830381600087803b1580156140b657600080fd5b505af11580156140ca573d6000803e3d6000fd5b50505050816001600160a01b0316836001600160a01b03167f416b0b234ccd4d6d72c4b1a3a09b472a71981d9bbf0f26ab44774e0e3425fad68360405161411391815260200190565b60405180910390a3505050565b600a54604051636c66769560e11b81526001600160a01b0383811660048301529091169063d8cced2a9060240160206040518083038186803b15801561416557600080fd5b505afa158015614179573d6000803e3d6000fd5b505050506040513d601f19601f8201168201806040525081019061419d9190614aea565b1561229b5761229b81612b39565b6001600160a01b038085166000908152601160209081526040808320938716835292905290812080548392906141e2908490614d8c565b90915550600090506141f26125b3565b6001600160a01b03868116600090815260116020908152604080832089851684529091529081902054905163714270ab60e01b815260048101879052602481019190915291169063714270ab9060440160206040518083038186803b15801561425a57600080fd5b505afa15801561426e573d6000803e3d6000fd5b505050506040513d601f19601f820116820180604052508101906142929190614b1e565b9050600061429e6125b3565b6001600160a01b0387811660009081526012602090815260408083208a851684529091529081902054905163714270ab60e01b815260048101889052602481019190915291169063714270ab9060440160206040518083038186803b15801561430657600080fd5b505afa15801561431a573d6000803e3d6000fd5b505050506040513d601f19601f8201168201806040525081019061433e9190614b1e565b6001600160a01b038088166000908152601160209081526040808320938a1683529290529081208054929350849290919061437a908490614de3565b90915550506001600160a01b038087166000908152601260209081526040808320938916835292905290812080548392906143b6908490614de3565b9091555050505050505050565b6001600160a01b0380861660009081526014602090815260408083208785168452600190810183528184209486168452939093019052908120805484929061440c908490614de3565b90915550506001600160a01b038086166000908152601460209081526040808320878516845260010182528083209385168352600290930190529081208054869290613639908490614de3565b61446282612551565b806144e75750600a54604051632f011bf560e11b81526001600160a01b03848116600483015290911690635e0237ea90602401602060405180830381600087803b1580156144af57600080fd5b505af11580156144c3573d6000803e3d6000fd5b505050506040513d601f19601f820116820180604052508101906144e79190614aea565b156144fc576144f782848361478c565b614579565b614505826123ab565b1561457957600a5460405163798e23d560e01b8152600481018390526001600160a01b03848116602483015285811660448301529091169063798e23d590606401600060405180830381600087803b15801561456057600080fd5b505af1158015614574573d6000803e3d6000fd5b505050505b505050565b6040516370a0823160e01b815230600482015260009081906001600160a01b038516906370a082319060240160206040518083038186803b1580156145c257600080fd5b505afa1580156145d6573d6000803e3d6000fd5b505050506040513d601f19601f820116820180604052508101906145fa9190614b1e565b905032331415614692576040516302ccb1b360e41b8152306004820152602481018490526001600160a01b03851690632ccb1b3090604401602060405180830381600087803b15801561464c57600080fd5b505af1158015614660573d6000803e3d6000fd5b505050506040513d601f19601f820116820180604052508101906146849190614aea565b61468d57600080fd5b61471d565b6040516323b872dd60e01b81526001600160a01b038516906323b872dd906146c290339030908890600401614d21565b602060405180830381600087803b1580156146dc57600080fd5b505af11580156146f0573d6000803e3d6000fd5b505050506040513d601f19601f820116820180604052508101906147149190614aea565b61471d57600080fd5b6040516370a0823160e01b815230600482015281906001600160a01b038616906370a0823190602401613e3e565b6001600160a01b03808316600090815260156020908152604080832093851683529290529081208054859290614782908490614de3565b9091555050505050565b60405163a9059cbb60e01b81526001600160a01b0383811660048301526024820183905284169063a9059cbb90604401602060405180830381600087803b1580156147d657600080fd5b505af11580156147ea573d6000803e3d6000fd5b505050506040513d601f19601f8201168201806040525081019061480e9190614aea565b61457957600080fd5b600060208284031215614828578081fd5b81356114d781614e41565b600060208284031215614844578081fd5b81516114d781614e41565b60008060408385031215614861578081fd5b823561486c81614e41565b9150602083013561487c81614e41565b809150509250929050565b60008060006060848603121561489b578081fd5b83356148a681614e41565b925060208401356148b681614e41565b915060408401356148c681614e41565b809150509250925092565b600080600080608085870312156148e6578081fd5b84356148f181614e41565b9350602085013561490181614e41565b9250604085013561491181614e41565b9150606085013561492181614e41565b939692955090935050565b60008060008060808587031215614941578384fd5b843561494c81614e41565b9350602085013561495c81614e41565b9250604085013561496c81614e41565b9396929550929360600135925050565b600080600060608486031215614990578283fd5b833561499b81614e41565b925060208401356149ab81614e41565b929592945050506040919091013590565b600080600080608085870312156149d1578384fd5b84356149dc81614e41565b935060208501359250604085013561491181614e41565b60008060008060808587031215614a08578384fd5b8435614a1381614e41565b935060208501359250604085013561496c81614e41565b60006020808385031215614a3c578182fd5b825167ffffffffffffffff80821115614a53578384fd5b818501915085601f830112614a66578384fd5b815181811115614a7857614a78614e2b565b8060051b604051601f19603f83011681018181108582111715614a9d57614a9d614e2b565b604052828152858101935084860182860187018a1015614abb578788fd5b8795505b83861015614add578051855260019590950194938601938601614abf565b5098975050505050505050565b600060208284031215614afb578081fd5b81516114d781614e56565b600060208284031215614b17578081fd5b5035919050565b600060208284031215614b2f578081fd5b5051919050565b600080600060608486031215614b4a578081fd5b8335925060208401356148b681614e41565b60008060008060808587031215614b71578182fd5b84359350602085013561495c81614e41565b600080600080600060a08688031215614b9a578283fd5b853594506020860135614bac81614e41565b93506040860135614bbc81614e56565b92506060860135614bcc81614e41565b91506080860135614bdc81614e56565b809150509295509295909350565b60008060008060008060c08789031215614c02578384fd5b863595506020870135614c1481614e41565b94506040870135614c2481614e56565b93506060870135614c3481614e41565b92506080870135614c4481614e56565b8092505060a087013590509295509295509295565b60008060408385031215614c6b578182fd5b505080516020909101519092909150565b600080600060608486031215614c90578081fd5b505081359360208301359350604090920135919050565b600080600060608486031215614cbb578081fd5b8351925060208401519150604084015190509250925092565b6001600160a01b0393841681529183166020830152909116604082015260600190565b6001600160a01b039485168152928416602084015292166040820152901515606082015260800190565b6001600160a01b039384168152919092166020820152604081019190915260600190565b6020808252825482820181905260008481528281209092916040850190845b81811015614d8057835483526001938401939285019201614d64565b50909695505050505050565b60008219821115614d9f57614d9f614e15565b500190565b600082614dbf57634e487b7160e01b81526012600452602481fd5b500490565b6000816000190483118215151615614dde57614dde614e15565b500290565b600082821015614df557614df5614e15565b500390565b6000600019821415614e0e57614e0e614e15565b5060010190565b634e487b7160e01b600052601160045260246000fd5b634e487b7160e01b600052604160045260246000fd5b6001600160a01b038116811461229b57600080fd5b801515811461229b57600080fdfea2646970667358221220a6513dad5d1864dbecab7475bf817f5785e3332639f3cecb302d5a56b15b761564736f6c63430008030033",
  "linkReferences": {},
  "deployedLinkReferences": {}
}