{
  "_format": "hh-sol-artifact-1",
  "contractName": "Router",
  "sourceName": "contracts/Router.sol",
  "abi": [
    {
      "inputs": [],
      "stateMutability": "nonpayable",
      "type": "constructor"
    },
    {
      "anonymous": false,
      "inputs": [
        {
          "indexed": true,
          "internalType": "address",
          "name": "curator",
          "type": "address"
        },
        {
          "indexed": true,
          "internalType": "address",
          "name": "token",
          "type": "address"
        }
      ],
      "name": "Curated",
      "type": "event"
    },
    {
      "anonymous": false,
      "inputs": [
        {
          "indexed": true,
          "internalType": "address",
          "name": "base",
          "type": "address"
        },
        {
          "indexed": true,
          "internalType": "address",
          "name": "token",
          "type": "address"
        },
        {
          "indexed": false,
          "internalType": "uint256",
          "name": "amount",
          "type": "uint256"
        }
      ],
      "name": "PoolReward",
      "type": "event"
    },
    {
      "anonymous": false,
      "inputs": [
        {
          "indexed": true,
          "internalType": "address",
          "name": "member",
          "type": "address"
        },
        {
          "indexed": false,
          "internalType": "uint256",
          "name": "amount",
          "type": "uint256"
        }
      ],
      "name": "Protection",
      "type": "event"
    },
    {
      "inputs": [],
      "name": "DAO",
      "outputs": [
        {
          "internalType": "address",
          "name": "",
          "type": "address"
        }
      ],
      "stateMutability": "view",
      "type": "function"
    },
    {
      "inputs": [],
      "name": "POOLS",
      "outputs": [
        {
          "internalType": "address",
          "name": "",
          "type": "address"
        }
      ],
      "stateMutability": "view",
      "type": "function"
    },
    {
      "inputs": [],
      "name": "USDV",
      "outputs": [
        {
          "internalType": "address",
          "name": "",
          "type": "address"
        }
      ],
      "stateMutability": "view",
      "type": "function"
    },
    {
      "inputs": [],
      "name": "UTILS",
      "outputs": [
        {
          "internalType": "address",
          "name": "",
          "type": "address"
        }
      ],
      "stateMutability": "view",
      "type": "function"
    },
    {
      "inputs": [],
      "name": "VADER",
      "outputs": [
        {
          "internalType": "address",
          "name": "",
          "type": "address"
        }
      ],
      "stateMutability": "view",
      "type": "function"
    },
    {
      "inputs": [
        {
          "internalType": "address",
          "name": "base",
          "type": "address"
        },
        {
          "internalType": "uint256",
          "name": "inputBase",
          "type": "uint256"
        },
        {
          "internalType": "address",
          "name": "token",
          "type": "address"
        },
        {
          "internalType": "uint256",
          "name": "inputToken",
          "type": "uint256"
        }
      ],
      "name": "addLiquidity",
      "outputs": [
        {
          "internalType": "uint256",
          "name": "",
          "type": "uint256"
        }
      ],
      "stateMutability": "nonpayable",
      "type": "function"
    },
    {
      "inputs": [],
      "name": "anchorLimit",
      "outputs": [
        {
          "internalType": "uint256",
          "name": "",
          "type": "uint256"
        }
      ],
      "stateMutability": "view",
      "type": "function"
    },
    {
      "inputs": [
        {
          "internalType": "uint256",
          "name": "",
          "type": "uint256"
        }
      ],
      "name": "arrayAnchors",
      "outputs": [
        {
          "internalType": "address",
          "name": "",
          "type": "address"
        }
      ],
      "stateMutability": "view",
      "type": "function"
    },
    {
      "inputs": [
        {
          "internalType": "uint256",
          "name": "",
          "type": "uint256"
        }
      ],
      "name": "arrayPrices",
      "outputs": [
        {
          "internalType": "uint256",
          "name": "",
          "type": "uint256"
        }
      ],
      "stateMutability": "view",
      "type": "function"
    },
    {
      "inputs": [],
      "name": "borrow",
      "outputs": [],
      "stateMutability": "nonpayable",
      "type": "function"
    },
    {
      "inputs": [
        {
          "internalType": "address",
          "name": "token",
          "type": "address"
        }
      ],
      "name": "curatePool",
      "outputs": [],
      "stateMutability": "nonpayable",
      "type": "function"
    },
    {
      "inputs": [],
      "name": "curatedPoolCount",
      "outputs": [
        {
          "internalType": "uint256",
          "name": "",
          "type": "uint256"
        }
      ],
      "stateMutability": "view",
      "type": "function"
    },
    {
      "inputs": [],
      "name": "curatedPoolLimit",
      "outputs": [
        {
          "internalType": "uint256",
          "name": "",
          "type": "uint256"
        }
      ],
      "stateMutability": "view",
      "type": "function"
    },
    {
      "inputs": [],
      "name": "emitting",
      "outputs": [
        {
          "internalType": "bool",
          "name": "",
          "type": "bool"
        }
      ],
      "stateMutability": "view",
      "type": "function"
    },
    {
      "inputs": [],
      "name": "getAnchorPrice",
      "outputs": [
        {
          "internalType": "uint256",
          "name": "anchorPrice",
          "type": "uint256"
        }
      ],
      "stateMutability": "view",
      "type": "function"
    },
    {
      "inputs": [
        {
          "internalType": "address",
          "name": "member",
          "type": "address"
        },
        {
          "internalType": "address",
          "name": "token",
          "type": "address"
        }
      ],
      "name": "getCoverage",
      "outputs": [
        {
          "internalType": "uint256",
          "name": "",
          "type": "uint256"
        }
      ],
      "stateMutability": "view",
      "type": "function"
    },
    {
      "inputs": [
        {
          "internalType": "address",
          "name": "member",
          "type": "address"
        },
        {
          "internalType": "address",
          "name": "base",
          "type": "address"
        },
        {
          "internalType": "address",
          "name": "token",
          "type": "address"
        },
        {
          "internalType": "uint256",
          "name": "basisPoints",
          "type": "uint256"
        }
      ],
      "name": "getILProtection",
      "outputs": [
        {
          "internalType": "uint256",
          "name": "protection",
          "type": "uint256"
        }
      ],
      "stateMutability": "view",
      "type": "function"
    },
    {
      "inputs": [],
      "name": "getInterestPayment",
      "outputs": [],
      "stateMutability": "nonpayable",
      "type": "function"
    },
    {
      "inputs": [
        {
          "internalType": "address",
          "name": "member",
          "type": "address"
        },
        {
          "internalType": "address",
          "name": "token",
          "type": "address"
        },
        {
          "internalType": "uint256",
          "name": "basisPoints",
          "type": "uint256"
        },
        {
          "internalType": "uint256",
          "name": "coverage",
          "type": "uint256"
        }
      ],
      "name": "getProtection",
      "outputs": [
        {
          "internalType": "uint256",
          "name": "protection",
          "type": "uint256"
        }
      ],
      "stateMutability": "view",
      "type": "function"
    },
    {
      "inputs": [
        {
          "internalType": "uint256",
          "name": "amount",
          "type": "uint256"
        }
      ],
      "name": "getReducedShare",
      "outputs": [
        {
          "internalType": "uint256",
          "name": "",
          "type": "uint256"
        }
      ],
      "stateMutability": "view",
      "type": "function"
    },
    {
      "inputs": [
        {
          "internalType": "address",
          "name": "token",
          "type": "address"
        }
      ],
      "name": "getRewardShare",
      "outputs": [
        {
          "internalType": "uint256",
          "name": "rewardShare",
          "type": "uint256"
        }
      ],
      "stateMutability": "view",
      "type": "function"
    },
    {
      "inputs": [
        {
          "internalType": "uint256",
          "name": "vaderAmount",
          "type": "uint256"
        }
      ],
      "name": "getUSDVAmount",
      "outputs": [
        {
          "internalType": "uint256",
          "name": "USDVAmount",
          "type": "uint256"
        }
      ],
      "stateMutability": "view",
      "type": "function"
    },
    {
      "inputs": [
        {
          "internalType": "uint256",
          "name": "USDVAmount",
          "type": "uint256"
        }
      ],
      "name": "getVADERAmount",
      "outputs": [
        {
          "internalType": "uint256",
          "name": "vaderAmount",
          "type": "uint256"
        }
      ],
      "stateMutability": "view",
      "type": "function"
    },
    {
      "inputs": [
        {
          "internalType": "address",
          "name": "_vader",
          "type": "address"
        },
        {
          "internalType": "address",
          "name": "_usdv",
          "type": "address"
        },
        {
          "internalType": "address",
          "name": "_pool",
          "type": "address"
        }
      ],
      "name": "init",
      "outputs": [],
      "stateMutability": "nonpayable",
      "type": "function"
    },
    {
      "inputs": [],
      "name": "insidePriceLimit",
      "outputs": [
        {
          "internalType": "uint256",
          "name": "",
          "type": "uint256"
        }
      ],
      "stateMutability": "view",
      "type": "function"
    },
    {
      "inputs": [
        {
          "internalType": "address",
          "name": "token",
          "type": "address"
        }
      ],
      "name": "isBase",
      "outputs": [
        {
          "internalType": "bool",
          "name": "base",
          "type": "bool"
        }
      ],
      "stateMutability": "view",
      "type": "function"
    },
    {
      "inputs": [
        {
          "internalType": "address",
          "name": "token",
          "type": "address"
        }
      ],
      "name": "isCurated",
      "outputs": [
        {
          "internalType": "bool",
          "name": "curated",
          "type": "bool"
        }
      ],
      "stateMutability": "view",
      "type": "function"
    },
    {
      "inputs": [
        {
          "internalType": "address",
          "name": "token",
          "type": "address"
        }
      ],
      "name": "listAnchor",
      "outputs": [],
      "stateMutability": "nonpayable",
      "type": "function"
    },
    {
      "inputs": [
        {
          "internalType": "address",
          "name": "",
          "type": "address"
        },
        {
          "internalType": "address",
          "name": "",
          "type": "address"
        }
      ],
      "name": "mapMemberToken_depositBase",
      "outputs": [
        {
          "internalType": "uint256",
          "name": "",
          "type": "uint256"
        }
      ],
      "stateMutability": "view",
      "type": "function"
    },
    {
      "inputs": [
        {
          "internalType": "address",
          "name": "",
          "type": "address"
        },
        {
          "internalType": "address",
          "name": "",
          "type": "address"
        }
      ],
      "name": "mapMemberToken_depositToken",
      "outputs": [
        {
          "internalType": "uint256",
          "name": "",
          "type": "uint256"
        }
      ],
      "stateMutability": "view",
      "type": "function"
    },
    {
      "inputs": [
        {
          "internalType": "address",
          "name": "",
          "type": "address"
        },
        {
          "internalType": "address",
          "name": "",
          "type": "address"
        }
      ],
      "name": "mapMemberToken_lastDeposited",
      "outputs": [
        {
          "internalType": "uint256",
          "name": "",
          "type": "uint256"
        }
      ],
      "stateMutability": "view",
      "type": "function"
    },
    {
      "inputs": [],
      "name": "outsidePriceLimit",
      "outputs": [
        {
          "internalType": "uint256",
          "name": "",
          "type": "uint256"
        }
      ],
      "stateMutability": "view",
      "type": "function"
    },
    {
      "inputs": [],
      "name": "payBack",
      "outputs": [],
      "stateMutability": "nonpayable",
      "type": "function"
    },
    {
      "inputs": [],
      "name": "purgeMember",
      "outputs": [],
      "stateMutability": "nonpayable",
      "type": "function"
    },
    {
      "inputs": [
        {
          "internalType": "address",
          "name": "base",
          "type": "address"
        },
        {
          "internalType": "address",
          "name": "token",
          "type": "address"
        },
        {
          "internalType": "uint256",
          "name": "basisPoints",
          "type": "uint256"
        }
      ],
      "name": "removeLiquidity",
      "outputs": [
        {
          "internalType": "uint256",
          "name": "amountBase",
          "type": "uint256"
        },
        {
          "internalType": "uint256",
          "name": "amountToken",
          "type": "uint256"
        }
      ],
      "stateMutability": "nonpayable",
      "type": "function"
    },
    {
      "inputs": [
        {
          "internalType": "address",
          "name": "oldToken",
          "type": "address"
        },
        {
          "internalType": "address",
          "name": "newToken",
          "type": "address"
        }
      ],
      "name": "replaceAnchor",
      "outputs": [],
      "stateMutability": "nonpayable",
      "type": "function"
    },
    {
      "inputs": [
        {
          "internalType": "address",
          "name": "oldToken",
          "type": "address"
        },
        {
          "internalType": "address",
          "name": "newToken",
          "type": "address"
        }
      ],
      "name": "replacePool",
      "outputs": [],
      "stateMutability": "nonpayable",
      "type": "function"
    },
    {
      "inputs": [],
      "name": "reserveUSDV",
      "outputs": [
        {
          "internalType": "uint256",
          "name": "",
          "type": "uint256"
        }
      ],
      "stateMutability": "view",
      "type": "function"
    },
    {
      "inputs": [],
      "name": "reserveVADER",
      "outputs": [
        {
          "internalType": "uint256",
          "name": "",
          "type": "uint256"
        }
      ],
      "stateMutability": "view",
      "type": "function"
    },
    {
      "inputs": [],
      "name": "rewardReductionFactor",
      "outputs": [
        {
          "internalType": "uint256",
          "name": "",
          "type": "uint256"
        }
      ],
      "stateMutability": "view",
      "type": "function"
    },
    {
      "inputs": [
        {
          "internalType": "uint256",
          "name": "newLimit",
          "type": "uint256"
        },
        {
          "internalType": "uint256",
          "name": "newInside",
          "type": "uint256"
        },
        {
          "internalType": "uint256",
          "name": "newOutside",
          "type": "uint256"
        }
      ],
      "name": "setAnchorParams",
      "outputs": [],
      "stateMutability": "nonpayable",
      "type": "function"
    },
    {
      "inputs": [
        {
          "internalType": "uint256",
          "name": "newFactor",
          "type": "uint256"
        },
        {
          "internalType": "uint256",
          "name": "newTime",
          "type": "uint256"
        },
        {
          "internalType": "uint256",
          "name": "newLimit",
          "type": "uint256"
        }
      ],
      "name": "setParams",
      "outputs": [],
      "stateMutability": "nonpayable",
      "type": "function"
    },
    {
      "inputs": [
        {
          "internalType": "uint256",
          "name": "inputAmount",
          "type": "uint256"
        },
        {
          "internalType": "address",
          "name": "inputToken",
          "type": "address"
        },
        {
          "internalType": "address",
          "name": "outputToken",
          "type": "address"
        }
      ],
      "name": "swap",
      "outputs": [
        {
          "internalType": "uint256",
          "name": "outputAmount",
          "type": "uint256"
        }
      ],
      "stateMutability": "nonpayable",
      "type": "function"
    },
    {
      "inputs": [
        {
          "internalType": "uint256",
          "name": "inputAmount",
          "type": "uint256"
        },
        {
          "internalType": "address",
          "name": "inputToken",
          "type": "address"
        },
        {
          "internalType": "address",
          "name": "outputToken",
          "type": "address"
        },
        {
          "internalType": "uint256",
          "name": "slipLimit",
          "type": "uint256"
        }
      ],
      "name": "swapWithLimit",
      "outputs": [
        {
          "internalType": "uint256",
          "name": "outputAmount",
          "type": "uint256"
        }
      ],
      "stateMutability": "nonpayable",
      "type": "function"
    },
    {
      "inputs": [
        {
          "internalType": "uint256",
          "name": "inputAmount",
          "type": "uint256"
        },
        {
          "internalType": "address",
          "name": "inputToken",
          "type": "address"
        },
        {
          "internalType": "bool",
          "name": "inSynth",
          "type": "bool"
        },
        {
          "internalType": "address",
          "name": "outputToken",
          "type": "address"
        },
        {
          "internalType": "bool",
          "name": "outSynth",
          "type": "bool"
        }
      ],
      "name": "swapWithSynths",
      "outputs": [
        {
          "internalType": "uint256",
          "name": "outputAmount",
          "type": "uint256"
        }
      ],
      "stateMutability": "nonpayable",
      "type": "function"
    },
    {
      "inputs": [
        {
          "internalType": "uint256",
          "name": "inputAmount",
          "type": "uint256"
        },
        {
          "internalType": "address",
          "name": "inputToken",
          "type": "address"
        },
        {
          "internalType": "bool",
          "name": "inSynth",
          "type": "bool"
        },
        {
          "internalType": "address",
          "name": "outputToken",
          "type": "address"
        },
        {
          "internalType": "bool",
          "name": "outSynth",
          "type": "bool"
        },
        {
          "internalType": "uint256",
          "name": "slipLimit",
          "type": "uint256"
        }
      ],
      "name": "swapWithSynthsWithLimit",
      "outputs": [
        {
          "internalType": "uint256",
          "name": "outputAmount",
          "type": "uint256"
        }
      ],
      "stateMutability": "nonpayable",
      "type": "function"
    },
    {
      "inputs": [],
      "name": "timeForFullProtection",
      "outputs": [
        {
          "internalType": "uint256",
          "name": "",
          "type": "uint256"
        }
      ],
      "stateMutability": "view",
      "type": "function"
    },
    {
      "inputs": [
        {
          "internalType": "address",
          "name": "token",
          "type": "address"
        }
      ],
      "name": "updateAnchorPrice",
      "outputs": [],
      "stateMutability": "nonpayable",
      "type": "function"
    }
  ],
  "bytecode": "0x6080604052670de0b6b3a764000060015561271060025534801561002257600080fd5b50613bf1806100326000396000f3fe608060405234801561001057600080fd5b50600436106102a05760003560e01c8063774d70e411610167578063d8489152116100ce578063e68d356911610087578063e68d3569146102d5578063e8b8cfa01461056c578063ebccb5b21461057f578063f550394e14610592578063fcf47686146105bd578063fdc59b82146105d0576102a0565b8063d848915214610522578063ddab2385146102d5578063de6ad44e1461052b578063e2c3b04614610533578063e2e1e48f14610546578063e6048ff814610559576102a0565b8063ae746f0211610120578063ae746f02146104af578063b7736348146104b8578063c6978f26146104cb578063cf8bc715146104de578063d2b43373146104e7578063d752fab2146104fa576102a0565b8063774d70e4146104455780637b0e5c45146104585780638bc51e361461046057806398fabd3a1461046957806399a485f514610471578063a9d1c09e14610484576102a0565b80633494c8e81161020b5780635a4dd3f2116101c45780635a4dd3f2146103f15780635b0b602d1461040457806362cea3401461041757806362f25b5a146102d55780636cc06ded1461041f5780636e899aa314610432576102a0565b80633494c8e814610393578063376d3d5d1461039c57806337785d21146103af57806339e68f53146103c257806353198438146103d55780635a0ce676146103de576102a0565b8063184b95591161025d578063184b95591461032b5780631a6098271461033e5780631df6acfd14610351578063273961e6146103645780632b7f09231461036d5780632e2d085614610380576102a0565b806301681315146102a5578063019f64cc146102d5578063038e5eaa146102d75780630781f4d2146102ed57806312a86ffb1461030557806317af50e514610318575b600080fd5b6008546102b8906001600160a01b031681565b6040516001600160a01b0390911681526020015b60405180910390f35b005b6102df6105fb565b6040519081526020016102cc565b6102f561069c565b60405190151581526020016102cc565b6102df610313366004613761565b61071e565b6102df61032636600461390b565b610ba0565b6102d5610339366004613799565b610bc1565b6102df61034c366004613961565b610c6f565b6102d561035f366004613761565b610c8c565b6102df60045481565b6102df61037b36600461393b565b610f8b565b6102d561038e366004613a81565b610f9f565b6102df600b5481565b6102df6103aa3660046138b8565b610fff565b6102df6103bd3660046139ef565b6110b9565b6102d56103d0366004613722565b611aa3565b6102df60055481565b6102d56103ec366004613a81565b611c58565b6102df6103ff36600461390b565b611cb8565b6102df610412366004613873565b611ce7565b6102df611e5b565b6102df61042d36600461390b565b611ed8565b6102f5610440366004613722565b611ef3565b6102f5610453366004613722565b611f2c565b6102b8611f55565b6102df60065481565b6102b8611fd2565b6102df61047f366004613988565b612017565b6102df610492366004613761565b601260209081526000928352604080842090915290825290205481565b6102df600c5481565b6102df6104c6366004613722565b612033565b6102df6104d936600461390b565b612444565b6102df60035481565b6102d56104f5366004613722565b6124da565b61050d610508366004613833565b612674565b604080519283526020830191909152016102cc565b6102df600d5481565b6102df6127b0565b6009546102b8906001600160a01b031681565b6102d5610554366004613722565b6127e1565b6102df6105673660046137e3565b612936565b6102d561057a366004613761565b612995565b600a546102b8906001600160a01b031681565b6102df6105a0366004613761565b601060209081526000928352604080842090915290825290205481565b6102b86105cb36600461390b565b612b7e565b6102df6105de366004613761565b601160209081526000928352604080842090915290825290205481565b600f5460009015610694576000610661600f80548060200260200160405190810160405280929190818152602001828054801561065757602002820191906000526020600020905b815481526020019060010190808311610643575b5050505050612ba8565b90508060028151811061068457634e487b7160e01b600052603260045260246000fd5b6020026020010151915050610699565b506001545b90565b600854604080516303c0fa6960e11b815290516000926001600160a01b031691630781f4d2916004808301926020929190829003018186803b1580156106e157600080fd5b505afa1580156106f5573d6000803e3d6000fd5b505050506040513d601f19601f8201168201806040525081019061071991906138ef565b905090565b6001600160a01b038281166000818152601060209081526040808320868616808552908352818420548585526011845282852082865290935281842054600a54925163024ef37560e41b8152600481019290925260248201959095529294919392859291909116906324ef37509060440160206040518083038186803b1580156107a757600080fd5b505afa1580156107bb573d6000803e3d6000fd5b505050506040513d601f19601f820116820180604052508101906107df9190613923565b905060006107eb611f55565b600a54604051630fefbc0960e01b81526001600160a01b03898116600483015292831692631ba326c4928692911690630fefbc099060240160206040518083038186803b15801561083b57600080fd5b505afa15801561084f573d6000803e3d6000fd5b505050506040513d601f19601f820116820180604052508101906108739190613923565b600a5460405163b34c8afb60e01b81526001600160a01b038c811660048301529091169063b34c8afb9060240160206040518083038186803b1580156108b857600080fd5b505afa1580156108cc573d6000803e3d6000fd5b505050506040513d601f19601f820116820180604052508101906108f09190613923565b6040516001600160e01b031960e086901b16815260048101939093526024830191909152604482015260640160206040518083038186803b15801561093457600080fd5b505afa158015610948573d6000803e3d6000fd5b505050506040513d601f19601f8201168201806040525081019061096c9190613923565b90506000610978611f55565b600a54604051630fefbc0960e01b81526001600160a01b038a8116600483015292831692631ba326c4928792911690630fefbc099060240160206040518083038186803b1580156109c857600080fd5b505afa1580156109dc573d6000803e3d6000fd5b505050506040513d601f19601f82011682018060405250810190610a009190613923565b600a5460405163e6ae1a9760e01b81526001600160a01b038d811660048301529091169063e6ae1a979060240160206040518083038186803b158015610a4557600080fd5b505afa158015610a59573d6000803e3d6000fd5b505050506040513d601f19601f82011682018060405250810190610a7d9190613923565b6040516001600160e01b031960e086901b16815260048101939093526024830191909152604482015260640160206040518083038186803b158015610ac157600080fd5b505afa158015610ad5573d6000803e3d6000fd5b505050506040513d601f19601f82011682018060405250810190610af99190613923565b9050610b03611f55565b60405163595a88a760e01b8152600481018790526024810186905260448101849052606481018390526001600160a01b03919091169063595a88a79060840160206040518083038186803b158015610b5a57600080fd5b505afa158015610b6e573d6000803e3d6000fd5b505050506040513d601f19601f82011682018060405250810190610b929190613923565b955050505050505b92915050565b600f8181548110610bb057600080fd5b600091825260209091200154905081565b60005460ff1615610c025760405162461bcd60e51b81526020600482015260066024820152651a5b9a5d195960d21b60448201526064015b60405180910390fd5b60008054600160ff199091168117909155600880546001600160a01b03199081166001600160a01b039687161790915560098054821694861694909417909355600a805490931691909316179055600381905560048190556005908155600b5560c8600c556101f4600d55565b6000610c8185856000866000876110b9565b90505b949350505050565b600a54604051636c66769560e11b81526001600160a01b0383811660048301529091169063d8cced2a9060240160206040518083038186803b158015610cd157600080fd5b505afa158015610ce5573d6000803e3d6000fd5b505050506040513d601f19601f82011682018060405250810190610d0991906138ef565b610d425760405162461bcd60e51b815260206004820152600a6024820152692737ba1030b731b437b960b11b6044820152606401610bf9565b600a5460405163b34c8afb60e01b81526001600160a01b0384811660048301529091169063b34c8afb9060240160206040518083038186803b158015610d8757600080fd5b505afa158015610d9b573d6000803e3d6000fd5b505050506040513d601f19601f82011682018060405250810190610dbf9190613923565b600a5460405163b34c8afb60e01b81526001600160a01b0384811660048301529091169063b34c8afb9060240160206040518083038186803b158015610e0457600080fd5b505afa158015610e18573d6000803e3d6000fd5b505050506040513d601f19601f82011682018060405250810190610e3c9190613923565b11610e765760405162461bcd60e51b815260206004820152600a6024820152692737ba103232b2b832b960b11b6044820152606401610bf9565b610e8482600d546000612d02565b610e9281600c546001612d02565b6001600160a01b03808316600090815260076020526040808220805460ff199081169091559284168252812080549092166001179091555b600e54811015610f7d57826001600160a01b0316600e8281548110610eff57634e487b7160e01b600052603260045260246000fd5b6000918252602090912001546001600160a01b03161415610f6b5781600e8281548110610f3c57634e487b7160e01b600052603260045260246000fd5b9060005260206000200160006101000a8154816001600160a01b0302191690836001600160a01b031602179055505b80610f7581613b67565b915050610eca565b50610f87816127e1565b5050565b6000610c84848460008560006127106110b9565b610fa7611fd2565b6001600160a01b0316336001600160a01b031614610ff15760405162461bcd60e51b81526020600482015260076024820152664e6f742044414f60c81b6044820152606401610bf9565b600b92909255600c55600d55565b60008061100c8686612f0a565b9050600061101a8585612f0a565b90506110283386848461327f565b600a5460405163fde3b26560e01b81526001600160a01b039091169063fde3b2659061105c908a9089903390600401613aac565b602060405180830381600087803b15801561107657600080fd5b505af115801561108a573d6000803e3d6000fd5b505050506040513d601f19601f820116820180604052508101906110ae9190613923565b979650505050505050565b600033856110d1576110cb8789612f0a565b5061115a565b600a54604051636e76408b60e11b81526001600160a01b03898116600483015261115892169063dcec811690602401602060405180830381600087803b15801561111a57600080fd5b505af115801561112e573d6000803e3d6000fd5b505050506040513d601f19601f820116820180604052508101906111529190613745565b89612f0a565b505b600a54604051636c66769560e11b81526001600160a01b038981166004830152600092169063d8cced2a9060240160206040518083038186803b1580156111a057600080fd5b505afa1580156111b4573d6000803e3d6000fd5b505050506040513d601f19601f820116820180604052508101906111d891906138ef565b8061125b5750600a54604051636c66769560e11b81526001600160a01b0388811660048301529091169063d8cced2a9060240160206040518083038186803b15801561122357600080fd5b505afa158015611237573d6000803e3d6000fd5b505050506040513d601f19601f8201168201806040525081019061125b91906138ef565b1561127257506008546001600160a01b0316611280565b506009546001600160a01b03165b61128986611ef3565b156114c15783611297611f55565b600a5460405163e6ae1a9760e01b81526001600160a01b038c8116600483015292831692632db6e488928e9291169063e6ae1a979060240160206040518083038186803b1580156112e757600080fd5b505afa1580156112fb573d6000803e3d6000fd5b505050506040513d601f19601f8201168201806040525081019061131f9190613923565b6040516001600160e01b031960e085901b1681526004810192909252602482015260440160206040518083038186803b15801561135b57600080fd5b505afa15801561136f573d6000803e3d6000fd5b505050506040513d601f19601f820116820180604052508101906113939190613923565b111561139e57600080fd5b8661143357600a5460405163efc34aab60e01b81526001600160a01b039091169063efc34aab906113da9084908c908790600190600401613acf565b602060405180830381600087803b1580156113f457600080fd5b505af1158015611408573d6000803e3d6000fd5b505050506040513d601f19601f8201168201806040525081019061142c9190613923565b92506114bc565b600a546040516371d6d97b60e11b81526001600160a01b039091169063e3adb2f6906114679084908c908790600401613aac565b602060405180830381600087803b15801561148157600080fd5b505af1158015611495573d6000803e3d6000fd5b505050506040513d601f19601f820116820180604052508101906114b99190613923565b92505b611a71565b6114ca88611ef3565b1561164f57836114d8611f55565b600a5460405163b34c8afb60e01b81526001600160a01b038a8116600483015292831692632db6e488928e9291169063b34c8afb9060240160206040518083038186803b15801561152857600080fd5b505afa15801561153c573d6000803e3d6000fd5b505050506040513d601f19601f820116820180604052508101906115609190613923565b6040516001600160e01b031960e085901b1681526004810192909252602482015260440160206040518083038186803b15801561159c57600080fd5b505afa1580156115b0573d6000803e3d6000fd5b505050506040513d601f19601f820116820180604052508101906115d49190613923565b11156115df57600080fd5b8461161b57600a5460405163efc34aab60e01b81526001600160a01b039091169063efc34aab906113da9084908a908790600090600401613acf565b600a5460405163680b1a3f60e11b81526001600160a01b039091169063d016347e906114679084908a908790600401613aac565b61165888611ef3565b15801561166b575061166986611ef3565b155b15611a715783611679611f55565b600a5460405163e6ae1a9760e01b81526001600160a01b038c8116600483015292831692632db6e488928e9291169063e6ae1a979060240160206040518083038186803b1580156116c957600080fd5b505afa1580156116dd573d6000803e3d6000fd5b505050506040513d601f19601f820116820180604052508101906117019190613923565b6040516001600160e01b031960e085901b1681526004810192909252602482015260440160206040518083038186803b15801561173d57600080fd5b505afa158015611751573d6000803e3d6000fd5b505050506040513d601f19601f820116820180604052508101906117759190613923565b111561178057600080fd5b8661181457600a5460405163efc34aab60e01b81526001600160a01b039091169063efc34aab906117bc9084908c908590600190600401613acf565b602060405180830381600087803b1580156117d657600080fd5b505af11580156117ea573d6000803e3d6000fd5b505050506040513d601f19601f8201168201806040525081019061180e9190613923565b5061189c565b600a546040516371d6d97b60e11b81526001600160a01b039091169063e3adb2f6906118489084908c908590600401613aac565b602060405180830381600087803b15801561186257600080fd5b505af1158015611876573d6000803e3d6000fd5b505050506040513d601f19601f8201168201806040525081019061189a9190613923565b505b836118a5611f55565b600a5460405163b34c8afb60e01b81526001600160a01b038a8116600483015292831692632db6e488928e9291169063b34c8afb9060240160206040518083038186803b1580156118f557600080fd5b505afa158015611909573d6000803e3d6000fd5b505050506040513d601f19601f8201168201806040525081019061192d9190613923565b6040516001600160e01b031960e085901b1681526004810192909252602482015260440160206040518083038186803b15801561196957600080fd5b505afa15801561197d573d6000803e3d6000fd5b505050506040513d601f19601f820116820180604052508101906119a19190613923565b11156119ac57600080fd5b846119e857600a5460405163efc34aab60e01b81526001600160a01b039091169063efc34aab906114679084908a908790600090600401613acf565b600a5460405163680b1a3f60e11b81526001600160a01b039091169063d016347e90611a1c9084908a908790600401613aac565b602060405180830381600087803b158015611a3657600080fd5b505af1158015611a4a573d6000803e3d6000fd5b505050506040513d601f19601f82011682018060405250810190611a6e9190613923565b92505b611a7b8189613325565b611a858187613325565b611a8e8861347f565b611a978661347f565b50509695505050505050565b600b54600e5410611ab357600080fd5b600a54604051636c66769560e11b81526001600160a01b0383811660048301529091169063d8cced2a9060240160206040518083038186803b158015611af857600080fd5b505afa158015611b0c573d6000803e3d6000fd5b505050506040513d601f19601f82011682018060405250810190611b3091906138ef565b611b3957600080fd5b600e80546001810182556000919091527fbb7b4a454dc3493923482f07822329ed19e8244eff582cc204f8554c3620c3fd0180546001600160a01b0319166001600160a01b038316179055600f611b8e611f55565b60015460405163db39dc7960e01b81526001600160a01b038581166004830152602482019290925291169063db39dc799060440160206040518083038186803b158015611bda57600080fd5b505afa158015611bee573d6000803e3d6000fd5b505050506040513d601f19601f82011682018060405250810190611c129190613923565b81546001818101845560009384526020808520909201929092556001600160a01b0384168352600790526040909120805460ff19169091179055611c55816127e1565b50565b611c60611fd2565b6001600160a01b0316336001600160a01b031614611caa5760405162461bcd60e51b81526020600482015260076024820152664e6f742044414f60c81b6044820152606401610bf9565b600392909255600455600555565b600080611cc36105fb565b90508060015484611cd49190613b31565b611cde9190613b11565b9150505b919050565b6000611cf284611f2c565b15611dd2576001600160a01b038086166000908152601260209081526040808320938816835292905290812054611d299042613b50565b90506004548111611dcc57611d3c611f55565b600480546040516306e8c9b160e21b81529182018490526024820152604481018590526001600160a01b039190911690631ba326c49060640160206040518083038186803b158015611d8d57600080fd5b505afa158015611da1573d6000803e3d6000fd5b505050506040513d601f19601f82011682018060405250810190611dc59190613923565b9150611dd0565b8291505b505b611dda611f55565b60405163714270ab60e01b815260048101859052602481018390526001600160a01b03919091169063714270ab9060440160206040518083038186803b158015611e2357600080fd5b505afa158015611e37573d6000803e3d6000fd5b505050506040513d601f19601f82011682018060405250810190610c819190613923565b6008546040516370a0823160e01b81523060048201526000916001600160a01b0316906370a08231906024015b60206040518083038186803b158015611ea057600080fd5b505afa158015611eb4573d6000803e3d6000fd5b505050506040513d601f19601f820116820180604052508101906107199190613923565b600080611ee36105fb565b600154909150611cd48483613b31565b6008546000906001600160a01b0383811691161480611f1f57506009546001600160a01b038381169116145b15611ce257506001611ce2565b6001600160a01b03811660009081526007602052604081205460ff1615611ce257506001919050565b60085460408051637b0e5c4560e01b815290516000926001600160a01b031691637b0e5c45916004808301926020929190829003018186803b158015611f9a57600080fd5b505afa158015611fae573d6000803e3d6000fd5b505050506040513d601f19601f820116820180604052508101906107199190613745565b60085460408051634c7d5e9d60e11b815290516000926001600160a01b0316916398fabd3a916004808301926020929190829003018186803b158015611f9a57600080fd5b600061202986868686866127106110b9565b9695505050505050565b600061203d61069c565b801561204d575061204d82611f2c565b15611ce257600a5460405163b34c8afb60e01b81526001600160a01b038481166004830152600092169063b34c8afb9060240160206040518083038186803b15801561209857600080fd5b505afa1580156120ac573d6000803e3d6000fd5b505050506040513d601f19601f820116820180604052508101906120d09190613923565b600a5460405163643fd21560e11b81526001600160a01b03868116600483015292935091169063c87fa42a9060240160206040518083038186803b15801561211757600080fd5b505afa15801561212b573d6000803e3d6000fd5b505050506040513d601f19601f8201168201806040525081019061214f91906138ef565b1561228a57600061215e611f55565b6001600160a01b0316631ba326c483600a60009054906101000a90046001600160a01b03166001600160a01b031663a9652dca6040518163ffffffff1660e01b815260040160206040518083038186803b1580156121bb57600080fd5b505afa1580156121cf573d6000803e3d6000fd5b505050506040513d601f19601f820116820180604052508101906121f39190613923565b6121fb6127b0565b6040516001600160e01b031960e086901b16815260048101939093526024830191909152604482015260640160206040518083038186803b15801561223f57600080fd5b505afa158015612253573d6000803e3d6000fd5b505050506040513d601f19601f820116820180604052508101906122779190613923565b905061228281612444565b92505061243e565b600a54604051636c66769560e11b81526001600160a01b0385811660048301529091169063d8cced2a9060240160206040518083038186803b1580156122cf57600080fd5b505afa1580156122e3573d6000803e3d6000fd5b505050506040513d601f19601f8201168201806040525081019061230791906138ef565b1561243e576000612316611f55565b6001600160a01b0316631ba326c483600a60009054906101000a90046001600160a01b03166001600160a01b031663dd5a2bd86040518163ffffffff1660e01b815260040160206040518083038186803b15801561237357600080fd5b505afa158015612387573d6000803e3d6000fd5b505050506040513d601f19601f820116820180604052508101906123ab9190613923565b6123b3611e5b565b6040516001600160e01b031960e086901b16815260048101939093526024830191909152604482015260640160206040518083038186803b1580156123f757600080fd5b505afa15801561240b573d6000803e3d6000fd5b505050506040513d601f19601f8201168201806040525081019061242f9190613923565b905061243a81612444565b9250505b50919050565b600061244e611f55565b6003546040516306e8c9b160e21b8152600160048201526024810191909152604481018490526001600160a01b039190911690631ba326c49060640160206040518083038186803b1580156124a257600080fd5b505afa1580156124b6573d6000803e3d6000fd5b505050506040513d601f19601f82011682018060405250810190610b9a9190613923565b600a5460405163643fd21560e11b81526001600160a01b0383811660048301529091169063c87fa42a9060240160206040518083038186803b15801561251f57600080fd5b505afa158015612533573d6000803e3d6000fd5b505050506040513d601f19601f8201168201806040525081019061255791906138ef565b806125da5750600a54604051636c66769560e11b81526001600160a01b0383811660048301529091169063d8cced2a9060240160206040518083038186803b1580156125a257600080fd5b505afa1580156125b6573d6000803e3d6000fd5b505050506040513d601f19601f820116820180604052508101906125da91906138ef565b6125e357600080fd5b6125ec81611f2c565b61263b57600554600654101561263b576001600160a01b0381166000908152600760205260408120805460ff191660019081179091556006805491929091612635908490613af9565b90915550505b6040516001600160a01b0382169033907fb2f6cc014bc6265032f32972254d5e024ec51ed94c0aaf2280128336be54a04190600090a350565b600a54604051636ba97d5960e11b81526001600160a01b038581166004830152848116602483015260448201849052600092839291169063d752fab2906064016040805180830381600087803b1580156126cd57600080fd5b505af11580156126e1573d6000803e3d6000fd5b505050506040513d601f19601f820116820180604052508101906127059190613a5e565b9092509050600061271833878787612936565b90506127263386868461350a565b60405163a9059cbb60e01b8152336004820152602481018290526001600160a01b0387169063a9059cbb90604401602060405180830381600087803b15801561276e57600080fd5b505af1158015612782573d6000803e3d6000fd5b505050506040513d601f19601f820116820180604052508101906127a691906138ef565b5050935093915050565b6009546040516370a0823160e01b81523060048201526000916001600160a01b0316906370a0823190602401611e88565b60005b600e54811015610f8757816001600160a01b0316600e828154811061281957634e487b7160e01b600052603260045260246000fd5b6000918252602090912001546001600160a01b031614156129245761283c611f55565b6001600160a01b031663db39dc79600e838154811061286b57634e487b7160e01b600052603260045260246000fd5b60009182526020909120015460015460405160e084901b6001600160e01b03191681526001600160a01b039092166004830152602482015260440160206040518083038186803b1580156128be57600080fd5b505afa1580156128d2573d6000803e3d6000fd5b505050506040513d601f19601f820116820180604052508101906128f69190613923565b600f828154811061291757634e487b7160e01b600052603260045260246000fd5b6000918252602090912001555b8061292e81613b67565b9150506127e4565b6000612948858484610412898861071e565b6008549091506001600160a01b038581169116141561297f57612969611e5b565b811061297a57612977611e5b565b90505b610c84565b6129876127b0565b8110610c8457610c816127b0565b600a5460405163643fd21560e11b81526001600160a01b0383811660048301529091169063c87fa42a9060240160206040518083038186803b1580156129da57600080fd5b505afa1580156129ee573d6000803e3d6000fd5b505050506040513d601f19601f82011682018060405250810190612a1291906138ef565b612a1b57600080fd5b600a5460405163b34c8afb60e01b81526001600160a01b0384811660048301529091169063b34c8afb9060240160206040518083038186803b158015612a6057600080fd5b505afa158015612a74573d6000803e3d6000fd5b505050506040513d601f19601f82011682018060405250810190612a989190613923565b600a5460405163b34c8afb60e01b81526001600160a01b0384811660048301529091169063b34c8afb9060240160206040518083038186803b158015612add57600080fd5b505afa158015612af1573d6000803e3d6000fd5b505050506040513d601f19601f82011682018060405250810190612b159190613923565b1115610f87576001600160a01b03808316600090815260076020526040808220805460ff1990811690915592841680835281832080549094166001179093555133917fb2f6cc014bc6265032f32972254d5e024ec51ed94c0aaf2280128336be54a04191a35050565b600e8181548110612b8e57600080fd5b6000918252602090912001546001600160a01b0316905081565b805160609060005b81811015612cfa576000612bc5826001613af9565b90505b82811015612ce757848181518110612bf057634e487b7160e01b600052603260045260246000fd5b6020026020010151858381518110612c1857634e487b7160e01b600052603260045260246000fd5b60200260200101511115612cd5576000858381518110612c4857634e487b7160e01b600052603260045260246000fd5b60200260200101519050858281518110612c7257634e487b7160e01b600052603260045260246000fd5b6020026020010151868481518110612c9a57634e487b7160e01b600052603260045260246000fd5b60200260200101818152505080868381518110612cc757634e487b7160e01b600052603260045260246000fd5b602002602001018181525050505b80612cdf81613b67565b915050612bc8565b5080612cf281613b67565b915050612bb0565b509192915050565b6000612d0c6105fb565b90506000612d18611f55565b60015460405163db39dc7960e01b81526001600160a01b038881166004830152602482019290925291169063db39dc799060440160206040518083038186803b158015612d6457600080fd5b505afa158015612d78573d6000803e3d6000fd5b505050506040513d601f19601f82011682018060405250810190612d9c9190613923565b90506000612da8611f55565b6001600160a01b031663714270ab86600254612dc49190613b50565b856040518363ffffffff1660e01b8152600401612deb929190918252602082015260400190565b60206040518083038186803b158015612e0357600080fd5b505afa158015612e17573d6000803e3d6000fd5b505050506040513d601f19601f82011682018060405250810190612e3b9190613923565b600254909150600090612e4e8782613af9565b612e589086613b31565b612e629190613b11565b90508415612eb857818310158015612e7a5750808311155b612eb35760405162461bcd60e51b815260206004820152600a6024820152694e6f7420696e7369646560b01b6044820152606401610bf9565b612f01565b8183111580612ec75750808310155b612f015760405162461bcd60e51b815260206004820152600b60248201526a4e6f74206f75747369646560a81b6044820152606401610bf9565b50505050505050565b6008546000906001600160a01b0384811691161480612f3657506009546001600160a01b038481169116145b80612fbb5750600a54604051632f011bf560e11b81526001600160a01b03858116600483015290911690635e0237ea90602401602060405180830381600087803b158015612f8357600080fd5b505af1158015612f97573d6000803e3d6000fd5b505050506040513d601f19601f82011682018060405250810190612fbb91906138ef565b156130e95750803233141561305657600a546040516302ccb1b360e41b81526001600160a01b0391821660048201526024810184905290841690632ccb1b3090604401602060405180830381600087803b15801561301857600080fd5b505af115801561302c573d6000803e3d6000fd5b505050506040513d601f19601f8201168201806040525081019061305091906138ef565b506130e4565b600a546040516323b872dd60e01b81523360048201526001600160a01b03918216602482015260448101849052908416906323b872dd90606401602060405180830381600087803b1580156130aa57600080fd5b505af11580156130be573d6000803e3d6000fd5b505050506040513d601f19601f820116820180604052508101906130e291906138ef565b505b610b9a565b600a546040516370a0823160e01b81526001600160a01b0391821660048201526000918516906370a082319060240160206040518083038186803b15801561313057600080fd5b505afa158015613144573d6000803e3d6000fd5b505050506040513d601f19601f820116820180604052508101906131689190613923565b600a546040516323b872dd60e01b81523360048201526001600160a01b039182166024820152604481018690529192508516906323b872dd90606401602060405180830381600087803b1580156131be57600080fd5b505af11580156131d2573d6000803e3d6000fd5b505050506040513d601f19601f820116820180604052508101906131f691906138ef565b50600a546040516370a0823160e01b81526001600160a01b03918216600482015282918616906370a082319060240160206040518083038186803b15801561323d57600080fd5b505afa158015613251573d6000803e3d6000fd5b505050506040513d601f19601f820116820180604052508101906132759190613923565b610c849190613b50565b6001600160a01b038085166000908152601060209081526040808320938716835292905290812080548492906132b6908490613af9565b90915550506001600160a01b038085166000908152601160209081526040808320938716835292905290812080548392906132f2908490613af9565b9091555050506001600160a01b039283166000908152601260209081526040808320949095168252929092525020429055565b61332e81611ef3565b610f8757600061333d82612033565b600a5460405163a9059cbb60e01b81526001600160a01b0391821660048201526024810183905291925084169063a9059cbb90604401602060405180830381600087803b15801561338d57600080fd5b505af11580156133a1573d6000803e3d6000fd5b505050506040513d601f19601f820116820180604052508101906133c591906138ef565b50600a54604051633041949b60e01b81526001600160a01b038581166004830152848116602483015290911690633041949b90604401600060405180830381600087803b15801561341557600080fd5b505af1158015613429573d6000803e3d6000fd5b50505050816001600160a01b0316836001600160a01b03167f416b0b234ccd4d6d72c4b1a3a09b472a71981d9bbf0f26ab44774e0e3425fad68360405161347291815260200190565b60405180910390a3505050565b600a54604051636c66769560e11b81526001600160a01b0383811660048301529091169063d8cced2a9060240160206040518083038186803b1580156134c457600080fd5b505afa1580156134d8573d6000803e3d6000fd5b505050506040513d601f19601f820116820180604052508101906134fc91906138ef565b15611c5557611c55816127e1565b6001600160a01b03808516600090815260106020908152604080832093871683529290529081208054839290613541908490613af9565b9091555060009050613551611f55565b6001600160a01b03868116600090815260106020908152604080832089851684529091529081902054905163714270ab60e01b815260048101879052602481019190915291169063714270ab9060440160206040518083038186803b1580156135b957600080fd5b505afa1580156135cd573d6000803e3d6000fd5b505050506040513d601f19601f820116820180604052508101906135f19190613923565b905060006135fd611f55565b6001600160a01b0387811660009081526011602090815260408083208a851684529091529081902054905163714270ab60e01b815260048101889052602481019190915291169063714270ab9060440160206040518083038186803b15801561366557600080fd5b505afa158015613679573d6000803e3d6000fd5b505050506040513d601f19601f8201168201806040525081019061369d9190613923565b6001600160a01b038088166000908152601060209081526040808320938a168352929052908120805492935084929091906136d9908490613b50565b90915550506001600160a01b03808716600090815260116020908152604080832093891683529290529081208054839290613715908490613b50565b9091555050505050505050565b600060208284031215613733578081fd5b813561373e81613b98565b9392505050565b600060208284031215613756578081fd5b815161373e81613b98565b60008060408385031215613773578081fd5b823561377e81613b98565b9150602083013561378e81613b98565b809150509250929050565b6000806000606084860312156137ad578081fd5b83356137b881613b98565b925060208401356137c881613b98565b915060408401356137d881613b98565b809150509250925092565b600080600080608085870312156137f8578081fd5b843561380381613b98565b9350602085013561381381613b98565b9250604085013561382381613b98565b9396929550929360600135925050565b600080600060608486031215613847578283fd5b833561385281613b98565b9250602084013561386281613b98565b929592945050506040919091013590565b60008060008060808587031215613888578384fd5b843561389381613b98565b935060208501356138a381613b98565b93969395505050506040820135916060013590565b600080600080608085870312156138cd578384fd5b84356138d881613b98565b935060208501359250604085013561382381613b98565b600060208284031215613900578081fd5b815161373e81613bad565b60006020828403121561391c578081fd5b5035919050565b600060208284031215613934578081fd5b5051919050565b60008060006060848603121561394f578283fd5b8335925060208401356137c881613b98565b60008060008060808587031215613976578384fd5b84359350602085013561381381613b98565b600080600080600060a0868803121561399f578283fd5b8535945060208601356139b181613b98565b935060408601356139c181613bad565b925060608601356139d181613b98565b915060808601356139e181613bad565b809150509295509295909350565b60008060008060008060c08789031215613a07578384fd5b863595506020870135613a1981613b98565b94506040870135613a2981613bad565b93506060870135613a3981613b98565b92506080870135613a4981613bad565b8092505060a087013590509295509295509295565b60008060408385031215613a70578182fd5b505080516020909101519092909150565b600080600060608486031215613a95578081fd5b505081359360208301359350604090920135919050565b6001600160a01b0393841681529183166020830152909116604082015260600190565b6001600160a01b039485168152928416602084015292166040820152901515606082015260800190565b60008219821115613b0c57613b0c613b82565b500190565b600082613b2c57634e487b7160e01b81526012600452602481fd5b500490565b6000816000190483118215151615613b4b57613b4b613b82565b500290565b600082821015613b6257613b62613b82565b500390565b6000600019821415613b7b57613b7b613b82565b5060010190565b634e487b7160e01b600052601160045260246000fd5b6001600160a01b0381168114611c5557600080fd5b8015158114611c5557600080fdfea264697066735822122044be61bf0ffd43ab89110f1f527cdf29acd3e6d56a2d533f6d6acd79175dcf5b64736f6c63430008030033",
  "linkReferences": {},
  "deployedLinkReferences": {}
}