{
  "_format": "hh-sol-artifact-1",
  "contractName": "Router",
  "sourceName": "contracts/Router.sol",
  "abi": [
    {
      "inputs": [],
      "stateMutability": "nonpayable",
      "type": "constructor"
    },
    {
      "anonymous": false,
      "inputs": [
        {
          "indexed": true,
          "internalType": "address",
          "name": "curator",
          "type": "address"
        },
        {
          "indexed": true,
          "internalType": "address",
          "name": "token",
          "type": "address"
        }
      ],
      "name": "Curated",
      "type": "event"
    },
    {
      "anonymous": false,
      "inputs": [
        {
          "indexed": true,
          "internalType": "address",
          "name": "base",
          "type": "address"
        },
        {
          "indexed": true,
          "internalType": "address",
          "name": "token",
          "type": "address"
        },
        {
          "indexed": false,
          "internalType": "uint256",
          "name": "amount",
          "type": "uint256"
        }
      ],
      "name": "PoolReward",
      "type": "event"
    },
    {
      "anonymous": false,
      "inputs": [
        {
          "indexed": true,
          "internalType": "address",
          "name": "member",
          "type": "address"
        },
        {
          "indexed": false,
          "internalType": "uint256",
          "name": "amount",
          "type": "uint256"
        }
      ],
      "name": "Protection",
      "type": "event"
    },
    {
      "inputs": [],
      "name": "DAO",
      "outputs": [
        {
          "internalType": "address",
          "name": "",
          "type": "address"
        }
      ],
      "stateMutability": "view",
      "type": "function"
    },
    {
      "inputs": [],
      "name": "USDV",
      "outputs": [
        {
          "internalType": "address",
          "name": "",
          "type": "address"
        }
      ],
      "stateMutability": "view",
      "type": "function"
    },
    {
      "inputs": [],
      "name": "UTILS",
      "outputs": [
        {
          "internalType": "address",
          "name": "",
          "type": "address"
        }
      ],
      "stateMutability": "view",
      "type": "function"
    },
    {
      "inputs": [],
      "name": "VADER",
      "outputs": [
        {
          "internalType": "address",
          "name": "",
          "type": "address"
        }
      ],
      "stateMutability": "view",
      "type": "function"
    },
    {
      "inputs": [],
      "name": "VAULT",
      "outputs": [
        {
          "internalType": "address",
          "name": "",
          "type": "address"
        }
      ],
      "stateMutability": "view",
      "type": "function"
    },
    {
      "inputs": [
        {
          "internalType": "address",
          "name": "base",
          "type": "address"
        },
        {
          "internalType": "uint256",
          "name": "inputBase",
          "type": "uint256"
        },
        {
          "internalType": "address",
          "name": "token",
          "type": "address"
        },
        {
          "internalType": "uint256",
          "name": "inputToken",
          "type": "uint256"
        }
      ],
      "name": "addLiquidity",
      "outputs": [
        {
          "internalType": "uint256",
          "name": "",
          "type": "uint256"
        }
      ],
      "stateMutability": "nonpayable",
      "type": "function"
    },
    {
      "inputs": [
        {
          "internalType": "uint256",
          "name": "",
          "type": "uint256"
        }
      ],
      "name": "arrayAnchors",
      "outputs": [
        {
          "internalType": "address",
          "name": "",
          "type": "address"
        }
      ],
      "stateMutability": "view",
      "type": "function"
    },
    {
      "inputs": [
        {
          "internalType": "uint256",
          "name": "",
          "type": "uint256"
        }
      ],
      "name": "arrayPrices",
      "outputs": [
        {
          "internalType": "uint256",
          "name": "",
          "type": "uint256"
        }
      ],
      "stateMutability": "view",
      "type": "function"
    },
    {
      "inputs": [],
      "name": "borrow",
      "outputs": [],
      "stateMutability": "nonpayable",
      "type": "function"
    },
    {
      "inputs": [
        {
          "internalType": "address",
          "name": "token",
          "type": "address"
        }
      ],
      "name": "curatePool",
      "outputs": [],
      "stateMutability": "nonpayable",
      "type": "function"
    },
    {
      "inputs": [],
      "name": "curatedPoolCount",
      "outputs": [
        {
          "internalType": "uint256",
          "name": "",
          "type": "uint256"
        }
      ],
      "stateMutability": "view",
      "type": "function"
    },
    {
      "inputs": [],
      "name": "curatedPoolLimit",
      "outputs": [
        {
          "internalType": "uint256",
          "name": "",
          "type": "uint256"
        }
      ],
      "stateMutability": "view",
      "type": "function"
    },
    {
      "inputs": [],
      "name": "emitting",
      "outputs": [
        {
          "internalType": "bool",
          "name": "",
          "type": "bool"
        }
      ],
      "stateMutability": "view",
      "type": "function"
    },
    {
      "inputs": [],
      "name": "getAnchorPrice",
      "outputs": [
        {
          "internalType": "uint256",
          "name": "anchorPrice",
          "type": "uint256"
        }
      ],
      "stateMutability": "view",
      "type": "function"
    },
    {
      "inputs": [
        {
          "internalType": "address",
          "name": "member",
          "type": "address"
        },
        {
          "internalType": "address",
          "name": "token",
          "type": "address"
        }
      ],
      "name": "getCoverage",
      "outputs": [
        {
          "internalType": "uint256",
          "name": "",
          "type": "uint256"
        }
      ],
      "stateMutability": "view",
      "type": "function"
    },
    {
      "inputs": [
        {
          "internalType": "address",
          "name": "member",
          "type": "address"
        },
        {
          "internalType": "address",
          "name": "base",
          "type": "address"
        },
        {
          "internalType": "address",
          "name": "token",
          "type": "address"
        },
        {
          "internalType": "uint256",
          "name": "basisPoints",
          "type": "uint256"
        }
      ],
      "name": "getILProtection",
      "outputs": [
        {
          "internalType": "uint256",
          "name": "protection",
          "type": "uint256"
        }
      ],
      "stateMutability": "view",
      "type": "function"
    },
    {
      "inputs": [],
      "name": "getInterestPayment",
      "outputs": [],
      "stateMutability": "nonpayable",
      "type": "function"
    },
    {
      "inputs": [
        {
          "internalType": "address",
          "name": "member",
          "type": "address"
        },
        {
          "internalType": "address",
          "name": "token",
          "type": "address"
        },
        {
          "internalType": "uint256",
          "name": "basisPoints",
          "type": "uint256"
        },
        {
          "internalType": "uint256",
          "name": "coverage",
          "type": "uint256"
        }
      ],
      "name": "getProtection",
      "outputs": [
        {
          "internalType": "uint256",
          "name": "protection",
          "type": "uint256"
        }
      ],
      "stateMutability": "view",
      "type": "function"
    },
    {
      "inputs": [
        {
          "internalType": "uint256",
          "name": "amount",
          "type": "uint256"
        }
      ],
      "name": "getReducedShare",
      "outputs": [
        {
          "internalType": "uint256",
          "name": "",
          "type": "uint256"
        }
      ],
      "stateMutability": "view",
      "type": "function"
    },
    {
      "inputs": [
        {
          "internalType": "address",
          "name": "token",
          "type": "address"
        }
      ],
      "name": "getRewardShare",
      "outputs": [
        {
          "internalType": "uint256",
          "name": "rewardShare",
          "type": "uint256"
        }
      ],
      "stateMutability": "view",
      "type": "function"
    },
    {
      "inputs": [
        {
          "internalType": "uint256",
          "name": "vaderAmount",
          "type": "uint256"
        }
      ],
      "name": "getUSDVAmount",
      "outputs": [
        {
          "internalType": "uint256",
          "name": "USDVAmount",
          "type": "uint256"
        }
      ],
      "stateMutability": "view",
      "type": "function"
    },
    {
      "inputs": [
        {
          "internalType": "uint256",
          "name": "USDVAmount",
          "type": "uint256"
        }
      ],
      "name": "getVADERAmount",
      "outputs": [
        {
          "internalType": "uint256",
          "name": "vaderAmount",
          "type": "uint256"
        }
      ],
      "stateMutability": "view",
      "type": "function"
    },
    {
      "inputs": [
        {
          "internalType": "address",
          "name": "_vader",
          "type": "address"
        },
        {
          "internalType": "address",
          "name": "_usdv",
          "type": "address"
        },
        {
          "internalType": "address",
          "name": "_vault",
          "type": "address"
        }
      ],
      "name": "init",
      "outputs": [],
      "stateMutability": "nonpayable",
      "type": "function"
    },
    {
      "inputs": [
        {
          "internalType": "address",
          "name": "token",
          "type": "address"
        }
      ],
      "name": "isBase",
      "outputs": [
        {
          "internalType": "bool",
          "name": "_isBase",
          "type": "bool"
        }
      ],
      "stateMutability": "view",
      "type": "function"
    },
    {
      "inputs": [
        {
          "internalType": "address",
          "name": "token",
          "type": "address"
        }
      ],
      "name": "isCurated",
      "outputs": [
        {
          "internalType": "bool",
          "name": "curated",
          "type": "bool"
        }
      ],
      "stateMutability": "view",
      "type": "function"
    },
    {
      "inputs": [
        {
          "internalType": "address",
          "name": "token",
          "type": "address"
        }
      ],
      "name": "listAnchor",
      "outputs": [],
      "stateMutability": "nonpayable",
      "type": "function"
    },
    {
      "inputs": [
        {
          "internalType": "address",
          "name": "",
          "type": "address"
        },
        {
          "internalType": "address",
          "name": "",
          "type": "address"
        }
      ],
      "name": "mapMemberToken_depositBase",
      "outputs": [
        {
          "internalType": "uint256",
          "name": "",
          "type": "uint256"
        }
      ],
      "stateMutability": "view",
      "type": "function"
    },
    {
      "inputs": [
        {
          "internalType": "address",
          "name": "",
          "type": "address"
        },
        {
          "internalType": "address",
          "name": "",
          "type": "address"
        }
      ],
      "name": "mapMemberToken_depositToken",
      "outputs": [
        {
          "internalType": "uint256",
          "name": "",
          "type": "uint256"
        }
      ],
      "stateMutability": "view",
      "type": "function"
    },
    {
      "inputs": [
        {
          "internalType": "address",
          "name": "",
          "type": "address"
        },
        {
          "internalType": "address",
          "name": "",
          "type": "address"
        }
      ],
      "name": "mapMemberToken_lastDeposited",
      "outputs": [
        {
          "internalType": "uint256",
          "name": "",
          "type": "uint256"
        }
      ],
      "stateMutability": "view",
      "type": "function"
    },
    {
      "inputs": [],
      "name": "payBack",
      "outputs": [],
      "stateMutability": "nonpayable",
      "type": "function"
    },
    {
      "inputs": [
        {
          "internalType": "uint256",
          "name": "shareVADER",
          "type": "uint256"
        },
        {
          "internalType": "uint256",
          "name": "shareUSDV",
          "type": "uint256"
        }
      ],
      "name": "pullIncentives",
      "outputs": [],
      "stateMutability": "nonpayable",
      "type": "function"
    },
    {
      "inputs": [],
      "name": "purgeMember",
      "outputs": [],
      "stateMutability": "nonpayable",
      "type": "function"
    },
    {
      "inputs": [
        {
          "internalType": "address",
          "name": "base",
          "type": "address"
        },
        {
          "internalType": "address",
          "name": "token",
          "type": "address"
        },
        {
          "internalType": "uint256",
          "name": "basisPoints",
          "type": "uint256"
        }
      ],
      "name": "removeLiquidity",
      "outputs": [
        {
          "internalType": "uint256",
          "name": "amountBase",
          "type": "uint256"
        },
        {
          "internalType": "uint256",
          "name": "amountToken",
          "type": "uint256"
        }
      ],
      "stateMutability": "nonpayable",
      "type": "function"
    },
    {
      "inputs": [
        {
          "internalType": "address",
          "name": "oldToken",
          "type": "address"
        },
        {
          "internalType": "address",
          "name": "newToken",
          "type": "address"
        }
      ],
      "name": "replaceAnchor",
      "outputs": [],
      "stateMutability": "nonpayable",
      "type": "function"
    },
    {
      "inputs": [
        {
          "internalType": "address",
          "name": "oldToken",
          "type": "address"
        },
        {
          "internalType": "address",
          "name": "newToken",
          "type": "address"
        }
      ],
      "name": "replacePool",
      "outputs": [],
      "stateMutability": "nonpayable",
      "type": "function"
    },
    {
      "inputs": [],
      "name": "reserveUSDV",
      "outputs": [
        {
          "internalType": "uint256",
          "name": "",
          "type": "uint256"
        }
      ],
      "stateMutability": "view",
      "type": "function"
    },
    {
      "inputs": [],
      "name": "reserveVADER",
      "outputs": [
        {
          "internalType": "uint256",
          "name": "",
          "type": "uint256"
        }
      ],
      "stateMutability": "view",
      "type": "function"
    },
    {
      "inputs": [],
      "name": "rewardReductionFactor",
      "outputs": [
        {
          "internalType": "uint256",
          "name": "",
          "type": "uint256"
        }
      ],
      "stateMutability": "view",
      "type": "function"
    },
    {
      "inputs": [
        {
          "internalType": "uint256",
          "name": "_one",
          "type": "uint256"
        },
        {
          "internalType": "uint256",
          "name": "_two",
          "type": "uint256"
        },
        {
          "internalType": "uint256",
          "name": "_three",
          "type": "uint256"
        }
      ],
      "name": "setParams",
      "outputs": [],
      "stateMutability": "nonpayable",
      "type": "function"
    },
    {
      "inputs": [
        {
          "internalType": "uint256",
          "name": "inputAmount",
          "type": "uint256"
        },
        {
          "internalType": "address",
          "name": "inputToken",
          "type": "address"
        },
        {
          "internalType": "address",
          "name": "outputToken",
          "type": "address"
        }
      ],
      "name": "swap",
      "outputs": [
        {
          "internalType": "uint256",
          "name": "outputAmount",
          "type": "uint256"
        }
      ],
      "stateMutability": "nonpayable",
      "type": "function"
    },
    {
      "inputs": [
        {
          "internalType": "uint256",
          "name": "inputAmount",
          "type": "uint256"
        },
        {
          "internalType": "address",
          "name": "inputToken",
          "type": "address"
        },
        {
          "internalType": "address",
          "name": "outputToken",
          "type": "address"
        },
        {
          "internalType": "uint256",
          "name": "slipLimit",
          "type": "uint256"
        }
      ],
      "name": "swapWithLimit",
      "outputs": [
        {
          "internalType": "uint256",
          "name": "outputAmount",
          "type": "uint256"
        }
      ],
      "stateMutability": "nonpayable",
      "type": "function"
    },
    {
      "inputs": [
        {
          "internalType": "uint256",
          "name": "inputAmount",
          "type": "uint256"
        },
        {
          "internalType": "address",
          "name": "inputToken",
          "type": "address"
        },
        {
          "internalType": "bool",
          "name": "inSynth",
          "type": "bool"
        },
        {
          "internalType": "address",
          "name": "outputToken",
          "type": "address"
        },
        {
          "internalType": "bool",
          "name": "outSynth",
          "type": "bool"
        }
      ],
      "name": "swapWithSynths",
      "outputs": [
        {
          "internalType": "uint256",
          "name": "outputAmount",
          "type": "uint256"
        }
      ],
      "stateMutability": "nonpayable",
      "type": "function"
    },
    {
      "inputs": [
        {
          "internalType": "uint256",
          "name": "inputAmount",
          "type": "uint256"
        },
        {
          "internalType": "address",
          "name": "inputToken",
          "type": "address"
        },
        {
          "internalType": "bool",
          "name": "inSynth",
          "type": "bool"
        },
        {
          "internalType": "address",
          "name": "outputToken",
          "type": "address"
        },
        {
          "internalType": "bool",
          "name": "outSynth",
          "type": "bool"
        },
        {
          "internalType": "uint256",
          "name": "slipLimit",
          "type": "uint256"
        }
      ],
      "name": "swapWithSynthsWithLimit",
      "outputs": [
        {
          "internalType": "uint256",
          "name": "outputAmount",
          "type": "uint256"
        }
      ],
      "stateMutability": "nonpayable",
      "type": "function"
    },
    {
      "inputs": [],
      "name": "timeForFullProtection",
      "outputs": [
        {
          "internalType": "uint256",
          "name": "",
          "type": "uint256"
        }
      ],
      "stateMutability": "view",
      "type": "function"
    },
    {
      "inputs": [
        {
          "internalType": "address",
          "name": "token",
          "type": "address"
        }
      ],
      "name": "updateAnchorPrice",
      "outputs": [],
      "stateMutability": "nonpayable",
      "type": "function"
    }
  ],
  "bytecode": "0x6080604052670de0b6b3a764000060015561271060025534801561002257600080fd5b50613e14806100326000396000f3fe608060405234801561001057600080fd5b506004361061027f5760003560e01c80636e899aa31161015c578063d2b43373116100ce578063e6048ff811610087578063e6048ff814610530578063e68d3569146102b4578063e8b8cfa014610543578063f550394e14610556578063fcf4768614610581578063fdc59b82146105945761027f565b8063d2b43373146104c7578063d752fab2146104da578063ddab2385146102b4578063de6ad44e14610502578063e2c3b0461461050a578063e2e1e48f1461051d5761027f565b806399a485f51161012057806399a485f514610447578063a55bee2a1461045a578063a9d1c09e1461046d578063b773634814610498578063c6978f26146104ab578063cf8bc715146104be5761027f565b80636e899aa314610408578063774d70e41461041b5780637b0e5c451461042e5780638bc51e361461043657806398fabd3a1461043f5761027f565b8063376d3d5d116101f55780635a0ce676116101b95780635a0ce676146103b45780635a4dd3f2146103c75780635b0b602d146103da57806362cea340146103ed57806362f25b5a146102b45780636cc06ded146103f55761027f565b8063376d3d5d1461035f57806337785d211461037257806339e68f5314610385578063411557d11461039857806353198438146103ab5761027f565b806317af50e51161024757806317af50e5146102f7578063184b95591461030a5780631a6098271461031d5780631df6acfd14610330578063273961e6146103435780632b7f09231461034c5761027f565b80630168131514610284578063019f64cc146102b4578063038e5eaa146102b65780630781f4d2146102cc57806312a86ffb146102e4575b600080fd5b600854610297906001600160a01b031681565b6040516001600160a01b0390911681526020015b60405180910390f35b005b6102be6105bf565b6040519081526020016102ab565b6102d4610660565b60405190151581526020016102ab565b6102be6102f236600461393f565b6106e2565b6102be610305366004613ae9565b610b64565b6102b4610318366004613977565b610b85565b6102be61032b366004613b3f565b610cf6565b6102b461033e36600461393f565b610d13565b6102be60045481565b6102be61035a366004613b19565b610fe1565b6102be61036d366004613a96565b610ff5565b6102be610380366004613bcd565b6110af565b6102b4610393366004613900565b611bb4565b600a54610297906001600160a01b031681565b6102be60055481565b6102b46103c2366004613c80565b611d44565b6102be6103d5366004613ae9565b611da4565b6102be6103e8366004613a51565b611dd3565b6102be611f47565b6102be610403366004613ae9565b611fc4565b6102d4610416366004613900565b611fdf565b6102d4610429366004613900565b612018565b6102976120be565b6102be60065481565b61029761213b565b6102be610455366004613b66565b612180565b6102b4610468366004613c3c565b61219c565b6102be61047b36600461393f565b600f60209081526000928352604080842090915290825290205481565b6102be6104a6366004613900565b6122ae565b6102be6104b9366004613ae9565b6126bf565b6102be60035481565b6102b46104d5366004613900565b612755565b6104ed6104e8366004613a11565b61286c565b604080519283526020830191909152016102ab565b6102be6129a5565b600954610297906001600160a01b031681565b6102b461052b366004613900565b6129d6565b6102be61053e3660046139c1565b612b2b565b6102b461055136600461393f565b612b8a565b6102be61056436600461393f565b600d60209081526000928352604080842090915290825290205481565b61029761058f366004613ae9565b612d73565b6102be6105a236600461393f565b600e60209081526000928352604080842090915290825290205481565b600c5460009015610658576000610625600c80548060200260200160405190810160405280929190818152602001828054801561061b57602002820191906000526020600020905b815481526020019060010190808311610607575b5050505050612d9d565b90508060028151811061064857634e487b7160e01b600052603260045260246000fd5b602002602001015191505061065d565b506001545b90565b600854604080516303c0fa6960e11b815290516000926001600160a01b031691630781f4d2916004808301926020929190829003018186803b1580156106a557600080fd5b505afa1580156106b9573d6000803e3d6000fd5b505050506040513d601f19601f820116820180604052508101906106dd9190613acd565b905090565b6001600160a01b038281166000818152600d6020908152604080832086861680855290835281842054858552600e845282852082865290935281842054600a54925163024ef37560e41b8152600481019290925260248201959095529294919392859291909116906324ef37509060440160206040518083038186803b15801561076b57600080fd5b505afa15801561077f573d6000803e3d6000fd5b505050506040513d601f19601f820116820180604052508101906107a39190613b01565b905060006107af6120be565b600a54604051630fefbc0960e01b81526001600160a01b03898116600483015292831692631ba326c4928692911690630fefbc099060240160206040518083038186803b1580156107ff57600080fd5b505afa158015610813573d6000803e3d6000fd5b505050506040513d601f19601f820116820180604052508101906108379190613b01565b600a5460405163b34c8afb60e01b81526001600160a01b038c811660048301529091169063b34c8afb9060240160206040518083038186803b15801561087c57600080fd5b505afa158015610890573d6000803e3d6000fd5b505050506040513d601f19601f820116820180604052508101906108b49190613b01565b6040516001600160e01b031960e086901b16815260048101939093526024830191909152604482015260640160206040518083038186803b1580156108f857600080fd5b505afa15801561090c573d6000803e3d6000fd5b505050506040513d601f19601f820116820180604052508101906109309190613b01565b9050600061093c6120be565b600a54604051630fefbc0960e01b81526001600160a01b038a8116600483015292831692631ba326c4928792911690630fefbc099060240160206040518083038186803b15801561098c57600080fd5b505afa1580156109a0573d6000803e3d6000fd5b505050506040513d601f19601f820116820180604052508101906109c49190613b01565b600a5460405163e6ae1a9760e01b81526001600160a01b038d811660048301529091169063e6ae1a979060240160206040518083038186803b158015610a0957600080fd5b505afa158015610a1d573d6000803e3d6000fd5b505050506040513d601f19601f82011682018060405250810190610a419190613b01565b6040516001600160e01b031960e086901b16815260048101939093526024830191909152604482015260640160206040518083038186803b158015610a8557600080fd5b505afa158015610a99573d6000803e3d6000fd5b505050506040513d601f19601f82011682018060405250810190610abd9190613b01565b9050610ac76120be565b60405163595a88a760e01b8152600481018790526024810186905260448101849052606481018390526001600160a01b03919091169063595a88a79060840160206040518083038186803b158015610b1e57600080fd5b505afa158015610b32573d6000803e3d6000fd5b505050506040513d601f19601f82011682018060405250810190610b569190613b01565b955050505050505b92915050565b600c8181548110610b7457600080fd5b600091825260209091200154905081565b60005460ff1615610b9557600080fd5b6000805460ff19166001179055600880546001600160a01b038581166001600160a01b0319928316811790935560098054868316908416179055600a805491851691909216811790915560405163095ea7b360e01b81526004810191909152600019602482015263095ea7b390604401602060405180830381600087803b158015610c1f57600080fd5b505af1158015610c33573d6000803e3d6000fd5b505050506040513d601f19601f82011682018060405250810190610c579190613acd565b50600954600a5460405163095ea7b360e01b81526001600160a01b039182166004820152600019602482015291169063095ea7b390604401602060405180830381600087803b158015610ca957600080fd5b505af1158015610cbd573d6000803e3d6000fd5b505050506040513d601f19601f82011682018060405250810190610ce19190613acd565b50506001600381905560048190556005555050565b6000610d0885856000866000876110af565b90505b949350505050565b600a54604051636c66769560e11b81526001600160a01b0383811660048301529091169063d8cced2a9060240160206040518083038186803b158015610d5857600080fd5b505afa158015610d6c573d6000803e3d6000fd5b505050506040513d601f19601f82011682018060405250810190610d909190613acd565b610dce5760405162461bcd60e51b815260206004820152600a6024820152692737ba1030b731b437b960b11b60448201526064015b60405180910390fd5b600a5460405163b34c8afb60e01b81526001600160a01b0384811660048301529091169063b34c8afb9060240160206040518083038186803b158015610e1357600080fd5b505afa158015610e27573d6000803e3d6000fd5b505050506040513d601f19601f82011682018060405250810190610e4b9190613b01565b600a5460405163b34c8afb60e01b81526001600160a01b0384811660048301529091169063b34c8afb9060240160206040518083038186803b158015610e9057600080fd5b505afa158015610ea4573d6000803e3d6000fd5b505050506040513d601f19601f82011682018060405250810190610ec89190613b01565b11610f025760405162461bcd60e51b815260206004820152600a6024820152692737ba103232b2b832b960b11b6044820152606401610dc5565b610f10826101f46000612ef7565b610f1d8160c86001612ef7565b60005b600b54811015610fd357826001600160a01b0316600b8281548110610f5557634e487b7160e01b600052603260045260246000fd5b6000918252602090912001546001600160a01b03161415610fc15781600b8281548110610f9257634e487b7160e01b600052603260045260246000fd5b9060005260206000200160006101000a8154816001600160a01b0302191690836001600160a01b031602179055505b80610fcb81613d8a565b915050610f20565b50610fdd816129d6565b5050565b6000610d0b848460008560006127106110af565b60008061100286866130ff565b9050600061101085856130ff565b905061101e3386848461346a565b600a5460405163fde3b26560e01b81526001600160a01b039091169063fde3b26590611052908a9089903390600401613cab565b602060405180830381600087803b15801561106c57600080fd5b505af1158015611080573d6000803e3d6000fd5b505050506040513d601f19601f820116820180604052508101906110a49190613b01565b979650505050505050565b600033856110c7576110c187896130ff565b50611150565b600a54604051636e76408b60e11b81526001600160a01b03898116600483015261114e92169063dcec811690602401602060405180830381600087803b15801561111057600080fd5b505af1158015611124573d6000803e3d6000fd5b505050506040513d601f19601f820116820180604052508101906111489190613923565b896130ff565b505b600a54604051636c66769560e11b81526001600160a01b038981166004830152600092169063d8cced2a9060240160206040518083038186803b15801561119657600080fd5b505afa1580156111aa573d6000803e3d6000fd5b505050506040513d601f19601f820116820180604052508101906111ce9190613acd565b806112515750600a54604051636c66769560e11b81526001600160a01b0388811660048301529091169063d8cced2a9060240160206040518083038186803b15801561121957600080fd5b505afa15801561122d573d6000803e3d6000fd5b505050506040513d601f19601f820116820180604052508101906112519190613acd565b1561126857506008546001600160a01b0316611276565b506009546001600160a01b03165b61127f86611fdf565b156114c1578361128d6120be565b600a5460405163e6ae1a9760e01b81526001600160a01b038c8116600483015292831692632db6e488928e9291169063e6ae1a979060240160206040518083038186803b1580156112dd57600080fd5b505afa1580156112f1573d6000803e3d6000fd5b505050506040513d601f19601f820116820180604052508101906113159190613b01565b6040516001600160e01b031960e085901b1681526004810192909252602482015260440160206040518083038186803b15801561135157600080fd5b505afa158015611365573d6000803e3d6000fd5b505050506040513d601f19601f820116820180604052508101906113899190613b01565b111561139457600080fd5b8661142957600a5460405163efc34aab60e01b81526001600160a01b039091169063efc34aab906113d09084908c908790600190600401613cce565b602060405180830381600087803b1580156113ea57600080fd5b505af11580156113fe573d6000803e3d6000fd5b505050506040513d601f19601f820116820180604052508101906114229190613b01565b92506114b2565b600a546040516371d6d97b60e11b81526001600160a01b039091169063e3adb2f69061145d9084908c908790600401613cab565b602060405180830381600087803b15801561147757600080fd5b505af115801561148b573d6000803e3d6000fd5b505050506040513d601f19601f820116820180604052508101906114af9190613b01565b92505b6114bc8189613510565b611b96565b6114ca88611fdf565b1561170757836114d86120be565b600a5460405163b34c8afb60e01b81526001600160a01b038a8116600483015292831692632db6e488928e9291169063b34c8afb9060240160206040518083038186803b15801561152857600080fd5b505afa15801561153c573d6000803e3d6000fd5b505050506040513d601f19601f820116820180604052508101906115609190613b01565b6040516001600160e01b031960e085901b1681526004810192909252602482015260440160206040518083038186803b15801561159c57600080fd5b505afa1580156115b0573d6000803e3d6000fd5b505050506040513d601f19601f820116820180604052508101906115d49190613b01565b11156115df57600080fd5b8461167457600a5460405163efc34aab60e01b81526001600160a01b039091169063efc34aab9061161b9084908a908790600090600401613cce565b602060405180830381600087803b15801561163557600080fd5b505af1158015611649573d6000803e3d6000fd5b505050506040513d601f19601f8201168201806040525081019061166d9190613b01565b92506116fd565b600a5460405163680b1a3f60e11b81526001600160a01b039091169063d016347e906116a89084908a908790600401613cab565b602060405180830381600087803b1580156116c257600080fd5b505af11580156116d6573d6000803e3d6000fd5b505050506040513d601f19601f820116820180604052508101906116fa9190613b01565b92505b6114bc8187613510565b61171088611fdf565b158015611723575061172186611fdf565b155b15611b9657836117316120be565b600a5460405163e6ae1a9760e01b81526001600160a01b038c8116600483015292831692632db6e488928e9291169063e6ae1a979060240160206040518083038186803b15801561178157600080fd5b505afa158015611795573d6000803e3d6000fd5b505050506040513d601f19601f820116820180604052508101906117b99190613b01565b6040516001600160e01b031960e085901b1681526004810192909252602482015260440160206040518083038186803b1580156117f557600080fd5b505afa158015611809573d6000803e3d6000fd5b505050506040513d601f19601f8201168201806040525081019061182d9190613b01565b111561183857600080fd5b866118cc57600a5460405163efc34aab60e01b81526001600160a01b039091169063efc34aab906118749084908c908590600190600401613cce565b602060405180830381600087803b15801561188e57600080fd5b505af11580156118a2573d6000803e3d6000fd5b505050506040513d601f19601f820116820180604052508101906118c69190613b01565b50611954565b600a546040516371d6d97b60e11b81526001600160a01b039091169063e3adb2f6906119009084908c908590600401613cab565b602060405180830381600087803b15801561191a57600080fd5b505af115801561192e573d6000803e3d6000fd5b505050506040513d601f19601f820116820180604052508101906119529190613b01565b505b8361195d6120be565b600a5460405163b34c8afb60e01b81526001600160a01b038a8116600483015292831692632db6e488928e9291169063b34c8afb9060240160206040518083038186803b1580156119ad57600080fd5b505afa1580156119c1573d6000803e3d6000fd5b505050506040513d601f19601f820116820180604052508101906119e59190613b01565b6040516001600160e01b031960e085901b1681526004810192909252602482015260440160206040518083038186803b158015611a2157600080fd5b505afa158015611a35573d6000803e3d6000fd5b505050506040513d601f19601f82011682018060405250810190611a599190613b01565b1115611a6457600080fd5b84611af957600a5460405163efc34aab60e01b81526001600160a01b039091169063efc34aab90611aa09084908a908790600090600401613cce565b602060405180830381600087803b158015611aba57600080fd5b505af1158015611ace573d6000803e3d6000fd5b505050506040513d601f19601f82011682018060405250810190611af29190613b01565b9250611b82565b600a5460405163680b1a3f60e11b81526001600160a01b039091169063d016347e90611b2d9084908a908790600401613cab565b602060405180830381600087803b158015611b4757600080fd5b505af1158015611b5b573d6000803e3d6000fd5b505050506040513d601f19601f82011682018060405250810190611b7f9190613b01565b92505b611b8c8189613510565b611b968187613510565b611b9f8861365d565b611ba88661365d565b50509695505050505050565b600b54600511611bc357600080fd5b600a54604051636c66769560e11b81526001600160a01b0383811660048301529091169063d8cced2a9060240160206040518083038186803b158015611c0857600080fd5b505afa158015611c1c573d6000803e3d6000fd5b505050506040513d601f19601f82011682018060405250810190611c409190613acd565b611c4957600080fd5b600b80546001810182556000919091527f0175b7a638427703f0dbe7bb9bbf987a2551717b34e79f33b5b1008d1fa01db90180546001600160a01b0319166001600160a01b038316179055600c611c9e6120be565b60015460405163db39dc7960e01b81526001600160a01b038581166004830152602482019290925291169063db39dc799060440160206040518083038186803b158015611cea57600080fd5b505afa158015611cfe573d6000803e3d6000fd5b505050506040513d601f19601f82011682018060405250810190611d229190613b01565b81546001810183556000928352602090922090910155611d41816129d6565b50565b611d4c61213b565b6001600160a01b0316336001600160a01b031614611d965760405162461bcd60e51b81526020600482015260076024820152664e6f742044414f60c81b6044820152606401610dc5565b600392909255600455600555565b600080611daf6105bf565b90508060015484611dc09190613d54565b611dca9190613d34565b9150505b919050565b6000611dde84612018565b15611ebe576001600160a01b038086166000908152600f60209081526040808320938816835292905290812054611e159042613d73565b90506004548111611eb857611e286120be565b600480546040516306e8c9b160e21b81529182018490526024820152604481018590526001600160a01b039190911690631ba326c49060640160206040518083038186803b158015611e7957600080fd5b505afa158015611e8d573d6000803e3d6000fd5b505050506040513d601f19601f82011682018060405250810190611eb19190613b01565b9150611ebc565b8291505b505b611ec66120be565b60405163714270ab60e01b815260048101859052602481018390526001600160a01b03919091169063714270ab9060440160206040518083038186803b158015611f0f57600080fd5b505afa158015611f23573d6000803e3d6000fd5b505050506040513d601f19601f82011682018060405250810190610d089190613b01565b6008546040516370a0823160e01b81523060048201526000916001600160a01b0316906370a08231906024015b60206040518083038186803b158015611f8c57600080fd5b505afa158015611fa0573d6000803e3d6000fd5b505050506040513d601f19601f820116820180604052508101906106dd9190613b01565b600080611fcf6105bf565b600154909150611dc08483613d54565b6008546000906001600160a01b038381169116148061200b57506009546001600160a01b038381169116145b15611dce57506001919050565b6001600160a01b03811660009081526007602052604081205460ff161561204157506001611dce565b600a54604051636c66769560e11b81526001600160a01b0384811660048301529091169063d8cced2a9060240160206040518083038186803b15801561208657600080fd5b505afa15801561209a573d6000803e3d6000fd5b505050506040513d601f19601f8201168201806040525081019061200b9190613acd565b60085460408051637b0e5c4560e01b815290516000926001600160a01b031691637b0e5c45916004808301926020929190829003018186803b15801561210357600080fd5b505afa158015612117573d6000803e3d6000fd5b505050506040513d601f19601f820116820180604052508101906106dd9190613923565b60085460408051634c7d5e9d60e11b815290516000926001600160a01b0316916398fabd3a916004808301926020929190829003018186803b15801561210357600080fd5b600061219286868686866127106110af565b9695505050505050565b6008546040516323b872dd60e01b81526001600160a01b03909116906323b872dd906121d090339030908790600401613cf8565b602060405180830381600087803b1580156121ea57600080fd5b505af11580156121fe573d6000803e3d6000fd5b505050506040513d601f19601f820116820180604052508101906122229190613acd565b506009546040516323b872dd60e01b81526001600160a01b03909116906323b872dd9061225790339030908690600401613cf8565b602060405180830381600087803b15801561227157600080fd5b505af1158015612285573d6000803e3d6000fd5b505050506040513d601f19601f820116820180604052508101906122a99190613acd565b505050565b60006122b8610660565b80156122c857506122c882612018565b15611dce57600a5460405163b34c8afb60e01b81526001600160a01b038481166004830152600092169063b34c8afb9060240160206040518083038186803b15801561231357600080fd5b505afa158015612327573d6000803e3d6000fd5b505050506040513d601f19601f8201168201806040525081019061234b9190613b01565b600a5460405163643fd21560e11b81526001600160a01b03868116600483015292935091169063c87fa42a9060240160206040518083038186803b15801561239257600080fd5b505afa1580156123a6573d6000803e3d6000fd5b505050506040513d601f19601f820116820180604052508101906123ca9190613acd565b156125055760006123d96120be565b6001600160a01b0316631ba326c483600a60009054906101000a90046001600160a01b03166001600160a01b031663a9652dca6040518163ffffffff1660e01b815260040160206040518083038186803b15801561243657600080fd5b505afa15801561244a573d6000803e3d6000fd5b505050506040513d601f19601f8201168201806040525081019061246e9190613b01565b6124766129a5565b6040516001600160e01b031960e086901b16815260048101939093526024830191909152604482015260640160206040518083038186803b1580156124ba57600080fd5b505afa1580156124ce573d6000803e3d6000fd5b505050506040513d601f19601f820116820180604052508101906124f29190613b01565b90506124fd816126bf565b9250506126b9565b600a54604051636c66769560e11b81526001600160a01b0385811660048301529091169063d8cced2a9060240160206040518083038186803b15801561254a57600080fd5b505afa15801561255e573d6000803e3d6000fd5b505050506040513d601f19601f820116820180604052508101906125829190613acd565b156126b95760006125916120be565b6001600160a01b0316631ba326c483600a60009054906101000a90046001600160a01b03166001600160a01b031663dd5a2bd86040518163ffffffff1660e01b815260040160206040518083038186803b1580156125ee57600080fd5b505afa158015612602573d6000803e3d6000fd5b505050506040513d601f19601f820116820180604052508101906126269190613b01565b61262e611f47565b6040516001600160e01b031960e086901b16815260048101939093526024830191909152604482015260640160206040518083038186803b15801561267257600080fd5b505afa158015612686573d6000803e3d6000fd5b505050506040513d601f19601f820116820180604052508101906126aa9190613b01565b90506126b5816126bf565b9250505b50919050565b60006126c96120be565b6003546040516306e8c9b160e21b8152600160048201526024810191909152604481018490526001600160a01b039190911690631ba326c49060640160206040518083038186803b15801561271d57600080fd5b505afa158015612731573d6000803e3d6000fd5b505050506040513d601f19601f82011682018060405250810190610b5e9190613b01565b600a5460405163643fd21560e11b81526001600160a01b0383811660048301529091169063c87fa42a9060240160206040518083038186803b15801561279a57600080fd5b505afa1580156127ae573d6000803e3d6000fd5b505050506040513d601f19601f820116820180604052508101906127d29190613acd565b6127db57600080fd5b6127e481612018565b612833576005546006541015612833576001600160a01b0381166000908152600760205260408120805460ff19166001908117909155600680549192909161282d908490613d1c565b90915550505b6040516001600160a01b0382169033907fb2f6cc014bc6265032f32972254d5e024ec51ed94c0aaf2280128336be54a04190600090a350565b600a54604051636ba97d5960e11b815260009182916001600160a01b039091169063d752fab2906128a590889088908890600401613cf8565b6040805180830381600087803b1580156128be57600080fd5b505af11580156128d2573d6000803e3d6000fd5b505050506040513d601f19601f820116820180604052508101906128f69190613c5d565b909250905033600061290a82888888612b2b565b9050612918828787846136e8565b60405163a9059cbb60e01b81526001600160a01b0383811660048301526024820183905288169063a9059cbb90604401602060405180830381600087803b15801561296257600080fd5b505af1158015612976573d6000803e3d6000fd5b505050506040513d601f19601f8201168201806040525081019061299a9190613acd565b505050935093915050565b6009546040516370a0823160e01b81523060048201526000916001600160a01b0316906370a0823190602401611f74565b60005b600b54811015610fdd57816001600160a01b0316600b8281548110612a0e57634e487b7160e01b600052603260045260246000fd5b6000918252602090912001546001600160a01b03161415612b1957612a316120be565b6001600160a01b031663db39dc79600b8381548110612a6057634e487b7160e01b600052603260045260246000fd5b60009182526020909120015460015460405160e084901b6001600160e01b03191681526001600160a01b039092166004830152602482015260440160206040518083038186803b158015612ab357600080fd5b505afa158015612ac7573d6000803e3d6000fd5b505050506040513d601f19601f82011682018060405250810190612aeb9190613b01565b600c8281548110612b0c57634e487b7160e01b600052603260045260246000fd5b6000918252602090912001555b80612b2381613d8a565b9150506129d9565b6000612b3d8584846103e889886106e2565b6008549091506001600160a01b0385811691161415612b7457612b5e611f47565b8110612b6f57612b6c611f47565b90505b610d0b565b612b7c6129a5565b8110610d0b57610d086129a5565b600a5460405163643fd21560e11b81526001600160a01b0383811660048301529091169063c87fa42a9060240160206040518083038186803b158015612bcf57600080fd5b505afa158015612be3573d6000803e3d6000fd5b505050506040513d601f19601f82011682018060405250810190612c079190613acd565b612c1057600080fd5b600a5460405163b34c8afb60e01b81526001600160a01b0384811660048301529091169063b34c8afb9060240160206040518083038186803b158015612c5557600080fd5b505afa158015612c69573d6000803e3d6000fd5b505050506040513d601f19601f82011682018060405250810190612c8d9190613b01565b600a5460405163b34c8afb60e01b81526001600160a01b0384811660048301529091169063b34c8afb9060240160206040518083038186803b158015612cd257600080fd5b505afa158015612ce6573d6000803e3d6000fd5b505050506040513d601f19601f82011682018060405250810190612d0a9190613b01565b1115610fdd576001600160a01b03808316600090815260076020526040808220805460ff1990811690915592841680835281832080549094166001179093555133917fb2f6cc014bc6265032f32972254d5e024ec51ed94c0aaf2280128336be54a04191a35050565b600b8181548110612d8357600080fd5b6000918252602090912001546001600160a01b0316905081565b805160609060005b81811015612eef576000612dba826001613d1c565b90505b82811015612edc57848181518110612de557634e487b7160e01b600052603260045260246000fd5b6020026020010151858381518110612e0d57634e487b7160e01b600052603260045260246000fd5b60200260200101511115612eca576000858381518110612e3d57634e487b7160e01b600052603260045260246000fd5b60200260200101519050858281518110612e6757634e487b7160e01b600052603260045260246000fd5b6020026020010151868481518110612e8f57634e487b7160e01b600052603260045260246000fd5b60200260200101818152505080868381518110612ebc57634e487b7160e01b600052603260045260246000fd5b602002602001018181525050505b80612ed481613d8a565b915050612dbd565b5080612ee781613d8a565b915050612da5565b509192915050565b6000612f016105bf565b90506000612f0d6120be565b60015460405163db39dc7960e01b81526001600160a01b038881166004830152602482019290925291169063db39dc799060440160206040518083038186803b158015612f5957600080fd5b505afa158015612f6d573d6000803e3d6000fd5b505050506040513d601f19601f82011682018060405250810190612f919190613b01565b90506000612f9d6120be565b6001600160a01b031663714270ab86600254612fb99190613d73565b856040518363ffffffff1660e01b8152600401612fe0929190918252602082015260400190565b60206040518083038186803b158015612ff857600080fd5b505afa15801561300c573d6000803e3d6000fd5b505050506040513d601f19601f820116820180604052508101906130309190613b01565b6002549091506000906130438782613d1c565b61304d9086613d54565b6130579190613d34565b905084156130ad5781831015801561306f5750808311155b6130a85760405162461bcd60e51b815260206004820152600a6024820152694e6f7420696e7369646560b01b6044820152606401610dc5565b6130f6565b81831115806130bc5750808310155b6130f65760405162461bcd60e51b815260206004820152600b60248201526a4e6f74206f75747369646560a81b6044820152606401610dc5565b50505050505050565b6008546000906001600160a01b038481169116148061312b57506009546001600160a01b038481169116145b806131b05750600a54604051632f011bf560e11b81526001600160a01b03858116600483015290911690635e0237ea90602401602060405180830381600087803b15801561317857600080fd5b505af115801561318c573d6000803e3d6000fd5b505050506040513d601f19601f820116820180604052508101906131b09190613acd565b156132d85750803233141561324b57600a546040516302ccb1b360e41b81526001600160a01b0391821660048201526024810184905290841690632ccb1b3090604401602060405180830381600087803b15801561320d57600080fd5b505af1158015613221573d6000803e3d6000fd5b505050506040513d601f19601f820116820180604052508101906132459190613acd565b506132d3565b600a546040516323b872dd60e01b81526001600160a01b03808616926323b872dd9261327f92339216908790600401613cf8565b602060405180830381600087803b15801561329957600080fd5b505af11580156132ad573d6000803e3d6000fd5b505050506040513d601f19601f820116820180604052508101906132d19190613acd565b505b610b5e565b600a546040516370a0823160e01b81526001600160a01b0391821660048201526000918516906370a082319060240160206040518083038186803b15801561331f57600080fd5b505afa158015613333573d6000803e3d6000fd5b505050506040513d601f19601f820116820180604052508101906133579190613b01565b600a546040516323b872dd60e01b81529192506001600160a01b03808716926323b872dd9261338f9233929116908890600401613cf8565b602060405180830381600087803b1580156133a957600080fd5b505af11580156133bd573d6000803e3d6000fd5b505050506040513d601f19601f820116820180604052508101906133e19190613acd565b50600a546040516370a0823160e01b81526001600160a01b03918216600482015282918616906370a082319060240160206040518083038186803b15801561342857600080fd5b505afa15801561343c573d6000803e3d6000fd5b505050506040513d601f19601f820116820180604052508101906134609190613b01565b610d0b9190613d73565b6001600160a01b038085166000908152600d60209081526040808320938716835292905290812080548492906134a1908490613d1c565b90915550506001600160a01b038085166000908152600e60209081526040808320938716835292905290812080548392906134dd908490613d1c565b9091555050506001600160a01b039283166000908152600f60209081526040808320949095168252929092525020429055565b600061351b826122ae565b600a5460405163a9059cbb60e01b81526001600160a01b0391821660048201526024810183905291925084169063a9059cbb90604401602060405180830381600087803b15801561356b57600080fd5b505af115801561357f573d6000803e3d6000fd5b505050506040513d601f19601f820116820180604052508101906135a39190613acd565b50600a54604051633041949b60e01b81526001600160a01b038581166004830152848116602483015290911690633041949b90604401600060405180830381600087803b1580156135f357600080fd5b505af1158015613607573d6000803e3d6000fd5b50505050816001600160a01b0316836001600160a01b03167f416b0b234ccd4d6d72c4b1a3a09b472a71981d9bbf0f26ab44774e0e3425fad68360405161365091815260200190565b60405180910390a3505050565b600a54604051636c66769560e11b81526001600160a01b0383811660048301529091169063d8cced2a9060240160206040518083038186803b1580156136a257600080fd5b505afa1580156136b6573d6000803e3d6000fd5b505050506040513d601f19601f820116820180604052508101906136da9190613acd565b15611d4157611d41816129d6565b6001600160a01b038085166000908152600d602090815260408083209387168352929052908120805483929061371f908490613d1c565b909155506000905061372f6120be565b6001600160a01b038681166000908152600d6020908152604080832089851684529091529081902054905163714270ab60e01b815260048101879052602481019190915291169063714270ab9060440160206040518083038186803b15801561379757600080fd5b505afa1580156137ab573d6000803e3d6000fd5b505050506040513d601f19601f820116820180604052508101906137cf9190613b01565b905060006137db6120be565b6001600160a01b038781166000908152600e602090815260408083208a851684529091529081902054905163714270ab60e01b815260048101889052602481019190915291169063714270ab9060440160206040518083038186803b15801561384357600080fd5b505afa158015613857573d6000803e3d6000fd5b505050506040513d601f19601f8201168201806040525081019061387b9190613b01565b6001600160a01b038088166000908152600d60209081526040808320938a168352929052908120805492935084929091906138b7908490613d73565b90915550506001600160a01b038087166000908152600e60209081526040808320938916835292905290812080548392906138f3908490613d73565b9091555050505050505050565b600060208284031215613911578081fd5b813561391c81613dbb565b9392505050565b600060208284031215613934578081fd5b815161391c81613dbb565b60008060408385031215613951578081fd5b823561395c81613dbb565b9150602083013561396c81613dbb565b809150509250929050565b60008060006060848603121561398b578081fd5b833561399681613dbb565b925060208401356139a681613dbb565b915060408401356139b681613dbb565b809150509250925092565b600080600080608085870312156139d6578081fd5b84356139e181613dbb565b935060208501356139f181613dbb565b92506040850135613a0181613dbb565b9396929550929360600135925050565b600080600060608486031215613a25578283fd5b8335613a3081613dbb565b92506020840135613a4081613dbb565b929592945050506040919091013590565b60008060008060808587031215613a66578384fd5b8435613a7181613dbb565b93506020850135613a8181613dbb565b93969395505050506040820135916060013590565b60008060008060808587031215613aab578384fd5b8435613ab681613dbb565b9350602085013592506040850135613a0181613dbb565b600060208284031215613ade578081fd5b815161391c81613dd0565b600060208284031215613afa578081fd5b5035919050565b600060208284031215613b12578081fd5b5051919050565b600080600060608486031215613b2d578283fd5b8335925060208401356139a681613dbb565b60008060008060808587031215613b54578384fd5b8435935060208501356139f181613dbb565b600080600080600060a08688031215613b7d578283fd5b853594506020860135613b8f81613dbb565b93506040860135613b9f81613dd0565b92506060860135613baf81613dbb565b91506080860135613bbf81613dd0565b809150509295509295909350565b60008060008060008060c08789031215613be5578384fd5b863595506020870135613bf781613dbb565b94506040870135613c0781613dd0565b93506060870135613c1781613dbb565b92506080870135613c2781613dd0565b8092505060a087013590509295509295509295565b60008060408385031215613c4e578182fd5b50508035926020909101359150565b60008060408385031215613c6f578182fd5b505080516020909101519092909150565b600080600060608486031215613c94578081fd5b505081359360208301359350604090920135919050565b6001600160a01b0393841681529183166020830152909116604082015260600190565b6001600160a01b039485168152928416602084015292166040820152901515606082015260800190565b6001600160a01b039384168152919092166020820152604081019190915260600190565b60008219821115613d2f57613d2f613da5565b500190565b600082613d4f57634e487b7160e01b81526012600452602481fd5b500490565b6000816000190483118215151615613d6e57613d6e613da5565b500290565b600082821015613d8557613d85613da5565b500390565b6000600019821415613d9e57613d9e613da5565b5060010190565b634e487b7160e01b600052601160045260246000fd5b6001600160a01b0381168114611d4157600080fd5b8015158114611d4157600080fdfea2646970667358221220a25737d1c401c26a291a3b7f8ef929e8aa45d64863ab6139c3cdce6a7953f61064736f6c63430008030033",
  "linkReferences": {},
  "deployedLinkReferences": {}
}