{
  "_format": "hh-sol-artifact-1",
  "contractName": "Vader",
  "sourceName": "contracts/Vader.sol",
  "abi": [
    {
      "inputs": [],
      "stateMutability": "nonpayable",
      "type": "constructor"
    },
    {
      "anonymous": false,
      "inputs": [
        {
          "indexed": true,
          "internalType": "address",
          "name": "owner",
          "type": "address"
        },
        {
          "indexed": true,
          "internalType": "address",
          "name": "spender",
          "type": "address"
        },
        {
          "indexed": false,
          "internalType": "uint256",
          "name": "value",
          "type": "uint256"
        }
      ],
      "name": "Approval",
      "type": "event"
    },
    {
      "anonymous": false,
      "inputs": [
        {
          "indexed": false,
          "internalType": "uint256",
          "name": "currentEra",
          "type": "uint256"
        },
        {
          "indexed": false,
          "internalType": "uint256",
          "name": "nextEraTime",
          "type": "uint256"
        },
        {
          "indexed": false,
          "internalType": "uint256",
          "name": "emission",
          "type": "uint256"
        }
      ],
      "name": "NewEra",
      "type": "event"
    },
    {
      "anonymous": false,
      "inputs": [
        {
          "indexed": true,
          "internalType": "address",
          "name": "from",
          "type": "address"
        },
        {
          "indexed": true,
          "internalType": "address",
          "name": "to",
          "type": "address"
        },
        {
          "indexed": false,
          "internalType": "uint256",
          "name": "value",
          "type": "uint256"
        }
      ],
      "name": "Transfer",
      "type": "event"
    },
    {
      "inputs": [],
      "name": "DAO",
      "outputs": [
        {
          "internalType": "address",
          "name": "",
          "type": "address"
        }
      ],
      "stateMutability": "view",
      "type": "function"
    },
    {
      "inputs": [],
      "name": "DEPLOYER",
      "outputs": [
        {
          "internalType": "address",
          "name": "",
          "type": "address"
        }
      ],
      "stateMutability": "view",
      "type": "function"
    },
    {
      "inputs": [
        {
          "internalType": "address",
          "name": "owner",
          "type": "address"
        },
        {
          "internalType": "address",
          "name": "spender",
          "type": "address"
        }
      ],
      "name": "allowance",
      "outputs": [
        {
          "internalType": "uint256",
          "name": "",
          "type": "uint256"
        }
      ],
      "stateMutability": "view",
      "type": "function"
    },
    {
      "inputs": [
        {
          "internalType": "address",
          "name": "spender",
          "type": "address"
        },
        {
          "internalType": "uint256",
          "name": "amount",
          "type": "uint256"
        }
      ],
      "name": "approve",
      "outputs": [
        {
          "internalType": "bool",
          "name": "",
          "type": "bool"
        }
      ],
      "stateMutability": "nonpayable",
      "type": "function"
    },
    {
      "inputs": [
        {
          "internalType": "address",
          "name": "account",
          "type": "address"
        }
      ],
      "name": "balanceOf",
      "outputs": [
        {
          "internalType": "uint256",
          "name": "",
          "type": "uint256"
        }
      ],
      "stateMutability": "view",
      "type": "function"
    },
    {
      "inputs": [],
      "name": "baseline",
      "outputs": [
        {
          "internalType": "uint256",
          "name": "",
          "type": "uint256"
        }
      ],
      "stateMutability": "view",
      "type": "function"
    },
    {
      "inputs": [
        {
          "internalType": "uint256",
          "name": "amount",
          "type": "uint256"
        }
      ],
      "name": "burn",
      "outputs": [],
      "stateMutability": "nonpayable",
      "type": "function"
    },
    {
      "inputs": [],
      "name": "burnAddress",
      "outputs": [
        {
          "internalType": "address",
          "name": "",
          "type": "address"
        }
      ],
      "stateMutability": "view",
      "type": "function"
    },
    {
      "inputs": [
        {
          "internalType": "address",
          "name": "account",
          "type": "address"
        },
        {
          "internalType": "uint256",
          "name": "amount",
          "type": "uint256"
        }
      ],
      "name": "burnFrom",
      "outputs": [],
      "stateMutability": "nonpayable",
      "type": "function"
    },
    {
      "inputs": [
        {
          "internalType": "address",
          "name": "newDAO",
          "type": "address"
        }
      ],
      "name": "changeDAO",
      "outputs": [],
      "stateMutability": "nonpayable",
      "type": "function"
    },
    {
      "inputs": [],
      "name": "conversionFactor",
      "outputs": [
        {
          "internalType": "uint256",
          "name": "",
          "type": "uint256"
        }
      ],
      "stateMutability": "view",
      "type": "function"
    },
    {
      "inputs": [],
      "name": "currentEra",
      "outputs": [
        {
          "internalType": "uint256",
          "name": "",
          "type": "uint256"
        }
      ],
      "stateMutability": "view",
      "type": "function"
    },
    {
      "inputs": [],
      "name": "decimals",
      "outputs": [
        {
          "internalType": "uint256",
          "name": "",
          "type": "uint256"
        }
      ],
      "stateMutability": "view",
      "type": "function"
    },
    {
      "inputs": [],
      "name": "emissionCurve",
      "outputs": [
        {
          "internalType": "uint256",
          "name": "",
          "type": "uint256"
        }
      ],
      "stateMutability": "view",
      "type": "function"
    },
    {
      "inputs": [],
      "name": "emitting",
      "outputs": [
        {
          "internalType": "bool",
          "name": "",
          "type": "bool"
        }
      ],
      "stateMutability": "view",
      "type": "function"
    },
    {
      "inputs": [],
      "name": "feeOnTransfer",
      "outputs": [
        {
          "internalType": "uint256",
          "name": "",
          "type": "uint256"
        }
      ],
      "stateMutability": "view",
      "type": "function"
    },
    {
      "inputs": [],
      "name": "flipEmissions",
      "outputs": [],
      "stateMutability": "nonpayable",
      "type": "function"
    },
    {
      "inputs": [],
      "name": "flipMinting",
      "outputs": [],
      "stateMutability": "nonpayable",
      "type": "function"
    },
    {
      "inputs": [],
      "name": "getDailyEmission",
      "outputs": [
        {
          "internalType": "uint256",
          "name": "",
          "type": "uint256"
        }
      ],
      "stateMutability": "view",
      "type": "function"
    },
    {
      "inputs": [
        {
          "internalType": "address",
          "name": "_dao",
          "type": "address"
        }
      ],
      "name": "init",
      "outputs": [],
      "stateMutability": "nonpayable",
      "type": "function"
    },
    {
      "inputs": [],
      "name": "isMature",
      "outputs": [
        {
          "internalType": "bool",
          "name": "",
          "type": "bool"
        }
      ],
      "stateMutability": "view",
      "type": "function"
    },
    {
      "inputs": [],
      "name": "maxSupply",
      "outputs": [
        {
          "internalType": "uint256",
          "name": "",
          "type": "uint256"
        }
      ],
      "stateMutability": "view",
      "type": "function"
    },
    {
      "inputs": [],
      "name": "minting",
      "outputs": [
        {
          "internalType": "bool",
          "name": "",
          "type": "bool"
        }
      ],
      "stateMutability": "view",
      "type": "function"
    },
    {
      "inputs": [],
      "name": "name",
      "outputs": [
        {
          "internalType": "string",
          "name": "",
          "type": "string"
        }
      ],
      "stateMutability": "view",
      "type": "function"
    },
    {
      "inputs": [],
      "name": "nextEraTime",
      "outputs": [
        {
          "internalType": "uint256",
          "name": "",
          "type": "uint256"
        }
      ],
      "stateMutability": "view",
      "type": "function"
    },
    {
      "inputs": [],
      "name": "purgeDAO",
      "outputs": [],
      "stateMutability": "nonpayable",
      "type": "function"
    },
    {
      "inputs": [],
      "name": "redeem",
      "outputs": [
        {
          "internalType": "uint256",
          "name": "redeemAmount",
          "type": "uint256"
        }
      ],
      "stateMutability": "nonpayable",
      "type": "function"
    },
    {
      "inputs": [
        {
          "internalType": "address",
          "name": "member",
          "type": "address"
        }
      ],
      "name": "redeemToMember",
      "outputs": [
        {
          "internalType": "uint256",
          "name": "redeemAmount",
          "type": "uint256"
        }
      ],
      "stateMutability": "nonpayable",
      "type": "function"
    },
    {
      "inputs": [],
      "name": "secondsPerEra",
      "outputs": [
        {
          "internalType": "uint256",
          "name": "",
          "type": "uint256"
        }
      ],
      "stateMutability": "view",
      "type": "function"
    },
    {
      "inputs": [
        {
          "internalType": "uint256",
          "name": "newEra",
          "type": "uint256"
        },
        {
          "internalType": "uint256",
          "name": "newCurve",
          "type": "uint256"
        }
      ],
      "name": "setParams",
      "outputs": [],
      "stateMutability": "nonpayable",
      "type": "function"
    },
    {
      "inputs": [],
      "name": "symbol",
      "outputs": [
        {
          "internalType": "string",
          "name": "",
          "type": "string"
        }
      ],
      "stateMutability": "view",
      "type": "function"
    },
    {
      "inputs": [],
      "name": "totalSupply",
      "outputs": [
        {
          "internalType": "uint256",
          "name": "",
          "type": "uint256"
        }
      ],
      "stateMutability": "view",
      "type": "function"
    },
    {
      "inputs": [
        {
          "internalType": "address",
          "name": "recipient",
          "type": "address"
        },
        {
          "internalType": "uint256",
          "name": "amount",
          "type": "uint256"
        }
      ],
      "name": "transfer",
      "outputs": [
        {
          "internalType": "bool",
          "name": "",
          "type": "bool"
        }
      ],
      "stateMutability": "nonpayable",
      "type": "function"
    },
    {
      "inputs": [
        {
          "internalType": "address",
          "name": "sender",
          "type": "address"
        },
        {
          "internalType": "address",
          "name": "recipient",
          "type": "address"
        },
        {
          "internalType": "uint256",
          "name": "amount",
          "type": "uint256"
        }
      ],
      "name": "transferFrom",
      "outputs": [
        {
          "internalType": "bool",
          "name": "",
          "type": "bool"
        }
      ],
      "stateMutability": "nonpayable",
      "type": "function"
    },
    {
      "inputs": [
        {
          "internalType": "address",
          "name": "recipient",
          "type": "address"
        },
        {
          "internalType": "uint256",
          "name": "amount",
          "type": "uint256"
        }
      ],
      "name": "transferTo",
      "outputs": [
        {
          "internalType": "bool",
          "name": "",
          "type": "bool"
        }
      ],
      "stateMutability": "nonpayable",
      "type": "function"
    },
    {
      "inputs": [
        {
          "internalType": "uint256",
          "name": "amount",
          "type": "uint256"
        }
      ],
      "name": "upgrade",
      "outputs": [],
      "stateMutability": "nonpayable",
      "type": "function"
    }
  ],
  "bytecode": "0x608060405234801561001057600080fd5b506001600681905560058190556100279042610046565b600755600a600481905580546001600160a01b0319163317905561006a565b6000821982111561006557634e487b7160e01b81526011600452602481fd5b500190565b6117dc806100796000396000f3fe608060405234801561001057600080fd5b506004361061021c5760003560e01c806379cc679011610125578063be040fb0116100ad578063c91b6b461161007c578063c91b6b4614610471578063d5abeb0114610479578063dd62ed3e14610481578063f293e675146104ba578063fe1fa8fa146104c25761021c565b8063be040fb014610430578063c0324c7714610438578063c1b8411a1461044b578063c30a0ce71461045e5761021c565b806398fabd3a116100f457806398fabd3a146103f15780639a67759b14610404578063a9059cbb1461040d578063ab2637af14610420578063ae4e7fdf146104285761021c565b806379cc67901461039f5780637dc2268c146103b257806395d89b41146103c4578063973628f6146103e85761021c565b80632ccb1b30116101a857806345977d031161017757806345977d0314610334578063602631ef146103475780636b92a3b61461035057806370a082311461035957806370d5ae051461036c5761021c565b80632ccb1b30146102fe5780632deaa11614610311578063313ce5671461031957806342966c68146103215761021c565b80630fa1eeab116101ef5780630fa1eeab146102b157806318160ddd146102ba57806319ab453c146102c35780631d007f5f146102d857806323b872dd146102eb5761021c565b806306fdde03146102215780630781f4d21461026a578063090bbb0114610287578063095ea7b31461029e575b600080fd5b610254604051806040016040528060148152602001732b20a222a910282927aa27a1a7a6102a27a5a2a760611b81525081565b6040516102619190611585565b60405180910390f35b6003546102779060ff1681565b6040519015158152602001610261565b61029060075481565b604051908152602001610261565b6102776102ac3660046114e9565b6104ca565b61029060085481565b61029060005481565b6102d66102d1366004611439565b6104e0565b005b6102d66102e6366004611439565b61050f565b6102776102f93660046114a9565b6105bd565b61027761030c3660046114e9565b61063d565b6102d661064a565b610290601281565b6102d661032f366004611534565b6106bb565b6102d6610342366004611534565b6106c5565b6102906103e881565b61029060055481565b610290610367366004611439565b610787565b61038773011101100110000101101100011101010110010181565b6040516001600160a01b039091168152602001610261565b6102d66103ad3660046114e9565b6107a6565b60035461027790610100900460ff1681565b610254604051806040016040528060058152602001642b20a222a960d91b81525081565b61029060065481565b600954610387906001600160a01b031681565b61029060045481565b61027761041b3660046114e9565b6107f1565b6102906107fe565b61027761081b565b61029061089a565b6102d6610446366004611564565b6108a5565b600a54610387906001600160a01b031681565b61029061046c366004611439565b6108ef565b6102d6610ac3565b610290610b14565b61029061048f366004611471565b6001600160a01b03918216600090815260026020908152604080832093909416825291909152205490565b610290610b39565b6102d6610c03565b60006104d7338484610c6b565b50600192915050565b6009546001600160a01b031661050c57600980546001600160a01b0319166001600160a01b0383161790555b50565b6009546001600160a01b03163314806105325750600a546001600160a01b031633145b6105575760405162461bcd60e51b815260040161054e906115d8565b60405180910390fd5b6001600160a01b03811661059b5760405162461bcd60e51b815260206004820152600b60248201526a30b2323932b9b99032b93960a91b604482015260640161054e565b600980546001600160a01b0319166001600160a01b0392909216919091179055565b60006105ca848484610d4b565b6001600160a01b03841660009081526002602090815260408083203384529091529020546000191115610632576001600160a01b03841660009081526002602090815260408083203380855292529091205461063291869161062d908690611764565b610c6b565b5060015b9392505050565b60006104d7328484610d4b565b6009546001600160a01b031633148061066d5750600a546001600160a01b031633145b6106895760405162461bcd60e51b815260040161054e906115d8565b600354610100900460ff16156106a9576003805461ff00191690556106b9565b6003805461ff0019166101001790555b565b61050c3382610f38565b6106cd611007565b6040516323b872dd60e01b81523360048201527301110110011000010110110001110101011001016024820152604481018390526001600160a01b0391909116906323b872dd90606401602060405180830381600087803b15801561073157600080fd5b505af1158015610745573d6000803e3d6000fd5b505050506040513d601f19601f820116820180604052508101906107699190611514565b61077257600080fd5b61050c336107826103e884611745565b611084565b6001600160a01b0381166000908152600160205260409020545b919050565b6001600160a01b03821660009081526002602090815260408083203384529091528120546107d5908390611764565b90506107e2833383610c6b565b6107ec8383610f38565b505050565b60006104d7338484610d4b565b61080a6012600a611677565b61081890633b9aca00611745565b81565b60006108256111b4565b6001600160a01b031663ae4e7fdf6040518163ffffffff1660e01b815260040160206040518083038186803b15801561085d57600080fd5b505afa158015610871573d6000803e3d6000fd5b505050506040513d601f19601f820116820180604052508101906108959190611514565b905090565b6000610895336108ef565b6009546001600160a01b03163314806108c85750600a546001600160a01b031633145b6108e45760405162461bcd60e51b815260040161054e906115d8565b600591909155600455565b60006108f961081b565b6109305760405162461bcd60e51b815260206004820152600860248201526709cde40ccd8c2e6d60c31b604482015260640161054e565b600354610100900460ff16156107a157600061094a6111b4565b6040516370a0823160e01b81523060048201526001600160a01b0391909116906370a082319060240160206040518083038186803b15801561098b57600080fd5b505afa15801561099f573d6000803e3d6000fd5b505050506040513d601f19601f820116820180604052508101906109c3919061154c565b90506109cd6111b4565b6001600160a01b03166342966c68826040518263ffffffff1660e01b81526004016109fa91815260200190565b600060405180830381600087803b158015610a1457600080fd5b505af1158015610a28573d6000803e3d6000fd5b50505050610a346111f9565b6001600160a01b0316636cc06ded826040518263ffffffff1660e01b8152600401610a6191815260200190565b60206040518083038186803b158015610a7957600080fd5b505afa158015610a8d573d6000803e3d6000fd5b505050506040513d601f19601f82011682018060405250810190610ab1919061154c565b9150610abd8383611084565b50919050565b6009546001600160a01b0316331480610ae65750600a546001600160a01b031633145b610b025760405162461bcd60e51b815260040161054e906115d8565b600980546001600160a01b0319169055565b610b206012600a611677565b610b2e90633b9aca00611745565b610818906002611745565b600080610b486012600a611677565b610b5690633b9aca00611745565b60005411610bbb57610b6a6012600a611677565b610b7890633b9aca00611745565b600054610b876012600a611677565b610b9590633b9aca00611745565b610ba0906002611745565b610baa9190611745565b610bb49190611611565b9050610be3565b610bc76012600a611677565b610bd590633b9aca00611745565b610be0906002611745565b90505b600454600054610bf39083611764565b610bfd9190611611565b91505090565b6009546001600160a01b0316331480610c265750600a546001600160a01b031633145b610c425760405162461bcd60e51b815260040161054e906115d8565b60035460ff1615610c5c576003805460ff191690556106b9565b6003805460ff19166001179055565b6001600160a01b038316610caa5760405162461bcd60e51b815260206004820152600660248201526539b2b73232b960d11b604482015260640161054e565b6001600160a01b038216610cea5760405162461bcd60e51b815260206004820152600760248201526639b832b73232b960c91b604482015260640161054e565b6001600160a01b0383811660008181526002602090815260408083209487168084529482529182902085905590518481527f8c5be1e5ebec7d5bd14f71427d1e84f3dd0314c0f7b2291e5b200ac8c7c3b925910160405180910390a3505050565b6001600160a01b038316610d8a5760405162461bcd60e51b815260206004820152600660248201526539b2b73232b960d11b604482015260640161054e565b6001600160a01b038216301415610dcf5760405162461bcd60e51b81526020600482015260096024820152681c9958da5c1a595b9d60ba1b604482015260640161054e565b6001600160a01b03831660009081526001602052604081208054839290610df7908490611764565b9091555060009050610e0761123e565b6001600160a01b031663714270ab600854846040518363ffffffff1660e01b8152600401610e3f929190918252602082015260400190565b60206040518083038186803b158015610e5757600080fd5b505afa158015610e6b573d6000803e3d6000fd5b505050506040513d601f19601f82011682018060405250810190610e8f919061154c565b9050818111610eae57610ea28183611764565b9150610eae3382610f38565b6001600160a01b03831660009081526001602052604081208054849290610ed69084906115f9565b92505081905550826001600160a01b0316846001600160a01b03167fddf252ad1be2c89b69c2b068fc378daa952ba7f163c4a11628f55a4df523b3ef84604051610f2291815260200190565b60405180910390a3610f32611283565b50505050565b6001600160a01b038216610f7c5760405162461bcd60e51b815260206004820152600b60248201526a30b2323932b9b99032b93960a91b604482015260640161054e565b6001600160a01b03821660009081526001602052604081208054839290610fa4908490611764565b9250508190555080600080828254610fbc9190611764565b90915550506040518181526000906001600160a01b038416907fddf252ad1be2c89b69c2b068fc378daa952ba7f163c4a11628f55a4df523b3ef906020015b60405180910390a35050565b600954604080516304c4d46b60e41b815290516000926001600160a01b031691634c4d46b0916004808301926020929190829003018186803b15801561104c57600080fd5b505afa158015611060573d6000803e3d6000fd5b505050506040513d601f19601f820116820180604052508101906108959190611455565b6001600160a01b0382166110c65760405162461bcd60e51b81526020600482015260096024820152681c9958da5c1a595b9d60ba1b604482015260640161054e565b6110d26012600a611677565b6110e090633b9aca00611745565b6110eb906002611745565b816000546110f991906115f9565b106111335760005461110d6012600a611677565b61111b90633b9aca00611745565b611126906002611745565b6111309190611764565b90505b8060008082825461114491906115f9565b90915550506001600160a01b038216600090815260016020526040812080548392906111719084906115f9565b90915550506040518181526001600160a01b038316906000907fddf252ad1be2c89b69c2b068fc378daa952ba7f163c4a11628f55a4df523b3ef90602001610ffb565b60095460408051637161d82360e11b815290516000926001600160a01b03169163e2c3b046916004808301926020929190829003018186803b15801561104c57600080fd5b6009546040805163197f3d9360e11b815290516000926001600160a01b0316916332fe7b26916004808301926020929190829003018186803b15801561104c57600080fd5b60095460408051637b0e5c4560e01b815290516000926001600160a01b031691637b0e5c45916004808301926020929190829003018186803b15801561104c57600080fd5b6007544210158015611297575060035460ff165b156106b9576001600660008282546112af91906115f9565b90915550506005546112c190426115f9565b60075560006112ce610b39565b90506112e16112db6113f4565b82611084565b6112e961123e565b6001600160a01b0316638b18b1156000546012600a6113089190611677565b61131690633b9aca00611745565b611321906002611745565b6040516001600160e01b031960e085901b1681526004810192909252602482015260440160206040518083038186803b15801561135d57600080fd5b505afa158015611371573d6000803e3d6000fd5b505050506040513d601f19601f82011682018060405250810190611395919061154c565b60088190556103e810156113aa576103e86008555b60065460075460408051928352602083019190915281018290527f9d472bcf372fce01fd875c3296e8e5ae0a08bfca42dedac19e202271ce8f39c59060600160405180910390a150565b60095460408051634e96621b60e11b815290516000926001600160a01b031691639d2cc436916004808301926020929190829003018186803b15801561104c57600080fd5b60006020828403121561144a578081fd5b813561063681611791565b600060208284031215611466578081fd5b815161063681611791565b60008060408385031215611483578081fd5b823561148e81611791565b9150602083013561149e81611791565b809150509250929050565b6000806000606084860312156114bd578081fd5b83356114c881611791565b925060208401356114d881611791565b929592945050506040919091013590565b600080604083850312156114fb578182fd5b823561150681611791565b946020939093013593505050565b600060208284031215611525578081fd5b81518015158114610636578182fd5b600060208284031215611545578081fd5b5035919050565b60006020828403121561155d578081fd5b5051919050565b60008060408385031215611576578182fd5b50508035926020909101359150565b6000602080835283518082850152825b818110156115b157858101830151858201604001528201611595565b818111156115c25783604083870101525b50601f01601f1916929092016040019392505050565b6020808252600790820152664e6f742044414f60c81b604082015260600190565b6000821982111561160c5761160c61177b565b500190565b60008261162c57634e487b7160e01b81526012600452602481fd5b500490565b80825b6001808611611643575061166e565b8187048211156116555761165561177b565b8086161561166257918102915b9490941c938002611634565b94509492505050565b6000610636600019848460008261169057506001610636565b8161169d57506000610636565b81600181146116b357600281146116bd576116ea565b6001915050610636565b60ff8411156116ce576116ce61177b565b6001841b9150848211156116e4576116e461177b565b50610636565b5060208310610133831016604e8410600b841016171561171d575081810a838111156117185761171861177b565b610636565b61172a8484846001611631565b80860482111561173c5761173c61177b565b02949350505050565b600081600019048311821515161561175f5761175f61177b565b500290565b6000828210156117765761177661177b565b500390565b634e487b7160e01b600052601160045260246000fd5b6001600160a01b038116811461050c57600080fdfea264697066735822122064c81117d2e68c56b5a96b0e993d0699f06e935598af3e54b4713a8c1a48d2e364736f6c63430008030033",
  "linkReferences": {},
  "deployedLinkReferences": {}
}