{
  "_format": "hh-sol-artifact-1",
  "contractName": "Vader",
  "sourceName": "contracts/Vader.sol",
  "abi": [
    {
      "inputs": [],
      "stateMutability": "nonpayable",
      "type": "constructor"
    },
    {
      "anonymous": false,
      "inputs": [
        {
          "indexed": true,
          "internalType": "address",
          "name": "owner",
          "type": "address"
        },
        {
          "indexed": true,
          "internalType": "address",
          "name": "spender",
          "type": "address"
        },
        {
          "indexed": false,
          "internalType": "uint256",
          "name": "value",
          "type": "uint256"
        }
      ],
      "name": "Approval",
      "type": "event"
    },
    {
      "anonymous": false,
      "inputs": [
        {
          "indexed": false,
          "internalType": "uint256",
          "name": "currentEra",
          "type": "uint256"
        },
        {
          "indexed": false,
          "internalType": "uint256",
          "name": "nextEraTime",
          "type": "uint256"
        },
        {
          "indexed": false,
          "internalType": "uint256",
          "name": "emission",
          "type": "uint256"
        }
      ],
      "name": "NewEra",
      "type": "event"
    },
    {
      "anonymous": false,
      "inputs": [
        {
          "indexed": true,
          "internalType": "address",
          "name": "from",
          "type": "address"
        },
        {
          "indexed": true,
          "internalType": "address",
          "name": "to",
          "type": "address"
        },
        {
          "indexed": false,
          "internalType": "uint256",
          "name": "value",
          "type": "uint256"
        }
      ],
      "name": "Transfer",
      "type": "event"
    },
    {
      "inputs": [],
      "name": "DAO",
      "outputs": [
        {
          "internalType": "address",
          "name": "",
          "type": "address"
        }
      ],
      "stateMutability": "view",
      "type": "function"
    },
    {
      "inputs": [],
      "name": "DEPLOYER",
      "outputs": [
        {
          "internalType": "address",
          "name": "",
          "type": "address"
        }
      ],
      "stateMutability": "view",
      "type": "function"
    },
    {
      "inputs": [
        {
          "internalType": "address",
          "name": "owner",
          "type": "address"
        },
        {
          "internalType": "address",
          "name": "spender",
          "type": "address"
        }
      ],
      "name": "allowance",
      "outputs": [
        {
          "internalType": "uint256",
          "name": "",
          "type": "uint256"
        }
      ],
      "stateMutability": "view",
      "type": "function"
    },
    {
      "inputs": [
        {
          "internalType": "address",
          "name": "spender",
          "type": "address"
        },
        {
          "internalType": "uint256",
          "name": "amount",
          "type": "uint256"
        }
      ],
      "name": "approve",
      "outputs": [
        {
          "internalType": "bool",
          "name": "",
          "type": "bool"
        }
      ],
      "stateMutability": "nonpayable",
      "type": "function"
    },
    {
      "inputs": [
        {
          "internalType": "address",
          "name": "account",
          "type": "address"
        }
      ],
      "name": "balanceOf",
      "outputs": [
        {
          "internalType": "uint256",
          "name": "",
          "type": "uint256"
        }
      ],
      "stateMutability": "view",
      "type": "function"
    },
    {
      "inputs": [],
      "name": "baseline",
      "outputs": [
        {
          "internalType": "uint256",
          "name": "",
          "type": "uint256"
        }
      ],
      "stateMutability": "view",
      "type": "function"
    },
    {
      "inputs": [
        {
          "internalType": "uint256",
          "name": "amount",
          "type": "uint256"
        }
      ],
      "name": "burn",
      "outputs": [],
      "stateMutability": "nonpayable",
      "type": "function"
    },
    {
      "inputs": [],
      "name": "burnAddress",
      "outputs": [
        {
          "internalType": "address",
          "name": "",
          "type": "address"
        }
      ],
      "stateMutability": "view",
      "type": "function"
    },
    {
      "inputs": [
        {
          "internalType": "address",
          "name": "account",
          "type": "address"
        },
        {
          "internalType": "uint256",
          "name": "amount",
          "type": "uint256"
        }
      ],
      "name": "burnFrom",
      "outputs": [],
      "stateMutability": "nonpayable",
      "type": "function"
    },
    {
      "inputs": [
        {
          "internalType": "address",
          "name": "newDAO",
          "type": "address"
        }
      ],
      "name": "changeDAO",
      "outputs": [],
      "stateMutability": "nonpayable",
      "type": "function"
    },
    {
      "inputs": [],
      "name": "conversionFactor",
      "outputs": [
        {
          "internalType": "uint256",
          "name": "",
          "type": "uint256"
        }
      ],
      "stateMutability": "view",
      "type": "function"
    },
    {
      "inputs": [],
      "name": "currentEra",
      "outputs": [
        {
          "internalType": "uint256",
          "name": "",
          "type": "uint256"
        }
      ],
      "stateMutability": "view",
      "type": "function"
    },
    {
      "inputs": [],
      "name": "decimals",
      "outputs": [
        {
          "internalType": "uint256",
          "name": "",
          "type": "uint256"
        }
      ],
      "stateMutability": "view",
      "type": "function"
    },
    {
      "inputs": [],
      "name": "emissionCurve",
      "outputs": [
        {
          "internalType": "uint256",
          "name": "",
          "type": "uint256"
        }
      ],
      "stateMutability": "view",
      "type": "function"
    },
    {
      "inputs": [],
      "name": "emitting",
      "outputs": [
        {
          "internalType": "bool",
          "name": "",
          "type": "bool"
        }
      ],
      "stateMutability": "view",
      "type": "function"
    },
    {
      "inputs": [],
      "name": "feeOnTransfer",
      "outputs": [
        {
          "internalType": "uint256",
          "name": "",
          "type": "uint256"
        }
      ],
      "stateMutability": "view",
      "type": "function"
    },
    {
      "inputs": [],
      "name": "flipEmissions",
      "outputs": [],
      "stateMutability": "nonpayable",
      "type": "function"
    },
    {
      "inputs": [],
      "name": "flipMinting",
      "outputs": [],
      "stateMutability": "nonpayable",
      "type": "function"
    },
    {
      "inputs": [],
      "name": "getDailyEmission",
      "outputs": [
        {
          "internalType": "uint256",
          "name": "",
          "type": "uint256"
        }
      ],
      "stateMutability": "view",
      "type": "function"
    },
    {
      "inputs": [
        {
          "internalType": "address",
          "name": "_dao",
          "type": "address"
        }
      ],
      "name": "init",
      "outputs": [],
      "stateMutability": "nonpayable",
      "type": "function"
    },
    {
      "inputs": [],
      "name": "isMature",
      "outputs": [
        {
          "internalType": "bool",
          "name": "",
          "type": "bool"
        }
      ],
      "stateMutability": "view",
      "type": "function"
    },
    {
      "inputs": [],
      "name": "maxSupply",
      "outputs": [
        {
          "internalType": "uint256",
          "name": "",
          "type": "uint256"
        }
      ],
      "stateMutability": "view",
      "type": "function"
    },
    {
      "inputs": [],
      "name": "minting",
      "outputs": [
        {
          "internalType": "bool",
          "name": "",
          "type": "bool"
        }
      ],
      "stateMutability": "view",
      "type": "function"
    },
    {
      "inputs": [],
      "name": "name",
      "outputs": [
        {
          "internalType": "string",
          "name": "",
          "type": "string"
        }
      ],
      "stateMutability": "view",
      "type": "function"
    },
    {
      "inputs": [],
      "name": "nextEraTime",
      "outputs": [
        {
          "internalType": "uint256",
          "name": "",
          "type": "uint256"
        }
      ],
      "stateMutability": "view",
      "type": "function"
    },
    {
      "inputs": [],
      "name": "purgeDAO",
      "outputs": [],
      "stateMutability": "nonpayable",
      "type": "function"
    },
    {
      "inputs": [],
      "name": "redeem",
      "outputs": [
        {
          "internalType": "uint256",
          "name": "redeemAmount",
          "type": "uint256"
        }
      ],
      "stateMutability": "nonpayable",
      "type": "function"
    },
    {
      "inputs": [
        {
          "internalType": "address",
          "name": "member",
          "type": "address"
        }
      ],
      "name": "redeemToMember",
      "outputs": [
        {
          "internalType": "uint256",
          "name": "redeemAmount",
          "type": "uint256"
        }
      ],
      "stateMutability": "nonpayable",
      "type": "function"
    },
    {
      "inputs": [],
      "name": "secondsPerEra",
      "outputs": [
        {
          "internalType": "uint256",
          "name": "",
          "type": "uint256"
        }
      ],
      "stateMutability": "view",
      "type": "function"
    },
    {
      "inputs": [
        {
          "internalType": "uint256",
          "name": "newEra",
          "type": "uint256"
        },
        {
          "internalType": "uint256",
          "name": "newCurve",
          "type": "uint256"
        }
      ],
      "name": "setParams",
      "outputs": [],
      "stateMutability": "nonpayable",
      "type": "function"
    },
    {
      "inputs": [],
      "name": "symbol",
      "outputs": [
        {
          "internalType": "string",
          "name": "",
          "type": "string"
        }
      ],
      "stateMutability": "view",
      "type": "function"
    },
    {
      "inputs": [],
      "name": "totalSupply",
      "outputs": [
        {
          "internalType": "uint256",
          "name": "",
          "type": "uint256"
        }
      ],
      "stateMutability": "view",
      "type": "function"
    },
    {
      "inputs": [
        {
          "internalType": "address",
          "name": "recipient",
          "type": "address"
        },
        {
          "internalType": "uint256",
          "name": "amount",
          "type": "uint256"
        }
      ],
      "name": "transfer",
      "outputs": [
        {
          "internalType": "bool",
          "name": "",
          "type": "bool"
        }
      ],
      "stateMutability": "nonpayable",
      "type": "function"
    },
    {
      "inputs": [
        {
          "internalType": "address",
          "name": "sender",
          "type": "address"
        },
        {
          "internalType": "address",
          "name": "recipient",
          "type": "address"
        },
        {
          "internalType": "uint256",
          "name": "amount",
          "type": "uint256"
        }
      ],
      "name": "transferFrom",
      "outputs": [
        {
          "internalType": "bool",
          "name": "",
          "type": "bool"
        }
      ],
      "stateMutability": "nonpayable",
      "type": "function"
    },
    {
      "inputs": [
        {
          "internalType": "address",
          "name": "recipient",
          "type": "address"
        },
        {
          "internalType": "uint256",
          "name": "amount",
          "type": "uint256"
        }
      ],
      "name": "transferTo",
      "outputs": [
        {
          "internalType": "bool",
          "name": "",
          "type": "bool"
        }
      ],
      "stateMutability": "nonpayable",
      "type": "function"
    },
    {
      "inputs": [
        {
          "internalType": "uint256",
          "name": "amount",
          "type": "uint256"
        }
      ],
      "name": "upgrade",
      "outputs": [],
      "stateMutability": "nonpayable",
      "type": "function"
    }
  ],
  "bytecode": "0x60806040523480156200001157600080fd5b506040805180820190915260148082527f56414445522050524f544f434f4c20544f4b454e0000000000000000000000006020909201918252620000589160009162000126565b50604080518082019091526005808252642b20a222a960d91b6020909201918252620000879160019162000126565b50601260028190556200009c90600a62000234565b620000ac90633b9aca0062000329565b60088190556000600355620000c390600262000329565b600a556103e86007556001600c819055600b819055620000e49042620001cc565b600d55600a600955601180546001600160a01b03199081167301110110011000010110110001110101011001011790915560108054909116331790556200039e565b82805462000134906200034b565b90600052602060002090601f016020900481019282620001585760008555620001a3565b82601f106200017357805160ff1916838001178555620001a3565b82800160010185558215620001a3579182015b82811115620001a357825182559160200191906001019062000186565b50620001b1929150620001b5565b5090565b5b80821115620001b15760008155600101620001b6565b60008219821115620001e257620001e262000388565b500190565b80825b6001808611620001fb57506200022b565b81870482111562000210576200021062000388565b808616156200021e57918102915b9490941c938002620001ea565b94509492505050565b60006200024560001984846200024c565b9392505050565b6000826200025d5750600162000245565b816200026c5750600062000245565b81600181146200028557600281146200029057620002c4565b600191505062000245565b60ff841115620002a457620002a462000388565b6001841b915084821115620002bd57620002bd62000388565b5062000245565b5060208310610133831016604e8410600b8410161715620002fc575081810a83811115620002f657620002f662000388565b62000245565b6200030b8484846001620001e7565b80860482111562000320576200032062000388565b02949350505050565b600081600019048311821515161562000346576200034662000388565b500290565b600181811c908216806200036057607f821691505b602082108114156200038257634e487b7160e01b600052602260045260246000fd5b50919050565b634e487b7160e01b600052601160045260246000fd5b61162680620003ae6000396000f3fe608060405234801561001057600080fd5b506004361061021c5760003560e01c806379cc679011610125578063be040fb0116100ad578063c91b6b461161007c578063c91b6b4614610424578063d5abeb011461042c578063dd62ed3e14610435578063f293e6751461046e578063fe1fa8fa146104765761021c565b8063be040fb0146103e3578063c0324c77146103eb578063c1b8411a146103fe578063c30a0ce7146104115761021c565b806398fabd3a116100f457806398fabd3a146103a35780639a67759b146103b6578063a9059cbb146103bf578063ab2637af146103d2578063ae4e7fdf146103db5761021c565b806379cc67901461036d5780637dc2268c1461038057806395d89b4114610392578063973628f61461039a5761021c565b80632ccb1b30116101a857806345977d031161017757806345977d031461030a578063602631ef1461031d5780636b92a3b61461032657806370a082311461032f57806370d5ae05146103425761021c565b80632ccb1b30146102d35780632deaa116146102e6578063313ce567146102ee57806342966c68146102f75761021c565b80630fa1eeab116101ef5780630fa1eeab1461028657806318160ddd1461028f57806319ab453c146102985780631d007f5f146102ad57806323b872dd146102c05761021c565b806306fdde03146102215780630781f4d21461023f578063090bbb011461025c578063095ea7b314610273575b600080fd5b61022961047e565b60405161023691906114ae565b60405180910390f35b60065461024c9060ff1681565b6040519015158152602001610236565b610265600d5481565b604051908152602001610236565b61024c610281366004611412565b61050c565b610265600e5481565b61026560035481565b6102ab6102a636600461135b565b610522565b005b6102ab6102bb36600461135b565b610551565b61024c6102ce3660046113d2565b6105ff565b61024c6102e1366004611412565b61067e565b6102ab61068b565b61026560025481565b6102ab61030536600461145d565b6106fc565b6102ab61031836600461145d565b610706565b61026560075481565b610265600b5481565b61026561033d36600461135b565b6107b9565b601154610355906001600160a01b031681565b6040516001600160a01b039091168152602001610236565b6102ab61037b366004611412565b6107d8565b60065461024c90610100900460ff1681565b610229610823565b610265600c5481565b600f54610355906001600160a01b031681565b61026560095481565b61024c6103cd366004611412565b610830565b61026560085481565b61024c61083d565b6102656108bc565b6102ab6103f936600461148d565b6108c7565b601054610355906001600160a01b031681565b61026561041f36600461135b565b610911565b6102ab610ae5565b610265600a5481565b61026561044336600461139a565b6001600160a01b03918216600090815260056020908152604080832093909416825291909152205490565b610265610b36565b6102ab610b8d565b6000805461048b90611590565b80601f01602080910402602001604051908101604052809291908181526020018280546104b790611590565b80156105045780601f106104d957610100808354040283529160200191610504565b820191906000526020600020905b8154815290600101906020018083116104e757829003601f168201915b505050505081565b6000610519338484610bf5565b50600192915050565b600f546001600160a01b031661054e57600f80546001600160a01b0319166001600160a01b0383161790555b50565b600f546001600160a01b031633148061057457506010546001600160a01b031633145b6105995760405162461bcd60e51b815260040161059090611501565b60405180910390fd5b6001600160a01b0381166105dd5760405162461bcd60e51b815260206004820152600b60248201526a30b2323932b9b99032b93960a91b6044820152606401610590565b600f80546001600160a01b0319166001600160a01b0392909216919091179055565b600061060c848484610cd5565b6001600160a01b03841660009081526005602090815260408083203384529091529020546000191115610674576001600160a01b03841660009081526005602090815260408083203380855292529091205461067491869161066f908690611579565b610bf5565b5060019392505050565b6000610519328484610cd5565b600f546001600160a01b03163314806106ae57506010546001600160a01b031633145b6106ca5760405162461bcd60e51b815260040161059090611501565b600654610100900460ff16156106ea576006805461ff00191690556106fa565b6006805461ff0019166101001790555b565b61054e3382610ec2565b61070e610f92565b6011546040516323b872dd60e01b81523360048201526001600160a01b039182166024820152604481018490529116906323b872dd90606401602060405180830381600087803b15801561076157600080fd5b505af1158015610775573d6000803e3d6000fd5b505050506040513d601f19601f82011682018060405250810190610799919061143d565b6107a257600080fd5b61054e33600754836107b4919061155a565b61100f565b6001600160a01b0381166000908152600460205260409020545b919050565b6001600160a01b0382166000908152600560209081526040808320338452909152812054610807908390611579565b9050610814833383610bf5565b61081e8383610ec2565b505050565b6001805461048b90611590565b6000610519338484610cd5565b60006108476110fc565b6001600160a01b031663ae4e7fdf6040518163ffffffff1660e01b815260040160206040518083038186803b15801561087f57600080fd5b505afa158015610893573d6000803e3d6000fd5b505050506040513d601f19601f820116820180604052508101906108b7919061143d565b905090565b60006108b733610911565b600f546001600160a01b03163314806108ea57506010546001600160a01b031633145b6109065760405162461bcd60e51b815260040161059090611501565b600b91909155600955565b600061091b61083d565b6109525760405162461bcd60e51b815260206004820152600860248201526709cde40ccd8c2e6d60c31b6044820152606401610590565b600654610100900460ff16156107d357600061096c6110fc565b6040516370a0823160e01b81523060048201526001600160a01b0391909116906370a082319060240160206040518083038186803b1580156109ad57600080fd5b505afa1580156109c1573d6000803e3d6000fd5b505050506040513d601f19601f820116820180604052508101906109e59190611475565b90506109ef6110fc565b6001600160a01b03166342966c68826040518263ffffffff1660e01b8152600401610a1c91815260200190565b600060405180830381600087803b158015610a3657600080fd5b505af1158015610a4a573d6000803e3d6000fd5b50505050610a56611141565b6001600160a01b0316636cc06ded826040518263ffffffff1660e01b8152600401610a8391815260200190565b60206040518083038186803b158015610a9b57600080fd5b505afa158015610aaf573d6000803e3d6000fd5b505050506040513d601f19601f82011682018060405250810190610ad39190611475565b9150610adf838361100f565b50919050565b600f546001600160a01b0316331480610b0857506010546001600160a01b031633145b610b245760405162461bcd60e51b815260040161059090611501565b600f80546001600160a01b0319169055565b60008060085460035411610b6857600854600354600a54610b57919061155a565b610b61919061153a565b9050610b6d565b50600a545b600954600354610b7d9083611579565b610b87919061153a565b91505090565b600f546001600160a01b0316331480610bb057506010546001600160a01b031633145b610bcc5760405162461bcd60e51b815260040161059090611501565b60065460ff1615610be6576006805460ff191690556106fa565b6006805460ff19166001179055565b6001600160a01b038316610c345760405162461bcd60e51b815260206004820152600660248201526539b2b73232b960d11b6044820152606401610590565b6001600160a01b038216610c745760405162461bcd60e51b815260206004820152600760248201526639b832b73232b960c91b6044820152606401610590565b6001600160a01b0383811660008181526005602090815260408083209487168084529482529182902085905590518481527f8c5be1e5ebec7d5bd14f71427d1e84f3dd0314c0f7b2291e5b200ac8c7c3b925910160405180910390a3505050565b6001600160a01b038316610d145760405162461bcd60e51b815260206004820152600660248201526539b2b73232b960d11b6044820152606401610590565b6001600160a01b038216301415610d595760405162461bcd60e51b81526020600482015260096024820152681c9958da5c1a595b9d60ba1b6044820152606401610590565b6001600160a01b03831660009081526004602052604081208054839290610d81908490611579565b9091555060009050610d91611186565b6001600160a01b031663714270ab600e54846040518363ffffffff1660e01b8152600401610dc9929190918252602082015260400190565b60206040518083038186803b158015610de157600080fd5b505afa158015610df5573d6000803e3d6000fd5b505050506040513d601f19601f82011682018060405250810190610e199190611475565b9050818111610e3857610e2c8183611579565b9150610e383382610ec2565b6001600160a01b03831660009081526004602052604081208054849290610e60908490611522565b92505081905550826001600160a01b0316846001600160a01b03167fddf252ad1be2c89b69c2b068fc378daa952ba7f163c4a11628f55a4df523b3ef84604051610eac91815260200190565b60405180910390a3610ebc6111cb565b50505050565b6001600160a01b038216610f065760405162461bcd60e51b815260206004820152600b60248201526a30b2323932b9b99032b93960a91b6044820152606401610590565b6001600160a01b03821660009081526004602052604081208054839290610f2e908490611579565b925050819055508060036000828254610f479190611579565b90915550506040518181526000906001600160a01b038416907fddf252ad1be2c89b69c2b068fc378daa952ba7f163c4a11628f55a4df523b3ef906020015b60405180910390a35050565b600f54604080516304c4d46b60e41b815290516000926001600160a01b031691634c4d46b0916004808301926020929190829003018186803b158015610fd757600080fd5b505afa158015610feb573d6000803e3d6000fd5b505050506040513d601f19601f820116820180604052508101906108b7919061137e565b6001600160a01b0382166110515760405162461bcd60e51b81526020600482015260096024820152681c9958da5c1a595b9d60ba1b6044820152606401610590565b600a54816003546110629190611522565b1061107a57600354600a546110779190611579565b90505b806003600082825461108c9190611522565b90915550506001600160a01b038216600090815260046020526040812080548392906110b9908490611522565b90915550506040518181526001600160a01b038316906000907fddf252ad1be2c89b69c2b068fc378daa952ba7f163c4a11628f55a4df523b3ef90602001610f86565b600f5460408051637161d82360e11b815290516000926001600160a01b03169163e2c3b046916004808301926020929190829003018186803b158015610fd757600080fd5b600f546040805163197f3d9360e11b815290516000926001600160a01b0316916332fe7b26916004808301926020929190829003018186803b158015610fd757600080fd5b600f5460408051637b0e5c4560e01b815290516000926001600160a01b031691637b0e5c45916004808301926020929190829003018186803b158015610fd757600080fd5b600d5442101580156111df575060065460ff165b156106fa576001600c60008282546111f79190611522565b9091555050600b546112099042611522565b600d556000611216610b36565b9050611229611223611316565b8261100f565b611231611186565b600354600a54604051638b18b11560e01b8152600481019290925260248201526001600160a01b039190911690638b18b1159060440160206040518083038186803b15801561127f57600080fd5b505afa158015611293573d6000803e3d6000fd5b505050506040513d601f19601f820116820180604052508101906112b79190611475565b600e8190556103e810156112cc576103e8600e555b600c54600d5460408051928352602083019190915281018290527f9d472bcf372fce01fd875c3296e8e5ae0a08bfca42dedac19e202271ce8f39c59060600160405180910390a150565b600f5460408051634e96621b60e11b815290516000926001600160a01b031691639d2cc436916004808301926020929190829003018186803b158015610fd757600080fd5b60006020828403121561136c578081fd5b8135611377816115db565b9392505050565b60006020828403121561138f578081fd5b8151611377816115db565b600080604083850312156113ac578081fd5b82356113b7816115db565b915060208301356113c7816115db565b809150509250929050565b6000806000606084860312156113e6578081fd5b83356113f1816115db565b92506020840135611401816115db565b929592945050506040919091013590565b60008060408385031215611424578182fd5b823561142f816115db565b946020939093013593505050565b60006020828403121561144e578081fd5b81518015158114611377578182fd5b60006020828403121561146e578081fd5b5035919050565b600060208284031215611486578081fd5b5051919050565b6000806040838503121561149f578182fd5b50508035926020909101359150565b6000602080835283518082850152825b818110156114da578581018301518582016040015282016114be565b818111156114eb5783604083870101525b50601f01601f1916929092016040019392505050565b6020808252600790820152664e6f742044414f60c81b604082015260600190565b60008219821115611535576115356115c5565b500190565b60008261155557634e487b7160e01b81526012600452602481fd5b500490565b6000816000190483118215151615611574576115746115c5565b500290565b60008282101561158b5761158b6115c5565b500390565b600181811c908216806115a457607f821691505b60208210811415610adf57634e487b7160e01b600052602260045260246000fd5b634e487b7160e01b600052601160045260246000fd5b6001600160a01b038116811461054e57600080fdfea26469706673582212201f9559d9d593f414eb01b7246f2e865cb20869fbedd458e841f7387d0a9c56e064736f6c63430008030033",
  "linkReferences": {},
  "deployedLinkReferences": {}
}