{
  "_format": "hh-sol-artifact-1",
  "contractName": "Vader",
  "sourceName": "contracts/Vader.sol",
  "abi": [
    {
      "inputs": [],
      "stateMutability": "nonpayable",
      "type": "constructor"
    },
    {
      "anonymous": false,
      "inputs": [
        {
          "indexed": true,
          "internalType": "address",
          "name": "owner",
          "type": "address"
        },
        {
          "indexed": true,
          "internalType": "address",
          "name": "spender",
          "type": "address"
        },
        {
          "indexed": false,
          "internalType": "uint256",
          "name": "value",
          "type": "uint256"
        }
      ],
      "name": "Approval",
      "type": "event"
    },
    {
      "anonymous": false,
      "inputs": [
        {
          "indexed": false,
          "internalType": "uint256",
          "name": "currentEra",
          "type": "uint256"
        },
        {
          "indexed": false,
          "internalType": "uint256",
          "name": "nextEraTime",
          "type": "uint256"
        },
        {
          "indexed": false,
          "internalType": "uint256",
          "name": "emission",
          "type": "uint256"
        }
      ],
      "name": "NewEra",
      "type": "event"
    },
    {
      "anonymous": false,
      "inputs": [
        {
          "indexed": true,
          "internalType": "address",
          "name": "from",
          "type": "address"
        },
        {
          "indexed": true,
          "internalType": "address",
          "name": "to",
          "type": "address"
        },
        {
          "indexed": false,
          "internalType": "uint256",
          "name": "value",
          "type": "uint256"
        }
      ],
      "name": "Transfer",
      "type": "event"
    },
    {
      "inputs": [],
      "name": "DAO",
      "outputs": [
        {
          "internalType": "address",
          "name": "",
          "type": "address"
        }
      ],
      "stateMutability": "view",
      "type": "function"
    },
    {
      "inputs": [],
      "name": "USDV",
      "outputs": [
        {
          "internalType": "address",
          "name": "",
          "type": "address"
        }
      ],
      "stateMutability": "view",
      "type": "function"
    },
    {
      "inputs": [],
      "name": "UTILS",
      "outputs": [
        {
          "internalType": "address",
          "name": "",
          "type": "address"
        }
      ],
      "stateMutability": "view",
      "type": "function"
    },
    {
      "inputs": [],
      "name": "VETHER",
      "outputs": [
        {
          "internalType": "address",
          "name": "",
          "type": "address"
        }
      ],
      "stateMutability": "view",
      "type": "function"
    },
    {
      "inputs": [
        {
          "internalType": "address",
          "name": "owner",
          "type": "address"
        },
        {
          "internalType": "address",
          "name": "spender",
          "type": "address"
        }
      ],
      "name": "allowance",
      "outputs": [
        {
          "internalType": "uint256",
          "name": "",
          "type": "uint256"
        }
      ],
      "stateMutability": "view",
      "type": "function"
    },
    {
      "inputs": [
        {
          "internalType": "address",
          "name": "spender",
          "type": "address"
        },
        {
          "internalType": "uint256",
          "name": "amount",
          "type": "uint256"
        }
      ],
      "name": "approve",
      "outputs": [
        {
          "internalType": "bool",
          "name": "",
          "type": "bool"
        }
      ],
      "stateMutability": "nonpayable",
      "type": "function"
    },
    {
      "inputs": [
        {
          "internalType": "address",
          "name": "account",
          "type": "address"
        }
      ],
      "name": "balanceOf",
      "outputs": [
        {
          "internalType": "uint256",
          "name": "",
          "type": "uint256"
        }
      ],
      "stateMutability": "view",
      "type": "function"
    },
    {
      "inputs": [],
      "name": "baseline",
      "outputs": [
        {
          "internalType": "uint256",
          "name": "",
          "type": "uint256"
        }
      ],
      "stateMutability": "view",
      "type": "function"
    },
    {
      "inputs": [
        {
          "internalType": "uint256",
          "name": "amount",
          "type": "uint256"
        }
      ],
      "name": "burn",
      "outputs": [],
      "stateMutability": "nonpayable",
      "type": "function"
    },
    {
      "inputs": [],
      "name": "burnAddress",
      "outputs": [
        {
          "internalType": "address",
          "name": "",
          "type": "address"
        }
      ],
      "stateMutability": "view",
      "type": "function"
    },
    {
      "inputs": [
        {
          "internalType": "address",
          "name": "account",
          "type": "address"
        },
        {
          "internalType": "uint256",
          "name": "amount",
          "type": "uint256"
        }
      ],
      "name": "burnFrom",
      "outputs": [],
      "stateMutability": "nonpayable",
      "type": "function"
    },
    {
      "inputs": [
        {
          "internalType": "address",
          "name": "newDAO",
          "type": "address"
        }
      ],
      "name": "changeDAO",
      "outputs": [],
      "stateMutability": "nonpayable",
      "type": "function"
    },
    {
      "inputs": [
        {
          "internalType": "address",
          "name": "newUTILS",
          "type": "address"
        }
      ],
      "name": "changeUTILS",
      "outputs": [],
      "stateMutability": "nonpayable",
      "type": "function"
    },
    {
      "inputs": [],
      "name": "currentEra",
      "outputs": [
        {
          "internalType": "uint256",
          "name": "",
          "type": "uint256"
        }
      ],
      "stateMutability": "view",
      "type": "function"
    },
    {
      "inputs": [],
      "name": "decimals",
      "outputs": [
        {
          "internalType": "uint256",
          "name": "",
          "type": "uint256"
        }
      ],
      "stateMutability": "view",
      "type": "function"
    },
    {
      "inputs": [],
      "name": "emissionCurve",
      "outputs": [
        {
          "internalType": "uint256",
          "name": "",
          "type": "uint256"
        }
      ],
      "stateMutability": "view",
      "type": "function"
    },
    {
      "inputs": [],
      "name": "emitting",
      "outputs": [
        {
          "internalType": "bool",
          "name": "",
          "type": "bool"
        }
      ],
      "stateMutability": "view",
      "type": "function"
    },
    {
      "inputs": [
        {
          "internalType": "address",
          "name": "member",
          "type": "address"
        }
      ],
      "name": "exclude",
      "outputs": [],
      "stateMutability": "nonpayable",
      "type": "function"
    },
    {
      "inputs": [],
      "name": "excludeFee",
      "outputs": [
        {
          "internalType": "uint256",
          "name": "",
          "type": "uint256"
        }
      ],
      "stateMutability": "view",
      "type": "function"
    },
    {
      "inputs": [],
      "name": "feeOnTransfer",
      "outputs": [
        {
          "internalType": "uint256",
          "name": "",
          "type": "uint256"
        }
      ],
      "stateMutability": "view",
      "type": "function"
    },
    {
      "inputs": [],
      "name": "getDailyEmission",
      "outputs": [
        {
          "internalType": "uint256",
          "name": "",
          "type": "uint256"
        }
      ],
      "stateMutability": "view",
      "type": "function"
    },
    {
      "inputs": [
        {
          "internalType": "address",
          "name": "_vether",
          "type": "address"
        },
        {
          "internalType": "address",
          "name": "_USDV",
          "type": "address"
        },
        {
          "internalType": "address",
          "name": "_utils",
          "type": "address"
        }
      ],
      "name": "init",
      "outputs": [],
      "stateMutability": "nonpayable",
      "type": "function"
    },
    {
      "inputs": [
        {
          "internalType": "address",
          "name": "member",
          "type": "address"
        }
      ],
      "name": "isExcluded",
      "outputs": [
        {
          "internalType": "bool",
          "name": "",
          "type": "bool"
        }
      ],
      "stateMutability": "view",
      "type": "function"
    },
    {
      "inputs": [],
      "name": "isMature",
      "outputs": [
        {
          "internalType": "bool",
          "name": "",
          "type": "bool"
        }
      ],
      "stateMutability": "view",
      "type": "function"
    },
    {
      "inputs": [],
      "name": "maxSupply",
      "outputs": [
        {
          "internalType": "uint256",
          "name": "",
          "type": "uint256"
        }
      ],
      "stateMutability": "view",
      "type": "function"
    },
    {
      "inputs": [],
      "name": "name",
      "outputs": [
        {
          "internalType": "string",
          "name": "",
          "type": "string"
        }
      ],
      "stateMutability": "view",
      "type": "function"
    },
    {
      "inputs": [],
      "name": "nextEraTime",
      "outputs": [
        {
          "internalType": "uint256",
          "name": "",
          "type": "uint256"
        }
      ],
      "stateMutability": "view",
      "type": "function"
    },
    {
      "inputs": [],
      "name": "purgeDAO",
      "outputs": [],
      "stateMutability": "nonpayable",
      "type": "function"
    },
    {
      "inputs": [],
      "name": "redeem",
      "outputs": [
        {
          "internalType": "uint256",
          "name": "redeemAmount",
          "type": "uint256"
        }
      ],
      "stateMutability": "nonpayable",
      "type": "function"
    },
    {
      "inputs": [
        {
          "internalType": "address",
          "name": "_member",
          "type": "address"
        }
      ],
      "name": "redeemToMember",
      "outputs": [
        {
          "internalType": "uint256",
          "name": "redeemAmount",
          "type": "uint256"
        }
      ],
      "stateMutability": "nonpayable",
      "type": "function"
    },
    {
      "inputs": [],
      "name": "rewardAddress",
      "outputs": [
        {
          "internalType": "address",
          "name": "",
          "type": "address"
        }
      ],
      "stateMutability": "view",
      "type": "function"
    },
    {
      "inputs": [],
      "name": "secondsPerEra",
      "outputs": [
        {
          "internalType": "uint256",
          "name": "",
          "type": "uint256"
        }
      ],
      "stateMutability": "view",
      "type": "function"
    },
    {
      "inputs": [
        {
          "internalType": "uint256",
          "name": "_one",
          "type": "uint256"
        },
        {
          "internalType": "uint256",
          "name": "_two",
          "type": "uint256"
        },
        {
          "internalType": "uint256",
          "name": "_three",
          "type": "uint256"
        }
      ],
      "name": "setParams",
      "outputs": [],
      "stateMutability": "nonpayable",
      "type": "function"
    },
    {
      "inputs": [
        {
          "internalType": "address",
          "name": "_address",
          "type": "address"
        }
      ],
      "name": "setRewardAddress",
      "outputs": [],
      "stateMutability": "nonpayable",
      "type": "function"
    },
    {
      "inputs": [],
      "name": "startEmissions",
      "outputs": [],
      "stateMutability": "nonpayable",
      "type": "function"
    },
    {
      "inputs": [],
      "name": "stopEmissions",
      "outputs": [],
      "stateMutability": "nonpayable",
      "type": "function"
    },
    {
      "inputs": [],
      "name": "symbol",
      "outputs": [
        {
          "internalType": "string",
          "name": "",
          "type": "string"
        }
      ],
      "stateMutability": "view",
      "type": "function"
    },
    {
      "inputs": [],
      "name": "totalSupply",
      "outputs": [
        {
          "internalType": "uint256",
          "name": "",
          "type": "uint256"
        }
      ],
      "stateMutability": "view",
      "type": "function"
    },
    {
      "inputs": [
        {
          "internalType": "address",
          "name": "recipient",
          "type": "address"
        },
        {
          "internalType": "uint256",
          "name": "amount",
          "type": "uint256"
        }
      ],
      "name": "transfer",
      "outputs": [
        {
          "internalType": "bool",
          "name": "",
          "type": "bool"
        }
      ],
      "stateMutability": "nonpayable",
      "type": "function"
    },
    {
      "inputs": [
        {
          "internalType": "address",
          "name": "sender",
          "type": "address"
        },
        {
          "internalType": "address",
          "name": "recipient",
          "type": "address"
        },
        {
          "internalType": "uint256",
          "name": "amount",
          "type": "uint256"
        }
      ],
      "name": "transferFrom",
      "outputs": [
        {
          "internalType": "bool",
          "name": "",
          "type": "bool"
        }
      ],
      "stateMutability": "nonpayable",
      "type": "function"
    },
    {
      "inputs": [
        {
          "internalType": "address",
          "name": "recipient",
          "type": "address"
        },
        {
          "internalType": "uint256",
          "name": "amount",
          "type": "uint256"
        }
      ],
      "name": "transferTo",
      "outputs": [
        {
          "internalType": "bool",
          "name": "",
          "type": "bool"
        }
      ],
      "stateMutability": "nonpayable",
      "type": "function"
    },
    {
      "inputs": [
        {
          "internalType": "uint256",
          "name": "amount",
          "type": "uint256"
        }
      ],
      "name": "upgrade",
      "outputs": [],
      "stateMutability": "nonpayable",
      "type": "function"
    }
  ],
  "bytecode": "0x60806040523480156200001157600080fd5b506040805180820190915260148082527f56414445522050524f544f434f4c20544f4b454e000000000000000000000000602090920191825262000058916000916200012b565b50604080518082019091526005808252642b20a222a960d91b602090920191825262000087916001916200012b565b50601260028190556200009c90600a62000239565b620000ab90620f42406200032e565b600781905560088190556000600355620000c79060026200032e565b600a556001600c819055600b819055620000e29042620001d1565b600d55610384600955610100600f55601580546001600160a01b0319908116331790915560138054909116730111011001100001011011000111010101100101179055620003a3565b828054620001399062000350565b90600052602060002090601f0160209004810192826200015d5760008555620001a8565b82601f106200017857805160ff1916838001178555620001a8565b82800160010185558215620001a8579182015b82811115620001a85782518255916020019190600101906200018b565b50620001b6929150620001ba565b5090565b5b80821115620001b65760008155600101620001bb565b60008219821115620001e757620001e76200038d565b500190565b80825b600180861162000200575062000230565b8187048211156200021557620002156200038d565b808616156200022357918102915b9490941c938002620001ef565b94509492505050565b60006200024a600019848462000251565b9392505050565b60008262000262575060016200024a565b8162000271575060006200024a565b81600181146200028a57600281146200029557620002c9565b60019150506200024a565b60ff841115620002a957620002a96200038d565b6001841b915084821115620002c257620002c26200038d565b506200024a565b5060208310610133831016604e8410600b841016171562000301575081810a83811115620002fb57620002fb6200038d565b6200024a565b620003108484846001620001ec565b8086048211156200032557620003256200038d565b02949350505050565b60008160001904831182151516156200034b576200034b6200038d565b500290565b600181811c908216806200036557607f821691505b602082108114156200038757634e487b7160e01b600052602260045260246000fd5b50919050565b634e487b7160e01b600052601160045260246000fd5b61167c80620003b36000396000f3fe608060405234801561001057600080fd5b506004361061025e5760003560e01c8063702b1cfc11610146578063a9059cbb116100c3578063c91b6b4611610087578063c91b6b46146104d6578063cba0e996146104de578063d5abeb011461050a578063dd62ed3e14610513578063e2c3b0461461054c578063f293e6751461055f5761025e565b8063a9059cbb14610497578063ab2637af146104aa578063ae4e7fdf146104b3578063be040fb0146104bb578063c30a0ce7146104c35761025e565b80638cf57cb91161010a5780638cf57cb91461045757806395d89b411461046a578063973628f61461047257806398fabd3a1461047b5780639a67759b1461048e5761025e565b8063702b1cfc146103ec57806370a08231146103f557806370d5ae051461041e57806379cc6790146104315780637b0e5c45146104445761025e565b806323b872dd116101df57806345977d03116101a357806345977d031461036c5780634c4d46b01461037f5780634febf53d146103aa5780635a0ce676146103bd5780635e00e679146103d05780636b92a3b6146103e35761025e565b806323b872dd146103225780632ccb1b30146103355780632eabea0214610348578063313ce5671461035057806342966c68146103595761025e565b806318160ddd1161022657806318160ddd146102d6578063184b9559146102df57806319234334146102f45780631b02f845146103075780631d007f5f1461030f5761025e565b806306fdde03146102635780630781f4d214610281578063090bbb01146102a3578063095ea7b3146102ba5780630fa1eeab146102cd575b600080fd5b61026b610567565b60405161027891906114df565b60405180910390f35b60065461029390610100900460ff1681565b6040519015158152602001610278565b6102ac600d5481565b604051908152602001610278565b6102936102c8366004611439565b6105f5565b6102ac600e5481565b6102ac60035481565b6102f26102ed3660046113af565b61060b565b005b6102f2610302366004611338565b610673565b6102f26106ee565b6102f261031d366004611338565b610729565b6102936103303660046113f9565b61079b565b610293610343366004611439565b6107ed565b6102f26107fa565b6102ac60025481565b6102f2610367366004611484565b610831565b6102f261037a366004611484565b61083e565b601054610392906001600160a01b031681565b6040516001600160a01b039091168152602001610278565b6102f26103b8366004611338565b6108df565b6102f26103cb3660046114b4565b61090f565b6102f26103de366004611338565b610947565b6102ac600b5481565b6102ac600f5481565b6102ac610403366004611338565b6001600160a01b031660009081526004602052604090205490565b601354610392906001600160a01b031681565b6102f261043f366004611439565b610993565b601254610392906001600160a01b031681565b601454610392906001600160a01b031681565b61026b6109de565b6102ac600c5481565b601554610392906001600160a01b031681565b6102ac60095481565b6102936104a5366004611439565b6109eb565b6102ac60085481565b6102936109f8565b6102ac610a7a565b6102ac6104d1366004611338565b610a81565b6102f2610cb2565b6102936104ec366004611338565b6001600160a01b031660009081526016602052604090205460ff1690565b6102ac600a5481565b6102ac610521366004611377565b6001600160a01b03918216600090815260056020908152604080832093909416825291909152205490565b601154610392906001600160a01b031681565b6102ac610cee565b60008054610574906115e6565b80601f01602080910402602001604051908101604052809291908181526020018280546105a0906115e6565b80156105ed5780601f106105c2576101008083540402835291602001916105ed565b820191906000526020600020905b8154815290600101906020018083116105d057829003601f168201915b505050505081565b6000610602338484610d45565b50600192915050565b60065460ff161561061b57600080fd5b6006805460ff19166001179055601080546001600160a01b039485166001600160a01b031991821617909155601180549385169382168417905560128054929094169181169190911790925560148054909216179055565b6015546001600160a01b031633146106a65760405162461bcd60e51b815260040161069d90611532565b60405180910390fd5b6001600160a01b0381166106cc5760405162461bcd60e51b815260040161069d90611553565b601280546001600160a01b0319166001600160a01b0392909216919091179055565b6015546001600160a01b031633146107185760405162461bcd60e51b815260040161069d90611532565b6006805461ff001916610100179055565b6015546001600160a01b031633146107535760405162461bcd60e51b815260040161069d90611532565b6001600160a01b0381166107795760405162461bcd60e51b815260040161069d90611553565b601580546001600160a01b0319166001600160a01b0392909216919091179055565b60006107a8848484610e25565b6001600160a01b0384166000908152600560209081526040808320338085529252909120546107e39186916107de9086906115cf565b610d45565b5060019392505050565b6000610602328484610e25565b6015546001600160a01b031633146108245760405162461bcd60e51b815260040161069d90611532565b6006805461ff0019169055565b61083b3382611043565b50565b6010546013546040516323b872dd60e01b81523360048201526001600160a01b039182166024820152604481018490529116906323b872dd90606401602060405180830381600087803b15801561089457600080fd5b505af11580156108a8573d6000803e3d6000fd5b505050506040513d601f19601f820116820180604052508101906108cc9190611464565b6108d557600080fd5b61083b33826110f5565b6108eb33600f54611043565b6001600160a01b03166000908152601660205260409020805460ff19166001179055565b6015546001600160a01b031633146109395760405162461bcd60e51b815260040161069d90611532565b600b92909255600955600f55565b6015546001600160a01b031633146109715760405162461bcd60e51b815260040161069d90611532565b601480546001600160a01b0319166001600160a01b0392909216919091179055565b6001600160a01b03821660009081526005602090815260408083203384529091528120546109c29083906115cf565b90506109cf833383610d45565b6109d98383611043565b505050565b60018054610574906115e6565b6000610602338484610e25565b6011546040805163ae4e7fdf60e01b815290516000926001600160a01b03169163ae4e7fdf916004808301926020929190829003018186803b158015610a3d57600080fd5b505afa158015610a51573d6000803e3d6000fd5b505050506040513d601f19601f82011682018060405250810190610a759190611464565b905090565b6000610a75325b6000610a8b6109f8565b610ac25760405162461bcd60e51b815260206004820152600860248201526709cde40ccd8c2e6d60c31b604482015260640161069d565b6011546040516370a0823160e01b81523060048201526000916001600160a01b0316906370a082319060240160206040518083038186803b158015610b0657600080fd5b505afa158015610b1a573d6000803e3d6000fd5b505050506040513d601f19601f82011682018060405250810190610b3e919061149c565b601154604051630852cd8d60e31b8152600481018390529192506001600160a01b0316906342966c6890602401600060405180830381600087803b158015610b8557600080fd5b505af1158015610b99573d6000803e3d6000fd5b50505050601160009054906101000a90046001600160a01b03166001600160a01b03166332fe7b266040518163ffffffff1660e01b815260040160206040518083038186803b158015610beb57600080fd5b505afa158015610bff573d6000803e3d6000fd5b505050506040513d601f19601f82011682018060405250810190610c23919061135b565b6001600160a01b0316636cc06ded826040518263ffffffff1660e01b8152600401610c5091815260200190565b60206040518083038186803b158015610c6857600080fd5b505afa158015610c7c573d6000803e3d6000fd5b505050506040513d601f19601f82011682018060405250810190610ca0919061149c565b9150610cac83836110f5565b50919050565b6015546001600160a01b03163314610cdc5760405162461bcd60e51b815260040161069d90611532565b601580546001600160a01b0319169055565b60008060085460035411610d2057600854600354600a54610d0f91906115b0565b610d199190611590565b9050610d25565b50600a545b600954600354610d3590836115cf565b610d3f9190611590565b91505090565b6001600160a01b038316610d845760405162461bcd60e51b815260206004820152600660248201526539b2b73232b960d11b604482015260640161069d565b6001600160a01b038216610dc45760405162461bcd60e51b815260206004820152600760248201526639b832b73232b960c91b604482015260640161069d565b6001600160a01b0383811660008181526005602090815260408083209487168084529482529182902085905590518481527f8c5be1e5ebec7d5bd14f71427d1e84f3dd0314c0f7b2291e5b200ac8c7c3b925910160405180910390a3505050565b6001600160a01b038316610e645760405162461bcd60e51b815260206004820152600660248201526539b2b73232b960d11b604482015260640161069d565b6001600160a01b038216301415610ea95760405162461bcd60e51b81526020600482015260096024820152681c9958da5c1a595b9d60ba1b604482015260640161069d565b6001600160a01b03831660009081526004602052604081208054839290610ed19084906115cf565b90915550506001600160a01b03831660009081526016602052604090205460ff16158015610f1857506001600160a01b03821660009081526016602052604090205460ff16155b15610fbf57601254600e5460405163714270ab60e01b81526004810191909152602481018390526000916001600160a01b03169063714270ab9060440160206040518083038186803b158015610f6d57600080fd5b505afa158015610f81573d6000803e3d6000fd5b505050506040513d601f19601f82011682018060405250810190610fa5919061149c565b9050610fb181836115cf565b9150610fbd3382611043565b505b6001600160a01b03821660009081526004602052604081208054839290610fe7908490611578565b92505081905550816001600160a01b0316836001600160a01b03167fddf252ad1be2c89b69c2b068fc378daa952ba7f163c4a11628f55a4df523b3ef8360405161103391815260200190565b60405180910390a36109d96111f9565b6001600160a01b0382166110695760405162461bcd60e51b815260040161069d90611553565b6001600160a01b038216600090815260046020526040812080548392906110919084906115cf565b9250508190555080600360008282546110aa91906115cf565b90915550506040518181526000906001600160a01b038416907fddf252ad1be2c89b69c2b068fc378daa952ba7f163c4a11628f55a4df523b3ef906020015b60405180910390a35050565b6001600160a01b0382166111375760405162461bcd60e51b81526020600482015260096024820152681c9958da5c1a595b9d60ba1b604482015260640161069d565b80600360008282546111499190611578565b9091555050600a54600354111561118e5760405162461bcd60e51b81526020600482015260096024820152686d6178537570706c7960b81b604482015260640161069d565b6001600160a01b038216600090815260046020526040812080548392906111b6908490611578565b90915550506040518181526001600160a01b038316906000907fddf252ad1be2c89b69c2b068fc378daa952ba7f163c4a11628f55a4df523b3ef906020016110e9565b600d5442101580156112125750600654610100900460ff165b15611336576001600c600082825461122a9190611578565b9091555050600b5461123c9042611578565b600d556000611249610cee565b601454909150611262906001600160a01b0316826110f5565b601254600354600a54604051638b18b11560e01b8152600481019290925260248201526001600160a01b0390911690638b18b1159060440160206040518083038186803b1580156112b257600080fd5b505afa1580156112c6573d6000803e3d6000fd5b505050506040513d601f19601f820116820180604052508101906112ea919061149c565b600e55600c54600d5460408051928352602083019190915281018290527f9d472bcf372fce01fd875c3296e8e5ae0a08bfca42dedac19e202271ce8f39c59060600160405180910390a1505b565b600060208284031215611349578081fd5b813561135481611631565b9392505050565b60006020828403121561136c578081fd5b815161135481611631565b60008060408385031215611389578081fd5b823561139481611631565b915060208301356113a481611631565b809150509250929050565b6000806000606084860312156113c3578081fd5b83356113ce81611631565b925060208401356113de81611631565b915060408401356113ee81611631565b809150509250925092565b60008060006060848603121561140d578283fd5b833561141881611631565b9250602084013561142881611631565b929592945050506040919091013590565b6000806040838503121561144b578182fd5b823561145681611631565b946020939093013593505050565b600060208284031215611475578081fd5b81518015158114611354578182fd5b600060208284031215611495578081fd5b5035919050565b6000602082840312156114ad578081fd5b5051919050565b6000806000606084860312156114c8578283fd5b505081359360208301359350604090920135919050565b6000602080835283518082850152825b8181101561150b578581018301518582016040015282016114ef565b8181111561151c5783604083870101525b50601f01601f1916929092016040019392505050565b6020808252600790820152664e6f742044414f60c81b604082015260600190565b6020808252600b908201526a30b2323932b9b99032b93960a91b604082015260600190565b6000821982111561158b5761158b61161b565b500190565b6000826115ab57634e487b7160e01b81526012600452602481fd5b500490565b60008160001904831182151516156115ca576115ca61161b565b500290565b6000828210156115e1576115e161161b565b500390565b600181811c908216806115fa57607f821691505b60208210811415610cac57634e487b7160e01b600052602260045260246000fd5b634e487b7160e01b600052601160045260246000fd5b6001600160a01b038116811461083b57600080fdfea26469706673582212200f81c4491e82cf806d27d925a050d104985e8a2323c1e5d16e887e10321eee7364736f6c63430008030033",
  "linkReferences": {},
  "deployedLinkReferences": {}
}