{
  "_format": "hh-sol-artifact-1",
  "contractName": "Vader",
  "sourceName": "contracts/Vader.sol",
  "abi": [
    {
      "inputs": [],
      "stateMutability": "nonpayable",
      "type": "constructor"
    },
    {
      "anonymous": false,
      "inputs": [
        {
          "indexed": true,
          "internalType": "address",
          "name": "owner",
          "type": "address"
        },
        {
          "indexed": true,
          "internalType": "address",
          "name": "spender",
          "type": "address"
        },
        {
          "indexed": false,
          "internalType": "uint256",
          "name": "value",
          "type": "uint256"
        }
      ],
      "name": "Approval",
      "type": "event"
    },
    {
      "anonymous": false,
      "inputs": [
        {
          "indexed": false,
          "internalType": "uint256",
          "name": "currentEra",
          "type": "uint256"
        },
        {
          "indexed": false,
          "internalType": "uint256",
          "name": "nextEraTime",
          "type": "uint256"
        },
        {
          "indexed": false,
          "internalType": "uint256",
          "name": "emission",
          "type": "uint256"
        }
      ],
      "name": "NewEra",
      "type": "event"
    },
    {
      "anonymous": false,
      "inputs": [
        {
          "indexed": true,
          "internalType": "address",
          "name": "from",
          "type": "address"
        },
        {
          "indexed": true,
          "internalType": "address",
          "name": "to",
          "type": "address"
        },
        {
          "indexed": false,
          "internalType": "uint256",
          "name": "value",
          "type": "uint256"
        }
      ],
      "name": "Transfer",
      "type": "event"
    },
    {
      "inputs": [],
      "name": "DAO",
      "outputs": [
        {
          "internalType": "address",
          "name": "",
          "type": "address"
        }
      ],
      "stateMutability": "view",
      "type": "function"
    },
    {
      "inputs": [
        {
          "internalType": "address",
          "name": "owner",
          "type": "address"
        },
        {
          "internalType": "address",
          "name": "spender",
          "type": "address"
        }
      ],
      "name": "allowance",
      "outputs": [
        {
          "internalType": "uint256",
          "name": "",
          "type": "uint256"
        }
      ],
      "stateMutability": "view",
      "type": "function"
    },
    {
      "inputs": [
        {
          "internalType": "address",
          "name": "spender",
          "type": "address"
        },
        {
          "internalType": "uint256",
          "name": "amount",
          "type": "uint256"
        }
      ],
      "name": "approve",
      "outputs": [
        {
          "internalType": "bool",
          "name": "",
          "type": "bool"
        }
      ],
      "stateMutability": "nonpayable",
      "type": "function"
    },
    {
      "inputs": [
        {
          "internalType": "address",
          "name": "account",
          "type": "address"
        }
      ],
      "name": "balanceOf",
      "outputs": [
        {
          "internalType": "uint256",
          "name": "",
          "type": "uint256"
        }
      ],
      "stateMutability": "view",
      "type": "function"
    },
    {
      "inputs": [],
      "name": "baseline",
      "outputs": [
        {
          "internalType": "uint256",
          "name": "",
          "type": "uint256"
        }
      ],
      "stateMutability": "view",
      "type": "function"
    },
    {
      "inputs": [
        {
          "internalType": "uint256",
          "name": "amount",
          "type": "uint256"
        }
      ],
      "name": "burn",
      "outputs": [],
      "stateMutability": "nonpayable",
      "type": "function"
    },
    {
      "inputs": [],
      "name": "burnAddress",
      "outputs": [
        {
          "internalType": "address",
          "name": "",
          "type": "address"
        }
      ],
      "stateMutability": "view",
      "type": "function"
    },
    {
      "inputs": [
        {
          "internalType": "address",
          "name": "account",
          "type": "address"
        },
        {
          "internalType": "uint256",
          "name": "amount",
          "type": "uint256"
        }
      ],
      "name": "burnFrom",
      "outputs": [],
      "stateMutability": "nonpayable",
      "type": "function"
    },
    {
      "inputs": [
        {
          "internalType": "address",
          "name": "newDAO",
          "type": "address"
        }
      ],
      "name": "changeDAO",
      "outputs": [],
      "stateMutability": "nonpayable",
      "type": "function"
    },
    {
      "inputs": [],
      "name": "conversionFactor",
      "outputs": [
        {
          "internalType": "uint256",
          "name": "",
          "type": "uint256"
        }
      ],
      "stateMutability": "view",
      "type": "function"
    },
    {
      "inputs": [],
      "name": "currentEra",
      "outputs": [
        {
          "internalType": "uint256",
          "name": "",
          "type": "uint256"
        }
      ],
      "stateMutability": "view",
      "type": "function"
    },
    {
      "inputs": [],
      "name": "decimals",
      "outputs": [
        {
          "internalType": "uint8",
          "name": "",
          "type": "uint8"
        }
      ],
      "stateMutability": "view",
      "type": "function"
    },
    {
      "inputs": [],
      "name": "emissionCurve",
      "outputs": [
        {
          "internalType": "uint256",
          "name": "",
          "type": "uint256"
        }
      ],
      "stateMutability": "view",
      "type": "function"
    },
    {
      "inputs": [],
      "name": "emitting",
      "outputs": [
        {
          "internalType": "bool",
          "name": "",
          "type": "bool"
        }
      ],
      "stateMutability": "view",
      "type": "function"
    },
    {
      "inputs": [],
      "name": "feeOnTransfer",
      "outputs": [
        {
          "internalType": "uint256",
          "name": "",
          "type": "uint256"
        }
      ],
      "stateMutability": "view",
      "type": "function"
    },
    {
      "inputs": [],
      "name": "flipEmissions",
      "outputs": [],
      "stateMutability": "nonpayable",
      "type": "function"
    },
    {
      "inputs": [],
      "name": "flipMinting",
      "outputs": [],
      "stateMutability": "nonpayable",
      "type": "function"
    },
    {
      "inputs": [],
      "name": "getDailyEmission",
      "outputs": [
        {
          "internalType": "uint256",
          "name": "",
          "type": "uint256"
        }
      ],
      "stateMutability": "view",
      "type": "function"
    },
    {
      "inputs": [
        {
          "internalType": "address",
          "name": "_dao",
          "type": "address"
        }
      ],
      "name": "init",
      "outputs": [],
      "stateMutability": "nonpayable",
      "type": "function"
    },
    {
      "inputs": [],
      "name": "isMature",
      "outputs": [
        {
          "internalType": "bool",
          "name": "",
          "type": "bool"
        }
      ],
      "stateMutability": "view",
      "type": "function"
    },
    {
      "inputs": [],
      "name": "maxSupply",
      "outputs": [
        {
          "internalType": "uint256",
          "name": "",
          "type": "uint256"
        }
      ],
      "stateMutability": "view",
      "type": "function"
    },
    {
      "inputs": [],
      "name": "minting",
      "outputs": [
        {
          "internalType": "bool",
          "name": "",
          "type": "bool"
        }
      ],
      "stateMutability": "view",
      "type": "function"
    },
    {
      "inputs": [],
      "name": "name",
      "outputs": [
        {
          "internalType": "string",
          "name": "",
          "type": "string"
        }
      ],
      "stateMutability": "view",
      "type": "function"
    },
    {
      "inputs": [],
      "name": "nextEraTime",
      "outputs": [
        {
          "internalType": "uint256",
          "name": "",
          "type": "uint256"
        }
      ],
      "stateMutability": "view",
      "type": "function"
    },
    {
      "inputs": [],
      "name": "purgeDAO",
      "outputs": [],
      "stateMutability": "nonpayable",
      "type": "function"
    },
    {
      "inputs": [],
      "name": "redeem",
      "outputs": [
        {
          "internalType": "uint256",
          "name": "redeemAmount",
          "type": "uint256"
        }
      ],
      "stateMutability": "nonpayable",
      "type": "function"
    },
    {
      "inputs": [
        {
          "internalType": "address",
          "name": "member",
          "type": "address"
        }
      ],
      "name": "redeemToMember",
      "outputs": [
        {
          "internalType": "uint256",
          "name": "redeemAmount",
          "type": "uint256"
        }
      ],
      "stateMutability": "nonpayable",
      "type": "function"
    },
    {
      "inputs": [],
      "name": "secondsPerEra",
      "outputs": [
        {
          "internalType": "uint256",
          "name": "",
          "type": "uint256"
        }
      ],
      "stateMutability": "view",
      "type": "function"
    },
    {
      "inputs": [
        {
          "internalType": "uint256",
          "name": "newEra",
          "type": "uint256"
        },
        {
          "internalType": "uint256",
          "name": "newCurve",
          "type": "uint256"
        }
      ],
      "name": "setParams",
      "outputs": [],
      "stateMutability": "nonpayable",
      "type": "function"
    },
    {
      "inputs": [],
      "name": "symbol",
      "outputs": [
        {
          "internalType": "string",
          "name": "",
          "type": "string"
        }
      ],
      "stateMutability": "view",
      "type": "function"
    },
    {
      "inputs": [],
      "name": "totalSupply",
      "outputs": [
        {
          "internalType": "uint256",
          "name": "",
          "type": "uint256"
        }
      ],
      "stateMutability": "view",
      "type": "function"
    },
    {
      "inputs": [
        {
          "internalType": "address",
          "name": "recipient",
          "type": "address"
        },
        {
          "internalType": "uint256",
          "name": "amount",
          "type": "uint256"
        }
      ],
      "name": "transfer",
      "outputs": [
        {
          "internalType": "bool",
          "name": "",
          "type": "bool"
        }
      ],
      "stateMutability": "nonpayable",
      "type": "function"
    },
    {
      "inputs": [
        {
          "internalType": "address",
          "name": "sender",
          "type": "address"
        },
        {
          "internalType": "address",
          "name": "recipient",
          "type": "address"
        },
        {
          "internalType": "uint256",
          "name": "amount",
          "type": "uint256"
        }
      ],
      "name": "transferFrom",
      "outputs": [
        {
          "internalType": "bool",
          "name": "",
          "type": "bool"
        }
      ],
      "stateMutability": "nonpayable",
      "type": "function"
    },
    {
      "inputs": [
        {
          "internalType": "address",
          "name": "recipient",
          "type": "address"
        },
        {
          "internalType": "uint256",
          "name": "amount",
          "type": "uint256"
        }
      ],
      "name": "transferTo",
      "outputs": [
        {
          "internalType": "bool",
          "name": "",
          "type": "bool"
        }
      ],
      "stateMutability": "nonpayable",
      "type": "function"
    },
    {
      "inputs": [
        {
          "internalType": "uint256",
          "name": "amount",
          "type": "uint256"
        }
      ],
      "name": "upgrade",
      "outputs": [],
      "stateMutability": "nonpayable",
      "type": "function"
    }
  ],
  "bytecode": "0x608060405234801561001057600080fd5b506001600681905560058190556100279042610034565b600755600a600455610058565b6000821982111561005357634e487b7160e01b81526011600452602481fd5b500190565b61176b806100676000396000f3fe608060405234801561001057600080fd5b50600436106102115760003560e01c806370d5ae0511610125578063ae4e7fdf116100ad578063c91b6b461161007c578063c91b6b461461047b578063d5abeb0114610483578063dd62ed3e1461048b578063f293e675146104c4578063fe1fa8fa146104cc57610211565b8063ae4e7fdf14610445578063be040fb01461044d578063c0324c7714610455578063c30a0ce71461046857610211565b8063973628f6116100f4578063973628f61461040557806398fabd3a1461040e5780639a67759b14610421578063a9059cbb1461042a578063ab2637af1461043d57610211565b806370d5ae051461038957806379cc6790146103bc5780637dc2268c146103cf57806395d89b41146103e157610211565b806323b872dd116101a857806342966c681161017757806342966c681461032857806345977d031461033b578063602631ef1461034e5780636b92a3b61461035757806370a082311461036057610211565b806323b872dd146102e05780632ccb1b30146102f35780632deaa11614610306578063313ce5671461030e57610211565b80630fa1eeab116101e45780630fa1eeab146102a657806318160ddd146102af57806319ab453c146102b85780631d007f5f146102cd57610211565b806306fdde03146102165780630781f4d21461025f578063090bbb011461027c578063095ea7b314610293575b600080fd5b610249604051806040016040528060148152602001732b20a222a910282927aa27a1a7a6102a27a5a2a760611b81525081565b6040516102569190611514565b60405180910390f35b60035461026c9060ff1681565b6040519015158152602001610256565b61028560075481565b604051908152602001610256565b61026c6102a1366004611478565b6104d4565b61028560085481565b61028560005481565b6102cb6102c63660046113c8565b6104ea565b005b6102cb6102db3660046113c8565b610519565b61026c6102ee366004611438565b6105b2565b61026c610301366004611478565b610632565b6102cb61063f565b610316601281565b60405160ff9091168152602001610256565b6102cb6103363660046114c3565b610686565b6102cb6103493660046114c3565b610690565b6102856103e881565b61028560055481565b61028561036e3660046113c8565b6001600160a01b031660009081526001602052604090205490565b6103a473011101100110000101101100011101010110010181565b6040516001600160a01b039091168152602001610256565b6102cb6103ca366004611478565b610752565b60035461026c90610100900460ff1681565b610249604051806040016040528060058152602001642b20a222a960d91b81525081565b61028560065481565b6009546103a4906001600160a01b031681565b61028560045481565b61026c610438366004611478565b61079d565b6102856107aa565b61026c6107c7565b610285610846565b6102cb6104633660046114f3565b610851565b6102856104763660046113c8565b610886565b6102cb610a8f565b610285610acb565b610285610499366004611400565b6001600160a01b03918216600090815260026020908152604080832093909416825291909152205490565b610285610af0565b6102cb610bba565b60006104e1338484610bf8565b50600192915050565b6009546001600160a01b031661051657600980546001600160a01b0319166001600160a01b0383161790555b50565b6009546001600160a01b0316331461054c5760405162461bcd60e51b815260040161054390611567565b60405180910390fd5b6001600160a01b0381166105905760405162461bcd60e51b815260206004820152600b60248201526a30b2323932b9b99032b93960a91b6044820152606401610543565b600980546001600160a01b0319166001600160a01b0392909216919091179055565b60006105bf848484610cd8565b6001600160a01b03841660009081526002602090815260408083203384529091529020546000191115610627576001600160a01b0384166000908152600260209081526040808320338085529252909120546106279186916106229086906116f3565b610bf8565b5060015b9392505050565b60006104e1328484610cd8565b6009546001600160a01b031633146106695760405162461bcd60e51b815260040161054390611567565b6003805461ff001981166101009182900460ff1615909102179055565b6105163382610ec5565b610698610f94565b6040516323b872dd60e01b81523360048201527301110110011000010110110001110101011001016024820152604481018390526001600160a01b0391909116906323b872dd90606401602060405180830381600087803b1580156106fc57600080fd5b505af1158015610710573d6000803e3d6000fd5b505050506040513d601f19601f8201168201806040525081019061073491906114a3565b61073d57600080fd5b6105163361074d6103e8846116d4565b611011565b6001600160a01b03821660009081526002602090815260408083203384529091528120546107819083906116f3565b905061078e833383610bf8565b6107988383610ec5565b505050565b60006104e1338484610cd8565b6107b66012600a611603565b6107c490633b9aca006116d4565b81565b60006107d1611142565b6001600160a01b031663ae4e7fdf6040518163ffffffff1660e01b815260040160206040518083038186803b15801561080957600080fd5b505afa15801561081d573d6000803e3d6000fd5b505050506040513d601f19601f8201168201806040525081019061084191906114a3565b905090565b600061084133610886565b6009546001600160a01b0316331461087b5760405162461bcd60e51b815260040161054390611567565b600591909155600455565b60006108906107c7565b6108c75760405162461bcd60e51b815260206004820152600860248201526709cde40ccd8c2e6d60c31b6044820152606401610543565b600354610100900460ff1661090c5760405162461bcd60e51b815260206004820152600b60248201526a6e6f74206d696e74696e6760a81b6044820152606401610543565b6000610916611142565b6040516370a0823160e01b81523060048201526001600160a01b0391909116906370a082319060240160206040518083038186803b15801561095757600080fd5b505afa15801561096b573d6000803e3d6000fd5b505050506040513d601f19601f8201168201806040525081019061098f91906114db565b9050610999611142565b6001600160a01b03166342966c68826040518263ffffffff1660e01b81526004016109c691815260200190565b600060405180830381600087803b1580156109e057600080fd5b505af11580156109f4573d6000803e3d6000fd5b50505050610a00611187565b6001600160a01b0316636cc06ded826040518263ffffffff1660e01b8152600401610a2d91815260200190565b60206040518083038186803b158015610a4557600080fd5b505afa158015610a59573d6000803e3d6000fd5b505050506040513d601f19601f82011682018060405250810190610a7d91906114db565b9150610a898383611011565b50919050565b6009546001600160a01b03163314610ab95760405162461bcd60e51b815260040161054390611567565b600980546001600160a01b0319169055565b610ad76012600a611603565b610ae590633b9aca006116d4565b6107c49060026116d4565b600080610aff6012600a611603565b610b0d90633b9aca006116d4565b60005411610b7257610b216012600a611603565b610b2f90633b9aca006116d4565b600054610b3e6012600a611603565b610b4c90633b9aca006116d4565b610b579060026116d4565b610b6191906116d4565b610b6b919061159d565b9050610b9a565b610b7e6012600a611603565b610b8c90633b9aca006116d4565b610b979060026116d4565b90505b600454600054610baa90836116f3565b610bb4919061159d565b91505090565b6009546001600160a01b03163314610be45760405162461bcd60e51b815260040161054390611567565b6003805460ff19811660ff90911615179055565b6001600160a01b038316610c375760405162461bcd60e51b815260206004820152600660248201526539b2b73232b960d11b6044820152606401610543565b6001600160a01b038216610c775760405162461bcd60e51b815260206004820152600760248201526639b832b73232b960c91b6044820152606401610543565b6001600160a01b0383811660008181526002602090815260408083209487168084529482529182902085905590518481527f8c5be1e5ebec7d5bd14f71427d1e84f3dd0314c0f7b2291e5b200ac8c7c3b925910160405180910390a3505050565b6001600160a01b038316610d175760405162461bcd60e51b815260206004820152600660248201526539b2b73232b960d11b6044820152606401610543565b6001600160a01b038216301415610d5c5760405162461bcd60e51b81526020600482015260096024820152681c9958da5c1a595b9d60ba1b6044820152606401610543565b6001600160a01b03831660009081526001602052604081208054839290610d849084906116f3565b9091555060009050610d946111cc565b6001600160a01b031663714270ab600854846040518363ffffffff1660e01b8152600401610dcc929190918252602082015260400190565b60206040518083038186803b158015610de457600080fd5b505afa158015610df8573d6000803e3d6000fd5b505050506040513d601f19601f82011682018060405250810190610e1c91906114db565b9050818111610e3b57610e2f81836116f3565b9150610e3b8482610ec5565b6001600160a01b03831660009081526001602052604081208054849290610e63908490611585565b92505081905550826001600160a01b0316846001600160a01b03167fddf252ad1be2c89b69c2b068fc378daa952ba7f163c4a11628f55a4df523b3ef84604051610eaf91815260200190565b60405180910390a3610ebf611211565b50505050565b6001600160a01b038216610f095760405162461bcd60e51b815260206004820152600b60248201526a30b2323932b9b99032b93960a91b6044820152606401610543565b6001600160a01b03821660009081526001602052604081208054839290610f319084906116f3565b9250508190555080600080828254610f4991906116f3565b90915550506040518181526000906001600160a01b038416907fddf252ad1be2c89b69c2b068fc378daa952ba7f163c4a11628f55a4df523b3ef906020015b60405180910390a35050565b600954604080516304c4d46b60e41b815290516000926001600160a01b031691634c4d46b0916004808301926020929190829003018186803b158015610fd957600080fd5b505afa158015610fed573d6000803e3d6000fd5b505050506040513d601f19601f8201168201806040525081019061084191906113e4565b6001600160a01b0382166110535760405162461bcd60e51b81526020600482015260096024820152681c9958da5c1a595b9d60ba1b6044820152606401610543565b61105f6012600a611603565b61106d90633b9aca006116d4565b6110789060026116d4565b816000546110869190611585565b11156110c15760005461109b6012600a611603565b6110a990633b9aca006116d4565b6110b49060026116d4565b6110be91906116f3565b90505b806000808282546110d29190611585565b90915550506001600160a01b038216600090815260016020526040812080548392906110ff908490611585565b90915550506040518181526001600160a01b038316906000907fddf252ad1be2c89b69c2b068fc378daa952ba7f163c4a11628f55a4df523b3ef90602001610f88565b60095460408051637161d82360e11b815290516000926001600160a01b03169163e2c3b046916004808301926020929190829003018186803b158015610fd957600080fd5b6009546040805163197f3d9360e11b815290516000926001600160a01b0316916332fe7b26916004808301926020929190829003018186803b158015610fd957600080fd5b60095460408051637b0e5c4560e01b815290516000926001600160a01b031691637b0e5c45916004808301926020929190829003018186803b158015610fd957600080fd5b6007544210158015611225575060035460ff165b156113815760016006600082825461123d9190611585565b909155505060055461124f9042611585565b600755600061125c610af0565b905061126f611269611383565b82611011565b6112776111cc565b6001600160a01b0316638b18b1156000546012600a6112969190611603565b6112a490633b9aca006116d4565b6112af9060026116d4565b6040516001600160e01b031960e085901b1681526004810192909252602482015260440160206040518083038186803b1580156112eb57600080fd5b505afa1580156112ff573d6000803e3d6000fd5b505050506040513d601f19601f8201168201806040525081019061132391906114db565b60088190556103e81015611338576103e86008555b60065460075460408051928352602083019190915281018290527f9d472bcf372fce01fd875c3296e8e5ae0a08bfca42dedac19e202271ce8f39c59060600160405180910390a1505b565b60095460408051634e96621b60e11b815290516000926001600160a01b031691639d2cc436916004808301926020929190829003018186803b158015610fd957600080fd5b6000602082840312156113d9578081fd5b813561062b81611720565b6000602082840312156113f5578081fd5b815161062b81611720565b60008060408385031215611412578081fd5b823561141d81611720565b9150602083013561142d81611720565b809150509250929050565b60008060006060848603121561144c578081fd5b833561145781611720565b9250602084013561146781611720565b929592945050506040919091013590565b6000806040838503121561148a578182fd5b823561149581611720565b946020939093013593505050565b6000602082840312156114b4578081fd5b8151801515811461062b578182fd5b6000602082840312156114d4578081fd5b5035919050565b6000602082840312156114ec578081fd5b5051919050565b60008060408385031215611505578182fd5b50508035926020909101359150565b6000602080835283518082850152825b8181101561154057858101830151858201604001528201611524565b818111156115515783604083870101525b50601f01601f1916929092016040019392505050565b6020808252600490820152632144414f60e01b604082015260600190565b600082198211156115985761159861170a565b500190565b6000826115b857634e487b7160e01b81526012600452602481fd5b500490565b80825b60018086116115cf57506115fa565b8187048211156115e1576115e161170a565b808616156115ee57918102915b9490941c9380026115c0565b94509492505050565b600061062b60001960ff85168460008261161f5750600161062b565b8161162c5750600061062b565b8160018114611642576002811461164c57611679565b600191505061062b565b60ff84111561165d5761165d61170a565b6001841b9150848211156116735761167361170a565b5061062b565b5060208310610133831016604e8410600b84101617156116ac575081810a838111156116a7576116a761170a565b61062b565b6116b984848460016115bd565b8086048211156116cb576116cb61170a565b02949350505050565b60008160001904831182151516156116ee576116ee61170a565b500290565b6000828210156117055761170561170a565b500390565b634e487b7160e01b600052601160045260246000fd5b6001600160a01b038116811461051657600080fdfea2646970667358221220cfadc6b872972bab3037cffa2f148086b6cb07b975e27fd7c050913ea9cff43c64736f6c63430008030033",
  "linkReferences": {},
  "deployedLinkReferences": {}
}