{
  "_format": "hh-sol-artifact-1",
  "contractName": "Vader",
  "sourceName": "contracts/Vader.sol",
  "abi": [
    {
      "inputs": [],
      "stateMutability": "nonpayable",
      "type": "constructor"
    },
    {
      "anonymous": false,
      "inputs": [
        {
          "indexed": true,
          "internalType": "address",
          "name": "owner",
          "type": "address"
        },
        {
          "indexed": true,
          "internalType": "address",
          "name": "spender",
          "type": "address"
        },
        {
          "indexed": false,
          "internalType": "uint256",
          "name": "value",
          "type": "uint256"
        }
      ],
      "name": "Approval",
      "type": "event"
    },
    {
      "anonymous": false,
      "inputs": [
        {
          "indexed": false,
          "internalType": "uint256",
          "name": "currentEra",
          "type": "uint256"
        },
        {
          "indexed": false,
          "internalType": "uint256",
          "name": "nextEraTime",
          "type": "uint256"
        },
        {
          "indexed": false,
          "internalType": "uint256",
          "name": "emission",
          "type": "uint256"
        }
      ],
      "name": "NewEra",
      "type": "event"
    },
    {
      "anonymous": false,
      "inputs": [
        {
          "indexed": true,
          "internalType": "address",
          "name": "from",
          "type": "address"
        },
        {
          "indexed": true,
          "internalType": "address",
          "name": "to",
          "type": "address"
        },
        {
          "indexed": false,
          "internalType": "uint256",
          "name": "value",
          "type": "uint256"
        }
      ],
      "name": "Transfer",
      "type": "event"
    },
    {
      "inputs": [],
      "name": "DAO",
      "outputs": [
        {
          "internalType": "address",
          "name": "",
          "type": "address"
        }
      ],
      "stateMutability": "view",
      "type": "function"
    },
    {
      "inputs": [],
      "name": "USDV",
      "outputs": [
        {
          "internalType": "address",
          "name": "",
          "type": "address"
        }
      ],
      "stateMutability": "view",
      "type": "function"
    },
    {
      "inputs": [],
      "name": "UTILS",
      "outputs": [
        {
          "internalType": "address",
          "name": "",
          "type": "address"
        }
      ],
      "stateMutability": "view",
      "type": "function"
    },
    {
      "inputs": [],
      "name": "VETHER",
      "outputs": [
        {
          "internalType": "address",
          "name": "",
          "type": "address"
        }
      ],
      "stateMutability": "view",
      "type": "function"
    },
    {
      "inputs": [
        {
          "internalType": "address",
          "name": "owner",
          "type": "address"
        },
        {
          "internalType": "address",
          "name": "spender",
          "type": "address"
        }
      ],
      "name": "allowance",
      "outputs": [
        {
          "internalType": "uint256",
          "name": "",
          "type": "uint256"
        }
      ],
      "stateMutability": "view",
      "type": "function"
    },
    {
      "inputs": [
        {
          "internalType": "address",
          "name": "spender",
          "type": "address"
        },
        {
          "internalType": "uint256",
          "name": "amount",
          "type": "uint256"
        }
      ],
      "name": "approve",
      "outputs": [
        {
          "internalType": "bool",
          "name": "",
          "type": "bool"
        }
      ],
      "stateMutability": "nonpayable",
      "type": "function"
    },
    {
      "inputs": [
        {
          "internalType": "address",
          "name": "account",
          "type": "address"
        }
      ],
      "name": "balanceOf",
      "outputs": [
        {
          "internalType": "uint256",
          "name": "",
          "type": "uint256"
        }
      ],
      "stateMutability": "view",
      "type": "function"
    },
    {
      "inputs": [],
      "name": "baseline",
      "outputs": [
        {
          "internalType": "uint256",
          "name": "",
          "type": "uint256"
        }
      ],
      "stateMutability": "view",
      "type": "function"
    },
    {
      "inputs": [
        {
          "internalType": "uint256",
          "name": "amount",
          "type": "uint256"
        }
      ],
      "name": "burn",
      "outputs": [],
      "stateMutability": "nonpayable",
      "type": "function"
    },
    {
      "inputs": [],
      "name": "burnAddress",
      "outputs": [
        {
          "internalType": "address",
          "name": "",
          "type": "address"
        }
      ],
      "stateMutability": "view",
      "type": "function"
    },
    {
      "inputs": [
        {
          "internalType": "address",
          "name": "account",
          "type": "address"
        },
        {
          "internalType": "uint256",
          "name": "amount",
          "type": "uint256"
        }
      ],
      "name": "burnFrom",
      "outputs": [],
      "stateMutability": "nonpayable",
      "type": "function"
    },
    {
      "inputs": [
        {
          "internalType": "address",
          "name": "newDAO",
          "type": "address"
        }
      ],
      "name": "changeDAO",
      "outputs": [],
      "stateMutability": "nonpayable",
      "type": "function"
    },
    {
      "inputs": [
        {
          "internalType": "address",
          "name": "newUTILS",
          "type": "address"
        }
      ],
      "name": "changeUTILS",
      "outputs": [],
      "stateMutability": "nonpayable",
      "type": "function"
    },
    {
      "inputs": [],
      "name": "conversionFactor",
      "outputs": [
        {
          "internalType": "uint256",
          "name": "",
          "type": "uint256"
        }
      ],
      "stateMutability": "view",
      "type": "function"
    },
    {
      "inputs": [],
      "name": "currentEra",
      "outputs": [
        {
          "internalType": "uint256",
          "name": "",
          "type": "uint256"
        }
      ],
      "stateMutability": "view",
      "type": "function"
    },
    {
      "inputs": [],
      "name": "decimals",
      "outputs": [
        {
          "internalType": "uint256",
          "name": "",
          "type": "uint256"
        }
      ],
      "stateMutability": "view",
      "type": "function"
    },
    {
      "inputs": [],
      "name": "emissionCurve",
      "outputs": [
        {
          "internalType": "uint256",
          "name": "",
          "type": "uint256"
        }
      ],
      "stateMutability": "view",
      "type": "function"
    },
    {
      "inputs": [],
      "name": "emitting",
      "outputs": [
        {
          "internalType": "bool",
          "name": "",
          "type": "bool"
        }
      ],
      "stateMutability": "view",
      "type": "function"
    },
    {
      "inputs": [],
      "name": "feeOnTransfer",
      "outputs": [
        {
          "internalType": "uint256",
          "name": "",
          "type": "uint256"
        }
      ],
      "stateMutability": "view",
      "type": "function"
    },
    {
      "inputs": [],
      "name": "flipEmissions",
      "outputs": [],
      "stateMutability": "nonpayable",
      "type": "function"
    },
    {
      "inputs": [],
      "name": "flipMinting",
      "outputs": [],
      "stateMutability": "nonpayable",
      "type": "function"
    },
    {
      "inputs": [],
      "name": "getDailyEmission",
      "outputs": [
        {
          "internalType": "uint256",
          "name": "",
          "type": "uint256"
        }
      ],
      "stateMutability": "view",
      "type": "function"
    },
    {
      "inputs": [
        {
          "internalType": "address",
          "name": "_vether",
          "type": "address"
        },
        {
          "internalType": "address",
          "name": "_USDV",
          "type": "address"
        },
        {
          "internalType": "address",
          "name": "_utils",
          "type": "address"
        }
      ],
      "name": "init",
      "outputs": [],
      "stateMutability": "nonpayable",
      "type": "function"
    },
    {
      "inputs": [],
      "name": "isMature",
      "outputs": [
        {
          "internalType": "bool",
          "name": "",
          "type": "bool"
        }
      ],
      "stateMutability": "view",
      "type": "function"
    },
    {
      "inputs": [],
      "name": "maxSupply",
      "outputs": [
        {
          "internalType": "uint256",
          "name": "",
          "type": "uint256"
        }
      ],
      "stateMutability": "view",
      "type": "function"
    },
    {
      "inputs": [],
      "name": "minting",
      "outputs": [
        {
          "internalType": "bool",
          "name": "",
          "type": "bool"
        }
      ],
      "stateMutability": "view",
      "type": "function"
    },
    {
      "inputs": [],
      "name": "name",
      "outputs": [
        {
          "internalType": "string",
          "name": "",
          "type": "string"
        }
      ],
      "stateMutability": "view",
      "type": "function"
    },
    {
      "inputs": [],
      "name": "nextEraTime",
      "outputs": [
        {
          "internalType": "uint256",
          "name": "",
          "type": "uint256"
        }
      ],
      "stateMutability": "view",
      "type": "function"
    },
    {
      "inputs": [],
      "name": "purgeDAO",
      "outputs": [],
      "stateMutability": "nonpayable",
      "type": "function"
    },
    {
      "inputs": [],
      "name": "redeem",
      "outputs": [
        {
          "internalType": "uint256",
          "name": "redeemAmount",
          "type": "uint256"
        }
      ],
      "stateMutability": "nonpayable",
      "type": "function"
    },
    {
      "inputs": [
        {
          "internalType": "address",
          "name": "member",
          "type": "address"
        }
      ],
      "name": "redeemToMember",
      "outputs": [
        {
          "internalType": "uint256",
          "name": "redeemAmount",
          "type": "uint256"
        }
      ],
      "stateMutability": "nonpayable",
      "type": "function"
    },
    {
      "inputs": [],
      "name": "rewardAddress",
      "outputs": [
        {
          "internalType": "address",
          "name": "",
          "type": "address"
        }
      ],
      "stateMutability": "view",
      "type": "function"
    },
    {
      "inputs": [],
      "name": "secondsPerEra",
      "outputs": [
        {
          "internalType": "uint256",
          "name": "",
          "type": "uint256"
        }
      ],
      "stateMutability": "view",
      "type": "function"
    },
    {
      "inputs": [
        {
          "internalType": "uint256",
          "name": "newEra",
          "type": "uint256"
        },
        {
          "internalType": "uint256",
          "name": "newCurve",
          "type": "uint256"
        }
      ],
      "name": "setParams",
      "outputs": [],
      "stateMutability": "nonpayable",
      "type": "function"
    },
    {
      "inputs": [
        {
          "internalType": "address",
          "name": "newAddress",
          "type": "address"
        }
      ],
      "name": "setRewardAddress",
      "outputs": [],
      "stateMutability": "nonpayable",
      "type": "function"
    },
    {
      "inputs": [],
      "name": "symbol",
      "outputs": [
        {
          "internalType": "string",
          "name": "",
          "type": "string"
        }
      ],
      "stateMutability": "view",
      "type": "function"
    },
    {
      "inputs": [],
      "name": "totalSupply",
      "outputs": [
        {
          "internalType": "uint256",
          "name": "",
          "type": "uint256"
        }
      ],
      "stateMutability": "view",
      "type": "function"
    },
    {
      "inputs": [
        {
          "internalType": "address",
          "name": "recipient",
          "type": "address"
        },
        {
          "internalType": "uint256",
          "name": "amount",
          "type": "uint256"
        }
      ],
      "name": "transfer",
      "outputs": [
        {
          "internalType": "bool",
          "name": "",
          "type": "bool"
        }
      ],
      "stateMutability": "nonpayable",
      "type": "function"
    },
    {
      "inputs": [
        {
          "internalType": "address",
          "name": "sender",
          "type": "address"
        },
        {
          "internalType": "address",
          "name": "recipient",
          "type": "address"
        },
        {
          "internalType": "uint256",
          "name": "amount",
          "type": "uint256"
        }
      ],
      "name": "transferFrom",
      "outputs": [
        {
          "internalType": "bool",
          "name": "",
          "type": "bool"
        }
      ],
      "stateMutability": "nonpayable",
      "type": "function"
    },
    {
      "inputs": [
        {
          "internalType": "address",
          "name": "recipient",
          "type": "address"
        },
        {
          "internalType": "uint256",
          "name": "amount",
          "type": "uint256"
        }
      ],
      "name": "transferTo",
      "outputs": [
        {
          "internalType": "bool",
          "name": "",
          "type": "bool"
        }
      ],
      "stateMutability": "nonpayable",
      "type": "function"
    },
    {
      "inputs": [
        {
          "internalType": "uint256",
          "name": "amount",
          "type": "uint256"
        }
      ],
      "name": "upgrade",
      "outputs": [],
      "stateMutability": "nonpayable",
      "type": "function"
    }
  ],
  "bytecode": "0x60806040523480156200001157600080fd5b506040805180820190915260148082527f56414445522050524f544f434f4c20544f4b454e0000000000000000000000006020909201918252620000589160009162000127565b50604080518082019091526005808252642b20a222a960d91b6020909201918252620000879160019162000127565b50601260028190556200009c90600a62000235565b620000ac90633b9aca006200032a565b60088190556000600355620000c39060026200032a565b600a556103e86007556001600c819055600b819055620000e49042620001cd565b600d55610384600955601480546001600160a01b03199081163317909155601280549091167301110110011000010110110001110101011001011790556200039f565b82805462000135906200034c565b90600052602060002090601f016020900481019282620001595760008555620001a4565b82601f106200017457805160ff1916838001178555620001a4565b82800160010185558215620001a4579182015b82811115620001a457825182559160200191906001019062000187565b50620001b2929150620001b6565b5090565b5b80821115620001b25760008155600101620001b7565b60008219821115620001e357620001e362000389565b500190565b80825b6001808611620001fc57506200022c565b81870482111562000211576200021162000389565b808616156200021f57918102915b9490941c938002620001eb565b94509492505050565b60006200024660001984846200024d565b9392505050565b6000826200025e5750600162000246565b816200026d5750600062000246565b81600181146200028657600281146200029157620002c5565b600191505062000246565b60ff841115620002a557620002a562000389565b6001841b915084821115620002be57620002be62000389565b5062000246565b5060208310610133831016604e8410600b8410161715620002fd575081810a83811115620002f757620002f762000389565b62000246565b6200030c8484846001620001e8565b80860482111562000321576200032162000389565b02949350505050565b600081600019048311821515161562000347576200034762000389565b500290565b600181811c908216806200036157607f821691505b602082108114156200038357634e487b7160e01b600052602260045260246000fd5b50919050565b634e487b7160e01b600052601160045260246000fd5b61163a80620003af6000396000f3fe608060405234801561001057600080fd5b50600436106102535760003560e01c806370d5ae0511610146578063ab2637af116100c3578063c91b6b4611610087578063c91b6b46146104ad578063d5abeb01146104b5578063dd62ed3e146104be578063e2c3b046146104f7578063f293e6751461050a578063fe1fa8fa1461051257610253565b8063ab2637af1461046e578063ae4e7fdf14610477578063be040fb01461047f578063c0324c7714610487578063c30a0ce71461049a57610253565b806395d89b411161010a57806395d89b411461042e578063973628f61461043657806398fabd3a1461043f5780639a67759b14610452578063a9059cbb1461045b57610253565b806370d5ae05146103cf57806379cc6790146103e25780637b0e5c45146103f55780637dc2268c146104085780638cf57cb91461041b57610253565b80632ccb1b30116101d45780634c4d46b0116101985780634c4d46b01461036c5780635e00e67914610397578063602631ef146103aa5780636b92a3b6146103b357806370a08231146103bc57610253565b80632ccb1b30146103225780632deaa11614610335578063313ce5671461033d57806342966c681461034657806345977d031461035957610253565b806318160ddd1161021b57806318160ddd146102cb578063184b9559146102d457806319234334146102e95780631d007f5f146102fc57806323b872dd1461030f57610253565b806306fdde03146102585780630781f4d214610276578063090bbb0114610298578063095ea7b3146102af5780630fa1eeab146102c2575b600080fd5b61026061051a565b60405161026d919061149d565b60405180910390f35b60065461028890610100900460ff1681565b604051901515815260200161026d565b6102a1600d5481565b60405190815260200161026d565b6102886102bd366004611401565b6105a8565b6102a1600e5481565b6102a160035481565b6102e76102e2366004611377565b6105be565b005b6102e76102f7366004611300565b610626565b6102e761030a366004611300565b6106a1565b61028861031d3660046113c1565b610713565b610288610330366004611401565b610765565b6102e7610772565b6102a160025481565b6102e761035436600461144c565b6107d2565b6102e761036736600461144c565b6107df565b600f5461037f906001600160a01b031681565b6040516001600160a01b03909116815260200161026d565b6102e76103a5366004611300565b61088d565b6102a160075481565b6102a1600b5481565b6102a16103ca366004611300565b6108d9565b60125461037f906001600160a01b031681565b6102e76103f0366004611401565b6108f8565b60115461037f906001600160a01b031681565b6006546102889062010000900460ff1681565b60135461037f906001600160a01b031681565b610260610943565b6102a1600c5481565b60145461037f906001600160a01b031681565b6102a160095481565b610288610469366004611401565b610950565b6102a160085481565b61028861095d565b6102a16109df565b6102e761049536600461147c565b6109ea565b6102a16104a8366004611300565b610a1f565b6102e7610c61565b6102a1600a5481565b6102a16104cc36600461133f565b6001600160a01b03918216600090815260056020908152604080832093909416825291909152205490565b60105461037f906001600160a01b031681565b6102a1610c9d565b6102e7610cf4565b60008054610527906115a4565b80601f0160208091040260200160405190810160405280929190818152602001828054610553906115a4565b80156105a05780601f10610575576101008083540402835291602001916105a0565b820191906000526020600020905b81548152906001019060200180831161058357829003601f168201915b505050505081565b60006105b5338484610d4f565b50600192915050565b60065460ff16156105ce57600080fd5b6006805460ff19166001179055600f80546001600160a01b039485166001600160a01b031991821617909155601080549385169382168417905560118054929094169181169190911790925560138054909216179055565b6014546001600160a01b031633146106595760405162461bcd60e51b8152600401610650906114f0565b60405180910390fd5b6001600160a01b03811661067f5760405162461bcd60e51b815260040161065090611511565b601180546001600160a01b0319166001600160a01b0392909216919091179055565b6014546001600160a01b031633146106cb5760405162461bcd60e51b8152600401610650906114f0565b6001600160a01b0381166106f15760405162461bcd60e51b815260040161065090611511565b601480546001600160a01b0319166001600160a01b0392909216919091179055565b6000610720848484610e2f565b6001600160a01b03841660009081526005602090815260408083203380855292529091205461075b91869161075690869061158d565b610d4f565b5060019392505050565b60006105b5328484610e2f565b6014546001600160a01b0316331461079c5760405162461bcd60e51b8152600401610650906114f0565b60065462010000900460ff16156107be576006805462ff0000191690556107d0565b6006805462ff00001916620100001790555b565b6107dc3382611011565b50565b600f546012546040516323b872dd60e01b81523360048201526001600160a01b039182166024820152604481018490529116906323b872dd90606401602060405180830381600087803b15801561083557600080fd5b505af1158015610849573d6000803e3d6000fd5b505050506040513d601f19601f8201168201806040525081019061086d919061142c565b61087657600080fd5b6107dc3360075483610888919061156e565b6110c3565b6014546001600160a01b031633146108b75760405162461bcd60e51b8152600401610650906114f0565b601380546001600160a01b0319166001600160a01b0392909216919091179055565b6001600160a01b0381166000908152600460205260409020545b919050565b6001600160a01b038216600090815260056020908152604080832033845290915281205461092790839061158d565b9050610934833383610d4f565b61093e8383611011565b505050565b60018054610527906115a4565b60006105b5338484610e2f565b6010546040805163ae4e7fdf60e01b815290516000926001600160a01b03169163ae4e7fdf916004808301926020929190829003018186803b1580156109a257600080fd5b505afa1580156109b6573d6000803e3d6000fd5b505050506040513d601f19601f820116820180604052508101906109da919061142c565b905090565b60006109da33610a1f565b6014546001600160a01b03163314610a145760405162461bcd60e51b8152600401610650906114f0565b600b91909155600955565b6000610a2961095d565b610a605760405162461bcd60e51b815260206004820152600860248201526709cde40ccd8c2e6d60c31b6044820152606401610650565b60065462010000900460ff16156108f3576010546040516370a0823160e01b81523060048201526000916001600160a01b0316906370a082319060240160206040518083038186803b158015610ab557600080fd5b505afa158015610ac9573d6000803e3d6000fd5b505050506040513d601f19601f82011682018060405250810190610aed9190611464565b601054604051630852cd8d60e31b8152600481018390529192506001600160a01b0316906342966c6890602401600060405180830381600087803b158015610b3457600080fd5b505af1158015610b48573d6000803e3d6000fd5b50505050601060009054906101000a90046001600160a01b03166001600160a01b03166332fe7b266040518163ffffffff1660e01b815260040160206040518083038186803b158015610b9a57600080fd5b505afa158015610bae573d6000803e3d6000fd5b505050506040513d601f19601f82011682018060405250810190610bd29190611323565b6001600160a01b0316636cc06ded826040518263ffffffff1660e01b8152600401610bff91815260200190565b60206040518083038186803b158015610c1757600080fd5b505afa158015610c2b573d6000803e3d6000fd5b505050506040513d601f19601f82011682018060405250810190610c4f9190611464565b9150610c5b83836110c3565b50919050565b6014546001600160a01b03163314610c8b5760405162461bcd60e51b8152600401610650906114f0565b601480546001600160a01b0319169055565b60008060085460035411610ccf57600854600354600a54610cbe919061156e565b610cc8919061154e565b9050610cd4565b50600a545b600954600354610ce4908361158d565b610cee919061154e565b91505090565b6014546001600160a01b03163314610d1e5760405162461bcd60e51b8152600401610650906114f0565b600654610100900460ff1615610d3e576006805461ff00191690556107d0565b6006805461ff001916610100179055565b6001600160a01b038316610d8e5760405162461bcd60e51b815260206004820152600660248201526539b2b73232b960d11b6044820152606401610650565b6001600160a01b038216610dce5760405162461bcd60e51b815260206004820152600760248201526639b832b73232b960c91b6044820152606401610650565b6001600160a01b0383811660008181526005602090815260408083209487168084529482529182902085905590518481527f8c5be1e5ebec7d5bd14f71427d1e84f3dd0314c0f7b2291e5b200ac8c7c3b925910160405180910390a3505050565b6001600160a01b038316610e6e5760405162461bcd60e51b815260206004820152600660248201526539b2b73232b960d11b6044820152606401610650565b6001600160a01b038216301415610eb35760405162461bcd60e51b81526020600482015260096024820152681c9958da5c1a595b9d60ba1b6044820152606401610650565b6001600160a01b03831660009081526004602052604081208054839290610edb90849061158d565b9091555050601154600e5460405163714270ab60e01b81526004810191909152602481018390526000916001600160a01b03169063714270ab9060440160206040518083038186803b158015610f3057600080fd5b505afa158015610f44573d6000803e3d6000fd5b505050506040513d601f19601f82011682018060405250810190610f689190611464565b9050818111610f8757610f7b818361158d565b9150610f873382611011565b6001600160a01b03831660009081526004602052604081208054849290610faf908490611536565b92505081905550826001600160a01b0316846001600160a01b03167fddf252ad1be2c89b69c2b068fc378daa952ba7f163c4a11628f55a4df523b3ef84604051610ffb91815260200190565b60405180910390a361100b6111b0565b50505050565b6001600160a01b0382166110375760405162461bcd60e51b815260040161065090611511565b6001600160a01b0382166000908152600460205260408120805483929061105f90849061158d565b925050819055508060036000828254611078919061158d565b90915550506040518181526000906001600160a01b038416907fddf252ad1be2c89b69c2b068fc378daa952ba7f163c4a11628f55a4df523b3ef906020015b60405180910390a35050565b6001600160a01b0382166111055760405162461bcd60e51b81526020600482015260096024820152681c9958da5c1a595b9d60ba1b6044820152606401610650565b600a54816003546111169190611536565b1061112e57600354600a5461112b919061158d565b90505b80600360008282546111409190611536565b90915550506001600160a01b0382166000908152600460205260408120805483929061116d908490611536565b90915550506040518181526001600160a01b038316906000907fddf252ad1be2c89b69c2b068fc378daa952ba7f163c4a11628f55a4df523b3ef906020016110b7565b600d5442101580156111c95750600654610100900460ff165b156107d0576001600c60008282546111e19190611536565b9091555050600b546111f39042611536565b600d556000611200610c9d565b601354909150611219906001600160a01b0316826110c3565b601154600354600a54604051638b18b11560e01b8152600481019290925260248201526001600160a01b0390911690638b18b1159060440160206040518083038186803b15801561126957600080fd5b505afa15801561127d573d6000803e3d6000fd5b505050506040513d601f19601f820116820180604052508101906112a19190611464565b600e8190556103e810156112b6576103e8600e555b600c54600d5460408051928352602083019190915281018290527f9d472bcf372fce01fd875c3296e8e5ae0a08bfca42dedac19e202271ce8f39c59060600160405180910390a150565b600060208284031215611311578081fd5b813561131c816115ef565b9392505050565b600060208284031215611334578081fd5b815161131c816115ef565b60008060408385031215611351578081fd5b823561135c816115ef565b9150602083013561136c816115ef565b809150509250929050565b60008060006060848603121561138b578081fd5b8335611396816115ef565b925060208401356113a6816115ef565b915060408401356113b6816115ef565b809150509250925092565b6000806000606084860312156113d5578283fd5b83356113e0816115ef565b925060208401356113f0816115ef565b929592945050506040919091013590565b60008060408385031215611413578182fd5b823561141e816115ef565b946020939093013593505050565b60006020828403121561143d578081fd5b8151801515811461131c578182fd5b60006020828403121561145d578081fd5b5035919050565b600060208284031215611475578081fd5b5051919050565b6000806040838503121561148e578182fd5b50508035926020909101359150565b6000602080835283518082850152825b818110156114c9578581018301518582016040015282016114ad565b818111156114da5783604083870101525b50601f01601f1916929092016040019392505050565b6020808252600790820152664e6f742044414f60c81b604082015260600190565b6020808252600b908201526a30b2323932b9b99032b93960a91b604082015260600190565b60008219821115611549576115496115d9565b500190565b60008261156957634e487b7160e01b81526012600452602481fd5b500490565b6000816000190483118215151615611588576115886115d9565b500290565b60008282101561159f5761159f6115d9565b500390565b600181811c908216806115b857607f821691505b60208210811415610c5b57634e487b7160e01b600052602260045260246000fd5b634e487b7160e01b600052601160045260246000fd5b6001600160a01b03811681146107dc57600080fdfea26469706673582212208e3b016eab2eb2ac7794317da02433a5851e55b1cbd4342268f262c32eb6a1b064736f6c63430008030033",
  "linkReferences": {},
  "deployedLinkReferences": {}
}