{
  "_format": "hh-sol-artifact-1",
  "contractName": "Vader",
  "sourceName": "contracts/Vader.sol",
  "abi": [
    {
      "inputs": [],
      "stateMutability": "nonpayable",
      "type": "constructor"
    },
    {
      "anonymous": false,
      "inputs": [
        {
          "indexed": true,
          "internalType": "address",
          "name": "owner",
          "type": "address"
        },
        {
          "indexed": true,
          "internalType": "address",
          "name": "spender",
          "type": "address"
        },
        {
          "indexed": false,
          "internalType": "uint256",
          "name": "value",
          "type": "uint256"
        }
      ],
      "name": "Approval",
      "type": "event"
    },
    {
      "anonymous": false,
      "inputs": [
        {
          "indexed": false,
          "internalType": "uint256",
          "name": "currentEra",
          "type": "uint256"
        },
        {
          "indexed": false,
          "internalType": "uint256",
          "name": "nextEraTime",
          "type": "uint256"
        },
        {
          "indexed": false,
          "internalType": "uint256",
          "name": "emission",
          "type": "uint256"
        }
      ],
      "name": "NewEra",
      "type": "event"
    },
    {
      "anonymous": false,
      "inputs": [
        {
          "indexed": true,
          "internalType": "address",
          "name": "from",
          "type": "address"
        },
        {
          "indexed": true,
          "internalType": "address",
          "name": "to",
          "type": "address"
        },
        {
          "indexed": false,
          "internalType": "uint256",
          "name": "value",
          "type": "uint256"
        }
      ],
      "name": "Transfer",
      "type": "event"
    },
    {
      "inputs": [],
      "name": "DAO",
      "outputs": [
        {
          "internalType": "address",
          "name": "",
          "type": "address"
        }
      ],
      "stateMutability": "view",
      "type": "function"
    },
    {
      "inputs": [],
      "name": "USDV",
      "outputs": [
        {
          "internalType": "address",
          "name": "",
          "type": "address"
        }
      ],
      "stateMutability": "view",
      "type": "function"
    },
    {
      "inputs": [],
      "name": "UTILS",
      "outputs": [
        {
          "internalType": "address",
          "name": "",
          "type": "address"
        }
      ],
      "stateMutability": "view",
      "type": "function"
    },
    {
      "inputs": [],
      "name": "VETHER",
      "outputs": [
        {
          "internalType": "address",
          "name": "",
          "type": "address"
        }
      ],
      "stateMutability": "view",
      "type": "function"
    },
    {
      "inputs": [
        {
          "internalType": "address",
          "name": "owner",
          "type": "address"
        },
        {
          "internalType": "address",
          "name": "spender",
          "type": "address"
        }
      ],
      "name": "allowance",
      "outputs": [
        {
          "internalType": "uint256",
          "name": "",
          "type": "uint256"
        }
      ],
      "stateMutability": "view",
      "type": "function"
    },
    {
      "inputs": [
        {
          "internalType": "address",
          "name": "spender",
          "type": "address"
        },
        {
          "internalType": "uint256",
          "name": "amount",
          "type": "uint256"
        }
      ],
      "name": "approve",
      "outputs": [
        {
          "internalType": "bool",
          "name": "",
          "type": "bool"
        }
      ],
      "stateMutability": "nonpayable",
      "type": "function"
    },
    {
      "inputs": [
        {
          "internalType": "address",
          "name": "account",
          "type": "address"
        }
      ],
      "name": "balanceOf",
      "outputs": [
        {
          "internalType": "uint256",
          "name": "",
          "type": "uint256"
        }
      ],
      "stateMutability": "view",
      "type": "function"
    },
    {
      "inputs": [],
      "name": "baseline",
      "outputs": [
        {
          "internalType": "uint256",
          "name": "",
          "type": "uint256"
        }
      ],
      "stateMutability": "view",
      "type": "function"
    },
    {
      "inputs": [
        {
          "internalType": "uint256",
          "name": "amount",
          "type": "uint256"
        }
      ],
      "name": "burn",
      "outputs": [],
      "stateMutability": "nonpayable",
      "type": "function"
    },
    {
      "inputs": [],
      "name": "burnAddress",
      "outputs": [
        {
          "internalType": "address",
          "name": "",
          "type": "address"
        }
      ],
      "stateMutability": "view",
      "type": "function"
    },
    {
      "inputs": [
        {
          "internalType": "address",
          "name": "account",
          "type": "address"
        },
        {
          "internalType": "uint256",
          "name": "amount",
          "type": "uint256"
        }
      ],
      "name": "burnFrom",
      "outputs": [],
      "stateMutability": "nonpayable",
      "type": "function"
    },
    {
      "inputs": [
        {
          "internalType": "address",
          "name": "newDAO",
          "type": "address"
        }
      ],
      "name": "changeDAO",
      "outputs": [],
      "stateMutability": "nonpayable",
      "type": "function"
    },
    {
      "inputs": [
        {
          "internalType": "address",
          "name": "newUTILS",
          "type": "address"
        }
      ],
      "name": "changeUTILS",
      "outputs": [],
      "stateMutability": "nonpayable",
      "type": "function"
    },
    {
      "inputs": [],
      "name": "currentEra",
      "outputs": [
        {
          "internalType": "uint256",
          "name": "",
          "type": "uint256"
        }
      ],
      "stateMutability": "view",
      "type": "function"
    },
    {
      "inputs": [],
      "name": "decimals",
      "outputs": [
        {
          "internalType": "uint256",
          "name": "",
          "type": "uint256"
        }
      ],
      "stateMutability": "view",
      "type": "function"
    },
    {
      "inputs": [],
      "name": "emissionCurve",
      "outputs": [
        {
          "internalType": "uint256",
          "name": "",
          "type": "uint256"
        }
      ],
      "stateMutability": "view",
      "type": "function"
    },
    {
      "inputs": [],
      "name": "emitting",
      "outputs": [
        {
          "internalType": "bool",
          "name": "",
          "type": "bool"
        }
      ],
      "stateMutability": "view",
      "type": "function"
    },
    {
      "inputs": [
        {
          "internalType": "address",
          "name": "member",
          "type": "address"
        }
      ],
      "name": "exclude",
      "outputs": [],
      "stateMutability": "nonpayable",
      "type": "function"
    },
    {
      "inputs": [],
      "name": "excludeFee",
      "outputs": [
        {
          "internalType": "uint256",
          "name": "",
          "type": "uint256"
        }
      ],
      "stateMutability": "view",
      "type": "function"
    },
    {
      "inputs": [],
      "name": "feeOnTransfer",
      "outputs": [
        {
          "internalType": "uint256",
          "name": "",
          "type": "uint256"
        }
      ],
      "stateMutability": "view",
      "type": "function"
    },
    {
      "inputs": [],
      "name": "flipEmissions",
      "outputs": [],
      "stateMutability": "nonpayable",
      "type": "function"
    },
    {
      "inputs": [],
      "name": "flipMinting",
      "outputs": [],
      "stateMutability": "nonpayable",
      "type": "function"
    },
    {
      "inputs": [],
      "name": "getDailyEmission",
      "outputs": [
        {
          "internalType": "uint256",
          "name": "",
          "type": "uint256"
        }
      ],
      "stateMutability": "view",
      "type": "function"
    },
    {
      "inputs": [
        {
          "internalType": "address",
          "name": "_vether",
          "type": "address"
        },
        {
          "internalType": "address",
          "name": "_USDV",
          "type": "address"
        },
        {
          "internalType": "address",
          "name": "_utils",
          "type": "address"
        }
      ],
      "name": "init",
      "outputs": [],
      "stateMutability": "nonpayable",
      "type": "function"
    },
    {
      "inputs": [
        {
          "internalType": "address",
          "name": "member",
          "type": "address"
        }
      ],
      "name": "isExcluded",
      "outputs": [
        {
          "internalType": "bool",
          "name": "",
          "type": "bool"
        }
      ],
      "stateMutability": "view",
      "type": "function"
    },
    {
      "inputs": [],
      "name": "isMature",
      "outputs": [
        {
          "internalType": "bool",
          "name": "",
          "type": "bool"
        }
      ],
      "stateMutability": "view",
      "type": "function"
    },
    {
      "inputs": [],
      "name": "maxSupply",
      "outputs": [
        {
          "internalType": "uint256",
          "name": "",
          "type": "uint256"
        }
      ],
      "stateMutability": "view",
      "type": "function"
    },
    {
      "inputs": [],
      "name": "minting",
      "outputs": [
        {
          "internalType": "bool",
          "name": "",
          "type": "bool"
        }
      ],
      "stateMutability": "view",
      "type": "function"
    },
    {
      "inputs": [],
      "name": "name",
      "outputs": [
        {
          "internalType": "string",
          "name": "",
          "type": "string"
        }
      ],
      "stateMutability": "view",
      "type": "function"
    },
    {
      "inputs": [],
      "name": "nextEraTime",
      "outputs": [
        {
          "internalType": "uint256",
          "name": "",
          "type": "uint256"
        }
      ],
      "stateMutability": "view",
      "type": "function"
    },
    {
      "inputs": [],
      "name": "purgeDAO",
      "outputs": [],
      "stateMutability": "nonpayable",
      "type": "function"
    },
    {
      "inputs": [],
      "name": "redeem",
      "outputs": [
        {
          "internalType": "uint256",
          "name": "redeemAmount",
          "type": "uint256"
        }
      ],
      "stateMutability": "nonpayable",
      "type": "function"
    },
    {
      "inputs": [
        {
          "internalType": "address",
          "name": "member",
          "type": "address"
        }
      ],
      "name": "redeemToMember",
      "outputs": [
        {
          "internalType": "uint256",
          "name": "redeemAmount",
          "type": "uint256"
        }
      ],
      "stateMutability": "nonpayable",
      "type": "function"
    },
    {
      "inputs": [],
      "name": "rewardAddress",
      "outputs": [
        {
          "internalType": "address",
          "name": "",
          "type": "address"
        }
      ],
      "stateMutability": "view",
      "type": "function"
    },
    {
      "inputs": [],
      "name": "secondsPerEra",
      "outputs": [
        {
          "internalType": "uint256",
          "name": "",
          "type": "uint256"
        }
      ],
      "stateMutability": "view",
      "type": "function"
    },
    {
      "inputs": [
        {
          "internalType": "uint256",
          "name": "newEra",
          "type": "uint256"
        },
        {
          "internalType": "uint256",
          "name": "newCurve",
          "type": "uint256"
        },
        {
          "internalType": "uint256",
          "name": "newFee",
          "type": "uint256"
        }
      ],
      "name": "setParams",
      "outputs": [],
      "stateMutability": "nonpayable",
      "type": "function"
    },
    {
      "inputs": [
        {
          "internalType": "address",
          "name": "newAddress",
          "type": "address"
        }
      ],
      "name": "setRewardAddress",
      "outputs": [],
      "stateMutability": "nonpayable",
      "type": "function"
    },
    {
      "inputs": [],
      "name": "symbol",
      "outputs": [
        {
          "internalType": "string",
          "name": "",
          "type": "string"
        }
      ],
      "stateMutability": "view",
      "type": "function"
    },
    {
      "inputs": [],
      "name": "totalSupply",
      "outputs": [
        {
          "internalType": "uint256",
          "name": "",
          "type": "uint256"
        }
      ],
      "stateMutability": "view",
      "type": "function"
    },
    {
      "inputs": [
        {
          "internalType": "address",
          "name": "recipient",
          "type": "address"
        },
        {
          "internalType": "uint256",
          "name": "amount",
          "type": "uint256"
        }
      ],
      "name": "transfer",
      "outputs": [
        {
          "internalType": "bool",
          "name": "",
          "type": "bool"
        }
      ],
      "stateMutability": "nonpayable",
      "type": "function"
    },
    {
      "inputs": [
        {
          "internalType": "address",
          "name": "sender",
          "type": "address"
        },
        {
          "internalType": "address",
          "name": "recipient",
          "type": "address"
        },
        {
          "internalType": "uint256",
          "name": "amount",
          "type": "uint256"
        }
      ],
      "name": "transferFrom",
      "outputs": [
        {
          "internalType": "bool",
          "name": "",
          "type": "bool"
        }
      ],
      "stateMutability": "nonpayable",
      "type": "function"
    },
    {
      "inputs": [
        {
          "internalType": "address",
          "name": "recipient",
          "type": "address"
        },
        {
          "internalType": "uint256",
          "name": "amount",
          "type": "uint256"
        }
      ],
      "name": "transferTo",
      "outputs": [
        {
          "internalType": "bool",
          "name": "",
          "type": "bool"
        }
      ],
      "stateMutability": "nonpayable",
      "type": "function"
    },
    {
      "inputs": [
        {
          "internalType": "uint256",
          "name": "amount",
          "type": "uint256"
        }
      ],
      "name": "upgrade",
      "outputs": [],
      "stateMutability": "nonpayable",
      "type": "function"
    }
  ],
  "bytecode": "0x60806040523480156200001157600080fd5b506040805180820190915260148082527f56414445522050524f544f434f4c20544f4b454e000000000000000000000000602090920191825262000058916000916200012b565b50604080518082019091526005808252642b20a222a960d91b602090920191825262000087916001916200012b565b50601260028190556200009c90600a62000239565b620000ab90620f42406200032e565b600781905560088190556000600355620000c79060026200032e565b600a556001600c819055600b819055620000e29042620001d1565b600d55610384600955610100600f55601580546001600160a01b0319908116331790915560138054909116730111011001100001011011000111010101100101179055620003a3565b828054620001399062000350565b90600052602060002090601f0160209004810192826200015d5760008555620001a8565b82601f106200017857805160ff1916838001178555620001a8565b82800160010185558215620001a8579182015b82811115620001a85782518255916020019190600101906200018b565b50620001b6929150620001ba565b5090565b5b80821115620001b65760008155600101620001bb565b60008219821115620001e757620001e76200038d565b500190565b80825b600180861162000200575062000230565b8187048211156200021557620002156200038d565b808616156200022357918102915b9490941c938002620001ef565b94509492505050565b60006200024a600019848462000251565b9392505050565b60008262000262575060016200024a565b8162000271575060006200024a565b81600181146200028a57600281146200029557620002c9565b60019150506200024a565b60ff841115620002a957620002a96200038d565b6001841b915084821115620002c257620002c26200038d565b506200024a565b5060208310610133831016604e8410600b841016171562000301575081810a83811115620002fb57620002fb6200038d565b6200024a565b620003108484846001620001ec565b8086048211156200032557620003256200038d565b02949350505050565b60008160001904831182151516156200034b576200034b6200038d565b500290565b600181811c908216806200036557607f821691505b602082108114156200038757634e487b7160e01b600052602260045260246000fd5b50919050565b634e487b7160e01b600052601160045260246000fd5b6116fe80620003b36000396000f3fe608060405234801561001057600080fd5b50600436106102695760003560e01c806370a0823111610151578063ab2637af116100c3578063cba0e99611610087578063cba0e996146104de578063d5abeb011461050a578063dd62ed3e14610513578063e2c3b0461461054c578063f293e6751461055f578063fe1fa8fa1461056757610269565b8063ab2637af146104aa578063ae4e7fdf146104b3578063be040fb0146104bb578063c30a0ce7146104c3578063c91b6b46146104d657610269565b80638cf57cb9116101155780638cf57cb91461045757806395d89b411461046a578063973628f61461047257806398fabd3a1461047b5780639a67759b1461048e578063a9059cbb1461049757610269565b806370a08231146103f857806370d5ae051461040b57806379cc67901461041e5780637b0e5c45146104315780637dc2268c1461044457610269565b80632ccb1b30116101ea5780634c4d46b0116101ae5780634c4d46b0146103825780634febf53d146103ad5780635a0ce676146103c05780635e00e679146103d35780636b92a3b6146103e6578063702b1cfc146103ef57610269565b80632ccb1b30146103385780632deaa1161461034b578063313ce5671461035357806342966c681461035c57806345977d031461036f57610269565b806318160ddd1161023157806318160ddd146102e1578063184b9559146102ea57806319234334146102ff5780631d007f5f1461031257806323b872dd1461032557610269565b806306fdde031461026e5780630781f4d21461028c578063090bbb01146102ae578063095ea7b3146102c55780630fa1eeab146102d8575b600080fd5b61027661056f565b6040516102839190611561565b60405180910390f35b60065461029e90610100900460ff1681565b6040519015158152602001610283565b6102b7600d5481565b604051908152602001610283565b61029e6102d33660046114bb565b6105fd565b6102b7600e5481565b6102b760035481565b6102fd6102f8366004611431565b610613565b005b6102fd61030d3660046113ba565b61067b565b6102fd6103203660046113ba565b6106f6565b61029e61033336600461147b565b610768565b61029e6103463660046114bb565b6107ba565b6102fd6107c7565b6102b760025481565b6102fd61036a366004611506565b610827565b6102fd61037d366004611506565b610834565b601054610395906001600160a01b031681565b6040516001600160a01b039091168152602001610283565b6102fd6103bb3660046113ba565b6108d5565b6102fd6103ce366004611536565b610905565b6102fd6103e13660046113ba565b61093d565b6102b7600b5481565b6102b7600f5481565b6102b76104063660046113ba565b610989565b601354610395906001600160a01b031681565b6102fd61042c3660046114bb565b6109a8565b601254610395906001600160a01b031681565b60065461029e9062010000900460ff1681565b601454610395906001600160a01b031681565b6102766109f3565b6102b7600c5481565b601554610395906001600160a01b031681565b6102b760095481565b61029e6104a53660046114bb565b610a00565b6102b760085481565b61029e610a0d565b6102b7610a8f565b6102b76104d13660046113ba565b610a96565b6102fd610cd8565b61029e6104ec3660046113ba565b6001600160a01b031660009081526016602052604090205460ff1690565b6102b7600a5481565b6102b76105213660046113f9565b6001600160a01b03918216600090815260056020908152604080832093909416825291909152205490565b601154610395906001600160a01b031681565b6102b7610d14565b6102fd610d6b565b6000805461057c90611668565b80601f01602080910402602001604051908101604052809291908181526020018280546105a890611668565b80156105f55780601f106105ca576101008083540402835291602001916105f5565b820191906000526020600020905b8154815290600101906020018083116105d857829003601f168201915b505050505081565b600061060a338484610dc6565b50600192915050565b60065460ff161561062357600080fd5b6006805460ff19166001179055601080546001600160a01b039485166001600160a01b031991821617909155601180549385169382168417905560128054929094169181169190911790925560148054909216179055565b6015546001600160a01b031633146106ae5760405162461bcd60e51b81526004016106a5906115b4565b60405180910390fd5b6001600160a01b0381166106d45760405162461bcd60e51b81526004016106a5906115d5565b601280546001600160a01b0319166001600160a01b0392909216919091179055565b6015546001600160a01b031633146107205760405162461bcd60e51b81526004016106a5906115b4565b6001600160a01b0381166107465760405162461bcd60e51b81526004016106a5906115d5565b601580546001600160a01b0319166001600160a01b0392909216919091179055565b6000610775848484610ea6565b6001600160a01b0384166000908152600560209081526040808320338085529252909120546107b09186916107ab908690611651565b610dc6565b5060019392505050565b600061060a328484610ea6565b6015546001600160a01b031633146107f15760405162461bcd60e51b81526004016106a5906115b4565b60065462010000900460ff1615610813576006805462ff000019169055610825565b6006805462ff00001916620100001790555b565b61083133826110cb565b50565b6010546013546040516323b872dd60e01b81523360048201526001600160a01b039182166024820152604481018490529116906323b872dd90606401602060405180830381600087803b15801561088a57600080fd5b505af115801561089e573d6000803e3d6000fd5b505050506040513d601f19601f820116820180604052508101906108c291906114e6565b6108cb57600080fd5b610831338261117d565b6108e133600f546110cb565b6001600160a01b03166000908152601660205260409020805460ff19166001179055565b6015546001600160a01b0316331461092f5760405162461bcd60e51b81526004016106a5906115b4565b600b92909255600955600f55565b6015546001600160a01b031633146109675760405162461bcd60e51b81526004016106a5906115b4565b601480546001600160a01b0319166001600160a01b0392909216919091179055565b6001600160a01b0381166000908152600460205260409020545b919050565b6001600160a01b03821660009081526005602090815260408083203384529091528120546109d7908390611651565b90506109e4833383610dc6565b6109ee83836110cb565b505050565b6001805461057c90611668565b600061060a338484610ea6565b6011546040805163ae4e7fdf60e01b815290516000926001600160a01b03169163ae4e7fdf916004808301926020929190829003018186803b158015610a5257600080fd5b505afa158015610a66573d6000803e3d6000fd5b505050506040513d601f19601f82011682018060405250810190610a8a91906114e6565b905090565b6000610a8a335b6000610aa0610a0d565b610ad75760405162461bcd60e51b815260206004820152600860248201526709cde40ccd8c2e6d60c31b60448201526064016106a5565b60065462010000900460ff16156109a3576011546040516370a0823160e01b81523060048201526000916001600160a01b0316906370a082319060240160206040518083038186803b158015610b2c57600080fd5b505afa158015610b40573d6000803e3d6000fd5b505050506040513d601f19601f82011682018060405250810190610b64919061151e565b601154604051630852cd8d60e31b8152600481018390529192506001600160a01b0316906342966c6890602401600060405180830381600087803b158015610bab57600080fd5b505af1158015610bbf573d6000803e3d6000fd5b50505050601160009054906101000a90046001600160a01b03166001600160a01b03166332fe7b266040518163ffffffff1660e01b815260040160206040518083038186803b158015610c1157600080fd5b505afa158015610c25573d6000803e3d6000fd5b505050506040513d601f19601f82011682018060405250810190610c4991906113dd565b6001600160a01b0316636cc06ded826040518263ffffffff1660e01b8152600401610c7691815260200190565b60206040518083038186803b158015610c8e57600080fd5b505afa158015610ca2573d6000803e3d6000fd5b505050506040513d601f19601f82011682018060405250810190610cc6919061151e565b9150610cd2838361117d565b50919050565b6015546001600160a01b03163314610d025760405162461bcd60e51b81526004016106a5906115b4565b601580546001600160a01b0319169055565b60008060085460035411610d4657600854600354600a54610d359190611632565b610d3f9190611612565b9050610d4b565b50600a545b600954600354610d5b9083611651565b610d659190611612565b91505090565b6015546001600160a01b03163314610d955760405162461bcd60e51b81526004016106a5906115b4565b600654610100900460ff1615610db5576006805461ff0019169055610825565b6006805461ff001916610100179055565b6001600160a01b038316610e055760405162461bcd60e51b815260206004820152600660248201526539b2b73232b960d11b60448201526064016106a5565b6001600160a01b038216610e455760405162461bcd60e51b815260206004820152600760248201526639b832b73232b960c91b60448201526064016106a5565b6001600160a01b0383811660008181526005602090815260408083209487168084529482529182902085905590518481527f8c5be1e5ebec7d5bd14f71427d1e84f3dd0314c0f7b2291e5b200ac8c7c3b925910160405180910390a3505050565b6001600160a01b038316610ee55760405162461bcd60e51b815260206004820152600660248201526539b2b73232b960d11b60448201526064016106a5565b6001600160a01b038216301415610f2a5760405162461bcd60e51b81526020600482015260096024820152681c9958da5c1a595b9d60ba1b60448201526064016106a5565b6001600160a01b03831660009081526004602052604081208054839290610f52908490611651565b90915550506001600160a01b03831660009081526016602052604090205460ff16158015610f9957506001600160a01b03821660009081526016602052604090205460ff16155b1561104757601254600e5460405163714270ab60e01b81526004810191909152602481018390526000916001600160a01b03169063714270ab9060440160206040518083038186803b158015610fee57600080fd5b505afa158015611002573d6000803e3d6000fd5b505050506040513d601f19601f82011682018060405250810190611026919061151e565b9050818111611045576110398183611651565b915061104533826110cb565b505b6001600160a01b0382166000908152600460205260408120805483929061106f9084906115fa565b92505081905550816001600160a01b0316836001600160a01b03167fddf252ad1be2c89b69c2b068fc378daa952ba7f163c4a11628f55a4df523b3ef836040516110bb91815260200190565b60405180910390a36109ee61126a565b6001600160a01b0382166110f15760405162461bcd60e51b81526004016106a5906115d5565b6001600160a01b03821660009081526004602052604081208054839290611119908490611651565b9250508190555080600360008282546111329190611651565b90915550506040518181526000906001600160a01b038416907fddf252ad1be2c89b69c2b068fc378daa952ba7f163c4a11628f55a4df523b3ef906020015b60405180910390a35050565b6001600160a01b0382166111bf5760405162461bcd60e51b81526020600482015260096024820152681c9958da5c1a595b9d60ba1b60448201526064016106a5565b600a54816003546111d091906115fa565b106111e857600354600a546111e59190611651565b90505b80600360008282546111fa91906115fa565b90915550506001600160a01b038216600090815260046020526040812080548392906112279084906115fa565b90915550506040518181526001600160a01b038316906000907fddf252ad1be2c89b69c2b068fc378daa952ba7f163c4a11628f55a4df523b3ef90602001611171565b600d5442101580156112835750600654610100900460ff165b15610825576001600c600082825461129b91906115fa565b9091555050600b546112ad90426115fa565b600d5560006112ba610d14565b6014549091506112d3906001600160a01b03168261117d565b601254600354600a54604051638b18b11560e01b8152600481019290925260248201526001600160a01b0390911690638b18b1159060440160206040518083038186803b15801561132357600080fd5b505afa158015611337573d6000803e3d6000fd5b505050506040513d601f19601f8201168201806040525081019061135b919061151e565b600e8190556103e81015611370576103e8600e555b600c54600d5460408051928352602083019190915281018290527f9d472bcf372fce01fd875c3296e8e5ae0a08bfca42dedac19e202271ce8f39c59060600160405180910390a150565b6000602082840312156113cb578081fd5b81356113d6816116b3565b9392505050565b6000602082840312156113ee578081fd5b81516113d6816116b3565b6000806040838503121561140b578081fd5b8235611416816116b3565b91506020830135611426816116b3565b809150509250929050565b600080600060608486031215611445578081fd5b8335611450816116b3565b92506020840135611460816116b3565b91506040840135611470816116b3565b809150509250925092565b60008060006060848603121561148f578283fd5b833561149a816116b3565b925060208401356114aa816116b3565b929592945050506040919091013590565b600080604083850312156114cd578182fd5b82356114d8816116b3565b946020939093013593505050565b6000602082840312156114f7578081fd5b815180151581146113d6578182fd5b600060208284031215611517578081fd5b5035919050565b60006020828403121561152f578081fd5b5051919050565b60008060006060848603121561154a578283fd5b505081359360208301359350604090920135919050565b6000602080835283518082850152825b8181101561158d57858101830151858201604001528201611571565b8181111561159e5783604083870101525b50601f01601f1916929092016040019392505050565b6020808252600790820152664e6f742044414f60c81b604082015260600190565b6020808252600b908201526a30b2323932b9b99032b93960a91b604082015260600190565b6000821982111561160d5761160d61169d565b500190565b60008261162d57634e487b7160e01b81526012600452602481fd5b500490565b600081600019048311821515161561164c5761164c61169d565b500290565b6000828210156116635761166361169d565b500390565b600181811c9082168061167c57607f821691505b60208210811415610cd257634e487b7160e01b600052602260045260246000fd5b634e487b7160e01b600052601160045260246000fd5b6001600160a01b038116811461083157600080fdfea2646970667358221220faeb2d7dfb22b9f8b77b03bf28b3fab1f4afd190174acc0c74c898853d63567764736f6c63430008030033",
  "linkReferences": {},
  "deployedLinkReferences": {}
}