{
  "_format": "hh-sol-artifact-1",
  "contractName": "Vader",
  "sourceName": "contracts/Vader.sol",
  "abi": [
    {
      "inputs": [],
      "stateMutability": "nonpayable",
      "type": "constructor"
    },
    {
      "anonymous": false,
      "inputs": [
        {
          "indexed": true,
          "internalType": "address",
          "name": "owner",
          "type": "address"
        },
        {
          "indexed": true,
          "internalType": "address",
          "name": "spender",
          "type": "address"
        },
        {
          "indexed": false,
          "internalType": "uint256",
          "name": "value",
          "type": "uint256"
        }
      ],
      "name": "Approval",
      "type": "event"
    },
    {
      "anonymous": false,
      "inputs": [
        {
          "indexed": false,
          "internalType": "uint256",
          "name": "currentEra",
          "type": "uint256"
        },
        {
          "indexed": false,
          "internalType": "uint256",
          "name": "nextEraTime",
          "type": "uint256"
        },
        {
          "indexed": false,
          "internalType": "uint256",
          "name": "emission",
          "type": "uint256"
        }
      ],
      "name": "NewEra",
      "type": "event"
    },
    {
      "anonymous": false,
      "inputs": [
        {
          "indexed": true,
          "internalType": "address",
          "name": "from",
          "type": "address"
        },
        {
          "indexed": true,
          "internalType": "address",
          "name": "to",
          "type": "address"
        },
        {
          "indexed": false,
          "internalType": "uint256",
          "name": "value",
          "type": "uint256"
        }
      ],
      "name": "Transfer",
      "type": "event"
    },
    {
      "inputs": [],
      "name": "DAO",
      "outputs": [
        {
          "internalType": "address",
          "name": "",
          "type": "address"
        }
      ],
      "stateMutability": "view",
      "type": "function"
    },
    {
      "inputs": [],
      "name": "USDV",
      "outputs": [
        {
          "internalType": "address",
          "name": "",
          "type": "address"
        }
      ],
      "stateMutability": "view",
      "type": "function"
    },
    {
      "inputs": [],
      "name": "UTILS",
      "outputs": [
        {
          "internalType": "address",
          "name": "",
          "type": "address"
        }
      ],
      "stateMutability": "view",
      "type": "function"
    },
    {
      "inputs": [],
      "name": "VETHER",
      "outputs": [
        {
          "internalType": "address",
          "name": "",
          "type": "address"
        }
      ],
      "stateMutability": "view",
      "type": "function"
    },
    {
      "inputs": [
        {
          "internalType": "address",
          "name": "owner",
          "type": "address"
        },
        {
          "internalType": "address",
          "name": "spender",
          "type": "address"
        }
      ],
      "name": "allowance",
      "outputs": [
        {
          "internalType": "uint256",
          "name": "",
          "type": "uint256"
        }
      ],
      "stateMutability": "view",
      "type": "function"
    },
    {
      "inputs": [
        {
          "internalType": "address",
          "name": "spender",
          "type": "address"
        },
        {
          "internalType": "uint256",
          "name": "amount",
          "type": "uint256"
        }
      ],
      "name": "approve",
      "outputs": [
        {
          "internalType": "bool",
          "name": "",
          "type": "bool"
        }
      ],
      "stateMutability": "nonpayable",
      "type": "function"
    },
    {
      "inputs": [
        {
          "internalType": "address",
          "name": "account",
          "type": "address"
        }
      ],
      "name": "balanceOf",
      "outputs": [
        {
          "internalType": "uint256",
          "name": "",
          "type": "uint256"
        }
      ],
      "stateMutability": "view",
      "type": "function"
    },
    {
      "inputs": [],
      "name": "baseline",
      "outputs": [
        {
          "internalType": "uint256",
          "name": "",
          "type": "uint256"
        }
      ],
      "stateMutability": "view",
      "type": "function"
    },
    {
      "inputs": [
        {
          "internalType": "uint256",
          "name": "amount",
          "type": "uint256"
        }
      ],
      "name": "burn",
      "outputs": [],
      "stateMutability": "nonpayable",
      "type": "function"
    },
    {
      "inputs": [],
      "name": "burnAddress",
      "outputs": [
        {
          "internalType": "address",
          "name": "",
          "type": "address"
        }
      ],
      "stateMutability": "view",
      "type": "function"
    },
    {
      "inputs": [
        {
          "internalType": "address",
          "name": "account",
          "type": "address"
        },
        {
          "internalType": "uint256",
          "name": "amount",
          "type": "uint256"
        }
      ],
      "name": "burnFrom",
      "outputs": [],
      "stateMutability": "nonpayable",
      "type": "function"
    },
    {
      "inputs": [
        {
          "internalType": "address",
          "name": "newDAO",
          "type": "address"
        }
      ],
      "name": "changeDAO",
      "outputs": [],
      "stateMutability": "nonpayable",
      "type": "function"
    },
    {
      "inputs": [
        {
          "internalType": "address",
          "name": "newUTILS",
          "type": "address"
        }
      ],
      "name": "changeUTILS",
      "outputs": [],
      "stateMutability": "nonpayable",
      "type": "function"
    },
    {
      "inputs": [],
      "name": "currentEra",
      "outputs": [
        {
          "internalType": "uint256",
          "name": "",
          "type": "uint256"
        }
      ],
      "stateMutability": "view",
      "type": "function"
    },
    {
      "inputs": [],
      "name": "decimals",
      "outputs": [
        {
          "internalType": "uint256",
          "name": "",
          "type": "uint256"
        }
      ],
      "stateMutability": "view",
      "type": "function"
    },
    {
      "inputs": [],
      "name": "emissionCurve",
      "outputs": [
        {
          "internalType": "uint256",
          "name": "",
          "type": "uint256"
        }
      ],
      "stateMutability": "view",
      "type": "function"
    },
    {
      "inputs": [],
      "name": "emitting",
      "outputs": [
        {
          "internalType": "bool",
          "name": "",
          "type": "bool"
        }
      ],
      "stateMutability": "view",
      "type": "function"
    },
    {
      "inputs": [],
      "name": "feeOnTransfer",
      "outputs": [
        {
          "internalType": "uint256",
          "name": "",
          "type": "uint256"
        }
      ],
      "stateMutability": "view",
      "type": "function"
    },
    {
      "inputs": [],
      "name": "flipEmissions",
      "outputs": [],
      "stateMutability": "nonpayable",
      "type": "function"
    },
    {
      "inputs": [],
      "name": "flipMinting",
      "outputs": [],
      "stateMutability": "nonpayable",
      "type": "function"
    },
    {
      "inputs": [],
      "name": "getDailyEmission",
      "outputs": [
        {
          "internalType": "uint256",
          "name": "",
          "type": "uint256"
        }
      ],
      "stateMutability": "view",
      "type": "function"
    },
    {
      "inputs": [
        {
          "internalType": "address",
          "name": "_vether",
          "type": "address"
        },
        {
          "internalType": "address",
          "name": "_USDV",
          "type": "address"
        },
        {
          "internalType": "address",
          "name": "_utils",
          "type": "address"
        }
      ],
      "name": "init",
      "outputs": [],
      "stateMutability": "nonpayable",
      "type": "function"
    },
    {
      "inputs": [],
      "name": "isMature",
      "outputs": [
        {
          "internalType": "bool",
          "name": "",
          "type": "bool"
        }
      ],
      "stateMutability": "view",
      "type": "function"
    },
    {
      "inputs": [],
      "name": "maxSupply",
      "outputs": [
        {
          "internalType": "uint256",
          "name": "",
          "type": "uint256"
        }
      ],
      "stateMutability": "view",
      "type": "function"
    },
    {
      "inputs": [],
      "name": "minting",
      "outputs": [
        {
          "internalType": "bool",
          "name": "",
          "type": "bool"
        }
      ],
      "stateMutability": "view",
      "type": "function"
    },
    {
      "inputs": [],
      "name": "name",
      "outputs": [
        {
          "internalType": "string",
          "name": "",
          "type": "string"
        }
      ],
      "stateMutability": "view",
      "type": "function"
    },
    {
      "inputs": [],
      "name": "nextEraTime",
      "outputs": [
        {
          "internalType": "uint256",
          "name": "",
          "type": "uint256"
        }
      ],
      "stateMutability": "view",
      "type": "function"
    },
    {
      "inputs": [],
      "name": "purgeDAO",
      "outputs": [],
      "stateMutability": "nonpayable",
      "type": "function"
    },
    {
      "inputs": [],
      "name": "redeem",
      "outputs": [
        {
          "internalType": "uint256",
          "name": "redeemAmount",
          "type": "uint256"
        }
      ],
      "stateMutability": "nonpayable",
      "type": "function"
    },
    {
      "inputs": [
        {
          "internalType": "address",
          "name": "member",
          "type": "address"
        }
      ],
      "name": "redeemToMember",
      "outputs": [
        {
          "internalType": "uint256",
          "name": "redeemAmount",
          "type": "uint256"
        }
      ],
      "stateMutability": "nonpayable",
      "type": "function"
    },
    {
      "inputs": [],
      "name": "rewardAddress",
      "outputs": [
        {
          "internalType": "address",
          "name": "",
          "type": "address"
        }
      ],
      "stateMutability": "view",
      "type": "function"
    },
    {
      "inputs": [],
      "name": "secondsPerEra",
      "outputs": [
        {
          "internalType": "uint256",
          "name": "",
          "type": "uint256"
        }
      ],
      "stateMutability": "view",
      "type": "function"
    },
    {
      "inputs": [
        {
          "internalType": "uint256",
          "name": "newEra",
          "type": "uint256"
        },
        {
          "internalType": "uint256",
          "name": "newCurve",
          "type": "uint256"
        }
      ],
      "name": "setParams",
      "outputs": [],
      "stateMutability": "nonpayable",
      "type": "function"
    },
    {
      "inputs": [
        {
          "internalType": "address",
          "name": "newAddress",
          "type": "address"
        }
      ],
      "name": "setRewardAddress",
      "outputs": [],
      "stateMutability": "nonpayable",
      "type": "function"
    },
    {
      "inputs": [],
      "name": "symbol",
      "outputs": [
        {
          "internalType": "string",
          "name": "",
          "type": "string"
        }
      ],
      "stateMutability": "view",
      "type": "function"
    },
    {
      "inputs": [],
      "name": "totalSupply",
      "outputs": [
        {
          "internalType": "uint256",
          "name": "",
          "type": "uint256"
        }
      ],
      "stateMutability": "view",
      "type": "function"
    },
    {
      "inputs": [
        {
          "internalType": "address",
          "name": "recipient",
          "type": "address"
        },
        {
          "internalType": "uint256",
          "name": "amount",
          "type": "uint256"
        }
      ],
      "name": "transfer",
      "outputs": [
        {
          "internalType": "bool",
          "name": "",
          "type": "bool"
        }
      ],
      "stateMutability": "nonpayable",
      "type": "function"
    },
    {
      "inputs": [
        {
          "internalType": "address",
          "name": "sender",
          "type": "address"
        },
        {
          "internalType": "address",
          "name": "recipient",
          "type": "address"
        },
        {
          "internalType": "uint256",
          "name": "amount",
          "type": "uint256"
        }
      ],
      "name": "transferFrom",
      "outputs": [
        {
          "internalType": "bool",
          "name": "",
          "type": "bool"
        }
      ],
      "stateMutability": "nonpayable",
      "type": "function"
    },
    {
      "inputs": [
        {
          "internalType": "address",
          "name": "recipient",
          "type": "address"
        },
        {
          "internalType": "uint256",
          "name": "amount",
          "type": "uint256"
        }
      ],
      "name": "transferTo",
      "outputs": [
        {
          "internalType": "bool",
          "name": "",
          "type": "bool"
        }
      ],
      "stateMutability": "nonpayable",
      "type": "function"
    },
    {
      "inputs": [
        {
          "internalType": "uint256",
          "name": "amount",
          "type": "uint256"
        }
      ],
      "name": "upgrade",
      "outputs": [],
      "stateMutability": "nonpayable",
      "type": "function"
    }
  ],
  "bytecode": "0x60806040523480156200001157600080fd5b506040805180820190915260148082527f56414445522050524f544f434f4c20544f4b454e0000000000000000000000006020909201918252620000589160009162000125565b50604080518082019091526005808252642b20a222a960d91b6020909201918252620000879160019162000125565b50601260028190556200009c90600a62000233565b620000ab90620f424062000328565b600781905560088190556000600355620000c790600262000328565b600a556001600c819055600b819055620000e29042620001cb565b600d55610384600955601480546001600160a01b03199081163317909155601280549091167301110110011000010110110001110101011001011790556200039d565b82805462000133906200034a565b90600052602060002090601f016020900481019282620001575760008555620001a2565b82601f106200017257805160ff1916838001178555620001a2565b82800160010185558215620001a2579182015b82811115620001a257825182559160200191906001019062000185565b50620001b0929150620001b4565b5090565b5b80821115620001b05760008155600101620001b5565b60008219821115620001e157620001e162000387565b500190565b80825b6001808611620001fa57506200022a565b8187048211156200020f576200020f62000387565b808616156200021d57918102915b9490941c938002620001e9565b94509492505050565b60006200024460001984846200024b565b9392505050565b6000826200025c5750600162000244565b816200026b5750600062000244565b81600181146200028457600281146200028f57620002c3565b600191505062000244565b60ff841115620002a357620002a362000387565b6001841b915084821115620002bc57620002bc62000387565b5062000244565b5060208310610133831016604e8410600b8410161715620002fb575081810a83811115620002f557620002f562000387565b62000244565b6200030a8484846001620001e6565b8086048211156200031f576200031f62000387565b02949350505050565b600081600019048311821515161562000345576200034562000387565b500290565b600181811c908216806200035f57607f821691505b602082108114156200038157634e487b7160e01b600052602260045260246000fd5b50919050565b634e487b7160e01b600052601160045260246000fd5b61161980620003ad6000396000f3fe608060405234801561001057600080fd5b50600436106102485760003560e01c806379cc67901161013b578063ae4e7fdf116100b8578063d5abeb011161007c578063d5abeb01146104a1578063dd62ed3e146104aa578063e2c3b046146104e3578063f293e675146104f6578063fe1fa8fa146104fe57610248565b8063ae4e7fdf14610463578063be040fb01461046b578063c0324c7714610473578063c30a0ce714610486578063c91b6b461461049957610248565b8063973628f6116100ff578063973628f61461042257806398fabd3a1461042b5780639a67759b1461043e578063a9059cbb14610447578063ab2637af1461045a57610248565b806379cc6790146103ce5780637b0e5c45146103e15780637dc2268c146103f45780638cf57cb91461040757806395d89b411461041a57610248565b80632ccb1b30116101c95780634c4d46b01161018d5780634c4d46b0146103615780635e00e6791461038c5780636b92a3b61461039f57806370a08231146103a857806370d5ae05146103bb57610248565b80632ccb1b30146103175780632deaa1161461032a578063313ce5671461033257806342966c681461033b57806345977d031461034e57610248565b806318160ddd1161021057806318160ddd146102c0578063184b9559146102c957806319234334146102de5780631d007f5f146102f157806323b872dd1461030457610248565b806306fdde031461024d5780630781f4d21461026b578063090bbb011461028d578063095ea7b3146102a45780630fa1eeab146102b7575b600080fd5b610255610506565b604051610262919061147c565b60405180910390f35b60065461027d90610100900460ff1681565b6040519015158152602001610262565b610296600d5481565b604051908152602001610262565b61027d6102b23660046113e0565b610594565b610296600e5481565b61029660035481565b6102dc6102d7366004611356565b6105aa565b005b6102dc6102ec3660046112df565b610612565b6102dc6102ff3660046112df565b61068d565b61027d6103123660046113a0565b6106ff565b61027d6103253660046113e0565b610751565b6102dc61075e565b61029660025481565b6102dc61034936600461142b565b6107be565b6102dc61035c36600461142b565b6107cb565b600f54610374906001600160a01b031681565b6040516001600160a01b039091168152602001610262565b6102dc61039a3660046112df565b61086c565b610296600b5481565b6102966103b63660046112df565b6108b8565b601254610374906001600160a01b031681565b6102dc6103dc3660046113e0565b6108d7565b601154610374906001600160a01b031681565b60065461027d9062010000900460ff1681565b601354610374906001600160a01b031681565b610255610922565b610296600c5481565b601454610374906001600160a01b031681565b61029660095481565b61027d6104553660046113e0565b61092f565b61029660085481565b61027d61093c565b6102966109be565b6102dc61048136600461145b565b6109c9565b6102966104943660046112df565b6109fe565b6102dc610c40565b610296600a5481565b6102966104b836600461131e565b6001600160a01b03918216600090815260056020908152604080832093909416825291909152205490565b601054610374906001600160a01b031681565b610296610c7c565b6102dc610cd3565b6000805461051390611583565b80601f016020809104026020016040519081016040528092919081815260200182805461053f90611583565b801561058c5780601f106105615761010080835404028352916020019161058c565b820191906000526020600020905b81548152906001019060200180831161056f57829003601f168201915b505050505081565b60006105a1338484610d2e565b50600192915050565b60065460ff16156105ba57600080fd5b6006805460ff19166001179055600f80546001600160a01b039485166001600160a01b031991821617909155601080549385169382168417905560118054929094169181169190911790925560138054909216179055565b6014546001600160a01b031633146106455760405162461bcd60e51b815260040161063c906114cf565b60405180910390fd5b6001600160a01b03811661066b5760405162461bcd60e51b815260040161063c906114f0565b601180546001600160a01b0319166001600160a01b0392909216919091179055565b6014546001600160a01b031633146106b75760405162461bcd60e51b815260040161063c906114cf565b6001600160a01b0381166106dd5760405162461bcd60e51b815260040161063c906114f0565b601480546001600160a01b0319166001600160a01b0392909216919091179055565b600061070c848484610e0e565b6001600160a01b03841660009081526005602090815260408083203380855292529091205461074791869161074290869061156c565b610d2e565b5060019392505050565b60006105a1328484610e0e565b6014546001600160a01b031633146107885760405162461bcd60e51b815260040161063c906114cf565b60065462010000900460ff16156107aa576006805462ff0000191690556107bc565b6006805462ff00001916620100001790555b565b6107c83382610ff0565b50565b600f546012546040516323b872dd60e01b81523360048201526001600160a01b039182166024820152604481018490529116906323b872dd90606401602060405180830381600087803b15801561082157600080fd5b505af1158015610835573d6000803e3d6000fd5b505050506040513d601f19601f82011682018060405250810190610859919061140b565b61086257600080fd5b6107c833826110a2565b6014546001600160a01b031633146108965760405162461bcd60e51b815260040161063c906114cf565b601380546001600160a01b0319166001600160a01b0392909216919091179055565b6001600160a01b0381166000908152600460205260409020545b919050565b6001600160a01b038216600090815260056020908152604080832033845290915281205461090690839061156c565b9050610913833383610d2e565b61091d8383610ff0565b505050565b6001805461051390611583565b60006105a1338484610e0e565b6010546040805163ae4e7fdf60e01b815290516000926001600160a01b03169163ae4e7fdf916004808301926020929190829003018186803b15801561098157600080fd5b505afa158015610995573d6000803e3d6000fd5b505050506040513d601f19601f820116820180604052508101906109b9919061140b565b905090565b60006109b9336109fe565b6014546001600160a01b031633146109f35760405162461bcd60e51b815260040161063c906114cf565b600b91909155600955565b6000610a0861093c565b610a3f5760405162461bcd60e51b815260206004820152600860248201526709cde40ccd8c2e6d60c31b604482015260640161063c565b60065462010000900460ff16156108d2576010546040516370a0823160e01b81523060048201526000916001600160a01b0316906370a082319060240160206040518083038186803b158015610a9457600080fd5b505afa158015610aa8573d6000803e3d6000fd5b505050506040513d601f19601f82011682018060405250810190610acc9190611443565b601054604051630852cd8d60e31b8152600481018390529192506001600160a01b0316906342966c6890602401600060405180830381600087803b158015610b1357600080fd5b505af1158015610b27573d6000803e3d6000fd5b50505050601060009054906101000a90046001600160a01b03166001600160a01b03166332fe7b266040518163ffffffff1660e01b815260040160206040518083038186803b158015610b7957600080fd5b505afa158015610b8d573d6000803e3d6000fd5b505050506040513d601f19601f82011682018060405250810190610bb19190611302565b6001600160a01b0316636cc06ded826040518263ffffffff1660e01b8152600401610bde91815260200190565b60206040518083038186803b158015610bf657600080fd5b505afa158015610c0a573d6000803e3d6000fd5b505050506040513d601f19601f82011682018060405250810190610c2e9190611443565b9150610c3a83836110a2565b50919050565b6014546001600160a01b03163314610c6a5760405162461bcd60e51b815260040161063c906114cf565b601480546001600160a01b0319169055565b60008060085460035411610cae57600854600354600a54610c9d919061154d565b610ca7919061152d565b9050610cb3565b50600a545b600954600354610cc3908361156c565b610ccd919061152d565b91505090565b6014546001600160a01b03163314610cfd5760405162461bcd60e51b815260040161063c906114cf565b600654610100900460ff1615610d1d576006805461ff00191690556107bc565b6006805461ff001916610100179055565b6001600160a01b038316610d6d5760405162461bcd60e51b815260206004820152600660248201526539b2b73232b960d11b604482015260640161063c565b6001600160a01b038216610dad5760405162461bcd60e51b815260206004820152600760248201526639b832b73232b960c91b604482015260640161063c565b6001600160a01b0383811660008181526005602090815260408083209487168084529482529182902085905590518481527f8c5be1e5ebec7d5bd14f71427d1e84f3dd0314c0f7b2291e5b200ac8c7c3b925910160405180910390a3505050565b6001600160a01b038316610e4d5760405162461bcd60e51b815260206004820152600660248201526539b2b73232b960d11b604482015260640161063c565b6001600160a01b038216301415610e925760405162461bcd60e51b81526020600482015260096024820152681c9958da5c1a595b9d60ba1b604482015260640161063c565b6001600160a01b03831660009081526004602052604081208054839290610eba90849061156c565b9091555050601154600e5460405163714270ab60e01b81526004810191909152602481018390526000916001600160a01b03169063714270ab9060440160206040518083038186803b158015610f0f57600080fd5b505afa158015610f23573d6000803e3d6000fd5b505050506040513d601f19601f82011682018060405250810190610f479190611443565b9050818111610f6657610f5a818361156c565b9150610f663382610ff0565b6001600160a01b03831660009081526004602052604081208054849290610f8e908490611515565b92505081905550826001600160a01b0316846001600160a01b03167fddf252ad1be2c89b69c2b068fc378daa952ba7f163c4a11628f55a4df523b3ef84604051610fda91815260200190565b60405180910390a3610fea61118f565b50505050565b6001600160a01b0382166110165760405162461bcd60e51b815260040161063c906114f0565b6001600160a01b0382166000908152600460205260408120805483929061103e90849061156c565b925050819055508060036000828254611057919061156c565b90915550506040518181526000906001600160a01b038416907fddf252ad1be2c89b69c2b068fc378daa952ba7f163c4a11628f55a4df523b3ef906020015b60405180910390a35050565b6001600160a01b0382166110e45760405162461bcd60e51b81526020600482015260096024820152681c9958da5c1a595b9d60ba1b604482015260640161063c565b600a54816003546110f59190611515565b1061110d57600354600a5461110a919061156c565b90505b806003600082825461111f9190611515565b90915550506001600160a01b0382166000908152600460205260408120805483929061114c908490611515565b90915550506040518181526001600160a01b038316906000907fddf252ad1be2c89b69c2b068fc378daa952ba7f163c4a11628f55a4df523b3ef90602001611096565b600d5442101580156111a85750600654610100900460ff165b156107bc576001600c60008282546111c09190611515565b9091555050600b546111d29042611515565b600d5560006111df610c7c565b6013549091506111f8906001600160a01b0316826110a2565b601154600354600a54604051638b18b11560e01b8152600481019290925260248201526001600160a01b0390911690638b18b1159060440160206040518083038186803b15801561124857600080fd5b505afa15801561125c573d6000803e3d6000fd5b505050506040513d601f19601f820116820180604052508101906112809190611443565b600e8190556103e81015611295576103e8600e555b600c54600d5460408051928352602083019190915281018290527f9d472bcf372fce01fd875c3296e8e5ae0a08bfca42dedac19e202271ce8f39c59060600160405180910390a150565b6000602082840312156112f0578081fd5b81356112fb816115ce565b9392505050565b600060208284031215611313578081fd5b81516112fb816115ce565b60008060408385031215611330578081fd5b823561133b816115ce565b9150602083013561134b816115ce565b809150509250929050565b60008060006060848603121561136a578081fd5b8335611375816115ce565b92506020840135611385816115ce565b91506040840135611395816115ce565b809150509250925092565b6000806000606084860312156113b4578283fd5b83356113bf816115ce565b925060208401356113cf816115ce565b929592945050506040919091013590565b600080604083850312156113f2578182fd5b82356113fd816115ce565b946020939093013593505050565b60006020828403121561141c578081fd5b815180151581146112fb578182fd5b60006020828403121561143c578081fd5b5035919050565b600060208284031215611454578081fd5b5051919050565b6000806040838503121561146d578182fd5b50508035926020909101359150565b6000602080835283518082850152825b818110156114a85785810183015185820160400152820161148c565b818111156114b95783604083870101525b50601f01601f1916929092016040019392505050565b6020808252600790820152664e6f742044414f60c81b604082015260600190565b6020808252600b908201526a30b2323932b9b99032b93960a91b604082015260600190565b60008219821115611528576115286115b8565b500190565b60008261154857634e487b7160e01b81526012600452602481fd5b500490565b6000816000190483118215151615611567576115676115b8565b500290565b60008282101561157e5761157e6115b8565b500390565b600181811c9082168061159757607f821691505b60208210811415610c3a57634e487b7160e01b600052602260045260246000fd5b634e487b7160e01b600052601160045260246000fd5b6001600160a01b03811681146107c857600080fdfea26469706673582212202dafa80b4591f92adb0b75634f5675a23768150e78f8a9560abfe621f9ee36f664736f6c63430008030033",
  "linkReferences": {},
  "deployedLinkReferences": {}
}