{
  "_format": "hh-sol-artifact-1",
  "contractName": "Vader",
  "sourceName": "contracts/Vader.sol",
  "abi": [
    {
      "inputs": [],
      "stateMutability": "nonpayable",
      "type": "constructor"
    },
    {
      "anonymous": false,
      "inputs": [
        {
          "indexed": true,
          "internalType": "address",
          "name": "owner",
          "type": "address"
        },
        {
          "indexed": true,
          "internalType": "address",
          "name": "spender",
          "type": "address"
        },
        {
          "indexed": false,
          "internalType": "uint256",
          "name": "value",
          "type": "uint256"
        }
      ],
      "name": "Approval",
      "type": "event"
    },
    {
      "anonymous": false,
      "inputs": [
        {
          "indexed": false,
          "internalType": "uint256",
          "name": "currentEra",
          "type": "uint256"
        },
        {
          "indexed": false,
          "internalType": "uint256",
          "name": "nextEraTime",
          "type": "uint256"
        },
        {
          "indexed": false,
          "internalType": "uint256",
          "name": "emission",
          "type": "uint256"
        }
      ],
      "name": "NewEra",
      "type": "event"
    },
    {
      "anonymous": false,
      "inputs": [
        {
          "indexed": true,
          "internalType": "address",
          "name": "from",
          "type": "address"
        },
        {
          "indexed": true,
          "internalType": "address",
          "name": "to",
          "type": "address"
        },
        {
          "indexed": false,
          "internalType": "uint256",
          "name": "value",
          "type": "uint256"
        }
      ],
      "name": "Transfer",
      "type": "event"
    },
    {
      "inputs": [],
      "name": "DAO",
      "outputs": [
        {
          "internalType": "address",
          "name": "",
          "type": "address"
        }
      ],
      "stateMutability": "view",
      "type": "function"
    },
    {
      "inputs": [],
      "name": "RESERVE",
      "outputs": [
        {
          "internalType": "address",
          "name": "",
          "type": "address"
        }
      ],
      "stateMutability": "view",
      "type": "function"
    },
    {
      "inputs": [],
      "name": "USDV",
      "outputs": [
        {
          "internalType": "address",
          "name": "",
          "type": "address"
        }
      ],
      "stateMutability": "view",
      "type": "function"
    },
    {
      "inputs": [],
      "name": "UTILS",
      "outputs": [
        {
          "internalType": "address",
          "name": "",
          "type": "address"
        }
      ],
      "stateMutability": "view",
      "type": "function"
    },
    {
      "inputs": [],
      "name": "VETHER",
      "outputs": [
        {
          "internalType": "address",
          "name": "",
          "type": "address"
        }
      ],
      "stateMutability": "view",
      "type": "function"
    },
    {
      "inputs": [
        {
          "internalType": "address",
          "name": "owner",
          "type": "address"
        },
        {
          "internalType": "address",
          "name": "spender",
          "type": "address"
        }
      ],
      "name": "allowance",
      "outputs": [
        {
          "internalType": "uint256",
          "name": "",
          "type": "uint256"
        }
      ],
      "stateMutability": "view",
      "type": "function"
    },
    {
      "inputs": [
        {
          "internalType": "address",
          "name": "spender",
          "type": "address"
        },
        {
          "internalType": "uint256",
          "name": "amount",
          "type": "uint256"
        }
      ],
      "name": "approve",
      "outputs": [
        {
          "internalType": "bool",
          "name": "",
          "type": "bool"
        }
      ],
      "stateMutability": "nonpayable",
      "type": "function"
    },
    {
      "inputs": [
        {
          "internalType": "address",
          "name": "account",
          "type": "address"
        }
      ],
      "name": "balanceOf",
      "outputs": [
        {
          "internalType": "uint256",
          "name": "",
          "type": "uint256"
        }
      ],
      "stateMutability": "view",
      "type": "function"
    },
    {
      "inputs": [],
      "name": "baseline",
      "outputs": [
        {
          "internalType": "uint256",
          "name": "",
          "type": "uint256"
        }
      ],
      "stateMutability": "view",
      "type": "function"
    },
    {
      "inputs": [
        {
          "internalType": "uint256",
          "name": "amount",
          "type": "uint256"
        }
      ],
      "name": "burn",
      "outputs": [],
      "stateMutability": "nonpayable",
      "type": "function"
    },
    {
      "inputs": [],
      "name": "burnAddress",
      "outputs": [
        {
          "internalType": "address",
          "name": "",
          "type": "address"
        }
      ],
      "stateMutability": "view",
      "type": "function"
    },
    {
      "inputs": [
        {
          "internalType": "address",
          "name": "account",
          "type": "address"
        },
        {
          "internalType": "uint256",
          "name": "amount",
          "type": "uint256"
        }
      ],
      "name": "burnFrom",
      "outputs": [],
      "stateMutability": "nonpayable",
      "type": "function"
    },
    {
      "inputs": [
        {
          "internalType": "address",
          "name": "newDAO",
          "type": "address"
        }
      ],
      "name": "changeDAO",
      "outputs": [],
      "stateMutability": "nonpayable",
      "type": "function"
    },
    {
      "inputs": [
        {
          "internalType": "address",
          "name": "newUTILS",
          "type": "address"
        }
      ],
      "name": "changeUTILS",
      "outputs": [],
      "stateMutability": "nonpayable",
      "type": "function"
    },
    {
      "inputs": [],
      "name": "conversionFactor",
      "outputs": [
        {
          "internalType": "uint256",
          "name": "",
          "type": "uint256"
        }
      ],
      "stateMutability": "view",
      "type": "function"
    },
    {
      "inputs": [],
      "name": "currentEra",
      "outputs": [
        {
          "internalType": "uint256",
          "name": "",
          "type": "uint256"
        }
      ],
      "stateMutability": "view",
      "type": "function"
    },
    {
      "inputs": [],
      "name": "decimals",
      "outputs": [
        {
          "internalType": "uint256",
          "name": "",
          "type": "uint256"
        }
      ],
      "stateMutability": "view",
      "type": "function"
    },
    {
      "inputs": [],
      "name": "emissionCurve",
      "outputs": [
        {
          "internalType": "uint256",
          "name": "",
          "type": "uint256"
        }
      ],
      "stateMutability": "view",
      "type": "function"
    },
    {
      "inputs": [],
      "name": "emitting",
      "outputs": [
        {
          "internalType": "bool",
          "name": "",
          "type": "bool"
        }
      ],
      "stateMutability": "view",
      "type": "function"
    },
    {
      "inputs": [],
      "name": "feeOnTransfer",
      "outputs": [
        {
          "internalType": "uint256",
          "name": "",
          "type": "uint256"
        }
      ],
      "stateMutability": "view",
      "type": "function"
    },
    {
      "inputs": [],
      "name": "flipEmissions",
      "outputs": [],
      "stateMutability": "nonpayable",
      "type": "function"
    },
    {
      "inputs": [],
      "name": "flipMinting",
      "outputs": [],
      "stateMutability": "nonpayable",
      "type": "function"
    },
    {
      "inputs": [],
      "name": "getDailyEmission",
      "outputs": [
        {
          "internalType": "uint256",
          "name": "",
          "type": "uint256"
        }
      ],
      "stateMutability": "view",
      "type": "function"
    },
    {
      "inputs": [
        {
          "internalType": "address",
          "name": "_vether",
          "type": "address"
        },
        {
          "internalType": "address",
          "name": "_USDV",
          "type": "address"
        },
        {
          "internalType": "address",
          "name": "_utils",
          "type": "address"
        },
        {
          "internalType": "address",
          "name": "_reserve",
          "type": "address"
        }
      ],
      "name": "init",
      "outputs": [],
      "stateMutability": "nonpayable",
      "type": "function"
    },
    {
      "inputs": [],
      "name": "isMature",
      "outputs": [
        {
          "internalType": "bool",
          "name": "",
          "type": "bool"
        }
      ],
      "stateMutability": "view",
      "type": "function"
    },
    {
      "inputs": [],
      "name": "maxSupply",
      "outputs": [
        {
          "internalType": "uint256",
          "name": "",
          "type": "uint256"
        }
      ],
      "stateMutability": "view",
      "type": "function"
    },
    {
      "inputs": [],
      "name": "minting",
      "outputs": [
        {
          "internalType": "bool",
          "name": "",
          "type": "bool"
        }
      ],
      "stateMutability": "view",
      "type": "function"
    },
    {
      "inputs": [],
      "name": "name",
      "outputs": [
        {
          "internalType": "string",
          "name": "",
          "type": "string"
        }
      ],
      "stateMutability": "view",
      "type": "function"
    },
    {
      "inputs": [],
      "name": "nextEraTime",
      "outputs": [
        {
          "internalType": "uint256",
          "name": "",
          "type": "uint256"
        }
      ],
      "stateMutability": "view",
      "type": "function"
    },
    {
      "inputs": [],
      "name": "purgeDAO",
      "outputs": [],
      "stateMutability": "nonpayable",
      "type": "function"
    },
    {
      "inputs": [],
      "name": "redeem",
      "outputs": [
        {
          "internalType": "uint256",
          "name": "redeemAmount",
          "type": "uint256"
        }
      ],
      "stateMutability": "nonpayable",
      "type": "function"
    },
    {
      "inputs": [
        {
          "internalType": "address",
          "name": "member",
          "type": "address"
        }
      ],
      "name": "redeemToMember",
      "outputs": [
        {
          "internalType": "uint256",
          "name": "redeemAmount",
          "type": "uint256"
        }
      ],
      "stateMutability": "nonpayable",
      "type": "function"
    },
    {
      "inputs": [],
      "name": "secondsPerEra",
      "outputs": [
        {
          "internalType": "uint256",
          "name": "",
          "type": "uint256"
        }
      ],
      "stateMutability": "view",
      "type": "function"
    },
    {
      "inputs": [
        {
          "internalType": "uint256",
          "name": "newEra",
          "type": "uint256"
        },
        {
          "internalType": "uint256",
          "name": "newCurve",
          "type": "uint256"
        }
      ],
      "name": "setParams",
      "outputs": [],
      "stateMutability": "nonpayable",
      "type": "function"
    },
    {
      "inputs": [
        {
          "internalType": "address",
          "name": "newReserve",
          "type": "address"
        }
      ],
      "name": "setReserve",
      "outputs": [],
      "stateMutability": "nonpayable",
      "type": "function"
    },
    {
      "inputs": [],
      "name": "symbol",
      "outputs": [
        {
          "internalType": "string",
          "name": "",
          "type": "string"
        }
      ],
      "stateMutability": "view",
      "type": "function"
    },
    {
      "inputs": [],
      "name": "totalSupply",
      "outputs": [
        {
          "internalType": "uint256",
          "name": "",
          "type": "uint256"
        }
      ],
      "stateMutability": "view",
      "type": "function"
    },
    {
      "inputs": [
        {
          "internalType": "address",
          "name": "recipient",
          "type": "address"
        },
        {
          "internalType": "uint256",
          "name": "amount",
          "type": "uint256"
        }
      ],
      "name": "transfer",
      "outputs": [
        {
          "internalType": "bool",
          "name": "",
          "type": "bool"
        }
      ],
      "stateMutability": "nonpayable",
      "type": "function"
    },
    {
      "inputs": [
        {
          "internalType": "address",
          "name": "sender",
          "type": "address"
        },
        {
          "internalType": "address",
          "name": "recipient",
          "type": "address"
        },
        {
          "internalType": "uint256",
          "name": "amount",
          "type": "uint256"
        }
      ],
      "name": "transferFrom",
      "outputs": [
        {
          "internalType": "bool",
          "name": "",
          "type": "bool"
        }
      ],
      "stateMutability": "nonpayable",
      "type": "function"
    },
    {
      "inputs": [
        {
          "internalType": "address",
          "name": "recipient",
          "type": "address"
        },
        {
          "internalType": "uint256",
          "name": "amount",
          "type": "uint256"
        }
      ],
      "name": "transferTo",
      "outputs": [
        {
          "internalType": "bool",
          "name": "",
          "type": "bool"
        }
      ],
      "stateMutability": "nonpayable",
      "type": "function"
    },
    {
      "inputs": [
        {
          "internalType": "uint256",
          "name": "amount",
          "type": "uint256"
        }
      ],
      "name": "upgrade",
      "outputs": [],
      "stateMutability": "nonpayable",
      "type": "function"
    }
  ],
  "bytecode": "0x60806040523480156200001157600080fd5b506040805180820190915260148082527f56414445522050524f544f434f4c20544f4b454e0000000000000000000000006020909201918252620000589160009162000126565b50604080518082019091526005808252642b20a222a960d91b6020909201918252620000879160019162000126565b50601260028190556200009c90600a62000234565b620000ac90633b9aca0062000329565b60088190556000600355620000c390600262000329565b600a556103e86007556001600c819055600b819055620000e49042620001cc565b600d55600a600955601380546001600160a01b03199081163317909155601480549091167301110110011000010110110001110101011001011790556200039e565b82805462000134906200034b565b90600052602060002090601f016020900481019282620001585760008555620001a3565b82601f106200017357805160ff1916838001178555620001a3565b82800160010185558215620001a3579182015b82811115620001a357825182559160200191906001019062000186565b50620001b1929150620001b5565b5090565b5b80821115620001b15760008155600101620001b6565b60008219821115620001e257620001e262000388565b500190565b80825b6001808611620001fb57506200022b565b81870482111562000210576200021062000388565b808616156200021e57918102915b9490941c938002620001ea565b94509492505050565b60006200024560001984846200024c565b9392505050565b6000826200025d5750600162000245565b816200026c5750600062000245565b81600181146200028557600281146200029057620002c4565b600191505062000245565b60ff841115620002a457620002a462000388565b6001841b915084821115620002bd57620002bd62000388565b5062000245565b5060208310610133831016604e8410600b8410161715620002fc575081810a83811115620002f657620002f662000388565b62000245565b6200030b8484846001620001e7565b80860482111562000320576200032062000388565b02949350505050565b600081600019048311821515161562000346576200034662000388565b500290565b600181811c908216806200036057607f821691505b602082108114156200038257634e487b7160e01b600052602260045260246000fd5b50919050565b634e487b7160e01b600052601160045260246000fd5b61165080620003ae6000396000f3fe608060405234801561001057600080fd5b50600436106102535760003560e01c806379cc679011610146578063ab2637af116100c3578063c91b6b4611610087578063c91b6b46146104ad578063d5abeb01146104b5578063dd62ed3e146104be578063e2c3b046146104f7578063f293e6751461050a578063fe1fa8fa1461051257610253565b8063ab2637af1461046e578063ae4e7fdf14610477578063be040fb01461047f578063c0324c7714610487578063c30a0ce71461049a57610253565b806398fabd3a1161010a57806398fabd3a146104195780639a67759b1461042c5780639cecc80a146104355780639d2cc43614610448578063a9059cbb1461045b57610253565b806379cc6790146103cf5780637b0e5c45146103e25780637dc2268c146103f557806395d89b4114610408578063973628f61461041057610253565b80632ccb1b30116101d45780634c4d46b0116101985780634c4d46b01461036c578063602631ef146103975780636b92a3b6146103a057806370a08231146103a957806370d5ae05146103bc57610253565b80632ccb1b30146103225780632deaa11614610335578063313ce5671461033d57806342966c681461034657806345977d031461035957610253565b80630fa1eeab1161021b5780630fa1eeab146102d757806318160ddd146102e057806319234334146102e95780631d007f5f146102fc57806323b872dd1461030f57610253565b806306552ff31461025857806306fdde031461026d5780630781f4d21461028b578063090bbb01146102ad578063095ea7b3146102c4575b600080fd5b61026b61026636600461137c565b61051a565b005b610275610587565b60405161028291906114b3565b60405180910390f35b60065461029d90610100900460ff1681565b6040519015158152602001610282565b6102b6600d5481565b604051908152602001610282565b61029d6102d2366004611417565b610615565b6102b6600e5481565b6102b660035481565b61026b6102f7366004611305565b61062b565b61026b61030a366004611305565b6106a6565b61029d61031d3660046113d7565b610718565b61029d610330366004611417565b61076a565b61026b610777565b6102b660025481565b61026b610354366004611462565b6107d7565b61026b610367366004611462565b6107e4565b600f5461037f906001600160a01b031681565b6040516001600160a01b039091168152602001610282565b6102b660075481565b6102b6600b5481565b6102b66103b7366004611305565b610892565b60145461037f906001600160a01b031681565b61026b6103dd366004611417565b6108b1565b60115461037f906001600160a01b031681565b60065461029d9062010000900460ff1681565b6102756108fc565b6102b6600c5481565b60135461037f906001600160a01b031681565b6102b660095481565b61026b610443366004611305565b610909565b60125461037f906001600160a01b031681565b61029d610469366004611417565b610955565b6102b660085481565b61029d610962565b6102b66109e4565b61026b610495366004611492565b6109ef565b6102b66104a8366004611305565b610a24565b61026b610c66565b6102b6600a5481565b6102b66104cc366004611344565b6001600160a01b03918216600090815260056020908152604080832093909416825291909152205490565b60105461037f906001600160a01b031681565b6102b6610ca2565b61026b610cf9565b60065460ff161561052a57600080fd5b6006805460ff19166001179055600f80546001600160a01b039586166001600160a01b0319918216179091556010805494861694821694909417909355601180549285169284169290921790915560128054919093169116179055565b60008054610594906115ba565b80601f01602080910402602001604051908101604052809291908181526020018280546105c0906115ba565b801561060d5780601f106105e25761010080835404028352916020019161060d565b820191906000526020600020905b8154815290600101906020018083116105f057829003601f168201915b505050505081565b6000610622338484610d54565b50600192915050565b6013546001600160a01b0316331461065e5760405162461bcd60e51b815260040161065590611506565b60405180910390fd5b6001600160a01b0381166106845760405162461bcd60e51b815260040161065590611527565b601180546001600160a01b0319166001600160a01b0392909216919091179055565b6013546001600160a01b031633146106d05760405162461bcd60e51b815260040161065590611506565b6001600160a01b0381166106f65760405162461bcd60e51b815260040161065590611527565b601380546001600160a01b0319166001600160a01b0392909216919091179055565b6000610725848484610e34565b6001600160a01b03841660009081526005602090815260408083203380855292529091205461076091869161075b9086906115a3565b610d54565b5060019392505050565b6000610622328484610e34565b6013546001600160a01b031633146107a15760405162461bcd60e51b815260040161065590611506565b60065462010000900460ff16156107c3576006805462ff0000191690556107d5565b6006805462ff00001916620100001790555b565b6107e13382611016565b50565b600f546014546040516323b872dd60e01b81523360048201526001600160a01b039182166024820152604481018490529116906323b872dd90606401602060405180830381600087803b15801561083a57600080fd5b505af115801561084e573d6000803e3d6000fd5b505050506040513d601f19601f820116820180604052508101906108729190611442565b61087b57600080fd5b6107e1336007548361088d9190611584565b6110c8565b6001600160a01b0381166000908152600460205260409020545b919050565b6001600160a01b03821660009081526005602090815260408083203384529091528120546108e09083906115a3565b90506108ed833383610d54565b6108f78383611016565b505050565b60018054610594906115ba565b6013546001600160a01b031633146109335760405162461bcd60e51b815260040161065590611506565b601280546001600160a01b0319166001600160a01b0392909216919091179055565b6000610622338484610e34565b6010546040805163ae4e7fdf60e01b815290516000926001600160a01b03169163ae4e7fdf916004808301926020929190829003018186803b1580156109a757600080fd5b505afa1580156109bb573d6000803e3d6000fd5b505050506040513d601f19601f820116820180604052508101906109df9190611442565b905090565b60006109df33610a24565b6013546001600160a01b03163314610a195760405162461bcd60e51b815260040161065590611506565b600b91909155600955565b6000610a2e610962565b610a655760405162461bcd60e51b815260206004820152600860248201526709cde40ccd8c2e6d60c31b6044820152606401610655565b60065462010000900460ff16156108ac576010546040516370a0823160e01b81523060048201526000916001600160a01b0316906370a082319060240160206040518083038186803b158015610aba57600080fd5b505afa158015610ace573d6000803e3d6000fd5b505050506040513d601f19601f82011682018060405250810190610af2919061147a565b601054604051630852cd8d60e31b8152600481018390529192506001600160a01b0316906342966c6890602401600060405180830381600087803b158015610b3957600080fd5b505af1158015610b4d573d6000803e3d6000fd5b50505050601060009054906101000a90046001600160a01b03166001600160a01b03166332fe7b266040518163ffffffff1660e01b815260040160206040518083038186803b158015610b9f57600080fd5b505afa158015610bb3573d6000803e3d6000fd5b505050506040513d601f19601f82011682018060405250810190610bd79190611328565b6001600160a01b0316636cc06ded826040518263ffffffff1660e01b8152600401610c0491815260200190565b60206040518083038186803b158015610c1c57600080fd5b505afa158015610c30573d6000803e3d6000fd5b505050506040513d601f19601f82011682018060405250810190610c54919061147a565b9150610c6083836110c8565b50919050565b6013546001600160a01b03163314610c905760405162461bcd60e51b815260040161065590611506565b601380546001600160a01b0319169055565b60008060085460035411610cd457600854600354600a54610cc39190611584565b610ccd9190611564565b9050610cd9565b50600a545b600954600354610ce990836115a3565b610cf39190611564565b91505090565b6013546001600160a01b03163314610d235760405162461bcd60e51b815260040161065590611506565b600654610100900460ff1615610d43576006805461ff00191690556107d5565b6006805461ff001916610100179055565b6001600160a01b038316610d935760405162461bcd60e51b815260206004820152600660248201526539b2b73232b960d11b6044820152606401610655565b6001600160a01b038216610dd35760405162461bcd60e51b815260206004820152600760248201526639b832b73232b960c91b6044820152606401610655565b6001600160a01b0383811660008181526005602090815260408083209487168084529482529182902085905590518481527f8c5be1e5ebec7d5bd14f71427d1e84f3dd0314c0f7b2291e5b200ac8c7c3b925910160405180910390a3505050565b6001600160a01b038316610e735760405162461bcd60e51b815260206004820152600660248201526539b2b73232b960d11b6044820152606401610655565b6001600160a01b038216301415610eb85760405162461bcd60e51b81526020600482015260096024820152681c9958da5c1a595b9d60ba1b6044820152606401610655565b6001600160a01b03831660009081526004602052604081208054839290610ee09084906115a3565b9091555050601154600e5460405163714270ab60e01b81526004810191909152602481018390526000916001600160a01b03169063714270ab9060440160206040518083038186803b158015610f3557600080fd5b505afa158015610f49573d6000803e3d6000fd5b505050506040513d601f19601f82011682018060405250810190610f6d919061147a565b9050818111610f8c57610f8081836115a3565b9150610f8c3382611016565b6001600160a01b03831660009081526004602052604081208054849290610fb490849061154c565b92505081905550826001600160a01b0316846001600160a01b03167fddf252ad1be2c89b69c2b068fc378daa952ba7f163c4a11628f55a4df523b3ef8460405161100091815260200190565b60405180910390a36110106111b5565b50505050565b6001600160a01b03821661103c5760405162461bcd60e51b815260040161065590611527565b6001600160a01b038216600090815260046020526040812080548392906110649084906115a3565b92505081905550806003600082825461107d91906115a3565b90915550506040518181526000906001600160a01b038416907fddf252ad1be2c89b69c2b068fc378daa952ba7f163c4a11628f55a4df523b3ef906020015b60405180910390a35050565b6001600160a01b03821661110a5760405162461bcd60e51b81526020600482015260096024820152681c9958da5c1a595b9d60ba1b6044820152606401610655565b600a548160035461111b919061154c565b1061113357600354600a5461113091906115a3565b90505b8060036000828254611145919061154c565b90915550506001600160a01b0382166000908152600460205260408120805483929061117290849061154c565b90915550506040518181526001600160a01b038316906000907fddf252ad1be2c89b69c2b068fc378daa952ba7f163c4a11628f55a4df523b3ef906020016110bc565b600d5442101580156111ce5750600654610100900460ff165b156107d5576001600c60008282546111e6919061154c565b9091555050600b546111f8904261154c565b600d556000611205610ca2565b60125490915061121e906001600160a01b0316826110c8565b601154600354600a54604051638b18b11560e01b8152600481019290925260248201526001600160a01b0390911690638b18b1159060440160206040518083038186803b15801561126e57600080fd5b505afa158015611282573d6000803e3d6000fd5b505050506040513d601f19601f820116820180604052508101906112a6919061147a565b600e8190556103e810156112bb576103e8600e555b600c54600d5460408051928352602083019190915281018290527f9d472bcf372fce01fd875c3296e8e5ae0a08bfca42dedac19e202271ce8f39c59060600160405180910390a150565b600060208284031215611316578081fd5b813561132181611605565b9392505050565b600060208284031215611339578081fd5b815161132181611605565b60008060408385031215611356578081fd5b823561136181611605565b9150602083013561137181611605565b809150509250929050565b60008060008060808587031215611391578182fd5b843561139c81611605565b935060208501356113ac81611605565b925060408501356113bc81611605565b915060608501356113cc81611605565b939692955090935050565b6000806000606084860312156113eb578283fd5b83356113f681611605565b9250602084013561140681611605565b929592945050506040919091013590565b60008060408385031215611429578182fd5b823561143481611605565b946020939093013593505050565b600060208284031215611453578081fd5b81518015158114611321578182fd5b600060208284031215611473578081fd5b5035919050565b60006020828403121561148b578081fd5b5051919050565b600080604083850312156114a4578182fd5b50508035926020909101359150565b6000602080835283518082850152825b818110156114df578581018301518582016040015282016114c3565b818111156114f05783604083870101525b50601f01601f1916929092016040019392505050565b6020808252600790820152664e6f742044414f60c81b604082015260600190565b6020808252600b908201526a30b2323932b9b99032b93960a91b604082015260600190565b6000821982111561155f5761155f6115ef565b500190565b60008261157f57634e487b7160e01b81526012600452602481fd5b500490565b600081600019048311821515161561159e5761159e6115ef565b500290565b6000828210156115b5576115b56115ef565b500390565b600181811c908216806115ce57607f821691505b60208210811415610c6057634e487b7160e01b600052602260045260246000fd5b634e487b7160e01b600052601160045260246000fd5b6001600160a01b03811681146107e157600080fdfea2646970667358221220cabb8b36873acaf499cf12fef0d82af9270c0f4f5e3e58a6f839e3eb847f982164736f6c63430008030033",
  "linkReferences": {},
  "deployedLinkReferences": {}
}