{
  "_format": "hh-sol-artifact-1",
  "contractName": "Token2",
  "sourceName": "contracts/Token2.sol",
  "abi": [
    {
      "inputs": [],
      "stateMutability": "nonpayable",
      "type": "constructor"
    },
    {
      "anonymous": false,
      "inputs": [
        {
          "indexed": true,
          "internalType": "address",
          "name": "owner",
          "type": "address"
        },
        {
          "indexed": true,
          "internalType": "address",
          "name": "spender",
          "type": "address"
        },
        {
          "indexed": false,
          "internalType": "uint256",
          "name": "value",
          "type": "uint256"
        }
      ],
      "name": "Approval",
      "type": "event"
    },
    {
      "anonymous": false,
      "inputs": [
        {
          "indexed": true,
          "internalType": "address",
          "name": "from",
          "type": "address"
        },
        {
          "indexed": true,
          "internalType": "address",
          "name": "to",
          "type": "address"
        },
        {
          "indexed": false,
          "internalType": "uint256",
          "name": "value",
          "type": "uint256"
        }
      ],
      "name": "Transfer",
      "type": "event"
    },
    {
      "inputs": [
        {
          "internalType": "address",
          "name": "owner",
          "type": "address"
        },
        {
          "internalType": "address",
          "name": "spender",
          "type": "address"
        }
      ],
      "name": "allowance",
      "outputs": [
        {
          "internalType": "uint256",
          "name": "",
          "type": "uint256"
        }
      ],
      "stateMutability": "view",
      "type": "function"
    },
    {
      "inputs": [
        {
          "internalType": "address",
          "name": "spender",
          "type": "address"
        },
        {
          "internalType": "uint256",
          "name": "amount",
          "type": "uint256"
        }
      ],
      "name": "approve",
      "outputs": [
        {
          "internalType": "bool",
          "name": "",
          "type": "bool"
        }
      ],
      "stateMutability": "nonpayable",
      "type": "function"
    },
    {
      "inputs": [
        {
          "internalType": "address",
          "name": "account",
          "type": "address"
        }
      ],
      "name": "balanceOf",
      "outputs": [
        {
          "internalType": "uint256",
          "name": "",
          "type": "uint256"
        }
      ],
      "stateMutability": "view",
      "type": "function"
    },
    {
      "inputs": [
        {
          "internalType": "uint256",
          "name": "amount",
          "type": "uint256"
        }
      ],
      "name": "burn",
      "outputs": [],
      "stateMutability": "nonpayable",
      "type": "function"
    },
    {
      "inputs": [
        {
          "internalType": "address",
          "name": "account",
          "type": "address"
        },
        {
          "internalType": "uint256",
          "name": "amount",
          "type": "uint256"
        }
      ],
      "name": "burnFrom",
      "outputs": [],
      "stateMutability": "nonpayable",
      "type": "function"
    },
    {
      "inputs": [],
      "name": "decimals",
      "outputs": [
        {
          "internalType": "uint256",
          "name": "",
          "type": "uint256"
        }
      ],
      "stateMutability": "view",
      "type": "function"
    },
    {
      "inputs": [],
      "name": "name",
      "outputs": [
        {
          "internalType": "string",
          "name": "",
          "type": "string"
        }
      ],
      "stateMutability": "view",
      "type": "function"
    },
    {
      "inputs": [],
      "name": "symbol",
      "outputs": [
        {
          "internalType": "string",
          "name": "",
          "type": "string"
        }
      ],
      "stateMutability": "view",
      "type": "function"
    },
    {
      "inputs": [],
      "name": "totalSupply",
      "outputs": [
        {
          "internalType": "uint256",
          "name": "",
          "type": "uint256"
        }
      ],
      "stateMutability": "view",
      "type": "function"
    },
    {
      "inputs": [
        {
          "internalType": "address",
          "name": "recipient",
          "type": "address"
        },
        {
          "internalType": "uint256",
          "name": "amount",
          "type": "uint256"
        }
      ],
      "name": "transfer",
      "outputs": [
        {
          "internalType": "bool",
          "name": "",
          "type": "bool"
        }
      ],
      "stateMutability": "nonpayable",
      "type": "function"
    },
    {
      "inputs": [
        {
          "internalType": "address",
          "name": "sender",
          "type": "address"
        },
        {
          "internalType": "address",
          "name": "recipient",
          "type": "address"
        },
        {
          "internalType": "uint256",
          "name": "amount",
          "type": "uint256"
        }
      ],
      "name": "transferFrom",
      "outputs": [
        {
          "internalType": "bool",
          "name": "",
          "type": "bool"
        }
      ],
      "stateMutability": "nonpayable",
      "type": "function"
    },
    {
      "inputs": [
        {
          "internalType": "address",
          "name": "recipient",
          "type": "address"
        },
        {
          "internalType": "uint256",
          "name": "amount",
          "type": "uint256"
        }
      ],
      "name": "transferTo",
      "outputs": [
        {
          "internalType": "bool",
          "name": "",
          "type": "bool"
        }
      ],
      "stateMutability": "nonpayable",
      "type": "function"
    }
  ],
  "bytecode": "0x6080604052601260028190556200001890600a620001df565b6200002890633b9aca00620002d4565b6003553480156200003857600080fd5b506003543360009081526004602090815260408083209390935582518084019093526006808452652a37b5b2b71960d11b939091019283526200007c9290620000ec565b50604080518082019091526004808252632a25a71960e11b6020909201918252620000aa91600191620000ec565b5060035460405190815233906000907fddf252ad1be2c89b69c2b068fc378daa952ba7f163c4a11628f55a4df523b3ef9060200160405180910390a362000349565b828054620000fa90620002f6565b90600052602060002090601f0160209004810192826200011e576000855562000169565b82601f106200013957805160ff191683800117855562000169565b8280016001018555821562000169579182015b82811115620001695782518255916020019190600101906200014c565b50620001779291506200017b565b5090565b5b808211156200017757600081556001016200017c565b80825b6001808611620001a65750620001d6565b818704821115620001bb57620001bb62000333565b80861615620001c957918102915b9490941c93800262000195565b94509492505050565b6000620001f06000198484620001f7565b9392505050565b6000826200020857506001620001f0565b816200021757506000620001f0565b81600181146200023057600281146200023b576200026f565b6001915050620001f0565b60ff8411156200024f576200024f62000333565b6001841b91508482111562000268576200026862000333565b50620001f0565b5060208310610133831016604e8410600b8410161715620002a7575081810a83811115620002a157620002a162000333565b620001f0565b620002b6848484600162000192565b808604821115620002cb57620002cb62000333565b02949350505050565b6000816000190483118215151615620002f157620002f162000333565b500290565b600181811c908216806200030b57607f821691505b602082108114156200032d57634e487b7160e01b600052602260045260246000fd5b50919050565b634e487b7160e01b600052601160045260246000fd5b6107e780620003596000396000f3fe608060405234801561001057600080fd5b50600436106100b45760003560e01c806342966c681161007157806342966c681461014057806370a082311461015557806379cc67901461016857806395d89b411461017b578063a9059cbb14610183578063dd62ed3e14610196576100b4565b806306fdde03146100b9578063095ea7b3146100d757806318160ddd146100fa57806323b872dd146101115780632ccb1b3014610124578063313ce56714610137575b600080fd5b6100c16101cf565b6040516100ce91906106de565b60405180910390f35b6100ea6100e536600461069d565b61025d565b60405190151581526020016100ce565b61010360035481565b6040519081526020016100ce565b6100ea61011f366004610662565b610273565b6100ea61013236600461069d565b6102c5565b61010360025481565b61015361014e3660046106c6565b6102d2565b005b61010361016336600461060f565b6102df565b61015361017636600461069d565b6102fe565b6100c1610349565b6100ea61019136600461069d565b610356565b6101036101a4366004610630565b6001600160a01b03918216600090815260056020908152604080832093909416825291909152205490565b600080546101dc90610760565b80601f016020809104026020016040519081016040528092919081815260200182805461020890610760565b80156102555780601f1061022a57610100808354040283529160200191610255565b820191906000526020600020905b81548152906001019060200180831161023857829003601f168201915b505050505081565b600061026a338484610363565b50600192915050565b6000610280848484610449565b6001600160a01b0384166000908152600560209081526040808320338085529252909120546102bb9186916102b6908690610749565b610363565b5060019392505050565b600061026a328484610449565b6102dc3382610529565b50565b6001600160a01b0381166000908152600460205260409020545b919050565b6001600160a01b038216600090815260056020908152604080832033845290915281205461032d908390610749565b905061033a833383610363565b6103448383610529565b505050565b600180546101dc90610760565b600061026a338484610449565b6001600160a01b0383166103a75760405162461bcd60e51b815260206004820152600660248201526539b2b73232b960d11b60448201526064015b60405180910390fd5b6001600160a01b0382166103e75760405162461bcd60e51b815260206004820152600760248201526639b832b73232b960c91b604482015260640161039e565b6001600160a01b0383811660008181526005602090815260408083209487168084529482529182902085905590518481527f8c5be1e5ebec7d5bd14f71427d1e84f3dd0314c0f7b2291e5b200ac8c7c3b92591015b60405180910390a3505050565b6001600160a01b0383166104885760405162461bcd60e51b815260206004820152600660248201526539b2b73232b960d11b604482015260640161039e565b6001600160a01b038316600090815260046020526040812080548392906104b0908490610749565b90915550506001600160a01b038216600090815260046020526040812080548392906104dd908490610731565b92505081905550816001600160a01b0316836001600160a01b03167fddf252ad1be2c89b69c2b068fc378daa952ba7f163c4a11628f55a4df523b3ef8360405161043c91815260200190565b6001600160a01b03821661056d5760405162461bcd60e51b815260206004820152600b60248201526a30b2323932b9b99032b93960a91b604482015260640161039e565b6001600160a01b03821660009081526004602052604081208054839290610595908490610749565b9250508190555080600360008282546105ae9190610749565b90915550506040518181526000906001600160a01b038416907fddf252ad1be2c89b69c2b068fc378daa952ba7f163c4a11628f55a4df523b3ef9060200160405180910390a35050565b80356001600160a01b03811681146102f957600080fd5b600060208284031215610620578081fd5b610629826105f8565b9392505050565b60008060408385031215610642578081fd5b61064b836105f8565b9150610659602084016105f8565b90509250929050565b600080600060608486031215610676578081fd5b61067f846105f8565b925061068d602085016105f8565b9150604084013590509250925092565b600080604083850312156106af578182fd5b6106b8836105f8565b946020939093013593505050565b6000602082840312156106d7578081fd5b5035919050565b6000602080835283518082850152825b8181101561070a578581018301518582016040015282016106ee565b8181111561071b5783604083870101525b50601f01601f1916929092016040019392505050565b600082198211156107445761074461079b565b500190565b60008282101561075b5761075b61079b565b500390565b600181811c9082168061077457607f821691505b6020821081141561079557634e487b7160e01b600052602260045260246000fd5b50919050565b634e487b7160e01b600052601160045260246000fdfea26469706673582212206188e8188a18c3104b4b229f466bf0d90830625607775f9e641060c6beb9d2d864736f6c63430008030033",
  "linkReferences": {},
  "deployedLinkReferences": {}
}