{
  "_format": "hh-sol-artifact-1",
  "contractName": "Token2",
  "sourceName": "contracts/Token2.sol",
  "abi": [
    {
      "inputs": [],
      "stateMutability": "nonpayable",
      "type": "constructor"
    },
    {
      "anonymous": false,
      "inputs": [
        {
          "indexed": true,
          "internalType": "address",
          "name": "owner",
          "type": "address"
        },
        {
          "indexed": true,
          "internalType": "address",
          "name": "spender",
          "type": "address"
        },
        {
          "indexed": false,
          "internalType": "uint256",
          "name": "value",
          "type": "uint256"
        }
      ],
      "name": "Approval",
      "type": "event"
    },
    {
      "anonymous": false,
      "inputs": [
        {
          "indexed": true,
          "internalType": "address",
          "name": "from",
          "type": "address"
        },
        {
          "indexed": true,
          "internalType": "address",
          "name": "to",
          "type": "address"
        },
        {
          "indexed": false,
          "internalType": "uint256",
          "name": "value",
          "type": "uint256"
        }
      ],
      "name": "Transfer",
      "type": "event"
    },
    {
      "inputs": [
        {
          "internalType": "address",
          "name": "owner",
          "type": "address"
        },
        {
          "internalType": "address",
          "name": "spender",
          "type": "address"
        }
      ],
      "name": "allowance",
      "outputs": [
        {
          "internalType": "uint256",
          "name": "",
          "type": "uint256"
        }
      ],
      "stateMutability": "view",
      "type": "function"
    },
    {
      "inputs": [
        {
          "internalType": "address",
          "name": "spender",
          "type": "address"
        },
        {
          "internalType": "uint256",
          "name": "amount",
          "type": "uint256"
        }
      ],
      "name": "approve",
      "outputs": [
        {
          "internalType": "bool",
          "name": "",
          "type": "bool"
        }
      ],
      "stateMutability": "nonpayable",
      "type": "function"
    },
    {
      "inputs": [
        {
          "internalType": "address",
          "name": "account",
          "type": "address"
        }
      ],
      "name": "balanceOf",
      "outputs": [
        {
          "internalType": "uint256",
          "name": "",
          "type": "uint256"
        }
      ],
      "stateMutability": "view",
      "type": "function"
    },
    {
      "inputs": [
        {
          "internalType": "uint256",
          "name": "amount",
          "type": "uint256"
        }
      ],
      "name": "burn",
      "outputs": [],
      "stateMutability": "nonpayable",
      "type": "function"
    },
    {
      "inputs": [
        {
          "internalType": "address",
          "name": "account",
          "type": "address"
        },
        {
          "internalType": "uint256",
          "name": "amount",
          "type": "uint256"
        }
      ],
      "name": "burnFrom",
      "outputs": [],
      "stateMutability": "nonpayable",
      "type": "function"
    },
    {
      "inputs": [],
      "name": "decimals",
      "outputs": [
        {
          "internalType": "uint256",
          "name": "",
          "type": "uint256"
        }
      ],
      "stateMutability": "view",
      "type": "function"
    },
    {
      "inputs": [],
      "name": "name",
      "outputs": [
        {
          "internalType": "string",
          "name": "",
          "type": "string"
        }
      ],
      "stateMutability": "view",
      "type": "function"
    },
    {
      "inputs": [],
      "name": "symbol",
      "outputs": [
        {
          "internalType": "string",
          "name": "",
          "type": "string"
        }
      ],
      "stateMutability": "view",
      "type": "function"
    },
    {
      "inputs": [],
      "name": "totalSupply",
      "outputs": [
        {
          "internalType": "uint256",
          "name": "",
          "type": "uint256"
        }
      ],
      "stateMutability": "view",
      "type": "function"
    },
    {
      "inputs": [
        {
          "internalType": "address",
          "name": "recipient",
          "type": "address"
        },
        {
          "internalType": "uint256",
          "name": "amount",
          "type": "uint256"
        }
      ],
      "name": "transfer",
      "outputs": [
        {
          "internalType": "bool",
          "name": "",
          "type": "bool"
        }
      ],
      "stateMutability": "nonpayable",
      "type": "function"
    },
    {
      "inputs": [
        {
          "internalType": "address",
          "name": "sender",
          "type": "address"
        },
        {
          "internalType": "address",
          "name": "recipient",
          "type": "address"
        },
        {
          "internalType": "uint256",
          "name": "amount",
          "type": "uint256"
        }
      ],
      "name": "transferFrom",
      "outputs": [
        {
          "internalType": "bool",
          "name": "",
          "type": "bool"
        }
      ],
      "stateMutability": "nonpayable",
      "type": "function"
    },
    {
      "inputs": [
        {
          "internalType": "address",
          "name": "recipient",
          "type": "address"
        },
        {
          "internalType": "uint256",
          "name": "amount",
          "type": "uint256"
        }
      ],
      "name": "transferTo",
      "outputs": [
        {
          "internalType": "bool",
          "name": "",
          "type": "bool"
        }
      ],
      "stateMutability": "nonpayable",
      "type": "function"
    }
  ],
  "bytecode": "0x6080604052601260028190556200001890600a620001df565b6200002890633b9aca00620002d4565b6003553480156200003857600080fd5b506003543360009081526004602090815260408083209390935582518084019093526006808452652a37b5b2b71960d11b939091019283526200007c9290620000ec565b50604080518082019091526004808252632a25a71960e11b6020909201918252620000aa91600191620000ec565b5060035460405190815233906000907fddf252ad1be2c89b69c2b068fc378daa952ba7f163c4a11628f55a4df523b3ef9060200160405180910390a362000349565b828054620000fa90620002f6565b90600052602060002090601f0160209004810192826200011e576000855562000169565b82601f106200013957805160ff191683800117855562000169565b8280016001018555821562000169579182015b82811115620001695782518255916020019190600101906200014c565b50620001779291506200017b565b5090565b5b808211156200017757600081556001016200017c565b80825b6001808611620001a65750620001d6565b818704821115620001bb57620001bb62000333565b80861615620001c957918102915b9490941c93800262000195565b94509492505050565b6000620001f06000198484620001f7565b9392505050565b6000826200020857506001620001f0565b816200021757506000620001f0565b81600181146200023057600281146200023b576200026f565b6001915050620001f0565b60ff8411156200024f576200024f62000333565b6001841b91508482111562000268576200026862000333565b50620001f0565b5060208310610133831016604e8410600b8410161715620002a7575081810a83811115620002a157620002a162000333565b620001f0565b620002b6848484600162000192565b808604821115620002cb57620002cb62000333565b02949350505050565b6000816000190483118215151615620002f157620002f162000333565b500290565b600181811c908216806200030b57607f821691505b602082108114156200032d57634e487b7160e01b600052602260045260246000fd5b50919050565b634e487b7160e01b600052601160045260246000fd5b61081480620003596000396000f3fe608060405234801561001057600080fd5b50600436106100b45760003560e01c806342966c681161007157806342966c681461014057806370a082311461015557806379cc67901461016857806395d89b411461017b578063a9059cbb14610183578063dd62ed3e14610196576100b4565b806306fdde03146100b9578063095ea7b3146100d757806318160ddd146100fa57806323b872dd146101115780632ccb1b3014610124578063313ce56714610137575b600080fd5b6100c16101cf565b6040516100ce919061070b565b60405180910390f35b6100ea6100e53660046106ca565b61025d565b60405190151581526020016100ce565b61010360035481565b6040519081526020016100ce565b6100ea61011f36600461068f565b610273565b6100ea6101323660046106ca565b6102f2565b61010360025481565b61015361014e3660046106f3565b6102ff565b005b61010361016336600461063c565b61030c565b6101536101763660046106ca565b61032b565b6100c1610376565b6100ea6101913660046106ca565b610383565b6101036101a436600461065d565b6001600160a01b03918216600090815260056020908152604080832093909416825291909152205490565b600080546101dc9061078d565b80601f01602080910402602001604051908101604052809291908181526020018280546102089061078d565b80156102555780601f1061022a57610100808354040283529160200191610255565b820191906000526020600020905b81548152906001019060200180831161023857829003601f168201915b505050505081565b600061026a338484610390565b50600192915050565b6000610280848484610476565b6001600160a01b038416600090815260056020908152604080832033845290915290205460001911156102e8576001600160a01b0384166000908152600560209081526040808320338085529252909120546102e89186916102e3908690610776565b610390565b5060019392505050565b600061026a328484610476565b6103093382610556565b50565b6001600160a01b0381166000908152600460205260409020545b919050565b6001600160a01b038216600090815260056020908152604080832033845290915281205461035a908390610776565b9050610367833383610390565b6103718383610556565b505050565b600180546101dc9061078d565b600061026a338484610476565b6001600160a01b0383166103d45760405162461bcd60e51b815260206004820152600660248201526539b2b73232b960d11b60448201526064015b60405180910390fd5b6001600160a01b0382166104145760405162461bcd60e51b815260206004820152600760248201526639b832b73232b960c91b60448201526064016103cb565b6001600160a01b0383811660008181526005602090815260408083209487168084529482529182902085905590518481527f8c5be1e5ebec7d5bd14f71427d1e84f3dd0314c0f7b2291e5b200ac8c7c3b92591015b60405180910390a3505050565b6001600160a01b0383166104b55760405162461bcd60e51b815260206004820152600660248201526539b2b73232b960d11b60448201526064016103cb565b6001600160a01b038316600090815260046020526040812080548392906104dd908490610776565b90915550506001600160a01b0382166000908152600460205260408120805483929061050a90849061075e565b92505081905550816001600160a01b0316836001600160a01b03167fddf252ad1be2c89b69c2b068fc378daa952ba7f163c4a11628f55a4df523b3ef8360405161046991815260200190565b6001600160a01b03821661059a5760405162461bcd60e51b815260206004820152600b60248201526a30b2323932b9b99032b93960a91b60448201526064016103cb565b6001600160a01b038216600090815260046020526040812080548392906105c2908490610776565b9250508190555080600360008282546105db9190610776565b90915550506040518181526000906001600160a01b038416907fddf252ad1be2c89b69c2b068fc378daa952ba7f163c4a11628f55a4df523b3ef9060200160405180910390a35050565b80356001600160a01b038116811461032657600080fd5b60006020828403121561064d578081fd5b61065682610625565b9392505050565b6000806040838503121561066f578081fd5b61067883610625565b915061068660208401610625565b90509250929050565b6000806000606084860312156106a3578081fd5b6106ac84610625565b92506106ba60208501610625565b9150604084013590509250925092565b600080604083850312156106dc578182fd5b6106e583610625565b946020939093013593505050565b600060208284031215610704578081fd5b5035919050565b6000602080835283518082850152825b818110156107375785810183015185820160400152820161071b565b818111156107485783604083870101525b50601f01601f1916929092016040019392505050565b60008219821115610771576107716107c8565b500190565b600082821015610788576107886107c8565b500390565b600181811c908216806107a157607f821691505b602082108114156107c257634e487b7160e01b600052602260045260246000fd5b50919050565b634e487b7160e01b600052601160045260246000fdfea2646970667358221220cdfe3ff2f86e0fe67af2d9f3f061dad3c6313cb70570e0b6aba3fb8b0a65f2d564736f6c63430008030033",
  "linkReferences": {},
  "deployedLinkReferences": {}
}