{
  "contractName": "DAO",
  "abi": [
    {
      "inputs": [],
      "stateMutability": "nonpayable",
      "type": "constructor"
    },
    {
      "anonymous": false,
      "inputs": [
        {
          "indexed": true,
          "internalType": "address",
          "name": "member",
          "type": "address"
        },
        {
          "indexed": true,
          "internalType": "uint256",
          "name": "oldProposalID",
          "type": "uint256"
        },
        {
          "indexed": false,
          "internalType": "uint256",
          "name": "oldVotes",
          "type": "uint256"
        },
        {
          "indexed": false,
          "internalType": "uint256",
          "name": "newVotes",
          "type": "uint256"
        },
        {
          "indexed": false,
          "internalType": "uint256",
          "name": "totalWeight",
          "type": "uint256"
        }
      ],
      "name": "CancelProposal",
      "type": "event"
    },
    {
      "anonymous": false,
      "inputs": [
        {
          "indexed": true,
          "internalType": "address",
          "name": "member",
          "type": "address"
        },
        {
          "indexed": true,
          "internalType": "uint256",
          "name": "proposalID",
          "type": "uint256"
        },
        {
          "indexed": false,
          "internalType": "uint256",
          "name": "votesCast",
          "type": "uint256"
        },
        {
          "indexed": false,
          "internalType": "uint256",
          "name": "totalWeight",
          "type": "uint256"
        },
        {
          "indexed": false,
          "internalType": "string",
          "name": "proposalType",
          "type": "string"
        }
      ],
      "name": "FinalisedProposal",
      "type": "event"
    },
    {
      "anonymous": false,
      "inputs": [
        {
          "indexed": true,
          "internalType": "address",
          "name": "member",
          "type": "address"
        },
        {
          "indexed": true,
          "internalType": "uint256",
          "name": "proposalID",
          "type": "uint256"
        },
        {
          "indexed": false,
          "internalType": "string",
          "name": "proposalType",
          "type": "string"
        }
      ],
      "name": "NewProposal",
      "type": "event"
    },
    {
      "anonymous": false,
      "inputs": [
        {
          "indexed": true,
          "internalType": "address",
          "name": "member",
          "type": "address"
        },
        {
          "indexed": true,
          "internalType": "uint256",
          "name": "proposalID",
          "type": "uint256"
        },
        {
          "indexed": false,
          "internalType": "uint256",
          "name": "voteWeight",
          "type": "uint256"
        },
        {
          "indexed": false,
          "internalType": "uint256",
          "name": "totalVotes",
          "type": "uint256"
        },
        {
          "indexed": false,
          "internalType": "string",
          "name": "proposalType",
          "type": "string"
        }
      ],
      "name": "NewVote",
      "type": "event"
    },
    {
      "anonymous": false,
      "inputs": [
        {
          "indexed": true,
          "internalType": "address",
          "name": "member",
          "type": "address"
        },
        {
          "indexed": true,
          "internalType": "uint256",
          "name": "proposalID",
          "type": "uint256"
        },
        {
          "indexed": false,
          "internalType": "uint256",
          "name": "timeFinalised",
          "type": "uint256"
        },
        {
          "indexed": false,
          "internalType": "string",
          "name": "proposalType",
          "type": "string"
        }
      ],
      "name": "ProposalFinalising",
      "type": "event"
    },
    {
      "inputs": [],
      "name": "COUNCIL",
      "outputs": [
        {
          "internalType": "address",
          "name": "",
          "type": "address"
        }
      ],
      "stateMutability": "view",
      "type": "function",
      "constant": true
    },
    {
      "inputs": [],
      "name": "FACTORY",
      "outputs": [
        {
          "internalType": "address",
          "name": "",
          "type": "address"
        }
      ],
      "stateMutability": "view",
      "type": "function",
      "constant": true
    },
    {
      "inputs": [],
      "name": "LENDER",
      "outputs": [
        {
          "internalType": "address",
          "name": "",
          "type": "address"
        }
      ],
      "stateMutability": "view",
      "type": "function",
      "constant": true
    },
    {
      "inputs": [],
      "name": "POOLS",
      "outputs": [
        {
          "internalType": "address",
          "name": "",
          "type": "address"
        }
      ],
      "stateMutability": "view",
      "type": "function",
      "constant": true
    },
    {
      "inputs": [],
      "name": "RESERVE",
      "outputs": [
        {
          "internalType": "address",
          "name": "",
          "type": "address"
        }
      ],
      "stateMutability": "view",
      "type": "function",
      "constant": true
    },
    {
      "inputs": [],
      "name": "ROUTER",
      "outputs": [
        {
          "internalType": "address",
          "name": "",
          "type": "address"
        }
      ],
      "stateMutability": "view",
      "type": "function",
      "constant": true
    },
    {
      "inputs": [],
      "name": "TIMELOCK",
      "outputs": [
        {
          "internalType": "address",
          "name": "",
          "type": "address"
        }
      ],
      "stateMutability": "view",
      "type": "function",
      "constant": true
    },
    {
      "inputs": [],
      "name": "USDV",
      "outputs": [
        {
          "internalType": "address",
          "name": "",
          "type": "address"
        }
      ],
      "stateMutability": "view",
      "type": "function",
      "constant": true
    },
    {
      "inputs": [],
      "name": "UTILS",
      "outputs": [
        {
          "internalType": "address",
          "name": "",
          "type": "address"
        }
      ],
      "stateMutability": "view",
      "type": "function",
      "constant": true
    },
    {
      "inputs": [],
      "name": "VADER",
      "outputs": [
        {
          "internalType": "address",
          "name": "",
          "type": "address"
        }
      ],
      "stateMutability": "view",
      "type": "function",
      "constant": true
    },
    {
      "inputs": [],
      "name": "VAULT",
      "outputs": [
        {
          "internalType": "address",
          "name": "",
          "type": "address"
        }
      ],
      "stateMutability": "view",
      "type": "function",
      "constant": true
    },
    {
      "inputs": [],
      "name": "VETHER",
      "outputs": [
        {
          "internalType": "address",
          "name": "",
          "type": "address"
        }
      ],
      "stateMutability": "view",
      "type": "function",
      "constant": true
    },
    {
      "inputs": [],
      "name": "coolOffPeriod",
      "outputs": [
        {
          "internalType": "uint256",
          "name": "",
          "type": "uint256"
        }
      ],
      "stateMutability": "view",
      "type": "function",
      "constant": true
    },
    {
      "inputs": [
        {
          "internalType": "uint256",
          "name": "",
          "type": "uint256"
        },
        {
          "internalType": "address",
          "name": "",
          "type": "address"
        }
      ],
      "name": "mapPIDMember_votes",
      "outputs": [
        {
          "internalType": "uint256",
          "name": "",
          "type": "uint256"
        }
      ],
      "stateMutability": "view",
      "type": "function",
      "constant": true
    },
    {
      "inputs": [
        {
          "internalType": "uint256",
          "name": "",
          "type": "uint256"
        }
      ],
      "name": "mapPID_address",
      "outputs": [
        {
          "internalType": "address",
          "name": "",
          "type": "address"
        }
      ],
      "stateMutability": "view",
      "type": "function",
      "constant": true
    },
    {
      "inputs": [
        {
          "internalType": "uint256",
          "name": "",
          "type": "uint256"
        }
      ],
      "name": "mapPID_finalised",
      "outputs": [
        {
          "internalType": "bool",
          "name": "",
          "type": "bool"
        }
      ],
      "stateMutability": "view",
      "type": "function",
      "constant": true
    },
    {
      "inputs": [
        {
          "internalType": "uint256",
          "name": "",
          "type": "uint256"
        }
      ],
      "name": "mapPID_finalising",
      "outputs": [
        {
          "internalType": "bool",
          "name": "",
          "type": "bool"
        }
      ],
      "stateMutability": "view",
      "type": "function",
      "constant": true
    },
    {
      "inputs": [
        {
          "internalType": "uint256",
          "name": "",
          "type": "uint256"
        }
      ],
      "name": "mapPID_grant",
      "outputs": [
        {
          "internalType": "address",
          "name": "recipient",
          "type": "address"
        },
        {
          "internalType": "uint256",
          "name": "amount",
          "type": "uint256"
        }
      ],
      "stateMutability": "view",
      "type": "function",
      "constant": true
    },
    {
      "inputs": [
        {
          "internalType": "uint256",
          "name": "",
          "type": "uint256"
        }
      ],
      "name": "mapPID_params",
      "outputs": [
        {
          "internalType": "uint256",
          "name": "p1",
          "type": "uint256"
        },
        {
          "internalType": "uint256",
          "name": "p2",
          "type": "uint256"
        },
        {
          "internalType": "uint256",
          "name": "p3",
          "type": "uint256"
        },
        {
          "internalType": "uint256",
          "name": "p4",
          "type": "uint256"
        }
      ],
      "stateMutability": "view",
      "type": "function",
      "constant": true
    },
    {
      "inputs": [
        {
          "internalType": "uint256",
          "name": "",
          "type": "uint256"
        }
      ],
      "name": "mapPID_timeStart",
      "outputs": [
        {
          "internalType": "uint256",
          "name": "",
          "type": "uint256"
        }
      ],
      "stateMutability": "view",
      "type": "function",
      "constant": true
    },
    {
      "inputs": [
        {
          "internalType": "uint256",
          "name": "",
          "type": "uint256"
        }
      ],
      "name": "mapPID_type",
      "outputs": [
        {
          "internalType": "string",
          "name": "",
          "type": "string"
        }
      ],
      "stateMutability": "view",
      "type": "function",
      "constant": true
    },
    {
      "inputs": [
        {
          "internalType": "uint256",
          "name": "",
          "type": "uint256"
        }
      ],
      "name": "mapPID_votes",
      "outputs": [
        {
          "internalType": "uint256",
          "name": "",
          "type": "uint256"
        }
      ],
      "stateMutability": "view",
      "type": "function",
      "constant": true
    },
    {
      "inputs": [],
      "name": "proposalCount",
      "outputs": [
        {
          "internalType": "uint256",
          "name": "",
          "type": "uint256"
        }
      ],
      "stateMutability": "view",
      "type": "function",
      "constant": true
    },
    {
      "inputs": [
        {
          "internalType": "address",
          "name": "_vether",
          "type": "address"
        },
        {
          "internalType": "address",
          "name": "_vader",
          "type": "address"
        },
        {
          "internalType": "address",
          "name": "_usdv",
          "type": "address"
        },
        {
          "internalType": "address",
          "name": "_reserve",
          "type": "address"
        },
        {
          "internalType": "address",
          "name": "_vault",
          "type": "address"
        },
        {
          "internalType": "address",
          "name": "_router",
          "type": "address"
        },
        {
          "internalType": "address",
          "name": "_lender",
          "type": "address"
        },
        {
          "internalType": "address",
          "name": "_pools",
          "type": "address"
        },
        {
          "internalType": "address",
          "name": "_factory",
          "type": "address"
        },
        {
          "internalType": "address",
          "name": "_utils",
          "type": "address"
        },
        {
          "internalType": "address",
          "name": "_timelock",
          "type": "address"
        }
      ],
      "name": "init",
      "outputs": [],
      "stateMutability": "nonpayable",
      "type": "function"
    },
    {
      "inputs": [
        {
          "internalType": "address",
          "name": "recipient",
          "type": "address"
        },
        {
          "internalType": "uint256",
          "name": "amount",
          "type": "uint256"
        }
      ],
      "name": "newGrantProposal",
      "outputs": [],
      "stateMutability": "nonpayable",
      "type": "function"
    },
    {
      "inputs": [
        {
          "internalType": "string",
          "name": "typeStr",
          "type": "string"
        },
        {
          "internalType": "address",
          "name": "proposedAddress",
          "type": "address"
        }
      ],
      "name": "newAddressProposal",
      "outputs": [],
      "stateMutability": "nonpayable",
      "type": "function"
    },
    {
      "inputs": [
        {
          "internalType": "string",
          "name": "typeStr",
          "type": "string"
        }
      ],
      "name": "newActionProposal",
      "outputs": [],
      "stateMutability": "nonpayable",
      "type": "function"
    },
    {
      "inputs": [
        {
          "internalType": "string",
          "name": "typeStr",
          "type": "string"
        },
        {
          "internalType": "uint256",
          "name": "p1",
          "type": "uint256"
        },
        {
          "internalType": "uint256",
          "name": "p2",
          "type": "uint256"
        },
        {
          "internalType": "uint256",
          "name": "p3",
          "type": "uint256"
        },
        {
          "internalType": "uint256",
          "name": "p4",
          "type": "uint256"
        }
      ],
      "name": "newParamProposal",
      "outputs": [],
      "stateMutability": "nonpayable",
      "type": "function"
    },
    {
      "inputs": [
        {
          "internalType": "uint256",
          "name": "proposalID",
          "type": "uint256"
        }
      ],
      "name": "voteProposal",
      "outputs": [
        {
          "internalType": "uint256",
          "name": "voteWeight",
          "type": "uint256"
        }
      ],
      "stateMutability": "nonpayable",
      "type": "function"
    },
    {
      "inputs": [
        {
          "internalType": "uint256",
          "name": "oldProposalID",
          "type": "uint256"
        },
        {
          "internalType": "uint256",
          "name": "newProposalID",
          "type": "uint256"
        }
      ],
      "name": "cancelProposal",
      "outputs": [],
      "stateMutability": "nonpayable",
      "type": "function"
    },
    {
      "inputs": [
        {
          "internalType": "uint256",
          "name": "proposalID",
          "type": "uint256"
        }
      ],
      "name": "finaliseProposal",
      "outputs": [],
      "stateMutability": "nonpayable",
      "type": "function"
    },
    {
      "inputs": [
        {
          "internalType": "uint256",
          "name": "_proposalID",
          "type": "uint256"
        }
      ],
      "name": "hasMajority",
      "outputs": [
        {
          "internalType": "bool",
          "name": "",
          "type": "bool"
        }
      ],
      "stateMutability": "view",
      "type": "function",
      "constant": true
    },
    {
      "inputs": [
        {
          "internalType": "uint256",
          "name": "_proposalID",
          "type": "uint256"
        }
      ],
      "name": "hasQuorum",
      "outputs": [
        {
          "internalType": "bool",
          "name": "",
          "type": "bool"
        }
      ],
      "stateMutability": "view",
      "type": "function",
      "constant": true
    },
    {
      "inputs": [
        {
          "internalType": "uint256",
          "name": "_proposalID",
          "type": "uint256"
        }
      ],
      "name": "hasMinority",
      "outputs": [
        {
          "internalType": "bool",
          "name": "",
          "type": "bool"
        }
      ],
      "stateMutability": "view",
      "type": "function",
      "constant": true
    },
    {
      "inputs": [
        {
          "internalType": "address",
          "name": "newCouncil",
          "type": "address"
        }
      ],
      "name": "changeCouncil",
      "outputs": [],
      "stateMutability": "nonpayable",
      "type": "function"
    },
    {
      "inputs": [],
      "name": "purgeCouncil",
      "outputs": [],
      "stateMutability": "nonpayable",
      "type": "function"
    },
    {
      "inputs": [
        {
          "internalType": "uint256",
          "name": "_proposalID",
          "type": "uint256"
        }
      ],
      "name": "getVotes",
      "outputs": [
        {
          "internalType": "uint256",
          "name": "",
          "type": "uint256"
        }
      ],
      "stateMutability": "view",
      "type": "function",
      "constant": true
    },
    {
      "inputs": [
        {
          "internalType": "uint256",
          "name": "_proposalID",
          "type": "uint256"
        },
        {
          "internalType": "address",
          "name": "member",
          "type": "address"
        }
      ],
      "name": "getMemberVotes",
      "outputs": [
        {
          "internalType": "uint256",
          "name": "",
          "type": "uint256"
        }
      ],
      "stateMutability": "view",
      "type": "function",
      "constant": true
    },
    {
      "inputs": [
        {
          "internalType": "uint256",
          "name": "_proposalID",
          "type": "uint256"
        }
      ],
      "name": "getPIDType",
      "outputs": [
        {
          "internalType": "string",
          "name": "",
          "type": "string"
        }
      ],
      "stateMutability": "view",
      "type": "function",
      "constant": true
    }
  ],
  "bytecode": "0x608060405234801561001057600080fd5b50600280546001600160a01b03191633179055600180556126e2806100366000396000f3fe608060405234801561001057600080fd5b50600436106102ad5760003560e01c8063807896d51161017b578063cb7bdbc0116100d8578063e2c3b0461161008c578063ebccb5b211610071578063ebccb5b214610695578063ee21b73b146106a8578063ff981099146106bb576102ad565b8063e2c3b04614610662578063e38c7dcc14610675576102ad565b8063d1458363116100bd578063d145836314610626578063da35c66414610639578063dab249b314610642576102ad565b8063cb7bdbc0146105c1578063d0ad170914610613576102ad565b8063ae887c8b1161012f578063bbf8cf8211610114578063bbf8cf8214610570578063c05fc17814610583578063c42b3f7d14610596576102ad565b8063ae887c8b14610511578063b515a2e81461053a576102ad565b80639e8460a5116101605780639e8460a5146104e2578063a6c83fed146104f5578063abb6154f14610508576102ad565b8063807896d5146104ae5780639d2cc436146104cf576102ad565b806338a1046d116102295780635c120b37116101dd5780637aadef8b116101c25780637aadef8b146104755780637b0e5c45146104885780637e7917611461049b576102ad565b80635c120b371461044f5780635ded8b0614610462576102ad565b80634b193e231161020e5780634b193e23146104065780634b400034146104195780634c4d46b01461043c576102ad565b806338a1046d146103e0578063411557d1146103f3576102ad565b80631436b87e116102805780632d8f0b0b116102655780632d8f0b0b146103655780632dd31000146103ba57806332fe7b26146103cd576102ad565b80631436b87e146103125780632bee119414610332576102ad565b806301681315146102b257806301a3d687146102e257806302c3b436146102f55780630beadade1461030a575b600080fd5b6004546102c5906001600160a01b031681565b6040516001600160a01b0390911681526020015b60405180910390f35b6002546102c5906001600160a01b031681565b6103086103033660046122c0565b6106db565b005b6103086107aa565b6103256103203660046124cf565b61080e565b6040516102d99190612572565b6103556103403660046124cf565b60156020526000908152604090205460ff1681565b60405190151581526020016102d9565b61039a6103733660046124cf565b60106020526000908152604090208054600182015460028301546003909301549192909184565b6040805194855260208501939093529183015260608201526080016102d9565b600b546102c5906001600160a01b031681565b6008546102c5906001600160a01b031681565b6009546102c5906001600160a01b031681565b6007546102c5906001600160a01b031681565b6103086104143660046124cf565b6108b1565b6103556104273660046124cf565b60146020526000908152604090205460ff1681565b6003546102c5906001600160a01b031681565b61035561045d3660046124cf565b61107b565b610308610470366004612509565b611120565b600d546102c5906001600160a01b031681565b600c546102c5906001600160a01b031681565b6103086104a9366004612474565b61149b565b6104c16104bc3660046124cf565b611587565b6040519081526020016102d9565b6006546102c5906001600160a01b031681565b6103086104f0366004612428565b61179f565b6103086105033660046123ac565b61189a565b6104c160015481565b6102c561051f3660046124cf565b600f602052600090815260409020546001600160a01b031681565b6104c16105483660046124e7565b60009182526016602090815260408084206001600160a01b0393909316845291905290205490565b61035561057e3660046124cf565b6119a8565b6103256105913660046124cf565b611a01565b6104c16105a43660046124e7565b601660209081526000928352604080842090915290825290205481565b6105f46105cf3660046124cf565b600e60205260009081526040902080546001909101546001600160a01b039091169082565b604080516001600160a01b0390931683526020830191909152016102d9565b6103556106213660046124cf565b611a9b565b6103086106343660046123ed565b611af4565b6104c160005481565b6104c16106503660046124cf565b60126020526000908152604090205481565b6005546102c5906001600160a01b031681565b6104c16106833660046124cf565b60136020526000908152604090205481565b600a546102c5906001600160a01b031681565b6103086106b63660046122e1565b611b73565b6104c16106c93660046124cf565b60009081526012602052604090205490565b6002546001600160a01b031633146107255760405162461bcd60e51b81526020600482015260086024820152670850dbdd5b98da5b60c21b60448201526064015b60405180910390fd5b6001600160a01b03811661077b5760405162461bcd60e51b815260206004820152600b60248201527f6164647265737320657272000000000000000000000000000000000000000000604482015260640161071c565b6002805473ffffffffffffffffffffffffffffffffffffffff19166001600160a01b0392909216919091179055565b6002546001600160a01b031633146107ef5760405162461bcd60e51b81526020600482015260086024820152670850dbdd5b98da5b60c21b604482015260640161071c565b6002805473ffffffffffffffffffffffffffffffffffffffff19169055565b600081815260116020526040902080546060919061082b90612645565b80601f016020809104026020016040519081016040528092919081815260200182805461085790612645565b80156108a45780601f10610879576101008083540402835291602001916108a4565b820191906000526020600020905b81548152906001019060200180831161088757829003601f168201915b505050505090505b919050565b6001546000828152601360205260409020546108cd90426125fe565b1161091a5760405162461bcd60e51b815260206004820152601660248201527f4d75737420626520616674657220636f6f6c206f666600000000000000000000604482015260640161071c565b60008181526014602052604090205460ff166109785760405162461bcd60e51b815260206004820152601260248201527f4d7573742062652066696e616c6973696e670000000000000000000000000000604482015260640161071c565b60008181526015602052604090205460ff16156109d75760405162461bcd60e51b815260206004820152601860248201527f4d757374206e6f7420626520616c726561647920646f6e650000000000000000604482015260640161071c565b600081815260116020526040812080546109f090612645565b80601f0160208091040260200160405190810160405280929190818152602001828054610a1c90612645565b8015610a695780601f10610a3e57610100808354040283529160200191610a69565b820191906000526020600020905b815481529060010190602001808311610a4c57829003601f168201915b50505050509050610aaf816040518060400160405280600581526020017f4752414e54000000000000000000000000000000000000000000000000000000815250611c81565b15610b68576000828152600e60209081526040918290208251808401845281546001600160a01b0390811680835260019093015493820184905260065494517f6370920e000000000000000000000000000000000000000000000000000000008152600481019390935260248301939093529290911690636370920e906044015b600060405180830381600087803b158015610b4a57600080fd5b505af1158015610b5e573d6000803e3d6000fd5b505050505061106e565b610ba7816040518060400160405280600581526020017f5554494c53000000000000000000000000000000000000000000000000000000815250611c81565b15610bec576000828152600f6020526040902054600c805473ffffffffffffffffffffffffffffffffffffffff19166001600160a01b0390921691909117905561106e565b610c2b816040518060400160405280600781526020017f5245534552564500000000000000000000000000000000000000000000000000815250611c81565b15610c70576000828152600f60205260409020546006805473ffffffffffffffffffffffffffffffffffffffff19166001600160a01b0390921691909117905561106e565b610caf816040518060400160405280600381526020017f44414f0000000000000000000000000000000000000000000000000000000000815250611c81565b15610d4257600480546000848152600f6020526040908190205490517f1d007f5f0000000000000000000000000000000000000000000000000000000081526001600160a01b03918216938101939093521690631d007f5f90602401600060405180830381600087803b158015610d2557600080fd5b505af1158015610d39573d6000803e3d6000fd5b5050505061106e565b610d81816040518060400160405280600981526020017f454d495353494f4e530000000000000000000000000000000000000000000000815250611c81565b15610de25760048054604080517ffe1fa8fa00000000000000000000000000000000000000000000000000000000815290516001600160a01b039092169263fe1fa8fa92828201926000929082900301818387803b158015610d2557600080fd5b610e21816040518060400160405280600781526020017f4d494e54494e4700000000000000000000000000000000000000000000000000815250611c81565b15610e825760048054604080517f2deaa11600000000000000000000000000000000000000000000000000000000815290516001600160a01b0390921692632deaa11692828201926000929082900301818387803b158015610d2557600080fd5b610ec1816040518060400160405280600c81526020017f56414445525f504152414d530000000000000000000000000000000000000000815250611c81565b15610f545760008281526010602090815260409182902082516080810184528154808252600183015493820184905260028301548286015260039092015460608201526004805494517fc0324c7700000000000000000000000000000000000000000000000000000000815291946001600160a01b03169363c0324c7793610b3093909201918252602082015260400190565b610f93816040518060400160405280600d81526020017f524f555445525f504152414d5300000000000000000000000000000000000000815250611c81565b1561106e5760008281526010602090815260409182902082516080810184528154808252600183015493820184905260028301548286018190526003909301546060830181905260085495517f7ece45e800000000000000000000000000000000000000000000000000000000815292956001600160a01b031694637ece45e89461103a949192909160040193845260208401929092526040830152606082015260800190565b600060405180830381600087803b15801561105457600080fd5b505af1158015611068573d6000803e3d6000fd5b50505050505b61107782611d2b565b5050565b60008181526012602090815260408083205460075482516396c82e5760e01b81529251919385936002936001600160a01b03909316926396c82e5792600480840193919291829003018186803b1580156110d457600080fd5b505afa1580156110e8573d6000803e3d6000fd5b505050506040513d601f19601f8201168201806040525081019061110c91906123d5565b61111691906125de565b9091119392505050565b60008281526014602052604090205460ff1661117e5760405162461bcd60e51b815260206004820152601260248201527f4d7573742062652066696e616c6973696e670000000000000000000000000000604482015260640161071c565b61118781611a9b565b6111d35760405162461bcd60e51b815260206004820152601260248201527f4d7573742068617665206d696e6f726974790000000000000000000000000000604482015260640161071c565b6000828152601160205260409020805461130d91906111f190612645565b80601f016020809104026020016040519081016040528092919081815260200182805461121d90612645565b801561126a5780601f1061123f5761010080835404028352916020019161126a565b820191906000526020600020905b81548152906001019060200180831161124d57829003601f168201915b5050506000858152601160205260409020805490925061128a9150612645565b80601f01602080910402602001604051908101604052809291908181526020018280546112b690612645565b80156113035780601f106112d857610100808354040283529160200191611303565b820191906000526020600020905b8154815290600101906020018083116112e657829003601f168201915b5050505050611c81565b6113595760405162461bcd60e51b815260206004820152600c60248201527f4d7573742062652073616d650000000000000000000000000000000000000000604482015260640161071c565b808214156113a95760405162461bcd60e51b815260206004820152601160248201527f4d75737420626520646966666572656e74000000000000000000000000000000604482015260640161071c565b600082815260126020818152604080842084815560148352818520805460ff191690559282529154848452928290205460075483516396c82e5760e01b81529351879533957f0e67c2e72a9ea22e5d163549aebce99ddc3d1fbbc58e7ed196b0e88f458847d9959194936001600160a01b0316926396c82e5792600480840193919291829003018186803b15801561144057600080fd5b505afa158015611454573d6000803e3d6000fd5b505050506040513d601f19601f8201168201806040525081019061147891906123d5565b604080519384526020840192909252908201526060015b60405180910390a35050565b60016000808282546114ad91906125c6565b925050819055506114df6040518060800160405280600081526020016000815260200160008152602001600081525090565b8481526020808201858152604080840186815260608501868152600080548152601086528381208751815594516001860155915160028501555160039093019290925581548252601183529020875161153a92890190612189565b50600054336001600160a01b03167f8d500fcad86fc64a281b94ef64d6d66acbfc6862aa4ff2ee5fbbfb40736e803e886040516115779190612572565b60405180910390a3505050505050565b600081815260116020526040812080548291906115a390612645565b80601f01602080910402602001604051908101604052809291908181526020018280546115cf90612645565b801561161c5780601f106115f15761010080835404028352916020019161161c565b820191906000526020600020905b8154815290600101906020018083116115ff57829003601f168201915b5050505050905061162c83611ec8565b9150611637836119a8565b8015611652575060008381526014602052604090205460ff16155b1561174a57611696816040518060400160405280600381526020017f44414f0000000000000000000000000000000000000000000000000000000000815250611c81565b806116db57506116db816040518060400160405280600581526020017f5554494c53000000000000000000000000000000000000000000000000000000815250611c81565b806117205750611720816040518060400160405280600781526020017f5245534552564500000000000000000000000000000000000000000000000000815250611c81565b156117415761172e8361107b565b1561173c5761173c83612083565b61174a565b61174a83612083565b60008381526012602052604090819020549051849133917f4d46d88c7e981a5bf4572a83b5d88bcfefbd5ee6ca8df0588e27c4221a4364079161179191879190879061259e565b60405180910390a350919050565b6001600160a01b0381166117f55760405162461bcd60e51b815260206004820152601360248201527f4e6f20616464726573732070726f706f73656400000000000000000000000000604482015260640161071c565b600160008082825461180791906125c6565b9091555050600080548152600f60209081526040808320805473ffffffffffffffffffffffffffffffffffffffff19166001600160a01b0386161790558254835260118252909120835161185d92850190612189565b50600054336001600160a01b03167f8d500fcad86fc64a281b94ef64d6d66acbfc6862aa4ff2ee5fbbfb40736e803e8460405161148f9190612572565b60006040518060400160405280600581526020017f4752414e54000000000000000000000000000000000000000000000000000000815250905060016000808282546118e691906125c6565b9091555050600080548152601160209081526040909120825161190b92840190612189565b506040805180820182526001600160a01b0385811682526020808301868152600080548152600e9092528482208451815473ffffffffffffffffffffffffffffffffffffffff191694169390931783555160019092019190915554915190919033907f8d500fcad86fc64a281b94ef64d6d66acbfc6862aa4ff2ee5fbbfb40736e803e9061199a908690612572565b60405180910390a350505050565b60008181526012602090815260408083205460075482516396c82e5760e01b81529251919385936003936001600160a01b03909316926396c82e5792600480840193919291829003018186803b1580156110d457600080fd5b60116020526000908152604090208054611a1a90612645565b80601f0160208091040260200160405190810160405280929190818152602001828054611a4690612645565b8015611a935780601f10611a6857610100808354040283529160200191611a93565b820191906000526020600020905b815481529060010190602001808311611a7657829003601f168201915b505050505081565b60008181526012602090815260408083205460075482516396c82e5760e01b81529251919385936006936001600160a01b03909316926396c82e5792600480840193919291829003018186803b1580156110d457600080fd5b6001600080828254611b0691906125c6565b90915550506000805481526011602090815260409091208251611b2b92840190612189565b50600054336001600160a01b03167f8d500fcad86fc64a281b94ef64d6d66acbfc6862aa4ff2ee5fbbfb40736e803e83604051611b689190612572565b60405180910390a350565b6002546001600160a01b03163314611bb85760405162461bcd60e51b81526020600482015260086024820152670850dbdd5b98da5b60c21b604482015260640161071c565b6004546001600160a01b0316611c74576003805473ffffffffffffffffffffffffffffffffffffffff199081166001600160a01b038e8116919091179092556004805482168d84161790556005805482168c84161790556006805482168b84161790556007805482168a8416179055600880548216898416179055600980548216888416179055600a80548216878416179055600b80548216868416179055600c80548216858416179055600d80549091169183169190911790555b5050505050505050505050565b6000600282604051611c939190612556565b602060405180830381855afa158015611cb0573d6000803e3d6000fd5b5050506040513d601f19601f82011682018060405250810190611cd391906123d5565b600284604051611ce39190612556565b602060405180830381855afa158015611d00573d6000803e3d6000fd5b5050506040513d601f19601f82011682018060405250810190611d2391906123d5565b149392505050565b60008181526011602052604081208054611d4490612645565b80601f0160208091040260200160405190810160405280929190818152602001828054611d7090612645565b8015611dbd5780601f10611d9257610100808354040283529160200191611dbd565b820191906000526020600020905b815481529060010190602001808311611da057829003601f168201915b5050506000858152601260209081526040918290205460075483516396c82e5760e01b8152935196975088963396507f28fca9bc3d4a734a707bd9396d50341c1f45e1d455c4aa4a58ceee0e09f64544955091936001600160a01b03909116926396c82e5792600480840193829003018186803b158015611e3d57600080fd5b505afa158015611e51573d6000803e3d6000fd5b505050506040513d601f19601f82011682018060405250810190611e7591906123d5565b85604051611e859392919061259e565b60405180910390a350600090815260126020908152604080832083905560148252808320805460ff19908116909155601590925290912080549091166001179055565b60008181526016602090815260408083203384528252808320548484526012909252822080548390611efb9084906125fe565b90915550506002546001600160a01b0316331415611fa957600760009054906101000a90046001600160a01b03166001600160a01b03166396c82e576040518163ffffffff1660e01b815260040160206040518083038186803b158015611f6157600080fd5b505afa158015611f75573d6000803e3d6000fd5b505050506040513d601f19601f82011682018060405250810190611f9991906123d5565b905080611fa4575060015b612040565b6007546040517f5364df490000000000000000000000000000000000000000000000000000000081523360048201526001600160a01b0390911690635364df499060240160206040518083038186803b15801561200557600080fd5b505afa158015612019573d6000803e3d6000fd5b505050506040513d601f19601f8201168201806040525081019061203d91906123d5565b90505b6000828152601260205260408120805483929061205e9084906125c6565b9091555050600091825260166020908152604080842033855290915290912081905590565b6000818152601160205260408120805461209c90612645565b80601f01602080910402602001604051908101604052809291908181526020018280546120c890612645565b80156121155780601f106120ea57610100808354040283529160200191612115565b820191906000526020600020905b8154815290600101906020018083116120f857829003601f168201915b5050506000858152601460209081526040808320805460ff1916600190811790915560139092529091204290819055905493945085933393507f0f36aea5066f9f90a999260fe4ce8d7713f7f07f5ae61bf36d73cc51170a3a9e925061217a916125c6565b8460405161148f929190612585565b82805461219590612645565b90600052602060002090601f0160209004810192826121b757600085556121fd565b82601f106121d057805160ff19168380011785556121fd565b828001600101855582156121fd579182015b828111156121fd5782518255916020019190600101906121e2565b5061220992915061220d565b5090565b5b80821115612209576000815560010161220e565b80356001600160a01b03811681146108ac57600080fd5b600082601f830112612249578081fd5b813567ffffffffffffffff8082111561226457612264612696565b604051601f8301601f19908116603f0116810190828211818310171561228c5761228c612696565b816040528381528660208588010111156122a4578485fd5b8360208701602083013792830160200193909352509392505050565b6000602082840312156122d1578081fd5b6122da82612222565b9392505050565b60008060008060008060008060008060006101608c8e031215612302578687fd5b61230b8c612222565b9a5061231960208d01612222565b995061232760408d01612222565b985061233560608d01612222565b975061234360808d01612222565b965061235160a08d01612222565b955061235f60c08d01612222565b945061236d60e08d01612222565b935061237c6101008d01612222565b925061238b6101208d01612222565b915061239a6101408d01612222565b90509295989b509295989b9093969950565b600080604083850312156123be578182fd5b6123c783612222565b946020939093013593505050565b6000602082840312156123e6578081fd5b5051919050565b6000602082840312156123fe578081fd5b813567ffffffffffffffff811115612414578182fd5b61242084828501612239565b949350505050565b6000806040838503121561243a578182fd5b823567ffffffffffffffff811115612450578283fd5b61245c85828601612239565b92505061246b60208401612222565b90509250929050565b600080600080600060a0868803121561248b578081fd5b853567ffffffffffffffff8111156124a1578182fd5b6124ad88828901612239565b9860208801359850604088013597606081013597506080013595509350505050565b6000602082840312156124e0578081fd5b5035919050565b600080604083850312156124f9578182fd5b8235915061246b60208401612222565b6000806040838503121561251b578182fd5b50508035926020909101359150565b60008151808452612542816020860160208601612615565b601f01601f19169290920160200192915050565b60008251612568818460208701612615565b9190910192915050565b6000602082526122da602083018461252a565b600083825260406020830152612420604083018461252a565b6000848252836020830152606060408301526125bd606083018461252a565b95945050505050565b600082198211156125d9576125d9612680565b500190565b6000826125f957634e487b7160e01b81526012600452602481fd5b500490565b60008282101561261057612610612680565b500390565b60005b83811015612630578181015183820152602001612618565b8381111561263f576000848401525b50505050565b600181811c9082168061265957607f821691505b6020821081141561267a57634e487b7160e01b600052602260045260246000fd5b50919050565b634e487b7160e01b600052601160045260246000fd5b634e487b7160e01b600052604160045260246000fdfea26469706673582212202885e8033e75eadf0c011ada775857f93d0700c884f5d91ef6cd59a14de26be964736f6c63430008030033",
  "immutableReferences": {},
  "source": "// SPDX-License-Identifier: UNLICENSED\r\npragma solidity 0.8.3;\r\n\r\n// Interfaces\r\nimport \"./interfaces/iVADER.sol\";\r\nimport \"./interfaces/iRESERVE.sol\";\r\nimport \"./interfaces/iVAULT.sol\";\r\nimport \"./interfaces/iROUTER.sol\";\r\n\r\n//======================================VADER=========================================//\r\ncontract DAO {\r\n    struct GrantDetails {\r\n        address recipient;\r\n        uint256 amount;\r\n    }\r\n    struct ParamDetails {\r\n        uint256 p1;\r\n        uint256 p2;\r\n        uint256 p3;\r\n        uint256 p4;\r\n    }\r\n     \r\n    uint256 public proposalCount;\r\n    uint256 public coolOffPeriod;\r\n\r\n    address public COUNCIL;\r\n    address public VETHER;\r\n    address public VADER;\r\n    address public USDV;\r\n    address public RESERVE;\r\n    address public VAULT;\r\n    address public ROUTER;\r\n    address public LENDER;\r\n    address public POOLS;\r\n    address public FACTORY;\r\n    address public UTILS;\r\n    address public TIMELOCK;\r\n\r\n    mapping(uint256 => GrantDetails) public mapPID_grant;\r\n    mapping(uint256 => address) public mapPID_address;\r\n    mapping(uint256 => ParamDetails) public mapPID_params;\r\n\r\n    mapping(uint256 => string) public mapPID_type;\r\n    mapping(uint256 => uint256) public mapPID_votes;\r\n    mapping(uint256 => uint256) public mapPID_timeStart;\r\n    mapping(uint256 => bool) public mapPID_finalising;\r\n    mapping(uint256 => bool) public mapPID_finalised;\r\n    mapping(uint256 => mapping(address => uint256)) public mapPIDMember_votes;\r\n\r\n    event NewProposal(address indexed member, uint256 indexed proposalID, string proposalType);\r\n    event NewVote(\r\n        address indexed member,\r\n        uint256 indexed proposalID,\r\n        uint256 voteWeight,\r\n        uint256 totalVotes,\r\n        string proposalType\r\n    );\r\n    event ProposalFinalising(\r\n        address indexed member,\r\n        uint256 indexed proposalID,\r\n        uint256 timeFinalised,\r\n        string proposalType\r\n    );\r\n    event CancelProposal(\r\n        address indexed member,\r\n        uint256 indexed oldProposalID,\r\n        uint256 oldVotes,\r\n        uint256 newVotes,\r\n        uint256 totalWeight\r\n    );\r\n    event FinalisedProposal(\r\n        address indexed member,\r\n        uint256 indexed proposalID,\r\n        uint256 votesCast,\r\n        uint256 totalWeight,\r\n        string proposalType\r\n    );\r\n\r\n    // Only COUNCIL can execute\r\n    modifier onlyCouncil() {\r\n        require(msg.sender == COUNCIL, \"!Council\");\r\n        _;\r\n    }\r\n\r\n    //=====================================CREATION=========================================//\r\n \r\n    constructor() {\r\n        COUNCIL = msg.sender; // Deployer is first Council\r\n        coolOffPeriod = 1;\r\n    }\r\n\r\n    function init(\r\n        address _vether,\r\n        address _vader,\r\n        address _usdv,\r\n        address _reserve,\r\n        address _vault,\r\n        address _router,\r\n        address _lender,\r\n        address _pools,\r\n        address _factory,\r\n        address _utils,\r\n        address _timelock\r\n    ) external onlyCouncil {\r\n        if(VADER == address(0)){\r\n            VETHER = _vether;\r\n            VADER = _vader;\r\n            USDV = _usdv;\r\n            RESERVE = _reserve;\r\n            VAULT = _vault;\r\n            ROUTER = _router;\r\n            LENDER = _lender;\r\n            POOLS = _pools;\r\n            FACTORY = _factory;\r\n            UTILS = _utils;\r\n            TIMELOCK = _timelock;\r\n        }\r\n    }\r\n\r\n    //============================== CREATE PROPOSALS ================================//\r\n    // Action with funding\r\n    function newGrantProposal(address recipient, uint256 amount) external {\r\n        string memory typeStr = \"GRANT\";\r\n        proposalCount += 1;\r\n        mapPID_type[proposalCount] = typeStr;\r\n        GrantDetails memory grant;\r\n        grant.recipient = recipient;\r\n        grant.amount = amount;\r\n        mapPID_grant[proposalCount] = grant;\r\n        emit NewProposal(msg.sender, proposalCount, typeStr);\r\n    }\r\n\r\n    // Action with address parameter\r\n    function newAddressProposal(string memory typeStr, address proposedAddress) external {\r\n        require(proposedAddress != address(0), \"No address proposed\");\r\n        proposalCount += 1;\r\n        mapPID_address[proposalCount] = proposedAddress;\r\n        mapPID_type[proposalCount] = typeStr;\r\n        emit NewProposal(msg.sender, proposalCount, typeStr);\r\n    }\r\n\r\n    // Action with no parameters\r\n    function newActionProposal(string memory typeStr) external {\r\n        proposalCount += 1;\r\n        mapPID_type[proposalCount] = typeStr;\r\n        emit NewProposal(msg.sender, proposalCount, typeStr);\r\n    }\r\n    // Action with parameters\r\n    function newParamProposal(string memory typeStr, uint256 p1, uint256 p2, uint256 p3, uint256 p4) external {\r\n        proposalCount += 1;\r\n        ParamDetails memory params;\r\n        params.p1 = p1; params.p2 = p2; params.p3 = p3; params.p4 = p4;\r\n        mapPID_params[proposalCount] = params;\r\n        mapPID_type[proposalCount] = typeStr;\r\n        emit NewProposal(msg.sender, proposalCount, typeStr);\r\n    }\r\n\r\n    //============================== VOTE && FINALISE ================================//\r\n\r\n    // Vote for a proposal\r\n    function voteProposal(uint256 proposalID) external returns (uint256 voteWeight) {\r\n        bytes memory _type = bytes(mapPID_type[proposalID]);\r\n        voteWeight = countMemberVotes(proposalID);\r\n        if (hasQuorum(proposalID) && !mapPID_finalising[proposalID]) {\r\n            if (isEqual(_type, \"DAO\") || isEqual(_type, \"UTILS\") || isEqual(_type, \"RESERVE\")) {\r\n                if (hasMajority(proposalID)) {\r\n                    _finalise(proposalID);\r\n                }\r\n            } else {\r\n                _finalise(proposalID);\r\n            }\r\n        }\r\n        emit NewVote(msg.sender, proposalID, voteWeight, mapPID_votes[proposalID], string(_type));\r\n    }\r\n\r\n    function _finalise(uint256 _proposalID) internal {\r\n        bytes memory _type = bytes(mapPID_type[_proposalID]);\r\n        mapPID_finalising[_proposalID] = true;\r\n        mapPID_timeStart[_proposalID] = block.timestamp;\r\n        emit ProposalFinalising(msg.sender, _proposalID, block.timestamp + coolOffPeriod, string(_type));\r\n    }\r\n\r\n    // If an existing proposal, allow a minority to cancel\r\n    function cancelProposal(uint256 oldProposalID, uint256 newProposalID) external {\r\n        require(mapPID_finalising[oldProposalID], \"Must be finalising\");\r\n        require(hasMinority(newProposalID), \"Must have minority\");\r\n        require(isEqual(bytes(mapPID_type[oldProposalID]), bytes(mapPID_type[newProposalID])), \"Must be same\");\r\n        require(oldProposalID != newProposalID, \"Must be different\");\r\n        mapPID_votes[oldProposalID] = 0;\r\n        mapPID_finalising[oldProposalID]  = false;\r\n        emit CancelProposal(\r\n            msg.sender,\r\n            oldProposalID,\r\n            mapPID_votes[oldProposalID],\r\n            mapPID_votes[newProposalID],\r\n            iVAULT(VAULT).totalWeight()\r\n        );\r\n    }\r\n\r\n    // Proposal with quorum can finalise after cool off period\r\n    function finaliseProposal(uint256 proposalID) external {\r\n        require((block.timestamp - mapPID_timeStart[proposalID]) > coolOffPeriod, \"Must be after cool off\");\r\n        require(mapPID_finalising[proposalID], \"Must be finalising\");\r\n        require(!mapPID_finalised[proposalID], \"Must not be already done\");\r\n        bytes memory _type = bytes(mapPID_type[proposalID]);\r\n        if (isEqual(_type, \"GRANT\")) {\r\n            GrantDetails memory _grant = mapPID_grant[proposalID];\r\n            iRESERVE(RESERVE).grant(_grant.recipient, _grant.amount);\r\n        } else if (isEqual(_type, \"UTILS\")) {\r\n            UTILS = mapPID_address[proposalID];\r\n        } else if (isEqual(_type, \"RESERVE\")) {\r\n            RESERVE = mapPID_address[proposalID];\r\n        }else if (isEqual(_type, \"DAO\")) {\r\n            iVADER(VADER).changeDAO(mapPID_address[proposalID]);\r\n        } else if (isEqual(_type, \"EMISSIONS\")) {\r\n            iVADER(VADER).flipEmissions();\r\n        } else if (isEqual(_type, \"MINTING\")) {\r\n            iVADER(VADER).flipMinting();\r\n        } else if (isEqual(_type, \"VADER_PARAMS\")) {\r\n            ParamDetails memory _params = mapPID_params[proposalID];\r\n            iVADER(VADER).setParams(_params.p1, _params.p2);\r\n        } else if (isEqual(_type, \"ROUTER_PARAMS\")) {\r\n            ParamDetails memory _params = mapPID_params[proposalID];\r\n            iROUTER(ROUTER).setParams(_params.p1, _params.p2, _params.p3, _params.p4);\r\n        }\r\n        completeProposal(proposalID);\r\n    }\r\n\r\n    function completeProposal(uint256 _proposalID) internal {\r\n        string memory _typeStr = mapPID_type[_proposalID];\r\n        emit FinalisedProposal(\r\n            msg.sender,\r\n            _proposalID,\r\n            mapPID_votes[_proposalID],\r\n            iVAULT(VAULT).totalWeight(),\r\n            _typeStr\r\n        );\r\n        mapPID_votes[_proposalID] = 0;\r\n        mapPID_finalising[_proposalID] = false;\r\n        mapPID_finalised[_proposalID] = true;\r\n    }\r\n\r\n    //============================== CONSENSUS ================================//\r\n\r\n    function countMemberVotes(uint256 _proposalID) internal returns (uint256 voteWeight) {\r\n        mapPID_votes[_proposalID] -= mapPIDMember_votes[_proposalID][msg.sender];\r\n        if(msg.sender == COUNCIL){\r\n            voteWeight = iVAULT(VAULT).totalWeight(); // Full weighting for Council EOA\r\n            if(voteWeight == 0){\r\n                voteWeight = 1; // Edge case if no one in vault\r\n            }\r\n        } else {\r\n            voteWeight = iVAULT(VAULT).getMemberWeight(msg.sender); // Normal weighting\r\n        }\r\n        mapPID_votes[_proposalID] += voteWeight;\r\n        mapPIDMember_votes[_proposalID][msg.sender] = voteWeight;\r\n    }\r\n\r\n    function hasMajority(uint256 _proposalID) public view returns (bool) {\r\n        uint256 votes = mapPID_votes[_proposalID];\r\n        uint256 consensus = iVAULT(VAULT).totalWeight() / 2; // >50%\r\n        return votes > consensus;\r\n    }\r\n\r\n    function hasQuorum(uint256 _proposalID) public view returns (bool) {\r\n        uint256 votes = mapPID_votes[_proposalID];\r\n        uint256 consensus = iVAULT(VAULT).totalWeight() / 3; // >33%\r\n        return votes > consensus;\r\n    }\r\n\r\n    function hasMinority(uint256 _proposalID) public view returns (bool) {\r\n        uint256 votes = mapPID_votes[_proposalID];\r\n        uint256 consensus = iVAULT(VAULT).totalWeight() / 6; // >16%\r\n        return votes > consensus;\r\n    }\r\n\r\n    function isEqual(bytes memory part1, bytes memory part2) internal pure returns (bool) {\r\n        return sha256(part1) == sha256(part2);\r\n    }\r\n\r\n    //============================== COUNCIL ================================//\r\n    // Can change COUNCIL\r\n    function changeCouncil(address newCouncil) external onlyCouncil {\r\n        require(newCouncil != address(0), \"address err\");\r\n        COUNCIL = newCouncil;\r\n    }\r\n\r\n    // Can purge COUNCIL\r\n    function purgeCouncil() external onlyCouncil {\r\n        COUNCIL = address(0);\r\n    }\r\n\r\n    //============================== HELPERS ================================//\r\n\r\n    function getVotes(uint256 _proposalID) external view returns (uint256) {\r\n        return mapPID_votes[_proposalID];\r\n    }\r\n    function getMemberVotes(uint256 _proposalID, address member) external view returns (uint256) {\r\n        return mapPIDMember_votes[_proposalID][member];\r\n    }\r\n    function getPIDType(uint256 _proposalID) external view returns (string memory) {\r\n        return mapPID_type[_proposalID];\r\n    }\r\n}\r\n",
  "sourcePath": "E:/Web Workspace/Vader Protocol/vaderprotocol-contracts/contracts/DAO.sol",
  "compiler": {
    "name": "solc",
    "version": "0.8.3+commit.8d00100c.Emscripten.clang"
  },
  "schemaVersion": "3.4.0",
  "updatedAt": "2021-06-03T02:05:34.639Z",
  "networkType": "ethereum",
  "devdoc": {
    "kind": "dev",
    "methods": {},
    "version": 1
  },
  "userdoc": {
    "kind": "user",
    "methods": {},
    "version": 1
  }
}