{
  "contractName": "GovernorAlpha",
  "abi": [
    {
      "inputs": [
        {
          "internalType": "address",
          "name": "timelock_",
          "type": "address"
        },
        {
          "internalType": "address",
          "name": "vault_",
          "type": "address"
        },
        {
          "internalType": "address",
          "name": "guardian_",
          "type": "address"
        }
      ],
      "stateMutability": "nonpayable",
      "type": "constructor"
    },
    {
      "anonymous": false,
      "inputs": [
        {
          "indexed": false,
          "internalType": "uint256",
          "name": "id",
          "type": "uint256"
        }
      ],
      "name": "ProposalCanceled",
      "type": "event"
    },
    {
      "anonymous": false,
      "inputs": [
        {
          "indexed": false,
          "internalType": "uint256",
          "name": "id",
          "type": "uint256"
        },
        {
          "indexed": false,
          "internalType": "address",
          "name": "proposer",
          "type": "address"
        },
        {
          "indexed": false,
          "internalType": "address[]",
          "name": "targets",
          "type": "address[]"
        },
        {
          "indexed": false,
          "internalType": "uint256[]",
          "name": "values",
          "type": "uint256[]"
        },
        {
          "indexed": false,
          "internalType": "string[]",
          "name": "signatures",
          "type": "string[]"
        },
        {
          "indexed": false,
          "internalType": "bytes[]",
          "name": "calldatas",
          "type": "bytes[]"
        },
        {
          "indexed": false,
          "internalType": "uint256",
          "name": "startBlock",
          "type": "uint256"
        },
        {
          "indexed": false,
          "internalType": "uint256",
          "name": "endBlock",
          "type": "uint256"
        },
        {
          "indexed": false,
          "internalType": "string",
          "name": "description",
          "type": "string"
        }
      ],
      "name": "ProposalCreated",
      "type": "event"
    },
    {
      "anonymous": false,
      "inputs": [
        {
          "indexed": false,
          "internalType": "uint256",
          "name": "id",
          "type": "uint256"
        }
      ],
      "name": "ProposalExecuted",
      "type": "event"
    },
    {
      "anonymous": false,
      "inputs": [
        {
          "indexed": false,
          "internalType": "uint256",
          "name": "id",
          "type": "uint256"
        },
        {
          "indexed": false,
          "internalType": "uint256",
          "name": "eta",
          "type": "uint256"
        }
      ],
      "name": "ProposalQueued",
      "type": "event"
    },
    {
      "anonymous": false,
      "inputs": [
        {
          "indexed": false,
          "internalType": "address",
          "name": "voter",
          "type": "address"
        },
        {
          "indexed": false,
          "internalType": "uint256",
          "name": "proposalId",
          "type": "uint256"
        },
        {
          "indexed": false,
          "internalType": "bool",
          "name": "support",
          "type": "bool"
        },
        {
          "indexed": false,
          "internalType": "uint256",
          "name": "votes",
          "type": "uint256"
        }
      ],
      "name": "VoteCast",
      "type": "event"
    },
    {
      "inputs": [],
      "name": "BALLOT_TYPEHASH",
      "outputs": [
        {
          "internalType": "bytes32",
          "name": "",
          "type": "bytes32"
        }
      ],
      "stateMutability": "view",
      "type": "function",
      "constant": true
    },
    {
      "inputs": [],
      "name": "DOMAIN_TYPEHASH",
      "outputs": [
        {
          "internalType": "bytes32",
          "name": "",
          "type": "bytes32"
        }
      ],
      "stateMutability": "view",
      "type": "function",
      "constant": true
    },
    {
      "inputs": [],
      "name": "guardian",
      "outputs": [
        {
          "internalType": "address",
          "name": "",
          "type": "address"
        }
      ],
      "stateMutability": "view",
      "type": "function",
      "constant": true
    },
    {
      "inputs": [
        {
          "internalType": "address",
          "name": "",
          "type": "address"
        }
      ],
      "name": "latestProposalIds",
      "outputs": [
        {
          "internalType": "uint256",
          "name": "",
          "type": "uint256"
        }
      ],
      "stateMutability": "view",
      "type": "function",
      "constant": true
    },
    {
      "inputs": [],
      "name": "name",
      "outputs": [
        {
          "internalType": "string",
          "name": "",
          "type": "string"
        }
      ],
      "stateMutability": "view",
      "type": "function",
      "constant": true
    },
    {
      "inputs": [],
      "name": "proposalCount",
      "outputs": [
        {
          "internalType": "uint256",
          "name": "",
          "type": "uint256"
        }
      ],
      "stateMutability": "view",
      "type": "function",
      "constant": true
    },
    {
      "inputs": [
        {
          "internalType": "uint256",
          "name": "",
          "type": "uint256"
        }
      ],
      "name": "proposals",
      "outputs": [
        {
          "internalType": "uint256",
          "name": "id",
          "type": "uint256"
        },
        {
          "internalType": "address",
          "name": "proposer",
          "type": "address"
        },
        {
          "internalType": "uint256",
          "name": "eta",
          "type": "uint256"
        },
        {
          "internalType": "uint256",
          "name": "startBlock",
          "type": "uint256"
        },
        {
          "internalType": "uint256",
          "name": "endBlock",
          "type": "uint256"
        },
        {
          "internalType": "uint256",
          "name": "forVotes",
          "type": "uint256"
        },
        {
          "internalType": "uint256",
          "name": "againstVotes",
          "type": "uint256"
        },
        {
          "internalType": "bool",
          "name": "canceled",
          "type": "bool"
        },
        {
          "internalType": "bool",
          "name": "executed",
          "type": "bool"
        }
      ],
      "stateMutability": "view",
      "type": "function",
      "constant": true
    },
    {
      "inputs": [],
      "name": "timelock",
      "outputs": [
        {
          "internalType": "contract iTIMELOCK",
          "name": "",
          "type": "address"
        }
      ],
      "stateMutability": "view",
      "type": "function",
      "constant": true
    },
    {
      "inputs": [],
      "name": "vault",
      "outputs": [
        {
          "internalType": "contract iVAULT",
          "name": "",
          "type": "address"
        }
      ],
      "stateMutability": "view",
      "type": "function",
      "constant": true
    },
    {
      "inputs": [],
      "name": "quorumVotes",
      "outputs": [
        {
          "internalType": "uint256",
          "name": "",
          "type": "uint256"
        }
      ],
      "stateMutability": "view",
      "type": "function",
      "constant": true
    },
    {
      "inputs": [],
      "name": "proposalThreshold",
      "outputs": [
        {
          "internalType": "uint256",
          "name": "",
          "type": "uint256"
        }
      ],
      "stateMutability": "view",
      "type": "function",
      "constant": true
    },
    {
      "inputs": [],
      "name": "proposalMaxOperations",
      "outputs": [
        {
          "internalType": "uint256",
          "name": "",
          "type": "uint256"
        }
      ],
      "stateMutability": "pure",
      "type": "function",
      "constant": true
    },
    {
      "inputs": [],
      "name": "votingDelay",
      "outputs": [
        {
          "internalType": "uint256",
          "name": "",
          "type": "uint256"
        }
      ],
      "stateMutability": "pure",
      "type": "function",
      "constant": true
    },
    {
      "inputs": [],
      "name": "votingPeriod",
      "outputs": [
        {
          "internalType": "uint256",
          "name": "",
          "type": "uint256"
        }
      ],
      "stateMutability": "pure",
      "type": "function",
      "constant": true
    },
    {
      "inputs": [],
      "name": "getBlockNumber",
      "outputs": [
        {
          "internalType": "uint256",
          "name": "",
          "type": "uint256"
        }
      ],
      "stateMutability": "view",
      "type": "function",
      "constant": true
    },
    {
      "inputs": [
        {
          "internalType": "address[]",
          "name": "targets",
          "type": "address[]"
        },
        {
          "internalType": "uint256[]",
          "name": "values",
          "type": "uint256[]"
        },
        {
          "internalType": "string[]",
          "name": "signatures",
          "type": "string[]"
        },
        {
          "internalType": "bytes[]",
          "name": "calldatas",
          "type": "bytes[]"
        },
        {
          "internalType": "string",
          "name": "description",
          "type": "string"
        }
      ],
      "name": "propose",
      "outputs": [
        {
          "internalType": "uint256",
          "name": "",
          "type": "uint256"
        }
      ],
      "stateMutability": "nonpayable",
      "type": "function"
    },
    {
      "inputs": [
        {
          "internalType": "uint256",
          "name": "proposalId",
          "type": "uint256"
        }
      ],
      "name": "queue",
      "outputs": [],
      "stateMutability": "nonpayable",
      "type": "function"
    },
    {
      "inputs": [
        {
          "internalType": "uint256",
          "name": "proposalId",
          "type": "uint256"
        }
      ],
      "name": "execute",
      "outputs": [],
      "stateMutability": "payable",
      "type": "function",
      "payable": true
    },
    {
      "inputs": [
        {
          "internalType": "uint256",
          "name": "proposalId",
          "type": "uint256"
        }
      ],
      "name": "cancel",
      "outputs": [],
      "stateMutability": "nonpayable",
      "type": "function"
    },
    {
      "inputs": [
        {
          "internalType": "uint256",
          "name": "proposalId",
          "type": "uint256"
        }
      ],
      "name": "getActions",
      "outputs": [
        {
          "internalType": "address[]",
          "name": "targets",
          "type": "address[]"
        },
        {
          "internalType": "uint256[]",
          "name": "values",
          "type": "uint256[]"
        },
        {
          "internalType": "string[]",
          "name": "signatures",
          "type": "string[]"
        },
        {
          "internalType": "bytes[]",
          "name": "calldatas",
          "type": "bytes[]"
        }
      ],
      "stateMutability": "view",
      "type": "function",
      "constant": true
    },
    {
      "inputs": [
        {
          "internalType": "uint256",
          "name": "proposalId",
          "type": "uint256"
        },
        {
          "internalType": "address",
          "name": "voter",
          "type": "address"
        }
      ],
      "name": "getReceipt",
      "outputs": [
        {
          "components": [
            {
              "internalType": "bool",
              "name": "hasVoted",
              "type": "bool"
            },
            {
              "internalType": "bool",
              "name": "support",
              "type": "bool"
            },
            {
              "internalType": "uint256",
              "name": "votes",
              "type": "uint256"
            }
          ],
          "internalType": "struct GovernorAlpha.Receipt",
          "name": "",
          "type": "tuple"
        }
      ],
      "stateMutability": "view",
      "type": "function",
      "constant": true
    },
    {
      "inputs": [
        {
          "internalType": "uint256",
          "name": "proposalId",
          "type": "uint256"
        }
      ],
      "name": "state",
      "outputs": [
        {
          "internalType": "enum GovernorAlpha.ProposalState",
          "name": "",
          "type": "uint8"
        }
      ],
      "stateMutability": "view",
      "type": "function",
      "constant": true
    },
    {
      "inputs": [
        {
          "internalType": "uint256",
          "name": "proposalId",
          "type": "uint256"
        },
        {
          "internalType": "bool",
          "name": "support",
          "type": "bool"
        }
      ],
      "name": "castVote",
      "outputs": [],
      "stateMutability": "nonpayable",
      "type": "function"
    },
    {
      "inputs": [
        {
          "internalType": "uint256",
          "name": "proposalId",
          "type": "uint256"
        },
        {
          "internalType": "bool",
          "name": "support",
          "type": "bool"
        },
        {
          "internalType": "uint8",
          "name": "v",
          "type": "uint8"
        },
        {
          "internalType": "bytes32",
          "name": "r",
          "type": "bytes32"
        },
        {
          "internalType": "bytes32",
          "name": "s",
          "type": "bytes32"
        }
      ],
      "name": "castVoteBySig",
      "outputs": [],
      "stateMutability": "nonpayable",
      "type": "function"
    },
    {
      "inputs": [],
      "name": "__acceptAdmin",
      "outputs": [],
      "stateMutability": "nonpayable",
      "type": "function"
    },
    {
      "inputs": [],
      "name": "__abdicate",
      "outputs": [],
      "stateMutability": "nonpayable",
      "type": "function"
    },
    {
      "inputs": [
        {
          "internalType": "address",
          "name": "newPendingAdmin",
          "type": "address"
        },
        {
          "internalType": "uint256",
          "name": "eta",
          "type": "uint256"
        }
      ],
      "name": "__queueSetTimelockPendingAdmin",
      "outputs": [],
      "stateMutability": "nonpayable",
      "type": "function"
    },
    {
      "inputs": [
        {
          "internalType": "address",
          "name": "newPendingAdmin",
          "type": "address"
        },
        {
          "internalType": "uint256",
          "name": "eta",
          "type": "uint256"
        }
      ],
      "name": "__executeSetTimelockPendingAdmin",
      "outputs": [],
      "stateMutability": "nonpayable",
      "type": "function"
    }
  ],
  "bytecode": "0x60806040523480156200001157600080fd5b50604051620035d2380380620035d2833981016040819052620000349162000094565b600080546001600160a01b039485166001600160a01b031991821617909155600180549385169382169390931790925560028054919093169116179055620000dd565b80516001600160a01b03811681146200008f57600080fd5b919050565b600080600060608486031215620000a9578283fd5b620000b48462000077565b9250620000c46020850162000077565b9150620000d46040850162000077565b90509250925092565b6134e580620000ed6000396000f3fe6080604052600436106101b75760003560e01c80634634c61f116100ec578063da35c6641161008a578063deaaa7cc11610064578063deaaa7cc14610597578063e23a9a52146105cb578063fbfa77cf14610682578063fe0d94c1146106a2576101b7565b8063da35c66414610541578063da95691a14610557578063ddf0b00914610577576101b7565b806391500671116100c657806391500671146104d7578063b58131b0146104f7578063b9a619611461050c578063d33219b414610521576101b7565b80634634c61f1461048e578063760fbc13146104ae5780637bdbe4d0146104c3576101b7565b806324bc1a64116101595780633e4f49e6116101335780633e4f49e6146103f657806340e58ee51461042357806342cbb15c14610443578063452a932014610456576101b7565b806324bc1a641461039d578063328dd982146103b25780633932abb1146103e2576101b7565b806315373e3d1161019557806315373e3d146102fa57806317977c611461031c57806320606b701461034957806321f43e421461037d576101b7565b8063013cf08b146101bc57806302a251a31461028557806306fdde03146102a4575b600080fd5b3480156101c857600080fd5b506102306101d7366004612e98565b6004602052600090815260409020805460018201546002830154600784015460088501546009860154600a870154600b9097015495966001600160a01b0390951695939492939192909160ff8082169161010090041689565b60408051998a526001600160a01b0390981660208a0152968801959095526060870193909352608086019190915260a085015260c0840152151560e08301521515610100820152610120015b60405180910390f35b34801561029157600080fd5b506143805b60405190815260200161027c565b3480156102b057600080fd5b506102ed6040518060400160405280601481526020017f566164657220476f7665726e6f7220416c70686100000000000000000000000081525081565b60405161027c9190613265565b34801561030657600080fd5b5061031a610315366004612edb565b6106b5565b005b34801561032857600080fd5b50610296610337366004612ce2565b60056020526000908152604090205481565b34801561035557600080fd5b506102967f8cad95687ba82c2ce50e74f7b754645e5117c3a5bec8151c0726d5857980a86681565b34801561038957600080fd5b5061031a610398366004612cfc565b6106c4565b3480156103a957600080fd5b5061029661081e565b3480156103be57600080fd5b506103d26103cd366004612e98565b6108c2565b60405161027c94939291906131e5565b3480156103ee57600080fd5b506001610296565b34801561040257600080fd5b50610416610411366004612e98565b610b53565b60405161027c919061323d565b34801561042f57600080fd5b5061031a61043e366004612e98565b610d39565b34801561044f57600080fd5b5043610296565b34801561046257600080fd5b50600254610476906001600160a01b031681565b6040516001600160a01b03909116815260200161027c565b34801561049a57600080fd5b5061031a6104a9366004612f0a565b6110d4565b3480156104ba57600080fd5b5061031a61131a565b3480156104cf57600080fd5b50600a610296565b3480156104e357600080fd5b5061031a6104f2366004612cfc565b6113b9565b34801561050357600080fd5b50610296611505565b34801561051857600080fd5b5061031a61158f565b34801561052d57600080fd5b50600054610476906001600160a01b031681565b34801561054d57600080fd5b5061029660035481565b34801561056357600080fd5b50610296610572366004612d25565b611683565b34801561058357600080fd5b5061031a610592366004612e98565b611cbf565b3480156105a357600080fd5b506102967f8e25870c07e0b0b3884c78da52790939a455c275406c44ae8b434b692fb916ee81565b3480156105d757600080fd5b5061065c6105e6366004612eb0565b60408051606081018252600080825260208201819052918101919091525060009182526004602090815260408084206001600160a01b03939093168452600c9092018152918190208151606081018352815460ff8082161515835261010090910416151593810193909352600101549082015290565b60408051825115158152602080840151151590820152918101519082015260600161027c565b34801561068e57600080fd5b50600154610476906001600160a01b031681565b61031a6106b0366004612e98565b612031565b6106c033838361230d565b5050565b6002546001600160a01b0316331461076f5760405162461bcd60e51b815260206004820152604c60248201527f476f7665726e6f72416c7068613a3a5f5f6578656375746553657454696d656c60448201527f6f636b50656e64696e6741646d696e3a2073656e646572206d7573742062652060648201527f676f7620677561726469616e0000000000000000000000000000000000000000608482015260a4015b60405180910390fd5b60008054604080516001600160a01b03868116602083015290921692630825f38f92849201604051602081830303815290604052856040518563ffffffff1660e01b81526004016107c394939291906130f1565b600060405180830381600087803b1580156107dd57600080fd5b505af11580156107f1573d6000803e3d6000fd5b505050506040513d6000823e601f3d908101601f191682016040526108199190810190612e25565b505050565b60006064600160009054906101000a90046001600160a01b03166001600160a01b03166356d73e636040518163ffffffff1660e01b815260040160206040518083038186803b15801561087057600080fd5b505afa158015610884573d6000803e3d6000fd5b505050506040513d601f19601f820116820180604052508101906108a89190612e0d565b6108b39060046133c3565b6108bd91906133a3565b905090565b6060806060806000600460008781526020019081526020016000209050806003018160040182600501836006018380548060200260200160405190810160405280929190818152602001828054801561094457602002820191906000526020600020905b81546001600160a01b03168152600190910190602001808311610926575b505050505093508280548060200260200160405190810160405280929190818152602001828054801561099657602002820191906000526020600020905b815481526020019060010190808311610982575b5050505050925081805480602002602001604051908101604052809291908181526020016000905b82821015610a6a5783829060005260206000200180546109dd90613425565b80601f0160208091040260200160405190810160405280929190818152602001828054610a0990613425565b8015610a565780601f10610a2b57610100808354040283529160200191610a56565b820191906000526020600020905b815481529060010190602001808311610a3957829003601f168201915b5050505050815260200190600101906109be565b50505050915080805480602002602001604051908101604052809291908181526020016000905b82821015610b3d578382906000526020600020018054610ab090613425565b80601f0160208091040260200160405190810160405280929190818152602001828054610adc90613425565b8015610b295780601f10610afe57610100808354040283529160200191610b29565b820191906000526020600020905b815481529060010190602001808311610b0c57829003601f168201915b505050505081526020019060010190610a91565b5050505090509450945094509450509193509193565b60008160035410158015610b675750600082115b610bd95760405162461bcd60e51b815260206004820152602960248201527f476f7665726e6f72416c7068613a3a73746174653a20696e76616c696420707260448201527f6f706f73616c20696400000000000000000000000000000000000000000000006064820152608401610766565b6000828152600460205260409020600b81015460ff1615610bfe576002915050610d34565b80600701544311610c13576000915050610d34565b80600801544311610c28576001915050610d34565b80600a01548160090154111580610c495750610c4261081e565b8160090154105b15610c58576003915050610d34565b6002810154610c6b576004915050610d34565b600b810154610100900460ff1615610c87576007915050610d34565b610d18816002015460008054906101000a90046001600160a01b03166001600160a01b031663c1a287e26040518163ffffffff1660e01b815260040160206040518083038186803b158015610cdb57600080fd5b505afa158015610cef573d6000803e3d6000fd5b505050506040513d601f19601f82011682018060405250810190610d139190612e0d565b6125c8565b4210610d28576006915050610d34565b6005915050610d34565b505b919050565b6000610d4482610b53565b90506007816007811115610d6857634e487b7160e01b600052602160045260246000fd5b1415610ddc5760405162461bcd60e51b815260206004820152603660248201527f476f7665726e6f72416c7068613a3a63616e63656c3a2063616e6e6f7420636160448201527f6e63656c2065786563757465642070726f706f73616c000000000000000000006064820152608401610766565b60008281526004602052604090206002546001600160a01b0316331480610ec55750610e06611505565b60018054838201546001600160a01b039182169263782d6fe19290911690610e2f90439061262e565b6040517fffffffff0000000000000000000000000000000000000000000000000000000060e085901b1681526001600160a01b039092166004830152602482015260440160206040518083038186803b158015610e8b57600080fd5b505afa158015610e9f573d6000803e3d6000fd5b505050506040513d601f19601f82011682018060405250810190610ec39190612e0d565b105b610f375760405162461bcd60e51b815260206004820152602f60248201527f476f7665726e6f72416c7068613a3a63616e63656c3a2070726f706f7365722060448201527f61626f7665207468726573686f6c6400000000000000000000000000000000006064820152608401610766565b600b8101805460ff1916600117905560005b600382015481101561109a576000546003830180546001600160a01b039092169163591fcdfe919084908110610f8f57634e487b7160e01b600052603260045260246000fd5b6000918252602090912001546004850180546001600160a01b039092169185908110610fcb57634e487b7160e01b600052603260045260246000fd5b9060005260206000200154856005018581548110610ff957634e487b7160e01b600052603260045260246000fd5b9060005260206000200186600601868154811061102657634e487b7160e01b600052603260045260246000fd5b9060005260206000200187600201546040518663ffffffff1660e01b81526004016110559594939291906131ab565b600060405180830381600087803b15801561106f57600080fd5b505af1158015611083573d6000803e3d6000fd5b5050505080806110929061345a565b915050610f49565b506040518381527f789cf55be980739dad1d0699b93b58e806b51c9d96619bfa8fe0a28abaa7b30c906020015b60405180910390a1505050565b604080518082018252601481527f566164657220476f7665726e6f7220416c70686100000000000000000000000060209182015281517f8cad95687ba82c2ce50e74f7b754645e5117c3a5bec8151c0726d5857980a866818301527fc1d5a67b76b6997ba8c497a0a22cc132eea5d0b196ea2de9ebfe58d19c34332181840152466060820152306080808301919091528351808303909101815260a0820184528051908301207f8e25870c07e0b0b3884c78da52790939a455c275406c44ae8b434b692fb916ee60c083015260e0820189905287151561010080840191909152845180840390910181526101208301909452835193909201929092207f19010000000000000000000000000000000000000000000000000000000000006101408401526101428301829052610162830181905290916000906101820160408051601f198184030181528282528051602091820120600080855291840180845281905260ff8a169284019290925260608301889052608083018790529092509060019060a0016020604051602081039080840390855afa15801561127b573d6000803e3d6000fd5b5050604051601f1901519150506001600160a01b0381166113045760405162461bcd60e51b815260206004820152602f60248201527f476f7665726e6f72416c7068613a3a63617374566f746542795369673a20696e60448201527f76616c6964207369676e617475726500000000000000000000000000000000006064820152608401610766565b61130f818a8a61230d565b505050505050505050565b6002546001600160a01b0316331461139a5760405162461bcd60e51b815260206004820152603660248201527f476f7665726e6f72416c7068613a3a5f5f61626469636174653a2073656e646560448201527f72206d75737420626520676f7620677561726469616e000000000000000000006064820152608401610766565b6002805473ffffffffffffffffffffffffffffffffffffffff19169055565b6002546001600160a01b0316331461145f5760405162461bcd60e51b815260206004820152604a60248201527f476f7665726e6f72416c7068613a3a5f5f717565756553657454696d656c6f6360448201527f6b50656e64696e6741646d696e3a2073656e646572206d75737420626520676f60648201527f7620677561726469616e00000000000000000000000000000000000000000000608482015260a401610766565b60008054604080516001600160a01b03868116602083015290921692633a66f90192849201604051602081830303815290604052856040518563ffffffff1660e01b81526004016114b394939291906130f1565b602060405180830381600087803b1580156114cd57600080fd5b505af11580156114e1573d6000803e3d6000fd5b505050506040513d601f19601f820116820180604052508101906108199190612e0d565b60006064600160009054906101000a90046001600160a01b03166001600160a01b03166356d73e636040518163ffffffff1660e01b815260040160206040518083038186803b15801561155757600080fd5b505afa15801561156b573d6000803e3d6000fd5b505050506040513d601f19601f820116820180604052508101906108b39190612e0d565b6002546001600160a01b0316331461160f5760405162461bcd60e51b815260206004820152603960248201527f476f7665726e6f72416c7068613a3a5f5f61636365707441646d696e3a20736560448201527f6e646572206d75737420626520676f7620677561726469616e000000000000006064820152608401610766565b60008054604080517f0e18b68100000000000000000000000000000000000000000000000000000000815290516001600160a01b0390921692630e18b6819260048084019382900301818387803b15801561166957600080fd5b505af115801561167d573d6000803e3d6000fd5b50505050565b600061168d611505565b600180546001600160a01b03169063782d6fe19033906116ae90439061262e565b6040517fffffffff0000000000000000000000000000000000000000000000000000000060e085901b1681526001600160a01b039092166004830152602482015260440160206040518083038186803b15801561170a57600080fd5b505afa15801561171e573d6000803e3d6000fd5b505050506040513d601f19601f820116820180604052508101906117429190612e0d565b116117b55760405162461bcd60e51b815260206004820152603f60248201527f476f7665726e6f72416c7068613a3a70726f706f73653a2070726f706f73657260448201527f20766f7465732062656c6f772070726f706f73616c207468726573686f6c64006064820152608401610766565b845186511480156117c7575083518651145b80156117d4575082518651145b61186d5760405162461bcd60e51b8152602060048201526044602482018190527f476f7665726e6f72416c7068613a3a70726f706f73653a2070726f706f73616c908201527f2066756e6374696f6e20696e666f726d6174696f6e206172697479206d69736d60648201527f6174636800000000000000000000000000000000000000000000000000000000608482015260a401610766565b85516118e15760405162461bcd60e51b815260206004820152602c60248201527f476f7665726e6f72416c7068613a3a70726f706f73653a206d7573742070726f60448201527f7669646520616374696f6e7300000000000000000000000000000000000000006064820152608401610766565b600a865111156119595760405162461bcd60e51b815260206004820152602860248201527f476f7665726e6f72416c7068613a3a70726f706f73653a20746f6f206d616e7960448201527f20616374696f6e730000000000000000000000000000000000000000000000006064820152608401610766565b336000908152600560205260409020548015611af657600061197a82610b53565b9050600181600781111561199e57634e487b7160e01b600052602160045260246000fd5b1415611a385760405162461bcd60e51b815260206004820152605860248201527f476f7665726e6f72416c7068613a3a70726f706f73653a206f6e65206c69766560448201527f2070726f706f73616c207065722070726f706f7365722c20666f756e6420616e60648201527f20616c7265616479206163746976652070726f706f73616c0000000000000000608482015260a401610766565b6000816007811115611a5a57634e487b7160e01b600052602160045260246000fd5b1415611af45760405162461bcd60e51b815260206004820152605960248201527f476f7665726e6f72416c7068613a3a70726f706f73653a206f6e65206c69766560448201527f2070726f706f73616c207065722070726f706f7365722c20666f756e6420616e60648201527f20616c72656164792070656e64696e672070726f706f73616c00000000000000608482015260a401610766565b505b6000611b03436001610d13565b90506000611b1382614380610d13565b600380549192506000611b258361345a565b9091555050600380546000818152600460209081526040822092835560018301805473ffffffffffffffffffffffffffffffffffffffff19163317905560028301919091558b519192611b7e92908401918d0190612881565b508851611b9490600483019060208c01906128f3565b508751611baa90600583019060208b019061292e565b508651611bc090600683019060208a0190612987565b5082816007018190555081816008018190555060008160090181905550600081600a0181905550600081600b0160006101000a81548160ff021916908315150217905550600081600b0160016101000a81548160ff0219169083151502179055508060000154600560008360010160009054906101000a90046001600160a01b03166001600160a01b03166001600160a01b03168152602001908152602001600020819055507f7d84a6263ae0d98d3329bd7b46bb4e8d6f98cd35a7adb45c274c8b7fd5ebd5e08160000154338c8c8c8c89898e604051611ca999989796959493929190613278565b60405180910390a1549998505050505050505050565b6004611cca82610b53565b6007811115611ce957634e487b7160e01b600052602160045260246000fd5b14611d835760405162461bcd60e51b8152602060048201526044602482018190527f476f7665726e6f72416c7068613a3a71756575653a2070726f706f73616c2063908201527f616e206f6e6c792062652071756575656420696620697420697320737563636560648201527f6564656400000000000000000000000000000000000000000000000000000000608482015260a401610766565b6000818152600460208181526040808420845482517f6a42b8f80000000000000000000000000000000000000000000000000000000081529251919594611df19442946001600160a01b0390931693636a42b8f8938084019390829003018186803b158015610cdb57600080fd5b905060005b6003830154811015611ff357611fe1836003018281548110611e2857634e487b7160e01b600052603260045260246000fd5b6000918252602090912001546004850180546001600160a01b039092169184908110611e6457634e487b7160e01b600052603260045260246000fd5b9060005260206000200154856005018481548110611e9257634e487b7160e01b600052603260045260246000fd5b906000526020600020018054611ea790613425565b80601f0160208091040260200160405190810160405280929190818152602001828054611ed390613425565b8015611f205780601f10611ef557610100808354040283529160200191611f20565b820191906000526020600020905b815481529060010190602001808311611f0357829003601f168201915b5050505050866006018581548110611f4857634e487b7160e01b600052603260045260246000fd5b906000526020600020018054611f5d90613425565b80601f0160208091040260200160405190810160405280929190818152602001828054611f8990613425565b8015611fd65780601f10611fab57610100808354040283529160200191611fd6565b820191906000526020600020905b815481529060010190602001808311611fb957829003601f168201915b50505050508661268a565b80611feb8161345a565b915050611df6565b506002820181905560408051848152602081018390527f9a2e42fd6722813d69113e7d0079d3d940171428df7373df9c7f7617cfda289291016110c7565b600561203c82610b53565b600781111561205b57634e487b7160e01b600052602160045260246000fd5b146120f45760405162461bcd60e51b815260206004820152604560248201527f476f7665726e6f72416c7068613a3a657865637574653a2070726f706f73616c60448201527f2063616e206f6e6c79206265206578656375746564206966206974206973207160648201527f7565756564000000000000000000000000000000000000000000000000000000608482015260a401610766565b6000818152600460205260408120600b810180547fffffffffffffffffffffffffffffffffffffffffffffffffffffffffffff00ff16610100179055905b60038201548110156122d5576000546004830180546001600160a01b0390921691630825f38f91908490811061217857634e487b7160e01b600052603260045260246000fd5b90600052602060002001548460030184815481106121a657634e487b7160e01b600052603260045260246000fd5b6000918252602090912001546004860180546001600160a01b0390921691869081106121e257634e487b7160e01b600052603260045260246000fd5b906000526020600020015486600501868154811061221057634e487b7160e01b600052603260045260246000fd5b9060005260206000200187600601878154811061223d57634e487b7160e01b600052603260045260246000fd5b9060005260206000200188600201546040518763ffffffff1660e01b815260040161226c9594939291906131ab565b6000604051808303818588803b15801561228557600080fd5b505af1158015612299573d6000803e3d6000fd5b50505050506040513d6000823e601f3d908101601f191682016040526122c29190810190612e25565b50806122cd8161345a565b915050612132565b506040518281527f712ae1383f79ac853f8d882153778e0260ef8f03b504e2866e0593e04d2b291f9060200160405180910390a15050565b600161231883610b53565b600781111561233757634e487b7160e01b600052602160045260246000fd5b146123aa5760405162461bcd60e51b815260206004820152602a60248201527f476f7665726e6f72416c7068613a3a5f63617374566f74653a20766f74696e6760448201527f20697320636c6f736564000000000000000000000000000000000000000000006064820152608401610766565b60008281526004602090815260408083206001600160a01b0387168452600c8101909252909120805460ff16156124495760405162461bcd60e51b815260206004820152602d60248201527f476f7665726e6f72416c7068613a3a5f63617374566f74653a20766f7465722060448201527f616c726561647920766f746564000000000000000000000000000000000000006064820152608401610766565b60015460078301546040517f782d6fe10000000000000000000000000000000000000000000000000000000081526000926001600160a01b03169163782d6fe1916124ac918a916004016001600160a01b03929092168252602082015260400190565b60206040518083038186803b1580156124c457600080fd5b505afa1580156124d8573d6000803e3d6000fd5b505050506040513d601f19601f820116820180604052508101906124fc9190612e0d565b9050831561251c576125128360090154826125c8565b6009840155612530565b61252a83600a0154826125c8565b600a8401555b815484151561010081027fffffffffffffffffffffffffffffffffffffffffffffffffffffffffffff000090921691909117600190811784558301829055604080516001600160a01b03891681526020810188905290810191909152606081018290527f877856338e13f63d0c36822ff0ef736b80934cd90574a3a5bc9262c39d217c469060800160405180910390a1505050505050565b6000806125d5838561338b565b9050838110156126275760405162461bcd60e51b815260206004820152601160248201527f6164646974696f6e206f766572666c6f770000000000000000000000000000006044820152606401610766565b9392505050565b6000828211156126805760405162461bcd60e51b815260206004820152601560248201527f7375627472616374696f6e20756e646572666c6f7700000000000000000000006044820152606401610766565b61262782846133e2565b6000546040516001600160a01b039091169063f2b06537906126b8908890889088908890889060200161315e565b604051602081830303815290604052805190602001206040518263ffffffff1660e01b81526004016126ec91815260200190565b60206040518083038186803b15801561270457600080fd5b505afa158015612718573d6000803e3d6000fd5b505050506040513d601f19601f8201168201806040525081019061273c9190612df1565b156127d65760405162461bcd60e51b8152602060048201526044602482018190527f476f7665726e6f72416c7068613a3a5f71756575654f725265766572743a2070908201527f726f706f73616c20616374696f6e20616c72656164792071756575656420617460648201527f2065746100000000000000000000000000000000000000000000000000000000608482015260a401610766565b6000546040517f3a66f9010000000000000000000000000000000000000000000000000000000081526001600160a01b0390911690633a66f90190612827908890889088908890889060040161315e565b602060405180830381600087803b15801561284157600080fd5b505af1158015612855573d6000803e3d6000fd5b505050506040513d601f19601f820116820180604052508101906128799190612e0d565b505050505050565b8280548282559060005260206000209081019282156128e3579160200282015b828111156128e3578251825473ffffffffffffffffffffffffffffffffffffffff19166001600160a01b039091161782556020909201916001909101906128a1565b506128ef9291506129e0565b5090565b8280548282559060005260206000209081019282156128e3579160200282015b828111156128e3578251825591602001919060010190612913565b82805482825590600052602060002090810192821561297b579160200282015b8281111561297b578251805161296b9184916020909101906129f5565b509160200191906001019061294e565b506128ef929150612a68565b8280548282559060005260206000209081019282156129d4579160200282015b828111156129d457825180516129c49184916020909101906129f5565b50916020019190600101906129a7565b506128ef929150612a85565b5b808211156128ef57600081556001016129e1565b828054612a0190613425565b90600052602060002090601f016020900481019282612a2357600085556128e3565b82601f10612a3c57805160ff19168380011785556128e3565b828001600101855582156128e357918201828111156128e3578251825591602001919060010190612913565b808211156128ef576000612a7c8282612aa2565b50600101612a68565b808211156128ef576000612a998282612aa2565b50600101612a85565b508054612aae90613425565b6000825580601f10612ac05750612ade565b601f016020900490600052602060002090810190612ade91906129e0565b50565b6000612af4612aef84613363565b61330e565b9050828152838383011115612b0857600080fd5b828260208301376000602084830101529392505050565b80356001600160a01b0381168114610d3457600080fd5b600082601f830112612b46578081fd5b81356020612b56612aef8361333f565b80838252828201915082860187848660051b8901011115612b75578586fd5b855b85811015612b9a57612b8882612b1f565b84529284019290840190600101612b77565b5090979650505050505050565b600082601f830112612bb7578081fd5b81356020612bc7612aef8361333f565b82815281810190858301855b85811015612b9a578135880189603f820112612bed578788fd5b612bfe8a8783013560408401612ae1565b8552509284019290840190600101612bd3565b600082601f830112612c21578081fd5b81356020612c31612aef8361333f565b82815281810190858301855b85811015612b9a57612c54898684358b0101612cc3565b84529284019290840190600101612c3d565b600082601f830112612c76578081fd5b81356020612c86612aef8361333f565b80838252828201915082860187848660051b8901011115612ca5578586fd5b855b85811015612b9a57813584529284019290840190600101612ca7565b600082601f830112612cd3578081fd5b61262783833560208501612ae1565b600060208284031215612cf3578081fd5b61262782612b1f565b60008060408385031215612d0e578081fd5b612d1783612b1f565b946020939093013593505050565b600080600080600060a08688031215612d3c578081fd5b853567ffffffffffffffff80821115612d53578283fd5b612d5f89838a01612b36565b96506020880135915080821115612d74578283fd5b612d8089838a01612c66565b95506040880135915080821115612d95578283fd5b612da189838a01612c11565b94506060880135915080821115612db6578283fd5b612dc289838a01612ba7565b93506080880135915080821115612dd7578283fd5b50612de488828901612cc3565b9150509295509295909350565b600060208284031215612e02578081fd5b8151612627816134a1565b600060208284031215612e1e578081fd5b5051919050565b600060208284031215612e36578081fd5b815167ffffffffffffffff811115612e4c578182fd5b8201601f81018413612e5c578182fd5b8051612e6a612aef82613363565b818152856020838501011115612e7e578384fd5b612e8f8260208301602086016133f9565b95945050505050565b600060208284031215612ea9578081fd5b5035919050565b60008060408385031215612ec2578182fd5b82359150612ed260208401612b1f565b90509250929050565b60008060408385031215612eed578182fd5b823591506020830135612eff816134a1565b809150509250929050565b600080600080600060a08688031215612f21578283fd5b853594506020860135612f33816134a1565b9350604086013560ff81168114612f48578384fd5b94979396509394606081013594506080013592915050565b6000815180845260208085019450808401835b83811015612f985781516001600160a01b031687529582019590820190600101612f73565b509495945050505050565b600081518084526020808501808196508360051b81019150828601855b85811015612fea578284038952612fd8848351613026565b98850198935090840190600101612fc0565b5091979650505050505050565b6000815180845260208085019450808401835b83811015612f985781518752958201959082019060010161300a565b6000815180845261303e8160208601602086016133f9565b601f01601f19169290920160200192915050565b8054600090600181811c908083168061306c57607f831692505b602080841082141561308c57634e487b7160e01b86526022600452602486fd5b8388528180156130a357600181146130b7576130e5565b60ff198616828a01526040890196506130e5565b876000528160002060005b868110156130dd5781548b82018501529085019083016130c2565b8a0183019750505b50505050505092915050565b60006001600160a01b038616825284602083015260a06040830152601860a08301527f73657450656e64696e6741646d696e286164647265737329000000000000000060c083015260e0606083015261314d60e0830185613026565b905082608083015295945050505050565b60006001600160a01b038716825285602083015260a0604083015261318660a0830186613026565b82810360608401526131988186613026565b9150508260808301529695505050505050565b60006001600160a01b038716825285602083015260a060408301526131d360a0830186613052565b82810360608401526131988186613052565b6000608082526131f86080830187612f60565b828103602084015261320a8187612ff7565b9050828103604084015261321e8186612fa3565b905082810360608401526132328185612fa3565b979650505050505050565b602081016008831061325f57634e487b7160e01b600052602160045260246000fd5b91905290565b6000602082526126276020830184613026565b60006101208b83526001600160a01b038b1660208401528060408401526132a18184018b612f60565b905082810360608401526132b5818a612ff7565b905082810360808401526132c98189612fa3565b905082810360a08401526132dd8188612fa3565b90508560c08401528460e08401528281036101008401526132fe8185613026565b9c9b505050505050505050505050565b604051601f8201601f1916810167ffffffffffffffff811182821017156133375761333761348b565b604052919050565b600067ffffffffffffffff8211156133595761335961348b565b5060051b60200190565b600067ffffffffffffffff82111561337d5761337d61348b565b50601f01601f191660200190565b6000821982111561339e5761339e613475565b500190565b6000826133be57634e487b7160e01b81526012600452602481fd5b500490565b60008160001904831182151516156133dd576133dd613475565b500290565b6000828210156133f4576133f4613475565b500390565b60005b838110156134145781810151838201526020016133fc565b8381111561167d5750506000910152565b600181811c9082168061343957607f821691505b60208210811415610d3257634e487b7160e01b600052602260045260246000fd5b600060001982141561346e5761346e613475565b5060010190565b634e487b7160e01b600052601160045260246000fd5b634e487b7160e01b600052604160045260246000fd5b8015158114612ade57600080fdfea26469706673582212202fbd8fbcafc8cb690867e074e8b017b774316a6c6abb8b54604e9b49822a2e5a64736f6c63430008030033",
  "immutableReferences": {},
  "source": "// SPDX-License-Identifier: UNLICENSED\r\npragma solidity 0.8.3;\r\npragma experimental ABIEncoderV2;\r\n\r\n// Interfaces\r\nimport \"../interfaces/iTIMELOCK.sol\";\r\nimport \"../interfaces/iVAULT.sol\";\r\n\r\ncontract GovernorAlpha {\r\n    // @notice The name of this contract\r\n    string public constant name = \"Vader Governor Alpha\";\r\n\r\n    // @notice The number of votes in support of a proposal required in order for a quorum to be reached and for a vote to succeed\r\n    function quorumVotes() public view returns (uint) { return vault.getUSDVTotalSupply() * 4 / 100; } // 4 % of USDV\r\n\r\n    // @notice The number of votes required in order for a voter to become a proposer\r\n    function proposalThreshold() public view returns (uint) { return vault.getUSDVTotalSupply() / 100; } // 1 % of USDV\r\n\r\n    // @notice The maximum number of actions that can be included in a proposal\r\n    function proposalMaxOperations() public pure returns (uint) { return 10; } // 10 actions\r\n\r\n    // @notice The delay before voting on a proposal may take place, once proposed\r\n    function votingDelay() public pure returns (uint) { return 1; } // 1 block\r\n\r\n    // @notice The duration of voting on a proposal, in blocks\r\n    function votingPeriod() public pure returns (uint) { return 17280; } // ~3 days in blocks (assuming 15s blocks)\r\n\r\n    // @notice The address of the Vader Protocol Timelock\r\n    iTIMELOCK public timelock;\r\n\r\n    // @notice The address of the Vault\r\n    iVAULT public vault;\r\n\r\n    // @notice The address of the Governor Guardian\r\n    address public guardian;\r\n\r\n    // @notice The total number of proposals\r\n    uint public proposalCount;\r\n\r\n    struct Proposal {\r\n        // @notice Unique id for looking up a proposal\r\n        uint id;\r\n\r\n        // @notice Creator of the proposal\r\n        address proposer;\r\n\r\n        // @notice The timestamp that the proposal will be available for execution, set once the vote succeeds\r\n        uint eta;\r\n\r\n        // @notice the ordered list of target addresses for calls to be made\r\n        address[] targets;\r\n\r\n        // @notice The ordered list of values (i.e. msg.value) to be passed to the calls to be made\r\n        uint[] values;\r\n\r\n        // @notice The ordered list of function signatures to be called\r\n        string[] signatures;\r\n\r\n        // @notice The ordered list of calldata to be passed to each call\r\n        bytes[] calldatas;\r\n\r\n        // @notice The block at which voting begins: holders must delegate their votes prior to this block\r\n        uint startBlock;\r\n\r\n        // @notice The block at which voting ends: votes must be cast prior to this block\r\n        uint endBlock;\r\n\r\n        // @notice Current number of votes in favor of this proposal\r\n        uint forVotes;\r\n\r\n        // @notice Current number of votes in opposition to this proposal\r\n        uint againstVotes;\r\n\r\n        // @notice Flag marking whether the proposal has been canceled\r\n        bool canceled;\r\n\r\n        // @notice Flag marking whether the proposal has been executed\r\n        bool executed;\r\n\r\n        // @notice Receipts of ballots for the entire set of voters\r\n        mapping (address => Receipt) receipts;\r\n    }\r\n\r\n    // @notice Ballot receipt record for a voter\r\n    struct Receipt {\r\n        // @notice Whether or not a vote has been cast\r\n        bool hasVoted;\r\n\r\n        // @notice Whether or not the voter supports the proposal\r\n        bool support;\r\n\r\n        // @notice The number of votes the voter had, which were cast\r\n        uint256 votes;\r\n    }\r\n\r\n    // @notice Possible states that a proposal may be in\r\n    enum ProposalState {\r\n        Pending,\r\n        Active,\r\n        Canceled,\r\n        Defeated,\r\n        Succeeded,\r\n        Queued,\r\n        Expired,\r\n        Executed\r\n    }\r\n\r\n    // @notice The official record of all proposals ever proposed\r\n    mapping (uint => Proposal) public proposals;\r\n\r\n    // @notice The latest proposal for each proposer\r\n    mapping (address => uint) public latestProposalIds;\r\n\r\n    // @notice The EIP-712 typehash for the contract's domain\r\n    bytes32 public constant DOMAIN_TYPEHASH = keccak256(\"EIP712Domain(string name,uint256 chainId,address verifyingContract)\");\r\n\r\n    // @notice The EIP-712 typehash for the ballot struct used by the contract\r\n    bytes32 public constant BALLOT_TYPEHASH = keccak256(\"Ballot(uint256 proposalId,bool support)\");\r\n\r\n    // @notice An event emitted when a new proposal is created\r\n    event ProposalCreated(uint id, address proposer, address[] targets, uint[] values, string[] signatures, bytes[] calldatas, uint startBlock, uint endBlock, string description);\r\n\r\n    // @notice An event emitted when a vote has been cast on a proposal\r\n    event VoteCast(address voter, uint proposalId, bool support, uint votes);\r\n\r\n    // @notice An event emitted when a proposal has been canceled\r\n    event ProposalCanceled(uint id);\r\n\r\n    // @notice An event emitted when a proposal has been queued in the Timelock\r\n    event ProposalQueued(uint id, uint eta);\r\n\r\n    // @notice An event emitted when a proposal has been executed in the Timelock\r\n    event ProposalExecuted(uint id);\r\n\r\n    constructor(address timelock_, address vault_, address guardian_) public {\r\n        timelock = iTIMELOCK(timelock_);\r\n        vault = iVAULT(vault_);\r\n        guardian = guardian_;\r\n    }\r\n\r\n    function getBlockNumber() public view returns (uint256) {\r\n        return block.number;\r\n    }\r\n\r\n    function propose(address[] memory targets, uint[] memory values, string[] memory signatures, bytes[] memory calldatas, string memory description) public returns (uint) {\r\n        require(vault.getPriorVotes(msg.sender, sub256(block.number, 1)) > proposalThreshold(), \"GovernorAlpha::propose: proposer votes below proposal threshold\");\r\n        require(targets.length == values.length && targets.length == signatures.length && targets.length == calldatas.length, \"GovernorAlpha::propose: proposal function information arity mismatch\");\r\n        require(targets.length != 0, \"GovernorAlpha::propose: must provide actions\");\r\n        require(targets.length <= proposalMaxOperations(), \"GovernorAlpha::propose: too many actions\");\r\n\r\n        uint latestProposalId = latestProposalIds[msg.sender];\r\n        if (latestProposalId != 0) {\r\n          ProposalState proposersLatestProposalState = state(latestProposalId);\r\n          require(proposersLatestProposalState != ProposalState.Active, \"GovernorAlpha::propose: one live proposal per proposer, found an already active proposal\");\r\n          require(proposersLatestProposalState != ProposalState.Pending, \"GovernorAlpha::propose: one live proposal per proposer, found an already pending proposal\");\r\n        }\r\n\r\n        uint startBlock = add256(block.number, votingDelay());\r\n        uint endBlock = add256(startBlock, votingPeriod());\r\n\r\n        proposalCount++;\r\n        Proposal storage newProposal = proposals[proposalCount];\r\n        newProposal.id = proposalCount;\r\n        newProposal.proposer = msg.sender;\r\n        newProposal.eta = 0;\r\n        newProposal.targets = targets;\r\n        newProposal.values = values;\r\n        newProposal.signatures = signatures;\r\n        newProposal.calldatas = calldatas;\r\n        newProposal.startBlock = startBlock;\r\n        newProposal.endBlock = endBlock;\r\n        newProposal.forVotes = 0;\r\n        newProposal.againstVotes = 0;\r\n        newProposal.canceled = false;\r\n        newProposal.executed = false;\r\n\r\n        latestProposalIds[newProposal.proposer] = newProposal.id;\r\n\r\n        emit ProposalCreated(newProposal.id, msg.sender, targets, values, signatures, calldatas, startBlock, endBlock, description);\r\n        return newProposal.id;\r\n    }\r\n\r\n    function queue(uint proposalId) public {\r\n        require(state(proposalId) == ProposalState.Succeeded, \"GovernorAlpha::queue: proposal can only be queued if it is succeeded\");\r\n        Proposal storage proposal = proposals[proposalId];\r\n        uint eta = add256(block.timestamp, timelock.delay());\r\n        for (uint i = 0; i < proposal.targets.length; i++) {\r\n            _queueOrRevert(proposal.targets[i], proposal.values[i], proposal.signatures[i], proposal.calldatas[i], eta);\r\n        }\r\n        proposal.eta = eta;\r\n        emit ProposalQueued(proposalId, eta);\r\n    }\r\n\r\n    function _queueOrRevert(address target, uint value, string memory signature, bytes memory data, uint eta) internal {\r\n        require(!timelock.queuedTransactions(keccak256(abi.encode(target, value, signature, data, eta))), \"GovernorAlpha::_queueOrRevert: proposal action already queued at eta\");\r\n        timelock.queueTransaction(target, value, signature, data, eta);\r\n    }\r\n\r\n    function execute(uint proposalId) public payable {\r\n        require(state(proposalId) == ProposalState.Queued, \"GovernorAlpha::execute: proposal can only be executed if it is queued\");\r\n        Proposal storage proposal = proposals[proposalId];\r\n        proposal.executed = true;\r\n        for (uint i = 0; i < proposal.targets.length; i++) {\r\n            timelock.executeTransaction{ value: proposal.values[i] }(proposal.targets[i], proposal.values[i], proposal.signatures[i], proposal.calldatas[i], proposal.eta);\r\n        }\r\n        emit ProposalExecuted(proposalId);\r\n    }\r\n\r\n    function cancel(uint proposalId) public {\r\n        ProposalState state = state(proposalId);\r\n        require(state != ProposalState.Executed, \"GovernorAlpha::cancel: cannot cancel executed proposal\");\r\n\r\n        Proposal storage proposal = proposals[proposalId];\r\n        require(msg.sender == guardian || vault.getPriorVotes(proposal.proposer, sub256(block.number, 1)) < proposalThreshold(), \"GovernorAlpha::cancel: proposer above threshold\");\r\n\r\n        proposal.canceled = true;\r\n        for (uint i = 0; i < proposal.targets.length; i++) {\r\n            timelock.cancelTransaction(proposal.targets[i], proposal.values[i], proposal.signatures[i], proposal.calldatas[i], proposal.eta);\r\n        }\r\n\r\n        emit ProposalCanceled(proposalId);\r\n    }\r\n\r\n    function getActions(uint proposalId) public view returns (address[] memory targets, uint[] memory values, string[] memory signatures, bytes[] memory calldatas) {\r\n        Proposal storage p = proposals[proposalId];\r\n        return (p.targets, p.values, p.signatures, p.calldatas);\r\n    }\r\n\r\n    function getReceipt(uint proposalId, address voter) public view returns (Receipt memory) {\r\n        return proposals[proposalId].receipts[voter];\r\n    }\r\n\r\n    function state(uint proposalId) public view returns (ProposalState) {\r\n        require(proposalCount >= proposalId && proposalId > 0, \"GovernorAlpha::state: invalid proposal id\");\r\n        Proposal storage proposal = proposals[proposalId];\r\n        if (proposal.canceled) {\r\n            return ProposalState.Canceled;\r\n        } else if (block.number <= proposal.startBlock) {\r\n            return ProposalState.Pending;\r\n        } else if (block.number <= proposal.endBlock) {\r\n            return ProposalState.Active;\r\n        } else if (proposal.forVotes <= proposal.againstVotes || proposal.forVotes < quorumVotes()) {\r\n            return ProposalState.Defeated;\r\n        } else if (proposal.eta == 0) {\r\n            return ProposalState.Succeeded;\r\n        } else if (proposal.executed) {\r\n            return ProposalState.Executed;\r\n        } else if (block.timestamp >= add256(proposal.eta, timelock.GRACE_PERIOD())) {\r\n            return ProposalState.Expired;\r\n        } else {\r\n            return ProposalState.Queued;\r\n        }\r\n    }\r\n\r\n    function castVote(uint proposalId, bool support) public {\r\n        return _castVote(msg.sender, proposalId, support);\r\n    }\r\n\r\n    function castVoteBySig(uint proposalId, bool support, uint8 v, bytes32 r, bytes32 s) public {\r\n        bytes32 domainSeparator = keccak256(abi.encode(DOMAIN_TYPEHASH, keccak256(bytes(name)), getChainId(), address(this)));\r\n        bytes32 structHash = keccak256(abi.encode(BALLOT_TYPEHASH, proposalId, support));\r\n        bytes32 digest = keccak256(abi.encodePacked(\"\\x19\\x01\", domainSeparator, structHash));\r\n        address signatory = ecrecover(digest, v, r, s);\r\n        require(signatory != address(0), \"GovernorAlpha::castVoteBySig: invalid signature\");\r\n        return _castVote(signatory, proposalId, support);\r\n    }\r\n\r\n    function _castVote(address voter, uint proposalId, bool support) internal {\r\n        require(state(proposalId) == ProposalState.Active, \"GovernorAlpha::_castVote: voting is closed\");\r\n        Proposal storage proposal = proposals[proposalId];\r\n        Receipt storage receipt = proposal.receipts[voter];\r\n        require(receipt.hasVoted == false, \"GovernorAlpha::_castVote: voter already voted\");\r\n        uint256 votes = vault.getPriorVotes(voter, proposal.startBlock);\r\n\r\n        if (support) {\r\n            proposal.forVotes = add256(proposal.forVotes, votes);\r\n        } else {\r\n            proposal.againstVotes = add256(proposal.againstVotes, votes);\r\n        }\r\n\r\n        receipt.hasVoted = true;\r\n        receipt.support = support;\r\n        receipt.votes = votes;\r\n\r\n        emit VoteCast(voter, proposalId, support, votes);\r\n    }\r\n\r\n    function __acceptAdmin() public {\r\n        require(msg.sender == guardian, \"GovernorAlpha::__acceptAdmin: sender must be gov guardian\");\r\n        timelock.acceptAdmin();\r\n    }\r\n\r\n    function __abdicate() public {\r\n        require(msg.sender == guardian, \"GovernorAlpha::__abdicate: sender must be gov guardian\");\r\n        guardian = address(0);\r\n    }\r\n\r\n    function __queueSetTimelockPendingAdmin(address newPendingAdmin, uint eta) public {\r\n        require(msg.sender == guardian, \"GovernorAlpha::__queueSetTimelockPendingAdmin: sender must be gov guardian\");\r\n        timelock.queueTransaction(address(timelock), 0, \"setPendingAdmin(address)\", abi.encode(newPendingAdmin), eta);\r\n    }\r\n\r\n    function __executeSetTimelockPendingAdmin(address newPendingAdmin, uint eta) public {\r\n        require(msg.sender == guardian, \"GovernorAlpha::__executeSetTimelockPendingAdmin: sender must be gov guardian\");\r\n        timelock.executeTransaction(address(timelock), 0, \"setPendingAdmin(address)\", abi.encode(newPendingAdmin), eta);\r\n    }\r\n\r\n    function add256(uint256 a, uint256 b) internal pure returns (uint) {\r\n        uint c = a + b;\r\n        require(c >= a, \"addition overflow\");\r\n        return c;\r\n    }\r\n\r\n    function sub256(uint256 a, uint256 b) internal pure returns (uint) {\r\n        require(b <= a, \"subtraction underflow\");\r\n        return a - b;\r\n    }\r\n\r\n    function getChainId() internal view returns (uint) {\r\n        uint chainId;\r\n        assembly { chainId := chainid() }\r\n        return chainId;\r\n    }\r\n}",
  "sourcePath": "E:/Web Workspace/Vader Protocol/vaderprotocol-contracts/contracts/Governance/GovernorAlpha.sol",
  "compiler": {
    "name": "solc",
    "version": "0.8.3+commit.8d00100c.Emscripten.clang"
  },
  "schemaVersion": "3.4.0",
  "updatedAt": "2021-06-03T02:05:34.887Z",
  "networkType": "ethereum",
  "devdoc": {
    "kind": "dev",
    "methods": {},
    "version": 1
  },
  "userdoc": {
    "kind": "user",
    "methods": {},
    "version": 1
  }
}