{
  "contractName": "Lender",
  "abi": [
    {
      "inputs": [
        {
          "internalType": "address",
          "name": "_vader",
          "type": "address"
        }
      ],
      "stateMutability": "nonpayable",
      "type": "constructor"
    },
    {
      "anonymous": false,
      "inputs": [
        {
          "indexed": true,
          "internalType": "address",
          "name": "member",
          "type": "address"
        },
        {
          "indexed": true,
          "internalType": "address",
          "name": "collateralAsset",
          "type": "address"
        },
        {
          "indexed": false,
          "internalType": "uint256",
          "name": "collateralLocked",
          "type": "uint256"
        },
        {
          "indexed": true,
          "internalType": "address",
          "name": "debtAsset",
          "type": "address"
        },
        {
          "indexed": false,
          "internalType": "uint256",
          "name": "debtIssued",
          "type": "uint256"
        }
      ],
      "name": "AddCollateral",
      "type": "event"
    },
    {
      "anonymous": false,
      "inputs": [
        {
          "indexed": true,
          "internalType": "address",
          "name": "member",
          "type": "address"
        },
        {
          "indexed": true,
          "internalType": "address",
          "name": "collateralAsset",
          "type": "address"
        },
        {
          "indexed": false,
          "internalType": "uint256",
          "name": "collateralUnlocked",
          "type": "uint256"
        },
        {
          "indexed": true,
          "internalType": "address",
          "name": "debtAsset",
          "type": "address"
        },
        {
          "indexed": false,
          "internalType": "uint256",
          "name": "debtReturned",
          "type": "uint256"
        }
      ],
      "name": "RemoveCollateral",
      "type": "event"
    },
    {
      "inputs": [],
      "name": "VADER",
      "outputs": [
        {
          "internalType": "address",
          "name": "",
          "type": "address"
        }
      ],
      "stateMutability": "view",
      "type": "function",
      "constant": true
    },
    {
      "inputs": [
        {
          "internalType": "uint256",
          "name": "amount",
          "type": "uint256"
        },
        {
          "internalType": "address",
          "name": "collateralAsset",
          "type": "address"
        },
        {
          "internalType": "address",
          "name": "debtAsset",
          "type": "address"
        }
      ],
      "name": "borrow",
      "outputs": [
        {
          "internalType": "uint256",
          "name": "",
          "type": "uint256"
        }
      ],
      "stateMutability": "nonpayable",
      "type": "function"
    },
    {
      "inputs": [
        {
          "internalType": "address",
          "name": "member",
          "type": "address"
        },
        {
          "internalType": "uint256",
          "name": "amount",
          "type": "uint256"
        },
        {
          "internalType": "address",
          "name": "collateralAsset",
          "type": "address"
        },
        {
          "internalType": "address",
          "name": "debtAsset",
          "type": "address"
        }
      ],
      "name": "borrowForMember",
      "outputs": [
        {
          "internalType": "uint256",
          "name": "",
          "type": "uint256"
        }
      ],
      "stateMutability": "nonpayable",
      "type": "function"
    },
    {
      "inputs": [
        {
          "internalType": "uint256",
          "name": "amount",
          "type": "uint256"
        },
        {
          "internalType": "address",
          "name": "collateralAsset",
          "type": "address"
        },
        {
          "internalType": "address",
          "name": "debtAsset",
          "type": "address"
        }
      ],
      "name": "repay",
      "outputs": [
        {
          "internalType": "uint256",
          "name": "",
          "type": "uint256"
        }
      ],
      "stateMutability": "nonpayable",
      "type": "function"
    },
    {
      "inputs": [
        {
          "internalType": "address",
          "name": "member",
          "type": "address"
        },
        {
          "internalType": "uint256",
          "name": "basisPoints",
          "type": "uint256"
        },
        {
          "internalType": "address",
          "name": "collateralAsset",
          "type": "address"
        },
        {
          "internalType": "address",
          "name": "debtAsset",
          "type": "address"
        }
      ],
      "name": "repayForMember",
      "outputs": [
        {
          "internalType": "uint256",
          "name": "",
          "type": "uint256"
        }
      ],
      "stateMutability": "nonpayable",
      "type": "function"
    },
    {
      "inputs": [],
      "name": "checkLiquidate",
      "outputs": [],
      "stateMutability": "nonpayable",
      "type": "function"
    },
    {
      "inputs": [
        {
          "internalType": "address",
          "name": "token",
          "type": "address"
        }
      ],
      "name": "isBase",
      "outputs": [
        {
          "internalType": "bool",
          "name": "base",
          "type": "bool"
        }
      ],
      "stateMutability": "view",
      "type": "function",
      "constant": true
    },
    {
      "inputs": [
        {
          "internalType": "address",
          "name": "token",
          "type": "address"
        }
      ],
      "name": "isPool",
      "outputs": [
        {
          "internalType": "bool",
          "name": "",
          "type": "bool"
        }
      ],
      "stateMutability": "view",
      "type": "function",
      "constant": true
    },
    {
      "inputs": [],
      "name": "emitting",
      "outputs": [
        {
          "internalType": "bool",
          "name": "",
          "type": "bool"
        }
      ],
      "stateMutability": "view",
      "type": "function",
      "constant": true
    },
    {
      "inputs": [
        {
          "internalType": "address",
          "name": "member",
          "type": "address"
        },
        {
          "internalType": "address",
          "name": "collateralAsset",
          "type": "address"
        },
        {
          "internalType": "address",
          "name": "debtAsset",
          "type": "address"
        }
      ],
      "name": "getMemberCollateral",
      "outputs": [
        {
          "internalType": "uint256",
          "name": "",
          "type": "uint256"
        }
      ],
      "stateMutability": "view",
      "type": "function",
      "constant": true
    },
    {
      "inputs": [
        {
          "internalType": "address",
          "name": "member",
          "type": "address"
        },
        {
          "internalType": "address",
          "name": "collateralAsset",
          "type": "address"
        },
        {
          "internalType": "address",
          "name": "debtAsset",
          "type": "address"
        }
      ],
      "name": "getMemberDebt",
      "outputs": [
        {
          "internalType": "uint256",
          "name": "",
          "type": "uint256"
        }
      ],
      "stateMutability": "view",
      "type": "function",
      "constant": true
    },
    {
      "inputs": [
        {
          "internalType": "address",
          "name": "collateralAsset",
          "type": "address"
        },
        {
          "internalType": "address",
          "name": "debtAsset",
          "type": "address"
        }
      ],
      "name": "getSystemCollateral",
      "outputs": [
        {
          "internalType": "uint256",
          "name": "",
          "type": "uint256"
        }
      ],
      "stateMutability": "view",
      "type": "function",
      "constant": true
    },
    {
      "inputs": [
        {
          "internalType": "address",
          "name": "collateralAsset",
          "type": "address"
        },
        {
          "internalType": "address",
          "name": "debtAsset",
          "type": "address"
        }
      ],
      "name": "getSystemDebt",
      "outputs": [
        {
          "internalType": "uint256",
          "name": "",
          "type": "uint256"
        }
      ],
      "stateMutability": "view",
      "type": "function",
      "constant": true
    },
    {
      "inputs": [
        {
          "internalType": "address",
          "name": "collateralAsset",
          "type": "address"
        },
        {
          "internalType": "address",
          "name": "debtAsset",
          "type": "address"
        }
      ],
      "name": "getSystemInterestPaid",
      "outputs": [
        {
          "internalType": "uint256",
          "name": "",
          "type": "uint256"
        }
      ],
      "stateMutability": "view",
      "type": "function",
      "constant": true
    },
    {
      "inputs": [
        {
          "internalType": "address",
          "name": "collateralAsset",
          "type": "address"
        },
        {
          "internalType": "address",
          "name": "debtAsset",
          "type": "address"
        }
      ],
      "name": "getNextEraTime",
      "outputs": [
        {
          "internalType": "uint256",
          "name": "",
          "type": "uint256"
        }
      ],
      "stateMutability": "view",
      "type": "function",
      "constant": true
    }
  ],
  "bytecode": "0x60a06040523480156200001157600080fd5b50604051620029ca380380620029ca83398101604081905262000034916200004a565b60601b6001600160601b0319166080526200007a565b6000602082840312156200005c578081fd5b81516001600160a01b038116811462000073578182fd5b9392505050565b60805160601c6128d7620000f36000396000818160ff01528181610322015281816105910152818161066a0152818161075101528181610bb001528181610cfd01528181610dd6015281816111f8015281816114dd015281816115a801528181611673015281816117910152611c8e01526128d76000f3fe608060405234801561001057600080fd5b50600436106100f55760003560e01c806382eb723311610097578063e0f52db311610066578063e0f52db314610252578063e672f6ad1461028b578063e9b6e448146102c4578063fde3bbe9146102d7576100f5565b806382eb7233146101b2578063c883b2e5146101eb578063cbc17db3146101fe578063d51641841461023f576100f5565b806337f3d2d4116100d357806337f3d2d41461017757806358b272161461018a5780635b16ebb71461018c5780636e899aa31461019f576100f5565b806301681315146100fa5780630781f4d21461013e5780631ab73ef514610156575b600080fd5b6101217f000000000000000000000000000000000000000000000000000000000000000081565b6040516001600160a01b0390911681526020015b60405180910390f35b61014661031e565b6040519015158152602001610135565b6101696101643660046126bf565b6103b6565b604051908152602001610135565b61016961018536600461263d565b610a71565b005b61014661019a366004612605565b610a9e565b6101466101ad366004612605565b610bac565b6101696101c036600461263d565b6001600160a01b03918216600090815260026020908152604080832093909416825291909152205490565b6101696101f9366004612749565b610c0c565b61016961020c366004612675565b6001600160a01b039283166000908152602081815260408083209486168352938152838220929094168152925290205490565b61016961024d366004612749565b610c24565b61016961026036600461263d565b6001600160a01b03918216600090815260036020908152604080832093909416825291909152205490565b61016961029936600461263d565b6001600160a01b03918216600090815260016020908152604080832093909416825291909152205490565b6101696102d23660046126bf565b610c32565b6101696102e5366004612675565b6001600160a01b038084166000908152602081815260408083208685168452825280832093851683526001909301905220549392505050565b60007f00000000000000000000000000000000000000000000000000000000000000006001600160a01b0316630781f4d26040518163ffffffff1660e01b815260040160206040518083038186803b15801561037957600080fd5b505afa15801561038d573d6000803e3d6000fd5b505050506040513d601f19601f820116820180604052508101906103b19190612711565b905090565b60006103c06111f4565b6040517fcf975e7b0000000000000000000000000000000000000000000000000000000081526001600160a01b0385811660048301528481166024830152919091169063cf975e7b90604401600060405180830381600087803b15801561042657600080fd5b505af115801561043a573d6000803e3d6000fd5b50505050600061044b8685876112f7565b90506000806104586111f4565b6040517f5c22141f0000000000000000000000000000000000000000000000000000000081526001600160a01b038a8116600483015260248201869052888116604483015287811660648301529190911690635c22141f906084016040805180830381600087803b1580156104cc57600080fd5b505af11580156104e0573d6000803e3d6000fd5b505050506040513d601f19601f82011682018060405250810190610504919061276f565b6001600160a01b038089166000908152600160209081526040808320938b168352929052908120805493955091935085926105409084906127ff565b90915550506001600160a01b0380871660009081526002602090815260408083209389168352929052908120805484929061057c9084906127ff565b9091555061058f90508884888589611446565b7f00000000000000000000000000000000000000000000000000000000000000006001600160a01b0316866001600160a01b0316148061064d57506105d26114d9565b604051636c66769560e11b81526001600160a01b038781166004830152919091169063d8cced2a9060240160206040518083038186803b15801561061557600080fd5b505afa158015610629573d6000803e3d6000fd5b505050506040513d601f19601f8201168201806040525081019061064d9190612711565b156107f45761065a6115a4565b6001600160a01b031663a76a50d47f00000000000000000000000000000000000000000000000000000000000000006106916114d9565b6040516001600160e01b031960e085901b1681526001600160a01b0392831660048201529116602482015260448101849052606401602060405180830381600087803b1580156106e057600080fd5b505af11580156106f4573d6000803e3d6000fd5b505050506040513d601f19601f820116820180604052508101906107189190612731565b506107216114d9565b6040517fefc34aab0000000000000000000000000000000000000000000000000000000081526001600160a01b037f00000000000000000000000000000000000000000000000000000000000000008116600483015287811660248301528a8116604483015260006064830152919091169063efc34aab90608401602060405180830381600087803b1580156107b657600080fd5b505af11580156107ca573d6000803e3d6000fd5b505050506040513d601f19601f820116820180604052508101906107ee9190612731565b506109fc565b6107fc61166f565b6001600160a01b0316866001600160a01b03161480610899575061081e6114d9565b60405163643fd21560e11b81526001600160a01b038781166004830152919091169063c87fa42a9060240160206040518083038186803b15801561086157600080fd5b505afa158015610875573d6000803e3d6000fd5b505050506040513d601f19601f820116820180604052508101906108999190612711565b156109fc576108a66115a4565b6001600160a01b031663a76a50d46108bc61166f565b6108c46114d9565b6040516001600160e01b031960e085901b1681526001600160a01b0392831660048201529116602482015260448101849052606401602060405180830381600087803b15801561091357600080fd5b505af1158015610927573d6000803e3d6000fd5b505050506040513d601f19601f8201168201806040525081019061094b9190612731565b506109546114d9565b6001600160a01b031663efc34aab61096a61166f565b6040516001600160e01b031960e084901b1681526001600160a01b0391821660048201528189166024820152908b16604482015260006064820152608401602060405180830381600087803b1580156109c257600080fd5b505af11580156109d6573d6000803e3d6000fd5b505050506040513d601f19601f820116820180604052508101906109fa9190612731565b505b846001600160a01b0316866001600160a01b0316896001600160a01b03167fae998ad28d77f73e6eb1de185a4d9c3656e19b47125aa0e732ceabecefdd30618a86604051610a54929190918252602082015260400190565b60405180910390a4610a66868661173a565b509695505050505050565b6001600160a01b038083166000908152600460209081526040808320938516835292905220545b92915050565b6000610aa86114d9565b604051636c66769560e11b81526001600160a01b038481166004830152919091169063d8cced2a9060240160206040518083038186803b158015610aeb57600080fd5b505afa158015610aff573d6000803e3d6000fd5b505050506040513d601f19601f82011682018060405250810190610b239190612711565b80610a985750610b316114d9565b60405163643fd21560e11b81526001600160a01b038481166004830152919091169063c87fa42a9060240160206040518083038186803b158015610b7457600080fd5b505afa158015610b88573d6000803e3d6000fd5b505050506040513d601f19601f82011682018060405250810190610a989190612711565b60007f00000000000000000000000000000000000000000000000000000000000000006001600160a01b0316826001600160a01b03161480610a985750610bf161166f565b6001600160a01b0316826001600160a01b0316149050919050565b6000610c1a33858585610c32565b90505b9392505050565b6000610c1a338585856103b6565b600080610c3d6111f4565b6001600160a01b0387811660009081526020818152604080832089851684528252808320888516845290915290205491169063714270ab9087906040516001600160e01b031960e085901b1681526004810192909252602482015260440160206040518083038186803b158015610cb357600080fd5b505afa158015610cc7573d6000803e3d6000fd5b505050506040513d601f19601f82011682018060405250810190610ceb9190612731565b90506000610cf98483611c8a565b90507f00000000000000000000000000000000000000000000000000000000000000006001600160a01b0316856001600160a01b03161480610db95750610d3e6114d9565b604051636c66769560e11b81526001600160a01b038681166004830152919091169063d8cced2a9060240160206040518083038186803b158015610d8157600080fd5b505afa158015610d95573d6000803e3d6000fd5b505050506040513d601f19601f82011682018060405250810190610db99190612711565b15610e9457610dc66114d9565b6001600160a01b031663efc34aab7f000000000000000000000000000000000000000000000000000000000000000086610dfe6115a4565b60405160e085901b6001600160e01b03191681526001600160a01b0393841660048201529183166024830152909116604482015260016064820152608401602060405180830381600087803b158015610e5657600080fd5b505af1158015610e6a573d6000803e3d6000fd5b505050506040513d601f19601f82011682018060405250810190610e8e9190612731565b50610ff7565b610e9c61166f565b6001600160a01b0316856001600160a01b03161480610f395750610ebe6114d9565b60405163643fd21560e11b81526001600160a01b038681166004830152919091169063c87fa42a9060240160206040518083038186803b158015610f0157600080fd5b505afa158015610f15573d6000803e3d6000fd5b505050506040513d601f19601f82011682018060405250810190610f399190612711565b15610ff757610f466114d9565b6001600160a01b031663efc34aab610f5c61166f565b86610f656115a4565b60405160e085901b6001600160e01b03191681526001600160a01b0393841660048201529183166024830152909116604482015260016064820152608401602060405180830381600087803b158015610fbd57600080fd5b505af1158015610fd1573d6000803e3d6000fd5b505050506040513d601f19601f82011682018060405250810190610ff59190612731565b505b6000806110026111f4565b6040517fd549a1ec0000000000000000000000000000000000000000000000000000000081526001600160a01b038b811660048301526024820186905289811660448301528881166064830152919091169063d549a1ec90608401604080518083038186803b15801561107457600080fd5b505afa158015611088573d6000803e3d6000fd5b505050506040513d601f19601f820116820180604052508101906110ac919061276f565b6001600160a01b03808a166000908152600160209081526040808320938c168352929052908120805493955091935084926110e8908490612817565b90915550506001600160a01b038088166000908152600260209081526040808320938a1683529290529081208054859290611124908490612817565b90915550506001600160a01b038088166000908152600360209081526040808320938a1683529290529081208054839290611160908490612817565b909155506111739050898389868a611f6d565b856001600160a01b0316876001600160a01b03168a6001600160a01b03167f80cf2752eb276900a648b467a8fe8180e3192a2370982e997e928b3dc8b99ba185876040516111cb929190918252602082015260400190565b60405180910390a46111de898884611ff4565b6111e8878761173a565b50979650505050505050565b60007f00000000000000000000000000000000000000000000000000000000000000006001600160a01b03166398fabd3a6040518163ffffffff1660e01b815260040160206040518083038186803b15801561124f57600080fd5b505afa158015611263573d6000803e3d6000fd5b505050506040513d601f19601f820116820180604052508101906112879190612621565b6001600160a01b0316637b0e5c456040518163ffffffff1660e01b815260040160206040518083038186803b1580156112bf57600080fd5b505afa1580156112d3573d6000803e3d6000fd5b505050506040513d601f19601f820116820180604052508101906103b19190612621565b600061130283610bac565b8061138d57506113106114d9565b604051632f011bf560e11b81526001600160a01b0385811660048301529190911690635e0237ea90602401602060405180830381600087803b15801561135557600080fd5b505af1158015611369573d6000803e3d6000fd5b505050506040513d601f19601f8201168201806040525081019061138d9190612711565b156113a35761139c83836121d7565b9050610c1d565b6113ac83610a9e565b15610c1d576113b96114d9565b6040517f783ba879000000000000000000000000000000000000000000000000000000008152600481018490526001600160a01b0385811660248301528681166044830152919091169063783ba87990606401600060405180830381600087803b15801561142657600080fd5b505af115801561143a573d6000803e3d6000fd5b50939695505050505050565b6001600160a01b0380861660009081526020818152604080832087851684528252808320938516835292905290812080548492906114859084906127ff565b90915550506001600160a01b038086166000908152602081815260408083208785168452825280832093851683526001909301905290812080548692906114cd9084906127ff565b90915550505050505050565b60007f00000000000000000000000000000000000000000000000000000000000000006001600160a01b03166398fabd3a6040518163ffffffff1660e01b815260040160206040518083038186803b15801561153457600080fd5b505afa158015611548573d6000803e3d6000fd5b505050506040513d601f19601f8201168201806040525081019061156c9190612621565b6001600160a01b031663ebccb5b26040518163ffffffff1660e01b815260040160206040518083038186803b1580156112bf57600080fd5b60007f00000000000000000000000000000000000000000000000000000000000000006001600160a01b03166398fabd3a6040518163ffffffff1660e01b815260040160206040518083038186803b1580156115ff57600080fd5b505afa158015611613573d6000803e3d6000fd5b505050506040513d601f19601f820116820180604052508101906116379190612621565b6001600160a01b0316639d2cc4366040518163ffffffff1660e01b815260040160206040518083038186803b1580156112bf57600080fd5b60007f00000000000000000000000000000000000000000000000000000000000000006001600160a01b03166398fabd3a6040518163ffffffff1660e01b815260040160206040518083038186803b1580156116ca57600080fd5b505afa1580156116de573d6000803e3d6000fd5b505050506040513d601f19601f820116820180604052508101906117029190612621565b6001600160a01b031663e2c3b0466040518163ffffffff1660e01b815260040160206040518083038186803b1580156112bf57600080fd5b6117448282610a71565b4210158015611756575061175661031e565b15611c86576001600160a01b03808316600090815260046020908152604080832093851683529290529081205461178d9042612817565b90507f00000000000000000000000000000000000000000000000000000000000000006001600160a01b0316636b92a3b66040518163ffffffff1660e01b815260040160206040518083038186803b1580156117e857600080fd5b505afa1580156117fc573d6000803e3d6000fd5b505050506040513d601f19601f820116820180604052508101906118209190612731565b61182a90426127ff565b6001600160a01b03808516600090815260046020908152604080832093871683529290529081209190915561185d6111f4565b6040517f945821af0000000000000000000000000000000000000000000000000000000081526001600160a01b038681166004830152858116602483015260448201859052919091169063945821af90606401602060405180830381600087803b1580156118ca57600080fd5b505af11580156118de573d6000803e3d6000fd5b505050506040513d601f19601f820116820180604052508101906119029190612731565b6001600160a01b03808616600090815260036020908152604080832093881683529290529081208054929350839290919061193e9084906127ff565b9091555061194f905081858561235e565b61195884610bac565b15611a8057836001600160a01b031663a9059cbb6119746114d9565b6040516001600160e01b031960e084901b1681526001600160a01b03909116600482015260248101849052604401602060405180830381600087803b1580156119bc57600080fd5b505af11580156119d0573d6000803e3d6000fd5b505050506040513d601f19601f820116820180604052508101906119f49190612711565b506119fd6114d9565b6040517f3041949b0000000000000000000000000000000000000000000000000000000081526001600160a01b03868116600483015285811660248301529190911690633041949b90604401600060405180830381600087803b158015611a6357600080fd5b505af1158015611a77573d6000803e3d6000fd5b50505050611c83565b611a886114d9565b604051632f011bf560e11b81526001600160a01b0386811660048301529190911690635e0237ea90602401602060405180830381600087803b158015611acd57600080fd5b505af1158015611ae1573d6000803e3d6000fd5b505050506040513d601f19601f82011682018060405250810190611b059190612711565b15611c8357836001600160a01b031663a9059cbb611b216114d9565b6040516001600160e01b031960e084901b1681526001600160a01b03909116600482015260248101849052604401602060405180830381600087803b158015611b6957600080fd5b505af1158015611b7d573d6000803e3d6000fd5b505050506040513d601f19601f82011682018060405250810190611ba19190612711565b50611baa6114d9565b6001600160a01b031663469f5c1e856001600160a01b03166382bfefc86040518163ffffffff1660e01b815260040160206040518083038186803b158015611bf157600080fd5b505afa158015611c05573d6000803e3d6000fd5b505050506040513d601f19601f82011682018060405250810190611c299190612621565b6040516001600160e01b031960e084901b1681526001600160a01b039091166004820152602401600060405180830381600087803b158015611c6a57600080fd5b505af1158015611c7e573d6000803e3d6000fd5b505050505b50505b5050565b60007f00000000000000000000000000000000000000000000000000000000000000006001600160a01b0316836001600160a01b03161480611ce45750611ccf61166f565b6001600160a01b0316836001600160a01b0316145b80611d6f5750611cf26114d9565b604051632f011bf560e11b81526001600160a01b0385811660048301529190911690635e0237ea90602401602060405180830381600087803b158015611d3757600080fd5b505af1158015611d4b573d6000803e3d6000fd5b505050506040513d601f19601f82011682018060405250810190611d6f9190612711565b15611e1b5750806001600160a01b0383166323b872dd33611d8e6114d9565b6040516001600160e01b031960e085901b1681526001600160a01b0392831660048201529116602482015260448101859052606401602060405180830381600087803b158015611ddd57600080fd5b505af1158015611df1573d6000803e3d6000fd5b505050506040513d601f19601f82011682018060405250810190611e159190612711565b50610a98565b6000836001600160a01b03166370a08231611e346114d9565b6040516001600160e01b031960e084901b1681526001600160a01b03909116600482015260240160206040518083038186803b158015611e7357600080fd5b505afa158015611e87573d6000803e3d6000fd5b505050506040513d601f19601f82011682018060405250810190611eab9190612731565b9050611ecb33611eb96114d9565b6001600160a01b03871691908661239f565b80846001600160a01b03166370a08231611ee36114d9565b6040516001600160e01b031960e084901b1681526001600160a01b0390911660048201526024015b60206040518083038186803b158015611f2357600080fd5b505afa158015611f37573d6000803e3d6000fd5b505050506040513d601f19601f82011682018060405250810190611f5b9190612731565b611f659190612817565b949350505050565b6001600160a01b038086166000908152602081815260408083208785168452825280832093851683529290529081208054849290611fac908490612817565b90915550506001600160a01b038086166000908152602081815260408083208785168452825280832093851683526001909301905290812080548692906114cd908490612817565b611ffd82610bac565b80612088575061200b6114d9565b604051632f011bf560e11b81526001600160a01b0384811660048301529190911690635e0237ea90602401602060405180830381600087803b15801561205057600080fd5b505af1158015612064573d6000803e3d6000fd5b505050506040513d601f19601f820116820180604052508101906120889190612711565b15612136576040517fa9059cbb0000000000000000000000000000000000000000000000000000000081526001600160a01b0384811660048301526024820183905283169063a9059cbb90604401602060405180830381600087803b1580156120f057600080fd5b505af1158015612104573d6000803e3d6000fd5b505050506040513d601f19601f820116820180604052508101906121289190612711565b61213157600080fd5b6121d2565b61213f82610a9e565b156121d25761214c6114d9565b6040517f798e23d5000000000000000000000000000000000000000000000000000000008152600481018390526001600160a01b0384811660248301528581166044830152919091169063798e23d590606401600060405180830381600087803b1580156121b957600080fd5b505af11580156121cd573d6000803e3d6000fd5b505050505b505050565b6040517f70a0823100000000000000000000000000000000000000000000000000000000815230600482015260009081906001600160a01b038516906370a082319060240160206040518083038186803b15801561223457600080fd5b505afa158015612248573d6000803e3d6000fd5b505050506040513d601f19601f8201168201806040525081019061226c9190612731565b6040517f23b872dd000000000000000000000000000000000000000000000000000000008152336004820152306024820152604481018590529091506001600160a01b038516906323b872dd90606401602060405180830381600087803b1580156122d657600080fd5b505af11580156122ea573d6000803e3d6000fd5b505050506040513d601f19601f8201168201806040525081019061230e9190612711565b61231757600080fd5b6040517f70a0823100000000000000000000000000000000000000000000000000000000815230600482015281906001600160a01b038616906370a0823190602401611f0b565b6001600160a01b03808316600090815260016020908152604080832093851683529290529081208054859290612395908490612817565b9091555050505050565b604080516001600160a01b038581166024830152848116604483015260648083018590528351808403909101815260849092018352602080830180517bffffffffffffffffffffffffffffffffffffffffffffffffffffffff167f23b872dd0000000000000000000000000000000000000000000000000000000017905283518085019094528084527f5361666545524332303a206c6f772d6c6576656c2063616c6c206661696c656490840152611c83928792916000916124659185169084906124fa565b8051909150156121d257808060200190518101906124839190612711565b6121d25760405162461bcd60e51b815260206004820152602a60248201527f5361666545524332303a204552433230206f7065726174696f6e20646964206e60448201527f6f7420737563636565640000000000000000000000000000000000000000000060648201526084015b60405180910390fd5b6060610c1a848460008585843b6125535760405162461bcd60e51b815260206004820152601d60248201527f416464726573733a2063616c6c20746f206e6f6e2d636f6e747261637400000060448201526064016124f1565b600080866001600160a01b0316858760405161256f9190612792565b60006040518083038185875af1925050503d80600081146125ac576040519150601f19603f3d011682016040523d82523d6000602084013e6125b1565b606091505b50915091506125c18282866125cc565b979650505050505050565b606083156125db575081610c1d565b8251156125eb5782518084602001fd5b8160405162461bcd60e51b81526004016124f191906127ae565b600060208284031215612616578081fd5b8135610c1d81612889565b600060208284031215612632578081fd5b8151610c1d81612889565b6000806040838503121561264f578081fd5b823561265a81612889565b9150602083013561266a81612889565b809150509250929050565b600080600060608486031215612689578081fd5b833561269481612889565b925060208401356126a481612889565b915060408401356126b481612889565b809150509250925092565b600080600080608085870312156126d4578081fd5b84356126df81612889565b93506020850135925060408501356126f681612889565b9150606085013561270681612889565b939692955090935050565b600060208284031215612722578081fd5b81518015158114610c1d578182fd5b600060208284031215612742578081fd5b5051919050565b60008060006060848603121561275d578283fd5b8335925060208401356126a481612889565b60008060408385031215612781578182fd5b505080516020909101519092909150565b600082516127a481846020870161282e565b9190910192915050565b60006020825282518060208401526127cd81604085016020870161282e565b601f017fffffffffffffffffffffffffffffffffffffffffffffffffffffffffffffffe0169190910160400192915050565b600082198211156128125761281261285a565b500190565b6000828210156128295761282961285a565b500390565b60005b83811015612849578181015183820152602001612831565b83811115611c835750506000910152565b7f4e487b7100000000000000000000000000000000000000000000000000000000600052601160045260246000fd5b6001600160a01b038116811461289e57600080fd5b5056fea2646970667358221220ee6f795250ac39bfbdc27eed875dfcffdf6f2ef9d86d5c00eac8609799a5dafd64736f6c63430008030033",
  "immutableReferences": {
    "2544": [
      {
        "length": 32,
        "start": 255
      },
      {
        "length": 32,
        "start": 802
      },
      {
        "length": 32,
        "start": 1425
      },
      {
        "length": 32,
        "start": 1642
      },
      {
        "length": 32,
        "start": 1873
      },
      {
        "length": 32,
        "start": 2992
      },
      {
        "length": 32,
        "start": 3325
      },
      {
        "length": 32,
        "start": 3542
      },
      {
        "length": 32,
        "start": 4600
      },
      {
        "length": 32,
        "start": 5341
      },
      {
        "length": 32,
        "start": 5544
      },
      {
        "length": 32,
        "start": 5747
      },
      {
        "length": 32,
        "start": 6033
      },
      {
        "length": 32,
        "start": 7310
      }
    ]
  },
  "source": "// SPDX-License-Identifier: UNLICENSED\r\npragma solidity 0.8.3;\r\n\r\n// Interfaces\r\nimport \"./interfaces/SafeERC20.sol\";\r\nimport \"./interfaces/iERC20.sol\";\r\nimport \"./interfaces/iDAO.sol\";\r\nimport \"./interfaces/iUTILS.sol\";\r\nimport \"./interfaces/iVADER.sol\";\r\nimport \"./interfaces/iRESERVE.sol\";\r\nimport \"./interfaces/iPOOLS.sol\";\r\nimport \"./interfaces/iSYNTH.sol\";\r\n\r\nimport \"hardhat/console.sol\";\r\n\r\ncontract Lender {\r\n\r\n    using SafeERC20 for ExternalERC20;\r\n\r\n    address public immutable VADER;\r\n\r\n    mapping(address => CollateralDetails) private mapMember_Collateral;\r\n    mapping(address => mapping(address => uint256)) private mapCollateralDebt_Collateral;\r\n    mapping(address => mapping(address => uint256)) private mapCollateralDebt_Debt;\r\n    mapping(address => mapping(address => uint256)) private mapCollateralDebt_interestPaid;\r\n    mapping(address => mapping(address => uint256)) private mapCollateralAsset_NextEra;\r\n\r\n    struct CollateralDetails {\r\n        mapping(address => DebtDetails) mapCollateral_Debt;\r\n    }\r\n    struct DebtDetails {\r\n        mapping(address => uint256) debt; //assetC > AssetD > AmountDebt\r\n        mapping(address => uint256) collateral; //assetC > AssetD > AmountCol\r\n        // mapping(address =>uint) assetCollateralDeposit; //assetC > AssetD > AmountCol\r\n        // mapping(address =>uint) timeBorrowed; // assetC > AssetD > time\r\n        // mapping(address =>uint) currentDay; // assetC > AssetD > time\r\n    }\r\n\r\n    event AddCollateral(\r\n        address indexed member,\r\n        address indexed collateralAsset,\r\n        uint256 collateralLocked,\r\n        address indexed debtAsset,\r\n        uint256 debtIssued\r\n    );\r\n    event RemoveCollateral(\r\n        address indexed member,\r\n        address indexed collateralAsset,\r\n        uint256 collateralUnlocked,\r\n        address indexed debtAsset,\r\n        uint256 debtReturned\r\n    );\r\n\r\n    constructor(address _vader) {\r\n        VADER = _vader;\r\n    }\r\n\r\n    //======================================LENDING=========================================//\r\n\r\n    // Draw debt for self\r\n    function borrow(\r\n        uint256 amount,\r\n        address collateralAsset,\r\n        address debtAsset\r\n    ) external returns (uint256) {\r\n        return borrowForMember(msg.sender, amount, collateralAsset, debtAsset);\r\n    }\r\n\r\n    function borrowForMember(\r\n        address member,\r\n        uint256 amount,\r\n        address collateralAsset,\r\n        address debtAsset\r\n    ) public returns (uint256) {\r\n        iUTILS(UTILS()).assetChecks(collateralAsset, debtAsset);\r\n        uint256 _collateral = _handleTransferIn(member, collateralAsset, amount); // get collateral\r\n        (uint256 _debtIssued, uint256 _baseBorrowed) =\r\n            iUTILS(UTILS()).getCollateralValueInBase(member, _collateral, collateralAsset, debtAsset);\r\n        mapCollateralDebt_Collateral[collateralAsset][debtAsset] += _collateral; // Record collateral\r\n        mapCollateralDebt_Debt[collateralAsset][debtAsset] += _debtIssued; // Record debt\r\n        _addDebtToMember(member, _collateral, collateralAsset, _debtIssued, debtAsset); // Update member details\r\n        if (collateralAsset == VADER || iPOOLS(POOLS()).isAnchor(debtAsset)) {\r\n            iRESERVE(RESERVE()).requestFundsStrict(VADER, POOLS(), _baseBorrowed);\r\n            iPOOLS(POOLS()).swap(VADER, debtAsset, member, false); // Execute swap to member\r\n        } else if (collateralAsset == USDV() || iPOOLS(POOLS()).isAsset(debtAsset)) {\r\n            iRESERVE(RESERVE()).requestFundsStrict(USDV(), POOLS(), _baseBorrowed); // Send to pools\r\n            iPOOLS(POOLS()).swap(USDV(), debtAsset, member, false); // Execute swap to member\r\n        }\r\n        emit AddCollateral(member, collateralAsset, amount, debtAsset, _debtIssued); // Event\r\n        payInterest(collateralAsset, debtAsset);\r\n        return _debtIssued;\r\n    }\r\n\r\n    // Repay for self\r\n    function repay(\r\n        uint256 amount,\r\n        address collateralAsset,\r\n        address debtAsset\r\n    ) external returns (uint256) {\r\n        return repayForMember(msg.sender, amount, collateralAsset, debtAsset);\r\n    }\r\n\r\n    // Repay for member\r\n    function repayForMember(\r\n        address member,\r\n        uint256 basisPoints,\r\n        address collateralAsset,\r\n        address debtAsset\r\n    ) public returns (uint256) {\r\n        uint256 _amount = iUTILS(UTILS()).calcPart(basisPoints, getMemberDebt(member, collateralAsset, debtAsset));\r\n        uint256 _debt = moveTokenToPools(debtAsset, _amount); // Get Debt\r\n        if (collateralAsset == VADER || iPOOLS(POOLS()).isAnchor(debtAsset)) {\r\n            iPOOLS(POOLS()).swap(VADER, debtAsset, RESERVE(), true); // Swap Debt to Base back here\r\n        } else if (collateralAsset == USDV() || iPOOLS(POOLS()).isAsset(debtAsset)) {\r\n            iPOOLS(POOLS()).swap(USDV(), debtAsset, RESERVE(), true); // Swap Debt to Base back here\r\n        }\r\n        (uint256 _collateralUnlocked, uint256 _memberInterestShare) =\r\n            iUTILS(UTILS()).getDebtValueInCollateral(member, _debt, collateralAsset, debtAsset); // Unlock collateral that is pro-rata to re-paid debt ($50/$100 = 50%)\r\n        mapCollateralDebt_Collateral[collateralAsset][debtAsset] -= _collateralUnlocked; // Update collateral\r\n        mapCollateralDebt_Debt[collateralAsset][debtAsset] -= _debt; // Update debt\r\n        mapCollateralDebt_interestPaid[collateralAsset][debtAsset] -= _memberInterestShare;\r\n        _removeDebtFromMember(member, _collateralUnlocked, collateralAsset, _debt, debtAsset); // Remove\r\n        emit RemoveCollateral(member, collateralAsset, _collateralUnlocked, debtAsset, _debt);\r\n        _handleTransferOut(member, collateralAsset, _collateralUnlocked);\r\n        payInterest(collateralAsset, debtAsset);\r\n        return _collateralUnlocked;\r\n    }\r\n\r\n    // Called once a day to pay interest\r\n    function payInterest(address collateralAsset, address debtAsset) internal {\r\n        if (block.timestamp >= getNextEraTime(collateralAsset, debtAsset) && emitting()) {\r\n            // If new Era\r\n            uint256 _timeElapsed = block.timestamp - mapCollateralAsset_NextEra[collateralAsset][debtAsset];\r\n            mapCollateralAsset_NextEra[collateralAsset][debtAsset] = block.timestamp + iVADER(VADER).secondsPerEra();\r\n            uint256 _interestOwed = iUTILS(UTILS()).getInterestOwed(collateralAsset, debtAsset, _timeElapsed);\r\n            mapCollateralDebt_interestPaid[collateralAsset][debtAsset] += _interestOwed;\r\n            _removeCollateral(_interestOwed, collateralAsset, debtAsset);\r\n            if (isBase(collateralAsset)) {\r\n                iERC20(collateralAsset).transfer(POOLS(), _interestOwed); // safeErc20 not needed; bases trusted\r\n                iPOOLS(POOLS()).sync(collateralAsset, debtAsset);\r\n            } else if (iPOOLS(POOLS()).isSynth(collateralAsset)) {\r\n                iERC20(collateralAsset).transfer(POOLS(), _interestOwed); // safeErc20 not needed; synths trusted\r\n                iPOOLS(POOLS()).syncSynth(iSYNTH(collateralAsset).TOKEN());\r\n            }\r\n        }\r\n    }\r\n\r\n    function checkLiquidate() external {\r\n        // get member remaining Collateral: originalDeposit - shareOfInterestPayments\r\n        // if remainingCollateral <= 101% * debtValueInCollateral\r\n        // purge, send remaining collateral to liquidator\r\n    }\r\n\r\n    // function purgeMember() public {\r\n\r\n    // }\r\n\r\n    function _addDebtToMember(\r\n        address _member,\r\n        uint256 _collateral,\r\n        address _collateralAsset,\r\n        uint256 _debt,\r\n        address _debtAsset\r\n    ) internal {\r\n        mapMember_Collateral[_member].mapCollateral_Debt[_collateralAsset].debt[_debtAsset] += _debt;\r\n        mapMember_Collateral[_member].mapCollateral_Debt[_collateralAsset].collateral[_debtAsset] += _collateral;\r\n    }\r\n\r\n    function _removeDebtFromMember(\r\n        address _member,\r\n        uint256 _collateral,\r\n        address _collateralAsset,\r\n        uint256 _debt,\r\n        address _debtAsset\r\n    ) internal {\r\n        mapMember_Collateral[_member].mapCollateral_Debt[_collateralAsset].debt[_debtAsset] -= _debt;\r\n        mapMember_Collateral[_member].mapCollateral_Debt[_collateralAsset].collateral[_debtAsset] -= _collateral;\r\n    }\r\n\r\n    function _removeCollateral(\r\n        uint256 _collateral,\r\n        address _collateralAsset,\r\n        address _debtAsset\r\n    ) internal {\r\n        mapCollateralDebt_Collateral[_collateralAsset][_debtAsset] -= _collateral; // Record collateral\r\n    }\r\n\r\n     //======================================ASSETS=========================================//   \r\n\r\n    // Move funds in\r\n    function moveTokenToPools(address _token, uint256 _amount) internal returns (uint256 safeAmount) {\r\n        if (_token == VADER || _token == USDV() || iPOOLS(POOLS()).isSynth(_token)) {\r\n            safeAmount = _amount;\r\n            iERC20(_token).transferFrom(msg.sender, POOLS(), _amount); // safeErc20 not needed; bases and synths trusted\r\n        } else {\r\n            uint256 _startBal = ExternalERC20(_token).balanceOf(POOLS());\r\n            ExternalERC20(_token).safeTransferFrom(msg.sender, POOLS(), _amount);\r\n            safeAmount = ExternalERC20(_token).balanceOf(POOLS()) - _startBal;\r\n        }\r\n    }\r\n\r\n    // Get Collateral\r\n    function _handleTransferIn(\r\n        address _member,\r\n        address _collateralAsset,\r\n        uint256 _amount\r\n    ) internal returns (uint256 _inputAmount) {\r\n        if (isBase(_collateralAsset) || iPOOLS(POOLS()).isSynth(_collateralAsset)) {\r\n            _inputAmount = _getFunds(_collateralAsset, _amount); // Get funds\r\n        } else if (isPool(_collateralAsset)) {\r\n            iPOOLS(POOLS()).lockUnits(_amount, _collateralAsset, _member); // Lock units to protocol\r\n            _inputAmount = _amount;\r\n        }\r\n    }\r\n\r\n    // Send Collateral\r\n    function _handleTransferOut(\r\n        address _member,\r\n        address _collateralAsset,\r\n        uint256 _amount\r\n    ) internal {\r\n        if (isBase(_collateralAsset) || iPOOLS(POOLS()).isSynth(_collateralAsset)) {\r\n            require(iERC20(_collateralAsset).transfer(_member, _amount)); // Send Base\r\n        } else if (isPool(_collateralAsset)) {\r\n            iPOOLS(POOLS()).unlockUnits(_amount, _collateralAsset, _member); // Unlock units to member\r\n        }\r\n    }\r\n\r\n    // @dev Assumes `_token` is trusted (is a base asset or synth) and supports\r\n    function _getFunds(address _token, uint256 _amount) internal returns (uint256) {\r\n        uint256 _balance = iERC20(_token).balanceOf(address(this));\r\n        require(iERC20(_token).transferFrom(msg.sender, address(this), _amount)); // safeErc20 not needed; _token trusted\r\n        return iERC20(_token).balanceOf(address(this)) - _balance;\r\n    }\r\n\r\n\r\n    //======================================HELPERS=========================================//\r\n\r\n    function isBase(address token) public view returns (bool base) {\r\n        return token == VADER || token == USDV();\r\n    }\r\n\r\n    function isPool(address token) public view returns (bool) {\r\n        return iPOOLS(POOLS()).isAnchor(token) || iPOOLS(POOLS()).isAsset(token);\r\n    }\r\n\r\n    function emitting() public view returns (bool) {\r\n        return iVADER(VADER).emitting();\r\n    }\r\n\r\n    function getMemberCollateral(\r\n        address member,\r\n        address collateralAsset,\r\n        address debtAsset\r\n    ) external view returns (uint256) {\r\n        return mapMember_Collateral[member].mapCollateral_Debt[collateralAsset].collateral[debtAsset];\r\n    }\r\n\r\n    function getMemberDebt(\r\n        address member,\r\n        address collateralAsset,\r\n        address debtAsset\r\n    ) public view returns (uint256) {\r\n        return mapMember_Collateral[member].mapCollateral_Debt[collateralAsset].debt[debtAsset];\r\n    }\r\n\r\n    function getSystemCollateral(address collateralAsset, address debtAsset) external view returns (uint256) {\r\n        return mapCollateralDebt_Collateral[collateralAsset][debtAsset];\r\n    }\r\n\r\n    function getSystemDebt(address collateralAsset, address debtAsset) external view returns (uint256) {\r\n        return mapCollateralDebt_Debt[collateralAsset][debtAsset];\r\n    }\r\n\r\n    function getSystemInterestPaid(address collateralAsset, address debtAsset) external view returns (uint256) {\r\n        return mapCollateralDebt_interestPaid[collateralAsset][debtAsset];\r\n    }\r\n\r\n    function getNextEraTime(address collateralAsset, address debtAsset) public view returns (uint256) {\r\n        return mapCollateralAsset_NextEra[collateralAsset][debtAsset];\r\n    }\r\n\r\n    function USDV() internal view returns(address){\r\n        return iDAO(iVADER(VADER).DAO()).USDV();\r\n    }\r\n    function RESERVE() internal view returns(address){\r\n        return iDAO(iVADER(VADER).DAO()).RESERVE();\r\n    }\r\n    function POOLS() internal view returns(address){\r\n        return iDAO(iVADER(VADER).DAO()).POOLS();\r\n    }\r\n    function UTILS() internal view returns(address){\r\n        return iDAO(iVADER(VADER).DAO()).UTILS();\r\n    }\r\n\r\n}\r\n    ",
  "sourcePath": "E:/Web Workspace/Vader Protocol/vaderprotocol-contracts/contracts/Lender.sol",
  "compiler": {
    "name": "solc",
    "version": "0.8.3+commit.8d00100c.Emscripten.clang"
  },
  "schemaVersion": "3.4.0",
  "updatedAt": "2021-06-03T02:05:34.848Z",
  "networkType": "ethereum",
  "devdoc": {
    "kind": "dev",
    "methods": {},
    "version": 1
  },
  "userdoc": {
    "kind": "user",
    "methods": {},
    "version": 1
  }
}