{
  "contractName": "Pools",
  "abi": [
    {
      "inputs": [
        {
          "internalType": "address",
          "name": "_vader",
          "type": "address"
        }
      ],
      "stateMutability": "nonpayable",
      "type": "constructor"
    },
    {
      "anonymous": false,
      "inputs": [
        {
          "indexed": true,
          "internalType": "address",
          "name": "member",
          "type": "address"
        },
        {
          "indexed": true,
          "internalType": "address",
          "name": "base",
          "type": "address"
        },
        {
          "indexed": false,
          "internalType": "uint256",
          "name": "baseAmount",
          "type": "uint256"
        },
        {
          "indexed": true,
          "internalType": "address",
          "name": "token",
          "type": "address"
        },
        {
          "indexed": false,
          "internalType": "uint256",
          "name": "tokenAmount",
          "type": "uint256"
        },
        {
          "indexed": false,
          "internalType": "uint256",
          "name": "liquidityUnits",
          "type": "uint256"
        }
      ],
      "name": "AddLiquidity",
      "type": "event"
    },
    {
      "anonymous": false,
      "inputs": [
        {
          "indexed": true,
          "internalType": "address",
          "name": "member",
          "type": "address"
        },
        {
          "indexed": true,
          "internalType": "address",
          "name": "base",
          "type": "address"
        },
        {
          "indexed": false,
          "internalType": "uint256",
          "name": "baseAmount",
          "type": "uint256"
        },
        {
          "indexed": true,
          "internalType": "address",
          "name": "token",
          "type": "address"
        },
        {
          "indexed": false,
          "internalType": "uint256",
          "name": "synthAmount",
          "type": "uint256"
        }
      ],
      "name": "BurnSynth",
      "type": "event"
    },
    {
      "anonymous": false,
      "inputs": [
        {
          "indexed": true,
          "internalType": "address",
          "name": "member",
          "type": "address"
        },
        {
          "indexed": true,
          "internalType": "address",
          "name": "base",
          "type": "address"
        },
        {
          "indexed": false,
          "internalType": "uint256",
          "name": "baseAmount",
          "type": "uint256"
        },
        {
          "indexed": true,
          "internalType": "address",
          "name": "token",
          "type": "address"
        },
        {
          "indexed": false,
          "internalType": "uint256",
          "name": "synthAmount",
          "type": "uint256"
        }
      ],
      "name": "MintSynth",
      "type": "event"
    },
    {
      "anonymous": false,
      "inputs": [
        {
          "indexed": true,
          "internalType": "address",
          "name": "member",
          "type": "address"
        },
        {
          "indexed": true,
          "internalType": "address",
          "name": "base",
          "type": "address"
        },
        {
          "indexed": false,
          "internalType": "uint256",
          "name": "baseAmount",
          "type": "uint256"
        },
        {
          "indexed": true,
          "internalType": "address",
          "name": "token",
          "type": "address"
        },
        {
          "indexed": false,
          "internalType": "uint256",
          "name": "tokenAmount",
          "type": "uint256"
        },
        {
          "indexed": false,
          "internalType": "uint256",
          "name": "liquidityUnits",
          "type": "uint256"
        },
        {
          "indexed": false,
          "internalType": "uint256",
          "name": "totalUnits",
          "type": "uint256"
        }
      ],
      "name": "RemoveLiquidity",
      "type": "event"
    },
    {
      "anonymous": false,
      "inputs": [
        {
          "indexed": true,
          "internalType": "address",
          "name": "member",
          "type": "address"
        },
        {
          "indexed": true,
          "internalType": "address",
          "name": "inputToken",
          "type": "address"
        },
        {
          "indexed": false,
          "internalType": "uint256",
          "name": "inputAmount",
          "type": "uint256"
        },
        {
          "indexed": true,
          "internalType": "address",
          "name": "outputToken",
          "type": "address"
        },
        {
          "indexed": false,
          "internalType": "uint256",
          "name": "outputAmount",
          "type": "uint256"
        },
        {
          "indexed": false,
          "internalType": "uint256",
          "name": "swapFee",
          "type": "uint256"
        }
      ],
      "name": "Swap",
      "type": "event"
    },
    {
      "anonymous": false,
      "inputs": [
        {
          "indexed": true,
          "internalType": "address",
          "name": "token",
          "type": "address"
        },
        {
          "indexed": true,
          "internalType": "address",
          "name": "pool",
          "type": "address"
        },
        {
          "indexed": false,
          "internalType": "uint256",
          "name": "addedAmount",
          "type": "uint256"
        }
      ],
      "name": "Sync",
      "type": "event"
    },
    {
      "anonymous": false,
      "inputs": [
        {
          "indexed": true,
          "internalType": "address",
          "name": "token",
          "type": "address"
        },
        {
          "indexed": false,
          "internalType": "uint256",
          "name": "burntSynth",
          "type": "uint256"
        },
        {
          "indexed": false,
          "internalType": "uint256",
          "name": "deletedUnits",
          "type": "uint256"
        }
      ],
      "name": "SynthSync",
      "type": "event"
    },
    {
      "inputs": [],
      "name": "VADER",
      "outputs": [
        {
          "internalType": "address",
          "name": "",
          "type": "address"
        }
      ],
      "stateMutability": "view",
      "type": "function",
      "constant": true
    },
    {
      "inputs": [
        {
          "internalType": "address",
          "name": "",
          "type": "address"
        },
        {
          "internalType": "address",
          "name": "",
          "type": "address"
        }
      ],
      "name": "mapTokenMember_Units",
      "outputs": [
        {
          "internalType": "uint256",
          "name": "",
          "type": "uint256"
        }
      ],
      "stateMutability": "view",
      "type": "function",
      "constant": true
    },
    {
      "inputs": [
        {
          "internalType": "address",
          "name": "",
          "type": "address"
        }
      ],
      "name": "mapToken_Units",
      "outputs": [
        {
          "internalType": "uint256",
          "name": "",
          "type": "uint256"
        }
      ],
      "stateMutability": "view",
      "type": "function",
      "constant": true
    },
    {
      "inputs": [
        {
          "internalType": "address",
          "name": "",
          "type": "address"
        }
      ],
      "name": "mapToken_baseAmount",
      "outputs": [
        {
          "internalType": "uint256",
          "name": "",
          "type": "uint256"
        }
      ],
      "stateMutability": "view",
      "type": "function",
      "constant": true
    },
    {
      "inputs": [
        {
          "internalType": "address",
          "name": "",
          "type": "address"
        }
      ],
      "name": "mapToken_tokenAmount",
      "outputs": [
        {
          "internalType": "uint256",
          "name": "",
          "type": "uint256"
        }
      ],
      "stateMutability": "view",
      "type": "function",
      "constant": true
    },
    {
      "inputs": [],
      "name": "pooledUSDV",
      "outputs": [
        {
          "internalType": "uint256",
          "name": "",
          "type": "uint256"
        }
      ],
      "stateMutability": "view",
      "type": "function",
      "constant": true
    },
    {
      "inputs": [],
      "name": "pooledVADER",
      "outputs": [
        {
          "internalType": "uint256",
          "name": "",
          "type": "uint256"
        }
      ],
      "stateMutability": "view",
      "type": "function",
      "constant": true
    },
    {
      "inputs": [
        {
          "internalType": "address",
          "name": "base",
          "type": "address"
        },
        {
          "internalType": "address",
          "name": "token",
          "type": "address"
        },
        {
          "internalType": "address",
          "name": "member",
          "type": "address"
        }
      ],
      "name": "addLiquidity",
      "outputs": [
        {
          "internalType": "uint256",
          "name": "liquidityUnits",
          "type": "uint256"
        }
      ],
      "stateMutability": "nonpayable",
      "type": "function"
    },
    {
      "inputs": [
        {
          "internalType": "address",
          "name": "base",
          "type": "address"
        },
        {
          "internalType": "address",
          "name": "token",
          "type": "address"
        }
      ],
      "name": "addLiquidityDirectly",
      "outputs": [
        {
          "internalType": "uint256",
          "name": "liquidityUnits",
          "type": "uint256"
        }
      ],
      "stateMutability": "nonpayable",
      "type": "function"
    },
    {
      "inputs": [
        {
          "internalType": "address",
          "name": "base",
          "type": "address"
        },
        {
          "internalType": "address",
          "name": "token",
          "type": "address"
        },
        {
          "internalType": "uint256",
          "name": "basisPoints",
          "type": "uint256"
        }
      ],
      "name": "removeLiquidity",
      "outputs": [
        {
          "internalType": "uint256",
          "name": "",
          "type": "uint256"
        },
        {
          "internalType": "uint256",
          "name": "",
          "type": "uint256"
        },
        {
          "internalType": "uint256",
          "name": "",
          "type": "uint256"
        }
      ],
      "stateMutability": "nonpayable",
      "type": "function"
    },
    {
      "inputs": [
        {
          "internalType": "address",
          "name": "base",
          "type": "address"
        },
        {
          "internalType": "address",
          "name": "token",
          "type": "address"
        },
        {
          "internalType": "uint256",
          "name": "basisPoints",
          "type": "uint256"
        }
      ],
      "name": "removeLiquidityDirectly",
      "outputs": [
        {
          "internalType": "uint256",
          "name": "",
          "type": "uint256"
        },
        {
          "internalType": "uint256",
          "name": "",
          "type": "uint256"
        },
        {
          "internalType": "uint256",
          "name": "",
          "type": "uint256"
        }
      ],
      "stateMutability": "nonpayable",
      "type": "function"
    },
    {
      "inputs": [
        {
          "internalType": "address",
          "name": "base",
          "type": "address"
        },
        {
          "internalType": "address",
          "name": "token",
          "type": "address"
        },
        {
          "internalType": "address",
          "name": "member",
          "type": "address"
        },
        {
          "internalType": "bool",
          "name": "toBase",
          "type": "bool"
        }
      ],
      "name": "swap",
      "outputs": [
        {
          "internalType": "uint256",
          "name": "outputAmount",
          "type": "uint256"
        }
      ],
      "stateMutability": "nonpayable",
      "type": "function"
    },
    {
      "inputs": [
        {
          "internalType": "address",
          "name": "token",
          "type": "address"
        },
        {
          "internalType": "address",
          "name": "pool",
          "type": "address"
        }
      ],
      "name": "sync",
      "outputs": [],
      "stateMutability": "nonpayable",
      "type": "function"
    },
    {
      "inputs": [
        {
          "internalType": "address",
          "name": "token",
          "type": "address"
        }
      ],
      "name": "deploySynth",
      "outputs": [],
      "stateMutability": "nonpayable",
      "type": "function"
    },
    {
      "inputs": [
        {
          "internalType": "address",
          "name": "base",
          "type": "address"
        },
        {
          "internalType": "address",
          "name": "token",
          "type": "address"
        },
        {
          "internalType": "address",
          "name": "member",
          "type": "address"
        }
      ],
      "name": "mintSynth",
      "outputs": [
        {
          "internalType": "uint256",
          "name": "outputAmount",
          "type": "uint256"
        }
      ],
      "stateMutability": "nonpayable",
      "type": "function"
    },
    {
      "inputs": [
        {
          "internalType": "address",
          "name": "base",
          "type": "address"
        },
        {
          "internalType": "address",
          "name": "token",
          "type": "address"
        },
        {
          "internalType": "address",
          "name": "member",
          "type": "address"
        }
      ],
      "name": "burnSynth",
      "outputs": [
        {
          "internalType": "uint256",
          "name": "outputBase",
          "type": "uint256"
        }
      ],
      "stateMutability": "nonpayable",
      "type": "function"
    },
    {
      "inputs": [
        {
          "internalType": "address",
          "name": "token",
          "type": "address"
        }
      ],
      "name": "syncSynth",
      "outputs": [],
      "stateMutability": "nonpayable",
      "type": "function"
    },
    {
      "inputs": [
        {
          "internalType": "address",
          "name": "token",
          "type": "address"
        }
      ],
      "name": "isAsset",
      "outputs": [
        {
          "internalType": "bool",
          "name": "",
          "type": "bool"
        }
      ],
      "stateMutability": "view",
      "type": "function",
      "constant": true
    },
    {
      "inputs": [
        {
          "internalType": "address",
          "name": "token",
          "type": "address"
        }
      ],
      "name": "isAnchor",
      "outputs": [
        {
          "internalType": "bool",
          "name": "",
          "type": "bool"
        }
      ],
      "stateMutability": "view",
      "type": "function",
      "constant": true
    },
    {
      "inputs": [
        {
          "internalType": "address",
          "name": "token",
          "type": "address"
        }
      ],
      "name": "getPoolAmounts",
      "outputs": [
        {
          "internalType": "uint256",
          "name": "",
          "type": "uint256"
        },
        {
          "internalType": "uint256",
          "name": "",
          "type": "uint256"
        }
      ],
      "stateMutability": "view",
      "type": "function",
      "constant": true
    },
    {
      "inputs": [
        {
          "internalType": "address",
          "name": "token",
          "type": "address"
        }
      ],
      "name": "getBaseAmount",
      "outputs": [
        {
          "internalType": "uint256",
          "name": "",
          "type": "uint256"
        }
      ],
      "stateMutability": "view",
      "type": "function",
      "constant": true
    },
    {
      "inputs": [
        {
          "internalType": "address",
          "name": "token",
          "type": "address"
        }
      ],
      "name": "getTokenAmount",
      "outputs": [
        {
          "internalType": "uint256",
          "name": "",
          "type": "uint256"
        }
      ],
      "stateMutability": "view",
      "type": "function",
      "constant": true
    },
    {
      "inputs": [
        {
          "internalType": "address",
          "name": "token",
          "type": "address"
        }
      ],
      "name": "getUnits",
      "outputs": [
        {
          "internalType": "uint256",
          "name": "",
          "type": "uint256"
        }
      ],
      "stateMutability": "view",
      "type": "function",
      "constant": true
    },
    {
      "inputs": [
        {
          "internalType": "address",
          "name": "token",
          "type": "address"
        },
        {
          "internalType": "address",
          "name": "member",
          "type": "address"
        }
      ],
      "name": "getMemberUnits",
      "outputs": [
        {
          "internalType": "uint256",
          "name": "",
          "type": "uint256"
        }
      ],
      "stateMutability": "view",
      "type": "function",
      "constant": true
    },
    {
      "inputs": [
        {
          "internalType": "address",
          "name": "token",
          "type": "address"
        }
      ],
      "name": "getSynth",
      "outputs": [
        {
          "internalType": "address",
          "name": "",
          "type": "address"
        }
      ],
      "stateMutability": "view",
      "type": "function",
      "constant": true
    },
    {
      "inputs": [
        {
          "internalType": "address",
          "name": "token",
          "type": "address"
        }
      ],
      "name": "isSynth",
      "outputs": [
        {
          "internalType": "bool",
          "name": "",
          "type": "bool"
        }
      ],
      "stateMutability": "view",
      "type": "function",
      "constant": true
    },
    {
      "inputs": [],
      "name": "UTILS",
      "outputs": [
        {
          "internalType": "address",
          "name": "",
          "type": "address"
        }
      ],
      "stateMutability": "view",
      "type": "function",
      "constant": true
    }
  ],
  "bytecode": "0x60a06040523480156200001157600080fd5b5060405162002ac338038062002ac383398101604081905262000034916200004a565b60601b6001600160601b0319166080526200007a565b6000602082840312156200005c578081fd5b81516001600160a01b038116811462000073578182fd5b9392505050565b60805160601c6129d6620000ed600039600081816101c30152818161052d015281816109f501528181610b0f0152818161191b0152818161195701528181611a7601528181611dfe01528181611fa401528181611fe601528181612067015281816122fd01526123c601526129d66000f3fe608060405234801561001057600080fd5b50600436106101b95760003560e01c8063903443b9116100f9578063d8cced2a11610097578063e3adb2f611610071578063e3adb2f6146104bb578063e6ae1a97146104ce578063efc34aab146104f7578063fde3b2651461050a576101b9565b8063d8cced2a14610473578063dcec81161461049f578063dd5a2bd8146104b2576101b9565b8063c87fa42a116100d3578063c87fa42a14610401578063c8aacdda1461042d578063d016347e1461044d578063d752fab214610460576101b9565b8063903443b914610384578063a9652dca146103cf578063b34c8afb146103d8576101b9565b80635e0237ea116101665780637b0e5c45116101405780637b0e5c451461032b578063801b14de146103335780638e80bddf146103465780638ebc9f9214610359576101b9565b80635e0237ea146102c857806368866418146102eb57806375d55e471461030b576101b9565b80633041949b116101975780633041949b1461027257806340ace43414610287578063469f5c1e146102b5576101b9565b806301681315146101be5780630fefbc091461020257806324ef375014610239575b600080fd5b6101e57f000000000000000000000000000000000000000000000000000000000000000081565b6040516001600160a01b0390911681526020015b60405180910390f35b61022b6102103660046126c9565b6001600160a01b031660009081526004602052604090205490565b6040519081526020016101f9565b61022b610247366004612701565b6001600160a01b03918216600090815260056020908152604080832093909416825291909152205490565b610285610280366004612701565b61051d565b005b61029a6102953660046127de565b61063b565b604080519384526020840192909252908201526060016101f9565b6102856102c33660046126c9565b61065b565b6102db6102d63660046126c9565b61094d565b60405190151581526020016101f9565b61022b6102f93660046126c9565b60076020526000908152604090205481565b61022b6103193660046126c9565b60066020526000908152604090205481565b6101e56109f1565b61022b610341366004612701565b610af9565b6102856103543660046126c9565b610b0d565b61022b610367366004612701565b600560209081526000928352604080842090915290825290205481565b6103ba6103923660046126c9565b6001600160a01b03166000908152600660209081526040808320546007909252909120549091565b604080519283526020830191909152016101f9565b61022b60015481565b61022b6103e63660046126c9565b6001600160a01b031660009081526006602052604090205490565b6102db61040f3660046126c9565b6001600160a01b031660009081526002602052604090205460ff1690565b61022b61043b3660046126c9565b60046020526000908152604090205481565b61022b61045b366004612739565b610c38565b61029a61046e3660046127de565b610fdc565b6102db6104813660046126c9565b6001600160a01b031660009081526003602052604090205460ff1690565b6101e56104ad3660046126c9565b610fed565b61022b60005481565b61022b6104c9366004612739565b61108b565b61022b6104dc3660046126c9565b6001600160a01b031660009081526007602052604090205490565b61022b610505366004612783565b6112cb565b61022b610518366004612739565b611826565b6000610529838361189b565b90507f00000000000000000000000000000000000000000000000000000000000000006001600160a01b0316836001600160a01b03161480610583575061056e611a72565b6001600160a01b0316836001600160a01b0316145b156105bb576001600160a01b038216600090815260066020526040812080548392906105b09084906128ec565b909155506105e99050565b6001600160a01b038216600090815260076020526040812080548392906105e39084906128ec565b90915550505b816001600160a01b0316836001600160a01b03167f54b91069ea413a6fbb322ced87280c75ca620bffe62d35cf33b0336f23e9238b8360405161062e91815260200190565b60405180910390a3505050565b600080600061064c86868633611b3d565b92509250925093509350939050565b600061066682610fed565b6040516370a0823160e01b81523060048201529091506000906001600160a01b038316906370a082319060240160206040518083038186803b1580156106ab57600080fd5b505afa1580156106bf573d6000803e3d6000fd5b505050506040513d601f19601f820116820180604052508101906106e3919061283a565b905060006106ef6109f1565b6001600160a01b0316631ba326c483856001600160a01b03166318160ddd6040518163ffffffff1660e01b815260040160206040518083038186803b15801561073757600080fd5b505afa15801561074b573d6000803e3d6000fd5b505050506040513d601f19601f8201168201806040525081019061076f919061283a565b6001600160a01b03881660009081526005602090815260408083203084529091529081902054905160e085901b7fffffffff0000000000000000000000000000000000000000000000000000000016815260048101939093526024830191909152604482015260640160206040518083038186803b1580156107f057600080fd5b505afa158015610804573d6000803e3d6000fd5b505050506040513d601f19601f82011682018060405250810190610828919061283a565b6040517f42966c68000000000000000000000000000000000000000000000000000000008152600481018490529091506001600160a01b038416906342966c6890602401600060405180830381600087803b15801561088657600080fd5b505af115801561089a573d6000803e3d6000fd5b505050506001600160a01b0384166000908152600560209081526040808320308452909152812080548392906108d1908490612904565b90915550506001600160a01b038416600090815260046020526040812080548392906108fe908490612904565b909155505060408051838152602081018390526001600160a01b038616917f2bd592657d26d9b6ddc6922d29a570ca2d85268c077790ef16db2e3c37e4950c910160405180910390a250505050565b6000610957611dfa565b6040517f5e0237ea0000000000000000000000000000000000000000000000000000000081526001600160a01b0384811660048301529190911690635e0237ea9060240160206040518083038186803b1580156109b357600080fd5b505afa1580156109c7573d6000803e3d6000fd5b505050506040513d601f19601f820116820180604052508101906109eb919061281e565b92915050565b60007f00000000000000000000000000000000000000000000000000000000000000006001600160a01b03166398fabd3a6040518163ffffffff1660e01b815260040160206040518083038186803b158015610a4c57600080fd5b505afa158015610a60573d6000803e3d6000fd5b505050506040513d601f19601f82011682018060405250810190610a8491906126e5565b6001600160a01b0316637b0e5c456040518163ffffffff1660e01b815260040160206040518083038186803b158015610abc57600080fd5b505afa158015610ad0573d6000803e3d6000fd5b505050506040513d601f19601f82011682018060405250810190610af491906126e5565b905090565b6000610b06838333611ec5565b9392505050565b7f00000000000000000000000000000000000000000000000000000000000000006001600160a01b0316816001600160a01b031614158015610b685750610b52611a72565b6001600160a01b0316816001600160a01b031614155b8015610b8d57506001600160a01b03811660009081526003602052604090205460ff16155b610b9657600080fd5b610b9e611dfa565b6040517f8e80bddf0000000000000000000000000000000000000000000000000000000081526001600160a01b0383811660048301529190911690638e80bddf90602401602060405180830381600087803b158015610bfc57600080fd5b505af1158015610c10573d6000803e3d6000fd5b505050506040513d601f19601f82011682018060405250810190610c3491906126e5565b5050565b600080610c4484610fed565b9050610c4e6122f9565b604051636e899aa360e01b81526001600160a01b0387811660048301529190911690636e899aa39060240160206040518083038186803b158015610c9157600080fd5b505afa158015610ca5573d6000803e3d6000fd5b505050506040513d601f19601f82011682018060405250810190610cc9919061281e565b610d025760405162461bcd60e51b8152602060048201526005602482015264214261736560d81b60448201526064015b60405180910390fd5b610d0a611dfa565b6040517f5e0237ea0000000000000000000000000000000000000000000000000000000081526001600160a01b0383811660048301529190911690635e0237ea9060240160206040518083038186803b158015610d6657600080fd5b505afa158015610d7a573d6000803e3d6000fd5b505050506040513d601f19601f82011682018060405250810190610d9e919061281e565b610dea5760405162461bcd60e51b815260206004820152600660248201527f2173796e746800000000000000000000000000000000000000000000000000006044820152606401610cf9565b6000610df6868661189b565b9050610e006109f1565b6001600160a01b0386811660009081526006602090815260408083205460079092529182902054915163701baaf360e01b8152600481018690526024810191909152604481019190915291169063701baaf39060640160206040518083038186803b158015610e6e57600080fd5b505afa158015610e82573d6000803e3d6000fd5b505050506040513d601f19601f82011682018060405250810190610ea6919061283a565b6001600160a01b038616600090815260066020526040812080549295508392909190610ed39084906128ec565b909155505060408051828152602081018590526001600160a01b038088169289821692918816917fdce3fe53a2f7f31b00a24020bb4cef6c1d877f1ad4d43153c48d2ebe79eab50a910160405180910390a4610f2d611dfa565b6040517f5bf0abbc0000000000000000000000000000000000000000000000000000000081526001600160a01b0384811660048301528681166024830152604482018690529190911690635bf0abbc90606401602060405180830381600087803b158015610f9a57600080fd5b505af1158015610fae573d6000803e3d6000fd5b505050506040513d601f19601f82011682018060405250810190610fd2919061281e565b5050509392505050565b600080600061064c86868632611b3d565b6000610ff7611dfa565b6040517fdcec81160000000000000000000000000000000000000000000000000000000081526001600160a01b038481166004830152919091169063dcec81169060240160206040518083038186803b15801561105357600080fd5b505afa158015611067573d6000803e3d6000fd5b505050506040513d601f19601f820116820180604052508101906109eb91906126e5565b60008061109784610fed565b6040516370a0823160e01b81523060048201529091506000906001600160a01b038316906370a082319060240160206040518083038186803b1580156110dc57600080fd5b505afa1580156110f0573d6000803e3d6000fd5b505050506040513d601f19601f82011682018060405250810190611114919061283a565b6040517f42966c68000000000000000000000000000000000000000000000000000000008152600481018290529091506001600160a01b038316906342966c6890602401600060405180830381600087803b15801561117257600080fd5b505af1158015611186573d6000803e3d6000fd5b505050506111926109f1565b6001600160a01b0386811660009081526007602090815260408083205460069092529182902054915163701baaf360e01b8152600481018690526024810191909152604481019190915291169063701baaf39060640160206040518083038186803b15801561120057600080fd5b505afa158015611214573d6000803e3d6000fd5b505050506040513d601f19601f82011682018060405250810190611238919061283a565b6001600160a01b038616600090815260066020526040812080549295508592909190611265908490612904565b909155505060408051848152602081018390526001600160a01b038088169289821692918816917f63fc4d3cae2d0c437e2e9528b5ebad6a1236217cfae2fc54a8819fd8f626f072910160405180910390a46112c28684866123c4565b50509392505050565b60006112d56122f9565b604051636e899aa360e01b81526001600160a01b0387811660048301529190911690636e899aa39060240160206040518083038186803b15801561131857600080fd5b505afa15801561132c573d6000803e3d6000fd5b505050506040513d601f19601f82011682018060405250810190611350919061281e565b6113845760405162461bcd60e51b8152602060048201526005602482015264214261736560d81b6044820152606401610cf9565b81156115d6576000611396858661189b565b90506113a06109f1565b6001600160a01b0386811660009081526007602090815260408083205460069092529182902054915163701baaf360e01b8152600481018690526024810191909152604481019190915291169063701baaf39060640160206040518083038186803b15801561140e57600080fd5b505afa158015611422573d6000803e3d6000fd5b505050506040513d601f19601f82011682018060405250810190611446919061283a565b915060006114526109f1565b6001600160a01b038781166000908152600760209081526040808320546006909252918290205491517f896a708c000000000000000000000000000000000000000000000000000000008152600481018790526024810191909152604481019190915291169063896a708c9060640160206040518083038186803b1580156114d957600080fd5b505afa1580156114ed573d6000803e3d6000fd5b505050506040513d601f19601f82011682018060405250810190611511919061283a565b6001600160a01b03871660009081526007602052604081208054929350849290919061153e9084906128ec565b90915550506001600160a01b0386166000908152600660205260408120805485929061156b908490612904565b909155505060408051838152602081018590529081018290526001600160a01b0380891691888216918816907f51e00ff851e6d19ee3412286211af0aa9676df8d942e677195fc7445b4c08e309060600160405180910390a46115cf8784876123c4565b505061181e565b60006115e2868661189b565b90506115ec6109f1565b6001600160a01b0386811660009081526006602090815260408083205460079092529182902054915163701baaf360e01b8152600481018690526024810191909152604481019190915291169063701baaf39060640160206040518083038186803b15801561165a57600080fd5b505afa15801561166e573d6000803e3d6000fd5b505050506040513d601f19601f82011682018060405250810190611692919061283a565b9150600061169e6109f1565b6001600160a01b038781166000908152600660209081526040808320546007909252918290205491517f896a708c000000000000000000000000000000000000000000000000000000008152600481018790526024810191909152604481019190915291169063896a708c9060640160206040518083038186803b15801561172557600080fd5b505afa158015611739573d6000803e3d6000fd5b505050506040513d601f19601f8201168201806040525081019061175d919061283a565b6001600160a01b03871660009081526006602052604081208054929350849290919061178a9084906128ec565b90915550506001600160a01b038616600090815260076020526040812080548592906117b7908490612904565b909155505060408051838152602081018590529081018290526001600160a01b0380881691898216918816907f51e00ff851e6d19ee3412286211af0aa9676df8d942e677195fc7445b4c08e309060600160405180910390a461181b8684876123c4565b50505b949350505050565b60006118306122f9565b6001600160a01b0316336001600160a01b0316146118905760405162461bcd60e51b815260206004820152600a60248201527f4e6f7420524f55544552000000000000000000000000000000000000000000006044820152606401610cf9565b61181e848484611ec5565b6040516370a0823160e01b815230600482015260009081906001600160a01b038516906370a082319060240160206040518083038186803b1580156118df57600080fd5b505afa1580156118f3573d6000803e3d6000fd5b505050506040513d601f19601f82011682018060405250810190611917919061283a565b90507f00000000000000000000000000000000000000000000000000000000000000006001600160a01b0316846001600160a01b031614801561198c57507f00000000000000000000000000000000000000000000000000000000000000006001600160a01b0316836001600160a01b031614155b156119aa5760005461199e9082612904565b60008290559150611a6b565b6119b2611a72565b6001600160a01b0316846001600160a01b031614156119e4576001546119d89082612904565b60018290559150611a6b565b826001600160a01b0316846001600160a01b031614611a455760405162461bcd60e51b815260206004820152600560248201527f21706f6f6c0000000000000000000000000000000000000000000000000000006044820152606401610cf9565b6001600160a01b038316600090815260076020526040902054611a689082612904565b91505b5092915050565b60007f00000000000000000000000000000000000000000000000000000000000000006001600160a01b03166398fabd3a6040518163ffffffff1660e01b815260040160206040518083038186803b158015611acd57600080fd5b505afa158015611ae1573d6000803e3d6000fd5b505050506040513d601f19601f82011682018060405250810190611b0591906126e5565b6001600160a01b031663e2c3b0466040518163ffffffff1660e01b815260040160206040518083038186803b158015610abc57600080fd5b6000806000611b4a6122f9565b604051636e899aa360e01b81526001600160a01b0389811660048301529190911690636e899aa39060240160206040518083038186803b158015611b8d57600080fd5b505afa158015611ba1573d6000803e3d6000fd5b505050506040513d601f19601f82011682018060405250810190611bc5919061281e565b611bf95760405162461bcd60e51b8152602060048201526005602482015264214261736560d81b6044820152606401610cf9565b611c016109f1565b6040517f7011add3000000000000000000000000000000000000000000000000000000008152600481018790526001600160a01b03888116602483015286811660448301529190911690637011add39060640160606040518083038186803b158015611c6c57600080fd5b505afa158015611c80573d6000803e3d6000fd5b505050506040513d601f19601f82011682018060405250810190611ca49190612852565b6001600160a01b038916600090815260046020526040812080549497509295509093508592611cd4908490612904565b90915550506001600160a01b03808716600090815260056020908152604080832093881683529290529081208054859290611d10908490612904565b90915550506001600160a01b03861660009081526006602052604081208054849290611d3d908490612904565b90915550506001600160a01b03861660009081526007602052604081208054839290611d6a908490612904565b90915550506001600160a01b038681166000818152600460209081526040918290205482518781529182018690528183018890526060820152905191928a811692908816917f58b1ebcf7a8520d435f8b5e4e52c11f3ecb57c52621aee99365d810c2e53bdf3919081900360800190a4611de58783866123c4565b611df08682866123c4565b9450945094915050565b60007f00000000000000000000000000000000000000000000000000000000000000006001600160a01b03166398fabd3a6040518163ffffffff1660e01b815260040160206040518083038186803b158015611e5557600080fd5b505afa158015611e69573d6000803e3d6000fd5b505050506040513d601f19601f82011682018060405250810190611e8d91906126e5565b6001600160a01b0316632dd310006040518163ffffffff1660e01b815260040160206040518083038186803b158015610abc57600080fd5b6000611ecf6122f9565b604051636e899aa360e01b81526001600160a01b0386811660048301529190911690636e899aa39060240160206040518083038186803b158015611f1257600080fd5b505afa158015611f26573d6000803e3d6000fd5b505050506040513d601f19601f82011682018060405250810190611f4a919061281e565b611f7e5760405162461bcd60e51b8152602060048201526005602482015264214261736560d81b6044820152606401610cf9565b611f86611a72565b6001600160a01b0316836001600160a01b031614158015611fd957507f00000000000000000000000000000000000000000000000000000000000000006001600160a01b0316836001600160a01b031614155b611fe257600080fd5b60007f00000000000000000000000000000000000000000000000000000000000000006001600160a01b0316856001600160a01b03161415612093576001600160a01b03841660009081526003602052604090205460ff16612062576001600160a01b0384166000908152600360205260409020805460ff191660011790555b61208c7f00000000000000000000000000000000000000000000000000000000000000008561189b565b90506120eb565b6001600160a01b03841660009081526002602052604090205460ff166120d7576001600160a01b0384166000908152600260205260409020805460ff191660011790555b6120e86120e2611a72565b8561189b565b90505b60006120f7858661189b565b90506121016109f1565b6001600160a01b038681166000908152600660209081526040808320546007835281842054600493849052938290205491517fc5c11ee90000000000000000000000000000000000000000000000000000000081529283018890526024830152604482018690526064820192909252608481019190915291169063c5c11ee99060a40160206040518083038186803b15801561219c57600080fd5b505afa1580156121b0573d6000803e3d6000fd5b505050506040513d601f19601f820116820180604052508101906121d4919061283a565b6001600160a01b0380871660009081526005602090815260408083209389168352929052908120805492955085929091906122109084906128ec565b90915550506001600160a01b0385166000908152600460205260408120805485929061223d9084906128ec565b90915550506001600160a01b0385166000908152600660205260408120805484929061226a9084906128ec565b90915550506001600160a01b038516600090815260076020526040812080548392906122979084906128ec565b909155505060408051838152602081018390529081018490526001600160a01b0380871691888216918716907fcfc390ea13b09661b205e48ee692d38f6798b0e0992a868008f841929b0e03d29060600160405180910390a450509392505050565b60007f00000000000000000000000000000000000000000000000000000000000000006001600160a01b03166398fabd3a6040518163ffffffff1660e01b815260040160206040518083038186803b15801561235457600080fd5b505afa158015612368573d6000803e3d6000fd5b505050506040513d601f19601f8201168201806040525081019061238c91906126e5565b6001600160a01b03166332fe7b266040518163ffffffff1660e01b815260040160206040518083038186803b158015610abc57600080fd5b7f00000000000000000000000000000000000000000000000000000000000000006001600160a01b0316836001600160a01b03161415612414578160005461240c9190612904565b600055612447565b61241c611a72565b6001600160a01b0316836001600160a01b0316141561244757816001546124439190612904565b6001555b6001600160a01b038116301461246b5761246b6001600160a01b0384168284612470565b505050565b604080516001600160a01b03848116602483015260448083018590528351808403909101815260649092018352602080830180517bffffffffffffffffffffffffffffffffffffffffffffffffffffffff167fa9059cbb0000000000000000000000000000000000000000000000000000000017905283518085019094528084527f5361666545524332303a206c6f772d6c6576656c2063616c6c206661696c65649084015261246b9286929160009161252e9185169084906125be565b80519091501561246b578080602001905181019061254c919061281e565b61246b5760405162461bcd60e51b815260206004820152602a60248201527f5361666545524332303a204552433230206f7065726174696f6e20646964206e60448201527f6f742073756363656564000000000000000000000000000000000000000000006064820152608401610cf9565b606061181e848460008585843b6126175760405162461bcd60e51b815260206004820152601d60248201527f416464726573733a2063616c6c20746f206e6f6e2d636f6e74726163740000006044820152606401610cf9565b600080866001600160a01b03168587604051612633919061287f565b60006040518083038185875af1925050503d8060008114612670576040519150601f19603f3d011682016040523d82523d6000602084013e612675565b606091505b5091509150612685828286612690565b979650505050505050565b6060831561269f575081610b06565b8251156126af5782518084602001fd5b8160405162461bcd60e51b8152600401610cf9919061289b565b6000602082840312156126da578081fd5b8135610b068161297a565b6000602082840312156126f6578081fd5b8151610b068161297a565b60008060408385031215612713578081fd5b823561271e8161297a565b9150602083013561272e8161297a565b809150509250929050565b60008060006060848603121561274d578081fd5b83356127588161297a565b925060208401356127688161297a565b915060408401356127788161297a565b809150509250925092565b60008060008060808587031215612798578081fd5b84356127a38161297a565b935060208501356127b38161297a565b925060408501356127c38161297a565b915060608501356127d381612992565b939692955090935050565b6000806000606084860312156127f2578283fd5b83356127fd8161297a565b9250602084013561280d8161297a565b929592945050506040919091013590565b60006020828403121561282f578081fd5b8151610b0681612992565b60006020828403121561284b578081fd5b5051919050565b600080600060608486031215612866578283fd5b8351925060208401519150604084015190509250925092565b6000825161289181846020870161291b565b9190910192915050565b60006020825282518060208401526128ba81604085016020870161291b565b601f017fffffffffffffffffffffffffffffffffffffffffffffffffffffffffffffffe0169190910160400192915050565b600082198211156128ff576128ff61294b565b500190565b6000828210156129165761291661294b565b500390565b60005b8381101561293657818101518382015260200161291e565b83811115612945576000848401525b50505050565b7f4e487b7100000000000000000000000000000000000000000000000000000000600052601160045260246000fd5b6001600160a01b038116811461298f57600080fd5b50565b801515811461298f57600080fdfea26469706673582212201cf32feaf03a8dc7490499ae78a036540d18de472a830d8b10563a9a0b9bb02064736f6c63430008030033",
  "immutableReferences": {
    "3669": [
      {
        "length": 32,
        "start": 451
      },
      {
        "length": 32,
        "start": 1325
      },
      {
        "length": 32,
        "start": 2549
      },
      {
        "length": 32,
        "start": 2831
      },
      {
        "length": 32,
        "start": 6427
      },
      {
        "length": 32,
        "start": 6487
      },
      {
        "length": 32,
        "start": 6774
      },
      {
        "length": 32,
        "start": 7678
      },
      {
        "length": 32,
        "start": 8100
      },
      {
        "length": 32,
        "start": 8166
      },
      {
        "length": 32,
        "start": 8295
      },
      {
        "length": 32,
        "start": 8957
      },
      {
        "length": 32,
        "start": 9158
      }
    ]
  },
  "source": "// SPDX-License-Identifier: UNLICENSED\r\npragma solidity 0.8.3;\r\n\r\n// Interfaces\r\nimport \"./interfaces/SafeERC20.sol\";\r\nimport \"./interfaces/iERC20.sol\";\r\nimport \"./interfaces/iDAO.sol\";\r\nimport \"./interfaces/iUTILS.sol\";\r\nimport \"./interfaces/iVADER.sol\";\r\nimport \"./interfaces/iROUTER.sol\";\r\nimport \"./interfaces/iFACTORY.sol\";\r\n\r\ncontract Pools {\r\n    using SafeERC20 for ExternalERC20;\r\n\r\n    // Parameters\r\n    uint256 public pooledVADER;\r\n    uint256 public pooledUSDV;\r\n\r\n    address public immutable VADER;\r\n\r\n    mapping(address => bool) internal _isAsset;\r\n    mapping(address => bool) internal _isAnchor;\r\n\r\n    mapping(address => uint256) public mapToken_Units;\r\n    mapping(address => mapping(address => uint256)) public mapTokenMember_Units;\r\n    mapping(address => uint256) public mapToken_baseAmount;\r\n    mapping(address => uint256) public mapToken_tokenAmount;\r\n\r\n    // Events\r\n    event AddLiquidity(\r\n        address indexed member,\r\n        address indexed base,\r\n        uint256 baseAmount,\r\n        address indexed token,\r\n        uint256 tokenAmount,\r\n        uint256 liquidityUnits\r\n    );\r\n    event RemoveLiquidity(\r\n        address indexed member,\r\n        address indexed base,\r\n        uint256 baseAmount,\r\n        address indexed token,\r\n        uint256 tokenAmount,\r\n        uint256 liquidityUnits,\r\n        uint256 totalUnits\r\n    );\r\n    event Swap(\r\n        address indexed member,\r\n        address indexed inputToken,\r\n        uint256 inputAmount,\r\n        address indexed outputToken,\r\n        uint256 outputAmount,\r\n        uint256 swapFee\r\n    );\r\n    event Sync(address indexed token, address indexed pool, uint256 addedAmount);\r\n    event MintSynth(\r\n        address indexed member,\r\n        address indexed base,\r\n        uint256 baseAmount,\r\n        address indexed token,\r\n        uint256 synthAmount\r\n    );\r\n    event BurnSynth(\r\n        address indexed member,\r\n        address indexed base,\r\n        uint256 baseAmount,\r\n        address indexed token,\r\n        uint256 synthAmount\r\n    );\r\n    event SynthSync(address indexed token, uint256 burntSynth, uint256 deletedUnits);\r\n\r\n    // Only ROUTER can execute\r\n    modifier onlyRouter() {\r\n        require(msg.sender == ROUTER(), \"!ROUTER\");\r\n        _;\r\n    }\r\n\r\n    //=====================================CREATION=========================================//\r\n \r\n    constructor(address _vader) {\r\n        VADER = _vader;\r\n    }\r\n\r\n    //====================================LIQUIDITY=========================================//\r\n\r\n    function _addLiquidity(\r\n        address base,\r\n        address token,\r\n        address member\r\n    ) internal returns (uint256 liquidityUnits) {\r\n        require(iROUTER(ROUTER()).isBase(base), \"!Base\");\r\n        require(token != USDV() && token != VADER); // Prohibited\r\n        uint256 _actualInputBase;\r\n        if (base == VADER) {\r\n            if (!_isAnchor[token]) {\r\n                // If new Anchor\r\n                _isAnchor[token] = true;\r\n            }\r\n            _actualInputBase = getAddedAmount(VADER, token);\r\n        } else {\r\n            if (!_isAsset[token]) {\r\n                // If new Asset\r\n                _isAsset[token] = true;\r\n            }\r\n            _actualInputBase = getAddedAmount(USDV(), token);\r\n        }\r\n        uint256 _actualInputToken = getAddedAmount(token, token);\r\n        liquidityUnits = iUTILS(UTILS()).calcLiquidityUnits(\r\n            _actualInputBase,\r\n            mapToken_baseAmount[token],\r\n            _actualInputToken,\r\n            mapToken_tokenAmount[token],\r\n            mapToken_Units[token]\r\n        );\r\n        mapTokenMember_Units[token][member] += liquidityUnits; // Add units to member\r\n        mapToken_Units[token] += liquidityUnits; // Add in total\r\n        mapToken_baseAmount[token] += _actualInputBase; // Add BASE\r\n        mapToken_tokenAmount[token] += _actualInputToken; // Add token\r\n        emit AddLiquidity(member, base, _actualInputBase, token, _actualInputToken, liquidityUnits);\r\n    }\r\n\r\n    function addLiquidity(\r\n        address base,\r\n        address token,\r\n        address member\r\n    ) external returns (uint256 liquidityUnits) {\r\n        require(msg.sender == ROUTER(), \"Not ROUTER\");\r\n        return _addLiquidity(base, token, member);\r\n    }\r\n\r\n    function addLiquidityDirectly(\r\n        address base,\r\n        address token\r\n    ) external returns (uint256 liquidityUnits) {\r\n        return _addLiquidity(base, token, msg.sender);\r\n    }\r\n\r\n    function removeLiquidity(\r\n        address base,\r\n        address token,\r\n        uint256 basisPoints\r\n    ) external returns (uint256, uint256, uint256) {\r\n        return _removeLiquidity(base, token, basisPoints, tx.origin); // Because this contract is wrapped by a router\r\n    }\r\n\r\n    function removeLiquidityDirectly(\r\n        address base,\r\n        address token,\r\n        uint256 basisPoints\r\n    ) external returns (uint256, uint256, uint256) {\r\n        return _removeLiquidity(base, token, basisPoints, msg.sender); // If want to interact directly\r\n    }\r\n\r\n    function _removeLiquidity(\r\n        address base,\r\n        address token,\r\n        uint256 basisPoints,\r\n        address member\r\n    ) internal returns (uint256 units, uint256 outputBase, uint256 outputToken) {\r\n        require(iROUTER(ROUTER()).isBase(base), \"!Base\");\r\n        (units, outputBase, outputToken) = iUTILS(UTILS()).getMemberShare(basisPoints, token, member);\r\n        mapToken_Units[token] -= units;\r\n        mapTokenMember_Units[token][member] -= units;\r\n        mapToken_baseAmount[token] -= outputBase;\r\n        mapToken_tokenAmount[token] -= outputToken;\r\n        emit RemoveLiquidity(member, base, outputBase, token, outputToken, units, mapToken_Units[token]);\r\n        transferOut(base, outputBase, member);\r\n        transferOut(token, outputToken, member);\r\n    }\r\n\r\n    //=======================================SWAP===========================================//\r\n\r\n    // Designed to be called by a router, but can be called directly\r\n    function swap(\r\n        address base,\r\n        address token,\r\n        address member,\r\n        bool toBase\r\n    ) external returns (uint256 outputAmount) {\r\n        require(iROUTER(ROUTER()).isBase(base), \"!Base\");\r\n        if (toBase) {\r\n            uint256 _actualInput = getAddedAmount(token, token);\r\n            outputAmount = iUTILS(UTILS()).calcSwapOutput(\r\n                _actualInput,\r\n                mapToken_tokenAmount[token],\r\n                mapToken_baseAmount[token]\r\n            );\r\n            uint256 _swapFee =\r\n                iUTILS(UTILS()).calcSwapFee(_actualInput, mapToken_tokenAmount[token], mapToken_baseAmount[token]);\r\n            mapToken_tokenAmount[token] += _actualInput;\r\n            mapToken_baseAmount[token] -= outputAmount;\r\n            emit Swap(member, token, _actualInput, base, outputAmount, _swapFee);\r\n            transferOut(base, outputAmount, member);\r\n        } else {\r\n            uint256 _actualInput = getAddedAmount(base, token);\r\n            outputAmount = iUTILS(UTILS()).calcSwapOutput(\r\n                _actualInput,\r\n                mapToken_baseAmount[token],\r\n                mapToken_tokenAmount[token]\r\n            );\r\n            uint256 _swapFee =\r\n                iUTILS(UTILS()).calcSwapFee(_actualInput, mapToken_baseAmount[token], mapToken_tokenAmount[token]);\r\n            mapToken_baseAmount[token] += _actualInput;\r\n            mapToken_tokenAmount[token] -= outputAmount;\r\n            emit Swap(member, base, _actualInput, token, outputAmount, _swapFee);\r\n            transferOut(token, outputAmount, member);\r\n        }\r\n    }\r\n\r\n    // Add to balances directly (must send first)\r\n    function sync(address token, address pool) external {\r\n        uint256 _actualInput = getAddedAmount(token, pool);\r\n        if (token == VADER || token == USDV()) {\r\n            mapToken_baseAmount[pool] += _actualInput;\r\n        } else {\r\n            mapToken_tokenAmount[pool] += _actualInput;\r\n            // } else if(isSynth()){\r\n            //     //burnSynth && deleteUnits\r\n        }\r\n        emit Sync(token, pool, _actualInput);\r\n    }\r\n\r\n    //======================================SYNTH=========================================//\r\n\r\n    // Should be done with intention, is gas-intensive\r\n    function deploySynth(address token) external {\r\n        require(token != VADER && token != USDV() && !isAnchor(token));\r\n        iFACTORY(FACTORY()).deploySynth(token);\r\n    }\r\n\r\n    // Mint a Synth against its own pool\r\n    function mintSynth(\r\n        address base,\r\n        address token,\r\n        address member\r\n    ) external returns (uint256 outputAmount) {\r\n        address synth = getSynth(token);\r\n        require(iROUTER(ROUTER()).isBase(base), \"!Base\");\r\n        require(iFACTORY(FACTORY()).isSynth(synth), \"!synth\");\r\n        uint256 _actualInputBase = getAddedAmount(base, token); // Get input\r\n        outputAmount = iUTILS(UTILS()).calcSwapOutput(\r\n            _actualInputBase,\r\n            mapToken_baseAmount[token],\r\n            mapToken_tokenAmount[token]\r\n        ); // Get output\r\n        mapToken_baseAmount[token] += _actualInputBase; // Add BASE\r\n        emit MintSynth(member, base, _actualInputBase, token, outputAmount); // Mint Synth Event\r\n        iFACTORY(FACTORY()).mintSynth(synth, member, outputAmount); // Ask factory to mint to member\r\n    }\r\n\r\n    // Burn a Synth to get out BASE\r\n    function burnSynth(\r\n        address base,\r\n        address token,\r\n        address member\r\n    ) external returns (uint256 outputBase) {\r\n        address synth = getSynth(token);\r\n        uint256 _actualInputSynth = iERC20(synth).balanceOf(address(this)); // Get input\r\n        iERC20(synth).burn(_actualInputSynth); // Burn it\r\n        outputBase = iUTILS(UTILS()).calcSwapOutput(\r\n            _actualInputSynth,\r\n            mapToken_tokenAmount[token],\r\n            mapToken_baseAmount[token]\r\n        ); // Get output\r\n        mapToken_baseAmount[token] -= outputBase; // Remove BASE\r\n        emit BurnSynth(member, base, outputBase, token, _actualInputSynth); // Burn Synth Event\r\n        transferOut(base, outputBase, member); // Send BASE to member\r\n    }\r\n\r\n    // Remove a synth, make other LPs richer\r\n    function syncSynth(address token) external {\r\n        address synth = getSynth(token);\r\n        uint256 _actualInputSynth = iERC20(synth).balanceOf(address(this)); // Get input\r\n        uint256 _unitsToDelete =\r\n            iUTILS(UTILS()).calcShare(\r\n                _actualInputSynth,\r\n                iERC20(synth).totalSupply(),\r\n                mapTokenMember_Units[token][address(this)]\r\n            ); // Pro rata\r\n        iERC20(synth).burn(_actualInputSynth); // Burn it\r\n        mapTokenMember_Units[token][address(this)] -= _unitsToDelete; // Delete units for self\r\n        mapToken_Units[token] -= _unitsToDelete; // Delete units\r\n        emit SynthSync(token, _actualInputSynth, _unitsToDelete);\r\n    }\r\n\r\n    //======================================LENDING=========================================//\r\n\r\n    // // Assign units to Router\r\n    // function lockUnits(\r\n    //     uint256 units,\r\n    //     address token,\r\n    //     address member\r\n    // ) external onlyRouter {\r\n    //     mapTokenMember_Units[token][member] -= units;\r\n    //     mapTokenMember_Units[token][msg.sender] += units; // Assign to Router\r\n    // }\r\n\r\n    // // Remove units from Router\r\n    // function unlockUnits(\r\n    //     uint256 units,\r\n    //     address token,\r\n    //     address member\r\n    // ) external onlyRouter {\r\n    //     mapTokenMember_Units[token][msg.sender] -= units;\r\n    //     mapTokenMember_Units[token][member] += units;\r\n    // }\r\n\r\n    //======================================HELPERS=========================================//\r\n\r\n    // Safe adds\r\n    function getAddedAmount(address _token, address _pool) internal returns (uint256 addedAmount) {\r\n        uint256 _balance = ExternalERC20(_token).balanceOf(address(this));\r\n        if (_token == VADER && _pool != VADER) {\r\n            // Want to know added VADER\r\n            addedAmount = _balance - pooledVADER;\r\n            pooledVADER = _balance;\r\n        } else if (_token == USDV()) {\r\n            // Want to know added USDV\r\n            addedAmount = _balance - pooledUSDV;\r\n            pooledUSDV = _balance;\r\n        } else {\r\n            // Want to know added Asset/Anchor\r\n            require(_token == _pool, \"!pool\");\r\n            addedAmount = _balance - mapToken_tokenAmount[_pool];\r\n        }\r\n    }\r\n\r\n    function transferOut(\r\n        address _token,\r\n        uint256 _amount,\r\n        address _recipient\r\n    ) internal {\r\n        if (_token == VADER) {\r\n            pooledVADER = pooledVADER - _amount; // Accounting\r\n        } else if (_token == USDV()) {\r\n            pooledUSDV = pooledUSDV - _amount; // Accounting\r\n        }\r\n        if (_recipient != address(this)) {\r\n            ExternalERC20(_token).safeTransfer(_recipient, _amount);\r\n        }\r\n    }\r\n\r\n    function isAsset(address token) public view returns(bool) {\r\n        return _isAsset[token];\r\n    }\r\n\r\n    function isAnchor(address token) public view returns (bool) {\r\n        return _isAnchor[token];\r\n    }\r\n\r\n    function getPoolAmounts(address token) external view returns (uint256, uint256) {\r\n        return (getBaseAmount(token), getTokenAmount(token));\r\n    }\r\n\r\n    function getBaseAmount(address token) public view returns (uint256) {\r\n        return mapToken_baseAmount[token];\r\n    }\r\n\r\n    function getTokenAmount(address token) public view returns (uint256) {\r\n        return mapToken_tokenAmount[token];\r\n    }\r\n\r\n    function getUnits(address token) external view returns (uint256) {\r\n        return mapToken_Units[token];\r\n    }\r\n\r\n    function getMemberUnits(address token, address member) external view returns (uint256) {\r\n        return mapTokenMember_Units[token][member];\r\n    }\r\n\r\n    function getSynth(address token) public view returns (address) {\r\n        return iFACTORY(FACTORY()).getSynth(token);\r\n    }\r\n\r\n    function isSynth(address token) external view returns (bool) {\r\n        return iFACTORY(FACTORY()).isSynth(token);\r\n    }\r\n    \r\n    function USDV() internal view returns(address){\r\n        return iDAO(iVADER(VADER).DAO()).USDV();\r\n    }\r\n    function ROUTER() internal view returns(address){\r\n        return iDAO(iVADER(VADER).DAO()).ROUTER();\r\n    }\r\n    function FACTORY() internal view returns(address){\r\n        return iDAO(iVADER(VADER).DAO()).FACTORY();\r\n    }\r\n    function UTILS() public view returns (address) {\r\n        return iDAO(iVADER(VADER).DAO()).UTILS();\r\n    }\r\n\r\n}\r\n",
  "sourcePath": "E:/Web Workspace/Vader Protocol/vaderprotocol-contracts/contracts/Pools.sol",
  "compiler": {
    "name": "solc",
    "version": "0.8.3+commit.8d00100c.Emscripten.clang"
  },
  "schemaVersion": "3.4.0",
  "updatedAt": "2021-06-03T02:05:34.657Z",
  "networkType": "ethereum",
  "devdoc": {
    "kind": "dev",
    "methods": {},
    "version": 1
  },
  "userdoc": {
    "kind": "user",
    "methods": {},
    "version": 1
  }
}