{
  "contractName": "Reserve",
  "abi": [
    {
      "inputs": [],
      "stateMutability": "nonpayable",
      "type": "constructor"
    },
    {
      "inputs": [],
      "name": "VADER",
      "outputs": [
        {
          "internalType": "address",
          "name": "",
          "type": "address"
        }
      ],
      "stateMutability": "view",
      "type": "function",
      "constant": true
    },
    {
      "inputs": [],
      "name": "allocatedVADER",
      "outputs": [
        {
          "internalType": "uint256",
          "name": "",
          "type": "uint256"
        }
      ],
      "stateMutability": "view",
      "type": "function",
      "constant": true
    },
    {
      "inputs": [],
      "name": "lastGranted",
      "outputs": [
        {
          "internalType": "uint256",
          "name": "",
          "type": "uint256"
        }
      ],
      "stateMutability": "view",
      "type": "function",
      "constant": true
    },
    {
      "inputs": [],
      "name": "minGrantTime",
      "outputs": [
        {
          "internalType": "uint256",
          "name": "",
          "type": "uint256"
        }
      ],
      "stateMutability": "view",
      "type": "function",
      "constant": true
    },
    {
      "inputs": [],
      "name": "nextEraTime",
      "outputs": [
        {
          "internalType": "uint256",
          "name": "",
          "type": "uint256"
        }
      ],
      "stateMutability": "view",
      "type": "function",
      "constant": true
    },
    {
      "inputs": [],
      "name": "splitForUSDV",
      "outputs": [
        {
          "internalType": "uint256",
          "name": "",
          "type": "uint256"
        }
      ],
      "stateMutability": "view",
      "type": "function",
      "constant": true
    },
    {
      "inputs": [],
      "name": "vaultShare",
      "outputs": [
        {
          "internalType": "uint256",
          "name": "",
          "type": "uint256"
        }
      ],
      "stateMutability": "view",
      "type": "function",
      "constant": true
    },
    {
      "inputs": [
        {
          "internalType": "address",
          "name": "_vader",
          "type": "address"
        }
      ],
      "name": "init",
      "outputs": [],
      "stateMutability": "nonpayable",
      "type": "function"
    },
    {
      "inputs": [
        {
          "internalType": "uint256",
          "name": "newSplit",
          "type": "uint256"
        },
        {
          "internalType": "uint256",
          "name": "newDelay",
          "type": "uint256"
        },
        {
          "internalType": "uint256",
          "name": "newShare",
          "type": "uint256"
        }
      ],
      "name": "setParams",
      "outputs": [],
      "stateMutability": "nonpayable",
      "type": "function"
    },
    {
      "inputs": [
        {
          "internalType": "address",
          "name": "recipient",
          "type": "address"
        },
        {
          "internalType": "uint256",
          "name": "amount",
          "type": "uint256"
        }
      ],
      "name": "grant",
      "outputs": [],
      "stateMutability": "nonpayable",
      "type": "function"
    },
    {
      "inputs": [
        {
          "internalType": "address",
          "name": "base",
          "type": "address"
        },
        {
          "internalType": "address",
          "name": "recipient",
          "type": "address"
        },
        {
          "internalType": "uint256",
          "name": "amount",
          "type": "uint256"
        }
      ],
      "name": "requestFunds",
      "outputs": [
        {
          "internalType": "uint256",
          "name": "",
          "type": "uint256"
        }
      ],
      "stateMutability": "nonpayable",
      "type": "function"
    },
    {
      "inputs": [
        {
          "internalType": "address",
          "name": "base",
          "type": "address"
        },
        {
          "internalType": "address",
          "name": "recipient",
          "type": "address"
        },
        {
          "internalType": "uint256",
          "name": "amount",
          "type": "uint256"
        }
      ],
      "name": "requestFundsStrict",
      "outputs": [
        {
          "internalType": "uint256",
          "name": "",
          "type": "uint256"
        }
      ],
      "stateMutability": "nonpayable",
      "type": "function"
    },
    {
      "inputs": [],
      "name": "checkReserve",
      "outputs": [],
      "stateMutability": "nonpayable",
      "type": "function"
    },
    {
      "inputs": [],
      "name": "getVaultReward",
      "outputs": [
        {
          "internalType": "uint256",
          "name": "",
          "type": "uint256"
        }
      ],
      "stateMutability": "view",
      "type": "function",
      "constant": true
    },
    {
      "inputs": [],
      "name": "reserveVADER",
      "outputs": [
        {
          "internalType": "uint256",
          "name": "",
          "type": "uint256"
        }
      ],
      "stateMutability": "view",
      "type": "function",
      "constant": true
    },
    {
      "inputs": [],
      "name": "reserveUSDV",
      "outputs": [
        {
          "internalType": "uint256",
          "name": "",
          "type": "uint256"
        }
      ],
      "stateMutability": "view",
      "type": "function",
      "constant": true
    },
    {
      "inputs": [],
      "name": "unallocatedVADER",
      "outputs": [
        {
          "internalType": "uint256",
          "name": "amount",
          "type": "uint256"
        }
      ],
      "stateMutability": "view",
      "type": "function",
      "constant": true
    }
  ],
  "bytecode": "0x608060405234801561001057600080fd5b5062278d006002908155611a2c60045560065561155d806100326000396000f3fe608060405234801561001057600080fd5b506004361061011b5760003560e01c8063732e86fe116100b2578063d6a6a1c711610081578063de6ad44e11610066578063de6ad44e14610204578063e1ac7cfe1461020c578063f22454aa146102145761011b565b8063d6a6a1c7146101f3578063d9ded2cc146101fc5761011b565b8063732e86fe146101c65780637eabe37d146101cf578063a4b82cb6146101d7578063a76a50d4146101e05761011b565b80635a0ce676116100ee5780635a0ce6761461018557806362cea340146101985780636370920e146101a05780636a529026146101b35761011b565b80630168131514610120578063090bbb011461015057806319ab453c1461016757806323ee27921461017c575b600080fd5b600054610133906001600160a01b031681565b6040516001600160a01b0390911681526020015b60405180910390f35b61015960035481565b604051908152602001610147565b61017a6101753660046112bd565b61021d565b005b61015960045481565b61017a610193366004611398565b6103ae565b61015961044c565b61017a6101ae366004611335565b6104e8565b6101596101c13660046112f5565b6106a4565b61015960065481565b61015961073e565b61015960015481565b6101596101ee3660046112f5565b610775565b61015960055481565b610159610894565b6101596108ab565b61017a6108fc565b61015960025481565b6000546001600160a01b03166103ab57600080547fffffffffffffffffffffffff0000000000000000000000000000000000000000166001600160a01b038316908117909155604080517f6b92a3b60000000000000000000000000000000000000000000000000000000081529051636b92a3b691600480820192602092909190829003018186803b1580156102b257600080fd5b505afa1580156102c6573d6000803e3d6000fd5b505050506040513d601f19601f820116820180604052508101906102ea9190611380565b6102f49042611430565b6003556000546001600160a01b031663095ea7b3610310610b10565b6040517fffffffff0000000000000000000000000000000000000000000000000000000060e084901b1681526001600160a01b0390911660048201526000196024820152604401602060405180830381600087803b15801561037157600080fd5b505af1158015610385573d6000803e3d6000fd5b505050506040513d601f19601f820116820180604052508101906103a99190611360565b505b50565b6103b6610c07565b6001600160a01b0316336001600160a01b031614806103ed57506103d8610c56565b6001600160a01b0316336001600160a01b0316145b61043e5760405162461bcd60e51b815260206004820152601160248201527f2144414f202626202154494d454c4f434b00000000000000000000000000000060448201526064015b60405180910390fd5b600492909255600255600655565b600080546040517f70a082310000000000000000000000000000000000000000000000000000000081523060048201526001600160a01b03909116906370a08231906024015b60206040518083038186803b1580156104aa57600080fd5b505afa1580156104be573d6000803e3d6000fd5b505050506040513d601f19601f820116820180604052508101906104e29190611380565b90505b90565b6104f0610c07565b6001600160a01b0316336001600160a01b031614806105275750610512610c56565b6001600160a01b0316336001600160a01b0316145b6105735760405162461bcd60e51b815260206004820152601160248201527f2144414f202626202154494d454c4f434b0000000000000000000000000000006044820152606401610435565b60025460015461058390426114a0565b10156105d15760405162461bcd60e51b815260206004820152600c60248201527f6e6f7420746f6f206661737400000000000000000000000000000000000000006044820152606401610435565b426001556000600a6105e16108ab565b6105eb9190611448565b9050808211156105f9578091505b610601610b10565b6040517fa9059cbb0000000000000000000000000000000000000000000000000000000081526001600160a01b03858116600483015260248201859052919091169063a9059cbb90604401602060405180830381600087803b15801561066657600080fd5b505af115801561067a573d6000803e3d6000fd5b505050506040513d601f19601f8201168201806040525081019061069e9190611360565b50505050565b60006106af33610d15565b6106b857600080fd5b6106c06108fc565b600080546001600160a01b03868116911614156106e6576106df61044c565b9050610712565b6106ee610b10565b6001600160a01b0316856001600160a01b031614156107125761070f6108ab565b90505b8083111561071e578092505b6107326001600160a01b0386168585610d87565b829150505b9392505050565b600060055461074b61044c565b10156107605761075961044c565b90506104e5565b60055461076b61044c565b6104e291906114a0565b600061078033610d15565b61078957600080fd5b6107916108fc565b6000546001600160a01b038581169116141561080257816107b061044c565b116107fd5760405162461bcd60e51b815260206004820152601a60248201527f496e73756666696369656e7420564144455220526573657276650000000000006044820152606401610435565b610879565b61080a610b10565b6001600160a01b0316846001600160a01b03161415610879578161082c6108ab565b116108795760405162461bcd60e51b815260206004820152601960248201527f496e73756666696369656e7420555344562052657365727665000000000000006044820152606401610435565b61088d6001600160a01b0385168484610d87565b5092915050565b60006006546108a16108ab565b6104e29190611448565b60006108b5610b10565b6040517f70a082310000000000000000000000000000000000000000000000000000000081523060048201526001600160a01b0391909116906370a0823190602401610492565b61090533610d15565b61090e57600080fd5b600354421015801561099f575060008054906101000a90046001600160a01b03166001600160a01b0316630781f4d26040518163ffffffff1660e01b815260040160206040518083038186803b15801561096757600080fd5b505afa15801561097b573d6000803e3d6000fd5b505050506040513d601f19601f8201168201806040525081019061099f9190611360565b15610b0e5760008054906101000a90046001600160a01b03166001600160a01b0316636b92a3b66040518163ffffffff1660e01b815260040160206040518083038186803b1580156109f057600080fd5b505afa158015610a04573d6000803e3d6000fd5b505050506040513d601f19601f82011682018060405250810190610a289190611380565b610a329042611430565b6003556000610a3f61073e565b905060028110610b0157600061271060045483610a5c9190611481565b610a669190611448565b6000546040517f3549b77c000000000000000000000000000000000000000000000000000000008152600481018390529192506001600160a01b031690633549b77c90602401602060405180830381600087803b158015610ac657600080fd5b505af1158015610ada573d6000803e3d6000fd5b505050506040513d601f19601f82011682018060405250810190610afe9190611380565b50505b610b0961044c565b600555505b565b60008060009054906101000a90046001600160a01b03166001600160a01b03166398fabd3a6040518163ffffffff1660e01b815260040160206040518083038186803b158015610b5f57600080fd5b505afa158015610b73573d6000803e3d6000fd5b505050506040513d601f19601f82011682018060405250810190610b9791906112d9565b6001600160a01b031663e2c3b0466040518163ffffffff1660e01b815260040160206040518083038186803b158015610bcf57600080fd5b505afa158015610be3573d6000803e3d6000fd5b505050506040513d601f19601f820116820180604052508101906104e291906112d9565b60008060009054906101000a90046001600160a01b03166001600160a01b03166398fabd3a6040518163ffffffff1660e01b815260040160206040518083038186803b158015610bcf57600080fd5b60008060009054906101000a90046001600160a01b03166001600160a01b03166398fabd3a6040518163ffffffff1660e01b815260040160206040518083038186803b158015610ca557600080fd5b505afa158015610cb9573d6000803e3d6000fd5b505050506040513d601f19601f82011682018060405250810190610cdd91906112d9565b6001600160a01b0316637aadef8b6040518163ffffffff1660e01b815260040160206040518083038186803b158015610bcf57600080fd5b6000610d1f610e0c565b6001600160a01b0316826001600160a01b03161480610d565750610d41610ecb565b6001600160a01b0316826001600160a01b0316145b80610d795750610d64610f8a565b6001600160a01b0316826001600160a01b0316145b15610d82575060015b919050565b604080516001600160a01b038416602482015260448082018490528251808303909101815260649091019091526020810180517bffffffffffffffffffffffffffffffffffffffffffffffffffffffff167fa9059cbb00000000000000000000000000000000000000000000000000000000179052610e07908490611049565b505050565b60008060009054906101000a90046001600160a01b03166001600160a01b03166398fabd3a6040518163ffffffff1660e01b815260040160206040518083038186803b158015610e5b57600080fd5b505afa158015610e6f573d6000803e3d6000fd5b505050506040513d601f19601f82011682018060405250810190610e9391906112d9565b6001600160a01b031663411557d16040518163ffffffff1660e01b815260040160206040518083038186803b158015610bcf57600080fd5b60008060009054906101000a90046001600160a01b03166001600160a01b03166398fabd3a6040518163ffffffff1660e01b815260040160206040518083038186803b158015610f1a57600080fd5b505afa158015610f2e573d6000803e3d6000fd5b505050506040513d601f19601f82011682018060405250810190610f5291906112d9565b6001600160a01b03166332fe7b266040518163ffffffff1660e01b815260040160206040518083038186803b158015610bcf57600080fd5b60008060009054906101000a90046001600160a01b03166001600160a01b03166398fabd3a6040518163ffffffff1660e01b815260040160206040518083038186803b158015610fd957600080fd5b505afa158015610fed573d6000803e3d6000fd5b505050506040513d601f19601f8201168201806040525081019061101191906112d9565b6001600160a01b03166338a1046d6040518163ffffffff1660e01b815260040160206040518083038186803b158015610bcf57600080fd5b600061109e826040518060400160405280602081526020017f5361666545524332303a206c6f772d6c6576656c2063616c6c206661696c6564815250856001600160a01b031661112e9092919063ffffffff16565b805190915015610e0757808060200190518101906110bc9190611360565b610e075760405162461bcd60e51b815260206004820152602a60248201527f5361666545524332303a204552433230206f7065726174696f6e20646964206e60448201527f6f742073756363656564000000000000000000000000000000000000000000006064820152608401610435565b606061113d8484600085611145565b949350505050565b6060824710156111bd5760405162461bcd60e51b815260206004820152602660248201527f416464726573733a20696e73756666696369656e742062616c616e636520666f60448201527f722063616c6c00000000000000000000000000000000000000000000000000006064820152608401610435565b843b61120b5760405162461bcd60e51b815260206004820152601d60248201527f416464726573733a2063616c6c20746f206e6f6e2d636f6e74726163740000006044820152606401610435565b600080866001600160a01b0316858760405161122791906113c3565b60006040518083038185875af1925050503d8060008114611264576040519150601f19603f3d011682016040523d82523d6000602084013e611269565b606091505b5091509150611279828286611284565b979650505050505050565b60608315611293575081610737565b8251156112a35782518084602001fd5b8160405162461bcd60e51b815260040161043591906113df565b6000602082840312156112ce578081fd5b813561073781611512565b6000602082840312156112ea578081fd5b815161073781611512565b600080600060608486031215611309578182fd5b833561131481611512565b9250602084013561132481611512565b929592945050506040919091013590565b60008060408385031215611347578182fd5b823561135281611512565b946020939093013593505050565b600060208284031215611371578081fd5b81518015158114610737578182fd5b600060208284031215611391578081fd5b5051919050565b6000806000606084860312156113ac578283fd5b505081359360208301359350604090920135919050565b600082516113d58184602087016114b7565b9190910192915050565b60006020825282518060208401526113fe8160408501602087016114b7565b601f017fffffffffffffffffffffffffffffffffffffffffffffffffffffffffffffffe0169190910160400192915050565b60008219821115611443576114436114e3565b500190565b60008261147c577f4e487b710000000000000000000000000000000000000000000000000000000081526012600452602481fd5b500490565b600081600019048311821515161561149b5761149b6114e3565b500290565b6000828210156114b2576114b26114e3565b500390565b60005b838110156114d25781810151838201526020016114ba565b8381111561069e5750506000910152565b7f4e487b7100000000000000000000000000000000000000000000000000000000600052601160045260246000fd5b6001600160a01b03811681146103ab57600080fdfea26469706673582212204c908c712210db327fbb4e1002c1b40cd0b5c8c44cf5623e232702e3f9acde1964736f6c63430008030033",
  "immutableReferences": {},
  "source": "// SPDX-License-Identifier: UNLICENSED\r\npragma solidity 0.8.3;\r\n\r\n// Interfaces\r\nimport \"./interfaces/SafeERC20.sol\";\r\nimport \"./interfaces/iERC20.sol\";\r\nimport \"./interfaces/iDAO.sol\";\r\nimport \"./interfaces/iVADER.sol\";\r\nimport \"./interfaces/iUSDV.sol\";\r\n\r\ncontract Reserve {\r\n    using SafeERC20 for ExternalERC20;\r\n\r\n    address public VADER;\r\n\r\n    uint256 public lastGranted;\r\n    uint256 public minGrantTime;\r\n\r\n    uint256 public nextEraTime;\r\n    uint256 public splitForUSDV;\r\n    uint256 public allocatedVADER;\r\n    uint256 public vaultShare;\r\n\r\n    // Only DAO can execute\r\n    modifier onlyDAO() {\r\n        require(msg.sender == DAO(), \"!DAO\");\r\n        _;\r\n    }\r\n    // Only TIMELOCK can execute\r\n    modifier onlyTIMELOCK() {\r\n        require(msg.sender == TIMELOCK(), \"!TIMELOCK\");\r\n        _;\r\n    }\r\n    // Only DAO&&TIMELOCK can execute\r\n    modifier onlyDAOandTIMELOCK() {\r\n        require(msg.sender == DAO() || msg.sender == TIMELOCK(), \"!DAO && !TIMELOCK\");\r\n        _;\r\n    }\r\n    // Only DAO can execute\r\n    modifier onlySystem() {\r\n        require(isPermitted(msg.sender));\r\n        _;\r\n    }\r\n\r\n    function isPermitted(address _address) private view returns(bool _permitted){\r\n        if(_address == VAULT() || _address == ROUTER() || _address == LENDER()){\r\n            _permitted = true;\r\n        }\r\n    }\r\n\r\n    //=====================================CREATION=========================================//\r\n \r\n    constructor() {\r\n        minGrantTime = 2592000;\r\n        splitForUSDV = 6700;\r\n        vaultShare = 2;\r\n    }\r\n\r\n    // Can only be called once\r\n    function init(address _vader) external {\r\n        if(VADER == address(0)){\r\n            VADER = _vader;\r\n            nextEraTime = block.timestamp + iVADER(VADER).secondsPerEra();\r\n            iERC20(VADER).approve(USDV(), type(uint).max);\r\n        }\r\n    }\r\n    \r\n    //=========================================DAO=========================================//\r\n\r\n    function setParams(uint256 newSplit, uint256 newDelay, uint256 newShare) external onlyDAOandTIMELOCK {\r\n        splitForUSDV = newSplit;\r\n        minGrantTime = newDelay;\r\n        vaultShare = newShare;\r\n    }\r\n\r\n    // Can issue grants\r\n    function grant(address recipient, uint256 amount) public onlyDAOandTIMELOCK {\r\n        require((block.timestamp - lastGranted) >= minGrantTime, \"not too fast\");\r\n        lastGranted = block.timestamp;\r\n        uint256 _reserveForGrant = reserveUSDV() / 10;\r\n        if(amount > _reserveForGrant){\r\n            amount = _reserveForGrant;\r\n        }\r\n        iERC20(USDV()).transfer(recipient, amount); // safeErc20 not needed; USDV trusted\r\n    }\r\n\r\n    //======================================RESERVE SPlIT========================================//\r\n\r\n    // System addresses can request an amount up to the balance\r\n    function requestFunds(address base, address recipient, uint256 amount) external onlySystem returns(uint256) {\r\n        checkReserve();\r\n        uint256 _reserve;\r\n        if (base == VADER) {\r\n            _reserve = reserveVADER();\r\n        } else if (base == USDV()) {\r\n            _reserve = reserveUSDV();\r\n        }\r\n        if (amount > _reserve) {\r\n            amount = _reserve;\r\n        }\r\n        ExternalERC20(base).safeTransfer(recipient, amount);\r\n        return amount;\r\n    }\r\n\r\n    // System addresses can request an amount up to the balance\r\n    function requestFundsStrict(address base, address recipient, uint256 amount) external onlySystem returns(uint256) {\r\n        checkReserve();\r\n        if(base == VADER) {\r\n            require(reserveVADER() > amount, \"Insufficient VADER Reserve\");\r\n        } else if(base == USDV()) {\r\n            require(reserveUSDV() > amount, \"Insufficient USDV Reserve\");\r\n        }\r\n        ExternalERC20(base).safeTransfer(recipient, amount);\r\n        return amount;\r\n    }\r\n\r\n    // Internal - Update Reserve function\r\n    // Anchor (VADER): 33%\r\n    // Asset && VAULT (USDV()): 67%\r\n    function checkReserve() public onlySystem {\r\n        if (block.timestamp >= nextEraTime && iVADER(VADER).emitting()) {\r\n            // If new Era\r\n            nextEraTime = block.timestamp + iVADER(VADER).secondsPerEra();\r\n            uint256 _unallocatedVADER = unallocatedVADER(); // Get unallocated VADER\r\n            if (_unallocatedVADER >= 2) {\r\n                uint256 _USDVShare = (_unallocatedVADER * splitForUSDV) / 10000; // Get 67%\r\n                iVADER(VADER).convertToUSDV(_USDVShare); // Convert it to USDV()\r\n            }\r\n            allocatedVADER = reserveVADER(); // The remaining VADER is now allocated\r\n        }\r\n    }\r\n\r\n    function getVaultReward() external view returns(uint256) {\r\n        return reserveUSDV() / vaultShare;\r\n    }\r\n\r\n    //=========================================HELPERS=========================================//\r\n\r\n    function reserveVADER() public view returns (uint256) {\r\n        return iERC20(VADER).balanceOf(address(this));\r\n    }\r\n\r\n    function reserveUSDV() public view returns (uint256) {\r\n        return iERC20(USDV()).balanceOf(address(this));\r\n    }\r\n\r\n    function unallocatedVADER() public view returns (uint256 amount) {\r\n        if(reserveVADER() < allocatedVADER){\r\n            amount = reserveVADER();\r\n        } else {\r\n            amount = reserveVADER() - allocatedVADER;\r\n        }\r\n    }\r\n\r\n    //============================== HELPERS ================================//\r\n\r\n    function DAO() internal view returns(address){\r\n        return iVADER(VADER).DAO();\r\n    }\r\n    function USDV() internal view returns(address){\r\n        return iDAO(iVADER(VADER).DAO()).USDV();\r\n    }\r\n    function VAULT() internal view returns(address){\r\n        return iDAO(iVADER(VADER).DAO()).VAULT();\r\n    }\r\n    function ROUTER() internal view returns(address){\r\n        return iDAO(iVADER(VADER).DAO()).ROUTER();\r\n    }\r\n    function LENDER() internal view returns(address){\r\n        return iDAO(iVADER(VADER).DAO()).LENDER();\r\n    }\r\n    function TIMELOCK() internal view returns(address){\r\n        return iDAO(iVADER(VADER).DAO()).TIMELOCK();\r\n    }\r\n\r\n}\r\n",
  "sourcePath": "E:/Web Workspace/Vader Protocol/vaderprotocol-contracts/contracts/Reserve.sol",
  "compiler": {
    "name": "solc",
    "version": "0.8.3+commit.8d00100c.Emscripten.clang"
  },
  "schemaVersion": "3.4.0",
  "updatedAt": "2021-06-03T02:05:34.834Z",
  "networkType": "ethereum",
  "devdoc": {
    "kind": "dev",
    "methods": {},
    "version": 1
  },
  "userdoc": {
    "kind": "user",
    "methods": {},
    "version": 1
  }
}