{
  "contractName": "Router",
  "abi": [
    {
      "inputs": [
        {
          "internalType": "address",
          "name": "_vader",
          "type": "address"
        }
      ],
      "stateMutability": "nonpayable",
      "type": "constructor"
    },
    {
      "anonymous": false,
      "inputs": [
        {
          "indexed": true,
          "internalType": "address",
          "name": "curator",
          "type": "address"
        },
        {
          "indexed": true,
          "internalType": "address",
          "name": "token",
          "type": "address"
        }
      ],
      "name": "Curated",
      "type": "event"
    },
    {
      "anonymous": false,
      "inputs": [
        {
          "indexed": true,
          "internalType": "address",
          "name": "base",
          "type": "address"
        },
        {
          "indexed": true,
          "internalType": "address",
          "name": "token",
          "type": "address"
        },
        {
          "indexed": false,
          "internalType": "uint256",
          "name": "amount",
          "type": "uint256"
        }
      ],
      "name": "PoolReward",
      "type": "event"
    },
    {
      "inputs": [],
      "name": "VADER",
      "outputs": [
        {
          "internalType": "address",
          "name": "",
          "type": "address"
        }
      ],
      "stateMutability": "view",
      "type": "function",
      "constant": true
    },
    {
      "inputs": [],
      "name": "accumulatedPrice",
      "outputs": [
        {
          "internalType": "uint256",
          "name": "",
          "type": "uint256"
        }
      ],
      "stateMutability": "view",
      "type": "function",
      "constant": true
    },
    {
      "inputs": [],
      "name": "anchorLimit",
      "outputs": [
        {
          "internalType": "uint256",
          "name": "",
          "type": "uint256"
        }
      ],
      "stateMutability": "view",
      "type": "function",
      "constant": true
    },
    {
      "inputs": [
        {
          "internalType": "uint256",
          "name": "",
          "type": "uint256"
        }
      ],
      "name": "arrayAnchors",
      "outputs": [
        {
          "internalType": "address",
          "name": "",
          "type": "address"
        }
      ],
      "stateMutability": "view",
      "type": "function",
      "constant": true
    },
    {
      "inputs": [
        {
          "internalType": "uint256",
          "name": "",
          "type": "uint256"
        }
      ],
      "name": "arrayPrices",
      "outputs": [
        {
          "internalType": "uint256",
          "name": "",
          "type": "uint256"
        }
      ],
      "stateMutability": "view",
      "type": "function",
      "constant": true
    },
    {
      "inputs": [],
      "name": "cachedIntervalAccumulatedPrice",
      "outputs": [
        {
          "internalType": "uint256",
          "name": "",
          "type": "uint256"
        }
      ],
      "stateMutability": "view",
      "type": "function",
      "constant": true
    },
    {
      "inputs": [],
      "name": "cachedIntervalTime",
      "outputs": [
        {
          "internalType": "uint256",
          "name": "",
          "type": "uint256"
        }
      ],
      "stateMutability": "view",
      "type": "function",
      "constant": true
    },
    {
      "inputs": [],
      "name": "curatedPoolCount",
      "outputs": [
        {
          "internalType": "uint256",
          "name": "",
          "type": "uint256"
        }
      ],
      "stateMutability": "view",
      "type": "function",
      "constant": true
    },
    {
      "inputs": [],
      "name": "curatedPoolLimit",
      "outputs": [
        {
          "internalType": "uint256",
          "name": "",
          "type": "uint256"
        }
      ],
      "stateMutability": "view",
      "type": "function",
      "constant": true
    },
    {
      "inputs": [],
      "name": "insidePriceLimit",
      "outputs": [
        {
          "internalType": "uint256",
          "name": "",
          "type": "uint256"
        }
      ],
      "stateMutability": "view",
      "type": "function",
      "constant": true
    },
    {
      "inputs": [],
      "name": "intervalTWAP",
      "outputs": [
        {
          "internalType": "uint256",
          "name": "",
          "type": "uint256"
        }
      ],
      "stateMutability": "view",
      "type": "function",
      "constant": true
    },
    {
      "inputs": [],
      "name": "lastUpdatedTime",
      "outputs": [
        {
          "internalType": "uint256",
          "name": "",
          "type": "uint256"
        }
      ],
      "stateMutability": "view",
      "type": "function",
      "constant": true
    },
    {
      "inputs": [
        {
          "internalType": "address",
          "name": "",
          "type": "address"
        }
      ],
      "name": "mapAnchorAddress_arrayAnchorsIndex1",
      "outputs": [
        {
          "internalType": "uint256",
          "name": "",
          "type": "uint256"
        }
      ],
      "stateMutability": "view",
      "type": "function",
      "constant": true
    },
    {
      "inputs": [
        {
          "internalType": "address",
          "name": "",
          "type": "address"
        },
        {
          "internalType": "address",
          "name": "",
          "type": "address"
        }
      ],
      "name": "mapMemberToken_depositBase",
      "outputs": [
        {
          "internalType": "uint256",
          "name": "",
          "type": "uint256"
        }
      ],
      "stateMutability": "view",
      "type": "function",
      "constant": true
    },
    {
      "inputs": [
        {
          "internalType": "address",
          "name": "",
          "type": "address"
        },
        {
          "internalType": "address",
          "name": "",
          "type": "address"
        }
      ],
      "name": "mapMemberToken_depositToken",
      "outputs": [
        {
          "internalType": "uint256",
          "name": "",
          "type": "uint256"
        }
      ],
      "stateMutability": "view",
      "type": "function",
      "constant": true
    },
    {
      "inputs": [
        {
          "internalType": "address",
          "name": "",
          "type": "address"
        },
        {
          "internalType": "address",
          "name": "",
          "type": "address"
        }
      ],
      "name": "mapMemberToken_lastDeposited",
      "outputs": [
        {
          "internalType": "uint256",
          "name": "",
          "type": "uint256"
        }
      ],
      "stateMutability": "view",
      "type": "function",
      "constant": true
    },
    {
      "inputs": [],
      "name": "outsidePriceLimit",
      "outputs": [
        {
          "internalType": "uint256",
          "name": "",
          "type": "uint256"
        }
      ],
      "stateMutability": "view",
      "type": "function",
      "constant": true
    },
    {
      "inputs": [],
      "name": "rewardReductionFactor",
      "outputs": [
        {
          "internalType": "uint256",
          "name": "",
          "type": "uint256"
        }
      ],
      "stateMutability": "view",
      "type": "function",
      "constant": true
    },
    {
      "inputs": [],
      "name": "startIntervalAccumulatedPrice",
      "outputs": [
        {
          "internalType": "uint256",
          "name": "",
          "type": "uint256"
        }
      ],
      "stateMutability": "view",
      "type": "function",
      "constant": true
    },
    {
      "inputs": [],
      "name": "startIntervalTime",
      "outputs": [
        {
          "internalType": "uint256",
          "name": "",
          "type": "uint256"
        }
      ],
      "stateMutability": "view",
      "type": "function",
      "constant": true
    },
    {
      "inputs": [],
      "name": "timeForFullProtection",
      "outputs": [
        {
          "internalType": "uint256",
          "name": "",
          "type": "uint256"
        }
      ],
      "stateMutability": "view",
      "type": "function",
      "constant": true
    },
    {
      "inputs": [
        {
          "internalType": "uint256",
          "name": "newFactor",
          "type": "uint256"
        },
        {
          "internalType": "uint256",
          "name": "newTime",
          "type": "uint256"
        },
        {
          "internalType": "uint256",
          "name": "newLimit",
          "type": "uint256"
        },
        {
          "internalType": "uint256",
          "name": "newInterval",
          "type": "uint256"
        }
      ],
      "name": "setParams",
      "outputs": [],
      "stateMutability": "nonpayable",
      "type": "function"
    },
    {
      "inputs": [
        {
          "internalType": "uint256",
          "name": "newLimit",
          "type": "uint256"
        },
        {
          "internalType": "uint256",
          "name": "newInside",
          "type": "uint256"
        },
        {
          "internalType": "uint256",
          "name": "newOutside",
          "type": "uint256"
        }
      ],
      "name": "setAnchorParams",
      "outputs": [],
      "stateMutability": "nonpayable",
      "type": "function"
    },
    {
      "inputs": [
        {
          "internalType": "address",
          "name": "base",
          "type": "address"
        },
        {
          "internalType": "uint256",
          "name": "inputBase",
          "type": "uint256"
        },
        {
          "internalType": "address",
          "name": "token",
          "type": "address"
        },
        {
          "internalType": "uint256",
          "name": "inputToken",
          "type": "uint256"
        }
      ],
      "name": "addLiquidity",
      "outputs": [
        {
          "internalType": "uint256",
          "name": "",
          "type": "uint256"
        }
      ],
      "stateMutability": "nonpayable",
      "type": "function"
    },
    {
      "inputs": [
        {
          "internalType": "address",
          "name": "base",
          "type": "address"
        },
        {
          "internalType": "address",
          "name": "token",
          "type": "address"
        },
        {
          "internalType": "uint256",
          "name": "basisPoints",
          "type": "uint256"
        }
      ],
      "name": "removeLiquidity",
      "outputs": [
        {
          "internalType": "uint256",
          "name": "units",
          "type": "uint256"
        },
        {
          "internalType": "uint256",
          "name": "amountBase",
          "type": "uint256"
        },
        {
          "internalType": "uint256",
          "name": "amountToken",
          "type": "uint256"
        }
      ],
      "stateMutability": "nonpayable",
      "type": "function"
    },
    {
      "inputs": [
        {
          "internalType": "uint256",
          "name": "inputAmount",
          "type": "uint256"
        },
        {
          "internalType": "address",
          "name": "inputToken",
          "type": "address"
        },
        {
          "internalType": "address",
          "name": "outputToken",
          "type": "address"
        }
      ],
      "name": "swap",
      "outputs": [
        {
          "internalType": "uint256",
          "name": "outputAmount",
          "type": "uint256"
        }
      ],
      "stateMutability": "nonpayable",
      "type": "function"
    },
    {
      "inputs": [
        {
          "internalType": "uint256",
          "name": "inputAmount",
          "type": "uint256"
        },
        {
          "internalType": "address",
          "name": "inputToken",
          "type": "address"
        },
        {
          "internalType": "address",
          "name": "outputToken",
          "type": "address"
        },
        {
          "internalType": "uint256",
          "name": "slipLimit",
          "type": "uint256"
        }
      ],
      "name": "swapWithLimit",
      "outputs": [
        {
          "internalType": "uint256",
          "name": "outputAmount",
          "type": "uint256"
        }
      ],
      "stateMutability": "nonpayable",
      "type": "function"
    },
    {
      "inputs": [
        {
          "internalType": "uint256",
          "name": "inputAmount",
          "type": "uint256"
        },
        {
          "internalType": "address",
          "name": "inputToken",
          "type": "address"
        },
        {
          "internalType": "bool",
          "name": "inSynth",
          "type": "bool"
        },
        {
          "internalType": "address",
          "name": "outputToken",
          "type": "address"
        },
        {
          "internalType": "bool",
          "name": "outSynth",
          "type": "bool"
        }
      ],
      "name": "swapWithSynths",
      "outputs": [
        {
          "internalType": "uint256",
          "name": "outputAmount",
          "type": "uint256"
        }
      ],
      "stateMutability": "nonpayable",
      "type": "function"
    },
    {
      "inputs": [
        {
          "internalType": "uint256",
          "name": "inputAmount",
          "type": "uint256"
        },
        {
          "internalType": "address",
          "name": "inputToken",
          "type": "address"
        },
        {
          "internalType": "bool",
          "name": "inSynth",
          "type": "bool"
        },
        {
          "internalType": "address",
          "name": "outputToken",
          "type": "address"
        },
        {
          "internalType": "bool",
          "name": "outSynth",
          "type": "bool"
        },
        {
          "internalType": "uint256",
          "name": "slipLimit",
          "type": "uint256"
        }
      ],
      "name": "swapWithSynthsWithLimit",
      "outputs": [
        {
          "internalType": "uint256",
          "name": "outputAmount",
          "type": "uint256"
        }
      ],
      "stateMutability": "nonpayable",
      "type": "function"
    },
    {
      "inputs": [
        {
          "internalType": "address",
          "name": "member",
          "type": "address"
        },
        {
          "internalType": "address",
          "name": "base",
          "type": "address"
        },
        {
          "internalType": "address",
          "name": "token",
          "type": "address"
        },
        {
          "internalType": "uint256",
          "name": "basisPoints",
          "type": "uint256"
        }
      ],
      "name": "getILProtection",
      "outputs": [
        {
          "internalType": "uint256",
          "name": "protection",
          "type": "uint256"
        }
      ],
      "stateMutability": "view",
      "type": "function",
      "constant": true
    },
    {
      "inputs": [
        {
          "internalType": "address",
          "name": "token",
          "type": "address"
        }
      ],
      "name": "curatePool",
      "outputs": [],
      "stateMutability": "nonpayable",
      "type": "function"
    },
    {
      "inputs": [
        {
          "internalType": "address",
          "name": "oldToken",
          "type": "address"
        },
        {
          "internalType": "address",
          "name": "newToken",
          "type": "address"
        }
      ],
      "name": "replacePool",
      "outputs": [],
      "stateMutability": "nonpayable",
      "type": "function"
    },
    {
      "inputs": [
        {
          "internalType": "address",
          "name": "token",
          "type": "address"
        }
      ],
      "name": "listAnchor",
      "outputs": [],
      "stateMutability": "nonpayable",
      "type": "function"
    },
    {
      "inputs": [
        {
          "internalType": "address",
          "name": "oldToken",
          "type": "address"
        },
        {
          "internalType": "address",
          "name": "newToken",
          "type": "address"
        }
      ],
      "name": "replaceAnchor",
      "outputs": [],
      "stateMutability": "nonpayable",
      "type": "function"
    },
    {
      "inputs": [
        {
          "internalType": "address",
          "name": "token",
          "type": "address"
        }
      ],
      "name": "updateAnchorPrice",
      "outputs": [],
      "stateMutability": "nonpayable",
      "type": "function"
    },
    {
      "inputs": [],
      "name": "updateTWAPPrice",
      "outputs": [],
      "stateMutability": "nonpayable",
      "type": "function"
    },
    {
      "inputs": [],
      "name": "getAnchorPrice",
      "outputs": [
        {
          "internalType": "uint256",
          "name": "anchorPrice",
          "type": "uint256"
        }
      ],
      "stateMutability": "view",
      "type": "function",
      "constant": true
    },
    {
      "inputs": [],
      "name": "getTWAPPrice",
      "outputs": [
        {
          "internalType": "uint256",
          "name": "",
          "type": "uint256"
        }
      ],
      "stateMutability": "view",
      "type": "function",
      "constant": true
    },
    {
      "inputs": [
        {
          "internalType": "uint256",
          "name": "USDVAmount",
          "type": "uint256"
        }
      ],
      "name": "getVADERAmount",
      "outputs": [
        {
          "internalType": "uint256",
          "name": "vaderAmount",
          "type": "uint256"
        }
      ],
      "stateMutability": "view",
      "type": "function",
      "constant": true
    },
    {
      "inputs": [
        {
          "internalType": "uint256",
          "name": "vaderAmount",
          "type": "uint256"
        }
      ],
      "name": "getUSDVAmount",
      "outputs": [
        {
          "internalType": "uint256",
          "name": "USDVAmount",
          "type": "uint256"
        }
      ],
      "stateMutability": "view",
      "type": "function",
      "constant": true
    },
    {
      "inputs": [
        {
          "internalType": "address",
          "name": "token",
          "type": "address"
        }
      ],
      "name": "isBase",
      "outputs": [
        {
          "internalType": "bool",
          "name": "base",
          "type": "bool"
        }
      ],
      "stateMutability": "view",
      "type": "function",
      "constant": true
    },
    {
      "inputs": [],
      "name": "reserveUSDV",
      "outputs": [
        {
          "internalType": "uint256",
          "name": "",
          "type": "uint256"
        }
      ],
      "stateMutability": "view",
      "type": "function",
      "constant": true
    },
    {
      "inputs": [],
      "name": "reserveVADER",
      "outputs": [
        {
          "internalType": "uint256",
          "name": "",
          "type": "uint256"
        }
      ],
      "stateMutability": "view",
      "type": "function",
      "constant": true
    },
    {
      "inputs": [],
      "name": "emitting",
      "outputs": [
        {
          "internalType": "bool",
          "name": "",
          "type": "bool"
        }
      ],
      "stateMutability": "view",
      "type": "function",
      "constant": true
    },
    {
      "inputs": [
        {
          "internalType": "address",
          "name": "token",
          "type": "address"
        }
      ],
      "name": "isCurated",
      "outputs": [
        {
          "internalType": "bool",
          "name": "",
          "type": "bool"
        }
      ],
      "stateMutability": "view",
      "type": "function",
      "constant": true
    },
    {
      "inputs": [
        {
          "internalType": "address",
          "name": "token",
          "type": "address"
        }
      ],
      "name": "isPool",
      "outputs": [
        {
          "internalType": "bool",
          "name": "",
          "type": "bool"
        }
      ],
      "stateMutability": "view",
      "type": "function",
      "constant": true
    },
    {
      "inputs": [
        {
          "internalType": "address",
          "name": "member",
          "type": "address"
        },
        {
          "internalType": "address",
          "name": "token",
          "type": "address"
        }
      ],
      "name": "getMemberBaseDeposit",
      "outputs": [
        {
          "internalType": "uint256",
          "name": "",
          "type": "uint256"
        }
      ],
      "stateMutability": "view",
      "type": "function",
      "constant": true
    },
    {
      "inputs": [
        {
          "internalType": "address",
          "name": "member",
          "type": "address"
        },
        {
          "internalType": "address",
          "name": "token",
          "type": "address"
        }
      ],
      "name": "getMemberTokenDeposit",
      "outputs": [
        {
          "internalType": "uint256",
          "name": "",
          "type": "uint256"
        }
      ],
      "stateMutability": "view",
      "type": "function",
      "constant": true
    },
    {
      "inputs": [
        {
          "internalType": "address",
          "name": "member",
          "type": "address"
        },
        {
          "internalType": "address",
          "name": "token",
          "type": "address"
        }
      ],
      "name": "getMemberLastDeposit",
      "outputs": [
        {
          "internalType": "uint256",
          "name": "",
          "type": "uint256"
        }
      ],
      "stateMutability": "view",
      "type": "function",
      "constant": true
    }
  ],
  "bytecode": "0x60a06040523480156200001157600080fd5b506040516200416a3803806200416a833981016040819052620000349162000079565b60601b6001600160601b031916608052600160008190558080556002556005805560c86006556101f46007556003600b5542600d819055600f819055601155620000a9565b6000602082840312156200008b578081fd5b81516001600160a01b0381168114620000a2578182fd5b9392505050565b60805160601c6140556200011560003960008181610335015281816108d00152818161122b0152818161206b0152818161284601528181612adb01528181612bde01528181612ca901528181612d0401528181612dcf01528181612e9a015261323301526140556000f3fe608060405234801561001057600080fd5b506004361061032b5760003560e01c80636e899aa3116101b2578063d262271d116100f9578063e6048ff8116100a2578063f9b874671161007c578063f9b87467146106d1578063fcf47686146106da578063fdc59b82146106ed578063ff8b83a6146107185761032b565b8063e6048ff814610680578063e8b8cfa014610693578063f550394e146106a65761032b565b8063d8489152116100d3578063d84891521461065c578063de6ad44e14610665578063e2e1e48f1461066d5761032b565b8063d262271d14610613578063d2b433731461061b578063d752fab21461062e5761032b565b8063ae746f021161015b578063ceb1a49311610135578063ceb1a493146105c8578063cf8bc715146105d1578063cfa701c5146105da5761032b565b8063ae746f02146105ad578063bf856895146105b6578063c51cc000146105bf5761032b565b80638bc51e361161018c5780638bc51e361461056657806399a485f51461056f578063a9d1c09e146105825761032b565b80636e899aa314610514578063774d70e4146105275780637ece45e8146105535761032b565b806337785d21116102765780635b16ebb71161021f57806362cea340116101f957806362cea340146104c05780636a87def5146104c85780636cc06ded146105015761032b565b80635b16ebb71461049b5780635ead19e3146104ae5780635edf085a146104b75761032b565b806345263b211161025057806345263b2114610477578063531984381461047f5780635a4dd3f2146104885761032b565b806337785d211461043157806339e68f53146104445780634139f111146104575761032b565b80631df6acfd116102d85780632e2d0856116102b25780632e2d0856146104025780633494c8e814610415578063376d3d5d1461041e5761032b565b80631df6acfd146103d1578063273961e6146103e65780632b7f0923146103ef5761032b565b806317af50e51161030957806317af50e5146103a257806318026396146103b55780631a609827146103be5761032b565b80630168131514610330578063038e5eaa146103745780630781f4d21461038a575b600080fd5b6103577f000000000000000000000000000000000000000000000000000000000000000081565b6040516001600160a01b0390911681526020015b60405180910390f35b61037c610751565b60405190815260200161036b565b6103926108cc565b604051901515815260200161036b565b61037c6103b0366004613c8b565b610965565b61037c60115481565b61037c6103cc366004613cfc565b610986565b6103e46103df366004613ab0565b6109a3565b005b61037c60015481565b61037c6103fd366004613cbb565b610e52565b6103e4610410366004613df9565b610e70565b61037c60055481565b61037c61042c366004613b78565b610f09565b61037c61043f366004613d8a565b61104c565b6103e4610452366004613a78565b611c1c565b61037c610465366004613a78565b600a6020526000908152604090205481565b6103e4611e1c565b61037c60025481565b61037c610496366004613c8b565b611e8f565b6103926104a9366004613a78565b611eb9565b61037c600f5481565b61037c600b5481565b61037c611fcd565b61037c6104d6366004613ab0565b6001600160a01b03918216600090815260146020908152604080832093909416825291909152205490565b61037c61050f366004613c8b565b612047565b610392610522366004613a78565b612067565b610392610535366004613a78565b6001600160a01b031660009081526004602052604090205460ff1690565b6103e4610561366004613e51565b6120c7565b61037c60035481565b61037c61057d366004613d23565b612166565b61037c610590366004613ab0565b601460209081526000928352604080842090915290825290205481565b61037c60065481565b61037c600d5481565b61037c60105481565b61037c600e5481565b61037c60005481565b61037c6105e8366004613ab0565b6001600160a01b03918216600090815260136020908152604080832093909416825291909152205490565b61037c612182565b6103e4610629366004613a78565b6121c2565b61064161063c366004613b38565b61237b565b6040805193845260208401929092529082015260600161036b565b61037c60075481565b61037c612646565b6103e461067b366004613a78565b612688565b61037c61068e366004613ae8565b61278c565b6103e46106a1366004613ab0565b6128b2565b61037c6106b4366004613ab0565b601260209081526000928352604080842090915290825290205481565b61037c600c5481565b6103576106e8366004613c8b565b612aad565b61037c6106fb366004613ab0565b601360209081526000928352604080842090915290825290205481565b61037c610726366004613ab0565b6001600160a01b03918216600090815260126020908152604080832093909416825291909152205490565b600954600090819061076590600290613f30565b90506000610771612ad7565b6001600160a01b031663e379976e60096040518263ffffffff1660e01b815260040161079d9190613e9e565b60006040518083038186803b1580156107b557600080fd5b505afa1580156107c9573d6000803e3d6000fd5b505050506040513d6000823e601f3d908101601f191682016040526107f19190810190613baf565b60095490915061080b57670de0b6b3a764000092506108c7565b600954600190811614156108485780828151811061083957634e487b7160e01b600052603260045260246000fd5b602002602001015192506108c7565b600281610856600185613f8d565b8151811061087457634e487b7160e01b600052603260045260246000fd5b60200260200101516108869190613f30565b60028284815181106108a857634e487b7160e01b600052603260045260246000fd5b60200260200101516108ba9190613f30565b6108c49190613f18565b92505b505090565b60007f00000000000000000000000000000000000000000000000000000000000000006001600160a01b0316630781f4d26040518163ffffffff1660e01b815260040160206040518083038186803b15801561092757600080fd5b505afa15801561093b573d6000803e3d6000fd5b505050506040513d601f19601f8201168201806040525081019061095f9190613c6f565b90505b90565b6009818154811061097557600080fd5b600091825260209091200154905081565b6000610998858560008660008761104c565b90505b949350505050565b816001600160a01b0316816001600160a01b03161415610a0a5760405162461bcd60e51b815260206004820152601160248201527f4e657720746f6b656e206e6f74206e657700000000000000000000000000000060448201526064015b60405180910390fd5b6001600160a01b0382166000908152600a602052604090205480610a705760405162461bcd60e51b815260206004820152601160248201527f4e6f2073756368206f6c6420746f6b656e0000000000000000000000000000006044820152606401610a01565b610a78612bda565b604051636c66769560e11b81526001600160a01b038481166004830152919091169063d8cced2a9060240160206040518083038186803b158015610abb57600080fd5b505afa158015610acf573d6000803e3d6000fd5b505050506040513d601f19601f82011682018060405250810190610af39190613c6f565b610b3f5760405162461bcd60e51b815260206004820152600a60248201527f4e6f7420616e63686f72000000000000000000000000000000000000000000006044820152606401610a01565b610b47612bda565b60405163b34c8afb60e01b81526001600160a01b038581166004830152919091169063b34c8afb9060240160206040518083038186803b158015610b8a57600080fd5b505afa158015610b9e573d6000803e3d6000fd5b505050506040513d601f19601f82011682018060405250810190610bc29190613ca3565b610bca612bda565b60405163b34c8afb60e01b81526001600160a01b038581166004830152919091169063b34c8afb9060240160206040518083038186803b158015610c0d57600080fd5b505afa158015610c21573d6000803e3d6000fd5b505050506040513d601f19601f82011682018060405250810190610c459190613ca3565b11610c925760405162461bcd60e51b815260206004820152600a60248201527f4e6f7420646565706572000000000000000000000000000000000000000000006044820152606401610a01565b610c9a612ad7565b6001600160a01b031663eb7d5ddf846007546000610cb6610751565b6040516001600160e01b031960e087901b1681526001600160a01b039094166004850152602484019290925215156044830152606482015260840160006040518083038186803b158015610d0957600080fd5b505afa158015610d1d573d6000803e3d6000fd5b50505050610d29612ad7565b6001600160a01b031663eb7d5ddf836006546001610d45610751565b6040516001600160e01b031960e087901b1681526001600160a01b039094166004850152602484019290925215156044830152606482015260840160006040518083038186803b158015610d9857600080fd5b505afa158015610dac573d6000803e3d6000fd5b5050506001600160a01b03808516600090815260046020526040808220805460ff199081169091559286168252902080549091166001908117909155839150600890610df89084613f8d565b81548110610e1657634e487b7160e01b600052603260045260246000fd5b9060005260206000200160006101000a8154816001600160a01b0302191690836001600160a01b03160217905550610e4d82612688565b505050565b6000610e668484600085600061271061104c565b90505b9392505050565b610e78612ca5565b6001600160a01b0316336001600160a01b03161480610eaf5750610e9a612d00565b6001600160a01b0316336001600160a01b0316145b610efb5760405162461bcd60e51b815260206004820152601160248201527f2144414f202626202154494d454c4f434b0000000000000000000000000000006044820152606401610a01565b600592909255600655600755565b6000610f13612dcb565b6001600160a01b031663e1ac7cfe6040518163ffffffff1660e01b8152600401600060405180830381600087803b158015610f4d57600080fd5b505af1158015610f61573d6000803e3d6000fd5b505050506000610f718686612e96565b90506000610f7f8585612e96565b9050610f8d33868484613189565b610f95611e1c565b610f9d612bda565b6040517ffde3b2650000000000000000000000000000000000000000000000000000000081526001600160a01b0389811660048301528781166024830152336044830152919091169063fde3b26590606401602060405180830381600087803b15801561100957600080fd5b505af115801561101d573d6000803e3d6000fd5b505050506040513d601f19601f820116820180604052508101906110419190613ca3565b979650505050505050565b6000611056611e1c565b338561106c576110668789612e96565b50611115565b611113611077612bda565b6040517fdcec81160000000000000000000000000000000000000000000000000000000081526001600160a01b038a81166004830152919091169063dcec811690602401602060405180830381600087803b1580156110d557600080fd5b505af11580156110e9573d6000803e3d6000fd5b505050506040513d601f19601f8201168201806040525081019061110d9190613a94565b89612e96565b505b600061111f612bda565b604051636c66769560e11b81526001600160a01b038a81166004830152919091169063d8cced2a9060240160206040518083038186803b15801561116257600080fd5b505afa158015611176573d6000803e3d6000fd5b505050506040513d601f19601f8201168201806040525081019061119a9190613c6f565b8061122357506111a8612bda565b604051636c66769560e11b81526001600160a01b038881166004830152919091169063d8cced2a9060240160206040518083038186803b1580156111eb57600080fd5b505afa1580156111ff573d6000803e3d6000fd5b505050506040513d601f19601f820116820180604052508101906112239190613c6f565b1561124f57507f000000000000000000000000000000000000000000000000000000000000000061125a565b61125761322f565b90505b61126386612067565b156114fb5783611271612ad7565b6001600160a01b0316632db6e4888b611288612bda565b6040517fe6ae1a970000000000000000000000000000000000000000000000000000000081526001600160a01b038e81166004830152919091169063e6ae1a979060240160206040518083038186803b1580156112e457600080fd5b505afa1580156112f8573d6000803e3d6000fd5b505050506040513d601f19601f8201168201806040525081019061131c9190613ca3565b6040516001600160e01b031960e085901b1681526004810192909252602482015260440160206040518083038186803b15801561135857600080fd5b505afa15801561136c573d6000803e3d6000fd5b505050506040513d601f19601f820116820180604052508101906113909190613ca3565b111561139b57600080fd5b86611444576113a8612bda565b60405163efc34aab60e01b81526001600160a01b0383811660048301528a81166024830152848116604483015260016064830152919091169063efc34aab906084015b602060405180830381600087803b15801561140557600080fd5b505af1158015611419573d6000803e3d6000fd5b505050506040513d601f19601f8201168201806040525081019061143d9190613ca3565b92506114f6565b61144c612bda565b6040517fe3adb2f60000000000000000000000000000000000000000000000000000000081526001600160a01b0383811660048301528a811660248301528481166044830152919091169063e3adb2f6906064015b602060405180830381600087803b1580156114bb57600080fd5b505af11580156114cf573d6000803e3d6000fd5b505050506040513d601f19601f820116820180604052508101906114f39190613ca3565b92505b611bea565b61150488612067565b156116d85783611512612ad7565b6001600160a01b0316632db6e4888b611529612bda565b60405163b34c8afb60e01b81526001600160a01b038c81166004830152919091169063b34c8afb9060240160206040518083038186803b15801561156c57600080fd5b505afa158015611580573d6000803e3d6000fd5b505050506040513d601f19601f820116820180604052508101906115a49190613ca3565b6040516001600160e01b031960e085901b1681526004810192909252602482015260440160206040518083038186803b1580156115e057600080fd5b505afa1580156115f4573d6000803e3d6000fd5b505050506040513d601f19601f820116820180604052508101906116189190613ca3565b111561162357600080fd5b8461167757611630612bda565b60405163efc34aab60e01b81526001600160a01b0383811660048301528881166024830152848116604483015260006064830152919091169063efc34aab906084016113eb565b61167f612bda565b6040517fd016347e0000000000000000000000000000000000000000000000000000000081526001600160a01b03838116600483015288811660248301528481166044830152919091169063d016347e906064016114a1565b836116e1612ad7565b6001600160a01b0316632db6e4888b6116f8612bda565b6040517fe6ae1a970000000000000000000000000000000000000000000000000000000081526001600160a01b038e81166004830152919091169063e6ae1a979060240160206040518083038186803b15801561175457600080fd5b505afa158015611768573d6000803e3d6000fd5b505050506040513d601f19601f8201168201806040525081019061178c9190613ca3565b6040516001600160e01b031960e085901b1681526004810192909252602482015260440160206040518083038186803b1580156117c857600080fd5b505afa1580156117dc573d6000803e3d6000fd5b505050506040513d601f19601f820116820180604052508101906118009190613ca3565b111561180b57600080fd5b6000876118c95761181a612bda565b6001600160a01b031663efc34aab838b611832612bda565b60405160e085901b6001600160e01b03191681526001600160a01b0393841660048201529183166024830152909116604482015260016064820152608401602060405180830381600087803b15801561188a57600080fd5b505af115801561189e573d6000803e3d6000fd5b505050506040513d601f19601f820116820180604052508101906118c29190613ca3565b9050611975565b6118d1612bda565b6001600160a01b031663e3adb2f6838b6118e9612bda565b60405160e085901b6001600160e01b03191681526001600160a01b03938416600482015291831660248301529091166044820152606401602060405180830381600087803b15801561193a57600080fd5b505af115801561194e573d6000803e3d6000fd5b505050506040513d601f19601f820116820180604052508101906119729190613ca3565b90505b8461197e612ad7565b6001600160a01b0316632db6e48883611995612bda565b60405163b34c8afb60e01b81526001600160a01b038d81166004830152919091169063b34c8afb9060240160206040518083038186803b1580156119d857600080fd5b505afa1580156119ec573d6000803e3d6000fd5b505050506040513d601f19601f82011682018060405250810190611a109190613ca3565b6040516001600160e01b031960e085901b1681526004810192909252602482015260440160206040518083038186803b158015611a4c57600080fd5b505afa158015611a60573d6000803e3d6000fd5b505050506040513d601f19601f82011682018060405250810190611a849190613ca3565b1115611a8f57600080fd5b85611b3757611a9c612bda565b60405163efc34aab60e01b81526001600160a01b0384811660048301528981166024830152858116604483015260006064830152919091169063efc34aab90608401602060405180830381600087803b158015611af857600080fd5b505af1158015611b0c573d6000803e3d6000fd5b505050506040513d601f19601f82011682018060405250810190611b309190613ca3565b9350611be8565b611b3f612bda565b6040517fd016347e0000000000000000000000000000000000000000000000000000000081526001600160a01b03848116600483015289811660248301528581166044830152919091169063d016347e90606401602060405180830381600087803b158015611bad57600080fd5b505af1158015611bc1573d6000803e3d6000fd5b505050506040513d601f19601f82011682018060405250810190611be59190613ca3565b93505b505b611bf481896132fa565b611bfe81876132fa565b611c078861352f565b611c108661352f565b50509695505050505050565b60055460085410611c2c57600080fd5b611c34612bda565b604051636c66769560e11b81526001600160a01b038381166004830152919091169063d8cced2a9060240160206040518083038186803b158015611c7757600080fd5b505afa158015611c8b573d6000803e3d6000fd5b505050506040513d601f19601f82011682018060405250810190611caf9190613c6f565b611cb857600080fd5b600880546001810182557ff3f7a9fe364faab93b216da50a3214154f22a0a2b415b23a84c8169e8b636ee30180547fffffffffffffffffffffffff0000000000000000000000000000000000000000166001600160a01b03841690811790915590546000918252600a6020526040909120556009611d34612ad7565b6040517fdb39dc790000000000000000000000000000000000000000000000000000000081526001600160a01b038481166004830152670de0b6b3a76400006024830152919091169063db39dc799060440160206040518083038186803b158015611d9e57600080fd5b505afa158015611db2573d6000803e3d6000fd5b505050506040513d601f19601f82011682018060405250810190611dd69190613ca3565b81546001818101845560009384526020808520909201929092556001600160a01b0384168352600490526040909120805460ff19169091179055611e1981612688565b50565b600d544290600090611e2e9083613f8d565b9050611e38610751565b611e429082613f50565b600c6000828254611e539190613f18565b9091555050600d829055600b54601154611e6d9084613f8d565b1115611e8b5760108054600e5560118054600f55600c549091558290555b5050565b600080611e9a612182565b905080611eaf670de0b6b3a764000085613f50565b610e699190613f30565b6000611ec3612bda565b604051636c66769560e11b81526001600160a01b038481166004830152919091169063d8cced2a9060240160206040518083038186803b158015611f0657600080fd5b505afa158015611f1a573d6000803e3d6000fd5b505050506040513d601f19601f82011682018060405250810190611f3e9190613c6f565b80611fc75750611f4c612bda565b60405163643fd21560e11b81526001600160a01b038481166004830152919091169063c87fa42a9060240160206040518083038186803b158015611f8f57600080fd5b505afa158015611fa3573d6000803e3d6000fd5b505050506040513d601f19601f82011682018060405250810190611fc79190613c6f565b92915050565b6000611fd7612dcb565b6001600160a01b03166362cea3406040518163ffffffff1660e01b815260040160206040518083038186803b15801561200f57600080fd5b505afa158015612023573d6000803e3d6000fd5b505050506040513d601f19601f8201168201806040525081019061095f9190613ca3565b600080612052612182565b9050670de0b6b3a7640000611eaf8483613f50565b60007f00000000000000000000000000000000000000000000000000000000000000006001600160a01b0316826001600160a01b03161480611fc757506120ac61322f565b6001600160a01b0316826001600160a01b0316149050919050565b6120cf612ca5565b6001600160a01b0316336001600160a01b0316148061210657506120f1612d00565b6001600160a01b0316336001600160a01b0316145b6121525760405162461bcd60e51b815260206004820152601160248201527f2144414f202626202154494d454c4f434b0000000000000000000000000000006044820152606401610a01565b600093909355600191909155600255600b55565b6000612178868686868661271061104c565b9695505050505050565b60095460009061219b5750670de0b6b3a7640000610962565b600f546121a89042613f8d565b600e54600c546121b89190613f8d565b61095f9190613f30565b6121ca612bda565b60405163643fd21560e11b81526001600160a01b038381166004830152919091169063c87fa42a9060240160206040518083038186803b15801561220d57600080fd5b505afa158015612221573d6000803e3d6000fd5b505050506040513d601f19601f820116820180604052508101906122459190613c6f565b806122ce5750612253612bda565b604051636c66769560e11b81526001600160a01b038381166004830152919091169063d8cced2a9060240160206040518083038186803b15801561229657600080fd5b505afa1580156122aa573d6000803e3d6000fd5b505050506040513d601f19601f820116820180604052508101906122ce9190613c6f565b6122d757600080fd5b6001600160a01b03811660009081526004602052604090205460ff16612342576002546003541015612342576001600160a01b0381166000908152600460205260408120805460ff19166001908117909155600380549192909161233c908490613f18565b90915550505b6040516001600160a01b0382169033907fb2f6cc014bc6265032f32972254d5e024ec51ed94c0aaf2280128336be54a04190600090a350565b60008060008061238d3388888861278c565b905080156125225761239d612dcb565b6001600160a01b0316636a529026886123b4612bda565b6040516001600160e01b031960e085901b1681526001600160a01b0392831660048201529116602482015260448101849052606401602060405180830381600087803b15801561240357600080fd5b505af1158015612417573d6000803e3d6000fd5b505050506040513d601f19601f8201168201806040525081019061243b9190613ca3565b50612444612bda565b6040517ffde3b2650000000000000000000000000000000000000000000000000000000081526001600160a01b0389811660048301528881166024830152336044830152919091169063fde3b26590606401602060405180830381600087803b1580156124b057600080fd5b505af11580156124c4573d6000803e3d6000fd5b505050506040513d601f19601f820116820180604052508101906124e89190613ca3565b503360009081526012602090815260408083206001600160a01b038a1684529091528120805483929061251c908490613f18565b90915550505b61252a612bda565b6040517fd752fab20000000000000000000000000000000000000000000000000000000081526001600160a01b038981166004830152888116602483015260448201889052919091169063d752fab290606401606060405180830381600087803b15801561259757600080fd5b505af11580156125ab573d6000803e3d6000fd5b505050506040513d601f19601f820116820180604052508101906125cf9190613e24565b919550935091506125e2338787846135c0565b6125ea612dcb565b6001600160a01b031663e1ac7cfe6040518163ffffffff1660e01b8152600401600060405180830381600087803b15801561262457600080fd5b505af1158015612638573d6000803e3d6000fd5b505050505093509350939050565b6000612650612dcb565b6001600160a01b031663de6ad44e6040518163ffffffff1660e01b815260040160206040518083038186803b15801561200f57600080fd5b6001600160a01b0381166000908152600a60205260409020548015611e8b576126af612ad7565b6040517fdb39dc790000000000000000000000000000000000000000000000000000000081526001600160a01b038481166004830152670de0b6b3a76400006024830152919091169063db39dc799060440160206040518083038186803b15801561271957600080fd5b505afa15801561272d573d6000803e3d6000fd5b505050506040513d601f19601f820116820180604052508101906127519190613ca3565b600961275e600184613f8d565b8154811061277c57634e487b7160e01b600052603260045260246000fd5b6000918252602090912001555050565b6000612796612ad7565b6001546040517f5b0b602d0000000000000000000000000000000000000000000000000000000081526001600160a01b0388811660048301528681166024830152604482018690526064820192909252911690635b0b602d9060840160206040518083038186803b15801561280a57600080fd5b505afa15801561281e573d6000803e3d6000fd5b505050506040513d601f19601f820116820180604052508101906128429190613ca3565b90507f00000000000000000000000000000000000000000000000000000000000000006001600160a01b0316846001600160a01b0316141561289c57612886611fcd565b811061289757612894611fcd565b90505b61099b565b6128a4612646565b811061099b57610998612646565b6128ba612bda565b60405163643fd21560e11b81526001600160a01b038381166004830152919091169063c87fa42a9060240160206040518083038186803b1580156128fd57600080fd5b505afa158015612911573d6000803e3d6000fd5b505050506040513d601f19601f820116820180604052508101906129359190613c6f565b61293e57600080fd5b612946612bda565b60405163b34c8afb60e01b81526001600160a01b038481166004830152919091169063b34c8afb9060240160206040518083038186803b15801561298957600080fd5b505afa15801561299d573d6000803e3d6000fd5b505050506040513d601f19601f820116820180604052508101906129c19190613ca3565b6129c9612bda565b60405163b34c8afb60e01b81526001600160a01b038481166004830152919091169063b34c8afb9060240160206040518083038186803b158015612a0c57600080fd5b505afa158015612a20573d6000803e3d6000fd5b505050506040513d601f19601f82011682018060405250810190612a449190613ca3565b1115611e8b576001600160a01b03808316600090815260046020526040808220805460ff1990811690915592841680835281832080549094166001179093555133917fb2f6cc014bc6265032f32972254d5e024ec51ed94c0aaf2280128336be54a04191a35050565b60088181548110612abd57600080fd5b6000918252602090912001546001600160a01b0316905081565b60007f00000000000000000000000000000000000000000000000000000000000000006001600160a01b03166398fabd3a6040518163ffffffff1660e01b815260040160206040518083038186803b158015612b3257600080fd5b505afa158015612b46573d6000803e3d6000fd5b505050506040513d601f19601f82011682018060405250810190612b6a9190613a94565b6001600160a01b0316637b0e5c456040518163ffffffff1660e01b815260040160206040518083038186803b158015612ba257600080fd5b505afa158015612bb6573d6000803e3d6000fd5b505050506040513d601f19601f8201168201806040525081019061095f9190613a94565b60007f00000000000000000000000000000000000000000000000000000000000000006001600160a01b03166398fabd3a6040518163ffffffff1660e01b815260040160206040518083038186803b158015612c3557600080fd5b505afa158015612c49573d6000803e3d6000fd5b505050506040513d601f19601f82011682018060405250810190612c6d9190613a94565b6001600160a01b031663ebccb5b26040518163ffffffff1660e01b815260040160206040518083038186803b158015612ba257600080fd5b60007f00000000000000000000000000000000000000000000000000000000000000006001600160a01b03166398fabd3a6040518163ffffffff1660e01b815260040160206040518083038186803b158015612ba257600080fd5b60007f00000000000000000000000000000000000000000000000000000000000000006001600160a01b03166398fabd3a6040518163ffffffff1660e01b815260040160206040518083038186803b158015612d5b57600080fd5b505afa158015612d6f573d6000803e3d6000fd5b505050506040513d601f19601f82011682018060405250810190612d939190613a94565b6001600160a01b0316637aadef8b6040518163ffffffff1660e01b815260040160206040518083038186803b158015612ba257600080fd5b60007f00000000000000000000000000000000000000000000000000000000000000006001600160a01b03166398fabd3a6040518163ffffffff1660e01b815260040160206040518083038186803b158015612e2657600080fd5b505afa158015612e3a573d6000803e3d6000fd5b505050506040513d601f19601f82011682018060405250810190612e5e9190613a94565b6001600160a01b0316639d2cc4366040518163ffffffff1660e01b815260040160206040518083038186803b158015612ba257600080fd5b60007f00000000000000000000000000000000000000000000000000000000000000006001600160a01b0316836001600160a01b03161480612ef05750612edb61322f565b6001600160a01b0316836001600160a01b0316145b80612f945750612efe612bda565b6040517f5e0237ea0000000000000000000000000000000000000000000000000000000081526001600160a01b0385811660048301529190911690635e0237ea90602401602060405180830381600087803b158015612f5c57600080fd5b505af1158015612f70573d6000803e3d6000fd5b505050506040513d601f19601f82011682018060405250810190612f949190613c6f565b156130405750806001600160a01b0383166323b872dd33612fb3612bda565b6040516001600160e01b031960e085901b1681526001600160a01b0392831660048201529116602482015260448101859052606401602060405180830381600087803b15801561300257600080fd5b505af1158015613016573d6000803e3d6000fd5b505050506040513d601f19601f8201168201806040525081019061303a9190613c6f565b50611fc7565b6000836001600160a01b03166370a08231613059612bda565b6040516001600160e01b031960e084901b1681526001600160a01b03909116600482015260240160206040518083038186803b15801561309857600080fd5b505afa1580156130ac573d6000803e3d6000fd5b505050506040513d601f19601f820116820180604052508101906130d09190613ca3565b90506130f0336130de612bda565b6001600160a01b03871691908661380a565b80846001600160a01b03166370a08231613108612bda565b6040516001600160e01b031960e084901b1681526001600160a01b03909116600482015260240160206040518083038186803b15801561314757600080fd5b505afa15801561315b573d6000803e3d6000fd5b505050506040513d601f19601f8201168201806040525081019061317f9190613ca3565b61099b9190613f8d565b6001600160a01b038085166000908152601260209081526040808320938716835292905290812080548492906131c0908490613f18565b90915550506001600160a01b038085166000908152601360209081526040808320938716835292905290812080548392906131fc908490613f18565b9091555050506001600160a01b039283166000908152601460209081526040808320949095168252929092525020429055565b60007f00000000000000000000000000000000000000000000000000000000000000006001600160a01b03166398fabd3a6040518163ffffffff1660e01b815260040160206040518083038186803b15801561328a57600080fd5b505afa15801561329e573d6000803e3d6000fd5b505050506040513d601f19601f820116820180604052508101906132c29190613a94565b6001600160a01b031663e2c3b0466040518163ffffffff1660e01b815260040160206040518083038186803b158015612ba257600080fd5b61330381612067565b611e8b576000613311612ad7565b6000546040517fb4951e4a0000000000000000000000000000000000000000000000000000000081526001600160a01b038581166004830152602482019290925291169063b4951e4a9060440160206040518083038186803b15801561337657600080fd5b505afa15801561338a573d6000803e3d6000fd5b505050506040513d601f19601f820116820180604052508101906133ae9190613ca3565b90506133b8612dcb565b6001600160a01b0316636a529026846133cf612bda565b6040516001600160e01b031960e085901b1681526001600160a01b0392831660048201529116602482015260448101849052606401602060405180830381600087803b15801561341e57600080fd5b505af1158015613432573d6000803e3d6000fd5b505050506040513d601f19601f820116820180604052508101906134569190613ca3565b5061345f612bda565b6040517f3041949b0000000000000000000000000000000000000000000000000000000081526001600160a01b03858116600483015284811660248301529190911690633041949b90604401600060405180830381600087803b1580156134c557600080fd5b505af11580156134d9573d6000803e3d6000fd5b50505050816001600160a01b0316836001600160a01b03167f416b0b234ccd4d6d72c4b1a3a09b472a71981d9bbf0f26ab44774e0e3425fad68360405161352291815260200190565b60405180910390a3505050565b613537612bda565b604051636c66769560e11b81526001600160a01b038381166004830152919091169063d8cced2a9060240160206040518083038186803b15801561357a57600080fd5b505afa15801561358e573d6000803e3d6000fd5b505050506040513d601f19601f820116820180604052508101906135b29190613c6f565b15611e1957611e1981612688565b6001600160a01b038085166000908152601260209081526040808320938716835292905290812080548392906135f7908490613f18565b9091555060009050613607612ad7565b6001600160a01b0386811660009081526012602090815260408083208985168452909152908190205490517f714270ab00000000000000000000000000000000000000000000000000000000815260048101879052602481019190915291169063714270ab9060440160206040518083038186803b15801561368857600080fd5b505afa15801561369c573d6000803e3d6000fd5b505050506040513d601f19601f820116820180604052508101906136c09190613ca3565b905060006136cc612ad7565b6001600160a01b0387811660009081526013602090815260408083208a85168452909152908190205490517f714270ab00000000000000000000000000000000000000000000000000000000815260048101889052602481019190915291169063714270ab9060440160206040518083038186803b15801561374d57600080fd5b505afa158015613761573d6000803e3d6000fd5b505050506040513d601f19601f820116820180604052508101906137859190613ca3565b6001600160a01b038088166000908152601260209081526040808320938a168352929052908120805492935084929091906137c1908490613f8d565b90915550506001600160a01b038087166000908152601360209081526040808320938916835292905290812080548392906137fd908490613f8d565b9091555050505050505050565b604080516001600160a01b0385811660248301528416604482015260648082018490528251808303909101815260849091019091526020810180517bffffffffffffffffffffffffffffffffffffffffffffffffffffffff167f23b872dd00000000000000000000000000000000000000000000000000000000179052613892908590613898565b50505050565b60006138ed826040518060400160405280602081526020017f5361666545524332303a206c6f772d6c6576656c2063616c6c206661696c6564815250856001600160a01b031661397d9092919063ffffffff16565b805190915015610e4d578080602001905181019061390b9190613c6f565b610e4d5760405162461bcd60e51b815260206004820152602a60248201527f5361666545524332303a204552433230206f7065726174696f6e20646964206e60448201527f6f742073756363656564000000000000000000000000000000000000000000006064820152608401610a01565b6060610e66848460008585843b6139d65760405162461bcd60e51b815260206004820152601d60248201527f416464726573733a2063616c6c20746f206e6f6e2d636f6e74726163740000006044820152606401610a01565b600080866001600160a01b031685876040516139f29190613e82565b60006040518083038185875af1925050503d8060008114613a2f576040519150601f19603f3d011682016040523d82523d6000602084013e613a34565b606091505b509150915061104182828660608315613a4e575081610e69565b825115613a5e5782518084602001fd5b8160405162461bcd60e51b8152600401610a019190613ee5565b600060208284031215613a89578081fd5b8135610e6981613ffc565b600060208284031215613aa5578081fd5b8151610e6981613ffc565b60008060408385031215613ac2578081fd5b8235613acd81613ffc565b91506020830135613add81613ffc565b809150509250929050565b60008060008060808587031215613afd578182fd5b8435613b0881613ffc565b93506020850135613b1881613ffc565b92506040850135613b2881613ffc565b9396929550929360600135925050565b600080600060608486031215613b4c578283fd5b8335613b5781613ffc565b92506020840135613b6781613ffc565b929592945050506040919091013590565b60008060008060808587031215613b8d578384fd5b8435613b9881613ffc565b9350602085013592506040850135613b2881613ffc565b60006020808385031215613bc1578182fd5b825167ffffffffffffffff80821115613bd8578384fd5b818501915085601f830112613beb578384fd5b815181811115613bfd57613bfd613fe6565b8060051b604051601f19603f83011681018181108582111715613c2257613c22613fe6565b604052828152858101935084860182860187018a1015613c40578788fd5b8795505b83861015613c62578051855260019590950194938601938601613c44565b5098975050505050505050565b600060208284031215613c80578081fd5b8151610e6981614011565b600060208284031215613c9c578081fd5b5035919050565b600060208284031215613cb4578081fd5b5051919050565b600080600060608486031215613ccf578283fd5b833592506020840135613ce181613ffc565b91506040840135613cf181613ffc565b809150509250925092565b60008060008060808587031215613d11578384fd5b843593506020850135613b1881613ffc565b600080600080600060a08688031215613d3a578081fd5b853594506020860135613d4c81613ffc565b93506040860135613d5c81614011565b92506060860135613d6c81613ffc565b91506080860135613d7c81614011565b809150509295509295909350565b60008060008060008060c08789031215613da2578384fd5b863595506020870135613db481613ffc565b94506040870135613dc481614011565b93506060870135613dd481613ffc565b92506080870135613de481614011565b8092505060a087013590509295509295509295565b600080600060608486031215613e0d578081fd5b505081359360208301359350604090920135919050565b600080600060608486031215613e38578081fd5b8351925060208401519150604084015190509250925092565b60008060008060808587031215613e66578182fd5b5050823594602084013594506040840135936060013592509050565b60008251613e94818460208701613fa4565b9190910192915050565b6020808252825482820181905260008481528281209092916040850190845b81811015613ed957835483526001938401939285019201613ebd565b50909695505050505050565b6000602082528251806020840152613f04816040850160208701613fa4565b601f01601f19169190910160400192915050565b60008219821115613f2b57613f2b613fd0565b500190565b600082613f4b57634e487b7160e01b81526012600452602481fd5b500490565b6000817fffffffffffffffffffffffffffffffffffffffffffffffffffffffffffffffff0483118215151615613f8857613f88613fd0565b500290565b600082821015613f9f57613f9f613fd0565b500390565b60005b83811015613fbf578181015183820152602001613fa7565b838111156138925750506000910152565b634e487b7160e01b600052601160045260246000fd5b634e487b7160e01b600052604160045260246000fd5b6001600160a01b0381168114611e1957600080fd5b8015158114611e1957600080fdfea26469706673582212202889f1677803f019036866ec0c26a34d42c8022c9dcc953bd07ba50404e71c7e64736f6c63430008030033",
  "immutableReferences": {
    "5529": [
      {
        "length": 32,
        "start": 821
      },
      {
        "length": 32,
        "start": 2256
      },
      {
        "length": 32,
        "start": 4651
      },
      {
        "length": 32,
        "start": 8299
      },
      {
        "length": 32,
        "start": 10310
      },
      {
        "length": 32,
        "start": 10971
      },
      {
        "length": 32,
        "start": 11230
      },
      {
        "length": 32,
        "start": 11433
      },
      {
        "length": 32,
        "start": 11524
      },
      {
        "length": 32,
        "start": 11727
      },
      {
        "length": 32,
        "start": 11930
      },
      {
        "length": 32,
        "start": 12851
      }
    ]
  },
  "source": "// SPDX-License-Identifier: UNLICENSED\r\npragma solidity 0.8.3;\r\n\r\n// Interfaces\r\nimport \"./interfaces/SafeERC20.sol\";\r\nimport \"./interfaces/iERC20.sol\";\r\nimport \"./interfaces/iDAO.sol\";\r\nimport \"./interfaces/iUTILS.sol\";\r\nimport \"./interfaces/iVADER.sol\";\r\nimport \"./interfaces/iRESERVE.sol\";\r\nimport \"./interfaces/iPOOLS.sol\";\r\nimport \"./interfaces/iSYNTH.sol\";\r\n\r\nimport \"hardhat/console.sol\";\r\n\r\ncontract Router {\r\n    using SafeERC20 for ExternalERC20;\r\n\r\n    // Parameters\r\n    uint256 private constant one = 10**18;\r\n    uint256 public rewardReductionFactor;\r\n    uint256 public timeForFullProtection;\r\n\r\n    uint256 public curatedPoolLimit;\r\n    uint256 public curatedPoolCount;\r\n    mapping(address => bool) private _isCurated;\r\n\r\n    address public immutable VADER;\r\n\r\n    uint256 public anchorLimit;\r\n    uint256 public insidePriceLimit;\r\n    uint256 public outsidePriceLimit;\r\n    address[] public arrayAnchors;\r\n    uint256[] public arrayPrices;\r\n    mapping(address => uint) public mapAnchorAddress_arrayAnchorsIndex1; // 1-based indexes\r\n\r\n    uint256 public intervalTWAP;\r\n    uint256 public accumulatedPrice;\r\n    uint256 public lastUpdatedTime;\r\n    uint256 public startIntervalAccumulatedPrice;\r\n    uint256 public startIntervalTime;\r\n    uint256 public cachedIntervalAccumulatedPrice;\r\n    uint256 public cachedIntervalTime;\r\n\r\n    mapping(address => mapping(address => uint256)) public mapMemberToken_depositBase;\r\n    mapping(address => mapping(address => uint256)) public mapMemberToken_depositToken;\r\n    mapping(address => mapping(address => uint256)) public mapMemberToken_lastDeposited;\r\n\r\n    event PoolReward(address indexed base, address indexed token, uint256 amount);\r\n    event Curated(address indexed curator, address indexed token);\r\n\r\n    // Only DAO can execute\r\n    modifier onlyDAO() {\r\n        require(msg.sender == DAO(), \"!DAO\");\r\n        _;\r\n    }\r\n    // Only TIMELOCK can execute\r\n    modifier onlyTIMELOCK() {\r\n        require(msg.sender == TIMELOCK(), \"!TIMELOCK\");\r\n        _;\r\n    }\r\n    // Only DAO&&TIMELOCK can execute\r\n    modifier onlyDAOandTIMELOCK() {\r\n        require(msg.sender == DAO() || msg.sender == TIMELOCK(), \"!DAO && !TIMELOCK\");\r\n        _;\r\n    }\r\n\r\n    //=====================================CREATION=========================================//\r\n \r\n    constructor(address _vader) {\r\n        VADER = _vader;\r\n        rewardReductionFactor = 1;\r\n        timeForFullProtection = 1; //8640000; //100 days\r\n        curatedPoolLimit = 1;\r\n        anchorLimit = 5;\r\n        insidePriceLimit = 200;\r\n        outsidePriceLimit = 500;\r\n        intervalTWAP = 3; //6hours\r\n        lastUpdatedTime = block.timestamp;\r\n        startIntervalTime = lastUpdatedTime;\r\n        cachedIntervalTime = startIntervalTime;\r\n    }\r\n\r\n    //=========================================DAO=========================================//\r\n    // Can set params\r\n    function setParams(\r\n        uint256 newFactor,\r\n        uint256 newTime,\r\n        uint256 newLimit,\r\n        uint256 newInterval\r\n    ) external onlyDAOandTIMELOCK {\r\n        rewardReductionFactor = newFactor;\r\n        timeForFullProtection = newTime;\r\n        curatedPoolLimit = newLimit;\r\n        intervalTWAP = newInterval;\r\n    }\r\n\r\n    function setAnchorParams(\r\n        uint256 newLimit,\r\n        uint256 newInside,\r\n        uint256 newOutside\r\n    ) external onlyDAOandTIMELOCK {\r\n        anchorLimit = newLimit;\r\n        insidePriceLimit = newInside;\r\n        outsidePriceLimit = newOutside;\r\n    }\r\n\r\n    //====================================LIQUIDITY=========================================//\r\n\r\n    function addLiquidity(\r\n        address base,\r\n        uint256 inputBase,\r\n        address token,\r\n        uint256 inputToken\r\n    ) external returns (uint256) {\r\n        iRESERVE(RESERVE()).checkReserve();\r\n        uint256 _actualInputBase = moveTokenToPools(base, inputBase);\r\n        uint256 _actualInputToken = moveTokenToPools(token, inputToken);\r\n        addDepositData(msg.sender, token, _actualInputBase, _actualInputToken);\r\n        updateTWAPPrice();\r\n        return iPOOLS(POOLS()).addLiquidity(base, token, msg.sender);\r\n    }\r\n\r\n    function removeLiquidity(\r\n        address base,\r\n        address token,\r\n        uint256 basisPoints\r\n    ) external returns (uint256 units, uint256 amountBase, uint256 amountToken) {\r\n        uint256 _protection = getILProtection(msg.sender, base, token, basisPoints);\r\n        if(_protection > 0){\r\n            iRESERVE(RESERVE()).requestFunds(base, POOLS(), _protection);\r\n            iPOOLS(POOLS()).addLiquidity(base, token, msg.sender);\r\n            mapMemberToken_depositBase[msg.sender][token] += _protection;\r\n        }\r\n        (units, amountBase, amountToken) = iPOOLS(POOLS()).removeLiquidity(base, token, basisPoints);\r\n        removeDepositData(msg.sender, token, basisPoints, _protection);\r\n        iRESERVE(RESERVE()).checkReserve();\r\n    }\r\n\r\n    //=======================================SWAP===========================================//\r\n\r\n    function swap(\r\n        uint256 inputAmount,\r\n        address inputToken,\r\n        address outputToken\r\n    ) external returns (uint256 outputAmount) {\r\n        return swapWithSynthsWithLimit(inputAmount, inputToken, false, outputToken, false, 10000);\r\n    }\r\n\r\n    function swapWithLimit(\r\n        uint256 inputAmount,\r\n        address inputToken,\r\n        address outputToken,\r\n        uint256 slipLimit\r\n    ) external returns (uint256 outputAmount) {\r\n        return swapWithSynthsWithLimit(inputAmount, inputToken, false, outputToken, false, slipLimit);\r\n    }\r\n\r\n    function swapWithSynths(\r\n        uint256 inputAmount,\r\n        address inputToken,\r\n        bool inSynth,\r\n        address outputToken,\r\n        bool outSynth\r\n    ) external returns (uint256 outputAmount) {\r\n        return swapWithSynthsWithLimit(inputAmount, inputToken, inSynth, outputToken, outSynth, 10000);\r\n    }\r\n\r\n    function swapWithSynthsWithLimit(\r\n        uint256 inputAmount,\r\n        address inputToken,\r\n        bool inSynth,\r\n        address outputToken,\r\n        bool outSynth,\r\n        uint256 slipLimit\r\n    ) public returns (uint256 outputAmount) {\r\n        updateTWAPPrice();\r\n        address _member = msg.sender;\r\n        if (!inSynth) {\r\n            moveTokenToPools(inputToken, inputAmount);\r\n        } else {\r\n            moveTokenToPools(iPOOLS(POOLS()).getSynth(inputToken), inputAmount);\r\n        }\r\n        address _base;\r\n        if (iPOOLS(POOLS()).isAnchor(inputToken) || iPOOLS(POOLS()).isAnchor(outputToken)) {\r\n            _base = VADER;\r\n        } else {\r\n            _base = USDV();\r\n        }\r\n        if (isBase(outputToken)) {\r\n            // Token||Synth -> BASE\r\n            require(iUTILS(UTILS()).calcSwapSlip(inputAmount, iPOOLS(POOLS()).getTokenAmount(inputToken)) <= slipLimit);\r\n            if (!inSynth) {\r\n                outputAmount = iPOOLS(POOLS()).swap(_base, inputToken, _member, true);\r\n            } else {\r\n                outputAmount = iPOOLS(POOLS()).burnSynth(_base, inputToken, _member);\r\n            }\r\n        } else if (isBase(inputToken)) {\r\n            // BASE -> Token||Synth\r\n            require(iUTILS(UTILS()).calcSwapSlip(inputAmount, iPOOLS(POOLS()).getBaseAmount(outputToken)) <= slipLimit);\r\n            if (!outSynth) {\r\n                outputAmount = iPOOLS(POOLS()).swap(_base, outputToken, _member, false);\r\n            } else {\r\n                outputAmount = iPOOLS(POOLS()).mintSynth(_base, outputToken, _member);\r\n            }\r\n        } else { // !isBase(inputToken) && !isBase(outputToken)\r\n            // Token||Synth -> Token||Synth\r\n            require(iUTILS(UTILS()).calcSwapSlip(inputAmount, iPOOLS(POOLS()).getTokenAmount(inputToken)) <= slipLimit);\r\n            uint _intermediaryAmount;\r\n            if (!inSynth) {\r\n                _intermediaryAmount = iPOOLS(POOLS()).swap(_base, inputToken, POOLS(), true);\r\n            } else {\r\n                _intermediaryAmount = iPOOLS(POOLS()).burnSynth(_base, inputToken, POOLS());\r\n            }\r\n            require(iUTILS(UTILS()).calcSwapSlip(_intermediaryAmount, iPOOLS(POOLS()).getBaseAmount(outputToken)) <= slipLimit);\r\n            if (!outSynth) {\r\n                outputAmount = iPOOLS(POOLS()).swap(_base, outputToken, _member, false);\r\n            } else {\r\n                outputAmount = iPOOLS(POOLS()).mintSynth(_base, outputToken, _member);\r\n            }\r\n        }\r\n        _handlePoolReward(_base, inputToken);\r\n        _handlePoolReward(_base, outputToken);\r\n        _handleAnchorPriceUpdate(inputToken);\r\n        _handleAnchorPriceUpdate(outputToken);\r\n    }\r\n\r\n    //====================================INCENTIVES========================================//\r\n\r\n    function _handlePoolReward(address _base, address _token) internal {\r\n        if (!isBase(_token)) {\r\n            // USDV or VADER is never a pool\r\n            uint256 _reward = iUTILS(UTILS()).getRewardShare(_token, rewardReductionFactor);\r\n            iRESERVE(RESERVE()).requestFunds(_base, POOLS(), _reward);\r\n            iPOOLS(POOLS()).sync(_base, _token);\r\n            emit PoolReward(_base, _token, _reward);\r\n        }\r\n    }\r\n\r\n    //=================================IMPERMANENT LOSS=====================================//\r\n\r\n    function addDepositData(\r\n        address member,\r\n        address token,\r\n        uint256 amountBase,\r\n        uint256 amountToken\r\n    ) internal {\r\n        mapMemberToken_depositBase[member][token] += amountBase;\r\n        mapMemberToken_depositToken[member][token] += amountToken;\r\n        mapMemberToken_lastDeposited[member][token] = block.timestamp;\r\n    }\r\n\r\n    function removeDepositData(\r\n        address member,\r\n        address token,\r\n        uint256 basisPoints,\r\n        uint256 protection\r\n    ) internal {\r\n        mapMemberToken_depositBase[member][token] += protection;\r\n        uint256 _baseToRemove = iUTILS(UTILS()).calcPart(basisPoints, mapMemberToken_depositBase[member][token]);\r\n        uint256 _tokenToRemove = iUTILS(UTILS()).calcPart(basisPoints, mapMemberToken_depositToken[member][token]);\r\n        mapMemberToken_depositBase[member][token] -= _baseToRemove;\r\n        mapMemberToken_depositToken[member][token] -= _tokenToRemove;\r\n    }\r\n\r\n    function getILProtection(\r\n        address member,\r\n        address base,\r\n        address token,\r\n        uint256 basisPoints\r\n    ) public view returns (uint256 protection) {\r\n        protection = iUTILS(UTILS()).getProtection(member, token, basisPoints, timeForFullProtection);\r\n        if (base == VADER) {\r\n            if (protection >= reserveVADER()) {\r\n                protection = reserveVADER(); // In case reserve is running out\r\n            }\r\n        } else {\r\n            if (protection >= reserveUSDV()) {\r\n                protection = reserveUSDV(); // In case reserve is running out\r\n            }\r\n        }\r\n    }\r\n\r\n    //=====================================CURATION==========================================//\r\n\r\n    function curatePool(address token) external {\r\n        require(iPOOLS(POOLS()).isAsset(token) || iPOOLS(POOLS()).isAnchor(token));\r\n        if (!isCurated(token)) {\r\n            if (curatedPoolCount < curatedPoolLimit) {\r\n                // Limit\r\n                _isCurated[token] = true;\r\n                curatedPoolCount += 1;\r\n            }\r\n        }\r\n        emit Curated(msg.sender, token);\r\n    }\r\n\r\n    function replacePool(address oldToken, address newToken) external {\r\n        require(iPOOLS(POOLS()).isAsset(newToken));\r\n        if (iPOOLS(POOLS()).getBaseAmount(newToken) > iPOOLS(POOLS()).getBaseAmount(oldToken)) {\r\n            // Must be deeper\r\n            _isCurated[oldToken] = false;\r\n            _isCurated[newToken] = true;\r\n            emit Curated(msg.sender, newToken);\r\n        }\r\n    }\r\n\r\n    //=====================================ANCHORS==========================================//\r\n\r\n    function listAnchor(address token) external {\r\n        require(arrayAnchors.length < anchorLimit); // Limit\r\n        require(iPOOLS(POOLS()).isAnchor(token)); // Must be anchor\r\n        arrayAnchors.push(token); // Add\r\n        mapAnchorAddress_arrayAnchorsIndex1[token] = arrayAnchors.length; // Store 1-based index\r\n        arrayPrices.push(iUTILS(UTILS()).calcValueInBase(token, one));\r\n        _isCurated[token] = true;\r\n        updateAnchorPrice(token);\r\n    }\r\n\r\n    function replaceAnchor(address oldToken, address newToken) external {\r\n        require(newToken != oldToken, \"New token not new\");\r\n        uint idx1 = mapAnchorAddress_arrayAnchorsIndex1[oldToken];\r\n        require(idx1 != 0, \"No such old token\");\r\n        require(iPOOLS(POOLS()).isAnchor(newToken), \"Not anchor\");\r\n        require((iPOOLS(POOLS()).getBaseAmount(newToken) > iPOOLS(POOLS()).getBaseAmount(oldToken)), \"Not deeper\");\r\n        iUTILS(UTILS()).requirePriceBounds(oldToken, outsidePriceLimit, false, getAnchorPrice()); // if price oldToken >5%\r\n        iUTILS(UTILS()).requirePriceBounds(newToken, insidePriceLimit, true, getAnchorPrice()); // if price newToken <2%\r\n        _isCurated[oldToken] = false;\r\n        _isCurated[newToken] = true;\r\n        arrayAnchors[idx1 - 1] = newToken;\r\n        updateAnchorPrice(newToken);\r\n    }\r\n\r\n    function _handleAnchorPriceUpdate(address _token) internal {\r\n        if (iPOOLS(POOLS()).isAnchor(_token)) {\r\n            updateAnchorPrice(_token);\r\n        }\r\n    }\r\n\r\n    // Anyone to update prices\r\n    function updateAnchorPrice(address token) public {\r\n        uint idx1 = mapAnchorAddress_arrayAnchorsIndex1[token];\r\n        if (idx1 != 0) {\r\n            arrayPrices[idx1 - 1] = iUTILS(UTILS()).calcValueInBase(token, one);\r\n        }\r\n    }\r\n\r\n    function updateTWAPPrice() public {\r\n        uint _now = block.timestamp;\r\n        uint _secondsSinceLastUpdate = _now - lastUpdatedTime;\r\n        accumulatedPrice += _secondsSinceLastUpdate * getAnchorPrice();\r\n        lastUpdatedTime = _now;\r\n        if((_now - cachedIntervalTime) > intervalTWAP){ // More than the interval, update interval params\r\n            startIntervalAccumulatedPrice = cachedIntervalAccumulatedPrice; // update price from cache\r\n            startIntervalTime = cachedIntervalTime; // update time from cache\r\n            cachedIntervalAccumulatedPrice = accumulatedPrice; // reset cache\r\n            cachedIntervalTime = _now; // reset cache\r\n        }\r\n    }\r\n\r\n    // Price of 1 VADER in USD\r\n    function getAnchorPrice() public view returns (uint256 anchorPrice) {\r\n        // if array len odd  3/2 = 1; 5/2 = 2\r\n        // if array len even 2/2 = 1; 4/2 = 2\r\n        uint _anchorMiddle = arrayPrices.length/2;\r\n        uint256[] memory _sortedAnchorFeed = iUTILS(UTILS()).sortArray(arrayPrices); // Sort price array, no need to modify storage\r\n        if(arrayPrices.length == 0) {\r\n            anchorPrice = one; // Edge case for first USDV mint\r\n        } else if(arrayPrices.length & 0x1 == 0x1) { // arrayPrices.length is odd\r\n            anchorPrice = _sortedAnchorFeed[_anchorMiddle]; // Return the middle\r\n        } else { // arrayPrices.length is even\r\n            anchorPrice = (_sortedAnchorFeed[_anchorMiddle] / 2) + (_sortedAnchorFeed[_anchorMiddle - 1] / 2); // Return the average of middle pair\r\n        }\r\n    }\r\n\r\n    // TWAP Price of 1 VADER in USD\r\n    function getTWAPPrice() public view returns (uint256) {\r\n        if (arrayPrices.length == 0) {\r\n            return one; // Edge case for first USDV mint\r\n        }\r\n        return (accumulatedPrice - startIntervalAccumulatedPrice) / (block.timestamp - startIntervalTime);\r\n    }\r\n\r\n    // The correct amount of Vader for an input of USDV\r\n    function getVADERAmount(uint256 USDVAmount) external view returns (uint256 vaderAmount) {\r\n        uint256 _price = getTWAPPrice();\r\n        return (_price * USDVAmount) / one;\r\n    }\r\n\r\n    // The correct amount of USDV for an input of VADER\r\n    function getUSDVAmount(uint256 vaderAmount) external view returns (uint256 USDVAmount) {\r\n        uint256 _price = getTWAPPrice();\r\n        return (vaderAmount * one) / _price;\r\n    }\r\n\r\n     //======================================ASSETS=========================================//   \r\n\r\n    // Move funds in\r\n    function moveTokenToPools(address _token, uint256 _amount) internal returns (uint256 safeAmount) {\r\n        if (_token == VADER || _token == USDV() || iPOOLS(POOLS()).isSynth(_token)) {\r\n            safeAmount = _amount;\r\n            iERC20(_token).transferFrom(msg.sender, POOLS(), _amount); // safeErc20 not needed; bases and synths trusted\r\n        } else {\r\n            uint256 _startBal = ExternalERC20(_token).balanceOf(POOLS());\r\n            ExternalERC20(_token).safeTransferFrom(msg.sender, POOLS(), _amount);\r\n            safeAmount = ExternalERC20(_token).balanceOf(POOLS()) - _startBal;\r\n        }\r\n    }\r\n\r\n    // Get Collateral\r\n    function _handleTransferIn(\r\n        address _member,\r\n        address _collateralAsset,\r\n        uint256 _amount\r\n    ) internal returns (uint256 _inputAmount) {\r\n        if (isBase(_collateralAsset) || iPOOLS(POOLS()).isSynth(_collateralAsset)) {\r\n            _inputAmount = _getFunds(_collateralAsset, _amount); // Get funds\r\n        } else if (isPool(_collateralAsset)) {\r\n            iPOOLS(POOLS()).lockUnits(_amount, _collateralAsset, _member); // Lock units to protocol\r\n            _inputAmount = _amount;\r\n        }\r\n    }\r\n\r\n    // Send Collateral\r\n    function _handleTransferOut(\r\n        address _member,\r\n        address _collateralAsset,\r\n        uint256 _amount\r\n    ) internal {\r\n        if (isBase(_collateralAsset) || iPOOLS(POOLS()).isSynth(_collateralAsset)) {\r\n            _sendFunds(_collateralAsset, _member, _amount); // Send Base\r\n        } else if (isPool(_collateralAsset)) {\r\n            iPOOLS(POOLS()).unlockUnits(_amount, _collateralAsset, _member); // Unlock units to member\r\n        }\r\n    }\r\n\r\n    // @dev Assumes `_token` is trusted (is a base asset or synth) and supports\r\n    function _getFunds(address _token, uint256 _amount) internal returns (uint256) {\r\n        uint256 _balance = iERC20(_token).balanceOf(address(this));\r\n        require(iERC20(_token).transferFrom(msg.sender, address(this), _amount)); // safeErc20 not needed; _token trusted\r\n        return iERC20(_token).balanceOf(address(this)) - _balance;\r\n    }\r\n\r\n    // @dev Assumes `_token` is trusted (is a base asset or synth)\r\n    function _sendFunds(\r\n        address _token,\r\n        address _member,\r\n        uint256 _amount\r\n    ) internal {\r\n        require(iERC20(_token).transfer(_member, _amount)); // safeErc20 not needed; _token trusted\r\n    }\r\n\r\n    //======================================HELPERS=========================================//\r\n\r\n    function isBase(address token) public view returns (bool base) {\r\n        return token == VADER || token == USDV();\r\n    }\r\n\r\n    function reserveUSDV() public view returns (uint256) {\r\n        return iRESERVE(RESERVE()).reserveUSDV(); // Balance\r\n    }\r\n\r\n    function reserveVADER() public view returns (uint256) {\r\n        return iRESERVE(RESERVE()).reserveVADER(); // Balance\r\n    }\r\n\r\n    function emitting() public view returns (bool) {\r\n        return iVADER(VADER).emitting();\r\n    }\r\n\r\n    function isCurated(address token) public view returns (bool) {\r\n        return _isCurated[token];\r\n    }\r\n\r\n    function isPool(address token) public view returns (bool) {\r\n        return iPOOLS(POOLS()).isAnchor(token) || iPOOLS(POOLS()).isAsset(token);\r\n    }\r\n\r\n    function getMemberBaseDeposit(address member, address token) external view returns (uint256) {\r\n        return mapMemberToken_depositBase[member][token];\r\n    }\r\n\r\n    function getMemberTokenDeposit(address member, address token) external view returns (uint256) {\r\n        return mapMemberToken_depositToken[member][token];\r\n    }\r\n\r\n    function getMemberLastDeposit(address member, address token) external view returns (uint256) {\r\n        return mapMemberToken_lastDeposited[member][token];\r\n    }\r\n\r\n    function DAO() internal view returns(address){\r\n        return iVADER(VADER).DAO();\r\n    }\r\n    function USDV() internal view returns(address){\r\n        return iDAO(iVADER(VADER).DAO()).USDV();\r\n    }\r\n    function RESERVE() internal view returns(address){\r\n        return iDAO(iVADER(VADER).DAO()).RESERVE();\r\n    }\r\n    function POOLS() internal view returns(address){\r\n        return iDAO(iVADER(VADER).DAO()).POOLS();\r\n    }\r\n    function UTILS() internal view returns(address){\r\n        return iDAO(iVADER(VADER).DAO()).UTILS();\r\n    }\r\n    function TIMELOCK() internal view returns(address){\r\n        return iDAO(iVADER(VADER).DAO()).TIMELOCK();\r\n    }\r\n\r\n}\r\n",
  "sourcePath": "E:/Web Workspace/Vader Protocol/vaderprotocol-contracts/contracts/Router.sol",
  "compiler": {
    "name": "solc",
    "version": "0.8.3+commit.8d00100c.Emscripten.clang"
  },
  "schemaVersion": "3.4.0",
  "updatedAt": "2021-06-03T02:05:34.689Z",
  "networkType": "ethereum",
  "devdoc": {
    "kind": "dev",
    "methods": {},
    "version": 1
  },
  "userdoc": {
    "kind": "user",
    "methods": {},
    "version": 1
  }
}