{
  "contractName": "Synth",
  "abi": [
    {
      "inputs": [
        {
          "internalType": "address",
          "name": "_token",
          "type": "address"
        }
      ],
      "stateMutability": "nonpayable",
      "type": "constructor"
    },
    {
      "anonymous": false,
      "inputs": [
        {
          "indexed": true,
          "internalType": "address",
          "name": "owner",
          "type": "address"
        },
        {
          "indexed": true,
          "internalType": "address",
          "name": "spender",
          "type": "address"
        },
        {
          "indexed": false,
          "internalType": "uint256",
          "name": "value",
          "type": "uint256"
        }
      ],
      "name": "Approval",
      "type": "event"
    },
    {
      "anonymous": false,
      "inputs": [
        {
          "indexed": true,
          "internalType": "address",
          "name": "from",
          "type": "address"
        },
        {
          "indexed": true,
          "internalType": "address",
          "name": "to",
          "type": "address"
        },
        {
          "indexed": false,
          "internalType": "uint256",
          "name": "value",
          "type": "uint256"
        }
      ],
      "name": "Transfer",
      "type": "event"
    },
    {
      "inputs": [],
      "name": "FACTORY",
      "outputs": [
        {
          "internalType": "address",
          "name": "",
          "type": "address"
        }
      ],
      "stateMutability": "view",
      "type": "function"
    },
    {
      "inputs": [],
      "name": "TOKEN",
      "outputs": [
        {
          "internalType": "address",
          "name": "",
          "type": "address"
        }
      ],
      "stateMutability": "view",
      "type": "function"
    },
    {
      "inputs": [],
      "name": "decimals",
      "outputs": [
        {
          "internalType": "uint8",
          "name": "",
          "type": "uint8"
        }
      ],
      "stateMutability": "view",
      "type": "function"
    },
    {
      "inputs": [],
      "name": "name",
      "outputs": [
        {
          "internalType": "string",
          "name": "",
          "type": "string"
        }
      ],
      "stateMutability": "view",
      "type": "function"
    },
    {
      "inputs": [],
      "name": "symbol",
      "outputs": [
        {
          "internalType": "string",
          "name": "",
          "type": "string"
        }
      ],
      "stateMutability": "view",
      "type": "function"
    },
    {
      "inputs": [],
      "name": "totalSupply",
      "outputs": [
        {
          "internalType": "uint256",
          "name": "",
          "type": "uint256"
        }
      ],
      "stateMutability": "view",
      "type": "function"
    },
    {
      "inputs": [
        {
          "internalType": "address",
          "name": "account",
          "type": "address"
        }
      ],
      "name": "balanceOf",
      "outputs": [
        {
          "internalType": "uint256",
          "name": "",
          "type": "uint256"
        }
      ],
      "stateMutability": "view",
      "type": "function"
    },
    {
      "inputs": [
        {
          "internalType": "address",
          "name": "owner",
          "type": "address"
        },
        {
          "internalType": "address",
          "name": "spender",
          "type": "address"
        }
      ],
      "name": "allowance",
      "outputs": [
        {
          "internalType": "uint256",
          "name": "",
          "type": "uint256"
        }
      ],
      "stateMutability": "view",
      "type": "function"
    },
    {
      "inputs": [
        {
          "internalType": "address",
          "name": "recipient",
          "type": "address"
        },
        {
          "internalType": "uint256",
          "name": "amount",
          "type": "uint256"
        }
      ],
      "name": "transfer",
      "outputs": [
        {
          "internalType": "bool",
          "name": "",
          "type": "bool"
        }
      ],
      "stateMutability": "nonpayable",
      "type": "function"
    },
    {
      "inputs": [
        {
          "internalType": "address",
          "name": "spender",
          "type": "address"
        },
        {
          "internalType": "uint256",
          "name": "amount",
          "type": "uint256"
        }
      ],
      "name": "approve",
      "outputs": [
        {
          "internalType": "bool",
          "name": "",
          "type": "bool"
        }
      ],
      "stateMutability": "nonpayable",
      "type": "function"
    },
    {
      "inputs": [
        {
          "internalType": "address",
          "name": "spender",
          "type": "address"
        },
        {
          "internalType": "uint256",
          "name": "addedValue",
          "type": "uint256"
        }
      ],
      "name": "increaseAllowance",
      "outputs": [
        {
          "internalType": "bool",
          "name": "",
          "type": "bool"
        }
      ],
      "stateMutability": "nonpayable",
      "type": "function"
    },
    {
      "inputs": [
        {
          "internalType": "address",
          "name": "spender",
          "type": "address"
        },
        {
          "internalType": "uint256",
          "name": "subtractedValue",
          "type": "uint256"
        }
      ],
      "name": "decreaseAllowance",
      "outputs": [
        {
          "internalType": "bool",
          "name": "",
          "type": "bool"
        }
      ],
      "stateMutability": "nonpayable",
      "type": "function"
    },
    {
      "inputs": [
        {
          "internalType": "address",
          "name": "sender",
          "type": "address"
        },
        {
          "internalType": "address",
          "name": "recipient",
          "type": "address"
        },
        {
          "internalType": "uint256",
          "name": "amount",
          "type": "uint256"
        }
      ],
      "name": "transferFrom",
      "outputs": [
        {
          "internalType": "bool",
          "name": "",
          "type": "bool"
        }
      ],
      "stateMutability": "nonpayable",
      "type": "function"
    },
    {
      "inputs": [
        {
          "internalType": "address",
          "name": "recipient",
          "type": "address"
        },
        {
          "internalType": "uint256",
          "name": "amount",
          "type": "uint256"
        },
        {
          "internalType": "bytes",
          "name": "data",
          "type": "bytes"
        }
      ],
      "name": "approveAndCall",
      "outputs": [
        {
          "internalType": "bool",
          "name": "",
          "type": "bool"
        }
      ],
      "stateMutability": "nonpayable",
      "type": "function"
    },
    {
      "inputs": [
        {
          "internalType": "address",
          "name": "recipient",
          "type": "address"
        },
        {
          "internalType": "uint256",
          "name": "amount",
          "type": "uint256"
        },
        {
          "internalType": "bytes",
          "name": "data",
          "type": "bytes"
        }
      ],
      "name": "transferAndCall",
      "outputs": [
        {
          "internalType": "bool",
          "name": "",
          "type": "bool"
        }
      ],
      "stateMutability": "nonpayable",
      "type": "function"
    },
    {
      "inputs": [
        {
          "internalType": "address",
          "name": "account",
          "type": "address"
        },
        {
          "internalType": "uint256",
          "name": "amount",
          "type": "uint256"
        }
      ],
      "name": "mint",
      "outputs": [],
      "stateMutability": "nonpayable",
      "type": "function"
    },
    {
      "inputs": [
        {
          "internalType": "uint256",
          "name": "amount",
          "type": "uint256"
        }
      ],
      "name": "burn",
      "outputs": [],
      "stateMutability": "nonpayable",
      "type": "function"
    },
    {
      "inputs": [
        {
          "internalType": "address",
          "name": "account",
          "type": "address"
        },
        {
          "internalType": "uint256",
          "name": "amount",
          "type": "uint256"
        }
      ],
      "name": "burnFrom",
      "outputs": [],
      "stateMutability": "nonpayable",
      "type": "function"
    }
  ],
  "bytecode": "0x60c06040523480156200001157600080fd5b50604051620013c1380380620013c18339810160408190526200003491620002a7565b606081811b6001600160601b03191660a05233901b60805260408051808201825260098152680405a40eca6f2dce8d60bb1b602082810191909152825180840184526002815261173b60f11b9181019190915282516306fdde0360e01b81529251919290916001600160a01b038516916306fdde03916004808301926000929190829003018186803b158015620000ca57600080fd5b505afa158015620000df573d6000803e3d6000fd5b505050506040513d6000823e601f3d908101601f19168201604052620001099190810190620002d7565b826040516020016200011d9291906200038b565b604051602081830303815290604052600090805190602001906200014392919062000201565b50826001600160a01b03166395d89b416040518163ffffffff1660e01b815260040160006040518083038186803b1580156200017e57600080fd5b505afa15801562000193573d6000803e3d6000fd5b505050506040513d6000823e601f3d908101601f19168201604052620001bd9190810190620002d7565b81604051602001620001d19291906200038b565b60405160208183030381529060405260019080519060200190620001f792919062000201565b5050505062000444565b8280546200020f90620003f1565b90600052602060002090601f0160209004810192826200023357600085556200027e565b82601f106200024e57805160ff19168380011785556200027e565b828001600101855582156200027e579182015b828111156200027e57825182559160200191906001019062000261565b506200028c92915062000290565b5090565b5b808211156200028c576000815560010162000291565b600060208284031215620002b9578081fd5b81516001600160a01b0381168114620002d0578182fd5b9392505050565b600060208284031215620002e9578081fd5b81516001600160401b038082111562000300578283fd5b818401915084601f83011262000314578283fd5b8151818111156200032957620003296200042e565b604051601f8201601f19908116603f011681019083821181831017156200035457620003546200042e565b816040528281528760208487010111156200036d578586fd5b62000380836020830160208801620003be565b979650505050505050565b600083516200039f818460208801620003be565b835190830190620003b5818360208801620003be565b01949350505050565b60005b83811015620003db578181015183820152602001620003c1565b83811115620003eb576000848401525b50505050565b600181811c908216806200040657607f821691505b602082108114156200042857634e487b7160e01b600052602260045260246000fd5b50919050565b634e487b7160e01b600052604160045260246000fd5b60805160601c60a05160601c610f4a6200047760003960006102780152600081816101ab01526105640152610f4a6000f3fe608060405234801561001057600080fd5b50600436106101365760003560e01c806342966c68116100b257806395d89b4111610081578063a9059cbb11610066578063a9059cbb146102b5578063cae9ca51146102c8578063dd62ed3e146102db57610136565b806395d89b411461029a578063a457c2d7146102a257610136565b806342966c681461023a57806370a082311461024d57806379cc67901461026057806382bfefc81461027357610136565b80632dd310001161010957806339509351116100ee57806339509351146101ff5780634000aea01461021257806340c10f191461022557610136565b80632dd31000146101a6578063313ce567146101e557610136565b806306fdde031461013b578063095ea7b31461015957806318160ddd1461017c57806323b872dd14610193575b600080fd5b610143610314565b6040516101509190610e0f565b60405180910390f35b61016c610167366004610cfb565b6103a2565b6040519015158152602001610150565b61018560025481565b604051908152602001610150565b61016c6101a1366004610cc0565b6103b8565b6101cd7f000000000000000000000000000000000000000000000000000000000000000081565b6040516001600160a01b039091168152602001610150565b6101ed601281565b60405160ff9091168152602001610150565b61016c61020d366004610cfb565b61048b565b61016c610220366004610d24565b6104c2565b610238610233366004610cfb565b610559565b005b610238610248366004610da6565b6106b1565b61018561025b366004610c6d565b6106be565b61023861026e366004610cfb565b6106dd565b6101cd7f000000000000000000000000000000000000000000000000000000000000000081565b610143610728565b61016c6102b0366004610cfb565b610735565b61016c6102c3366004610cfb565b6107b8565b61016c6102d6366004610d24565b6107c5565b6101856102e9366004610c8e565b6001600160a01b03918216600090815260046020908152604080832093909416825291909152205490565b6000805461032190610e91565b80601f016020809104026020016040519081016040528092919081815260200182805461034d90610e91565b801561039a5780601f1061036f5761010080835404028352916020019161039a565b820191906000526020600020905b81548152906001019060200180831161037d57829003601f168201915b505050505081565b60006103af33848461081f565b50600192915050565b60006103c584848461095c565b6001600160a01b03841660009081526004602090815260408083203384529091529020546000191115610481576001600160a01b03841660009081526004602090815260408083203384529091529020548281101561046b5760405162461bcd60e51b815260206004820152600d60248201527f616c6c6f77616e6365206572720000000000000000000000000000000000000060448201526064015b60405180910390fd5b61047f853361047a8685610e7a565b61081f565b505b5060019392505050565b3360008181526004602090815260408083206001600160a01b038716845290915281205490916103af91859061047a908690610e62565b60006104cf33868661095c565b6040517fcf4d25350000000000000000000000000000000000000000000000000000000081526001600160a01b0386169063cf4d25359061051c9030908890339089908990600401610dbe565b600060405180830381600087803b15801561053657600080fd5b505af115801561054a573d6000803e3d6000fd5b50600198975050505050505050565b336001600160a01b037f000000000000000000000000000000000000000000000000000000000000000016146105d15760405162461bcd60e51b815260206004820152600860248201527f21464143544f52590000000000000000000000000000000000000000000000006044820152606401610462565b6001600160a01b0382166106275760405162461bcd60e51b815260206004820152600960248201527f726563697069656e7400000000000000000000000000000000000000000000006044820152606401610462565b80600260008282546106399190610e62565b90915550506001600160a01b03821660009081526003602052604081208054839290610666908490610e62565b90915550506040518181526001600160a01b038316906000907fddf252ad1be2c89b69c2b068fc378daa952ba7f163c4a11628f55a4df523b3ef906020015b60405180910390a35050565b6106bb3382610b14565b50565b6001600160a01b0381166000908152600360205260409020545b919050565b6001600160a01b038216600090815260046020908152604080832033845290915281205461070c908390610e7a565b905061071983338361081f565b6107238383610b14565b505050565b6001805461032190610e91565b3360009081526004602090815260408083206001600160a01b0386168452909152812054828110156107a95760405162461bcd60e51b815260206004820152600d60248201527f616c6c6f77616e636520657272000000000000000000000000000000000000006044820152606401610462565b610481338561047a8685610e7a565b60006103af33848461095c565b60006107d233868661081f565b6040517f1ac562a70000000000000000000000000000000000000000000000000000000081526001600160a01b03861690631ac562a79061051c9030908890339089908990600401610dbe565b6001600160a01b0383166108755760405162461bcd60e51b815260206004820152600660248201527f73656e64657200000000000000000000000000000000000000000000000000006044820152606401610462565b6001600160a01b0382166108cb5760405162461bcd60e51b815260206004820152600760248201527f7370656e646572000000000000000000000000000000000000000000000000006044820152606401610462565b6001600160a01b038084166000908152600460209081526040808320938616835292905220546000191115610723576001600160a01b0383811660008181526004602090815260408083209487168084529482529182902085905590518481527f8c5be1e5ebec7d5bd14f71427d1e84f3dd0314c0f7b2291e5b200ac8c7c3b92591015b60405180910390a3505050565b6001600160a01b0383166109b25760405162461bcd60e51b815260206004820152600660248201527f73656e64657200000000000000000000000000000000000000000000000000006044820152606401610462565b6001600160a01b038216301415610a0b5760405162461bcd60e51b815260206004820152600960248201527f726563697069656e7400000000000000000000000000000000000000000000006044820152606401610462565b6001600160a01b038316600090815260036020526040902054811115610a735760405162461bcd60e51b815260206004820152600b60248201527f62616c616e6365206572720000000000000000000000000000000000000000006044820152606401610462565b6001600160a01b03831660009081526003602052604081208054839290610a9b908490610e7a565b90915550506001600160a01b03821660009081526003602052604081208054839290610ac8908490610e62565b92505081905550816001600160a01b0316836001600160a01b03167fddf252ad1be2c89b69c2b068fc378daa952ba7f163c4a11628f55a4df523b3ef8360405161094f91815260200190565b6001600160a01b038216610b6a5760405162461bcd60e51b815260206004820152600b60248201527f61646472657373206572720000000000000000000000000000000000000000006044820152606401610462565b6001600160a01b038216600090815260036020526040902054811115610bd25760405162461bcd60e51b815260206004820152600b60248201527f62616c616e6365206572720000000000000000000000000000000000000000006044820152606401610462565b6001600160a01b03821660009081526003602052604081208054839290610bfa908490610e7a565b925050819055508060026000828254610c139190610e7a565b90915550506040518181526000906001600160a01b038416907fddf252ad1be2c89b69c2b068fc378daa952ba7f163c4a11628f55a4df523b3ef906020016106a5565b80356001600160a01b03811681146106d857600080fd5b600060208284031215610c7e578081fd5b610c8782610c56565b9392505050565b60008060408385031215610ca0578081fd5b610ca983610c56565b9150610cb760208401610c56565b90509250929050565b600080600060608486031215610cd4578081fd5b610cdd84610c56565b9250610ceb60208501610c56565b9150604084013590509250925092565b60008060408385031215610d0d578182fd5b610d1683610c56565b946020939093013593505050565b60008060008060608587031215610d39578081fd5b610d4285610c56565b935060208501359250604085013567ffffffffffffffff80821115610d65578283fd5b818701915087601f830112610d78578283fd5b813581811115610d86578384fd5b886020828501011115610d97578384fd5b95989497505060200194505050565b600060208284031215610db7578081fd5b5035919050565b60006001600160a01b03808816835286602084015280861660408401525060806060830152826080830152828460a084013781830160a090810191909152601f909201601f19160101949350505050565b6000602080835283518082850152825b81811015610e3b57858101830151858201604001528201610e1f565b81811115610e4c5783604083870101525b50601f01601f1916929092016040019392505050565b60008219821115610e7557610e75610ee5565b500190565b600082821015610e8c57610e8c610ee5565b500390565b600181811c90821680610ea557607f821691505b60208210811415610edf577f4e487b7100000000000000000000000000000000000000000000000000000000600052602260045260246000fd5b50919050565b7f4e487b7100000000000000000000000000000000000000000000000000000000600052601160045260246000fdfea2646970667358221220a02f486bc7d36a67de2ccccce93d9246271cbe4a5ff0467c111cf9ca400d0c8b64736f6c63430008030033",
  "immutableReferences": {
    "7": [
      {
        "length": 32,
        "start": 427
      },
      {
        "length": 32,
        "start": 1380
      }
    ],
    "9": [
      {
        "length": 32,
        "start": 632
      }
    ]
  },
  "source": "// SPDX-License-Identifier: UNLICENSED\r\npragma solidity 0.8.3;\r\n\r\n// Interfaces\r\nimport \"./interfaces/iERC20.sol\";\r\nimport \"./interfaces/iERC677.sol\"; \r\n\r\n// Synth Contract\r\ncontract Synth is iERC20 {\r\n    address public immutable FACTORY;\r\n    address public immutable TOKEN;\r\n\r\n    // Coin Defaults\r\n    string public override name;\r\n    string public override symbol;\r\n    uint8 public constant override decimals = 18;\r\n    uint256 public override totalSupply;\r\n\r\n    // ERC-20 Mappings\r\n    mapping(address => uint256) private _balances;\r\n    mapping(address => mapping(address => uint256)) private _allowances;\r\n\r\n    modifier onlyFACTORY() {\r\n        require(msg.sender == FACTORY, \"!FACTORY\");\r\n        _;\r\n    }\r\n\r\n    // Minting event\r\n    constructor(address _token) {\r\n        TOKEN = _token;\r\n        FACTORY = msg.sender;\r\n        string memory synthName = \" - vSynth\";\r\n        string memory synthSymbol = \".v\";\r\n        name = string(abi.encodePacked(iERC20(_token).name(), synthName));\r\n        symbol = string(abi.encodePacked(iERC20(_token).symbol(), synthSymbol));\r\n    }\r\n\r\n    //========================================iERC20=========================================//\r\n    function balanceOf(address account) external view override returns (uint256) {\r\n        return _balances[account];\r\n    }\r\n\r\n    function allowance(address owner, address spender) public view virtual override returns (uint256) {\r\n        return _allowances[owner][spender];\r\n    }\r\n\r\n    // iERC20 Transfer function\r\n    function transfer(address recipient, uint256 amount) external virtual override returns (bool) {\r\n        _transfer(msg.sender, recipient, amount);\r\n        return true;\r\n    }\r\n\r\n    // iERC20 Approve, change allowance functions\r\n    function approve(address spender, uint256 amount) external virtual override returns (bool) {\r\n        _approve(msg.sender, spender, amount);\r\n        return true;\r\n    }\r\n    function increaseAllowance(address spender, uint256 addedValue) public virtual returns (bool) {\r\n        _approve(msg.sender, spender, _allowances[msg.sender][spender]+(addedValue));\r\n        return true;\r\n    }\r\n    function decreaseAllowance(address spender, uint256 subtractedValue) public virtual returns (bool) {\r\n        uint256 currentAllowance = _allowances[msg.sender][spender];\r\n        require(currentAllowance >= subtractedValue, \"allowance err\");\r\n        _approve(msg.sender, spender, currentAllowance - subtractedValue);\r\n        return true;\r\n    }\r\n\r\n    function _approve(\r\n        address owner,\r\n        address spender,\r\n        uint256 amount\r\n    ) internal virtual {\r\n        require(owner != address(0), \"sender\");\r\n        require(spender != address(0), \"spender\");\r\n        if (_allowances[owner][spender] < type(uint256).max) { // No need to re-approve if already max\r\n            _allowances[owner][spender] = amount;\r\n            emit Approval(owner, spender, amount);\r\n        }\r\n    }\r\n\r\n    // iERC20 TransferFrom function\r\n    function transferFrom(\r\n        address sender,\r\n        address recipient,\r\n        uint256 amount\r\n    ) external virtual override returns (bool) {\r\n        _transfer(sender, recipient, amount);\r\n        // Unlimited approval (saves an SSTORE)\r\n        if (_allowances[sender][msg.sender] < type(uint256).max) {\r\n            uint256 currentAllowance = _allowances[sender][msg.sender];\r\n            require(currentAllowance >= amount, \"allowance err\");\r\n            _approve(sender, msg.sender, currentAllowance - amount);\r\n        }\r\n        return true;\r\n    }\r\n    //iERC677 approveAndCall\r\n    function approveAndCall(address recipient, uint amount, bytes calldata data) public returns (bool) {\r\n      _approve(msg.sender, recipient, amount);\r\n      iERC677(recipient).onTokenApproval(address(this), amount, msg.sender, data); // Amount is passed thru to recipient\r\n      return true;\r\n     }\r\n\r\n      //iERC677 transferAndCall\r\n    function transferAndCall(address recipient, uint amount, bytes calldata data) public returns (bool) {\r\n      _transfer(msg.sender, recipient, amount);\r\n      iERC677(recipient).onTokenTransfer(address(this), amount, msg.sender, data); // Amount is passed thru to recipient \r\n      return true;\r\n     }\r\n\r\n    // Internal transfer function\r\n    function _transfer(\r\n        address sender,\r\n        address recipient,\r\n        uint256 amount\r\n    ) internal virtual {\r\n        require(sender != address(0), \"sender\");\r\n        require(recipient != address(this), \"recipient\");\r\n        require(_balances[sender] >= amount, \"balance err\");\r\n        _balances[sender] -= amount;\r\n        _balances[recipient] += amount;\r\n        emit Transfer(sender, recipient, amount);\r\n    }\r\n\r\n    // Only FACTORY can mint\r\n    function mint(address account, uint256 amount) external virtual onlyFACTORY {\r\n        require(account != address(0), \"recipient\");\r\n        totalSupply += amount;\r\n        _balances[account] += amount;\r\n        emit Transfer(address(0), account, amount);\r\n    }\r\n\r\n    // Burn supply\r\n    function burn(uint256 amount) external virtual override {\r\n        _burn(msg.sender, amount);\r\n    }\r\n\r\n    function burnFrom(address account, uint256 amount) external virtual override {\r\n        uint256 decreasedAllowance = allowance(account, msg.sender) - amount;\r\n        _approve(account, msg.sender, decreasedAllowance);\r\n        _burn(account, amount);\r\n    }\r\n\r\n    function _burn(address account, uint256 amount) internal virtual {\r\n        require(account != address(0), \"address err\");\r\n        require(_balances[account] >= amount, \"balance err\");\r\n        _balances[account] -= amount;\r\n        totalSupply -= amount;\r\n        emit Transfer(account, address(0), amount);\r\n    }\r\n}\r\n",
  "sourcePath": "E:/Web Workspace/Vader Protocol/vaderprotocol-contracts/contracts/Synth.sol",
  "compiler": {
    "name": "solc",
    "version": "0.8.3+commit.8d00100c.Emscripten.clang"
  },
  "schemaVersion": "3.4.0",
  "updatedAt": "2021-06-03T01:07:45.112Z",
  "devdoc": {
    "kind": "dev",
    "methods": {},
    "version": 1
  },
  "userdoc": {
    "kind": "user",
    "methods": {},
    "version": 1
  }
}