{
  "contractName": "Token2",
  "abi": [
    {
      "inputs": [],
      "stateMutability": "nonpayable",
      "type": "constructor"
    },
    {
      "anonymous": false,
      "inputs": [
        {
          "indexed": true,
          "internalType": "address",
          "name": "owner",
          "type": "address"
        },
        {
          "indexed": true,
          "internalType": "address",
          "name": "spender",
          "type": "address"
        },
        {
          "indexed": false,
          "internalType": "uint256",
          "name": "value",
          "type": "uint256"
        }
      ],
      "name": "Approval",
      "type": "event"
    },
    {
      "anonymous": false,
      "inputs": [
        {
          "indexed": true,
          "internalType": "address",
          "name": "from",
          "type": "address"
        },
        {
          "indexed": true,
          "internalType": "address",
          "name": "to",
          "type": "address"
        },
        {
          "indexed": false,
          "internalType": "uint256",
          "name": "value",
          "type": "uint256"
        }
      ],
      "name": "Transfer",
      "type": "event"
    },
    {
      "inputs": [],
      "name": "decimals",
      "outputs": [
        {
          "internalType": "uint8",
          "name": "",
          "type": "uint8"
        }
      ],
      "stateMutability": "view",
      "type": "function",
      "constant": true
    },
    {
      "inputs": [],
      "name": "name",
      "outputs": [
        {
          "internalType": "string",
          "name": "",
          "type": "string"
        }
      ],
      "stateMutability": "view",
      "type": "function",
      "constant": true
    },
    {
      "inputs": [],
      "name": "symbol",
      "outputs": [
        {
          "internalType": "string",
          "name": "",
          "type": "string"
        }
      ],
      "stateMutability": "view",
      "type": "function",
      "constant": true
    },
    {
      "inputs": [],
      "name": "totalSupply",
      "outputs": [
        {
          "internalType": "uint256",
          "name": "",
          "type": "uint256"
        }
      ],
      "stateMutability": "view",
      "type": "function",
      "constant": true
    },
    {
      "inputs": [
        {
          "internalType": "address",
          "name": "account",
          "type": "address"
        }
      ],
      "name": "balanceOf",
      "outputs": [
        {
          "internalType": "uint256",
          "name": "",
          "type": "uint256"
        }
      ],
      "stateMutability": "view",
      "type": "function",
      "constant": true
    },
    {
      "inputs": [
        {
          "internalType": "address",
          "name": "owner",
          "type": "address"
        },
        {
          "internalType": "address",
          "name": "spender",
          "type": "address"
        }
      ],
      "name": "allowance",
      "outputs": [
        {
          "internalType": "uint256",
          "name": "",
          "type": "uint256"
        }
      ],
      "stateMutability": "view",
      "type": "function",
      "constant": true
    },
    {
      "inputs": [
        {
          "internalType": "address",
          "name": "recipient",
          "type": "address"
        },
        {
          "internalType": "uint256",
          "name": "amount",
          "type": "uint256"
        }
      ],
      "name": "transfer",
      "outputs": [
        {
          "internalType": "bool",
          "name": "",
          "type": "bool"
        }
      ],
      "stateMutability": "nonpayable",
      "type": "function"
    },
    {
      "inputs": [
        {
          "internalType": "address",
          "name": "spender",
          "type": "address"
        },
        {
          "internalType": "uint256",
          "name": "amount",
          "type": "uint256"
        }
      ],
      "name": "approve",
      "outputs": [
        {
          "internalType": "bool",
          "name": "",
          "type": "bool"
        }
      ],
      "stateMutability": "nonpayable",
      "type": "function"
    },
    {
      "inputs": [
        {
          "internalType": "address",
          "name": "sender",
          "type": "address"
        },
        {
          "internalType": "address",
          "name": "recipient",
          "type": "address"
        },
        {
          "internalType": "uint256",
          "name": "amount",
          "type": "uint256"
        }
      ],
      "name": "transferFrom",
      "outputs": [
        {
          "internalType": "bool",
          "name": "",
          "type": "bool"
        }
      ],
      "stateMutability": "nonpayable",
      "type": "function"
    },
    {
      "inputs": [
        {
          "internalType": "uint256",
          "name": "amount",
          "type": "uint256"
        }
      ],
      "name": "burn",
      "outputs": [],
      "stateMutability": "nonpayable",
      "type": "function"
    },
    {
      "inputs": [
        {
          "internalType": "address",
          "name": "account",
          "type": "address"
        },
        {
          "internalType": "uint256",
          "name": "amount",
          "type": "uint256"
        }
      ],
      "name": "burnFrom",
      "outputs": [],
      "stateMutability": "nonpayable",
      "type": "function"
    }
  ],
  "bytecode": "0x6080604052620000126012600a620001d9565b6200002290633b9aca00620002d1565b6002553480156200003257600080fd5b506002543360009081526003602090815260408083209390935582518084019093526006808452652a37b5b2b71960d11b93909101928352620000769290620000e6565b50604080518082019091526004808252632a25a71960e11b6020909201918252620000a491600191620000e6565b5060025460405190815233906000907fddf252ad1be2c89b69c2b068fc378daa952ba7f163c4a11628f55a4df523b3ef9060200160405180910390a362000346565b828054620000f490620002f3565b90600052602060002090601f01602090048101928262000118576000855562000163565b82601f106200013357805160ff191683800117855562000163565b8280016001018555821562000163579182015b828111156200016357825182559160200191906001019062000146565b506200017192915062000175565b5090565b5b8082111562000171576000815560010162000176565b80825b6001808611620001a05750620001d0565b818704821115620001b557620001b562000330565b80861615620001c357918102915b9490941c9380026200018f565b94509492505050565b6000620001ed60001960ff851684620001f4565b9392505050565b6000826200020557506001620001ed565b816200021457506000620001ed565b81600181146200022d576002811462000238576200026c565b6001915050620001ed565b60ff8411156200024c576200024c62000330565b6001841b91508482111562000265576200026562000330565b50620001ed565b5060208310610133831016604e8410600b8410161715620002a4575081810a838111156200029e576200029e62000330565b620001ed565b620002b384848460016200018c565b808604821115620002c857620002c862000330565b02949350505050565b6000816000190483118215151615620002ee57620002ee62000330565b500290565b600181811c908216806200030857607f821691505b602082108114156200032a57634e487b7160e01b600052602260045260246000fd5b50919050565b634e487b7160e01b600052601160045260246000fd5b6108de80620003566000396000f3fe608060405234801561001057600080fd5b50600436106100c95760003560e01c806342966c681161008157806395d89b411161005b57806395d89b411461018e578063a9059cbb14610196578063dd62ed3e146101a9576100c9565b806342966c681461015357806370a082311461016857806379cc67901461017b576100c9565b806318160ddd116100b257806318160ddd1461010f57806323b872dd14610126578063313ce56714610139576100c9565b806306fdde03146100ce578063095ea7b3146100ec575b600080fd5b6100d66101e2565b6040516100e39190610785565b60405180910390f35b6100ff6100fa366004610744565b610270565b60405190151581526020016100e3565b61011860025481565b6040519081526020016100e3565b6100ff610134366004610709565b610286565b610141601281565b60405160ff90911681526020016100e3565b61016661016136600461076d565b610323565b005b6101186101763660046106b6565b610330565b610166610189366004610744565b61034f565b6100d661039a565b6100ff6101a4366004610744565b6103a7565b6101186101b73660046106d7565b6001600160a01b03918216600090815260046020908152604080832093909416825291909152205490565b600080546101ef90610825565b80601f016020809104026020016040519081016040528092919081815260200182805461021b90610825565b80156102685780601f1061023d57610100808354040283529160200191610268565b820191906000526020600020905b81548152906001019060200180831161024b57829003601f168201915b505050505081565b600061027d3384846103b4565b50600192915050565b60006102938484846104c7565b6001600160a01b03841660009081526004602090815260408083203384529091529020547fffffffffffffffffffffffffffffffffffffffffffffffffffffffffffffffff1115610319576001600160a01b03841660009081526004602090815260408083203380855292529091205461031991869161031490869061080e565b6103b4565b5060019392505050565b61032d33826105be565b50565b6001600160a01b0381166000908152600360205260409020545b919050565b6001600160a01b038216600090815260046020908152604080832033845290915281205461037e90839061080e565b905061038b8333836103b4565b61039583836105be565b505050565b600180546101ef90610825565b600061027d3384846104c7565b6001600160a01b03831661040f5760405162461bcd60e51b815260206004820152600660248201527f73656e646572000000000000000000000000000000000000000000000000000060448201526064015b60405180910390fd5b6001600160a01b0382166104655760405162461bcd60e51b815260206004820152600760248201527f7370656e646572000000000000000000000000000000000000000000000000006044820152606401610406565b6001600160a01b0383811660008181526004602090815260408083209487168084529482529182902085905590518481527f8c5be1e5ebec7d5bd14f71427d1e84f3dd0314c0f7b2291e5b200ac8c7c3b92591015b60405180910390a3505050565b6001600160a01b03831661051d5760405162461bcd60e51b815260206004820152600660248201527f73656e64657200000000000000000000000000000000000000000000000000006044820152606401610406565b6001600160a01b0383166000908152600360205260408120805483929061054590849061080e565b90915550506001600160a01b038216600090815260036020526040812080548392906105729084906107f6565b92505081905550816001600160a01b0316836001600160a01b03167fddf252ad1be2c89b69c2b068fc378daa952ba7f163c4a11628f55a4df523b3ef836040516104ba91815260200190565b6001600160a01b0382166106145760405162461bcd60e51b815260206004820152600b60248201527f61646472657373206572720000000000000000000000000000000000000000006044820152606401610406565b6001600160a01b0382166000908152600360205260408120805483929061063c90849061080e565b925050819055508060026000828254610655919061080e565b90915550506040518181526000906001600160a01b038416907fddf252ad1be2c89b69c2b068fc378daa952ba7f163c4a11628f55a4df523b3ef9060200160405180910390a35050565b80356001600160a01b038116811461034a57600080fd5b6000602082840312156106c7578081fd5b6106d08261069f565b9392505050565b600080604083850312156106e9578081fd5b6106f28361069f565b91506107006020840161069f565b90509250929050565b60008060006060848603121561071d578081fd5b6107268461069f565b92506107346020850161069f565b9150604084013590509250925092565b60008060408385031215610756578182fd5b61075f8361069f565b946020939093013593505050565b60006020828403121561077e578081fd5b5035919050565b6000602080835283518082850152825b818110156107b157858101830151858201604001528201610795565b818111156107c25783604083870101525b50601f017fffffffffffffffffffffffffffffffffffffffffffffffffffffffffffffffe016929092016040019392505050565b6000821982111561080957610809610879565b500190565b60008282101561082057610820610879565b500390565b600181811c9082168061083957607f821691505b60208210811415610873577f4e487b7100000000000000000000000000000000000000000000000000000000600052602260045260246000fd5b50919050565b7f4e487b7100000000000000000000000000000000000000000000000000000000600052601160045260246000fdfea2646970667358221220fa87b9ebfbda7ba71acfc2c0fa407589393ea1b91ff81a81f3abd20c4649e72b64736f6c63430008030033",
  "immutableReferences": {},
  "source": "// SPDX-License-Identifier: UNLICENSED\r\npragma solidity 0.8.3;\r\n\r\n// Interfaces\r\nimport \"./interfaces/iERC20.sol\";\r\n\r\n// Token Contract\r\ncontract Token2 is iERC20 {\r\n    // Coin Defaults\r\n    string public override name; // Name of Coin\r\n    string public override symbol; // Symbol of Coin\r\n    uint8 public constant override decimals = 18; // Decimals\r\n    uint256 public override totalSupply = 1 * 10**9 * (10**decimals); // 1,000,000 Total\r\n\r\n    // ERC-20 Mappings\r\n    mapping(address => uint256) private _balances;\r\n    mapping(address => mapping(address => uint256)) private _allowances;\r\n\r\n    // Minting event\r\n    constructor() {\r\n        _balances[msg.sender] = totalSupply;\r\n        name = \"Token2\";\r\n        symbol = \"TKN2\";\r\n        emit Transfer(address(0), msg.sender, totalSupply);\r\n    }\r\n\r\n    //========================================iERC20=========================================//\r\n    function balanceOf(address account) external view override returns (uint256) {\r\n        return _balances[account];\r\n    }\r\n\r\n    function allowance(address owner, address spender) public view virtual override returns (uint256) {\r\n        return _allowances[owner][spender];\r\n    }\r\n\r\n    // iERC20 Transfer function\r\n    function transfer(address recipient, uint256 amount) external virtual override returns (bool) {\r\n        _transfer(msg.sender, recipient, amount);\r\n        return true;\r\n    }\r\n\r\n    // iERC20 Approve, change allowance functions\r\n    function approve(address spender, uint256 amount) external virtual override returns (bool) {\r\n        _approve(msg.sender, spender, amount);\r\n        return true;\r\n    }\r\n\r\n    function _approve(\r\n        address owner,\r\n        address spender,\r\n        uint256 amount\r\n    ) internal virtual {\r\n        require(owner != address(0), \"sender\");\r\n        require(spender != address(0), \"spender\");\r\n        _allowances[owner][spender] = amount;\r\n        emit Approval(owner, spender, amount);\r\n    }\r\n\r\n    // iERC20 TransferFrom function\r\n    function transferFrom(\r\n        address sender,\r\n        address recipient,\r\n        uint256 amount\r\n    ) external virtual override returns (bool) {\r\n        _transfer(sender, recipient, amount);\r\n        if (_allowances[sender][msg.sender] < type(uint256).max) {\r\n            _approve(sender, msg.sender, _allowances[sender][msg.sender] - amount);\r\n        }\r\n        return true;\r\n    }\r\n\r\n    // Internal transfer function\r\n    function _transfer(\r\n        address sender,\r\n        address recipient,\r\n        uint256 amount\r\n    ) internal virtual {\r\n        require(sender != address(0), \"sender\");\r\n        _balances[sender] -= amount;\r\n        _balances[recipient] += amount;\r\n        emit Transfer(sender, recipient, amount);\r\n    }\r\n\r\n    // Internal mint (upgrading and daily emissions)\r\n    function _mint(address account, uint256 amount) internal virtual {\r\n        require(account != address(0), \"recipient\");\r\n        totalSupply += amount;\r\n        _balances[account] += amount;\r\n        emit Transfer(address(0), account, amount);\r\n    }\r\n\r\n    // Burn supply\r\n    function burn(uint256 amount) external virtual override {\r\n        _burn(msg.sender, amount);\r\n    }\r\n\r\n    function burnFrom(address account, uint256 amount) external virtual override {\r\n        uint256 decreasedAllowance = allowance(account, msg.sender) - amount;\r\n        _approve(account, msg.sender, decreasedAllowance);\r\n        _burn(account, amount);\r\n    }\r\n\r\n    function _burn(address account, uint256 amount) internal virtual {\r\n        require(account != address(0), \"address err\");\r\n        _balances[account] -= amount;\r\n        totalSupply -= amount;\r\n        emit Transfer(account, address(0), amount);\r\n    }\r\n}\r\n",
  "sourcePath": "E:/Web Workspace/Vader Protocol/vaderprotocol-contracts/contracts/Token2.sol",
  "compiler": {
    "name": "solc",
    "version": "0.8.3+commit.8d00100c.Emscripten.clang"
  },
  "schemaVersion": "3.4.0",
  "updatedAt": "2021-06-03T02:05:34.716Z",
  "networkType": "ethereum",
  "devdoc": {
    "kind": "dev",
    "methods": {},
    "version": 1
  },
  "userdoc": {
    "kind": "user",
    "methods": {},
    "version": 1
  }
}