{
  "contractName": "USDV",
  "abi": [
    {
      "inputs": [
        {
          "internalType": "address",
          "name": "_vader",
          "type": "address"
        }
      ],
      "stateMutability": "nonpayable",
      "type": "constructor"
    },
    {
      "anonymous": false,
      "inputs": [
        {
          "indexed": true,
          "internalType": "address",
          "name": "owner",
          "type": "address"
        },
        {
          "indexed": true,
          "internalType": "address",
          "name": "spender",
          "type": "address"
        },
        {
          "indexed": false,
          "internalType": "uint256",
          "name": "value",
          "type": "uint256"
        }
      ],
      "name": "Approval",
      "type": "event"
    },
    {
      "anonymous": false,
      "inputs": [
        {
          "indexed": true,
          "internalType": "address",
          "name": "from",
          "type": "address"
        },
        {
          "indexed": true,
          "internalType": "address",
          "name": "to",
          "type": "address"
        },
        {
          "indexed": false,
          "internalType": "uint256",
          "name": "value",
          "type": "uint256"
        }
      ],
      "name": "Transfer",
      "type": "event"
    },
    {
      "inputs": [],
      "name": "VADER",
      "outputs": [
        {
          "internalType": "address",
          "name": "",
          "type": "address"
        }
      ],
      "stateMutability": "view",
      "type": "function",
      "constant": true
    },
    {
      "inputs": [],
      "name": "blockDelay",
      "outputs": [
        {
          "internalType": "uint256",
          "name": "",
          "type": "uint256"
        }
      ],
      "stateMutability": "view",
      "type": "function",
      "constant": true
    },
    {
      "inputs": [],
      "name": "decimals",
      "outputs": [
        {
          "internalType": "uint8",
          "name": "",
          "type": "uint8"
        }
      ],
      "stateMutability": "view",
      "type": "function",
      "constant": true
    },
    {
      "inputs": [],
      "name": "name",
      "outputs": [
        {
          "internalType": "string",
          "name": "",
          "type": "string"
        }
      ],
      "stateMutability": "view",
      "type": "function",
      "constant": true
    },
    {
      "inputs": [],
      "name": "symbol",
      "outputs": [
        {
          "internalType": "string",
          "name": "",
          "type": "string"
        }
      ],
      "stateMutability": "view",
      "type": "function",
      "constant": true
    },
    {
      "inputs": [],
      "name": "totalSupply",
      "outputs": [
        {
          "internalType": "uint256",
          "name": "",
          "type": "uint256"
        }
      ],
      "stateMutability": "view",
      "type": "function",
      "constant": true
    },
    {
      "inputs": [
        {
          "internalType": "address",
          "name": "account",
          "type": "address"
        }
      ],
      "name": "balanceOf",
      "outputs": [
        {
          "internalType": "uint256",
          "name": "",
          "type": "uint256"
        }
      ],
      "stateMutability": "view",
      "type": "function",
      "constant": true
    },
    {
      "inputs": [
        {
          "internalType": "address",
          "name": "owner",
          "type": "address"
        },
        {
          "internalType": "address",
          "name": "spender",
          "type": "address"
        }
      ],
      "name": "allowance",
      "outputs": [
        {
          "internalType": "uint256",
          "name": "",
          "type": "uint256"
        }
      ],
      "stateMutability": "view",
      "type": "function",
      "constant": true
    },
    {
      "inputs": [
        {
          "internalType": "address",
          "name": "recipient",
          "type": "address"
        },
        {
          "internalType": "uint256",
          "name": "amount",
          "type": "uint256"
        }
      ],
      "name": "transfer",
      "outputs": [
        {
          "internalType": "bool",
          "name": "",
          "type": "bool"
        }
      ],
      "stateMutability": "nonpayable",
      "type": "function"
    },
    {
      "inputs": [
        {
          "internalType": "address",
          "name": "spender",
          "type": "address"
        },
        {
          "internalType": "uint256",
          "name": "amount",
          "type": "uint256"
        }
      ],
      "name": "approve",
      "outputs": [
        {
          "internalType": "bool",
          "name": "",
          "type": "bool"
        }
      ],
      "stateMutability": "nonpayable",
      "type": "function"
    },
    {
      "inputs": [
        {
          "internalType": "address",
          "name": "spender",
          "type": "address"
        },
        {
          "internalType": "uint256",
          "name": "addedValue",
          "type": "uint256"
        }
      ],
      "name": "increaseAllowance",
      "outputs": [
        {
          "internalType": "bool",
          "name": "",
          "type": "bool"
        }
      ],
      "stateMutability": "nonpayable",
      "type": "function"
    },
    {
      "inputs": [
        {
          "internalType": "address",
          "name": "spender",
          "type": "address"
        },
        {
          "internalType": "uint256",
          "name": "subtractedValue",
          "type": "uint256"
        }
      ],
      "name": "decreaseAllowance",
      "outputs": [
        {
          "internalType": "bool",
          "name": "",
          "type": "bool"
        }
      ],
      "stateMutability": "nonpayable",
      "type": "function"
    },
    {
      "inputs": [
        {
          "internalType": "address",
          "name": "sender",
          "type": "address"
        },
        {
          "internalType": "address",
          "name": "recipient",
          "type": "address"
        },
        {
          "internalType": "uint256",
          "name": "amount",
          "type": "uint256"
        }
      ],
      "name": "transferFrom",
      "outputs": [
        {
          "internalType": "bool",
          "name": "",
          "type": "bool"
        }
      ],
      "stateMutability": "nonpayable",
      "type": "function"
    },
    {
      "inputs": [
        {
          "internalType": "address",
          "name": "recipient",
          "type": "address"
        },
        {
          "internalType": "uint256",
          "name": "amount",
          "type": "uint256"
        },
        {
          "internalType": "bytes",
          "name": "data",
          "type": "bytes"
        }
      ],
      "name": "approveAndCall",
      "outputs": [
        {
          "internalType": "bool",
          "name": "",
          "type": "bool"
        }
      ],
      "stateMutability": "nonpayable",
      "type": "function"
    },
    {
      "inputs": [
        {
          "internalType": "address",
          "name": "recipient",
          "type": "address"
        },
        {
          "internalType": "uint256",
          "name": "amount",
          "type": "uint256"
        },
        {
          "internalType": "bytes",
          "name": "data",
          "type": "bytes"
        }
      ],
      "name": "transferAndCall",
      "outputs": [
        {
          "internalType": "bool",
          "name": "",
          "type": "bool"
        }
      ],
      "stateMutability": "nonpayable",
      "type": "function"
    },
    {
      "inputs": [
        {
          "internalType": "uint256",
          "name": "amount",
          "type": "uint256"
        }
      ],
      "name": "burn",
      "outputs": [],
      "stateMutability": "nonpayable",
      "type": "function"
    },
    {
      "inputs": [
        {
          "internalType": "address",
          "name": "account",
          "type": "address"
        },
        {
          "internalType": "uint256",
          "name": "amount",
          "type": "uint256"
        }
      ],
      "name": "burnFrom",
      "outputs": [],
      "stateMutability": "nonpayable",
      "type": "function"
    },
    {
      "inputs": [
        {
          "internalType": "uint256",
          "name": "newDelay",
          "type": "uint256"
        }
      ],
      "name": "setParams",
      "outputs": [],
      "stateMutability": "nonpayable",
      "type": "function"
    },
    {
      "inputs": [
        {
          "internalType": "uint256",
          "name": "amount",
          "type": "uint256"
        }
      ],
      "name": "convertToUSDV",
      "outputs": [
        {
          "internalType": "uint256",
          "name": "",
          "type": "uint256"
        }
      ],
      "stateMutability": "nonpayable",
      "type": "function"
    },
    {
      "inputs": [
        {
          "internalType": "address",
          "name": "member",
          "type": "address"
        },
        {
          "internalType": "uint256",
          "name": "amount",
          "type": "uint256"
        }
      ],
      "name": "convertToUSDVForMember",
      "outputs": [
        {
          "internalType": "uint256",
          "name": "",
          "type": "uint256"
        }
      ],
      "stateMutability": "nonpayable",
      "type": "function"
    },
    {
      "inputs": [],
      "name": "convertToUSDVDirectly",
      "outputs": [
        {
          "internalType": "uint256",
          "name": "",
          "type": "uint256"
        }
      ],
      "stateMutability": "nonpayable",
      "type": "function"
    },
    {
      "inputs": [
        {
          "internalType": "address",
          "name": "member",
          "type": "address"
        }
      ],
      "name": "convertToUSDVForMemberDirectly",
      "outputs": [
        {
          "internalType": "uint256",
          "name": "convertAmount",
          "type": "uint256"
        }
      ],
      "stateMutability": "nonpayable",
      "type": "function"
    }
  ],
  "bytecode": "0x60a060405234801561001057600080fd5b5060405161165038038061165083398101604081905261002f91610044565b60601b6001600160601b031916608052610072565b600060208284031215610055578081fd5b81516001600160a01b038116811461006b578182fd5b9392505050565b60805160601c61158f6100c16000396000818161018c015281816104fc01528181610608015281816106bc015281816109ab01528181610e400152818161117101526111cc015261158f6000f3fe608060405234801561001057600080fd5b50600436106101825760003560e01c806359ded210116100d857806395d89b411161008c578063cae9ca5111610066578063cae9ca51146103a8578063d98f6088146103bb578063dd62ed3e146103c457610182565b806395d89b4114610346578063a457c2d714610382578063a9059cbb1461039557610182565b806379cc6790116100bd57806379cc679014610318578063865520d51461032b5780638a0b970c1461033e57610182565b806359ded210146102dc57806370a08231146102ef57610182565b8063313ce5671161013a578063395093511161011457806339509351146102a15780634000aea0146102b457806342966c68146102c757610182565b8063313ce567146102615780633549b77c1461027b57806336b7678b1461028e57610182565b8063095ea7b31161016b578063095ea7b31461021457806318160ddd1461023757806323b872dd1461024e57610182565b8063016813151461018757806306fdde03146101cb575b600080fd5b6101ae7f000000000000000000000000000000000000000000000000000000000000000081565b6040516001600160a01b0390911681526020015b60405180910390f35b6102076040518060400160405280601381526020017f564144455220535441424c4520444f4c4c41520000000000000000000000000081525081565b6040516101c29190611493565b610227610222366004611343565b6103fd565b60405190151581526020016101c2565b61024060005481565b6040519081526020016101c2565b61022761025c366004611303565b610413565b610269601281565b60405160ff90911681526020016101c2565b610240610289366004611412565b6104e6565b61024061029c366004611293565b6104f8565b6102276102af366004611343565b6107b7565b6102276102c236600461136e565b6107ee565b6102da6102d5366004611412565b610885565b005b6102da6102ea366004611412565b610892565b6102406102fd366004611293565b6001600160a01b031660009081526001602052604090205490565b6102da610326366004611343565b610922565b610240610339366004611343565b61096d565b610240610a48565b6102076040518060400160405280600481526020017f555344560000000000000000000000000000000000000000000000000000000081525081565b610227610390366004611343565b610a58565b6102276103a3366004611343565b610adb565b6102276103b636600461136e565b610ae8565b61024060035481565b6102406103d23660046112cb565b6001600160a01b03918216600090815260026020908152604080832093909416825291909152205490565b600061040a338484610b42565b50600192915050565b6000610420848484610c7f565b6001600160a01b038416600090815260026020908152604080832033845290915290205460001911156104dc576001600160a01b0384166000908152600260209081526040808320338452909152902054828110156104c65760405162461bcd60e51b815260206004820152600d60248201527f616c6c6f77616e6365206572720000000000000000000000000000000000000060448201526064015b60405180910390fd5b6104da85336104d586856114fe565b610b42565b505b5060019392505050565b60006104f2338361096d565b92915050565b60007f00000000000000000000000000000000000000000000000000000000000000006001600160a01b0316637dc2268c6040518163ffffffff1660e01b815260040160206040518083038186803b15801561055357600080fd5b505afa158015610567573d6000803e3d6000fd5b505050506040513d601f19601f8201168201806040525081019061058b91906113f2565b6105d75760405162461bcd60e51b815260206004820152600b60248201527f6e6f74206d696e74696e6700000000000000000000000000000000000000000060448201526064016104bd565b6040517f70a082310000000000000000000000000000000000000000000000000000000081523060048201526000907f00000000000000000000000000000000000000000000000000000000000000006001600160a01b0316906370a082319060240160206040518083038186803b15801561065257600080fd5b505afa158015610666573d6000803e3d6000fd5b505050506040513d601f19601f8201168201806040525081019061068a919061142a565b6040517f42966c68000000000000000000000000000000000000000000000000000000008152600481018290529091507f00000000000000000000000000000000000000000000000000000000000000006001600160a01b0316906342966c6890602401600060405180830381600087803b15801561070857600080fd5b505af115801561071c573d6000803e3d6000fd5b50505050610728610e3c565b6001600160a01b0316635a4dd3f2826040518263ffffffff1660e01b815260040161075591815260200190565b60206040518083038186803b15801561076d57600080fd5b505afa158015610781573d6000803e3d6000fd5b505050506040513d601f19601f820116820180604052508101906107a5919061142a565b91506107b18383610f3f565b50919050565b3360008181526002602090815260408083206001600160a01b0387168452909152812054909161040a9185906104d59086906114e6565b60006107fb338686610c7f565b6040517fcf4d25350000000000000000000000000000000000000000000000000000000081526001600160a01b0386169063cf4d2535906108489030908890339089908990600401611442565b600060405180830381600087803b15801561086257600080fd5b505af1158015610876573d6000803e3d6000fd5b50600198975050505050505050565b61088f3382611025565b50565b61089a61116d565b6001600160a01b0316336001600160a01b031614806108d157506108bc6111c8565b6001600160a01b0316336001600160a01b0316145b61091d5760405162461bcd60e51b815260206004820152601160248201527f2144414f202626202154494d454c4f434b00000000000000000000000000000060448201526064016104bd565b600355565b6001600160a01b03821660009081526002602090815260408083203384529091528120546109519083906114fe565b905061095e833383610b42565b6109688383611025565b505050565b6040517f23b872dd000000000000000000000000000000000000000000000000000000008152336004820152306024820152604481018290526000907f00000000000000000000000000000000000000000000000000000000000000006001600160a01b0316906323b872dd90606401602060405180830381600087803b1580156109f757600080fd5b505af1158015610a0b573d6000803e3d6000fd5b505050506040513d601f19601f82011682018060405250810190610a2f91906113f2565b610a3857600080fd5b610a41836104f8565b9392505050565b6000610a53336104f8565b905090565b3360009081526002602090815260408083206001600160a01b038616845290915281205482811015610acc5760405162461bcd60e51b815260206004820152600d60248201527f616c6c6f77616e6365206572720000000000000000000000000000000000000060448201526064016104bd565b6104dc33856104d586856114fe565b600061040a338484610c7f565b6000610af5338686610b42565b6040517f1ac562a70000000000000000000000000000000000000000000000000000000081526001600160a01b03861690631ac562a7906108489030908890339089908990600401611442565b6001600160a01b038316610b985760405162461bcd60e51b815260206004820152600660248201527f73656e646572000000000000000000000000000000000000000000000000000060448201526064016104bd565b6001600160a01b038216610bee5760405162461bcd60e51b815260206004820152600760248201527f7370656e6465720000000000000000000000000000000000000000000000000060448201526064016104bd565b6001600160a01b038084166000908152600260209081526040808320938616835292905220546000191115610968576001600160a01b0383811660008181526002602090815260408083209487168084529482529182902085905590518481527f8c5be1e5ebec7d5bd14f71427d1e84f3dd0314c0f7b2291e5b200ac8c7c3b92591015b60405180910390a3505050565b8015610df7576001600160a01b038316610cdb5760405162461bcd60e51b815260206004820152600660248201527f73656e646572000000000000000000000000000000000000000000000000000060448201526064016104bd565b6001600160a01b038216301415610d345760405162461bcd60e51b815260206004820152600960248201527f726563697069656e74000000000000000000000000000000000000000000000060448201526064016104bd565b6001600160a01b038316600090815260016020526040902054811115610d9c5760405162461bcd60e51b815260206004820152600b60248201527f62616c616e63652065727200000000000000000000000000000000000000000060448201526064016104bd565b6001600160a01b03831660009081526001602052604081208054839290610dc49084906114fe565b90915550506001600160a01b03821660009081526001602052604081208054839290610df19084906114e6565b90915550505b816001600160a01b0316836001600160a01b03167fddf252ad1be2c89b69c2b068fc378daa952ba7f163c4a11628f55a4df523b3ef83604051610c7291815260200190565b60007f00000000000000000000000000000000000000000000000000000000000000006001600160a01b03166398fabd3a6040518163ffffffff1660e01b815260040160206040518083038186803b158015610e9757600080fd5b505afa158015610eab573d6000803e3d6000fd5b505050506040513d601f19601f82011682018060405250810190610ecf91906112af565b6001600160a01b03166332fe7b266040518163ffffffff1660e01b815260040160206040518083038186803b158015610f0757600080fd5b505afa158015610f1b573d6000803e3d6000fd5b505050506040513d601f19601f82011682018060405250810190610a5391906112af565b8015610fdf576001600160a01b038216610f9b5760405162461bcd60e51b815260206004820152600960248201527f726563697069656e74000000000000000000000000000000000000000000000060448201526064016104bd565b80600080828254610fac91906114e6565b90915550506001600160a01b03821660009081526001602052604081208054839290610fd99084906114e6565b90915550505b6040518181526001600160a01b038316906000907fddf252ad1be2c89b69c2b068fc378daa952ba7f163c4a11628f55a4df523b3ef906020015b60405180910390a35050565b801561112f576001600160a01b0382166110815760405162461bcd60e51b815260206004820152600b60248201527f616464726573732065727200000000000000000000000000000000000000000060448201526064016104bd565b6001600160a01b0382166000908152600160205260409020548111156110e95760405162461bcd60e51b815260206004820152600b60248201527f62616c616e63652065727200000000000000000000000000000000000000000060448201526064016104bd565b6001600160a01b038216600090815260016020526040812080548392906111119084906114fe565b925050819055508060008082825461112991906114fe565b90915550505b6040518181526000906001600160a01b038416907fddf252ad1be2c89b69c2b068fc378daa952ba7f163c4a11628f55a4df523b3ef90602001611019565b60007f00000000000000000000000000000000000000000000000000000000000000006001600160a01b03166398fabd3a6040518163ffffffff1660e01b815260040160206040518083038186803b158015610f0757600080fd5b60007f00000000000000000000000000000000000000000000000000000000000000006001600160a01b03166398fabd3a6040518163ffffffff1660e01b815260040160206040518083038186803b15801561122357600080fd5b505afa158015611237573d6000803e3d6000fd5b505050506040513d601f19601f8201168201806040525081019061125b91906112af565b6001600160a01b0316637aadef8b6040518163ffffffff1660e01b815260040160206040518083038186803b158015610f0757600080fd5b6000602082840312156112a4578081fd5b8135610a4181611544565b6000602082840312156112c0578081fd5b8151610a4181611544565b600080604083850312156112dd578081fd5b82356112e881611544565b915060208301356112f881611544565b809150509250929050565b600080600060608486031215611317578081fd5b833561132281611544565b9250602084013561133281611544565b929592945050506040919091013590565b60008060408385031215611355578182fd5b823561136081611544565b946020939093013593505050565b60008060008060608587031215611383578081fd5b843561138e81611544565b935060208501359250604085013567ffffffffffffffff808211156113b1578283fd5b818701915087601f8301126113c4578283fd5b8135818111156113d2578384fd5b8860208285010111156113e3578384fd5b95989497505060200194505050565b600060208284031215611403578081fd5b81518015158114610a41578182fd5b600060208284031215611423578081fd5b5035919050565b60006020828403121561143b578081fd5b5051919050565b60006001600160a01b03808816835286602084015280861660408401525060806060830152826080830152828460a084013781830160a090810191909152601f909201601f19160101949350505050565b6000602080835283518082850152825b818110156114bf578581018301518582016040015282016114a3565b818111156114d05783604083870101525b50601f01601f1916929092016040019392505050565b600082198211156114f9576114f9611515565b500190565b60008282101561151057611510611515565b500390565b7f4e487b7100000000000000000000000000000000000000000000000000000000600052601160045260246000fd5b6001600160a01b038116811461088f57600080fdfea2646970667358221220f71f06ca963c5edac6bffedeb23633c68fc672b058bf643543c7aec4116611e564736f6c63430008030033",
  "immutableReferences": {
    "9324": [
      {
        "length": 32,
        "start": 396
      },
      {
        "length": 32,
        "start": 1276
      },
      {
        "length": 32,
        "start": 1544
      },
      {
        "length": 32,
        "start": 1724
      },
      {
        "length": 32,
        "start": 2475
      },
      {
        "length": 32,
        "start": 3648
      },
      {
        "length": 32,
        "start": 4465
      },
      {
        "length": 32,
        "start": 4556
      }
    ]
  },
  "source": "// SPDX-License-Identifier: UNLICENSED\r\npragma solidity 0.8.3;\r\n\r\n// Interfaces\r\nimport \"./interfaces/iERC20.sol\";\r\nimport \"./interfaces/iERC677.sol\"; \r\nimport \"./interfaces/iDAO.sol\";\r\nimport \"./interfaces/iVADER.sol\";\r\nimport \"./interfaces/iROUTER.sol\";\r\n\r\ncontract USDV is iERC20 {\r\n    // ERC-20 Parameters\r\n    string public constant override name = \"VADER STABLE DOLLAR\";\r\n    string public constant override symbol = \"USDV\";\r\n    uint8 public constant override decimals = 18;\r\n    uint256 public override totalSupply;\r\n\r\n    // ERC-20 Mappings\r\n    mapping(address => uint256) private _balances;\r\n    mapping(address => mapping(address => uint256)) private _allowances;\r\n\r\n    // Parameters\r\n    uint256 public blockDelay;\r\n\r\n    address public immutable VADER;\r\n\r\n    // Only DAO can execute\r\n    modifier onlyDAO() {\r\n        require(msg.sender == DAO(), \"!DAO\");\r\n        _;\r\n    }\r\n    // Only TIMELOCK can execute\r\n    modifier onlyTIMELOCK() {\r\n        require(msg.sender == TIMELOCK(), \"!TIMELOCK\");\r\n        _;\r\n    }\r\n    // Only DAO&&TIMELOCK can execute\r\n    modifier onlyDAOandTIMELOCK() {\r\n        require(msg.sender == DAO() || msg.sender == TIMELOCK(), \"!DAO && !TIMELOCK\");\r\n        _;\r\n    }\r\n\r\n    //=====================================CREATION=========================================//\r\n\r\n    constructor(address _vader) {\r\n        VADER = _vader;\r\n    }\r\n\r\n    //========================================iERC20=========================================//\r\n    function balanceOf(address account) external view override returns (uint256) {\r\n        return _balances[account];\r\n    }\r\n\r\n    function allowance(address owner, address spender) public view virtual override returns (uint256) {\r\n        return _allowances[owner][spender];\r\n    }\r\n\r\n    // iERC20 Transfer function\r\n    function transfer(address recipient, uint256 amount) external virtual override returns (bool) {\r\n        _transfer(msg.sender, recipient, amount);\r\n        return true;\r\n    }\r\n\r\n    // iERC20 Approve, change allowance functions\r\n    function approve(address spender, uint256 amount) external virtual override returns (bool) {\r\n        _approve(msg.sender, spender, amount);\r\n        return true;\r\n    }\r\n    function increaseAllowance(address spender, uint256 addedValue) public virtual returns (bool) {\r\n        _approve(msg.sender, spender, _allowances[msg.sender][spender]+(addedValue));\r\n        return true;\r\n    }\r\n    function decreaseAllowance(address spender, uint256 subtractedValue) public virtual returns (bool) {\r\n        uint256 currentAllowance = _allowances[msg.sender][spender];\r\n        require(currentAllowance >= subtractedValue, \"allowance err\");\r\n        _approve(msg.sender, spender, currentAllowance - subtractedValue);\r\n        return true;\r\n    }\r\n\r\n    function _approve(\r\n        address owner,\r\n        address spender,\r\n        uint256 amount\r\n    ) internal virtual {\r\n        require(owner != address(0), \"sender\");\r\n        require(spender != address(0), \"spender\");\r\n        if (_allowances[owner][spender] < type(uint256).max) { // No need to re-approve if already max\r\n            _allowances[owner][spender] = amount;\r\n            emit Approval(owner, spender, amount);\r\n        }\r\n    }\r\n\r\n    // iERC20 TransferFrom function\r\n    function transferFrom(\r\n        address sender,\r\n        address recipient,\r\n        uint256 amount\r\n    ) external virtual override returns (bool) {\r\n        _transfer(sender, recipient, amount);\r\n        // Unlimited approval (saves an SSTORE)\r\n        if (_allowances[sender][msg.sender] < type(uint256).max) {\r\n            uint256 currentAllowance = _allowances[sender][msg.sender];\r\n            require(currentAllowance >= amount, \"allowance err\");\r\n            _approve(sender, msg.sender, currentAllowance - amount);\r\n        }\r\n        return true;\r\n    }\r\n\r\n    //iERC677 approveAndCall\r\n    function approveAndCall(address recipient, uint amount, bytes calldata data) public returns (bool) {\r\n      _approve(msg.sender, recipient, amount);\r\n      iERC677(recipient).onTokenApproval(address(this), amount, msg.sender, data); // Amount is passed thru to recipient\r\n      return true;\r\n     }\r\n\r\n      //iERC677 transferAndCall\r\n    function transferAndCall(address recipient, uint amount, bytes calldata data) public returns (bool) {\r\n      _transfer(msg.sender, recipient, amount);\r\n      iERC677(recipient).onTokenTransfer(address(this), amount, msg.sender, data); // Amount is passed thru to recipient \r\n      return true;\r\n     }\r\n\r\n    // Internal transfer function\r\n    function _transfer(\r\n        address sender,\r\n        address recipient,\r\n        uint256 amount\r\n    ) internal virtual {\r\n        if (amount > 0) {\r\n            // Due to design, this function may be called with 0\r\n            require(sender != address(0), \"sender\");\r\n            require(recipient != address(this), \"recipient\");\r\n            require(_balances[sender] >= amount, \"balance err\");\r\n            _balances[sender] -= amount;\r\n            _balances[recipient] += amount;\r\n        }\r\n        emit Transfer(sender, recipient, amount);\r\n    }\r\n\r\n    // Internal mint (upgrading and daily emissions)\r\n    function _mint(address account, uint256 amount) internal virtual {\r\n        if (amount > 0) {\r\n            // Due to design, this function may be called with 0\r\n            require(account != address(0), \"recipient\");\r\n            totalSupply += amount;\r\n            _balances[account] += amount;\r\n        }\r\n        emit Transfer(address(0), account, amount);\r\n    }\r\n\r\n    // Burn supply\r\n    function burn(uint256 amount) external virtual override {\r\n        _burn(msg.sender, amount);\r\n    }\r\n\r\n    function burnFrom(address account, uint256 amount) external virtual override {\r\n        uint256 decreasedAllowance = allowance(account, msg.sender) - amount;\r\n        _approve(account, msg.sender, decreasedAllowance);\r\n        _burn(account, amount);\r\n    }\r\n\r\n    function _burn(address account, uint256 amount) internal virtual {\r\n        if (amount > 0) {\r\n            // Due to design, this function may be called with 0\r\n            require(account != address(0), \"address err\");\r\n            require(_balances[account] >= amount, \"balance err\");\r\n            _balances[account] -= amount;\r\n            totalSupply -= amount;\r\n        }\r\n        emit Transfer(account, address(0), amount);\r\n    }\r\n\r\n    //=========================================DAO=========================================//\r\n    // Can set params\r\n    function setParams(uint256 newDelay) external onlyDAOandTIMELOCK {\r\n        blockDelay = newDelay;\r\n    }\r\n\r\n    //======================================ASSET MINTING========================================//\r\n\r\n    // Convert to USDV\r\n    function convertToUSDV(uint256 amount) external returns (uint256) {\r\n        return convertToUSDVForMember(msg.sender, amount);\r\n    }\r\n\r\n    // Convert to USDV for Member\r\n    function convertToUSDVForMember(address member, uint256 amount) public returns (uint256) {\r\n        require(iERC20(VADER).transferFrom(msg.sender, address(this), amount)); // Get VADER Funds\r\n        return convertToUSDVForMemberDirectly(member);\r\n    }\r\n\r\n    // Convert to USDV (must have sent VADER first)\r\n    function convertToUSDVDirectly() external returns (uint256) {\r\n        return convertToUSDVForMemberDirectly(msg.sender);\r\n    }\r\n\r\n    // Convert for members (must have sent VADER first)\r\n    function convertToUSDVForMemberDirectly(address member) public returns (uint256 convertAmount) {\r\n        require(iVADER(VADER).minting(), \"not minting\");\r\n        uint256 _amount = iERC20(VADER).balanceOf(address(this));\r\n        iERC20(VADER).burn(_amount);\r\n        convertAmount = iROUTER(ROUTER()).getUSDVAmount(_amount); // Critical pricing functionality\r\n        _mint(member, convertAmount);\r\n    }\r\n\r\n    //============================== HELPERS ================================//\r\n\r\n    function DAO() internal view returns (address) {\r\n        return iVADER(VADER).DAO();\r\n    }\r\n    function ROUTER() internal view returns (address) {\r\n        return iDAO(iVADER(VADER).DAO()).ROUTER();\r\n    }\r\n    function TIMELOCK() internal view returns (address) {\r\n        return iDAO(iVADER(VADER).DAO()).TIMELOCK();\r\n    }\r\n}\r\n",
  "sourcePath": "E:/Web Workspace/Vader Protocol/vaderprotocol-contracts/contracts/USDV.sol",
  "compiler": {
    "name": "solc",
    "version": "0.8.3+commit.8d00100c.Emscripten.clang"
  },
  "schemaVersion": "3.4.0",
  "updatedAt": "2021-06-03T02:05:34.725Z",
  "networkType": "ethereum",
  "devdoc": {
    "kind": "dev",
    "methods": {},
    "version": 1
  },
  "userdoc": {
    "kind": "user",
    "methods": {},
    "version": 1
  }
}