{
  "contractName": "Utils",
  "abi": [
    {
      "inputs": [
        {
          "internalType": "address",
          "name": "_vader",
          "type": "address"
        }
      ],
      "stateMutability": "nonpayable",
      "type": "constructor"
    },
    {
      "inputs": [],
      "name": "VADER",
      "outputs": [
        {
          "internalType": "address",
          "name": "",
          "type": "address"
        }
      ],
      "stateMutability": "view",
      "type": "function",
      "constant": true
    },
    {
      "inputs": [
        {
          "internalType": "uint256",
          "name": "totalSupply",
          "type": "uint256"
        },
        {
          "internalType": "uint256",
          "name": "maxSupply",
          "type": "uint256"
        }
      ],
      "name": "getFeeOnTransfer",
      "outputs": [
        {
          "internalType": "uint256",
          "name": "",
          "type": "uint256"
        }
      ],
      "stateMutability": "pure",
      "type": "function",
      "constant": true
    },
    {
      "inputs": [
        {
          "internalType": "address",
          "name": "collateralAsset",
          "type": "address"
        },
        {
          "internalType": "address",
          "name": "debtAsset",
          "type": "address"
        }
      ],
      "name": "assetChecks",
      "outputs": [],
      "stateMutability": "nonpayable",
      "type": "function"
    },
    {
      "inputs": [
        {
          "internalType": "address",
          "name": "token",
          "type": "address"
        }
      ],
      "name": "isBase",
      "outputs": [
        {
          "internalType": "bool",
          "name": "base",
          "type": "bool"
        }
      ],
      "stateMutability": "view",
      "type": "function",
      "constant": true
    },
    {
      "inputs": [
        {
          "internalType": "address",
          "name": "token",
          "type": "address"
        }
      ],
      "name": "isPool",
      "outputs": [
        {
          "internalType": "bool",
          "name": "pool",
          "type": "bool"
        }
      ],
      "stateMutability": "view",
      "type": "function",
      "constant": true
    },
    {
      "inputs": [
        {
          "internalType": "address",
          "name": "token",
          "type": "address"
        },
        {
          "internalType": "uint256",
          "name": "amount",
          "type": "uint256"
        }
      ],
      "name": "calcValueInBase",
      "outputs": [
        {
          "internalType": "uint256",
          "name": "value",
          "type": "uint256"
        }
      ],
      "stateMutability": "view",
      "type": "function",
      "constant": true
    },
    {
      "inputs": [
        {
          "internalType": "address",
          "name": "token",
          "type": "address"
        },
        {
          "internalType": "uint256",
          "name": "amount",
          "type": "uint256"
        }
      ],
      "name": "calcValueInToken",
      "outputs": [
        {
          "internalType": "uint256",
          "name": "value",
          "type": "uint256"
        }
      ],
      "stateMutability": "view",
      "type": "function",
      "constant": true
    },
    {
      "inputs": [
        {
          "internalType": "address",
          "name": "token1",
          "type": "address"
        },
        {
          "internalType": "uint256",
          "name": "amount",
          "type": "uint256"
        },
        {
          "internalType": "address",
          "name": "token2",
          "type": "address"
        }
      ],
      "name": "calcValueOfTokenInToken",
      "outputs": [
        {
          "internalType": "uint256",
          "name": "value",
          "type": "uint256"
        }
      ],
      "stateMutability": "view",
      "type": "function",
      "constant": true
    },
    {
      "inputs": [
        {
          "internalType": "address",
          "name": "token",
          "type": "address"
        },
        {
          "internalType": "uint256",
          "name": "amount",
          "type": "uint256"
        }
      ],
      "name": "calcSwapValueInBase",
      "outputs": [
        {
          "internalType": "uint256",
          "name": "",
          "type": "uint256"
        }
      ],
      "stateMutability": "view",
      "type": "function",
      "constant": true
    },
    {
      "inputs": [
        {
          "internalType": "address",
          "name": "token",
          "type": "address"
        },
        {
          "internalType": "uint256",
          "name": "amount",
          "type": "uint256"
        }
      ],
      "name": "calcSwapValueInToken",
      "outputs": [
        {
          "internalType": "uint256",
          "name": "",
          "type": "uint256"
        }
      ],
      "stateMutability": "view",
      "type": "function",
      "constant": true
    },
    {
      "inputs": [
        {
          "internalType": "address",
          "name": "token",
          "type": "address"
        },
        {
          "internalType": "uint256",
          "name": "bound",
          "type": "uint256"
        },
        {
          "internalType": "bool",
          "name": "inside",
          "type": "bool"
        },
        {
          "internalType": "uint256",
          "name": "targetPrice",
          "type": "uint256"
        }
      ],
      "name": "requirePriceBounds",
      "outputs": [],
      "stateMutability": "view",
      "type": "function",
      "constant": true
    },
    {
      "inputs": [
        {
          "internalType": "uint256",
          "name": "basisPoints",
          "type": "uint256"
        },
        {
          "internalType": "address",
          "name": "token",
          "type": "address"
        },
        {
          "internalType": "address",
          "name": "member",
          "type": "address"
        }
      ],
      "name": "getMemberShare",
      "outputs": [
        {
          "internalType": "uint256",
          "name": "units",
          "type": "uint256"
        },
        {
          "internalType": "uint256",
          "name": "outputBase",
          "type": "uint256"
        },
        {
          "internalType": "uint256",
          "name": "outputToken",
          "type": "uint256"
        }
      ],
      "stateMutability": "view",
      "type": "function",
      "constant": true
    },
    {
      "inputs": [
        {
          "internalType": "address",
          "name": "token",
          "type": "address"
        },
        {
          "internalType": "uint256",
          "name": "rewardReductionFactor",
          "type": "uint256"
        }
      ],
      "name": "getRewardShare",
      "outputs": [
        {
          "internalType": "uint256",
          "name": "rewardShare",
          "type": "uint256"
        }
      ],
      "stateMutability": "view",
      "type": "function",
      "constant": true
    },
    {
      "inputs": [
        {
          "internalType": "uint256",
          "name": "amount",
          "type": "uint256"
        },
        {
          "internalType": "uint256",
          "name": "rewardReductionFactor",
          "type": "uint256"
        }
      ],
      "name": "getReducedShare",
      "outputs": [
        {
          "internalType": "uint256",
          "name": "",
          "type": "uint256"
        }
      ],
      "stateMutability": "pure",
      "type": "function",
      "constant": true
    },
    {
      "inputs": [
        {
          "internalType": "address",
          "name": "member",
          "type": "address"
        },
        {
          "internalType": "address",
          "name": "token",
          "type": "address"
        },
        {
          "internalType": "uint256",
          "name": "basisPoints",
          "type": "uint256"
        },
        {
          "internalType": "uint256",
          "name": "timeForFullProtection",
          "type": "uint256"
        }
      ],
      "name": "getProtection",
      "outputs": [
        {
          "internalType": "uint256",
          "name": "protection",
          "type": "uint256"
        }
      ],
      "stateMutability": "view",
      "type": "function",
      "constant": true
    },
    {
      "inputs": [
        {
          "internalType": "address",
          "name": "member",
          "type": "address"
        },
        {
          "internalType": "address",
          "name": "token",
          "type": "address"
        }
      ],
      "name": "getCoverage",
      "outputs": [
        {
          "internalType": "uint256",
          "name": "",
          "type": "uint256"
        }
      ],
      "stateMutability": "view",
      "type": "function",
      "constant": true
    },
    {
      "inputs": [
        {
          "internalType": "address",
          "name": "member",
          "type": "address"
        },
        {
          "internalType": "uint256",
          "name": "collateral",
          "type": "uint256"
        },
        {
          "internalType": "address",
          "name": "collateralAsset",
          "type": "address"
        },
        {
          "internalType": "address",
          "name": "debtAsset",
          "type": "address"
        }
      ],
      "name": "getCollateralValueInBase",
      "outputs": [
        {
          "internalType": "uint256",
          "name": "debt",
          "type": "uint256"
        },
        {
          "internalType": "uint256",
          "name": "baseValue",
          "type": "uint256"
        }
      ],
      "stateMutability": "view",
      "type": "function",
      "constant": true
    },
    {
      "inputs": [
        {
          "internalType": "address",
          "name": "member",
          "type": "address"
        },
        {
          "internalType": "uint256",
          "name": "debt",
          "type": "uint256"
        },
        {
          "internalType": "address",
          "name": "collateralAsset",
          "type": "address"
        },
        {
          "internalType": "address",
          "name": "debtAsset",
          "type": "address"
        }
      ],
      "name": "getDebtValueInCollateral",
      "outputs": [
        {
          "internalType": "uint256",
          "name": "",
          "type": "uint256"
        },
        {
          "internalType": "uint256",
          "name": "",
          "type": "uint256"
        }
      ],
      "stateMutability": "view",
      "type": "function",
      "constant": true
    },
    {
      "inputs": [
        {
          "internalType": "address",
          "name": "collateralAsset",
          "type": "address"
        },
        {
          "internalType": "address",
          "name": "debtAsset",
          "type": "address"
        },
        {
          "internalType": "uint256",
          "name": "timeElapsed",
          "type": "uint256"
        }
      ],
      "name": "getInterestOwed",
      "outputs": [
        {
          "internalType": "uint256",
          "name": "interestOwed",
          "type": "uint256"
        }
      ],
      "stateMutability": "view",
      "type": "function",
      "constant": true
    },
    {
      "inputs": [
        {
          "internalType": "address",
          "name": "collateralAsset",
          "type": "address"
        },
        {
          "internalType": "address",
          "name": "debtAsset",
          "type": "address"
        }
      ],
      "name": "getInterestPayment",
      "outputs": [
        {
          "internalType": "uint256",
          "name": "",
          "type": "uint256"
        }
      ],
      "stateMutability": "view",
      "type": "function",
      "constant": true
    },
    {
      "inputs": [
        {
          "internalType": "address",
          "name": "collateralAsset",
          "type": "address"
        },
        {
          "internalType": "address",
          "name": "debtAsset",
          "type": "address"
        }
      ],
      "name": "getDebtLoading",
      "outputs": [
        {
          "internalType": "uint256",
          "name": "",
          "type": "uint256"
        }
      ],
      "stateMutability": "view",
      "type": "function",
      "constant": true
    },
    {
      "inputs": [
        {
          "internalType": "uint256",
          "name": "bp",
          "type": "uint256"
        },
        {
          "internalType": "uint256",
          "name": "total",
          "type": "uint256"
        }
      ],
      "name": "calcPart",
      "outputs": [
        {
          "internalType": "uint256",
          "name": "",
          "type": "uint256"
        }
      ],
      "stateMutability": "pure",
      "type": "function",
      "constant": true
    },
    {
      "inputs": [
        {
          "internalType": "uint256",
          "name": "part",
          "type": "uint256"
        },
        {
          "internalType": "uint256",
          "name": "total",
          "type": "uint256"
        },
        {
          "internalType": "uint256",
          "name": "amount",
          "type": "uint256"
        }
      ],
      "name": "calcShare",
      "outputs": [
        {
          "internalType": "uint256",
          "name": "share",
          "type": "uint256"
        }
      ],
      "stateMutability": "pure",
      "type": "function",
      "constant": true
    },
    {
      "inputs": [
        {
          "internalType": "uint256",
          "name": "x",
          "type": "uint256"
        },
        {
          "internalType": "uint256",
          "name": "X",
          "type": "uint256"
        },
        {
          "internalType": "uint256",
          "name": "Y",
          "type": "uint256"
        }
      ],
      "name": "calcSwapOutput",
      "outputs": [
        {
          "internalType": "uint256",
          "name": "",
          "type": "uint256"
        }
      ],
      "stateMutability": "pure",
      "type": "function",
      "constant": true
    },
    {
      "inputs": [
        {
          "internalType": "uint256",
          "name": "x",
          "type": "uint256"
        },
        {
          "internalType": "uint256",
          "name": "X",
          "type": "uint256"
        },
        {
          "internalType": "uint256",
          "name": "Y",
          "type": "uint256"
        }
      ],
      "name": "calcSwapFee",
      "outputs": [
        {
          "internalType": "uint256",
          "name": "",
          "type": "uint256"
        }
      ],
      "stateMutability": "pure",
      "type": "function",
      "constant": true
    },
    {
      "inputs": [
        {
          "internalType": "uint256",
          "name": "x",
          "type": "uint256"
        },
        {
          "internalType": "uint256",
          "name": "X",
          "type": "uint256"
        }
      ],
      "name": "calcSwapSlip",
      "outputs": [
        {
          "internalType": "uint256",
          "name": "",
          "type": "uint256"
        }
      ],
      "stateMutability": "pure",
      "type": "function",
      "constant": true
    },
    {
      "inputs": [
        {
          "internalType": "uint256",
          "name": "b",
          "type": "uint256"
        },
        {
          "internalType": "uint256",
          "name": "B",
          "type": "uint256"
        },
        {
          "internalType": "uint256",
          "name": "t",
          "type": "uint256"
        },
        {
          "internalType": "uint256",
          "name": "T",
          "type": "uint256"
        },
        {
          "internalType": "uint256",
          "name": "P",
          "type": "uint256"
        }
      ],
      "name": "calcLiquidityUnits",
      "outputs": [
        {
          "internalType": "uint256",
          "name": "",
          "type": "uint256"
        }
      ],
      "stateMutability": "pure",
      "type": "function",
      "constant": true
    },
    {
      "inputs": [
        {
          "internalType": "uint256",
          "name": "b",
          "type": "uint256"
        },
        {
          "internalType": "uint256",
          "name": "B",
          "type": "uint256"
        },
        {
          "internalType": "uint256",
          "name": "t",
          "type": "uint256"
        },
        {
          "internalType": "uint256",
          "name": "T",
          "type": "uint256"
        }
      ],
      "name": "getSlipAdjustment",
      "outputs": [
        {
          "internalType": "uint256",
          "name": "",
          "type": "uint256"
        }
      ],
      "stateMutability": "pure",
      "type": "function",
      "constant": true
    },
    {
      "inputs": [
        {
          "internalType": "uint256",
          "name": "S",
          "type": "uint256"
        },
        {
          "internalType": "uint256",
          "name": "B",
          "type": "uint256"
        },
        {
          "internalType": "uint256",
          "name": "T",
          "type": "uint256"
        }
      ],
      "name": "calcSynthUnits",
      "outputs": [
        {
          "internalType": "uint256",
          "name": "",
          "type": "uint256"
        }
      ],
      "stateMutability": "pure",
      "type": "function",
      "constant": true
    },
    {
      "inputs": [
        {
          "internalType": "uint256",
          "name": "u",
          "type": "uint256"
        },
        {
          "internalType": "uint256",
          "name": "U",
          "type": "uint256"
        },
        {
          "internalType": "uint256",
          "name": "A",
          "type": "uint256"
        }
      ],
      "name": "calcAsymmetricShare",
      "outputs": [
        {
          "internalType": "uint256",
          "name": "",
          "type": "uint256"
        }
      ],
      "stateMutability": "pure",
      "type": "function",
      "constant": true
    },
    {
      "inputs": [
        {
          "internalType": "uint256",
          "name": "B0",
          "type": "uint256"
        },
        {
          "internalType": "uint256",
          "name": "T0",
          "type": "uint256"
        },
        {
          "internalType": "uint256",
          "name": "B1",
          "type": "uint256"
        },
        {
          "internalType": "uint256",
          "name": "T1",
          "type": "uint256"
        }
      ],
      "name": "calcCoverage",
      "outputs": [
        {
          "internalType": "uint256",
          "name": "",
          "type": "uint256"
        }
      ],
      "stateMutability": "pure",
      "type": "function",
      "constant": true
    },
    {
      "inputs": [
        {
          "internalType": "uint256[]",
          "name": "array",
          "type": "uint256[]"
        }
      ],
      "name": "sortArray",
      "outputs": [
        {
          "internalType": "uint256[]",
          "name": "",
          "type": "uint256[]"
        }
      ],
      "stateMutability": "pure",
      "type": "function",
      "constant": true
    }
  ],
  "bytecode": "0x60a06040523480156200001157600080fd5b50604051620034e4380380620034e483398101604081905262000034916200004a565b60601b6001600160601b0319166080526200007a565b6000602082840312156200005c578081fd5b81516001600160a01b038116811462000073578182fd5b9392505050565b60805160601c613413620000d1600039600081816101fa015281816110970152818161176901528181611eb301528181612a7201528181612b7a01528181612c4501528181612d100152612ddb01526134136000f3fe608060405234801561001057600080fd5b50600436106101f05760003560e01c80638b18b1151161010f578063c5c11ee9116100a2578063dcf3f1e011610071578063dcf3f1e01461048a578063e379976e1461049d578063eb7d5ddf146104bd578063ec1753f1146104d0576101f0565b8063c5c11ee91461043c578063cf975e7b1461044f578063d549a1ec14610464578063db39dc7914610477576101f0565b8063b80e44b8116100de578063b80e44b8146103f0578063bd2bdaf214610403578063c0c4a72414610416578063c2886b8a14610429576101f0565b80638b18b115146103a4578063945821af146103b75780639e3f1e8e146103ca578063b4951e4a146103dd576101f0565b80635b16ebb7116101875780637011add3116101565780637011add31461033d578063701baaf31461036b578063714270ab1461037e578063896a708c14610391576101f0565b80635b16ebb7146102cc5780635c22141f146102ef5780635f2c12e8146103175780636e899aa31461032a576101f0565b80632db6e488116101c35780632db6e488146102805780634a12765114610293578063595a88a7146102a65780635b0b602d146102b9576101f0565b806301681315146101f557806302bf4bf81461023957806312a86ffb1461025a5780631ba326c41461026d575b600080fd5b61021c7f000000000000000000000000000000000000000000000000000000000000000081565b6040516001600160a01b0390911681526020015b60405180910390f35b61024c610247366004613253565b6104e3565b604051908152602001610230565b61024c610268366004612eda565b61059e565b61024c61027b366004613228565b61096a565b61024c61028e3660046131e4565b61099d565b61024c6102a1366004613228565b6109bf565b61024c6102b4366004613253565b610a64565b61024c6102c7366004612f52565b610acc565b6102df6102da366004612ea2565b610c61565b6040519015158152602001610230565b6103026102fd366004613003565b610d7d565b60408051928352602083019190915201610230565b61024c610325366004612f97565b610ff4565b6102df610338366004612ea2565b611093565b61035061034b3660046131ae565b6110f2565b60408051938452602084019290925290820152606001610230565b61024c610379366004613228565b611481565b61024c61038c3660046131e4565b6114c7565b61024c61039f366004613228565b61152d565b61024c6103b23660046131e4565b61153b565b61024c6103c5366004612f12565b611549565b61024c6103d8366004612eda565b61161e565b61024c6103eb366004612f97565b611765565b61024c6103fe366004612f97565b611bda565b61024c6104113660046131e4565b611c70565b61024c610424366004612f97565b611c7e565b61024c610437366004612eda565b611d44565b61024c61044a366004613284565b611e0e565b61046261045d366004612eda565b611eb1565b005b610302610472366004613003565b612442565b61024c610485366004612f97565b612723565b61024c610498366004612fc2565b6127ce565b6104b06104ab36600461309c565b6127de565b60405161023091906132be565b6104626104cb366004613055565b612938565b61024c6104de366004613228565b612a57565b6000806104f0848661333a565b905060006104fe848861333a565b905060008661050e89600261333a565b6105189190613302565b905060006105268688613302565b90506000838511156105435761053c8486613359565b9050610550565b61054d8585613359565b90505b600061055c838561333a565b905080610571670de0b6b3a76400008461333a565b61057b919061331a565b61058d90670de0b6b3a7640000613359565b96505050505050505b949350505050565b6000806105a9612a6e565b6040517fff8b83a60000000000000000000000000000000000000000000000000000000081526001600160a01b0386811660048301528581166024830152919091169063ff8b83a69060440160206040518083038186803b15801561060d57600080fd5b505afa158015610621573d6000803e3d6000fd5b505050506040513d601f19601f820116820180604052508101906106459190613196565b90506000610651612a6e565b6040517fcfa701c50000000000000000000000000000000000000000000000000000000081526001600160a01b0387811660048301528681166024830152919091169063cfa701c59060440160206040518083038186803b1580156106b557600080fd5b505afa1580156106c9573d6000803e3d6000fd5b505050506040513d601f19601f820116820180604052508101906106ed9190613196565b905060006106f9612b76565b60405163024ef37560e41b81526001600160a01b038781166004830152888116602483015291909116906324ef37509060440160206040518083038186803b15801561074457600080fd5b505afa158015610758573d6000803e3d6000fd5b505050506040513d601f19601f8201168201806040525081019061077c9190613196565b9050600061088b8261078c612b76565b604051630fefbc0960e01b81526001600160a01b038a811660048301529190911690630fefbc099060240160206040518083038186803b1580156107cf57600080fd5b505afa1580156107e3573d6000803e3d6000fd5b505050506040513d601f19601f820116820180604052508101906108079190613196565b61080f612b76565b60405163b34c8afb60e01b81526001600160a01b038b81166004830152919091169063b34c8afb906024015b60206040518083038186803b15801561085357600080fd5b505afa158015610867573d6000803e3d6000fd5b505050506040513d601f19601f8201168201806040525081019061027b9190613196565b9050600061094e8361089b612b76565b604051630fefbc0960e01b81526001600160a01b038b811660048301529190911690630fefbc099060240160206040518083038186803b1580156108de57600080fd5b505afa1580156108f2573d6000803e3d6000fd5b505050506040513d601f19601f820116820180604052508101906109169190613196565b61091e612b76565b60405163e6ae1a9760e01b81526001600160a01b038c81166004830152919091169063e6ae1a979060240161083b565b905061095c85858484610a64565b955050505050505b92915050565b600082841115610978578293505b82156109965782610989858461333a565b610993919061331a565b90505b9392505050565b60006109a98284613302565b6109b58461271061333a565b610996919061331a565b6000806109cc848661333a565b90506000836109dc81600261333a565b6109e6919061333a565b90506000866109f687600261333a565b610a00919061333a565b90506000610a0e878061333a565b9050600081610a1d8486613359565b610a279190613302565b610a31908661333a565b9050600088610a40818061333a565b610a4a919061333a565b9050610a56818361331a565b9a9950505050505050505050565b600081610a7357506000610596565b600082610a80858761333a565b610a8a919061331a565b610a949087613302565b90506000610aa385600261333a565b9050808211610ab757600092505050610596565b610ac18183613359565b979650505050505050565b600080610ad9868661059e565b9050610ae3612a6e565b6040517f774d70e40000000000000000000000000000000000000000000000000000000081526001600160a01b038781166004830152919091169063774d70e49060240160206040518083038186803b158015610b3f57600080fd5b505afa158015610b53573d6000803e3d6000fd5b505050506040513d601f19601f82011682018060405250810190610b77919061317a565b15610c4d576000610b86612a6e565b6040517f6a87def50000000000000000000000000000000000000000000000000000000081526001600160a01b03898116600483015288811660248301529190911690636a87def59060440160206040518083038186803b158015610bea57600080fd5b505afa158015610bfe573d6000803e3d6000fd5b505050506040513d601f19601f82011682018060405250810190610c229190613196565b610c2c9042613359565b9050838111610c4757610c4081858461096a565b9250610c4b565b8192505b505b610c5784836114c7565b9695505050505050565b6000610c6b612b76565b604051636c66769560e11b81526001600160a01b038481166004830152919091169063d8cced2a9060240160206040518083038186803b158015610cae57600080fd5b505afa158015610cc2573d6000803e3d6000fd5b505050506040513d601f19601f82011682018060405250810190610ce6919061317a565b80610d6f5750610cf4612b76565b60405163643fd21560e11b81526001600160a01b038481166004830152919091169063c87fa42a9060240160206040518083038186803b158015610d3757600080fd5b505afa158015610d4b573d6000803e3d6000fd5b505050506040513d601f19601f82011682018060405250810190610d6f919061317a565b15610d78575060015b919050565b60008080612710610d9087611a0a61333a565b610d9a919061331a565b9050610da585611093565b15610db257809150610fde565b610dbb85610c61565b15610ed957610ed281610dcc612b76565b60405163024ef37560e41b81526001600160a01b0389811660048301528b8116602483015291909116906324ef37509060440160206040518083038186803b158015610e1757600080fd5b505afa158015610e2b573d6000803e3d6000fd5b505050506040513d601f19601f82011682018060405250810190610e4f9190613196565b610e57612b76565b60405163b34c8afb60e01b81526001600160a01b038a81166004830152919091169063b34c8afb9060240160206040518083038186803b158015610e9a57600080fd5b505afa158015610eae573d6000803e3d6000fd5b505050506040513d601f19601f820116820180604052508101906102a19190613196565b9150610fde565b610ee1612c41565b604051632f011bf560e11b81526001600160a01b0387811660048301529190911690635e0237ea9060240160206040518083038186803b158015610f2457600080fd5b505afa158015610f38573d6000803e3d6000fd5b505050506040513d601f19601f82011682018060405250810190610f5c919061317a565b15610fde57610fdb856001600160a01b03166382bfefc86040518163ffffffff1660e01b815260040160206040518083038186803b158015610f9d57600080fd5b505afa158015610fb1573d6000803e3d6000fd5b505050506040513d601f19601f82011682018060405250810190610fd59190612ebe565b82611bda565b91505b610fe88483610ff4565b92505094509492505050565b6000806000611001612b76565b60405163903443b960e01b81526001600160a01b038781166004830152919091169063903443b990602401604080518083038186803b15801561104357600080fd5b505afa158015611057573d6000803e3d6000fd5b505050506040513d601f19601f8201168201806040525081019061107b9190613205565b9150915061108a848383611481565b95945050505050565b60007f00000000000000000000000000000000000000000000000000000000000000006001600160a01b0316826001600160a01b0316148061096457506110d8612d0c565b6001600160a01b0316826001600160a01b03161492915050565b600080600061118686611103612b76565b60405163024ef37560e41b81526001600160a01b038981166004830152888116602483015291909116906324ef37509060440160206040518083038186803b15801561114e57600080fd5b505afa158015611162573d6000803e3d6000fd5b505050506040513d601f19601f8201168201806040525081019061038c9190613196565b92506000611192612b76565b604051630fefbc0960e01b81526001600160a01b0388811660048301529190911690630fefbc099060240160206040518083038186803b1580156111d557600080fd5b505afa1580156111e9573d6000803e3d6000fd5b505050506040513d601f19601f8201168201806040525081019061120d9190613196565b90506000611219612b76565b60405163b34c8afb60e01b81526001600160a01b038981166004830152919091169063b34c8afb9060240160206040518083038186803b15801561125c57600080fd5b505afa158015611270573d6000803e3d6000fd5b505050506040513d601f19601f820116820180604052508101906112949190613196565b905060006112a0612b76565b60405163e6ae1a9760e01b81526001600160a01b038a81166004830152919091169063e6ae1a979060240160206040518083038186803b1580156112e357600080fd5b505afa1580156112f7573d6000803e3d6000fd5b505050506040513d601f19601f8201168201806040525081019061131b9190613196565b90506000611327612c41565b6040517fdcec81160000000000000000000000000000000000000000000000000000000081526001600160a01b038b81166004830152919091169063dcec81169060240160206040518083038186803b15801561138357600080fd5b505afa158015611397573d6000803e3d6000fd5b505050506040513d601f19601f820116820180604052508101906113bb9190612ebe565b90506001600160a01b0381161561145a576000816001600160a01b03166318160ddd6040518163ffffffff1660e01b815260040160206040518083038186803b15801561140757600080fd5b505afa15801561141b573d6000803e3d6000fd5b505050506040513d601f19601f8201168201806040525081019061143f9190613196565b905061144c818585612a57565b6114569086613302565b9450505b61146587858561096a565b955061147287858461096a565b94505050505093509350939050565b6000808261148f858761333a565b611499919061333a565b905060006114a78587613302565b6114b18688613302565b6114bb919061333a565b9050610c57818361331a565b60006127108311156115205760405162461bcd60e51b815260206004820152601260248201527f4d75737420626520636f7272656374204250000000000000000000000000000060448201526064015b60405180910390fd5b610996836127108461096a565b6000808261148f868061333a565b60006109968383606461096a565b60008061155f836301e1338061027b8888611d44565b905061156a85611093565b15611580576115798482612723565b9150611616565b611588612c41565b604051632f011bf560e11b81526001600160a01b0387811660048301529190911690635e0237ea9060240160206040518083038186803b1580156115cb57600080fd5b505afa1580156115df573d6000803e3d6000fd5b505050506040513d601f19601f82011682018060405250810190611603919061317a565b15611616576116138482876127ce565b91505b509392505050565b600080611629612dd7565b6040517f82eb72330000000000000000000000000000000000000000000000000000000081526001600160a01b038681166004830152858116602483015291909116906382eb72339060440160206040518083038186803b15801561168d57600080fd5b505afa1580156116a1573d6000803e3d6000fd5b505050506040513d601f19601f820116820180604052508101906116c59190613196565b905060006116d1612b76565b60405163e6ae1a9760e01b81526001600160a01b038681166004830152919091169063e6ae1a979060240160206040518083038186803b15801561171457600080fd5b505afa158015611728573d6000803e3d6000fd5b505050506040513d601f19601f8201168201806040525081019061174c9190613196565b90508061175b8361271061333a565b61108a919061331a565b60007f00000000000000000000000000000000000000000000000000000000000000006001600160a01b0316630781f4d26040518163ffffffff1660e01b815260040160206040518083038186803b1580156117c057600080fd5b505afa1580156117d4573d6000803e3d6000fd5b505050506040513d601f19601f820116820180604052508101906117f8919061317a565b801561189b5750611807612a6e565b6040517f774d70e40000000000000000000000000000000000000000000000000000000081526001600160a01b038581166004830152919091169063774d70e49060240160206040518083038186803b15801561186357600080fd5b505afa158015611877573d6000803e3d6000fd5b505050506040513d601f19601f8201168201806040525081019061189b919061317a565b156109645760006118aa612b76565b60405163b34c8afb60e01b81526001600160a01b038681166004830152919091169063b34c8afb9060240160206040518083038186803b1580156118ed57600080fd5b505afa158015611901573d6000803e3d6000fd5b505050506040513d601f19601f820116820180604052508101906119259190613196565b905061192f612b76565b60405163643fd21560e11b81526001600160a01b038681166004830152919091169063c87fa42a9060240160206040518083038186803b15801561197257600080fd5b505afa158015611986573d6000803e3d6000fd5b505050506040513d601f19601f820116820180604052508101906119aa919061317a565b15611a81576000611a6d826119bd612b76565b6001600160a01b031663a9652dca6040518163ffffffff1660e01b815260040160206040518083038186803b1580156119f557600080fd5b505afa158015611a09573d6000803e3d6000fd5b505050506040513d601f19601f82011682018060405250810190611a2d9190613196565b611a35612a6e565b6001600160a01b031663de6ad44e6040518163ffffffff1660e01b815260040160206040518083038186803b15801561085357600080fd5b9050611a798185611c70565b925050611bd3565b611a89612b76565b604051636c66769560e11b81526001600160a01b038681166004830152919091169063d8cced2a9060240160206040518083038186803b158015611acc57600080fd5b505afa158015611ae0573d6000803e3d6000fd5b505050506040513d601f19601f82011682018060405250810190611b04919061317a565b15611bd3576000611bc782611b17612b76565b6001600160a01b031663dd5a2bd86040518163ffffffff1660e01b815260040160206040518083038186803b158015611b4f57600080fd5b505afa158015611b63573d6000803e3d6000fd5b505050506040513d601f19601f82011682018060405250810190611b879190613196565b611b8f612a6e565b6001600160a01b03166362cea3406040518163ffffffff1660e01b815260040160206040518083038186803b15801561085357600080fd5b905061108a8185611c70565b5092915050565b6000806000611be7612b76565b60405163903443b960e01b81526001600160a01b038781166004830152919091169063903443b990602401604080518083038186803b158015611c2957600080fd5b505afa158015611c3d573d6000803e3d6000fd5b505050506040513d601f19601f82011682018060405250810190611c619190613205565b9150915061108a848284611481565b60006109966001838561096a565b6000806000611c8b612b76565b60405163903443b960e01b81526001600160a01b038781166004830152919091169063903443b990602401604080518083038186803b158015611ccd57600080fd5b505afa158015611ce1573d6000803e3d6000fd5b505050506040513d601f19601f82011682018060405250810190611d059190613205565b91509150600082118015611d195750600081115b15611d3c5781611d29828661333a565b611d33919061331a565b92505050610964565b505092915050565b600080611d51848461161e565b9050612710611d5e612dd7565b6040517f82eb72330000000000000000000000000000000000000000000000000000000081526001600160a01b038781166004830152868116602483015291909116906382eb72339060440160206040518083038186803b158015611dc257600080fd5b505afa158015611dd6573d6000803e3d6000fd5b505050506040513d601f19601f82011682018060405250810190611dfa9190613196565b611e04908361333a565b610596919061331a565b600081611e1c57508461108a565b6000611e2a878787876104e3565b90506000611e38878761333a565b90506000611e46898761333a565b9050600088611e5688600261333a565b611e60919061333a565b9050600081611e6f8486613302565b611e79908961333a565b611e83919061331a565b9050670de0b6b3a7640000611e98868361333a565b611ea2919061331a565b9b9a5050505050505050505050565b7f00000000000000000000000000000000000000000000000000000000000000006001600160a01b0316826001600160a01b03161415611fc057611ef3612b76565b604051636c66769560e11b81526001600160a01b038381166004830152919091169063d8cced2a906024015b60206040518083038186803b158015611f3757600080fd5b505afa158015611f4b573d6000803e3d6000fd5b505050506040513d601f19601f82011682018060405250810190611f6f919061317a565b611fbb5760405162461bcd60e51b815260206004820152600960248201527f42616420436f6d626f00000000000000000000000000000000000000000000006044820152606401611517565b61243e565b611fc8612d0c565b6001600160a01b0316826001600160a01b0316141561201957611fe9612b76565b60405163643fd21560e11b81526001600160a01b038381166004830152919091169063c87fa42a90602401611f1f565b612021612b76565b604051632f011bf560e11b81526001600160a01b0384811660048301529190911690635e0237ea90602401602060405180830381600087803b15801561206657600080fd5b505af115801561207a573d6000803e3d6000fd5b505050506040513d601f19601f8201168201806040525081019061209e919061317a565b80156121bb57506120ad612b76565b6001600160a01b031663d8cced2a836001600160a01b03166382bfefc86040518163ffffffff1660e01b815260040160206040518083038186803b1580156120f457600080fd5b505afa158015612108573d6000803e3d6000fd5b505050506040513d601f19601f8201168201806040525081019061212c9190612ebe565b6040517fffffffff0000000000000000000000000000000000000000000000000000000060e084901b1681526001600160a01b03909116600482015260240160206040518083038186803b15801561218357600080fd5b505afa158015612197573d6000803e3d6000fd5b505050506040513d601f19601f820116820180604052508101906121bb919061317a565b156121c857611ef3612b76565b6121d0612b76565b604051632f011bf560e11b81526001600160a01b0384811660048301529190911690635e0237ea90602401602060405180830381600087803b15801561221557600080fd5b505af1158015612229573d6000803e3d6000fd5b505050506040513d601f19601f8201168201806040525081019061224d919061317a565b801561236a575061225c612b76565b6001600160a01b031663c87fa42a836001600160a01b03166382bfefc86040518163ffffffff1660e01b815260040160206040518083038186803b1580156122a357600080fd5b505afa1580156122b7573d6000803e3d6000fd5b505050506040513d601f19601f820116820180604052508101906122db9190612ebe565b6040517fffffffff0000000000000000000000000000000000000000000000000000000060e084901b1681526001600160a01b03909116600482015260240160206040518083038186803b15801561233257600080fd5b505afa158015612346573d6000803e3d6000fd5b505050506040513d601f19601f8201168201806040525081019061236a919061317a565b1561243e57612377612b76565b60405163643fd21560e11b81526001600160a01b038381166004830152919091169063c87fa42a9060240160206040518083038186803b1580156123ba57600080fd5b505afa1580156123ce573d6000803e3d6000fd5b505050506040513d601f19601f820116820180604052508101906123f2919061317a565b61243e5760405162461bcd60e51b815260206004820152600960248201527f42616420436f6d626f00000000000000000000000000000000000000000000006044820152606401611517565b5050565b600080600061244f612dd7565b6040517fcbc17db30000000000000000000000000000000000000000000000000000000081526001600160a01b03898116600483015287811660248301528681166044830152919091169063cbc17db39060640160206040518083038186803b1580156124bb57600080fd5b505afa1580156124cf573d6000803e3d6000fd5b505050506040513d601f19601f820116820180604052508101906124f39190613196565b905060006124ff612dd7565b6040517ffde3bbe90000000000000000000000000000000000000000000000000000000081526001600160a01b038a8116600483015288811660248301528781166044830152919091169063fde3bbe99060640160206040518083038186803b15801561256b57600080fd5b505afa15801561257f573d6000803e3d6000fd5b505050506040513d601f19601f820116820180604052508101906125a39190613196565b905060006125af612dd7565b6040517fe672f6ad0000000000000000000000000000000000000000000000000000000081526001600160a01b0389811660048301528881166024830152919091169063e672f6ad9060440160206040518083038186803b15801561261357600080fd5b505afa158015612627573d6000803e3d6000fd5b505050506040513d601f19601f8201168201806040525081019061264b9190613196565b90506000612657612dd7565b6040517fe0f52db30000000000000000000000000000000000000000000000000000000081526001600160a01b038a811660048301528981166024830152919091169063e0f52db39060440160206040518083038186803b1580156126bb57600080fd5b505afa1580156126cf573d6000803e3d6000fd5b505050506040513d601f19601f820116820180604052508101906126f39190613196565b9050600061270284848461096a565b905060006127118b878761096a565b9c919b50909950505050505050505050565b6000806000612730612b76565b60405163903443b960e01b81526001600160a01b038781166004830152919091169063903443b990602401604080518083038186803b15801561277257600080fd5b505afa158015612786573d6000803e3d6000fd5b505050506040513d601f19601f820116820180604052508101906127aa9190613205565b915091506000821180156127be5750600081115b15611d3c5780611d29838661333a565b6000610993826104248686612723565b805160609060005b818110156129305760006127fb826001613302565b90505b8281101561291d5784818151811061282657634e487b7160e01b600052603260045260246000fd5b602002602001015185838151811061284e57634e487b7160e01b600052603260045260246000fd5b6020026020010151111561290b57600085838151811061287e57634e487b7160e01b600052603260045260246000fd5b602002602001015190508582815181106128a857634e487b7160e01b600052603260045260246000fd5b60200260200101518684815181106128d057634e487b7160e01b600052603260045260246000fd5b602002602001018181525050808683815181106128fd57634e487b7160e01b600052603260045260246000fd5b602002602001018181525050505b8061291581613370565b9150506127fe565b508061292881613370565b9150506127e6565b509192915050565b600061294c85670de0b6b3a7640000612723565b9050600061296561295f86612710613359565b846114c7565b905060006127106129768782613302565b612980908661333a565b61298a919061331a565b905084156129f3578183101580156129a25750808311155b6129ee5760405162461bcd60e51b815260206004820152600a60248201527f4e6f7420696e73696465000000000000000000000000000000000000000000006044820152606401611517565b612a4e565b8183111580612a025750808310155b612a4e5760405162461bcd60e51b815260206004820152600b60248201527f4e6f74206f7574736964650000000000000000000000000000000000000000006044820152606401611517565b50505050505050565b6000612a6482600261333a565b610989848661333a565b60007f00000000000000000000000000000000000000000000000000000000000000006001600160a01b03166398fabd3a6040518163ffffffff1660e01b815260040160206040518083038186803b158015612ac957600080fd5b505afa158015612add573d6000803e3d6000fd5b505050506040513d601f19601f82011682018060405250810190612b019190612ebe565b6001600160a01b03166332fe7b266040518163ffffffff1660e01b815260040160206040518083038186803b158015612b3957600080fd5b505afa158015612b4d573d6000803e3d6000fd5b505050506040513d601f19601f82011682018060405250810190612b719190612ebe565b905090565b60007f00000000000000000000000000000000000000000000000000000000000000006001600160a01b03166398fabd3a6040518163ffffffff1660e01b815260040160206040518083038186803b158015612bd157600080fd5b505afa158015612be5573d6000803e3d6000fd5b505050506040513d601f19601f82011682018060405250810190612c099190612ebe565b6001600160a01b031663ebccb5b26040518163ffffffff1660e01b815260040160206040518083038186803b158015612b3957600080fd5b60007f00000000000000000000000000000000000000000000000000000000000000006001600160a01b03166398fabd3a6040518163ffffffff1660e01b815260040160206040518083038186803b158015612c9c57600080fd5b505afa158015612cb0573d6000803e3d6000fd5b505050506040513d601f19601f82011682018060405250810190612cd49190612ebe565b6001600160a01b0316632dd310006040518163ffffffff1660e01b815260040160206040518083038186803b158015612b3957600080fd5b60007f00000000000000000000000000000000000000000000000000000000000000006001600160a01b03166398fabd3a6040518163ffffffff1660e01b815260040160206040518083038186803b158015612d6757600080fd5b505afa158015612d7b573d6000803e3d6000fd5b505050506040513d601f19601f82011682018060405250810190612d9f9190612ebe565b6001600160a01b031663e2c3b0466040518163ffffffff1660e01b815260040160206040518083038186803b158015612b3957600080fd5b60007f00000000000000000000000000000000000000000000000000000000000000006001600160a01b03166398fabd3a6040518163ffffffff1660e01b815260040160206040518083038186803b158015612e3257600080fd5b505afa158015612e46573d6000803e3d6000fd5b505050506040513d601f19601f82011682018060405250810190612e6a9190612ebe565b6001600160a01b03166338a1046d6040518163ffffffff1660e01b815260040160206040518083038186803b158015612b3957600080fd5b600060208284031215612eb3578081fd5b8135610996816133b7565b600060208284031215612ecf578081fd5b8151610996816133b7565b60008060408385031215612eec578081fd5b8235612ef7816133b7565b91506020830135612f07816133b7565b809150509250929050565b600080600060608486031215612f26578081fd5b8335612f31816133b7565b92506020840135612f41816133b7565b929592945050506040919091013590565b60008060008060808587031215612f67578081fd5b8435612f72816133b7565b93506020850135612f82816133b7565b93969395505050506040820135916060013590565b60008060408385031215612fa9578182fd5b8235612fb4816133b7565b946020939093013593505050565b600080600060608486031215612fd6578283fd5b8335612fe1816133b7565b9250602084013591506040840135612ff8816133b7565b809150509250925092565b60008060008060808587031215613018578384fd5b8435613023816133b7565b935060208501359250604085013561303a816133b7565b9150606085013561304a816133b7565b939692955090935050565b6000806000806080858703121561306a578384fd5b8435613075816133b7565b935060208501359250604085013561308c816133cf565b9396929550929360600135925050565b600060208083850312156130ae578182fd5b823567ffffffffffffffff808211156130c5578384fd5b818501915085601f8301126130d8578384fd5b8135818111156130ea576130ea6133a1565b8060051b6040517fffffffffffffffffffffffffffffffffffffffffffffffffffffffffffffffe0603f8301168101818110858211171561312d5761312d6133a1565b604052828152858101935084860182860187018a101561314b578788fd5b8795505b8386101561316d57803585526001959095019493860193860161314f565b5098975050505050505050565b60006020828403121561318b578081fd5b8151610996816133cf565b6000602082840312156131a7578081fd5b5051919050565b6000806000606084860312156131c2578283fd5b8335925060208401356131d4816133b7565b91506040840135612ff8816133b7565b600080604083850312156131f6578182fd5b50508035926020909101359150565b60008060408385031215613217578182fd5b505080516020909101519092909150565b60008060006060848603121561323c578081fd5b505081359360208301359350604090920135919050565b60008060008060808587031215613268578182fd5b5050823594602084013594506040840135936060013592509050565b600080600080600060a0868803121561329b578283fd5b505083359560208501359550604085013594606081013594506080013592509050565b6020808252825182820181905260009190848201906040850190845b818110156132f6578351835292840192918401916001016132da565b50909695505050505050565b600082198211156133155761331561338b565b500190565b60008261333557634e487b7160e01b81526012600452602481fd5b500490565b60008160001904831182151516156133545761335461338b565b500290565b60008282101561336b5761336b61338b565b500390565b60006000198214156133845761338461338b565b5060010190565b634e487b7160e01b600052601160045260246000fd5b634e487b7160e01b600052604160045260246000fd5b6001600160a01b03811681146133cc57600080fd5b50565b80151581146133cc57600080fdfea264697066735822122023f7d8bd2555b86a32d3b2c7ad18524cd2b270990c02f43871acb56a0df3b64564736f6c63430008030033",
  "immutableReferences": {
    "10085": [
      {
        "length": 32,
        "start": 506
      },
      {
        "length": 32,
        "start": 4247
      },
      {
        "length": 32,
        "start": 5993
      },
      {
        "length": 32,
        "start": 7859
      },
      {
        "length": 32,
        "start": 10866
      },
      {
        "length": 32,
        "start": 11130
      },
      {
        "length": 32,
        "start": 11333
      },
      {
        "length": 32,
        "start": 11536
      },
      {
        "length": 32,
        "start": 11739
      }
    ]
  },
  "source": "// SPDX-License-Identifier: UNLICENSED\r\npragma solidity 0.8.3;\r\n\r\n// Interfaces\r\nimport \"./interfaces/iERC20.sol\";\r\nimport \"./interfaces/iDAO.sol\";\r\nimport \"./interfaces/iVADER.sol\";\r\nimport \"./interfaces/iROUTER.sol\";\r\nimport \"./interfaces/iLENDER.sol\";\r\nimport \"./interfaces/iPOOLS.sol\";\r\nimport \"./interfaces/iFACTORY.sol\";\r\nimport \"./interfaces/iSYNTH.sol\";\r\n\r\nimport \"hardhat/console.sol\";\r\n\r\ncontract Utils {\r\n    uint256 private constant one = 10**18;\r\n    uint256 private constant _10k = 10000;\r\n    uint256 private constant _year = 31536000; // One Year (in seconds)\r\n\r\n    address public immutable VADER;\r\n\r\n    constructor(address _vader) {\r\n        VADER = _vader;\r\n    }\r\n\r\n    //====================================SYSTEM FUNCTIONS====================================//\r\n    // VADER FeeOnTransfer\r\n    function getFeeOnTransfer(uint256 totalSupply, uint256 maxSupply) external pure returns (uint256) {\r\n        return calcShare(totalSupply, maxSupply, 100); // 0->100BP\r\n    }\r\n\r\n    function assetChecks(address collateralAsset, address debtAsset) external {\r\n        if (collateralAsset == VADER) {\r\n            require(iPOOLS(POOLS()).isAnchor(debtAsset), \"Bad Combo\"); // Can borrow Anchor with VADER/ANCHOR-SYNTH\r\n        } else if (collateralAsset == USDV()) {\r\n            require(iPOOLS(POOLS()).isAsset(debtAsset), \"Bad Combo\"); // Can borrow Asset with VADER/ASSET-SYNTH\r\n        } else if (iPOOLS(POOLS()).isSynth(collateralAsset) && iPOOLS(POOLS()).isAnchor(iSYNTH(collateralAsset).TOKEN())) {\r\n            require(iPOOLS(POOLS()).isAnchor(debtAsset), \"Bad Combo\"); // Can borrow Anchor with VADER/ANCHOR-SYNTH\r\n        } else if (iPOOLS(POOLS()).isSynth(collateralAsset) && iPOOLS(POOLS()).isAsset(iSYNTH(collateralAsset).TOKEN())) {\r\n            require(iPOOLS(POOLS()).isAsset(debtAsset), \"Bad Combo\"); // Can borrow Anchor with VADER/ANCHOR-SYNTH\r\n        }\r\n    }\r\n\r\n    function isBase(address token) public view returns (bool base) {\r\n        return token == VADER || token == USDV();\r\n    }\r\n\r\n    function isPool(address token) public view returns (bool pool) {\r\n        if (iPOOLS(POOLS()).isAnchor(token) || iPOOLS(POOLS()).isAsset(token)) {\r\n            pool = true;\r\n        }\r\n    }\r\n\r\n    //====================================PRICING====================================//\r\n\r\n    function calcValueInBase(address token, uint256 amount) public view returns (uint256 value) {\r\n        (uint256 _baseAmt, uint256 _tokenAmt) = iPOOLS(POOLS()).getPoolAmounts(token);\r\n        if (_baseAmt > 0 && _tokenAmt > 0) {\r\n            return (amount * _baseAmt) / _tokenAmt;\r\n        }\r\n    }\r\n\r\n    function calcValueInToken(address token, uint256 amount) public view returns (uint256 value) {\r\n        (uint256 _baseAmt, uint256 _tokenAmt) = iPOOLS(POOLS()).getPoolAmounts(token);\r\n        if (_baseAmt > 0 && _tokenAmt > 0) {\r\n            return (amount * _tokenAmt) / _baseAmt;\r\n        }\r\n    }\r\n\r\n    function calcValueOfTokenInToken(\r\n        address token1,\r\n        uint256 amount,\r\n        address token2\r\n    ) public view returns (uint256 value) {\r\n        return calcValueInToken(token2, calcValueInBase(token1, amount));\r\n    }\r\n\r\n    function calcSwapValueInBase(address token, uint256 amount) public view returns (uint256) {\r\n        (uint256 _baseAmt, uint256 _tokenAmt) = iPOOLS(POOLS()).getPoolAmounts(token);\r\n        return calcSwapOutput(amount, _tokenAmt, _baseAmt);\r\n    }\r\n\r\n    function calcSwapValueInToken(address token, uint256 amount) public view returns (uint256) {\r\n        (uint256 _baseAmt, uint256 _tokenAmt) = iPOOLS(POOLS()).getPoolAmounts(token);\r\n        return calcSwapOutput(amount, _baseAmt, _tokenAmt);\r\n    }\r\n\r\n    function requirePriceBounds(\r\n        address token,\r\n        uint256 bound,\r\n        bool inside,\r\n        uint256 targetPrice\r\n    ) external view {\r\n        uint256 _testingPrice = calcValueInBase(token, one);\r\n        uint256 _lower = calcPart((_10k - bound), targetPrice); // ie 98% of price\r\n        uint256 _upper = (targetPrice * (_10k + bound)) / _10k; // ie 105% of price\r\n        if (inside) {\r\n            require((_testingPrice >= _lower && _testingPrice <= _upper), \"Not inside\");\r\n        } else {\r\n            require((_testingPrice <= _lower || _testingPrice >= _upper), \"Not outside\");\r\n        }\r\n    }\r\n\r\n    function getMemberShare(uint256 basisPoints, address token, address member) external view returns(uint256 units, uint256 outputBase, uint256 outputToken) {\r\n        units = calcPart(basisPoints, iPOOLS(POOLS()).getMemberUnits(token, member));\r\n        uint256 _totalUnits = iPOOLS(POOLS()).getUnits(token);\r\n        uint256 _B = iPOOLS(POOLS()).getBaseAmount(token);\r\n        uint256 _T = iPOOLS(POOLS()).getTokenAmount(token);\r\n        address _synth = iFACTORY(FACTORY()).getSynth(token);\r\n        if(_synth != address(0)){\r\n            uint256 _S = iERC20(_synth).totalSupply();\r\n            _totalUnits = _totalUnits + calcSynthUnits(_S, _B, _T);\r\n        }\r\n        outputBase = calcShare(units, _totalUnits, _B);\r\n        outputToken = calcShare(units, _totalUnits, _T);\r\n    }\r\n\r\n    //====================================INCENTIVES========================================//\r\n\r\n    function getRewardShare(address token, uint256 rewardReductionFactor) external view returns (uint256 rewardShare) {\r\n        if (iVADER(VADER).emitting() && iROUTER(ROUTER()).isCurated(token)) {\r\n            uint256 _baseAmount = iPOOLS(POOLS()).getBaseAmount(token);\r\n            if (iPOOLS(POOLS()).isAsset(token)) {\r\n                uint256 _share = calcShare(_baseAmount, iPOOLS(POOLS()).pooledUSDV(), iROUTER(ROUTER()).reserveUSDV());\r\n                rewardShare = getReducedShare(_share, rewardReductionFactor);\r\n            } else if (iPOOLS(POOLS()).isAnchor(token)) {\r\n                uint256 _share = calcShare(_baseAmount, iPOOLS(POOLS()).pooledVADER(), iROUTER(ROUTER()).reserveVADER());\r\n                rewardShare = getReducedShare(_share, rewardReductionFactor);\r\n            }\r\n        }\r\n    }\r\n\r\n    function getReducedShare(uint256 amount, uint256 rewardReductionFactor) public pure returns (uint256) {\r\n        return calcShare(1, rewardReductionFactor, amount); // Reduce to stop depleting fast\r\n    }\r\n\r\n    //=================================IMPERMANENT LOSS=====================================//\r\n\r\n    // Actual protection with 100 day rule and Reserve balance\r\n    function getProtection(\r\n        address member,\r\n        address token,\r\n        uint256 basisPoints,\r\n        uint256 timeForFullProtection\r\n    ) external view returns (uint256 protection) {\r\n        uint256 _coverage = getCoverage(member, token);\r\n        if (iROUTER(ROUTER()).isCurated(token)) {\r\n            uint256 _duration = block.timestamp - iROUTER(ROUTER()).getMemberLastDeposit(member, token);\r\n            if (_duration <= timeForFullProtection) {\r\n                protection = calcShare(_duration, timeForFullProtection, _coverage); // Apply 100 day rule\r\n            } else {\r\n                protection = _coverage;\r\n            }\r\n        }\r\n        return calcPart(basisPoints, protection);\r\n    }\r\n\r\n    // Theoretical coverage based on deposit/redemption values\r\n    function getCoverage(address member, address token) public view returns (uint256) {\r\n        uint256 _B0 = iROUTER(ROUTER()).getMemberBaseDeposit(member, token);\r\n        uint256 _T0 = iROUTER(ROUTER()).getMemberTokenDeposit(member, token);\r\n        uint256 _units = iPOOLS(POOLS()).getMemberUnits(token, member);\r\n        uint256 _B1 = calcShare(_units, iPOOLS(POOLS()).getUnits(token), iPOOLS(POOLS()).getBaseAmount(token));\r\n        uint256 _T1 = calcShare(_units, iPOOLS(POOLS()).getUnits(token), iPOOLS(POOLS()).getTokenAmount(token));\r\n        return calcCoverage(_B0, _T0, _B1, _T1);\r\n    }\r\n\r\n    //==================================== LENDING ====================================//\r\n\r\n    function getCollateralValueInBase(\r\n        address member,\r\n        uint256 collateral,\r\n        address collateralAsset,\r\n        address debtAsset\r\n    ) external view returns (uint256 debt, uint256 baseValue) {\r\n        uint256 _collateralAdjusted = (collateral * 6666) / 10000; // 150% collateral Ratio\r\n        if (isBase(collateralAsset)) {\r\n            baseValue = _collateralAdjusted;\r\n        } else if (isPool(collateralAsset)) {\r\n            baseValue = calcAsymmetricShare(\r\n                _collateralAdjusted,\r\n                iPOOLS(POOLS()).getMemberUnits(collateralAsset, member),\r\n                iPOOLS(POOLS()).getBaseAmount(collateralAsset)\r\n            ); // calc units to BASE\r\n        } else if (iFACTORY(FACTORY()).isSynth(collateralAsset)) {\r\n            baseValue = calcSwapValueInBase(iSYNTH(collateralAsset).TOKEN(), _collateralAdjusted); // Calc swap value\r\n        }\r\n        debt = calcSwapValueInToken(debtAsset, baseValue); // get debt output\r\n        return (debt, baseValue);\r\n    }\r\n\r\n    function getDebtValueInCollateral(\r\n        address member,\r\n        uint256 debt,\r\n        address collateralAsset,\r\n        address debtAsset\r\n    ) external view returns (uint256, uint256) {\r\n        uint256 _memberDebt = iLENDER(LENDER()).getMemberDebt(member, collateralAsset, debtAsset); // Outstanding Debt\r\n        uint256 _memberCollateral = iLENDER(LENDER()).getMemberCollateral(member, collateralAsset, debtAsset); // Collateral\r\n        uint256 _collateral = iLENDER(LENDER()).getSystemCollateral(collateralAsset, debtAsset);\r\n        uint256 _interestPaid = iLENDER(LENDER()).getSystemInterestPaid(collateralAsset, debtAsset);\r\n        uint256 _memberInterestShare = calcShare(_memberCollateral, _collateral, _interestPaid); // Share of interest based on collateral\r\n        uint256 _collateralUnlocked = calcShare(debt, _memberDebt, _memberCollateral);\r\n        return (_collateralUnlocked, _memberInterestShare);\r\n    }\r\n\r\n    function getInterestOwed(\r\n        address collateralAsset,\r\n        address debtAsset,\r\n        uint256 timeElapsed\r\n    ) external view returns (uint256 interestOwed) {\r\n        uint256 _interestPayment = calcShare(timeElapsed, _year, getInterestPayment(collateralAsset, debtAsset)); // Share of the payment over 1 year\r\n        if (isBase(collateralAsset)) {\r\n            interestOwed = calcValueInBase(debtAsset, _interestPayment); // Back to base\r\n        } else if (iFACTORY(FACTORY()).isSynth(collateralAsset)) {\r\n            interestOwed = calcValueOfTokenInToken(debtAsset, _interestPayment, collateralAsset); // Get value of Synth in debtAsset (doubleSwap)\r\n        }\r\n    }\r\n\r\n    function getInterestPayment(address collateralAsset, address debtAsset) public view returns (uint256) {\r\n        uint256 _debtLoading = getDebtLoading(collateralAsset, debtAsset);\r\n        return (_debtLoading * iLENDER(LENDER()).getSystemDebt(collateralAsset, debtAsset)) / 10000;\r\n    }\r\n\r\n    function getDebtLoading(address collateralAsset, address debtAsset) public view returns (uint256) {\r\n        uint256 _debtIssued = iLENDER(LENDER()).getSystemDebt(collateralAsset, debtAsset);\r\n        uint256 _debtDepth = iPOOLS(POOLS()).getTokenAmount(debtAsset);\r\n        return (_debtIssued * 10000) / _debtDepth;\r\n    }\r\n\r\n    //====================================CORE-MATH====================================//\r\n\r\n    function calcPart(uint256 bp, uint256 total) public pure returns (uint256) {\r\n        // 10,000 basis points = 100.00%\r\n        require(bp <= 10000, \"Must be correct BP\");\r\n        return calcShare(bp, 10000, total);\r\n    }\r\n\r\n    function calcShare(\r\n        uint256 part,\r\n        uint256 total,\r\n        uint256 amount\r\n    ) public pure returns (uint256 share) {\r\n        // share = amount * part/total\r\n        if (part > total) {\r\n            part = total;\r\n        }\r\n        if (total > 0) {\r\n            share = (amount * part) / total;\r\n        }\r\n    }\r\n\r\n    function calcSwapOutput(\r\n        uint256 x,\r\n        uint256 X,\r\n        uint256 Y\r\n    ) public pure returns (uint256) {\r\n        // y = (x * X * Y )/(x + X)^2\r\n        uint256 numerator = (x * X * Y);\r\n        uint256 denominator = (x + X) * (x + X);\r\n        return (numerator / denominator);\r\n    }\r\n\r\n    function calcSwapFee(\r\n        uint256 x,\r\n        uint256 X,\r\n        uint256 Y\r\n    ) external pure returns (uint256) {\r\n        // fee = (x * x * Y) / (x + X)^2\r\n        uint256 numerator = (x * x * Y);\r\n        uint256 denominator = (x + X) * (x + X);\r\n        return (numerator / denominator);\r\n    }\r\n\r\n    function calcSwapSlip(uint256 x, uint256 X) external pure returns (uint256) {\r\n        // slip = (x) / (x + X)\r\n        return (x * 10000) / (x + X);\r\n    }\r\n\r\n    function calcLiquidityUnits(\r\n        uint256 b,\r\n        uint256 B,\r\n        uint256 t,\r\n        uint256 T,\r\n        uint256 P\r\n    ) external pure returns (uint256) {\r\n        if (P == 0) {\r\n            return b;\r\n        } else {\r\n            // units = ((P (t B + T b))/(2 T B)) * slipAdjustment\r\n            // P * (part1 + part2) / (part3) * slipAdjustment\r\n            uint256 slipAdjustment = getSlipAdjustment(b, B, t, T);\r\n            uint256 part1 = t * B;\r\n            uint256 part2 = T * b;\r\n            uint256 part3 = 2 * T * B;\r\n            uint256 _units = P * (part1 + part2) / part3;\r\n            return (_units * slipAdjustment) / one; // Divide by 10**18\r\n        }\r\n    }\r\n\r\n    function getSlipAdjustment(\r\n        uint256 b,\r\n        uint256 B,\r\n        uint256 t,\r\n        uint256 T\r\n    ) public pure returns (uint256) {\r\n        // slipAdjustment = (1 - ABS((B t - b T)/((2 b + B) (t + T))))\r\n        // 1 - ABS(part1 - part2)/(part3 * part4))\r\n        uint256 part1 = B * t;\r\n        uint256 part2 = b * T;\r\n        uint256 part3 = (2 * b) + B;\r\n        uint256 part4 = t + T;\r\n        uint256 numerator;\r\n        if (part1 > part2) {\r\n            numerator = (part1 - part2);\r\n        } else {\r\n            numerator = (part2 - part1);\r\n        }\r\n        uint256 denominator = (part3 * part4);\r\n        return one - (numerator * one) / denominator; // Multiply by 10**18\r\n    }\r\n\r\n    function calcSynthUnits(\r\n        uint256 S,\r\n        uint256 B,\r\n        uint256 T\r\n    ) public pure returns (uint256) {\r\n        // (S * B)/(2 * T)\r\n        return (S * B) / (2 * T);\r\n    }\r\n\r\n    function calcAsymmetricShare(\r\n        uint256 u,\r\n        uint256 U,\r\n        uint256 A\r\n    ) public pure returns (uint256) {\r\n        // share = (u * U * (2 * A^2 - 2 * U * u + U^2))/U^3\r\n        // (part1 * (part2 - part3 + part4)) / part5\r\n        uint256 part1 = u * U;\r\n        uint256 part2 = 2 * A * A;\r\n        uint256 part3 = 2 * U * u;\r\n        uint256 part4 = U * U;\r\n        uint256 numerator = part1 * (part2 - part3 + part4);\r\n        uint256 part5 = U * U * U;\r\n        return numerator / part5;\r\n    }\r\n\r\n    // From the VADER whitepaper:\r\n    //   coverage = (B0 - B1) + (T0 - T1) * B1/T1\r\n    //     where\r\n    //       B0: USDVDeposited; T0: assetDeposited;\r\n    //       B1: USDVToRedeem;  T1: assetToRedeem;\r\n    // This is the same as\r\n    //   coverage = B0 + T0*B1/T1 - 2*B1\r\n    //     where\r\n    //       B0 + T0*B1/T1 is the deposit value\r\n    //       2*B1          is the redemption value\r\n    function calcCoverage(\r\n        uint256 B0,\r\n        uint256 T0,\r\n        uint256 B1,\r\n        uint256 T1\r\n    ) public pure returns (uint256) {\r\n        if (T1 == 0) {\r\n            return 0;\r\n        }\r\n        uint256 _depositValue = B0 + T0*B1/T1;\r\n        uint256 _redemptionValue = 2*B1;\r\n        if (_depositValue <= _redemptionValue) {\r\n            return 0;\r\n        }\r\n        return _depositValue - _redemptionValue;\r\n    }\r\n\r\n    // Sorts array in memory from low to high, returns in-memory (Does not need to modify storage)\r\n    function sortArray(uint256[] memory array) external pure returns (uint256[] memory) {\r\n        uint256 l = array.length;\r\n        for (uint256 i = 0; i < l; i++) {\r\n            for (uint256 j = i + 1; j < l; j++) {\r\n                if (array[i] > array[j]) {\r\n                    uint256 temp = array[i];\r\n                    array[i] = array[j];\r\n                    array[j] = temp;\r\n                }\r\n            }\r\n        }\r\n        return array;\r\n    }\r\n\r\n    //============================== HELPERS ================================//\r\n\r\n    function USDV() internal view returns(address){\r\n        return iDAO(iVADER(VADER).DAO()).USDV();\r\n    }\r\n    function ROUTER() internal view returns(address){\r\n        return iDAO(iVADER(VADER).DAO()).ROUTER();\r\n    }\r\n    function LENDER() internal view returns(address){\r\n        return iDAO(iVADER(VADER).DAO()).LENDER();\r\n    }\r\n    function POOLS() internal view returns(address){\r\n        return iDAO(iVADER(VADER).DAO()).POOLS();\r\n    }\r\n    function FACTORY() internal view returns(address){\r\n        return iDAO(iVADER(VADER).DAO()).FACTORY();\r\n    }\r\n\r\n}\r\n",
  "sourcePath": "E:/Web Workspace/Vader Protocol/vaderprotocol-contracts/contracts/Utils.sol",
  "compiler": {
    "name": "solc",
    "version": "0.8.3+commit.8d00100c.Emscripten.clang"
  },
  "schemaVersion": "3.4.0",
  "updatedAt": "2021-06-03T02:05:34.748Z",
  "networkType": "ethereum",
  "devdoc": {
    "kind": "dev",
    "methods": {},
    "version": 1
  },
  "userdoc": {
    "kind": "user",
    "methods": {},
    "version": 1
  }
}