{
  "contractName": "Vader",
  "abi": [
    {
      "inputs": [],
      "stateMutability": "nonpayable",
      "type": "constructor"
    },
    {
      "anonymous": false,
      "inputs": [
        {
          "indexed": true,
          "internalType": "address",
          "name": "owner",
          "type": "address"
        },
        {
          "indexed": true,
          "internalType": "address",
          "name": "spender",
          "type": "address"
        },
        {
          "indexed": false,
          "internalType": "uint256",
          "name": "value",
          "type": "uint256"
        }
      ],
      "name": "Approval",
      "type": "event"
    },
    {
      "anonymous": false,
      "inputs": [
        {
          "indexed": false,
          "internalType": "uint256",
          "name": "nextEraTime",
          "type": "uint256"
        },
        {
          "indexed": false,
          "internalType": "uint256",
          "name": "emission",
          "type": "uint256"
        }
      ],
      "name": "NewEra",
      "type": "event"
    },
    {
      "anonymous": false,
      "inputs": [
        {
          "indexed": true,
          "internalType": "address",
          "name": "from",
          "type": "address"
        },
        {
          "indexed": true,
          "internalType": "address",
          "name": "to",
          "type": "address"
        },
        {
          "indexed": false,
          "internalType": "uint256",
          "name": "value",
          "type": "uint256"
        }
      ],
      "name": "Transfer",
      "type": "event"
    },
    {
      "inputs": [],
      "name": "Admin",
      "outputs": [
        {
          "internalType": "address",
          "name": "",
          "type": "address"
        }
      ],
      "stateMutability": "view",
      "type": "function"
    },
    {
      "inputs": [],
      "name": "GovernorAlpha",
      "outputs": [
        {
          "internalType": "address",
          "name": "",
          "type": "address"
        }
      ],
      "stateMutability": "view",
      "type": "function"
    },
    {
      "inputs": [
        {
          "internalType": "address",
          "name": "owner",
          "type": "address"
        },
        {
          "internalType": "address",
          "name": "spender",
          "type": "address"
        }
      ],
      "name": "allowance",
      "outputs": [
        {
          "internalType": "uint256",
          "name": "",
          "type": "uint256"
        }
      ],
      "stateMutability": "view",
      "type": "function"
    },
    {
      "inputs": [
        {
          "internalType": "address",
          "name": "spender",
          "type": "address"
        },
        {
          "internalType": "uint256",
          "name": "amount",
          "type": "uint256"
        }
      ],
      "name": "approve",
      "outputs": [
        {
          "internalType": "bool",
          "name": "",
          "type": "bool"
        }
      ],
      "stateMutability": "nonpayable",
      "type": "function"
    },
    {
      "inputs": [
        {
          "internalType": "address",
          "name": "recipient",
          "type": "address"
        },
        {
          "internalType": "uint256",
          "name": "amount",
          "type": "uint256"
        },
        {
          "internalType": "bytes",
          "name": "data",
          "type": "bytes"
        }
      ],
      "name": "approveAndCall",
      "outputs": [
        {
          "internalType": "bool",
          "name": "",
          "type": "bool"
        }
      ],
      "stateMutability": "nonpayable",
      "type": "function"
    },
    {
      "inputs": [
        {
          "internalType": "address",
          "name": "account",
          "type": "address"
        }
      ],
      "name": "balanceOf",
      "outputs": [
        {
          "internalType": "uint256",
          "name": "",
          "type": "uint256"
        }
      ],
      "stateMutability": "view",
      "type": "function"
    },
    {
      "inputs": [],
      "name": "baseline",
      "outputs": [
        {
          "internalType": "uint256",
          "name": "",
          "type": "uint256"
        }
      ],
      "stateMutability": "view",
      "type": "function"
    },
    {
      "inputs": [
        {
          "internalType": "uint256",
          "name": "amount",
          "type": "uint256"
        }
      ],
      "name": "burn",
      "outputs": [],
      "stateMutability": "nonpayable",
      "type": "function"
    },
    {
      "inputs": [],
      "name": "burnAddress",
      "outputs": [
        {
          "internalType": "address",
          "name": "",
          "type": "address"
        }
      ],
      "stateMutability": "view",
      "type": "function"
    },
    {
      "inputs": [
        {
          "internalType": "address",
          "name": "account",
          "type": "address"
        },
        {
          "internalType": "uint256",
          "name": "amount",
          "type": "uint256"
        }
      ],
      "name": "burnFrom",
      "outputs": [],
      "stateMutability": "nonpayable",
      "type": "function"
    },
    {
      "inputs": [
        {
          "internalType": "address",
          "name": "newAdmin",
          "type": "address"
        }
      ],
      "name": "changeAdmin",
      "outputs": [],
      "stateMutability": "nonpayable",
      "type": "function"
    },
    {
      "inputs": [
        {
          "internalType": "address",
          "name": "newGovernorAlpha",
          "type": "address"
        }
      ],
      "name": "changeGovernorAlpha",
      "outputs": [],
      "stateMutability": "nonpayable",
      "type": "function"
    },
    {
      "inputs": [],
      "name": "conversionFactor",
      "outputs": [
        {
          "internalType": "uint256",
          "name": "",
          "type": "uint256"
        }
      ],
      "stateMutability": "view",
      "type": "function"
    },
    {
      "inputs": [
        {
          "internalType": "uint256",
          "name": "amount",
          "type": "uint256"
        }
      ],
      "name": "convertToUSDV",
      "outputs": [
        {
          "internalType": "uint256",
          "name": "",
          "type": "uint256"
        }
      ],
      "stateMutability": "nonpayable",
      "type": "function"
    },
    {
      "inputs": [
        {
          "internalType": "address",
          "name": "member",
          "type": "address"
        },
        {
          "internalType": "uint256",
          "name": "amount",
          "type": "uint256"
        }
      ],
      "name": "convertToUSDVForMember",
      "outputs": [
        {
          "internalType": "uint256",
          "name": "convertAmount",
          "type": "uint256"
        }
      ],
      "stateMutability": "nonpayable",
      "type": "function"
    },
    {
      "inputs": [],
      "name": "decimals",
      "outputs": [
        {
          "internalType": "uint8",
          "name": "",
          "type": "uint8"
        }
      ],
      "stateMutability": "view",
      "type": "function"
    },
    {
      "inputs": [
        {
          "internalType": "address",
          "name": "spender",
          "type": "address"
        },
        {
          "internalType": "uint256",
          "name": "subtractedValue",
          "type": "uint256"
        }
      ],
      "name": "decreaseAllowance",
      "outputs": [
        {
          "internalType": "bool",
          "name": "",
          "type": "bool"
        }
      ],
      "stateMutability": "nonpayable",
      "type": "function"
    },
    {
      "inputs": [],
      "name": "emissionCurve",
      "outputs": [
        {
          "internalType": "uint256",
          "name": "",
          "type": "uint256"
        }
      ],
      "stateMutability": "view",
      "type": "function"
    },
    {
      "inputs": [],
      "name": "emitting",
      "outputs": [
        {
          "internalType": "bool",
          "name": "",
          "type": "bool"
        }
      ],
      "stateMutability": "view",
      "type": "function"
    },
    {
      "inputs": [],
      "name": "feeOnTransfer",
      "outputs": [
        {
          "internalType": "uint256",
          "name": "",
          "type": "uint256"
        }
      ],
      "stateMutability": "view",
      "type": "function"
    },
    {
      "inputs": [],
      "name": "flipEmissions",
      "outputs": [],
      "stateMutability": "nonpayable",
      "type": "function"
    },
    {
      "inputs": [],
      "name": "flipMinting",
      "outputs": [],
      "stateMutability": "nonpayable",
      "type": "function"
    },
    {
      "inputs": [],
      "name": "getDailyEmission",
      "outputs": [
        {
          "internalType": "uint256",
          "name": "",
          "type": "uint256"
        }
      ],
      "stateMutability": "view",
      "type": "function"
    },
    {
      "inputs": [
        {
          "internalType": "address",
          "name": "spender",
          "type": "address"
        },
        {
          "internalType": "uint256",
          "name": "addedValue",
          "type": "uint256"
        }
      ],
      "name": "increaseAllowance",
      "outputs": [
        {
          "internalType": "bool",
          "name": "",
          "type": "bool"
        }
      ],
      "stateMutability": "nonpayable",
      "type": "function"
    },
    {
      "inputs": [],
      "name": "maxSupply",
      "outputs": [
        {
          "internalType": "uint256",
          "name": "",
          "type": "uint256"
        }
      ],
      "stateMutability": "view",
      "type": "function"
    },
    {
      "inputs": [],
      "name": "minting",
      "outputs": [
        {
          "internalType": "bool",
          "name": "",
          "type": "bool"
        }
      ],
      "stateMutability": "view",
      "type": "function"
    },
    {
      "inputs": [],
      "name": "name",
      "outputs": [
        {
          "internalType": "string",
          "name": "",
          "type": "string"
        }
      ],
      "stateMutability": "view",
      "type": "function"
    },
    {
      "inputs": [],
      "name": "nextEraTime",
      "outputs": [
        {
          "internalType": "uint256",
          "name": "",
          "type": "uint256"
        }
      ],
      "stateMutability": "view",
      "type": "function"
    },
    {
      "inputs": [],
      "name": "purgeAdmin",
      "outputs": [],
      "stateMutability": "nonpayable",
      "type": "function"
    },
    {
      "inputs": [],
      "name": "purgeGovernorAlpha",
      "outputs": [],
      "stateMutability": "nonpayable",
      "type": "function"
    },
    {
      "inputs": [
        {
          "internalType": "uint256",
          "name": "amount",
          "type": "uint256"
        }
      ],
      "name": "redeemToVADER",
      "outputs": [
        {
          "internalType": "uint256",
          "name": "redeemAmount",
          "type": "uint256"
        }
      ],
      "stateMutability": "nonpayable",
      "type": "function"
    },
    {
      "inputs": [
        {
          "internalType": "address",
          "name": "member",
          "type": "address"
        },
        {
          "internalType": "uint256",
          "name": "amount",
          "type": "uint256"
        }
      ],
      "name": "redeemToVADERForMember",
      "outputs": [
        {
          "internalType": "uint256",
          "name": "redeemAmount",
          "type": "uint256"
        }
      ],
      "stateMutability": "nonpayable",
      "type": "function"
    },
    {
      "inputs": [],
      "name": "secondsPerEra",
      "outputs": [
        {
          "internalType": "uint256",
          "name": "",
          "type": "uint256"
        }
      ],
      "stateMutability": "view",
      "type": "function"
    },
    {
      "inputs": [
        {
          "internalType": "uint256",
          "name": "newEra",
          "type": "uint256"
        },
        {
          "internalType": "uint256",
          "name": "newCurve",
          "type": "uint256"
        }
      ],
      "name": "setParams",
      "outputs": [],
      "stateMutability": "nonpayable",
      "type": "function"
    },
    {
      "inputs": [],
      "name": "symbol",
      "outputs": [
        {
          "internalType": "string",
          "name": "",
          "type": "string"
        }
      ],
      "stateMutability": "view",
      "type": "function"
    },
    {
      "inputs": [],
      "name": "totalSupply",
      "outputs": [
        {
          "internalType": "uint256",
          "name": "",
          "type": "uint256"
        }
      ],
      "stateMutability": "view",
      "type": "function"
    },
    {
      "inputs": [
        {
          "internalType": "address",
          "name": "recipient",
          "type": "address"
        },
        {
          "internalType": "uint256",
          "name": "amount",
          "type": "uint256"
        }
      ],
      "name": "transfer",
      "outputs": [
        {
          "internalType": "bool",
          "name": "",
          "type": "bool"
        }
      ],
      "stateMutability": "nonpayable",
      "type": "function"
    },
    {
      "inputs": [
        {
          "internalType": "address",
          "name": "recipient",
          "type": "address"
        },
        {
          "internalType": "uint256",
          "name": "amount",
          "type": "uint256"
        },
        {
          "internalType": "bytes",
          "name": "data",
          "type": "bytes"
        }
      ],
      "name": "transferAndCall",
      "outputs": [
        {
          "internalType": "bool",
          "name": "",
          "type": "bool"
        }
      ],
      "stateMutability": "nonpayable",
      "type": "function"
    },
    {
      "inputs": [
        {
          "internalType": "address",
          "name": "sender",
          "type": "address"
        },
        {
          "internalType": "address",
          "name": "recipient",
          "type": "address"
        },
        {
          "internalType": "uint256",
          "name": "amount",
          "type": "uint256"
        }
      ],
      "name": "transferFrom",
      "outputs": [
        {
          "internalType": "bool",
          "name": "",
          "type": "bool"
        }
      ],
      "stateMutability": "nonpayable",
      "type": "function"
    },
    {
      "inputs": [
        {
          "internalType": "uint256",
          "name": "amount",
          "type": "uint256"
        }
      ],
      "name": "upgrade",
      "outputs": [],
      "stateMutability": "nonpayable",
      "type": "function"
    }
  ],
  "bytecode": "0x60806040523480156200001157600080fd5b506001600581905562000025904262000045565b600655600a600455600880546001600160a01b031916331790556200006a565b600082198211156200006557634e487b7160e01b81526011600452602481fd5b500190565b612e0d806200007a6000396000f3fe608060405234801561001057600080fd5b50600436106103155760003560e01c806370d5ae05116101a7578063b4b5ea57116100ee578063d5abeb0111610097578063f1127ed811610071578063f1127ed81461074d578063f293e675146107a4578063fe1fa8fa146107ac57610315565b8063d5abeb01146106e5578063dd62ed3e146106ed578063e7a324dc1461072657610315565b8063c3cda520116100c8578063c3cda520146106b7578063c91b6b46146106ca578063cae9ca51146106d257610315565b8063b4b5ea571461067e578063baa10c1414610691578063c0324c77146106a457610315565b806395d89b4111610150578063a457c2d71161012a578063a457c2d714610650578063a9059cbb14610663578063ab2637af1461067657610315565b806395d89b41146105f857806398fabd3a146106345780639a67759b1461064757610315565b80637dc2268c116101815780637dc2268c146105b35780637ecebe00146105c5578063865520d5146105e557610315565b806370d5ae0514610572578063782d6fe11461058d57806379cc6790146105a057610315565b80633549b77c1161026b578063587cde1e116102145780636b92a3b6116101ee5780636b92a3b6146105055780636fcfff451461050e57806370a082311461054957610315565b8063587cde1e146104a85780635c19a95c146104e9578063602631ef146104fc57610315565b806341f88eae1161024557806341f88eae1461046f57806342966c681461048257806345977d031461049557610315565b80633549b77c1461043657806339509351146104495780634000aea01461045c57610315565b806318160ddd116102cd57806323b872dd116102a757806323b872dd146104015780632deaa11614610414578063313ce5671461041c57610315565b806318160ddd146103bc5780631d007f5f146103c557806320606b70146103da57610315565b8063090bbb01116102fe578063090bbb0114610389578063095ea7b3146103a05780630fa1eeab146103b357610315565b806306fdde031461031a5780630781f4d21461036c575b600080fd5b6103566040518060400160405280601481526020017f56414445522050524f544f434f4c20544f4b454e00000000000000000000000081525081565b6040516103639190612ad8565b60405180910390f35b6003546103799060ff1681565b6040519015158152602001610363565b61039260065481565b604051908152602001610363565b6103796103ae3660046128d2565b6107b4565b61039260075481565b61039260005481565b6103d86103d3366004612822565b6107cb565b005b6103927f8cad95687ba82c2ce50e74f7b754645e5117c3a5bec8151c0726d5857980a86681565b61037961040f366004612892565b6108b5565b6103d8610984565b610424601281565b60405160ff9091168152602001610363565b610392610444366004612a36565b610a3b565b6103796104573660046128d2565b610a47565b61037961046a3660046128fd565b610a7e565b61039261047d3660046128d2565b610b15565b6103d8610490366004612a36565b610d80565b6103d86104a3366004612a36565b610d8d565b6104d16104b6366004612822565b6009602052600090815260409020546001600160a01b031681565b6040516001600160a01b039091168152602001610363565b6103d86104f7366004612822565b610e68565b6103926103e881565b61039260055481565b61053461051c366004612822565b600b6020526000908152604090205463ffffffff1681565b60405163ffffffff9091168152602001610363565b610392610557366004612822565b6001600160a01b031660009081526001602052604090205490565b6104d173011101100110000101101100011101010110010181565b61039261059b3660046128d2565b610e72565b6103d86105ae3660046128d2565b6110ed565b60035461037990610100900460ff1681565b6103926105d3366004612822565b600c6020526000908152604090205481565b6103926105f33660046128d2565b611138565b6103566040518060400160405280600581526020017f564144455200000000000000000000000000000000000000000000000000000081525081565b6008546104d1906001600160a01b031681565b61039260045481565b61037961065e3660046128d2565b6111ea565b6103796106713660046128d2565b61126d565b61039261127a565b61039261068c366004612822565b611297565b61039261069f366004612a36565b61130b565b6103d86106b2366004612a66565b61137f565b6103d86106c5366004612981565b611407565b6103d861176c565b6103796106e03660046128fd565b6117f3565b61039261184d565b6103926106fb36600461285a565b6001600160a01b03918216600090815260026020908152604080832093909416825291909152205490565b6103927fe48329057bfd03d55e49b547132e39cffd9c1820ad7b9d4c5307691425d15adf81565b61078861075b3660046129e1565b600a6020908152600092835260408084209091529082529020805460019091015463ffffffff9091169082565b6040805163ffffffff9093168352602083019190915201610363565b610392611872565b6103d861193c565b60006107c13384846119eb565b5060015b92915050565b6008546001600160a01b031633146108305760405162461bcd60e51b81526004016108279060208082526004908201527f2144414f00000000000000000000000000000000000000000000000000000000604082015260600190565b60405180910390fd5b6001600160a01b0381166108865760405162461bcd60e51b815260206004820152600b60248201527f61646472657373206572720000000000000000000000000000000000000000006044820152606401610827565b6008805473ffffffffffffffffffffffffffffffffffffffff19166001600160a01b0392909216919091179055565b60006108c2848484611b27565b6001600160a01b03841660009081526002602090815260408083203384529091529020546000191115610979576001600160a01b0384166000908152600260209081526040808320338452909152902054828110156109635760405162461bcd60e51b815260206004820152600d60248201527f616c6c6f77616e636520657272000000000000000000000000000000000000006044820152606401610827565b61097785336109728685612cd8565b6119eb565b505b5060015b9392505050565b6008546001600160a01b03163314806109b557506109a0611da6565b6001600160a01b0316336001600160a01b0316145b610a015760405162461bcd60e51b815260206004820152601160248201527f2144414f202626202154494d454c4f434b0000000000000000000000000000006044820152606401610827565b600380547fffffffffffffffffffffffffffffffffffffffffffffffffffffffffffff00ff81166101009182900460ff1615909102179055565b60006107c53383611138565b3360008181526002602090815260408083206001600160a01b038716845290915281205490916107c1918590610972908690612b2b565b6000610a8b338686611b27565b6040517fcf4d25350000000000000000000000000000000000000000000000000000000081526001600160a01b0386169063cf4d253590610ad89030908890339089908990600401612a87565b600060405180830381600087803b158015610af257600080fd5b505af1158015610b06573d6000803e3d6000fd5b50600198975050505050505050565b6000610b1f611e41565b6001600160a01b0316336001600160a01b031614610b7f5760405162461bcd60e51b815260206004820152600660248201527f215641554c5400000000000000000000000000000000000000000000000000006044820152606401610827565b600354610100900460ff16610bd65760405162461bcd60e51b815260206004820152600b60248201527f6e6f74206d696e74696e670000000000000000000000000000000000000000006044820152606401610827565b610bde611e9f565b6040517f23b872dd000000000000000000000000000000000000000000000000000000008152336004820152306024820152604481018490526001600160a01b0391909116906323b872dd90606401602060405180830381600087803b158015610c4757600080fd5b505af1158015610c5b573d6000803e3d6000fd5b505050506040513d601f19601f82011682018060405250810190610c7f9190612a16565b610c8857600080fd5b610c90611e9f565b6001600160a01b03166342966c68836040518263ffffffff1660e01b8152600401610cbd91815260200190565b600060405180830381600087803b158015610cd757600080fd5b505af1158015610ceb573d6000803e3d6000fd5b50505050610cf7611efd565b6001600160a01b0316636cc06ded836040518263ffffffff1660e01b8152600401610d2491815260200190565b60206040518083038186803b158015610d3c57600080fd5b505afa158015610d50573d6000803e3d6000fd5b505050506040513d601f19601f82011682018060405250810190610d749190612a4e565b90506107c58382611f5b565b610d8a33826120a8565b50565b610d956121e9565b6040517f23b872dd0000000000000000000000000000000000000000000000000000000081523360048201527301110110011000010110110001110101011001016024820152604481018390526001600160a01b0391909116906323b872dd90606401602060405180830381600087803b158015610e1257600080fd5b505af1158015610e26573d6000803e3d6000fd5b505050506040513d601f19601f82011682018060405250810190610e4a9190612a16565b610e5357600080fd5b610d8a33610e636103e884612cb9565b611f5b565b610d8a3382612247565b6000438210610ee95760405162461bcd60e51b815260206004820152602860248201527f56616465723a3a6765745072696f72566f7465733a206e6f742079657420646560448201527f7465726d696e65640000000000000000000000000000000000000000000000006064820152608401610827565b6001600160a01b0383166000908152600b602052604090205463ffffffff1680610f175760009150506107c5565b6001600160a01b0384166000908152600a602052604081208491610f3c600185612cef565b63ffffffff90811682526020820192909252604001600020541611610fa5576001600160a01b0384166000908152600a6020526040812090610f7f600184612cef565b63ffffffff1663ffffffff168152602001908152602001600020600101549150506107c5565b6001600160a01b0384166000908152600a6020908152604080832083805290915290205463ffffffff16831015610fe05760009150506107c5565b600080610fee600184612cef565b90505b8163ffffffff168163ffffffff1611156110b657600060026110138484612cef565b61101d9190612b7f565b6110279083612cef565b6001600160a01b0388166000908152600a6020908152604080832063ffffffff808616855290835292819020815180830190925280549093168082526001909301549181019190915291925087141561108a576020015194506107c59350505050565b805163ffffffff168711156110a1578193506110af565b6110ac600183612cef565b92505b5050610ff1565b506001600160a01b0385166000908152600a6020908152604080832063ffffffff9094168352929052206001015491505092915050565b6001600160a01b038216600090815260026020908152604080832033845290915281205461111c908390612cd8565b90506111298333836119eb565b61113383836120a8565b505050565b600061114c33611146611e9f565b84611b27565b611154611e9f565b6040517f36b7678b0000000000000000000000000000000000000000000000000000000081526001600160a01b03858116600483015291909116906336b7678b90602401602060405180830381600087803b1580156111b257600080fd5b505af11580156111c6573d6000803e3d6000fd5b505050506040513d601f19601f8201168201806040525081019061097d9190612a4e565b3360009081526002602090815260408083206001600160a01b03861684529091528120548281101561125e5760405162461bcd60e51b815260206004820152600d60248201527f616c6c6f77616e636520657272000000000000000000000000000000000000006044820152606401610827565b61097933856109728685612cd8565b60006107c1338484611b27565b6112866012600a612be8565b61129490633b9aca00612cb9565b81565b6001600160a01b0381166000908152600b602052604081205463ffffffff16806112c257600061097d565b6001600160a01b0383166000908152600a60205260408120906112e6600184612cef565b63ffffffff1663ffffffff168152602001908152602001600020600101549392505050565b6000611315611e41565b6001600160a01b0316336001600160a01b0316146113755760405162461bcd60e51b815260206004820152600660248201527f215641554c5400000000000000000000000000000000000000000000000000006044820152606401610827565b6107c53383610b15565b6008546001600160a01b03163314806113b0575061139b611da6565b6001600160a01b0316336001600160a01b0316145b6113fc5760405162461bcd60e51b815260206004820152601160248201527f2144414f202626202154494d454c4f434b0000000000000000000000000000006044820152606401610827565b600591909155600455565b604080518082018252601481527f56414445522050524f544f434f4c20544f4b454e00000000000000000000000060209182015281517f8cad95687ba82c2ce50e74f7b754645e5117c3a5bec8151c0726d5857980a866818301527f8a9394d9b51fdb2370c73277fac672a05270814d85cc4af955aab624112799a181840152466060820152306080808301919091528351808303909101815260a0820184528051908301207fe48329057bfd03d55e49b547132e39cffd9c1820ad7b9d4c5307691425d15adf60c08301526001600160a01b038a1660e08301526101008201899052610120808301899052845180840390910181526101408301909452835193909201929092207f19010000000000000000000000000000000000000000000000000000000000006101608401526101628301829052610182830181905290916000906101a20160408051601f198184030181528282528051602091820120600080855291840180845281905260ff8a169284019290925260608301889052608083018790529092509060019060a0016020604051602081039080840390855afa1580156115ba573d6000803e3d6000fd5b5050604051601f1901519150506001600160a01b0381166116435760405162461bcd60e51b815260206004820152602760248201527f56616465723a3a64656c656761746542795369673a20696e76616c696420736960448201527f676e6174757265000000000000000000000000000000000000000000000000006064820152608401610827565b6001600160a01b0381166000908152600c6020526040812080549161166783612d14565b9190505589146116df5760405162461bcd60e51b815260206004820152602360248201527f56616465723a3a64656c656761746542795369673a20696e76616c6964206e6f60448201527f6e636500000000000000000000000000000000000000000000000000000000006064820152608401610827565b874211156117555760405162461bcd60e51b815260206004820152602760248201527f56616465723a3a64656c656761746542795369673a207369676e61747572652060448201527f65787069726564000000000000000000000000000000000000000000000000006064820152608401610827565b61175f818b612247565b505050505b505050505050565b611774611da6565b6001600160a01b0316336001600160a01b0316146117d45760405162461bcd60e51b815260206004820152600960248201527f2154494d454c4f434b00000000000000000000000000000000000000000000006044820152606401610827565b6008805473ffffffffffffffffffffffffffffffffffffffff19169055565b60006118003386866119eb565b6040517f1ac562a70000000000000000000000000000000000000000000000000000000081526001600160a01b03861690631ac562a790610ad89030908890339089908990600401612a87565b6118596012600a612be8565b61186790633b9aca00612cb9565b611294906002612cb9565b6000806118816012600a612be8565b61188f90633b9aca00612cb9565b600054116118f4576118a36012600a612be8565b6118b190633b9aca00612cb9565b6000546118c06012600a612be8565b6118ce90633b9aca00612cb9565b6118d9906002612cb9565b6118e39190612cb9565b6118ed9190612b6b565b905061191c565b6119006012600a612be8565b61190e90633b9aca00612cb9565b611919906002612cb9565b90505b60045460005461192c9083612cd8565b6119369190612b6b565b91505090565b6008546001600160a01b031633148061196d5750611958611da6565b6001600160a01b0316336001600160a01b0316145b6119b95760405162461bcd60e51b815260206004820152601160248201527f2144414f202626202154494d454c4f434b0000000000000000000000000000006044820152606401610827565b600380547fffffffffffffffffffffffffffffffffffffffffffffffffffffffffffffff00811660ff90911615179055565b6001600160a01b038316611a415760405162461bcd60e51b815260206004820152600660248201527f73656e64657200000000000000000000000000000000000000000000000000006044820152606401610827565b6001600160a01b038216611a975760405162461bcd60e51b815260206004820152600760248201527f7370656e646572000000000000000000000000000000000000000000000000006044820152606401610827565b6001600160a01b038084166000908152600260209081526040808320938616835292905220546000191115611133576001600160a01b0383811660008181526002602090815260408083209487168084529482529182902085905590518481527f8c5be1e5ebec7d5bd14f71427d1e84f3dd0314c0f7b2291e5b200ac8c7c3b925910160405180910390a3505050565b6001600160a01b038316611b7d5760405162461bcd60e51b815260206004820152600660248201527f73656e64657200000000000000000000000000000000000000000000000000006044820152606401610827565b6001600160a01b038216301415611bd65760405162461bcd60e51b815260206004820152600960248201527f726563697069656e7400000000000000000000000000000000000000000000006044820152606401610827565b6001600160a01b038316600090815260016020526040902054811115611c3e5760405162461bcd60e51b815260206004820152600b60248201527f62616c616e6365206572720000000000000000000000000000000000000000006044820152606401610827565b6000611c486122ce565b6001600160a01b031663714270ab600754846040518363ffffffff1660e01b8152600401611c80929190918252602082015260400190565b60206040518083038186803b158015611c9857600080fd5b505afa158015611cac573d6000803e3d6000fd5b505050506040513d601f19601f82011682018060405250810190611cd09190612a4e565b9050818111611cef57611ce38183612cd8565b9150611cef84826120a8565b6001600160a01b03841660009081526001602052604081208054849290611d17908490612cd8565b90915550506001600160a01b03831660009081526001602052604081208054849290611d44908490612b2b565b92505081905550826001600160a01b0316846001600160a01b03167fddf252ad1be2c89b69c2b068fc378daa952ba7f163c4a11628f55a4df523b3ef84604051611d9091815260200190565b60405180910390a3611da061232c565b50505050565b600854604080517f7aadef8b00000000000000000000000000000000000000000000000000000000815290516000926001600160a01b031691637aadef8b916004808301926020929190829003018186803b158015611e0457600080fd5b505afa158015611e18573d6000803e3d6000fd5b505050506040513d601f19601f82011682018060405250810190611e3c919061283e565b905090565b600854604080517f411557d100000000000000000000000000000000000000000000000000000000815290516000926001600160a01b03169163411557d1916004808301926020929190829003018186803b158015611e0457600080fd5b600854604080517fe2c3b04600000000000000000000000000000000000000000000000000000000815290516000926001600160a01b03169163e2c3b046916004808301926020929190829003018186803b158015611e0457600080fd5b600854604080517f32fe7b2600000000000000000000000000000000000000000000000000000000815290516000926001600160a01b0316916332fe7b26916004808301926020929190829003018186803b158015611e0457600080fd5b6001600160a01b038216611fb15760405162461bcd60e51b815260206004820152600960248201527f726563697069656e7400000000000000000000000000000000000000000000006044820152606401610827565b611fbd6012600a612be8565b611fcb90633b9aca00612cb9565b611fd6906002612cb9565b81600054611fe49190612b2b565b111561201f57600054611ff96012600a612be8565b61200790633b9aca00612cb9565b612012906002612cb9565b61201c9190612cd8565b90505b806000808282546120309190612b2b565b90915550506001600160a01b0382166000908152600160205260408120805483929061205d908490612b2b565b90915550506040518181526001600160a01b038316906000907fddf252ad1be2c89b69c2b068fc378daa952ba7f163c4a11628f55a4df523b3ef906020015b60405180910390a35050565b6001600160a01b0382166120fe5760405162461bcd60e51b815260206004820152600b60248201527f61646472657373206572720000000000000000000000000000000000000000006044820152606401610827565b6001600160a01b0382166000908152600160205260409020548111156121665760405162461bcd60e51b815260206004820152600b60248201527f62616c616e6365206572720000000000000000000000000000000000000000006044820152606401610827565b6001600160a01b0382166000908152600160205260408120805483929061218e908490612cd8565b92505081905550806000808282546121a69190612cd8565b90915550506040518181526000906001600160a01b038416907fddf252ad1be2c89b69c2b068fc378daa952ba7f163c4a11628f55a4df523b3ef9060200161209c565b600854604080517f4c4d46b000000000000000000000000000000000000000000000000000000000815290516000926001600160a01b031691634c4d46b0916004808301926020929190829003018186803b158015611e0457600080fd5b6001600160a01b038083166000818152600960208181526040808420805460018452828620549490935287871673ffffffffffffffffffffffffffffffffffffffff198416811790915590519190951694919391928592917f3134e8a2e6d97e929a7e54011ea5485d7d196dd5f0ba4d4ef95803e8e3fc257f9190a4611da0828483612493565b600854604080517f7b0e5c4500000000000000000000000000000000000000000000000000000000815290516000926001600160a01b031691637b0e5c45916004808301926020929190829003018186803b158015611e0457600080fd5b6006544210158015612340575060035460ff165b15612491576005546123529042612b2b565b600655600061235f611872565b905061237261236c6125f2565b82611f5b565b61237a6122ce565b6001600160a01b0316638b18b1156000546012600a6123999190612be8565b6123a790633b9aca00612cb9565b6123b2906002612cb9565b6040517fffffffff0000000000000000000000000000000000000000000000000000000060e085901b1681526004810192909252602482015260440160206040518083038186803b15801561240657600080fd5b505afa15801561241a573d6000803e3d6000fd5b505050506040513d601f19601f8201168201806040525081019061243e9190612a4e565b60078190556103e81015612453576103e86007555b60065460408051918252602082018390527fb46eeb115d9875d9d717a1b1dd704bc9a45fdeb55eecc9c6c4f777ffa5698fe5910160405180910390a1505b565b816001600160a01b0316836001600160a01b0316141580156124b55750600081115b15611133576001600160a01b03831615612558576001600160a01b0383166000908152600b602052604081205463ffffffff1690816124f5576000612538565b6001600160a01b0385166000908152600a6020526040812090612519600185612cef565b63ffffffff1663ffffffff168152602001908152602001600020600101545b905060006125468483612cd8565b905061255486848484612650565b5050505b6001600160a01b03821615611133576001600160a01b0382166000908152600b602052604081205463ffffffff1690816125935760006125d6565b6001600160a01b0384166000908152600a60205260408120906125b7600185612cef565b63ffffffff1663ffffffff168152602001908152602001600020600101545b905060006125e48483612b2b565b905061176485848484612650565b600854604080517f9d2cc43600000000000000000000000000000000000000000000000000000000815290516000926001600160a01b031691639d2cc436916004808301926020929190829003018186803b158015611e0457600080fd5b600061267443604051806060016040528060358152602001612da3603591396127f2565b905060008463ffffffff161180156126ce57506001600160a01b0385166000908152600a6020526040812063ffffffff8316916126b2600188612cef565b63ffffffff908116825260208201929092526040016000205416145b15612717576001600160a01b0385166000908152600a6020526040812083916126f8600188612cef565b63ffffffff1681526020810191909152604001600020600101556127a7565b60408051808201825263ffffffff838116825260208083018681526001600160a01b038a166000908152600a83528581208a851682529092529390209151825463ffffffff191691161781559051600191820155612776908590612b43565b6001600160a01b0386166000908152600b60205260409020805463ffffffff191663ffffffff929092169190911790555b60408051848152602081018490526001600160a01b038716917fdec2bacdd2f05b59de34da9b523dff8be42e5e38e818c82fdb0bae774387a724910160405180910390a25050505050565b600081640100000000841061281a5760405162461bcd60e51b81526004016108279190612ad8565b509192915050565b600060208284031215612833578081fd5b813561097d81612d8d565b60006020828403121561284f578081fd5b815161097d81612d8d565b6000806040838503121561286c578081fd5b823561287781612d8d565b9150602083013561288781612d8d565b809150509250929050565b6000806000606084860312156128a6578081fd5b83356128b181612d8d565b925060208401356128c181612d8d565b929592945050506040919091013590565b600080604083850312156128e4578182fd5b82356128ef81612d8d565b946020939093013593505050565b60008060008060608587031215612912578081fd5b843561291d81612d8d565b935060208501359250604085013567ffffffffffffffff80821115612940578283fd5b818701915087601f830112612953578283fd5b813581811115612961578384fd5b886020828501011115612972578384fd5b95989497505060200194505050565b60008060008060008060c08789031215612999578182fd5b86356129a481612d8d565b95506020870135945060408701359350606087013560ff811681146129c7578283fd5b9598949750929560808101359460a0909101359350915050565b600080604083850312156129f3578182fd5b82356129fe81612d8d565b9150602083013563ffffffff81168114612887578182fd5b600060208284031215612a27578081fd5b8151801515811461097d578182fd5b600060208284031215612a47578081fd5b5035919050565b600060208284031215612a5f578081fd5b5051919050565b60008060408385031215612a78578182fd5b50508035926020909101359150565b60006001600160a01b03808816835286602084015280861660408401525060806060830152826080830152828460a084013781830160a090810191909152601f909201601f19160101949350505050565b6000602080835283518082850152825b81811015612b0457858101830151858201604001528201612ae8565b81811115612b155783604083870101525b50601f01601f1916929092016040019392505050565b60008219821115612b3e57612b3e612d2f565b500190565b600063ffffffff808316818516808303821115612b6257612b62612d2f565b01949350505050565b600082612b7a57612b7a612d5e565b500490565b600063ffffffff80841680612b9657612b96612d5e565b92169190910492915050565b80825b6001808611612bb45750612bdf565b818704821115612bc657612bc6612d2f565b80861615612bd357918102915b9490941c938002612ba5565b94509492505050565b600061097d60001960ff851684600082612c045750600161097d565b81612c115750600061097d565b8160018114612c275760028114612c3157612c5e565b600191505061097d565b60ff841115612c4257612c42612d2f565b6001841b915084821115612c5857612c58612d2f565b5061097d565b5060208310610133831016604e8410600b8410161715612c91575081810a83811115612c8c57612c8c612d2f565b61097d565b612c9e8484846001612ba2565b808604821115612cb057612cb0612d2f565b02949350505050565b6000816000190483118215151615612cd357612cd3612d2f565b500290565b600082821015612cea57612cea612d2f565b500390565b600063ffffffff83811690831681811015612d0c57612d0c612d2f565b039392505050565b6000600019821415612d2857612d28612d2f565b5060010190565b7f4e487b7100000000000000000000000000000000000000000000000000000000600052601160045260246000fd5b7f4e487b7100000000000000000000000000000000000000000000000000000000600052601260045260246000fd5b6001600160a01b0381168114610d8a57600080fdfe56616465723a3a5f7772697465436865636b706f696e743a20626c6f636b206e756d62657220657863656564732033322062697473a26469706673582212203d96465444261fb4295219be90034581885cd724bcc5beea10ce44f1aace381064736f6c63430008030033",
  "immutableReferences": {},
  "source": "// SPDX-License-Identifier: UNLICENSED\r\npragma solidity 0.8.3;\r\n\r\n// Interfaces\r\nimport \"./interfaces/iERC20.sol\";\r\nimport \"./interfaces/iERC677.sol\"; \r\nimport \"./interfaces/iDAO.sol\";\r\nimport \"./interfaces/iUTILS.sol\";\r\nimport \"./interfaces/iUSDV.sol\";\r\nimport \"./interfaces/iROUTER.sol\";\r\n\r\ncontract Vader is iERC20 {\r\n    // ERC-20 Parameters\r\n    string public constant override name = \"VADER PROTOCOL TOKEN\";\r\n    string public constant override symbol = \"VADER\";\r\n    uint8 public constant override decimals = 18;\r\n    uint256 public override totalSupply;\r\n\r\n    // ERC-20 Mappings\r\n    mapping(address => uint256) private _balances;\r\n    mapping(address => mapping(address => uint256)) private _allowances;\r\n\r\n    // Parameters\r\n     \r\n    bool public emitting;\r\n    bool public minting;\r\n    uint256 public constant conversionFactor = 1000;\r\n    uint256 public constant baseline = 10**9 * 10**decimals; //1bn;\r\n    uint256 public constant maxSupply = 2 * baseline; //2bn\r\n    uint256 public emissionCurve;\r\n    uint256 public secondsPerEra;\r\n    uint256 public nextEraTime;\r\n    uint256 public feeOnTransfer;\r\n\r\n    address public DAO;\r\n\r\n    address public constant burnAddress = 0x0111011001100001011011000111010101100101;\r\n\r\n    event NewEra(uint256 nextEraTime, uint256 emission);\r\n\r\n    // Only DAO can execute\r\n    modifier onlyDAO() {\r\n        require(msg.sender == DAO, \"!DAO\");\r\n        _;\r\n    }\r\n    // Only TIMELOCK can execute\r\n    modifier onlyTIMELOCK() {\r\n        require(msg.sender == TIMELOCK(), \"!TIMELOCK\");\r\n        _;\r\n    }\r\n    // Only DAO&&TIMELOCK can execute\r\n    modifier onlyDAOandTIMELOCK() {\r\n        require(msg.sender == DAO || msg.sender == TIMELOCK(), \"!DAO && !TIMELOCK\");\r\n        _;\r\n    }\r\n    // Only VAULT can execute\r\n    modifier onlyVAULT() {\r\n        require(msg.sender == VAULT(), \"!VAULT\");\r\n        _;\r\n    }\r\n\r\n    // notice A record of each accounts delegate\r\n    mapping (address => address) public delegates;\r\n\r\n    // @notice A checkpoint for marking number of votes from a given block\r\n    struct Checkpoint {\r\n        uint32 fromBlock;\r\n        uint256 votes;\r\n    }\r\n\r\n    // @notice A record of votes checkpoints for each account, by index\r\n    mapping (address => mapping (uint32 => Checkpoint)) public checkpoints;\r\n\r\n    // @notice The number of checkpoints for each account\r\n    mapping (address => uint32) public numCheckpoints;\r\n\r\n    // @notice The EIP-712 typehash for the contract's domain\r\n    bytes32 public constant DOMAIN_TYPEHASH = keccak256(\"EIP712Domain(string name,uint256 chainId,address verifyingContract)\");\r\n\r\n    // @notice The EIP-712 typehash for the delegation struct used by the contract\r\n    bytes32 public constant DELEGATION_TYPEHASH = keccak256(\"Delegation(address delegatee,uint256 nonce,uint256 expiry)\");\r\n\r\n    // @notice A record of states for signing / validating signatures\r\n    mapping (address => uint) public nonces;\r\n\r\n    // @notice An event thats emitted when an account changes its delegate\r\n    event DelegateChanged(address indexed delegator, address indexed fromDelegate, address indexed toDelegate);\r\n\r\n    // @notice An event thats emitted when a delegate account's vote balance changes\r\n    event DelegateVotesChanged(address indexed delegate, uint previousBalance, uint newBalance);\r\n\r\n    //=====================================CREATION=========================================//\r\n \r\n    constructor() {\r\n        secondsPerEra = 1; //86400;\r\n        nextEraTime = block.timestamp + secondsPerEra;\r\n        emissionCurve = 10;\r\n        DAO = msg.sender; // Then call changeDAO() once DAO created\r\n    }\r\n\r\n    //========================================iERC20=========================================//\r\n    function balanceOf(address account) external view override returns (uint256) {\r\n        return _balances[account];\r\n    }\r\n\r\n    function allowance(address owner, address spender) public view virtual override returns (uint256) {\r\n        return _allowances[owner][spender];\r\n    }\r\n\r\n    // iERC20 Transfer function\r\n    function transfer(address recipient, uint256 amount) external virtual override returns (bool) {\r\n        _transfer(msg.sender, recipient, amount);\r\n        return true;\r\n    }\r\n\r\n    // iERC20 Approve, change allowance functions\r\n    function approve(address spender, uint256 amount) external virtual override returns (bool) {\r\n        _approve(msg.sender, spender, amount);\r\n        return true;\r\n    }\r\n    function increaseAllowance(address spender, uint256 addedValue) public virtual returns (bool) {\r\n        _approve(msg.sender, spender, _allowances[msg.sender][spender]+(addedValue));\r\n        return true;\r\n    }\r\n    function decreaseAllowance(address spender, uint256 subtractedValue) public virtual returns (bool) {\r\n        uint256 currentAllowance = _allowances[msg.sender][spender];\r\n        require(currentAllowance >= subtractedValue, \"allowance err\");\r\n        _approve(msg.sender, spender, currentAllowance - subtractedValue);\r\n        return true;\r\n    }\r\n\r\n    function _approve(\r\n        address owner,\r\n        address spender,\r\n        uint256 amount\r\n    ) internal virtual {\r\n        require(owner != address(0), \"sender\");\r\n        require(spender != address(0), \"spender\");\r\n        if (_allowances[owner][spender] < type(uint256).max) { // No need to re-approve if already max\r\n            _allowances[owner][spender] = amount;\r\n            emit Approval(owner, spender, amount);\r\n        }\r\n    }\r\n\r\n    // iERC20 TransferFrom function\r\n    function transferFrom(\r\n        address sender,\r\n        address recipient,\r\n        uint256 amount\r\n    ) external virtual override returns (bool) {\r\n        _transfer(sender, recipient, amount);\r\n        // Unlimited approval (saves an SSTORE)\r\n        if (_allowances[sender][msg.sender] < type(uint256).max) {\r\n            uint256 currentAllowance = _allowances[sender][msg.sender];\r\n            require(currentAllowance >= amount, \"allowance err\");\r\n            _approve(sender, msg.sender, currentAllowance - amount);\r\n        }\r\n        return true;\r\n    }\r\n    //iERC677 approveAndCall\r\n    function approveAndCall(address recipient, uint amount, bytes calldata data) public returns (bool) {\r\n      _approve(msg.sender, recipient, amount);\r\n      iERC677(recipient).onTokenApproval(address(this), amount, msg.sender, data); // Amount is passed thru to recipient\r\n      return true;\r\n     }\r\n\r\n      //iERC677 transferAndCall\r\n    function transferAndCall(address recipient, uint amount, bytes calldata data) public returns (bool) {\r\n      _transfer(msg.sender, recipient, amount);\r\n      iERC677(recipient).onTokenTransfer(address(this), amount, msg.sender, data); // Amount is passed thru to recipient \r\n      return true;\r\n     }\r\n\r\n    // Internal transfer function\r\n    function _transfer(\r\n        address sender,\r\n        address recipient,\r\n        uint256 amount\r\n    ) internal virtual {\r\n        require(sender != address(0), \"sender\");\r\n        require(recipient != address(this), \"recipient\");\r\n        require(_balances[sender] >= amount, \"balance err\");\r\n        uint _fee = iUTILS(UTILS()).calcPart(feeOnTransfer, amount);  // Critical functionality\r\n        if(_fee <= amount){                            // Stops reverts if UTILS corrupted\r\n            amount -= _fee;\r\n            _burn(sender, _fee);\r\n        }\r\n        _balances[sender] -= amount;\r\n        _balances[recipient] += amount;\r\n        emit Transfer(sender, recipient, amount);\r\n        _checkEmission();\r\n    }\r\n\r\n    // Internal mint (upgrading and daily emissions)\r\n    function _mint(address account, uint256 amount) internal virtual {\r\n        require(account != address(0), \"recipient\");\r\n        if ((totalSupply + amount) > maxSupply) {\r\n            amount = maxSupply - totalSupply; // Safety, can't mint above maxSupply\r\n        }\r\n        totalSupply += amount;\r\n        _balances[account] += amount;\r\n        emit Transfer(address(0), account, amount);\r\n    }\r\n\r\n    // Burn supply\r\n    function burn(uint256 amount) external virtual override {\r\n        _burn(msg.sender, amount);\r\n    }\r\n\r\n    function burnFrom(address account, uint256 amount) external virtual override {\r\n        uint256 decreasedAllowance = allowance(account, msg.sender) - amount;\r\n        _approve(account, msg.sender, decreasedAllowance);\r\n        _burn(account, amount);\r\n    }\r\n\r\n    function _burn(address account, uint256 amount) internal virtual {\r\n        require(account != address(0), \"address err\");\r\n        require(_balances[account] >= amount, \"balance err\");\r\n        _balances[account] -= amount;\r\n        totalSupply -= amount;\r\n        emit Transfer(account, address(0), amount);\r\n    }\r\n\r\n    //=========================================DAO=========================================//\r\n    // Can start\r\n    function flipEmissions() external onlyDAOandTIMELOCK {\r\n        emitting = !emitting;\r\n    }\r\n\r\n    // Can stop\r\n    function flipMinting() external onlyDAOandTIMELOCK {\r\n        minting = !minting;\r\n    }\r\n\r\n    // Can set params\r\n    function setParams(uint256 newEra, uint256 newCurve) external onlyDAOandTIMELOCK {\r\n        secondsPerEra = newEra;\r\n        emissionCurve = newCurve;\r\n    }\r\n\r\n    // Can change DAO\r\n    function changeDAO(address newDAO) external onlyDAO {\r\n        require(newDAO != address(0), \"address err\");\r\n        DAO = newDAO;\r\n    }\r\n\r\n    // Can purge DAO\r\n    function purgeDAO() external onlyTIMELOCK {\r\n        DAO = address(0);\r\n    }\r\n\r\n    //======================================EMISSION========================================//\r\n    // Internal - Update emission function\r\n    function _checkEmission() private {\r\n        if ((block.timestamp >= nextEraTime) && emitting) {\r\n            // If new Era and allowed to emit\r\n            nextEraTime = block.timestamp + secondsPerEra; // Set next Era time\r\n            uint256 _emission = getDailyEmission(); // Get Daily Dmission\r\n            _mint(RESERVE(), _emission); // Mint to the RESERVE Address\r\n            feeOnTransfer = iUTILS(UTILS()).getFeeOnTransfer(totalSupply, maxSupply); // UpdateFeeOnTransfer\r\n            if (feeOnTransfer > 1000) {\r\n                feeOnTransfer = 1000;\r\n            } // Max 10% if UTILS corrupted\r\n            emit NewEra(nextEraTime, _emission); // Emit Event\r\n        }\r\n    }\r\n\r\n    // Calculate Daily Emission\r\n    function getDailyEmission() public view returns (uint256) {\r\n        uint256 _adjustedMax;\r\n        if (totalSupply <= baseline) {\r\n            // If less than 1bn, then adjust cap down\r\n            _adjustedMax = (maxSupply * totalSupply) / baseline; // 2bn * 0.5m / 1m = 2m * 50% = 1.5m\r\n        } else {\r\n            _adjustedMax = maxSupply; // 2bn\r\n        }\r\n        return (_adjustedMax - totalSupply) / (emissionCurve); // outstanding / curve\r\n    }\r\n\r\n    //======================================ASSET MINTING========================================//\r\n    // VETHER Owners to Upgrade\r\n    function upgrade(uint256 amount) external {\r\n        require(iERC20(VETHER()).transferFrom(msg.sender, burnAddress, amount)); // safeERC20 not needed; vether trusted\r\n        _mint(msg.sender, amount * conversionFactor);\r\n    }\r\n\r\n    // Convert to USDV\r\n    function convertToUSDV(uint256 amount) external returns (uint256) {\r\n        return convertToUSDVForMember(msg.sender, amount);\r\n    }\r\n\r\n    // Convert for members\r\n    function convertToUSDVForMember(address member, uint256 amount) public returns (uint256 convertAmount) {\r\n        _transfer(msg.sender, USDV(), amount); // Move funds directly to USDV\r\n        convertAmount = iUSDV(USDV()).convertToUSDVForMemberDirectly(member); // Ask USDV to convert\r\n    }\r\n\r\n    // Redeem back to VADER\r\n    function redeemToVADER(uint256 amount) external onlyVAULT returns (uint256 redeemAmount) {\r\n        return redeemToVADERForMember(msg.sender, amount);\r\n    }\r\n\r\n    // Redeem on behalf of member\r\n    function redeemToVADERForMember(address member, uint256 amount) public onlyVAULT returns (uint256 redeemAmount) {\r\n        require(minting, \"not minting\");\r\n        require(iERC20(USDV()).transferFrom(msg.sender, address(this), amount));\r\n        iERC20(USDV()).burn(amount);\r\n        redeemAmount = iROUTER(ROUTER()).getVADERAmount(amount); // Critical pricing functionality\r\n        _mint(member, redeemAmount);\r\n    }\r\n\r\n    //================================== GOVERNOR ALPHA =====================================//\r\n    \r\n    /**\r\n     * @notice Delegate votes from `msg.sender` to `delegatee`\r\n     * @param delegatee The address to delegate votes to\r\n     */\r\n    function delegate(address delegatee) public {\r\n        return _delegate(msg.sender, delegatee);\r\n    }\r\n\r\n    /**\r\n     * @notice Delegates votes from signatory to `delegatee`\r\n     * @param delegatee The address to delegate votes to\r\n     * @param nonce The contract state required to match the signature\r\n     * @param expiry The time at which to expire the signature\r\n     * @param v The recovery byte of the signature\r\n     * @param r Half of the ECDSA signature pair\r\n     * @param s Half of the ECDSA signature pair\r\n     */\r\n    function delegateBySig(address delegatee, uint nonce, uint expiry, uint8 v, bytes32 r, bytes32 s) public {\r\n        bytes32 domainSeparator = keccak256(abi.encode(DOMAIN_TYPEHASH, keccak256(bytes(name)), getChainId(), address(this)));\r\n        bytes32 structHash = keccak256(abi.encode(DELEGATION_TYPEHASH, delegatee, nonce, expiry));\r\n        bytes32 digest = keccak256(abi.encodePacked(\"\\x19\\x01\", domainSeparator, structHash));\r\n        address signatory = ecrecover(digest, v, r, s);\r\n        require(signatory != address(0), \"Vader::delegateBySig: invalid signature\");\r\n        require(nonce == nonces[signatory]++, \"Vader::delegateBySig: invalid nonce\");\r\n        require(block.timestamp <= expiry, \"Vader::delegateBySig: signature expired\");\r\n        return _delegate(signatory, delegatee);\r\n    }\r\n\r\n    /**\r\n     * @notice Gets the current votes balance for `account`\r\n     * @param account The address to get votes balance\r\n     * @return The number of current votes for `account`\r\n     */\r\n    function getCurrentVotes(address account) external view returns (uint256) {\r\n        uint32 nCheckpoints = numCheckpoints[account];\r\n        return nCheckpoints > 0 ? checkpoints[account][nCheckpoints - 1].votes : 0;\r\n    }\r\n\r\n    /**\r\n     * @notice Determine the prior number of votes for an account as of a block number\r\n     * @dev Block number must be a finalized block or else this function will revert to prevent misinformation.\r\n     * @param account The address of the account to check\r\n     * @param blockNumber The block number to get the vote balance at\r\n     * @return The number of votes the account had as of the given block\r\n     */\r\n    function getPriorVotes(address account, uint blockNumber) public view returns (uint256) {\r\n        require(blockNumber < block.number, \"Vader::getPriorVotes: not yet determined\");\r\n\r\n        uint32 nCheckpoints = numCheckpoints[account];\r\n        if (nCheckpoints == 0) {\r\n            return 0;\r\n        }\r\n\r\n        // First check most recent balance\r\n        if (checkpoints[account][nCheckpoints - 1].fromBlock <= blockNumber) {\r\n            return checkpoints[account][nCheckpoints - 1].votes;\r\n        }\r\n\r\n        // Next check implicit zero balance\r\n        if (checkpoints[account][0].fromBlock > blockNumber) {\r\n            return 0;\r\n        }\r\n\r\n        uint32 lower = 0;\r\n        uint32 upper = nCheckpoints - 1;\r\n        while (upper > lower) {\r\n            uint32 center = upper - (upper - lower) / 2; // ceil, avoiding overflow\r\n            Checkpoint memory cp = checkpoints[account][center];\r\n            if (cp.fromBlock == blockNumber) {\r\n                return cp.votes;\r\n            } else if (cp.fromBlock < blockNumber) {\r\n                lower = center;\r\n            } else {\r\n                upper = center - 1;\r\n            }\r\n        }\r\n        return checkpoints[account][lower].votes;\r\n    }\r\n\r\n    function _delegate(address delegator, address delegatee) internal {\r\n        address currentDelegate = delegates[delegator];\r\n        uint256 delegatorBalance = _balances[delegator];\r\n        delegates[delegator] = delegatee;\r\n\r\n        emit DelegateChanged(delegator, currentDelegate, delegatee);\r\n\r\n        _moveDelegates(currentDelegate, delegatee, delegatorBalance);\r\n    }\r\n\r\n    function _moveDelegates(address srcRep, address dstRep, uint256 amount) internal {\r\n        if (srcRep != dstRep && amount > 0) {\r\n            if (srcRep != address(0)) {\r\n                uint32 srcRepNum = numCheckpoints[srcRep];\r\n                uint256 srcRepOld = srcRepNum > 0 ? checkpoints[srcRep][srcRepNum - 1].votes : 0;\r\n                uint256 srcRepNew = srcRepOld - amount;\r\n                _writeCheckpoint(srcRep, srcRepNum, srcRepOld, srcRepNew);\r\n            }\r\n\r\n            if (dstRep != address(0)) {\r\n                uint32 dstRepNum = numCheckpoints[dstRep];\r\n                uint256 dstRepOld = dstRepNum > 0 ? checkpoints[dstRep][dstRepNum - 1].votes : 0;\r\n                uint256 dstRepNew = dstRepOld + amount;\r\n                _writeCheckpoint(dstRep, dstRepNum, dstRepOld, dstRepNew);\r\n            }\r\n        }\r\n    }\r\n\r\n    function _writeCheckpoint(address delegatee, uint32 nCheckpoints, uint256 oldVotes, uint256 newVotes) internal {\r\n        uint32 blockNumber = safe32(block.number, \"Vader::_writeCheckpoint: block number exceeds 32 bits\");\r\n\r\n        if (nCheckpoints > 0 && checkpoints[delegatee][nCheckpoints - 1].fromBlock == blockNumber) {\r\n            checkpoints[delegatee][nCheckpoints - 1].votes = newVotes;\r\n        } else {\r\n            checkpoints[delegatee][nCheckpoints] = Checkpoint(blockNumber, newVotes);\r\n            numCheckpoints[delegatee] = nCheckpoints + 1;\r\n        }\r\n\r\n        emit DelegateVotesChanged(delegatee, oldVotes, newVotes);\r\n    }\r\n\r\n    function safe32(uint n, string memory errorMessage) internal pure returns (uint32) {\r\n        require(n < 2**32, errorMessage);\r\n        return uint32(n);\r\n    }\r\n\r\n    function getChainId() internal view returns (uint) {\r\n        uint256 chainId;\r\n        assembly { chainId := chainid() }\r\n        return chainId;\r\n    }\r\n\r\n    //====================================== HELPERS ========================================//\r\n\r\n    function VETHER() internal view returns(address){\r\n        return iDAO(DAO).VETHER();\r\n    }\r\n    function USDV() internal view returns(address){\r\n        return iDAO(DAO).USDV();\r\n    }\r\n    function VAULT() internal view returns(address){\r\n        return iDAO(DAO).VAULT();\r\n    }\r\n    function RESERVE() internal view returns(address){\r\n        return iDAO(DAO).RESERVE();\r\n    }\r\n    function ROUTER() internal view returns(address){\r\n        return iDAO(DAO).ROUTER();\r\n    }\r\n    function UTILS() internal view returns(address){\r\n        return iDAO(DAO).UTILS();\r\n    }\r\n    function TIMELOCK() internal view returns(address){\r\n        return iDAO(DAO).TIMELOCK();\r\n    }\r\n\r\n}\r\n",
  "sourcePath": "E:/Web Workspace/Vader Protocol/vaderprotocol-contracts/contracts/Vader.sol",
  "compiler": {
    "name": "solc",
    "version": "0.8.3+commit.8d00100c.Emscripten.clang"
  },
  "schemaVersion": "3.4.0",
  "updatedAt": "2021-06-03T02:05:34.780Z",
  "networkType": "ethereum",
  "devdoc": {
    "kind": "dev",
    "methods": {
      "delegate(address)": {
        "params": {
          "delegatee": "The address to delegate votes to"
        }
      },
      "delegateBySig(address,uint256,uint256,uint8,bytes32,bytes32)": {
        "params": {
          "delegatee": "The address to delegate votes to",
          "expiry": "The time at which to expire the signature",
          "nonce": "The contract state required to match the signature",
          "r": "Half of the ECDSA signature pair",
          "s": "Half of the ECDSA signature pair",
          "v": "The recovery byte of the signature"
        }
      },
      "getCurrentVotes(address)": {
        "params": {
          "account": "The address to get votes balance"
        },
        "returns": {
          "_0": "The number of current votes for `account`"
        }
      },
      "getPriorVotes(address,uint256)": {
        "details": "Block number must be a finalized block or else this function will revert to prevent misinformation.",
        "params": {
          "account": "The address of the account to check",
          "blockNumber": "The block number to get the vote balance at"
        },
        "returns": {
          "_0": "The number of votes the account had as of the given block"
        }
      }
    },
    "version": 1
  },
  "userdoc": {
    "kind": "user",
    "methods": {
      "delegate(address)": {
        "notice": "Delegate votes from `msg.sender` to `delegatee`"
      },
      "delegateBySig(address,uint256,uint256,uint8,bytes32,bytes32)": {
        "notice": "Delegates votes from signatory to `delegatee`"
      },
      "getCurrentVotes(address)": {
        "notice": "Gets the current votes balance for `account`"
      },
      "getPriorVotes(address,uint256)": {
        "notice": "Determine the prior number of votes for an account as of a block number"
      }
    },
    "version": 1
  }
}