{
  "contractName": "Vault",
  "abi": [
    {
      "inputs": [
        {
          "internalType": "address",
          "name": "_vader",
          "type": "address"
        }
      ],
      "stateMutability": "nonpayable",
      "type": "constructor"
    },
    {
      "anonymous": false,
      "inputs": [
        {
          "indexed": true,
          "internalType": "address",
          "name": "delegator",
          "type": "address"
        },
        {
          "indexed": true,
          "internalType": "address",
          "name": "fromDelegate",
          "type": "address"
        },
        {
          "indexed": true,
          "internalType": "address",
          "name": "toDelegate",
          "type": "address"
        }
      ],
      "name": "DelegateChanged",
      "type": "event"
    },
    {
      "anonymous": false,
      "inputs": [
        {
          "indexed": true,
          "internalType": "address",
          "name": "delegate",
          "type": "address"
        },
        {
          "indexed": false,
          "internalType": "uint256",
          "name": "previousBalance",
          "type": "uint256"
        },
        {
          "indexed": false,
          "internalType": "uint256",
          "name": "newBalance",
          "type": "uint256"
        }
      ],
      "name": "DelegateVotesChanged",
      "type": "event"
    },
    {
      "anonymous": false,
      "inputs": [
        {
          "indexed": true,
          "internalType": "address",
          "name": "asset",
          "type": "address"
        },
        {
          "indexed": false,
          "internalType": "uint256",
          "name": "reward",
          "type": "uint256"
        }
      ],
      "name": "Harvests",
      "type": "event"
    },
    {
      "anonymous": false,
      "inputs": [
        {
          "indexed": true,
          "internalType": "address",
          "name": "asset",
          "type": "address"
        },
        {
          "indexed": true,
          "internalType": "address",
          "name": "member",
          "type": "address"
        },
        {
          "indexed": false,
          "internalType": "uint256",
          "name": "amount",
          "type": "uint256"
        },
        {
          "indexed": false,
          "internalType": "uint256",
          "name": "weight",
          "type": "uint256"
        },
        {
          "indexed": false,
          "internalType": "uint256",
          "name": "totalWeight",
          "type": "uint256"
        }
      ],
      "name": "MemberDeposits",
      "type": "event"
    },
    {
      "anonymous": false,
      "inputs": [
        {
          "indexed": true,
          "internalType": "address",
          "name": "asset",
          "type": "address"
        },
        {
          "indexed": true,
          "internalType": "address",
          "name": "member",
          "type": "address"
        },
        {
          "indexed": false,
          "internalType": "uint256",
          "name": "amount",
          "type": "uint256"
        },
        {
          "indexed": false,
          "internalType": "uint256",
          "name": "weight",
          "type": "uint256"
        },
        {
          "indexed": false,
          "internalType": "uint256",
          "name": "totalWeight",
          "type": "uint256"
        }
      ],
      "name": "MemberWithdraws",
      "type": "event"
    },
    {
      "inputs": [],
      "name": "DELEGATION_TYPEHASH",
      "outputs": [
        {
          "internalType": "bytes32",
          "name": "",
          "type": "bytes32"
        }
      ],
      "stateMutability": "view",
      "type": "function",
      "constant": true
    },
    {
      "inputs": [],
      "name": "DOMAIN_TYPEHASH",
      "outputs": [
        {
          "internalType": "bytes32",
          "name": "",
          "type": "bytes32"
        }
      ],
      "stateMutability": "view",
      "type": "function",
      "constant": true
    },
    {
      "inputs": [],
      "name": "VADER",
      "outputs": [
        {
          "internalType": "address",
          "name": "",
          "type": "address"
        }
      ],
      "stateMutability": "view",
      "type": "function",
      "constant": true
    },
    {
      "inputs": [
        {
          "internalType": "address",
          "name": "",
          "type": "address"
        },
        {
          "internalType": "uint32",
          "name": "",
          "type": "uint32"
        }
      ],
      "name": "checkpoints",
      "outputs": [
        {
          "internalType": "uint32",
          "name": "fromBlock",
          "type": "uint32"
        },
        {
          "internalType": "uint256",
          "name": "votes",
          "type": "uint256"
        }
      ],
      "stateMutability": "view",
      "type": "function",
      "constant": true
    },
    {
      "inputs": [
        {
          "internalType": "address",
          "name": "",
          "type": "address"
        }
      ],
      "name": "delegates",
      "outputs": [
        {
          "internalType": "address",
          "name": "",
          "type": "address"
        }
      ],
      "stateMutability": "view",
      "type": "function",
      "constant": true
    },
    {
      "inputs": [],
      "name": "minimumDepositTime",
      "outputs": [
        {
          "internalType": "uint256",
          "name": "",
          "type": "uint256"
        }
      ],
      "stateMutability": "view",
      "type": "function",
      "constant": true
    },
    {
      "inputs": [
        {
          "internalType": "address",
          "name": "",
          "type": "address"
        }
      ],
      "name": "nonces",
      "outputs": [
        {
          "internalType": "uint256",
          "name": "",
          "type": "uint256"
        }
      ],
      "stateMutability": "view",
      "type": "function",
      "constant": true
    },
    {
      "inputs": [
        {
          "internalType": "address",
          "name": "",
          "type": "address"
        }
      ],
      "name": "numCheckpoints",
      "outputs": [
        {
          "internalType": "uint32",
          "name": "",
          "type": "uint32"
        }
      ],
      "stateMutability": "view",
      "type": "function",
      "constant": true
    },
    {
      "inputs": [],
      "name": "totalWeight",
      "outputs": [
        {
          "internalType": "uint256",
          "name": "",
          "type": "uint256"
        }
      ],
      "stateMutability": "view",
      "type": "function",
      "constant": true
    },
    {
      "inputs": [
        {
          "internalType": "uint256",
          "name": "newDepositTime",
          "type": "uint256"
        }
      ],
      "name": "setParams",
      "outputs": [],
      "stateMutability": "nonpayable",
      "type": "function"
    },
    {
      "inputs": [
        {
          "internalType": "address",
          "name": "asset",
          "type": "address"
        },
        {
          "internalType": "uint256",
          "name": "amount",
          "type": "uint256"
        }
      ],
      "name": "deposit",
      "outputs": [
        {
          "internalType": "uint256",
          "name": "",
          "type": "uint256"
        }
      ],
      "stateMutability": "nonpayable",
      "type": "function"
    },
    {
      "inputs": [
        {
          "internalType": "address",
          "name": "asset",
          "type": "address"
        },
        {
          "internalType": "address",
          "name": "member",
          "type": "address"
        },
        {
          "internalType": "uint256",
          "name": "amount",
          "type": "uint256"
        }
      ],
      "name": "depositForMember",
      "outputs": [
        {
          "internalType": "uint256",
          "name": "",
          "type": "uint256"
        }
      ],
      "stateMutability": "nonpayable",
      "type": "function"
    },
    {
      "inputs": [
        {
          "internalType": "address",
          "name": "asset",
          "type": "address"
        }
      ],
      "name": "harvest",
      "outputs": [
        {
          "internalType": "uint256",
          "name": "reward",
          "type": "uint256"
        }
      ],
      "stateMutability": "nonpayable",
      "type": "function"
    },
    {
      "inputs": [
        {
          "internalType": "address",
          "name": "asset",
          "type": "address"
        }
      ],
      "name": "calcRewardForAsset",
      "outputs": [
        {
          "internalType": "uint256",
          "name": "reward",
          "type": "uint256"
        }
      ],
      "stateMutability": "view",
      "type": "function",
      "constant": true
    },
    {
      "inputs": [
        {
          "internalType": "address",
          "name": "asset",
          "type": "address"
        },
        {
          "internalType": "uint256",
          "name": "basisPoints",
          "type": "uint256"
        }
      ],
      "name": "withdraw",
      "outputs": [
        {
          "internalType": "uint256",
          "name": "redeemedAmount",
          "type": "uint256"
        }
      ],
      "stateMutability": "nonpayable",
      "type": "function"
    },
    {
      "inputs": [
        {
          "internalType": "address",
          "name": "asset",
          "type": "address"
        },
        {
          "internalType": "uint256",
          "name": "basisPoints",
          "type": "uint256"
        }
      ],
      "name": "withdrawToVader",
      "outputs": [
        {
          "internalType": "uint256",
          "name": "redeemedAmount",
          "type": "uint256"
        }
      ],
      "stateMutability": "nonpayable",
      "type": "function"
    },
    {
      "inputs": [
        {
          "internalType": "address",
          "name": "asset",
          "type": "address"
        },
        {
          "internalType": "address",
          "name": "member",
          "type": "address"
        }
      ],
      "name": "calcDepositValueForMember",
      "outputs": [
        {
          "internalType": "uint256",
          "name": "value",
          "type": "uint256"
        }
      ],
      "stateMutability": "view",
      "type": "function",
      "constant": true
    },
    {
      "inputs": [
        {
          "internalType": "address",
          "name": "delegatee",
          "type": "address"
        }
      ],
      "name": "delegate",
      "outputs": [],
      "stateMutability": "nonpayable",
      "type": "function"
    },
    {
      "inputs": [
        {
          "internalType": "address",
          "name": "delegatee",
          "type": "address"
        },
        {
          "internalType": "uint256",
          "name": "nonce",
          "type": "uint256"
        },
        {
          "internalType": "uint256",
          "name": "expiry",
          "type": "uint256"
        },
        {
          "internalType": "uint8",
          "name": "v",
          "type": "uint8"
        },
        {
          "internalType": "bytes32",
          "name": "r",
          "type": "bytes32"
        },
        {
          "internalType": "bytes32",
          "name": "s",
          "type": "bytes32"
        }
      ],
      "name": "delegateBySig",
      "outputs": [],
      "stateMutability": "nonpayable",
      "type": "function"
    },
    {
      "inputs": [
        {
          "internalType": "address",
          "name": "account",
          "type": "address"
        }
      ],
      "name": "getCurrentVotes",
      "outputs": [
        {
          "internalType": "uint256",
          "name": "",
          "type": "uint256"
        }
      ],
      "stateMutability": "view",
      "type": "function",
      "constant": true
    },
    {
      "inputs": [
        {
          "internalType": "address",
          "name": "account",
          "type": "address"
        },
        {
          "internalType": "uint256",
          "name": "blockNumber",
          "type": "uint256"
        }
      ],
      "name": "getPriorVotes",
      "outputs": [
        {
          "internalType": "uint256",
          "name": "",
          "type": "uint256"
        }
      ],
      "stateMutability": "view",
      "type": "function",
      "constant": true
    },
    {
      "inputs": [],
      "name": "reserveUSDV",
      "outputs": [
        {
          "internalType": "uint256",
          "name": "",
          "type": "uint256"
        }
      ],
      "stateMutability": "view",
      "type": "function",
      "constant": true
    },
    {
      "inputs": [],
      "name": "reserveVADER",
      "outputs": [
        {
          "internalType": "uint256",
          "name": "",
          "type": "uint256"
        }
      ],
      "stateMutability": "view",
      "type": "function",
      "constant": true
    },
    {
      "inputs": [
        {
          "internalType": "address",
          "name": "member",
          "type": "address"
        },
        {
          "internalType": "address",
          "name": "asset",
          "type": "address"
        }
      ],
      "name": "getMemberDeposit",
      "outputs": [
        {
          "internalType": "uint256",
          "name": "",
          "type": "uint256"
        }
      ],
      "stateMutability": "view",
      "type": "function",
      "constant": true
    },
    {
      "inputs": [
        {
          "internalType": "address",
          "name": "member",
          "type": "address"
        },
        {
          "internalType": "address",
          "name": "asset",
          "type": "address"
        }
      ],
      "name": "getMemberLastTime",
      "outputs": [
        {
          "internalType": "uint256",
          "name": "",
          "type": "uint256"
        }
      ],
      "stateMutability": "view",
      "type": "function",
      "constant": true
    },
    {
      "inputs": [
        {
          "internalType": "address",
          "name": "member",
          "type": "address"
        }
      ],
      "name": "getMemberWeight",
      "outputs": [
        {
          "internalType": "uint256",
          "name": "",
          "type": "uint256"
        }
      ],
      "stateMutability": "view",
      "type": "function",
      "constant": true
    },
    {
      "inputs": [
        {
          "internalType": "address",
          "name": "asset",
          "type": "address"
        }
      ],
      "name": "getAssetDeposit",
      "outputs": [
        {
          "internalType": "uint256",
          "name": "",
          "type": "uint256"
        }
      ],
      "stateMutability": "view",
      "type": "function",
      "constant": true
    },
    {
      "inputs": [
        {
          "internalType": "address",
          "name": "asset",
          "type": "address"
        }
      ],
      "name": "getAssetLastTime",
      "outputs": [
        {
          "internalType": "uint256",
          "name": "",
          "type": "uint256"
        }
      ],
      "stateMutability": "view",
      "type": "function",
      "constant": true
    },
    {
      "inputs": [],
      "name": "getUSDVTotalSupply",
      "outputs": [
        {
          "internalType": "uint256",
          "name": "",
          "type": "uint256"
        }
      ],
      "stateMutability": "view",
      "type": "function",
      "constant": true
    },
    {
      "inputs": [],
      "name": "UTILS",
      "outputs": [
        {
          "internalType": "address",
          "name": "",
          "type": "address"
        }
      ],
      "stateMutability": "view",
      "type": "function",
      "constant": true
    },
    {
      "inputs": [],
      "name": "TIMELOCK",
      "outputs": [
        {
          "internalType": "address",
          "name": "",
          "type": "address"
        }
      ],
      "stateMutability": "view",
      "type": "function",
      "constant": true
    }
  ],
  "bytecode": "0x60a06040523480156200001157600080fd5b50604051620030383803806200303883398101604081905262000034916200004f565b60601b6001600160601b03191660805260016000556200007f565b60006020828403121562000061578081fd5b81516001600160a01b038116811462000078578182fd5b9392505050565b60805160601c612f5b620000dd600039600081816101ef01528181610a1201528181610ad6015281816112d5015281816113d801528181611b2f01528181611bfa01528181611cc50152818161227601526123ff0152612f5b6000f3fe608060405234801561001057600080fd5b50600436106101e55760003560e01c80636fcfff451161010f57806396c82e57116100a2578063de6ad44e11610071578063de6ad44e146104b3578063e7a324dc146104bb578063f1127ed8146104e2578063f3fef3a314610539576101e5565b806396c82e5714610471578063b4b5ea571461047a578063bf58d0ef1461048d578063c3cda520146104a0576101e5565b80637aadef8b116100de5780637aadef8b146104085780637b0e5c45146104105780637ecebe00146104185780638dfa9bcc14610438576101e5565b80636fcfff451461037e5780637125e380146103b9578063782d6fe1146103e257806379abc587146103f5576101e5565b806347e7ef2411610187578063587cde1e11610156578063587cde1e1461032557806359ded2101461034e5780635c19a95c1461036357806362cea34014610376576101e5565b806347e7ef24146102ce5780635364df49146102e15780635499ff7c1461030a57806356d73e631461031d576101e5565b8063036e21e5116101c3578063036e21e5146102785780630e5c011e1461028157806320606b70146102945780634136aad2146102bb576101e5565b806301681315146101ea57806301ced9571461022e57806302d0e1ae14610265575b600080fd5b6102117f000000000000000000000000000000000000000000000000000000000000000081565b6040516001600160a01b0390911681526020015b60405180910390f35b61025761023c366004612b7d565b6001600160a01b031660009081526004602052604090205490565b604051908152602001610225565b610257610273366004612bb5565b61054c565b61025760005481565b61025761028f366004612b7d565b610579565b6102577f8cad95687ba82c2ce50e74f7b754645e5117c3a5bec8151c0726d5857980a86681565b6102576102c9366004612c2d565b610903565b6102576102dc366004612c2d565b610b61565b6102576102ef366004612b7d565b6001600160a01b031660009081526005602052604090205490565b610257610318366004612bb5565b610b75565b610257610c4b565b610211610333366004612b7d565b6008602052600090815260409020546001600160a01b031681565b61036161035c366004612d0d565b610cca565b005b610361610371366004612b7d565b610d5f565b610257610d6c565b6103a461038c366004612b7d565b600a6020526000908152604090205463ffffffff1681565b60405163ffffffff9091168152602001610225565b6102576103c7366004612b7d565b6001600160a01b031660009081526002602052604090205490565b6102576103f0366004612c2d565b610dae565b610257610403366004612b7d565b611029565b6102116112d1565b6102116113d4565b610257610426366004612b7d565b600b6020526000908152604090205481565b610257610446366004612bb5565b6001600160a01b03918216600090815260066020908152604080832093909416825291909152205490565b61025760015481565b610257610488366004612b7d565b61149f565b61025761049b366004612bed565b611513565b6103616104ae366004612c58565b6116db565b610257611a40565b6102577fe48329057bfd03d55e49b547132e39cffd9c1820ad7b9d4c5307691425d15adf81565b61051d6104f0366004612cb8565b60096020908152600092835260408084209091529082529020805460019091015463ffffffff9091169082565b6040805163ffffffff9093168352602083019190915201610225565b610257610547366004612c2d565b611a82565b6001600160a01b038083166000908152600760209081526040808320938516835292905220545b92915050565b600061058482611029565b905061058e611b2b565b6001600160a01b0316826001600160a01b03161415610651576105af611bf6565b6001600160a01b0316636a5290266105c5611b2b565b6040516001600160e01b031960e084901b1681526001600160a01b03909116600482015230602482015260448101849052606401602060405180830381600087803b15801561061357600080fd5b505af1158015610627573d6000803e3d6000fd5b505050506040513d601f19601f8201168201806040525081019061064b9190612d25565b50610817565b610659611bf6565b6001600160a01b0316636a52902661066f611b2b565b610677611cc1565b6040516001600160e01b031960e085901b1681526001600160a01b0392831660048201529116602482015260448101849052606401602060405180830381600087803b1580156106c657600080fd5b505af11580156106da573d6000803e3d6000fd5b505050506040513d601f19601f820116820180604052508101906106fe9190612d25565b50610707611cc1565b6001600160a01b031663d016347e61071d611b2b565b846001600160a01b03166382bfefc86040518163ffffffff1660e01b815260040160206040518083038186803b15801561075657600080fd5b505afa15801561076a573d6000803e3d6000fd5b505050506040513d601f19601f8201168201806040525081019061078e9190612b99565b6040516001600160e01b031960e085901b1681526001600160a01b03928316600482015291166024820152306044820152606401602060405180830381600087803b1580156107dc57600080fd5b505af11580156107f0573d6000803e3d6000fd5b505050506040513d601f19601f820116820180604052508101906108149190612d25565b90505b6040517f70a082310000000000000000000000000000000000000000000000000000000081523060048201526001600160a01b038316906370a082319060240160206040518083038186803b15801561086f57600080fd5b505afa158015610883573d6000803e3d6000fd5b505050506040513d601f19601f820116820180604052508101906108a79190612d25565b6001600160a01b038316600081815260036020526040908190209290925590517fee9a13edca6b09b07abc1d48950ce1080232d7dfe023d3f688cd11b50dd26331906108f69084815260200190565b60405180910390a2919050565b6000610910833384611d8c565b905061091a611b2b565b6001600160a01b0316836001600160a01b0316146109da5761093a611cc1565b6001600160a01b031663e3adb2f6610950611b2b565b6040516001600160e01b031960e084901b1681526001600160a01b0391821660048201529086166024820152306044820152606401602060405180830381600087803b15801561099f57600080fd5b505af11580156109b3573d6000803e3d6000fd5b505050506040513d601f19601f820116820180604052508101906109d79190612d25565b90505b6109e2611b2b565b6040517f095ea7b30000000000000000000000000000000000000000000000000000000081526001600160a01b037f0000000000000000000000000000000000000000000000000000000000000000811660048301526000196024830152919091169063095ea7b390604401602060405180830381600087803b158015610a6857600080fd5b505af1158015610a7c573d6000803e3d6000fd5b505050506040513d601f19601f82011682018060405250810190610aa09190612ced565b506040517f41f88eae000000000000000000000000000000000000000000000000000000008152336004820152602481018290527f00000000000000000000000000000000000000000000000000000000000000006001600160a01b0316906341f88eae90604401602060405180830381600087803b158015610b2257600080fd5b505af1158015610b36573d6000803e3d6000fd5b505050506040513d601f19601f82011682018060405250810190610b5a9190612d25565b5092915050565b6000610b6e833384611513565b9392505050565b6001600160a01b0380821660009081526006602090815260408083209386168352928152828220546002825283832054600390925292822054919291610bb96113d4565b6040516306e8c9b160e21b81526004810185905260248101849052604481018390526001600160a01b039190911690631ba326c49060640160206040518083038186803b158015610c0957600080fd5b505afa158015610c1d573d6000803e3d6000fd5b505050506040513d601f19601f82011682018060405250810190610c419190612d25565b9695505050505050565b6000610c55611b2b565b6001600160a01b03166318160ddd6040518163ffffffff1660e01b815260040160206040518083038186803b158015610c8d57600080fd5b505afa158015610ca1573d6000803e3d6000fd5b505050506040513d601f19601f82011682018060405250810190610cc59190612d25565b905090565b610cd2612272565b6001600160a01b0316336001600160a01b03161480610d095750610cf46112d1565b6001600160a01b0316336001600160a01b0316145b610d5a5760405162461bcd60e51b815260206004820152601160248201527f2144414f202626202154494d454c4f434b00000000000000000000000000000060448201526064015b60405180910390fd5b600055565b610d6933826122cd565b50565b6000610d76611bf6565b6001600160a01b03166362cea3406040518163ffffffff1660e01b815260040160206040518083038186803b158015610c8d57600080fd5b6000438210610e255760405162461bcd60e51b815260206004820152602860248201527f5661756c743a3a6765745072696f72566f7465733a206e6f742079657420646560448201527f7465726d696e65640000000000000000000000000000000000000000000000006064820152608401610d51565b6001600160a01b0383166000908152600a602052604090205463ffffffff1680610e53576000915050610573565b6001600160a01b03841660009081526009602052604081208491610e78600185612e3d565b63ffffffff90811682526020820192909252604001600020541611610ee1576001600160a01b038416600090815260096020526040812090610ebb600184612e3d565b63ffffffff1663ffffffff16815260200190815260200160002060010154915050610573565b6001600160a01b038416600090815260096020908152604080832083805290915290205463ffffffff16831015610f1c576000915050610573565b600080610f2a600184612e3d565b90505b8163ffffffff168163ffffffff161115610ff25760006002610f4f8484612e3d565b610f599190612de4565b610f639083612e3d565b6001600160a01b038816600090815260096020908152604080832063ffffffff8086168552908352928190208151808301909252805490931680825260019093015491810191909152919250871415610fc6576020015194506105739350505050565b805163ffffffff16871115610fdd57819350610feb565b610fe8600183612e3d565b92505b5050610f2d565b506001600160a01b038516600090815260096020908152604080832063ffffffff9094168352929052206001015491505092915050565b600080611034611bf6565b6001600160a01b031663d9ded2cc6040518163ffffffff1660e01b815260040160206040518083038186803b15801561106c57600080fd5b505afa158015611080573d6000803e3d6000fd5b505050506040513d601f19601f820116820180604052508101906110a49190612d25565b905060006110b3600183612dd0565b6001600160a01b03851660009081526004602052604090205490915081906110db9042612e26565b6110e59190612e07565b9250818311156110f3578192505b6001600160a01b038416600090815260026020526040902054611114611b2b565b6001600160a01b0316856001600160a01b031614611234576111346113d4565b6001600160a01b031663db39dc79866001600160a01b03166382bfefc86040518163ffffffff1660e01b815260040160206040518083038186803b15801561117b57600080fd5b505afa15801561118f573d6000803e3d6000fd5b505050506040513d601f19601f820116820180604052508101906111b39190612b99565b6040516001600160e01b031960e084901b1681526001600160a01b0390911660048201526024810184905260440160206040518083038186803b1580156111f957600080fd5b505afa15801561120d573d6000803e3d6000fd5b505050506040513d601f19601f820116820180604052508101906112319190612d25565b90505b61123c6113d4565b6001546040516306e8c9b160e21b8152600481018490526024810191909152604481018690526001600160a01b039190911690631ba326c49060640160206040518083038186803b15801561129057600080fd5b505afa1580156112a4573d6000803e3d6000fd5b505050506040513d601f19601f820116820180604052508101906112c89190612d25565b95945050505050565b60007f00000000000000000000000000000000000000000000000000000000000000006001600160a01b03166398fabd3a6040518163ffffffff1660e01b815260040160206040518083038186803b15801561132c57600080fd5b505afa158015611340573d6000803e3d6000fd5b505050506040513d601f19601f820116820180604052508101906113649190612b99565b6001600160a01b0316637aadef8b6040518163ffffffff1660e01b815260040160206040518083038186803b15801561139c57600080fd5b505afa1580156113b0573d6000803e3d6000fd5b505050506040513d601f19601f82011682018060405250810190610cc59190612b99565b60007f00000000000000000000000000000000000000000000000000000000000000006001600160a01b03166398fabd3a6040518163ffffffff1660e01b815260040160206040518083038186803b15801561142f57600080fd5b505afa158015611443573d6000803e3d6000fd5b505050506040513d601f19601f820116820180604052508101906114679190612b99565b6001600160a01b0316637b0e5c456040518163ffffffff1660e01b815260040160206040518083038186803b15801561139c57600080fd5b6001600160a01b0381166000908152600a602052604081205463ffffffff16806114ca576000610b6e565b6001600160a01b0383166000908152600960205260408120906114ee600184612e3d565b63ffffffff1663ffffffff168152602001908152602001600020600101549392505050565b600061151d6123fb565b6040517f5e0237ea0000000000000000000000000000000000000000000000000000000081526001600160a01b0386811660048301529190911690635e0237ea9060240160206040518083038186803b15801561157957600080fd5b505afa15801561158d573d6000803e3d6000fd5b505050506040513d601f19601f820116820180604052508101906115b19190612ced565b806115d457506115bf611b2b565b6001600160a01b0316846001600160a01b0316145b6116205760405162461bcd60e51b815260206004820152600a60248201527f215065726d6974746564000000000000000000000000000000000000000000006044820152606401610d51565b6040517f23b872dd000000000000000000000000000000000000000000000000000000008152336004820152306024820152604481018390526001600160a01b038516906323b872dd90606401602060405180830381600087803b15801561168757600080fd5b505af115801561169b573d6000803e3d6000fd5b505050506040513d601f19601f820116820180604052508101906116bf9190612ced565b6116c857600080fd5b6116d38484846124c6565b949350505050565b604080518082018252600581527f566164657200000000000000000000000000000000000000000000000000000060209182015281517f8cad95687ba82c2ce50e74f7b754645e5117c3a5bec8151c0726d5857980a866818301527ffcdb688bb892dd821a6249da4f2c393ee933b84fbc4c0f72131d4c967d91f85c81840152466060820152306080808301919091528351808303909101815260a0820184528051908301207fe48329057bfd03d55e49b547132e39cffd9c1820ad7b9d4c5307691425d15adf60c08301526001600160a01b038a1660e08301526101008201899052610120808301899052845180840390910181526101408301909452835193909201929092207f19010000000000000000000000000000000000000000000000000000000000006101608401526101628301829052610182830181905290916000906101a20160408051601f198184030181528282528051602091820120600080855291840180845281905260ff8a169284019290925260608301889052608083018790529092509060019060a0016020604051602081039080840390855afa15801561188e573d6000803e3d6000fd5b5050604051601f1901519150506001600160a01b0381166119175760405162461bcd60e51b815260206004820152602760248201527f5661756c743a3a64656c656761746542795369673a20696e76616c696420736960448201527f676e6174757265000000000000000000000000000000000000000000000000006064820152608401610d51565b6001600160a01b0381166000908152600b6020526040812080549161193b83612e62565b9190505589146119b35760405162461bcd60e51b815260206004820152602360248201527f5661756c743a3a64656c656761746542795369673a20696e76616c6964206e6f60448201527f6e636500000000000000000000000000000000000000000000000000000000006064820152608401610d51565b87421115611a295760405162461bcd60e51b815260206004820152602760248201527f5661756c743a3a64656c656761746542795369673a207369676e61747572652060448201527f65787069726564000000000000000000000000000000000000000000000000006064820152608401610d51565b611a33818b6122cd565b505050505b505050505050565b6000611a4a611bf6565b6001600160a01b031663de6ad44e6040518163ffffffff1660e01b815260040160206040518083038186803b158015610c8d57600080fd5b6000611a8f833384611d8c565b6040517fa9059cbb000000000000000000000000000000000000000000000000000000008152336004820152602481018290529091506001600160a01b0384169063a9059cbb90604401602060405180830381600087803b158015611af357600080fd5b505af1158015611b07573d6000803e3d6000fd5b505050506040513d601f19601f82011682018060405250810190610b5a9190612ced565b60007f00000000000000000000000000000000000000000000000000000000000000006001600160a01b03166398fabd3a6040518163ffffffff1660e01b815260040160206040518083038186803b158015611b8657600080fd5b505afa158015611b9a573d6000803e3d6000fd5b505050506040513d601f19601f82011682018060405250810190611bbe9190612b99565b6001600160a01b031663e2c3b0466040518163ffffffff1660e01b815260040160206040518083038186803b15801561139c57600080fd5b60007f00000000000000000000000000000000000000000000000000000000000000006001600160a01b03166398fabd3a6040518163ffffffff1660e01b815260040160206040518083038186803b158015611c5157600080fd5b505afa158015611c65573d6000803e3d6000fd5b505050506040513d601f19601f82011682018060405250810190611c899190612b99565b6001600160a01b0316639d2cc4366040518163ffffffff1660e01b815260040160206040518083038186803b15801561139c57600080fd5b60007f00000000000000000000000000000000000000000000000000000000000000006001600160a01b03166398fabd3a6040518163ffffffff1660e01b815260040160206040518083038186803b158015611d1c57600080fd5b505afa158015611d30573d6000803e3d6000fd5b505050506040513d601f19601f82011682018060405250810190611d549190612b99565b6001600160a01b031663ebccb5b26040518163ffffffff1660e01b815260040160206040518083038186803b15801561139c57600080fd5b600080546001600160a01b0380851683526007602090815260408085209288168552919052822054611dbe9042612e26565b1015611e0c5760405162461bcd60e51b815260206004820152600b60248201527f4465706f73697454696d650000000000000000000000000000000000000000006044820152606401610d51565b611e146113d4565b6001600160a01b031663714270ab83611e2d8787610b75565b6040516001600160e01b031960e085901b1681526004810192909252602482015260440160206040518083038186803b158015611e6957600080fd5b505afa158015611e7d573d6000803e3d6000fd5b505050506040513d601f19601f82011682018060405250810190611ea19190612d25565b9050611eab6113d4565b6001600160a01b0384811660009081526006602090815260408083208985168452909152908190205490517f714270ab00000000000000000000000000000000000000000000000000000000815260048101869052602481019190915291169063714270ab9060440160206040518083038186803b158015611f2c57600080fd5b505afa158015611f40573d6000803e3d6000fd5b505050506040513d601f19601f82011682018060405250810190611f649190612d25565b6001600160a01b03808516600090815260066020908152604080832093891683529290529081208054909190611f9b908490612e26565b90915550819050611faa611b2b565b6001600160a01b0316856001600160a01b03161461217757611fca6113d4565b6001600160a01b031663db39dc79866001600160a01b03166382bfefc86040518163ffffffff1660e01b815260040160206040518083038186803b15801561201157600080fd5b505afa158015612025573d6000803e3d6000fd5b505050506040513d601f19601f820116820180604052508101906120499190612b99565b6040516001600160e01b031960e084901b1681526001600160a01b0390911660048201526024810185905260440160206040518083038186803b15801561208f57600080fd5b505afa1580156120a3573d6000803e3d6000fd5b505050506040513d601f19601f820116820180604052508101906120c79190612d25565b6001600160a01b0385166000908152600560205260409020549091506120eb6113d4565b6040516306e8c9b160e21b81526004810184905260248101839052604481018390526001600160a01b039190911690631ba326c49060640160206040518083038186803b15801561213b57600080fd5b505afa15801561214f573d6000803e3d6000fd5b505050506040513d601f19601f820116820180604052508101906121739190612d25565b9150505b6001600160a01b0384166000908152600560205260408120805483929061219f908490612e26565b9250508190555080600160008282546121b89190612e26565b9091555050600154604080518481526020810184905280820192909252516001600160a01b0386811692908816917f28b0a5e71db5b0ceb9e9edc3f89a0763709f773d717a2dcfd7851977f805ea7a9181900360600190a3612218611bf6565b6001600160a01b031663e1ac7cfe6040518163ffffffff1660e01b8152600401600060405180830381600087803b15801561225257600080fd5b505af1158015612266573d6000803e3d6000fd5b50505050509392505050565b60007f00000000000000000000000000000000000000000000000000000000000000006001600160a01b03166398fabd3a6040518163ffffffff1660e01b815260040160206040518083038186803b15801561139c57600080fd5b6001600160a01b038281166000818152600860205260408082205490517f5364df49000000000000000000000000000000000000000000000000000000008152600481019390935290921691903090635364df499060240160206040518083038186803b15801561233d57600080fd5b505afa158015612351573d6000803e3d6000fd5b505050506040513d601f19601f820116820180604052508101906123759190612d25565b6001600160a01b0385811660008181526008602052604080822080547fffffffffffffffffffffffff000000000000000000000000000000000000000016898616908117909155905194955093928616927f3134e8a2e6d97e929a7e54011ea5485d7d196dd5f0ba4d4ef95803e8e3fc257f9190a46123f5828483612847565b50505050565b60007f00000000000000000000000000000000000000000000000000000000000000006001600160a01b03166398fabd3a6040518163ffffffff1660e01b815260040160206040518083038186803b15801561245657600080fd5b505afa15801561246a573d6000803e3d6000fd5b505050506040513d601f19601f8201168201806040525081019061248e9190612b99565b6001600160a01b0316632dd310006040518163ffffffff1660e01b815260040160206040518083038186803b15801561139c57600080fd5b6001600160a01b0380831660008181526007602090815260408083209488168084529482528083204290559282526006815282822093825292909252812080548391908390612516908490612d90565b90915550506001600160a01b03841660009081526002602052604081208054849290612543908490612d90565b90915550506040517f70a082310000000000000000000000000000000000000000000000000000000081523060048201526001600160a01b038516906370a082319060240160206040518083038186803b1580156125a057600080fd5b505afa1580156125b4573d6000803e3d6000fd5b505050506040513d601f19601f820116820180604052508101906125d89190612d25565b6001600160a01b03851660009081526003602090815260408083209390935560049052205461261d576001600160a01b03841660009081526004602052604090204290555b612625611b2b565b6001600160a01b0316846001600160a01b0316141561264557508061274d565b61264d6113d4565b6001600160a01b031663b80e44b8856001600160a01b03166382bfefc86040518163ffffffff1660e01b815260040160206040518083038186803b15801561269457600080fd5b505afa1580156126a8573d6000803e3d6000fd5b505050506040513d601f19601f820116820180604052508101906126cc9190612b99565b6040516001600160e01b031960e084901b1681526001600160a01b0390911660048201526024810185905260440160206040518083038186803b15801561271257600080fd5b505afa158015612726573d6000803e3d6000fd5b505050506040513d601f19601f8201168201806040525081019061274a9190612d25565b90505b6001600160a01b03831660009081526005602052604081208054839290612775908490612d90565b92505081905550806001600082825461278e9190612d90565b9091555050600154604080518481526020810184905280820192909252516001600160a01b0385811692908716917f14cd3bc470910a26ce3f7f4a5649f17759dd61c2d987e6941dc6c34f8bd920a29181900360600190a36127ee611bf6565b6001600160a01b031663e1ac7cfe6040518163ffffffff1660e01b8152600401600060405180830381600087803b15801561282857600080fd5b505af115801561283c573d6000803e3d6000fd5b505050509392505050565b816001600160a01b0316836001600160a01b0316141580156128695750600081115b156129a6576001600160a01b0383161561290c576001600160a01b0383166000908152600a602052604081205463ffffffff1690816128a95760006128ec565b6001600160a01b0385166000908152600960205260408120906128cd600185612e3d565b63ffffffff1663ffffffff168152602001908152602001600020600101545b905060006128fa8483612e26565b9050612908868484846129ab565b5050505b6001600160a01b038216156129a6576001600160a01b0382166000908152600a602052604081205463ffffffff16908161294757600061298a565b6001600160a01b03841660009081526009602052604081209061296b600185612e3d565b63ffffffff1663ffffffff168152602001908152602001600020600101545b905060006129988483612d90565b9050611a38858484846129ab565b505050565b60006129cf43604051806060016040528060358152602001612ef160359139612b4d565b905060008463ffffffff16118015612a2957506001600160a01b038516600090815260096020526040812063ffffffff831691612a0d600188612e3d565b63ffffffff908116825260208201929092526040016000205416145b15612a72576001600160a01b03851660009081526009602052604081208391612a53600188612e3d565b63ffffffff168152602081019190915260400160002060010155612b02565b60408051808201825263ffffffff838116825260208083018681526001600160a01b038a166000908152600983528581208a851682529092529390209151825463ffffffff191691161781559051600191820155612ad1908590612da8565b6001600160a01b0386166000908152600a60205260409020805463ffffffff191663ffffffff929092169190911790555b60408051848152602081018490526001600160a01b038716917fdec2bacdd2f05b59de34da9b523dff8be42e5e38e818c82fdb0bae774387a724910160405180910390a25050505050565b6000816401000000008410612b755760405162461bcd60e51b8152600401610d519190612d3d565b509192915050565b600060208284031215612b8e578081fd5b8135610b6e81612edb565b600060208284031215612baa578081fd5b8151610b6e81612edb565b60008060408385031215612bc7578081fd5b8235612bd281612edb565b91506020830135612be281612edb565b809150509250929050565b600080600060608486031215612c01578081fd5b8335612c0c81612edb565b92506020840135612c1c81612edb565b929592945050506040919091013590565b60008060408385031215612c3f578182fd5b8235612c4a81612edb565b946020939093013593505050565b60008060008060008060c08789031215612c70578182fd5b8635612c7b81612edb565b95506020870135945060408701359350606087013560ff81168114612c9e578283fd5b9598949750929560808101359460a0909101359350915050565b60008060408385031215612cca578182fd5b8235612cd581612edb565b9150602083013563ffffffff81168114612be2578182fd5b600060208284031215612cfe578081fd5b81518015158114610b6e578182fd5b600060208284031215612d1e578081fd5b5035919050565b600060208284031215612d36578081fd5b5051919050565b6000602080835283518082850152825b81811015612d6957858101830151858201604001528201612d4d565b81811115612d7a5783604083870101525b50601f01601f1916929092016040019392505050565b60008219821115612da357612da3612e7d565b500190565b600063ffffffff808316818516808303821115612dc757612dc7612e7d565b01949350505050565b600082612ddf57612ddf612eac565b500490565b600063ffffffff80841680612dfb57612dfb612eac565b92169190910492915050565b6000816000190483118215151615612e2157612e21612e7d565b500290565b600082821015612e3857612e38612e7d565b500390565b600063ffffffff83811690831681811015612e5a57612e5a612e7d565b039392505050565b6000600019821415612e7657612e76612e7d565b5060010190565b7f4e487b7100000000000000000000000000000000000000000000000000000000600052601160045260246000fd5b7f4e487b7100000000000000000000000000000000000000000000000000000000600052601260045260246000fd5b6001600160a01b0381168114610d6957600080fdfe5661756c743a3a5f7772697465436865636b706f696e743a20626c6f636b206e756d62657220657863656564732033322062697473a2646970667358221220d1650a83636457b4c807287e244e1ddbd47f96dcd158382917e9075c09f47fc764736f6c63430008030033",
  "immutableReferences": {
    "13453": [
      {
        "length": 32,
        "start": 495
      },
      {
        "length": 32,
        "start": 2578
      },
      {
        "length": 32,
        "start": 2774
      },
      {
        "length": 32,
        "start": 4821
      },
      {
        "length": 32,
        "start": 5080
      },
      {
        "length": 32,
        "start": 6959
      },
      {
        "length": 32,
        "start": 7162
      },
      {
        "length": 32,
        "start": 7365
      },
      {
        "length": 32,
        "start": 8822
      },
      {
        "length": 32,
        "start": 9215
      }
    ]
  },
  "source": "// SPDX-License-Identifier: UNLICENSED\r\npragma solidity ^0.8.3;\r\n\r\nimport \"./interfaces/SafeERC20.sol\";\r\nimport \"./interfaces/iERC20.sol\";\r\nimport \"./interfaces/iDAO.sol\";\r\nimport \"./interfaces/iUTILS.sol\";\r\nimport \"./interfaces/iVADER.sol\";\r\nimport \"./interfaces/iRESERVE.sol\";\r\nimport \"./interfaces/iROUTER.sol\";\r\nimport \"./interfaces/iPOOLS.sol\";\r\nimport \"./interfaces/iFACTORY.sol\";\r\nimport \"./interfaces/iSYNTH.sol\";\r\n\r\nimport \"hardhat/console.sol\";\r\n\r\ncontract Vault {\r\n    using SafeERC20 for ExternalERC20;\r\n\r\n    // Parameters\r\n    uint256 private constant secondsPerYear = 1; //31536000;\r\n\r\n    address public immutable VADER;\r\n\r\n    uint256 public minimumDepositTime;\r\n    uint256 public totalWeight;\r\n\r\n    mapping(address => uint256) private mapAsset_deposit;\r\n    mapping(address => uint256) private mapAsset_balance;\r\n    mapping(address => uint256) private mapAsset_lastHarvestedTime;\r\n    mapping(address => uint256) private mapMember_weight;\r\n\r\n    mapping(address => mapping(address => uint256)) private mapMemberAsset_deposit;\r\n    mapping(address => mapping(address => uint256)) private mapMemberAsset_lastTime;\r\n\r\n    // notice A record of each accounts delegate\r\n    mapping (address => address) public delegates;\r\n\r\n    // @notice A checkpoint for marking number of votes from a given block\r\n    struct Checkpoint {\r\n        uint32 fromBlock;\r\n        uint256 votes;\r\n    }\r\n\r\n    // @notice A record of votes checkpoints for each account, by index\r\n    mapping (address => mapping (uint32 => Checkpoint)) public checkpoints;\r\n\r\n    // @notice The number of checkpoints for each account\r\n    mapping (address => uint32) public numCheckpoints;\r\n\r\n    // @notice The EIP-712 typehash for the contract's domain\r\n    bytes32 public constant DOMAIN_TYPEHASH = keccak256(\"EIP712Domain(string name,uint256 chainId,address verifyingContract)\");\r\n\r\n    // @notice The EIP-712 typehash for the delegation struct used by the contract\r\n    bytes32 public constant DELEGATION_TYPEHASH = keccak256(\"Delegation(address delegatee,uint256 nonce,uint256 expiry)\");\r\n\r\n    // @notice A record of states for signing / validating signatures\r\n    mapping (address => uint) public nonces;\r\n\r\n    // Events\r\n    // @notice An event thats emitted when an account changes its delegate\r\n    event DelegateChanged(address indexed delegator, address indexed fromDelegate, address indexed toDelegate);\r\n\r\n    // @notice An event thats emitted when a delegate account's vote balance changes\r\n    event DelegateVotesChanged(address indexed delegate, uint previousBalance, uint newBalance);\r\n\r\n    event MemberDeposits(\r\n        address indexed asset,\r\n        address indexed member,\r\n        uint256 amount,\r\n        uint256 weight,\r\n        uint256 totalWeight\r\n    );\r\n    event MemberWithdraws(\r\n        address indexed asset,\r\n        address indexed member,\r\n        uint256 amount,\r\n        uint256 weight,\r\n        uint256 totalWeight\r\n    );\r\n    event Harvests(\r\n        address indexed asset,\r\n        uint256 reward\r\n    );\r\n\r\n    // Only DAO can execute\r\n    modifier onlyDAO() {\r\n        require(msg.sender == DAO(), \"!DAO\");\r\n        _;\r\n    }\r\n    // Only TIMELOCK can execute\r\n    modifier onlyTIMELOCK() {\r\n        require(msg.sender == TIMELOCK(), \"!TIMELOCK\");\r\n        _;\r\n    }\r\n    // Only DAO&&TIMELOCK can execute\r\n    modifier onlyDAOandTIMELOCK() {\r\n        require(msg.sender == DAO() || msg.sender == TIMELOCK(), \"!DAO && !TIMELOCK\");\r\n        _;\r\n    }\r\n\r\n    constructor(address _vader) {\r\n        VADER = _vader;\r\n        minimumDepositTime = 1;\r\n    }\r\n\r\n    //=========================================DAO=========================================//\r\n    // Can set params\r\n    function setParams(\r\n        uint256 newDepositTime\r\n    ) external onlyDAOandTIMELOCK {\r\n        minimumDepositTime = newDepositTime;\r\n    }\r\n\r\n    //======================================DEPOSITS========================================//\r\n\r\n    // Deposit USDV or SYNTHS\r\n    function deposit(address asset, uint256 amount) external  returns(uint256) {\r\n        return depositForMember(asset, msg.sender, amount);\r\n    }\r\n\r\n    // Wrapper for contracts\r\n    function depositForMember(\r\n        address asset,\r\n        address member,\r\n        uint256 amount\r\n    ) public returns(uint256){\r\n        require(((iFACTORY(FACTORY()).isSynth(asset)) || asset == USDV()), \"!Permitted\"); // Only Synths or USDV\r\n        require(iERC20(asset).transferFrom(msg.sender, address(this), amount));\r\n        return _deposit(asset, member, amount);\r\n    }\r\n\r\n    function _deposit(\r\n        address _asset,\r\n        address _member,\r\n        uint256 _amount\r\n    ) internal returns(uint256 weight){\r\n        mapMemberAsset_lastTime[_member][_asset] = block.timestamp; // Time of deposit\r\n        mapMemberAsset_deposit[_member][_asset] += _amount; // Record deposit for member\r\n        mapAsset_deposit[_asset] += _amount; // Record total deposit\r\n        mapAsset_balance[_asset] = iERC20(_asset).balanceOf(address(this)); // sync deposits\r\n        if(mapAsset_lastHarvestedTime[_asset] == 0){\r\n            mapAsset_lastHarvestedTime[_asset] = block.timestamp;\r\n        }\r\n        if(_asset == USDV()){\r\n            weight = _amount;\r\n        } else {\r\n            weight = iUTILS(UTILS()).calcSwapValueInBase(iSYNTH(_asset).TOKEN(), _amount);\r\n        }\r\n        mapMember_weight[_member] += weight; // Record total weight for member in USDV\r\n        totalWeight += weight; // Total weight\r\n        emit MemberDeposits(_asset, _member, _amount, weight, totalWeight);\r\n        iRESERVE(RESERVE()).checkReserve();\r\n    }\r\n\r\n    //====================================== HARVEST ========================================//\r\n    \r\n    // Harvest, get reward, increase weight\r\n    function harvest(address asset) external returns (uint256 reward) {\r\n        reward = calcRewardForAsset(asset); \r\n        if (asset == USDV()) {\r\n            iRESERVE(RESERVE()).requestFunds(USDV(), address(this), reward);\r\n        } else {\r\n            iRESERVE(RESERVE()).requestFunds(USDV(), POOLS(), reward);\r\n            reward = iPOOLS(POOLS()).mintSynth(USDV(), iSYNTH(asset).TOKEN(), address(this));\r\n        }\r\n        mapAsset_balance[asset] = iERC20(asset).balanceOf(address(this)); // sync deposits, now including the reward\r\n        emit Harvests(asset, reward);\r\n    }\r\n\r\n    function calcRewardForAsset(address asset) public view returns(uint256 reward) {\r\n        uint256 _owed = iRESERVE(RESERVE()).getVaultReward();\r\n        uint256 _rewardsPerSecond = _owed / secondsPerYear; // Deplete over 1 year\r\n        reward = (block.timestamp - mapAsset_lastHarvestedTime[asset]) * _rewardsPerSecond; // Multiply since last harvest\r\n        if(reward > _owed){\r\n            reward = _owed; // If too much\r\n        }\r\n        uint256 _weight = mapAsset_deposit[asset]; // Total Deposit\r\n        if (asset != USDV()) {\r\n            _weight = iUTILS(UTILS()).calcValueInBase(iSYNTH(asset).TOKEN(), _weight);\r\n        }\r\n        reward = iUTILS(UTILS()).calcShare(_weight, totalWeight, reward); // Share of the reward\r\n    }\r\n\r\n    //====================================== WITHDRAW ========================================//\r\n\r\n    // @title Withdraw `basisPoints` basis points of token `asset` from the vault to the caller.\r\n    function withdraw(address asset, uint256 basisPoints) external returns (uint256 redeemedAmount) {\r\n        redeemedAmount = _processWithdraw(asset, msg.sender, basisPoints); // Get amount to withdraw\r\n        iERC20(asset).transfer(msg.sender, redeemedAmount); // All assets are safe\r\n    }\r\n\r\n    // Withdraw to VADER\r\n    function withdrawToVader(address asset, uint256 basisPoints) external returns (uint256 redeemedAmount) {\r\n        redeemedAmount = _processWithdraw(asset, msg.sender, basisPoints); // Get amount to withdraw\r\n        if(asset != USDV()){\r\n            redeemedAmount = iPOOLS(POOLS()).burnSynth(USDV(), asset, address(this)); // Burn to USDV\r\n        }\r\n        iERC20(USDV()).approve(VADER, type(uint256).max);\r\n        iVADER(VADER).redeemToVADERForMember(msg.sender, redeemedAmount); // Redeem to VADER for Member\r\n    }\r\n\r\n    function _processWithdraw(\r\n        address _asset,\r\n        address _member,\r\n        uint256 _basisPoints\r\n    ) internal returns (uint256 redeemedAmount) {\r\n        require((block.timestamp - mapMemberAsset_lastTime[_member][_asset]) >= minimumDepositTime, \"DepositTime\"); // stops attacks\r\n        redeemedAmount = iUTILS(UTILS()).calcPart(_basisPoints, calcDepositValueForMember(_asset, _member)); // Member share\r\n        mapMemberAsset_deposit[_member][_asset] -= iUTILS(UTILS()).calcPart(_basisPoints, mapMemberAsset_deposit[_member][_asset]); // Reduce for member\r\n        uint256 _redeemedWeight = redeemedAmount;\r\n        if (_asset != USDV()) {\r\n            _redeemedWeight = iUTILS(UTILS()).calcValueInBase(iSYNTH(_asset).TOKEN(), redeemedAmount);\r\n            uint256 _memberWeight = mapMember_weight[_member];\r\n            _redeemedWeight = iUTILS(UTILS()).calcShare(_redeemedWeight, _memberWeight, _memberWeight); // Safely reduce member weight\r\n        }\r\n        mapMember_weight[_member] -= _redeemedWeight; // Reduce for member\r\n        totalWeight -= _redeemedWeight; // Reduce for total\r\n        emit MemberWithdraws(_asset, _member, redeemedAmount, _redeemedWeight, totalWeight); // Event\r\n        iRESERVE(RESERVE()).checkReserve();\r\n    }\r\n\r\n    // Get the value owed for a member\r\n    function calcDepositValueForMember(address asset, address member) public view returns (uint256 value) {\r\n        uint256 _memberDeposit = mapMemberAsset_deposit[member][asset];\r\n        uint256 _totalDeposit = mapAsset_deposit[asset];\r\n        uint256 _balance = mapAsset_balance[asset];\r\n        value = iUTILS(UTILS()).calcShare(_memberDeposit, _totalDeposit, _balance); // Share of balance\r\n    }\r\n\r\n    //================================== GOVERNOR ALPHA =====================================//\r\n    \r\n    /**\r\n     * @notice Delegate votes from `msg.sender` to `delegatee`\r\n     * @param delegatee The address to delegate votes to\r\n     */\r\n    function delegate(address delegatee) public {\r\n        return _delegate(msg.sender, delegatee);\r\n    }\r\n\r\n    /**\r\n     * @notice Delegates votes from signatory to `delegatee`\r\n     * @param delegatee The address to delegate votes to\r\n     * @param nonce The contract state required to match the signature\r\n     * @param expiry The time at which to expire the signature\r\n     * @param v The recovery byte of the signature\r\n     * @param r Half of the ECDSA signature pair\r\n     * @param s Half of the ECDSA signature pair\r\n     */\r\n    function delegateBySig(address delegatee, uint nonce, uint expiry, uint8 v, bytes32 r, bytes32 s) public {\r\n        bytes32 domainSeparator = keccak256(abi.encode(DOMAIN_TYPEHASH, keccak256(bytes(\"Vader\")), getChainId(), address(this)));\r\n        bytes32 structHash = keccak256(abi.encode(DELEGATION_TYPEHASH, delegatee, nonce, expiry));\r\n        bytes32 digest = keccak256(abi.encodePacked(\"\\x19\\x01\", domainSeparator, structHash));\r\n        address signatory = ecrecover(digest, v, r, s);\r\n        require(signatory != address(0), \"Vault::delegateBySig: invalid signature\");\r\n        require(nonce == nonces[signatory]++, \"Vault::delegateBySig: invalid nonce\");\r\n        require(block.timestamp <= expiry, \"Vault::delegateBySig: signature expired\");\r\n        return _delegate(signatory, delegatee);\r\n    }\r\n\r\n    /**\r\n     * @notice Gets the current votes balance for `account`\r\n     * @param account The address to get votes balance\r\n     * @return The number of current votes for `account`\r\n     */\r\n    function getCurrentVotes(address account) external view returns (uint256) {\r\n        uint32 nCheckpoints = numCheckpoints[account];\r\n        return nCheckpoints > 0 ? checkpoints[account][nCheckpoints - 1].votes : 0;\r\n    }\r\n\r\n    /**\r\n     * @notice Determine the prior number of votes for an account as of a block number\r\n     * @dev Block number must be a finalized block or else this function will revert to prevent misinformation.\r\n     * @param account The address of the account to check\r\n     * @param blockNumber The block number to get the vote balance at\r\n     * @return The number of votes the account had as of the given block\r\n     */\r\n    function getPriorVotes(address account, uint blockNumber) external view returns (uint256) {\r\n        require(blockNumber < block.number, \"Vault::getPriorVotes: not yet determined\");\r\n\r\n        uint32 nCheckpoints = numCheckpoints[account];\r\n        if (nCheckpoints == 0) {\r\n            return 0;\r\n        }\r\n\r\n        // First check most recent balance\r\n        if (checkpoints[account][nCheckpoints - 1].fromBlock <= blockNumber) {\r\n            return checkpoints[account][nCheckpoints - 1].votes;\r\n        }\r\n\r\n        // Next check implicit zero balance\r\n        if (checkpoints[account][0].fromBlock > blockNumber) {\r\n            return 0;\r\n        }\r\n\r\n        uint32 lower = 0;\r\n        uint32 upper = nCheckpoints - 1;\r\n        while (upper > lower) {\r\n            uint32 center = upper - (upper - lower) / 2; // ceil, avoiding overflow\r\n            Checkpoint memory cp = checkpoints[account][center];\r\n            if (cp.fromBlock == blockNumber) {\r\n                return cp.votes;\r\n            } else if (cp.fromBlock < blockNumber) {\r\n                lower = center;\r\n            } else {\r\n                upper = center - 1;\r\n            }\r\n        }\r\n        return checkpoints[account][lower].votes;\r\n    }\r\n\r\n    function _delegate(address delegator, address delegatee) internal {\r\n        address currentDelegate = delegates[delegator];\r\n        uint256 delegatorBalance = this.getMemberWeight(delegator);\r\n        delegates[delegator] = delegatee;\r\n\r\n        emit DelegateChanged(delegator, currentDelegate, delegatee);\r\n\r\n        _moveDelegates(currentDelegate, delegatee, delegatorBalance);\r\n    }\r\n\r\n    function _moveDelegates(address srcRep, address dstRep, uint256 amount) internal {\r\n        if (srcRep != dstRep && amount > 0) {\r\n            if (srcRep != address(0)) {\r\n                uint32 srcRepNum = numCheckpoints[srcRep];\r\n                uint256 srcRepOld = srcRepNum > 0 ? checkpoints[srcRep][srcRepNum - 1].votes : 0;\r\n                uint256 srcRepNew = srcRepOld - amount;\r\n                _writeCheckpoint(srcRep, srcRepNum, srcRepOld, srcRepNew);\r\n            }\r\n\r\n            if (dstRep != address(0)) {\r\n                uint32 dstRepNum = numCheckpoints[dstRep];\r\n                uint256 dstRepOld = dstRepNum > 0 ? checkpoints[dstRep][dstRepNum - 1].votes : 0;\r\n                uint256 dstRepNew = dstRepOld + amount;\r\n                _writeCheckpoint(dstRep, dstRepNum, dstRepOld, dstRepNew);\r\n            }\r\n        }\r\n    }\r\n\r\n    function _writeCheckpoint(address delegatee, uint32 nCheckpoints, uint256 oldVotes, uint256 newVotes) internal {\r\n        uint32 blockNumber = safe32(block.number, \"Vault::_writeCheckpoint: block number exceeds 32 bits\");\r\n\r\n        if (nCheckpoints > 0 && checkpoints[delegatee][nCheckpoints - 1].fromBlock == blockNumber) {\r\n            checkpoints[delegatee][nCheckpoints - 1].votes = newVotes;\r\n        } else {\r\n            checkpoints[delegatee][nCheckpoints] = Checkpoint(blockNumber, newVotes);\r\n            numCheckpoints[delegatee] = nCheckpoints + 1;\r\n        }\r\n\r\n        emit DelegateVotesChanged(delegatee, oldVotes, newVotes);\r\n    }\r\n\r\n    function safe32(uint n, string memory errorMessage) internal pure returns (uint32) {\r\n        require(n < 2**32, errorMessage);\r\n        return uint32(n);\r\n    }\r\n\r\n    function getChainId() internal view returns (uint) {\r\n        uint256 chainId;\r\n        assembly { chainId := chainid() }\r\n        return chainId;\r\n    }\r\n\r\n    //============================== HELPERS ================================//\r\n\r\n    function reserveUSDV() external view returns (uint256) {\r\n        return iRESERVE(RESERVE()).reserveUSDV(); // Balance\r\n    }\r\n\r\n    function reserveVADER() external view returns (uint256) {\r\n        return iRESERVE(RESERVE()).reserveVADER(); // Balance\r\n    }\r\n\r\n    function getMemberDeposit(address member, address asset) external view returns (uint256) {\r\n        return mapMemberAsset_deposit[member][asset];\r\n    }\r\n\r\n    function getMemberLastTime(address member, address asset) external view returns (uint256) {\r\n        return mapMemberAsset_lastTime[member][asset];\r\n    }\r\n\r\n    function getMemberWeight(address member) external view returns (uint256) {\r\n        return mapMember_weight[member];\r\n    }\r\n\r\n    function getAssetDeposit(address asset) external view returns (uint256) {\r\n        return mapAsset_deposit[asset];\r\n    }\r\n\r\n    function getAssetLastTime(address asset) external view returns (uint256) {\r\n        return mapAsset_lastHarvestedTime[asset];\r\n    }\r\n\r\n    function getUSDVTotalSupply() external view returns (uint256) {\r\n        return iERC20(USDV()).totalSupply();\r\n    }\r\n\r\n    function DAO() internal view returns(address){\r\n        return iVADER(VADER).DAO();\r\n    }\r\n    function USDV() internal view returns(address){\r\n        return iDAO(iVADER(VADER).DAO()).USDV();\r\n    }\r\n    function RESERVE() internal view returns(address){\r\n        return iDAO(iVADER(VADER).DAO()).RESERVE();\r\n    }\r\n    function ROUTER() internal view returns(address){\r\n        return iDAO(iVADER(VADER).DAO()).ROUTER();\r\n    }\r\n    function POOLS() internal view returns(address){\r\n        return iDAO(iVADER(VADER).DAO()).POOLS();\r\n    }\r\n    function FACTORY() internal view returns(address){\r\n        return iDAO(iVADER(VADER).DAO()).FACTORY();\r\n    }\r\n    function UTILS() public view returns (address) {\r\n        return iDAO(iVADER(VADER).DAO()).UTILS();\r\n    }\r\n    function TIMELOCK() public view returns (address) {\r\n        return iDAO(iVADER(VADER).DAO()).TIMELOCK();\r\n    }\r\n}\r\n",
  "sourcePath": "E:/Web Workspace/Vader Protocol/vaderprotocol-contracts/contracts/Vault.sol",
  "compiler": {
    "name": "solc",
    "version": "0.8.3+commit.8d00100c.Emscripten.clang"
  },
  "schemaVersion": "3.4.0",
  "updatedAt": "2021-06-03T02:05:34.815Z",
  "networkType": "ethereum",
  "devdoc": {
    "kind": "dev",
    "methods": {
      "delegate(address)": {
        "params": {
          "delegatee": "The address to delegate votes to"
        }
      },
      "delegateBySig(address,uint256,uint256,uint8,bytes32,bytes32)": {
        "params": {
          "delegatee": "The address to delegate votes to",
          "expiry": "The time at which to expire the signature",
          "nonce": "The contract state required to match the signature",
          "r": "Half of the ECDSA signature pair",
          "s": "Half of the ECDSA signature pair",
          "v": "The recovery byte of the signature"
        }
      },
      "getCurrentVotes(address)": {
        "params": {
          "account": "The address to get votes balance"
        },
        "returns": {
          "_0": "The number of current votes for `account`"
        }
      },
      "getPriorVotes(address,uint256)": {
        "details": "Block number must be a finalized block or else this function will revert to prevent misinformation.",
        "params": {
          "account": "The address of the account to check",
          "blockNumber": "The block number to get the vote balance at"
        },
        "returns": {
          "_0": "The number of votes the account had as of the given block"
        }
      }
    },
    "version": 1
  },
  "userdoc": {
    "kind": "user",
    "methods": {
      "delegate(address)": {
        "notice": "Delegate votes from `msg.sender` to `delegatee`"
      },
      "delegateBySig(address,uint256,uint256,uint8,bytes32,bytes32)": {
        "notice": "Delegates votes from signatory to `delegatee`"
      },
      "getCurrentVotes(address)": {
        "notice": "Gets the current votes balance for `account`"
      },
      "getPriorVotes(address,uint256)": {
        "notice": "Determine the prior number of votes for an account as of a block number"
      }
    },
    "version": 1
  }
}