{
  "_format": "hh-sol-artifact-1",
  "contractName": "Utils",
  "sourceName": "contracts/Utils.sol",
  "abi": [
    {
      "inputs": [],
      "stateMutability": "nonpayable",
      "type": "constructor"
    },
    {
      "inputs": [],
      "name": "VADER",
      "outputs": [
        {
          "internalType": "address",
          "name": "",
          "type": "address"
        }
      ],
      "stateMutability": "view",
      "type": "function"
    },
    {
      "inputs": [
        {
          "internalType": "address",
          "name": "collateralAsset",
          "type": "address"
        },
        {
          "internalType": "address",
          "name": "debtAsset",
          "type": "address"
        }
      ],
      "name": "assetChecks",
      "outputs": [],
      "stateMutability": "nonpayable",
      "type": "function"
    },
    {
      "inputs": [
        {
          "internalType": "uint256",
          "name": "u",
          "type": "uint256"
        },
        {
          "internalType": "uint256",
          "name": "U",
          "type": "uint256"
        },
        {
          "internalType": "uint256",
          "name": "A",
          "type": "uint256"
        }
      ],
      "name": "calcAsymmetricShare",
      "outputs": [
        {
          "internalType": "uint256",
          "name": "",
          "type": "uint256"
        }
      ],
      "stateMutability": "pure",
      "type": "function"
    },
    {
      "inputs": [
        {
          "internalType": "uint256",
          "name": "B0",
          "type": "uint256"
        },
        {
          "internalType": "uint256",
          "name": "T0",
          "type": "uint256"
        },
        {
          "internalType": "uint256",
          "name": "B1",
          "type": "uint256"
        },
        {
          "internalType": "uint256",
          "name": "T1",
          "type": "uint256"
        }
      ],
      "name": "calcCoverage",
      "outputs": [
        {
          "internalType": "uint256",
          "name": "coverage",
          "type": "uint256"
        }
      ],
      "stateMutability": "pure",
      "type": "function"
    },
    {
      "inputs": [
        {
          "internalType": "uint256",
          "name": "b",
          "type": "uint256"
        },
        {
          "internalType": "uint256",
          "name": "B",
          "type": "uint256"
        },
        {
          "internalType": "uint256",
          "name": "t",
          "type": "uint256"
        },
        {
          "internalType": "uint256",
          "name": "T",
          "type": "uint256"
        },
        {
          "internalType": "uint256",
          "name": "P",
          "type": "uint256"
        }
      ],
      "name": "calcLiquidityUnits",
      "outputs": [
        {
          "internalType": "uint256",
          "name": "",
          "type": "uint256"
        }
      ],
      "stateMutability": "pure",
      "type": "function"
    },
    {
      "inputs": [
        {
          "internalType": "uint256",
          "name": "bp",
          "type": "uint256"
        },
        {
          "internalType": "uint256",
          "name": "total",
          "type": "uint256"
        }
      ],
      "name": "calcPart",
      "outputs": [
        {
          "internalType": "uint256",
          "name": "",
          "type": "uint256"
        }
      ],
      "stateMutability": "pure",
      "type": "function"
    },
    {
      "inputs": [
        {
          "internalType": "uint256",
          "name": "part",
          "type": "uint256"
        },
        {
          "internalType": "uint256",
          "name": "total",
          "type": "uint256"
        },
        {
          "internalType": "uint256",
          "name": "amount",
          "type": "uint256"
        }
      ],
      "name": "calcShare",
      "outputs": [
        {
          "internalType": "uint256",
          "name": "share",
          "type": "uint256"
        }
      ],
      "stateMutability": "pure",
      "type": "function"
    },
    {
      "inputs": [
        {
          "internalType": "uint256",
          "name": "x",
          "type": "uint256"
        },
        {
          "internalType": "uint256",
          "name": "X",
          "type": "uint256"
        },
        {
          "internalType": "uint256",
          "name": "Y",
          "type": "uint256"
        }
      ],
      "name": "calcSwapFee",
      "outputs": [
        {
          "internalType": "uint256",
          "name": "",
          "type": "uint256"
        }
      ],
      "stateMutability": "pure",
      "type": "function"
    },
    {
      "inputs": [
        {
          "internalType": "uint256",
          "name": "x",
          "type": "uint256"
        },
        {
          "internalType": "uint256",
          "name": "X",
          "type": "uint256"
        },
        {
          "internalType": "uint256",
          "name": "Y",
          "type": "uint256"
        }
      ],
      "name": "calcSwapOutput",
      "outputs": [
        {
          "internalType": "uint256",
          "name": "",
          "type": "uint256"
        }
      ],
      "stateMutability": "pure",
      "type": "function"
    },
    {
      "inputs": [
        {
          "internalType": "uint256",
          "name": "x",
          "type": "uint256"
        },
        {
          "internalType": "uint256",
          "name": "X",
          "type": "uint256"
        }
      ],
      "name": "calcSwapSlip",
      "outputs": [
        {
          "internalType": "uint256",
          "name": "",
          "type": "uint256"
        }
      ],
      "stateMutability": "pure",
      "type": "function"
    },
    {
      "inputs": [
        {
          "internalType": "address",
          "name": "token",
          "type": "address"
        },
        {
          "internalType": "uint256",
          "name": "amount",
          "type": "uint256"
        }
      ],
      "name": "calcSwapValueInBase",
      "outputs": [
        {
          "internalType": "uint256",
          "name": "",
          "type": "uint256"
        }
      ],
      "stateMutability": "view",
      "type": "function"
    },
    {
      "inputs": [
        {
          "internalType": "address",
          "name": "token",
          "type": "address"
        },
        {
          "internalType": "uint256",
          "name": "amount",
          "type": "uint256"
        }
      ],
      "name": "calcSwapValueInToken",
      "outputs": [
        {
          "internalType": "uint256",
          "name": "",
          "type": "uint256"
        }
      ],
      "stateMutability": "view",
      "type": "function"
    },
    {
      "inputs": [
        {
          "internalType": "uint256",
          "name": "b",
          "type": "uint256"
        },
        {
          "internalType": "uint256",
          "name": "B",
          "type": "uint256"
        },
        {
          "internalType": "uint256",
          "name": "P",
          "type": "uint256"
        }
      ],
      "name": "calcSynthUnits",
      "outputs": [
        {
          "internalType": "uint256",
          "name": "",
          "type": "uint256"
        }
      ],
      "stateMutability": "pure",
      "type": "function"
    },
    {
      "inputs": [
        {
          "internalType": "address",
          "name": "token",
          "type": "address"
        },
        {
          "internalType": "uint256",
          "name": "amount",
          "type": "uint256"
        }
      ],
      "name": "calcValueInBase",
      "outputs": [
        {
          "internalType": "uint256",
          "name": "value",
          "type": "uint256"
        }
      ],
      "stateMutability": "view",
      "type": "function"
    },
    {
      "inputs": [
        {
          "internalType": "address",
          "name": "token",
          "type": "address"
        },
        {
          "internalType": "uint256",
          "name": "amount",
          "type": "uint256"
        }
      ],
      "name": "calcValueInToken",
      "outputs": [
        {
          "internalType": "uint256",
          "name": "value",
          "type": "uint256"
        }
      ],
      "stateMutability": "view",
      "type": "function"
    },
    {
      "inputs": [
        {
          "internalType": "address",
          "name": "token1",
          "type": "address"
        },
        {
          "internalType": "uint256",
          "name": "amount",
          "type": "uint256"
        },
        {
          "internalType": "address",
          "name": "token2",
          "type": "address"
        }
      ],
      "name": "calcValueOfTokenInToken",
      "outputs": [
        {
          "internalType": "uint256",
          "name": "value",
          "type": "uint256"
        }
      ],
      "stateMutability": "view",
      "type": "function"
    },
    {
      "inputs": [
        {
          "internalType": "address",
          "name": "member",
          "type": "address"
        },
        {
          "internalType": "uint256",
          "name": "collateral",
          "type": "uint256"
        },
        {
          "internalType": "address",
          "name": "collateralAsset",
          "type": "address"
        },
        {
          "internalType": "address",
          "name": "debtAsset",
          "type": "address"
        }
      ],
      "name": "getCollateralValueInBase",
      "outputs": [
        {
          "internalType": "uint256",
          "name": "debt",
          "type": "uint256"
        },
        {
          "internalType": "uint256",
          "name": "baseValue",
          "type": "uint256"
        }
      ],
      "stateMutability": "view",
      "type": "function"
    },
    {
      "inputs": [
        {
          "internalType": "address",
          "name": "member",
          "type": "address"
        },
        {
          "internalType": "address",
          "name": "token",
          "type": "address"
        }
      ],
      "name": "getCoverage",
      "outputs": [
        {
          "internalType": "uint256",
          "name": "",
          "type": "uint256"
        }
      ],
      "stateMutability": "view",
      "type": "function"
    },
    {
      "inputs": [
        {
          "internalType": "address",
          "name": "collateralAsset",
          "type": "address"
        },
        {
          "internalType": "address",
          "name": "debtAsset",
          "type": "address"
        }
      ],
      "name": "getDebtLoading",
      "outputs": [
        {
          "internalType": "uint256",
          "name": "",
          "type": "uint256"
        }
      ],
      "stateMutability": "view",
      "type": "function"
    },
    {
      "inputs": [
        {
          "internalType": "address",
          "name": "member",
          "type": "address"
        },
        {
          "internalType": "uint256",
          "name": "debt",
          "type": "uint256"
        },
        {
          "internalType": "address",
          "name": "collateralAsset",
          "type": "address"
        },
        {
          "internalType": "address",
          "name": "debtAsset",
          "type": "address"
        }
      ],
      "name": "getDebtValueInCollateral",
      "outputs": [
        {
          "internalType": "uint256",
          "name": "",
          "type": "uint256"
        },
        {
          "internalType": "uint256",
          "name": "",
          "type": "uint256"
        }
      ],
      "stateMutability": "view",
      "type": "function"
    },
    {
      "inputs": [
        {
          "internalType": "uint256",
          "name": "totalSupply",
          "type": "uint256"
        },
        {
          "internalType": "uint256",
          "name": "maxSupply",
          "type": "uint256"
        }
      ],
      "name": "getFeeOnTransfer",
      "outputs": [
        {
          "internalType": "uint256",
          "name": "",
          "type": "uint256"
        }
      ],
      "stateMutability": "pure",
      "type": "function"
    },
    {
      "inputs": [
        {
          "internalType": "address",
          "name": "collateralAsset",
          "type": "address"
        },
        {
          "internalType": "address",
          "name": "debtAsset",
          "type": "address"
        },
        {
          "internalType": "uint256",
          "name": "timeElapsed",
          "type": "uint256"
        }
      ],
      "name": "getInterestOwed",
      "outputs": [
        {
          "internalType": "uint256",
          "name": "interestOwed",
          "type": "uint256"
        }
      ],
      "stateMutability": "view",
      "type": "function"
    },
    {
      "inputs": [
        {
          "internalType": "address",
          "name": "collateralAsset",
          "type": "address"
        },
        {
          "internalType": "address",
          "name": "debtAsset",
          "type": "address"
        }
      ],
      "name": "getInterestPayment",
      "outputs": [
        {
          "internalType": "uint256",
          "name": "",
          "type": "uint256"
        }
      ],
      "stateMutability": "view",
      "type": "function"
    },
    {
      "inputs": [
        {
          "internalType": "uint256",
          "name": "basisPoints",
          "type": "uint256"
        },
        {
          "internalType": "address",
          "name": "token",
          "type": "address"
        },
        {
          "internalType": "address",
          "name": "member",
          "type": "address"
        }
      ],
      "name": "getMemberShare",
      "outputs": [
        {
          "internalType": "uint256",
          "name": "units",
          "type": "uint256"
        },
        {
          "internalType": "uint256",
          "name": "outputBase",
          "type": "uint256"
        },
        {
          "internalType": "uint256",
          "name": "outputToken",
          "type": "uint256"
        }
      ],
      "stateMutability": "view",
      "type": "function"
    },
    {
      "inputs": [
        {
          "internalType": "address",
          "name": "member",
          "type": "address"
        },
        {
          "internalType": "address",
          "name": "token",
          "type": "address"
        },
        {
          "internalType": "uint256",
          "name": "basisPoints",
          "type": "uint256"
        },
        {
          "internalType": "uint256",
          "name": "timeForFullProtection",
          "type": "uint256"
        }
      ],
      "name": "getProtection",
      "outputs": [
        {
          "internalType": "uint256",
          "name": "protection",
          "type": "uint256"
        }
      ],
      "stateMutability": "view",
      "type": "function"
    },
    {
      "inputs": [
        {
          "internalType": "uint256",
          "name": "amount",
          "type": "uint256"
        },
        {
          "internalType": "uint256",
          "name": "rewardReductionFactor",
          "type": "uint256"
        }
      ],
      "name": "getReducedShare",
      "outputs": [
        {
          "internalType": "uint256",
          "name": "",
          "type": "uint256"
        }
      ],
      "stateMutability": "pure",
      "type": "function"
    },
    {
      "inputs": [
        {
          "internalType": "address",
          "name": "token",
          "type": "address"
        },
        {
          "internalType": "uint256",
          "name": "rewardReductionFactor",
          "type": "uint256"
        }
      ],
      "name": "getRewardShare",
      "outputs": [
        {
          "internalType": "uint256",
          "name": "rewardShare",
          "type": "uint256"
        }
      ],
      "stateMutability": "view",
      "type": "function"
    },
    {
      "inputs": [
        {
          "internalType": "uint256",
          "name": "b",
          "type": "uint256"
        },
        {
          "internalType": "uint256",
          "name": "B",
          "type": "uint256"
        },
        {
          "internalType": "uint256",
          "name": "t",
          "type": "uint256"
        },
        {
          "internalType": "uint256",
          "name": "T",
          "type": "uint256"
        }
      ],
      "name": "getSlipAdjustment",
      "outputs": [
        {
          "internalType": "uint256",
          "name": "",
          "type": "uint256"
        }
      ],
      "stateMutability": "pure",
      "type": "function"
    },
    {
      "inputs": [
        {
          "internalType": "address",
          "name": "_vader",
          "type": "address"
        }
      ],
      "name": "init",
      "outputs": [],
      "stateMutability": "nonpayable",
      "type": "function"
    },
    {
      "inputs": [
        {
          "internalType": "address",
          "name": "token",
          "type": "address"
        }
      ],
      "name": "isBase",
      "outputs": [
        {
          "internalType": "bool",
          "name": "base",
          "type": "bool"
        }
      ],
      "stateMutability": "view",
      "type": "function"
    },
    {
      "inputs": [
        {
          "internalType": "address",
          "name": "token",
          "type": "address"
        }
      ],
      "name": "isPool",
      "outputs": [
        {
          "internalType": "bool",
          "name": "pool",
          "type": "bool"
        }
      ],
      "stateMutability": "view",
      "type": "function"
    },
    {
      "inputs": [
        {
          "internalType": "address",
          "name": "token",
          "type": "address"
        },
        {
          "internalType": "uint256",
          "name": "bound",
          "type": "uint256"
        },
        {
          "internalType": "bool",
          "name": "inside",
          "type": "bool"
        },
        {
          "internalType": "uint256",
          "name": "targetPrice",
          "type": "uint256"
        }
      ],
      "name": "requirePriceBounds",
      "outputs": [],
      "stateMutability": "view",
      "type": "function"
    },
    {
      "inputs": [
        {
          "internalType": "uint256[]",
          "name": "array",
          "type": "uint256[]"
        }
      ],
      "name": "sortArray",
      "outputs": [
        {
          "internalType": "uint256[]",
          "name": "",
          "type": "uint256[]"
        }
      ],
      "stateMutability": "pure",
      "type": "function"
    }
  ],
  "bytecode": "0x608060405234801561001057600080fd5b50612fcc806100206000396000f3fe608060405234801561001057600080fd5b50600436106101fb5760003560e01c8063896a708c1161011a578063c2886b8a116100ad578063db39dc791161007c578063db39dc7914610481578063dcf3f1e014610494578063e379976e146104a7578063eb7d5ddf146104c7578063ec1753f1146104da576101fb565b8063c2886b8a14610435578063c5c11ee914610448578063cf975e7b1461045b578063d549a1ec1461046e576101fb565b8063b4951e4a116100e9578063b4951e4a146103e9578063b80e44b8146103fc578063bd2bdaf21461040f578063c0c4a72414610422576101fb565b8063896a708c1461039d5780638b18b115146103b0578063945821af146103c35780639e3f1e8e146103d6576101fb565b80635b0b602d116101925780636e899aa3116101615780636e899aa3146103365780637011add314610349578063701baaf314610377578063714270ab1461038a576101fb565b80635b0b602d146102c55780635b16ebb7146102d85780635c22141f146102fb5780635f2c12e814610323576101fb565b80631ba326c4116101ce5780631ba326c4146102795780632db6e4881461028c5780634a1276511461029f578063595a88a7146102b2576101fb565b8063016813151461020057806302bf4bf81461023057806312a86ffb1461025157806319ab453c14610264575b600080fd5b600054610213906001600160a01b031681565b6040516001600160a01b0390911681526020015b60405180910390f35b61024361023e366004612df5565b6104ed565b604051908152602001610227565b61024361025f366004612a9a565b6105a8565b610277610272366004612a62565b610930565b005b610243610287366004612dca565b61095f565b61024361029a366004612d86565b610992565b6102436102ad366004612dca565b6109b4565b6102436102c0366004612df5565b610a59565b6102436102d3366004612b12565b610ad3565b6102eb6102e6366004612a62565b610c30565b6040519015158152602001610227565b61030e610309366004612bc3565b610d4c565b60408051928352602083019190915201610227565b610243610331366004612b57565b610fbd565b6102eb610344366004612a62565b61105c565b61035c610357366004612d50565b611096565b60408051938452602084019290925290820152606001610227565b610243610385366004612dca565b6112b1565b610243610398366004612d86565b6112f7565b6102436103ab366004612dca565b611352565b6102436103be366004612d86565b611360565b6102436103d1366004612ad2565b61136e565b6102436103e4366004612a9a565b611443565b6102436103f7366004612b57565b61156b565b61024361040a366004612b57565b6119bb565b61024361041d366004612d86565b611a51565b610243610430366004612b57565b611a5f565b610243610443366004612a9a565b611b25565b610243610456366004612e26565b611bd0565b610277610469366004612a9a565b611c73565b61030e61047c366004612bc3565b612188565b61024361048f366004612b57565b6123f9565b6102436104a2366004612b82565b6124a4565b6104ba6104b5366004612c5c565b6124b4565b6040516102279190612e7a565b6102776104d5366004612c15565b61260e565b6102436104e8366004612dca565b612708565b6000806104fa8486612ef6565b905060006105088488612ef6565b9050600086610518896002612ef6565b6105229190612ebe565b905060006105308688612ebe565b905060008385111561054d576105468486612f15565b905061055a565b6105578585612f15565b90505b60006105668385612ef6565b90508061057b670de0b6b3a764000084612ef6565b6105859190612ed6565b61059790670de0b6b3a7640000612f15565b96505050505050505b949350505050565b6000806105b3612729565b6001600160a01b031663ff8b83a685856040518363ffffffff1660e01b81526004016105e0929190612e60565b60206040518083038186803b1580156105f857600080fd5b505afa15801561060c573d6000803e3d6000fd5b505050506040513d601f19601f820116820180604052508101906106309190612d38565b9050600061063c612729565b6001600160a01b031663cfa701c586866040518363ffffffff1660e01b8152600401610669929190612e60565b60206040518083038186803b15801561068157600080fd5b505afa158015610695573d6000803e3d6000fd5b505050506040513d601f19601f820116820180604052508101906106b99190612d38565b905060006106c5612825565b6001600160a01b03166324ef375086886040518363ffffffff1660e01b81526004016106f2929190612e60565b60206040518083038186803b15801561070a57600080fd5b505afa15801561071e573d6000803e3d6000fd5b505050506040513d601f19601f820116820180604052508101906107429190612d38565b9050600061085182610752612825565b604051630fefbc0960e01b81526001600160a01b038a811660048301529190911690630fefbc099060240160206040518083038186803b15801561079557600080fd5b505afa1580156107a9573d6000803e3d6000fd5b505050506040513d601f19601f820116820180604052508101906107cd9190612d38565b6107d5612825565b60405163b34c8afb60e01b81526001600160a01b038b81166004830152919091169063b34c8afb906024015b60206040518083038186803b15801561081957600080fd5b505afa15801561082d573d6000803e3d6000fd5b505050506040513d601f19601f820116820180604052508101906102879190612d38565b9050600061091483610861612825565b604051630fefbc0960e01b81526001600160a01b038b811660048301529190911690630fefbc099060240160206040518083038186803b1580156108a457600080fd5b505afa1580156108b8573d6000803e3d6000fd5b505050506040513d601f19601f820116820180604052508101906108dc9190612d38565b6108e4612825565b60405163e6ae1a9760e01b81526001600160a01b038c81166004830152919091169063e6ae1a9790602401610801565b905061092285858484610a59565b955050505050505b92915050565b6000546001600160a01b031661095c57600080546001600160a01b0319166001600160a01b0383161790555b50565b60008284111561096d578293505b821561098b578261097e8584612ef6565b6109889190612ed6565b90505b9392505050565b600061099e8284612ebe565b6109aa84612710612ef6565b61098b9190612ed6565b6000806109c18486612ef6565b90506000836109d1816002612ef6565b6109db9190612ef6565b90506000866109eb876002612ef6565b6109f59190612ef6565b90506000610a038780612ef6565b9050600081610a128486612f15565b610a1c9190612ebe565b610a269086612ef6565b9050600088610a358180612ef6565b610a3f9190612ef6565b9050610a4b8183612ed6565b9a9950505050505050505050565b60008085118015610a6a5750600082115b156105a057600082610a7c8587612ef6565b610a869190612ed6565b610a909087612ebe565b9050600083610a9f8682612ef6565b610aa99190612ed6565b610ab39086612ebe565b9050818111610ac957610ac68183612f15565b92505b5050949350505050565b600080610ae086866105a8565b9050610aea612729565b604051631dd35c3960e21b81526001600160a01b038781166004830152919091169063774d70e49060240160206040518083038186803b158015610b2d57600080fd5b505afa158015610b41573d6000803e3d6000fd5b505050506040513d601f19601f82011682018060405250810190610b659190612d1c565b15610c1c576000610b74612729565b6001600160a01b0316636a87def588886040518363ffffffff1660e01b8152600401610ba1929190612e60565b60206040518083038186803b158015610bb957600080fd5b505afa158015610bcd573d6000803e3d6000fd5b505050506040513d601f19601f82011682018060405250810190610bf19190612d38565b610bfb9042612f15565b9050838111610c1657610c0f81858461095f565b9250610c1a565b8192505b505b610c2684836112f7565b9695505050505050565b6000610c3a612825565b604051636c66769560e11b81526001600160a01b038481166004830152919091169063d8cced2a9060240160206040518083038186803b158015610c7d57600080fd5b505afa158015610c91573d6000803e3d6000fd5b505050506040513d601f19601f82011682018060405250810190610cb59190612d1c565b80610d3e5750610cc3612825565b60405163643fd21560e11b81526001600160a01b038481166004830152919091169063c87fa42a9060240160206040518083038186803b158015610d0657600080fd5b505afa158015610d1a573d6000803e3d6000fd5b505050506040513d601f19601f82011682018060405250810190610d3e9190612d1c565b15610d47575060015b919050565b60008080612710610d5f87611a0a612ef6565b610d699190612ed6565b9050610d748561105c565b15610d8157809150610fa7565b610d8a85610c30565b15610ea257610e9b81610d9b612825565b6001600160a01b03166324ef3750888b6040518363ffffffff1660e01b8152600401610dc8929190612e60565b60206040518083038186803b158015610de057600080fd5b505afa158015610df4573d6000803e3d6000fd5b505050506040513d601f19601f82011682018060405250810190610e189190612d38565b610e20612825565b60405163b34c8afb60e01b81526001600160a01b038a81166004830152919091169063b34c8afb9060240160206040518083038186803b158015610e6357600080fd5b505afa158015610e77573d6000803e3d6000fd5b505050506040513d601f19601f820116820180604052508101906102ad9190612d38565b9150610fa7565b610eaa6128e4565b604051632f011bf560e11b81526001600160a01b0387811660048301529190911690635e0237ea9060240160206040518083038186803b158015610eed57600080fd5b505afa158015610f01573d6000803e3d6000fd5b505050506040513d601f19601f82011682018060405250810190610f259190612d1c565b15610fa757610fa4856001600160a01b03166382bfefc86040518163ffffffff1660e01b815260040160206040518083038186803b158015610f6657600080fd5b505afa158015610f7a573d6000803e3d6000fd5b505050506040513d601f19601f82011682018060405250810190610f9e9190612a7e565b826119bb565b91505b610fb18483610fbd565b92505094509492505050565b6000806000610fca612825565b60405163903443b960e01b81526001600160a01b038781166004830152919091169063903443b990602401604080518083038186803b15801561100c57600080fd5b505afa158015611020573d6000803e3d6000fd5b505050506040513d601f19601f820116820180604052508101906110449190612da7565b915091506110538483836112b1565b95945050505050565b600080546001600160a01b038381169116148061092a575061107c6129a3565b6001600160a01b0316826001600160a01b03161492915050565b6000806000611124866110a7612825565b6001600160a01b03166324ef375088886040518363ffffffff1660e01b81526004016110d4929190612e60565b60206040518083038186803b1580156110ec57600080fd5b505afa158015611100573d6000803e3d6000fd5b505050506040513d601f19601f820116820180604052508101906103989190612d38565b92506111e583611132612825565b604051630fefbc0960e01b81526001600160a01b0389811660048301529190911690630fefbc099060240160206040518083038186803b15801561117557600080fd5b505afa158015611189573d6000803e3d6000fd5b505050506040513d601f19601f820116820180604052508101906111ad9190612d38565b6111b5612825565b60405163b34c8afb60e01b81526001600160a01b038a81166004830152919091169063b34c8afb90602401610801565b91506112a6836111f3612825565b604051630fefbc0960e01b81526001600160a01b0389811660048301529190911690630fefbc099060240160206040518083038186803b15801561123657600080fd5b505afa15801561124a573d6000803e3d6000fd5b505050506040513d601f19601f8201168201806040525081019061126e9190612d38565b611276612825565b60405163e6ae1a9760e01b81526001600160a01b038a81166004830152919091169063e6ae1a9790602401610801565b905093509350939050565b600080826112bf8587612ef6565b6112c99190612ef6565b905060006112d78587612ebe565b6112e18688612ebe565b6112eb9190612ef6565b9050610c268183612ed6565b60006127108311156113455760405162461bcd60e51b815260206004820152601260248201527104d75737420626520636f72726563742042560741b60448201526064015b60405180910390fd5b61098b836127108461095f565b600080826112bf8680612ef6565b600061098b8383606461095f565b600080611384836301e133806102878888611b25565b905061138f8561105c565b156113a55761139e84826123f9565b915061143b565b6113ad6128e4565b604051632f011bf560e11b81526001600160a01b0387811660048301529190911690635e0237ea9060240160206040518083038186803b1580156113f057600080fd5b505afa158015611404573d6000803e3d6000fd5b505050506040513d601f19601f820116820180604052508101906114289190612d1c565b1561143b576114388482876124a4565b91505b509392505050565b60008061144e612729565b6001600160a01b03166382eb723385856040518363ffffffff1660e01b815260040161147b929190612e60565b60206040518083038186803b15801561149357600080fd5b505afa1580156114a7573d6000803e3d6000fd5b505050506040513d601f19601f820116820180604052508101906114cb9190612d38565b905060006114d7612825565b60405163e6ae1a9760e01b81526001600160a01b038681166004830152919091169063e6ae1a979060240160206040518083038186803b15801561151a57600080fd5b505afa15801561152e573d6000803e3d6000fd5b505050506040513d601f19601f820116820180604052508101906115529190612d38565b90508061156183612710612ef6565b6110539190612ed6565b60008060009054906101000a90046001600160a01b03166001600160a01b0316630781f4d26040518163ffffffff1660e01b815260040160206040518083038186803b1580156115ba57600080fd5b505afa1580156115ce573d6000803e3d6000fd5b505050506040513d601f19601f820116820180604052508101906115f29190612d1c565b801561167c5750611601612729565b604051631dd35c3960e21b81526001600160a01b038581166004830152919091169063774d70e49060240160206040518083038186803b15801561164457600080fd5b505afa158015611658573d6000803e3d6000fd5b505050506040513d601f19601f8201168201806040525081019061167c9190612d1c565b1561092a57600061168b612825565b60405163b34c8afb60e01b81526001600160a01b038681166004830152919091169063b34c8afb9060240160206040518083038186803b1580156116ce57600080fd5b505afa1580156116e2573d6000803e3d6000fd5b505050506040513d601f19601f820116820180604052508101906117069190612d38565b9050611710612825565b60405163643fd21560e11b81526001600160a01b038681166004830152919091169063c87fa42a9060240160206040518083038186803b15801561175357600080fd5b505afa158015611767573d6000803e3d6000fd5b505050506040513d601f19601f8201168201806040525081019061178b9190612d1c565b1561186257600061184e8261179e612825565b6001600160a01b031663a9652dca6040518163ffffffff1660e01b815260040160206040518083038186803b1580156117d657600080fd5b505afa1580156117ea573d6000803e3d6000fd5b505050506040513d601f19601f8201168201806040525081019061180e9190612d38565b611816612729565b6001600160a01b031663de6ad44e6040518163ffffffff1660e01b815260040160206040518083038186803b15801561081957600080fd5b905061185a8185611a51565b9250506119b4565b61186a612825565b604051636c66769560e11b81526001600160a01b038681166004830152919091169063d8cced2a9060240160206040518083038186803b1580156118ad57600080fd5b505afa1580156118c1573d6000803e3d6000fd5b505050506040513d601f19601f820116820180604052508101906118e59190612d1c565b156119b45760006119a8826118f8612825565b6001600160a01b031663dd5a2bd86040518163ffffffff1660e01b815260040160206040518083038186803b15801561193057600080fd5b505afa158015611944573d6000803e3d6000fd5b505050506040513d601f19601f820116820180604052508101906119689190612d38565b611970612729565b6001600160a01b03166362cea3406040518163ffffffff1660e01b815260040160206040518083038186803b15801561081957600080fd5b90506110538185611a51565b5092915050565b60008060006119c8612825565b60405163903443b960e01b81526001600160a01b038781166004830152919091169063903443b990602401604080518083038186803b158015611a0a57600080fd5b505afa158015611a1e573d6000803e3d6000fd5b505050506040513d601f19601f82011682018060405250810190611a429190612da7565b915091506110538482846112b1565b600061098b6001838561095f565b6000806000611a6c612825565b60405163903443b960e01b81526001600160a01b038781166004830152919091169063903443b990602401604080518083038186803b158015611aae57600080fd5b505afa158015611ac2573d6000803e3d6000fd5b505050506040513d601f19601f82011682018060405250810190611ae69190612da7565b91509150600082118015611afa5750600081115b15611b1d5781611b0a8286612ef6565b611b149190612ed6565b9250505061092a565b505092915050565b600080611b328484611443565b9050612710611b3f612729565b6001600160a01b03166382eb723386866040518363ffffffff1660e01b8152600401611b6c929190612e60565b60206040518083038186803b158015611b8457600080fd5b505afa158015611b98573d6000803e3d6000fd5b505050506040513d601f19601f82011682018060405250810190611bbc9190612d38565b611bc69083612ef6565b6105a09190612ed6565b600081611bde575084611053565b6000611bec878787876104ed565b90506000611bfa8787612ef6565b90506000611c088987612ef6565b9050600088611c18886002612ef6565b611c229190612ef6565b9050600081611c318486612ebe565b611c3b9089612ef6565b611c459190612ed6565b9050670de0b6b3a7640000611c5a8683612ef6565b611c649190612ed6565b9b9a5050505050505050505050565b6000546001600160a01b0383811691161415611d4a57611c91612825565b604051636c66769560e11b81526001600160a01b038381166004830152919091169063d8cced2a906024015b60206040518083038186803b158015611cd557600080fd5b505afa158015611ce9573d6000803e3d6000fd5b505050506040513d601f19601f82011682018060405250810190611d0d9190612d1c565b611d455760405162461bcd60e51b815260206004820152600960248201526842616420436f6d626f60b81b604482015260640161133c565b612184565b611d526129a3565b6001600160a01b0316826001600160a01b03161415611da357611d73612825565b60405163643fd21560e11b81526001600160a01b038381166004830152919091169063c87fa42a90602401611cbd565b611dab612825565b604051632f011bf560e11b81526001600160a01b0384811660048301529190911690635e0237ea90602401602060405180830381600087803b158015611df057600080fd5b505af1158015611e04573d6000803e3d6000fd5b505050506040513d601f19601f82011682018060405250810190611e289190612d1c565b8015611f2d5750611e37612825565b6001600160a01b031663d8cced2a836001600160a01b03166382bfefc86040518163ffffffff1660e01b815260040160206040518083038186803b158015611e7e57600080fd5b505afa158015611e92573d6000803e3d6000fd5b505050506040513d601f19601f82011682018060405250810190611eb69190612a7e565b6040516001600160e01b031960e084901b1681526001600160a01b03909116600482015260240160206040518083038186803b158015611ef557600080fd5b505afa158015611f09573d6000803e3d6000fd5b505050506040513d601f19601f82011682018060405250810190611f2d9190612d1c565b15611f3a57611c91612825565b611f42612825565b604051632f011bf560e11b81526001600160a01b0384811660048301529190911690635e0237ea90602401602060405180830381600087803b158015611f8757600080fd5b505af1158015611f9b573d6000803e3d6000fd5b505050506040513d601f19601f82011682018060405250810190611fbf9190612d1c565b80156120c45750611fce612825565b6001600160a01b031663c87fa42a836001600160a01b03166382bfefc86040518163ffffffff1660e01b815260040160206040518083038186803b15801561201557600080fd5b505afa158015612029573d6000803e3d6000fd5b505050506040513d601f19601f8201168201806040525081019061204d9190612a7e565b6040516001600160e01b031960e084901b1681526001600160a01b03909116600482015260240160206040518083038186803b15801561208c57600080fd5b505afa1580156120a0573d6000803e3d6000fd5b505050506040513d601f19601f820116820180604052508101906120c49190612d1c565b15612184576120d1612825565b60405163643fd21560e11b81526001600160a01b038381166004830152919091169063c87fa42a9060240160206040518083038186803b15801561211457600080fd5b505afa158015612128573d6000803e3d6000fd5b505050506040513d601f19601f8201168201806040525081019061214c9190612d1c565b6121845760405162461bcd60e51b815260206004820152600960248201526842616420436f6d626f60b81b604482015260640161133c565b5050565b6000806000612195612729565b60405163cbc17db360e01b81526001600160a01b03898116600483015287811660248301528681166044830152919091169063cbc17db39060640160206040518083038186803b1580156121e857600080fd5b505afa1580156121fc573d6000803e3d6000fd5b505050506040513d601f19601f820116820180604052508101906122209190612d38565b9050600061222c612729565b60405163fde3bbe960e01b81526001600160a01b038a8116600483015288811660248301528781166044830152919091169063fde3bbe99060640160206040518083038186803b15801561227f57600080fd5b505afa158015612293573d6000803e3d6000fd5b505050506040513d601f19601f820116820180604052508101906122b79190612d38565b905060006122c3612729565b6001600160a01b031663e672f6ad88886040518363ffffffff1660e01b81526004016122f0929190612e60565b60206040518083038186803b15801561230857600080fd5b505afa15801561231c573d6000803e3d6000fd5b505050506040513d601f19601f820116820180604052508101906123409190612d38565b9050600061234c612729565b6001600160a01b031663e0f52db389896040518363ffffffff1660e01b8152600401612379929190612e60565b60206040518083038186803b15801561239157600080fd5b505afa1580156123a5573d6000803e3d6000fd5b505050506040513d601f19601f820116820180604052508101906123c99190612d38565b905060006123d884848461095f565b905060006123e78b878761095f565b9c919b50909950505050505050505050565b6000806000612406612825565b60405163903443b960e01b81526001600160a01b038781166004830152919091169063903443b990602401604080518083038186803b15801561244857600080fd5b505afa15801561245c573d6000803e3d6000fd5b505050506040513d601f19601f820116820180604052508101906124809190612da7565b915091506000821180156124945750600081115b15611b1d5780611b0a8386612ef6565b60006109888261043086866123f9565b805160609060005b818110156126065760006124d1826001612ebe565b90505b828110156125f3578481815181106124fc57634e487b7160e01b600052603260045260246000fd5b602002602001015185838151811061252457634e487b7160e01b600052603260045260246000fd5b602002602001015111156125e157600085838151811061255457634e487b7160e01b600052603260045260246000fd5b6020026020010151905085828151811061257e57634e487b7160e01b600052603260045260246000fd5b60200260200101518684815181106125a657634e487b7160e01b600052603260045260246000fd5b602002602001018181525050808683815181106125d357634e487b7160e01b600052603260045260246000fd5b602002602001018181525050505b806125eb81612f2c565b9150506124d4565b50806125fe81612f2c565b9150506124bc565b509192915050565b600061262285670de0b6b3a76400006123f9565b9050600061263b61263586612710612f15565b846112f7565b9050600061271061264c8782612ebe565b6126569086612ef6565b6126609190612ed6565b905084156126b6578183101580156126785750808311155b6126b15760405162461bcd60e51b815260206004820152600a6024820152694e6f7420696e7369646560b01b604482015260640161133c565b6126ff565b81831115806126c55750808310155b6126ff5760405162461bcd60e51b815260206004820152600b60248201526a4e6f74206f75747369646560a81b604482015260640161133c565b50505050505050565b60006127148385612ebe565b61271f906002612ef6565b61097e8584612ef6565b60008060009054906101000a90046001600160a01b03166001600160a01b03166398fabd3a6040518163ffffffff1660e01b815260040160206040518083038186803b15801561277857600080fd5b505afa15801561278c573d6000803e3d6000fd5b505050506040513d601f19601f820116820180604052508101906127b09190612a7e565b6001600160a01b03166332fe7b266040518163ffffffff1660e01b815260040160206040518083038186803b1580156127e857600080fd5b505afa1580156127fc573d6000803e3d6000fd5b505050506040513d601f19601f820116820180604052508101906128209190612a7e565b905090565b60008060009054906101000a90046001600160a01b03166001600160a01b03166398fabd3a6040518163ffffffff1660e01b815260040160206040518083038186803b15801561287457600080fd5b505afa158015612888573d6000803e3d6000fd5b505050506040513d601f19601f820116820180604052508101906128ac9190612a7e565b6001600160a01b031663ebccb5b26040518163ffffffff1660e01b815260040160206040518083038186803b1580156127e857600080fd5b60008060009054906101000a90046001600160a01b03166001600160a01b03166398fabd3a6040518163ffffffff1660e01b815260040160206040518083038186803b15801561293357600080fd5b505afa158015612947573d6000803e3d6000fd5b505050506040513d601f19601f8201168201806040525081019061296b9190612a7e565b6001600160a01b0316632dd310006040518163ffffffff1660e01b815260040160206040518083038186803b1580156127e857600080fd5b60008060009054906101000a90046001600160a01b03166001600160a01b03166398fabd3a6040518163ffffffff1660e01b815260040160206040518083038186803b1580156129f257600080fd5b505afa158015612a06573d6000803e3d6000fd5b505050506040513d601f19601f82011682018060405250810190612a2a9190612a7e565b6001600160a01b031663e2c3b0466040518163ffffffff1660e01b815260040160206040518083038186803b1580156127e857600080fd5b600060208284031215612a73578081fd5b813561098b81612f73565b600060208284031215612a8f578081fd5b815161098b81612f73565b60008060408385031215612aac578081fd5b8235612ab781612f73565b91506020830135612ac781612f73565b809150509250929050565b600080600060608486031215612ae6578081fd5b8335612af181612f73565b92506020840135612b0181612f73565b929592945050506040919091013590565b60008060008060808587031215612b27578081fd5b8435612b3281612f73565b93506020850135612b4281612f73565b93969395505050506040820135916060013590565b60008060408385031215612b69578182fd5b8235612b7481612f73565b946020939093013593505050565b600080600060608486031215612b96578283fd5b8335612ba181612f73565b9250602084013591506040840135612bb881612f73565b809150509250925092565b60008060008060808587031215612bd8578384fd5b8435612be381612f73565b9350602085013592506040850135612bfa81612f73565b91506060850135612c0a81612f73565b939692955090935050565b60008060008060808587031215612c2a578384fd5b8435612c3581612f73565b9350602085013592506040850135612c4c81612f88565b9396929550929360600135925050565b60006020808385031215612c6e578182fd5b823567ffffffffffffffff80821115612c85578384fd5b818501915085601f830112612c98578384fd5b813581811115612caa57612caa612f5d565b8060051b604051601f19603f83011681018181108582111715612ccf57612ccf612f5d565b604052828152858101935084860182860187018a1015612ced578788fd5b8795505b83861015612d0f578035855260019590950194938601938601612cf1565b5098975050505050505050565b600060208284031215612d2d578081fd5b815161098b81612f88565b600060208284031215612d49578081fd5b5051919050565b600080600060608486031215612d64578283fd5b833592506020840135612d7681612f73565b91506040840135612bb881612f73565b60008060408385031215612d98578182fd5b50508035926020909101359150565b60008060408385031215612db9578182fd5b505080516020909101519092909150565b600080600060608486031215612dde578081fd5b505081359360208301359350604090920135919050565b60008060008060808587031215612e0a578182fd5b5050823594602084013594506040840135936060013592509050565b600080600080600060a08688031215612e3d578283fd5b505083359560208501359550604085013594606081013594506080013592509050565b6001600160a01b0392831681529116602082015260400190565b6020808252825182820181905260009190848201906040850190845b81811015612eb257835183529284019291840191600101612e96565b50909695505050505050565b60008219821115612ed157612ed1612f47565b500190565b600082612ef157634e487b7160e01b81526012600452602481fd5b500490565b6000816000190483118215151615612f1057612f10612f47565b500290565b600082821015612f2757612f27612f47565b500390565b6000600019821415612f4057612f40612f47565b5060010190565b634e487b7160e01b600052601160045260246000fd5b634e487b7160e01b600052604160045260246000fd5b6001600160a01b038116811461095c57600080fd5b801515811461095c57600080fdfea2646970667358221220391e3f7d856fe51009832c84531cecb508ca7a82f14a57bea17155c51d35335364736f6c63430008030033",
  "linkReferences": {},
  "deployedLinkReferences": {}
}