{
  "_format": "hh-sol-artifact-1",
  "contractName": "Utils",
  "sourceName": "contracts/Utils.sol",
  "abi": [
    {
      "inputs": [],
      "stateMutability": "nonpayable",
      "type": "constructor"
    },
    {
      "inputs": [],
      "name": "VAULT",
      "outputs": [
        {
          "internalType": "address",
          "name": "",
          "type": "address"
        }
      ],
      "stateMutability": "view",
      "type": "function"
    },
    {
      "inputs": [
        {
          "internalType": "uint256",
          "name": "u",
          "type": "uint256"
        },
        {
          "internalType": "uint256",
          "name": "U",
          "type": "uint256"
        },
        {
          "internalType": "uint256",
          "name": "A",
          "type": "uint256"
        }
      ],
      "name": "calcAsymmetricShare",
      "outputs": [
        {
          "internalType": "uint256",
          "name": "",
          "type": "uint256"
        }
      ],
      "stateMutability": "pure",
      "type": "function"
    },
    {
      "inputs": [
        {
          "internalType": "uint256",
          "name": "_B0",
          "type": "uint256"
        },
        {
          "internalType": "uint256",
          "name": "_T0",
          "type": "uint256"
        },
        {
          "internalType": "uint256",
          "name": "_B1",
          "type": "uint256"
        },
        {
          "internalType": "uint256",
          "name": "_T1",
          "type": "uint256"
        }
      ],
      "name": "calcCoverage",
      "outputs": [
        {
          "internalType": "uint256",
          "name": "coverage",
          "type": "uint256"
        }
      ],
      "stateMutability": "pure",
      "type": "function"
    },
    {
      "inputs": [
        {
          "internalType": "uint256",
          "name": "b",
          "type": "uint256"
        },
        {
          "internalType": "uint256",
          "name": "B",
          "type": "uint256"
        },
        {
          "internalType": "uint256",
          "name": "t",
          "type": "uint256"
        },
        {
          "internalType": "uint256",
          "name": "T",
          "type": "uint256"
        },
        {
          "internalType": "uint256",
          "name": "P",
          "type": "uint256"
        }
      ],
      "name": "calcLiquidityUnits",
      "outputs": [
        {
          "internalType": "uint256",
          "name": "",
          "type": "uint256"
        }
      ],
      "stateMutability": "view",
      "type": "function"
    },
    {
      "inputs": [
        {
          "internalType": "uint256",
          "name": "bp",
          "type": "uint256"
        },
        {
          "internalType": "uint256",
          "name": "total",
          "type": "uint256"
        }
      ],
      "name": "calcPart",
      "outputs": [
        {
          "internalType": "uint256",
          "name": "",
          "type": "uint256"
        }
      ],
      "stateMutability": "pure",
      "type": "function"
    },
    {
      "inputs": [
        {
          "internalType": "uint256",
          "name": "part",
          "type": "uint256"
        },
        {
          "internalType": "uint256",
          "name": "total",
          "type": "uint256"
        },
        {
          "internalType": "uint256",
          "name": "amount",
          "type": "uint256"
        }
      ],
      "name": "calcShare",
      "outputs": [
        {
          "internalType": "uint256",
          "name": "share",
          "type": "uint256"
        }
      ],
      "stateMutability": "pure",
      "type": "function"
    },
    {
      "inputs": [
        {
          "internalType": "uint256",
          "name": "x",
          "type": "uint256"
        },
        {
          "internalType": "uint256",
          "name": "X",
          "type": "uint256"
        },
        {
          "internalType": "uint256",
          "name": "Y",
          "type": "uint256"
        }
      ],
      "name": "calcSwapFee",
      "outputs": [
        {
          "internalType": "uint256",
          "name": "",
          "type": "uint256"
        }
      ],
      "stateMutability": "pure",
      "type": "function"
    },
    {
      "inputs": [
        {
          "internalType": "uint256",
          "name": "x",
          "type": "uint256"
        },
        {
          "internalType": "uint256",
          "name": "X",
          "type": "uint256"
        },
        {
          "internalType": "uint256",
          "name": "Y",
          "type": "uint256"
        }
      ],
      "name": "calcSwapOutput",
      "outputs": [
        {
          "internalType": "uint256",
          "name": "",
          "type": "uint256"
        }
      ],
      "stateMutability": "pure",
      "type": "function"
    },
    {
      "inputs": [
        {
          "internalType": "uint256",
          "name": "x",
          "type": "uint256"
        },
        {
          "internalType": "uint256",
          "name": "X",
          "type": "uint256"
        }
      ],
      "name": "calcSwapSlip",
      "outputs": [
        {
          "internalType": "uint256",
          "name": "",
          "type": "uint256"
        }
      ],
      "stateMutability": "pure",
      "type": "function"
    },
    {
      "inputs": [
        {
          "internalType": "uint256",
          "name": "b",
          "type": "uint256"
        },
        {
          "internalType": "uint256",
          "name": "B",
          "type": "uint256"
        },
        {
          "internalType": "uint256",
          "name": "P",
          "type": "uint256"
        }
      ],
      "name": "calcSynthUnits",
      "outputs": [
        {
          "internalType": "uint256",
          "name": "",
          "type": "uint256"
        }
      ],
      "stateMutability": "pure",
      "type": "function"
    },
    {
      "inputs": [
        {
          "internalType": "address",
          "name": "token",
          "type": "address"
        },
        {
          "internalType": "uint256",
          "name": "amount",
          "type": "uint256"
        }
      ],
      "name": "calcValueInBase",
      "outputs": [
        {
          "internalType": "uint256",
          "name": "",
          "type": "uint256"
        }
      ],
      "stateMutability": "view",
      "type": "function"
    },
    {
      "inputs": [
        {
          "internalType": "address",
          "name": "token",
          "type": "address"
        },
        {
          "internalType": "uint256",
          "name": "amount",
          "type": "uint256"
        }
      ],
      "name": "calcValueInToken",
      "outputs": [
        {
          "internalType": "uint256",
          "name": "",
          "type": "uint256"
        }
      ],
      "stateMutability": "view",
      "type": "function"
    },
    {
      "inputs": [
        {
          "internalType": "uint256",
          "name": "totalSupply",
          "type": "uint256"
        },
        {
          "internalType": "uint256",
          "name": "maxSupply",
          "type": "uint256"
        }
      ],
      "name": "getFeeOnTransfer",
      "outputs": [
        {
          "internalType": "uint256",
          "name": "",
          "type": "uint256"
        }
      ],
      "stateMutability": "pure",
      "type": "function"
    },
    {
      "inputs": [
        {
          "internalType": "uint256",
          "name": "b",
          "type": "uint256"
        },
        {
          "internalType": "uint256",
          "name": "B",
          "type": "uint256"
        },
        {
          "internalType": "uint256",
          "name": "t",
          "type": "uint256"
        },
        {
          "internalType": "uint256",
          "name": "T",
          "type": "uint256"
        }
      ],
      "name": "getSlipAdustment",
      "outputs": [
        {
          "internalType": "uint256",
          "name": "",
          "type": "uint256"
        }
      ],
      "stateMutability": "view",
      "type": "function"
    },
    {
      "inputs": [
        {
          "internalType": "address",
          "name": "_vault",
          "type": "address"
        }
      ],
      "name": "init",
      "outputs": [],
      "stateMutability": "nonpayable",
      "type": "function"
    }
  ],
  "bytecode": "0x6080604052670de0b6b3a764000060005534801561001c57600080fd5b506109378061002c6000396000f3fe608060405234801561001057600080fd5b50600436106100f55760003560e01c8063701baaf311610097578063c0c4a72411610066578063c0c4a724146101f8578063c5c11ee91461020b578063db39dc791461021e578063ec1753f114610231576100f5565b8063701baaf3146101ac578063714270ab146101bf578063896a708c146101d25780638b18b115146101e5576100f5565b8063411557d1116100d3578063411557d1146101485780634a12765114610173578063595a88a7146101865780636da0f1fc14610199576100f5565b806319ab453c146100fa5780631ba326c41461010f5780632db6e48814610135575b600080fd5b61010d610108366004610760565b610244565b005b61012261011d3660046107e7565b610273565b6040519081526020015b60405180910390f35b6101226101433660046107a3565b61029a565b60015461015b906001600160a01b031681565b6040516001600160a01b03909116815260200161012c565b6101226101813660046107e7565b6102bc565b610122610194366004610812565b610360565b6101226101a7366004610812565b6103db565b6101226101ba3660046107e7565b61048b565b6101226101cd3660046107a3565b6104db565b6101226101e03660046107e7565b61053f565b6101226101f33660046107a3565b61054d565b61012261020636600461077a565b61055b565b610122610219366004610843565b610601565b61012261022c36600461077a565b610690565b61012261023f3660046107e7565b610723565b6001546001600160a01b031661027057600180546001600160a01b0319166001600160a01b0383161790555b50565b60008215610293578261028685846108b5565b6102909190610895565b90505b9392505050565b60006102a6828461087d565b6102b2846127106108b5565b6102939190610895565b6000806102c983866108b5565b905060006102d785806108b5565b6102e29060026108b5565b905060006102f087876108b5565b6102fb9060026108b5565b9050600061030988806108b5565b90506000818361031986886108b5565b61032391906108d4565b61032d919061087d565b905060008861033c81806108b5565b61034691906108b5565b90506103528183610895565b9a9950505050505050505050565b600080831180156103715750600082115b156103d35760008261038385876108b5565b61038d9190610895565b610397908761087d565b90506000836103a686826108b5565b6103b09190610895565b6103ba908661087d565b90508181116103d0576103cd81836108d4565b92505b50505b949350505050565b6000806103e884866108b5565b905060006103f684886108b5565b90506000866104068960026108b5565b610410919061087d565b9050600061041e868861087d565b905060008385111561043b5761043484866108d4565b9050610448565b61044585856108d4565b90505b600061045483856108b5565b9050806000548361046591906108b5565b61046f9190610895565b60005461047c91906108d4565b9b9a5050505050505050505050565b6000808261049985876108b5565b6104a391906108b5565b905060006104b1858761087d565b6104bb868861087d565b6104c591906108b5565b90506104d18183610895565b9695505050505050565b600061271083111580156104ed575060015b6105325760405162461bcd60e51b815260206004820152601260248201527104d75737420626520636f72726563742042560741b604482015260640160405180910390fd5b6102938361271084610273565b6000808261049986806108b5565b600061029383836064610273565b60015460405163903443b960e01b81526001600160a01b038481166004830152600092839283929091169063903443b990602401604080518083038186803b1580156105a657600080fd5b505afa1580156105ba573d6000803e3d6000fd5b505050506040513d601f19601f820116820180604052508101906105de91906107c4565b9092509050816105ee82866108b5565b6105f89190610895565b95945050505050565b60008161060f5750846105f8565b600061061d878787876103db565b9050600061062b87876108b5565b9050600061063989876108b5565b9050600061064789886108b5565b6106529060026108b5565b905060008183610662868a6108b5565b61066c919061087d565b6106769190610895565b60005490915061068686836108b5565b61047c9190610895565b60015460405163903443b960e01b81526001600160a01b038481166004830152600092839283929091169063903443b990602401604080518083038186803b1580156106db57600080fd5b505afa1580156106ef573d6000803e3d6000fd5b505050506040513d601f19601f8201168201806040525081019061071391906107c4565b9092509050806105ee83866108b5565b600061072f838561087d565b61073a9060026108b5565b61028685846108b5565b80356001600160a01b038116811461075b57600080fd5b919050565b600060208284031215610771578081fd5b61029382610744565b6000806040838503121561078c578081fd5b61079583610744565b946020939093013593505050565b600080604083850312156107b5578182fd5b50508035926020909101359150565b600080604083850312156107d6578182fd5b505080516020909101519092909150565b6000806000606084860312156107fb578081fd5b505081359360208301359350604090920135919050565b60008060008060808587031215610827578081fd5b5050823594602084013594506040840135936060013592509050565b600080600080600060a0868803121561085a578081fd5b505083359560208501359550604085013594606081013594506080013592509050565b60008219821115610890576108906108eb565b500190565b6000826108b057634e487b7160e01b81526012600452602481fd5b500490565b60008160001904831182151516156108cf576108cf6108eb565b500290565b6000828210156108e6576108e66108eb565b500390565b634e487b7160e01b600052601160045260246000fdfea2646970667358221220c0ebc78b09e539fd41c60fe1014bd9f42eebb3a464528b1905e6154d57d42fb264736f6c63430008030033",
  "linkReferences": {},
  "deployedLinkReferences": {}
}