{
  "_format": "hh-sol-artifact-1",
  "contractName": "Utils",
  "sourceName": "contracts/Utils.sol",
  "abi": [
    {
      "inputs": [],
      "stateMutability": "nonpayable",
      "type": "constructor"
    },
    {
      "inputs": [],
      "name": "FACTORY",
      "outputs": [
        {
          "internalType": "address",
          "name": "",
          "type": "address"
        }
      ],
      "stateMutability": "view",
      "type": "function"
    },
    {
      "inputs": [],
      "name": "POOLS",
      "outputs": [
        {
          "internalType": "address",
          "name": "",
          "type": "address"
        }
      ],
      "stateMutability": "view",
      "type": "function"
    },
    {
      "inputs": [],
      "name": "ROUTER",
      "outputs": [
        {
          "internalType": "address",
          "name": "",
          "type": "address"
        }
      ],
      "stateMutability": "view",
      "type": "function"
    },
    {
      "inputs": [],
      "name": "USDV",
      "outputs": [
        {
          "internalType": "address",
          "name": "",
          "type": "address"
        }
      ],
      "stateMutability": "view",
      "type": "function"
    },
    {
      "inputs": [],
      "name": "VADER",
      "outputs": [
        {
          "internalType": "address",
          "name": "",
          "type": "address"
        }
      ],
      "stateMutability": "view",
      "type": "function"
    },
    {
      "inputs": [
        {
          "internalType": "address",
          "name": "collateralAsset",
          "type": "address"
        },
        {
          "internalType": "address",
          "name": "debtAsset",
          "type": "address"
        }
      ],
      "name": "assetChecks",
      "outputs": [],
      "stateMutability": "nonpayable",
      "type": "function"
    },
    {
      "inputs": [
        {
          "internalType": "uint256",
          "name": "u",
          "type": "uint256"
        },
        {
          "internalType": "uint256",
          "name": "U",
          "type": "uint256"
        },
        {
          "internalType": "uint256",
          "name": "A",
          "type": "uint256"
        }
      ],
      "name": "calcAsymmetricShare",
      "outputs": [
        {
          "internalType": "uint256",
          "name": "",
          "type": "uint256"
        }
      ],
      "stateMutability": "pure",
      "type": "function"
    },
    {
      "inputs": [
        {
          "internalType": "uint256",
          "name": "B0",
          "type": "uint256"
        },
        {
          "internalType": "uint256",
          "name": "T0",
          "type": "uint256"
        },
        {
          "internalType": "uint256",
          "name": "B1",
          "type": "uint256"
        },
        {
          "internalType": "uint256",
          "name": "T1",
          "type": "uint256"
        }
      ],
      "name": "calcCoverage",
      "outputs": [
        {
          "internalType": "uint256",
          "name": "coverage",
          "type": "uint256"
        }
      ],
      "stateMutability": "pure",
      "type": "function"
    },
    {
      "inputs": [
        {
          "internalType": "uint256",
          "name": "b",
          "type": "uint256"
        },
        {
          "internalType": "uint256",
          "name": "B",
          "type": "uint256"
        },
        {
          "internalType": "uint256",
          "name": "t",
          "type": "uint256"
        },
        {
          "internalType": "uint256",
          "name": "T",
          "type": "uint256"
        },
        {
          "internalType": "uint256",
          "name": "P",
          "type": "uint256"
        }
      ],
      "name": "calcLiquidityUnits",
      "outputs": [
        {
          "internalType": "uint256",
          "name": "",
          "type": "uint256"
        }
      ],
      "stateMutability": "view",
      "type": "function"
    },
    {
      "inputs": [
        {
          "internalType": "uint256",
          "name": "bp",
          "type": "uint256"
        },
        {
          "internalType": "uint256",
          "name": "total",
          "type": "uint256"
        }
      ],
      "name": "calcPart",
      "outputs": [
        {
          "internalType": "uint256",
          "name": "",
          "type": "uint256"
        }
      ],
      "stateMutability": "pure",
      "type": "function"
    },
    {
      "inputs": [
        {
          "internalType": "uint256",
          "name": "part",
          "type": "uint256"
        },
        {
          "internalType": "uint256",
          "name": "total",
          "type": "uint256"
        },
        {
          "internalType": "uint256",
          "name": "amount",
          "type": "uint256"
        }
      ],
      "name": "calcShare",
      "outputs": [
        {
          "internalType": "uint256",
          "name": "share",
          "type": "uint256"
        }
      ],
      "stateMutability": "pure",
      "type": "function"
    },
    {
      "inputs": [
        {
          "internalType": "uint256",
          "name": "x",
          "type": "uint256"
        },
        {
          "internalType": "uint256",
          "name": "X",
          "type": "uint256"
        },
        {
          "internalType": "uint256",
          "name": "Y",
          "type": "uint256"
        }
      ],
      "name": "calcSwapFee",
      "outputs": [
        {
          "internalType": "uint256",
          "name": "",
          "type": "uint256"
        }
      ],
      "stateMutability": "pure",
      "type": "function"
    },
    {
      "inputs": [
        {
          "internalType": "uint256",
          "name": "x",
          "type": "uint256"
        },
        {
          "internalType": "uint256",
          "name": "X",
          "type": "uint256"
        },
        {
          "internalType": "uint256",
          "name": "Y",
          "type": "uint256"
        }
      ],
      "name": "calcSwapOutput",
      "outputs": [
        {
          "internalType": "uint256",
          "name": "",
          "type": "uint256"
        }
      ],
      "stateMutability": "pure",
      "type": "function"
    },
    {
      "inputs": [
        {
          "internalType": "uint256",
          "name": "x",
          "type": "uint256"
        },
        {
          "internalType": "uint256",
          "name": "X",
          "type": "uint256"
        }
      ],
      "name": "calcSwapSlip",
      "outputs": [
        {
          "internalType": "uint256",
          "name": "",
          "type": "uint256"
        }
      ],
      "stateMutability": "pure",
      "type": "function"
    },
    {
      "inputs": [
        {
          "internalType": "address",
          "name": "token",
          "type": "address"
        },
        {
          "internalType": "uint256",
          "name": "amount",
          "type": "uint256"
        }
      ],
      "name": "calcSwapValueInBase",
      "outputs": [
        {
          "internalType": "uint256",
          "name": "",
          "type": "uint256"
        }
      ],
      "stateMutability": "view",
      "type": "function"
    },
    {
      "inputs": [
        {
          "internalType": "address",
          "name": "token",
          "type": "address"
        },
        {
          "internalType": "uint256",
          "name": "amount",
          "type": "uint256"
        }
      ],
      "name": "calcSwapValueInToken",
      "outputs": [
        {
          "internalType": "uint256",
          "name": "",
          "type": "uint256"
        }
      ],
      "stateMutability": "view",
      "type": "function"
    },
    {
      "inputs": [
        {
          "internalType": "uint256",
          "name": "b",
          "type": "uint256"
        },
        {
          "internalType": "uint256",
          "name": "B",
          "type": "uint256"
        },
        {
          "internalType": "uint256",
          "name": "P",
          "type": "uint256"
        }
      ],
      "name": "calcSynthUnits",
      "outputs": [
        {
          "internalType": "uint256",
          "name": "",
          "type": "uint256"
        }
      ],
      "stateMutability": "pure",
      "type": "function"
    },
    {
      "inputs": [
        {
          "internalType": "address",
          "name": "token",
          "type": "address"
        },
        {
          "internalType": "uint256",
          "name": "amount",
          "type": "uint256"
        }
      ],
      "name": "calcValueInBase",
      "outputs": [
        {
          "internalType": "uint256",
          "name": "value",
          "type": "uint256"
        }
      ],
      "stateMutability": "view",
      "type": "function"
    },
    {
      "inputs": [
        {
          "internalType": "address",
          "name": "token",
          "type": "address"
        },
        {
          "internalType": "uint256",
          "name": "amount",
          "type": "uint256"
        }
      ],
      "name": "calcValueInToken",
      "outputs": [
        {
          "internalType": "uint256",
          "name": "value",
          "type": "uint256"
        }
      ],
      "stateMutability": "view",
      "type": "function"
    },
    {
      "inputs": [
        {
          "internalType": "address",
          "name": "token1",
          "type": "address"
        },
        {
          "internalType": "uint256",
          "name": "amount",
          "type": "uint256"
        },
        {
          "internalType": "address",
          "name": "token2",
          "type": "address"
        }
      ],
      "name": "calcValueOfTokenInToken",
      "outputs": [
        {
          "internalType": "uint256",
          "name": "value",
          "type": "uint256"
        }
      ],
      "stateMutability": "view",
      "type": "function"
    },
    {
      "inputs": [
        {
          "internalType": "address",
          "name": "member",
          "type": "address"
        },
        {
          "internalType": "uint256",
          "name": "collateral",
          "type": "uint256"
        },
        {
          "internalType": "address",
          "name": "collateralAsset",
          "type": "address"
        },
        {
          "internalType": "address",
          "name": "debtAsset",
          "type": "address"
        }
      ],
      "name": "getCollateralValueInBase",
      "outputs": [
        {
          "internalType": "uint256",
          "name": "debt",
          "type": "uint256"
        },
        {
          "internalType": "uint256",
          "name": "baseValue",
          "type": "uint256"
        }
      ],
      "stateMutability": "view",
      "type": "function"
    },
    {
      "inputs": [
        {
          "internalType": "address",
          "name": "member",
          "type": "address"
        },
        {
          "internalType": "address",
          "name": "token",
          "type": "address"
        }
      ],
      "name": "getCoverage",
      "outputs": [
        {
          "internalType": "uint256",
          "name": "",
          "type": "uint256"
        }
      ],
      "stateMutability": "view",
      "type": "function"
    },
    {
      "inputs": [
        {
          "internalType": "address",
          "name": "collateralAsset",
          "type": "address"
        },
        {
          "internalType": "address",
          "name": "debtAsset",
          "type": "address"
        }
      ],
      "name": "getDebtLoading",
      "outputs": [
        {
          "internalType": "uint256",
          "name": "",
          "type": "uint256"
        }
      ],
      "stateMutability": "view",
      "type": "function"
    },
    {
      "inputs": [
        {
          "internalType": "address",
          "name": "member",
          "type": "address"
        },
        {
          "internalType": "uint256",
          "name": "debt",
          "type": "uint256"
        },
        {
          "internalType": "address",
          "name": "collateralAsset",
          "type": "address"
        },
        {
          "internalType": "address",
          "name": "debtAsset",
          "type": "address"
        }
      ],
      "name": "getDebtValueInCollateral",
      "outputs": [
        {
          "internalType": "uint256",
          "name": "",
          "type": "uint256"
        },
        {
          "internalType": "uint256",
          "name": "",
          "type": "uint256"
        }
      ],
      "stateMutability": "view",
      "type": "function"
    },
    {
      "inputs": [
        {
          "internalType": "uint256",
          "name": "totalSupply",
          "type": "uint256"
        },
        {
          "internalType": "uint256",
          "name": "maxSupply",
          "type": "uint256"
        }
      ],
      "name": "getFeeOnTransfer",
      "outputs": [
        {
          "internalType": "uint256",
          "name": "",
          "type": "uint256"
        }
      ],
      "stateMutability": "pure",
      "type": "function"
    },
    {
      "inputs": [
        {
          "internalType": "address",
          "name": "collateralAsset",
          "type": "address"
        },
        {
          "internalType": "address",
          "name": "debtAsset",
          "type": "address"
        },
        {
          "internalType": "uint256",
          "name": "timeElapsed",
          "type": "uint256"
        }
      ],
      "name": "getInterestOwed",
      "outputs": [
        {
          "internalType": "uint256",
          "name": "interestOwed",
          "type": "uint256"
        }
      ],
      "stateMutability": "view",
      "type": "function"
    },
    {
      "inputs": [
        {
          "internalType": "address",
          "name": "collateralAsset",
          "type": "address"
        },
        {
          "internalType": "address",
          "name": "debtAsset",
          "type": "address"
        }
      ],
      "name": "getInterestPayment",
      "outputs": [
        {
          "internalType": "uint256",
          "name": "",
          "type": "uint256"
        }
      ],
      "stateMutability": "view",
      "type": "function"
    },
    {
      "inputs": [
        {
          "internalType": "uint256",
          "name": "basisPoints",
          "type": "uint256"
        },
        {
          "internalType": "address",
          "name": "token",
          "type": "address"
        },
        {
          "internalType": "address",
          "name": "member",
          "type": "address"
        }
      ],
      "name": "getMemberShare",
      "outputs": [
        {
          "internalType": "uint256",
          "name": "units",
          "type": "uint256"
        },
        {
          "internalType": "uint256",
          "name": "outputBase",
          "type": "uint256"
        },
        {
          "internalType": "uint256",
          "name": "outputToken",
          "type": "uint256"
        }
      ],
      "stateMutability": "view",
      "type": "function"
    },
    {
      "inputs": [
        {
          "internalType": "address",
          "name": "member",
          "type": "address"
        },
        {
          "internalType": "address",
          "name": "token",
          "type": "address"
        },
        {
          "internalType": "uint256",
          "name": "basisPoints",
          "type": "uint256"
        },
        {
          "internalType": "uint256",
          "name": "timeForFullProtection",
          "type": "uint256"
        }
      ],
      "name": "getProtection",
      "outputs": [
        {
          "internalType": "uint256",
          "name": "protection",
          "type": "uint256"
        }
      ],
      "stateMutability": "view",
      "type": "function"
    },
    {
      "inputs": [
        {
          "internalType": "uint256",
          "name": "amount",
          "type": "uint256"
        },
        {
          "internalType": "uint256",
          "name": "rewardReductionFactor",
          "type": "uint256"
        }
      ],
      "name": "getReducedShare",
      "outputs": [
        {
          "internalType": "uint256",
          "name": "",
          "type": "uint256"
        }
      ],
      "stateMutability": "pure",
      "type": "function"
    },
    {
      "inputs": [
        {
          "internalType": "address",
          "name": "token",
          "type": "address"
        },
        {
          "internalType": "uint256",
          "name": "rewardReductionFactor",
          "type": "uint256"
        }
      ],
      "name": "getRewardShare",
      "outputs": [
        {
          "internalType": "uint256",
          "name": "rewardShare",
          "type": "uint256"
        }
      ],
      "stateMutability": "view",
      "type": "function"
    },
    {
      "inputs": [
        {
          "internalType": "uint256",
          "name": "b",
          "type": "uint256"
        },
        {
          "internalType": "uint256",
          "name": "B",
          "type": "uint256"
        },
        {
          "internalType": "uint256",
          "name": "t",
          "type": "uint256"
        },
        {
          "internalType": "uint256",
          "name": "T",
          "type": "uint256"
        }
      ],
      "name": "getSlipAdustment",
      "outputs": [
        {
          "internalType": "uint256",
          "name": "",
          "type": "uint256"
        }
      ],
      "stateMutability": "view",
      "type": "function"
    },
    {
      "inputs": [
        {
          "internalType": "address",
          "name": "_vader",
          "type": "address"
        },
        {
          "internalType": "address",
          "name": "_usdv",
          "type": "address"
        },
        {
          "internalType": "address",
          "name": "_router",
          "type": "address"
        },
        {
          "internalType": "address",
          "name": "_pools",
          "type": "address"
        },
        {
          "internalType": "address",
          "name": "_factory",
          "type": "address"
        }
      ],
      "name": "init",
      "outputs": [],
      "stateMutability": "nonpayable",
      "type": "function"
    },
    {
      "inputs": [
        {
          "internalType": "address",
          "name": "token",
          "type": "address"
        }
      ],
      "name": "isBase",
      "outputs": [
        {
          "internalType": "bool",
          "name": "base",
          "type": "bool"
        }
      ],
      "stateMutability": "view",
      "type": "function"
    },
    {
      "inputs": [
        {
          "internalType": "address",
          "name": "token",
          "type": "address"
        }
      ],
      "name": "isPool",
      "outputs": [
        {
          "internalType": "bool",
          "name": "pool",
          "type": "bool"
        }
      ],
      "stateMutability": "view",
      "type": "function"
    },
    {
      "inputs": [
        {
          "internalType": "address",
          "name": "token",
          "type": "address"
        },
        {
          "internalType": "uint256",
          "name": "bound",
          "type": "uint256"
        },
        {
          "internalType": "bool",
          "name": "inside",
          "type": "bool"
        },
        {
          "internalType": "uint256",
          "name": "targetPrice",
          "type": "uint256"
        }
      ],
      "name": "requirePriceBounds",
      "outputs": [],
      "stateMutability": "view",
      "type": "function"
    },
    {
      "inputs": [
        {
          "internalType": "uint256[]",
          "name": "array",
          "type": "uint256[]"
        }
      ],
      "name": "sortArray",
      "outputs": [
        {
          "internalType": "uint256[]",
          "name": "",
          "type": "uint256[]"
        }
      ],
      "stateMutability": "pure",
      "type": "function"
    }
  ],
  "bytecode": "0x6080604052670de0b6b3a76400006000556127106001556301e1338060025534801561002a57600080fd5b50612dab8061003a6000396000f3fe608060405234801561001057600080fd5b50600436106102275760003560e01c8063896a708c11610130578063c5c11ee9116100b8578063e2c3b0461161007c578063e2c3b046146104fe578063e379976e14610511578063eb7d5ddf14610531578063ebccb5b214610544578063ec1753f11461055757610227565b8063c5c11ee91461049f578063cf975e7b146104b2578063d549a1ec146104c5578063db39dc79146104d8578063dcf3f1e0146104eb57610227565b8063b4951e4a116100ff578063b4951e4a14610440578063b80e44b814610453578063bd2bdaf214610466578063c0c4a72414610479578063c2886b8a1461048c57610227565b8063896a708c146103f45780638b18b11514610407578063945821af1461041a5780639e3f1e8e1461042d57610227565b80635b0b602d116101b35780636da0f1fc116101825780636da0f1fc1461037a5780636e899aa31461038d5780637011add3146103a0578063701baaf3146103ce578063714270ab146103e157610227565b80635b0b602d146103095780635b16ebb71461031c5780635c22141f1461033f5780635f2c12e81461036757610227565b80632dd31000116101fa5780632dd31000146102a857806332fe7b26146102bb578063359ef75b146102ce5780634a127651146102e3578063595a88a7146102f657610227565b8063016813151461022c57806312a86ffb146102615780631ba326c4146102825780632db6e48814610295575b600080fd5b6003546102449061010090046001600160a01b031681565b6040516001600160a01b0390911681526020015b60405180910390f35b61027461026f366004612806565b61056a565b604051908152602001610258565b610274610290366004612ba6565b6108e0565b6102746102a3366004612b62565b610913565b600754610244906001600160a01b031681565b600554610244906001600160a01b031681565b6102e16102dc36600461283e565b610935565b005b6102746102f1366004612ba6565b6109e1565b610274610304366004612bd1565b610a85565b6102746103173660046128ee565b610b00565b61032f61032a3660046127ce565b610c53565b6040519015158152602001610258565b61035261034d36600461299f565b610d62565b60408051928352602083019190915201610258565b610274610375366004612933565b610fc6565b610274610388366004612bd1565b611061565b61032f61039b3660046127ce565b611111565b6103b36103ae366004612b2c565b61114f565b60408051938452602084019290925290820152606001610258565b6102746103dc366004612ba6565b611353565b6102746103ef366004612b62565b611399565b610274610402366004612ba6565b6113ef565b610274610415366004612b62565b6113fd565b6102746104283660046128ae565b61140b565b61027461043b366004612806565b6114d8565b61027461044e366004612933565b6115fb565b610274610461366004612933565b611a6b565b610274610474366004612b62565b611afd565b610274610487366004612933565b611b0b565b61027461049a366004612806565b611bcd565b6102746104ad366004612c02565b611c77565b6102e16104c0366004612806565b611d06565b6103526104d336600461299f565b61223d565b6102746104e6366004612933565b6124a4565b6102746104f936600461295e565b61254b565b600454610244906001600160a01b031681565b61052461051f366004612a38565b61255b565b6040516102589190612c56565b6102e161053f3660046129f1565b6126b5565b600654610244906001600160a01b031681565b610274610565366004612ba6565b6127ad565b6005546040516001623a3e2d60e11b0319815260009182916001600160a01b039091169063ff8b83a6906105a49087908790600401612c3c565b60206040518083038186803b1580156105bc57600080fd5b505afa1580156105d0573d6000803e3d6000fd5b505050506040513d601f19601f820116820180604052508101906105f49190612b14565b60055460405163cfa701c560e01b81529192506000916001600160a01b039091169063cfa701c59061062c9088908890600401612c3c565b60206040518083038186803b15801561064457600080fd5b505afa158015610658573d6000803e3d6000fd5b505050506040513d601f19601f8201168201806040525081019061067c9190612b14565b60065460405163024ef37560e41b81529192506000916001600160a01b03909116906324ef3750906106b49088908a90600401612c3c565b60206040518083038186803b1580156106cc57600080fd5b505afa1580156106e0573d6000803e3d6000fd5b505050506040513d601f19601f820116820180604052508101906107049190612b14565b600654604051630fefbc0960e01b81526001600160a01b03888116600483015292935060009261080a928592911690630fefbc099060240160206040518083038186803b15801561075457600080fd5b505afa158015610768573d6000803e3d6000fd5b505050506040513d601f19601f8201168201806040525081019061078c9190612b14565b60065460405163b34c8afb60e01b81526001600160a01b038b811660048301529091169063b34c8afb906024015b60206040518083038186803b1580156107d257600080fd5b505afa1580156107e6573d6000803e3d6000fd5b505050506040513d601f19601f820116820180604052508101906102909190612b14565b600654604051630fefbc0960e01b81526001600160a01b0389811660048301529293506000926108c4928692911690630fefbc099060240160206040518083038186803b15801561085a57600080fd5b505afa15801561086e573d6000803e3d6000fd5b505050506040513d601f19601f820116820180604052508101906108929190612b14565b60065460405163e6ae1a9760e01b81526001600160a01b038c811660048301529091169063e6ae1a97906024016107ba565b90506108d285858484610a85565b955050505050505b92915050565b6000828411156108ee578293505b821561090c57826108ff8584612cd2565b6109099190612cb2565b90505b9392505050565b600061091f8284612c9a565b61092b84612710612cd2565b61090c9190612cb2565b60035460ff16156109765760405162461bcd60e51b81526020600482015260066024820152651a5b9a5d195960d21b60448201526064015b60405180910390fd5b600380546001600160a01b03968716610100026001600160a81b0319909116176001179055600480549486166001600160a01b031995861617905560058054938616938516939093179092556006805491851691841691909117905560078054919093169116179055565b6000806109ee8386612cd2565b905060006109fc8580612cd2565b610a07906002612cd2565b90506000610a158787612cd2565b610a20906002612cd2565b90506000610a2e8880612cd2565b905060008183610a3e8688612cd2565b610a489190612cf1565b610a529190612c9a565b9050600088610a618180612cd2565b610a6b9190612cd2565b9050610a778183612cb2565b9a9950505050505050505050565b60008085118015610a965750600082115b15610af857600082610aa88587612cd2565b610ab29190612cb2565b610abc9087612c9a565b9050600083610acb8682612cd2565b610ad59190612cb2565b610adf9086612c9a565b9050818111610af557610af28183612cf1565b92505b50505b949350505050565b600080610b0d868661056a565b600554604051631dd35c3960e21b81526001600160a01b03888116600483015292935091169063774d70e49060240160206040518083038186803b158015610b5457600080fd5b505afa158015610b68573d6000803e3d6000fd5b505050506040513d601f19601f82011682018060405250810190610b8c9190612af8565b15610c3f57600554604051636a87def560e01b81526000916001600160a01b031690636a87def590610bc4908a908a90600401612c3c565b60206040518083038186803b158015610bdc57600080fd5b505afa158015610bf0573d6000803e3d6000fd5b505050506040513d601f19601f82011682018060405250810190610c149190612b14565b610c1e9042612cf1565b9050838111610c3957610c328185846108e0565b9250610c3d565b8192505b505b610c498483611399565b9695505050505050565b600654604051636c66769560e11b81526001600160a01b038381166004830152600092169063d8cced2a9060240160206040518083038186803b158015610c9957600080fd5b505afa158015610cad573d6000803e3d6000fd5b505050506040513d601f19601f82011682018060405250810190610cd19190612af8565b80610d54575060065460405163643fd21560e11b81526001600160a01b0384811660048301529091169063c87fa42a9060240160206040518083038186803b158015610d1c57600080fd5b505afa158015610d30573d6000803e3d6000fd5b505050506040513d601f19601f82011682018060405250810190610d549190612af8565b15610d5d575060015b919050565b60008080612710610d7587611a0a612cd2565b610d7f9190612cb2565b9050610d8a85611111565b15610d9757809150610fb0565b610da085610c53565b15610eb15760065460405163024ef37560e41b8152610eaa9183916001600160a01b03909116906324ef375090610ddd908a908d90600401612c3c565b60206040518083038186803b158015610df557600080fd5b505afa158015610e09573d6000803e3d6000fd5b505050506040513d601f19601f82011682018060405250810190610e2d9190612b14565b60065460405163b34c8afb60e01b81526001600160a01b038a811660048301529091169063b34c8afb9060240160206040518083038186803b158015610e7257600080fd5b505afa158015610e86573d6000803e3d6000fd5b505050506040513d601f19601f820116820180604052508101906102f19190612b14565b9150610fb0565b600754604051632f011bf560e11b81526001600160a01b03878116600483015290911690635e0237ea9060240160206040518083038186803b158015610ef657600080fd5b505afa158015610f0a573d6000803e3d6000fd5b505050506040513d601f19601f82011682018060405250810190610f2e9190612af8565b15610fb057610fad856001600160a01b03166382bfefc86040518163ffffffff1660e01b815260040160206040518083038186803b158015610f6f57600080fd5b505afa158015610f83573d6000803e3d6000fd5b505050506040513d601f19601f82011682018060405250810190610fa791906127ea565b82611a6b565b91505b610fba8483610fc6565b92505094509492505050565b60065460405163903443b960e01b81526001600160a01b038481166004830152600092839283929091169063903443b990602401604080518083038186803b15801561101157600080fd5b505afa158015611025573d6000803e3d6000fd5b505050506040513d601f19601f820116820180604052508101906110499190612b83565b91509150611058848383611353565b95945050505050565b60008061106e8486612cd2565b9050600061107c8488612cd2565b905060008661108c896002612cd2565b6110969190612c9a565b905060006110a48688612c9a565b90506000838511156110c1576110ba8486612cf1565b90506110ce565b6110cb8585612cf1565b90505b60006110da8385612cd2565b905080600054836110eb9190612cd2565b6110f59190612cb2565b6000546111029190612cf1565b9b9a5050505050505050505050565b6003546000906001600160a01b0383811661010090920416148061114257506004546001600160a01b038381169116145b15610d5d57506001610d5d565b60065460405163024ef37560e41b8152600091829182916111dc9188916001600160a01b0316906324ef37509061118c908a908a90600401612c3c565b60206040518083038186803b1580156111a457600080fd5b505afa1580156111b8573d6000803e3d6000fd5b505050506040513d601f19601f820116820180604052508101906103ef9190612b14565b600654604051630fefbc0960e01b81526001600160a01b0388811660048301529295506112929286921690630fefbc099060240160206040518083038186803b15801561122857600080fd5b505afa15801561123c573d6000803e3d6000fd5b505050506040513d601f19601f820116820180604052508101906112609190612b14565b60065460405163b34c8afb60e01b81526001600160a01b038a811660048301529091169063b34c8afb906024016107ba565b600654604051630fefbc0960e01b81526001600160a01b0388811660048301529294506113489286921690630fefbc099060240160206040518083038186803b1580156112de57600080fd5b505afa1580156112f2573d6000803e3d6000fd5b505050506040513d601f19601f820116820180604052508101906113169190612b14565b60065460405163e6ae1a9760e01b81526001600160a01b038a811660048301529091169063e6ae1a97906024016107ba565b905093509350939050565b600080826113618587612cd2565b61136b9190612cd2565b905060006113798587612c9a565b6113838688612c9a565b61138d9190612cd2565b9050610c498183612cb2565b60006127108311156113e25760405162461bcd60e51b815260206004820152601260248201527104d75737420626520636f72726563742042560741b604482015260640161096d565b61090c83612710846108e0565b600080826113618680612cd2565b600061090c838360646108e0565b60008061141f836002546102908888611bcd565b905061142a85611111565b156114405761143984826124a4565b91506114d0565b600754604051632f011bf560e11b81526001600160a01b03878116600483015290911690635e0237ea9060240160206040518083038186803b15801561148557600080fd5b505afa158015611499573d6000803e3d6000fd5b505050506040513d601f19601f820116820180604052508101906114bd9190612af8565b156114d0576114cd84828761254b565b91505b509392505050565b6005546040516382eb723360e01b815260009182916001600160a01b03909116906382eb72339061150f9087908790600401612c3c565b60206040518083038186803b15801561152757600080fd5b505afa15801561153b573d6000803e3d6000fd5b505050506040513d601f19601f8201168201806040525081019061155f9190612b14565b60065460405163e6ae1a9760e01b81526001600160a01b0386811660048301529293506000929091169063e6ae1a979060240160206040518083038186803b1580156115aa57600080fd5b505afa1580156115be573d6000803e3d6000fd5b505050506040513d601f19601f820116820180604052508101906115e29190612b14565b9050806115f183612710612cd2565b6110589190612cb2565b6000600360019054906101000a90046001600160a01b03166001600160a01b0316630781f4d26040518163ffffffff1660e01b815260040160206040518083038186803b15801561164b57600080fd5b505afa15801561165f573d6000803e3d6000fd5b505050506040513d601f19601f820116820180604052508101906116839190612af8565b80156117075750600554604051631dd35c3960e21b81526001600160a01b0385811660048301529091169063774d70e49060240160206040518083038186803b1580156116cf57600080fd5b505afa1580156116e3573d6000803e3d6000fd5b505050506040513d601f19601f820116820180604052508101906117079190612af8565b156108da5760065460405163b34c8afb60e01b81526001600160a01b038581166004830152600092169063b34c8afb9060240160206040518083038186803b15801561175257600080fd5b505afa158015611766573d6000803e3d6000fd5b505050506040513d601f19601f8201168201806040525081019061178a9190612b14565b60065460405163643fd21560e11b81526001600160a01b03878116600483015292935091169063c87fa42a9060240160206040518083038186803b1580156117d157600080fd5b505afa1580156117e5573d6000803e3d6000fd5b505050506040513d601f19601f820116820180604052508101906118099190612af8565b156118fc5760006118e882600660009054906101000a90046001600160a01b03166001600160a01b031663a9652dca6040518163ffffffff1660e01b815260040160206040518083038186803b15801561186257600080fd5b505afa158015611876573d6000803e3d6000fd5b505050506040513d601f19601f8201168201806040525081019061189a9190612b14565b600560009054906101000a90046001600160a01b03166001600160a01b031663de6ad44e6040518163ffffffff1660e01b815260040160206040518083038186803b1580156107d257600080fd5b90506118f48185611afd565b925050611a64565b600654604051636c66769560e11b81526001600160a01b0386811660048301529091169063d8cced2a9060240160206040518083038186803b15801561194157600080fd5b505afa158015611955573d6000803e3d6000fd5b505050506040513d601f19601f820116820180604052508101906119799190612af8565b15611a64576000611a5882600660009054906101000a90046001600160a01b03166001600160a01b031663dd5a2bd86040518163ffffffff1660e01b815260040160206040518083038186803b1580156119d257600080fd5b505afa1580156119e6573d6000803e3d6000fd5b505050506040513d601f19601f82011682018060405250810190611a0a9190612b14565b600560009054906101000a90046001600160a01b03166001600160a01b03166362cea3406040518163ffffffff1660e01b815260040160206040518083038186803b1580156107d257600080fd5b90506110588185611afd565b5092915050565b60065460405163903443b960e01b81526001600160a01b038481166004830152600092839283929091169063903443b990602401604080518083038186803b158015611ab657600080fd5b505afa158015611aca573d6000803e3d6000fd5b505050506040513d601f19601f82011682018060405250810190611aee9190612b83565b91509150611058848284611353565b600061090c600183856108e0565b60065460405163903443b960e01b81526001600160a01b038481166004830152600092839283929091169063903443b990602401604080518083038186803b158015611b5657600080fd5b505afa158015611b6a573d6000803e3d6000fd5b505050506040513d601f19601f82011682018060405250810190611b8e9190612b83565b91509150600082118015611ba25750600081115b15611bc55781611bb28286612cd2565b611bbc9190612cb2565b925050506108da565b505092915050565b600080611bda84846114d8565b6005546040516382eb723360e01b8152919250612710916001600160a01b03909116906382eb723390611c139088908890600401612c3c565b60206040518083038186803b158015611c2b57600080fd5b505afa158015611c3f573d6000803e3d6000fd5b505050506040513d601f19601f82011682018060405250810190611c639190612b14565b611c6d9083612cd2565b610af89190612cb2565b600081611c85575084611058565b6000611c9387878787611061565b90506000611ca18787612cd2565b90506000611caf8987612cd2565b90506000611cbd8988612cd2565b611cc8906002612cd2565b905060008183611cd8868a612cd2565b611ce29190612c9a565b611cec9190612cb2565b600054909150611cfc8683612cd2565b6111029190612cb2565b6003546001600160a01b03838116610100909204161415611ddc57600654604051636c66769560e11b81526001600160a01b0383811660048301529091169063d8cced2a906024015b60206040518083038186803b158015611d6757600080fd5b505afa158015611d7b573d6000803e3d6000fd5b505050506040513d601f19601f82011682018060405250810190611d9f9190612af8565b611dd75760405162461bcd60e51b815260206004820152600960248201526842616420436f6d626f60b81b604482015260640161096d565b612239565b6004546001600160a01b0383811691161415611e245760065460405163643fd21560e11b81526001600160a01b0383811660048301529091169063c87fa42a90602401611d4f565b600654604051632f011bf560e11b81526001600160a01b03848116600483015290911690635e0237ea90602401602060405180830381600087803b158015611e6b57600080fd5b505af1158015611e7f573d6000803e3d6000fd5b505050506040513d601f19601f82011682018060405250810190611ea39190612af8565b8015611fb65750600660009054906101000a90046001600160a01b03166001600160a01b031663d8cced2a836001600160a01b03166382bfefc86040518163ffffffff1660e01b815260040160206040518083038186803b158015611f0757600080fd5b505afa158015611f1b573d6000803e3d6000fd5b505050506040513d601f19601f82011682018060405250810190611f3f91906127ea565b6040516001600160e01b031960e084901b1681526001600160a01b03909116600482015260240160206040518083038186803b158015611f7e57600080fd5b505afa158015611f92573d6000803e3d6000fd5b505050506040513d601f19601f82011682018060405250810190611fb69190612af8565b15611fed57600654604051636c66769560e11b81526001600160a01b0383811660048301529091169063d8cced2a90602401611d4f565b600654604051632f011bf560e11b81526001600160a01b03848116600483015290911690635e0237ea90602401602060405180830381600087803b15801561203457600080fd5b505af1158015612048573d6000803e3d6000fd5b505050506040513d601f19601f8201168201806040525081019061206c9190612af8565b801561217f5750600660009054906101000a90046001600160a01b03166001600160a01b031663c87fa42a836001600160a01b03166382bfefc86040518163ffffffff1660e01b815260040160206040518083038186803b1580156120d057600080fd5b505afa1580156120e4573d6000803e3d6000fd5b505050506040513d601f19601f8201168201806040525081019061210891906127ea565b6040516001600160e01b031960e084901b1681526001600160a01b03909116600482015260240160206040518083038186803b15801561214757600080fd5b505afa15801561215b573d6000803e3d6000fd5b505050506040513d601f19601f8201168201806040525081019061217f9190612af8565b156122395760065460405163643fd21560e11b81526001600160a01b0383811660048301529091169063c87fa42a9060240160206040518083038186803b1580156121c957600080fd5b505afa1580156121dd573d6000803e3d6000fd5b505050506040513d601f19601f820116820180604052508101906122019190612af8565b6122395760405162461bcd60e51b815260206004820152600960248201526842616420436f6d626f60b81b604482015260640161096d565b5050565b60055460405163cbc17db360e01b81526001600160a01b03868116600483015284811660248301528381166044830152600092839283929091169063cbc17db39060640160206040518083038186803b15801561229957600080fd5b505afa1580156122ad573d6000803e3d6000fd5b505050506040513d601f19601f820116820180604052508101906122d19190612b14565b60055460405163fde3bbe960e01b81526001600160a01b038a81166004830152888116602483015287811660448301529293506000929091169063fde3bbe99060640160206040518083038186803b15801561232c57600080fd5b505afa158015612340573d6000803e3d6000fd5b505050506040513d601f19601f820116820180604052508101906123649190612b14565b60055460405163e672f6ad60e01b81529192506000916001600160a01b039091169063e672f6ad9061239c908a908a90600401612c3c565b60206040518083038186803b1580156123b457600080fd5b505afa1580156123c8573d6000803e3d6000fd5b505050506040513d601f19601f820116820180604052508101906123ec9190612b14565b60055460405163e0f52db360e01b81529192506000916001600160a01b039091169063e0f52db390612424908b908b90600401612c3c565b60206040518083038186803b15801561243c57600080fd5b505afa158015612450573d6000803e3d6000fd5b505050506040513d601f19601f820116820180604052508101906124749190612b14565b905060006124838484846108e0565b905060006124928b87876108e0565b9c919b50909950505050505050505050565b60065460405163903443b960e01b81526001600160a01b038481166004830152600092839283929091169063903443b990602401604080518083038186803b1580156124ef57600080fd5b505afa158015612503573d6000803e3d6000fd5b505050506040513d601f19601f820116820180604052508101906125279190612b83565b9150915060008211801561253b5750600081115b15611bc55780611bb28386612cd2565b60006109098261048786866124a4565b805160609060005b818110156126ad576000612578826001612c9a565b90505b8281101561269a578481815181106125a357634e487b7160e01b600052603260045260246000fd5b60200260200101518583815181106125cb57634e487b7160e01b600052603260045260246000fd5b602002602001015111156126885760008583815181106125fb57634e487b7160e01b600052603260045260246000fd5b6020026020010151905085828151811061262557634e487b7160e01b600052603260045260246000fd5b602002602001015186848151811061264d57634e487b7160e01b600052603260045260246000fd5b6020026020010181815250508086838151811061267a57634e487b7160e01b600052603260045260246000fd5b602002602001018181525050505b8061269281612d08565b91505061257b565b50806126a581612d08565b915050612563565b509192915050565b60006126c3856000546124a4565b905060006126de856001546126d89190612cf1565b84611399565b6001549091506000906126f18782612c9a565b6126fb9086612cd2565b6127059190612cb2565b9050841561275b5781831015801561271d5750808311155b6127565760405162461bcd60e51b815260206004820152600a6024820152694e6f7420696e7369646560b01b604482015260640161096d565b6127a4565b818311158061276a5750808310155b6127a45760405162461bcd60e51b815260206004820152600b60248201526a4e6f74206f75747369646560a81b604482015260640161096d565b50505050505050565b60006127b98385612c9a565b6127c4906002612cd2565b6108ff8584612cd2565b6000602082840312156127df578081fd5b813561090c81612d4f565b6000602082840312156127fb578081fd5b815161090c81612d4f565b60008060408385031215612818578081fd5b823561282381612d4f565b9150602083013561283381612d4f565b809150509250929050565b600080600080600060a08688031215612855578081fd5b853561286081612d4f565b9450602086013561287081612d4f565b9350604086013561288081612d4f565b9250606086013561289081612d4f565b915060808601356128a081612d4f565b809150509295509295909350565b6000806000606084860312156128c2578283fd5b83356128cd81612d4f565b925060208401356128dd81612d4f565b929592945050506040919091013590565b60008060008060808587031215612903578384fd5b843561290e81612d4f565b9350602085013561291e81612d4f565b93969395505050506040820135916060013590565b60008060408385031215612945578182fd5b823561295081612d4f565b946020939093013593505050565b600080600060608486031215612972578283fd5b833561297d81612d4f565b925060208401359150604084013561299481612d4f565b809150509250925092565b600080600080608085870312156129b4578384fd5b84356129bf81612d4f565b93506020850135925060408501356129d681612d4f565b915060608501356129e681612d4f565b939692955090935050565b60008060008060808587031215612a06578384fd5b8435612a1181612d4f565b9350602085013592506040850135612a2881612d67565b9396929550929360600135925050565b60006020808385031215612a4a578182fd5b823567ffffffffffffffff80821115612a61578384fd5b818501915085601f830112612a74578384fd5b813581811115612a8657612a86612d39565b8060051b604051601f19603f83011681018181108582111715612aab57612aab612d39565b604052828152858101935084860182860187018a1015612ac9578788fd5b8795505b83861015612aeb578035855260019590950194938601938601612acd565b5098975050505050505050565b600060208284031215612b09578081fd5b815161090c81612d67565b600060208284031215612b25578081fd5b5051919050565b600080600060608486031215612b40578081fd5b833592506020840135612b5281612d4f565b9150604084013561299481612d4f565b60008060408385031215612b74578182fd5b50508035926020909101359150565b60008060408385031215612b95578182fd5b505080516020909101519092909150565b600080600060608486031215612bba578081fd5b505081359360208301359350604090920135919050565b60008060008060808587031215612be6578182fd5b5050823594602084013594506040840135936060013592509050565b600080600080600060a08688031215612c19578283fd5b505083359560208501359550604085013594606081013594506080013592509050565b6001600160a01b0392831681529116602082015260400190565b6020808252825182820181905260009190848201906040850190845b81811015612c8e57835183529284019291840191600101612c72565b50909695505050505050565b60008219821115612cad57612cad612d23565b500190565b600082612ccd57634e487b7160e01b81526012600452602481fd5b500490565b6000816000190483118215151615612cec57612cec612d23565b500290565b600082821015612d0357612d03612d23565b500390565b6000600019821415612d1c57612d1c612d23565b5060010190565b634e487b7160e01b600052601160045260246000fd5b634e487b7160e01b600052604160045260246000fd5b6001600160a01b0381168114612d6457600080fd5b50565b8015158114612d6457600080fdfea26469706673582212201c7836510b2ae41109be29637d06c7ad5d239f0874746be9992d17a36f6f6a9a64736f6c63430008030033",
  "linkReferences": {},
  "deployedLinkReferences": {}
}