{
  "_format": "hh-sol-artifact-1",
  "contractName": "Utils",
  "sourceName": "contracts/Utils.sol",
  "abi": [
    {
      "inputs": [],
      "stateMutability": "nonpayable",
      "type": "constructor"
    },
    {
      "inputs": [],
      "name": "FACTORY",
      "outputs": [
        {
          "internalType": "address",
          "name": "",
          "type": "address"
        }
      ],
      "stateMutability": "view",
      "type": "function"
    },
    {
      "inputs": [],
      "name": "POOLS",
      "outputs": [
        {
          "internalType": "address",
          "name": "",
          "type": "address"
        }
      ],
      "stateMutability": "view",
      "type": "function"
    },
    {
      "inputs": [],
      "name": "ROUTER",
      "outputs": [
        {
          "internalType": "address",
          "name": "",
          "type": "address"
        }
      ],
      "stateMutability": "view",
      "type": "function"
    },
    {
      "inputs": [],
      "name": "USDV",
      "outputs": [
        {
          "internalType": "address",
          "name": "",
          "type": "address"
        }
      ],
      "stateMutability": "view",
      "type": "function"
    },
    {
      "inputs": [],
      "name": "VADER",
      "outputs": [
        {
          "internalType": "address",
          "name": "",
          "type": "address"
        }
      ],
      "stateMutability": "view",
      "type": "function"
    },
    {
      "inputs": [
        {
          "internalType": "address",
          "name": "collateralAsset",
          "type": "address"
        },
        {
          "internalType": "address",
          "name": "debtAsset",
          "type": "address"
        }
      ],
      "name": "assetChecks",
      "outputs": [],
      "stateMutability": "nonpayable",
      "type": "function"
    },
    {
      "inputs": [
        {
          "internalType": "uint256",
          "name": "u",
          "type": "uint256"
        },
        {
          "internalType": "uint256",
          "name": "U",
          "type": "uint256"
        },
        {
          "internalType": "uint256",
          "name": "A",
          "type": "uint256"
        }
      ],
      "name": "calcAsymmetricShare",
      "outputs": [
        {
          "internalType": "uint256",
          "name": "",
          "type": "uint256"
        }
      ],
      "stateMutability": "pure",
      "type": "function"
    },
    {
      "inputs": [
        {
          "internalType": "uint256",
          "name": "B0",
          "type": "uint256"
        },
        {
          "internalType": "uint256",
          "name": "T0",
          "type": "uint256"
        },
        {
          "internalType": "uint256",
          "name": "B1",
          "type": "uint256"
        },
        {
          "internalType": "uint256",
          "name": "T1",
          "type": "uint256"
        }
      ],
      "name": "calcCoverage",
      "outputs": [
        {
          "internalType": "uint256",
          "name": "coverage",
          "type": "uint256"
        }
      ],
      "stateMutability": "pure",
      "type": "function"
    },
    {
      "inputs": [
        {
          "internalType": "uint256",
          "name": "b",
          "type": "uint256"
        },
        {
          "internalType": "uint256",
          "name": "B",
          "type": "uint256"
        },
        {
          "internalType": "uint256",
          "name": "t",
          "type": "uint256"
        },
        {
          "internalType": "uint256",
          "name": "T",
          "type": "uint256"
        },
        {
          "internalType": "uint256",
          "name": "P",
          "type": "uint256"
        }
      ],
      "name": "calcLiquidityUnits",
      "outputs": [
        {
          "internalType": "uint256",
          "name": "",
          "type": "uint256"
        }
      ],
      "stateMutability": "view",
      "type": "function"
    },
    {
      "inputs": [
        {
          "internalType": "uint256",
          "name": "bp",
          "type": "uint256"
        },
        {
          "internalType": "uint256",
          "name": "total",
          "type": "uint256"
        }
      ],
      "name": "calcPart",
      "outputs": [
        {
          "internalType": "uint256",
          "name": "",
          "type": "uint256"
        }
      ],
      "stateMutability": "pure",
      "type": "function"
    },
    {
      "inputs": [
        {
          "internalType": "uint256",
          "name": "part",
          "type": "uint256"
        },
        {
          "internalType": "uint256",
          "name": "total",
          "type": "uint256"
        },
        {
          "internalType": "uint256",
          "name": "amount",
          "type": "uint256"
        }
      ],
      "name": "calcShare",
      "outputs": [
        {
          "internalType": "uint256",
          "name": "share",
          "type": "uint256"
        }
      ],
      "stateMutability": "pure",
      "type": "function"
    },
    {
      "inputs": [
        {
          "internalType": "uint256",
          "name": "x",
          "type": "uint256"
        },
        {
          "internalType": "uint256",
          "name": "X",
          "type": "uint256"
        },
        {
          "internalType": "uint256",
          "name": "Y",
          "type": "uint256"
        }
      ],
      "name": "calcSwapFee",
      "outputs": [
        {
          "internalType": "uint256",
          "name": "",
          "type": "uint256"
        }
      ],
      "stateMutability": "pure",
      "type": "function"
    },
    {
      "inputs": [
        {
          "internalType": "uint256",
          "name": "x",
          "type": "uint256"
        },
        {
          "internalType": "uint256",
          "name": "X",
          "type": "uint256"
        },
        {
          "internalType": "uint256",
          "name": "Y",
          "type": "uint256"
        }
      ],
      "name": "calcSwapOutput",
      "outputs": [
        {
          "internalType": "uint256",
          "name": "",
          "type": "uint256"
        }
      ],
      "stateMutability": "pure",
      "type": "function"
    },
    {
      "inputs": [
        {
          "internalType": "uint256",
          "name": "x",
          "type": "uint256"
        },
        {
          "internalType": "uint256",
          "name": "X",
          "type": "uint256"
        }
      ],
      "name": "calcSwapSlip",
      "outputs": [
        {
          "internalType": "uint256",
          "name": "",
          "type": "uint256"
        }
      ],
      "stateMutability": "pure",
      "type": "function"
    },
    {
      "inputs": [
        {
          "internalType": "address",
          "name": "token",
          "type": "address"
        },
        {
          "internalType": "uint256",
          "name": "amount",
          "type": "uint256"
        }
      ],
      "name": "calcSwapValueInBase",
      "outputs": [
        {
          "internalType": "uint256",
          "name": "",
          "type": "uint256"
        }
      ],
      "stateMutability": "view",
      "type": "function"
    },
    {
      "inputs": [
        {
          "internalType": "address",
          "name": "token",
          "type": "address"
        },
        {
          "internalType": "uint256",
          "name": "amount",
          "type": "uint256"
        }
      ],
      "name": "calcSwapValueInToken",
      "outputs": [
        {
          "internalType": "uint256",
          "name": "",
          "type": "uint256"
        }
      ],
      "stateMutability": "view",
      "type": "function"
    },
    {
      "inputs": [
        {
          "internalType": "uint256",
          "name": "b",
          "type": "uint256"
        },
        {
          "internalType": "uint256",
          "name": "B",
          "type": "uint256"
        },
        {
          "internalType": "uint256",
          "name": "P",
          "type": "uint256"
        }
      ],
      "name": "calcSynthUnits",
      "outputs": [
        {
          "internalType": "uint256",
          "name": "",
          "type": "uint256"
        }
      ],
      "stateMutability": "pure",
      "type": "function"
    },
    {
      "inputs": [
        {
          "internalType": "address",
          "name": "token",
          "type": "address"
        },
        {
          "internalType": "uint256",
          "name": "amount",
          "type": "uint256"
        }
      ],
      "name": "calcValueInBase",
      "outputs": [
        {
          "internalType": "uint256",
          "name": "value",
          "type": "uint256"
        }
      ],
      "stateMutability": "view",
      "type": "function"
    },
    {
      "inputs": [
        {
          "internalType": "address",
          "name": "token",
          "type": "address"
        },
        {
          "internalType": "uint256",
          "name": "amount",
          "type": "uint256"
        }
      ],
      "name": "calcValueInToken",
      "outputs": [
        {
          "internalType": "uint256",
          "name": "value",
          "type": "uint256"
        }
      ],
      "stateMutability": "view",
      "type": "function"
    },
    {
      "inputs": [
        {
          "internalType": "address",
          "name": "token1",
          "type": "address"
        },
        {
          "internalType": "uint256",
          "name": "amount",
          "type": "uint256"
        },
        {
          "internalType": "address",
          "name": "token2",
          "type": "address"
        }
      ],
      "name": "calcValueOfTokenInToken",
      "outputs": [
        {
          "internalType": "uint256",
          "name": "value",
          "type": "uint256"
        }
      ],
      "stateMutability": "view",
      "type": "function"
    },
    {
      "inputs": [
        {
          "internalType": "address",
          "name": "member",
          "type": "address"
        },
        {
          "internalType": "uint256",
          "name": "collateral",
          "type": "uint256"
        },
        {
          "internalType": "address",
          "name": "collateralAsset",
          "type": "address"
        },
        {
          "internalType": "address",
          "name": "debtAsset",
          "type": "address"
        }
      ],
      "name": "getCollateralValueInBase",
      "outputs": [
        {
          "internalType": "uint256",
          "name": "debt",
          "type": "uint256"
        },
        {
          "internalType": "uint256",
          "name": "baseValue",
          "type": "uint256"
        }
      ],
      "stateMutability": "view",
      "type": "function"
    },
    {
      "inputs": [
        {
          "internalType": "address",
          "name": "member",
          "type": "address"
        },
        {
          "internalType": "address",
          "name": "token",
          "type": "address"
        }
      ],
      "name": "getCoverage",
      "outputs": [
        {
          "internalType": "uint256",
          "name": "",
          "type": "uint256"
        }
      ],
      "stateMutability": "view",
      "type": "function"
    },
    {
      "inputs": [
        {
          "internalType": "address",
          "name": "collateralAsset",
          "type": "address"
        },
        {
          "internalType": "address",
          "name": "debtAsset",
          "type": "address"
        }
      ],
      "name": "getDebtLoading",
      "outputs": [
        {
          "internalType": "uint256",
          "name": "",
          "type": "uint256"
        }
      ],
      "stateMutability": "view",
      "type": "function"
    },
    {
      "inputs": [
        {
          "internalType": "address",
          "name": "member",
          "type": "address"
        },
        {
          "internalType": "uint256",
          "name": "debt",
          "type": "uint256"
        },
        {
          "internalType": "address",
          "name": "collateralAsset",
          "type": "address"
        },
        {
          "internalType": "address",
          "name": "debtAsset",
          "type": "address"
        }
      ],
      "name": "getDebtValueInCollateral",
      "outputs": [
        {
          "internalType": "uint256",
          "name": "",
          "type": "uint256"
        },
        {
          "internalType": "uint256",
          "name": "",
          "type": "uint256"
        }
      ],
      "stateMutability": "view",
      "type": "function"
    },
    {
      "inputs": [
        {
          "internalType": "uint256",
          "name": "totalSupply",
          "type": "uint256"
        },
        {
          "internalType": "uint256",
          "name": "maxSupply",
          "type": "uint256"
        }
      ],
      "name": "getFeeOnTransfer",
      "outputs": [
        {
          "internalType": "uint256",
          "name": "",
          "type": "uint256"
        }
      ],
      "stateMutability": "pure",
      "type": "function"
    },
    {
      "inputs": [
        {
          "internalType": "address",
          "name": "collateralAsset",
          "type": "address"
        },
        {
          "internalType": "address",
          "name": "debtAsset",
          "type": "address"
        },
        {
          "internalType": "uint256",
          "name": "timeElapsed",
          "type": "uint256"
        }
      ],
      "name": "getInterestOwed",
      "outputs": [
        {
          "internalType": "uint256",
          "name": "interestOwed",
          "type": "uint256"
        }
      ],
      "stateMutability": "view",
      "type": "function"
    },
    {
      "inputs": [
        {
          "internalType": "address",
          "name": "collateralAsset",
          "type": "address"
        },
        {
          "internalType": "address",
          "name": "debtAsset",
          "type": "address"
        }
      ],
      "name": "getInterestPayment",
      "outputs": [
        {
          "internalType": "uint256",
          "name": "",
          "type": "uint256"
        }
      ],
      "stateMutability": "view",
      "type": "function"
    },
    {
      "inputs": [
        {
          "internalType": "address",
          "name": "member",
          "type": "address"
        },
        {
          "internalType": "address",
          "name": "token",
          "type": "address"
        },
        {
          "internalType": "uint256",
          "name": "basisPoints",
          "type": "uint256"
        },
        {
          "internalType": "uint256",
          "name": "timeForFullProtection",
          "type": "uint256"
        }
      ],
      "name": "getProtection",
      "outputs": [
        {
          "internalType": "uint256",
          "name": "protection",
          "type": "uint256"
        }
      ],
      "stateMutability": "view",
      "type": "function"
    },
    {
      "inputs": [
        {
          "internalType": "uint256",
          "name": "amount",
          "type": "uint256"
        },
        {
          "internalType": "uint256",
          "name": "rewardReductionFactor",
          "type": "uint256"
        }
      ],
      "name": "getReducedShare",
      "outputs": [
        {
          "internalType": "uint256",
          "name": "",
          "type": "uint256"
        }
      ],
      "stateMutability": "pure",
      "type": "function"
    },
    {
      "inputs": [
        {
          "internalType": "address",
          "name": "token",
          "type": "address"
        },
        {
          "internalType": "uint256",
          "name": "rewardReductionFactor",
          "type": "uint256"
        }
      ],
      "name": "getRewardShare",
      "outputs": [
        {
          "internalType": "uint256",
          "name": "rewardShare",
          "type": "uint256"
        }
      ],
      "stateMutability": "view",
      "type": "function"
    },
    {
      "inputs": [
        {
          "internalType": "uint256",
          "name": "b",
          "type": "uint256"
        },
        {
          "internalType": "uint256",
          "name": "B",
          "type": "uint256"
        },
        {
          "internalType": "uint256",
          "name": "t",
          "type": "uint256"
        },
        {
          "internalType": "uint256",
          "name": "T",
          "type": "uint256"
        }
      ],
      "name": "getSlipAdustment",
      "outputs": [
        {
          "internalType": "uint256",
          "name": "",
          "type": "uint256"
        }
      ],
      "stateMutability": "view",
      "type": "function"
    },
    {
      "inputs": [
        {
          "internalType": "address",
          "name": "_vader",
          "type": "address"
        },
        {
          "internalType": "address",
          "name": "_usdv",
          "type": "address"
        },
        {
          "internalType": "address",
          "name": "_router",
          "type": "address"
        },
        {
          "internalType": "address",
          "name": "_pools",
          "type": "address"
        },
        {
          "internalType": "address",
          "name": "_factory",
          "type": "address"
        }
      ],
      "name": "init",
      "outputs": [],
      "stateMutability": "nonpayable",
      "type": "function"
    },
    {
      "inputs": [
        {
          "internalType": "address",
          "name": "token",
          "type": "address"
        }
      ],
      "name": "isBase",
      "outputs": [
        {
          "internalType": "bool",
          "name": "base",
          "type": "bool"
        }
      ],
      "stateMutability": "view",
      "type": "function"
    },
    {
      "inputs": [
        {
          "internalType": "address",
          "name": "token",
          "type": "address"
        }
      ],
      "name": "isPool",
      "outputs": [
        {
          "internalType": "bool",
          "name": "pool",
          "type": "bool"
        }
      ],
      "stateMutability": "view",
      "type": "function"
    },
    {
      "inputs": [
        {
          "internalType": "address",
          "name": "token",
          "type": "address"
        },
        {
          "internalType": "uint256",
          "name": "bound",
          "type": "uint256"
        },
        {
          "internalType": "bool",
          "name": "inside",
          "type": "bool"
        },
        {
          "internalType": "uint256",
          "name": "targetPrice",
          "type": "uint256"
        }
      ],
      "name": "requirePriceBounds",
      "outputs": [],
      "stateMutability": "view",
      "type": "function"
    },
    {
      "inputs": [
        {
          "internalType": "uint256[]",
          "name": "array",
          "type": "uint256[]"
        }
      ],
      "name": "sortArray",
      "outputs": [
        {
          "internalType": "uint256[]",
          "name": "",
          "type": "uint256[]"
        }
      ],
      "stateMutability": "pure",
      "type": "function"
    }
  ],
  "bytecode": "0x6080604052670de0b6b3a76400006000556127106001556301e1338060025534801561002a57600080fd5b50612b388061003a6000396000f3fe608060405234801561001057600080fd5b506004361061021c5760003560e01c80638b18b11511610125578063cf975e7b116100ad578063e2c3b0461161007c578063e2c3b046146104c5578063e379976e146104d8578063eb7d5ddf146104f8578063ebccb5b21461050b578063ec1753f11461051e5761021c565b8063cf975e7b14610479578063d549a1ec1461048c578063db39dc791461049f578063dcf3f1e0146104b25761021c565b8063b80e44b8116100f4578063b80e44b81461041a578063bd2bdaf21461042d578063c0c4a72414610440578063c2886b8a14610453578063c5c11ee9146104665761021c565b80638b18b115146103ce578063945821af146103e15780639e3f1e8e146103f4578063b4951e4a146104075761021c565b80635b0b602d116101a85780636da0f1fc116101775780636da0f1fc1461036f5780636e899aa314610382578063701baaf314610395578063714270ab146103a8578063896a708c146103bb5761021c565b80635b0b602d146102fe5780635b16ebb7146103115780635c22141f146103345780635f2c12e81461035c5761021c565b80632dd31000116101ef5780632dd310001461029d57806332fe7b26146102b0578063359ef75b146102c35780634a127651146102d8578063595a88a7146102eb5761021c565b8063016813151461022157806312a86ffb146102565780631ba326c4146102775780632db6e4881461028a575b600080fd5b6003546102399061010090046001600160a01b031681565b6040516001600160a01b0390911681526020015b60405180910390f35b6102696102643660046125c9565b610531565b60405190815260200161024d565b610269610285366004612933565b6108a7565b6102696102983660046128ef565b6108da565b600754610239906001600160a01b031681565b600554610239906001600160a01b031681565b6102d66102d1366004612601565b6108fc565b005b6102696102e6366004612933565b6109a8565b6102696102f936600461295e565b610a4c565b61026961030c3660046126b1565b610ac7565b61032461031f366004612591565b610c1a565b604051901515815260200161024d565b610347610342366004612762565b610d29565b6040805192835260208301919091520161024d565b61026961036a3660046126f6565b610f8d565b61026961037d36600461295e565b611028565b610324610390366004612591565b6110d8565b6102696103a3366004612933565b611116565b6102696103b63660046128ef565b61115c565b6102696103c9366004612933565b6111b2565b6102696103dc3660046128ef565b6111c0565b6102696103ef366004612671565b6111ce565b6102696104023660046125c9565b61129b565b6102696104153660046126f6565b6113be565b6102696104283660046126f6565b61182e565b61026961043b3660046128ef565b6118c0565b61026961044e3660046126f6565b6118ce565b6102696104613660046125c9565b611990565b61026961047436600461298f565b611a3a565b6102d66104873660046125c9565b611ac9565b61034761049a366004612762565b612000565b6102696104ad3660046126f6565b612267565b6102696104c0366004612721565b61230e565b600454610239906001600160a01b031681565b6104eb6104e63660046127fb565b61231e565b60405161024d91906129e3565b6102d66105063660046127b4565b612478565b600654610239906001600160a01b031681565b61026961052c366004612933565b612570565b6005546040516001623a3e2d60e11b0319815260009182916001600160a01b039091169063ff8b83a69061056b90879087906004016129c9565b60206040518083038186803b15801561058357600080fd5b505afa158015610597573d6000803e3d6000fd5b505050506040513d601f19601f820116820180604052508101906105bb91906128d7565b60055460405163cfa701c560e01b81529192506000916001600160a01b039091169063cfa701c5906105f390889088906004016129c9565b60206040518083038186803b15801561060b57600080fd5b505afa15801561061f573d6000803e3d6000fd5b505050506040513d601f19601f8201168201806040525081019061064391906128d7565b60065460405163024ef37560e41b81529192506000916001600160a01b03909116906324ef37509061067b9088908a906004016129c9565b60206040518083038186803b15801561069357600080fd5b505afa1580156106a7573d6000803e3d6000fd5b505050506040513d601f19601f820116820180604052508101906106cb91906128d7565b600654604051630fefbc0960e01b81526001600160a01b0388811660048301529293506000926107d1928592911690630fefbc099060240160206040518083038186803b15801561071b57600080fd5b505afa15801561072f573d6000803e3d6000fd5b505050506040513d601f19601f8201168201806040525081019061075391906128d7565b60065460405163b34c8afb60e01b81526001600160a01b038b811660048301529091169063b34c8afb906024015b60206040518083038186803b15801561079957600080fd5b505afa1580156107ad573d6000803e3d6000fd5b505050506040513d601f19601f8201168201806040525081019061028591906128d7565b600654604051630fefbc0960e01b81526001600160a01b03898116600483015292935060009261088b928692911690630fefbc099060240160206040518083038186803b15801561082157600080fd5b505afa158015610835573d6000803e3d6000fd5b505050506040513d601f19601f8201168201806040525081019061085991906128d7565b60065460405163e6ae1a9760e01b81526001600160a01b038c811660048301529091169063e6ae1a9790602401610781565b905061089985858484610a4c565b955050505050505b92915050565b6000828411156108b5578293505b82156108d357826108c68584612a5f565b6108d09190612a3f565b90505b9392505050565b60006108e68284612a27565b6108f284612710612a5f565b6108d39190612a3f565b60035460ff161561093d5760405162461bcd60e51b81526020600482015260066024820152651a5b9a5d195960d21b60448201526064015b60405180910390fd5b600380546001600160a01b03968716610100026001600160a81b0319909116176001179055600480549486166001600160a01b031995861617905560058054938616938516939093179092556006805491851691841691909117905560078054919093169116179055565b6000806109b58386612a5f565b905060006109c38580612a5f565b6109ce906002612a5f565b905060006109dc8787612a5f565b6109e7906002612a5f565b905060006109f58880612a5f565b905060008183610a058688612a5f565b610a0f9190612a7e565b610a199190612a27565b9050600088610a288180612a5f565b610a329190612a5f565b9050610a3e8183612a3f565b9a9950505050505050505050565b60008085118015610a5d5750600082115b15610abf57600082610a6f8587612a5f565b610a799190612a3f565b610a839087612a27565b9050600083610a928682612a5f565b610a9c9190612a3f565b610aa69086612a27565b9050818111610abc57610ab98183612a7e565b92505b50505b949350505050565b600080610ad48686610531565b600554604051631dd35c3960e21b81526001600160a01b03888116600483015292935091169063774d70e49060240160206040518083038186803b158015610b1b57600080fd5b505afa158015610b2f573d6000803e3d6000fd5b505050506040513d601f19601f82011682018060405250810190610b5391906128bb565b15610c0657600554604051636a87def560e01b81526000916001600160a01b031690636a87def590610b8b908a908a906004016129c9565b60206040518083038186803b158015610ba357600080fd5b505afa158015610bb7573d6000803e3d6000fd5b505050506040513d601f19601f82011682018060405250810190610bdb91906128d7565b610be59042612a7e565b9050838111610c0057610bf98185846108a7565b9250610c04565b8192505b505b610c10848361115c565b9695505050505050565b600654604051636c66769560e11b81526001600160a01b038381166004830152600092169063d8cced2a9060240160206040518083038186803b158015610c6057600080fd5b505afa158015610c74573d6000803e3d6000fd5b505050506040513d601f19601f82011682018060405250810190610c9891906128bb565b80610d1b575060065460405163643fd21560e11b81526001600160a01b0384811660048301529091169063c87fa42a9060240160206040518083038186803b158015610ce357600080fd5b505afa158015610cf7573d6000803e3d6000fd5b505050506040513d601f19601f82011682018060405250810190610d1b91906128bb565b15610d24575060015b919050565b60008080612710610d3c87611a0a612a5f565b610d469190612a3f565b9050610d51856110d8565b15610d5e57809150610f77565b610d6785610c1a565b15610e785760065460405163024ef37560e41b8152610e719183916001600160a01b03909116906324ef375090610da4908a908d906004016129c9565b60206040518083038186803b158015610dbc57600080fd5b505afa158015610dd0573d6000803e3d6000fd5b505050506040513d601f19601f82011682018060405250810190610df491906128d7565b60065460405163b34c8afb60e01b81526001600160a01b038a811660048301529091169063b34c8afb9060240160206040518083038186803b158015610e3957600080fd5b505afa158015610e4d573d6000803e3d6000fd5b505050506040513d601f19601f820116820180604052508101906102e691906128d7565b9150610f77565b600754604051632f011bf560e11b81526001600160a01b03878116600483015290911690635e0237ea9060240160206040518083038186803b158015610ebd57600080fd5b505afa158015610ed1573d6000803e3d6000fd5b505050506040513d601f19601f82011682018060405250810190610ef591906128bb565b15610f7757610f74856001600160a01b03166382bfefc86040518163ffffffff1660e01b815260040160206040518083038186803b158015610f3657600080fd5b505afa158015610f4a573d6000803e3d6000fd5b505050506040513d601f19601f82011682018060405250810190610f6e91906125ad565b8261182e565b91505b610f818483610f8d565b92505094509492505050565b60065460405163903443b960e01b81526001600160a01b038481166004830152600092839283929091169063903443b990602401604080518083038186803b158015610fd857600080fd5b505afa158015610fec573d6000803e3d6000fd5b505050506040513d601f19601f820116820180604052508101906110109190612910565b9150915061101f848383611116565b95945050505050565b6000806110358486612a5f565b905060006110438488612a5f565b9050600086611053896002612a5f565b61105d9190612a27565b9050600061106b8688612a27565b9050600083851115611088576110818486612a7e565b9050611095565b6110928585612a7e565b90505b60006110a18385612a5f565b905080600054836110b29190612a5f565b6110bc9190612a3f565b6000546110c99190612a7e565b9b9a5050505050505050505050565b6003546000906001600160a01b0383811661010090920416148061110957506004546001600160a01b038381169116145b15610d2457506001610d24565b600080826111248587612a5f565b61112e9190612a5f565b9050600061113c8587612a27565b6111468688612a27565b6111509190612a5f565b9050610c108183612a3f565b60006127108311156111a55760405162461bcd60e51b815260206004820152601260248201527104d75737420626520636f72726563742042560741b6044820152606401610934565b6108d383612710846108a7565b600080826111248680612a5f565b60006108d3838360646108a7565b6000806111e2836002546102858888611990565b90506111ed856110d8565b15611203576111fc8482612267565b9150611293565b600754604051632f011bf560e11b81526001600160a01b03878116600483015290911690635e0237ea9060240160206040518083038186803b15801561124857600080fd5b505afa15801561125c573d6000803e3d6000fd5b505050506040513d601f19601f8201168201806040525081019061128091906128bb565b156112935761129084828761230e565b91505b509392505050565b6005546040516382eb723360e01b815260009182916001600160a01b03909116906382eb7233906112d290879087906004016129c9565b60206040518083038186803b1580156112ea57600080fd5b505afa1580156112fe573d6000803e3d6000fd5b505050506040513d601f19601f8201168201806040525081019061132291906128d7565b60065460405163e6ae1a9760e01b81526001600160a01b0386811660048301529293506000929091169063e6ae1a979060240160206040518083038186803b15801561136d57600080fd5b505afa158015611381573d6000803e3d6000fd5b505050506040513d601f19601f820116820180604052508101906113a591906128d7565b9050806113b483612710612a5f565b61101f9190612a3f565b6000600360019054906101000a90046001600160a01b03166001600160a01b0316630781f4d26040518163ffffffff1660e01b815260040160206040518083038186803b15801561140e57600080fd5b505afa158015611422573d6000803e3d6000fd5b505050506040513d601f19601f8201168201806040525081019061144691906128bb565b80156114ca5750600554604051631dd35c3960e21b81526001600160a01b0385811660048301529091169063774d70e49060240160206040518083038186803b15801561149257600080fd5b505afa1580156114a6573d6000803e3d6000fd5b505050506040513d601f19601f820116820180604052508101906114ca91906128bb565b156108a15760065460405163b34c8afb60e01b81526001600160a01b038581166004830152600092169063b34c8afb9060240160206040518083038186803b15801561151557600080fd5b505afa158015611529573d6000803e3d6000fd5b505050506040513d601f19601f8201168201806040525081019061154d91906128d7565b60065460405163643fd21560e11b81526001600160a01b03878116600483015292935091169063c87fa42a9060240160206040518083038186803b15801561159457600080fd5b505afa1580156115a8573d6000803e3d6000fd5b505050506040513d601f19601f820116820180604052508101906115cc91906128bb565b156116bf5760006116ab82600660009054906101000a90046001600160a01b03166001600160a01b031663a9652dca6040518163ffffffff1660e01b815260040160206040518083038186803b15801561162557600080fd5b505afa158015611639573d6000803e3d6000fd5b505050506040513d601f19601f8201168201806040525081019061165d91906128d7565b600560009054906101000a90046001600160a01b03166001600160a01b031663de6ad44e6040518163ffffffff1660e01b815260040160206040518083038186803b15801561079957600080fd5b90506116b781856118c0565b925050611827565b600654604051636c66769560e11b81526001600160a01b0386811660048301529091169063d8cced2a9060240160206040518083038186803b15801561170457600080fd5b505afa158015611718573d6000803e3d6000fd5b505050506040513d601f19601f8201168201806040525081019061173c91906128bb565b1561182757600061181b82600660009054906101000a90046001600160a01b03166001600160a01b031663dd5a2bd86040518163ffffffff1660e01b815260040160206040518083038186803b15801561179557600080fd5b505afa1580156117a9573d6000803e3d6000fd5b505050506040513d601f19601f820116820180604052508101906117cd91906128d7565b600560009054906101000a90046001600160a01b03166001600160a01b03166362cea3406040518163ffffffff1660e01b815260040160206040518083038186803b15801561079957600080fd5b905061101f81856118c0565b5092915050565b60065460405163903443b960e01b81526001600160a01b038481166004830152600092839283929091169063903443b990602401604080518083038186803b15801561187957600080fd5b505afa15801561188d573d6000803e3d6000fd5b505050506040513d601f19601f820116820180604052508101906118b19190612910565b9150915061101f848284611116565b60006108d3600183856108a7565b60065460405163903443b960e01b81526001600160a01b038481166004830152600092839283929091169063903443b990602401604080518083038186803b15801561191957600080fd5b505afa15801561192d573d6000803e3d6000fd5b505050506040513d601f19601f820116820180604052508101906119519190612910565b915091506000821180156119655750600081115b1561198857816119758286612a5f565b61197f9190612a3f565b925050506108a1565b505092915050565b60008061199d848461129b565b6005546040516382eb723360e01b8152919250612710916001600160a01b03909116906382eb7233906119d690889088906004016129c9565b60206040518083038186803b1580156119ee57600080fd5b505afa158015611a02573d6000803e3d6000fd5b505050506040513d601f19601f82011682018060405250810190611a2691906128d7565b611a309083612a5f565b610abf9190612a3f565b600081611a4857508461101f565b6000611a5687878787611028565b90506000611a648787612a5f565b90506000611a728987612a5f565b90506000611a808988612a5f565b611a8b906002612a5f565b905060008183611a9b868a612a5f565b611aa59190612a27565b611aaf9190612a3f565b600054909150611abf8683612a5f565b6110c99190612a3f565b6003546001600160a01b03838116610100909204161415611b9f57600654604051636c66769560e11b81526001600160a01b0383811660048301529091169063d8cced2a906024015b60206040518083038186803b158015611b2a57600080fd5b505afa158015611b3e573d6000803e3d6000fd5b505050506040513d601f19601f82011682018060405250810190611b6291906128bb565b611b9a5760405162461bcd60e51b815260206004820152600960248201526842616420436f6d626f60b81b6044820152606401610934565b611ffc565b6004546001600160a01b0383811691161415611be75760065460405163643fd21560e11b81526001600160a01b0383811660048301529091169063c87fa42a90602401611b12565b600654604051632f011bf560e11b81526001600160a01b03848116600483015290911690635e0237ea90602401602060405180830381600087803b158015611c2e57600080fd5b505af1158015611c42573d6000803e3d6000fd5b505050506040513d601f19601f82011682018060405250810190611c6691906128bb565b8015611d795750600660009054906101000a90046001600160a01b03166001600160a01b031663d8cced2a836001600160a01b03166382bfefc86040518163ffffffff1660e01b815260040160206040518083038186803b158015611cca57600080fd5b505afa158015611cde573d6000803e3d6000fd5b505050506040513d601f19601f82011682018060405250810190611d0291906125ad565b6040516001600160e01b031960e084901b1681526001600160a01b03909116600482015260240160206040518083038186803b158015611d4157600080fd5b505afa158015611d55573d6000803e3d6000fd5b505050506040513d601f19601f82011682018060405250810190611d7991906128bb565b15611db057600654604051636c66769560e11b81526001600160a01b0383811660048301529091169063d8cced2a90602401611b12565b600654604051632f011bf560e11b81526001600160a01b03848116600483015290911690635e0237ea90602401602060405180830381600087803b158015611df757600080fd5b505af1158015611e0b573d6000803e3d6000fd5b505050506040513d601f19601f82011682018060405250810190611e2f91906128bb565b8015611f425750600660009054906101000a90046001600160a01b03166001600160a01b031663c87fa42a836001600160a01b03166382bfefc86040518163ffffffff1660e01b815260040160206040518083038186803b158015611e9357600080fd5b505afa158015611ea7573d6000803e3d6000fd5b505050506040513d601f19601f82011682018060405250810190611ecb91906125ad565b6040516001600160e01b031960e084901b1681526001600160a01b03909116600482015260240160206040518083038186803b158015611f0a57600080fd5b505afa158015611f1e573d6000803e3d6000fd5b505050506040513d601f19601f82011682018060405250810190611f4291906128bb565b15611ffc5760065460405163643fd21560e11b81526001600160a01b0383811660048301529091169063c87fa42a9060240160206040518083038186803b158015611f8c57600080fd5b505afa158015611fa0573d6000803e3d6000fd5b505050506040513d601f19601f82011682018060405250810190611fc491906128bb565b611ffc5760405162461bcd60e51b815260206004820152600960248201526842616420436f6d626f60b81b6044820152606401610934565b5050565b60055460405163cbc17db360e01b81526001600160a01b03868116600483015284811660248301528381166044830152600092839283929091169063cbc17db39060640160206040518083038186803b15801561205c57600080fd5b505afa158015612070573d6000803e3d6000fd5b505050506040513d601f19601f8201168201806040525081019061209491906128d7565b60055460405163fde3bbe960e01b81526001600160a01b038a81166004830152888116602483015287811660448301529293506000929091169063fde3bbe99060640160206040518083038186803b1580156120ef57600080fd5b505afa158015612103573d6000803e3d6000fd5b505050506040513d601f19601f8201168201806040525081019061212791906128d7565b60055460405163e672f6ad60e01b81529192506000916001600160a01b039091169063e672f6ad9061215f908a908a906004016129c9565b60206040518083038186803b15801561217757600080fd5b505afa15801561218b573d6000803e3d6000fd5b505050506040513d601f19601f820116820180604052508101906121af91906128d7565b60055460405163e0f52db360e01b81529192506000916001600160a01b039091169063e0f52db3906121e7908b908b906004016129c9565b60206040518083038186803b1580156121ff57600080fd5b505afa158015612213573d6000803e3d6000fd5b505050506040513d601f19601f8201168201806040525081019061223791906128d7565b905060006122468484846108a7565b905060006122558b87876108a7565b9c919b50909950505050505050505050565b60065460405163903443b960e01b81526001600160a01b038481166004830152600092839283929091169063903443b990602401604080518083038186803b1580156122b257600080fd5b505afa1580156122c6573d6000803e3d6000fd5b505050506040513d601f19601f820116820180604052508101906122ea9190612910565b915091506000821180156122fe5750600081115b1561198857806119758386612a5f565b60006108d08261044e8686612267565b805160609060005b8181101561247057600061233b826001612a27565b90505b8281101561245d5784818151811061236657634e487b7160e01b600052603260045260246000fd5b602002602001015185838151811061238e57634e487b7160e01b600052603260045260246000fd5b6020026020010151111561244b5760008583815181106123be57634e487b7160e01b600052603260045260246000fd5b602002602001015190508582815181106123e857634e487b7160e01b600052603260045260246000fd5b602002602001015186848151811061241057634e487b7160e01b600052603260045260246000fd5b6020026020010181815250508086838151811061243d57634e487b7160e01b600052603260045260246000fd5b602002602001018181525050505b8061245581612a95565b91505061233e565b508061246881612a95565b915050612326565b509192915050565b600061248685600054612267565b905060006124a18560015461249b9190612a7e565b8461115c565b6001549091506000906124b48782612a27565b6124be9086612a5f565b6124c89190612a3f565b9050841561251e578183101580156124e05750808311155b6125195760405162461bcd60e51b815260206004820152600a6024820152694e6f7420696e7369646560b01b6044820152606401610934565b612567565b818311158061252d5750808310155b6125675760405162461bcd60e51b815260206004820152600b60248201526a4e6f74206f75747369646560a81b6044820152606401610934565b50505050505050565b600061257c8385612a27565b612587906002612a5f565b6108c68584612a5f565b6000602082840312156125a2578081fd5b81356108d381612adc565b6000602082840312156125be578081fd5b81516108d381612adc565b600080604083850312156125db578081fd5b82356125e681612adc565b915060208301356125f681612adc565b809150509250929050565b600080600080600060a08688031215612618578081fd5b853561262381612adc565b9450602086013561263381612adc565b9350604086013561264381612adc565b9250606086013561265381612adc565b9150608086013561266381612adc565b809150509295509295909350565b600080600060608486031215612685578283fd5b833561269081612adc565b925060208401356126a081612adc565b929592945050506040919091013590565b600080600080608085870312156126c6578384fd5b84356126d181612adc565b935060208501356126e181612adc565b93969395505050506040820135916060013590565b60008060408385031215612708578182fd5b823561271381612adc565b946020939093013593505050565b600080600060608486031215612735578283fd5b833561274081612adc565b925060208401359150604084013561275781612adc565b809150509250925092565b60008060008060808587031215612777578384fd5b843561278281612adc565b935060208501359250604085013561279981612adc565b915060608501356127a981612adc565b939692955090935050565b600080600080608085870312156127c9578384fd5b84356127d481612adc565b93506020850135925060408501356127eb81612af4565b9396929550929360600135925050565b6000602080838503121561280d578182fd5b823567ffffffffffffffff80821115612824578384fd5b818501915085601f830112612837578384fd5b81358181111561284957612849612ac6565b8060051b604051601f19603f8301168101818110858211171561286e5761286e612ac6565b604052828152858101935084860182860187018a101561288c578788fd5b8795505b838610156128ae578035855260019590950194938601938601612890565b5098975050505050505050565b6000602082840312156128cc578081fd5b81516108d381612af4565b6000602082840312156128e8578081fd5b5051919050565b60008060408385031215612901578182fd5b50508035926020909101359150565b60008060408385031215612922578182fd5b505080516020909101519092909150565b600080600060608486031215612947578081fd5b505081359360208301359350604090920135919050565b60008060008060808587031215612973578182fd5b5050823594602084013594506040840135936060013592509050565b600080600080600060a086880312156129a6578283fd5b505083359560208501359550604085013594606081013594506080013592509050565b6001600160a01b0392831681529116602082015260400190565b6020808252825182820181905260009190848201906040850190845b81811015612a1b578351835292840192918401916001016129ff565b50909695505050505050565b60008219821115612a3a57612a3a612ab0565b500190565b600082612a5a57634e487b7160e01b81526012600452602481fd5b500490565b6000816000190483118215151615612a7957612a79612ab0565b500290565b600082821015612a9057612a90612ab0565b500390565b6000600019821415612aa957612aa9612ab0565b5060010190565b634e487b7160e01b600052601160045260246000fd5b634e487b7160e01b600052604160045260246000fd5b6001600160a01b0381168114612af157600080fd5b50565b8015158114612af157600080fdfea264697066735822122088bbed29b02f33ae78a8a25699a0db5d2a9c69d4bc61488b7cda509121dd920564736f6c63430008030033",
  "linkReferences": {},
  "deployedLinkReferences": {}
}