{
  "_format": "hh-sol-artifact-1",
  "contractName": "Utils",
  "sourceName": "contracts/Utils.sol",
  "abi": [
    {
      "inputs": [],
      "stateMutability": "nonpayable",
      "type": "constructor"
    },
    {
      "inputs": [],
      "name": "POOLS",
      "outputs": [
        {
          "internalType": "address",
          "name": "",
          "type": "address"
        }
      ],
      "stateMutability": "view",
      "type": "function"
    },
    {
      "inputs": [],
      "name": "ROUTER",
      "outputs": [
        {
          "internalType": "address",
          "name": "",
          "type": "address"
        }
      ],
      "stateMutability": "view",
      "type": "function"
    },
    {
      "inputs": [],
      "name": "USDV",
      "outputs": [
        {
          "internalType": "address",
          "name": "",
          "type": "address"
        }
      ],
      "stateMutability": "view",
      "type": "function"
    },
    {
      "inputs": [],
      "name": "VADER",
      "outputs": [
        {
          "internalType": "address",
          "name": "",
          "type": "address"
        }
      ],
      "stateMutability": "view",
      "type": "function"
    },
    {
      "inputs": [
        {
          "internalType": "address",
          "name": "collateralAsset",
          "type": "address"
        },
        {
          "internalType": "address",
          "name": "debtAsset",
          "type": "address"
        }
      ],
      "name": "assetChecks",
      "outputs": [],
      "stateMutability": "nonpayable",
      "type": "function"
    },
    {
      "inputs": [
        {
          "internalType": "uint256",
          "name": "u",
          "type": "uint256"
        },
        {
          "internalType": "uint256",
          "name": "U",
          "type": "uint256"
        },
        {
          "internalType": "uint256",
          "name": "A",
          "type": "uint256"
        }
      ],
      "name": "calcAsymmetricShare",
      "outputs": [
        {
          "internalType": "uint256",
          "name": "",
          "type": "uint256"
        }
      ],
      "stateMutability": "pure",
      "type": "function"
    },
    {
      "inputs": [
        {
          "internalType": "uint256",
          "name": "B0",
          "type": "uint256"
        },
        {
          "internalType": "uint256",
          "name": "T0",
          "type": "uint256"
        },
        {
          "internalType": "uint256",
          "name": "B1",
          "type": "uint256"
        },
        {
          "internalType": "uint256",
          "name": "T1",
          "type": "uint256"
        }
      ],
      "name": "calcCoverage",
      "outputs": [
        {
          "internalType": "uint256",
          "name": "coverage",
          "type": "uint256"
        }
      ],
      "stateMutability": "pure",
      "type": "function"
    },
    {
      "inputs": [
        {
          "internalType": "uint256",
          "name": "b",
          "type": "uint256"
        },
        {
          "internalType": "uint256",
          "name": "B",
          "type": "uint256"
        },
        {
          "internalType": "uint256",
          "name": "t",
          "type": "uint256"
        },
        {
          "internalType": "uint256",
          "name": "T",
          "type": "uint256"
        },
        {
          "internalType": "uint256",
          "name": "P",
          "type": "uint256"
        }
      ],
      "name": "calcLiquidityUnits",
      "outputs": [
        {
          "internalType": "uint256",
          "name": "",
          "type": "uint256"
        }
      ],
      "stateMutability": "view",
      "type": "function"
    },
    {
      "inputs": [
        {
          "internalType": "uint256",
          "name": "bp",
          "type": "uint256"
        },
        {
          "internalType": "uint256",
          "name": "total",
          "type": "uint256"
        }
      ],
      "name": "calcPart",
      "outputs": [
        {
          "internalType": "uint256",
          "name": "",
          "type": "uint256"
        }
      ],
      "stateMutability": "pure",
      "type": "function"
    },
    {
      "inputs": [
        {
          "internalType": "uint256",
          "name": "part",
          "type": "uint256"
        },
        {
          "internalType": "uint256",
          "name": "total",
          "type": "uint256"
        },
        {
          "internalType": "uint256",
          "name": "amount",
          "type": "uint256"
        }
      ],
      "name": "calcShare",
      "outputs": [
        {
          "internalType": "uint256",
          "name": "share",
          "type": "uint256"
        }
      ],
      "stateMutability": "pure",
      "type": "function"
    },
    {
      "inputs": [
        {
          "internalType": "uint256",
          "name": "x",
          "type": "uint256"
        },
        {
          "internalType": "uint256",
          "name": "X",
          "type": "uint256"
        },
        {
          "internalType": "uint256",
          "name": "Y",
          "type": "uint256"
        }
      ],
      "name": "calcSwapFee",
      "outputs": [
        {
          "internalType": "uint256",
          "name": "",
          "type": "uint256"
        }
      ],
      "stateMutability": "pure",
      "type": "function"
    },
    {
      "inputs": [
        {
          "internalType": "uint256",
          "name": "x",
          "type": "uint256"
        },
        {
          "internalType": "uint256",
          "name": "X",
          "type": "uint256"
        },
        {
          "internalType": "uint256",
          "name": "Y",
          "type": "uint256"
        }
      ],
      "name": "calcSwapOutput",
      "outputs": [
        {
          "internalType": "uint256",
          "name": "",
          "type": "uint256"
        }
      ],
      "stateMutability": "pure",
      "type": "function"
    },
    {
      "inputs": [
        {
          "internalType": "uint256",
          "name": "x",
          "type": "uint256"
        },
        {
          "internalType": "uint256",
          "name": "X",
          "type": "uint256"
        }
      ],
      "name": "calcSwapSlip",
      "outputs": [
        {
          "internalType": "uint256",
          "name": "",
          "type": "uint256"
        }
      ],
      "stateMutability": "pure",
      "type": "function"
    },
    {
      "inputs": [
        {
          "internalType": "address",
          "name": "token",
          "type": "address"
        },
        {
          "internalType": "uint256",
          "name": "amount",
          "type": "uint256"
        }
      ],
      "name": "calcSwapValueInBase",
      "outputs": [
        {
          "internalType": "uint256",
          "name": "",
          "type": "uint256"
        }
      ],
      "stateMutability": "view",
      "type": "function"
    },
    {
      "inputs": [
        {
          "internalType": "address",
          "name": "token",
          "type": "address"
        },
        {
          "internalType": "uint256",
          "name": "amount",
          "type": "uint256"
        }
      ],
      "name": "calcSwapValueInToken",
      "outputs": [
        {
          "internalType": "uint256",
          "name": "",
          "type": "uint256"
        }
      ],
      "stateMutability": "view",
      "type": "function"
    },
    {
      "inputs": [
        {
          "internalType": "uint256",
          "name": "b",
          "type": "uint256"
        },
        {
          "internalType": "uint256",
          "name": "B",
          "type": "uint256"
        },
        {
          "internalType": "uint256",
          "name": "P",
          "type": "uint256"
        }
      ],
      "name": "calcSynthUnits",
      "outputs": [
        {
          "internalType": "uint256",
          "name": "",
          "type": "uint256"
        }
      ],
      "stateMutability": "pure",
      "type": "function"
    },
    {
      "inputs": [
        {
          "internalType": "address",
          "name": "token",
          "type": "address"
        },
        {
          "internalType": "uint256",
          "name": "amount",
          "type": "uint256"
        }
      ],
      "name": "calcValueInBase",
      "outputs": [
        {
          "internalType": "uint256",
          "name": "",
          "type": "uint256"
        }
      ],
      "stateMutability": "view",
      "type": "function"
    },
    {
      "inputs": [
        {
          "internalType": "address",
          "name": "token",
          "type": "address"
        },
        {
          "internalType": "uint256",
          "name": "amount",
          "type": "uint256"
        }
      ],
      "name": "calcValueInToken",
      "outputs": [
        {
          "internalType": "uint256",
          "name": "",
          "type": "uint256"
        }
      ],
      "stateMutability": "view",
      "type": "function"
    },
    {
      "inputs": [
        {
          "internalType": "address",
          "name": "token1",
          "type": "address"
        },
        {
          "internalType": "uint256",
          "name": "amount",
          "type": "uint256"
        },
        {
          "internalType": "address",
          "name": "token2",
          "type": "address"
        }
      ],
      "name": "calcValueOfTokenInToken",
      "outputs": [
        {
          "internalType": "uint256",
          "name": "",
          "type": "uint256"
        }
      ],
      "stateMutability": "view",
      "type": "function"
    },
    {
      "inputs": [
        {
          "internalType": "address",
          "name": "member",
          "type": "address"
        },
        {
          "internalType": "uint256",
          "name": "collateral",
          "type": "uint256"
        },
        {
          "internalType": "address",
          "name": "collateralAsset",
          "type": "address"
        },
        {
          "internalType": "address",
          "name": "debtAsset",
          "type": "address"
        }
      ],
      "name": "getCollateralValueInBase",
      "outputs": [
        {
          "internalType": "uint256",
          "name": "debt",
          "type": "uint256"
        },
        {
          "internalType": "uint256",
          "name": "baseValue",
          "type": "uint256"
        }
      ],
      "stateMutability": "nonpayable",
      "type": "function"
    },
    {
      "inputs": [
        {
          "internalType": "address",
          "name": "member",
          "type": "address"
        },
        {
          "internalType": "address",
          "name": "token",
          "type": "address"
        }
      ],
      "name": "getCoverage",
      "outputs": [
        {
          "internalType": "uint256",
          "name": "",
          "type": "uint256"
        }
      ],
      "stateMutability": "view",
      "type": "function"
    },
    {
      "inputs": [
        {
          "internalType": "address",
          "name": "collateralAsset",
          "type": "address"
        },
        {
          "internalType": "address",
          "name": "debtAsset",
          "type": "address"
        }
      ],
      "name": "getDebtLoading",
      "outputs": [
        {
          "internalType": "uint256",
          "name": "",
          "type": "uint256"
        }
      ],
      "stateMutability": "view",
      "type": "function"
    },
    {
      "inputs": [
        {
          "internalType": "address",
          "name": "member",
          "type": "address"
        },
        {
          "internalType": "uint256",
          "name": "debt",
          "type": "uint256"
        },
        {
          "internalType": "address",
          "name": "collateralAsset",
          "type": "address"
        },
        {
          "internalType": "address",
          "name": "debtAsset",
          "type": "address"
        }
      ],
      "name": "getDebtValueInCollateral",
      "outputs": [
        {
          "internalType": "uint256",
          "name": "",
          "type": "uint256"
        }
      ],
      "stateMutability": "view",
      "type": "function"
    },
    {
      "inputs": [
        {
          "internalType": "uint256",
          "name": "totalSupply",
          "type": "uint256"
        },
        {
          "internalType": "uint256",
          "name": "maxSupply",
          "type": "uint256"
        }
      ],
      "name": "getFeeOnTransfer",
      "outputs": [
        {
          "internalType": "uint256",
          "name": "",
          "type": "uint256"
        }
      ],
      "stateMutability": "pure",
      "type": "function"
    },
    {
      "inputs": [
        {
          "internalType": "address",
          "name": "collateralAsset",
          "type": "address"
        },
        {
          "internalType": "address",
          "name": "debtAsset",
          "type": "address"
        }
      ],
      "name": "getInterestOwed",
      "outputs": [
        {
          "internalType": "uint256",
          "name": "interestOwed",
          "type": "uint256"
        }
      ],
      "stateMutability": "nonpayable",
      "type": "function"
    },
    {
      "inputs": [
        {
          "internalType": "address",
          "name": "collateralAsset",
          "type": "address"
        },
        {
          "internalType": "address",
          "name": "debtAsset",
          "type": "address"
        }
      ],
      "name": "getInterestPayment",
      "outputs": [
        {
          "internalType": "uint256",
          "name": "",
          "type": "uint256"
        }
      ],
      "stateMutability": "view",
      "type": "function"
    },
    {
      "inputs": [
        {
          "internalType": "address",
          "name": "member",
          "type": "address"
        },
        {
          "internalType": "address",
          "name": "token",
          "type": "address"
        },
        {
          "internalType": "uint256",
          "name": "basisPoints",
          "type": "uint256"
        },
        {
          "internalType": "uint256",
          "name": "timeForFullProtection",
          "type": "uint256"
        }
      ],
      "name": "getProtection",
      "outputs": [
        {
          "internalType": "uint256",
          "name": "protection",
          "type": "uint256"
        }
      ],
      "stateMutability": "view",
      "type": "function"
    },
    {
      "inputs": [
        {
          "internalType": "uint256",
          "name": "amount",
          "type": "uint256"
        },
        {
          "internalType": "uint256",
          "name": "rewardReductionFactor",
          "type": "uint256"
        }
      ],
      "name": "getReducedShare",
      "outputs": [
        {
          "internalType": "uint256",
          "name": "",
          "type": "uint256"
        }
      ],
      "stateMutability": "pure",
      "type": "function"
    },
    {
      "inputs": [
        {
          "internalType": "address",
          "name": "token",
          "type": "address"
        },
        {
          "internalType": "uint256",
          "name": "rewardReductionFactor",
          "type": "uint256"
        }
      ],
      "name": "getRewardShare",
      "outputs": [
        {
          "internalType": "uint256",
          "name": "rewardShare",
          "type": "uint256"
        }
      ],
      "stateMutability": "view",
      "type": "function"
    },
    {
      "inputs": [
        {
          "internalType": "uint256",
          "name": "b",
          "type": "uint256"
        },
        {
          "internalType": "uint256",
          "name": "B",
          "type": "uint256"
        },
        {
          "internalType": "uint256",
          "name": "t",
          "type": "uint256"
        },
        {
          "internalType": "uint256",
          "name": "T",
          "type": "uint256"
        }
      ],
      "name": "getSlipAdustment",
      "outputs": [
        {
          "internalType": "uint256",
          "name": "",
          "type": "uint256"
        }
      ],
      "stateMutability": "view",
      "type": "function"
    },
    {
      "inputs": [
        {
          "internalType": "address",
          "name": "_vader",
          "type": "address"
        },
        {
          "internalType": "address",
          "name": "_usdv",
          "type": "address"
        },
        {
          "internalType": "address",
          "name": "_router",
          "type": "address"
        },
        {
          "internalType": "address",
          "name": "_pools",
          "type": "address"
        }
      ],
      "name": "init",
      "outputs": [],
      "stateMutability": "nonpayable",
      "type": "function"
    },
    {
      "inputs": [
        {
          "internalType": "address",
          "name": "token",
          "type": "address"
        }
      ],
      "name": "isBase",
      "outputs": [
        {
          "internalType": "bool",
          "name": "base",
          "type": "bool"
        }
      ],
      "stateMutability": "view",
      "type": "function"
    },
    {
      "inputs": [
        {
          "internalType": "address",
          "name": "token",
          "type": "address"
        }
      ],
      "name": "isPool",
      "outputs": [
        {
          "internalType": "bool",
          "name": "pool",
          "type": "bool"
        }
      ],
      "stateMutability": "view",
      "type": "function"
    },
    {
      "inputs": [
        {
          "internalType": "address",
          "name": "token",
          "type": "address"
        },
        {
          "internalType": "uint256",
          "name": "bound",
          "type": "uint256"
        },
        {
          "internalType": "bool",
          "name": "inside",
          "type": "bool"
        },
        {
          "internalType": "uint256",
          "name": "targetPrice",
          "type": "uint256"
        }
      ],
      "name": "requirePriceBounds",
      "outputs": [],
      "stateMutability": "view",
      "type": "function"
    },
    {
      "inputs": [
        {
          "internalType": "uint256[]",
          "name": "array",
          "type": "uint256[]"
        }
      ],
      "name": "sortArray",
      "outputs": [
        {
          "internalType": "uint256[]",
          "name": "",
          "type": "uint256[]"
        }
      ],
      "stateMutability": "pure",
      "type": "function"
    }
  ],
  "bytecode": "0x6080604052670de0b6b3a764000060005561271060015534801561002257600080fd5b50612b76806100326000396000f3fe608060405234801561001057600080fd5b50600436106102115760003560e01c8063896a708c11610125578063cf975e7b116100ad578063e2c3b0461161007c578063e2c3b046146104a7578063e379976e146104ba578063eb7d5ddf146104da578063ebccb5b2146104ed578063ec1753f11461050057610211565b8063cf975e7b1461045b578063d549a1ec1461046e578063db39dc7914610481578063dcf3f1e01461049457610211565b8063b80e44b8116100f4578063b80e44b8146103fc578063bd2bdaf21461040f578063c0c4a72414610422578063c2886b8a14610435578063c5c11ee91461044857610211565b8063896a708c146103b05780638b18b115146103c35780639e3f1e8e146103d6578063b4951e4a146103e957610211565b80635b0b602d116101a85780636da0f1fc116101775780636da0f1fc146103515780636e899aa314610364578063701baaf314610377578063714270ab1461038a57806380f78c501461039d57610211565b80635b0b602d146102e05780635b16ebb7146102f35780635c22141f146103165780635f2c12e81461033e57610211565b80632db6e488116101e45780632db6e4881461029457806332fe7b26146102a75780634a127651146102ba578063595a88a7146102cd57610211565b8063016813151461021657806306552ff31461024b57806312a86ffb146102605780631ba326c414610281575b600080fd5b60025461022e9061010090046001600160a01b031681565b6040516001600160a01b0390911681526020015b60405180910390f35b61025e610259366004612679565b610513565b005b61027361026e366004612641565b6105af565b604051908152602001610242565b61027361028f36600461293b565b610931565b6102736102a23660046128f7565b610958565b60045461022e906001600160a01b031681565b6102736102c836600461293b565b61097a565b6102736102db366004612966565b610a1e565b6102736102ee3660046126d4565b610a99565b610306610301366004612609565b610bf6565b6040519015158152602001610242565b610329610324366004612785565b610d05565b60408051928352602083019190915201610242565b61027361034c366004612719565b610f6f565b61027361035f366004612966565b61100a565b610306610372366004612609565b6110ba565b61027361038536600461293b565b6110f8565b6102736103983660046128f7565b61113e565b6102736103ab366004612641565b61119e565b6102736103be36600461293b565b61129c565b6102736103d13660046128f7565b6112aa565b6102736103e4366004612641565b6112b8565b6102736103f7366004612719565b6113df565b61027361040a366004612719565b611832565b61027361041d3660046128f7565b6118c4565b610273610430366004612719565b6118d2565b610273610443366004612641565b611965565b610273610456366004612997565b611a14565b61025e610469366004612641565b611aa3565b61027361047c366004612785565b611fde565b61027361048f366004612719565b612113565b6102736104a2366004612744565b6121a6565b60035461022e906001600160a01b031681565b6104cd6104c8366004612803565b6122ee565b60405161024291906129d1565b61025e6104e83660046127bc565b612448565b60055461022e906001600160a01b031681565b61027361050e36600461293b565b612540565b60025460ff16156105545760405162461bcd60e51b81526020600482015260066024820152651a5b9a5d195960d21b60448201526064015b60405180910390fd5b600280546001600160a01b03958616610100026001600160a81b0319909116176001179055600380549385166001600160a01b0319948516179055600480549285169284169290921790915560058054919093169116179055565b600480546040516001623a3e2d60e11b031981526001600160a01b038581169382019390935283831660248201526000928392169063ff8b83a69060440160206040518083038186803b15801561060557600080fd5b505afa158015610619573d6000803e3d6000fd5b505050506040513d601f19601f8201168201806040525081019061063d91906128df565b6004805460405163cfa701c560e01b81526001600160a01b0388811693820193909352868316602482015292935060009291169063cfa701c59060440160206040518083038186803b15801561069257600080fd5b505afa1580156106a6573d6000803e3d6000fd5b505050506040513d601f19601f820116820180604052508101906106ca91906128df565b60055460405163024ef37560e41b81526001600160a01b0387811660048301528881166024830152929350600092909116906324ef37509060440160206040518083038186803b15801561071d57600080fd5b505afa158015610731573d6000803e3d6000fd5b505050506040513d601f19601f8201168201806040525081019061075591906128df565b600554604051630fefbc0960e01b81526001600160a01b03888116600483015292935060009261085b928592911690630fefbc099060240160206040518083038186803b1580156107a557600080fd5b505afa1580156107b9573d6000803e3d6000fd5b505050506040513d601f19601f820116820180604052508101906107dd91906128df565b60055460405163b34c8afb60e01b81526001600160a01b038b811660048301529091169063b34c8afb906024015b60206040518083038186803b15801561082357600080fd5b505afa158015610837573d6000803e3d6000fd5b505050506040513d601f19601f8201168201806040525081019061028f91906128df565b600554604051630fefbc0960e01b81526001600160a01b038981166004830152929350600092610915928692911690630fefbc099060240160206040518083038186803b1580156108ab57600080fd5b505afa1580156108bf573d6000803e3d6000fd5b505050506040513d601f19601f820116820180604052508101906108e391906128df565b60055460405163e6ae1a9760e01b81526001600160a01b038c811660048301529091169063e6ae1a979060240161080b565b905061092385858484610a1e565b955050505050505b92915050565b6000821561095157826109448584612aa0565b61094e9190612a80565b90505b9392505050565b60006109648284612a68565b61097084612710612aa0565b6109519190612a80565b6000806109878386612aa0565b905060006109958580612aa0565b6109a0906002612aa0565b905060006109ae8787612aa0565b6109b9906002612aa0565b905060006109c78880612aa0565b9050600081836109d78688612aa0565b6109e19190612abf565b6109eb9190612a68565b90506000886109fa8180612aa0565b610a049190612aa0565b9050610a108183612a80565b9a9950505050505050505050565b60008085118015610a2f5750600082115b15610a9157600082610a418587612aa0565b610a4b9190612a80565b610a559087612a68565b9050600083610a648682612aa0565b610a6e9190612a80565b610a789086612a68565b9050818111610a8e57610a8b8183612abf565b92505b50505b949350505050565b600080610aa686866105af565b60048054604051631dd35c3960e21b81526001600160a01b0389811693820193909352929350169063774d70e49060240160206040518083038186803b158015610aef57600080fd5b505afa158015610b03573d6000803e3d6000fd5b505050506040513d601f19601f82011682018060405250810190610b2791906128c3565b15610be25760048054604051636a87def560e01b81526001600160a01b0389811693820193909352878316602482015260009290911690636a87def59060440160206040518083038186803b158015610b7f57600080fd5b505afa158015610b93573d6000803e3d6000fd5b505050506040513d601f19601f82011682018060405250810190610bb791906128df565b610bc19042612abf565b9050838111610bdc57610bd5818584610931565b9250610be0565b8192505b505b610bec848361113e565b9695505050505050565b600554604051636c66769560e11b81526001600160a01b038381166004830152600092169063d8cced2a9060240160206040518083038186803b158015610c3c57600080fd5b505afa158015610c50573d6000803e3d6000fd5b505050506040513d601f19601f82011682018060405250810190610c7491906128c3565b80610cf7575060055460405163643fd21560e11b81526001600160a01b0384811660048301529091169063c87fa42a9060240160206040518083038186803b158015610cbf57600080fd5b505afa158015610cd3573d6000803e3d6000fd5b505050506040513d601f19601f82011682018060405250810190610cf791906128c3565b15610d00575060015b919050565b60008080612710610d1887611a0a612aa0565b610d229190612a80565b9050610d2d856110ba565b15610d3a57809150610f59565b610d4385610bf6565b15610e565760055460405163024ef37560e41b81526001600160a01b0387811660048301528981166024830152610e4f9284929116906324ef37509060440160206040518083038186803b158015610d9a57600080fd5b505afa158015610dae573d6000803e3d6000fd5b505050506040513d601f19601f82011682018060405250810190610dd291906128df565b60055460405163b34c8afb60e01b81526001600160a01b038a811660048301529091169063b34c8afb9060240160206040518083038186803b158015610e1757600080fd5b505afa158015610e2b573d6000803e3d6000fd5b505050506040513d601f19601f820116820180604052508101906102c891906128df565b9150610f59565b600554604051632f011bf560e11b81526001600160a01b03878116600483015290911690635e0237ea90602401602060405180830381600087803b158015610e9d57600080fd5b505af1158015610eb1573d6000803e3d6000fd5b505050506040513d601f19601f82011682018060405250810190610ed591906128c3565b15610f5957610f56856001600160a01b03166382bfefc86040518163ffffffff1660e01b8152600401602060405180830381600087803b158015610f1857600080fd5b505af1158015610f2c573d6000803e3d6000fd5b505050506040513d601f19601f82011682018060405250810190610f509190612625565b82611832565b91505b610f638483610f6f565b92505094509492505050565b60055460405163903443b960e01b81526001600160a01b038481166004830152600092839283929091169063903443b990602401604080518083038186803b158015610fba57600080fd5b505afa158015610fce573d6000803e3d6000fd5b505050506040513d601f19601f82011682018060405250810190610ff29190612918565b915091506110018483836110f8565b95945050505050565b6000806110178486612aa0565b905060006110258488612aa0565b9050600086611035896002612aa0565b61103f9190612a68565b9050600061104d8688612a68565b905060008385111561106a576110638486612abf565b9050611077565b6110748585612abf565b90505b60006110838385612aa0565b905080600054836110949190612aa0565b61109e9190612a80565b6000546110ab9190612abf565b9b9a5050505050505050505050565b6002546000906001600160a01b038381166101009092041614806110eb57506003546001600160a01b038381169116145b15610d0057506001610d00565b600080826111068587612aa0565b6111109190612aa0565b9050600061111e8587612a68565b6111288688612a68565b6111329190612aa0565b9050610bec8183612a80565b60006127108311158015611150575060015b6111915760405162461bcd60e51b815260206004820152601260248201527104d75737420626520636f72726563742042560741b604482015260640161054b565b6109518361271084610931565b6000806111ab8484611965565b90506111b681612561565b6111bf846110ba565b15611203576111e9604051806040016040528060048152602001637472756560e01b8152506125a9565b6111f38382612113565b91506111fe82612561565b611295565b600554604051632f011bf560e11b81526001600160a01b03868116600483015290911690635e0237ea90602401602060405180830381600087803b15801561124a57600080fd5b505af115801561125e573d6000803e3d6000fd5b505050506040513d601f19601f8201168201806040525081019061128291906128c3565b15611295576112928382866121a6565b91505b5092915050565b600080826111068680612aa0565b600061095183836064610931565b600480546040516382eb723360e01b81526001600160a01b03858116938201939093528383166024820152600092839216906382eb72339060440160206040518083038186803b15801561130b57600080fd5b505afa15801561131f573d6000803e3d6000fd5b505050506040513d601f19601f8201168201806040525081019061134391906128df565b60055460405163e6ae1a9760e01b81526001600160a01b0386811660048301529293506000929091169063e6ae1a979060240160206040518083038186803b15801561138e57600080fd5b505afa1580156113a2573d6000803e3d6000fd5b505050506040513d601f19601f820116820180604052508101906113c691906128df565b9050806113d583612710612aa0565b6110019190612a80565b6000600260019054906101000a90046001600160a01b03166001600160a01b0316630781f4d26040518163ffffffff1660e01b815260040160206040518083038186803b15801561142f57600080fd5b505afa158015611443573d6000803e3d6000fd5b505050506040513d601f19601f8201168201806040525081019061146791906128c3565b80156114ed575060048054604051631dd35c3960e21b81526001600160a01b038681169382019390935291169063774d70e49060240160206040518083038186803b1580156114b557600080fd5b505afa1580156114c9573d6000803e3d6000fd5b505050506040513d601f19601f820116820180604052508101906114ed91906128c3565b1561092b5760055460405163b34c8afb60e01b81526001600160a01b038581166004830152600092169063b34c8afb9060240160206040518083038186803b15801561153857600080fd5b505afa15801561154c573d6000803e3d6000fd5b505050506040513d601f19601f8201168201806040525081019061157091906128df565b60055460405163643fd21560e11b81526001600160a01b03878116600483015292935091169063c87fa42a9060240160206040518083038186803b1580156115b757600080fd5b505afa1580156115cb573d6000803e3d6000fd5b505050506040513d601f19601f820116820180604052508101906115ef91906128c3565b156116d65760006116c282600560009054906101000a90046001600160a01b03166001600160a01b031663a9652dca6040518163ffffffff1660e01b815260040160206040518083038186803b15801561164857600080fd5b505afa15801561165c573d6000803e3d6000fd5b505050506040513d601f19601f8201168201806040525081019061168091906128df565b6004805460408051636f356a2760e11b815290516001600160a01b039092169263de6ad44e928282019260209290829003018186803b15801561082357600080fd5b90506116ce81856118c4565b925050611295565b600554604051636c66769560e11b81526001600160a01b0386811660048301529091169063d8cced2a9060240160206040518083038186803b15801561171b57600080fd5b505afa15801561172f573d6000803e3d6000fd5b505050506040513d601f19601f8201168201806040525081019061175391906128c3565b1561129557600061182682600560009054906101000a90046001600160a01b03166001600160a01b031663dd5a2bd86040518163ffffffff1660e01b815260040160206040518083038186803b1580156117ac57600080fd5b505afa1580156117c0573d6000803e3d6000fd5b505050506040513d601f19601f820116820180604052508101906117e491906128df565b600480546040805163018b3a8d60e61b815290516001600160a01b03909216926362cea340928282019260209290829003018186803b15801561082357600080fd5b905061100181856118c4565b60055460405163903443b960e01b81526001600160a01b038481166004830152600092839283929091169063903443b990602401604080518083038186803b15801561187d57600080fd5b505afa158015611891573d6000803e3d6000fd5b505050506040513d601f19601f820116820180604052508101906118b59190612918565b915091506110018482846110f8565b600061095160018385610931565b60055460405163903443b960e01b81526001600160a01b038481166004830152600092839283929091169063903443b990602401604080518083038186803b15801561191d57600080fd5b505afa158015611931573d6000803e3d6000fd5b505050506040513d601f19601f820116820180604052508101906119559190612918565b9092509050816113d58286612aa0565b60008061197284846112b8565b600480546040516382eb723360e01b81526001600160a01b03888116938201939093528683166024820152929350612710929116906382eb72339060440160206040518083038186803b1580156119c857600080fd5b505afa1580156119dc573d6000803e3d6000fd5b505050506040513d601f19601f82011682018060405250810190611a0091906128df565b611a0a9083612aa0565b6112929190612a80565b600081611a22575084611001565b6000611a308787878761100a565b90506000611a3e8787612aa0565b90506000611a4c8987612aa0565b90506000611a5a8988612aa0565b611a65906002612aa0565b905060008183611a75868a612aa0565b611a7f9190612a68565b611a899190612a80565b600054909150611a998683612aa0565b6110ab9190612a80565b6002546001600160a01b03838116610100909204161415611b7957600554604051636c66769560e11b81526001600160a01b0383811660048301529091169063d8cced2a906024015b60206040518083038186803b158015611b0457600080fd5b505afa158015611b18573d6000803e3d6000fd5b505050506040513d601f19601f82011682018060405250810190611b3c91906128c3565b611b745760405162461bcd60e51b815260206004820152600960248201526842616420436f6d626f60b81b604482015260640161054b565b611fda565b6003546001600160a01b0383811691161415611bc15760055460405163643fd21560e11b81526001600160a01b0383811660048301529091169063c87fa42a90602401611aec565b600554604051632f011bf560e11b81526001600160a01b03848116600483015290911690635e0237ea90602401602060405180830381600087803b158015611c0857600080fd5b505af1158015611c1c573d6000803e3d6000fd5b505050506040513d601f19601f82011682018060405250810190611c4091906128c3565b8015611d555750600560009054906101000a90046001600160a01b03166001600160a01b031663d8cced2a836001600160a01b03166382bfefc86040518163ffffffff1660e01b8152600401602060405180830381600087803b158015611ca657600080fd5b505af1158015611cba573d6000803e3d6000fd5b505050506040513d601f19601f82011682018060405250810190611cde9190612625565b6040516001600160e01b031960e084901b1681526001600160a01b03909116600482015260240160206040518083038186803b158015611d1d57600080fd5b505afa158015611d31573d6000803e3d6000fd5b505050506040513d601f19601f82011682018060405250810190611d5591906128c3565b15611d8c57600554604051636c66769560e11b81526001600160a01b0383811660048301529091169063d8cced2a90602401611aec565b600554604051632f011bf560e11b81526001600160a01b03848116600483015290911690635e0237ea90602401602060405180830381600087803b158015611dd357600080fd5b505af1158015611de7573d6000803e3d6000fd5b505050506040513d601f19601f82011682018060405250810190611e0b91906128c3565b8015611f205750600560009054906101000a90046001600160a01b03166001600160a01b031663c87fa42a836001600160a01b03166382bfefc86040518163ffffffff1660e01b8152600401602060405180830381600087803b158015611e7157600080fd5b505af1158015611e85573d6000803e3d6000fd5b505050506040513d601f19601f82011682018060405250810190611ea99190612625565b6040516001600160e01b031960e084901b1681526001600160a01b03909116600482015260240160206040518083038186803b158015611ee857600080fd5b505afa158015611efc573d6000803e3d6000fd5b505050506040513d601f19601f82011682018060405250810190611f2091906128c3565b15611fda5760055460405163643fd21560e11b81526001600160a01b0383811660048301529091169063c87fa42a9060240160206040518083038186803b158015611f6a57600080fd5b505afa158015611f7e573d6000803e3d6000fd5b505050506040513d601f19601f82011682018060405250810190611fa291906128c3565b611fda5760405162461bcd60e51b815260206004820152600960248201526842616420436f6d626f60b81b604482015260640161054b565b5050565b6004805460405163cbc17db360e01b81526001600160a01b0387811693820193909352848316602482015283831660448201526000928392169063cbc17db39060640160206040518083038186803b15801561203957600080fd5b505afa15801561204d573d6000803e3d6000fd5b505050506040513d601f19601f8201168201806040525081019061207191906128df565b6004805460405163fde3bbe960e01b81526001600160a01b038a8116938201939093528783166024820152868316604482015292935060009291169063fde3bbe99060640160206040518083038186803b1580156120ce57600080fd5b505afa1580156120e2573d6000803e3d6000fd5b505050506040513d601f19601f8201168201806040525081019061210691906128df565b9050610a8b868383610931565b60055460405163903443b960e01b81526001600160a01b038481166004830152600092839283929091169063903443b990602401604080518083038186803b15801561215e57600080fd5b505afa158015612172573d6000803e3d6000fd5b505050506040513d601f19601f820116820180604052508101906121969190612918565b9092509050806113d58386612aa0565b60055460405163903443b960e01b81526001600160a01b038581166004830152600092839283929091169063903443b990602401604080518083038186803b1580156121f157600080fd5b505afa158015612205573d6000803e3d6000fd5b505050506040513d601f19601f820116820180604052508101906122299190612918565b909250905060008161223b8488612aa0565b6122459190612a80565b60055460405163903443b960e01b81526001600160a01b0388811660048301529293506000928392169063903443b990602401604080518083038186803b15801561228f57600080fd5b505afa1580156122a3573d6000803e3d6000fd5b505050506040513d601f19601f820116820180604052508101906122c79190612918565b9092509050816122d78285612aa0565b6122e19190612a80565b9998505050505050505050565b805160609060005b8181101561244057600061230b826001612a68565b90505b8281101561242d5784818151811061233657634e487b7160e01b600052603260045260246000fd5b602002602001015185838151811061235e57634e487b7160e01b600052603260045260246000fd5b6020026020010151111561241b57600085838151811061238e57634e487b7160e01b600052603260045260246000fd5b602002602001015190508582815181106123b857634e487b7160e01b600052603260045260246000fd5b60200260200101518684815181106123e057634e487b7160e01b600052603260045260246000fd5b6020026020010181815250508086838151811061240d57634e487b7160e01b600052603260045260246000fd5b602002602001018181525050505b8061242581612ad6565b91505061230e565b508061243881612ad6565b9150506122f6565b509192915050565b600061245685600054612113565b905060006124718560015461246b9190612abf565b8461113e565b6001549091506000906124848782612a68565b61248e9086612aa0565b6124989190612a80565b905084156124ee578183101580156124b05750808311155b6124e95760405162461bcd60e51b815260206004820152600a6024820152694e6f7420696e7369646560b01b604482015260640161054b565b612537565b81831115806124fd5750808310155b6125375760405162461bcd60e51b815260206004820152600b60248201526a4e6f74206f75747369646560a81b604482015260640161054b565b50505050505050565b600061254c8385612a68565b612557906002612aa0565b6109448584612aa0565b6125a68160405160240161257791815260200190565b60408051601f198184030181529190526020810180516001600160e01b031663f5b1bba960e01b1790526125e8565b50565b6125a6816040516024016125bd9190612a15565b60408051601f198184030181529190526020810180516001600160e01b031663104c13eb60e21b1790525b80516a636f6e736f6c652e6c6f67602083016000808483855afa5050505050565b60006020828403121561261a578081fd5b813561095181612b1d565b600060208284031215612636578081fd5b815161095181612b1d565b60008060408385031215612653578081fd5b823561265e81612b1d565b9150602083013561266e81612b1d565b809150509250929050565b6000806000806080858703121561268e578182fd5b843561269981612b1d565b935060208501356126a981612b1d565b925060408501356126b981612b1d565b915060608501356126c981612b1d565b939692955090935050565b600080600080608085870312156126e9578384fd5b84356126f481612b1d565b9350602085013561270481612b1d565b93969395505050506040820135916060013590565b6000806040838503121561272b578182fd5b823561273681612b1d565b946020939093013593505050565b600080600060608486031215612758578283fd5b833561276381612b1d565b925060208401359150604084013561277a81612b1d565b809150509250925092565b6000806000806080858703121561279a578384fd5b84356127a581612b1d565b93506020850135925060408501356126b981612b1d565b600080600080608085870312156127d1578384fd5b84356127dc81612b1d565b93506020850135925060408501356127f381612b32565b9396929550929360600135925050565b60006020808385031215612815578182fd5b823567ffffffffffffffff8082111561282c578384fd5b818501915085601f83011261283f578384fd5b81358181111561285157612851612b07565b8060051b604051601f19603f8301168101818110858211171561287657612876612b07565b604052828152858101935084860182860187018a1015612894578788fd5b8795505b838610156128b6578035855260019590950194938601938601612898565b5098975050505050505050565b6000602082840312156128d4578081fd5b815161095181612b32565b6000602082840312156128f0578081fd5b5051919050565b60008060408385031215612909578182fd5b50508035926020909101359150565b6000806040838503121561292a578182fd5b505080516020909101519092909150565b60008060006060848603121561294f578081fd5b505081359360208301359350604090920135919050565b6000806000806080858703121561297b578182fd5b5050823594602084013594506040840135936060013592509050565b600080600080600060a086880312156129ae578283fd5b505083359560208501359550604085013594606081013594506080013592509050565b6020808252825182820181905260009190848201906040850190845b81811015612a09578351835292840192918401916001016129ed565b50909695505050505050565b6000602080835283518082850152825b81811015612a4157858101830151858201604001528201612a25565b81811115612a525783604083870101525b50601f01601f1916929092016040019392505050565b60008219821115612a7b57612a7b612af1565b500190565b600082612a9b57634e487b7160e01b81526012600452602481fd5b500490565b6000816000190483118215151615612aba57612aba612af1565b500290565b600082821015612ad157612ad1612af1565b500390565b6000600019821415612aea57612aea612af1565b5060010190565b634e487b7160e01b600052601160045260246000fd5b634e487b7160e01b600052604160045260246000fd5b6001600160a01b03811681146125a657600080fd5b80151581146125a657600080fdfea2646970667358221220fddb1a7d91572a74bbdcf7c3573f89af62ab002f3c71910c6795af57a917150664736f6c63430008030033",
  "linkReferences": {},
  "deployedLinkReferences": {}
}