{
  "_format": "hh-sol-artifact-1",
  "contractName": "Utils",
  "sourceName": "contracts/Utils.sol",
  "abi": [
    {
      "inputs": [],
      "stateMutability": "nonpayable",
      "type": "constructor"
    },
    {
      "inputs": [],
      "name": "FACTORY",
      "outputs": [
        {
          "internalType": "address",
          "name": "",
          "type": "address"
        }
      ],
      "stateMutability": "view",
      "type": "function"
    },
    {
      "inputs": [],
      "name": "POOLS",
      "outputs": [
        {
          "internalType": "address",
          "name": "",
          "type": "address"
        }
      ],
      "stateMutability": "view",
      "type": "function"
    },
    {
      "inputs": [],
      "name": "ROUTER",
      "outputs": [
        {
          "internalType": "address",
          "name": "",
          "type": "address"
        }
      ],
      "stateMutability": "view",
      "type": "function"
    },
    {
      "inputs": [],
      "name": "USDV",
      "outputs": [
        {
          "internalType": "address",
          "name": "",
          "type": "address"
        }
      ],
      "stateMutability": "view",
      "type": "function"
    },
    {
      "inputs": [],
      "name": "VADER",
      "outputs": [
        {
          "internalType": "address",
          "name": "",
          "type": "address"
        }
      ],
      "stateMutability": "view",
      "type": "function"
    },
    {
      "inputs": [
        {
          "internalType": "address",
          "name": "collateralAsset",
          "type": "address"
        },
        {
          "internalType": "address",
          "name": "debtAsset",
          "type": "address"
        }
      ],
      "name": "assetChecks",
      "outputs": [],
      "stateMutability": "nonpayable",
      "type": "function"
    },
    {
      "inputs": [
        {
          "internalType": "uint256",
          "name": "u",
          "type": "uint256"
        },
        {
          "internalType": "uint256",
          "name": "U",
          "type": "uint256"
        },
        {
          "internalType": "uint256",
          "name": "A",
          "type": "uint256"
        }
      ],
      "name": "calcAsymmetricShare",
      "outputs": [
        {
          "internalType": "uint256",
          "name": "",
          "type": "uint256"
        }
      ],
      "stateMutability": "pure",
      "type": "function"
    },
    {
      "inputs": [
        {
          "internalType": "uint256",
          "name": "B0",
          "type": "uint256"
        },
        {
          "internalType": "uint256",
          "name": "T0",
          "type": "uint256"
        },
        {
          "internalType": "uint256",
          "name": "B1",
          "type": "uint256"
        },
        {
          "internalType": "uint256",
          "name": "T1",
          "type": "uint256"
        }
      ],
      "name": "calcCoverage",
      "outputs": [
        {
          "internalType": "uint256",
          "name": "coverage",
          "type": "uint256"
        }
      ],
      "stateMutability": "pure",
      "type": "function"
    },
    {
      "inputs": [
        {
          "internalType": "uint256",
          "name": "b",
          "type": "uint256"
        },
        {
          "internalType": "uint256",
          "name": "B",
          "type": "uint256"
        },
        {
          "internalType": "uint256",
          "name": "t",
          "type": "uint256"
        },
        {
          "internalType": "uint256",
          "name": "T",
          "type": "uint256"
        },
        {
          "internalType": "uint256",
          "name": "P",
          "type": "uint256"
        }
      ],
      "name": "calcLiquidityUnits",
      "outputs": [
        {
          "internalType": "uint256",
          "name": "",
          "type": "uint256"
        }
      ],
      "stateMutability": "view",
      "type": "function"
    },
    {
      "inputs": [
        {
          "internalType": "uint256",
          "name": "bp",
          "type": "uint256"
        },
        {
          "internalType": "uint256",
          "name": "total",
          "type": "uint256"
        }
      ],
      "name": "calcPart",
      "outputs": [
        {
          "internalType": "uint256",
          "name": "",
          "type": "uint256"
        }
      ],
      "stateMutability": "pure",
      "type": "function"
    },
    {
      "inputs": [
        {
          "internalType": "uint256",
          "name": "part",
          "type": "uint256"
        },
        {
          "internalType": "uint256",
          "name": "total",
          "type": "uint256"
        },
        {
          "internalType": "uint256",
          "name": "amount",
          "type": "uint256"
        }
      ],
      "name": "calcShare",
      "outputs": [
        {
          "internalType": "uint256",
          "name": "share",
          "type": "uint256"
        }
      ],
      "stateMutability": "pure",
      "type": "function"
    },
    {
      "inputs": [
        {
          "internalType": "uint256",
          "name": "x",
          "type": "uint256"
        },
        {
          "internalType": "uint256",
          "name": "X",
          "type": "uint256"
        },
        {
          "internalType": "uint256",
          "name": "Y",
          "type": "uint256"
        }
      ],
      "name": "calcSwapFee",
      "outputs": [
        {
          "internalType": "uint256",
          "name": "",
          "type": "uint256"
        }
      ],
      "stateMutability": "pure",
      "type": "function"
    },
    {
      "inputs": [
        {
          "internalType": "uint256",
          "name": "x",
          "type": "uint256"
        },
        {
          "internalType": "uint256",
          "name": "X",
          "type": "uint256"
        },
        {
          "internalType": "uint256",
          "name": "Y",
          "type": "uint256"
        }
      ],
      "name": "calcSwapOutput",
      "outputs": [
        {
          "internalType": "uint256",
          "name": "",
          "type": "uint256"
        }
      ],
      "stateMutability": "pure",
      "type": "function"
    },
    {
      "inputs": [
        {
          "internalType": "uint256",
          "name": "x",
          "type": "uint256"
        },
        {
          "internalType": "uint256",
          "name": "X",
          "type": "uint256"
        }
      ],
      "name": "calcSwapSlip",
      "outputs": [
        {
          "internalType": "uint256",
          "name": "",
          "type": "uint256"
        }
      ],
      "stateMutability": "pure",
      "type": "function"
    },
    {
      "inputs": [
        {
          "internalType": "address",
          "name": "token",
          "type": "address"
        },
        {
          "internalType": "uint256",
          "name": "amount",
          "type": "uint256"
        }
      ],
      "name": "calcSwapValueInBase",
      "outputs": [
        {
          "internalType": "uint256",
          "name": "",
          "type": "uint256"
        }
      ],
      "stateMutability": "view",
      "type": "function"
    },
    {
      "inputs": [
        {
          "internalType": "address",
          "name": "token",
          "type": "address"
        },
        {
          "internalType": "uint256",
          "name": "amount",
          "type": "uint256"
        }
      ],
      "name": "calcSwapValueInToken",
      "outputs": [
        {
          "internalType": "uint256",
          "name": "",
          "type": "uint256"
        }
      ],
      "stateMutability": "view",
      "type": "function"
    },
    {
      "inputs": [
        {
          "internalType": "uint256",
          "name": "b",
          "type": "uint256"
        },
        {
          "internalType": "uint256",
          "name": "B",
          "type": "uint256"
        },
        {
          "internalType": "uint256",
          "name": "P",
          "type": "uint256"
        }
      ],
      "name": "calcSynthUnits",
      "outputs": [
        {
          "internalType": "uint256",
          "name": "",
          "type": "uint256"
        }
      ],
      "stateMutability": "pure",
      "type": "function"
    },
    {
      "inputs": [
        {
          "internalType": "address",
          "name": "token",
          "type": "address"
        },
        {
          "internalType": "uint256",
          "name": "amount",
          "type": "uint256"
        }
      ],
      "name": "calcValueInBase",
      "outputs": [
        {
          "internalType": "uint256",
          "name": "",
          "type": "uint256"
        }
      ],
      "stateMutability": "view",
      "type": "function"
    },
    {
      "inputs": [
        {
          "internalType": "address",
          "name": "token",
          "type": "address"
        },
        {
          "internalType": "uint256",
          "name": "amount",
          "type": "uint256"
        }
      ],
      "name": "calcValueInToken",
      "outputs": [
        {
          "internalType": "uint256",
          "name": "",
          "type": "uint256"
        }
      ],
      "stateMutability": "view",
      "type": "function"
    },
    {
      "inputs": [
        {
          "internalType": "address",
          "name": "token1",
          "type": "address"
        },
        {
          "internalType": "uint256",
          "name": "amount",
          "type": "uint256"
        },
        {
          "internalType": "address",
          "name": "token2",
          "type": "address"
        }
      ],
      "name": "calcValueOfTokenInToken",
      "outputs": [
        {
          "internalType": "uint256",
          "name": "",
          "type": "uint256"
        }
      ],
      "stateMutability": "view",
      "type": "function"
    },
    {
      "inputs": [
        {
          "internalType": "address",
          "name": "member",
          "type": "address"
        },
        {
          "internalType": "uint256",
          "name": "collateral",
          "type": "uint256"
        },
        {
          "internalType": "address",
          "name": "collateralAsset",
          "type": "address"
        },
        {
          "internalType": "address",
          "name": "debtAsset",
          "type": "address"
        }
      ],
      "name": "getCollateralValueInBase",
      "outputs": [
        {
          "internalType": "uint256",
          "name": "debt",
          "type": "uint256"
        },
        {
          "internalType": "uint256",
          "name": "baseValue",
          "type": "uint256"
        }
      ],
      "stateMutability": "nonpayable",
      "type": "function"
    },
    {
      "inputs": [
        {
          "internalType": "address",
          "name": "member",
          "type": "address"
        },
        {
          "internalType": "address",
          "name": "token",
          "type": "address"
        }
      ],
      "name": "getCoverage",
      "outputs": [
        {
          "internalType": "uint256",
          "name": "",
          "type": "uint256"
        }
      ],
      "stateMutability": "view",
      "type": "function"
    },
    {
      "inputs": [
        {
          "internalType": "address",
          "name": "collateralAsset",
          "type": "address"
        },
        {
          "internalType": "address",
          "name": "debtAsset",
          "type": "address"
        }
      ],
      "name": "getDebtLoading",
      "outputs": [
        {
          "internalType": "uint256",
          "name": "",
          "type": "uint256"
        }
      ],
      "stateMutability": "view",
      "type": "function"
    },
    {
      "inputs": [
        {
          "internalType": "address",
          "name": "member",
          "type": "address"
        },
        {
          "internalType": "uint256",
          "name": "debt",
          "type": "uint256"
        },
        {
          "internalType": "address",
          "name": "collateralAsset",
          "type": "address"
        },
        {
          "internalType": "address",
          "name": "debtAsset",
          "type": "address"
        }
      ],
      "name": "getDebtValueInCollateral",
      "outputs": [
        {
          "internalType": "uint256",
          "name": "",
          "type": "uint256"
        },
        {
          "internalType": "uint256",
          "name": "",
          "type": "uint256"
        }
      ],
      "stateMutability": "view",
      "type": "function"
    },
    {
      "inputs": [
        {
          "internalType": "uint256",
          "name": "totalSupply",
          "type": "uint256"
        },
        {
          "internalType": "uint256",
          "name": "maxSupply",
          "type": "uint256"
        }
      ],
      "name": "getFeeOnTransfer",
      "outputs": [
        {
          "internalType": "uint256",
          "name": "",
          "type": "uint256"
        }
      ],
      "stateMutability": "pure",
      "type": "function"
    },
    {
      "inputs": [
        {
          "internalType": "address",
          "name": "collateralAsset",
          "type": "address"
        },
        {
          "internalType": "address",
          "name": "debtAsset",
          "type": "address"
        }
      ],
      "name": "getInterestOwed",
      "outputs": [
        {
          "internalType": "uint256",
          "name": "interestOwed",
          "type": "uint256"
        }
      ],
      "stateMutability": "view",
      "type": "function"
    },
    {
      "inputs": [
        {
          "internalType": "address",
          "name": "collateralAsset",
          "type": "address"
        },
        {
          "internalType": "address",
          "name": "debtAsset",
          "type": "address"
        }
      ],
      "name": "getInterestPayment",
      "outputs": [
        {
          "internalType": "uint256",
          "name": "",
          "type": "uint256"
        }
      ],
      "stateMutability": "view",
      "type": "function"
    },
    {
      "inputs": [
        {
          "internalType": "address",
          "name": "member",
          "type": "address"
        },
        {
          "internalType": "address",
          "name": "token",
          "type": "address"
        },
        {
          "internalType": "uint256",
          "name": "basisPoints",
          "type": "uint256"
        },
        {
          "internalType": "uint256",
          "name": "timeForFullProtection",
          "type": "uint256"
        }
      ],
      "name": "getProtection",
      "outputs": [
        {
          "internalType": "uint256",
          "name": "protection",
          "type": "uint256"
        }
      ],
      "stateMutability": "view",
      "type": "function"
    },
    {
      "inputs": [
        {
          "internalType": "uint256",
          "name": "amount",
          "type": "uint256"
        },
        {
          "internalType": "uint256",
          "name": "rewardReductionFactor",
          "type": "uint256"
        }
      ],
      "name": "getReducedShare",
      "outputs": [
        {
          "internalType": "uint256",
          "name": "",
          "type": "uint256"
        }
      ],
      "stateMutability": "pure",
      "type": "function"
    },
    {
      "inputs": [
        {
          "internalType": "address",
          "name": "token",
          "type": "address"
        },
        {
          "internalType": "uint256",
          "name": "rewardReductionFactor",
          "type": "uint256"
        }
      ],
      "name": "getRewardShare",
      "outputs": [
        {
          "internalType": "uint256",
          "name": "rewardShare",
          "type": "uint256"
        }
      ],
      "stateMutability": "view",
      "type": "function"
    },
    {
      "inputs": [
        {
          "internalType": "uint256",
          "name": "b",
          "type": "uint256"
        },
        {
          "internalType": "uint256",
          "name": "B",
          "type": "uint256"
        },
        {
          "internalType": "uint256",
          "name": "t",
          "type": "uint256"
        },
        {
          "internalType": "uint256",
          "name": "T",
          "type": "uint256"
        }
      ],
      "name": "getSlipAdustment",
      "outputs": [
        {
          "internalType": "uint256",
          "name": "",
          "type": "uint256"
        }
      ],
      "stateMutability": "view",
      "type": "function"
    },
    {
      "inputs": [
        {
          "internalType": "address",
          "name": "_vader",
          "type": "address"
        },
        {
          "internalType": "address",
          "name": "_usdv",
          "type": "address"
        },
        {
          "internalType": "address",
          "name": "_router",
          "type": "address"
        },
        {
          "internalType": "address",
          "name": "_pools",
          "type": "address"
        },
        {
          "internalType": "address",
          "name": "_factory",
          "type": "address"
        }
      ],
      "name": "init",
      "outputs": [],
      "stateMutability": "nonpayable",
      "type": "function"
    },
    {
      "inputs": [
        {
          "internalType": "address",
          "name": "token",
          "type": "address"
        }
      ],
      "name": "isBase",
      "outputs": [
        {
          "internalType": "bool",
          "name": "base",
          "type": "bool"
        }
      ],
      "stateMutability": "view",
      "type": "function"
    },
    {
      "inputs": [
        {
          "internalType": "address",
          "name": "token",
          "type": "address"
        }
      ],
      "name": "isPool",
      "outputs": [
        {
          "internalType": "bool",
          "name": "pool",
          "type": "bool"
        }
      ],
      "stateMutability": "view",
      "type": "function"
    },
    {
      "inputs": [
        {
          "internalType": "address",
          "name": "token",
          "type": "address"
        },
        {
          "internalType": "uint256",
          "name": "bound",
          "type": "uint256"
        },
        {
          "internalType": "bool",
          "name": "inside",
          "type": "bool"
        },
        {
          "internalType": "uint256",
          "name": "targetPrice",
          "type": "uint256"
        }
      ],
      "name": "requirePriceBounds",
      "outputs": [],
      "stateMutability": "view",
      "type": "function"
    },
    {
      "inputs": [
        {
          "internalType": "uint256[]",
          "name": "array",
          "type": "uint256[]"
        }
      ],
      "name": "sortArray",
      "outputs": [
        {
          "internalType": "uint256[]",
          "name": "",
          "type": "uint256[]"
        }
      ],
      "stateMutability": "pure",
      "type": "function"
    }
  ],
  "bytecode": "0x6080604052670de0b6b3a764000060005561271060015534801561002257600080fd5b50612bc9806100326000396000f3fe608060405234801561001057600080fd5b506004361061021c5760003560e01c8063896a708c11610125578063cf975e7b116100ad578063e2c3b0461161007c578063e2c3b046146104c5578063e379976e146104d8578063eb7d5ddf146104f8578063ebccb5b21461050b578063ec1753f11461051e5761021c565b8063cf975e7b14610479578063d549a1ec1461048c578063db39dc791461049f578063dcf3f1e0146104b25761021c565b8063b80e44b8116100f4578063b80e44b81461041a578063bd2bdaf21461042d578063c0c4a72414610440578063c2886b8a14610453578063c5c11ee9146104665761021c565b8063896a708c146103ce5780638b18b115146103e15780639e3f1e8e146103f4578063b4951e4a146104075761021c565b80635b0b602d116101a85780636da0f1fc116101775780636da0f1fc1461036f5780636e899aa314610382578063701baaf314610395578063714270ab146103a857806380f78c50146103bb5761021c565b80635b0b602d146102fe5780635b16ebb7146103115780635c22141f146103345780635f2c12e81461035c5761021c565b80632dd31000116101ef5780632dd310001461029d57806332fe7b26146102b0578063359ef75b146102c35780634a127651146102d8578063595a88a7146102eb5761021c565b8063016813151461022157806312a86ffb146102565780631ba326c4146102775780632db6e4881461028a575b600080fd5b6002546102399061010090046001600160a01b031681565b6040516001600160a01b0390911681526020015b60405180910390f35b61026961026436600461269a565b610531565b60405190815260200161024d565b6102696102853660046129c4565b6108a3565b610269610298366004612980565b6108ca565b600654610239906001600160a01b031681565b600454610239906001600160a01b031681565b6102d66102d13660046126d2565b6108ec565b005b6102696102e63660046129c4565b610998565b6102696102f93660046129ef565b610a3c565b61026961030c366004612742565b610ab7565b61032461031f366004612662565b610c0d565b604051901515815260200161024d565b6103476103423660046127f3565b610d1c565b6040805192835260208301919091520161024d565b61026961036a366004612787565b610f82565b61026961037d3660046129ef565b61101d565b610324610390366004612662565b6110cd565b6102696103a33660046129c4565b61110b565b6102696103b6366004612980565b611151565b6102696103c936600461269a565b6111b1565b6102696103dc3660046129c4565b611276565b6102696103ef366004612980565b611284565b61026961040236600461269a565b611292565b610269610415366004612787565b6113b2565b610269610428366004612787565b611805565b61026961043b366004612980565b611897565b61026961044e366004612787565b6118a5565b61026961046136600461269a565b611938565b610269610474366004612a20565b6119e1565b6102d661048736600461269a565b611a70565b61034761049a3660046127f3565b611fab565b6102696104ad366004612787565b612214565b6102696104c03660046127b2565b6122a7565b600354610239906001600160a01b031681565b6104eb6104e636600461288c565b6123ef565b60405161024d9190612a74565b6102d6610506366004612845565b612549565b600554610239906001600160a01b031681565b61026961052c3660046129c4565b612641565b600480546040516001623a3e2d60e11b0319815260009283926001600160a01b03169163ff8b83a691610568918891889101612a5a565b60206040518083038186803b15801561058057600080fd5b505afa158015610594573d6000803e3d6000fd5b505050506040513d601f19601f820116820180604052508101906105b89190612968565b6004805460405163cfa701c560e01b81529293506000926001600160a01b039091169163cfa701c5916105ef918991899101612a5a565b60206040518083038186803b15801561060757600080fd5b505afa15801561061b573d6000803e3d6000fd5b505050506040513d601f19601f8201168201806040525081019061063f9190612968565b60055460405163024ef37560e41b81529192506000916001600160a01b03909116906324ef3750906106779088908a90600401612a5a565b60206040518083038186803b15801561068f57600080fd5b505afa1580156106a3573d6000803e3d6000fd5b505050506040513d601f19601f820116820180604052508101906106c79190612968565b600554604051630fefbc0960e01b81526001600160a01b0388811660048301529293506000926107cd928592911690630fefbc099060240160206040518083038186803b15801561071757600080fd5b505afa15801561072b573d6000803e3d6000fd5b505050506040513d601f19601f8201168201806040525081019061074f9190612968565b60055460405163b34c8afb60e01b81526001600160a01b038b811660048301529091169063b34c8afb906024015b60206040518083038186803b15801561079557600080fd5b505afa1580156107a9573d6000803e3d6000fd5b505050506040513d601f19601f820116820180604052508101906102859190612968565b600554604051630fefbc0960e01b81526001600160a01b038981166004830152929350600092610887928692911690630fefbc099060240160206040518083038186803b15801561081d57600080fd5b505afa158015610831573d6000803e3d6000fd5b505050506040513d601f19601f820116820180604052508101906108559190612968565b60055460405163e6ae1a9760e01b81526001600160a01b038c811660048301529091169063e6ae1a979060240161077d565b905061089585858484610a3c565b955050505050505b92915050565b600082156108c357826108b68584612af0565b6108c09190612ad0565b90505b9392505050565b60006108d68284612ab8565b6108e284612710612af0565b6108c39190612ad0565b60025460ff161561092d5760405162461bcd60e51b81526020600482015260066024820152651a5b9a5d195960d21b60448201526064015b60405180910390fd5b600280546001600160a01b03968716610100026001600160a81b0319909116176001179055600380549486166001600160a01b031995861617905560048054938616938516939093179092556005805491851691841691909117905560068054919093169116179055565b6000806109a58386612af0565b905060006109b38580612af0565b6109be906002612af0565b905060006109cc8787612af0565b6109d7906002612af0565b905060006109e58880612af0565b9050600081836109f58688612af0565b6109ff9190612b0f565b610a099190612ab8565b9050600088610a188180612af0565b610a229190612af0565b9050610a2e8183612ad0565b9a9950505050505050505050565b60008085118015610a4d5750600082115b15610aaf57600082610a5f8587612af0565b610a699190612ad0565b610a739087612ab8565b9050600083610a828682612af0565b610a8c9190612ad0565b610a969086612ab8565b9050818111610aac57610aa98183612b0f565b92505b50505b949350505050565b600080610ac48686610531565b60048054604051631dd35c3960e21b81526001600160a01b0389811693820193909352929350169063774d70e49060240160206040518083038186803b158015610b0d57600080fd5b505afa158015610b21573d6000803e3d6000fd5b505050506040513d601f19601f82011682018060405250810190610b45919061294c565b15610bf95760048054604051636a87def560e01b81526000926001600160a01b0390921691636a87def591610b7e918b918b9101612a5a565b60206040518083038186803b158015610b9657600080fd5b505afa158015610baa573d6000803e3d6000fd5b505050506040513d601f19601f82011682018060405250810190610bce9190612968565b610bd89042612b0f565b9050838111610bf357610bec8185846108a3565b9250610bf7565b8192505b505b610c038483611151565b9695505050505050565b600554604051636c66769560e11b81526001600160a01b038381166004830152600092169063d8cced2a9060240160206040518083038186803b158015610c5357600080fd5b505afa158015610c67573d6000803e3d6000fd5b505050506040513d601f19601f82011682018060405250810190610c8b919061294c565b80610d0e575060055460405163643fd21560e11b81526001600160a01b0384811660048301529091169063c87fa42a9060240160206040518083038186803b158015610cd657600080fd5b505afa158015610cea573d6000803e3d6000fd5b505050506040513d601f19601f82011682018060405250810190610d0e919061294c565b15610d17575060015b919050565b60008080612710610d2f87611a0a612af0565b610d399190612ad0565b9050610d44856110cd565b15610d5157809150610f6c565b610d5a85610c0d565b15610e6b5760055460405163024ef37560e41b8152610e649183916001600160a01b03909116906324ef375090610d97908a908d90600401612a5a565b60206040518083038186803b158015610daf57600080fd5b505afa158015610dc3573d6000803e3d6000fd5b505050506040513d601f19601f82011682018060405250810190610de79190612968565b60055460405163b34c8afb60e01b81526001600160a01b038a811660048301529091169063b34c8afb9060240160206040518083038186803b158015610e2c57600080fd5b505afa158015610e40573d6000803e3d6000fd5b505050506040513d601f19601f820116820180604052508101906102e69190612968565b9150610f6c565b600654604051632f011bf560e11b81526001600160a01b03878116600483015290911690635e0237ea9060240160206040518083038186803b158015610eb057600080fd5b505afa158015610ec4573d6000803e3d6000fd5b505050506040513d601f19601f82011682018060405250810190610ee8919061294c565b15610f6c57610f69856001600160a01b03166382bfefc86040518163ffffffff1660e01b8152600401602060405180830381600087803b158015610f2b57600080fd5b505af1158015610f3f573d6000803e3d6000fd5b505050506040513d601f19601f82011682018060405250810190610f63919061267e565b82611805565b91505b610f768483610f82565b92505094509492505050565b60055460405163903443b960e01b81526001600160a01b038481166004830152600092839283929091169063903443b990602401604080518083038186803b158015610fcd57600080fd5b505afa158015610fe1573d6000803e3d6000fd5b505050506040513d601f19601f8201168201806040525081019061100591906129a1565b9150915061101484838361110b565b95945050505050565b60008061102a8486612af0565b905060006110388488612af0565b9050600086611048896002612af0565b6110529190612ab8565b905060006110608688612ab8565b905060008385111561107d576110768486612b0f565b905061108a565b6110878585612b0f565b90505b60006110968385612af0565b905080600054836110a79190612af0565b6110b19190612ad0565b6000546110be9190612b0f565b9b9a5050505050505050505050565b6002546000906001600160a01b038381166101009092041614806110fe57506003546001600160a01b038381169116145b15610d1757506001610d17565b600080826111198587612af0565b6111239190612af0565b905060006111318587612ab8565b61113b8688612ab8565b6111459190612af0565b9050610c038183612ad0565b60006127108311158015611163575060015b6111a45760405162461bcd60e51b815260206004820152601260248201527104d75737420626520636f72726563742042560741b6044820152606401610924565b6108c383612710846108a3565b6000806111be8484611938565b90506111c9846110cd565b156111df576111d88382612214565b915061126f565b600654604051632f011bf560e11b81526001600160a01b03868116600483015290911690635e0237ea9060240160206040518083038186803b15801561122457600080fd5b505afa158015611238573d6000803e3d6000fd5b505050506040513d601f19601f8201168201806040525081019061125c919061294c565b1561126f5761126c8382866122a7565b91505b5092915050565b600080826111198680612af0565b60006108c3838360646108a3565b600480546040516382eb723360e01b815260009283926001600160a01b0316916382eb7233916112c6918891889101612a5a565b60206040518083038186803b1580156112de57600080fd5b505afa1580156112f2573d6000803e3d6000fd5b505050506040513d601f19601f820116820180604052508101906113169190612968565b60055460405163e6ae1a9760e01b81526001600160a01b0386811660048301529293506000929091169063e6ae1a979060240160206040518083038186803b15801561136157600080fd5b505afa158015611375573d6000803e3d6000fd5b505050506040513d601f19601f820116820180604052508101906113999190612968565b9050806113a883612710612af0565b6110149190612ad0565b6000600260019054906101000a90046001600160a01b03166001600160a01b0316630781f4d26040518163ffffffff1660e01b815260040160206040518083038186803b15801561140257600080fd5b505afa158015611416573d6000803e3d6000fd5b505050506040513d601f19601f8201168201806040525081019061143a919061294c565b80156114c0575060048054604051631dd35c3960e21b81526001600160a01b038681169382019390935291169063774d70e49060240160206040518083038186803b15801561148857600080fd5b505afa15801561149c573d6000803e3d6000fd5b505050506040513d601f19601f820116820180604052508101906114c0919061294c565b1561089d5760055460405163b34c8afb60e01b81526001600160a01b038581166004830152600092169063b34c8afb9060240160206040518083038186803b15801561150b57600080fd5b505afa15801561151f573d6000803e3d6000fd5b505050506040513d601f19601f820116820180604052508101906115439190612968565b60055460405163643fd21560e11b81526001600160a01b03878116600483015292935091169063c87fa42a9060240160206040518083038186803b15801561158a57600080fd5b505afa15801561159e573d6000803e3d6000fd5b505050506040513d601f19601f820116820180604052508101906115c2919061294c565b156116a957600061169582600560009054906101000a90046001600160a01b03166001600160a01b031663a9652dca6040518163ffffffff1660e01b815260040160206040518083038186803b15801561161b57600080fd5b505afa15801561162f573d6000803e3d6000fd5b505050506040513d601f19601f820116820180604052508101906116539190612968565b6004805460408051636f356a2760e11b815290516001600160a01b039092169263de6ad44e928282019260209290829003018186803b15801561079557600080fd5b90506116a18185611897565b92505061126f565b600554604051636c66769560e11b81526001600160a01b0386811660048301529091169063d8cced2a9060240160206040518083038186803b1580156116ee57600080fd5b505afa158015611702573d6000803e3d6000fd5b505050506040513d601f19601f82011682018060405250810190611726919061294c565b1561126f5760006117f982600560009054906101000a90046001600160a01b03166001600160a01b031663dd5a2bd86040518163ffffffff1660e01b815260040160206040518083038186803b15801561177f57600080fd5b505afa158015611793573d6000803e3d6000fd5b505050506040513d601f19601f820116820180604052508101906117b79190612968565b600480546040805163018b3a8d60e61b815290516001600160a01b03909216926362cea340928282019260209290829003018186803b15801561079557600080fd5b90506110148185611897565b60055460405163903443b960e01b81526001600160a01b038481166004830152600092839283929091169063903443b990602401604080518083038186803b15801561185057600080fd5b505afa158015611864573d6000803e3d6000fd5b505050506040513d601f19601f8201168201806040525081019061188891906129a1565b9150915061101484828461110b565b60006108c3600183856108a3565b60055460405163903443b960e01b81526001600160a01b038481166004830152600092839283929091169063903443b990602401604080518083038186803b1580156118f057600080fd5b505afa158015611904573d6000803e3d6000fd5b505050506040513d601f19601f8201168201806040525081019061192891906129a1565b9092509050816113a88286612af0565b6000806119458484611292565b600480546040516382eb723360e01b8152929350612710926001600160a01b03909116916382eb72339161197d918991899101612a5a565b60206040518083038186803b15801561199557600080fd5b505afa1580156119a9573d6000803e3d6000fd5b505050506040513d601f19601f820116820180604052508101906119cd9190612968565b6119d79083612af0565b61126c9190612ad0565b6000816119ef575084611014565b60006119fd8787878761101d565b90506000611a0b8787612af0565b90506000611a198987612af0565b90506000611a278988612af0565b611a32906002612af0565b905060008183611a42868a612af0565b611a4c9190612ab8565b611a569190612ad0565b600054909150611a668683612af0565b6110be9190612ad0565b6002546001600160a01b03838116610100909204161415611b4657600554604051636c66769560e11b81526001600160a01b0383811660048301529091169063d8cced2a906024015b60206040518083038186803b158015611ad157600080fd5b505afa158015611ae5573d6000803e3d6000fd5b505050506040513d601f19601f82011682018060405250810190611b09919061294c565b611b415760405162461bcd60e51b815260206004820152600960248201526842616420436f6d626f60b81b6044820152606401610924565b611fa7565b6003546001600160a01b0383811691161415611b8e5760055460405163643fd21560e11b81526001600160a01b0383811660048301529091169063c87fa42a90602401611ab9565b600554604051632f011bf560e11b81526001600160a01b03848116600483015290911690635e0237ea90602401602060405180830381600087803b158015611bd557600080fd5b505af1158015611be9573d6000803e3d6000fd5b505050506040513d601f19601f82011682018060405250810190611c0d919061294c565b8015611d225750600560009054906101000a90046001600160a01b03166001600160a01b031663d8cced2a836001600160a01b03166382bfefc86040518163ffffffff1660e01b8152600401602060405180830381600087803b158015611c7357600080fd5b505af1158015611c87573d6000803e3d6000fd5b505050506040513d601f19601f82011682018060405250810190611cab919061267e565b6040516001600160e01b031960e084901b1681526001600160a01b03909116600482015260240160206040518083038186803b158015611cea57600080fd5b505afa158015611cfe573d6000803e3d6000fd5b505050506040513d601f19601f82011682018060405250810190611d22919061294c565b15611d5957600554604051636c66769560e11b81526001600160a01b0383811660048301529091169063d8cced2a90602401611ab9565b600554604051632f011bf560e11b81526001600160a01b03848116600483015290911690635e0237ea90602401602060405180830381600087803b158015611da057600080fd5b505af1158015611db4573d6000803e3d6000fd5b505050506040513d601f19601f82011682018060405250810190611dd8919061294c565b8015611eed5750600560009054906101000a90046001600160a01b03166001600160a01b031663c87fa42a836001600160a01b03166382bfefc86040518163ffffffff1660e01b8152600401602060405180830381600087803b158015611e3e57600080fd5b505af1158015611e52573d6000803e3d6000fd5b505050506040513d601f19601f82011682018060405250810190611e76919061267e565b6040516001600160e01b031960e084901b1681526001600160a01b03909116600482015260240160206040518083038186803b158015611eb557600080fd5b505afa158015611ec9573d6000803e3d6000fd5b505050506040513d601f19601f82011682018060405250810190611eed919061294c565b15611fa75760055460405163643fd21560e11b81526001600160a01b0383811660048301529091169063c87fa42a9060240160206040518083038186803b158015611f3757600080fd5b505afa158015611f4b573d6000803e3d6000fd5b505050506040513d601f19601f82011682018060405250810190611f6f919061294c565b611fa75760405162461bcd60e51b815260206004820152600960248201526842616420436f6d626f60b81b6044820152606401610924565b5050565b6004805460405163cbc17db360e01b81526001600160a01b0387811693820193909352848316602482015283831660448201526000928392839291169063cbc17db39060640160206040518083038186803b15801561200957600080fd5b505afa15801561201d573d6000803e3d6000fd5b505050506040513d601f19601f820116820180604052508101906120419190612968565b6004805460405163fde3bbe960e01b81526001600160a01b038b8116938201939093528883166024820152878316604482015292935060009291169063fde3bbe99060640160206040518083038186803b15801561209e57600080fd5b505afa1580156120b2573d6000803e3d6000fd5b505050506040513d601f19601f820116820180604052508101906120d69190612968565b6004805460405163e672f6ad60e01b81529293506000926001600160a01b039091169163e672f6ad9161210d918b918b9101612a5a565b60206040518083038186803b15801561212557600080fd5b505afa158015612139573d6000803e3d6000fd5b505050506040513d601f19601f8201168201806040525081019061215d9190612968565b6004805460405163e0f52db360e01b81529293506000926001600160a01b039091169163e0f52db391612194918c918c9101612a5a565b60206040518083038186803b1580156121ac57600080fd5b505afa1580156121c0573d6000803e3d6000fd5b505050506040513d601f19601f820116820180604052508101906121e49190612968565b905060006121f38484846108a3565b905060006122028b87876108a3565b9c919b50909950505050505050505050565b60055460405163903443b960e01b81526001600160a01b038481166004830152600092839283929091169063903443b990602401604080518083038186803b15801561225f57600080fd5b505afa158015612273573d6000803e3d6000fd5b505050506040513d601f19601f8201168201806040525081019061229791906129a1565b9092509050806113a88386612af0565b60055460405163903443b960e01b81526001600160a01b038581166004830152600092839283929091169063903443b990602401604080518083038186803b1580156122f257600080fd5b505afa158015612306573d6000803e3d6000fd5b505050506040513d601f19601f8201168201806040525081019061232a91906129a1565b909250905060008161233c8488612af0565b6123469190612ad0565b60055460405163903443b960e01b81526001600160a01b0388811660048301529293506000928392169063903443b990602401604080518083038186803b15801561239057600080fd5b505afa1580156123a4573d6000803e3d6000fd5b505050506040513d601f19601f820116820180604052508101906123c891906129a1565b9092509050816123d88285612af0565b6123e29190612ad0565b9998505050505050505050565b805160609060005b8181101561254157600061240c826001612ab8565b90505b8281101561252e5784818151811061243757634e487b7160e01b600052603260045260246000fd5b602002602001015185838151811061245f57634e487b7160e01b600052603260045260246000fd5b6020026020010151111561251c57600085838151811061248f57634e487b7160e01b600052603260045260246000fd5b602002602001015190508582815181106124b957634e487b7160e01b600052603260045260246000fd5b60200260200101518684815181106124e157634e487b7160e01b600052603260045260246000fd5b6020026020010181815250508086838151811061250e57634e487b7160e01b600052603260045260246000fd5b602002602001018181525050505b8061252681612b26565b91505061240f565b508061253981612b26565b9150506123f7565b509192915050565b600061255785600054612214565b905060006125728560015461256c9190612b0f565b84611151565b6001549091506000906125858782612ab8565b61258f9086612af0565b6125999190612ad0565b905084156125ef578183101580156125b15750808311155b6125ea5760405162461bcd60e51b815260206004820152600a6024820152694e6f7420696e7369646560b01b6044820152606401610924565b612638565b81831115806125fe5750808310155b6126385760405162461bcd60e51b815260206004820152600b60248201526a4e6f74206f75747369646560a81b6044820152606401610924565b50505050505050565b600061264d8385612ab8565b612658906002612af0565b6108b68584612af0565b600060208284031215612673578081fd5b81356108c381612b6d565b60006020828403121561268f578081fd5b81516108c381612b6d565b600080604083850312156126ac578081fd5b82356126b781612b6d565b915060208301356126c781612b6d565b809150509250929050565b600080600080600060a086880312156126e9578081fd5b85356126f481612b6d565b9450602086013561270481612b6d565b9350604086013561271481612b6d565b9250606086013561272481612b6d565b9150608086013561273481612b6d565b809150509295509295909350565b60008060008060808587031215612757578384fd5b843561276281612b6d565b9350602085013561277281612b6d565b93969395505050506040820135916060013590565b60008060408385031215612799578182fd5b82356127a481612b6d565b946020939093013593505050565b6000806000606084860312156127c6578283fd5b83356127d181612b6d565b92506020840135915060408401356127e881612b6d565b809150509250925092565b60008060008060808587031215612808578384fd5b843561281381612b6d565b935060208501359250604085013561282a81612b6d565b9150606085013561283a81612b6d565b939692955090935050565b6000806000806080858703121561285a578384fd5b843561286581612b6d565b935060208501359250604085013561287c81612b85565b9396929550929360600135925050565b6000602080838503121561289e578182fd5b823567ffffffffffffffff808211156128b5578384fd5b818501915085601f8301126128c8578384fd5b8135818111156128da576128da612b57565b8060051b604051601f19603f830116810181811085821117156128ff576128ff612b57565b604052828152858101935084860182860187018a101561291d578788fd5b8795505b8386101561293f578035855260019590950194938601938601612921565b5098975050505050505050565b60006020828403121561295d578081fd5b81516108c381612b85565b600060208284031215612979578081fd5b5051919050565b60008060408385031215612992578081fd5b50508035926020909101359150565b600080604083850312156129b3578182fd5b505080516020909101519092909150565b6000806000606084860312156129d8578081fd5b505081359360208301359350604090920135919050565b60008060008060808587031215612a04578182fd5b5050823594602084013594506040840135936060013592509050565b600080600080600060a08688031215612a37578283fd5b505083359560208501359550604085013594606081013594506080013592509050565b6001600160a01b0392831681529116602082015260400190565b6020808252825182820181905260009190848201906040850190845b81811015612aac57835183529284019291840191600101612a90565b50909695505050505050565b60008219821115612acb57612acb612b41565b500190565b600082612aeb57634e487b7160e01b81526012600452602481fd5b500490565b6000816000190483118215151615612b0a57612b0a612b41565b500290565b600082821015612b2157612b21612b41565b500390565b6000600019821415612b3a57612b3a612b41565b5060010190565b634e487b7160e01b600052601160045260246000fd5b634e487b7160e01b600052604160045260246000fd5b6001600160a01b0381168114612b8257600080fd5b50565b8015158114612b8257600080fdfea2646970667358221220f09cdb9554c1b6695e2da2f012f680ff4633b4d635ce331b2830edd8ae636af464736f6c63430008030033",
  "linkReferences": {},
  "deployedLinkReferences": {}
}