{
  "_format": "hh-sol-artifact-1",
  "contractName": "Utils",
  "sourceName": "contracts/Utils.sol",
  "abi": [
    {
      "inputs": [],
      "stateMutability": "nonpayable",
      "type": "constructor"
    },
    {
      "inputs": [],
      "name": "VAULT",
      "outputs": [
        {
          "internalType": "address",
          "name": "",
          "type": "address"
        }
      ],
      "stateMutability": "view",
      "type": "function"
    },
    {
      "inputs": [
        {
          "internalType": "uint256",
          "name": "u",
          "type": "uint256"
        },
        {
          "internalType": "uint256",
          "name": "U",
          "type": "uint256"
        },
        {
          "internalType": "uint256",
          "name": "A",
          "type": "uint256"
        }
      ],
      "name": "calcAsymmetricShare",
      "outputs": [
        {
          "internalType": "uint256",
          "name": "",
          "type": "uint256"
        }
      ],
      "stateMutability": "pure",
      "type": "function"
    },
    {
      "inputs": [
        {
          "internalType": "uint256",
          "name": "_B0",
          "type": "uint256"
        },
        {
          "internalType": "uint256",
          "name": "_T0",
          "type": "uint256"
        },
        {
          "internalType": "uint256",
          "name": "_B1",
          "type": "uint256"
        },
        {
          "internalType": "uint256",
          "name": "_T1",
          "type": "uint256"
        }
      ],
      "name": "calcCoverage",
      "outputs": [
        {
          "internalType": "uint256",
          "name": "coverage",
          "type": "uint256"
        }
      ],
      "stateMutability": "pure",
      "type": "function"
    },
    {
      "inputs": [
        {
          "internalType": "uint256",
          "name": "b",
          "type": "uint256"
        },
        {
          "internalType": "uint256",
          "name": "B",
          "type": "uint256"
        },
        {
          "internalType": "uint256",
          "name": "t",
          "type": "uint256"
        },
        {
          "internalType": "uint256",
          "name": "T",
          "type": "uint256"
        },
        {
          "internalType": "uint256",
          "name": "P",
          "type": "uint256"
        }
      ],
      "name": "calcLiquidityUnits",
      "outputs": [
        {
          "internalType": "uint256",
          "name": "",
          "type": "uint256"
        }
      ],
      "stateMutability": "view",
      "type": "function"
    },
    {
      "inputs": [
        {
          "internalType": "uint256",
          "name": "bp",
          "type": "uint256"
        },
        {
          "internalType": "uint256",
          "name": "total",
          "type": "uint256"
        }
      ],
      "name": "calcPart",
      "outputs": [
        {
          "internalType": "uint256",
          "name": "",
          "type": "uint256"
        }
      ],
      "stateMutability": "pure",
      "type": "function"
    },
    {
      "inputs": [
        {
          "internalType": "uint256",
          "name": "part",
          "type": "uint256"
        },
        {
          "internalType": "uint256",
          "name": "total",
          "type": "uint256"
        },
        {
          "internalType": "uint256",
          "name": "amount",
          "type": "uint256"
        }
      ],
      "name": "calcShare",
      "outputs": [
        {
          "internalType": "uint256",
          "name": "share",
          "type": "uint256"
        }
      ],
      "stateMutability": "pure",
      "type": "function"
    },
    {
      "inputs": [
        {
          "internalType": "uint256",
          "name": "x",
          "type": "uint256"
        },
        {
          "internalType": "uint256",
          "name": "X",
          "type": "uint256"
        },
        {
          "internalType": "uint256",
          "name": "Y",
          "type": "uint256"
        }
      ],
      "name": "calcSwapFee",
      "outputs": [
        {
          "internalType": "uint256",
          "name": "",
          "type": "uint256"
        }
      ],
      "stateMutability": "pure",
      "type": "function"
    },
    {
      "inputs": [
        {
          "internalType": "uint256",
          "name": "x",
          "type": "uint256"
        },
        {
          "internalType": "uint256",
          "name": "X",
          "type": "uint256"
        },
        {
          "internalType": "uint256",
          "name": "Y",
          "type": "uint256"
        }
      ],
      "name": "calcSwapOutput",
      "outputs": [
        {
          "internalType": "uint256",
          "name": "",
          "type": "uint256"
        }
      ],
      "stateMutability": "pure",
      "type": "function"
    },
    {
      "inputs": [
        {
          "internalType": "uint256",
          "name": "x",
          "type": "uint256"
        },
        {
          "internalType": "uint256",
          "name": "X",
          "type": "uint256"
        }
      ],
      "name": "calcSwapSlip",
      "outputs": [
        {
          "internalType": "uint256",
          "name": "",
          "type": "uint256"
        }
      ],
      "stateMutability": "pure",
      "type": "function"
    },
    {
      "inputs": [
        {
          "internalType": "address",
          "name": "token",
          "type": "address"
        },
        {
          "internalType": "uint256",
          "name": "amount",
          "type": "uint256"
        }
      ],
      "name": "calcSwapValueInBase",
      "outputs": [
        {
          "internalType": "uint256",
          "name": "",
          "type": "uint256"
        }
      ],
      "stateMutability": "view",
      "type": "function"
    },
    {
      "inputs": [
        {
          "internalType": "address",
          "name": "token",
          "type": "address"
        },
        {
          "internalType": "uint256",
          "name": "amount",
          "type": "uint256"
        }
      ],
      "name": "calcSwapValueInToken",
      "outputs": [
        {
          "internalType": "uint256",
          "name": "",
          "type": "uint256"
        }
      ],
      "stateMutability": "view",
      "type": "function"
    },
    {
      "inputs": [
        {
          "internalType": "uint256",
          "name": "b",
          "type": "uint256"
        },
        {
          "internalType": "uint256",
          "name": "B",
          "type": "uint256"
        },
        {
          "internalType": "uint256",
          "name": "P",
          "type": "uint256"
        }
      ],
      "name": "calcSynthUnits",
      "outputs": [
        {
          "internalType": "uint256",
          "name": "",
          "type": "uint256"
        }
      ],
      "stateMutability": "pure",
      "type": "function"
    },
    {
      "inputs": [
        {
          "internalType": "address",
          "name": "token",
          "type": "address"
        },
        {
          "internalType": "uint256",
          "name": "amount",
          "type": "uint256"
        }
      ],
      "name": "calcValueInBase",
      "outputs": [
        {
          "internalType": "uint256",
          "name": "",
          "type": "uint256"
        }
      ],
      "stateMutability": "view",
      "type": "function"
    },
    {
      "inputs": [
        {
          "internalType": "address",
          "name": "token",
          "type": "address"
        },
        {
          "internalType": "uint256",
          "name": "amount",
          "type": "uint256"
        }
      ],
      "name": "calcValueInToken",
      "outputs": [
        {
          "internalType": "uint256",
          "name": "",
          "type": "uint256"
        }
      ],
      "stateMutability": "view",
      "type": "function"
    },
    {
      "inputs": [
        {
          "internalType": "uint256",
          "name": "totalSupply",
          "type": "uint256"
        },
        {
          "internalType": "uint256",
          "name": "maxSupply",
          "type": "uint256"
        }
      ],
      "name": "getFeeOnTransfer",
      "outputs": [
        {
          "internalType": "uint256",
          "name": "",
          "type": "uint256"
        }
      ],
      "stateMutability": "pure",
      "type": "function"
    },
    {
      "inputs": [
        {
          "internalType": "uint256",
          "name": "b",
          "type": "uint256"
        },
        {
          "internalType": "uint256",
          "name": "B",
          "type": "uint256"
        },
        {
          "internalType": "uint256",
          "name": "t",
          "type": "uint256"
        },
        {
          "internalType": "uint256",
          "name": "T",
          "type": "uint256"
        }
      ],
      "name": "getSlipAdustment",
      "outputs": [
        {
          "internalType": "uint256",
          "name": "",
          "type": "uint256"
        }
      ],
      "stateMutability": "view",
      "type": "function"
    },
    {
      "inputs": [
        {
          "internalType": "address",
          "name": "_vault",
          "type": "address"
        }
      ],
      "name": "init",
      "outputs": [],
      "stateMutability": "nonpayable",
      "type": "function"
    }
  ],
  "bytecode": "0x6080604052670de0b6b3a764000060005534801561001c57600080fd5b50610a978061002c6000396000f3fe608060405234801561001057600080fd5b506004361061010b5760003560e01c8063701baaf3116100a2578063b80e44b811610071578063b80e44b814610221578063c0c4a72414610234578063c5c11ee914610247578063db39dc791461025a578063ec1753f11461026d5761010b565b8063701baaf3146101d5578063714270ab146101e8578063896a708c146101fb5780638b18b1151461020e5761010b565b80634a127651116100de5780634a12765114610189578063595a88a71461019c5780635f2c12e8146101af5780636da0f1fc146101c25761010b565b806319ab453c146101105780631ba326c4146101255780632db6e4881461014b578063411557d11461015e575b600080fd5b61012361011e3660046108c0565b610280565b005b610138610133366004610947565b6102af565b6040519081526020015b60405180910390f35b610138610159366004610903565b6102d6565b600154610171906001600160a01b031681565b6040516001600160a01b039091168152602001610142565b610138610197366004610947565b6102f8565b6101386101aa366004610972565b61039c565b6101386101bd3660046108da565b610417565b6101386101d0366004610972565b6104b2565b6101386101e3366004610947565b610562565b6101386101f6366004610903565b6105b2565b610138610209366004610947565b610616565b61013861021c366004610903565b610624565b61013861022f3660046108da565b610632565b6101386102423660046108da565b6106c4565b6101386102553660046109a3565b610761565b6101386102683660046108da565b6107f0565b61013861027b366004610947565b610883565b6001546001600160a01b03166102ac57600180546001600160a01b0319166001600160a01b0383161790555b50565b600082156102cf57826102c28584610a15565b6102cc91906109f5565b90505b9392505050565b60006102e282846109dd565b6102ee84612710610a15565b6102cf91906109f5565b6000806103058386610a15565b905060006103138580610a15565b61031e906002610a15565b9050600061032c8787610a15565b610337906002610a15565b905060006103458880610a15565b9050600081836103558688610a15565b61035f9190610a34565b61036991906109dd565b90506000886103788180610a15565b6103829190610a15565b905061038e81836109f5565b9a9950505050505050505050565b600080831180156103ad5750600082115b1561040f576000826103bf8587610a15565b6103c991906109f5565b6103d390876109dd565b90506000836103e28682610a15565b6103ec91906109f5565b6103f690866109dd565b905081811161040c576104098183610a34565b92505b50505b949350505050565b60015460405163903443b960e01b81526001600160a01b038481166004830152600092839283929091169063903443b990602401604080518083038186803b15801561046257600080fd5b505afa158015610476573d6000803e3d6000fd5b505050506040513d601f19601f8201168201806040525081019061049a9190610924565b915091506104a9848383610562565b95945050505050565b6000806104bf8486610a15565b905060006104cd8488610a15565b90506000866104dd896002610a15565b6104e791906109dd565b905060006104f586886109dd565b90506000838511156105125761050b8486610a34565b905061051f565b61051c8585610a34565b90505b600061052b8385610a15565b9050806000548361053c9190610a15565b61054691906109f5565b6000546105539190610a34565b9b9a5050505050505050505050565b600080826105708587610a15565b61057a9190610a15565b9050600061058885876109dd565b61059286886109dd565b61059c9190610a15565b90506105a881836109f5565b9695505050505050565b600061271083111580156105c4575060015b6106095760405162461bcd60e51b815260206004820152601260248201527104d75737420626520636f72726563742042560741b604482015260640160405180910390fd5b6102cf83612710846102af565b600080826105708680610a15565b60006102cf838360646102af565b60015460405163903443b960e01b81526001600160a01b038481166004830152600092839283929091169063903443b990602401604080518083038186803b15801561067d57600080fd5b505afa158015610691573d6000803e3d6000fd5b505050506040513d601f19601f820116820180604052508101906106b59190610924565b915091506104a9848284610562565b60015460405163903443b960e01b81526001600160a01b038481166004830152600092839283929091169063903443b990602401604080518083038186803b15801561070f57600080fd5b505afa158015610723573d6000803e3d6000fd5b505050506040513d601f19601f820116820180604052508101906107479190610924565b9092509050816107578286610a15565b6104a991906109f5565b60008161076f5750846104a9565b600061077d878787876104b2565b9050600061078b8787610a15565b905060006107998987610a15565b905060006107a78988610a15565b6107b2906002610a15565b9050600081836107c2868a610a15565b6107cc91906109dd565b6107d691906109f5565b6000549091506107e68683610a15565b61055391906109f5565b60015460405163903443b960e01b81526001600160a01b038481166004830152600092839283929091169063903443b990602401604080518083038186803b15801561083b57600080fd5b505afa15801561084f573d6000803e3d6000fd5b505050506040513d601f19601f820116820180604052508101906108739190610924565b9092509050806107578386610a15565b600061088f83856109dd565b61089a906002610a15565b6102c28584610a15565b80356001600160a01b03811681146108bb57600080fd5b919050565b6000602082840312156108d1578081fd5b6102cf826108a4565b600080604083850312156108ec578081fd5b6108f5836108a4565b946020939093013593505050565b60008060408385031215610915578182fd5b50508035926020909101359150565b60008060408385031215610936578182fd5b505080516020909101519092909150565b60008060006060848603121561095b578081fd5b505081359360208301359350604090920135919050565b60008060008060808587031215610987578081fd5b5050823594602084013594506040840135936060013592509050565b600080600080600060a086880312156109ba578081fd5b505083359560208501359550604085013594606081013594506080013592509050565b600082198211156109f0576109f0610a4b565b500190565b600082610a1057634e487b7160e01b81526012600452602481fd5b500490565b6000816000190483118215151615610a2f57610a2f610a4b565b500290565b600082821015610a4657610a46610a4b565b500390565b634e487b7160e01b600052601160045260246000fdfea2646970667358221220c8c2cadd9df4e41eb6c595737cb2c99321ac0216ab67e8e00debdbce95c9d4eb64736f6c63430008030033",
  "linkReferences": {},
  "deployedLinkReferences": {}
}