{
  "_format": "hh-sol-artifact-1",
  "contractName": "Utils",
  "sourceName": "contracts/Utils.sol",
  "abi": [
    {
      "inputs": [],
      "stateMutability": "nonpayable",
      "type": "constructor"
    },
    {
      "inputs": [],
      "name": "VADER",
      "outputs": [
        {
          "internalType": "address",
          "name": "",
          "type": "address"
        }
      ],
      "stateMutability": "view",
      "type": "function"
    },
    {
      "inputs": [
        {
          "internalType": "address",
          "name": "collateralAsset",
          "type": "address"
        },
        {
          "internalType": "address",
          "name": "debtAsset",
          "type": "address"
        }
      ],
      "name": "assetChecks",
      "outputs": [],
      "stateMutability": "nonpayable",
      "type": "function"
    },
    {
      "inputs": [
        {
          "internalType": "uint256",
          "name": "u",
          "type": "uint256"
        },
        {
          "internalType": "uint256",
          "name": "U",
          "type": "uint256"
        },
        {
          "internalType": "uint256",
          "name": "A",
          "type": "uint256"
        }
      ],
      "name": "calcAsymmetricShare",
      "outputs": [
        {
          "internalType": "uint256",
          "name": "",
          "type": "uint256"
        }
      ],
      "stateMutability": "pure",
      "type": "function"
    },
    {
      "inputs": [
        {
          "internalType": "uint256",
          "name": "B0",
          "type": "uint256"
        },
        {
          "internalType": "uint256",
          "name": "T0",
          "type": "uint256"
        },
        {
          "internalType": "uint256",
          "name": "B1",
          "type": "uint256"
        },
        {
          "internalType": "uint256",
          "name": "T1",
          "type": "uint256"
        }
      ],
      "name": "calcCoverage",
      "outputs": [
        {
          "internalType": "uint256",
          "name": "coverage",
          "type": "uint256"
        }
      ],
      "stateMutability": "pure",
      "type": "function"
    },
    {
      "inputs": [
        {
          "internalType": "uint256",
          "name": "b",
          "type": "uint256"
        },
        {
          "internalType": "uint256",
          "name": "B",
          "type": "uint256"
        },
        {
          "internalType": "uint256",
          "name": "t",
          "type": "uint256"
        },
        {
          "internalType": "uint256",
          "name": "T",
          "type": "uint256"
        },
        {
          "internalType": "uint256",
          "name": "P",
          "type": "uint256"
        }
      ],
      "name": "calcLiquidityUnits",
      "outputs": [
        {
          "internalType": "uint256",
          "name": "",
          "type": "uint256"
        }
      ],
      "stateMutability": "view",
      "type": "function"
    },
    {
      "inputs": [
        {
          "internalType": "uint256",
          "name": "bp",
          "type": "uint256"
        },
        {
          "internalType": "uint256",
          "name": "total",
          "type": "uint256"
        }
      ],
      "name": "calcPart",
      "outputs": [
        {
          "internalType": "uint256",
          "name": "",
          "type": "uint256"
        }
      ],
      "stateMutability": "pure",
      "type": "function"
    },
    {
      "inputs": [
        {
          "internalType": "uint256",
          "name": "part",
          "type": "uint256"
        },
        {
          "internalType": "uint256",
          "name": "total",
          "type": "uint256"
        },
        {
          "internalType": "uint256",
          "name": "amount",
          "type": "uint256"
        }
      ],
      "name": "calcShare",
      "outputs": [
        {
          "internalType": "uint256",
          "name": "share",
          "type": "uint256"
        }
      ],
      "stateMutability": "pure",
      "type": "function"
    },
    {
      "inputs": [
        {
          "internalType": "uint256",
          "name": "x",
          "type": "uint256"
        },
        {
          "internalType": "uint256",
          "name": "X",
          "type": "uint256"
        },
        {
          "internalType": "uint256",
          "name": "Y",
          "type": "uint256"
        }
      ],
      "name": "calcSwapFee",
      "outputs": [
        {
          "internalType": "uint256",
          "name": "",
          "type": "uint256"
        }
      ],
      "stateMutability": "pure",
      "type": "function"
    },
    {
      "inputs": [
        {
          "internalType": "uint256",
          "name": "x",
          "type": "uint256"
        },
        {
          "internalType": "uint256",
          "name": "X",
          "type": "uint256"
        },
        {
          "internalType": "uint256",
          "name": "Y",
          "type": "uint256"
        }
      ],
      "name": "calcSwapOutput",
      "outputs": [
        {
          "internalType": "uint256",
          "name": "",
          "type": "uint256"
        }
      ],
      "stateMutability": "pure",
      "type": "function"
    },
    {
      "inputs": [
        {
          "internalType": "uint256",
          "name": "x",
          "type": "uint256"
        },
        {
          "internalType": "uint256",
          "name": "X",
          "type": "uint256"
        }
      ],
      "name": "calcSwapSlip",
      "outputs": [
        {
          "internalType": "uint256",
          "name": "",
          "type": "uint256"
        }
      ],
      "stateMutability": "pure",
      "type": "function"
    },
    {
      "inputs": [
        {
          "internalType": "address",
          "name": "token",
          "type": "address"
        },
        {
          "internalType": "uint256",
          "name": "amount",
          "type": "uint256"
        }
      ],
      "name": "calcSwapValueInBase",
      "outputs": [
        {
          "internalType": "uint256",
          "name": "",
          "type": "uint256"
        }
      ],
      "stateMutability": "view",
      "type": "function"
    },
    {
      "inputs": [
        {
          "internalType": "address",
          "name": "token",
          "type": "address"
        },
        {
          "internalType": "uint256",
          "name": "amount",
          "type": "uint256"
        }
      ],
      "name": "calcSwapValueInToken",
      "outputs": [
        {
          "internalType": "uint256",
          "name": "",
          "type": "uint256"
        }
      ],
      "stateMutability": "view",
      "type": "function"
    },
    {
      "inputs": [
        {
          "internalType": "uint256",
          "name": "b",
          "type": "uint256"
        },
        {
          "internalType": "uint256",
          "name": "B",
          "type": "uint256"
        },
        {
          "internalType": "uint256",
          "name": "P",
          "type": "uint256"
        }
      ],
      "name": "calcSynthUnits",
      "outputs": [
        {
          "internalType": "uint256",
          "name": "",
          "type": "uint256"
        }
      ],
      "stateMutability": "pure",
      "type": "function"
    },
    {
      "inputs": [
        {
          "internalType": "address",
          "name": "token",
          "type": "address"
        },
        {
          "internalType": "uint256",
          "name": "amount",
          "type": "uint256"
        }
      ],
      "name": "calcValueInBase",
      "outputs": [
        {
          "internalType": "uint256",
          "name": "value",
          "type": "uint256"
        }
      ],
      "stateMutability": "view",
      "type": "function"
    },
    {
      "inputs": [
        {
          "internalType": "address",
          "name": "token",
          "type": "address"
        },
        {
          "internalType": "uint256",
          "name": "amount",
          "type": "uint256"
        }
      ],
      "name": "calcValueInToken",
      "outputs": [
        {
          "internalType": "uint256",
          "name": "value",
          "type": "uint256"
        }
      ],
      "stateMutability": "view",
      "type": "function"
    },
    {
      "inputs": [
        {
          "internalType": "address",
          "name": "token1",
          "type": "address"
        },
        {
          "internalType": "uint256",
          "name": "amount",
          "type": "uint256"
        },
        {
          "internalType": "address",
          "name": "token2",
          "type": "address"
        }
      ],
      "name": "calcValueOfTokenInToken",
      "outputs": [
        {
          "internalType": "uint256",
          "name": "value",
          "type": "uint256"
        }
      ],
      "stateMutability": "view",
      "type": "function"
    },
    {
      "inputs": [
        {
          "internalType": "address",
          "name": "member",
          "type": "address"
        },
        {
          "internalType": "uint256",
          "name": "collateral",
          "type": "uint256"
        },
        {
          "internalType": "address",
          "name": "collateralAsset",
          "type": "address"
        },
        {
          "internalType": "address",
          "name": "debtAsset",
          "type": "address"
        }
      ],
      "name": "getCollateralValueInBase",
      "outputs": [
        {
          "internalType": "uint256",
          "name": "debt",
          "type": "uint256"
        },
        {
          "internalType": "uint256",
          "name": "baseValue",
          "type": "uint256"
        }
      ],
      "stateMutability": "view",
      "type": "function"
    },
    {
      "inputs": [
        {
          "internalType": "address",
          "name": "member",
          "type": "address"
        },
        {
          "internalType": "address",
          "name": "token",
          "type": "address"
        }
      ],
      "name": "getCoverage",
      "outputs": [
        {
          "internalType": "uint256",
          "name": "",
          "type": "uint256"
        }
      ],
      "stateMutability": "view",
      "type": "function"
    },
    {
      "inputs": [
        {
          "internalType": "address",
          "name": "collateralAsset",
          "type": "address"
        },
        {
          "internalType": "address",
          "name": "debtAsset",
          "type": "address"
        }
      ],
      "name": "getDebtLoading",
      "outputs": [
        {
          "internalType": "uint256",
          "name": "",
          "type": "uint256"
        }
      ],
      "stateMutability": "view",
      "type": "function"
    },
    {
      "inputs": [
        {
          "internalType": "address",
          "name": "member",
          "type": "address"
        },
        {
          "internalType": "uint256",
          "name": "debt",
          "type": "uint256"
        },
        {
          "internalType": "address",
          "name": "collateralAsset",
          "type": "address"
        },
        {
          "internalType": "address",
          "name": "debtAsset",
          "type": "address"
        }
      ],
      "name": "getDebtValueInCollateral",
      "outputs": [
        {
          "internalType": "uint256",
          "name": "",
          "type": "uint256"
        },
        {
          "internalType": "uint256",
          "name": "",
          "type": "uint256"
        }
      ],
      "stateMutability": "view",
      "type": "function"
    },
    {
      "inputs": [
        {
          "internalType": "uint256",
          "name": "totalSupply",
          "type": "uint256"
        },
        {
          "internalType": "uint256",
          "name": "maxSupply",
          "type": "uint256"
        }
      ],
      "name": "getFeeOnTransfer",
      "outputs": [
        {
          "internalType": "uint256",
          "name": "",
          "type": "uint256"
        }
      ],
      "stateMutability": "pure",
      "type": "function"
    },
    {
      "inputs": [
        {
          "internalType": "address",
          "name": "collateralAsset",
          "type": "address"
        },
        {
          "internalType": "address",
          "name": "debtAsset",
          "type": "address"
        },
        {
          "internalType": "uint256",
          "name": "timeElapsed",
          "type": "uint256"
        }
      ],
      "name": "getInterestOwed",
      "outputs": [
        {
          "internalType": "uint256",
          "name": "interestOwed",
          "type": "uint256"
        }
      ],
      "stateMutability": "view",
      "type": "function"
    },
    {
      "inputs": [
        {
          "internalType": "address",
          "name": "collateralAsset",
          "type": "address"
        },
        {
          "internalType": "address",
          "name": "debtAsset",
          "type": "address"
        }
      ],
      "name": "getInterestPayment",
      "outputs": [
        {
          "internalType": "uint256",
          "name": "",
          "type": "uint256"
        }
      ],
      "stateMutability": "view",
      "type": "function"
    },
    {
      "inputs": [
        {
          "internalType": "uint256",
          "name": "basisPoints",
          "type": "uint256"
        },
        {
          "internalType": "address",
          "name": "token",
          "type": "address"
        },
        {
          "internalType": "address",
          "name": "member",
          "type": "address"
        }
      ],
      "name": "getMemberShare",
      "outputs": [
        {
          "internalType": "uint256",
          "name": "units",
          "type": "uint256"
        },
        {
          "internalType": "uint256",
          "name": "outputBase",
          "type": "uint256"
        },
        {
          "internalType": "uint256",
          "name": "outputToken",
          "type": "uint256"
        }
      ],
      "stateMutability": "view",
      "type": "function"
    },
    {
      "inputs": [
        {
          "internalType": "address",
          "name": "member",
          "type": "address"
        },
        {
          "internalType": "address",
          "name": "token",
          "type": "address"
        },
        {
          "internalType": "uint256",
          "name": "basisPoints",
          "type": "uint256"
        },
        {
          "internalType": "uint256",
          "name": "timeForFullProtection",
          "type": "uint256"
        }
      ],
      "name": "getProtection",
      "outputs": [
        {
          "internalType": "uint256",
          "name": "protection",
          "type": "uint256"
        }
      ],
      "stateMutability": "view",
      "type": "function"
    },
    {
      "inputs": [
        {
          "internalType": "uint256",
          "name": "amount",
          "type": "uint256"
        },
        {
          "internalType": "uint256",
          "name": "rewardReductionFactor",
          "type": "uint256"
        }
      ],
      "name": "getReducedShare",
      "outputs": [
        {
          "internalType": "uint256",
          "name": "",
          "type": "uint256"
        }
      ],
      "stateMutability": "pure",
      "type": "function"
    },
    {
      "inputs": [
        {
          "internalType": "address",
          "name": "token",
          "type": "address"
        },
        {
          "internalType": "uint256",
          "name": "rewardReductionFactor",
          "type": "uint256"
        }
      ],
      "name": "getRewardShare",
      "outputs": [
        {
          "internalType": "uint256",
          "name": "rewardShare",
          "type": "uint256"
        }
      ],
      "stateMutability": "view",
      "type": "function"
    },
    {
      "inputs": [
        {
          "internalType": "uint256",
          "name": "b",
          "type": "uint256"
        },
        {
          "internalType": "uint256",
          "name": "B",
          "type": "uint256"
        },
        {
          "internalType": "uint256",
          "name": "t",
          "type": "uint256"
        },
        {
          "internalType": "uint256",
          "name": "T",
          "type": "uint256"
        }
      ],
      "name": "getSlipAdustment",
      "outputs": [
        {
          "internalType": "uint256",
          "name": "",
          "type": "uint256"
        }
      ],
      "stateMutability": "view",
      "type": "function"
    },
    {
      "inputs": [
        {
          "internalType": "address",
          "name": "_vader",
          "type": "address"
        }
      ],
      "name": "init",
      "outputs": [],
      "stateMutability": "nonpayable",
      "type": "function"
    },
    {
      "inputs": [
        {
          "internalType": "address",
          "name": "token",
          "type": "address"
        }
      ],
      "name": "isBase",
      "outputs": [
        {
          "internalType": "bool",
          "name": "base",
          "type": "bool"
        }
      ],
      "stateMutability": "view",
      "type": "function"
    },
    {
      "inputs": [
        {
          "internalType": "address",
          "name": "token",
          "type": "address"
        }
      ],
      "name": "isPool",
      "outputs": [
        {
          "internalType": "bool",
          "name": "pool",
          "type": "bool"
        }
      ],
      "stateMutability": "view",
      "type": "function"
    },
    {
      "inputs": [
        {
          "internalType": "address",
          "name": "token",
          "type": "address"
        },
        {
          "internalType": "uint256",
          "name": "bound",
          "type": "uint256"
        },
        {
          "internalType": "bool",
          "name": "inside",
          "type": "bool"
        },
        {
          "internalType": "uint256",
          "name": "targetPrice",
          "type": "uint256"
        }
      ],
      "name": "requirePriceBounds",
      "outputs": [],
      "stateMutability": "view",
      "type": "function"
    },
    {
      "inputs": [
        {
          "internalType": "uint256[]",
          "name": "array",
          "type": "uint256[]"
        }
      ],
      "name": "sortArray",
      "outputs": [
        {
          "internalType": "uint256[]",
          "name": "",
          "type": "uint256[]"
        }
      ],
      "stateMutability": "pure",
      "type": "function"
    }
  ],
  "bytecode": "0x6080604052670de0b6b3a76400006000556127106001556301e1338060025534801561002a57600080fd5b50612f818061003a6000396000f3fe608060405234801561001057600080fd5b50600436106101fb5760003560e01c8063896a708c1161011a578063c2886b8a116100ad578063db39dc791161007c578063db39dc7914610481578063dcf3f1e014610494578063e379976e146104a7578063eb7d5ddf146104c7578063ec1753f1146104da576101fb565b8063c2886b8a14610435578063c5c11ee914610448578063cf975e7b1461045b578063d549a1ec1461046e576101fb565b8063b4951e4a116100e9578063b4951e4a146103e9578063b80e44b8146103fc578063bd2bdaf21461040f578063c0c4a72414610422576101fb565b8063896a708c1461039d5780638b18b115146103b0578063945821af146103c35780639e3f1e8e146103d6576101fb565b80635b16ebb7116101925780636e899aa3116101615780636e899aa3146103365780637011add314610349578063701baaf314610377578063714270ab1461038a576101fb565b80635b16ebb7146102c55780635c22141f146102e85780635f2c12e8146103105780636da0f1fc14610323576101fb565b80632db6e488116101ce5780632db6e488146102795780634a1276511461028c578063595a88a71461029f5780635b0b602d146102b2576101fb565b8063016813151461020057806312a86ffb1461023057806319ab453c146102515780631ba326c414610266575b600080fd5b600354610213906001600160a01b031681565b6040516001600160a01b0390911681526020015b60405180910390f35b61024361023e366004612a4f565b6104ed565b604051908152602001610227565b61026461025f366004612a17565b610875565b005b610243610274366004612d7f565b6108a4565b610243610287366004612d3b565b6108d7565b61024361029a366004612d7f565b6108f9565b6102436102ad366004612daa565b61099d565b6102436102c0366004612ac7565b610a18565b6102d86102d3366004612a17565b610b75565b6040519015158152602001610227565b6102fb6102f6366004612b78565b610c91565b60408051928352602083019190915201610227565b61024361031e366004612b0c565b610f02565b610243610331366004612daa565b610fa1565b6102d8610344366004612a17565b611051565b61035c610357366004612d05565b611095565b60408051938452602084019290925290820152606001610227565b610243610385366004612d7f565b6112b0565b610243610398366004612d3b565b6112f6565b6102436103ab366004612d7f565b611351565b6102436103be366004612d3b565b61135f565b6102436103d1366004612a87565b61136d565b6102436103e4366004612a4f565b611440565b6102436103f7366004612b0c565b611568565b61024361040a366004612b0c565b6119ae565b61024361041d366004612d3b565b611a44565b610243610430366004612b0c565b611a52565b610243610443366004612a4f565b611b18565b610243610456366004612ddb565b611bc3565b610264610469366004612a4f565b611c52565b6102fb61047c366004612b78565b612167565b61024361048f366004612b0c565b6123d8565b6102436104a2366004612b37565b612483565b6104ba6104b5366004612c11565b612493565b6040516102279190612e2f565b6102646104d5366004612bca565b6125ed565b6102436104e8366004612d7f565b6126e5565b6000806104f8612706565b6001600160a01b031663ff8b83a685856040518363ffffffff1660e01b8152600401610525929190612e15565b60206040518083038186803b15801561053d57600080fd5b505afa158015610551573d6000803e3d6000fd5b505050506040513d601f19601f820116820180604052508101906105759190612ced565b90506000610581612706565b6001600160a01b031663cfa701c586866040518363ffffffff1660e01b81526004016105ae929190612e15565b60206040518083038186803b1580156105c657600080fd5b505afa1580156105da573d6000803e3d6000fd5b505050506040513d601f19601f820116820180604052508101906105fe9190612ced565b9050600061060a6127f8565b6001600160a01b03166324ef375086886040518363ffffffff1660e01b8152600401610637929190612e15565b60206040518083038186803b15801561064f57600080fd5b505afa158015610663573d6000803e3d6000fd5b505050506040513d601f19601f820116820180604052508101906106879190612ced565b90506000610796826106976127f8565b604051630fefbc0960e01b81526001600160a01b038a811660048301529190911690630fefbc099060240160206040518083038186803b1580156106da57600080fd5b505afa1580156106ee573d6000803e3d6000fd5b505050506040513d601f19601f820116820180604052508101906107129190612ced565b61071a6127f8565b60405163b34c8afb60e01b81526001600160a01b038b81166004830152919091169063b34c8afb906024015b60206040518083038186803b15801561075e57600080fd5b505afa158015610772573d6000803e3d6000fd5b505050506040513d601f19601f820116820180604052508101906102749190612ced565b90506000610859836107a66127f8565b604051630fefbc0960e01b81526001600160a01b038b811660048301529190911690630fefbc099060240160206040518083038186803b1580156107e957600080fd5b505afa1580156107fd573d6000803e3d6000fd5b505050506040513d601f19601f820116820180604052508101906108219190612ced565b6108296127f8565b60405163e6ae1a9760e01b81526001600160a01b038c81166004830152919091169063e6ae1a9790602401610746565b90506108678585848461099d565b955050505050505b92915050565b6003546001600160a01b03166108a157600380546001600160a01b0319166001600160a01b0383161790555b50565b6000828411156108b2578293505b82156108d057826108c38584612eab565b6108cd9190612e8b565b90505b9392505050565b60006108e38284612e73565b6108ef84612710612eab565b6108d09190612e8b565b6000806109068386612eab565b905060006109148580612eab565b61091f906002612eab565b9050600061092d8787612eab565b610938906002612eab565b905060006109468880612eab565b9050600081836109568688612eab565b6109609190612eca565b61096a9190612e73565b90506000886109798180612eab565b6109839190612eab565b905061098f8183612e8b565b9a9950505050505050505050565b600080851180156109ae5750600082115b15610a10576000826109c08587612eab565b6109ca9190612e8b565b6109d49087612e73565b90506000836109e38682612eab565b6109ed9190612e8b565b6109f79086612e73565b9050818111610a0d57610a0a8183612eca565b92505b50505b949350505050565b600080610a2586866104ed565b9050610a2f612706565b604051631dd35c3960e21b81526001600160a01b038781166004830152919091169063774d70e49060240160206040518083038186803b158015610a7257600080fd5b505afa158015610a86573d6000803e3d6000fd5b505050506040513d601f19601f82011682018060405250810190610aaa9190612cd1565b15610b61576000610ab9612706565b6001600160a01b0316636a87def588886040518363ffffffff1660e01b8152600401610ae6929190612e15565b60206040518083038186803b158015610afe57600080fd5b505afa158015610b12573d6000803e3d6000fd5b505050506040513d601f19601f82011682018060405250810190610b369190612ced565b610b409042612eca565b9050838111610b5b57610b548185846108a4565b9250610b5f565b8192505b505b610b6b84836112f6565b9695505050505050565b6000610b7f6127f8565b604051636c66769560e11b81526001600160a01b038481166004830152919091169063d8cced2a9060240160206040518083038186803b158015610bc257600080fd5b505afa158015610bd6573d6000803e3d6000fd5b505050506040513d601f19601f82011682018060405250810190610bfa9190612cd1565b80610c835750610c086127f8565b60405163643fd21560e11b81526001600160a01b038481166004830152919091169063c87fa42a9060240160206040518083038186803b158015610c4b57600080fd5b505afa158015610c5f573d6000803e3d6000fd5b505050506040513d601f19601f82011682018060405250810190610c839190612cd1565b15610c8c575060015b919050565b60008080612710610ca487611a0a612eab565b610cae9190612e8b565b9050610cb985611051565b15610cc657809150610eec565b610ccf85610b75565b15610de757610de081610ce06127f8565b6001600160a01b03166324ef3750888b6040518363ffffffff1660e01b8152600401610d0d929190612e15565b60206040518083038186803b158015610d2557600080fd5b505afa158015610d39573d6000803e3d6000fd5b505050506040513d601f19601f82011682018060405250810190610d5d9190612ced565b610d656127f8565b60405163b34c8afb60e01b81526001600160a01b038a81166004830152919091169063b34c8afb9060240160206040518083038186803b158015610da857600080fd5b505afa158015610dbc573d6000803e3d6000fd5b505050506040513d601f19601f8201168201806040525081019061029a9190612ced565b9150610eec565b610def6128ad565b604051632f011bf560e11b81526001600160a01b0387811660048301529190911690635e0237ea9060240160206040518083038186803b158015610e3257600080fd5b505afa158015610e46573d6000803e3d6000fd5b505050506040513d601f19601f82011682018060405250810190610e6a9190612cd1565b15610eec57610ee9856001600160a01b03166382bfefc86040518163ffffffff1660e01b815260040160206040518083038186803b158015610eab57600080fd5b505afa158015610ebf573d6000803e3d6000fd5b505050506040513d601f19601f82011682018060405250810190610ee39190612a33565b826119ae565b91505b610ef68483610f02565b92505094509492505050565b6000806000610f0f6127f8565b60405163903443b960e01b81526001600160a01b038781166004830152919091169063903443b990602401604080518083038186803b158015610f5157600080fd5b505afa158015610f65573d6000803e3d6000fd5b505050506040513d601f19601f82011682018060405250810190610f899190612d5c565b91509150610f988483836112b0565b95945050505050565b600080610fae8486612eab565b90506000610fbc8488612eab565b9050600086610fcc896002612eab565b610fd69190612e73565b90506000610fe48688612e73565b905060008385111561100157610ffa8486612eca565b905061100e565b61100b8585612eca565b90505b600061101a8385612eab565b9050806000548361102b9190612eab565b6110359190612e8b565b6000546110429190612eca565b9b9a5050505050505050505050565b6003546000906001600160a01b03838116911614806110885750611073612962565b6001600160a01b0316826001600160a01b0316145b15610c8c57506001610c8c565b6000806000611123866110a66127f8565b6001600160a01b03166324ef375088886040518363ffffffff1660e01b81526004016110d3929190612e15565b60206040518083038186803b1580156110eb57600080fd5b505afa1580156110ff573d6000803e3d6000fd5b505050506040513d601f19601f820116820180604052508101906103989190612ced565b92506111e4836111316127f8565b604051630fefbc0960e01b81526001600160a01b0389811660048301529190911690630fefbc099060240160206040518083038186803b15801561117457600080fd5b505afa158015611188573d6000803e3d6000fd5b505050506040513d601f19601f820116820180604052508101906111ac9190612ced565b6111b46127f8565b60405163b34c8afb60e01b81526001600160a01b038a81166004830152919091169063b34c8afb90602401610746565b91506112a5836111f26127f8565b604051630fefbc0960e01b81526001600160a01b0389811660048301529190911690630fefbc099060240160206040518083038186803b15801561123557600080fd5b505afa158015611249573d6000803e3d6000fd5b505050506040513d601f19601f8201168201806040525081019061126d9190612ced565b6112756127f8565b60405163e6ae1a9760e01b81526001600160a01b038a81166004830152919091169063e6ae1a9790602401610746565b905093509350939050565b600080826112be8587612eab565b6112c89190612eab565b905060006112d68587612e73565b6112e08688612e73565b6112ea9190612eab565b9050610b6b8183612e8b565b60006127108311156113445760405162461bcd60e51b815260206004820152601260248201527104d75737420626520636f72726563742042560741b60448201526064015b60405180910390fd5b6108d083612710846108a4565b600080826112be8680612eab565b60006108d0838360646108a4565b600080611381836002546102748888611b18565b905061138c85611051565b156113a25761139b84826123d8565b9150611438565b6113aa6128ad565b604051632f011bf560e11b81526001600160a01b0387811660048301529190911690635e0237ea9060240160206040518083038186803b1580156113ed57600080fd5b505afa158015611401573d6000803e3d6000fd5b505050506040513d601f19601f820116820180604052508101906114259190612cd1565b1561143857611435848287612483565b91505b509392505050565b60008061144b612706565b6001600160a01b03166382eb723385856040518363ffffffff1660e01b8152600401611478929190612e15565b60206040518083038186803b15801561149057600080fd5b505afa1580156114a4573d6000803e3d6000fd5b505050506040513d601f19601f820116820180604052508101906114c89190612ced565b905060006114d46127f8565b60405163e6ae1a9760e01b81526001600160a01b038681166004830152919091169063e6ae1a979060240160206040518083038186803b15801561151757600080fd5b505afa15801561152b573d6000803e3d6000fd5b505050506040513d601f19601f8201168201806040525081019061154f9190612ced565b90508061155e83612710612eab565b610f989190612e8b565b600354604080516303c0fa6960e11b815290516000926001600160a01b031691630781f4d2916004808301926020929190829003018186803b1580156115ad57600080fd5b505afa1580156115c1573d6000803e3d6000fd5b505050506040513d601f19601f820116820180604052508101906115e59190612cd1565b801561166f57506115f4612706565b604051631dd35c3960e21b81526001600160a01b038581166004830152919091169063774d70e49060240160206040518083038186803b15801561163757600080fd5b505afa15801561164b573d6000803e3d6000fd5b505050506040513d601f19601f8201168201806040525081019061166f9190612cd1565b1561086f57600061167e6127f8565b60405163b34c8afb60e01b81526001600160a01b038681166004830152919091169063b34c8afb9060240160206040518083038186803b1580156116c157600080fd5b505afa1580156116d5573d6000803e3d6000fd5b505050506040513d601f19601f820116820180604052508101906116f99190612ced565b90506117036127f8565b60405163643fd21560e11b81526001600160a01b038681166004830152919091169063c87fa42a9060240160206040518083038186803b15801561174657600080fd5b505afa15801561175a573d6000803e3d6000fd5b505050506040513d601f19601f8201168201806040525081019061177e9190612cd1565b15611855576000611841826117916127f8565b6001600160a01b031663a9652dca6040518163ffffffff1660e01b815260040160206040518083038186803b1580156117c957600080fd5b505afa1580156117dd573d6000803e3d6000fd5b505050506040513d601f19601f820116820180604052508101906118019190612ced565b611809612706565b6001600160a01b031663de6ad44e6040518163ffffffff1660e01b815260040160206040518083038186803b15801561075e57600080fd5b905061184d8185611a44565b9250506119a7565b61185d6127f8565b604051636c66769560e11b81526001600160a01b038681166004830152919091169063d8cced2a9060240160206040518083038186803b1580156118a057600080fd5b505afa1580156118b4573d6000803e3d6000fd5b505050506040513d601f19601f820116820180604052508101906118d89190612cd1565b156119a757600061199b826118eb6127f8565b6001600160a01b031663dd5a2bd86040518163ffffffff1660e01b815260040160206040518083038186803b15801561192357600080fd5b505afa158015611937573d6000803e3d6000fd5b505050506040513d601f19601f8201168201806040525081019061195b9190612ced565b611963612706565b6001600160a01b03166362cea3406040518163ffffffff1660e01b815260040160206040518083038186803b15801561075e57600080fd5b9050610f988185611a44565b5092915050565b60008060006119bb6127f8565b60405163903443b960e01b81526001600160a01b038781166004830152919091169063903443b990602401604080518083038186803b1580156119fd57600080fd5b505afa158015611a11573d6000803e3d6000fd5b505050506040513d601f19601f82011682018060405250810190611a359190612d5c565b91509150610f988482846112b0565b60006108d0600183856108a4565b6000806000611a5f6127f8565b60405163903443b960e01b81526001600160a01b038781166004830152919091169063903443b990602401604080518083038186803b158015611aa157600080fd5b505afa158015611ab5573d6000803e3d6000fd5b505050506040513d601f19601f82011682018060405250810190611ad99190612d5c565b91509150600082118015611aed5750600081115b15611b105781611afd8286612eab565b611b079190612e8b565b9250505061086f565b505092915050565b600080611b258484611440565b9050612710611b32612706565b6001600160a01b03166382eb723386866040518363ffffffff1660e01b8152600401611b5f929190612e15565b60206040518083038186803b158015611b7757600080fd5b505afa158015611b8b573d6000803e3d6000fd5b505050506040513d601f19601f82011682018060405250810190611baf9190612ced565b611bb99083612eab565b610a109190612e8b565b600081611bd1575084610f98565b6000611bdf87878787610fa1565b90506000611bed8787612eab565b90506000611bfb8987612eab565b90506000611c098988612eab565b611c14906002612eab565b905060008183611c24868a612eab565b611c2e9190612e73565b611c389190612e8b565b600054909150611c488683612eab565b6110429190612e8b565b6003546001600160a01b0383811691161415611d2957611c706127f8565b604051636c66769560e11b81526001600160a01b038381166004830152919091169063d8cced2a906024015b60206040518083038186803b158015611cb457600080fd5b505afa158015611cc8573d6000803e3d6000fd5b505050506040513d601f19601f82011682018060405250810190611cec9190612cd1565b611d245760405162461bcd60e51b815260206004820152600960248201526842616420436f6d626f60b81b604482015260640161133b565b612163565b611d31612962565b6001600160a01b0316826001600160a01b03161415611d8257611d526127f8565b60405163643fd21560e11b81526001600160a01b038381166004830152919091169063c87fa42a90602401611c9c565b611d8a6127f8565b604051632f011bf560e11b81526001600160a01b0384811660048301529190911690635e0237ea90602401602060405180830381600087803b158015611dcf57600080fd5b505af1158015611de3573d6000803e3d6000fd5b505050506040513d601f19601f82011682018060405250810190611e079190612cd1565b8015611f0c5750611e166127f8565b6001600160a01b031663d8cced2a836001600160a01b03166382bfefc86040518163ffffffff1660e01b815260040160206040518083038186803b158015611e5d57600080fd5b505afa158015611e71573d6000803e3d6000fd5b505050506040513d601f19601f82011682018060405250810190611e959190612a33565b6040516001600160e01b031960e084901b1681526001600160a01b03909116600482015260240160206040518083038186803b158015611ed457600080fd5b505afa158015611ee8573d6000803e3d6000fd5b505050506040513d601f19601f82011682018060405250810190611f0c9190612cd1565b15611f1957611c706127f8565b611f216127f8565b604051632f011bf560e11b81526001600160a01b0384811660048301529190911690635e0237ea90602401602060405180830381600087803b158015611f6657600080fd5b505af1158015611f7a573d6000803e3d6000fd5b505050506040513d601f19601f82011682018060405250810190611f9e9190612cd1565b80156120a35750611fad6127f8565b6001600160a01b031663c87fa42a836001600160a01b03166382bfefc86040518163ffffffff1660e01b815260040160206040518083038186803b158015611ff457600080fd5b505afa158015612008573d6000803e3d6000fd5b505050506040513d601f19601f8201168201806040525081019061202c9190612a33565b6040516001600160e01b031960e084901b1681526001600160a01b03909116600482015260240160206040518083038186803b15801561206b57600080fd5b505afa15801561207f573d6000803e3d6000fd5b505050506040513d601f19601f820116820180604052508101906120a39190612cd1565b15612163576120b06127f8565b60405163643fd21560e11b81526001600160a01b038381166004830152919091169063c87fa42a9060240160206040518083038186803b1580156120f357600080fd5b505afa158015612107573d6000803e3d6000fd5b505050506040513d601f19601f8201168201806040525081019061212b9190612cd1565b6121635760405162461bcd60e51b815260206004820152600960248201526842616420436f6d626f60b81b604482015260640161133b565b5050565b6000806000612174612706565b60405163cbc17db360e01b81526001600160a01b03898116600483015287811660248301528681166044830152919091169063cbc17db39060640160206040518083038186803b1580156121c757600080fd5b505afa1580156121db573d6000803e3d6000fd5b505050506040513d601f19601f820116820180604052508101906121ff9190612ced565b9050600061220b612706565b60405163fde3bbe960e01b81526001600160a01b038a8116600483015288811660248301528781166044830152919091169063fde3bbe99060640160206040518083038186803b15801561225e57600080fd5b505afa158015612272573d6000803e3d6000fd5b505050506040513d601f19601f820116820180604052508101906122969190612ced565b905060006122a2612706565b6001600160a01b031663e672f6ad88886040518363ffffffff1660e01b81526004016122cf929190612e15565b60206040518083038186803b1580156122e757600080fd5b505afa1580156122fb573d6000803e3d6000fd5b505050506040513d601f19601f8201168201806040525081019061231f9190612ced565b9050600061232b612706565b6001600160a01b031663e0f52db389896040518363ffffffff1660e01b8152600401612358929190612e15565b60206040518083038186803b15801561237057600080fd5b505afa158015612384573d6000803e3d6000fd5b505050506040513d601f19601f820116820180604052508101906123a89190612ced565b905060006123b78484846108a4565b905060006123c68b87876108a4565b9c919b50909950505050505050505050565b60008060006123e56127f8565b60405163903443b960e01b81526001600160a01b038781166004830152919091169063903443b990602401604080518083038186803b15801561242757600080fd5b505afa15801561243b573d6000803e3d6000fd5b505050506040513d601f19601f8201168201806040525081019061245f9190612d5c565b915091506000821180156124735750600081115b15611b105780611afd8386612eab565b60006108cd8261043086866123d8565b805160609060005b818110156125e55760006124b0826001612e73565b90505b828110156125d2578481815181106124db57634e487b7160e01b600052603260045260246000fd5b602002602001015185838151811061250357634e487b7160e01b600052603260045260246000fd5b602002602001015111156125c057600085838151811061253357634e487b7160e01b600052603260045260246000fd5b6020026020010151905085828151811061255d57634e487b7160e01b600052603260045260246000fd5b602002602001015186848151811061258557634e487b7160e01b600052603260045260246000fd5b602002602001018181525050808683815181106125b257634e487b7160e01b600052603260045260246000fd5b602002602001018181525050505b806125ca81612ee1565b9150506124b3565b50806125dd81612ee1565b91505061249b565b509192915050565b60006125fb856000546123d8565b90506000612616856001546126109190612eca565b846112f6565b6001549091506000906126298782612e73565b6126339086612eab565b61263d9190612e8b565b90508415612693578183101580156126555750808311155b61268e5760405162461bcd60e51b815260206004820152600a6024820152694e6f7420696e7369646560b01b604482015260640161133b565b6126dc565b81831115806126a25750808310155b6126dc5760405162461bcd60e51b815260206004820152600b60248201526a4e6f74206f75747369646560a81b604482015260640161133b565b50505050505050565b60006126f18385612e73565b6126fc906002612eab565b6108c38584612eab565b60035460408051634c7d5e9d60e11b815290516000926001600160a01b0316916398fabd3a916004808301926020929190829003018186803b15801561274b57600080fd5b505afa15801561275f573d6000803e3d6000fd5b505050506040513d601f19601f820116820180604052508101906127839190612a33565b6001600160a01b03166332fe7b266040518163ffffffff1660e01b815260040160206040518083038186803b1580156127bb57600080fd5b505afa1580156127cf573d6000803e3d6000fd5b505050506040513d601f19601f820116820180604052508101906127f39190612a33565b905090565b60035460408051634c7d5e9d60e11b815290516000926001600160a01b0316916398fabd3a916004808301926020929190829003018186803b15801561283d57600080fd5b505afa158015612851573d6000803e3d6000fd5b505050506040513d601f19601f820116820180604052508101906128759190612a33565b6001600160a01b031663ebccb5b26040518163ffffffff1660e01b815260040160206040518083038186803b1580156127bb57600080fd5b60035460408051634c7d5e9d60e11b815290516000926001600160a01b0316916398fabd3a916004808301926020929190829003018186803b1580156128f257600080fd5b505afa158015612906573d6000803e3d6000fd5b505050506040513d601f19601f8201168201806040525081019061292a9190612a33565b6001600160a01b0316632dd310006040518163ffffffff1660e01b815260040160206040518083038186803b1580156127bb57600080fd5b60035460408051634c7d5e9d60e11b815290516000926001600160a01b0316916398fabd3a916004808301926020929190829003018186803b1580156129a757600080fd5b505afa1580156129bb573d6000803e3d6000fd5b505050506040513d601f19601f820116820180604052508101906129df9190612a33565b6001600160a01b031663e2c3b0466040518163ffffffff1660e01b815260040160206040518083038186803b1580156127bb57600080fd5b600060208284031215612a28578081fd5b81356108d081612f28565b600060208284031215612a44578081fd5b81516108d081612f28565b60008060408385031215612a61578081fd5b8235612a6c81612f28565b91506020830135612a7c81612f28565b809150509250929050565b600080600060608486031215612a9b578081fd5b8335612aa681612f28565b92506020840135612ab681612f28565b929592945050506040919091013590565b60008060008060808587031215612adc578081fd5b8435612ae781612f28565b93506020850135612af781612f28565b93969395505050506040820135916060013590565b60008060408385031215612b1e578182fd5b8235612b2981612f28565b946020939093013593505050565b600080600060608486031215612b4b578283fd5b8335612b5681612f28565b9250602084013591506040840135612b6d81612f28565b809150509250925092565b60008060008060808587031215612b8d578384fd5b8435612b9881612f28565b9350602085013592506040850135612baf81612f28565b91506060850135612bbf81612f28565b939692955090935050565b60008060008060808587031215612bdf578384fd5b8435612bea81612f28565b9350602085013592506040850135612c0181612f3d565b9396929550929360600135925050565b60006020808385031215612c23578182fd5b823567ffffffffffffffff80821115612c3a578384fd5b818501915085601f830112612c4d578384fd5b813581811115612c5f57612c5f612f12565b8060051b604051601f19603f83011681018181108582111715612c8457612c84612f12565b604052828152858101935084860182860187018a1015612ca2578788fd5b8795505b83861015612cc4578035855260019590950194938601938601612ca6565b5098975050505050505050565b600060208284031215612ce2578081fd5b81516108d081612f3d565b600060208284031215612cfe578081fd5b5051919050565b600080600060608486031215612d19578283fd5b833592506020840135612d2b81612f28565b91506040840135612b6d81612f28565b60008060408385031215612d4d578182fd5b50508035926020909101359150565b60008060408385031215612d6e578182fd5b505080516020909101519092909150565b600080600060608486031215612d93578081fd5b505081359360208301359350604090920135919050565b60008060008060808587031215612dbf578182fd5b5050823594602084013594506040840135936060013592509050565b600080600080600060a08688031215612df2578283fd5b505083359560208501359550604085013594606081013594506080013592509050565b6001600160a01b0392831681529116602082015260400190565b6020808252825182820181905260009190848201906040850190845b81811015612e6757835183529284019291840191600101612e4b565b50909695505050505050565b60008219821115612e8657612e86612efc565b500190565b600082612ea657634e487b7160e01b81526012600452602481fd5b500490565b6000816000190483118215151615612ec557612ec5612efc565b500290565b600082821015612edc57612edc612efc565b500390565b6000600019821415612ef557612ef5612efc565b5060010190565b634e487b7160e01b600052601160045260246000fd5b634e487b7160e01b600052604160045260246000fd5b6001600160a01b03811681146108a157600080fd5b80151581146108a157600080fdfea264697066735822122006c9c30e4bc2a958c4b7c01c368ef26a5d1ad194d023ea67983092d88c09207364736f6c63430008030033",
  "linkReferences": {},
  "deployedLinkReferences": {}
}