{
  "_format": "hh-sol-artifact-1",
  "contractName": "Utils",
  "sourceName": "contracts/Utils.sol",
  "abi": [
    {
      "inputs": [],
      "stateMutability": "nonpayable",
      "type": "constructor"
    },
    {
      "inputs": [],
      "name": "POOLS",
      "outputs": [
        {
          "internalType": "address",
          "name": "",
          "type": "address"
        }
      ],
      "stateMutability": "view",
      "type": "function"
    },
    {
      "inputs": [
        {
          "internalType": "uint256",
          "name": "u",
          "type": "uint256"
        },
        {
          "internalType": "uint256",
          "name": "U",
          "type": "uint256"
        },
        {
          "internalType": "uint256",
          "name": "A",
          "type": "uint256"
        }
      ],
      "name": "calcAsymmetricShare",
      "outputs": [
        {
          "internalType": "uint256",
          "name": "",
          "type": "uint256"
        }
      ],
      "stateMutability": "pure",
      "type": "function"
    },
    {
      "inputs": [
        {
          "internalType": "uint256",
          "name": "B0",
          "type": "uint256"
        },
        {
          "internalType": "uint256",
          "name": "T0",
          "type": "uint256"
        },
        {
          "internalType": "uint256",
          "name": "B1",
          "type": "uint256"
        },
        {
          "internalType": "uint256",
          "name": "T1",
          "type": "uint256"
        }
      ],
      "name": "calcCoverage",
      "outputs": [
        {
          "internalType": "uint256",
          "name": "coverage",
          "type": "uint256"
        }
      ],
      "stateMutability": "pure",
      "type": "function"
    },
    {
      "inputs": [
        {
          "internalType": "uint256",
          "name": "b",
          "type": "uint256"
        },
        {
          "internalType": "uint256",
          "name": "B",
          "type": "uint256"
        },
        {
          "internalType": "uint256",
          "name": "t",
          "type": "uint256"
        },
        {
          "internalType": "uint256",
          "name": "T",
          "type": "uint256"
        },
        {
          "internalType": "uint256",
          "name": "P",
          "type": "uint256"
        }
      ],
      "name": "calcLiquidityUnits",
      "outputs": [
        {
          "internalType": "uint256",
          "name": "",
          "type": "uint256"
        }
      ],
      "stateMutability": "view",
      "type": "function"
    },
    {
      "inputs": [
        {
          "internalType": "uint256",
          "name": "bp",
          "type": "uint256"
        },
        {
          "internalType": "uint256",
          "name": "total",
          "type": "uint256"
        }
      ],
      "name": "calcPart",
      "outputs": [
        {
          "internalType": "uint256",
          "name": "",
          "type": "uint256"
        }
      ],
      "stateMutability": "pure",
      "type": "function"
    },
    {
      "inputs": [
        {
          "internalType": "uint256",
          "name": "part",
          "type": "uint256"
        },
        {
          "internalType": "uint256",
          "name": "total",
          "type": "uint256"
        },
        {
          "internalType": "uint256",
          "name": "amount",
          "type": "uint256"
        }
      ],
      "name": "calcShare",
      "outputs": [
        {
          "internalType": "uint256",
          "name": "share",
          "type": "uint256"
        }
      ],
      "stateMutability": "pure",
      "type": "function"
    },
    {
      "inputs": [
        {
          "internalType": "uint256",
          "name": "x",
          "type": "uint256"
        },
        {
          "internalType": "uint256",
          "name": "X",
          "type": "uint256"
        },
        {
          "internalType": "uint256",
          "name": "Y",
          "type": "uint256"
        }
      ],
      "name": "calcSwapFee",
      "outputs": [
        {
          "internalType": "uint256",
          "name": "",
          "type": "uint256"
        }
      ],
      "stateMutability": "pure",
      "type": "function"
    },
    {
      "inputs": [
        {
          "internalType": "uint256",
          "name": "x",
          "type": "uint256"
        },
        {
          "internalType": "uint256",
          "name": "X",
          "type": "uint256"
        },
        {
          "internalType": "uint256",
          "name": "Y",
          "type": "uint256"
        }
      ],
      "name": "calcSwapOutput",
      "outputs": [
        {
          "internalType": "uint256",
          "name": "",
          "type": "uint256"
        }
      ],
      "stateMutability": "pure",
      "type": "function"
    },
    {
      "inputs": [
        {
          "internalType": "uint256",
          "name": "x",
          "type": "uint256"
        },
        {
          "internalType": "uint256",
          "name": "X",
          "type": "uint256"
        }
      ],
      "name": "calcSwapSlip",
      "outputs": [
        {
          "internalType": "uint256",
          "name": "",
          "type": "uint256"
        }
      ],
      "stateMutability": "pure",
      "type": "function"
    },
    {
      "inputs": [
        {
          "internalType": "address",
          "name": "token",
          "type": "address"
        },
        {
          "internalType": "uint256",
          "name": "amount",
          "type": "uint256"
        }
      ],
      "name": "calcSwapValueInBase",
      "outputs": [
        {
          "internalType": "uint256",
          "name": "",
          "type": "uint256"
        }
      ],
      "stateMutability": "view",
      "type": "function"
    },
    {
      "inputs": [
        {
          "internalType": "address",
          "name": "token",
          "type": "address"
        },
        {
          "internalType": "uint256",
          "name": "amount",
          "type": "uint256"
        }
      ],
      "name": "calcSwapValueInToken",
      "outputs": [
        {
          "internalType": "uint256",
          "name": "",
          "type": "uint256"
        }
      ],
      "stateMutability": "view",
      "type": "function"
    },
    {
      "inputs": [
        {
          "internalType": "uint256",
          "name": "b",
          "type": "uint256"
        },
        {
          "internalType": "uint256",
          "name": "B",
          "type": "uint256"
        },
        {
          "internalType": "uint256",
          "name": "P",
          "type": "uint256"
        }
      ],
      "name": "calcSynthUnits",
      "outputs": [
        {
          "internalType": "uint256",
          "name": "",
          "type": "uint256"
        }
      ],
      "stateMutability": "pure",
      "type": "function"
    },
    {
      "inputs": [
        {
          "internalType": "address",
          "name": "token",
          "type": "address"
        },
        {
          "internalType": "uint256",
          "name": "amount",
          "type": "uint256"
        }
      ],
      "name": "calcValueInBase",
      "outputs": [
        {
          "internalType": "uint256",
          "name": "",
          "type": "uint256"
        }
      ],
      "stateMutability": "view",
      "type": "function"
    },
    {
      "inputs": [
        {
          "internalType": "address",
          "name": "token",
          "type": "address"
        },
        {
          "internalType": "uint256",
          "name": "amount",
          "type": "uint256"
        }
      ],
      "name": "calcValueInToken",
      "outputs": [
        {
          "internalType": "uint256",
          "name": "",
          "type": "uint256"
        }
      ],
      "stateMutability": "view",
      "type": "function"
    },
    {
      "inputs": [
        {
          "internalType": "address",
          "name": "token1",
          "type": "address"
        },
        {
          "internalType": "uint256",
          "name": "amount",
          "type": "uint256"
        },
        {
          "internalType": "address",
          "name": "token2",
          "type": "address"
        }
      ],
      "name": "calcValueOfTokenInToken",
      "outputs": [
        {
          "internalType": "uint256",
          "name": "",
          "type": "uint256"
        }
      ],
      "stateMutability": "view",
      "type": "function"
    },
    {
      "inputs": [
        {
          "internalType": "uint256",
          "name": "totalSupply",
          "type": "uint256"
        },
        {
          "internalType": "uint256",
          "name": "maxSupply",
          "type": "uint256"
        }
      ],
      "name": "getFeeOnTransfer",
      "outputs": [
        {
          "internalType": "uint256",
          "name": "",
          "type": "uint256"
        }
      ],
      "stateMutability": "pure",
      "type": "function"
    },
    {
      "inputs": [
        {
          "internalType": "uint256",
          "name": "b",
          "type": "uint256"
        },
        {
          "internalType": "uint256",
          "name": "B",
          "type": "uint256"
        },
        {
          "internalType": "uint256",
          "name": "t",
          "type": "uint256"
        },
        {
          "internalType": "uint256",
          "name": "T",
          "type": "uint256"
        }
      ],
      "name": "getSlipAdustment",
      "outputs": [
        {
          "internalType": "uint256",
          "name": "",
          "type": "uint256"
        }
      ],
      "stateMutability": "view",
      "type": "function"
    },
    {
      "inputs": [
        {
          "internalType": "address",
          "name": "_pool",
          "type": "address"
        }
      ],
      "name": "init",
      "outputs": [],
      "stateMutability": "nonpayable",
      "type": "function"
    }
  ],
  "bytecode": "0x6080604052670de0b6b3a764000060005534801561001c57600080fd5b50610c388061002c6000396000f3fe608060405234801561001057600080fd5b50600436106101165760003560e01c8063896a708c116100a2578063c5c11ee911610071578063c5c11ee914610227578063db39dc791461023a578063dcf3f1e01461024d578063ebccb5b214610260578063ec1753f11461028b57610116565b8063896a708c146101db5780638b18b115146101ee578063b80e44b814610201578063c0c4a7241461021457610116565b8063595a88a7116100e9578063595a88a71461017c5780635f2c12e81461018f5780636da0f1fc146101a2578063701baaf3146101b5578063714270ab146101c857610116565b806319ab453c1461011b5780631ba326c4146101305780632db6e488146101565780634a12765114610169575b600080fd5b61012e610129366004610a26565b61029e565b005b61014361013e366004610ae8565b6102cd565b6040519081526020015b60405180910390f35b610143610164366004610aa4565b6102f4565b610143610177366004610ae8565b610316565b61014361018a366004610b13565b6103ba565b61014361019d366004610a40565b610435565b6101436101b0366004610b13565b6104d0565b6101436101c3366004610ae8565b610580565b6101436101d6366004610aa4565b6105d0565b6101436101e9366004610ae8565b610634565b6101436101fc366004610aa4565b610642565b61014361020f366004610a40565b610650565b610143610222366004610a40565b6106e2565b610143610235366004610b44565b61077f565b610143610248366004610a40565b61080e565b61014361025b366004610a69565b6108a1565b600154610273906001600160a01b031681565b6040516001600160a01b03909116815260200161014d565b610143610299366004610ae8565b6109e9565b6001546001600160a01b03166102ca57600180546001600160a01b0319166001600160a01b0383161790555b50565b600082156102ed57826102e08584610bb6565b6102ea9190610b96565b90505b9392505050565b60006103008284610b7e565b61030c84612710610bb6565b6102ed9190610b96565b6000806103238386610bb6565b905060006103318580610bb6565b61033c906002610bb6565b9050600061034a8787610bb6565b610355906002610bb6565b905060006103638880610bb6565b9050600081836103738688610bb6565b61037d9190610bd5565b6103879190610b7e565b90506000886103968180610bb6565b6103a09190610bb6565b90506103ac8183610b96565b9a9950505050505050505050565b600080851180156103cb5750600082115b1561042d576000826103dd8587610bb6565b6103e79190610b96565b6103f19087610b7e565b90506000836104008682610bb6565b61040a9190610b96565b6104149086610b7e565b905081811161042a576104278183610bd5565b92505b50505b949350505050565b60015460405163903443b960e01b81526001600160a01b038481166004830152600092839283929091169063903443b990602401604080518083038186803b15801561048057600080fd5b505afa158015610494573d6000803e3d6000fd5b505050506040513d601f19601f820116820180604052508101906104b89190610ac5565b915091506104c7848383610580565b95945050505050565b6000806104dd8486610bb6565b905060006104eb8488610bb6565b90506000866104fb896002610bb6565b6105059190610b7e565b905060006105138688610b7e565b9050600083851115610530576105298486610bd5565b905061053d565b61053a8585610bd5565b90505b60006105498385610bb6565b9050806000548361055a9190610bb6565b6105649190610b96565b6000546105719190610bd5565b9b9a5050505050505050505050565b6000808261058e8587610bb6565b6105989190610bb6565b905060006105a68587610b7e565b6105b08688610b7e565b6105ba9190610bb6565b90506105c68183610b96565b9695505050505050565b600061271083111580156105e2575060015b6106275760405162461bcd60e51b815260206004820152601260248201527104d75737420626520636f72726563742042560741b604482015260640160405180910390fd5b6102ed83612710846102cd565b6000808261058e8680610bb6565b60006102ed838360646102cd565b60015460405163903443b960e01b81526001600160a01b038481166004830152600092839283929091169063903443b990602401604080518083038186803b15801561069b57600080fd5b505afa1580156106af573d6000803e3d6000fd5b505050506040513d601f19601f820116820180604052508101906106d39190610ac5565b915091506104c7848284610580565b60015460405163903443b960e01b81526001600160a01b038481166004830152600092839283929091169063903443b990602401604080518083038186803b15801561072d57600080fd5b505afa158015610741573d6000803e3d6000fd5b505050506040513d601f19601f820116820180604052508101906107659190610ac5565b9092509050816107758286610bb6565b6104c79190610b96565b60008161078d5750846104c7565b600061079b878787876104d0565b905060006107a98787610bb6565b905060006107b78987610bb6565b905060006107c58988610bb6565b6107d0906002610bb6565b9050600081836107e0868a610bb6565b6107ea9190610b7e565b6107f49190610b96565b6000549091506108048683610bb6565b6105719190610b96565b60015460405163903443b960e01b81526001600160a01b038481166004830152600092839283929091169063903443b990602401604080518083038186803b15801561085957600080fd5b505afa15801561086d573d6000803e3d6000fd5b505050506040513d601f19601f820116820180604052508101906108919190610ac5565b9092509050806107758386610bb6565b60015460405163903443b960e01b81526001600160a01b038581166004830152600092839283929091169063903443b990602401604080518083038186803b1580156108ec57600080fd5b505afa158015610900573d6000803e3d6000fd5b505050506040513d601f19601f820116820180604052508101906109249190610ac5565b90925090506000816109368488610bb6565b6109409190610b96565b60015460405163903443b960e01b81526001600160a01b0388811660048301529293506000928392169063903443b990602401604080518083038186803b15801561098a57600080fd5b505afa15801561099e573d6000803e3d6000fd5b505050506040513d601f19601f820116820180604052508101906109c29190610ac5565b9092509050816109d28285610bb6565b6109dc9190610b96565b9998505050505050505050565b60006109f58385610b7e565b610a00906002610bb6565b6102e08584610bb6565b80356001600160a01b0381168114610a2157600080fd5b919050565b600060208284031215610a37578081fd5b6102ed82610a0a565b60008060408385031215610a52578081fd5b610a5b83610a0a565b946020939093013593505050565b600080600060608486031215610a7d578081fd5b610a8684610a0a565b925060208401359150610a9b60408501610a0a565b90509250925092565b60008060408385031215610ab6578182fd5b50508035926020909101359150565b60008060408385031215610ad7578182fd5b505080516020909101519092909150565b600080600060608486031215610afc578283fd5b505081359360208301359350604090920135919050565b60008060008060808587031215610b28578081fd5b5050823594602084013594506040840135936060013592509050565b600080600080600060a08688031215610b5b578081fd5b505083359560208501359550604085013594606081013594506080013592509050565b60008219821115610b9157610b91610bec565b500190565b600082610bb157634e487b7160e01b81526012600452602481fd5b500490565b6000816000190483118215151615610bd057610bd0610bec565b500290565b600082821015610be757610be7610bec565b500390565b634e487b7160e01b600052601160045260246000fdfea2646970667358221220b35c6a4b87d9e0ecd34fd8ef4dc5e99eaae6130182dd21d75814e6c2674ba6d264736f6c63430008030033",
  "linkReferences": {},
  "deployedLinkReferences": {}
}