{
  "_format": "hh-sol-artifact-1",
  "contractName": "Utils",
  "sourceName": "contracts/Utils.sol",
  "abi": [
    {
      "inputs": [],
      "stateMutability": "nonpayable",
      "type": "constructor"
    },
    {
      "inputs": [],
      "name": "VADER",
      "outputs": [
        {
          "internalType": "address",
          "name": "",
          "type": "address"
        }
      ],
      "stateMutability": "view",
      "type": "function"
    },
    {
      "inputs": [
        {
          "internalType": "address",
          "name": "collateralAsset",
          "type": "address"
        },
        {
          "internalType": "address",
          "name": "debtAsset",
          "type": "address"
        }
      ],
      "name": "assetChecks",
      "outputs": [],
      "stateMutability": "nonpayable",
      "type": "function"
    },
    {
      "inputs": [
        {
          "internalType": "uint256",
          "name": "u",
          "type": "uint256"
        },
        {
          "internalType": "uint256",
          "name": "U",
          "type": "uint256"
        },
        {
          "internalType": "uint256",
          "name": "A",
          "type": "uint256"
        }
      ],
      "name": "calcAsymmetricShare",
      "outputs": [
        {
          "internalType": "uint256",
          "name": "",
          "type": "uint256"
        }
      ],
      "stateMutability": "pure",
      "type": "function"
    },
    {
      "inputs": [
        {
          "internalType": "uint256",
          "name": "B0",
          "type": "uint256"
        },
        {
          "internalType": "uint256",
          "name": "T0",
          "type": "uint256"
        },
        {
          "internalType": "uint256",
          "name": "B1",
          "type": "uint256"
        },
        {
          "internalType": "uint256",
          "name": "T1",
          "type": "uint256"
        }
      ],
      "name": "calcCoverage",
      "outputs": [
        {
          "internalType": "uint256",
          "name": "coverage",
          "type": "uint256"
        }
      ],
      "stateMutability": "pure",
      "type": "function"
    },
    {
      "inputs": [
        {
          "internalType": "uint256",
          "name": "b",
          "type": "uint256"
        },
        {
          "internalType": "uint256",
          "name": "B",
          "type": "uint256"
        },
        {
          "internalType": "uint256",
          "name": "t",
          "type": "uint256"
        },
        {
          "internalType": "uint256",
          "name": "T",
          "type": "uint256"
        },
        {
          "internalType": "uint256",
          "name": "P",
          "type": "uint256"
        }
      ],
      "name": "calcLiquidityUnits",
      "outputs": [
        {
          "internalType": "uint256",
          "name": "",
          "type": "uint256"
        }
      ],
      "stateMutability": "pure",
      "type": "function"
    },
    {
      "inputs": [
        {
          "internalType": "uint256",
          "name": "bp",
          "type": "uint256"
        },
        {
          "internalType": "uint256",
          "name": "total",
          "type": "uint256"
        }
      ],
      "name": "calcPart",
      "outputs": [
        {
          "internalType": "uint256",
          "name": "",
          "type": "uint256"
        }
      ],
      "stateMutability": "pure",
      "type": "function"
    },
    {
      "inputs": [
        {
          "internalType": "uint256",
          "name": "part",
          "type": "uint256"
        },
        {
          "internalType": "uint256",
          "name": "total",
          "type": "uint256"
        },
        {
          "internalType": "uint256",
          "name": "amount",
          "type": "uint256"
        }
      ],
      "name": "calcShare",
      "outputs": [
        {
          "internalType": "uint256",
          "name": "share",
          "type": "uint256"
        }
      ],
      "stateMutability": "pure",
      "type": "function"
    },
    {
      "inputs": [
        {
          "internalType": "uint256",
          "name": "x",
          "type": "uint256"
        },
        {
          "internalType": "uint256",
          "name": "X",
          "type": "uint256"
        },
        {
          "internalType": "uint256",
          "name": "Y",
          "type": "uint256"
        }
      ],
      "name": "calcSwapFee",
      "outputs": [
        {
          "internalType": "uint256",
          "name": "",
          "type": "uint256"
        }
      ],
      "stateMutability": "pure",
      "type": "function"
    },
    {
      "inputs": [
        {
          "internalType": "uint256",
          "name": "x",
          "type": "uint256"
        },
        {
          "internalType": "uint256",
          "name": "X",
          "type": "uint256"
        },
        {
          "internalType": "uint256",
          "name": "Y",
          "type": "uint256"
        }
      ],
      "name": "calcSwapOutput",
      "outputs": [
        {
          "internalType": "uint256",
          "name": "",
          "type": "uint256"
        }
      ],
      "stateMutability": "pure",
      "type": "function"
    },
    {
      "inputs": [
        {
          "internalType": "uint256",
          "name": "x",
          "type": "uint256"
        },
        {
          "internalType": "uint256",
          "name": "X",
          "type": "uint256"
        }
      ],
      "name": "calcSwapSlip",
      "outputs": [
        {
          "internalType": "uint256",
          "name": "",
          "type": "uint256"
        }
      ],
      "stateMutability": "pure",
      "type": "function"
    },
    {
      "inputs": [
        {
          "internalType": "address",
          "name": "token",
          "type": "address"
        },
        {
          "internalType": "uint256",
          "name": "amount",
          "type": "uint256"
        }
      ],
      "name": "calcSwapValueInBase",
      "outputs": [
        {
          "internalType": "uint256",
          "name": "",
          "type": "uint256"
        }
      ],
      "stateMutability": "view",
      "type": "function"
    },
    {
      "inputs": [
        {
          "internalType": "address",
          "name": "token",
          "type": "address"
        },
        {
          "internalType": "uint256",
          "name": "amount",
          "type": "uint256"
        }
      ],
      "name": "calcSwapValueInToken",
      "outputs": [
        {
          "internalType": "uint256",
          "name": "",
          "type": "uint256"
        }
      ],
      "stateMutability": "view",
      "type": "function"
    },
    {
      "inputs": [
        {
          "internalType": "uint256",
          "name": "b",
          "type": "uint256"
        },
        {
          "internalType": "uint256",
          "name": "B",
          "type": "uint256"
        },
        {
          "internalType": "uint256",
          "name": "P",
          "type": "uint256"
        }
      ],
      "name": "calcSynthUnits",
      "outputs": [
        {
          "internalType": "uint256",
          "name": "",
          "type": "uint256"
        }
      ],
      "stateMutability": "pure",
      "type": "function"
    },
    {
      "inputs": [
        {
          "internalType": "address",
          "name": "token",
          "type": "address"
        },
        {
          "internalType": "uint256",
          "name": "amount",
          "type": "uint256"
        }
      ],
      "name": "calcValueInBase",
      "outputs": [
        {
          "internalType": "uint256",
          "name": "value",
          "type": "uint256"
        }
      ],
      "stateMutability": "view",
      "type": "function"
    },
    {
      "inputs": [
        {
          "internalType": "address",
          "name": "token",
          "type": "address"
        },
        {
          "internalType": "uint256",
          "name": "amount",
          "type": "uint256"
        }
      ],
      "name": "calcValueInToken",
      "outputs": [
        {
          "internalType": "uint256",
          "name": "value",
          "type": "uint256"
        }
      ],
      "stateMutability": "view",
      "type": "function"
    },
    {
      "inputs": [
        {
          "internalType": "address",
          "name": "token1",
          "type": "address"
        },
        {
          "internalType": "uint256",
          "name": "amount",
          "type": "uint256"
        },
        {
          "internalType": "address",
          "name": "token2",
          "type": "address"
        }
      ],
      "name": "calcValueOfTokenInToken",
      "outputs": [
        {
          "internalType": "uint256",
          "name": "value",
          "type": "uint256"
        }
      ],
      "stateMutability": "view",
      "type": "function"
    },
    {
      "inputs": [
        {
          "internalType": "address",
          "name": "member",
          "type": "address"
        },
        {
          "internalType": "uint256",
          "name": "collateral",
          "type": "uint256"
        },
        {
          "internalType": "address",
          "name": "collateralAsset",
          "type": "address"
        },
        {
          "internalType": "address",
          "name": "debtAsset",
          "type": "address"
        }
      ],
      "name": "getCollateralValueInBase",
      "outputs": [
        {
          "internalType": "uint256",
          "name": "debt",
          "type": "uint256"
        },
        {
          "internalType": "uint256",
          "name": "baseValue",
          "type": "uint256"
        }
      ],
      "stateMutability": "view",
      "type": "function"
    },
    {
      "inputs": [
        {
          "internalType": "address",
          "name": "member",
          "type": "address"
        },
        {
          "internalType": "address",
          "name": "token",
          "type": "address"
        }
      ],
      "name": "getCoverage",
      "outputs": [
        {
          "internalType": "uint256",
          "name": "",
          "type": "uint256"
        }
      ],
      "stateMutability": "view",
      "type": "function"
    },
    {
      "inputs": [
        {
          "internalType": "address",
          "name": "collateralAsset",
          "type": "address"
        },
        {
          "internalType": "address",
          "name": "debtAsset",
          "type": "address"
        }
      ],
      "name": "getDebtLoading",
      "outputs": [
        {
          "internalType": "uint256",
          "name": "",
          "type": "uint256"
        }
      ],
      "stateMutability": "view",
      "type": "function"
    },
    {
      "inputs": [
        {
          "internalType": "address",
          "name": "member",
          "type": "address"
        },
        {
          "internalType": "uint256",
          "name": "debt",
          "type": "uint256"
        },
        {
          "internalType": "address",
          "name": "collateralAsset",
          "type": "address"
        },
        {
          "internalType": "address",
          "name": "debtAsset",
          "type": "address"
        }
      ],
      "name": "getDebtValueInCollateral",
      "outputs": [
        {
          "internalType": "uint256",
          "name": "",
          "type": "uint256"
        },
        {
          "internalType": "uint256",
          "name": "",
          "type": "uint256"
        }
      ],
      "stateMutability": "view",
      "type": "function"
    },
    {
      "inputs": [
        {
          "internalType": "uint256",
          "name": "totalSupply",
          "type": "uint256"
        },
        {
          "internalType": "uint256",
          "name": "maxSupply",
          "type": "uint256"
        }
      ],
      "name": "getFeeOnTransfer",
      "outputs": [
        {
          "internalType": "uint256",
          "name": "",
          "type": "uint256"
        }
      ],
      "stateMutability": "pure",
      "type": "function"
    },
    {
      "inputs": [
        {
          "internalType": "address",
          "name": "collateralAsset",
          "type": "address"
        },
        {
          "internalType": "address",
          "name": "debtAsset",
          "type": "address"
        },
        {
          "internalType": "uint256",
          "name": "timeElapsed",
          "type": "uint256"
        }
      ],
      "name": "getInterestOwed",
      "outputs": [
        {
          "internalType": "uint256",
          "name": "interestOwed",
          "type": "uint256"
        }
      ],
      "stateMutability": "view",
      "type": "function"
    },
    {
      "inputs": [
        {
          "internalType": "address",
          "name": "collateralAsset",
          "type": "address"
        },
        {
          "internalType": "address",
          "name": "debtAsset",
          "type": "address"
        }
      ],
      "name": "getInterestPayment",
      "outputs": [
        {
          "internalType": "uint256",
          "name": "",
          "type": "uint256"
        }
      ],
      "stateMutability": "view",
      "type": "function"
    },
    {
      "inputs": [
        {
          "internalType": "uint256",
          "name": "basisPoints",
          "type": "uint256"
        },
        {
          "internalType": "address",
          "name": "token",
          "type": "address"
        },
        {
          "internalType": "address",
          "name": "member",
          "type": "address"
        }
      ],
      "name": "getMemberShare",
      "outputs": [
        {
          "internalType": "uint256",
          "name": "units",
          "type": "uint256"
        },
        {
          "internalType": "uint256",
          "name": "outputBase",
          "type": "uint256"
        },
        {
          "internalType": "uint256",
          "name": "outputToken",
          "type": "uint256"
        }
      ],
      "stateMutability": "view",
      "type": "function"
    },
    {
      "inputs": [
        {
          "internalType": "address",
          "name": "member",
          "type": "address"
        },
        {
          "internalType": "address",
          "name": "token",
          "type": "address"
        },
        {
          "internalType": "uint256",
          "name": "basisPoints",
          "type": "uint256"
        },
        {
          "internalType": "uint256",
          "name": "timeForFullProtection",
          "type": "uint256"
        }
      ],
      "name": "getProtection",
      "outputs": [
        {
          "internalType": "uint256",
          "name": "protection",
          "type": "uint256"
        }
      ],
      "stateMutability": "view",
      "type": "function"
    },
    {
      "inputs": [
        {
          "internalType": "uint256",
          "name": "amount",
          "type": "uint256"
        },
        {
          "internalType": "uint256",
          "name": "rewardReductionFactor",
          "type": "uint256"
        }
      ],
      "name": "getReducedShare",
      "outputs": [
        {
          "internalType": "uint256",
          "name": "",
          "type": "uint256"
        }
      ],
      "stateMutability": "pure",
      "type": "function"
    },
    {
      "inputs": [
        {
          "internalType": "address",
          "name": "token",
          "type": "address"
        },
        {
          "internalType": "uint256",
          "name": "rewardReductionFactor",
          "type": "uint256"
        }
      ],
      "name": "getRewardShare",
      "outputs": [
        {
          "internalType": "uint256",
          "name": "rewardShare",
          "type": "uint256"
        }
      ],
      "stateMutability": "view",
      "type": "function"
    },
    {
      "inputs": [
        {
          "internalType": "uint256",
          "name": "b",
          "type": "uint256"
        },
        {
          "internalType": "uint256",
          "name": "B",
          "type": "uint256"
        },
        {
          "internalType": "uint256",
          "name": "t",
          "type": "uint256"
        },
        {
          "internalType": "uint256",
          "name": "T",
          "type": "uint256"
        }
      ],
      "name": "getSlipAdjustment",
      "outputs": [
        {
          "internalType": "uint256",
          "name": "",
          "type": "uint256"
        }
      ],
      "stateMutability": "pure",
      "type": "function"
    },
    {
      "inputs": [
        {
          "internalType": "address",
          "name": "_vader",
          "type": "address"
        }
      ],
      "name": "init",
      "outputs": [],
      "stateMutability": "nonpayable",
      "type": "function"
    },
    {
      "inputs": [
        {
          "internalType": "address",
          "name": "token",
          "type": "address"
        }
      ],
      "name": "isBase",
      "outputs": [
        {
          "internalType": "bool",
          "name": "base",
          "type": "bool"
        }
      ],
      "stateMutability": "view",
      "type": "function"
    },
    {
      "inputs": [
        {
          "internalType": "address",
          "name": "token",
          "type": "address"
        }
      ],
      "name": "isPool",
      "outputs": [
        {
          "internalType": "bool",
          "name": "pool",
          "type": "bool"
        }
      ],
      "stateMutability": "view",
      "type": "function"
    },
    {
      "inputs": [
        {
          "internalType": "address",
          "name": "token",
          "type": "address"
        },
        {
          "internalType": "uint256",
          "name": "bound",
          "type": "uint256"
        },
        {
          "internalType": "bool",
          "name": "inside",
          "type": "bool"
        },
        {
          "internalType": "uint256",
          "name": "targetPrice",
          "type": "uint256"
        }
      ],
      "name": "requirePriceBounds",
      "outputs": [],
      "stateMutability": "view",
      "type": "function"
    },
    {
      "inputs": [
        {
          "internalType": "uint256[]",
          "name": "array",
          "type": "uint256[]"
        }
      ],
      "name": "sortArray",
      "outputs": [
        {
          "internalType": "uint256[]",
          "name": "",
          "type": "uint256[]"
        }
      ],
      "stateMutability": "pure",
      "type": "function"
    }
  ],
  "bytecode": "0x608060405234801561001057600080fd5b50612fd3806100206000396000f3fe608060405234801561001057600080fd5b50600436106101fb5760003560e01c8063896a708c1161011a578063c2886b8a116100ad578063db39dc791161007c578063db39dc7914610481578063dcf3f1e014610494578063e379976e146104a7578063eb7d5ddf146104c7578063ec1753f1146104da576101fb565b8063c2886b8a14610435578063c5c11ee914610448578063cf975e7b1461045b578063d549a1ec1461046e576101fb565b8063b4951e4a116100e9578063b4951e4a146103e9578063b80e44b8146103fc578063bd2bdaf21461040f578063c0c4a72414610422576101fb565b8063896a708c1461039d5780638b18b115146103b0578063945821af146103c35780639e3f1e8e146103d6576101fb565b80635b0b602d116101925780636e899aa3116101615780636e899aa3146103365780637011add314610349578063701baaf314610377578063714270ab1461038a576101fb565b80635b0b602d146102c55780635b16ebb7146102d85780635c22141f146102fb5780635f2c12e814610323576101fb565b80631ba326c4116101ce5780631ba326c4146102795780632db6e4881461028c5780634a1276511461029f578063595a88a7146102b2576101fb565b8063016813151461020057806302bf4bf81461023057806312a86ffb1461025157806319ab453c14610264575b600080fd5b600054610213906001600160a01b031681565b6040516001600160a01b0390911681526020015b60405180910390f35b61024361023e366004612dfc565b6104ed565b604051908152602001610227565b61024361025f366004612aa1565b6105a8565b610277610272366004612a69565b610930565b005b610243610287366004612dd1565b61095f565b61024361029a366004612d8d565b610992565b6102436102ad366004612dd1565b6109b4565b6102436102c0366004612dfc565b610a58565b6102436102d3366004612b19565b610ad2565b6102eb6102e6366004612a69565b610c2f565b6040519015158152602001610227565b61030e610309366004612bca565b610d4b565b60408051928352602083019190915201610227565b610243610331366004612b5e565b610fbc565b6102eb610344366004612a69565b61105b565b61035c610357366004612d57565b61109d565b60408051938452602084019290925290820152606001610227565b610243610385366004612dd1565b6112b8565b610243610398366004612d8d565b6112fe565b6102436103ab366004612dd1565b611359565b6102436103be366004612d8d565b611367565b6102436103d1366004612ad9565b611375565b6102436103e4366004612aa1565b61144a565b6102436103f7366004612b5e565b611572565b61024361040a366004612b5e565b6119c2565b61024361041d366004612d8d565b611a58565b610243610430366004612b5e565b611a66565b610243610443366004612aa1565b611b2c565b610243610456366004612e2d565b611bd7565b610277610469366004612aa1565b611c7a565b61030e61047c366004612bca565b61218f565b61024361048f366004612b5e565b612400565b6102436104a2366004612b89565b6124ab565b6104ba6104b5366004612c63565b6124bb565b6040516102279190612e81565b6102776104d5366004612c1c565b612615565b6102436104e8366004612dd1565b61270f565b6000806104fa8486612efd565b905060006105088488612efd565b9050600086610518896002612efd565b6105229190612ec5565b905060006105308688612ec5565b905060008385111561054d576105468486612f1c565b905061055a565b6105578585612f1c565b90505b60006105668385612efd565b90508061057b670de0b6b3a764000084612efd565b6105859190612edd565b61059790670de0b6b3a7640000612f1c565b96505050505050505b949350505050565b6000806105b3612730565b6001600160a01b031663ff8b83a685856040518363ffffffff1660e01b81526004016105e0929190612e67565b60206040518083038186803b1580156105f857600080fd5b505afa15801561060c573d6000803e3d6000fd5b505050506040513d601f19601f820116820180604052508101906106309190612d3f565b9050600061063c612730565b6001600160a01b031663cfa701c586866040518363ffffffff1660e01b8152600401610669929190612e67565b60206040518083038186803b15801561068157600080fd5b505afa158015610695573d6000803e3d6000fd5b505050506040513d601f19601f820116820180604052508101906106b99190612d3f565b905060006106c561282c565b6001600160a01b03166324ef375086886040518363ffffffff1660e01b81526004016106f2929190612e67565b60206040518083038186803b15801561070a57600080fd5b505afa15801561071e573d6000803e3d6000fd5b505050506040513d601f19601f820116820180604052508101906107429190612d3f565b905060006108518261075261282c565b604051630fefbc0960e01b81526001600160a01b038a811660048301529190911690630fefbc099060240160206040518083038186803b15801561079557600080fd5b505afa1580156107a9573d6000803e3d6000fd5b505050506040513d601f19601f820116820180604052508101906107cd9190612d3f565b6107d561282c565b60405163b34c8afb60e01b81526001600160a01b038b81166004830152919091169063b34c8afb906024015b60206040518083038186803b15801561081957600080fd5b505afa15801561082d573d6000803e3d6000fd5b505050506040513d601f19601f820116820180604052508101906102879190612d3f565b905060006109148361086161282c565b604051630fefbc0960e01b81526001600160a01b038b811660048301529190911690630fefbc099060240160206040518083038186803b1580156108a457600080fd5b505afa1580156108b8573d6000803e3d6000fd5b505050506040513d601f19601f820116820180604052508101906108dc9190612d3f565b6108e461282c565b60405163e6ae1a9760e01b81526001600160a01b038c81166004830152919091169063e6ae1a9790602401610801565b905061092285858484610a58565b955050505050505b92915050565b6000546001600160a01b031661095c57600080546001600160a01b0319166001600160a01b0383161790555b50565b60008284111561096d578293505b821561098b578261097e8584612efd565b6109889190612edd565b90505b9392505050565b600061099e8284612ec5565b6109aa84612710612efd565b61098b9190612edd565b6000806109c18386612efd565b905060006109cf8580612efd565b6109da906002612efd565b905060006109e88787612efd565b6109f3906002612efd565b90506000610a018880612efd565b905060008183610a118688612efd565b610a1b9190612f1c565b610a259190612ec5565b9050600088610a348180612efd565b610a3e9190612efd565b9050610a4a8183612edd565b9a9950505050505050505050565b60008085118015610a695750600082115b156105a057600082610a7b8587612efd565b610a859190612edd565b610a8f9087612ec5565b9050600083610a9e8682612efd565b610aa89190612edd565b610ab29086612ec5565b9050818111610ac857610ac58183612f1c565b92505b5050949350505050565b600080610adf86866105a8565b9050610ae9612730565b604051631dd35c3960e21b81526001600160a01b038781166004830152919091169063774d70e49060240160206040518083038186803b158015610b2c57600080fd5b505afa158015610b40573d6000803e3d6000fd5b505050506040513d601f19601f82011682018060405250810190610b649190612d23565b15610c1b576000610b73612730565b6001600160a01b0316636a87def588886040518363ffffffff1660e01b8152600401610ba0929190612e67565b60206040518083038186803b158015610bb857600080fd5b505afa158015610bcc573d6000803e3d6000fd5b505050506040513d601f19601f82011682018060405250810190610bf09190612d3f565b610bfa9042612f1c565b9050838111610c1557610c0e81858461095f565b9250610c19565b8192505b505b610c2584836112fe565b9695505050505050565b6000610c3961282c565b604051636c66769560e11b81526001600160a01b038481166004830152919091169063d8cced2a9060240160206040518083038186803b158015610c7c57600080fd5b505afa158015610c90573d6000803e3d6000fd5b505050506040513d601f19601f82011682018060405250810190610cb49190612d23565b80610d3d5750610cc261282c565b60405163643fd21560e11b81526001600160a01b038481166004830152919091169063c87fa42a9060240160206040518083038186803b158015610d0557600080fd5b505afa158015610d19573d6000803e3d6000fd5b505050506040513d601f19601f82011682018060405250810190610d3d9190612d23565b15610d46575060015b919050565b60008080612710610d5e87611a0a612efd565b610d689190612edd565b9050610d738561105b565b15610d8057809150610fa6565b610d8985610c2f565b15610ea157610e9a81610d9a61282c565b6001600160a01b03166324ef3750888b6040518363ffffffff1660e01b8152600401610dc7929190612e67565b60206040518083038186803b158015610ddf57600080fd5b505afa158015610df3573d6000803e3d6000fd5b505050506040513d601f19601f82011682018060405250810190610e179190612d3f565b610e1f61282c565b60405163b34c8afb60e01b81526001600160a01b038a81166004830152919091169063b34c8afb9060240160206040518083038186803b158015610e6257600080fd5b505afa158015610e76573d6000803e3d6000fd5b505050506040513d601f19601f820116820180604052508101906102ad9190612d3f565b9150610fa6565b610ea96128eb565b604051632f011bf560e11b81526001600160a01b0387811660048301529190911690635e0237ea9060240160206040518083038186803b158015610eec57600080fd5b505afa158015610f00573d6000803e3d6000fd5b505050506040513d601f19601f82011682018060405250810190610f249190612d23565b15610fa657610fa3856001600160a01b03166382bfefc86040518163ffffffff1660e01b815260040160206040518083038186803b158015610f6557600080fd5b505afa158015610f79573d6000803e3d6000fd5b505050506040513d601f19601f82011682018060405250810190610f9d9190612a85565b826119c2565b91505b610fb08483610fbc565b92505094509492505050565b6000806000610fc961282c565b60405163903443b960e01b81526001600160a01b038781166004830152919091169063903443b990602401604080518083038186803b15801561100b57600080fd5b505afa15801561101f573d6000803e3d6000fd5b505050506040513d601f19601f820116820180604052508101906110439190612dae565b915091506110528483836112b8565b95945050505050565b600080546001600160a01b0383811691161480611090575061107b6129aa565b6001600160a01b0316826001600160a01b0316145b15610d4657506001610d46565b600080600061112b866110ae61282c565b6001600160a01b03166324ef375088886040518363ffffffff1660e01b81526004016110db929190612e67565b60206040518083038186803b1580156110f357600080fd5b505afa158015611107573d6000803e3d6000fd5b505050506040513d601f19601f820116820180604052508101906103989190612d3f565b92506111ec8361113961282c565b604051630fefbc0960e01b81526001600160a01b0389811660048301529190911690630fefbc099060240160206040518083038186803b15801561117c57600080fd5b505afa158015611190573d6000803e3d6000fd5b505050506040513d601f19601f820116820180604052508101906111b49190612d3f565b6111bc61282c565b60405163b34c8afb60e01b81526001600160a01b038a81166004830152919091169063b34c8afb90602401610801565b91506112ad836111fa61282c565b604051630fefbc0960e01b81526001600160a01b0389811660048301529190911690630fefbc099060240160206040518083038186803b15801561123d57600080fd5b505afa158015611251573d6000803e3d6000fd5b505050506040513d601f19601f820116820180604052508101906112759190612d3f565b61127d61282c565b60405163e6ae1a9760e01b81526001600160a01b038a81166004830152919091169063e6ae1a9790602401610801565b905093509350939050565b600080826112c68587612efd565b6112d09190612efd565b905060006112de8587612ec5565b6112e88688612ec5565b6112f29190612efd565b9050610c258183612edd565b600061271083111561134c5760405162461bcd60e51b815260206004820152601260248201527104d75737420626520636f72726563742042560741b60448201526064015b60405180910390fd5b61098b836127108461095f565b600080826112c68680612efd565b600061098b8383606461095f565b60008061138b836301e133806102878888611b2c565b90506113968561105b565b156113ac576113a58482612400565b9150611442565b6113b46128eb565b604051632f011bf560e11b81526001600160a01b0387811660048301529190911690635e0237ea9060240160206040518083038186803b1580156113f757600080fd5b505afa15801561140b573d6000803e3d6000fd5b505050506040513d601f19601f8201168201806040525081019061142f9190612d23565b156114425761143f8482876124ab565b91505b509392505050565b600080611455612730565b6001600160a01b03166382eb723385856040518363ffffffff1660e01b8152600401611482929190612e67565b60206040518083038186803b15801561149a57600080fd5b505afa1580156114ae573d6000803e3d6000fd5b505050506040513d601f19601f820116820180604052508101906114d29190612d3f565b905060006114de61282c565b60405163e6ae1a9760e01b81526001600160a01b038681166004830152919091169063e6ae1a979060240160206040518083038186803b15801561152157600080fd5b505afa158015611535573d6000803e3d6000fd5b505050506040513d601f19601f820116820180604052508101906115599190612d3f565b90508061156883612710612efd565b6110529190612edd565b60008060009054906101000a90046001600160a01b03166001600160a01b0316630781f4d26040518163ffffffff1660e01b815260040160206040518083038186803b1580156115c157600080fd5b505afa1580156115d5573d6000803e3d6000fd5b505050506040513d601f19601f820116820180604052508101906115f99190612d23565b80156116835750611608612730565b604051631dd35c3960e21b81526001600160a01b038581166004830152919091169063774d70e49060240160206040518083038186803b15801561164b57600080fd5b505afa15801561165f573d6000803e3d6000fd5b505050506040513d601f19601f820116820180604052508101906116839190612d23565b1561092a57600061169261282c565b60405163b34c8afb60e01b81526001600160a01b038681166004830152919091169063b34c8afb9060240160206040518083038186803b1580156116d557600080fd5b505afa1580156116e9573d6000803e3d6000fd5b505050506040513d601f19601f8201168201806040525081019061170d9190612d3f565b905061171761282c565b60405163643fd21560e11b81526001600160a01b038681166004830152919091169063c87fa42a9060240160206040518083038186803b15801561175a57600080fd5b505afa15801561176e573d6000803e3d6000fd5b505050506040513d601f19601f820116820180604052508101906117929190612d23565b15611869576000611855826117a561282c565b6001600160a01b031663a9652dca6040518163ffffffff1660e01b815260040160206040518083038186803b1580156117dd57600080fd5b505afa1580156117f1573d6000803e3d6000fd5b505050506040513d601f19601f820116820180604052508101906118159190612d3f565b61181d612730565b6001600160a01b031663de6ad44e6040518163ffffffff1660e01b815260040160206040518083038186803b15801561081957600080fd5b90506118618185611a58565b9250506119bb565b61187161282c565b604051636c66769560e11b81526001600160a01b038681166004830152919091169063d8cced2a9060240160206040518083038186803b1580156118b457600080fd5b505afa1580156118c8573d6000803e3d6000fd5b505050506040513d601f19601f820116820180604052508101906118ec9190612d23565b156119bb5760006119af826118ff61282c565b6001600160a01b031663dd5a2bd86040518163ffffffff1660e01b815260040160206040518083038186803b15801561193757600080fd5b505afa15801561194b573d6000803e3d6000fd5b505050506040513d601f19601f8201168201806040525081019061196f9190612d3f565b611977612730565b6001600160a01b03166362cea3406040518163ffffffff1660e01b815260040160206040518083038186803b15801561081957600080fd5b90506110528185611a58565b5092915050565b60008060006119cf61282c565b60405163903443b960e01b81526001600160a01b038781166004830152919091169063903443b990602401604080518083038186803b158015611a1157600080fd5b505afa158015611a25573d6000803e3d6000fd5b505050506040513d601f19601f82011682018060405250810190611a499190612dae565b915091506110528482846112b8565b600061098b6001838561095f565b6000806000611a7361282c565b60405163903443b960e01b81526001600160a01b038781166004830152919091169063903443b990602401604080518083038186803b158015611ab557600080fd5b505afa158015611ac9573d6000803e3d6000fd5b505050506040513d601f19601f82011682018060405250810190611aed9190612dae565b91509150600082118015611b015750600081115b15611b245781611b118286612efd565b611b1b9190612edd565b9250505061092a565b505092915050565b600080611b39848461144a565b9050612710611b46612730565b6001600160a01b03166382eb723386866040518363ffffffff1660e01b8152600401611b73929190612e67565b60206040518083038186803b158015611b8b57600080fd5b505afa158015611b9f573d6000803e3d6000fd5b505050506040513d601f19601f82011682018060405250810190611bc39190612d3f565b611bcd9083612efd565b6105a09190612edd565b600081611be5575084611052565b6000611bf3878787876104ed565b90506000611c018787612efd565b90506000611c0f8987612efd565b90506000611c1d8988612efd565b611c28906002612efd565b905060008183611c38868a612efd565b611c429190612ec5565b611c4c9190612edd565b9050670de0b6b3a7640000611c618683612efd565b611c6b9190612edd565b9b9a5050505050505050505050565b6000546001600160a01b0383811691161415611d5157611c9861282c565b604051636c66769560e11b81526001600160a01b038381166004830152919091169063d8cced2a906024015b60206040518083038186803b158015611cdc57600080fd5b505afa158015611cf0573d6000803e3d6000fd5b505050506040513d601f19601f82011682018060405250810190611d149190612d23565b611d4c5760405162461bcd60e51b815260206004820152600960248201526842616420436f6d626f60b81b6044820152606401611343565b61218b565b611d596129aa565b6001600160a01b0316826001600160a01b03161415611daa57611d7a61282c565b60405163643fd21560e11b81526001600160a01b038381166004830152919091169063c87fa42a90602401611cc4565b611db261282c565b604051632f011bf560e11b81526001600160a01b0384811660048301529190911690635e0237ea90602401602060405180830381600087803b158015611df757600080fd5b505af1158015611e0b573d6000803e3d6000fd5b505050506040513d601f19601f82011682018060405250810190611e2f9190612d23565b8015611f345750611e3e61282c565b6001600160a01b031663d8cced2a836001600160a01b03166382bfefc86040518163ffffffff1660e01b815260040160206040518083038186803b158015611e8557600080fd5b505afa158015611e99573d6000803e3d6000fd5b505050506040513d601f19601f82011682018060405250810190611ebd9190612a85565b6040516001600160e01b031960e084901b1681526001600160a01b03909116600482015260240160206040518083038186803b158015611efc57600080fd5b505afa158015611f10573d6000803e3d6000fd5b505050506040513d601f19601f82011682018060405250810190611f349190612d23565b15611f4157611c9861282c565b611f4961282c565b604051632f011bf560e11b81526001600160a01b0384811660048301529190911690635e0237ea90602401602060405180830381600087803b158015611f8e57600080fd5b505af1158015611fa2573d6000803e3d6000fd5b505050506040513d601f19601f82011682018060405250810190611fc69190612d23565b80156120cb5750611fd561282c565b6001600160a01b031663c87fa42a836001600160a01b03166382bfefc86040518163ffffffff1660e01b815260040160206040518083038186803b15801561201c57600080fd5b505afa158015612030573d6000803e3d6000fd5b505050506040513d601f19601f820116820180604052508101906120549190612a85565b6040516001600160e01b031960e084901b1681526001600160a01b03909116600482015260240160206040518083038186803b15801561209357600080fd5b505afa1580156120a7573d6000803e3d6000fd5b505050506040513d601f19601f820116820180604052508101906120cb9190612d23565b1561218b576120d861282c565b60405163643fd21560e11b81526001600160a01b038381166004830152919091169063c87fa42a9060240160206040518083038186803b15801561211b57600080fd5b505afa15801561212f573d6000803e3d6000fd5b505050506040513d601f19601f820116820180604052508101906121539190612d23565b61218b5760405162461bcd60e51b815260206004820152600960248201526842616420436f6d626f60b81b6044820152606401611343565b5050565b600080600061219c612730565b60405163cbc17db360e01b81526001600160a01b03898116600483015287811660248301528681166044830152919091169063cbc17db39060640160206040518083038186803b1580156121ef57600080fd5b505afa158015612203573d6000803e3d6000fd5b505050506040513d601f19601f820116820180604052508101906122279190612d3f565b90506000612233612730565b60405163fde3bbe960e01b81526001600160a01b038a8116600483015288811660248301528781166044830152919091169063fde3bbe99060640160206040518083038186803b15801561228657600080fd5b505afa15801561229a573d6000803e3d6000fd5b505050506040513d601f19601f820116820180604052508101906122be9190612d3f565b905060006122ca612730565b6001600160a01b031663e672f6ad88886040518363ffffffff1660e01b81526004016122f7929190612e67565b60206040518083038186803b15801561230f57600080fd5b505afa158015612323573d6000803e3d6000fd5b505050506040513d601f19601f820116820180604052508101906123479190612d3f565b90506000612353612730565b6001600160a01b031663e0f52db389896040518363ffffffff1660e01b8152600401612380929190612e67565b60206040518083038186803b15801561239857600080fd5b505afa1580156123ac573d6000803e3d6000fd5b505050506040513d601f19601f820116820180604052508101906123d09190612d3f565b905060006123df84848461095f565b905060006123ee8b878761095f565b9c919b50909950505050505050505050565b600080600061240d61282c565b60405163903443b960e01b81526001600160a01b038781166004830152919091169063903443b990602401604080518083038186803b15801561244f57600080fd5b505afa158015612463573d6000803e3d6000fd5b505050506040513d601f19601f820116820180604052508101906124879190612dae565b9150915060008211801561249b5750600081115b15611b245780611b118386612efd565b6000610988826104308686612400565b805160609060005b8181101561260d5760006124d8826001612ec5565b90505b828110156125fa5784818151811061250357634e487b7160e01b600052603260045260246000fd5b602002602001015185838151811061252b57634e487b7160e01b600052603260045260246000fd5b602002602001015111156125e857600085838151811061255b57634e487b7160e01b600052603260045260246000fd5b6020026020010151905085828151811061258557634e487b7160e01b600052603260045260246000fd5b60200260200101518684815181106125ad57634e487b7160e01b600052603260045260246000fd5b602002602001018181525050808683815181106125da57634e487b7160e01b600052603260045260246000fd5b602002602001018181525050505b806125f281612f33565b9150506124db565b508061260581612f33565b9150506124c3565b509192915050565b600061262985670de0b6b3a7640000612400565b9050600061264261263c86612710612f1c565b846112fe565b905060006127106126538782612ec5565b61265d9086612efd565b6126679190612edd565b905084156126bd5781831015801561267f5750808311155b6126b85760405162461bcd60e51b815260206004820152600a6024820152694e6f7420696e7369646560b01b6044820152606401611343565b612706565b81831115806126cc5750808310155b6127065760405162461bcd60e51b815260206004820152600b60248201526a4e6f74206f75747369646560a81b6044820152606401611343565b50505050505050565b600061271b8385612ec5565b612726906002612efd565b61097e8584612efd565b60008060009054906101000a90046001600160a01b03166001600160a01b03166398fabd3a6040518163ffffffff1660e01b815260040160206040518083038186803b15801561277f57600080fd5b505afa158015612793573d6000803e3d6000fd5b505050506040513d601f19601f820116820180604052508101906127b79190612a85565b6001600160a01b03166332fe7b266040518163ffffffff1660e01b815260040160206040518083038186803b1580156127ef57600080fd5b505afa158015612803573d6000803e3d6000fd5b505050506040513d601f19601f820116820180604052508101906128279190612a85565b905090565b60008060009054906101000a90046001600160a01b03166001600160a01b03166398fabd3a6040518163ffffffff1660e01b815260040160206040518083038186803b15801561287b57600080fd5b505afa15801561288f573d6000803e3d6000fd5b505050506040513d601f19601f820116820180604052508101906128b39190612a85565b6001600160a01b031663ebccb5b26040518163ffffffff1660e01b815260040160206040518083038186803b1580156127ef57600080fd5b60008060009054906101000a90046001600160a01b03166001600160a01b03166398fabd3a6040518163ffffffff1660e01b815260040160206040518083038186803b15801561293a57600080fd5b505afa15801561294e573d6000803e3d6000fd5b505050506040513d601f19601f820116820180604052508101906129729190612a85565b6001600160a01b0316632dd310006040518163ffffffff1660e01b815260040160206040518083038186803b1580156127ef57600080fd5b60008060009054906101000a90046001600160a01b03166001600160a01b03166398fabd3a6040518163ffffffff1660e01b815260040160206040518083038186803b1580156129f957600080fd5b505afa158015612a0d573d6000803e3d6000fd5b505050506040513d601f19601f82011682018060405250810190612a319190612a85565b6001600160a01b031663e2c3b0466040518163ffffffff1660e01b815260040160206040518083038186803b1580156127ef57600080fd5b600060208284031215612a7a578081fd5b813561098b81612f7a565b600060208284031215612a96578081fd5b815161098b81612f7a565b60008060408385031215612ab3578081fd5b8235612abe81612f7a565b91506020830135612ace81612f7a565b809150509250929050565b600080600060608486031215612aed578081fd5b8335612af881612f7a565b92506020840135612b0881612f7a565b929592945050506040919091013590565b60008060008060808587031215612b2e578081fd5b8435612b3981612f7a565b93506020850135612b4981612f7a565b93969395505050506040820135916060013590565b60008060408385031215612b70578182fd5b8235612b7b81612f7a565b946020939093013593505050565b600080600060608486031215612b9d578283fd5b8335612ba881612f7a565b9250602084013591506040840135612bbf81612f7a565b809150509250925092565b60008060008060808587031215612bdf578384fd5b8435612bea81612f7a565b9350602085013592506040850135612c0181612f7a565b91506060850135612c1181612f7a565b939692955090935050565b60008060008060808587031215612c31578384fd5b8435612c3c81612f7a565b9350602085013592506040850135612c5381612f8f565b9396929550929360600135925050565b60006020808385031215612c75578182fd5b823567ffffffffffffffff80821115612c8c578384fd5b818501915085601f830112612c9f578384fd5b813581811115612cb157612cb1612f64565b8060051b604051601f19603f83011681018181108582111715612cd657612cd6612f64565b604052828152858101935084860182860187018a1015612cf4578788fd5b8795505b83861015612d16578035855260019590950194938601938601612cf8565b5098975050505050505050565b600060208284031215612d34578081fd5b815161098b81612f8f565b600060208284031215612d50578081fd5b5051919050565b600080600060608486031215612d6b578283fd5b833592506020840135612d7d81612f7a565b91506040840135612bbf81612f7a565b60008060408385031215612d9f578182fd5b50508035926020909101359150565b60008060408385031215612dc0578182fd5b505080516020909101519092909150565b600080600060608486031215612de5578081fd5b505081359360208301359350604090920135919050565b60008060008060808587031215612e11578182fd5b5050823594602084013594506040840135936060013592509050565b600080600080600060a08688031215612e44578283fd5b505083359560208501359550604085013594606081013594506080013592509050565b6001600160a01b0392831681529116602082015260400190565b6020808252825182820181905260009190848201906040850190845b81811015612eb957835183529284019291840191600101612e9d565b50909695505050505050565b60008219821115612ed857612ed8612f4e565b500190565b600082612ef857634e487b7160e01b81526012600452602481fd5b500490565b6000816000190483118215151615612f1757612f17612f4e565b500290565b600082821015612f2e57612f2e612f4e565b500390565b6000600019821415612f4757612f47612f4e565b5060010190565b634e487b7160e01b600052601160045260246000fd5b634e487b7160e01b600052604160045260246000fd5b6001600160a01b038116811461095c57600080fd5b801515811461095c57600080fdfea2646970667358221220328563c29bd432f401de04c40e8a615e342ddfa09f408f0f113b2110f23d17fd64736f6c63430008030033",
  "linkReferences": {},
  "deployedLinkReferences": {}
}